{
	"Bluelight-MP/UserDashboard.sol": {
		"UserDashboard": {
			"abi": [
				{
					"inputs": [],
					"stateMutability": "nonpayable",
					"type": "constructor"
				},
				{
					"anonymous": false,
					"inputs": [
						{
							"indexed": true,
							"internalType": "address",
							"name": "user",
							"type": "address"
						},
						{
							"indexed": false,
							"internalType": "uint256",
							"name": "timeStamp",
							"type": "uint256"
						}
					],
					"name": "LoggingIn",
					"type": "event"
				},
				{
					"anonymous": false,
					"inputs": [
						{
							"indexed": true,
							"internalType": "address",
							"name": "user",
							"type": "address"
						},
						{
							"indexed": false,
							"internalType": "uint256",
							"name": "timeStamp",
							"type": "uint256"
						}
					],
					"name": "LoggingOut",
					"type": "event"
				},
				{
					"anonymous": false,
					"inputs": [
						{
							"indexed": true,
							"internalType": "address",
							"name": "user",
							"type": "address"
						},
						{
							"indexed": false,
							"internalType": "string",
							"name": "username",
							"type": "string"
						},
						{
							"indexed": false,
							"internalType": "uint256",
							"name": "timeStamp",
							"type": "uint256"
						}
					],
					"name": "SignUp",
					"type": "event"
				},
				{
					"inputs": [
						{
							"internalType": "address",
							"name": "",
							"type": "address"
						}
					],
					"name": "addressToAmountRecord",
					"outputs": [
						{
							"internalType": "uint256",
							"name": "curAmountSpent",
							"type": "uint256"
						},
						{
							"internalType": "uint256",
							"name": "tokenAmountSpent",
							"type": "uint256"
						},
						{
							"internalType": "uint256",
							"name": "curAmountEarned",
							"type": "uint256"
						},
						{
							"internalType": "uint256",
							"name": "tokenAmountEarned",
							"type": "uint256"
						}
					],
					"stateMutability": "view",
					"type": "function"
				},
				{
					"inputs": [
						{
							"internalType": "address",
							"name": "_userAddr",
							"type": "address"
						}
					],
					"name": "checkLogIn",
					"outputs": [
						{
							"internalType": "bool",
							"name": "",
							"type": "bool"
						}
					],
					"stateMutability": "view",
					"type": "function"
				},
				{
					"inputs": [],
					"name": "checkUser",
					"outputs": [
						{
							"internalType": "string",
							"name": "",
							"type": "string"
						}
					],
					"stateMutability": "view",
					"type": "function"
				},
				{
					"inputs": [],
					"name": "deleteUser",
					"outputs": [
						{
							"internalType": "bool",
							"name": "",
							"type": "bool"
						}
					],
					"stateMutability": "nonpayable",
					"type": "function"
				},
				{
					"inputs": [
						{
							"internalType": "enum UserDashboard.NftCategory",
							"name": "nftCat",
							"type": "uint8"
						}
					],
					"name": "getAllNftCatWise",
					"outputs": [
						{
							"internalType": "bytes32[]",
							"name": "",
							"type": "bytes32[]"
						}
					],
					"stateMutability": "view",
					"type": "function"
				},
				{
					"inputs": [
						{
							"internalType": "address",
							"name": "_nftContractAddress",
							"type": "address"
						},
						{
							"internalType": "uint256",
							"name": "_tokenId",
							"type": "uint256"
						}
					],
					"name": "getNft",
					"outputs": [
						{
							"internalType": "bytes32",
							"name": "uniKey",
							"type": "bytes32"
						},
						{
							"internalType": "address",
							"name": "nftContractAddress",
							"type": "address"
						},
						{
							"internalType": "uint256",
							"name": "tokenId",
							"type": "uint256"
						},
						{
							"internalType": "string",
							"name": "name",
							"type": "string"
						},
						{
							"internalType": "address",
							"name": "owner",
							"type": "address"
						},
						{
							"internalType": "string",
							"name": "iPFS",
							"type": "string"
						}
					],
					"stateMutability": "view",
					"type": "function"
				},
				{
					"inputs": [],
					"name": "getNftCategories",
					"outputs": [
						{
							"internalType": "string",
							"name": "",
							"type": "string"
						},
						{
							"internalType": "string",
							"name": "",
							"type": "string"
						},
						{
							"internalType": "string",
							"name": "",
							"type": "string"
						},
						{
							"internalType": "string",
							"name": "",
							"type": "string"
						},
						{
							"internalType": "string",
							"name": "",
							"type": "string"
						},
						{
							"internalType": "string",
							"name": "",
							"type": "string"
						},
						{
							"internalType": "string",
							"name": "",
							"type": "string"
						}
					],
					"stateMutability": "pure",
					"type": "function"
				},
				{
					"inputs": [
						{
							"internalType": "bytes32",
							"name": "_uniKey",
							"type": "bytes32"
						}
					],
					"name": "getNftWithBytes32",
					"outputs": [
						{
							"internalType": "string",
							"name": "_name",
							"type": "string"
						},
						{
							"internalType": "address",
							"name": "nftContractAddress",
							"type": "address"
						},
						{
							"internalType": "uint256",
							"name": "tokenId",
							"type": "uint256"
						},
						{
							"internalType": "address",
							"name": "owner",
							"type": "address"
						},
						{
							"internalType": "string",
							"name": "iPFS",
							"type": "string"
						}
					],
					"stateMutability": "view",
					"type": "function"
				},
				{
					"inputs": [],
					"name": "getProfilePic",
					"outputs": [
						{
							"internalType": "string",
							"name": "ipfs",
							"type": "string"
						}
					],
					"stateMutability": "view",
					"type": "function"
				},
				{
					"inputs": [
						{
							"internalType": "address",
							"name": "ownerOfNfts",
							"type": "address"
						}
					],
					"name": "getUniKeysMapping",
					"outputs": [
						{
							"internalType": "bytes32[]",
							"name": "",
							"type": "bytes32[]"
						}
					],
					"stateMutability": "view",
					"type": "function"
				},
				{
					"inputs": [
						{
							"internalType": "enum UserDashboard.NftCategory",
							"name": "nftCat",
							"type": "uint8"
						}
					],
					"name": "getUserNftCatWise",
					"outputs": [
						{
							"internalType": "bytes32[]",
							"name": "",
							"type": "bytes32[]"
						}
					],
					"stateMutability": "view",
					"type": "function"
				},
				{
					"inputs": [],
					"name": "logIn",
					"outputs": [],
					"stateMutability": "nonpayable",
					"type": "function"
				},
				{
					"inputs": [],
					"name": "logOut",
					"outputs": [],
					"stateMutability": "nonpayable",
					"type": "function"
				},
				{
					"inputs": [
						{
							"internalType": "bytes32",
							"name": "",
							"type": "bytes32"
						}
					],
					"name": "myNFTs",
					"outputs": [
						{
							"internalType": "string",
							"name": "nftName",
							"type": "string"
						},
						{
							"internalType": "address",
							"name": "contractAddress",
							"type": "address"
						},
						{
							"internalType": "uint256",
							"name": "tokenId",
							"type": "uint256"
						},
						{
							"internalType": "address",
							"name": "owner",
							"type": "address"
						},
						{
							"internalType": "string",
							"name": "ipfs",
							"type": "string"
						},
						{
							"internalType": "enum UserDashboard.NftCategory",
							"name": "nftCategory",
							"type": "uint8"
						}
					],
					"stateMutability": "view",
					"type": "function"
				},
				{
					"inputs": [
						{
							"internalType": "enum UserDashboard.NftCategory",
							"name": "",
							"type": "uint8"
						},
						{
							"internalType": "uint256",
							"name": "",
							"type": "uint256"
						}
					],
					"name": "nftCatWise",
					"outputs": [
						{
							"internalType": "bytes32",
							"name": "",
							"type": "bytes32"
						}
					],
					"stateMutability": "view",
					"type": "function"
				},
				{
					"inputs": [
						{
							"internalType": "address",
							"name": "user",
							"type": "address"
						},
						{
							"internalType": "uint256",
							"name": "curAmountSpent",
							"type": "uint256"
						},
						{
							"internalType": "uint256",
							"name": "tokenAmountSpent",
							"type": "uint256"
						},
						{
							"internalType": "uint256",
							"name": "curAmountEarned",
							"type": "uint256"
						},
						{
							"internalType": "uint256",
							"name": "tokenAmountEarned",
							"type": "uint256"
						}
					],
					"name": "setAmountRecord",
					"outputs": [],
					"stateMutability": "nonpayable",
					"type": "function"
				},
				{
					"inputs": [
						{
							"internalType": "address",
							"name": "currentOwner",
							"type": "address"
						},
						{
							"internalType": "address",
							"name": "newOwner",
							"type": "address"
						},
						{
							"internalType": "bytes32",
							"name": "uniKey",
							"type": "bytes32"
						}
					],
					"name": "setBuyNftData",
					"outputs": [],
					"stateMutability": "nonpayable",
					"type": "function"
				},
				{
					"inputs": [
						{
							"internalType": "string",
							"name": "_name",
							"type": "string"
						},
						{
							"internalType": "address",
							"name": "nftContractAddress",
							"type": "address"
						},
						{
							"internalType": "uint256",
							"name": "tokenId",
							"type": "uint256"
						},
						{
							"internalType": "string",
							"name": "iPFS",
							"type": "string"
						}
					],
					"name": "setNft",
					"outputs": [],
					"stateMutability": "nonpayable",
					"type": "function"
				},
				{
					"inputs": [
						{
							"internalType": "address",
							"name": "nftContractAddress",
							"type": "address"
						},
						{
							"internalType": "uint256",
							"name": "tokenId",
							"type": "uint256"
						},
						{
							"internalType": "enum UserDashboard.NftCategory",
							"name": "nftCat",
							"type": "uint8"
						}
					],
					"name": "setNftCat",
					"outputs": [],
					"stateMutability": "nonpayable",
					"type": "function"
				},
				{
					"inputs": [
						{
							"internalType": "string",
							"name": "iPFS",
							"type": "string"
						}
					],
					"name": "setProfilePic",
					"outputs": [],
					"stateMutability": "nonpayable",
					"type": "function"
				},
				{
					"inputs": [
						{
							"internalType": "string",
							"name": "_userName",
							"type": "string"
						}
					],
					"name": "signUp",
					"outputs": [],
					"stateMutability": "nonpayable",
					"type": "function"
				},
				{
					"inputs": [
						{
							"internalType": "address",
							"name": "",
							"type": "address"
						},
						{
							"internalType": "uint256",
							"name": "",
							"type": "uint256"
						}
					],
					"name": "uniKeysMapping",
					"outputs": [
						{
							"internalType": "bytes32",
							"name": "",
							"type": "bytes32"
						}
					],
					"stateMutability": "view",
					"type": "function"
				},
				{
					"inputs": [
						{
							"internalType": "string",
							"name": "_userName",
							"type": "string"
						}
					],
					"name": "updateUser",
					"outputs": [],
					"stateMutability": "nonpayable",
					"type": "function"
				},
				{
					"inputs": [
						{
							"internalType": "address",
							"name": "user",
							"type": "address"
						}
					],
					"name": "userAmountDetail",
					"outputs": [
						{
							"internalType": "uint256",
							"name": "currencyEarned",
							"type": "uint256"
						},
						{
							"internalType": "uint256",
							"name": "earnedToken",
							"type": "uint256"
						},
						{
							"internalType": "uint256",
							"name": "currencySpent",
							"type": "uint256"
						},
						{
							"internalType": "uint256",
							"name": "tokenSpent",
							"type": "uint256"
						}
					],
					"stateMutability": "view",
					"type": "function"
				},
				{
					"inputs": [
						{
							"internalType": "string",
							"name": "",
							"type": "string"
						}
					],
					"name": "userNameToAddress",
					"outputs": [
						{
							"internalType": "address",
							"name": "",
							"type": "address"
						}
					],
					"stateMutability": "view",
					"type": "function"
				},
				{
					"inputs": [
						{
							"internalType": "address",
							"name": "",
							"type": "address"
						},
						{
							"internalType": "enum UserDashboard.NftCategory",
							"name": "",
							"type": "uint8"
						},
						{
							"internalType": "uint256",
							"name": "",
							"type": "uint256"
						}
					],
					"name": "userNftCatWise",
					"outputs": [
						{
							"internalType": "bytes32",
							"name": "",
							"type": "bytes32"
						}
					],
					"stateMutability": "view",
					"type": "function"
				}
			],
			"devdoc": {
				"kind": "dev",
				"methods": {},
				"version": 1
			},
			"evm": {
				"assembly": "    /* \"Bluelight-MP/UserDashboard.sol\":173:8343  contract UserDashboard is IUserDashboard, Helper{\r... */\n  mstore(0x40, 0x80)\n    /* \"Bluelight-MP/UserDashboard.sol\":1902:1925  constructor(){\r... */\n  callvalue\n  dup1\n  iszero\n  tag_1\n  jumpi\n  0x00\n  dup1\n  revert\ntag_1:\n  pop\n    /* \"Bluelight-MP/UserDashboard.sol\":173:8343  contract UserDashboard is IUserDashboard, Helper{\r... */\n  dataSize(sub_0)\n  dup1\n  dataOffset(sub_0)\n  0x00\n  codecopy\n  0x00\n  return\nstop\n\nsub_0: assembly {\n        /* \"Bluelight-MP/UserDashboard.sol\":173:8343  contract UserDashboard is IUserDashboard, Helper{\r... */\n      mstore(0x40, 0x80)\n      callvalue\n      dup1\n      iszero\n      tag_1\n      jumpi\n      0x00\n      dup1\n      revert\n    tag_1:\n      pop\n      jumpi(tag_2, lt(calldatasize, 0x04))\n      shr(0xe0, calldataload(0x00))\n      dup1\n      0x7111e750\n      gt\n      tag_29\n      jumpi\n      dup1\n      0xc1562547\n      gt\n      tag_30\n      jumpi\n      dup1\n      0xdc9151c5\n      gt\n      tag_31\n      jumpi\n      dup1\n      0xdc9151c5\n      eq\n      tag_25\n      jumpi\n      dup1\n      0xe36d6f50\n      eq\n      tag_26\n      jumpi\n      dup1\n      0xeb972008\n      eq\n      tag_27\n      jumpi\n      dup1\n      0xf6f2ede0\n      eq\n      tag_28\n      jumpi\n      jump(tag_2)\n    tag_31:\n      dup1\n      0xc1562547\n      eq\n      tag_22\n      jumpi\n      dup1\n      0xceda3b20\n      eq\n      tag_23\n      jumpi\n      dup1\n      0xda31f722\n      eq\n      tag_24\n      jumpi\n      jump(tag_2)\n    tag_30:\n      dup1\n      0x7111e750\n      eq\n      tag_16\n      jumpi\n      dup1\n      0x894fd813\n      eq\n      tag_17\n      jumpi\n      dup1\n      0x8a1b9736\n      eq\n      tag_18\n      jumpi\n      dup1\n      0xadcfb4fc\n      eq\n      tag_19\n      jumpi\n      dup1\n      0xb2cf1886\n      eq\n      tag_20\n      jumpi\n      dup1\n      0xbbc53ef2\n      eq\n      tag_21\n      jumpi\n      jump(tag_2)\n    tag_29:\n      dup1\n      0x2ae23109\n      gt\n      tag_32\n      jumpi\n      dup1\n      0x4be422ae\n      gt\n      tag_33\n      jumpi\n      dup1\n      0x4be422ae\n      eq\n      tag_12\n      jumpi\n      dup1\n      0x5cb0122a\n      eq\n      tag_13\n      jumpi\n      dup1\n      0x6c608709\n      eq\n      tag_14\n      jumpi\n      dup1\n      0x6e9d4f8d\n      eq\n      tag_15\n      jumpi\n      jump(tag_2)\n    tag_33:\n      dup1\n      0x2ae23109\n      eq\n      tag_9\n      jumpi\n      dup1\n      0x377b47a3\n      eq\n      tag_10\n      jumpi\n      dup1\n      0x3a196986\n      eq\n      tag_11\n      jumpi\n      jump(tag_2)\n    tag_32:\n      dup1\n      0x011f2cce\n      eq\n      tag_3\n      jumpi\n      dup1\n      0x026ff05e\n      eq\n      tag_4\n      jumpi\n      dup1\n      0x07edbdc5\n      eq\n      tag_5\n      jumpi\n      dup1\n      0x0b4f12f6\n      eq\n      tag_6\n      jumpi\n      dup1\n      0x1c6932b6\n      eq\n      tag_7\n      jumpi\n      dup1\n      0x23e583b4\n      eq\n      tag_8\n      jumpi\n    tag_2:\n      0x00\n      dup1\n      revert\n        /* \"Bluelight-MP/UserDashboard.sol\":6350:6524  function setProfilePic(string memory iPFS) external {\r... */\n    tag_3:\n      tag_34\n      0x04\n      dup1\n      calldatasize\n      sub\n      dup2\n      add\n      swap1\n      tag_35\n      swap2\n      swap1\n      tag_36\n      jump\t// in\n    tag_35:\n      tag_37\n      jump\t// in\n    tag_34:\n      stop\n        /* \"Bluelight-MP/UserDashboard.sol\":7167:7460  function deleteUser() external virtual override returns(bool){\r... */\n    tag_4:\n      tag_38\n      tag_39\n      jump\t// in\n    tag_38:\n      mload(0x40)\n      tag_40\n      swap2\n      swap1\n      tag_41\n      jump\t// in\n    tag_40:\n      mload(0x40)\n      dup1\n      swap2\n      sub\n      swap1\n      return\n        /* \"Bluelight-MP/UserDashboard.sol\":799:839  mapping (bytes32 => MyNFT) public myNFTs */\n    tag_5:\n      tag_42\n      0x04\n      dup1\n      calldatasize\n      sub\n      dup2\n      add\n      swap1\n      tag_43\n      swap2\n      swap1\n      tag_44\n      jump\t// in\n    tag_43:\n      tag_45\n      jump\t// in\n    tag_42:\n      mload(0x40)\n      tag_46\n      swap7\n      swap6\n      swap5\n      swap4\n      swap3\n      swap2\n      swap1\n      tag_47\n      jump\t// in\n    tag_46:\n      mload(0x40)\n      dup1\n      swap2\n      sub\n      swap1\n      return\n        /* \"Bluelight-MP/UserDashboard.sol\":6729:7161  function updateUser(string memory _userName) external virtual override{\r... */\n    tag_6:\n      tag_48\n      0x04\n      dup1\n      calldatasize\n      sub\n      dup2\n      add\n      swap1\n      tag_49\n      swap2\n      swap1\n      tag_36\n      jump\t// in\n    tag_49:\n      tag_50\n      jump\t// in\n    tag_48:\n      stop\n        /* \"Bluelight-MP/UserDashboard.sol\":4200:4679  function getNft(address _nftContractAddress, uint256 _tokenId) external virtual override view \r... */\n    tag_7:\n      tag_51\n      0x04\n      dup1\n      calldatasize\n      sub\n      dup2\n      add\n      swap1\n      tag_52\n      swap2\n      swap1\n      tag_53\n      jump\t// in\n    tag_52:\n      tag_54\n      jump\t// in\n    tag_51:\n      mload(0x40)\n      tag_55\n      swap7\n      swap6\n      swap5\n      swap4\n      swap3\n      swap2\n      swap1\n      tag_56\n      jump\t// in\n    tag_55:\n      mload(0x40)\n      dup1\n      swap2\n      sub\n      swap1\n      return\n        /* \"Bluelight-MP/UserDashboard.sol\":846:898  mapping (address => bytes32[]) public uniKeysMapping */\n    tag_8:\n      tag_57\n      0x04\n      dup1\n      calldatasize\n      sub\n      dup2\n      add\n      swap1\n      tag_58\n      swap2\n      swap1\n      tag_53\n      jump\t// in\n    tag_58:\n      tag_59\n      jump\t// in\n    tag_57:\n      mload(0x40)\n      tag_60\n      swap2\n      swap1\n      tag_61\n      jump\t// in\n    tag_60:\n      mload(0x40)\n      dup1\n      swap2\n      sub\n      swap1\n      return\n        /* \"Bluelight-MP/UserDashboard.sol\":2499:2931  function setNftCat(address nftContractAddress, uint256 tokenId, NftCategory nftCat) external {\r... */\n    tag_9:\n      tag_62\n      0x04\n      dup1\n      calldatasize\n      sub\n      dup2\n      add\n      swap1\n      tag_63\n      swap2\n      swap1\n      tag_64\n      jump\t// in\n    tag_63:\n      tag_65\n      jump\t// in\n    tag_62:\n      stop\n        /* \"Bluelight-MP/UserDashboard.sol\":5028:5308  function logIn() virtual override external {\r... */\n    tag_10:\n      tag_66\n      tag_67\n      jump\t// in\n    tag_66:\n      stop\n        /* \"Bluelight-MP/UserDashboard.sol\":3792:4188  function getNftWithBytes32(bytes32 _uniKey) external virtual override view \r... */\n    tag_11:\n      tag_68\n      0x04\n      dup1\n      calldatasize\n      sub\n      dup2\n      add\n      swap1\n      tag_69\n      swap2\n      swap1\n      tag_44\n      jump\t// in\n    tag_69:\n      tag_70\n      jump\t// in\n    tag_68:\n      mload(0x40)\n      tag_71\n      swap6\n      swap5\n      swap4\n      swap3\n      swap2\n      swap1\n      tag_72\n      jump\t// in\n    tag_71:\n      mload(0x40)\n      dup1\n      swap2\n      sub\n      swap1\n      return\n        /* \"Bluelight-MP/UserDashboard.sol\":5457:5687  function logOut() external virtual override{\r... */\n    tag_12:\n      tag_73\n      tag_74\n      jump\t// in\n    tag_73:\n      stop\n        /* \"Bluelight-MP/UserDashboard.sol\":4685:4825  function getUniKeysMapping(address ownerOfNfts) external view returns(bytes32[] memory){\r... */\n    tag_13:\n      tag_75\n      0x04\n      dup1\n      calldatasize\n      sub\n      dup2\n      add\n      swap1\n      tag_76\n      swap2\n      swap1\n      tag_77\n      jump\t// in\n    tag_76:\n      tag_78\n      jump\t// in\n    tag_75:\n      mload(0x40)\n      tag_79\n      swap2\n      swap1\n      tag_80\n      jump\t// in\n    tag_79:\n      mload(0x40)\n      dup1\n      swap2\n      sub\n      swap1\n      return\n        /* \"Bluelight-MP/UserDashboard.sol\":1115:1167  mapping (string => address) public userNameToAddress */\n    tag_14:\n      tag_81\n      0x04\n      dup1\n      calldatasize\n      sub\n      dup2\n      add\n      swap1\n      tag_82\n      swap2\n      swap1\n      tag_36\n      jump\t// in\n    tag_82:\n      tag_83\n      jump\t// in\n    tag_81:\n      mload(0x40)\n      tag_84\n      swap2\n      swap1\n      tag_85\n      jump\t// in\n    tag_84:\n      mload(0x40)\n      dup1\n      swap2\n      sub\n      swap1\n      return\n        /* \"Bluelight-MP/UserDashboard.sol\":1931:2493  function setNft(string memory _name, address nftContractAddress, uint256 tokenId, string memory iPFS) external virtual override{\r... */\n    tag_15:\n      tag_86\n      0x04\n      dup1\n      calldatasize\n      sub\n      dup2\n      add\n      swap1\n      tag_87\n      swap2\n      swap1\n      tag_88\n      jump\t// in\n    tag_87:\n      tag_89\n      jump\t// in\n    tag_86:\n      stop\n        /* \"Bluelight-MP/UserDashboard.sol\":1214:1276  mapping (address => AmountRecord) public addressToAmountRecord */\n    tag_16:\n      tag_90\n      0x04\n      dup1\n      calldatasize\n      sub\n      dup2\n      add\n      swap1\n      tag_91\n      swap2\n      swap1\n      tag_77\n      jump\t// in\n    tag_91:\n      tag_92\n      jump\t// in\n    tag_90:\n      mload(0x40)\n      tag_93\n      swap5\n      swap4\n      swap3\n      swap2\n      swap1\n      tag_94\n      jump\t// in\n    tag_93:\n      mload(0x40)\n      dup1\n      swap2\n      sub\n      swap1\n      return\n        /* \"Bluelight-MP/UserDashboard.sol\":7466:7924  function setAmountRecord(address user, uint curAmountSpent, uint tokenAmountSpent, uint curAmountEarned, uint tokenAmountEarned) external virtual override{\r... */\n    tag_17:\n      tag_95\n      0x04\n      dup1\n      calldatasize\n      sub\n      dup2\n      add\n      swap1\n      tag_96\n      swap2\n      swap1\n      tag_97\n      jump\t// in\n    tag_96:\n      tag_98\n      jump\t// in\n    tag_95:\n      stop\n        /* \"Bluelight-MP/UserDashboard.sol\":7930:8340  function userAmountDetail(address user) external virtual override view \r... */\n    tag_18:\n      tag_99\n      0x04\n      dup1\n      calldatasize\n      sub\n      dup2\n      add\n      swap1\n      tag_100\n      swap2\n      swap1\n      tag_77\n      jump\t// in\n    tag_100:\n      tag_101\n      jump\t// in\n    tag_99:\n      mload(0x40)\n      tag_102\n      swap5\n      swap4\n      swap3\n      swap2\n      swap1\n      tag_94\n      jump\t// in\n    tag_102:\n      mload(0x40)\n      dup1\n      swap2\n      sub\n      swap1\n      return\n        /* \"Bluelight-MP/UserDashboard.sol\":5693:6344  function signUp(string memory _userName) external virtual override{\r... */\n    tag_19:\n      tag_103\n      0x04\n      dup1\n      calldatasize\n      sub\n      dup2\n      add\n      swap1\n      tag_104\n      swap2\n      swap1\n      tag_36\n      jump\t// in\n    tag_104:\n      tag_105\n      jump\t// in\n    tag_103:\n      stop\n        /* \"Bluelight-MP/UserDashboard.sol\":905:957  mapping (NftCategory => bytes32[]) public nftCatWise */\n    tag_20:\n      tag_106\n      0x04\n      dup1\n      calldatasize\n      sub\n      dup2\n      add\n      swap1\n      tag_107\n      swap2\n      swap1\n      tag_108\n      jump\t// in\n    tag_107:\n      tag_109\n      jump\t// in\n    tag_106:\n      mload(0x40)\n      tag_110\n      swap2\n      swap1\n      tag_61\n      jump\t// in\n    tag_110:\n      mload(0x40)\n      dup1\n      swap2\n      sub\n      swap1\n      return\n        /* \"Bluelight-MP/UserDashboard.sol\":3528:3786  function getNftCategories() external pure returns(string memory,string memory,string memory,string memory,string memory,string memory,string memory) {\r... */\n    tag_21:\n      tag_111\n      tag_112\n      jump\t// in\n    tag_111:\n      mload(0x40)\n      tag_113\n      swap8\n      swap7\n      swap6\n      swap5\n      swap4\n      swap3\n      swap2\n      swap1\n      tag_114\n      jump\t// in\n    tag_113:\n      mload(0x40)\n      dup1\n      swap2\n      sub\n      swap1\n      return\n        /* \"Bluelight-MP/UserDashboard.sol\":6530:6723  function checkUser() external virtual override view returns(string memory){\r... */\n    tag_22:\n      tag_115\n      tag_116\n      jump\t// in\n    tag_115:\n      mload(0x40)\n      tag_117\n      swap2\n      swap1\n      tag_118\n      jump\t// in\n    tag_117:\n      mload(0x40)\n      dup1\n      swap2\n      sub\n      swap1\n      return\n        /* \"Bluelight-MP/UserDashboard.sol\":2937:3161  function setBuyNftData(address currentOwner, address newOwner, bytes32 uniKey) external virtual override{\r... */\n    tag_23:\n      tag_119\n      0x04\n      dup1\n      calldatasize\n      sub\n      dup2\n      add\n      swap1\n      tag_120\n      swap2\n      swap1\n      tag_121\n      jump\t// in\n    tag_120:\n      tag_122\n      jump\t// in\n    tag_119:\n      stop\n        /* \"Bluelight-MP/UserDashboard.sol\":3376:3522  function getUserNftCatWise(NftCategory nftCat) external view returns(bytes32[] memory){\r... */\n    tag_24:\n      tag_123\n      0x04\n      dup1\n      calldatasize\n      sub\n      dup2\n      add\n      swap1\n      tag_124\n      swap2\n      swap1\n      tag_125\n      jump\t// in\n    tag_124:\n      tag_126\n      jump\t// in\n    tag_123:\n      mload(0x40)\n      tag_127\n      swap2\n      swap1\n      tag_80\n      jump\t// in\n    tag_127:\n      mload(0x40)\n      dup1\n      swap2\n      sub\n      swap1\n      return\n        /* \"Bluelight-MP/UserDashboard.sol\":964:1041  mapping (address => mapping (NftCategory => bytes32[])) public userNftCatWise */\n    tag_25:\n      tag_128\n      0x04\n      dup1\n      calldatasize\n      sub\n      dup2\n      add\n      swap1\n      tag_129\n      swap2\n      swap1\n      tag_130\n      jump\t// in\n    tag_129:\n      tag_131\n      jump\t// in\n    tag_128:\n      mload(0x40)\n      tag_132\n      swap2\n      swap1\n      tag_61\n      jump\t// in\n    tag_132:\n      mload(0x40)\n      dup1\n      swap2\n      sub\n      swap1\n      return\n        /* \"Bluelight-MP/UserDashboard.sol\":3241:3370  function getAllNftCatWise(NftCategory nftCat) external view returns(bytes32[] memory){\r... */\n    tag_26:\n      tag_133\n      0x04\n      dup1\n      calldatasize\n      sub\n      dup2\n      add\n      swap1\n      tag_134\n      swap2\n      swap1\n      tag_125\n      jump\t// in\n    tag_134:\n      tag_135\n      jump\t// in\n    tag_133:\n      mload(0x40)\n      tag_136\n      swap2\n      swap1\n      tag_80\n      jump\t// in\n    tag_136:\n      mload(0x40)\n      dup1\n      swap2\n      sub\n      swap1\n      return\n        /* \"Bluelight-MP/UserDashboard.sol\":4831:4951  function getProfilePic() external view returns(string memory ipfs){\r... */\n    tag_27:\n      tag_137\n      tag_138\n      jump\t// in\n    tag_137:\n      mload(0x40)\n      tag_139\n      swap2\n      swap1\n      tag_118\n      jump\t// in\n    tag_139:\n      mload(0x40)\n      dup1\n      swap2\n      sub\n      swap1\n      return\n        /* \"Bluelight-MP/UserDashboard.sol\":5315:5451  function checkLogIn(address _userAddr) external virtual override view returns(bool){  \r... */\n    tag_28:\n      tag_140\n      0x04\n      dup1\n      calldatasize\n      sub\n      dup2\n      add\n      swap1\n      tag_141\n      swap2\n      swap1\n      tag_77\n      jump\t// in\n    tag_141:\n      tag_142\n      jump\t// in\n    tag_140:\n      mload(0x40)\n      tag_143\n      swap2\n      swap1\n      tag_41\n      jump\t// in\n    tag_143:\n      mload(0x40)\n      dup1\n      swap2\n      sub\n      swap1\n      return\n        /* \"Bluelight-MP/UserDashboard.sol\":6350:6524  function setProfilePic(string memory iPFS) external {\r... */\n    tag_37:\n        /* \"Bluelight-MP/UserDashboard.sol\":6422:6427  users */\n      0x04\n        /* \"Bluelight-MP/UserDashboard.sol\":6422:6439  users[msg.sender] */\n      0x00\n        /* \"Bluelight-MP/UserDashboard.sol\":6428:6438  msg.sender */\n      caller\n        /* \"Bluelight-MP/UserDashboard.sol\":6422:6439  users[msg.sender] */\n      0xffffffffffffffffffffffffffffffffffffffff\n      and\n      0xffffffffffffffffffffffffffffffffffffffff\n      and\n      dup2\n      mstore\n      0x20\n      add\n      swap1\n      dup2\n      mstore\n      0x20\n      add\n      0x00\n      keccak256\n        /* \"Bluelight-MP/UserDashboard.sol\":6422:6448  users[msg.sender].loggedIn */\n      0x03\n      add\n      0x00\n      swap1\n      sload\n      swap1\n      0x0100\n      exp\n      swap1\n      div\n      0xff\n      and\n        /* \"Bluelight-MP/UserDashboard.sol\":6450:6469  CREATE_ACC_OR_LOGIN */\n      mload(0x40)\n      dup1\n      0x40\n      add\n      0x40\n      mstore\n      dup1\n      0x05\n      dup2\n      mstore\n      0x20\n      add\n      0x574d552d32000000000000000000000000000000000000000000000000000000\n      dup2\n      mstore\n      pop\n        /* \"Bluelight-MP/UserDashboard.sol\":6413:6470  require (users[msg.sender].loggedIn, CREATE_ACC_OR_LOGIN) */\n      swap1\n      tag_145\n      jumpi\n      mload(0x40)\n      0x08c379a000000000000000000000000000000000000000000000000000000000\n      dup2\n      mstore\n      0x04\n      add\n      tag_146\n      swap2\n      swap1\n      tag_118\n      jump\t// in\n    tag_146:\n      mload(0x40)\n      dup1\n      swap2\n      sub\n      swap1\n      revert\n    tag_145:\n      pop\n        /* \"Bluelight-MP/UserDashboard.sol\":6512:6516  iPFS */\n      dup1\n        /* \"Bluelight-MP/UserDashboard.sol\":6481:6486  users */\n      0x04\n        /* \"Bluelight-MP/UserDashboard.sol\":6481:6498  users[msg.sender] */\n      0x00\n        /* \"Bluelight-MP/UserDashboard.sol\":6487:6497  msg.sender */\n      caller\n        /* \"Bluelight-MP/UserDashboard.sol\":6481:6498  users[msg.sender] */\n      0xffffffffffffffffffffffffffffffffffffffff\n      and\n      0xffffffffffffffffffffffffffffffffffffffff\n      and\n      dup2\n      mstore\n      0x20\n      add\n      swap1\n      dup2\n      mstore\n      0x20\n      add\n      0x00\n      keccak256\n        /* \"Bluelight-MP/UserDashboard.sol\":6481:6509  users[msg.sender].profilePic */\n      0x04\n      add\n        /* \"Bluelight-MP/UserDashboard.sol\":6481:6516  users[msg.sender].profilePic = iPFS */\n      swap1\n      dup1\n      mload\n      swap1\n      0x20\n      add\n      swap1\n      tag_147\n      swap3\n      swap2\n      swap1\n      tag_148\n      jump\t// in\n    tag_147:\n      pop\n        /* \"Bluelight-MP/UserDashboard.sol\":6350:6524  function setProfilePic(string memory iPFS) external {\r... */\n      pop\n      jump\t// out\n        /* \"Bluelight-MP/UserDashboard.sol\":7167:7460  function deleteUser() external virtual override returns(bool){\r... */\n    tag_39:\n        /* \"Bluelight-MP/UserDashboard.sol\":7223:7227  bool */\n      0x00\n        /* \"Bluelight-MP/UserDashboard.sol\":7248:7253  users */\n      0x04\n        /* \"Bluelight-MP/UserDashboard.sol\":7248:7265  users[msg.sender] */\n      0x00\n        /* \"Bluelight-MP/UserDashboard.sol\":7254:7264  msg.sender */\n      caller\n        /* \"Bluelight-MP/UserDashboard.sol\":7248:7265  users[msg.sender] */\n      0xffffffffffffffffffffffffffffffffffffffff\n      and\n      0xffffffffffffffffffffffffffffffffffffffff\n      and\n      dup2\n      mstore\n      0x20\n      add\n      swap1\n      dup2\n      mstore\n      0x20\n      add\n      0x00\n      keccak256\n        /* \"Bluelight-MP/UserDashboard.sol\":7248:7277  users[msg.sender].userExisted */\n      0x01\n      add\n      0x00\n      swap1\n      sload\n      swap1\n      0x0100\n      exp\n      swap1\n      div\n      0xff\n      and\n        /* \"Bluelight-MP/UserDashboard.sol\":7279:7295  USER_NOT_EXISTED */\n      mload(0x40)\n      dup1\n      0x40\n      add\n      0x40\n      mstore\n      dup1\n      0x05\n      dup2\n      mstore\n      0x20\n      add\n      0x574d552d35000000000000000000000000000000000000000000000000000000\n      dup2\n      mstore\n      pop\n        /* \"Bluelight-MP/UserDashboard.sol\":7239:7296  require (users[msg.sender].userExisted, USER_NOT_EXISTED) */\n      swap1\n      tag_150\n      jumpi\n      mload(0x40)\n      0x08c379a000000000000000000000000000000000000000000000000000000000\n      dup2\n      mstore\n      0x04\n      add\n      tag_151\n      swap2\n      swap1\n      tag_118\n      jump\t// in\n    tag_151:\n      mload(0x40)\n      dup1\n      swap2\n      sub\n      swap1\n      revert\n    tag_150:\n      pop\n        /* \"Bluelight-MP/UserDashboard.sol\":7307:7325  string memory name */\n      0x00\n        /* \"Bluelight-MP/UserDashboard.sol\":7328:7333  users */\n      0x04\n        /* \"Bluelight-MP/UserDashboard.sol\":7328:7345  users[msg.sender] */\n      0x00\n        /* \"Bluelight-MP/UserDashboard.sol\":7334:7344  msg.sender */\n      caller\n        /* \"Bluelight-MP/UserDashboard.sol\":7328:7345  users[msg.sender] */\n      0xffffffffffffffffffffffffffffffffffffffff\n      and\n      0xffffffffffffffffffffffffffffffffffffffff\n      and\n      dup2\n      mstore\n      0x20\n      add\n      swap1\n      dup2\n      mstore\n      0x20\n      add\n      0x00\n      keccak256\n        /* \"Bluelight-MP/UserDashboard.sol\":7328:7354  users[msg.sender].userName */\n      0x00\n      add\n        /* \"Bluelight-MP/UserDashboard.sol\":7307:7354  string memory name = users[msg.sender].userName */\n      dup1\n      sload\n      tag_152\n      swap1\n      tag_153\n      jump\t// in\n    tag_152:\n      dup1\n      0x1f\n      add\n      0x20\n      dup1\n      swap2\n      div\n      mul\n      0x20\n      add\n      mload(0x40)\n      swap1\n      dup2\n      add\n      0x40\n      mstore\n      dup1\n      swap3\n      swap2\n      swap1\n      dup2\n      dup2\n      mstore\n      0x20\n      add\n      dup3\n      dup1\n      sload\n      tag_154\n      swap1\n      tag_153\n      jump\t// in\n    tag_154:\n      dup1\n      iszero\n      tag_155\n      jumpi\n      dup1\n      0x1f\n      lt\n      tag_156\n      jumpi\n      0x0100\n      dup1\n      dup4\n      sload\n      div\n      mul\n      dup4\n      mstore\n      swap2\n      0x20\n      add\n      swap2\n      jump(tag_155)\n    tag_156:\n      dup3\n      add\n      swap2\n      swap1\n      0x00\n      mstore\n      keccak256(0x00, 0x20)\n      swap1\n    tag_157:\n      dup2\n      sload\n      dup2\n      mstore\n      swap1\n      0x01\n      add\n      swap1\n      0x20\n      add\n      dup1\n      dup4\n      gt\n      tag_157\n      jumpi\n      dup3\n      swap1\n      sub\n      0x1f\n      and\n      dup3\n      add\n      swap2\n    tag_155:\n      pop\n      pop\n      pop\n      pop\n      pop\n      swap1\n      pop\n        /* \"Bluelight-MP/UserDashboard.sol\":7372:7389  userNameToAddress */\n      0x05\n        /* \"Bluelight-MP/UserDashboard.sol\":7390:7394  name */\n      dup2\n        /* \"Bluelight-MP/UserDashboard.sol\":7372:7395  userNameToAddress[name] */\n      mload(0x40)\n      tag_158\n      swap2\n      swap1\n      tag_159\n      jump\t// in\n    tag_158:\n      swap1\n      dup2\n      mstore\n      0x20\n      add\n      mload(0x40)\n      dup1\n      swap2\n      sub\n      swap1\n      keccak256\n      0x00\n        /* \"Bluelight-MP/UserDashboard.sol\":7365:7395  delete userNameToAddress[name] */\n      0x0100\n      exp\n      dup2\n      sload\n      swap1\n      0xffffffffffffffffffffffffffffffffffffffff\n      mul\n      not\n      and\n      swap1\n      sstore\n        /* \"Bluelight-MP/UserDashboard.sol\":7413:7418  users */\n      0x04\n        /* \"Bluelight-MP/UserDashboard.sol\":7413:7430  users[msg.sender] */\n      0x00\n        /* \"Bluelight-MP/UserDashboard.sol\":7419:7429  msg.sender */\n      caller\n        /* \"Bluelight-MP/UserDashboard.sol\":7413:7430  users[msg.sender] */\n      0xffffffffffffffffffffffffffffffffffffffff\n      and\n      0xffffffffffffffffffffffffffffffffffffffff\n      and\n      dup2\n      mstore\n      0x20\n      add\n      swap1\n      dup2\n      mstore\n      0x20\n      add\n      0x00\n      keccak256\n      0x00\n        /* \"Bluelight-MP/UserDashboard.sol\":7406:7430  delete users[msg.sender] */\n      dup1\n      dup3\n      add\n      0x00\n      tag_160\n      swap2\n      swap1\n      tag_161\n      jump\t// in\n    tag_160:\n      0x01\n      dup3\n      add\n      exp(0x0100, 0x00)\n      dup2\n      sload\n      swap1\n      0xff\n      mul\n      not\n      and\n      swap1\n      sstore\n      0x02\n      dup3\n      add\n      0x00\n      swap1\n      sstore\n      0x03\n      dup3\n      add\n      exp(0x0100, 0x00)\n      dup2\n      sload\n      swap1\n      0xff\n      mul\n      not\n      and\n      swap1\n      sstore\n      0x04\n      dup3\n      add\n      0x00\n      tag_162\n      swap2\n      swap1\n      tag_161\n      jump\t// in\n    tag_162:\n      pop\n      pop\n        /* \"Bluelight-MP/UserDashboard.sol\":7448:7452  true */\n      0x01\n        /* \"Bluelight-MP/UserDashboard.sol\":7441:7452  return true */\n      swap2\n      pop\n      pop\n        /* \"Bluelight-MP/UserDashboard.sol\":7167:7460  function deleteUser() external virtual override returns(bool){\r... */\n      swap1\n      jump\t// out\n        /* \"Bluelight-MP/UserDashboard.sol\":799:839  mapping (bytes32 => MyNFT) public myNFTs */\n    tag_45:\n      mstore(0x20, 0x00)\n      dup1\n      0x00\n      mstore\n      keccak256(0x00, 0x40)\n      0x00\n      swap2\n      pop\n      swap1\n      pop\n      dup1\n      0x00\n      add\n      dup1\n      sload\n      tag_163\n      swap1\n      tag_153\n      jump\t// in\n    tag_163:\n      dup1\n      0x1f\n      add\n      0x20\n      dup1\n      swap2\n      div\n      mul\n      0x20\n      add\n      mload(0x40)\n      swap1\n      dup2\n      add\n      0x40\n      mstore\n      dup1\n      swap3\n      swap2\n      swap1\n      dup2\n      dup2\n      mstore\n      0x20\n      add\n      dup3\n      dup1\n      sload\n      tag_164\n      swap1\n      tag_153\n      jump\t// in\n    tag_164:\n      dup1\n      iszero\n      tag_165\n      jumpi\n      dup1\n      0x1f\n      lt\n      tag_166\n      jumpi\n      0x0100\n      dup1\n      dup4\n      sload\n      div\n      mul\n      dup4\n      mstore\n      swap2\n      0x20\n      add\n      swap2\n      jump(tag_165)\n    tag_166:\n      dup3\n      add\n      swap2\n      swap1\n      0x00\n      mstore\n      keccak256(0x00, 0x20)\n      swap1\n    tag_167:\n      dup2\n      sload\n      dup2\n      mstore\n      swap1\n      0x01\n      add\n      swap1\n      0x20\n      add\n      dup1\n      dup4\n      gt\n      tag_167\n      jumpi\n      dup3\n      swap1\n      sub\n      0x1f\n      and\n      dup3\n      add\n      swap2\n    tag_165:\n      pop\n      pop\n      pop\n      pop\n      pop\n      swap1\n      dup1\n      0x01\n      add\n      0x00\n      swap1\n      sload\n      swap1\n      0x0100\n      exp\n      swap1\n      div\n      0xffffffffffffffffffffffffffffffffffffffff\n      and\n      swap1\n      dup1\n      0x02\n      add\n      sload\n      swap1\n      dup1\n      0x03\n      add\n      0x00\n      swap1\n      sload\n      swap1\n      0x0100\n      exp\n      swap1\n      div\n      0xffffffffffffffffffffffffffffffffffffffff\n      and\n      swap1\n      dup1\n      0x04\n      add\n      dup1\n      sload\n      tag_168\n      swap1\n      tag_153\n      jump\t// in\n    tag_168:\n      dup1\n      0x1f\n      add\n      0x20\n      dup1\n      swap2\n      div\n      mul\n      0x20\n      add\n      mload(0x40)\n      swap1\n      dup2\n      add\n      0x40\n      mstore\n      dup1\n      swap3\n      swap2\n      swap1\n      dup2\n      dup2\n      mstore\n      0x20\n      add\n      dup3\n      dup1\n      sload\n      tag_169\n      swap1\n      tag_153\n      jump\t// in\n    tag_169:\n      dup1\n      iszero\n      tag_170\n      jumpi\n      dup1\n      0x1f\n      lt\n      tag_171\n      jumpi\n      0x0100\n      dup1\n      dup4\n      sload\n      div\n      mul\n      dup4\n      mstore\n      swap2\n      0x20\n      add\n      swap2\n      jump(tag_170)\n    tag_171:\n      dup3\n      add\n      swap2\n      swap1\n      0x00\n      mstore\n      keccak256(0x00, 0x20)\n      swap1\n    tag_172:\n      dup2\n      sload\n      dup2\n      mstore\n      swap1\n      0x01\n      add\n      swap1\n      0x20\n      add\n      dup1\n      dup4\n      gt\n      tag_172\n      jumpi\n      dup3\n      swap1\n      sub\n      0x1f\n      and\n      dup3\n      add\n      swap2\n    tag_170:\n      pop\n      pop\n      pop\n      pop\n      pop\n      swap1\n      dup1\n      0x05\n      add\n      0x00\n      swap1\n      sload\n      swap1\n      0x0100\n      exp\n      swap1\n      div\n      0xff\n      and\n      swap1\n      pop\n      dup7\n      jump\t// out\n        /* \"Bluelight-MP/UserDashboard.sol\":6729:7161  function updateUser(string memory _userName) external virtual override{\r... */\n    tag_50:\n        /* \"Bluelight-MP/UserDashboard.sol\":6819:6824  users */\n      0x04\n        /* \"Bluelight-MP/UserDashboard.sol\":6819:6836  users[msg.sender] */\n      0x00\n        /* \"Bluelight-MP/UserDashboard.sol\":6825:6835  msg.sender */\n      caller\n        /* \"Bluelight-MP/UserDashboard.sol\":6819:6836  users[msg.sender] */\n      0xffffffffffffffffffffffffffffffffffffffff\n      and\n      0xffffffffffffffffffffffffffffffffffffffff\n      and\n      dup2\n      mstore\n      0x20\n      add\n      swap1\n      dup2\n      mstore\n      0x20\n      add\n      0x00\n      keccak256\n        /* \"Bluelight-MP/UserDashboard.sol\":6819:6845  users[msg.sender].loggedIn */\n      0x03\n      add\n      0x00\n      swap1\n      sload\n      swap1\n      0x0100\n      exp\n      swap1\n      div\n      0xff\n      and\n        /* \"Bluelight-MP/UserDashboard.sol\":6847:6866  CREATE_ACC_OR_LOGIN */\n      mload(0x40)\n      dup1\n      0x40\n      add\n      0x40\n      mstore\n      dup1\n      0x05\n      dup2\n      mstore\n      0x20\n      add\n      0x574d552d32000000000000000000000000000000000000000000000000000000\n      dup2\n      mstore\n      pop\n        /* \"Bluelight-MP/UserDashboard.sol\":6810:6867  require (users[msg.sender].loggedIn, CREATE_ACC_OR_LOGIN) */\n      swap1\n      tag_174\n      jumpi\n      mload(0x40)\n      0x08c379a000000000000000000000000000000000000000000000000000000000\n      dup2\n      mstore\n      0x04\n      add\n      tag_175\n      swap2\n      swap1\n      tag_118\n      jump\t// in\n    tag_175:\n      mload(0x40)\n      dup1\n      swap2\n      sub\n      swap1\n      revert\n    tag_174:\n      pop\n        /* \"Bluelight-MP/UserDashboard.sol\":6927:6928  0 */\n      0x00\n        /* \"Bluelight-MP/UserDashboard.sol\":6887:6929  userNameToAddress[_userName] == address(0) */\n      0xffffffffffffffffffffffffffffffffffffffff\n      and\n        /* \"Bluelight-MP/UserDashboard.sol\":6887:6904  userNameToAddress */\n      0x05\n        /* \"Bluelight-MP/UserDashboard.sol\":6905:6914  _userName */\n      dup3\n        /* \"Bluelight-MP/UserDashboard.sol\":6887:6915  userNameToAddress[_userName] */\n      mload(0x40)\n      tag_176\n      swap2\n      swap1\n      tag_159\n      jump\t// in\n    tag_176:\n      swap1\n      dup2\n      mstore\n      0x20\n      add\n      mload(0x40)\n      dup1\n      swap2\n      sub\n      swap1\n      keccak256\n      0x00\n      swap1\n      sload\n      swap1\n      0x0100\n      exp\n      swap1\n      div\n      0xffffffffffffffffffffffffffffffffffffffff\n      and\n        /* \"Bluelight-MP/UserDashboard.sol\":6887:6929  userNameToAddress[_userName] == address(0) */\n      0xffffffffffffffffffffffffffffffffffffffff\n      and\n      eq\n        /* \"Bluelight-MP/UserDashboard.sol\":6931:6948  USER_NAME_EXISTED */\n      mload(0x40)\n      dup1\n      0x40\n      add\n      0x40\n      mstore\n      dup1\n      0x05\n      dup2\n      mstore\n      0x20\n      add\n      0x574d552d36000000000000000000000000000000000000000000000000000000\n      dup2\n      mstore\n      pop\n        /* \"Bluelight-MP/UserDashboard.sol\":6878:6949  require (userNameToAddress[_userName] == address(0), USER_NAME_EXISTED) */\n      swap1\n      tag_177\n      jumpi\n      mload(0x40)\n      0x08c379a000000000000000000000000000000000000000000000000000000000\n      dup2\n      mstore\n      0x04\n      add\n      tag_178\n      swap2\n      swap1\n      tag_118\n      jump\t// in\n    tag_178:\n      mload(0x40)\n      dup1\n      swap2\n      sub\n      swap1\n      revert\n    tag_177:\n      pop\n        /* \"Bluelight-MP/UserDashboard.sol\":6962:6980  string memory name */\n      0x00\n        /* \"Bluelight-MP/UserDashboard.sol\":6983:6988  users */\n      0x04\n        /* \"Bluelight-MP/UserDashboard.sol\":6983:7000  users[msg.sender] */\n      0x00\n        /* \"Bluelight-MP/UserDashboard.sol\":6989:6999  msg.sender */\n      caller\n        /* \"Bluelight-MP/UserDashboard.sol\":6983:7000  users[msg.sender] */\n      0xffffffffffffffffffffffffffffffffffffffff\n      and\n      0xffffffffffffffffffffffffffffffffffffffff\n      and\n      dup2\n      mstore\n      0x20\n      add\n      swap1\n      dup2\n      mstore\n      0x20\n      add\n      0x00\n      keccak256\n        /* \"Bluelight-MP/UserDashboard.sol\":6983:7009  users[msg.sender].userName */\n      0x00\n      add\n        /* \"Bluelight-MP/UserDashboard.sol\":6962:7009  string memory name = users[msg.sender].userName */\n      dup1\n      sload\n      tag_179\n      swap1\n      tag_153\n      jump\t// in\n    tag_179:\n      dup1\n      0x1f\n      add\n      0x20\n      dup1\n      swap2\n      div\n      mul\n      0x20\n      add\n      mload(0x40)\n      swap1\n      dup2\n      add\n      0x40\n      mstore\n      dup1\n      swap3\n      swap2\n      swap1\n      dup2\n      dup2\n      mstore\n      0x20\n      add\n      dup3\n      dup1\n      sload\n      tag_180\n      swap1\n      tag_153\n      jump\t// in\n    tag_180:\n      dup1\n      iszero\n      tag_181\n      jumpi\n      dup1\n      0x1f\n      lt\n      tag_182\n      jumpi\n      0x0100\n      dup1\n      dup4\n      sload\n      div\n      mul\n      dup4\n      mstore\n      swap2\n      0x20\n      add\n      swap2\n      jump(tag_181)\n    tag_182:\n      dup3\n      add\n      swap2\n      swap1\n      0x00\n      mstore\n      keccak256(0x00, 0x20)\n      swap1\n    tag_183:\n      dup2\n      sload\n      dup2\n      mstore\n      swap1\n      0x01\n      add\n      swap1\n      0x20\n      add\n      dup1\n      dup4\n      gt\n      tag_183\n      jumpi\n      dup3\n      swap1\n      sub\n      0x1f\n      and\n      dup3\n      add\n      swap2\n    tag_181:\n      pop\n      pop\n      pop\n      pop\n      pop\n      swap1\n      pop\n        /* \"Bluelight-MP/UserDashboard.sol\":7027:7044  userNameToAddress */\n      0x05\n        /* \"Bluelight-MP/UserDashboard.sol\":7045:7049  name */\n      dup2\n        /* \"Bluelight-MP/UserDashboard.sol\":7027:7050  userNameToAddress[name] */\n      mload(0x40)\n      tag_184\n      swap2\n      swap1\n      tag_159\n      jump\t// in\n    tag_184:\n      swap1\n      dup2\n      mstore\n      0x20\n      add\n      mload(0x40)\n      dup1\n      swap2\n      sub\n      swap1\n      keccak256\n      0x00\n        /* \"Bluelight-MP/UserDashboard.sol\":7020:7050  delete userNameToAddress[name] */\n      0x0100\n      exp\n      dup2\n      sload\n      swap1\n      0xffffffffffffffffffffffffffffffffffffffff\n      mul\n      not\n      and\n      swap1\n      sstore\n        /* \"Bluelight-MP/UserDashboard.sol\":7092:7102  msg.sender */\n      caller\n        /* \"Bluelight-MP/UserDashboard.sol\":7061:7078  userNameToAddress */\n      0x05\n        /* \"Bluelight-MP/UserDashboard.sol\":7079:7088  _userName */\n      dup4\n        /* \"Bluelight-MP/UserDashboard.sol\":7061:7089  userNameToAddress[_userName] */\n      mload(0x40)\n      tag_185\n      swap2\n      swap1\n      tag_159\n      jump\t// in\n    tag_185:\n      swap1\n      dup2\n      mstore\n      0x20\n      add\n      mload(0x40)\n      dup1\n      swap2\n      sub\n      swap1\n      keccak256\n      0x00\n        /* \"Bluelight-MP/UserDashboard.sol\":7061:7102  userNameToAddress[_userName] = msg.sender */\n      0x0100\n      exp\n      dup2\n      sload\n      dup2\n      0xffffffffffffffffffffffffffffffffffffffff\n      mul\n      not\n      and\n      swap1\n      dup4\n      0xffffffffffffffffffffffffffffffffffffffff\n      and\n      mul\n      or\n      swap1\n      sstore\n      pop\n        /* \"Bluelight-MP/UserDashboard.sol\":7144:7153  _userName */\n      dup2\n        /* \"Bluelight-MP/UserDashboard.sol\":7115:7120  users */\n      0x04\n        /* \"Bluelight-MP/UserDashboard.sol\":7115:7132  users[msg.sender] */\n      0x00\n        /* \"Bluelight-MP/UserDashboard.sol\":7121:7131  msg.sender */\n      caller\n        /* \"Bluelight-MP/UserDashboard.sol\":7115:7132  users[msg.sender] */\n      0xffffffffffffffffffffffffffffffffffffffff\n      and\n      0xffffffffffffffffffffffffffffffffffffffff\n      and\n      dup2\n      mstore\n      0x20\n      add\n      swap1\n      dup2\n      mstore\n      0x20\n      add\n      0x00\n      keccak256\n        /* \"Bluelight-MP/UserDashboard.sol\":7115:7141  users[msg.sender].userName */\n      0x00\n      add\n        /* \"Bluelight-MP/UserDashboard.sol\":7115:7153  users[msg.sender].userName = _userName */\n      swap1\n      dup1\n      mload\n      swap1\n      0x20\n      add\n      swap1\n      tag_186\n      swap3\n      swap2\n      swap1\n      tag_148\n      jump\t// in\n    tag_186:\n      pop\n        /* \"Bluelight-MP/UserDashboard.sol\":6729:7161  function updateUser(string memory _userName) external virtual override{\r... */\n      pop\n      pop\n      jump\t// out\n        /* \"Bluelight-MP/UserDashboard.sol\":4200:4679  function getNft(address _nftContractAddress, uint256 _tokenId) external virtual override view \r... */\n    tag_54:\n        /* \"Bluelight-MP/UserDashboard.sol\":4312:4326  bytes32 uniKey */\n      0x00\n        /* \"Bluelight-MP/UserDashboard.sol\":4328:4354  address nftContractAddress */\n      dup1\n        /* \"Bluelight-MP/UserDashboard.sol\":4356:4368  uint tokenId */\n      0x00\n        /* \"Bluelight-MP/UserDashboard.sol\":4370:4388  string memory name */\n      0x60\n        /* \"Bluelight-MP/UserDashboard.sol\":4390:4403  address owner */\n      0x00\n        /* \"Bluelight-MP/UserDashboard.sol\":4405:4423  string memory iPFS */\n      0x60\n        /* \"Bluelight-MP/UserDashboard.sol\":4445:4460  bytes32 _uniKey */\n      0x00\n        /* \"Bluelight-MP/UserDashboard.sol\":4463:4513  getPrivateUniqueKey(_nftContractAddress, _tokenId) */\n      tag_188\n        /* \"Bluelight-MP/UserDashboard.sol\":4483:4502  _nftContractAddress */\n      dup10\n        /* \"Bluelight-MP/UserDashboard.sol\":4504:4512  _tokenId */\n      dup10\n        /* \"Bluelight-MP/UserDashboard.sol\":4463:4482  getPrivateUniqueKey */\n      tag_189\n        /* \"Bluelight-MP/UserDashboard.sol\":4463:4513  getPrivateUniqueKey(_nftContractAddress, _tokenId) */\n      jump\t// in\n    tag_188:\n        /* \"Bluelight-MP/UserDashboard.sol\":4445:4513  bytes32 _uniKey = getPrivateUniqueKey(_nftContractAddress, _tokenId) */\n      swap1\n      pop\n        /* \"Bluelight-MP/UserDashboard.sol\":4535:4542  _uniKey */\n      dup1\n        /* \"Bluelight-MP/UserDashboard.sol\":4544:4550  myNFTs */\n      0x00\n        /* \"Bluelight-MP/UserDashboard.sol\":4544:4559  myNFTs[_uniKey] */\n      dup1\n        /* \"Bluelight-MP/UserDashboard.sol\":4551:4558  _uniKey */\n      dup4\n        /* \"Bluelight-MP/UserDashboard.sol\":4544:4559  myNFTs[_uniKey] */\n      dup2\n      mstore\n      0x20\n      add\n      swap1\n      dup2\n      mstore\n      0x20\n      add\n      0x00\n      keccak256\n        /* \"Bluelight-MP/UserDashboard.sol\":4544:4575  myNFTs[_uniKey].contractAddress */\n      0x01\n      add\n      0x00\n      swap1\n      sload\n      swap1\n      0x0100\n      exp\n      swap1\n      div\n      0xffffffffffffffffffffffffffffffffffffffff\n      and\n        /* \"Bluelight-MP/UserDashboard.sol\":4577:4583  myNFTs */\n      0x00\n        /* \"Bluelight-MP/UserDashboard.sol\":4577:4592  myNFTs[_uniKey] */\n      dup1\n        /* \"Bluelight-MP/UserDashboard.sol\":4584:4591  _uniKey */\n      dup5\n        /* \"Bluelight-MP/UserDashboard.sol\":4577:4592  myNFTs[_uniKey] */\n      dup2\n      mstore\n      0x20\n      add\n      swap1\n      dup2\n      mstore\n      0x20\n      add\n      0x00\n      keccak256\n        /* \"Bluelight-MP/UserDashboard.sol\":4577:4600  myNFTs[_uniKey].tokenId */\n      0x02\n      add\n      sload\n        /* \"Bluelight-MP/UserDashboard.sol\":4602:4608  myNFTs */\n      0x00\n        /* \"Bluelight-MP/UserDashboard.sol\":4602:4617  myNFTs[_uniKey] */\n      dup1\n        /* \"Bluelight-MP/UserDashboard.sol\":4609:4616  _uniKey */\n      dup6\n        /* \"Bluelight-MP/UserDashboard.sol\":4602:4617  myNFTs[_uniKey] */\n      dup2\n      mstore\n      0x20\n      add\n      swap1\n      dup2\n      mstore\n      0x20\n      add\n      0x00\n      keccak256\n        /* \"Bluelight-MP/UserDashboard.sol\":4602:4625  myNFTs[_uniKey].nftName */\n      0x00\n      add\n        /* \"Bluelight-MP/UserDashboard.sol\":4627:4633  myNFTs */\n      0x00\n        /* \"Bluelight-MP/UserDashboard.sol\":4627:4642  myNFTs[_uniKey] */\n      dup1\n        /* \"Bluelight-MP/UserDashboard.sol\":4634:4641  _uniKey */\n      dup7\n        /* \"Bluelight-MP/UserDashboard.sol\":4627:4642  myNFTs[_uniKey] */\n      dup2\n      mstore\n      0x20\n      add\n      swap1\n      dup2\n      mstore\n      0x20\n      add\n      0x00\n      keccak256\n        /* \"Bluelight-MP/UserDashboard.sol\":4627:4648  myNFTs[_uniKey].owner */\n      0x03\n      add\n      0x00\n      swap1\n      sload\n      swap1\n      0x0100\n      exp\n      swap1\n      div\n      0xffffffffffffffffffffffffffffffffffffffff\n      and\n        /* \"Bluelight-MP/UserDashboard.sol\":4650:4656  myNFTs */\n      0x00\n        /* \"Bluelight-MP/UserDashboard.sol\":4650:4665  myNFTs[_uniKey] */\n      dup1\n        /* \"Bluelight-MP/UserDashboard.sol\":4657:4664  _uniKey */\n      dup8\n        /* \"Bluelight-MP/UserDashboard.sol\":4650:4665  myNFTs[_uniKey] */\n      dup2\n      mstore\n      0x20\n      add\n      swap1\n      dup2\n      mstore\n      0x20\n      add\n      0x00\n      keccak256\n        /* \"Bluelight-MP/UserDashboard.sol\":4650:4670  myNFTs[_uniKey].ipfs */\n      0x04\n      add\n        /* \"Bluelight-MP/UserDashboard.sol\":4527:4671  return (_uniKey, myNFTs[_uniKey].contractAddress, myNFTs[_uniKey].tokenId, myNFTs[_uniKey].nftName, myNFTs[_uniKey].owner, myNFTs[_uniKey].ipfs) */\n      dup3\n      dup1\n      sload\n      tag_190\n      swap1\n      tag_153\n      jump\t// in\n    tag_190:\n      dup1\n      0x1f\n      add\n      0x20\n      dup1\n      swap2\n      div\n      mul\n      0x20\n      add\n      mload(0x40)\n      swap1\n      dup2\n      add\n      0x40\n      mstore\n      dup1\n      swap3\n      swap2\n      swap1\n      dup2\n      dup2\n      mstore\n      0x20\n      add\n      dup3\n      dup1\n      sload\n      tag_191\n      swap1\n      tag_153\n      jump\t// in\n    tag_191:\n      dup1\n      iszero\n      tag_192\n      jumpi\n      dup1\n      0x1f\n      lt\n      tag_193\n      jumpi\n      0x0100\n      dup1\n      dup4\n      sload\n      div\n      mul\n      dup4\n      mstore\n      swap2\n      0x20\n      add\n      swap2\n      jump(tag_192)\n    tag_193:\n      dup3\n      add\n      swap2\n      swap1\n      0x00\n      mstore\n      keccak256(0x00, 0x20)\n      swap1\n    tag_194:\n      dup2\n      sload\n      dup2\n      mstore\n      swap1\n      0x01\n      add\n      swap1\n      0x20\n      add\n      dup1\n      dup4\n      gt\n      tag_194\n      jumpi\n      dup3\n      swap1\n      sub\n      0x1f\n      and\n      dup3\n      add\n      swap2\n    tag_192:\n      pop\n      pop\n      pop\n      pop\n      pop\n      swap3\n      pop\n      dup1\n      dup1\n      sload\n      tag_195\n      swap1\n      tag_153\n      jump\t// in\n    tag_195:\n      dup1\n      0x1f\n      add\n      0x20\n      dup1\n      swap2\n      div\n      mul\n      0x20\n      add\n      mload(0x40)\n      swap1\n      dup2\n      add\n      0x40\n      mstore\n      dup1\n      swap3\n      swap2\n      swap1\n      dup2\n      dup2\n      mstore\n      0x20\n      add\n      dup3\n      dup1\n      sload\n      tag_196\n      swap1\n      tag_153\n      jump\t// in\n    tag_196:\n      dup1\n      iszero\n      tag_197\n      jumpi\n      dup1\n      0x1f\n      lt\n      tag_198\n      jumpi\n      0x0100\n      dup1\n      dup4\n      sload\n      div\n      mul\n      dup4\n      mstore\n      swap2\n      0x20\n      add\n      swap2\n      jump(tag_197)\n    tag_198:\n      dup3\n      add\n      swap2\n      swap1\n      0x00\n      mstore\n      keccak256(0x00, 0x20)\n      swap1\n    tag_199:\n      dup2\n      sload\n      dup2\n      mstore\n      swap1\n      0x01\n      add\n      swap1\n      0x20\n      add\n      dup1\n      dup4\n      gt\n      tag_199\n      jumpi\n      dup3\n      swap1\n      sub\n      0x1f\n      and\n      dup3\n      add\n      swap2\n    tag_197:\n      pop\n      pop\n      pop\n      pop\n      pop\n      swap1\n      pop\n      swap7\n      pop\n      swap7\n      pop\n      swap7\n      pop\n      swap7\n      pop\n      swap7\n      pop\n      swap7\n      pop\n      pop\n        /* \"Bluelight-MP/UserDashboard.sol\":4200:4679  function getNft(address _nftContractAddress, uint256 _tokenId) external virtual override view \r... */\n      swap3\n      swap6\n      pop\n      swap3\n      swap6\n      pop\n      swap3\n      swap6\n      jump\t// out\n        /* \"Bluelight-MP/UserDashboard.sol\":846:898  mapping (address => bytes32[]) public uniKeysMapping */\n    tag_59:\n      mstore(0x20, 0x01)\n      dup2\n      0x00\n      mstore\n      keccak256(0x00, 0x40)\n      dup2\n      dup2\n      sload\n      dup2\n      lt\n      tag_200\n      jumpi\n      0x00\n      dup1\n      revert\n    tag_200:\n      swap1\n      0x00\n      mstore\n      keccak256(0x00, 0x20)\n      add\n      0x00\n      swap2\n      pop\n      swap2\n      pop\n      pop\n      sload\n      dup2\n      jump\t// out\n        /* \"Bluelight-MP/UserDashboard.sol\":2499:2931  function setNftCat(address nftContractAddress, uint256 tokenId, NftCategory nftCat) external {\r... */\n    tag_65:\n        /* \"Bluelight-MP/UserDashboard.sol\":2603:2617  bytes32 uniKey */\n      0x00\n        /* \"Bluelight-MP/UserDashboard.sol\":2620:2668  getPrivateUniqueKey(nftContractAddress, tokenId) */\n      tag_203\n        /* \"Bluelight-MP/UserDashboard.sol\":2640:2658  nftContractAddress */\n      dup5\n        /* \"Bluelight-MP/UserDashboard.sol\":2660:2667  tokenId */\n      dup5\n        /* \"Bluelight-MP/UserDashboard.sol\":2620:2639  getPrivateUniqueKey */\n      tag_189\n        /* \"Bluelight-MP/UserDashboard.sol\":2620:2668  getPrivateUniqueKey(nftContractAddress, tokenId) */\n      jump\t// in\n    tag_203:\n        /* \"Bluelight-MP/UserDashboard.sol\":2603:2668  bytes32 uniKey = getPrivateUniqueKey(nftContractAddress, tokenId) */\n      swap1\n      pop\n        /* \"Bluelight-MP/UserDashboard.sol\":2689:2694  users */\n      0x04\n        /* \"Bluelight-MP/UserDashboard.sol\":2689:2706  users[msg.sender] */\n      0x00\n        /* \"Bluelight-MP/UserDashboard.sol\":2695:2705  msg.sender */\n      caller\n        /* \"Bluelight-MP/UserDashboard.sol\":2689:2706  users[msg.sender] */\n      0xffffffffffffffffffffffffffffffffffffffff\n      and\n      0xffffffffffffffffffffffffffffffffffffffff\n      and\n      dup2\n      mstore\n      0x20\n      add\n      swap1\n      dup2\n      mstore\n      0x20\n      add\n      0x00\n      keccak256\n        /* \"Bluelight-MP/UserDashboard.sol\":2689:2715  users[msg.sender].loggedIn */\n      0x03\n      add\n      0x00\n      swap1\n      sload\n      swap1\n      0x0100\n      exp\n      swap1\n      div\n      0xff\n      and\n        /* \"Bluelight-MP/UserDashboard.sol\":2689:2753  users[msg.sender].loggedIn && myNFTs[uniKey].owner == msg.sender */\n      dup1\n      iszero\n      tag_204\n      jumpi\n      pop\n        /* \"Bluelight-MP/UserDashboard.sol\":2743:2753  msg.sender */\n      caller\n        /* \"Bluelight-MP/UserDashboard.sol\":2719:2753  myNFTs[uniKey].owner == msg.sender */\n      0xffffffffffffffffffffffffffffffffffffffff\n      and\n        /* \"Bluelight-MP/UserDashboard.sol\":2719:2725  myNFTs */\n      0x00\n        /* \"Bluelight-MP/UserDashboard.sol\":2719:2733  myNFTs[uniKey] */\n      dup1\n        /* \"Bluelight-MP/UserDashboard.sol\":2726:2732  uniKey */\n      dup4\n        /* \"Bluelight-MP/UserDashboard.sol\":2719:2733  myNFTs[uniKey] */\n      dup2\n      mstore\n      0x20\n      add\n      swap1\n      dup2\n      mstore\n      0x20\n      add\n      0x00\n      keccak256\n        /* \"Bluelight-MP/UserDashboard.sol\":2719:2739  myNFTs[uniKey].owner */\n      0x03\n      add\n      0x00\n      swap1\n      sload\n      swap1\n      0x0100\n      exp\n      swap1\n      div\n      0xffffffffffffffffffffffffffffffffffffffff\n      and\n        /* \"Bluelight-MP/UserDashboard.sol\":2719:2753  myNFTs[uniKey].owner == msg.sender */\n      0xffffffffffffffffffffffffffffffffffffffff\n      and\n      eq\n        /* \"Bluelight-MP/UserDashboard.sol\":2689:2753  users[msg.sender].loggedIn && myNFTs[uniKey].owner == msg.sender */\n    tag_204:\n        /* \"Bluelight-MP/UserDashboard.sol\":2755:2774  CREATE_ACC_OR_LOGIN */\n      mload(0x40)\n      dup1\n      0x40\n      add\n      0x40\n      mstore\n      dup1\n      0x05\n      dup2\n      mstore\n      0x20\n      add\n      0x574d552d32000000000000000000000000000000000000000000000000000000\n      dup2\n      mstore\n      pop\n        /* \"Bluelight-MP/UserDashboard.sol\":2680:2775  require (users[msg.sender].loggedIn && myNFTs[uniKey].owner == msg.sender, CREATE_ACC_OR_LOGIN) */\n      swap1\n      tag_205\n      jumpi\n      mload(0x40)\n      0x08c379a000000000000000000000000000000000000000000000000000000000\n      dup2\n      mstore\n      0x04\n      add\n      tag_206\n      swap2\n      swap1\n      tag_118\n      jump\t// in\n    tag_206:\n      mload(0x40)\n      dup1\n      swap2\n      sub\n      swap1\n      revert\n    tag_205:\n      pop\n        /* \"Bluelight-MP/UserDashboard.sol\":2817:2823  nftCat */\n      dup2\n        /* \"Bluelight-MP/UserDashboard.sol\":2788:2794  myNFTs */\n      0x00\n        /* \"Bluelight-MP/UserDashboard.sol\":2788:2802  myNFTs[uniKey] */\n      dup1\n        /* \"Bluelight-MP/UserDashboard.sol\":2795:2801  uniKey */\n      dup4\n        /* \"Bluelight-MP/UserDashboard.sol\":2788:2802  myNFTs[uniKey] */\n      dup2\n      mstore\n      0x20\n      add\n      swap1\n      dup2\n      mstore\n      0x20\n      add\n      0x00\n      keccak256\n        /* \"Bluelight-MP/UserDashboard.sol\":2788:2814  myNFTs[uniKey].nftCategory */\n      0x05\n      add\n      0x00\n        /* \"Bluelight-MP/UserDashboard.sol\":2788:2823  myNFTs[uniKey].nftCategory = nftCat */\n      0x0100\n      exp\n      dup2\n      sload\n      dup2\n      0xff\n      mul\n      not\n      and\n      swap1\n      dup4\n      0x06\n      dup2\n      gt\n      iszero\n      tag_207\n      jumpi\n      mstore(0x00, 0x4e487b7100000000000000000000000000000000000000000000000000000000)\n      mstore(0x04, 0x21)\n      revert(0x00, 0x24)\n    tag_207:\n      mul\n      or\n      swap1\n      sstore\n      pop\n        /* \"Bluelight-MP/UserDashboard.sol\":2834:2844  nftCatWise */\n      0x02\n        /* \"Bluelight-MP/UserDashboard.sol\":2834:2852  nftCatWise[nftCat] */\n      0x00\n        /* \"Bluelight-MP/UserDashboard.sol\":2845:2851  nftCat */\n      dup4\n        /* \"Bluelight-MP/UserDashboard.sol\":2834:2852  nftCatWise[nftCat] */\n      0x06\n      dup2\n      gt\n      iszero\n      tag_208\n      jumpi\n      mstore(0x00, 0x4e487b7100000000000000000000000000000000000000000000000000000000)\n      mstore(0x04, 0x21)\n      revert(0x00, 0x24)\n    tag_208:\n      0x06\n      dup2\n      gt\n      iszero\n      tag_209\n      jumpi\n      mstore(0x00, 0x4e487b7100000000000000000000000000000000000000000000000000000000)\n      mstore(0x04, 0x21)\n      revert(0x00, 0x24)\n    tag_209:\n      dup2\n      mstore\n      0x20\n      add\n      swap1\n      dup2\n      mstore\n      0x20\n      add\n      0x00\n      keccak256\n        /* \"Bluelight-MP/UserDashboard.sol\":2858:2864  uniKey */\n      dup2\n        /* \"Bluelight-MP/UserDashboard.sol\":2834:2865  nftCatWise[nftCat].push(uniKey) */\n      swap1\n      dup1\n      0x01\n      dup2\n      sload\n      add\n      dup1\n      dup3\n      sstore\n      dup1\n      swap2\n      pop\n      pop\n      0x01\n      swap1\n      sub\n      swap1\n      0x00\n      mstore\n      keccak256(0x00, 0x20)\n      add\n      0x00\n      swap1\n      swap2\n      swap1\n      swap2\n      swap1\n      swap2\n      pop\n      sstore\n        /* \"Bluelight-MP/UserDashboard.sol\":2876:2890  userNftCatWise */\n      0x03\n        /* \"Bluelight-MP/UserDashboard.sol\":2876:2902  userNftCatWise[msg.sender] */\n      0x00\n        /* \"Bluelight-MP/UserDashboard.sol\":2891:2901  msg.sender */\n      caller\n        /* \"Bluelight-MP/UserDashboard.sol\":2876:2902  userNftCatWise[msg.sender] */\n      0xffffffffffffffffffffffffffffffffffffffff\n      and\n      0xffffffffffffffffffffffffffffffffffffffff\n      and\n      dup2\n      mstore\n      0x20\n      add\n      swap1\n      dup2\n      mstore\n      0x20\n      add\n      0x00\n      keccak256\n        /* \"Bluelight-MP/UserDashboard.sol\":2876:2910  userNftCatWise[msg.sender][nftCat] */\n      0x00\n        /* \"Bluelight-MP/UserDashboard.sol\":2903:2909  nftCat */\n      dup4\n        /* \"Bluelight-MP/UserDashboard.sol\":2876:2910  userNftCatWise[msg.sender][nftCat] */\n      0x06\n      dup2\n      gt\n      iszero\n      tag_211\n      jumpi\n      mstore(0x00, 0x4e487b7100000000000000000000000000000000000000000000000000000000)\n      mstore(0x04, 0x21)\n      revert(0x00, 0x24)\n    tag_211:\n      0x06\n      dup2\n      gt\n      iszero\n      tag_212\n      jumpi\n      mstore(0x00, 0x4e487b7100000000000000000000000000000000000000000000000000000000)\n      mstore(0x04, 0x21)\n      revert(0x00, 0x24)\n    tag_212:\n      dup2\n      mstore\n      0x20\n      add\n      swap1\n      dup2\n      mstore\n      0x20\n      add\n      0x00\n      keccak256\n        /* \"Bluelight-MP/UserDashboard.sol\":2916:2922  uniKey */\n      dup2\n        /* \"Bluelight-MP/UserDashboard.sol\":2876:2923  userNftCatWise[msg.sender][nftCat].push(uniKey) */\n      swap1\n      dup1\n      0x01\n      dup2\n      sload\n      add\n      dup1\n      dup3\n      sstore\n      dup1\n      swap2\n      pop\n      pop\n      0x01\n      swap1\n      sub\n      swap1\n      0x00\n      mstore\n      keccak256(0x00, 0x20)\n      add\n      0x00\n      swap1\n      swap2\n      swap1\n      swap2\n      swap1\n      swap2\n      pop\n      sstore\n        /* \"Bluelight-MP/UserDashboard.sol\":2499:2931  function setNftCat(address nftContractAddress, uint256 tokenId, NftCategory nftCat) external {\r... */\n      pop\n      pop\n      pop\n      pop\n      jump\t// out\n        /* \"Bluelight-MP/UserDashboard.sol\":5028:5308  function logIn() virtual override external {\r... */\n    tag_67:\n        /* \"Bluelight-MP/UserDashboard.sol\":5091:5096  users */\n      0x04\n        /* \"Bluelight-MP/UserDashboard.sol\":5091:5108  users[msg.sender] */\n      0x00\n        /* \"Bluelight-MP/UserDashboard.sol\":5097:5107  msg.sender */\n      caller\n        /* \"Bluelight-MP/UserDashboard.sol\":5091:5108  users[msg.sender] */\n      0xffffffffffffffffffffffffffffffffffffffff\n      and\n      0xffffffffffffffffffffffffffffffffffffffff\n      and\n      dup2\n      mstore\n      0x20\n      add\n      swap1\n      dup2\n      mstore\n      0x20\n      add\n      0x00\n      keccak256\n        /* \"Bluelight-MP/UserDashboard.sol\":5091:5120  users[msg.sender].userExisted */\n      0x01\n      add\n      0x00\n      swap1\n      sload\n      swap1\n      0x0100\n      exp\n      swap1\n      div\n      0xff\n      and\n        /* \"Bluelight-MP/UserDashboard.sol\":5122:5136  CREATE_ACCOUNT */\n      mload(0x40)\n      dup1\n      0x40\n      add\n      0x40\n      mstore\n      dup1\n      0x05\n      dup2\n      mstore\n      0x20\n      add\n      0x574d552d31000000000000000000000000000000000000000000000000000000\n      dup2\n      mstore\n      pop\n        /* \"Bluelight-MP/UserDashboard.sol\":5082:5137  require (users[msg.sender].userExisted, CREATE_ACCOUNT) */\n      swap1\n      tag_215\n      jumpi\n      mload(0x40)\n      0x08c379a000000000000000000000000000000000000000000000000000000000\n      dup2\n      mstore\n      0x04\n      add\n      tag_216\n      swap2\n      swap1\n      tag_118\n      jump\t// in\n    tag_216:\n      mload(0x40)\n      dup1\n      swap2\n      sub\n      swap1\n      revert\n    tag_215:\n      pop\n        /* \"Bluelight-MP/UserDashboard.sol\":5158:5163  users */\n      0x04\n        /* \"Bluelight-MP/UserDashboard.sol\":5158:5175  users[msg.sender] */\n      0x00\n        /* \"Bluelight-MP/UserDashboard.sol\":5164:5174  msg.sender */\n      caller\n        /* \"Bluelight-MP/UserDashboard.sol\":5158:5175  users[msg.sender] */\n      0xffffffffffffffffffffffffffffffffffffffff\n      and\n      0xffffffffffffffffffffffffffffffffffffffff\n      and\n      dup2\n      mstore\n      0x20\n      add\n      swap1\n      dup2\n      mstore\n      0x20\n      add\n      0x00\n      keccak256\n        /* \"Bluelight-MP/UserDashboard.sol\":5158:5184  users[msg.sender].loggedIn */\n      0x03\n      add\n      0x00\n      swap1\n      sload\n      swap1\n      0x0100\n      exp\n      swap1\n      div\n      0xff\n      and\n        /* \"Bluelight-MP/UserDashboard.sol\":5157:5184  !users[msg.sender].loggedIn */\n      iszero\n        /* \"Bluelight-MP/UserDashboard.sol\":5186:5199  ALREADY_LOGIN */\n      mload(0x40)\n      dup1\n      0x40\n      add\n      0x40\n      mstore\n      dup1\n      0x05\n      dup2\n      mstore\n      0x20\n      add\n      0x574d552d33000000000000000000000000000000000000000000000000000000\n      dup2\n      mstore\n      pop\n        /* \"Bluelight-MP/UserDashboard.sol\":5148:5200  require (!users[msg.sender].loggedIn, ALREADY_LOGIN) */\n      swap1\n      tag_217\n      jumpi\n      mload(0x40)\n      0x08c379a000000000000000000000000000000000000000000000000000000000\n      dup2\n      mstore\n      0x04\n      add\n      tag_218\n      swap2\n      swap1\n      tag_118\n      jump\t// in\n    tag_218:\n      mload(0x40)\n      dup1\n      swap2\n      sub\n      swap1\n      revert\n    tag_217:\n      pop\n        /* \"Bluelight-MP/UserDashboard.sol\":5242:5246  true */\n      0x01\n        /* \"Bluelight-MP/UserDashboard.sol\":5213:5218  users */\n      0x04\n        /* \"Bluelight-MP/UserDashboard.sol\":5213:5230  users[msg.sender] */\n      0x00\n        /* \"Bluelight-MP/UserDashboard.sol\":5219:5229  msg.sender */\n      caller\n        /* \"Bluelight-MP/UserDashboard.sol\":5213:5230  users[msg.sender] */\n      0xffffffffffffffffffffffffffffffffffffffff\n      and\n      0xffffffffffffffffffffffffffffffffffffffff\n      and\n      dup2\n      mstore\n      0x20\n      add\n      swap1\n      dup2\n      mstore\n      0x20\n      add\n      0x00\n      keccak256\n        /* \"Bluelight-MP/UserDashboard.sol\":5213:5239  users[msg.sender].loggedIn */\n      0x03\n      add\n      0x00\n        /* \"Bluelight-MP/UserDashboard.sol\":5213:5246  users[msg.sender].loggedIn = true */\n      0x0100\n      exp\n      dup2\n      sload\n      dup2\n      0xff\n      mul\n      not\n      and\n      swap1\n      dup4\n      iszero\n      iszero\n      mul\n      or\n      swap1\n      sstore\n      pop\n        /* \"Bluelight-MP/UserDashboard.sol\":5272:5282  msg.sender */\n      caller\n        /* \"Bluelight-MP/UserDashboard.sol\":5262:5300  LoggingIn(msg.sender, block.timestamp) */\n      0xffffffffffffffffffffffffffffffffffffffff\n      and\n      0x364034de78a61b6190b049e2c5437370b27906bfed607993a5bc2dda23c16cff\n        /* \"Bluelight-MP/UserDashboard.sol\":5284:5299  block.timestamp */\n      timestamp\n        /* \"Bluelight-MP/UserDashboard.sol\":5262:5300  LoggingIn(msg.sender, block.timestamp) */\n      mload(0x40)\n      tag_219\n      swap2\n      swap1\n      tag_220\n      jump\t// in\n    tag_219:\n      mload(0x40)\n      dup1\n      swap2\n      sub\n      swap1\n      log2\n        /* \"Bluelight-MP/UserDashboard.sol\":5028:5308  function logIn() virtual override external {\r... */\n      jump\t// out\n        /* \"Bluelight-MP/UserDashboard.sol\":3792:4188  function getNftWithBytes32(bytes32 _uniKey) external virtual override view \r... */\n    tag_70:\n        /* \"Bluelight-MP/UserDashboard.sol\":3885:3904  string memory _name */\n      0x60\n        /* \"Bluelight-MP/UserDashboard.sol\":3906:3932  address nftContractAddress */\n      0x00\n        /* \"Bluelight-MP/UserDashboard.sol\":3934:3949  uint256 tokenId */\n      dup1\n        /* \"Bluelight-MP/UserDashboard.sol\":3951:3964  address owner */\n      0x00\n        /* \"Bluelight-MP/UserDashboard.sol\":3966:3984  string memory iPFS */\n      0x60\n        /* \"Bluelight-MP/UserDashboard.sol\":3996:4010  bytes32 uniKey */\n      0x00\n        /* \"Bluelight-MP/UserDashboard.sol\":4013:4020  _uniKey */\n      dup7\n        /* \"Bluelight-MP/UserDashboard.sol\":3996:4020  bytes32 uniKey = _uniKey */\n      swap1\n      pop\n        /* \"Bluelight-MP/UserDashboard.sol\":4049:4055  myNFTs */\n      0x00\n        /* \"Bluelight-MP/UserDashboard.sol\":4049:4063  myNFTs[uniKey] */\n      dup1\n        /* \"Bluelight-MP/UserDashboard.sol\":4056:4062  uniKey */\n      dup3\n        /* \"Bluelight-MP/UserDashboard.sol\":4049:4063  myNFTs[uniKey] */\n      dup2\n      mstore\n      0x20\n      add\n      swap1\n      dup2\n      mstore\n      0x20\n      add\n      0x00\n      keccak256\n        /* \"Bluelight-MP/UserDashboard.sol\":4049:4071  myNFTs[uniKey].nftName */\n      0x00\n      add\n        /* \"Bluelight-MP/UserDashboard.sol\":4073:4079  myNFTs */\n      0x00\n        /* \"Bluelight-MP/UserDashboard.sol\":4073:4087  myNFTs[uniKey] */\n      dup1\n        /* \"Bluelight-MP/UserDashboard.sol\":4080:4086  uniKey */\n      dup4\n        /* \"Bluelight-MP/UserDashboard.sol\":4073:4087  myNFTs[uniKey] */\n      dup2\n      mstore\n      0x20\n      add\n      swap1\n      dup2\n      mstore\n      0x20\n      add\n      0x00\n      keccak256\n        /* \"Bluelight-MP/UserDashboard.sol\":4073:4103  myNFTs[uniKey].contractAddress */\n      0x01\n      add\n      0x00\n      swap1\n      sload\n      swap1\n      0x0100\n      exp\n      swap1\n      div\n      0xffffffffffffffffffffffffffffffffffffffff\n      and\n        /* \"Bluelight-MP/UserDashboard.sol\":4105:4111  myNFTs */\n      0x00\n        /* \"Bluelight-MP/UserDashboard.sol\":4105:4119  myNFTs[uniKey] */\n      dup1\n        /* \"Bluelight-MP/UserDashboard.sol\":4112:4118  uniKey */\n      dup5\n        /* \"Bluelight-MP/UserDashboard.sol\":4105:4119  myNFTs[uniKey] */\n      dup2\n      mstore\n      0x20\n      add\n      swap1\n      dup2\n      mstore\n      0x20\n      add\n      0x00\n      keccak256\n        /* \"Bluelight-MP/UserDashboard.sol\":4105:4127  myNFTs[uniKey].tokenId */\n      0x02\n      add\n      sload\n        /* \"Bluelight-MP/UserDashboard.sol\":4129:4135  myNFTs */\n      0x00\n        /* \"Bluelight-MP/UserDashboard.sol\":4129:4143  myNFTs[uniKey] */\n      dup1\n        /* \"Bluelight-MP/UserDashboard.sol\":4136:4142  uniKey */\n      dup6\n        /* \"Bluelight-MP/UserDashboard.sol\":4129:4143  myNFTs[uniKey] */\n      dup2\n      mstore\n      0x20\n      add\n      swap1\n      dup2\n      mstore\n      0x20\n      add\n      0x00\n      keccak256\n        /* \"Bluelight-MP/UserDashboard.sol\":4129:4149  myNFTs[uniKey].owner */\n      0x03\n      add\n      0x00\n      swap1\n      sload\n      swap1\n      0x0100\n      exp\n      swap1\n      div\n      0xffffffffffffffffffffffffffffffffffffffff\n      and\n        /* \"Bluelight-MP/UserDashboard.sol\":4160:4166  myNFTs */\n      0x00\n        /* \"Bluelight-MP/UserDashboard.sol\":4160:4174  myNFTs[uniKey] */\n      dup1\n        /* \"Bluelight-MP/UserDashboard.sol\":4167:4173  uniKey */\n      dup7\n        /* \"Bluelight-MP/UserDashboard.sol\":4160:4174  myNFTs[uniKey] */\n      dup2\n      mstore\n      0x20\n      add\n      swap1\n      dup2\n      mstore\n      0x20\n      add\n      0x00\n      keccak256\n        /* \"Bluelight-MP/UserDashboard.sol\":4160:4179  myNFTs[uniKey].ipfs */\n      0x04\n      add\n        /* \"Bluelight-MP/UserDashboard.sol\":4041:4180  return (myNFTs[uniKey].nftName, myNFTs[uniKey].contractAddress, myNFTs[uniKey].tokenId, myNFTs[uniKey].owner,\r... */\n      dup5\n      dup1\n      sload\n      tag_222\n      swap1\n      tag_153\n      jump\t// in\n    tag_222:\n      dup1\n      0x1f\n      add\n      0x20\n      dup1\n      swap2\n      div\n      mul\n      0x20\n      add\n      mload(0x40)\n      swap1\n      dup2\n      add\n      0x40\n      mstore\n      dup1\n      swap3\n      swap2\n      swap1\n      dup2\n      dup2\n      mstore\n      0x20\n      add\n      dup3\n      dup1\n      sload\n      tag_223\n      swap1\n      tag_153\n      jump\t// in\n    tag_223:\n      dup1\n      iszero\n      tag_224\n      jumpi\n      dup1\n      0x1f\n      lt\n      tag_225\n      jumpi\n      0x0100\n      dup1\n      dup4\n      sload\n      div\n      mul\n      dup4\n      mstore\n      swap2\n      0x20\n      add\n      swap2\n      jump(tag_224)\n    tag_225:\n      dup3\n      add\n      swap2\n      swap1\n      0x00\n      mstore\n      keccak256(0x00, 0x20)\n      swap1\n    tag_226:\n      dup2\n      sload\n      dup2\n      mstore\n      swap1\n      0x01\n      add\n      swap1\n      0x20\n      add\n      dup1\n      dup4\n      gt\n      tag_226\n      jumpi\n      dup3\n      swap1\n      sub\n      0x1f\n      and\n      dup3\n      add\n      swap2\n    tag_224:\n      pop\n      pop\n      pop\n      pop\n      pop\n      swap5\n      pop\n      dup1\n      dup1\n      sload\n      tag_227\n      swap1\n      tag_153\n      jump\t// in\n    tag_227:\n      dup1\n      0x1f\n      add\n      0x20\n      dup1\n      swap2\n      div\n      mul\n      0x20\n      add\n      mload(0x40)\n      swap1\n      dup2\n      add\n      0x40\n      mstore\n      dup1\n      swap3\n      swap2\n      swap1\n      dup2\n      dup2\n      mstore\n      0x20\n      add\n      dup3\n      dup1\n      sload\n      tag_228\n      swap1\n      tag_153\n      jump\t// in\n    tag_228:\n      dup1\n      iszero\n      tag_229\n      jumpi\n      dup1\n      0x1f\n      lt\n      tag_230\n      jumpi\n      0x0100\n      dup1\n      dup4\n      sload\n      div\n      mul\n      dup4\n      mstore\n      swap2\n      0x20\n      add\n      swap2\n      jump(tag_229)\n    tag_230:\n      dup3\n      add\n      swap2\n      swap1\n      0x00\n      mstore\n      keccak256(0x00, 0x20)\n      swap1\n    tag_231:\n      dup2\n      sload\n      dup2\n      mstore\n      swap1\n      0x01\n      add\n      swap1\n      0x20\n      add\n      dup1\n      dup4\n      gt\n      tag_231\n      jumpi\n      dup3\n      swap1\n      sub\n      0x1f\n      and\n      dup3\n      add\n      swap2\n    tag_229:\n      pop\n      pop\n      pop\n      pop\n      pop\n      swap1\n      pop\n      swap6\n      pop\n      swap6\n      pop\n      swap6\n      pop\n      swap6\n      pop\n      swap6\n      pop\n      pop\n        /* \"Bluelight-MP/UserDashboard.sol\":3792:4188  function getNftWithBytes32(bytes32 _uniKey) external virtual override view \r... */\n      swap2\n      swap4\n      swap6\n      swap1\n      swap3\n      swap5\n      pop\n      jump\t// out\n        /* \"Bluelight-MP/UserDashboard.sol\":5457:5687  function logOut() external virtual override{\r... */\n    tag_74:\n        /* \"Bluelight-MP/UserDashboard.sol\":5520:5525  users */\n      0x04\n        /* \"Bluelight-MP/UserDashboard.sol\":5520:5537  users[msg.sender] */\n      0x00\n        /* \"Bluelight-MP/UserDashboard.sol\":5526:5536  msg.sender */\n      caller\n        /* \"Bluelight-MP/UserDashboard.sol\":5520:5537  users[msg.sender] */\n      0xffffffffffffffffffffffffffffffffffffffff\n      and\n      0xffffffffffffffffffffffffffffffffffffffff\n      and\n      dup2\n      mstore\n      0x20\n      add\n      swap1\n      dup2\n      mstore\n      0x20\n      add\n      0x00\n      keccak256\n        /* \"Bluelight-MP/UserDashboard.sol\":5520:5546  users[msg.sender].loggedIn */\n      0x03\n      add\n      0x00\n      swap1\n      sload\n      swap1\n      0x0100\n      exp\n      swap1\n      div\n      0xff\n      and\n        /* \"Bluelight-MP/UserDashboard.sol\":5548:5567  CREATE_ACC_OR_LOGIN */\n      mload(0x40)\n      dup1\n      0x40\n      add\n      0x40\n      mstore\n      dup1\n      0x05\n      dup2\n      mstore\n      0x20\n      add\n      0x574d552d32000000000000000000000000000000000000000000000000000000\n      dup2\n      mstore\n      pop\n        /* \"Bluelight-MP/UserDashboard.sol\":5511:5568  require (users[msg.sender].loggedIn, CREATE_ACC_OR_LOGIN) */\n      swap1\n      tag_233\n      jumpi\n      mload(0x40)\n      0x08c379a000000000000000000000000000000000000000000000000000000000\n      dup2\n      mstore\n      0x04\n      add\n      tag_234\n      swap2\n      swap1\n      tag_118\n      jump\t// in\n    tag_234:\n      mload(0x40)\n      dup1\n      swap2\n      sub\n      swap1\n      revert\n    tag_233:\n      pop\n        /* \"Bluelight-MP/UserDashboard.sol\":5608:5613  false */\n      0x00\n        /* \"Bluelight-MP/UserDashboard.sol\":5579:5584  users */\n      0x04\n        /* \"Bluelight-MP/UserDashboard.sol\":5579:5596  users[msg.sender] */\n      0x00\n        /* \"Bluelight-MP/UserDashboard.sol\":5585:5595  msg.sender */\n      caller\n        /* \"Bluelight-MP/UserDashboard.sol\":5579:5596  users[msg.sender] */\n      0xffffffffffffffffffffffffffffffffffffffff\n      and\n      0xffffffffffffffffffffffffffffffffffffffff\n      and\n      dup2\n      mstore\n      0x20\n      add\n      swap1\n      dup2\n      mstore\n      0x20\n      add\n      0x00\n      keccak256\n        /* \"Bluelight-MP/UserDashboard.sol\":5579:5605  users[msg.sender].loggedIn */\n      0x03\n      add\n      0x00\n        /* \"Bluelight-MP/UserDashboard.sol\":5579:5613  users[msg.sender].loggedIn = false */\n      0x0100\n      exp\n      dup2\n      sload\n      dup2\n      0xff\n      mul\n      not\n      and\n      swap1\n      dup4\n      iszero\n      iszero\n      mul\n      or\n      swap1\n      sstore\n      pop\n        /* \"Bluelight-MP/UserDashboard.sol\":5640:5650  msg.sender */\n      caller\n        /* \"Bluelight-MP/UserDashboard.sol\":5629:5668  LoggingOut(msg.sender, block.timestamp) */\n      0xffffffffffffffffffffffffffffffffffffffff\n      and\n      0x70d1177aa26c67f6b2fdb43400cfd7ff0c23a8712301abe5aba2ee3d89e28a10\n        /* \"Bluelight-MP/UserDashboard.sol\":5652:5667  block.timestamp */\n      timestamp\n        /* \"Bluelight-MP/UserDashboard.sol\":5629:5668  LoggingOut(msg.sender, block.timestamp) */\n      mload(0x40)\n      tag_235\n      swap2\n      swap1\n      tag_220\n      jump\t// in\n    tag_235:\n      mload(0x40)\n      dup1\n      swap2\n      sub\n      swap1\n      log2\n        /* \"Bluelight-MP/UserDashboard.sol\":5457:5687  function logOut() external virtual override{\r... */\n      jump\t// out\n        /* \"Bluelight-MP/UserDashboard.sol\":4685:4825  function getUniKeysMapping(address ownerOfNfts) external view returns(bytes32[] memory){\r... */\n    tag_78:\n        /* \"Bluelight-MP/UserDashboard.sol\":4755:4771  bytes32[] memory */\n      0x60\n        /* \"Bluelight-MP/UserDashboard.sol\":4790:4804  uniKeysMapping */\n      0x01\n        /* \"Bluelight-MP/UserDashboard.sol\":4790:4817  uniKeysMapping[ownerOfNfts] */\n      0x00\n        /* \"Bluelight-MP/UserDashboard.sol\":4805:4816  ownerOfNfts */\n      dup4\n        /* \"Bluelight-MP/UserDashboard.sol\":4790:4817  uniKeysMapping[ownerOfNfts] */\n      0xffffffffffffffffffffffffffffffffffffffff\n      and\n      0xffffffffffffffffffffffffffffffffffffffff\n      and\n      dup2\n      mstore\n      0x20\n      add\n      swap1\n      dup2\n      mstore\n      0x20\n      add\n      0x00\n      keccak256\n        /* \"Bluelight-MP/UserDashboard.sol\":4783:4817  return uniKeysMapping[ownerOfNfts] */\n      dup1\n      sload\n      dup1\n      0x20\n      mul\n      0x20\n      add\n      mload(0x40)\n      swap1\n      dup2\n      add\n      0x40\n      mstore\n      dup1\n      swap3\n      swap2\n      swap1\n      dup2\n      dup2\n      mstore\n      0x20\n      add\n      dup3\n      dup1\n      sload\n      dup1\n      iszero\n      tag_237\n      jumpi\n      0x20\n      mul\n      dup3\n      add\n      swap2\n      swap1\n      0x00\n      mstore\n      keccak256(0x00, 0x20)\n      swap1\n    tag_238:\n      dup2\n      sload\n      dup2\n      mstore\n      0x20\n      add\n      swap1\n      0x01\n      add\n      swap1\n      dup1\n      dup4\n      gt\n      tag_238\n      jumpi\n    tag_237:\n      pop\n      pop\n      pop\n      pop\n      pop\n      swap1\n      pop\n        /* \"Bluelight-MP/UserDashboard.sol\":4685:4825  function getUniKeysMapping(address ownerOfNfts) external view returns(bytes32[] memory){\r... */\n      swap2\n      swap1\n      pop\n      jump\t// out\n        /* \"Bluelight-MP/UserDashboard.sol\":1115:1167  mapping (string => address) public userNameToAddress */\n    tag_83:\n      0x05\n      dup2\n      dup1\n      mload\n      0x20\n      dup2\n      add\n      dup3\n      add\n      dup1\n      mload\n      dup5\n      dup3\n      mstore\n      0x20\n      dup4\n      add\n      0x20\n      dup6\n      add\n      keccak256\n      dup2\n      dup4\n      mstore\n      dup1\n      swap6\n      pop\n      pop\n      pop\n      pop\n      pop\n      pop\n      0x00\n      swap2\n      pop\n      sload\n      swap1\n      0x0100\n      exp\n      swap1\n      div\n      0xffffffffffffffffffffffffffffffffffffffff\n      and\n      dup2\n      jump\t// out\n        /* \"Bluelight-MP/UserDashboard.sol\":1931:2493  function setNft(string memory _name, address nftContractAddress, uint256 tokenId, string memory iPFS) external virtual override{\r... */\n    tag_89:\n        /* \"Bluelight-MP/UserDashboard.sol\":2078:2083  users */\n      0x04\n        /* \"Bluelight-MP/UserDashboard.sol\":2078:2095  users[msg.sender] */\n      0x00\n        /* \"Bluelight-MP/UserDashboard.sol\":2084:2094  msg.sender */\n      caller\n        /* \"Bluelight-MP/UserDashboard.sol\":2078:2095  users[msg.sender] */\n      0xffffffffffffffffffffffffffffffffffffffff\n      and\n      0xffffffffffffffffffffffffffffffffffffffff\n      and\n      dup2\n      mstore\n      0x20\n      add\n      swap1\n      dup2\n      mstore\n      0x20\n      add\n      0x00\n      keccak256\n        /* \"Bluelight-MP/UserDashboard.sol\":2078:2104  users[msg.sender].loggedIn */\n      0x03\n      add\n      0x00\n      swap1\n      sload\n      swap1\n      0x0100\n      exp\n      swap1\n      div\n      0xff\n      and\n        /* \"Bluelight-MP/UserDashboard.sol\":2106:2125  CREATE_ACC_OR_LOGIN */\n      mload(0x40)\n      dup1\n      0x40\n      add\n      0x40\n      mstore\n      dup1\n      0x05\n      dup2\n      mstore\n      0x20\n      add\n      0x574d552d32000000000000000000000000000000000000000000000000000000\n      dup2\n      mstore\n      pop\n        /* \"Bluelight-MP/UserDashboard.sol\":2069:2126  require (users[msg.sender].loggedIn, CREATE_ACC_OR_LOGIN) */\n      swap1\n      tag_240\n      jumpi\n      mload(0x40)\n      0x08c379a000000000000000000000000000000000000000000000000000000000\n      dup2\n      mstore\n      0x04\n      add\n      tag_241\n      swap2\n      swap1\n      tag_118\n      jump\t// in\n    tag_241:\n      mload(0x40)\n      dup1\n      swap2\n      sub\n      swap1\n      revert\n    tag_240:\n      pop\n        /* \"Bluelight-MP/UserDashboard.sol\":2139:2153  bytes32 uniKey */\n      0x00\n        /* \"Bluelight-MP/UserDashboard.sol\":2156:2204  getPrivateUniqueKey(nftContractAddress, tokenId) */\n      tag_242\n        /* \"Bluelight-MP/UserDashboard.sol\":2176:2194  nftContractAddress */\n      dup5\n        /* \"Bluelight-MP/UserDashboard.sol\":2196:2203  tokenId */\n      dup5\n        /* \"Bluelight-MP/UserDashboard.sol\":2156:2175  getPrivateUniqueKey */\n      tag_189\n        /* \"Bluelight-MP/UserDashboard.sol\":2156:2204  getPrivateUniqueKey(nftContractAddress, tokenId) */\n      jump\t// in\n    tag_242:\n        /* \"Bluelight-MP/UserDashboard.sol\":2139:2204  bytes32 uniKey = getPrivateUniqueKey(nftContractAddress, tokenId) */\n      swap1\n      pop\n        /* \"Bluelight-MP/UserDashboard.sol\":2241:2246  _name */\n      dup5\n        /* \"Bluelight-MP/UserDashboard.sol\":2216:2222  myNFTs */\n      0x00\n        /* \"Bluelight-MP/UserDashboard.sol\":2216:2230  myNFTs[uniKey] */\n      dup1\n        /* \"Bluelight-MP/UserDashboard.sol\":2223:2229  uniKey */\n      dup4\n        /* \"Bluelight-MP/UserDashboard.sol\":2216:2230  myNFTs[uniKey] */\n      dup2\n      mstore\n      0x20\n      add\n      swap1\n      dup2\n      mstore\n      0x20\n      add\n      0x00\n      keccak256\n        /* \"Bluelight-MP/UserDashboard.sol\":2216:2238  myNFTs[uniKey].nftName */\n      0x00\n      add\n        /* \"Bluelight-MP/UserDashboard.sol\":2216:2246  myNFTs[uniKey].nftName = _name */\n      swap1\n      dup1\n      mload\n      swap1\n      0x20\n      add\n      swap1\n      tag_243\n      swap3\n      swap2\n      swap1\n      tag_148\n      jump\t// in\n    tag_243:\n      pop\n        /* \"Bluelight-MP/UserDashboard.sol\":2290:2308  nftContractAddress */\n      dup4\n        /* \"Bluelight-MP/UserDashboard.sol\":2257:2263  myNFTs */\n      0x00\n        /* \"Bluelight-MP/UserDashboard.sol\":2257:2271  myNFTs[uniKey] */\n      dup1\n        /* \"Bluelight-MP/UserDashboard.sol\":2264:2270  uniKey */\n      dup4\n        /* \"Bluelight-MP/UserDashboard.sol\":2257:2271  myNFTs[uniKey] */\n      dup2\n      mstore\n      0x20\n      add\n      swap1\n      dup2\n      mstore\n      0x20\n      add\n      0x00\n      keccak256\n        /* \"Bluelight-MP/UserDashboard.sol\":2257:2287  myNFTs[uniKey].contractAddress */\n      0x01\n      add\n      0x00\n        /* \"Bluelight-MP/UserDashboard.sol\":2257:2308  myNFTs[uniKey].contractAddress = nftContractAddress */\n      0x0100\n      exp\n      dup2\n      sload\n      dup2\n      0xffffffffffffffffffffffffffffffffffffffff\n      mul\n      not\n      and\n      swap1\n      dup4\n      0xffffffffffffffffffffffffffffffffffffffff\n      and\n      mul\n      or\n      swap1\n      sstore\n      pop\n        /* \"Bluelight-MP/UserDashboard.sol\":2344:2351  tokenId */\n      dup3\n        /* \"Bluelight-MP/UserDashboard.sol\":2319:2325  myNFTs */\n      0x00\n        /* \"Bluelight-MP/UserDashboard.sol\":2319:2333  myNFTs[uniKey] */\n      dup1\n        /* \"Bluelight-MP/UserDashboard.sol\":2326:2332  uniKey */\n      dup4\n        /* \"Bluelight-MP/UserDashboard.sol\":2319:2333  myNFTs[uniKey] */\n      dup2\n      mstore\n      0x20\n      add\n      swap1\n      dup2\n      mstore\n      0x20\n      add\n      0x00\n      keccak256\n        /* \"Bluelight-MP/UserDashboard.sol\":2319:2341  myNFTs[uniKey].tokenId */\n      0x02\n      add\n        /* \"Bluelight-MP/UserDashboard.sol\":2319:2351  myNFTs[uniKey].tokenId = tokenId */\n      dup2\n      swap1\n      sstore\n      pop\n        /* \"Bluelight-MP/UserDashboard.sol\":2385:2395  msg.sender */\n      caller\n        /* \"Bluelight-MP/UserDashboard.sol\":2362:2368  myNFTs */\n      0x00\n        /* \"Bluelight-MP/UserDashboard.sol\":2362:2376  myNFTs[uniKey] */\n      dup1\n        /* \"Bluelight-MP/UserDashboard.sol\":2369:2375  uniKey */\n      dup4\n        /* \"Bluelight-MP/UserDashboard.sol\":2362:2376  myNFTs[uniKey] */\n      dup2\n      mstore\n      0x20\n      add\n      swap1\n      dup2\n      mstore\n      0x20\n      add\n      0x00\n      keccak256\n        /* \"Bluelight-MP/UserDashboard.sol\":2362:2382  myNFTs[uniKey].owner */\n      0x03\n      add\n      0x00\n        /* \"Bluelight-MP/UserDashboard.sol\":2362:2395  myNFTs[uniKey].owner = msg.sender */\n      0x0100\n      exp\n      dup2\n      sload\n      dup2\n      0xffffffffffffffffffffffffffffffffffffffff\n      mul\n      not\n      and\n      swap1\n      dup4\n      0xffffffffffffffffffffffffffffffffffffffff\n      and\n      mul\n      or\n      swap1\n      sstore\n      pop\n        /* \"Bluelight-MP/UserDashboard.sol\":2428:2432  iPFS */\n      dup2\n        /* \"Bluelight-MP/UserDashboard.sol\":2406:2412  myNFTs */\n      0x00\n        /* \"Bluelight-MP/UserDashboard.sol\":2406:2420  myNFTs[uniKey] */\n      dup1\n        /* \"Bluelight-MP/UserDashboard.sol\":2413:2419  uniKey */\n      dup4\n        /* \"Bluelight-MP/UserDashboard.sol\":2406:2420  myNFTs[uniKey] */\n      dup2\n      mstore\n      0x20\n      add\n      swap1\n      dup2\n      mstore\n      0x20\n      add\n      0x00\n      keccak256\n        /* \"Bluelight-MP/UserDashboard.sol\":2406:2425  myNFTs[uniKey].ipfs */\n      0x04\n      add\n        /* \"Bluelight-MP/UserDashboard.sol\":2406:2432  myNFTs[uniKey].ipfs = iPFS */\n      swap1\n      dup1\n      mload\n      swap1\n      0x20\n      add\n      swap1\n      tag_244\n      swap3\n      swap2\n      swap1\n      tag_148\n      jump\t// in\n    tag_244:\n      pop\n        /* \"Bluelight-MP/UserDashboard.sol\":2444:2458  uniKeysMapping */\n      0x01\n        /* \"Bluelight-MP/UserDashboard.sol\":2444:2470  uniKeysMapping[msg.sender] */\n      0x00\n        /* \"Bluelight-MP/UserDashboard.sol\":2459:2469  msg.sender */\n      caller\n        /* \"Bluelight-MP/UserDashboard.sol\":2444:2470  uniKeysMapping[msg.sender] */\n      0xffffffffffffffffffffffffffffffffffffffff\n      and\n      0xffffffffffffffffffffffffffffffffffffffff\n      and\n      dup2\n      mstore\n      0x20\n      add\n      swap1\n      dup2\n      mstore\n      0x20\n      add\n      0x00\n      keccak256\n        /* \"Bluelight-MP/UserDashboard.sol\":2476:2482  uniKey */\n      dup2\n        /* \"Bluelight-MP/UserDashboard.sol\":2444:2483  uniKeysMapping[msg.sender].push(uniKey) */\n      swap1\n      dup1\n      0x01\n      dup2\n      sload\n      add\n      dup1\n      dup3\n      sstore\n      dup1\n      swap2\n      pop\n      pop\n      0x01\n      swap1\n      sub\n      swap1\n      0x00\n      mstore\n      keccak256(0x00, 0x20)\n      add\n      0x00\n      swap1\n      swap2\n      swap1\n      swap2\n      swap1\n      swap2\n      pop\n      sstore\n        /* \"Bluelight-MP/UserDashboard.sol\":1931:2493  function setNft(string memory _name, address nftContractAddress, uint256 tokenId, string memory iPFS) external virtual override{\r... */\n      pop\n      pop\n      pop\n      pop\n      pop\n      jump\t// out\n        /* \"Bluelight-MP/UserDashboard.sol\":1214:1276  mapping (address => AmountRecord) public addressToAmountRecord */\n    tag_92:\n      mstore(0x20, 0x06)\n      dup1\n      0x00\n      mstore\n      keccak256(0x00, 0x40)\n      0x00\n      swap2\n      pop\n      swap1\n      pop\n      dup1\n      0x00\n      add\n      sload\n      swap1\n      dup1\n      0x01\n      add\n      sload\n      swap1\n      dup1\n      0x02\n      add\n      sload\n      swap1\n      dup1\n      0x03\n      add\n      sload\n      swap1\n      pop\n      dup5\n      jump\t// out\n        /* \"Bluelight-MP/UserDashboard.sol\":7466:7924  function setAmountRecord(address user, uint curAmountSpent, uint tokenAmountSpent, uint curAmountEarned, uint tokenAmountEarned) external virtual override{\r... */\n    tag_98:\n        /* \"Bluelight-MP/UserDashboard.sol\":7677:7691  curAmountSpent */\n      dup4\n        /* \"Bluelight-MP/UserDashboard.sol\":7631:7652  addressToAmountRecord */\n      0x06\n        /* \"Bluelight-MP/UserDashboard.sol\":7631:7658  addressToAmountRecord[user] */\n      0x00\n        /* \"Bluelight-MP/UserDashboard.sol\":7653:7657  user */\n      dup8\n        /* \"Bluelight-MP/UserDashboard.sol\":7631:7658  addressToAmountRecord[user] */\n      0xffffffffffffffffffffffffffffffffffffffff\n      and\n      0xffffffffffffffffffffffffffffffffffffffff\n      and\n      dup2\n      mstore\n      0x20\n      add\n      swap1\n      dup2\n      mstore\n      0x20\n      add\n      0x00\n      keccak256\n        /* \"Bluelight-MP/UserDashboard.sol\":7631:7673  addressToAmountRecord[user].curAmountSpent */\n      0x00\n      add\n      0x00\n        /* \"Bluelight-MP/UserDashboard.sol\":7631:7691  addressToAmountRecord[user].curAmountSpent += curAmountSpent */\n      dup3\n      dup3\n      sload\n      tag_247\n      swap2\n      swap1\n      tag_248\n      jump\t// in\n    tag_247:\n      swap3\n      pop\n      pop\n      dup2\n      swap1\n      sstore\n      pop\n        /* \"Bluelight-MP/UserDashboard.sol\":7750:7766  tokenAmountSpent */\n      dup3\n        /* \"Bluelight-MP/UserDashboard.sol\":7702:7723  addressToAmountRecord */\n      0x06\n        /* \"Bluelight-MP/UserDashboard.sol\":7702:7729  addressToAmountRecord[user] */\n      0x00\n        /* \"Bluelight-MP/UserDashboard.sol\":7724:7728  user */\n      dup8\n        /* \"Bluelight-MP/UserDashboard.sol\":7702:7729  addressToAmountRecord[user] */\n      0xffffffffffffffffffffffffffffffffffffffff\n      and\n      0xffffffffffffffffffffffffffffffffffffffff\n      and\n      dup2\n      mstore\n      0x20\n      add\n      swap1\n      dup2\n      mstore\n      0x20\n      add\n      0x00\n      keccak256\n        /* \"Bluelight-MP/UserDashboard.sol\":7702:7746  addressToAmountRecord[user].tokenAmountSpent */\n      0x01\n      add\n      0x00\n        /* \"Bluelight-MP/UserDashboard.sol\":7702:7766  addressToAmountRecord[user].tokenAmountSpent += tokenAmountSpent */\n      dup3\n      dup3\n      sload\n      tag_249\n      swap2\n      swap1\n      tag_248\n      jump\t// in\n    tag_249:\n      swap3\n      pop\n      pop\n      dup2\n      swap1\n      sstore\n      pop\n        /* \"Bluelight-MP/UserDashboard.sol\":7824:7839  curAmountEarned */\n      dup2\n        /* \"Bluelight-MP/UserDashboard.sol\":7777:7798  addressToAmountRecord */\n      0x06\n        /* \"Bluelight-MP/UserDashboard.sol\":7777:7804  addressToAmountRecord[user] */\n      0x00\n        /* \"Bluelight-MP/UserDashboard.sol\":7799:7803  user */\n      dup8\n        /* \"Bluelight-MP/UserDashboard.sol\":7777:7804  addressToAmountRecord[user] */\n      0xffffffffffffffffffffffffffffffffffffffff\n      and\n      0xffffffffffffffffffffffffffffffffffffffff\n      and\n      dup2\n      mstore\n      0x20\n      add\n      swap1\n      dup2\n      mstore\n      0x20\n      add\n      0x00\n      keccak256\n        /* \"Bluelight-MP/UserDashboard.sol\":7777:7820  addressToAmountRecord[user].curAmountEarned */\n      0x02\n      add\n      0x00\n        /* \"Bluelight-MP/UserDashboard.sol\":7777:7839  addressToAmountRecord[user].curAmountEarned += curAmountEarned */\n      dup3\n      dup3\n      sload\n      tag_250\n      swap2\n      swap1\n      tag_248\n      jump\t// in\n    tag_250:\n      swap3\n      pop\n      pop\n      dup2\n      swap1\n      sstore\n      pop\n        /* \"Bluelight-MP/UserDashboard.sol\":7899:7916  tokenAmountEarned */\n      dup1\n        /* \"Bluelight-MP/UserDashboard.sol\":7850:7871  addressToAmountRecord */\n      0x06\n        /* \"Bluelight-MP/UserDashboard.sol\":7850:7877  addressToAmountRecord[user] */\n      0x00\n        /* \"Bluelight-MP/UserDashboard.sol\":7872:7876  user */\n      dup8\n        /* \"Bluelight-MP/UserDashboard.sol\":7850:7877  addressToAmountRecord[user] */\n      0xffffffffffffffffffffffffffffffffffffffff\n      and\n      0xffffffffffffffffffffffffffffffffffffffff\n      and\n      dup2\n      mstore\n      0x20\n      add\n      swap1\n      dup2\n      mstore\n      0x20\n      add\n      0x00\n      keccak256\n        /* \"Bluelight-MP/UserDashboard.sol\":7850:7895  addressToAmountRecord[user].tokenAmountEarned */\n      0x03\n      add\n      0x00\n        /* \"Bluelight-MP/UserDashboard.sol\":7850:7916  addressToAmountRecord[user].tokenAmountEarned += tokenAmountEarned */\n      dup3\n      dup3\n      sload\n      tag_251\n      swap2\n      swap1\n      tag_248\n      jump\t// in\n    tag_251:\n      swap3\n      pop\n      pop\n      dup2\n      swap1\n      sstore\n      pop\n        /* \"Bluelight-MP/UserDashboard.sol\":7466:7924  function setAmountRecord(address user, uint curAmountSpent, uint tokenAmountSpent, uint curAmountEarned, uint tokenAmountEarned) external virtual override{\r... */\n      pop\n      pop\n      pop\n      pop\n      pop\n      jump\t// out\n        /* \"Bluelight-MP/UserDashboard.sol\":7930:8340  function userAmountDetail(address user) external virtual override view \r... */\n    tag_101:\n        /* \"Bluelight-MP/UserDashboard.sol\":8019:8038  uint currencyEarned */\n      0x00\n        /* \"Bluelight-MP/UserDashboard.sol\":8040:8056  uint earnedToken */\n      dup1\n        /* \"Bluelight-MP/UserDashboard.sol\":8058:8076  uint currencySpent */\n      0x00\n        /* \"Bluelight-MP/UserDashboard.sol\":8078:8093  uint tokenSpent */\n      dup1\n        /* \"Bluelight-MP/UserDashboard.sol\":8126:8147  addressToAmountRecord */\n      0x06\n        /* \"Bluelight-MP/UserDashboard.sol\":8126:8153  addressToAmountRecord[user] */\n      0x00\n        /* \"Bluelight-MP/UserDashboard.sol\":8148:8152  user */\n      dup7\n        /* \"Bluelight-MP/UserDashboard.sol\":8126:8153  addressToAmountRecord[user] */\n      0xffffffffffffffffffffffffffffffffffffffff\n      and\n      0xffffffffffffffffffffffffffffffffffffffff\n      and\n      dup2\n      mstore\n      0x20\n      add\n      swap1\n      dup2\n      mstore\n      0x20\n      add\n      0x00\n      keccak256\n        /* \"Bluelight-MP/UserDashboard.sol\":8126:8169  addressToAmountRecord[user].curAmountEarned */\n      0x02\n      add\n      sload\n        /* \"Bluelight-MP/UserDashboard.sol\":8171:8192  addressToAmountRecord */\n      0x06\n        /* \"Bluelight-MP/UserDashboard.sol\":8171:8198  addressToAmountRecord[user] */\n      0x00\n        /* \"Bluelight-MP/UserDashboard.sol\":8193:8197  user */\n      dup8\n        /* \"Bluelight-MP/UserDashboard.sol\":8171:8198  addressToAmountRecord[user] */\n      0xffffffffffffffffffffffffffffffffffffffff\n      and\n      0xffffffffffffffffffffffffffffffffffffffff\n      and\n      dup2\n      mstore\n      0x20\n      add\n      swap1\n      dup2\n      mstore\n      0x20\n      add\n      0x00\n      keccak256\n        /* \"Bluelight-MP/UserDashboard.sol\":8171:8216  addressToAmountRecord[user].tokenAmountEarned */\n      0x03\n      add\n      sload\n        /* \"Bluelight-MP/UserDashboard.sol\":8232:8253  addressToAmountRecord */\n      0x06\n        /* \"Bluelight-MP/UserDashboard.sol\":8232:8259  addressToAmountRecord[user] */\n      0x00\n        /* \"Bluelight-MP/UserDashboard.sol\":8254:8258  user */\n      dup9\n        /* \"Bluelight-MP/UserDashboard.sol\":8232:8259  addressToAmountRecord[user] */\n      0xffffffffffffffffffffffffffffffffffffffff\n      and\n      0xffffffffffffffffffffffffffffffffffffffff\n      and\n      dup2\n      mstore\n      0x20\n      add\n      swap1\n      dup2\n      mstore\n      0x20\n      add\n      0x00\n      keccak256\n        /* \"Bluelight-MP/UserDashboard.sol\":8232:8274  addressToAmountRecord[user].curAmountSpent */\n      0x00\n      add\n      sload\n        /* \"Bluelight-MP/UserDashboard.sol\":8277:8298  addressToAmountRecord */\n      0x06\n        /* \"Bluelight-MP/UserDashboard.sol\":8277:8304  addressToAmountRecord[user] */\n      0x00\n        /* \"Bluelight-MP/UserDashboard.sol\":8299:8303  user */\n      dup10\n        /* \"Bluelight-MP/UserDashboard.sol\":8277:8304  addressToAmountRecord[user] */\n      0xffffffffffffffffffffffffffffffffffffffff\n      and\n      0xffffffffffffffffffffffffffffffffffffffff\n      and\n      dup2\n      mstore\n      0x20\n      add\n      swap1\n      dup2\n      mstore\n      0x20\n      add\n      0x00\n      keccak256\n        /* \"Bluelight-MP/UserDashboard.sol\":8277:8321  addressToAmountRecord[user].tokenAmountSpent */\n      0x01\n      add\n      sload\n        /* \"Bluelight-MP/UserDashboard.sol\":8105:8332  return(\r... */\n      swap4\n      pop\n      swap4\n      pop\n      swap4\n      pop\n      swap4\n      pop\n        /* \"Bluelight-MP/UserDashboard.sol\":7930:8340  function userAmountDetail(address user) external virtual override view \r... */\n      swap2\n      swap4\n      pop\n      swap2\n      swap4\n      jump\t// out\n        /* \"Bluelight-MP/UserDashboard.sol\":5693:6344  function signUp(string memory _userName) external virtual override{\r... */\n    tag_105:\n        /* \"Bluelight-MP/UserDashboard.sol\":5780:5785  users */\n      0x04\n        /* \"Bluelight-MP/UserDashboard.sol\":5780:5797  users[msg.sender] */\n      0x00\n        /* \"Bluelight-MP/UserDashboard.sol\":5786:5796  msg.sender */\n      caller\n        /* \"Bluelight-MP/UserDashboard.sol\":5780:5797  users[msg.sender] */\n      0xffffffffffffffffffffffffffffffffffffffff\n      and\n      0xffffffffffffffffffffffffffffffffffffffff\n      and\n      dup2\n      mstore\n      0x20\n      add\n      swap1\n      dup2\n      mstore\n      0x20\n      add\n      0x00\n      keccak256\n        /* \"Bluelight-MP/UserDashboard.sol\":5780:5809  users[msg.sender].userExisted */\n      0x01\n      add\n      0x00\n      swap1\n      sload\n      swap1\n      0x0100\n      exp\n      swap1\n      div\n      0xff\n      and\n        /* \"Bluelight-MP/UserDashboard.sol\":5779:5809  !users[msg.sender].userExisted */\n      iszero\n        /* \"Bluelight-MP/UserDashboard.sol\":5811:5823  USER_EXISTED */\n      mload(0x40)\n      dup1\n      0x40\n      add\n      0x40\n      mstore\n      dup1\n      0x05\n      dup2\n      mstore\n      0x20\n      add\n      0x574d552d34000000000000000000000000000000000000000000000000000000\n      dup2\n      mstore\n      pop\n        /* \"Bluelight-MP/UserDashboard.sol\":5770:5824  require (!users[msg.sender].userExisted, USER_EXISTED) */\n      swap1\n      tag_254\n      jumpi\n      mload(0x40)\n      0x08c379a000000000000000000000000000000000000000000000000000000000\n      dup2\n      mstore\n      0x04\n      add\n      tag_255\n      swap2\n      swap1\n      tag_118\n      jump\t// in\n    tag_255:\n      mload(0x40)\n      dup1\n      swap2\n      sub\n      swap1\n      revert\n    tag_254:\n      pop\n        /* \"Bluelight-MP/UserDashboard.sol\":5884:5885  0 */\n      0x00\n        /* \"Bluelight-MP/UserDashboard.sol\":5844:5886  userNameToAddress[_userName] == address(0) */\n      0xffffffffffffffffffffffffffffffffffffffff\n      and\n        /* \"Bluelight-MP/UserDashboard.sol\":5844:5861  userNameToAddress */\n      0x05\n        /* \"Bluelight-MP/UserDashboard.sol\":5862:5871  _userName */\n      dup3\n        /* \"Bluelight-MP/UserDashboard.sol\":5844:5872  userNameToAddress[_userName] */\n      mload(0x40)\n      tag_256\n      swap2\n      swap1\n      tag_159\n      jump\t// in\n    tag_256:\n      swap1\n      dup2\n      mstore\n      0x20\n      add\n      mload(0x40)\n      dup1\n      swap2\n      sub\n      swap1\n      keccak256\n      0x00\n      swap1\n      sload\n      swap1\n      0x0100\n      exp\n      swap1\n      div\n      0xffffffffffffffffffffffffffffffffffffffff\n      and\n        /* \"Bluelight-MP/UserDashboard.sol\":5844:5886  userNameToAddress[_userName] == address(0) */\n      0xffffffffffffffffffffffffffffffffffffffff\n      and\n      eq\n        /* \"Bluelight-MP/UserDashboard.sol\":5888:5905  USER_NAME_EXISTED */\n      mload(0x40)\n      dup1\n      0x40\n      add\n      0x40\n      mstore\n      dup1\n      0x05\n      dup2\n      mstore\n      0x20\n      add\n      0x574d552d36000000000000000000000000000000000000000000000000000000\n      dup2\n      mstore\n      pop\n        /* \"Bluelight-MP/UserDashboard.sol\":5835:5906  require (userNameToAddress[_userName] == address(0), USER_NAME_EXISTED) */\n      swap1\n      tag_257\n      jumpi\n      mload(0x40)\n      0x08c379a000000000000000000000000000000000000000000000000000000000\n      dup2\n      mstore\n      0x04\n      add\n      tag_258\n      swap2\n      swap1\n      tag_118\n      jump\t// in\n    tag_258:\n      mload(0x40)\n      dup1\n      swap2\n      sub\n      swap1\n      revert\n    tag_257:\n      pop\n        /* \"Bluelight-MP/UserDashboard.sol\":5948:5957  _userName */\n      dup1\n        /* \"Bluelight-MP/UserDashboard.sol\":5919:5924  users */\n      0x04\n        /* \"Bluelight-MP/UserDashboard.sol\":5919:5936  users[msg.sender] */\n      0x00\n        /* \"Bluelight-MP/UserDashboard.sol\":5925:5935  msg.sender */\n      caller\n        /* \"Bluelight-MP/UserDashboard.sol\":5919:5936  users[msg.sender] */\n      0xffffffffffffffffffffffffffffffffffffffff\n      and\n      0xffffffffffffffffffffffffffffffffffffffff\n      and\n      dup2\n      mstore\n      0x20\n      add\n      swap1\n      dup2\n      mstore\n      0x20\n      add\n      0x00\n      keccak256\n        /* \"Bluelight-MP/UserDashboard.sol\":5919:5945  users[msg.sender].userName */\n      0x00\n      add\n        /* \"Bluelight-MP/UserDashboard.sol\":5919:5957  users[msg.sender].userName = _userName */\n      swap1\n      dup1\n      mload\n      swap1\n      0x20\n      add\n      swap1\n      tag_259\n      swap3\n      swap2\n      swap1\n      tag_148\n      jump\t// in\n    tag_259:\n      pop\n        /* \"Bluelight-MP/UserDashboard.sol\":6000:6004  true */\n      0x01\n        /* \"Bluelight-MP/UserDashboard.sol\":5968:5973  users */\n      0x04\n        /* \"Bluelight-MP/UserDashboard.sol\":5968:5985  users[msg.sender] */\n      0x00\n        /* \"Bluelight-MP/UserDashboard.sol\":5974:5984  msg.sender */\n      caller\n        /* \"Bluelight-MP/UserDashboard.sol\":5968:5985  users[msg.sender] */\n      0xffffffffffffffffffffffffffffffffffffffff\n      and\n      0xffffffffffffffffffffffffffffffffffffffff\n      and\n      dup2\n      mstore\n      0x20\n      add\n      swap1\n      dup2\n      mstore\n      0x20\n      add\n      0x00\n      keccak256\n        /* \"Bluelight-MP/UserDashboard.sol\":5968:5997  users[msg.sender].userExisted */\n      0x01\n      add\n      0x00\n        /* \"Bluelight-MP/UserDashboard.sol\":5968:6004  users[msg.sender].userExisted = true */\n      0x0100\n      exp\n      dup2\n      sload\n      dup2\n      0xff\n      mul\n      not\n      and\n      swap1\n      dup4\n      iszero\n      iszero\n      mul\n      or\n      swap1\n      sstore\n      pop\n        /* \"Bluelight-MP/UserDashboard.sol\":6048:6063  block.timestamp */\n      timestamp\n        /* \"Bluelight-MP/UserDashboard.sol\":6015:6020  users */\n      0x04\n        /* \"Bluelight-MP/UserDashboard.sol\":6015:6032  users[msg.sender] */\n      0x00\n        /* \"Bluelight-MP/UserDashboard.sol\":6021:6031  msg.sender */\n      caller\n        /* \"Bluelight-MP/UserDashboard.sol\":6015:6032  users[msg.sender] */\n      0xffffffffffffffffffffffffffffffffffffffff\n      and\n      0xffffffffffffffffffffffffffffffffffffffff\n      and\n      dup2\n      mstore\n      0x20\n      add\n      swap1\n      dup2\n      mstore\n      0x20\n      add\n      0x00\n      keccak256\n        /* \"Bluelight-MP/UserDashboard.sol\":6015:6045  users[msg.sender].creationTime */\n      0x02\n      add\n        /* \"Bluelight-MP/UserDashboard.sol\":6015:6063  users[msg.sender].creationTime = block.timestamp */\n      dup2\n      swap1\n      sstore\n      pop\n        /* \"Bluelight-MP/UserDashboard.sol\":6103:6107  true */\n      0x01\n        /* \"Bluelight-MP/UserDashboard.sol\":6074:6079  users */\n      0x04\n        /* \"Bluelight-MP/UserDashboard.sol\":6074:6091  users[msg.sender] */\n      0x00\n        /* \"Bluelight-MP/UserDashboard.sol\":6080:6090  msg.sender */\n      caller\n        /* \"Bluelight-MP/UserDashboard.sol\":6074:6091  users[msg.sender] */\n      0xffffffffffffffffffffffffffffffffffffffff\n      and\n      0xffffffffffffffffffffffffffffffffffffffff\n      and\n      dup2\n      mstore\n      0x20\n      add\n      swap1\n      dup2\n      mstore\n      0x20\n      add\n      0x00\n      keccak256\n        /* \"Bluelight-MP/UserDashboard.sol\":6074:6100  users[msg.sender].loggedIn */\n      0x03\n      add\n      0x00\n        /* \"Bluelight-MP/UserDashboard.sol\":6074:6107  users[msg.sender].loggedIn = true */\n      0x0100\n      exp\n      dup2\n      sload\n      dup2\n      0xff\n      mul\n      not\n      and\n      swap1\n      dup4\n      iszero\n      iszero\n      mul\n      or\n      swap1\n      sstore\n      pop\n        /* \"Bluelight-MP/UserDashboard.sol\":6149:6159  msg.sender */\n      caller\n        /* \"Bluelight-MP/UserDashboard.sol\":6118:6135  userNameToAddress */\n      0x05\n        /* \"Bluelight-MP/UserDashboard.sol\":6136:6145  _userName */\n      dup3\n        /* \"Bluelight-MP/UserDashboard.sol\":6118:6146  userNameToAddress[_userName] */\n      mload(0x40)\n      tag_260\n      swap2\n      swap1\n      tag_159\n      jump\t// in\n    tag_260:\n      swap1\n      dup2\n      mstore\n      0x20\n      add\n      mload(0x40)\n      dup1\n      swap2\n      sub\n      swap1\n      keccak256\n      0x00\n        /* \"Bluelight-MP/UserDashboard.sol\":6118:6159  userNameToAddress[_userName] = msg.sender */\n      0x0100\n      exp\n      dup2\n      sload\n      dup2\n      0xffffffffffffffffffffffffffffffffffffffff\n      mul\n      not\n      and\n      swap1\n      dup4\n      0xffffffffffffffffffffffffffffffffffffffff\n      and\n      mul\n      or\n      swap1\n      sstore\n      pop\n        /* \"Bluelight-MP/UserDashboard.sol\":6289:6299  msg.sender */\n      caller\n        /* \"Bluelight-MP/UserDashboard.sol\":6281:6328  SignUp (msg.sender, _userName, block.timestamp) */\n      0xffffffffffffffffffffffffffffffffffffffff\n      and\n      0xee20c2c019dcbca8d08ff74c4ce6f465e02d3611905c9aceeb76a0c8e429af2f\n        /* \"Bluelight-MP/UserDashboard.sol\":6301:6310  _userName */\n      dup3\n        /* \"Bluelight-MP/UserDashboard.sol\":6312:6327  block.timestamp */\n      timestamp\n        /* \"Bluelight-MP/UserDashboard.sol\":6281:6328  SignUp (msg.sender, _userName, block.timestamp) */\n      mload(0x40)\n      tag_261\n      swap3\n      swap2\n      swap1\n      tag_262\n      jump\t// in\n    tag_261:\n      mload(0x40)\n      dup1\n      swap2\n      sub\n      swap1\n      log2\n        /* \"Bluelight-MP/UserDashboard.sol\":5693:6344  function signUp(string memory _userName) external virtual override{\r... */\n      pop\n      jump\t// out\n        /* \"Bluelight-MP/UserDashboard.sol\":905:957  mapping (NftCategory => bytes32[]) public nftCatWise */\n    tag_109:\n      mstore(0x20, 0x02)\n      dup2\n      0x00\n      mstore\n      keccak256(0x00, 0x40)\n      dup2\n      dup2\n      sload\n      dup2\n      lt\n      tag_263\n      jumpi\n      0x00\n      dup1\n      revert\n    tag_263:\n      swap1\n      0x00\n      mstore\n      keccak256(0x00, 0x20)\n      add\n      0x00\n      swap2\n      pop\n      swap2\n      pop\n      pop\n      sload\n      dup2\n      jump\t// out\n        /* \"Bluelight-MP/UserDashboard.sol\":3528:3786  function getNftCategories() external pure returns(string memory,string memory,string memory,string memory,string memory,string memory,string memory) {\r... */\n    tag_112:\n        /* \"Bluelight-MP/UserDashboard.sol\":3578:3591  string memory */\n      0x60\n        /* \"Bluelight-MP/UserDashboard.sol\":3592:3605  string memory */\n      dup1\n        /* \"Bluelight-MP/UserDashboard.sol\":3606:3619  string memory */\n      0x60\n        /* \"Bluelight-MP/UserDashboard.sol\":3620:3633  string memory */\n      dup1\n        /* \"Bluelight-MP/UserDashboard.sol\":3634:3647  string memory */\n      0x60\n        /* \"Bluelight-MP/UserDashboard.sol\":3648:3661  string memory */\n      dup1\n        /* \"Bluelight-MP/UserDashboard.sol\":3662:3675  string memory */\n      0x60\n        /* \"Bluelight-MP/UserDashboard.sol\":3688:3778  return (\"AVATAR\", \"PICTURE\", \"GENERATIVE_ART\", \"ART\", \"COLLECTIBLES\", \"GAMIFIED\", \"OTHER\") */\n      mload(0x40)\n      dup1\n      0x40\n      add\n      0x40\n      mstore\n      dup1\n      0x06\n      dup2\n      mstore\n      0x20\n      add\n      0x4156415441520000000000000000000000000000000000000000000000000000\n      dup2\n      mstore\n      pop\n      mload(0x40)\n      dup1\n      0x40\n      add\n      0x40\n      mstore\n      dup1\n      0x07\n      dup2\n      mstore\n      0x20\n      add\n      0x5049435455524500000000000000000000000000000000000000000000000000\n      dup2\n      mstore\n      pop\n      mload(0x40)\n      dup1\n      0x40\n      add\n      0x40\n      mstore\n      dup1\n      0x0e\n      dup2\n      mstore\n      0x20\n      add\n      0x47454e455241544956455f415254000000000000000000000000000000000000\n      dup2\n      mstore\n      pop\n      mload(0x40)\n      dup1\n      0x40\n      add\n      0x40\n      mstore\n      dup1\n      0x03\n      dup2\n      mstore\n      0x20\n      add\n      0x4152540000000000000000000000000000000000000000000000000000000000\n      dup2\n      mstore\n      pop\n      mload(0x40)\n      dup1\n      0x40\n      add\n      0x40\n      mstore\n      dup1\n      0x0c\n      dup2\n      mstore\n      0x20\n      add\n      0x434f4c4c45435449424c45530000000000000000000000000000000000000000\n      dup2\n      mstore\n      pop\n      mload(0x40)\n      dup1\n      0x40\n      add\n      0x40\n      mstore\n      dup1\n      0x08\n      dup2\n      mstore\n      0x20\n      add\n      0x47414d4946494544000000000000000000000000000000000000000000000000\n      dup2\n      mstore\n      pop\n      mload(0x40)\n      dup1\n      0x40\n      add\n      0x40\n      mstore\n      dup1\n      0x05\n      dup2\n      mstore\n      0x20\n      add\n      0x4f54484552000000000000000000000000000000000000000000000000000000\n      dup2\n      mstore\n      pop\n      swap7\n      pop\n      swap7\n      pop\n      swap7\n      pop\n      swap7\n      pop\n      swap7\n      pop\n      swap7\n      pop\n      swap7\n      pop\n        /* \"Bluelight-MP/UserDashboard.sol\":3528:3786  function getNftCategories() external pure returns(string memory,string memory,string memory,string memory,string memory,string memory,string memory) {\r... */\n      swap1\n      swap2\n      swap3\n      swap4\n      swap5\n      swap6\n      swap7\n      jump\t// out\n        /* \"Bluelight-MP/UserDashboard.sol\":6530:6723  function checkUser() external virtual override view returns(string memory){\r... */\n    tag_116:\n        /* \"Bluelight-MP/UserDashboard.sol\":6590:6603  string memory */\n      0x60\n        /* \"Bluelight-MP/UserDashboard.sol\":6623:6628  users */\n      0x04\n        /* \"Bluelight-MP/UserDashboard.sol\":6623:6640  users[msg.sender] */\n      0x00\n        /* \"Bluelight-MP/UserDashboard.sol\":6629:6639  msg.sender */\n      caller\n        /* \"Bluelight-MP/UserDashboard.sol\":6623:6640  users[msg.sender] */\n      0xffffffffffffffffffffffffffffffffffffffff\n      and\n      0xffffffffffffffffffffffffffffffffffffffff\n      and\n      dup2\n      mstore\n      0x20\n      add\n      swap1\n      dup2\n      mstore\n      0x20\n      add\n      0x00\n      keccak256\n        /* \"Bluelight-MP/UserDashboard.sol\":6623:6649  users[msg.sender].loggedIn */\n      0x03\n      add\n      0x00\n      swap1\n      sload\n      swap1\n      0x0100\n      exp\n      swap1\n      div\n      0xff\n      and\n        /* \"Bluelight-MP/UserDashboard.sol\":6651:6670  CREATE_ACC_OR_LOGIN */\n      mload(0x40)\n      dup1\n      0x40\n      add\n      0x40\n      mstore\n      dup1\n      0x05\n      dup2\n      mstore\n      0x20\n      add\n      0x574d552d32000000000000000000000000000000000000000000000000000000\n      dup2\n      mstore\n      pop\n        /* \"Bluelight-MP/UserDashboard.sol\":6615:6671  require(users[msg.sender].loggedIn, CREATE_ACC_OR_LOGIN) */\n      swap1\n      tag_267\n      jumpi\n      mload(0x40)\n      0x08c379a000000000000000000000000000000000000000000000000000000000\n      dup2\n      mstore\n      0x04\n      add\n      tag_268\n      swap2\n      swap1\n      tag_118\n      jump\t// in\n    tag_268:\n      mload(0x40)\n      dup1\n      swap2\n      sub\n      swap1\n      revert\n    tag_267:\n      pop\n        /* \"Bluelight-MP/UserDashboard.sol\":6689:6694  users */\n      0x04\n        /* \"Bluelight-MP/UserDashboard.sol\":6689:6706  users[msg.sender] */\n      0x00\n        /* \"Bluelight-MP/UserDashboard.sol\":6695:6705  msg.sender */\n      caller\n        /* \"Bluelight-MP/UserDashboard.sol\":6689:6706  users[msg.sender] */\n      0xffffffffffffffffffffffffffffffffffffffff\n      and\n      0xffffffffffffffffffffffffffffffffffffffff\n      and\n      dup2\n      mstore\n      0x20\n      add\n      swap1\n      dup2\n      mstore\n      0x20\n      add\n      0x00\n      keccak256\n        /* \"Bluelight-MP/UserDashboard.sol\":6689:6715  users[msg.sender].userName */\n      0x00\n      add\n        /* \"Bluelight-MP/UserDashboard.sol\":6682:6715  return users[msg.sender].userName */\n      dup1\n      sload\n      tag_269\n      swap1\n      tag_153\n      jump\t// in\n    tag_269:\n      dup1\n      0x1f\n      add\n      0x20\n      dup1\n      swap2\n      div\n      mul\n      0x20\n      add\n      mload(0x40)\n      swap1\n      dup2\n      add\n      0x40\n      mstore\n      dup1\n      swap3\n      swap2\n      swap1\n      dup2\n      dup2\n      mstore\n      0x20\n      add\n      dup3\n      dup1\n      sload\n      tag_270\n      swap1\n      tag_153\n      jump\t// in\n    tag_270:\n      dup1\n      iszero\n      tag_271\n      jumpi\n      dup1\n      0x1f\n      lt\n      tag_272\n      jumpi\n      0x0100\n      dup1\n      dup4\n      sload\n      div\n      mul\n      dup4\n      mstore\n      swap2\n      0x20\n      add\n      swap2\n      jump(tag_271)\n    tag_272:\n      dup3\n      add\n      swap2\n      swap1\n      0x00\n      mstore\n      keccak256(0x00, 0x20)\n      swap1\n    tag_273:\n      dup2\n      sload\n      dup2\n      mstore\n      swap1\n      0x01\n      add\n      swap1\n      0x20\n      add\n      dup1\n      dup4\n      gt\n      tag_273\n      jumpi\n      dup3\n      swap1\n      sub\n      0x1f\n      and\n      dup3\n      add\n      swap2\n    tag_271:\n      pop\n      pop\n      pop\n      pop\n      pop\n      swap1\n      pop\n        /* \"Bluelight-MP/UserDashboard.sol\":6530:6723  function checkUser() external virtual override view returns(string memory){\r... */\n      swap1\n      jump\t// out\n        /* \"Bluelight-MP/UserDashboard.sol\":2937:3161  function setBuyNftData(address currentOwner, address newOwner, bytes32 uniKey) external virtual override{\r... */\n    tag_122:\n        /* \"Bluelight-MP/UserDashboard.sol\":3085:3093  newOwner */\n      dup2\n        /* \"Bluelight-MP/UserDashboard.sol\":3062:3068  myNFTs */\n      0x00\n        /* \"Bluelight-MP/UserDashboard.sol\":3062:3076  myNFTs[uniKey] */\n      dup1\n        /* \"Bluelight-MP/UserDashboard.sol\":3069:3075  uniKey */\n      dup4\n        /* \"Bluelight-MP/UserDashboard.sol\":3062:3076  myNFTs[uniKey] */\n      dup2\n      mstore\n      0x20\n      add\n      swap1\n      dup2\n      mstore\n      0x20\n      add\n      0x00\n      keccak256\n        /* \"Bluelight-MP/UserDashboard.sol\":3062:3082  myNFTs[uniKey].owner */\n      0x03\n      add\n      0x00\n        /* \"Bluelight-MP/UserDashboard.sol\":3062:3093  myNFTs[uniKey].owner = newOwner */\n      0x0100\n      exp\n      dup2\n      sload\n      dup2\n      0xffffffffffffffffffffffffffffffffffffffff\n      mul\n      not\n      and\n      swap1\n      dup4\n      0xffffffffffffffffffffffffffffffffffffffff\n      and\n      mul\n      or\n      swap1\n      sstore\n      pop\n        /* \"Bluelight-MP/UserDashboard.sol\":3114:3128  uniKeysMapping */\n      0x01\n        /* \"Bluelight-MP/UserDashboard.sol\":3114:3138  uniKeysMapping[newOwner] */\n      0x00\n        /* \"Bluelight-MP/UserDashboard.sol\":3129:3137  newOwner */\n      dup4\n        /* \"Bluelight-MP/UserDashboard.sol\":3114:3138  uniKeysMapping[newOwner] */\n      0xffffffffffffffffffffffffffffffffffffffff\n      and\n      0xffffffffffffffffffffffffffffffffffffffff\n      and\n      dup2\n      mstore\n      0x20\n      add\n      swap1\n      dup2\n      mstore\n      0x20\n      add\n      0x00\n      keccak256\n        /* \"Bluelight-MP/UserDashboard.sol\":3144:3150  uniKey */\n      dup2\n        /* \"Bluelight-MP/UserDashboard.sol\":3114:3151  uniKeysMapping[newOwner].push(uniKey) */\n      swap1\n      dup1\n      0x01\n      dup2\n      sload\n      add\n      dup1\n      dup3\n      sstore\n      dup1\n      swap2\n      pop\n      pop\n      0x01\n      swap1\n      sub\n      swap1\n      0x00\n      mstore\n      keccak256(0x00, 0x20)\n      add\n      0x00\n      swap1\n      swap2\n      swap1\n      swap2\n      swap1\n      swap2\n      pop\n      sstore\n        /* \"Bluelight-MP/UserDashboard.sol\":2937:3161  function setBuyNftData(address currentOwner, address newOwner, bytes32 uniKey) external virtual override{\r... */\n      pop\n      pop\n      pop\n      jump\t// out\n        /* \"Bluelight-MP/UserDashboard.sol\":3376:3522  function getUserNftCatWise(NftCategory nftCat) external view returns(bytes32[] memory){\r... */\n    tag_126:\n        /* \"Bluelight-MP/UserDashboard.sol\":3445:3461  bytes32[] memory */\n      0x60\n        /* \"Bluelight-MP/UserDashboard.sol\":3480:3494  userNftCatWise */\n      0x03\n        /* \"Bluelight-MP/UserDashboard.sol\":3480:3506  userNftCatWise[msg.sender] */\n      0x00\n        /* \"Bluelight-MP/UserDashboard.sol\":3495:3505  msg.sender */\n      caller\n        /* \"Bluelight-MP/UserDashboard.sol\":3480:3506  userNftCatWise[msg.sender] */\n      0xffffffffffffffffffffffffffffffffffffffff\n      and\n      0xffffffffffffffffffffffffffffffffffffffff\n      and\n      dup2\n      mstore\n      0x20\n      add\n      swap1\n      dup2\n      mstore\n      0x20\n      add\n      0x00\n      keccak256\n        /* \"Bluelight-MP/UserDashboard.sol\":3480:3514  userNftCatWise[msg.sender][nftCat] */\n      0x00\n        /* \"Bluelight-MP/UserDashboard.sol\":3507:3513  nftCat */\n      dup4\n        /* \"Bluelight-MP/UserDashboard.sol\":3480:3514  userNftCatWise[msg.sender][nftCat] */\n      0x06\n      dup2\n      gt\n      iszero\n      tag_277\n      jumpi\n      mstore(0x00, 0x4e487b7100000000000000000000000000000000000000000000000000000000)\n      mstore(0x04, 0x21)\n      revert(0x00, 0x24)\n    tag_277:\n      0x06\n      dup2\n      gt\n      iszero\n      tag_278\n      jumpi\n      mstore(0x00, 0x4e487b7100000000000000000000000000000000000000000000000000000000)\n      mstore(0x04, 0x21)\n      revert(0x00, 0x24)\n    tag_278:\n      dup2\n      mstore\n      0x20\n      add\n      swap1\n      dup2\n      mstore\n      0x20\n      add\n      0x00\n      keccak256\n        /* \"Bluelight-MP/UserDashboard.sol\":3473:3514  return userNftCatWise[msg.sender][nftCat] */\n      dup1\n      sload\n      dup1\n      0x20\n      mul\n      0x20\n      add\n      mload(0x40)\n      swap1\n      dup2\n      add\n      0x40\n      mstore\n      dup1\n      swap3\n      swap2\n      swap1\n      dup2\n      dup2\n      mstore\n      0x20\n      add\n      dup3\n      dup1\n      sload\n      dup1\n      iszero\n      tag_279\n      jumpi\n      0x20\n      mul\n      dup3\n      add\n      swap2\n      swap1\n      0x00\n      mstore\n      keccak256(0x00, 0x20)\n      swap1\n    tag_280:\n      dup2\n      sload\n      dup2\n      mstore\n      0x20\n      add\n      swap1\n      0x01\n      add\n      swap1\n      dup1\n      dup4\n      gt\n      tag_280\n      jumpi\n    tag_279:\n      pop\n      pop\n      pop\n      pop\n      pop\n      swap1\n      pop\n        /* \"Bluelight-MP/UserDashboard.sol\":3376:3522  function getUserNftCatWise(NftCategory nftCat) external view returns(bytes32[] memory){\r... */\n      swap2\n      swap1\n      pop\n      jump\t// out\n        /* \"Bluelight-MP/UserDashboard.sol\":964:1041  mapping (address => mapping (NftCategory => bytes32[])) public userNftCatWise */\n    tag_131:\n      mstore(0x20, 0x03)\n      dup3\n      0x00\n      mstore\n      mstore(0x20, keccak256(0x00, 0x40))\n      dup2\n      0x00\n      mstore\n      keccak256(0x00, 0x40)\n      dup2\n      dup2\n      sload\n      dup2\n      lt\n      tag_281\n      jumpi\n      0x00\n      dup1\n      revert\n    tag_281:\n      swap1\n      0x00\n      mstore\n      keccak256(0x00, 0x20)\n      add\n      0x00\n      swap3\n      pop\n      swap3\n      pop\n      pop\n      pop\n      sload\n      dup2\n      jump\t// out\n        /* \"Bluelight-MP/UserDashboard.sol\":3241:3370  function getAllNftCatWise(NftCategory nftCat) external view returns(bytes32[] memory){\r... */\n    tag_135:\n        /* \"Bluelight-MP/UserDashboard.sol\":3309:3325  bytes32[] memory */\n      0x60\n        /* \"Bluelight-MP/UserDashboard.sol\":3344:3354  nftCatWise */\n      0x02\n        /* \"Bluelight-MP/UserDashboard.sol\":3344:3362  nftCatWise[nftCat] */\n      0x00\n        /* \"Bluelight-MP/UserDashboard.sol\":3355:3361  nftCat */\n      dup4\n        /* \"Bluelight-MP/UserDashboard.sol\":3344:3362  nftCatWise[nftCat] */\n      0x06\n      dup2\n      gt\n      iszero\n      tag_284\n      jumpi\n      mstore(0x00, 0x4e487b7100000000000000000000000000000000000000000000000000000000)\n      mstore(0x04, 0x21)\n      revert(0x00, 0x24)\n    tag_284:\n      0x06\n      dup2\n      gt\n      iszero\n      tag_285\n      jumpi\n      mstore(0x00, 0x4e487b7100000000000000000000000000000000000000000000000000000000)\n      mstore(0x04, 0x21)\n      revert(0x00, 0x24)\n    tag_285:\n      dup2\n      mstore\n      0x20\n      add\n      swap1\n      dup2\n      mstore\n      0x20\n      add\n      0x00\n      keccak256\n        /* \"Bluelight-MP/UserDashboard.sol\":3337:3362  return nftCatWise[nftCat] */\n      dup1\n      sload\n      dup1\n      0x20\n      mul\n      0x20\n      add\n      mload(0x40)\n      swap1\n      dup2\n      add\n      0x40\n      mstore\n      dup1\n      swap3\n      swap2\n      swap1\n      dup2\n      dup2\n      mstore\n      0x20\n      add\n      dup3\n      dup1\n      sload\n      dup1\n      iszero\n      tag_286\n      jumpi\n      0x20\n      mul\n      dup3\n      add\n      swap2\n      swap1\n      0x00\n      mstore\n      keccak256(0x00, 0x20)\n      swap1\n    tag_287:\n      dup2\n      sload\n      dup2\n      mstore\n      0x20\n      add\n      swap1\n      0x01\n      add\n      swap1\n      dup1\n      dup4\n      gt\n      tag_287\n      jumpi\n    tag_286:\n      pop\n      pop\n      pop\n      pop\n      pop\n      swap1\n      pop\n        /* \"Bluelight-MP/UserDashboard.sol\":3241:3370  function getAllNftCatWise(NftCategory nftCat) external view returns(bytes32[] memory){\r... */\n      swap2\n      swap1\n      pop\n      jump\t// out\n        /* \"Bluelight-MP/UserDashboard.sol\":4831:4951  function getProfilePic() external view returns(string memory ipfs){\r... */\n    tag_138:\n        /* \"Bluelight-MP/UserDashboard.sol\":4878:4896  string memory ipfs */\n      0x60\n        /* \"Bluelight-MP/UserDashboard.sol\":4915:4920  users */\n      0x04\n        /* \"Bluelight-MP/UserDashboard.sol\":4915:4932  users[msg.sender] */\n      0x00\n        /* \"Bluelight-MP/UserDashboard.sol\":4921:4931  msg.sender */\n      caller\n        /* \"Bluelight-MP/UserDashboard.sol\":4915:4932  users[msg.sender] */\n      0xffffffffffffffffffffffffffffffffffffffff\n      and\n      0xffffffffffffffffffffffffffffffffffffffff\n      and\n      dup2\n      mstore\n      0x20\n      add\n      swap1\n      dup2\n      mstore\n      0x20\n      add\n      0x00\n      keccak256\n        /* \"Bluelight-MP/UserDashboard.sol\":4915:4943  users[msg.sender].profilePic */\n      0x04\n      add\n        /* \"Bluelight-MP/UserDashboard.sol\":4908:4943  return users[msg.sender].profilePic */\n      dup1\n      sload\n      tag_289\n      swap1\n      tag_153\n      jump\t// in\n    tag_289:\n      dup1\n      0x1f\n      add\n      0x20\n      dup1\n      swap2\n      div\n      mul\n      0x20\n      add\n      mload(0x40)\n      swap1\n      dup2\n      add\n      0x40\n      mstore\n      dup1\n      swap3\n      swap2\n      swap1\n      dup2\n      dup2\n      mstore\n      0x20\n      add\n      dup3\n      dup1\n      sload\n      tag_290\n      swap1\n      tag_153\n      jump\t// in\n    tag_290:\n      dup1\n      iszero\n      tag_291\n      jumpi\n      dup1\n      0x1f\n      lt\n      tag_292\n      jumpi\n      0x0100\n      dup1\n      dup4\n      sload\n      div\n      mul\n      dup4\n      mstore\n      swap2\n      0x20\n      add\n      swap2\n      jump(tag_291)\n    tag_292:\n      dup3\n      add\n      swap2\n      swap1\n      0x00\n      mstore\n      keccak256(0x00, 0x20)\n      swap1\n    tag_293:\n      dup2\n      sload\n      dup2\n      mstore\n      swap1\n      0x01\n      add\n      swap1\n      0x20\n      add\n      dup1\n      dup4\n      gt\n      tag_293\n      jumpi\n      dup3\n      swap1\n      sub\n      0x1f\n      and\n      dup3\n      add\n      swap2\n    tag_291:\n      pop\n      pop\n      pop\n      pop\n      pop\n      swap1\n      pop\n        /* \"Bluelight-MP/UserDashboard.sol\":4831:4951  function getProfilePic() external view returns(string memory ipfs){\r... */\n      swap1\n      jump\t// out\n        /* \"Bluelight-MP/UserDashboard.sol\":5315:5451  function checkLogIn(address _userAddr) external virtual override view returns(bool){  \r... */\n    tag_142:\n        /* \"Bluelight-MP/UserDashboard.sol\":5393:5397  bool */\n      0x00\n        /* \"Bluelight-MP/UserDashboard.sol\":5418:5423  users */\n      0x04\n        /* \"Bluelight-MP/UserDashboard.sol\":5418:5434  users[_userAddr] */\n      0x00\n        /* \"Bluelight-MP/UserDashboard.sol\":5424:5433  _userAddr */\n      dup4\n        /* \"Bluelight-MP/UserDashboard.sol\":5418:5434  users[_userAddr] */\n      0xffffffffffffffffffffffffffffffffffffffff\n      and\n      0xffffffffffffffffffffffffffffffffffffffff\n      and\n      dup2\n      mstore\n      0x20\n      add\n      swap1\n      dup2\n      mstore\n      0x20\n      add\n      0x00\n      keccak256\n        /* \"Bluelight-MP/UserDashboard.sol\":5418:5443  users[_userAddr].loggedIn */\n      0x03\n      add\n      0x00\n      swap1\n      sload\n      swap1\n      0x0100\n      exp\n      swap1\n      div\n      0xff\n      and\n        /* \"Bluelight-MP/UserDashboard.sol\":5411:5443  return users[_userAddr].loggedIn */\n      swap1\n      pop\n        /* \"Bluelight-MP/UserDashboard.sol\":5315:5451  function checkLogIn(address _userAddr) external virtual override view returns(bool){  \r... */\n      swap2\n      swap1\n      pop\n      jump\t// out\n        /* \"Bluelight-MP/Helper.sol\":154:341  function getPrivateUniqueKey(address nftContractAddress, uint256 tokenId) internal pure returns (bytes32){\r... */\n    tag_189:\n        /* \"Bluelight-MP/Helper.sol\":251:258  bytes32 */\n      0x00\n        /* \"Bluelight-MP/Helper.sol\":304:322  nftContractAddress */\n      dup3\n        /* \"Bluelight-MP/Helper.sol\":324:331  tokenId */\n      dup3\n        /* \"Bluelight-MP/Helper.sol\":287:332  abi.encodePacked(nftContractAddress, tokenId) */\n      add(0x20, mload(0x40))\n      tag_296\n      swap3\n      swap2\n      swap1\n      tag_297\n      jump\t// in\n    tag_296:\n      mload(0x40)\n      0x20\n      dup2\n      dup4\n      sub\n      sub\n      dup2\n      mstore\n      swap1\n      0x40\n      mstore\n        /* \"Bluelight-MP/Helper.sol\":277:333  keccak256(abi.encodePacked(nftContractAddress, tokenId)) */\n      dup1\n      mload\n      swap1\n      0x20\n      add\n      keccak256\n        /* \"Bluelight-MP/Helper.sol\":270:333  return keccak256(abi.encodePacked(nftContractAddress, tokenId)) */\n      swap1\n      pop\n        /* \"Bluelight-MP/Helper.sol\":154:341  function getPrivateUniqueKey(address nftContractAddress, uint256 tokenId) internal pure returns (bytes32){\r... */\n      swap3\n      swap2\n      pop\n      pop\n      jump\t// out\n    tag_148:\n      dup3\n      dup1\n      sload\n      tag_298\n      swap1\n      tag_153\n      jump\t// in\n    tag_298:\n      swap1\n      0x00\n      mstore\n      keccak256(0x00, 0x20)\n      swap1\n      0x1f\n      add\n      0x20\n      swap1\n      div\n      dup2\n      add\n      swap3\n      dup3\n      tag_300\n      jumpi\n      0x00\n      dup6\n      sstore\n      jump(tag_299)\n    tag_300:\n      dup3\n      0x1f\n      lt\n      tag_301\n      jumpi\n      dup1\n      mload\n      not(0xff)\n      and\n      dup4\n      dup1\n      add\n      or\n      dup6\n      sstore\n      jump(tag_299)\n    tag_301:\n      dup3\n      dup1\n      add\n      0x01\n      add\n      dup6\n      sstore\n      dup3\n      iszero\n      tag_299\n      jumpi\n      swap2\n      dup3\n      add\n    tag_302:\n      dup3\n      dup2\n      gt\n      iszero\n      tag_303\n      jumpi\n      dup3\n      mload\n      dup3\n      sstore\n      swap2\n      0x20\n      add\n      swap2\n      swap1\n      0x01\n      add\n      swap1\n      jump(tag_302)\n    tag_303:\n    tag_299:\n      pop\n      swap1\n      pop\n      tag_304\n      swap2\n      swap1\n      tag_305\n      jump\t// in\n    tag_304:\n      pop\n      swap1\n      jump\t// out\n    tag_161:\n      pop\n      dup1\n      sload\n      tag_306\n      swap1\n      tag_153\n      jump\t// in\n    tag_306:\n      0x00\n      dup3\n      sstore\n      dup1\n      0x1f\n      lt\n      tag_308\n      jumpi\n      pop\n      jump(tag_307)\n    tag_308:\n      0x1f\n      add\n      0x20\n      swap1\n      div\n      swap1\n      0x00\n      mstore\n      keccak256(0x00, 0x20)\n      swap1\n      dup2\n      add\n      swap1\n      tag_309\n      swap2\n      swap1\n      tag_305\n      jump\t// in\n    tag_309:\n    tag_307:\n      pop\n      jump\t// out\n    tag_305:\n    tag_310:\n      dup1\n      dup3\n      gt\n      iszero\n      tag_311\n      jumpi\n      0x00\n      dup2\n      0x00\n      swap1\n      sstore\n      pop\n      0x01\n      add\n      jump(tag_310)\n    tag_311:\n      pop\n      swap1\n      jump\t// out\n        /* \"#utility.yul\":7:352   */\n    tag_313:\n        /* \"#utility.yul\":85:90   */\n      0x00\n        /* \"#utility.yul\":110:176   */\n      tag_315\n        /* \"#utility.yul\":126:175   */\n      tag_316\n        /* \"#utility.yul\":168:174   */\n      dup5\n        /* \"#utility.yul\":126:175   */\n      tag_317\n      jump\t// in\n    tag_316:\n        /* \"#utility.yul\":110:176   */\n      tag_318\n      jump\t// in\n    tag_315:\n        /* \"#utility.yul\":101:176   */\n      swap1\n      pop\n        /* \"#utility.yul\":199:205   */\n      dup3\n        /* \"#utility.yul\":192:197   */\n      dup2\n        /* \"#utility.yul\":185:206   */\n      mstore\n        /* \"#utility.yul\":237:241   */\n      0x20\n        /* \"#utility.yul\":230:235   */\n      dup2\n        /* \"#utility.yul\":226:242   */\n      add\n        /* \"#utility.yul\":275:278   */\n      dup5\n        /* \"#utility.yul\":266:272   */\n      dup5\n        /* \"#utility.yul\":261:264   */\n      dup5\n        /* \"#utility.yul\":257:273   */\n      add\n        /* \"#utility.yul\":254:279   */\n      gt\n        /* \"#utility.yul\":251:253   */\n      iszero\n      tag_319\n      jumpi\n        /* \"#utility.yul\":292:293   */\n      0x00\n        /* \"#utility.yul\":289:290   */\n      dup1\n        /* \"#utility.yul\":282:294   */\n      revert\n        /* \"#utility.yul\":251:253   */\n    tag_319:\n        /* \"#utility.yul\":305:346   */\n      tag_320\n        /* \"#utility.yul\":339:345   */\n      dup5\n        /* \"#utility.yul\":334:337   */\n      dup3\n        /* \"#utility.yul\":329:332   */\n      dup6\n        /* \"#utility.yul\":305:346   */\n      tag_321\n      jump\t// in\n    tag_320:\n        /* \"#utility.yul\":91:352   */\n      pop\n      swap4\n      swap3\n      pop\n      pop\n      pop\n      jump\t// out\n        /* \"#utility.yul\":358:497   */\n    tag_322:\n        /* \"#utility.yul\":404:409   */\n      0x00\n        /* \"#utility.yul\":442:448   */\n      dup2\n        /* \"#utility.yul\":429:449   */\n      calldataload\n        /* \"#utility.yul\":420:449   */\n      swap1\n      pop\n        /* \"#utility.yul\":458:491   */\n      tag_324\n        /* \"#utility.yul\":485:490   */\n      dup2\n        /* \"#utility.yul\":458:491   */\n      tag_325\n      jump\t// in\n    tag_324:\n        /* \"#utility.yul\":410:497   */\n      swap3\n      swap2\n      pop\n      pop\n      jump\t// out\n        /* \"#utility.yul\":503:642   */\n    tag_326:\n        /* \"#utility.yul\":549:554   */\n      0x00\n        /* \"#utility.yul\":587:593   */\n      dup2\n        /* \"#utility.yul\":574:594   */\n      calldataload\n        /* \"#utility.yul\":565:594   */\n      swap1\n      pop\n        /* \"#utility.yul\":603:636   */\n      tag_328\n        /* \"#utility.yul\":630:635   */\n      dup2\n        /* \"#utility.yul\":603:636   */\n      tag_329\n      jump\t// in\n    tag_328:\n        /* \"#utility.yul\":555:642   */\n      swap3\n      swap2\n      pop\n      pop\n      jump\t// out\n        /* \"#utility.yul\":648:817   */\n    tag_330:\n        /* \"#utility.yul\":709:714   */\n      0x00\n        /* \"#utility.yul\":747:753   */\n      dup2\n        /* \"#utility.yul\":734:754   */\n      calldataload\n        /* \"#utility.yul\":725:754   */\n      swap1\n      pop\n        /* \"#utility.yul\":763:811   */\n      tag_332\n        /* \"#utility.yul\":805:810   */\n      dup2\n        /* \"#utility.yul\":763:811   */\n      tag_333\n      jump\t// in\n    tag_332:\n        /* \"#utility.yul\":715:817   */\n      swap3\n      swap2\n      pop\n      pop\n      jump\t// out\n        /* \"#utility.yul\":837:1110   */\n    tag_334:\n        /* \"#utility.yul\":893:898   */\n      0x00\n        /* \"#utility.yul\":942:945   */\n      dup3\n        /* \"#utility.yul\":935:939   */\n      0x1f\n        /* \"#utility.yul\":927:933   */\n      dup4\n        /* \"#utility.yul\":923:940   */\n      add\n        /* \"#utility.yul\":919:946   */\n      slt\n        /* \"#utility.yul\":909:911   */\n      tag_336\n      jumpi\n        /* \"#utility.yul\":960:961   */\n      0x00\n        /* \"#utility.yul\":957:958   */\n      dup1\n        /* \"#utility.yul\":950:962   */\n      revert\n        /* \"#utility.yul\":909:911   */\n    tag_336:\n        /* \"#utility.yul\":1000:1006   */\n      dup2\n        /* \"#utility.yul\":987:1007   */\n      calldataload\n        /* \"#utility.yul\":1025:1104   */\n      tag_337\n        /* \"#utility.yul\":1100:1103   */\n      dup5\n        /* \"#utility.yul\":1092:1098   */\n      dup3\n        /* \"#utility.yul\":1085:1089   */\n      0x20\n        /* \"#utility.yul\":1077:1083   */\n      dup7\n        /* \"#utility.yul\":1073:1090   */\n      add\n        /* \"#utility.yul\":1025:1104   */\n      tag_313\n      jump\t// in\n    tag_337:\n        /* \"#utility.yul\":1016:1104   */\n      swap2\n      pop\n        /* \"#utility.yul\":899:1110   */\n      pop\n      swap3\n      swap2\n      pop\n      pop\n      jump\t// out\n        /* \"#utility.yul\":1116:1255   */\n    tag_338:\n        /* \"#utility.yul\":1162:1167   */\n      0x00\n        /* \"#utility.yul\":1200:1206   */\n      dup2\n        /* \"#utility.yul\":1187:1207   */\n      calldataload\n        /* \"#utility.yul\":1178:1207   */\n      swap1\n      pop\n        /* \"#utility.yul\":1216:1249   */\n      tag_340\n        /* \"#utility.yul\":1243:1248   */\n      dup2\n        /* \"#utility.yul\":1216:1249   */\n      tag_341\n      jump\t// in\n    tag_340:\n        /* \"#utility.yul\":1168:1255   */\n      swap3\n      swap2\n      pop\n      pop\n      jump\t// out\n        /* \"#utility.yul\":1261:1523   */\n    tag_77:\n        /* \"#utility.yul\":1320:1326   */\n      0x00\n        /* \"#utility.yul\":1369:1371   */\n      0x20\n        /* \"#utility.yul\":1357:1366   */\n      dup3\n        /* \"#utility.yul\":1348:1355   */\n      dup5\n        /* \"#utility.yul\":1344:1367   */\n      sub\n        /* \"#utility.yul\":1340:1372   */\n      slt\n        /* \"#utility.yul\":1337:1339   */\n      iszero\n      tag_343\n      jumpi\n        /* \"#utility.yul\":1385:1386   */\n      0x00\n        /* \"#utility.yul\":1382:1383   */\n      dup1\n        /* \"#utility.yul\":1375:1387   */\n      revert\n        /* \"#utility.yul\":1337:1339   */\n    tag_343:\n        /* \"#utility.yul\":1428:1429   */\n      0x00\n        /* \"#utility.yul\":1453:1506   */\n      tag_344\n        /* \"#utility.yul\":1498:1505   */\n      dup5\n        /* \"#utility.yul\":1489:1495   */\n      dup3\n        /* \"#utility.yul\":1478:1487   */\n      dup6\n        /* \"#utility.yul\":1474:1496   */\n      add\n        /* \"#utility.yul\":1453:1506   */\n      tag_322\n      jump\t// in\n    tag_344:\n        /* \"#utility.yul\":1443:1506   */\n      swap2\n      pop\n        /* \"#utility.yul\":1399:1516   */\n      pop\n        /* \"#utility.yul\":1327:1523   */\n      swap3\n      swap2\n      pop\n      pop\n      jump\t// out\n        /* \"#utility.yul\":1529:2081   */\n    tag_121:\n        /* \"#utility.yul\":1606:1612   */\n      0x00\n        /* \"#utility.yul\":1614:1620   */\n      dup1\n        /* \"#utility.yul\":1622:1628   */\n      0x00\n        /* \"#utility.yul\":1671:1673   */\n      0x60\n        /* \"#utility.yul\":1659:1668   */\n      dup5\n        /* \"#utility.yul\":1650:1657   */\n      dup7\n        /* \"#utility.yul\":1646:1669   */\n      sub\n        /* \"#utility.yul\":1642:1674   */\n      slt\n        /* \"#utility.yul\":1639:1641   */\n      iszero\n      tag_346\n      jumpi\n        /* \"#utility.yul\":1687:1688   */\n      0x00\n        /* \"#utility.yul\":1684:1685   */\n      dup1\n        /* \"#utility.yul\":1677:1689   */\n      revert\n        /* \"#utility.yul\":1639:1641   */\n    tag_346:\n        /* \"#utility.yul\":1730:1731   */\n      0x00\n        /* \"#utility.yul\":1755:1808   */\n      tag_347\n        /* \"#utility.yul\":1800:1807   */\n      dup7\n        /* \"#utility.yul\":1791:1797   */\n      dup3\n        /* \"#utility.yul\":1780:1789   */\n      dup8\n        /* \"#utility.yul\":1776:1798   */\n      add\n        /* \"#utility.yul\":1755:1808   */\n      tag_322\n      jump\t// in\n    tag_347:\n        /* \"#utility.yul\":1745:1808   */\n      swap4\n      pop\n        /* \"#utility.yul\":1701:1818   */\n      pop\n        /* \"#utility.yul\":1857:1859   */\n      0x20\n        /* \"#utility.yul\":1883:1936   */\n      tag_348\n        /* \"#utility.yul\":1928:1935   */\n      dup7\n        /* \"#utility.yul\":1919:1925   */\n      dup3\n        /* \"#utility.yul\":1908:1917   */\n      dup8\n        /* \"#utility.yul\":1904:1926   */\n      add\n        /* \"#utility.yul\":1883:1936   */\n      tag_322\n      jump\t// in\n    tag_348:\n        /* \"#utility.yul\":1873:1936   */\n      swap3\n      pop\n        /* \"#utility.yul\":1828:1946   */\n      pop\n        /* \"#utility.yul\":1985:1987   */\n      0x40\n        /* \"#utility.yul\":2011:2064   */\n      tag_349\n        /* \"#utility.yul\":2056:2063   */\n      dup7\n        /* \"#utility.yul\":2047:2053   */\n      dup3\n        /* \"#utility.yul\":2036:2045   */\n      dup8\n        /* \"#utility.yul\":2032:2054   */\n      add\n        /* \"#utility.yul\":2011:2064   */\n      tag_326\n      jump\t// in\n    tag_349:\n        /* \"#utility.yul\":2001:2064   */\n      swap2\n      pop\n        /* \"#utility.yul\":1956:2074   */\n      pop\n        /* \"#utility.yul\":1629:2081   */\n      swap3\n      pop\n      swap3\n      pop\n      swap3\n      jump\t// out\n        /* \"#utility.yul\":2087:2669   */\n    tag_130:\n        /* \"#utility.yul\":2179:2185   */\n      0x00\n        /* \"#utility.yul\":2187:2193   */\n      dup1\n        /* \"#utility.yul\":2195:2201   */\n      0x00\n        /* \"#utility.yul\":2244:2246   */\n      0x60\n        /* \"#utility.yul\":2232:2241   */\n      dup5\n        /* \"#utility.yul\":2223:2230   */\n      dup7\n        /* \"#utility.yul\":2219:2242   */\n      sub\n        /* \"#utility.yul\":2215:2247   */\n      slt\n        /* \"#utility.yul\":2212:2214   */\n      iszero\n      tag_351\n      jumpi\n        /* \"#utility.yul\":2260:2261   */\n      0x00\n        /* \"#utility.yul\":2257:2258   */\n      dup1\n        /* \"#utility.yul\":2250:2262   */\n      revert\n        /* \"#utility.yul\":2212:2214   */\n    tag_351:\n        /* \"#utility.yul\":2303:2304   */\n      0x00\n        /* \"#utility.yul\":2328:2381   */\n      tag_352\n        /* \"#utility.yul\":2373:2380   */\n      dup7\n        /* \"#utility.yul\":2364:2370   */\n      dup3\n        /* \"#utility.yul\":2353:2362   */\n      dup8\n        /* \"#utility.yul\":2349:2371   */\n      add\n        /* \"#utility.yul\":2328:2381   */\n      tag_322\n      jump\t// in\n    tag_352:\n        /* \"#utility.yul\":2318:2381   */\n      swap4\n      pop\n        /* \"#utility.yul\":2274:2391   */\n      pop\n        /* \"#utility.yul\":2430:2432   */\n      0x20\n        /* \"#utility.yul\":2456:2524   */\n      tag_353\n        /* \"#utility.yul\":2516:2523   */\n      dup7\n        /* \"#utility.yul\":2507:2513   */\n      dup3\n        /* \"#utility.yul\":2496:2505   */\n      dup8\n        /* \"#utility.yul\":2492:2514   */\n      add\n        /* \"#utility.yul\":2456:2524   */\n      tag_330\n      jump\t// in\n    tag_353:\n        /* \"#utility.yul\":2446:2524   */\n      swap3\n      pop\n        /* \"#utility.yul\":2401:2534   */\n      pop\n        /* \"#utility.yul\":2573:2575   */\n      0x40\n        /* \"#utility.yul\":2599:2652   */\n      tag_354\n        /* \"#utility.yul\":2644:2651   */\n      dup7\n        /* \"#utility.yul\":2635:2641   */\n      dup3\n        /* \"#utility.yul\":2624:2633   */\n      dup8\n        /* \"#utility.yul\":2620:2642   */\n      add\n        /* \"#utility.yul\":2599:2652   */\n      tag_338\n      jump\t// in\n    tag_354:\n        /* \"#utility.yul\":2589:2652   */\n      swap2\n      pop\n        /* \"#utility.yul\":2544:2662   */\n      pop\n        /* \"#utility.yul\":2202:2669   */\n      swap3\n      pop\n      swap3\n      pop\n      swap3\n      jump\t// out\n        /* \"#utility.yul\":2675:3082   */\n    tag_53:\n        /* \"#utility.yul\":2743:2749   */\n      0x00\n        /* \"#utility.yul\":2751:2757   */\n      dup1\n        /* \"#utility.yul\":2800:2802   */\n      0x40\n        /* \"#utility.yul\":2788:2797   */\n      dup4\n        /* \"#utility.yul\":2779:2786   */\n      dup6\n        /* \"#utility.yul\":2775:2798   */\n      sub\n        /* \"#utility.yul\":2771:2803   */\n      slt\n        /* \"#utility.yul\":2768:2770   */\n      iszero\n      tag_356\n      jumpi\n        /* \"#utility.yul\":2816:2817   */\n      0x00\n        /* \"#utility.yul\":2813:2814   */\n      dup1\n        /* \"#utility.yul\":2806:2818   */\n      revert\n        /* \"#utility.yul\":2768:2770   */\n    tag_356:\n        /* \"#utility.yul\":2859:2860   */\n      0x00\n        /* \"#utility.yul\":2884:2937   */\n      tag_357\n        /* \"#utility.yul\":2929:2936   */\n      dup6\n        /* \"#utility.yul\":2920:2926   */\n      dup3\n        /* \"#utility.yul\":2909:2918   */\n      dup7\n        /* \"#utility.yul\":2905:2927   */\n      add\n        /* \"#utility.yul\":2884:2937   */\n      tag_322\n      jump\t// in\n    tag_357:\n        /* \"#utility.yul\":2874:2937   */\n      swap3\n      pop\n        /* \"#utility.yul\":2830:2947   */\n      pop\n        /* \"#utility.yul\":2986:2988   */\n      0x20\n        /* \"#utility.yul\":3012:3065   */\n      tag_358\n        /* \"#utility.yul\":3057:3064   */\n      dup6\n        /* \"#utility.yul\":3048:3054   */\n      dup3\n        /* \"#utility.yul\":3037:3046   */\n      dup7\n        /* \"#utility.yul\":3033:3055   */\n      add\n        /* \"#utility.yul\":3012:3065   */\n      tag_338\n      jump\t// in\n    tag_358:\n        /* \"#utility.yul\":3002:3065   */\n      swap2\n      pop\n        /* \"#utility.yul\":2957:3075   */\n      pop\n        /* \"#utility.yul\":2758:3082   */\n      swap3\n      pop\n      swap3\n      swap1\n      pop\n      jump\t// out\n        /* \"#utility.yul\":3088:3670   */\n    tag_64:\n        /* \"#utility.yul\":3180:3186   */\n      0x00\n        /* \"#utility.yul\":3188:3194   */\n      dup1\n        /* \"#utility.yul\":3196:3202   */\n      0x00\n        /* \"#utility.yul\":3245:3247   */\n      0x60\n        /* \"#utility.yul\":3233:3242   */\n      dup5\n        /* \"#utility.yul\":3224:3231   */\n      dup7\n        /* \"#utility.yul\":3220:3243   */\n      sub\n        /* \"#utility.yul\":3216:3248   */\n      slt\n        /* \"#utility.yul\":3213:3215   */\n      iszero\n      tag_360\n      jumpi\n        /* \"#utility.yul\":3261:3262   */\n      0x00\n        /* \"#utility.yul\":3258:3259   */\n      dup1\n        /* \"#utility.yul\":3251:3263   */\n      revert\n        /* \"#utility.yul\":3213:3215   */\n    tag_360:\n        /* \"#utility.yul\":3304:3305   */\n      0x00\n        /* \"#utility.yul\":3329:3382   */\n      tag_361\n        /* \"#utility.yul\":3374:3381   */\n      dup7\n        /* \"#utility.yul\":3365:3371   */\n      dup3\n        /* \"#utility.yul\":3354:3363   */\n      dup8\n        /* \"#utility.yul\":3350:3372   */\n      add\n        /* \"#utility.yul\":3329:3382   */\n      tag_322\n      jump\t// in\n    tag_361:\n        /* \"#utility.yul\":3319:3382   */\n      swap4\n      pop\n        /* \"#utility.yul\":3275:3392   */\n      pop\n        /* \"#utility.yul\":3431:3433   */\n      0x20\n        /* \"#utility.yul\":3457:3510   */\n      tag_362\n        /* \"#utility.yul\":3502:3509   */\n      dup7\n        /* \"#utility.yul\":3493:3499   */\n      dup3\n        /* \"#utility.yul\":3482:3491   */\n      dup8\n        /* \"#utility.yul\":3478:3500   */\n      add\n        /* \"#utility.yul\":3457:3510   */\n      tag_338\n      jump\t// in\n    tag_362:\n        /* \"#utility.yul\":3447:3510   */\n      swap3\n      pop\n        /* \"#utility.yul\":3402:3520   */\n      pop\n        /* \"#utility.yul\":3559:3561   */\n      0x40\n        /* \"#utility.yul\":3585:3653   */\n      tag_363\n        /* \"#utility.yul\":3645:3652   */\n      dup7\n        /* \"#utility.yul\":3636:3642   */\n      dup3\n        /* \"#utility.yul\":3625:3634   */\n      dup8\n        /* \"#utility.yul\":3621:3643   */\n      add\n        /* \"#utility.yul\":3585:3653   */\n      tag_330\n      jump\t// in\n    tag_363:\n        /* \"#utility.yul\":3575:3653   */\n      swap2\n      pop\n        /* \"#utility.yul\":3530:3663   */\n      pop\n        /* \"#utility.yul\":3203:3670   */\n      swap3\n      pop\n      swap3\n      pop\n      swap3\n      jump\t// out\n        /* \"#utility.yul\":3676:4520   */\n    tag_97:\n        /* \"#utility.yul\":3771:3777   */\n      0x00\n        /* \"#utility.yul\":3779:3785   */\n      dup1\n        /* \"#utility.yul\":3787:3793   */\n      0x00\n        /* \"#utility.yul\":3795:3801   */\n      dup1\n        /* \"#utility.yul\":3803:3809   */\n      0x00\n        /* \"#utility.yul\":3852:3855   */\n      0xa0\n        /* \"#utility.yul\":3840:3849   */\n      dup7\n        /* \"#utility.yul\":3831:3838   */\n      dup9\n        /* \"#utility.yul\":3827:3850   */\n      sub\n        /* \"#utility.yul\":3823:3856   */\n      slt\n        /* \"#utility.yul\":3820:3822   */\n      iszero\n      tag_365\n      jumpi\n        /* \"#utility.yul\":3869:3870   */\n      0x00\n        /* \"#utility.yul\":3866:3867   */\n      dup1\n        /* \"#utility.yul\":3859:3871   */\n      revert\n        /* \"#utility.yul\":3820:3822   */\n    tag_365:\n        /* \"#utility.yul\":3912:3913   */\n      0x00\n        /* \"#utility.yul\":3937:3990   */\n      tag_366\n        /* \"#utility.yul\":3982:3989   */\n      dup9\n        /* \"#utility.yul\":3973:3979   */\n      dup3\n        /* \"#utility.yul\":3962:3971   */\n      dup10\n        /* \"#utility.yul\":3958:3980   */\n      add\n        /* \"#utility.yul\":3937:3990   */\n      tag_322\n      jump\t// in\n    tag_366:\n        /* \"#utility.yul\":3927:3990   */\n      swap6\n      pop\n        /* \"#utility.yul\":3883:4000   */\n      pop\n        /* \"#utility.yul\":4039:4041   */\n      0x20\n        /* \"#utility.yul\":4065:4118   */\n      tag_367\n        /* \"#utility.yul\":4110:4117   */\n      dup9\n        /* \"#utility.yul\":4101:4107   */\n      dup3\n        /* \"#utility.yul\":4090:4099   */\n      dup10\n        /* \"#utility.yul\":4086:4108   */\n      add\n        /* \"#utility.yul\":4065:4118   */\n      tag_338\n      jump\t// in\n    tag_367:\n        /* \"#utility.yul\":4055:4118   */\n      swap5\n      pop\n        /* \"#utility.yul\":4010:4128   */\n      pop\n        /* \"#utility.yul\":4167:4169   */\n      0x40\n        /* \"#utility.yul\":4193:4246   */\n      tag_368\n        /* \"#utility.yul\":4238:4245   */\n      dup9\n        /* \"#utility.yul\":4229:4235   */\n      dup3\n        /* \"#utility.yul\":4218:4227   */\n      dup10\n        /* \"#utility.yul\":4214:4236   */\n      add\n        /* \"#utility.yul\":4193:4246   */\n      tag_338\n      jump\t// in\n    tag_368:\n        /* \"#utility.yul\":4183:4246   */\n      swap4\n      pop\n        /* \"#utility.yul\":4138:4256   */\n      pop\n        /* \"#utility.yul\":4295:4297   */\n      0x60\n        /* \"#utility.yul\":4321:4374   */\n      tag_369\n        /* \"#utility.yul\":4366:4373   */\n      dup9\n        /* \"#utility.yul\":4357:4363   */\n      dup3\n        /* \"#utility.yul\":4346:4355   */\n      dup10\n        /* \"#utility.yul\":4342:4364   */\n      add\n        /* \"#utility.yul\":4321:4374   */\n      tag_338\n      jump\t// in\n    tag_369:\n        /* \"#utility.yul\":4311:4374   */\n      swap3\n      pop\n        /* \"#utility.yul\":4266:4384   */\n      pop\n        /* \"#utility.yul\":4423:4426   */\n      0x80\n        /* \"#utility.yul\":4450:4503   */\n      tag_370\n        /* \"#utility.yul\":4495:4502   */\n      dup9\n        /* \"#utility.yul\":4486:4492   */\n      dup3\n        /* \"#utility.yul\":4475:4484   */\n      dup10\n        /* \"#utility.yul\":4471:4493   */\n      add\n        /* \"#utility.yul\":4450:4503   */\n      tag_338\n      jump\t// in\n    tag_370:\n        /* \"#utility.yul\":4440:4503   */\n      swap2\n      pop\n        /* \"#utility.yul\":4394:4513   */\n      pop\n        /* \"#utility.yul\":3810:4520   */\n      swap3\n      swap6\n      pop\n      swap3\n      swap6\n      swap1\n      swap4\n      pop\n      jump\t// out\n        /* \"#utility.yul\":4526:4788   */\n    tag_44:\n        /* \"#utility.yul\":4585:4591   */\n      0x00\n        /* \"#utility.yul\":4634:4636   */\n      0x20\n        /* \"#utility.yul\":4622:4631   */\n      dup3\n        /* \"#utility.yul\":4613:4620   */\n      dup5\n        /* \"#utility.yul\":4609:4632   */\n      sub\n        /* \"#utility.yul\":4605:4637   */\n      slt\n        /* \"#utility.yul\":4602:4604   */\n      iszero\n      tag_372\n      jumpi\n        /* \"#utility.yul\":4650:4651   */\n      0x00\n        /* \"#utility.yul\":4647:4648   */\n      dup1\n        /* \"#utility.yul\":4640:4652   */\n      revert\n        /* \"#utility.yul\":4602:4604   */\n    tag_372:\n        /* \"#utility.yul\":4693:4694   */\n      0x00\n        /* \"#utility.yul\":4718:4771   */\n      tag_373\n        /* \"#utility.yul\":4763:4770   */\n      dup5\n        /* \"#utility.yul\":4754:4760   */\n      dup3\n        /* \"#utility.yul\":4743:4752   */\n      dup6\n        /* \"#utility.yul\":4739:4761   */\n      add\n        /* \"#utility.yul\":4718:4771   */\n      tag_326\n      jump\t// in\n    tag_373:\n        /* \"#utility.yul\":4708:4771   */\n      swap2\n      pop\n        /* \"#utility.yul\":4664:4781   */\n      pop\n        /* \"#utility.yul\":4592:4788   */\n      swap3\n      swap2\n      pop\n      pop\n      jump\t// out\n        /* \"#utility.yul\":4794:5086   */\n    tag_125:\n        /* \"#utility.yul\":4868:4874   */\n      0x00\n        /* \"#utility.yul\":4917:4919   */\n      0x20\n        /* \"#utility.yul\":4905:4914   */\n      dup3\n        /* \"#utility.yul\":4896:4903   */\n      dup5\n        /* \"#utility.yul\":4892:4915   */\n      sub\n        /* \"#utility.yul\":4888:4920   */\n      slt\n        /* \"#utility.yul\":4885:4887   */\n      iszero\n      tag_375\n      jumpi\n        /* \"#utility.yul\":4933:4934   */\n      0x00\n        /* \"#utility.yul\":4930:4931   */\n      dup1\n        /* \"#utility.yul\":4923:4935   */\n      revert\n        /* \"#utility.yul\":4885:4887   */\n    tag_375:\n        /* \"#utility.yul\":4976:4977   */\n      0x00\n        /* \"#utility.yul\":5001:5069   */\n      tag_376\n        /* \"#utility.yul\":5061:5068   */\n      dup5\n        /* \"#utility.yul\":5052:5058   */\n      dup3\n        /* \"#utility.yul\":5041:5050   */\n      dup6\n        /* \"#utility.yul\":5037:5059   */\n      add\n        /* \"#utility.yul\":5001:5069   */\n      tag_330\n      jump\t// in\n    tag_376:\n        /* \"#utility.yul\":4991:5069   */\n      swap2\n      pop\n        /* \"#utility.yul\":4947:5079   */\n      pop\n        /* \"#utility.yul\":4875:5086   */\n      swap3\n      swap2\n      pop\n      pop\n      jump\t// out\n        /* \"#utility.yul\":5092:5529   */\n    tag_108:\n        /* \"#utility.yul\":5175:5181   */\n      0x00\n        /* \"#utility.yul\":5183:5189   */\n      dup1\n        /* \"#utility.yul\":5232:5234   */\n      0x40\n        /* \"#utility.yul\":5220:5229   */\n      dup4\n        /* \"#utility.yul\":5211:5218   */\n      dup6\n        /* \"#utility.yul\":5207:5230   */\n      sub\n        /* \"#utility.yul\":5203:5235   */\n      slt\n        /* \"#utility.yul\":5200:5202   */\n      iszero\n      tag_378\n      jumpi\n        /* \"#utility.yul\":5248:5249   */\n      0x00\n        /* \"#utility.yul\":5245:5246   */\n      dup1\n        /* \"#utility.yul\":5238:5250   */\n      revert\n        /* \"#utility.yul\":5200:5202   */\n    tag_378:\n        /* \"#utility.yul\":5291:5292   */\n      0x00\n        /* \"#utility.yul\":5316:5384   */\n      tag_379\n        /* \"#utility.yul\":5376:5383   */\n      dup6\n        /* \"#utility.yul\":5367:5373   */\n      dup3\n        /* \"#utility.yul\":5356:5365   */\n      dup7\n        /* \"#utility.yul\":5352:5374   */\n      add\n        /* \"#utility.yul\":5316:5384   */\n      tag_330\n      jump\t// in\n    tag_379:\n        /* \"#utility.yul\":5306:5384   */\n      swap3\n      pop\n        /* \"#utility.yul\":5262:5394   */\n      pop\n        /* \"#utility.yul\":5433:5435   */\n      0x20\n        /* \"#utility.yul\":5459:5512   */\n      tag_380\n        /* \"#utility.yul\":5504:5511   */\n      dup6\n        /* \"#utility.yul\":5495:5501   */\n      dup3\n        /* \"#utility.yul\":5484:5493   */\n      dup7\n        /* \"#utility.yul\":5480:5502   */\n      add\n        /* \"#utility.yul\":5459:5512   */\n      tag_338\n      jump\t// in\n    tag_380:\n        /* \"#utility.yul\":5449:5512   */\n      swap2\n      pop\n        /* \"#utility.yul\":5404:5522   */\n      pop\n        /* \"#utility.yul\":5190:5529   */\n      swap3\n      pop\n      swap3\n      swap1\n      pop\n      jump\t// out\n        /* \"#utility.yul\":5535:5910   */\n    tag_36:\n        /* \"#utility.yul\":5604:5610   */\n      0x00\n        /* \"#utility.yul\":5653:5655   */\n      0x20\n        /* \"#utility.yul\":5641:5650   */\n      dup3\n        /* \"#utility.yul\":5632:5639   */\n      dup5\n        /* \"#utility.yul\":5628:5651   */\n      sub\n        /* \"#utility.yul\":5624:5656   */\n      slt\n        /* \"#utility.yul\":5621:5623   */\n      iszero\n      tag_382\n      jumpi\n        /* \"#utility.yul\":5669:5670   */\n      0x00\n        /* \"#utility.yul\":5666:5667   */\n      dup1\n        /* \"#utility.yul\":5659:5671   */\n      revert\n        /* \"#utility.yul\":5621:5623   */\n    tag_382:\n        /* \"#utility.yul\":5740:5741   */\n      0x00\n        /* \"#utility.yul\":5729:5738   */\n      dup3\n        /* \"#utility.yul\":5725:5742   */\n      add\n        /* \"#utility.yul\":5712:5743   */\n      calldataload\n        /* \"#utility.yul\":5770:5788   */\n      0xffffffffffffffff\n        /* \"#utility.yul\":5762:5768   */\n      dup2\n        /* \"#utility.yul\":5759:5789   */\n      gt\n        /* \"#utility.yul\":5756:5758   */\n      iszero\n      tag_383\n      jumpi\n        /* \"#utility.yul\":5802:5803   */\n      0x00\n        /* \"#utility.yul\":5799:5800   */\n      dup1\n        /* \"#utility.yul\":5792:5804   */\n      revert\n        /* \"#utility.yul\":5756:5758   */\n    tag_383:\n        /* \"#utility.yul\":5830:5893   */\n      tag_384\n        /* \"#utility.yul\":5885:5892   */\n      dup5\n        /* \"#utility.yul\":5876:5882   */\n      dup3\n        /* \"#utility.yul\":5865:5874   */\n      dup6\n        /* \"#utility.yul\":5861:5883   */\n      add\n        /* \"#utility.yul\":5830:5893   */\n      tag_334\n      jump\t// in\n    tag_384:\n        /* \"#utility.yul\":5820:5893   */\n      swap2\n      pop\n        /* \"#utility.yul\":5683:5903   */\n      pop\n        /* \"#utility.yul\":5611:5910   */\n      swap3\n      swap2\n      pop\n      pop\n      jump\t// out\n        /* \"#utility.yul\":5916:6840   */\n    tag_88:\n        /* \"#utility.yul\":6022:6028   */\n      0x00\n        /* \"#utility.yul\":6030:6036   */\n      dup1\n        /* \"#utility.yul\":6038:6044   */\n      0x00\n        /* \"#utility.yul\":6046:6052   */\n      dup1\n        /* \"#utility.yul\":6095:6098   */\n      0x80\n        /* \"#utility.yul\":6083:6092   */\n      dup6\n        /* \"#utility.yul\":6074:6081   */\n      dup8\n        /* \"#utility.yul\":6070:6093   */\n      sub\n        /* \"#utility.yul\":6066:6099   */\n      slt\n        /* \"#utility.yul\":6063:6065   */\n      iszero\n      tag_386\n      jumpi\n        /* \"#utility.yul\":6112:6113   */\n      0x00\n        /* \"#utility.yul\":6109:6110   */\n      dup1\n        /* \"#utility.yul\":6102:6114   */\n      revert\n        /* \"#utility.yul\":6063:6065   */\n    tag_386:\n        /* \"#utility.yul\":6183:6184   */\n      0x00\n        /* \"#utility.yul\":6172:6181   */\n      dup6\n        /* \"#utility.yul\":6168:6185   */\n      add\n        /* \"#utility.yul\":6155:6186   */\n      calldataload\n        /* \"#utility.yul\":6213:6231   */\n      0xffffffffffffffff\n        /* \"#utility.yul\":6205:6211   */\n      dup2\n        /* \"#utility.yul\":6202:6232   */\n      gt\n        /* \"#utility.yul\":6199:6201   */\n      iszero\n      tag_387\n      jumpi\n        /* \"#utility.yul\":6245:6246   */\n      0x00\n        /* \"#utility.yul\":6242:6243   */\n      dup1\n        /* \"#utility.yul\":6235:6247   */\n      revert\n        /* \"#utility.yul\":6199:6201   */\n    tag_387:\n        /* \"#utility.yul\":6273:6336   */\n      tag_388\n        /* \"#utility.yul\":6328:6335   */\n      dup8\n        /* \"#utility.yul\":6319:6325   */\n      dup3\n        /* \"#utility.yul\":6308:6317   */\n      dup9\n        /* \"#utility.yul\":6304:6326   */\n      add\n        /* \"#utility.yul\":6273:6336   */\n      tag_334\n      jump\t// in\n    tag_388:\n        /* \"#utility.yul\":6263:6336   */\n      swap5\n      pop\n        /* \"#utility.yul\":6126:6346   */\n      pop\n        /* \"#utility.yul\":6385:6387   */\n      0x20\n        /* \"#utility.yul\":6411:6464   */\n      tag_389\n        /* \"#utility.yul\":6456:6463   */\n      dup8\n        /* \"#utility.yul\":6447:6453   */\n      dup3\n        /* \"#utility.yul\":6436:6445   */\n      dup9\n        /* \"#utility.yul\":6432:6454   */\n      add\n        /* \"#utility.yul\":6411:6464   */\n      tag_322\n      jump\t// in\n    tag_389:\n        /* \"#utility.yul\":6401:6464   */\n      swap4\n      pop\n        /* \"#utility.yul\":6356:6474   */\n      pop\n        /* \"#utility.yul\":6513:6515   */\n      0x40\n        /* \"#utility.yul\":6539:6592   */\n      tag_390\n        /* \"#utility.yul\":6584:6591   */\n      dup8\n        /* \"#utility.yul\":6575:6581   */\n      dup3\n        /* \"#utility.yul\":6564:6573   */\n      dup9\n        /* \"#utility.yul\":6560:6582   */\n      add\n        /* \"#utility.yul\":6539:6592   */\n      tag_338\n      jump\t// in\n    tag_390:\n        /* \"#utility.yul\":6529:6592   */\n      swap3\n      pop\n        /* \"#utility.yul\":6484:6602   */\n      pop\n        /* \"#utility.yul\":6669:6671   */\n      0x60\n        /* \"#utility.yul\":6658:6667   */\n      dup6\n        /* \"#utility.yul\":6654:6672   */\n      add\n        /* \"#utility.yul\":6641:6673   */\n      calldataload\n        /* \"#utility.yul\":6700:6718   */\n      0xffffffffffffffff\n        /* \"#utility.yul\":6692:6698   */\n      dup2\n        /* \"#utility.yul\":6689:6719   */\n      gt\n        /* \"#utility.yul\":6686:6688   */\n      iszero\n      tag_391\n      jumpi\n        /* \"#utility.yul\":6732:6733   */\n      0x00\n        /* \"#utility.yul\":6729:6730   */\n      dup1\n        /* \"#utility.yul\":6722:6734   */\n      revert\n        /* \"#utility.yul\":6686:6688   */\n    tag_391:\n        /* \"#utility.yul\":6760:6823   */\n      tag_392\n        /* \"#utility.yul\":6815:6822   */\n      dup8\n        /* \"#utility.yul\":6806:6812   */\n      dup3\n        /* \"#utility.yul\":6795:6804   */\n      dup9\n        /* \"#utility.yul\":6791:6813   */\n      add\n        /* \"#utility.yul\":6760:6823   */\n      tag_334\n      jump\t// in\n    tag_392:\n        /* \"#utility.yul\":6750:6823   */\n      swap2\n      pop\n        /* \"#utility.yul\":6612:6833   */\n      pop\n        /* \"#utility.yul\":6053:6840   */\n      swap3\n      swap6\n      swap2\n      swap5\n      pop\n      swap3\n      pop\n      jump\t// out\n        /* \"#utility.yul\":6846:7025   */\n    tag_393:\n        /* \"#utility.yul\":6915:6925   */\n      0x00\n        /* \"#utility.yul\":6936:6982   */\n      tag_395\n        /* \"#utility.yul\":6978:6981   */\n      dup4\n        /* \"#utility.yul\":6970:6976   */\n      dup4\n        /* \"#utility.yul\":6936:6982   */\n      tag_396\n      jump\t// in\n    tag_395:\n        /* \"#utility.yul\":7014:7018   */\n      0x20\n        /* \"#utility.yul\":7009:7012   */\n      dup4\n        /* \"#utility.yul\":7005:7019   */\n      add\n        /* \"#utility.yul\":6991:7019   */\n      swap1\n      pop\n        /* \"#utility.yul\":6926:7025   */\n      swap3\n      swap2\n      pop\n      pop\n      jump\t// out\n        /* \"#utility.yul\":7031:7149   */\n    tag_397:\n        /* \"#utility.yul\":7118:7142   */\n      tag_399\n        /* \"#utility.yul\":7136:7141   */\n      dup2\n        /* \"#utility.yul\":7118:7142   */\n      tag_400\n      jump\t// in\n    tag_399:\n        /* \"#utility.yul\":7113:7116   */\n      dup3\n        /* \"#utility.yul\":7106:7143   */\n      mstore\n        /* \"#utility.yul\":7096:7149   */\n      pop\n      pop\n      jump\t// out\n        /* \"#utility.yul\":7155:7312   */\n    tag_401:\n        /* \"#utility.yul\":7260:7305   */\n      tag_403\n        /* \"#utility.yul\":7280:7304   */\n      tag_404\n        /* \"#utility.yul\":7298:7303   */\n      dup3\n        /* \"#utility.yul\":7280:7304   */\n      tag_400\n      jump\t// in\n    tag_404:\n        /* \"#utility.yul\":7260:7305   */\n      tag_405\n      jump\t// in\n    tag_403:\n        /* \"#utility.yul\":7255:7258   */\n      dup3\n        /* \"#utility.yul\":7248:7306   */\n      mstore\n        /* \"#utility.yul\":7238:7312   */\n      pop\n      pop\n      jump\t// out\n        /* \"#utility.yul\":7348:8080   */\n    tag_406:\n        /* \"#utility.yul\":7467:7470   */\n      0x00\n        /* \"#utility.yul\":7496:7550   */\n      tag_408\n        /* \"#utility.yul\":7544:7549   */\n      dup3\n        /* \"#utility.yul\":7496:7550   */\n      tag_409\n      jump\t// in\n    tag_408:\n        /* \"#utility.yul\":7566:7652   */\n      tag_410\n        /* \"#utility.yul\":7645:7651   */\n      dup2\n        /* \"#utility.yul\":7640:7643   */\n      dup6\n        /* \"#utility.yul\":7566:7652   */\n      tag_411\n      jump\t// in\n    tag_410:\n        /* \"#utility.yul\":7559:7652   */\n      swap4\n      pop\n        /* \"#utility.yul\":7676:7732   */\n      tag_412\n        /* \"#utility.yul\":7726:7731   */\n      dup4\n        /* \"#utility.yul\":7676:7732   */\n      tag_413\n      jump\t// in\n    tag_412:\n        /* \"#utility.yul\":7755:7762   */\n      dup1\n        /* \"#utility.yul\":7786:7787   */\n      0x00\n        /* \"#utility.yul\":7771:8055   */\n    tag_414:\n        /* \"#utility.yul\":7796:7802   */\n      dup4\n        /* \"#utility.yul\":7793:7794   */\n      dup2\n        /* \"#utility.yul\":7790:7803   */\n      lt\n        /* \"#utility.yul\":7771:8055   */\n      iszero\n      tag_416\n      jumpi\n        /* \"#utility.yul\":7872:7878   */\n      dup2\n        /* \"#utility.yul\":7866:7879   */\n      mload\n        /* \"#utility.yul\":7899:7962   */\n      tag_417\n        /* \"#utility.yul\":7958:7961   */\n      dup9\n        /* \"#utility.yul\":7943:7956   */\n      dup3\n        /* \"#utility.yul\":7899:7962   */\n      tag_393\n      jump\t// in\n    tag_417:\n        /* \"#utility.yul\":7892:7962   */\n      swap8\n      pop\n        /* \"#utility.yul\":7985:8045   */\n      tag_418\n        /* \"#utility.yul\":8038:8044   */\n      dup4\n        /* \"#utility.yul\":7985:8045   */\n      tag_419\n      jump\t// in\n    tag_418:\n        /* \"#utility.yul\":7975:8045   */\n      swap3\n      pop\n        /* \"#utility.yul\":7831:8055   */\n      pop\n        /* \"#utility.yul\":7818:7819   */\n      0x01\n        /* \"#utility.yul\":7815:7816   */\n      dup2\n        /* \"#utility.yul\":7811:7820   */\n      add\n        /* \"#utility.yul\":7806:7820   */\n      swap1\n      pop\n        /* \"#utility.yul\":7771:8055   */\n      jump(tag_414)\n    tag_416:\n        /* \"#utility.yul\":7775:7789   */\n      pop\n        /* \"#utility.yul\":8071:8074   */\n      dup6\n        /* \"#utility.yul\":8064:8074   */\n      swap4\n      pop\n        /* \"#utility.yul\":7472:8080   */\n      pop\n      pop\n      pop\n      swap3\n      swap2\n      pop\n      pop\n      jump\t// out\n        /* \"#utility.yul\":8086:8195   */\n    tag_420:\n        /* \"#utility.yul\":8167:8188   */\n      tag_422\n        /* \"#utility.yul\":8182:8187   */\n      dup2\n        /* \"#utility.yul\":8167:8188   */\n      tag_423\n      jump\t// in\n    tag_422:\n        /* \"#utility.yul\":8162:8165   */\n      dup3\n        /* \"#utility.yul\":8155:8189   */\n      mstore\n        /* \"#utility.yul\":8145:8195   */\n      pop\n      pop\n      jump\t// out\n        /* \"#utility.yul\":8201:8309   */\n    tag_396:\n        /* \"#utility.yul\":8278:8302   */\n      tag_425\n        /* \"#utility.yul\":8296:8301   */\n      dup2\n        /* \"#utility.yul\":8278:8302   */\n      tag_426\n      jump\t// in\n    tag_425:\n        /* \"#utility.yul\":8273:8276   */\n      dup3\n        /* \"#utility.yul\":8266:8303   */\n      mstore\n        /* \"#utility.yul\":8256:8309   */\n      pop\n      pop\n      jump\t// out\n        /* \"#utility.yul\":8315:8433   */\n    tag_427:\n        /* \"#utility.yul\":8402:8426   */\n      tag_429\n        /* \"#utility.yul\":8420:8425   */\n      dup2\n        /* \"#utility.yul\":8402:8426   */\n      tag_426\n      jump\t// in\n    tag_429:\n        /* \"#utility.yul\":8397:8400   */\n      dup3\n        /* \"#utility.yul\":8390:8427   */\n      mstore\n        /* \"#utility.yul\":8380:8433   */\n      pop\n      pop\n      jump\t// out\n        /* \"#utility.yul\":8439:8596   */\n    tag_430:\n        /* \"#utility.yul\":8539:8589   */\n      tag_432\n        /* \"#utility.yul\":8583:8588   */\n      dup2\n        /* \"#utility.yul\":8539:8589   */\n      tag_433\n      jump\t// in\n    tag_432:\n        /* \"#utility.yul\":8534:8537   */\n      dup3\n        /* \"#utility.yul\":8527:8590   */\n      mstore\n        /* \"#utility.yul\":8517:8596   */\n      pop\n      pop\n      jump\t// out\n        /* \"#utility.yul\":8602:8966   */\n    tag_434:\n        /* \"#utility.yul\":8690:8693   */\n      0x00\n        /* \"#utility.yul\":8718:8757   */\n      tag_436\n        /* \"#utility.yul\":8751:8756   */\n      dup3\n        /* \"#utility.yul\":8718:8757   */\n      tag_437\n      jump\t// in\n    tag_436:\n        /* \"#utility.yul\":8773:8844   */\n      tag_438\n        /* \"#utility.yul\":8837:8843   */\n      dup2\n        /* \"#utility.yul\":8832:8835   */\n      dup6\n        /* \"#utility.yul\":8773:8844   */\n      tag_439\n      jump\t// in\n    tag_438:\n        /* \"#utility.yul\":8766:8844   */\n      swap4\n      pop\n        /* \"#utility.yul\":8853:8905   */\n      tag_440\n        /* \"#utility.yul\":8898:8904   */\n      dup2\n        /* \"#utility.yul\":8893:8896   */\n      dup6\n        /* \"#utility.yul\":8886:8890   */\n      0x20\n        /* \"#utility.yul\":8879:8884   */\n      dup7\n        /* \"#utility.yul\":8875:8891   */\n      add\n        /* \"#utility.yul\":8853:8905   */\n      tag_441\n      jump\t// in\n    tag_440:\n        /* \"#utility.yul\":8930:8959   */\n      tag_442\n        /* \"#utility.yul\":8952:8958   */\n      dup2\n        /* \"#utility.yul\":8930:8959   */\n      tag_443\n      jump\t// in\n    tag_442:\n        /* \"#utility.yul\":8925:8928   */\n      dup5\n        /* \"#utility.yul\":8921:8960   */\n      add\n        /* \"#utility.yul\":8914:8960   */\n      swap2\n      pop\n        /* \"#utility.yul\":8694:8966   */\n      pop\n      swap3\n      swap2\n      pop\n      pop\n      jump\t// out\n        /* \"#utility.yul\":8972:9349   */\n    tag_444:\n        /* \"#utility.yul\":9078:9081   */\n      0x00\n        /* \"#utility.yul\":9106:9145   */\n      tag_446\n        /* \"#utility.yul\":9139:9144   */\n      dup3\n        /* \"#utility.yul\":9106:9145   */\n      tag_437\n      jump\t// in\n    tag_446:\n        /* \"#utility.yul\":9161:9250   */\n      tag_447\n        /* \"#utility.yul\":9243:9249   */\n      dup2\n        /* \"#utility.yul\":9238:9241   */\n      dup6\n        /* \"#utility.yul\":9161:9250   */\n      tag_448\n      jump\t// in\n    tag_447:\n        /* \"#utility.yul\":9154:9250   */\n      swap4\n      pop\n        /* \"#utility.yul\":9259:9311   */\n      tag_449\n        /* \"#utility.yul\":9304:9310   */\n      dup2\n        /* \"#utility.yul\":9299:9302   */\n      dup6\n        /* \"#utility.yul\":9292:9296   */\n      0x20\n        /* \"#utility.yul\":9285:9290   */\n      dup7\n        /* \"#utility.yul\":9281:9297   */\n      add\n        /* \"#utility.yul\":9259:9311   */\n      tag_441\n      jump\t// in\n    tag_449:\n        /* \"#utility.yul\":9336:9342   */\n      dup1\n        /* \"#utility.yul\":9331:9334   */\n      dup5\n        /* \"#utility.yul\":9327:9343   */\n      add\n        /* \"#utility.yul\":9320:9343   */\n      swap2\n      pop\n        /* \"#utility.yul\":9082:9349   */\n      pop\n      swap3\n      swap2\n      pop\n      pop\n      jump\t// out\n        /* \"#utility.yul\":9355:9473   */\n    tag_450:\n        /* \"#utility.yul\":9442:9466   */\n      tag_452\n        /* \"#utility.yul\":9460:9465   */\n      dup2\n        /* \"#utility.yul\":9442:9466   */\n      tag_453\n      jump\t// in\n    tag_452:\n        /* \"#utility.yul\":9437:9440   */\n      dup3\n        /* \"#utility.yul\":9430:9467   */\n      mstore\n        /* \"#utility.yul\":9420:9473   */\n      pop\n      pop\n      jump\t// out\n        /* \"#utility.yul\":9479:9636   */\n    tag_454:\n        /* \"#utility.yul\":9584:9629   */\n      tag_456\n        /* \"#utility.yul\":9604:9628   */\n      tag_457\n        /* \"#utility.yul\":9622:9627   */\n      dup3\n        /* \"#utility.yul\":9604:9628   */\n      tag_453\n      jump\t// in\n    tag_457:\n        /* \"#utility.yul\":9584:9629   */\n      tag_458\n      jump\t// in\n    tag_456:\n        /* \"#utility.yul\":9579:9582   */\n      dup3\n        /* \"#utility.yul\":9572:9630   */\n      mstore\n        /* \"#utility.yul\":9562:9636   */\n      pop\n      pop\n      jump\t// out\n        /* \"#utility.yul\":9642:10039   */\n    tag_297:\n        /* \"#utility.yul\":9782:9785   */\n      0x00\n        /* \"#utility.yul\":9797:9872   */\n      tag_460\n        /* \"#utility.yul\":9868:9871   */\n      dup3\n        /* \"#utility.yul\":9859:9865   */\n      dup6\n        /* \"#utility.yul\":9797:9872   */\n      tag_401\n      jump\t// in\n    tag_460:\n        /* \"#utility.yul\":9897:9899   */\n      0x14\n        /* \"#utility.yul\":9892:9895   */\n      dup3\n        /* \"#utility.yul\":9888:9900   */\n      add\n        /* \"#utility.yul\":9881:9900   */\n      swap2\n      pop\n        /* \"#utility.yul\":9910:9985   */\n      tag_461\n        /* \"#utility.yul\":9981:9984   */\n      dup3\n        /* \"#utility.yul\":9972:9978   */\n      dup5\n        /* \"#utility.yul\":9910:9985   */\n      tag_454\n      jump\t// in\n    tag_461:\n        /* \"#utility.yul\":10010:10012   */\n      0x20\n        /* \"#utility.yul\":10005:10008   */\n      dup3\n        /* \"#utility.yul\":10001:10013   */\n      add\n        /* \"#utility.yul\":9994:10013   */\n      swap2\n      pop\n        /* \"#utility.yul\":10030:10033   */\n      dup2\n        /* \"#utility.yul\":10023:10033   */\n      swap1\n      pop\n        /* \"#utility.yul\":9786:10039   */\n      swap4\n      swap3\n      pop\n      pop\n      pop\n      jump\t// out\n        /* \"#utility.yul\":10045:10320   */\n    tag_159:\n        /* \"#utility.yul\":10177:10180   */\n      0x00\n        /* \"#utility.yul\":10199:10294   */\n      tag_463\n        /* \"#utility.yul\":10290:10293   */\n      dup3\n        /* \"#utility.yul\":10281:10287   */\n      dup5\n        /* \"#utility.yul\":10199:10294   */\n      tag_444\n      jump\t// in\n    tag_463:\n        /* \"#utility.yul\":10192:10294   */\n      swap2\n      pop\n        /* \"#utility.yul\":10311:10314   */\n      dup2\n        /* \"#utility.yul\":10304:10314   */\n      swap1\n      pop\n        /* \"#utility.yul\":10181:10320   */\n      swap3\n      swap2\n      pop\n      pop\n      jump\t// out\n        /* \"#utility.yul\":10326:10548   */\n    tag_85:\n        /* \"#utility.yul\":10419:10423   */\n      0x00\n        /* \"#utility.yul\":10457:10459   */\n      0x20\n        /* \"#utility.yul\":10446:10455   */\n      dup3\n        /* \"#utility.yul\":10442:10460   */\n      add\n        /* \"#utility.yul\":10434:10460   */\n      swap1\n      pop\n        /* \"#utility.yul\":10470:10541   */\n      tag_465\n        /* \"#utility.yul\":10538:10539   */\n      0x00\n        /* \"#utility.yul\":10527:10536   */\n      dup4\n        /* \"#utility.yul\":10523:10540   */\n      add\n        /* \"#utility.yul\":10514:10520   */\n      dup5\n        /* \"#utility.yul\":10470:10541   */\n      tag_397\n      jump\t// in\n    tag_465:\n        /* \"#utility.yul\":10424:10548   */\n      swap3\n      swap2\n      pop\n      pop\n      jump\t// out\n        /* \"#utility.yul\":10554:10927   */\n    tag_80:\n        /* \"#utility.yul\":10697:10701   */\n      0x00\n        /* \"#utility.yul\":10735:10737   */\n      0x20\n        /* \"#utility.yul\":10724:10733   */\n      dup3\n        /* \"#utility.yul\":10720:10738   */\n      add\n        /* \"#utility.yul\":10712:10738   */\n      swap1\n      pop\n        /* \"#utility.yul\":10784:10793   */\n      dup2\n        /* \"#utility.yul\":10778:10782   */\n      dup2\n        /* \"#utility.yul\":10774:10794   */\n      sub\n        /* \"#utility.yul\":10770:10771   */\n      0x00\n        /* \"#utility.yul\":10759:10768   */\n      dup4\n        /* \"#utility.yul\":10755:10772   */\n      add\n        /* \"#utility.yul\":10748:10795   */\n      mstore\n        /* \"#utility.yul\":10812:10920   */\n      tag_467\n        /* \"#utility.yul\":10915:10919   */\n      dup2\n        /* \"#utility.yul\":10906:10912   */\n      dup5\n        /* \"#utility.yul\":10812:10920   */\n      tag_406\n      jump\t// in\n    tag_467:\n        /* \"#utility.yul\":10804:10920   */\n      swap1\n      pop\n        /* \"#utility.yul\":10702:10927   */\n      swap3\n      swap2\n      pop\n      pop\n      jump\t// out\n        /* \"#utility.yul\":10933:11143   */\n    tag_41:\n        /* \"#utility.yul\":11020:11024   */\n      0x00\n        /* \"#utility.yul\":11058:11060   */\n      0x20\n        /* \"#utility.yul\":11047:11056   */\n      dup3\n        /* \"#utility.yul\":11043:11061   */\n      add\n        /* \"#utility.yul\":11035:11061   */\n      swap1\n      pop\n        /* \"#utility.yul\":11071:11136   */\n      tag_469\n        /* \"#utility.yul\":11133:11134   */\n      0x00\n        /* \"#utility.yul\":11122:11131   */\n      dup4\n        /* \"#utility.yul\":11118:11135   */\n      add\n        /* \"#utility.yul\":11109:11115   */\n      dup5\n        /* \"#utility.yul\":11071:11136   */\n      tag_420\n      jump\t// in\n    tag_469:\n        /* \"#utility.yul\":11025:11143   */\n      swap3\n      swap2\n      pop\n      pop\n      jump\t// out\n        /* \"#utility.yul\":11149:11371   */\n    tag_61:\n        /* \"#utility.yul\":11242:11246   */\n      0x00\n        /* \"#utility.yul\":11280:11282   */\n      0x20\n        /* \"#utility.yul\":11269:11278   */\n      dup3\n        /* \"#utility.yul\":11265:11283   */\n      add\n        /* \"#utility.yul\":11257:11283   */\n      swap1\n      pop\n        /* \"#utility.yul\":11293:11364   */\n      tag_471\n        /* \"#utility.yul\":11361:11362   */\n      0x00\n        /* \"#utility.yul\":11350:11359   */\n      dup4\n        /* \"#utility.yul\":11346:11363   */\n      add\n        /* \"#utility.yul\":11337:11343   */\n      dup5\n        /* \"#utility.yul\":11293:11364   */\n      tag_427\n      jump\t// in\n    tag_471:\n        /* \"#utility.yul\":11247:11371   */\n      swap3\n      swap2\n      pop\n      pop\n      jump\t// out\n        /* \"#utility.yul\":11377:12334   */\n    tag_56:\n        /* \"#utility.yul\":11650:11654   */\n      0x00\n        /* \"#utility.yul\":11688:11691   */\n      0xc0\n        /* \"#utility.yul\":11677:11686   */\n      dup3\n        /* \"#utility.yul\":11673:11692   */\n      add\n        /* \"#utility.yul\":11665:11692   */\n      swap1\n      pop\n        /* \"#utility.yul\":11702:11773   */\n      tag_473\n        /* \"#utility.yul\":11770:11771   */\n      0x00\n        /* \"#utility.yul\":11759:11768   */\n      dup4\n        /* \"#utility.yul\":11755:11772   */\n      add\n        /* \"#utility.yul\":11746:11752   */\n      dup10\n        /* \"#utility.yul\":11702:11773   */\n      tag_427\n      jump\t// in\n    tag_473:\n        /* \"#utility.yul\":11783:11855   */\n      tag_474\n        /* \"#utility.yul\":11851:11853   */\n      0x20\n        /* \"#utility.yul\":11840:11849   */\n      dup4\n        /* \"#utility.yul\":11836:11854   */\n      add\n        /* \"#utility.yul\":11827:11833   */\n      dup9\n        /* \"#utility.yul\":11783:11855   */\n      tag_397\n      jump\t// in\n    tag_474:\n        /* \"#utility.yul\":11865:11937   */\n      tag_475\n        /* \"#utility.yul\":11933:11935   */\n      0x40\n        /* \"#utility.yul\":11922:11931   */\n      dup4\n        /* \"#utility.yul\":11918:11936   */\n      add\n        /* \"#utility.yul\":11909:11915   */\n      dup8\n        /* \"#utility.yul\":11865:11937   */\n      tag_450\n      jump\t// in\n    tag_475:\n        /* \"#utility.yul\":11984:11993   */\n      dup2\n        /* \"#utility.yul\":11978:11982   */\n      dup2\n        /* \"#utility.yul\":11974:11994   */\n      sub\n        /* \"#utility.yul\":11969:11971   */\n      0x60\n        /* \"#utility.yul\":11958:11967   */\n      dup4\n        /* \"#utility.yul\":11954:11972   */\n      add\n        /* \"#utility.yul\":11947:11995   */\n      mstore\n        /* \"#utility.yul\":12012:12090   */\n      tag_476\n        /* \"#utility.yul\":12085:12089   */\n      dup2\n        /* \"#utility.yul\":12076:12082   */\n      dup7\n        /* \"#utility.yul\":12012:12090   */\n      tag_434\n      jump\t// in\n    tag_476:\n        /* \"#utility.yul\":12004:12090   */\n      swap1\n      pop\n        /* \"#utility.yul\":12100:12173   */\n      tag_477\n        /* \"#utility.yul\":12168:12171   */\n      0x80\n        /* \"#utility.yul\":12157:12166   */\n      dup4\n        /* \"#utility.yul\":12153:12172   */\n      add\n        /* \"#utility.yul\":12144:12150   */\n      dup6\n        /* \"#utility.yul\":12100:12173   */\n      tag_397\n      jump\t// in\n    tag_477:\n        /* \"#utility.yul\":12221:12230   */\n      dup2\n        /* \"#utility.yul\":12215:12219   */\n      dup2\n        /* \"#utility.yul\":12211:12231   */\n      sub\n        /* \"#utility.yul\":12205:12208   */\n      0xa0\n        /* \"#utility.yul\":12194:12203   */\n      dup4\n        /* \"#utility.yul\":12190:12209   */\n      add\n        /* \"#utility.yul\":12183:12232   */\n      mstore\n        /* \"#utility.yul\":12249:12327   */\n      tag_478\n        /* \"#utility.yul\":12322:12326   */\n      dup2\n        /* \"#utility.yul\":12313:12319   */\n      dup5\n        /* \"#utility.yul\":12249:12327   */\n      tag_434\n      jump\t// in\n    tag_478:\n        /* \"#utility.yul\":12241:12327   */\n      swap1\n      pop\n        /* \"#utility.yul\":11655:12334   */\n      swap8\n      swap7\n      pop\n      pop\n      pop\n      pop\n      pop\n      pop\n      pop\n      jump\t// out\n        /* \"#utility.yul\":12340:12653   */\n    tag_118:\n        /* \"#utility.yul\":12453:12457   */\n      0x00\n        /* \"#utility.yul\":12491:12493   */\n      0x20\n        /* \"#utility.yul\":12480:12489   */\n      dup3\n        /* \"#utility.yul\":12476:12494   */\n      add\n        /* \"#utility.yul\":12468:12494   */\n      swap1\n      pop\n        /* \"#utility.yul\":12540:12549   */\n      dup2\n        /* \"#utility.yul\":12534:12538   */\n      dup2\n        /* \"#utility.yul\":12530:12550   */\n      sub\n        /* \"#utility.yul\":12526:12527   */\n      0x00\n        /* \"#utility.yul\":12515:12524   */\n      dup4\n        /* \"#utility.yul\":12511:12528   */\n      add\n        /* \"#utility.yul\":12504:12551   */\n      mstore\n        /* \"#utility.yul\":12568:12646   */\n      tag_480\n        /* \"#utility.yul\":12641:12645   */\n      dup2\n        /* \"#utility.yul\":12632:12638   */\n      dup5\n        /* \"#utility.yul\":12568:12646   */\n      tag_434\n      jump\t// in\n    tag_480:\n        /* \"#utility.yul\":12560:12646   */\n      swap1\n      pop\n        /* \"#utility.yul\":12458:12653   */\n      swap3\n      swap2\n      pop\n      pop\n      jump\t// out\n        /* \"#utility.yul\":12659:13505   */\n    tag_72:\n        /* \"#utility.yul\":12904:12908   */\n      0x00\n        /* \"#utility.yul\":12942:12945   */\n      0xa0\n        /* \"#utility.yul\":12931:12940   */\n      dup3\n        /* \"#utility.yul\":12927:12946   */\n      add\n        /* \"#utility.yul\":12919:12946   */\n      swap1\n      pop\n        /* \"#utility.yul\":12992:13001   */\n      dup2\n        /* \"#utility.yul\":12986:12990   */\n      dup2\n        /* \"#utility.yul\":12982:13002   */\n      sub\n        /* \"#utility.yul\":12978:12979   */\n      0x00\n        /* \"#utility.yul\":12967:12976   */\n      dup4\n        /* \"#utility.yul\":12963:12980   */\n      add\n        /* \"#utility.yul\":12956:13003   */\n      mstore\n        /* \"#utility.yul\":13020:13098   */\n      tag_482\n        /* \"#utility.yul\":13093:13097   */\n      dup2\n        /* \"#utility.yul\":13084:13090   */\n      dup9\n        /* \"#utility.yul\":13020:13098   */\n      tag_434\n      jump\t// in\n    tag_482:\n        /* \"#utility.yul\":13012:13098   */\n      swap1\n      pop\n        /* \"#utility.yul\":13108:13180   */\n      tag_483\n        /* \"#utility.yul\":13176:13178   */\n      0x20\n        /* \"#utility.yul\":13165:13174   */\n      dup4\n        /* \"#utility.yul\":13161:13179   */\n      add\n        /* \"#utility.yul\":13152:13158   */\n      dup8\n        /* \"#utility.yul\":13108:13180   */\n      tag_397\n      jump\t// in\n    tag_483:\n        /* \"#utility.yul\":13190:13262   */\n      tag_484\n        /* \"#utility.yul\":13258:13260   */\n      0x40\n        /* \"#utility.yul\":13247:13256   */\n      dup4\n        /* \"#utility.yul\":13243:13261   */\n      add\n        /* \"#utility.yul\":13234:13240   */\n      dup7\n        /* \"#utility.yul\":13190:13262   */\n      tag_450\n      jump\t// in\n    tag_484:\n        /* \"#utility.yul\":13272:13344   */\n      tag_485\n        /* \"#utility.yul\":13340:13342   */\n      0x60\n        /* \"#utility.yul\":13329:13338   */\n      dup4\n        /* \"#utility.yul\":13325:13343   */\n      add\n        /* \"#utility.yul\":13316:13322   */\n      dup6\n        /* \"#utility.yul\":13272:13344   */\n      tag_397\n      jump\t// in\n    tag_485:\n        /* \"#utility.yul\":13392:13401   */\n      dup2\n        /* \"#utility.yul\":13386:13390   */\n      dup2\n        /* \"#utility.yul\":13382:13402   */\n      sub\n        /* \"#utility.yul\":13376:13379   */\n      0x80\n        /* \"#utility.yul\":13365:13374   */\n      dup4\n        /* \"#utility.yul\":13361:13380   */\n      add\n        /* \"#utility.yul\":13354:13403   */\n      mstore\n        /* \"#utility.yul\":13420:13498   */\n      tag_486\n        /* \"#utility.yul\":13493:13497   */\n      dup2\n        /* \"#utility.yul\":13484:13490   */\n      dup5\n        /* \"#utility.yul\":13420:13498   */\n      tag_434\n      jump\t// in\n    tag_486:\n        /* \"#utility.yul\":13412:13498   */\n      swap1\n      pop\n        /* \"#utility.yul\":12909:13505   */\n      swap7\n      swap6\n      pop\n      pop\n      pop\n      pop\n      pop\n      pop\n      jump\t// out\n        /* \"#utility.yul\":13511:14494   */\n    tag_47:\n        /* \"#utility.yul\":13797:13801   */\n      0x00\n        /* \"#utility.yul\":13835:13838   */\n      0xc0\n        /* \"#utility.yul\":13824:13833   */\n      dup3\n        /* \"#utility.yul\":13820:13839   */\n      add\n        /* \"#utility.yul\":13812:13839   */\n      swap1\n      pop\n        /* \"#utility.yul\":13885:13894   */\n      dup2\n        /* \"#utility.yul\":13879:13883   */\n      dup2\n        /* \"#utility.yul\":13875:13895   */\n      sub\n        /* \"#utility.yul\":13871:13872   */\n      0x00\n        /* \"#utility.yul\":13860:13869   */\n      dup4\n        /* \"#utility.yul\":13856:13873   */\n      add\n        /* \"#utility.yul\":13849:13896   */\n      mstore\n        /* \"#utility.yul\":13913:13991   */\n      tag_488\n        /* \"#utility.yul\":13986:13990   */\n      dup2\n        /* \"#utility.yul\":13977:13983   */\n      dup10\n        /* \"#utility.yul\":13913:13991   */\n      tag_434\n      jump\t// in\n    tag_488:\n        /* \"#utility.yul\":13905:13991   */\n      swap1\n      pop\n        /* \"#utility.yul\":14001:14073   */\n      tag_489\n        /* \"#utility.yul\":14069:14071   */\n      0x20\n        /* \"#utility.yul\":14058:14067   */\n      dup4\n        /* \"#utility.yul\":14054:14072   */\n      add\n        /* \"#utility.yul\":14045:14051   */\n      dup9\n        /* \"#utility.yul\":14001:14073   */\n      tag_397\n      jump\t// in\n    tag_489:\n        /* \"#utility.yul\":14083:14155   */\n      tag_490\n        /* \"#utility.yul\":14151:14153   */\n      0x40\n        /* \"#utility.yul\":14140:14149   */\n      dup4\n        /* \"#utility.yul\":14136:14154   */\n      add\n        /* \"#utility.yul\":14127:14133   */\n      dup8\n        /* \"#utility.yul\":14083:14155   */\n      tag_450\n      jump\t// in\n    tag_490:\n        /* \"#utility.yul\":14165:14237   */\n      tag_491\n        /* \"#utility.yul\":14233:14235   */\n      0x60\n        /* \"#utility.yul\":14222:14231   */\n      dup4\n        /* \"#utility.yul\":14218:14236   */\n      add\n        /* \"#utility.yul\":14209:14215   */\n      dup7\n        /* \"#utility.yul\":14165:14237   */\n      tag_397\n      jump\t// in\n    tag_491:\n        /* \"#utility.yul\":14285:14294   */\n      dup2\n        /* \"#utility.yul\":14279:14283   */\n      dup2\n        /* \"#utility.yul\":14275:14295   */\n      sub\n        /* \"#utility.yul\":14269:14272   */\n      0x80\n        /* \"#utility.yul\":14258:14267   */\n      dup4\n        /* \"#utility.yul\":14254:14273   */\n      add\n        /* \"#utility.yul\":14247:14296   */\n      mstore\n        /* \"#utility.yul\":14313:14391   */\n      tag_492\n        /* \"#utility.yul\":14386:14390   */\n      dup2\n        /* \"#utility.yul\":14377:14383   */\n      dup6\n        /* \"#utility.yul\":14313:14391   */\n      tag_434\n      jump\t// in\n    tag_492:\n        /* \"#utility.yul\":14305:14391   */\n      swap1\n      pop\n        /* \"#utility.yul\":14401:14487   */\n      tag_493\n        /* \"#utility.yul\":14482:14485   */\n      0xa0\n        /* \"#utility.yul\":14471:14480   */\n      dup4\n        /* \"#utility.yul\":14467:14486   */\n      add\n        /* \"#utility.yul\":14458:14464   */\n      dup5\n        /* \"#utility.yul\":14401:14487   */\n      tag_430\n      jump\t// in\n    tag_493:\n        /* \"#utility.yul\":13802:14494   */\n      swap8\n      swap7\n      pop\n      pop\n      pop\n      pop\n      pop\n      pop\n      pop\n      jump\t// out\n        /* \"#utility.yul\":14500:16023   */\n    tag_114:\n        /* \"#utility.yul\":14901:14905   */\n      0x00\n        /* \"#utility.yul\":14939:14942   */\n      0xe0\n        /* \"#utility.yul\":14928:14937   */\n      dup3\n        /* \"#utility.yul\":14924:14943   */\n      add\n        /* \"#utility.yul\":14916:14943   */\n      swap1\n      pop\n        /* \"#utility.yul\":14989:14998   */\n      dup2\n        /* \"#utility.yul\":14983:14987   */\n      dup2\n        /* \"#utility.yul\":14979:14999   */\n      sub\n        /* \"#utility.yul\":14975:14976   */\n      0x00\n        /* \"#utility.yul\":14964:14973   */\n      dup4\n        /* \"#utility.yul\":14960:14977   */\n      add\n        /* \"#utility.yul\":14953:15000   */\n      mstore\n        /* \"#utility.yul\":15017:15095   */\n      tag_495\n        /* \"#utility.yul\":15090:15094   */\n      dup2\n        /* \"#utility.yul\":15081:15087   */\n      dup11\n        /* \"#utility.yul\":15017:15095   */\n      tag_434\n      jump\t// in\n    tag_495:\n        /* \"#utility.yul\":15009:15095   */\n      swap1\n      pop\n        /* \"#utility.yul\":15142:15151   */\n      dup2\n        /* \"#utility.yul\":15136:15140   */\n      dup2\n        /* \"#utility.yul\":15132:15152   */\n      sub\n        /* \"#utility.yul\":15127:15129   */\n      0x20\n        /* \"#utility.yul\":15116:15125   */\n      dup4\n        /* \"#utility.yul\":15112:15130   */\n      add\n        /* \"#utility.yul\":15105:15153   */\n      mstore\n        /* \"#utility.yul\":15170:15248   */\n      tag_496\n        /* \"#utility.yul\":15243:15247   */\n      dup2\n        /* \"#utility.yul\":15234:15240   */\n      dup10\n        /* \"#utility.yul\":15170:15248   */\n      tag_434\n      jump\t// in\n    tag_496:\n        /* \"#utility.yul\":15162:15248   */\n      swap1\n      pop\n        /* \"#utility.yul\":15295:15304   */\n      dup2\n        /* \"#utility.yul\":15289:15293   */\n      dup2\n        /* \"#utility.yul\":15285:15305   */\n      sub\n        /* \"#utility.yul\":15280:15282   */\n      0x40\n        /* \"#utility.yul\":15269:15278   */\n      dup4\n        /* \"#utility.yul\":15265:15283   */\n      add\n        /* \"#utility.yul\":15258:15306   */\n      mstore\n        /* \"#utility.yul\":15323:15401   */\n      tag_497\n        /* \"#utility.yul\":15396:15400   */\n      dup2\n        /* \"#utility.yul\":15387:15393   */\n      dup9\n        /* \"#utility.yul\":15323:15401   */\n      tag_434\n      jump\t// in\n    tag_497:\n        /* \"#utility.yul\":15315:15401   */\n      swap1\n      pop\n        /* \"#utility.yul\":15448:15457   */\n      dup2\n        /* \"#utility.yul\":15442:15446   */\n      dup2\n        /* \"#utility.yul\":15438:15458   */\n      sub\n        /* \"#utility.yul\":15433:15435   */\n      0x60\n        /* \"#utility.yul\":15422:15431   */\n      dup4\n        /* \"#utility.yul\":15418:15436   */\n      add\n        /* \"#utility.yul\":15411:15459   */\n      mstore\n        /* \"#utility.yul\":15476:15554   */\n      tag_498\n        /* \"#utility.yul\":15549:15553   */\n      dup2\n        /* \"#utility.yul\":15540:15546   */\n      dup8\n        /* \"#utility.yul\":15476:15554   */\n      tag_434\n      jump\t// in\n    tag_498:\n        /* \"#utility.yul\":15468:15554   */\n      swap1\n      pop\n        /* \"#utility.yul\":15602:15611   */\n      dup2\n        /* \"#utility.yul\":15596:15600   */\n      dup2\n        /* \"#utility.yul\":15592:15612   */\n      sub\n        /* \"#utility.yul\":15586:15589   */\n      0x80\n        /* \"#utility.yul\":15575:15584   */\n      dup4\n        /* \"#utility.yul\":15571:15590   */\n      add\n        /* \"#utility.yul\":15564:15613   */\n      mstore\n        /* \"#utility.yul\":15630:15708   */\n      tag_499\n        /* \"#utility.yul\":15703:15707   */\n      dup2\n        /* \"#utility.yul\":15694:15700   */\n      dup7\n        /* \"#utility.yul\":15630:15708   */\n      tag_434\n      jump\t// in\n    tag_499:\n        /* \"#utility.yul\":15622:15708   */\n      swap1\n      pop\n        /* \"#utility.yul\":15756:15765   */\n      dup2\n        /* \"#utility.yul\":15750:15754   */\n      dup2\n        /* \"#utility.yul\":15746:15766   */\n      sub\n        /* \"#utility.yul\":15740:15743   */\n      0xa0\n        /* \"#utility.yul\":15729:15738   */\n      dup4\n        /* \"#utility.yul\":15725:15744   */\n      add\n        /* \"#utility.yul\":15718:15767   */\n      mstore\n        /* \"#utility.yul\":15784:15862   */\n      tag_500\n        /* \"#utility.yul\":15857:15861   */\n      dup2\n        /* \"#utility.yul\":15848:15854   */\n      dup6\n        /* \"#utility.yul\":15784:15862   */\n      tag_434\n      jump\t// in\n    tag_500:\n        /* \"#utility.yul\":15776:15862   */\n      swap1\n      pop\n        /* \"#utility.yul\":15910:15919   */\n      dup2\n        /* \"#utility.yul\":15904:15908   */\n      dup2\n        /* \"#utility.yul\":15900:15920   */\n      sub\n        /* \"#utility.yul\":15894:15897   */\n      0xc0\n        /* \"#utility.yul\":15883:15892   */\n      dup4\n        /* \"#utility.yul\":15879:15898   */\n      add\n        /* \"#utility.yul\":15872:15921   */\n      mstore\n        /* \"#utility.yul\":15938:16016   */\n      tag_501\n        /* \"#utility.yul\":16011:16015   */\n      dup2\n        /* \"#utility.yul\":16002:16008   */\n      dup5\n        /* \"#utility.yul\":15938:16016   */\n      tag_434\n      jump\t// in\n    tag_501:\n        /* \"#utility.yul\":15930:16016   */\n      swap1\n      pop\n        /* \"#utility.yul\":14906:16023   */\n      swap9\n      swap8\n      pop\n      pop\n      pop\n      pop\n      pop\n      pop\n      pop\n      pop\n      jump\t// out\n        /* \"#utility.yul\":16029:16452   */\n    tag_262:\n        /* \"#utility.yul\":16170:16174   */\n      0x00\n        /* \"#utility.yul\":16208:16210   */\n      0x40\n        /* \"#utility.yul\":16197:16206   */\n      dup3\n        /* \"#utility.yul\":16193:16211   */\n      add\n        /* \"#utility.yul\":16185:16211   */\n      swap1\n      pop\n        /* \"#utility.yul\":16257:16266   */\n      dup2\n        /* \"#utility.yul\":16251:16255   */\n      dup2\n        /* \"#utility.yul\":16247:16267   */\n      sub\n        /* \"#utility.yul\":16243:16244   */\n      0x00\n        /* \"#utility.yul\":16232:16241   */\n      dup4\n        /* \"#utility.yul\":16228:16245   */\n      add\n        /* \"#utility.yul\":16221:16268   */\n      mstore\n        /* \"#utility.yul\":16285:16363   */\n      tag_503\n        /* \"#utility.yul\":16358:16362   */\n      dup2\n        /* \"#utility.yul\":16349:16355   */\n      dup6\n        /* \"#utility.yul\":16285:16363   */\n      tag_434\n      jump\t// in\n    tag_503:\n        /* \"#utility.yul\":16277:16363   */\n      swap1\n      pop\n        /* \"#utility.yul\":16373:16445   */\n      tag_504\n        /* \"#utility.yul\":16441:16443   */\n      0x20\n        /* \"#utility.yul\":16430:16439   */\n      dup4\n        /* \"#utility.yul\":16426:16444   */\n      add\n        /* \"#utility.yul\":16417:16423   */\n      dup5\n        /* \"#utility.yul\":16373:16445   */\n      tag_450\n      jump\t// in\n    tag_504:\n        /* \"#utility.yul\":16175:16452   */\n      swap4\n      swap3\n      pop\n      pop\n      pop\n      jump\t// out\n        /* \"#utility.yul\":16458:16680   */\n    tag_220:\n        /* \"#utility.yul\":16551:16555   */\n      0x00\n        /* \"#utility.yul\":16589:16591   */\n      0x20\n        /* \"#utility.yul\":16578:16587   */\n      dup3\n        /* \"#utility.yul\":16574:16592   */\n      add\n        /* \"#utility.yul\":16566:16592   */\n      swap1\n      pop\n        /* \"#utility.yul\":16602:16673   */\n      tag_506\n        /* \"#utility.yul\":16670:16671   */\n      0x00\n        /* \"#utility.yul\":16659:16668   */\n      dup4\n        /* \"#utility.yul\":16655:16672   */\n      add\n        /* \"#utility.yul\":16646:16652   */\n      dup5\n        /* \"#utility.yul\":16602:16673   */\n      tag_450\n      jump\t// in\n    tag_506:\n        /* \"#utility.yul\":16556:16680   */\n      swap3\n      swap2\n      pop\n      pop\n      jump\t// out\n        /* \"#utility.yul\":16686:17239   */\n    tag_94:\n        /* \"#utility.yul\":16863:16867   */\n      0x00\n        /* \"#utility.yul\":16901:16904   */\n      0x80\n        /* \"#utility.yul\":16890:16899   */\n      dup3\n        /* \"#utility.yul\":16886:16905   */\n      add\n        /* \"#utility.yul\":16878:16905   */\n      swap1\n      pop\n        /* \"#utility.yul\":16915:16986   */\n      tag_508\n        /* \"#utility.yul\":16983:16984   */\n      0x00\n        /* \"#utility.yul\":16972:16981   */\n      dup4\n        /* \"#utility.yul\":16968:16985   */\n      add\n        /* \"#utility.yul\":16959:16965   */\n      dup8\n        /* \"#utility.yul\":16915:16986   */\n      tag_450\n      jump\t// in\n    tag_508:\n        /* \"#utility.yul\":16996:17068   */\n      tag_509\n        /* \"#utility.yul\":17064:17066   */\n      0x20\n        /* \"#utility.yul\":17053:17062   */\n      dup4\n        /* \"#utility.yul\":17049:17067   */\n      add\n        /* \"#utility.yul\":17040:17046   */\n      dup7\n        /* \"#utility.yul\":16996:17068   */\n      tag_450\n      jump\t// in\n    tag_509:\n        /* \"#utility.yul\":17078:17150   */\n      tag_510\n        /* \"#utility.yul\":17146:17148   */\n      0x40\n        /* \"#utility.yul\":17135:17144   */\n      dup4\n        /* \"#utility.yul\":17131:17149   */\n      add\n        /* \"#utility.yul\":17122:17128   */\n      dup6\n        /* \"#utility.yul\":17078:17150   */\n      tag_450\n      jump\t// in\n    tag_510:\n        /* \"#utility.yul\":17160:17232   */\n      tag_511\n        /* \"#utility.yul\":17228:17230   */\n      0x60\n        /* \"#utility.yul\":17217:17226   */\n      dup4\n        /* \"#utility.yul\":17213:17231   */\n      add\n        /* \"#utility.yul\":17204:17210   */\n      dup5\n        /* \"#utility.yul\":17160:17232   */\n      tag_450\n      jump\t// in\n    tag_511:\n        /* \"#utility.yul\":16868:17239   */\n      swap6\n      swap5\n      pop\n      pop\n      pop\n      pop\n      pop\n      jump\t// out\n        /* \"#utility.yul\":17245:17374   */\n    tag_318:\n        /* \"#utility.yul\":17279:17285   */\n      0x00\n        /* \"#utility.yul\":17306:17326   */\n      tag_513\n      tag_514\n      jump\t// in\n    tag_513:\n        /* \"#utility.yul\":17296:17326   */\n      swap1\n      pop\n        /* \"#utility.yul\":17335:17368   */\n      tag_515\n        /* \"#utility.yul\":17363:17367   */\n      dup3\n        /* \"#utility.yul\":17355:17361   */\n      dup3\n        /* \"#utility.yul\":17335:17368   */\n      tag_516\n      jump\t// in\n    tag_515:\n        /* \"#utility.yul\":17286:17374   */\n      swap2\n      swap1\n      pop\n      jump\t// out\n        /* \"#utility.yul\":17380:17455   */\n    tag_514:\n        /* \"#utility.yul\":17413:17419   */\n      0x00\n        /* \"#utility.yul\":17446:17448   */\n      0x40\n        /* \"#utility.yul\":17440:17449   */\n      mload\n        /* \"#utility.yul\":17430:17449   */\n      swap1\n      pop\n        /* \"#utility.yul\":17420:17455   */\n      swap1\n      jump\t// out\n        /* \"#utility.yul\":17461:17769   */\n    tag_317:\n        /* \"#utility.yul\":17523:17527   */\n      0x00\n        /* \"#utility.yul\":17613:17631   */\n      0xffffffffffffffff\n        /* \"#utility.yul\":17605:17611   */\n      dup3\n        /* \"#utility.yul\":17602:17632   */\n      gt\n        /* \"#utility.yul\":17599:17601   */\n      iszero\n      tag_519\n      jumpi\n        /* \"#utility.yul\":17635:17653   */\n      tag_520\n      tag_521\n      jump\t// in\n    tag_520:\n        /* \"#utility.yul\":17599:17601   */\n    tag_519:\n        /* \"#utility.yul\":17673:17702   */\n      tag_522\n        /* \"#utility.yul\":17695:17701   */\n      dup3\n        /* \"#utility.yul\":17673:17702   */\n      tag_443\n      jump\t// in\n    tag_522:\n        /* \"#utility.yul\":17665:17702   */\n      swap1\n      pop\n        /* \"#utility.yul\":17757:17761   */\n      0x20\n        /* \"#utility.yul\":17751:17755   */\n      dup2\n        /* \"#utility.yul\":17747:17762   */\n      add\n        /* \"#utility.yul\":17739:17762   */\n      swap1\n      pop\n        /* \"#utility.yul\":17528:17769   */\n      swap2\n      swap1\n      pop\n      jump\t// out\n        /* \"#utility.yul\":17775:17907   */\n    tag_413:\n        /* \"#utility.yul\":17842:17846   */\n      0x00\n        /* \"#utility.yul\":17865:17868   */\n      dup2\n        /* \"#utility.yul\":17857:17868   */\n      swap1\n      pop\n        /* \"#utility.yul\":17895:17899   */\n      0x20\n        /* \"#utility.yul\":17890:17893   */\n      dup3\n        /* \"#utility.yul\":17886:17900   */\n      add\n        /* \"#utility.yul\":17878:17900   */\n      swap1\n      pop\n        /* \"#utility.yul\":17847:17907   */\n      swap2\n      swap1\n      pop\n      jump\t// out\n        /* \"#utility.yul\":17913:18027   */\n    tag_409:\n        /* \"#utility.yul\":17980:17986   */\n      0x00\n        /* \"#utility.yul\":18014:18019   */\n      dup2\n        /* \"#utility.yul\":18008:18020   */\n      mload\n        /* \"#utility.yul\":17998:18020   */\n      swap1\n      pop\n        /* \"#utility.yul\":17987:18027   */\n      swap2\n      swap1\n      pop\n      jump\t// out\n        /* \"#utility.yul\":18033:18132   */\n    tag_437:\n        /* \"#utility.yul\":18085:18091   */\n      0x00\n        /* \"#utility.yul\":18119:18124   */\n      dup2\n        /* \"#utility.yul\":18113:18125   */\n      mload\n        /* \"#utility.yul\":18103:18125   */\n      swap1\n      pop\n        /* \"#utility.yul\":18092:18132   */\n      swap2\n      swap1\n      pop\n      jump\t// out\n        /* \"#utility.yul\":18138:18251   */\n    tag_419:\n        /* \"#utility.yul\":18208:18212   */\n      0x00\n        /* \"#utility.yul\":18240:18244   */\n      0x20\n        /* \"#utility.yul\":18235:18238   */\n      dup3\n        /* \"#utility.yul\":18231:18245   */\n      add\n        /* \"#utility.yul\":18223:18245   */\n      swap1\n      pop\n        /* \"#utility.yul\":18213:18251   */\n      swap2\n      swap1\n      pop\n      jump\t// out\n        /* \"#utility.yul\":18257:18441   */\n    tag_411:\n        /* \"#utility.yul\":18356:18367   */\n      0x00\n        /* \"#utility.yul\":18390:18396   */\n      dup3\n        /* \"#utility.yul\":18385:18388   */\n      dup3\n        /* \"#utility.yul\":18378:18397   */\n      mstore\n        /* \"#utility.yul\":18430:18434   */\n      0x20\n        /* \"#utility.yul\":18425:18428   */\n      dup3\n        /* \"#utility.yul\":18421:18435   */\n      add\n        /* \"#utility.yul\":18406:18435   */\n      swap1\n      pop\n        /* \"#utility.yul\":18368:18441   */\n      swap3\n      swap2\n      pop\n      pop\n      jump\t// out\n        /* \"#utility.yul\":18447:18616   */\n    tag_439:\n        /* \"#utility.yul\":18531:18542   */\n      0x00\n        /* \"#utility.yul\":18565:18571   */\n      dup3\n        /* \"#utility.yul\":18560:18563   */\n      dup3\n        /* \"#utility.yul\":18553:18572   */\n      mstore\n        /* \"#utility.yul\":18605:18609   */\n      0x20\n        /* \"#utility.yul\":18600:18603   */\n      dup3\n        /* \"#utility.yul\":18596:18610   */\n      add\n        /* \"#utility.yul\":18581:18610   */\n      swap1\n      pop\n        /* \"#utility.yul\":18543:18616   */\n      swap3\n      swap2\n      pop\n      pop\n      jump\t// out\n        /* \"#utility.yul\":18622:18770   */\n    tag_448:\n        /* \"#utility.yul\":18724:18735   */\n      0x00\n        /* \"#utility.yul\":18761:18764   */\n      dup2\n        /* \"#utility.yul\":18746:18764   */\n      swap1\n      pop\n        /* \"#utility.yul\":18736:18770   */\n      swap3\n      swap2\n      pop\n      pop\n      jump\t// out\n        /* \"#utility.yul\":18776:19081   */\n    tag_248:\n        /* \"#utility.yul\":18816:18819   */\n      0x00\n        /* \"#utility.yul\":18835:18855   */\n      tag_531\n        /* \"#utility.yul\":18853:18854   */\n      dup3\n        /* \"#utility.yul\":18835:18855   */\n      tag_453\n      jump\t// in\n    tag_531:\n        /* \"#utility.yul\":18830:18855   */\n      swap2\n      pop\n        /* \"#utility.yul\":18869:18889   */\n      tag_532\n        /* \"#utility.yul\":18887:18888   */\n      dup4\n        /* \"#utility.yul\":18869:18889   */\n      tag_453\n      jump\t// in\n    tag_532:\n        /* \"#utility.yul\":18864:18889   */\n      swap3\n      pop\n        /* \"#utility.yul\":19023:19024   */\n      dup3\n        /* \"#utility.yul\":18955:19021   */\n      0xffffffffffffffffffffffffffffffffffffffffffffffffffffffffffffffff\n        /* \"#utility.yul\":18951:19025   */\n      sub\n        /* \"#utility.yul\":18948:18949   */\n      dup3\n        /* \"#utility.yul\":18945:19026   */\n      gt\n        /* \"#utility.yul\":18942:18944   */\n      iszero\n      tag_533\n      jumpi\n        /* \"#utility.yul\":19029:19047   */\n      tag_534\n      tag_535\n      jump\t// in\n    tag_534:\n        /* \"#utility.yul\":18942:18944   */\n    tag_533:\n        /* \"#utility.yul\":19073:19074   */\n      dup3\n        /* \"#utility.yul\":19070:19071   */\n      dup3\n        /* \"#utility.yul\":19066:19075   */\n      add\n        /* \"#utility.yul\":19059:19075   */\n      swap1\n      pop\n        /* \"#utility.yul\":18820:19081   */\n      swap3\n      swap2\n      pop\n      pop\n      jump\t// out\n        /* \"#utility.yul\":19087:19183   */\n    tag_400:\n        /* \"#utility.yul\":19124:19131   */\n      0x00\n        /* \"#utility.yul\":19153:19177   */\n      tag_537\n        /* \"#utility.yul\":19171:19176   */\n      dup3\n        /* \"#utility.yul\":19153:19177   */\n      tag_538\n      jump\t// in\n    tag_537:\n        /* \"#utility.yul\":19142:19177   */\n      swap1\n      pop\n        /* \"#utility.yul\":19132:19183   */\n      swap2\n      swap1\n      pop\n      jump\t// out\n        /* \"#utility.yul\":19189:19279   */\n    tag_423:\n        /* \"#utility.yul\":19223:19230   */\n      0x00\n        /* \"#utility.yul\":19266:19271   */\n      dup2\n        /* \"#utility.yul\":19259:19272   */\n      iszero\n        /* \"#utility.yul\":19252:19273   */\n      iszero\n        /* \"#utility.yul\":19241:19273   */\n      swap1\n      pop\n        /* \"#utility.yul\":19231:19279   */\n      swap2\n      swap1\n      pop\n      jump\t// out\n        /* \"#utility.yul\":19285:19362   */\n    tag_426:\n        /* \"#utility.yul\":19322:19329   */\n      0x00\n        /* \"#utility.yul\":19351:19356   */\n      dup2\n        /* \"#utility.yul\":19340:19356   */\n      swap1\n      pop\n        /* \"#utility.yul\":19330:19362   */\n      swap2\n      swap1\n      pop\n      jump\t// out\n        /* \"#utility.yul\":19368:19509   */\n    tag_541:\n        /* \"#utility.yul\":19420:19427   */\n      0x00\n        /* \"#utility.yul\":19449:19454   */\n      dup2\n        /* \"#utility.yul\":19438:19454   */\n      swap1\n      pop\n        /* \"#utility.yul\":19455:19503   */\n      tag_543\n        /* \"#utility.yul\":19497:19502   */\n      dup3\n        /* \"#utility.yul\":19455:19503   */\n      tag_544\n      jump\t// in\n    tag_543:\n        /* \"#utility.yul\":19428:19509   */\n      swap2\n      swap1\n      pop\n      jump\t// out\n        /* \"#utility.yul\":19515:19641   */\n    tag_538:\n        /* \"#utility.yul\":19552:19559   */\n      0x00\n        /* \"#utility.yul\":19592:19634   */\n      0xffffffffffffffffffffffffffffffffffffffff\n        /* \"#utility.yul\":19585:19590   */\n      dup3\n        /* \"#utility.yul\":19581:19635   */\n      and\n        /* \"#utility.yul\":19570:19635   */\n      swap1\n      pop\n        /* \"#utility.yul\":19560:19641   */\n      swap2\n      swap1\n      pop\n      jump\t// out\n        /* \"#utility.yul\":19647:19724   */\n    tag_453:\n        /* \"#utility.yul\":19684:19691   */\n      0x00\n        /* \"#utility.yul\":19713:19718   */\n      dup2\n        /* \"#utility.yul\":19702:19718   */\n      swap1\n      pop\n        /* \"#utility.yul\":19692:19724   */\n      swap2\n      swap1\n      pop\n      jump\t// out\n        /* \"#utility.yul\":19730:19871   */\n    tag_433:\n        /* \"#utility.yul\":19793:19802   */\n      0x00\n        /* \"#utility.yul\":19826:19865   */\n      tag_548\n        /* \"#utility.yul\":19859:19864   */\n      dup3\n        /* \"#utility.yul\":19826:19865   */\n      tag_541\n      jump\t// in\n    tag_548:\n        /* \"#utility.yul\":19813:19865   */\n      swap1\n      pop\n        /* \"#utility.yul\":19803:19871   */\n      swap2\n      swap1\n      pop\n      jump\t// out\n        /* \"#utility.yul\":19877:20031   */\n    tag_321:\n        /* \"#utility.yul\":19961:19967   */\n      dup3\n        /* \"#utility.yul\":19956:19959   */\n      dup2\n        /* \"#utility.yul\":19951:19954   */\n      dup4\n        /* \"#utility.yul\":19938:19968   */\n      calldatacopy\n        /* \"#utility.yul\":20023:20024   */\n      0x00\n        /* \"#utility.yul\":20014:20020   */\n      dup4\n        /* \"#utility.yul\":20009:20012   */\n      dup4\n        /* \"#utility.yul\":20005:20021   */\n      add\n        /* \"#utility.yul\":19998:20025   */\n      mstore\n        /* \"#utility.yul\":19928:20031   */\n      pop\n      pop\n      pop\n      jump\t// out\n        /* \"#utility.yul\":20037:20344   */\n    tag_441:\n        /* \"#utility.yul\":20105:20106   */\n      0x00\n        /* \"#utility.yul\":20115:20228   */\n    tag_551:\n        /* \"#utility.yul\":20129:20135   */\n      dup4\n        /* \"#utility.yul\":20126:20127   */\n      dup2\n        /* \"#utility.yul\":20123:20136   */\n      lt\n        /* \"#utility.yul\":20115:20228   */\n      iszero\n      tag_553\n      jumpi\n        /* \"#utility.yul\":20214:20215   */\n      dup1\n        /* \"#utility.yul\":20209:20212   */\n      dup3\n        /* \"#utility.yul\":20205:20216   */\n      add\n        /* \"#utility.yul\":20199:20217   */\n      mload\n        /* \"#utility.yul\":20195:20196   */\n      dup2\n        /* \"#utility.yul\":20190:20193   */\n      dup5\n        /* \"#utility.yul\":20186:20197   */\n      add\n        /* \"#utility.yul\":20179:20218   */\n      mstore\n        /* \"#utility.yul\":20151:20153   */\n      0x20\n        /* \"#utility.yul\":20148:20149   */\n      dup2\n        /* \"#utility.yul\":20144:20154   */\n      add\n        /* \"#utility.yul\":20139:20154   */\n      swap1\n      pop\n        /* \"#utility.yul\":20115:20228   */\n      jump(tag_551)\n    tag_553:\n        /* \"#utility.yul\":20246:20252   */\n      dup4\n        /* \"#utility.yul\":20243:20244   */\n      dup2\n        /* \"#utility.yul\":20240:20253   */\n      gt\n        /* \"#utility.yul\":20237:20239   */\n      iszero\n      tag_554\n      jumpi\n        /* \"#utility.yul\":20326:20327   */\n      0x00\n        /* \"#utility.yul\":20317:20323   */\n      dup5\n        /* \"#utility.yul\":20312:20315   */\n      dup5\n        /* \"#utility.yul\":20308:20324   */\n      add\n        /* \"#utility.yul\":20301:20328   */\n      mstore\n        /* \"#utility.yul\":20237:20239   */\n    tag_554:\n        /* \"#utility.yul\":20086:20344   */\n      pop\n      pop\n      pop\n      pop\n      jump\t// out\n        /* \"#utility.yul\":20350:20670   */\n    tag_153:\n        /* \"#utility.yul\":20394:20400   */\n      0x00\n        /* \"#utility.yul\":20431:20432   */\n      0x02\n        /* \"#utility.yul\":20425:20429   */\n      dup3\n        /* \"#utility.yul\":20421:20433   */\n      div\n        /* \"#utility.yul\":20411:20433   */\n      swap1\n      pop\n        /* \"#utility.yul\":20478:20479   */\n      0x01\n        /* \"#utility.yul\":20472:20476   */\n      dup3\n        /* \"#utility.yul\":20468:20480   */\n      and\n        /* \"#utility.yul\":20499:20517   */\n      dup1\n        /* \"#utility.yul\":20489:20491   */\n      tag_556\n      jumpi\n        /* \"#utility.yul\":20555:20559   */\n      0x7f\n        /* \"#utility.yul\":20547:20553   */\n      dup3\n        /* \"#utility.yul\":20543:20560   */\n      and\n        /* \"#utility.yul\":20533:20560   */\n      swap2\n      pop\n        /* \"#utility.yul\":20489:20491   */\n    tag_556:\n        /* \"#utility.yul\":20617:20619   */\n      0x20\n        /* \"#utility.yul\":20609:20615   */\n      dup3\n        /* \"#utility.yul\":20606:20620   */\n      lt\n        /* \"#utility.yul\":20586:20604   */\n      dup2\n        /* \"#utility.yul\":20583:20621   */\n      eq\n        /* \"#utility.yul\":20580:20582   */\n      iszero\n      tag_557\n      jumpi\n        /* \"#utility.yul\":20636:20654   */\n      tag_558\n      tag_559\n      jump\t// in\n    tag_558:\n        /* \"#utility.yul\":20580:20582   */\n    tag_557:\n        /* \"#utility.yul\":20401:20670   */\n      pop\n      swap2\n      swap1\n      pop\n      jump\t// out\n        /* \"#utility.yul\":20676:20957   */\n    tag_516:\n        /* \"#utility.yul\":20759:20786   */\n      tag_561\n        /* \"#utility.yul\":20781:20785   */\n      dup3\n        /* \"#utility.yul\":20759:20786   */\n      tag_443\n      jump\t// in\n    tag_561:\n        /* \"#utility.yul\":20751:20757   */\n      dup2\n        /* \"#utility.yul\":20747:20787   */\n      add\n        /* \"#utility.yul\":20889:20895   */\n      dup2\n        /* \"#utility.yul\":20877:20887   */\n      dup2\n        /* \"#utility.yul\":20874:20896   */\n      lt\n        /* \"#utility.yul\":20853:20871   */\n      0xffffffffffffffff\n        /* \"#utility.yul\":20841:20851   */\n      dup3\n        /* \"#utility.yul\":20838:20872   */\n      gt\n        /* \"#utility.yul\":20835:20897   */\n      or\n        /* \"#utility.yul\":20832:20834   */\n      iszero\n      tag_562\n      jumpi\n        /* \"#utility.yul\":20900:20918   */\n      tag_563\n      tag_521\n      jump\t// in\n    tag_563:\n        /* \"#utility.yul\":20832:20834   */\n    tag_562:\n        /* \"#utility.yul\":20940:20950   */\n      dup1\n        /* \"#utility.yul\":20936:20938   */\n      0x40\n        /* \"#utility.yul\":20929:20951   */\n      mstore\n        /* \"#utility.yul\":20719:20957   */\n      pop\n      pop\n      pop\n      jump\t// out\n        /* \"#utility.yul\":20963:21063   */\n    tag_405:\n        /* \"#utility.yul\":21002:21009   */\n      0x00\n        /* \"#utility.yul\":21031:21057   */\n      tag_565\n        /* \"#utility.yul\":21051:21056   */\n      dup3\n        /* \"#utility.yul\":21031:21057   */\n      tag_566\n      jump\t// in\n    tag_565:\n        /* \"#utility.yul\":21020:21057   */\n      swap1\n      pop\n        /* \"#utility.yul\":21010:21063   */\n      swap2\n      swap1\n      pop\n      jump\t// out\n        /* \"#utility.yul\":21069:21163   */\n    tag_566:\n        /* \"#utility.yul\":21108:21115   */\n      0x00\n        /* \"#utility.yul\":21137:21157   */\n      tag_568\n        /* \"#utility.yul\":21151:21156   */\n      dup3\n        /* \"#utility.yul\":21137:21157   */\n      tag_569\n      jump\t// in\n    tag_568:\n        /* \"#utility.yul\":21126:21157   */\n      swap1\n      pop\n        /* \"#utility.yul\":21116:21163   */\n      swap2\n      swap1\n      pop\n      jump\t// out\n        /* \"#utility.yul\":21169:21248   */\n    tag_458:\n        /* \"#utility.yul\":21208:21215   */\n      0x00\n        /* \"#utility.yul\":21237:21242   */\n      dup2\n        /* \"#utility.yul\":21226:21242   */\n      swap1\n      pop\n        /* \"#utility.yul\":21216:21248   */\n      swap2\n      swap1\n      pop\n      jump\t// out\n        /* \"#utility.yul\":21254:21434   */\n    tag_535:\n        /* \"#utility.yul\":21302:21379   */\n      0x4e487b7100000000000000000000000000000000000000000000000000000000\n        /* \"#utility.yul\":21299:21300   */\n      0x00\n        /* \"#utility.yul\":21292:21380   */\n      mstore\n        /* \"#utility.yul\":21399:21403   */\n      0x11\n        /* \"#utility.yul\":21396:21397   */\n      0x04\n        /* \"#utility.yul\":21389:21404   */\n      mstore\n        /* \"#utility.yul\":21423:21427   */\n      0x24\n        /* \"#utility.yul\":21420:21421   */\n      0x00\n        /* \"#utility.yul\":21413:21428   */\n      revert\n        /* \"#utility.yul\":21440:21620   */\n    tag_572:\n        /* \"#utility.yul\":21488:21565   */\n      0x4e487b7100000000000000000000000000000000000000000000000000000000\n        /* \"#utility.yul\":21485:21486   */\n      0x00\n        /* \"#utility.yul\":21478:21566   */\n      mstore\n        /* \"#utility.yul\":21585:21589   */\n      0x21\n        /* \"#utility.yul\":21582:21583   */\n      0x04\n        /* \"#utility.yul\":21575:21590   */\n      mstore\n        /* \"#utility.yul\":21609:21613   */\n      0x24\n        /* \"#utility.yul\":21606:21607   */\n      0x00\n        /* \"#utility.yul\":21599:21614   */\n      revert\n        /* \"#utility.yul\":21626:21806   */\n    tag_559:\n        /* \"#utility.yul\":21674:21751   */\n      0x4e487b7100000000000000000000000000000000000000000000000000000000\n        /* \"#utility.yul\":21671:21672   */\n      0x00\n        /* \"#utility.yul\":21664:21752   */\n      mstore\n        /* \"#utility.yul\":21771:21775   */\n      0x22\n        /* \"#utility.yul\":21768:21769   */\n      0x04\n        /* \"#utility.yul\":21761:21776   */\n      mstore\n        /* \"#utility.yul\":21795:21799   */\n      0x24\n        /* \"#utility.yul\":21792:21793   */\n      0x00\n        /* \"#utility.yul\":21785:21800   */\n      revert\n        /* \"#utility.yul\":21812:21992   */\n    tag_521:\n        /* \"#utility.yul\":21860:21937   */\n      0x4e487b7100000000000000000000000000000000000000000000000000000000\n        /* \"#utility.yul\":21857:21858   */\n      0x00\n        /* \"#utility.yul\":21850:21938   */\n      mstore\n        /* \"#utility.yul\":21957:21961   */\n      0x41\n        /* \"#utility.yul\":21954:21955   */\n      0x04\n        /* \"#utility.yul\":21947:21962   */\n      mstore\n        /* \"#utility.yul\":21981:21985   */\n      0x24\n        /* \"#utility.yul\":21978:21979   */\n      0x00\n        /* \"#utility.yul\":21971:21986   */\n      revert\n        /* \"#utility.yul\":21998:22100   */\n    tag_443:\n        /* \"#utility.yul\":22039:22045   */\n      0x00\n        /* \"#utility.yul\":22090:22092   */\n      0x1f\n        /* \"#utility.yul\":22086:22093   */\n      not\n        /* \"#utility.yul\":22081:22083   */\n      0x1f\n        /* \"#utility.yul\":22074:22079   */\n      dup4\n        /* \"#utility.yul\":22070:22084   */\n      add\n        /* \"#utility.yul\":22066:22094   */\n      and\n        /* \"#utility.yul\":22056:22094   */\n      swap1\n      pop\n        /* \"#utility.yul\":22046:22100   */\n      swap2\n      swap1\n      pop\n      jump\t// out\n        /* \"#utility.yul\":22106:22200   */\n    tag_569:\n        /* \"#utility.yul\":22139:22147   */\n      0x00\n        /* \"#utility.yul\":22187:22192   */\n      dup2\n        /* \"#utility.yul\":22183:22185   */\n      0x60\n        /* \"#utility.yul\":22179:22193   */\n      shl\n        /* \"#utility.yul\":22158:22193   */\n      swap1\n      pop\n        /* \"#utility.yul\":22148:22200   */\n      swap2\n      swap1\n      pop\n      jump\t// out\n        /* \"#utility.yul\":22206:22326   */\n    tag_544:\n        /* \"#utility.yul\":22294:22295   */\n      0x07\n        /* \"#utility.yul\":22287:22292   */\n      dup2\n        /* \"#utility.yul\":22284:22296   */\n      lt\n        /* \"#utility.yul\":22274:22276   */\n      tag_579\n      jumpi\n        /* \"#utility.yul\":22300:22318   */\n      tag_580\n      tag_572\n      jump\t// in\n    tag_580:\n        /* \"#utility.yul\":22274:22276   */\n    tag_579:\n        /* \"#utility.yul\":22264:22326   */\n      pop\n      jump\t// out\n        /* \"#utility.yul\":22332:22454   */\n    tag_325:\n        /* \"#utility.yul\":22405:22429   */\n      tag_582\n        /* \"#utility.yul\":22423:22428   */\n      dup2\n        /* \"#utility.yul\":22405:22429   */\n      tag_400\n      jump\t// in\n    tag_582:\n        /* \"#utility.yul\":22398:22403   */\n      dup2\n        /* \"#utility.yul\":22395:22430   */\n      eq\n        /* \"#utility.yul\":22385:22387   */\n      tag_583\n      jumpi\n        /* \"#utility.yul\":22444:22445   */\n      0x00\n        /* \"#utility.yul\":22441:22442   */\n      dup1\n        /* \"#utility.yul\":22434:22446   */\n      revert\n        /* \"#utility.yul\":22385:22387   */\n    tag_583:\n        /* \"#utility.yul\":22375:22454   */\n      pop\n      jump\t// out\n        /* \"#utility.yul\":22460:22582   */\n    tag_329:\n        /* \"#utility.yul\":22533:22557   */\n      tag_585\n        /* \"#utility.yul\":22551:22556   */\n      dup2\n        /* \"#utility.yul\":22533:22557   */\n      tag_426\n      jump\t// in\n    tag_585:\n        /* \"#utility.yul\":22526:22531   */\n      dup2\n        /* \"#utility.yul\":22523:22558   */\n      eq\n        /* \"#utility.yul\":22513:22515   */\n      tag_586\n      jumpi\n        /* \"#utility.yul\":22572:22573   */\n      0x00\n        /* \"#utility.yul\":22569:22570   */\n      dup1\n        /* \"#utility.yul\":22562:22574   */\n      revert\n        /* \"#utility.yul\":22513:22515   */\n    tag_586:\n        /* \"#utility.yul\":22503:22582   */\n      pop\n      jump\t// out\n        /* \"#utility.yul\":22588:22702   */\n    tag_333:\n        /* \"#utility.yul\":22676:22677   */\n      0x07\n        /* \"#utility.yul\":22669:22674   */\n      dup2\n        /* \"#utility.yul\":22666:22678   */\n      lt\n        /* \"#utility.yul\":22656:22658   */\n      tag_588\n      jumpi\n        /* \"#utility.yul\":22692:22693   */\n      0x00\n        /* \"#utility.yul\":22689:22690   */\n      dup1\n        /* \"#utility.yul\":22682:22694   */\n      revert\n        /* \"#utility.yul\":22656:22658   */\n    tag_588:\n        /* \"#utility.yul\":22646:22702   */\n      pop\n      jump\t// out\n        /* \"#utility.yul\":22708:22830   */\n    tag_341:\n        /* \"#utility.yul\":22781:22805   */\n      tag_590\n        /* \"#utility.yul\":22799:22804   */\n      dup2\n        /* \"#utility.yul\":22781:22805   */\n      tag_453\n      jump\t// in\n    tag_590:\n        /* \"#utility.yul\":22774:22779   */\n      dup2\n        /* \"#utility.yul\":22771:22806   */\n      eq\n        /* \"#utility.yul\":22761:22763   */\n      tag_591\n      jumpi\n        /* \"#utility.yul\":22820:22821   */\n      0x00\n        /* \"#utility.yul\":22817:22818   */\n      dup1\n        /* \"#utility.yul\":22810:22822   */\n      revert\n        /* \"#utility.yul\":22761:22763   */\n    tag_591:\n        /* \"#utility.yul\":22751:22830   */\n      pop\n      jump\t// out\n\n    auxdata: 0xa2646970667358221220fcaa9b86c5f17e856b9d95b8b4d28b1022db869911fb3d2b26ae2ad85ebfac2564736f6c63430008040033\n}\n",
				"bytecode": {
					"linkReferences": {},
					"object": "608060405234801561001057600080fd5b506137ae806100206000396000f3fe608060405234801561001057600080fd5b506004361061018e5760003560e01c80637111e750116100de578063c156254711610097578063dc9151c511610071578063dc9151c5146104bf578063e36d6f50146104ef578063eb9720081461051f578063f6f2ede01461053d5761018e565b8063c156254714610455578063ceda3b2014610473578063da31f7221461048f5761018e565b80637111e75014610363578063894fd813146103965780638a1b9736146103b2578063adcfb4fc146103e5578063b2cf188614610401578063bbc53ef2146104315761018e565b80632ae231091161014b5780634be422ae116101255780634be422ae146102dd5780635cb0122a146102e75780636c608709146103175780636e9d4f8d146103475761018e565b80632ae2310914610283578063377b47a31461029f5780633a196986146102a95761018e565b8063011f2cce14610193578063026ff05e146101af57806307edbdc5146101cd5780630b4f12f6146102025780631c6932b61461021e57806323e583b414610253575b600080fd5b6101ad60048036038101906101a89190612e5c565b61056d565b005b6101b761068f565b6040516101c49190613118565b60405180910390f35b6101e760048036038101906101e29190612dce565b610903565b6040516101f996959493929190613240565b60405180910390f35b61021c60048036038101906102179190612e5c565b610a9c565b005b61023860048036038101906102339190612ccc565b610e12565b60405161024a9695949392919061314e565b60405180910390f35b61026d60048036038101906102689190612ccc565b611007565b60405161027a9190613133565b60405180910390f35b61029d60048036038101906102989190612d08565b611038565b005b6102a7611374565b005b6102c360048036038101906102be9190612dce565b6115b0565b6040516102d49594939291906131df565b60405180910390f35b6102e5611796565b005b61030160048036038101906102fc9190612c05565b611909565b60405161030e91906130f6565b60405180910390f35b610331600480360381019061032c9190612e5c565b6119a0565b60405161033e91906130db565b60405180910390f35b610361600480360381019061035c9190612e9d565b6119e9565b005b61037d60048036038101906103789190612c05565b611c42565b60405161038d949392919061339a565b60405180910390f35b6103b060048036038101906103ab9190612d57565b611c72565b005b6103cc60048036038101906103c79190612c05565b611ddd565b6040516103dc949392919061339a565b60405180910390f35b6103ff60048036038101906103fa9190612e5c565b611efe565b005b61041b60048036038101906104169190612e20565b6122b1565b6040516104289190613133565b60405180910390f35b6104396122e2565b60405161044c97969594939291906132af565b60405180910390f35b61045d61247e565b60405161046a91906131bd565b60405180910390f35b61048d60048036038101906104889190612c2e565b612618565b005b6104a960048036038101906104a49190612df7565b6126d7565b6040516104b691906130f6565b60405180910390f35b6104d960048036038101906104d49190612c7d565b6127ef565b6040516104e69190613133565b60405180910390f35b61050960048036038101906105049190612df7565b61282d565b60405161051691906130f6565b60405180910390f35b610527612908565b60405161053491906131bd565b60405180910390f35b61055760048036038101906105529190612c05565b6129da565b6040516105649190613118565b60405180910390f35b600460003373ffffffffffffffffffffffffffffffffffffffff1673ffffffffffffffffffffffffffffffffffffffff16815260200190815260200160002060030160009054906101000a900460ff166040518060400160405280600581526020017f574d552d3200000000000000000000000000000000000000000000000000000081525090610634576040517f08c379a000000000000000000000000000000000000000000000000000000000815260040161062b91906131bd565b60405180910390fd5b5080600460003373ffffffffffffffffffffffffffffffffffffffff1673ffffffffffffffffffffffffffffffffffffffff168152602001908152602001600020600401908051906020019061068b929190612a66565b5050565b6000600460003373ffffffffffffffffffffffffffffffffffffffff1673ffffffffffffffffffffffffffffffffffffffff16815260200190815260200160002060010160009054906101000a900460ff166040518060400160405280600581526020017f574d552d3500000000000000000000000000000000000000000000000000000081525090610758576040517f08c379a000000000000000000000000000000000000000000000000000000000815260040161074f91906131bd565b60405180910390fd5b506000600460003373ffffffffffffffffffffffffffffffffffffffff1673ffffffffffffffffffffffffffffffffffffffff16815260200190815260200160002060000180546107a8906135a4565b80601f01602080910402602001604051908101604052809291908181526020018280546107d4906135a4565b80156108215780601f106107f657610100808354040283529160200191610821565b820191906000526020600020905b81548152906001019060200180831161080457829003601f168201915b5050505050905060058160405161083891906130c4565b908152602001604051809103902060006101000a81549073ffffffffffffffffffffffffffffffffffffffff0219169055600460003373ffffffffffffffffffffffffffffffffffffffff1673ffffffffffffffffffffffffffffffffffffffff168152602001908152602001600020600080820160006108b99190612aec565b6001820160006101000a81549060ff021916905560028201600090556003820160006101000a81549060ff02191690556004820160006108f99190612aec565b5050600191505090565b6000602052806000526040600020600091509050806000018054610926906135a4565b80601f0160208091040260200160405190810160405280929190818152602001828054610952906135a4565b801561099f5780601f106109745761010080835404028352916020019161099f565b820191906000526020600020905b81548152906001019060200180831161098257829003601f168201915b5050505050908060010160009054906101000a900473ffffffffffffffffffffffffffffffffffffffff16908060020154908060030160009054906101000a900473ffffffffffffffffffffffffffffffffffffffff1690806004018054610a06906135a4565b80601f0160208091040260200160405190810160405280929190818152602001828054610a32906135a4565b8015610a7f5780601f10610a5457610100808354040283529160200191610a7f565b820191906000526020600020905b815481529060010190602001808311610a6257829003601f168201915b5050505050908060050160009054906101000a900460ff16905086565b600460003373ffffffffffffffffffffffffffffffffffffffff1673ffffffffffffffffffffffffffffffffffffffff16815260200190815260200160002060030160009054906101000a900460ff166040518060400160405280600581526020017f574d552d3200000000000000000000000000000000000000000000000000000081525090610b63576040517f08c379a0000000000000000000000000000000000000000000000000000000008152600401610b5a91906131bd565b60405180910390fd5b50600073ffffffffffffffffffffffffffffffffffffffff16600582604051610b8c91906130c4565b908152602001604051809103902060009054906101000a900473ffffffffffffffffffffffffffffffffffffffff1673ffffffffffffffffffffffffffffffffffffffff16146040518060400160405280600581526020017f574d552d3600000000000000000000000000000000000000000000000000000081525090610c49576040517f08c379a0000000000000000000000000000000000000000000000000000000008152600401610c4091906131bd565b60405180910390fd5b506000600460003373ffffffffffffffffffffffffffffffffffffffff1673ffffffffffffffffffffffffffffffffffffffff1681526020019081526020016000206000018054610c99906135a4565b80601f0160208091040260200160405190810160405280929190818152602001828054610cc5906135a4565b8015610d125780601f10610ce757610100808354040283529160200191610d12565b820191906000526020600020905b815481529060010190602001808311610cf557829003601f168201915b50505050509050600581604051610d2991906130c4565b908152602001604051809103902060006101000a81549073ffffffffffffffffffffffffffffffffffffffff021916905533600583604051610d6b91906130c4565b908152602001604051809103902060006101000a81548173ffffffffffffffffffffffffffffffffffffffff021916908373ffffffffffffffffffffffffffffffffffffffff16021790555081600460003373ffffffffffffffffffffffffffffffffffffffff1673ffffffffffffffffffffffffffffffffffffffff1681526020019081526020016000206000019080519060200190610e0d929190612a66565b505050565b60008060006060600060606000610e298989612a33565b90508060008083815260200190815260200160002060010160009054906101000a900473ffffffffffffffffffffffffffffffffffffffff166000808481526020019081526020016000206002015460008085815260200190815260200160002060000160008086815260200190815260200160002060030160009054906101000a900473ffffffffffffffffffffffffffffffffffffffff16600080878152602001908152602001600020600401828054610ee4906135a4565b80601f0160208091040260200160405190810160405280929190818152602001828054610f10906135a4565b8015610f5d5780601f10610f3257610100808354040283529160200191610f5d565b820191906000526020600020905b815481529060010190602001808311610f4057829003601f168201915b50505050509250808054610f70906135a4565b80601f0160208091040260200160405190810160405280929190818152602001828054610f9c906135a4565b8015610fe95780601f10610fbe57610100808354040283529160200191610fe9565b820191906000526020600020905b815481529060010190602001808311610fcc57829003601f168201915b50505050509050965096509650965096509650509295509295509295565b6001602052816000526040600020818154811061102357600080fd5b90600052602060002001600091509150505481565b60006110448484612a33565b9050600460003373ffffffffffffffffffffffffffffffffffffffff1673ffffffffffffffffffffffffffffffffffffffff16815260200190815260200160002060030160009054906101000a900460ff16801561110257503373ffffffffffffffffffffffffffffffffffffffff1660008083815260200190815260200160002060030160009054906101000a900473ffffffffffffffffffffffffffffffffffffffff1673ffffffffffffffffffffffffffffffffffffffff16145b6040518060400160405280600581526020017f574d552d3200000000000000000000000000000000000000000000000000000081525090611179576040517f08c379a000000000000000000000000000000000000000000000000000000000815260040161117091906131bd565b60405180910390fd5b508160008083815260200190815260200160002060050160006101000a81548160ff021916908360068111156111d8577f4e487b7100000000000000000000000000000000000000000000000000000000600052602160045260246000fd5b02179055506002600083600681111561121a577f4e487b7100000000000000000000000000000000000000000000000000000000600052602160045260246000fd5b6006811115611252577f4e487b7100000000000000000000000000000000000000000000000000000000600052602160045260246000fd5b8152602001908152602001600020819080600181540180825580915050600190039060005260206000200160009091909190915055600360003373ffffffffffffffffffffffffffffffffffffffff1673ffffffffffffffffffffffffffffffffffffffff1681526020019081526020016000206000836006811115611301577f4e487b7100000000000000000000000000000000000000000000000000000000600052602160045260246000fd5b6006811115611339577f4e487b7100000000000000000000000000000000000000000000000000000000600052602160045260246000fd5b815260200190815260200160002081908060018154018082558091505060019003906000526020600020016000909190919091505550505050565b600460003373ffffffffffffffffffffffffffffffffffffffff1673ffffffffffffffffffffffffffffffffffffffff16815260200190815260200160002060010160009054906101000a900460ff166040518060400160405280600581526020017f574d552d310000000000000000000000000000000000000000000000000000008152509061143b576040517f08c379a000000000000000000000000000000000000000000000000000000000815260040161143291906131bd565b60405180910390fd5b50600460003373ffffffffffffffffffffffffffffffffffffffff1673ffffffffffffffffffffffffffffffffffffffff16815260200190815260200160002060030160009054906101000a900460ff16156040518060400160405280600581526020017f574d552d3300000000000000000000000000000000000000000000000000000081525090611504576040517f08c379a00000000000000000000000000000000000000000000000000000000081526004016114fb91906131bd565b60405180910390fd5b506001600460003373ffffffffffffffffffffffffffffffffffffffff1673ffffffffffffffffffffffffffffffffffffffff16815260200190815260200160002060030160006101000a81548160ff0219169083151502179055503373ffffffffffffffffffffffffffffffffffffffff167f364034de78a61b6190b049e2c5437370b27906bfed607993a5bc2dda23c16cff426040516115a6919061337f565b60405180910390a2565b606060008060006060600086905060008082815260200190815260200160002060000160008083815260200190815260200160002060010160009054906101000a900473ffffffffffffffffffffffffffffffffffffffff166000808481526020019081526020016000206002015460008085815260200190815260200160002060030160009054906101000a900473ffffffffffffffffffffffffffffffffffffffff16600080868152602001908152602001600020600401848054611676906135a4565b80601f01602080910402602001604051908101604052809291908181526020018280546116a2906135a4565b80156116ef5780601f106116c4576101008083540402835291602001916116ef565b820191906000526020600020905b8154815290600101906020018083116116d257829003601f168201915b50505050509450808054611702906135a4565b80601f016020809104026020016040519081016040528092919081815260200182805461172e906135a4565b801561177b5780601f106117505761010080835404028352916020019161177b565b820191906000526020600020905b81548152906001019060200180831161175e57829003601f168201915b50505050509050955095509550955095505091939590929450565b600460003373ffffffffffffffffffffffffffffffffffffffff1673ffffffffffffffffffffffffffffffffffffffff16815260200190815260200160002060030160009054906101000a900460ff166040518060400160405280600581526020017f574d552d320000000000000000000000000000000000000000000000000000008152509061185d576040517f08c379a000000000000000000000000000000000000000000000000000000000815260040161185491906131bd565b60405180910390fd5b506000600460003373ffffffffffffffffffffffffffffffffffffffff1673ffffffffffffffffffffffffffffffffffffffff16815260200190815260200160002060030160006101000a81548160ff0219169083151502179055503373ffffffffffffffffffffffffffffffffffffffff167f70d1177aa26c67f6b2fdb43400cfd7ff0c23a8712301abe5aba2ee3d89e28a10426040516118ff919061337f565b60405180910390a2565b6060600160008373ffffffffffffffffffffffffffffffffffffffff1673ffffffffffffffffffffffffffffffffffffffff16815260200190815260200160002080548060200260200160405190810160405280929190818152602001828054801561199457602002820191906000526020600020905b815481526020019060010190808311611980575b50505050509050919050565b6005818051602081018201805184825260208301602085012081835280955050505050506000915054906101000a900473ffffffffffffffffffffffffffffffffffffffff1681565b600460003373ffffffffffffffffffffffffffffffffffffffff1673ffffffffffffffffffffffffffffffffffffffff16815260200190815260200160002060030160009054906101000a900460ff166040518060400160405280600581526020017f574d552d3200000000000000000000000000000000000000000000000000000081525090611ab0576040517f08c379a0000000000000000000000000000000000000000000000000000000008152600401611aa791906131bd565b60405180910390fd5b506000611abd8484612a33565b9050846000808381526020019081526020016000206000019080519060200190611ae8929190612a66565b508360008083815260200190815260200160002060010160006101000a81548173ffffffffffffffffffffffffffffffffffffffff021916908373ffffffffffffffffffffffffffffffffffffffff16021790555082600080838152602001908152602001600020600201819055503360008083815260200190815260200160002060030160006101000a81548173ffffffffffffffffffffffffffffffffffffffff021916908373ffffffffffffffffffffffffffffffffffffffff160217905550816000808381526020019081526020016000206004019080519060200190611bd4929190612a66565b50600160003373ffffffffffffffffffffffffffffffffffffffff1673ffffffffffffffffffffffffffffffffffffffff1681526020019081526020016000208190806001815401808255809150506001900390600052602060002001600090919091909150555050505050565b60066020528060005260406000206000915090508060000154908060010154908060020154908060030154905084565b83600660008773ffffffffffffffffffffffffffffffffffffffff1673ffffffffffffffffffffffffffffffffffffffff1681526020019081526020016000206000016000828254611cc49190613495565b9250508190555082600660008773ffffffffffffffffffffffffffffffffffffffff1673ffffffffffffffffffffffffffffffffffffffff1681526020019081526020016000206001016000828254611d1d9190613495565b9250508190555081600660008773ffffffffffffffffffffffffffffffffffffffff1673ffffffffffffffffffffffffffffffffffffffff1681526020019081526020016000206002016000828254611d769190613495565b9250508190555080600660008773ffffffffffffffffffffffffffffffffffffffff1673ffffffffffffffffffffffffffffffffffffffff1681526020019081526020016000206003016000828254611dcf9190613495565b925050819055505050505050565b600080600080600660008673ffffffffffffffffffffffffffffffffffffffff1673ffffffffffffffffffffffffffffffffffffffff16815260200190815260200160002060020154600660008773ffffffffffffffffffffffffffffffffffffffff1673ffffffffffffffffffffffffffffffffffffffff16815260200190815260200160002060030154600660008873ffffffffffffffffffffffffffffffffffffffff1673ffffffffffffffffffffffffffffffffffffffff16815260200190815260200160002060000154600660008973ffffffffffffffffffffffffffffffffffffffff1673ffffffffffffffffffffffffffffffffffffffff1681526020019081526020016000206001015493509350935093509193509193565b600460003373ffffffffffffffffffffffffffffffffffffffff1673ffffffffffffffffffffffffffffffffffffffff16815260200190815260200160002060010160009054906101000a900460ff16156040518060400160405280600581526020017f574d552d3400000000000000000000000000000000000000000000000000000081525090611fc6576040517f08c379a0000000000000000000000000000000000000000000000000000000008152600401611fbd91906131bd565b60405180910390fd5b50600073ffffffffffffffffffffffffffffffffffffffff16600582604051611fef91906130c4565b908152602001604051809103902060009054906101000a900473ffffffffffffffffffffffffffffffffffffffff1673ffffffffffffffffffffffffffffffffffffffff16146040518060400160405280600581526020017f574d552d36000000000000000000000000000000000000000000000000000000815250906120ac576040517f08c379a00000000000000000000000000000000000000000000000000000000081526004016120a391906131bd565b60405180910390fd5b5080600460003373ffffffffffffffffffffffffffffffffffffffff1673ffffffffffffffffffffffffffffffffffffffff1681526020019081526020016000206000019080519060200190612103929190612a66565b506001600460003373ffffffffffffffffffffffffffffffffffffffff1673ffffffffffffffffffffffffffffffffffffffff16815260200190815260200160002060010160006101000a81548160ff02191690831515021790555042600460003373ffffffffffffffffffffffffffffffffffffffff1673ffffffffffffffffffffffffffffffffffffffff168152602001908152602001600020600201819055506001600460003373ffffffffffffffffffffffffffffffffffffffff1673ffffffffffffffffffffffffffffffffffffffff16815260200190815260200160002060030160006101000a81548160ff0219169083151502179055503360058260405161221291906130c4565b908152602001604051809103902060006101000a81548173ffffffffffffffffffffffffffffffffffffffff021916908373ffffffffffffffffffffffffffffffffffffffff1602179055503373ffffffffffffffffffffffffffffffffffffffff167fee20c2c019dcbca8d08ff74c4ce6f465e02d3611905c9aceeb76a0c8e429af2f82426040516122a692919061334f565b60405180910390a250565b600260205281600052604060002081815481106122cd57600080fd5b90600052602060002001600091509150505481565b60608060608060608060606040518060400160405280600681526020017f41564154415200000000000000000000000000000000000000000000000000008152506040518060400160405280600781526020017f50494354555245000000000000000000000000000000000000000000000000008152506040518060400160405280600e81526020017f47454e455241544956455f4152540000000000000000000000000000000000008152506040518060400160405280600381526020017f41525400000000000000000000000000000000000000000000000000000000008152506040518060400160405280600c81526020017f434f4c4c45435449424c455300000000000000000000000000000000000000008152506040518060400160405280600881526020017f47414d49464945440000000000000000000000000000000000000000000000008152506040518060400160405280600581526020017f4f54484552000000000000000000000000000000000000000000000000000000815250965096509650965096509650965090919293949596565b6060600460003373ffffffffffffffffffffffffffffffffffffffff1673ffffffffffffffffffffffffffffffffffffffff16815260200190815260200160002060030160009054906101000a900460ff166040518060400160405280600581526020017f574d552d3200000000000000000000000000000000000000000000000000000081525090612547576040517f08c379a000000000000000000000000000000000000000000000000000000000815260040161253e91906131bd565b60405180910390fd5b50600460003373ffffffffffffffffffffffffffffffffffffffff1673ffffffffffffffffffffffffffffffffffffffff1681526020019081526020016000206000018054612595906135a4565b80601f01602080910402602001604051908101604052809291908181526020018280546125c1906135a4565b801561260e5780601f106125e35761010080835404028352916020019161260e565b820191906000526020600020905b8154815290600101906020018083116125f157829003601f168201915b5050505050905090565b8160008083815260200190815260200160002060030160006101000a81548173ffffffffffffffffffffffffffffffffffffffff021916908373ffffffffffffffffffffffffffffffffffffffff160217905550600160008373ffffffffffffffffffffffffffffffffffffffff1673ffffffffffffffffffffffffffffffffffffffff168152602001908152602001600020819080600181540180825580915050600190039060005260206000200160009091909190915055505050565b6060600360003373ffffffffffffffffffffffffffffffffffffffff1673ffffffffffffffffffffffffffffffffffffffff1681526020019081526020016000206000836006811115612753577f4e487b7100000000000000000000000000000000000000000000000000000000600052602160045260246000fd5b600681111561278b577f4e487b7100000000000000000000000000000000000000000000000000000000600052602160045260246000fd5b81526020019081526020016000208054806020026020016040519081016040528092919081815260200182805480156127e357602002820191906000526020600020905b8154815260200190600101908083116127cf575b50505050509050919050565b6003602052826000526040600020602052816000526040600020818154811061281757600080fd5b9060005260206000200160009250925050505481565b60606002600083600681111561286c577f4e487b7100000000000000000000000000000000000000000000000000000000600052602160045260246000fd5b60068111156128a4577f4e487b7100000000000000000000000000000000000000000000000000000000600052602160045260246000fd5b81526020019081526020016000208054806020026020016040519081016040528092919081815260200182805480156128fc57602002820191906000526020600020905b8154815260200190600101908083116128e8575b50505050509050919050565b6060600460003373ffffffffffffffffffffffffffffffffffffffff1673ffffffffffffffffffffffffffffffffffffffff1681526020019081526020016000206004018054612957906135a4565b80601f0160208091040260200160405190810160405280929190818152602001828054612983906135a4565b80156129d05780601f106129a5576101008083540402835291602001916129d0565b820191906000526020600020905b8154815290600101906020018083116129b357829003601f168201915b5050505050905090565b6000600460008373ffffffffffffffffffffffffffffffffffffffff1673ffffffffffffffffffffffffffffffffffffffff16815260200190815260200160002060030160009054906101000a900460ff169050919050565b60008282604051602001612a48929190613098565b60405160208183030381529060405280519060200120905092915050565b828054612a72906135a4565b90600052602060002090601f016020900481019282612a945760008555612adb565b82601f10612aad57805160ff1916838001178555612adb565b82800160010185558215612adb579182015b82811115612ada578251825591602001919060010190612abf565b5b509050612ae89190612b2c565b5090565b508054612af8906135a4565b6000825580601f10612b0a5750612b29565b601f016020900490600052602060002090810190612b289190612b2c565b5b50565b5b80821115612b45576000816000905550600101612b2d565b5090565b6000612b5c612b5784613404565b6133df565b905082815260208101848484011115612b7457600080fd5b612b7f848285613562565b509392505050565b600081359050612b9681613723565b92915050565b600081359050612bab8161373a565b92915050565b600081359050612bc081613751565b92915050565b600082601f830112612bd757600080fd5b8135612be7848260208601612b49565b91505092915050565b600081359050612bff81613761565b92915050565b600060208284031215612c1757600080fd5b6000612c2584828501612b87565b91505092915050565b600080600060608486031215612c4357600080fd5b6000612c5186828701612b87565b9350506020612c6286828701612b87565b9250506040612c7386828701612b9c565b9150509250925092565b600080600060608486031215612c9257600080fd5b6000612ca086828701612b87565b9350506020612cb186828701612bb1565b9250506040612cc286828701612bf0565b9150509250925092565b60008060408385031215612cdf57600080fd5b6000612ced85828601612b87565b9250506020612cfe85828601612bf0565b9150509250929050565b600080600060608486031215612d1d57600080fd5b6000612d2b86828701612b87565b9350506020612d3c86828701612bf0565b9250506040612d4d86828701612bb1565b9150509250925092565b600080600080600060a08688031215612d6f57600080fd5b6000612d7d88828901612b87565b9550506020612d8e88828901612bf0565b9450506040612d9f88828901612bf0565b9350506060612db088828901612bf0565b9250506080612dc188828901612bf0565b9150509295509295909350565b600060208284031215612de057600080fd5b6000612dee84828501612b9c565b91505092915050565b600060208284031215612e0957600080fd5b6000612e1784828501612bb1565b91505092915050565b60008060408385031215612e3357600080fd5b6000612e4185828601612bb1565b9250506020612e5285828601612bf0565b9150509250929050565b600060208284031215612e6e57600080fd5b600082013567ffffffffffffffff811115612e8857600080fd5b612e9484828501612bc6565b91505092915050565b60008060008060808587031215612eb357600080fd5b600085013567ffffffffffffffff811115612ecd57600080fd5b612ed987828801612bc6565b9450506020612eea87828801612b87565b9350506040612efb87828801612bf0565b925050606085013567ffffffffffffffff811115612f1857600080fd5b612f2487828801612bc6565b91505092959194509250565b6000612f3c8383612fdb565b60208301905092915050565b612f51816134eb565b82525050565b612f68612f63826134eb565b613607565b82525050565b6000612f7982613445565b612f838185613468565b9350612f8e83613435565b8060005b83811015612fbf578151612fa68882612f30565b9750612fb18361345b565b925050600181019050612f92565b5085935050505092915050565b612fd5816134fd565b82525050565b612fe481613509565b82525050565b612ff381613509565b82525050565b61300281613550565b82525050565b600061301382613450565b61301d8185613479565b935061302d818560208601613571565b613036816136f1565b840191505092915050565b600061304c82613450565b613056818561348a565b9350613066818560208601613571565b80840191505092915050565b61307b81613546565b82525050565b61309261308d82613546565b61362b565b82525050565b60006130a48285612f57565b6014820191506130b48284613081565b6020820191508190509392505050565b60006130d08284613041565b915081905092915050565b60006020820190506130f06000830184612f48565b92915050565b600060208201905081810360008301526131108184612f6e565b905092915050565b600060208201905061312d6000830184612fcc565b92915050565b60006020820190506131486000830184612fea565b92915050565b600060c0820190506131636000830189612fea565b6131706020830188612f48565b61317d6040830187613072565b818103606083015261318f8186613008565b905061319e6080830185612f48565b81810360a08301526131b08184613008565b9050979650505050505050565b600060208201905081810360008301526131d78184613008565b905092915050565b600060a08201905081810360008301526131f98188613008565b90506132086020830187612f48565b6132156040830186613072565b6132226060830185612f48565b81810360808301526132348184613008565b90509695505050505050565b600060c082019050818103600083015261325a8189613008565b90506132696020830188612f48565b6132766040830187613072565b6132836060830186612f48565b81810360808301526132958185613008565b90506132a460a0830184612ff9565b979650505050505050565b600060e08201905081810360008301526132c9818a613008565b905081810360208301526132dd8189613008565b905081810360408301526132f18188613008565b905081810360608301526133058187613008565b905081810360808301526133198186613008565b905081810360a083015261332d8185613008565b905081810360c08301526133418184613008565b905098975050505050505050565b600060408201905081810360008301526133698185613008565b90506133786020830184613072565b9392505050565b60006020820190506133946000830184613072565b92915050565b60006080820190506133af6000830187613072565b6133bc6020830186613072565b6133c96040830185613072565b6133d66060830184613072565b95945050505050565b60006133e96133fa565b90506133f582826135d6565b919050565b6000604051905090565b600067ffffffffffffffff82111561341f5761341e6136c2565b5b613428826136f1565b9050602081019050919050565b6000819050602082019050919050565b600081519050919050565b600081519050919050565b6000602082019050919050565b600082825260208201905092915050565b600082825260208201905092915050565b600081905092915050565b60006134a082613546565b91506134ab83613546565b9250827fffffffffffffffffffffffffffffffffffffffffffffffffffffffffffffffff038211156134e0576134df613635565b5b828201905092915050565b60006134f682613526565b9050919050565b60008115159050919050565b6000819050919050565b60008190506135218261370f565b919050565b600073ffffffffffffffffffffffffffffffffffffffff82169050919050565b6000819050919050565b600061355b82613513565b9050919050565b82818337600083830152505050565b60005b8381101561358f578082015181840152602081019050613574565b8381111561359e576000848401525b50505050565b600060028204905060018216806135bc57607f821691505b602082108114156135d0576135cf613693565b5b50919050565b6135df826136f1565b810181811067ffffffffffffffff821117156135fe576135fd6136c2565b5b80604052505050565b600061361282613619565b9050919050565b600061362482613702565b9050919050565b6000819050919050565b7f4e487b7100000000000000000000000000000000000000000000000000000000600052601160045260246000fd5b7f4e487b7100000000000000000000000000000000000000000000000000000000600052602160045260246000fd5b7f4e487b7100000000000000000000000000000000000000000000000000000000600052602260045260246000fd5b7f4e487b7100000000000000000000000000000000000000000000000000000000600052604160045260246000fd5b6000601f19601f8301169050919050565b60008160601b9050919050565b600781106137205761371f613664565b5b50565b61372c816134eb565b811461373757600080fd5b50565b61374381613509565b811461374e57600080fd5b50565b6007811061375e57600080fd5b50565b61376a81613546565b811461377557600080fd5b5056fea2646970667358221220fcaa9b86c5f17e856b9d95b8b4d28b1022db869911fb3d2b26ae2ad85ebfac2564736f6c63430008040033",
					"opcodes": "PUSH1 0x80 PUSH1 0x40 MSTORE CALLVALUE DUP1 ISZERO PUSH2 0x10 JUMPI PUSH1 0x0 DUP1 REVERT JUMPDEST POP PUSH2 0x37AE DUP1 PUSH2 0x20 PUSH1 0x0 CODECOPY PUSH1 0x0 RETURN INVALID PUSH1 0x80 PUSH1 0x40 MSTORE CALLVALUE DUP1 ISZERO PUSH2 0x10 JUMPI PUSH1 0x0 DUP1 REVERT JUMPDEST POP PUSH1 0x4 CALLDATASIZE LT PUSH2 0x18E JUMPI PUSH1 0x0 CALLDATALOAD PUSH1 0xE0 SHR DUP1 PUSH4 0x7111E750 GT PUSH2 0xDE JUMPI DUP1 PUSH4 0xC1562547 GT PUSH2 0x97 JUMPI DUP1 PUSH4 0xDC9151C5 GT PUSH2 0x71 JUMPI DUP1 PUSH4 0xDC9151C5 EQ PUSH2 0x4BF JUMPI DUP1 PUSH4 0xE36D6F50 EQ PUSH2 0x4EF JUMPI DUP1 PUSH4 0xEB972008 EQ PUSH2 0x51F JUMPI DUP1 PUSH4 0xF6F2EDE0 EQ PUSH2 0x53D JUMPI PUSH2 0x18E JUMP JUMPDEST DUP1 PUSH4 0xC1562547 EQ PUSH2 0x455 JUMPI DUP1 PUSH4 0xCEDA3B20 EQ PUSH2 0x473 JUMPI DUP1 PUSH4 0xDA31F722 EQ PUSH2 0x48F JUMPI PUSH2 0x18E JUMP JUMPDEST DUP1 PUSH4 0x7111E750 EQ PUSH2 0x363 JUMPI DUP1 PUSH4 0x894FD813 EQ PUSH2 0x396 JUMPI DUP1 PUSH4 0x8A1B9736 EQ PUSH2 0x3B2 JUMPI DUP1 PUSH4 0xADCFB4FC EQ PUSH2 0x3E5 JUMPI DUP1 PUSH4 0xB2CF1886 EQ PUSH2 0x401 JUMPI DUP1 PUSH4 0xBBC53EF2 EQ PUSH2 0x431 JUMPI PUSH2 0x18E JUMP JUMPDEST DUP1 PUSH4 0x2AE23109 GT PUSH2 0x14B JUMPI DUP1 PUSH4 0x4BE422AE GT PUSH2 0x125 JUMPI DUP1 PUSH4 0x4BE422AE EQ PUSH2 0x2DD JUMPI DUP1 PUSH4 0x5CB0122A EQ PUSH2 0x2E7 JUMPI DUP1 PUSH4 0x6C608709 EQ PUSH2 0x317 JUMPI DUP1 PUSH4 0x6E9D4F8D EQ PUSH2 0x347 JUMPI PUSH2 0x18E JUMP JUMPDEST DUP1 PUSH4 0x2AE23109 EQ PUSH2 0x283 JUMPI DUP1 PUSH4 0x377B47A3 EQ PUSH2 0x29F JUMPI DUP1 PUSH4 0x3A196986 EQ PUSH2 0x2A9 JUMPI PUSH2 0x18E JUMP JUMPDEST DUP1 PUSH4 0x11F2CCE EQ PUSH2 0x193 JUMPI DUP1 PUSH4 0x26FF05E EQ PUSH2 0x1AF JUMPI DUP1 PUSH4 0x7EDBDC5 EQ PUSH2 0x1CD JUMPI DUP1 PUSH4 0xB4F12F6 EQ PUSH2 0x202 JUMPI DUP1 PUSH4 0x1C6932B6 EQ PUSH2 0x21E JUMPI DUP1 PUSH4 0x23E583B4 EQ PUSH2 0x253 JUMPI JUMPDEST PUSH1 0x0 DUP1 REVERT JUMPDEST PUSH2 0x1AD PUSH1 0x4 DUP1 CALLDATASIZE SUB DUP2 ADD SWAP1 PUSH2 0x1A8 SWAP2 SWAP1 PUSH2 0x2E5C JUMP JUMPDEST PUSH2 0x56D JUMP JUMPDEST STOP JUMPDEST PUSH2 0x1B7 PUSH2 0x68F JUMP JUMPDEST PUSH1 0x40 MLOAD PUSH2 0x1C4 SWAP2 SWAP1 PUSH2 0x3118 JUMP JUMPDEST PUSH1 0x40 MLOAD DUP1 SWAP2 SUB SWAP1 RETURN JUMPDEST PUSH2 0x1E7 PUSH1 0x4 DUP1 CALLDATASIZE SUB DUP2 ADD SWAP1 PUSH2 0x1E2 SWAP2 SWAP1 PUSH2 0x2DCE JUMP JUMPDEST PUSH2 0x903 JUMP JUMPDEST PUSH1 0x40 MLOAD PUSH2 0x1F9 SWAP7 SWAP6 SWAP5 SWAP4 SWAP3 SWAP2 SWAP1 PUSH2 0x3240 JUMP JUMPDEST PUSH1 0x40 MLOAD DUP1 SWAP2 SUB SWAP1 RETURN JUMPDEST PUSH2 0x21C PUSH1 0x4 DUP1 CALLDATASIZE SUB DUP2 ADD SWAP1 PUSH2 0x217 SWAP2 SWAP1 PUSH2 0x2E5C JUMP JUMPDEST PUSH2 0xA9C JUMP JUMPDEST STOP JUMPDEST PUSH2 0x238 PUSH1 0x4 DUP1 CALLDATASIZE SUB DUP2 ADD SWAP1 PUSH2 0x233 SWAP2 SWAP1 PUSH2 0x2CCC JUMP JUMPDEST PUSH2 0xE12 JUMP JUMPDEST PUSH1 0x40 MLOAD PUSH2 0x24A SWAP7 SWAP6 SWAP5 SWAP4 SWAP3 SWAP2 SWAP1 PUSH2 0x314E JUMP JUMPDEST PUSH1 0x40 MLOAD DUP1 SWAP2 SUB SWAP1 RETURN JUMPDEST PUSH2 0x26D PUSH1 0x4 DUP1 CALLDATASIZE SUB DUP2 ADD SWAP1 PUSH2 0x268 SWAP2 SWAP1 PUSH2 0x2CCC JUMP JUMPDEST PUSH2 0x1007 JUMP JUMPDEST PUSH1 0x40 MLOAD PUSH2 0x27A SWAP2 SWAP1 PUSH2 0x3133 JUMP JUMPDEST PUSH1 0x40 MLOAD DUP1 SWAP2 SUB SWAP1 RETURN JUMPDEST PUSH2 0x29D PUSH1 0x4 DUP1 CALLDATASIZE SUB DUP2 ADD SWAP1 PUSH2 0x298 SWAP2 SWAP1 PUSH2 0x2D08 JUMP JUMPDEST PUSH2 0x1038 JUMP JUMPDEST STOP JUMPDEST PUSH2 0x2A7 PUSH2 0x1374 JUMP JUMPDEST STOP JUMPDEST PUSH2 0x2C3 PUSH1 0x4 DUP1 CALLDATASIZE SUB DUP2 ADD SWAP1 PUSH2 0x2BE SWAP2 SWAP1 PUSH2 0x2DCE JUMP JUMPDEST PUSH2 0x15B0 JUMP JUMPDEST PUSH1 0x40 MLOAD PUSH2 0x2D4 SWAP6 SWAP5 SWAP4 SWAP3 SWAP2 SWAP1 PUSH2 0x31DF JUMP JUMPDEST PUSH1 0x40 MLOAD DUP1 SWAP2 SUB SWAP1 RETURN JUMPDEST PUSH2 0x2E5 PUSH2 0x1796 JUMP JUMPDEST STOP JUMPDEST PUSH2 0x301 PUSH1 0x4 DUP1 CALLDATASIZE SUB DUP2 ADD SWAP1 PUSH2 0x2FC SWAP2 SWAP1 PUSH2 0x2C05 JUMP JUMPDEST PUSH2 0x1909 JUMP JUMPDEST PUSH1 0x40 MLOAD PUSH2 0x30E SWAP2 SWAP1 PUSH2 0x30F6 JUMP JUMPDEST PUSH1 0x40 MLOAD DUP1 SWAP2 SUB SWAP1 RETURN JUMPDEST PUSH2 0x331 PUSH1 0x4 DUP1 CALLDATASIZE SUB DUP2 ADD SWAP1 PUSH2 0x32C SWAP2 SWAP1 PUSH2 0x2E5C JUMP JUMPDEST PUSH2 0x19A0 JUMP JUMPDEST PUSH1 0x40 MLOAD PUSH2 0x33E SWAP2 SWAP1 PUSH2 0x30DB JUMP JUMPDEST PUSH1 0x40 MLOAD DUP1 SWAP2 SUB SWAP1 RETURN JUMPDEST PUSH2 0x361 PUSH1 0x4 DUP1 CALLDATASIZE SUB DUP2 ADD SWAP1 PUSH2 0x35C SWAP2 SWAP1 PUSH2 0x2E9D JUMP JUMPDEST PUSH2 0x19E9 JUMP JUMPDEST STOP JUMPDEST PUSH2 0x37D PUSH1 0x4 DUP1 CALLDATASIZE SUB DUP2 ADD SWAP1 PUSH2 0x378 SWAP2 SWAP1 PUSH2 0x2C05 JUMP JUMPDEST PUSH2 0x1C42 JUMP JUMPDEST PUSH1 0x40 MLOAD PUSH2 0x38D SWAP5 SWAP4 SWAP3 SWAP2 SWAP1 PUSH2 0x339A JUMP JUMPDEST PUSH1 0x40 MLOAD DUP1 SWAP2 SUB SWAP1 RETURN JUMPDEST PUSH2 0x3B0 PUSH1 0x4 DUP1 CALLDATASIZE SUB DUP2 ADD SWAP1 PUSH2 0x3AB SWAP2 SWAP1 PUSH2 0x2D57 JUMP JUMPDEST PUSH2 0x1C72 JUMP JUMPDEST STOP JUMPDEST PUSH2 0x3CC PUSH1 0x4 DUP1 CALLDATASIZE SUB DUP2 ADD SWAP1 PUSH2 0x3C7 SWAP2 SWAP1 PUSH2 0x2C05 JUMP JUMPDEST PUSH2 0x1DDD JUMP JUMPDEST PUSH1 0x40 MLOAD PUSH2 0x3DC SWAP5 SWAP4 SWAP3 SWAP2 SWAP1 PUSH2 0x339A JUMP JUMPDEST PUSH1 0x40 MLOAD DUP1 SWAP2 SUB SWAP1 RETURN JUMPDEST PUSH2 0x3FF PUSH1 0x4 DUP1 CALLDATASIZE SUB DUP2 ADD SWAP1 PUSH2 0x3FA SWAP2 SWAP1 PUSH2 0x2E5C JUMP JUMPDEST PUSH2 0x1EFE JUMP JUMPDEST STOP JUMPDEST PUSH2 0x41B PUSH1 0x4 DUP1 CALLDATASIZE SUB DUP2 ADD SWAP1 PUSH2 0x416 SWAP2 SWAP1 PUSH2 0x2E20 JUMP JUMPDEST PUSH2 0x22B1 JUMP JUMPDEST PUSH1 0x40 MLOAD PUSH2 0x428 SWAP2 SWAP1 PUSH2 0x3133 JUMP JUMPDEST PUSH1 0x40 MLOAD DUP1 SWAP2 SUB SWAP1 RETURN JUMPDEST PUSH2 0x439 PUSH2 0x22E2 JUMP JUMPDEST PUSH1 0x40 MLOAD PUSH2 0x44C SWAP8 SWAP7 SWAP6 SWAP5 SWAP4 SWAP3 SWAP2 SWAP1 PUSH2 0x32AF JUMP JUMPDEST PUSH1 0x40 MLOAD DUP1 SWAP2 SUB SWAP1 RETURN JUMPDEST PUSH2 0x45D PUSH2 0x247E JUMP JUMPDEST PUSH1 0x40 MLOAD PUSH2 0x46A SWAP2 SWAP1 PUSH2 0x31BD JUMP JUMPDEST PUSH1 0x40 MLOAD DUP1 SWAP2 SUB SWAP1 RETURN JUMPDEST PUSH2 0x48D PUSH1 0x4 DUP1 CALLDATASIZE SUB DUP2 ADD SWAP1 PUSH2 0x488 SWAP2 SWAP1 PUSH2 0x2C2E JUMP JUMPDEST PUSH2 0x2618 JUMP JUMPDEST STOP JUMPDEST PUSH2 0x4A9 PUSH1 0x4 DUP1 CALLDATASIZE SUB DUP2 ADD SWAP1 PUSH2 0x4A4 SWAP2 SWAP1 PUSH2 0x2DF7 JUMP JUMPDEST PUSH2 0x26D7 JUMP JUMPDEST PUSH1 0x40 MLOAD PUSH2 0x4B6 SWAP2 SWAP1 PUSH2 0x30F6 JUMP JUMPDEST PUSH1 0x40 MLOAD DUP1 SWAP2 SUB SWAP1 RETURN JUMPDEST PUSH2 0x4D9 PUSH1 0x4 DUP1 CALLDATASIZE SUB DUP2 ADD SWAP1 PUSH2 0x4D4 SWAP2 SWAP1 PUSH2 0x2C7D JUMP JUMPDEST PUSH2 0x27EF JUMP JUMPDEST PUSH1 0x40 MLOAD PUSH2 0x4E6 SWAP2 SWAP1 PUSH2 0x3133 JUMP JUMPDEST PUSH1 0x40 MLOAD DUP1 SWAP2 SUB SWAP1 RETURN JUMPDEST PUSH2 0x509 PUSH1 0x4 DUP1 CALLDATASIZE SUB DUP2 ADD SWAP1 PUSH2 0x504 SWAP2 SWAP1 PUSH2 0x2DF7 JUMP JUMPDEST PUSH2 0x282D JUMP JUMPDEST PUSH1 0x40 MLOAD PUSH2 0x516 SWAP2 SWAP1 PUSH2 0x30F6 JUMP JUMPDEST PUSH1 0x40 MLOAD DUP1 SWAP2 SUB SWAP1 RETURN JUMPDEST PUSH2 0x527 PUSH2 0x2908 JUMP JUMPDEST PUSH1 0x40 MLOAD PUSH2 0x534 SWAP2 SWAP1 PUSH2 0x31BD JUMP JUMPDEST PUSH1 0x40 MLOAD DUP1 SWAP2 SUB SWAP1 RETURN JUMPDEST PUSH2 0x557 PUSH1 0x4 DUP1 CALLDATASIZE SUB DUP2 ADD SWAP1 PUSH2 0x552 SWAP2 SWAP1 PUSH2 0x2C05 JUMP JUMPDEST PUSH2 0x29DA JUMP JUMPDEST PUSH1 0x40 MLOAD PUSH2 0x564 SWAP2 SWAP1 PUSH2 0x3118 JUMP JUMPDEST PUSH1 0x40 MLOAD DUP1 SWAP2 SUB SWAP1 RETURN JUMPDEST PUSH1 0x4 PUSH1 0x0 CALLER PUSH20 0xFFFFFFFFFFFFFFFFFFFFFFFFFFFFFFFFFFFFFFFF AND PUSH20 0xFFFFFFFFFFFFFFFFFFFFFFFFFFFFFFFFFFFFFFFF AND DUP2 MSTORE PUSH1 0x20 ADD SWAP1 DUP2 MSTORE PUSH1 0x20 ADD PUSH1 0x0 KECCAK256 PUSH1 0x3 ADD PUSH1 0x0 SWAP1 SLOAD SWAP1 PUSH2 0x100 EXP SWAP1 DIV PUSH1 0xFF AND PUSH1 0x40 MLOAD DUP1 PUSH1 0x40 ADD PUSH1 0x40 MSTORE DUP1 PUSH1 0x5 DUP2 MSTORE PUSH1 0x20 ADD PUSH32 0x574D552D32000000000000000000000000000000000000000000000000000000 DUP2 MSTORE POP SWAP1 PUSH2 0x634 JUMPI PUSH1 0x40 MLOAD PUSH32 0x8C379A000000000000000000000000000000000000000000000000000000000 DUP2 MSTORE PUSH1 0x4 ADD PUSH2 0x62B SWAP2 SWAP1 PUSH2 0x31BD JUMP JUMPDEST PUSH1 0x40 MLOAD DUP1 SWAP2 SUB SWAP1 REVERT JUMPDEST POP DUP1 PUSH1 0x4 PUSH1 0x0 CALLER PUSH20 0xFFFFFFFFFFFFFFFFFFFFFFFFFFFFFFFFFFFFFFFF AND PUSH20 0xFFFFFFFFFFFFFFFFFFFFFFFFFFFFFFFFFFFFFFFF AND DUP2 MSTORE PUSH1 0x20 ADD SWAP1 DUP2 MSTORE PUSH1 0x20 ADD PUSH1 0x0 KECCAK256 PUSH1 0x4 ADD SWAP1 DUP1 MLOAD SWAP1 PUSH1 0x20 ADD SWAP1 PUSH2 0x68B SWAP3 SWAP2 SWAP1 PUSH2 0x2A66 JUMP JUMPDEST POP POP JUMP JUMPDEST PUSH1 0x0 PUSH1 0x4 PUSH1 0x0 CALLER PUSH20 0xFFFFFFFFFFFFFFFFFFFFFFFFFFFFFFFFFFFFFFFF AND PUSH20 0xFFFFFFFFFFFFFFFFFFFFFFFFFFFFFFFFFFFFFFFF AND DUP2 MSTORE PUSH1 0x20 ADD SWAP1 DUP2 MSTORE PUSH1 0x20 ADD PUSH1 0x0 KECCAK256 PUSH1 0x1 ADD PUSH1 0x0 SWAP1 SLOAD SWAP1 PUSH2 0x100 EXP SWAP1 DIV PUSH1 0xFF AND PUSH1 0x40 MLOAD DUP1 PUSH1 0x40 ADD PUSH1 0x40 MSTORE DUP1 PUSH1 0x5 DUP2 MSTORE PUSH1 0x20 ADD PUSH32 0x574D552D35000000000000000000000000000000000000000000000000000000 DUP2 MSTORE POP SWAP1 PUSH2 0x758 JUMPI PUSH1 0x40 MLOAD PUSH32 0x8C379A000000000000000000000000000000000000000000000000000000000 DUP2 MSTORE PUSH1 0x4 ADD PUSH2 0x74F SWAP2 SWAP1 PUSH2 0x31BD JUMP JUMPDEST PUSH1 0x40 MLOAD DUP1 SWAP2 SUB SWAP1 REVERT JUMPDEST POP PUSH1 0x0 PUSH1 0x4 PUSH1 0x0 CALLER PUSH20 0xFFFFFFFFFFFFFFFFFFFFFFFFFFFFFFFFFFFFFFFF AND PUSH20 0xFFFFFFFFFFFFFFFFFFFFFFFFFFFFFFFFFFFFFFFF AND DUP2 MSTORE PUSH1 0x20 ADD SWAP1 DUP2 MSTORE PUSH1 0x20 ADD PUSH1 0x0 KECCAK256 PUSH1 0x0 ADD DUP1 SLOAD PUSH2 0x7A8 SWAP1 PUSH2 0x35A4 JUMP JUMPDEST DUP1 PUSH1 0x1F ADD PUSH1 0x20 DUP1 SWAP2 DIV MUL PUSH1 0x20 ADD PUSH1 0x40 MLOAD SWAP1 DUP2 ADD PUSH1 0x40 MSTORE DUP1 SWAP3 SWAP2 SWAP1 DUP2 DUP2 MSTORE PUSH1 0x20 ADD DUP3 DUP1 SLOAD PUSH2 0x7D4 SWAP1 PUSH2 0x35A4 JUMP JUMPDEST DUP1 ISZERO PUSH2 0x821 JUMPI DUP1 PUSH1 0x1F LT PUSH2 0x7F6 JUMPI PUSH2 0x100 DUP1 DUP4 SLOAD DIV MUL DUP4 MSTORE SWAP2 PUSH1 0x20 ADD SWAP2 PUSH2 0x821 JUMP JUMPDEST DUP3 ADD SWAP2 SWAP1 PUSH1 0x0 MSTORE PUSH1 0x20 PUSH1 0x0 KECCAK256 SWAP1 JUMPDEST DUP2 SLOAD DUP2 MSTORE SWAP1 PUSH1 0x1 ADD SWAP1 PUSH1 0x20 ADD DUP1 DUP4 GT PUSH2 0x804 JUMPI DUP3 SWAP1 SUB PUSH1 0x1F AND DUP3 ADD SWAP2 JUMPDEST POP POP POP POP POP SWAP1 POP PUSH1 0x5 DUP2 PUSH1 0x40 MLOAD PUSH2 0x838 SWAP2 SWAP1 PUSH2 0x30C4 JUMP JUMPDEST SWAP1 DUP2 MSTORE PUSH1 0x20 ADD PUSH1 0x40 MLOAD DUP1 SWAP2 SUB SWAP1 KECCAK256 PUSH1 0x0 PUSH2 0x100 EXP DUP2 SLOAD SWAP1 PUSH20 0xFFFFFFFFFFFFFFFFFFFFFFFFFFFFFFFFFFFFFFFF MUL NOT AND SWAP1 SSTORE PUSH1 0x4 PUSH1 0x0 CALLER PUSH20 0xFFFFFFFFFFFFFFFFFFFFFFFFFFFFFFFFFFFFFFFF AND PUSH20 0xFFFFFFFFFFFFFFFFFFFFFFFFFFFFFFFFFFFFFFFF AND DUP2 MSTORE PUSH1 0x20 ADD SWAP1 DUP2 MSTORE PUSH1 0x20 ADD PUSH1 0x0 KECCAK256 PUSH1 0x0 DUP1 DUP3 ADD PUSH1 0x0 PUSH2 0x8B9 SWAP2 SWAP1 PUSH2 0x2AEC JUMP JUMPDEST PUSH1 0x1 DUP3 ADD PUSH1 0x0 PUSH2 0x100 EXP DUP2 SLOAD SWAP1 PUSH1 0xFF MUL NOT AND SWAP1 SSTORE PUSH1 0x2 DUP3 ADD PUSH1 0x0 SWAP1 SSTORE PUSH1 0x3 DUP3 ADD PUSH1 0x0 PUSH2 0x100 EXP DUP2 SLOAD SWAP1 PUSH1 0xFF MUL NOT AND SWAP1 SSTORE PUSH1 0x4 DUP3 ADD PUSH1 0x0 PUSH2 0x8F9 SWAP2 SWAP1 PUSH2 0x2AEC JUMP JUMPDEST POP POP PUSH1 0x1 SWAP2 POP POP SWAP1 JUMP JUMPDEST PUSH1 0x0 PUSH1 0x20 MSTORE DUP1 PUSH1 0x0 MSTORE PUSH1 0x40 PUSH1 0x0 KECCAK256 PUSH1 0x0 SWAP2 POP SWAP1 POP DUP1 PUSH1 0x0 ADD DUP1 SLOAD PUSH2 0x926 SWAP1 PUSH2 0x35A4 JUMP JUMPDEST DUP1 PUSH1 0x1F ADD PUSH1 0x20 DUP1 SWAP2 DIV MUL PUSH1 0x20 ADD PUSH1 0x40 MLOAD SWAP1 DUP2 ADD PUSH1 0x40 MSTORE DUP1 SWAP3 SWAP2 SWAP1 DUP2 DUP2 MSTORE PUSH1 0x20 ADD DUP3 DUP1 SLOAD PUSH2 0x952 SWAP1 PUSH2 0x35A4 JUMP JUMPDEST DUP1 ISZERO PUSH2 0x99F JUMPI DUP1 PUSH1 0x1F LT PUSH2 0x974 JUMPI PUSH2 0x100 DUP1 DUP4 SLOAD DIV MUL DUP4 MSTORE SWAP2 PUSH1 0x20 ADD SWAP2 PUSH2 0x99F JUMP JUMPDEST DUP3 ADD SWAP2 SWAP1 PUSH1 0x0 MSTORE PUSH1 0x20 PUSH1 0x0 KECCAK256 SWAP1 JUMPDEST DUP2 SLOAD DUP2 MSTORE SWAP1 PUSH1 0x1 ADD SWAP1 PUSH1 0x20 ADD DUP1 DUP4 GT PUSH2 0x982 JUMPI DUP3 SWAP1 SUB PUSH1 0x1F AND DUP3 ADD SWAP2 JUMPDEST POP POP POP POP POP SWAP1 DUP1 PUSH1 0x1 ADD PUSH1 0x0 SWAP1 SLOAD SWAP1 PUSH2 0x100 EXP SWAP1 DIV PUSH20 0xFFFFFFFFFFFFFFFFFFFFFFFFFFFFFFFFFFFFFFFF AND SWAP1 DUP1 PUSH1 0x2 ADD SLOAD SWAP1 DUP1 PUSH1 0x3 ADD PUSH1 0x0 SWAP1 SLOAD SWAP1 PUSH2 0x100 EXP SWAP1 DIV PUSH20 0xFFFFFFFFFFFFFFFFFFFFFFFFFFFFFFFFFFFFFFFF AND SWAP1 DUP1 PUSH1 0x4 ADD DUP1 SLOAD PUSH2 0xA06 SWAP1 PUSH2 0x35A4 JUMP JUMPDEST DUP1 PUSH1 0x1F ADD PUSH1 0x20 DUP1 SWAP2 DIV MUL PUSH1 0x20 ADD PUSH1 0x40 MLOAD SWAP1 DUP2 ADD PUSH1 0x40 MSTORE DUP1 SWAP3 SWAP2 SWAP1 DUP2 DUP2 MSTORE PUSH1 0x20 ADD DUP3 DUP1 SLOAD PUSH2 0xA32 SWAP1 PUSH2 0x35A4 JUMP JUMPDEST DUP1 ISZERO PUSH2 0xA7F JUMPI DUP1 PUSH1 0x1F LT PUSH2 0xA54 JUMPI PUSH2 0x100 DUP1 DUP4 SLOAD DIV MUL DUP4 MSTORE SWAP2 PUSH1 0x20 ADD SWAP2 PUSH2 0xA7F JUMP JUMPDEST DUP3 ADD SWAP2 SWAP1 PUSH1 0x0 MSTORE PUSH1 0x20 PUSH1 0x0 KECCAK256 SWAP1 JUMPDEST DUP2 SLOAD DUP2 MSTORE SWAP1 PUSH1 0x1 ADD SWAP1 PUSH1 0x20 ADD DUP1 DUP4 GT PUSH2 0xA62 JUMPI DUP3 SWAP1 SUB PUSH1 0x1F AND DUP3 ADD SWAP2 JUMPDEST POP POP POP POP POP SWAP1 DUP1 PUSH1 0x5 ADD PUSH1 0x0 SWAP1 SLOAD SWAP1 PUSH2 0x100 EXP SWAP1 DIV PUSH1 0xFF AND SWAP1 POP DUP7 JUMP JUMPDEST PUSH1 0x4 PUSH1 0x0 CALLER PUSH20 0xFFFFFFFFFFFFFFFFFFFFFFFFFFFFFFFFFFFFFFFF AND PUSH20 0xFFFFFFFFFFFFFFFFFFFFFFFFFFFFFFFFFFFFFFFF AND DUP2 MSTORE PUSH1 0x20 ADD SWAP1 DUP2 MSTORE PUSH1 0x20 ADD PUSH1 0x0 KECCAK256 PUSH1 0x3 ADD PUSH1 0x0 SWAP1 SLOAD SWAP1 PUSH2 0x100 EXP SWAP1 DIV PUSH1 0xFF AND PUSH1 0x40 MLOAD DUP1 PUSH1 0x40 ADD PUSH1 0x40 MSTORE DUP1 PUSH1 0x5 DUP2 MSTORE PUSH1 0x20 ADD PUSH32 0x574D552D32000000000000000000000000000000000000000000000000000000 DUP2 MSTORE POP SWAP1 PUSH2 0xB63 JUMPI PUSH1 0x40 MLOAD PUSH32 0x8C379A000000000000000000000000000000000000000000000000000000000 DUP2 MSTORE PUSH1 0x4 ADD PUSH2 0xB5A SWAP2 SWAP1 PUSH2 0x31BD JUMP JUMPDEST PUSH1 0x40 MLOAD DUP1 SWAP2 SUB SWAP1 REVERT JUMPDEST POP PUSH1 0x0 PUSH20 0xFFFFFFFFFFFFFFFFFFFFFFFFFFFFFFFFFFFFFFFF AND PUSH1 0x5 DUP3 PUSH1 0x40 MLOAD PUSH2 0xB8C SWAP2 SWAP1 PUSH2 0x30C4 JUMP JUMPDEST SWAP1 DUP2 MSTORE PUSH1 0x20 ADD PUSH1 0x40 MLOAD DUP1 SWAP2 SUB SWAP1 KECCAK256 PUSH1 0x0 SWAP1 SLOAD SWAP1 PUSH2 0x100 EXP SWAP1 DIV PUSH20 0xFFFFFFFFFFFFFFFFFFFFFFFFFFFFFFFFFFFFFFFF AND PUSH20 0xFFFFFFFFFFFFFFFFFFFFFFFFFFFFFFFFFFFFFFFF AND EQ PUSH1 0x40 MLOAD DUP1 PUSH1 0x40 ADD PUSH1 0x40 MSTORE DUP1 PUSH1 0x5 DUP2 MSTORE PUSH1 0x20 ADD PUSH32 0x574D552D36000000000000000000000000000000000000000000000000000000 DUP2 MSTORE POP SWAP1 PUSH2 0xC49 JUMPI PUSH1 0x40 MLOAD PUSH32 0x8C379A000000000000000000000000000000000000000000000000000000000 DUP2 MSTORE PUSH1 0x4 ADD PUSH2 0xC40 SWAP2 SWAP1 PUSH2 0x31BD JUMP JUMPDEST PUSH1 0x40 MLOAD DUP1 SWAP2 SUB SWAP1 REVERT JUMPDEST POP PUSH1 0x0 PUSH1 0x4 PUSH1 0x0 CALLER PUSH20 0xFFFFFFFFFFFFFFFFFFFFFFFFFFFFFFFFFFFFFFFF AND PUSH20 0xFFFFFFFFFFFFFFFFFFFFFFFFFFFFFFFFFFFFFFFF AND DUP2 MSTORE PUSH1 0x20 ADD SWAP1 DUP2 MSTORE PUSH1 0x20 ADD PUSH1 0x0 KECCAK256 PUSH1 0x0 ADD DUP1 SLOAD PUSH2 0xC99 SWAP1 PUSH2 0x35A4 JUMP JUMPDEST DUP1 PUSH1 0x1F ADD PUSH1 0x20 DUP1 SWAP2 DIV MUL PUSH1 0x20 ADD PUSH1 0x40 MLOAD SWAP1 DUP2 ADD PUSH1 0x40 MSTORE DUP1 SWAP3 SWAP2 SWAP1 DUP2 DUP2 MSTORE PUSH1 0x20 ADD DUP3 DUP1 SLOAD PUSH2 0xCC5 SWAP1 PUSH2 0x35A4 JUMP JUMPDEST DUP1 ISZERO PUSH2 0xD12 JUMPI DUP1 PUSH1 0x1F LT PUSH2 0xCE7 JUMPI PUSH2 0x100 DUP1 DUP4 SLOAD DIV MUL DUP4 MSTORE SWAP2 PUSH1 0x20 ADD SWAP2 PUSH2 0xD12 JUMP JUMPDEST DUP3 ADD SWAP2 SWAP1 PUSH1 0x0 MSTORE PUSH1 0x20 PUSH1 0x0 KECCAK256 SWAP1 JUMPDEST DUP2 SLOAD DUP2 MSTORE SWAP1 PUSH1 0x1 ADD SWAP1 PUSH1 0x20 ADD DUP1 DUP4 GT PUSH2 0xCF5 JUMPI DUP3 SWAP1 SUB PUSH1 0x1F AND DUP3 ADD SWAP2 JUMPDEST POP POP POP POP POP SWAP1 POP PUSH1 0x5 DUP2 PUSH1 0x40 MLOAD PUSH2 0xD29 SWAP2 SWAP1 PUSH2 0x30C4 JUMP JUMPDEST SWAP1 DUP2 MSTORE PUSH1 0x20 ADD PUSH1 0x40 MLOAD DUP1 SWAP2 SUB SWAP1 KECCAK256 PUSH1 0x0 PUSH2 0x100 EXP DUP2 SLOAD SWAP1 PUSH20 0xFFFFFFFFFFFFFFFFFFFFFFFFFFFFFFFFFFFFFFFF MUL NOT AND SWAP1 SSTORE CALLER PUSH1 0x5 DUP4 PUSH1 0x40 MLOAD PUSH2 0xD6B SWAP2 SWAP1 PUSH2 0x30C4 JUMP JUMPDEST SWAP1 DUP2 MSTORE PUSH1 0x20 ADD PUSH1 0x40 MLOAD DUP1 SWAP2 SUB SWAP1 KECCAK256 PUSH1 0x0 PUSH2 0x100 EXP DUP2 SLOAD DUP2 PUSH20 0xFFFFFFFFFFFFFFFFFFFFFFFFFFFFFFFFFFFFFFFF MUL NOT AND SWAP1 DUP4 PUSH20 0xFFFFFFFFFFFFFFFFFFFFFFFFFFFFFFFFFFFFFFFF AND MUL OR SWAP1 SSTORE POP DUP2 PUSH1 0x4 PUSH1 0x0 CALLER PUSH20 0xFFFFFFFFFFFFFFFFFFFFFFFFFFFFFFFFFFFFFFFF AND PUSH20 0xFFFFFFFFFFFFFFFFFFFFFFFFFFFFFFFFFFFFFFFF AND DUP2 MSTORE PUSH1 0x20 ADD SWAP1 DUP2 MSTORE PUSH1 0x20 ADD PUSH1 0x0 KECCAK256 PUSH1 0x0 ADD SWAP1 DUP1 MLOAD SWAP1 PUSH1 0x20 ADD SWAP1 PUSH2 0xE0D SWAP3 SWAP2 SWAP1 PUSH2 0x2A66 JUMP JUMPDEST POP POP POP JUMP JUMPDEST PUSH1 0x0 DUP1 PUSH1 0x0 PUSH1 0x60 PUSH1 0x0 PUSH1 0x60 PUSH1 0x0 PUSH2 0xE29 DUP10 DUP10 PUSH2 0x2A33 JUMP JUMPDEST SWAP1 POP DUP1 PUSH1 0x0 DUP1 DUP4 DUP2 MSTORE PUSH1 0x20 ADD SWAP1 DUP2 MSTORE PUSH1 0x20 ADD PUSH1 0x0 KECCAK256 PUSH1 0x1 ADD PUSH1 0x0 SWAP1 SLOAD SWAP1 PUSH2 0x100 EXP SWAP1 DIV PUSH20 0xFFFFFFFFFFFFFFFFFFFFFFFFFFFFFFFFFFFFFFFF AND PUSH1 0x0 DUP1 DUP5 DUP2 MSTORE PUSH1 0x20 ADD SWAP1 DUP2 MSTORE PUSH1 0x20 ADD PUSH1 0x0 KECCAK256 PUSH1 0x2 ADD SLOAD PUSH1 0x0 DUP1 DUP6 DUP2 MSTORE PUSH1 0x20 ADD SWAP1 DUP2 MSTORE PUSH1 0x20 ADD PUSH1 0x0 KECCAK256 PUSH1 0x0 ADD PUSH1 0x0 DUP1 DUP7 DUP2 MSTORE PUSH1 0x20 ADD SWAP1 DUP2 MSTORE PUSH1 0x20 ADD PUSH1 0x0 KECCAK256 PUSH1 0x3 ADD PUSH1 0x0 SWAP1 SLOAD SWAP1 PUSH2 0x100 EXP SWAP1 DIV PUSH20 0xFFFFFFFFFFFFFFFFFFFFFFFFFFFFFFFFFFFFFFFF AND PUSH1 0x0 DUP1 DUP8 DUP2 MSTORE PUSH1 0x20 ADD SWAP1 DUP2 MSTORE PUSH1 0x20 ADD PUSH1 0x0 KECCAK256 PUSH1 0x4 ADD DUP3 DUP1 SLOAD PUSH2 0xEE4 SWAP1 PUSH2 0x35A4 JUMP JUMPDEST DUP1 PUSH1 0x1F ADD PUSH1 0x20 DUP1 SWAP2 DIV MUL PUSH1 0x20 ADD PUSH1 0x40 MLOAD SWAP1 DUP2 ADD PUSH1 0x40 MSTORE DUP1 SWAP3 SWAP2 SWAP1 DUP2 DUP2 MSTORE PUSH1 0x20 ADD DUP3 DUP1 SLOAD PUSH2 0xF10 SWAP1 PUSH2 0x35A4 JUMP JUMPDEST DUP1 ISZERO PUSH2 0xF5D JUMPI DUP1 PUSH1 0x1F LT PUSH2 0xF32 JUMPI PUSH2 0x100 DUP1 DUP4 SLOAD DIV MUL DUP4 MSTORE SWAP2 PUSH1 0x20 ADD SWAP2 PUSH2 0xF5D JUMP JUMPDEST DUP3 ADD SWAP2 SWAP1 PUSH1 0x0 MSTORE PUSH1 0x20 PUSH1 0x0 KECCAK256 SWAP1 JUMPDEST DUP2 SLOAD DUP2 MSTORE SWAP1 PUSH1 0x1 ADD SWAP1 PUSH1 0x20 ADD DUP1 DUP4 GT PUSH2 0xF40 JUMPI DUP3 SWAP1 SUB PUSH1 0x1F AND DUP3 ADD SWAP2 JUMPDEST POP POP POP POP POP SWAP3 POP DUP1 DUP1 SLOAD PUSH2 0xF70 SWAP1 PUSH2 0x35A4 JUMP JUMPDEST DUP1 PUSH1 0x1F ADD PUSH1 0x20 DUP1 SWAP2 DIV MUL PUSH1 0x20 ADD PUSH1 0x40 MLOAD SWAP1 DUP2 ADD PUSH1 0x40 MSTORE DUP1 SWAP3 SWAP2 SWAP1 DUP2 DUP2 MSTORE PUSH1 0x20 ADD DUP3 DUP1 SLOAD PUSH2 0xF9C SWAP1 PUSH2 0x35A4 JUMP JUMPDEST DUP1 ISZERO PUSH2 0xFE9 JUMPI DUP1 PUSH1 0x1F LT PUSH2 0xFBE JUMPI PUSH2 0x100 DUP1 DUP4 SLOAD DIV MUL DUP4 MSTORE SWAP2 PUSH1 0x20 ADD SWAP2 PUSH2 0xFE9 JUMP JUMPDEST DUP3 ADD SWAP2 SWAP1 PUSH1 0x0 MSTORE PUSH1 0x20 PUSH1 0x0 KECCAK256 SWAP1 JUMPDEST DUP2 SLOAD DUP2 MSTORE SWAP1 PUSH1 0x1 ADD SWAP1 PUSH1 0x20 ADD DUP1 DUP4 GT PUSH2 0xFCC JUMPI DUP3 SWAP1 SUB PUSH1 0x1F AND DUP3 ADD SWAP2 JUMPDEST POP POP POP POP POP SWAP1 POP SWAP7 POP SWAP7 POP SWAP7 POP SWAP7 POP SWAP7 POP SWAP7 POP POP SWAP3 SWAP6 POP SWAP3 SWAP6 POP SWAP3 SWAP6 JUMP JUMPDEST PUSH1 0x1 PUSH1 0x20 MSTORE DUP2 PUSH1 0x0 MSTORE PUSH1 0x40 PUSH1 0x0 KECCAK256 DUP2 DUP2 SLOAD DUP2 LT PUSH2 0x1023 JUMPI PUSH1 0x0 DUP1 REVERT JUMPDEST SWAP1 PUSH1 0x0 MSTORE PUSH1 0x20 PUSH1 0x0 KECCAK256 ADD PUSH1 0x0 SWAP2 POP SWAP2 POP POP SLOAD DUP2 JUMP JUMPDEST PUSH1 0x0 PUSH2 0x1044 DUP5 DUP5 PUSH2 0x2A33 JUMP JUMPDEST SWAP1 POP PUSH1 0x4 PUSH1 0x0 CALLER PUSH20 0xFFFFFFFFFFFFFFFFFFFFFFFFFFFFFFFFFFFFFFFF AND PUSH20 0xFFFFFFFFFFFFFFFFFFFFFFFFFFFFFFFFFFFFFFFF AND DUP2 MSTORE PUSH1 0x20 ADD SWAP1 DUP2 MSTORE PUSH1 0x20 ADD PUSH1 0x0 KECCAK256 PUSH1 0x3 ADD PUSH1 0x0 SWAP1 SLOAD SWAP1 PUSH2 0x100 EXP SWAP1 DIV PUSH1 0xFF AND DUP1 ISZERO PUSH2 0x1102 JUMPI POP CALLER PUSH20 0xFFFFFFFFFFFFFFFFFFFFFFFFFFFFFFFFFFFFFFFF AND PUSH1 0x0 DUP1 DUP4 DUP2 MSTORE PUSH1 0x20 ADD SWAP1 DUP2 MSTORE PUSH1 0x20 ADD PUSH1 0x0 KECCAK256 PUSH1 0x3 ADD PUSH1 0x0 SWAP1 SLOAD SWAP1 PUSH2 0x100 EXP SWAP1 DIV PUSH20 0xFFFFFFFFFFFFFFFFFFFFFFFFFFFFFFFFFFFFFFFF AND PUSH20 0xFFFFFFFFFFFFFFFFFFFFFFFFFFFFFFFFFFFFFFFF AND EQ JUMPDEST PUSH1 0x40 MLOAD DUP1 PUSH1 0x40 ADD PUSH1 0x40 MSTORE DUP1 PUSH1 0x5 DUP2 MSTORE PUSH1 0x20 ADD PUSH32 0x574D552D32000000000000000000000000000000000000000000000000000000 DUP2 MSTORE POP SWAP1 PUSH2 0x1179 JUMPI PUSH1 0x40 MLOAD PUSH32 0x8C379A000000000000000000000000000000000000000000000000000000000 DUP2 MSTORE PUSH1 0x4 ADD PUSH2 0x1170 SWAP2 SWAP1 PUSH2 0x31BD JUMP JUMPDEST PUSH1 0x40 MLOAD DUP1 SWAP2 SUB SWAP1 REVERT JUMPDEST POP DUP2 PUSH1 0x0 DUP1 DUP4 DUP2 MSTORE PUSH1 0x20 ADD SWAP1 DUP2 MSTORE PUSH1 0x20 ADD PUSH1 0x0 KECCAK256 PUSH1 0x5 ADD PUSH1 0x0 PUSH2 0x100 EXP DUP2 SLOAD DUP2 PUSH1 0xFF MUL NOT AND SWAP1 DUP4 PUSH1 0x6 DUP2 GT ISZERO PUSH2 0x11D8 JUMPI PUSH32 0x4E487B7100000000000000000000000000000000000000000000000000000000 PUSH1 0x0 MSTORE PUSH1 0x21 PUSH1 0x4 MSTORE PUSH1 0x24 PUSH1 0x0 REVERT JUMPDEST MUL OR SWAP1 SSTORE POP PUSH1 0x2 PUSH1 0x0 DUP4 PUSH1 0x6 DUP2 GT ISZERO PUSH2 0x121A JUMPI PUSH32 0x4E487B7100000000000000000000000000000000000000000000000000000000 PUSH1 0x0 MSTORE PUSH1 0x21 PUSH1 0x4 MSTORE PUSH1 0x24 PUSH1 0x0 REVERT JUMPDEST PUSH1 0x6 DUP2 GT ISZERO PUSH2 0x1252 JUMPI PUSH32 0x4E487B7100000000000000000000000000000000000000000000000000000000 PUSH1 0x0 MSTORE PUSH1 0x21 PUSH1 0x4 MSTORE PUSH1 0x24 PUSH1 0x0 REVERT JUMPDEST DUP2 MSTORE PUSH1 0x20 ADD SWAP1 DUP2 MSTORE PUSH1 0x20 ADD PUSH1 0x0 KECCAK256 DUP2 SWAP1 DUP1 PUSH1 0x1 DUP2 SLOAD ADD DUP1 DUP3 SSTORE DUP1 SWAP2 POP POP PUSH1 0x1 SWAP1 SUB SWAP1 PUSH1 0x0 MSTORE PUSH1 0x20 PUSH1 0x0 KECCAK256 ADD PUSH1 0x0 SWAP1 SWAP2 SWAP1 SWAP2 SWAP1 SWAP2 POP SSTORE PUSH1 0x3 PUSH1 0x0 CALLER PUSH20 0xFFFFFFFFFFFFFFFFFFFFFFFFFFFFFFFFFFFFFFFF AND PUSH20 0xFFFFFFFFFFFFFFFFFFFFFFFFFFFFFFFFFFFFFFFF AND DUP2 MSTORE PUSH1 0x20 ADD SWAP1 DUP2 MSTORE PUSH1 0x20 ADD PUSH1 0x0 KECCAK256 PUSH1 0x0 DUP4 PUSH1 0x6 DUP2 GT ISZERO PUSH2 0x1301 JUMPI PUSH32 0x4E487B7100000000000000000000000000000000000000000000000000000000 PUSH1 0x0 MSTORE PUSH1 0x21 PUSH1 0x4 MSTORE PUSH1 0x24 PUSH1 0x0 REVERT JUMPDEST PUSH1 0x6 DUP2 GT ISZERO PUSH2 0x1339 JUMPI PUSH32 0x4E487B7100000000000000000000000000000000000000000000000000000000 PUSH1 0x0 MSTORE PUSH1 0x21 PUSH1 0x4 MSTORE PUSH1 0x24 PUSH1 0x0 REVERT JUMPDEST DUP2 MSTORE PUSH1 0x20 ADD SWAP1 DUP2 MSTORE PUSH1 0x20 ADD PUSH1 0x0 KECCAK256 DUP2 SWAP1 DUP1 PUSH1 0x1 DUP2 SLOAD ADD DUP1 DUP3 SSTORE DUP1 SWAP2 POP POP PUSH1 0x1 SWAP1 SUB SWAP1 PUSH1 0x0 MSTORE PUSH1 0x20 PUSH1 0x0 KECCAK256 ADD PUSH1 0x0 SWAP1 SWAP2 SWAP1 SWAP2 SWAP1 SWAP2 POP SSTORE POP POP POP POP JUMP JUMPDEST PUSH1 0x4 PUSH1 0x0 CALLER PUSH20 0xFFFFFFFFFFFFFFFFFFFFFFFFFFFFFFFFFFFFFFFF AND PUSH20 0xFFFFFFFFFFFFFFFFFFFFFFFFFFFFFFFFFFFFFFFF AND DUP2 MSTORE PUSH1 0x20 ADD SWAP1 DUP2 MSTORE PUSH1 0x20 ADD PUSH1 0x0 KECCAK256 PUSH1 0x1 ADD PUSH1 0x0 SWAP1 SLOAD SWAP1 PUSH2 0x100 EXP SWAP1 DIV PUSH1 0xFF AND PUSH1 0x40 MLOAD DUP1 PUSH1 0x40 ADD PUSH1 0x40 MSTORE DUP1 PUSH1 0x5 DUP2 MSTORE PUSH1 0x20 ADD PUSH32 0x574D552D31000000000000000000000000000000000000000000000000000000 DUP2 MSTORE POP SWAP1 PUSH2 0x143B JUMPI PUSH1 0x40 MLOAD PUSH32 0x8C379A000000000000000000000000000000000000000000000000000000000 DUP2 MSTORE PUSH1 0x4 ADD PUSH2 0x1432 SWAP2 SWAP1 PUSH2 0x31BD JUMP JUMPDEST PUSH1 0x40 MLOAD DUP1 SWAP2 SUB SWAP1 REVERT JUMPDEST POP PUSH1 0x4 PUSH1 0x0 CALLER PUSH20 0xFFFFFFFFFFFFFFFFFFFFFFFFFFFFFFFFFFFFFFFF AND PUSH20 0xFFFFFFFFFFFFFFFFFFFFFFFFFFFFFFFFFFFFFFFF AND DUP2 MSTORE PUSH1 0x20 ADD SWAP1 DUP2 MSTORE PUSH1 0x20 ADD PUSH1 0x0 KECCAK256 PUSH1 0x3 ADD PUSH1 0x0 SWAP1 SLOAD SWAP1 PUSH2 0x100 EXP SWAP1 DIV PUSH1 0xFF AND ISZERO PUSH1 0x40 MLOAD DUP1 PUSH1 0x40 ADD PUSH1 0x40 MSTORE DUP1 PUSH1 0x5 DUP2 MSTORE PUSH1 0x20 ADD PUSH32 0x574D552D33000000000000000000000000000000000000000000000000000000 DUP2 MSTORE POP SWAP1 PUSH2 0x1504 JUMPI PUSH1 0x40 MLOAD PUSH32 0x8C379A000000000000000000000000000000000000000000000000000000000 DUP2 MSTORE PUSH1 0x4 ADD PUSH2 0x14FB SWAP2 SWAP1 PUSH2 0x31BD JUMP JUMPDEST PUSH1 0x40 MLOAD DUP1 SWAP2 SUB SWAP1 REVERT JUMPDEST POP PUSH1 0x1 PUSH1 0x4 PUSH1 0x0 CALLER PUSH20 0xFFFFFFFFFFFFFFFFFFFFFFFFFFFFFFFFFFFFFFFF AND PUSH20 0xFFFFFFFFFFFFFFFFFFFFFFFFFFFFFFFFFFFFFFFF AND DUP2 MSTORE PUSH1 0x20 ADD SWAP1 DUP2 MSTORE PUSH1 0x20 ADD PUSH1 0x0 KECCAK256 PUSH1 0x3 ADD PUSH1 0x0 PUSH2 0x100 EXP DUP2 SLOAD DUP2 PUSH1 0xFF MUL NOT AND SWAP1 DUP4 ISZERO ISZERO MUL OR SWAP1 SSTORE POP CALLER PUSH20 0xFFFFFFFFFFFFFFFFFFFFFFFFFFFFFFFFFFFFFFFF AND PUSH32 0x364034DE78A61B6190B049E2C5437370B27906BFED607993A5BC2DDA23C16CFF TIMESTAMP PUSH1 0x40 MLOAD PUSH2 0x15A6 SWAP2 SWAP1 PUSH2 0x337F JUMP JUMPDEST PUSH1 0x40 MLOAD DUP1 SWAP2 SUB SWAP1 LOG2 JUMP JUMPDEST PUSH1 0x60 PUSH1 0x0 DUP1 PUSH1 0x0 PUSH1 0x60 PUSH1 0x0 DUP7 SWAP1 POP PUSH1 0x0 DUP1 DUP3 DUP2 MSTORE PUSH1 0x20 ADD SWAP1 DUP2 MSTORE PUSH1 0x20 ADD PUSH1 0x0 KECCAK256 PUSH1 0x0 ADD PUSH1 0x0 DUP1 DUP4 DUP2 MSTORE PUSH1 0x20 ADD SWAP1 DUP2 MSTORE PUSH1 0x20 ADD PUSH1 0x0 KECCAK256 PUSH1 0x1 ADD PUSH1 0x0 SWAP1 SLOAD SWAP1 PUSH2 0x100 EXP SWAP1 DIV PUSH20 0xFFFFFFFFFFFFFFFFFFFFFFFFFFFFFFFFFFFFFFFF AND PUSH1 0x0 DUP1 DUP5 DUP2 MSTORE PUSH1 0x20 ADD SWAP1 DUP2 MSTORE PUSH1 0x20 ADD PUSH1 0x0 KECCAK256 PUSH1 0x2 ADD SLOAD PUSH1 0x0 DUP1 DUP6 DUP2 MSTORE PUSH1 0x20 ADD SWAP1 DUP2 MSTORE PUSH1 0x20 ADD PUSH1 0x0 KECCAK256 PUSH1 0x3 ADD PUSH1 0x0 SWAP1 SLOAD SWAP1 PUSH2 0x100 EXP SWAP1 DIV PUSH20 0xFFFFFFFFFFFFFFFFFFFFFFFFFFFFFFFFFFFFFFFF AND PUSH1 0x0 DUP1 DUP7 DUP2 MSTORE PUSH1 0x20 ADD SWAP1 DUP2 MSTORE PUSH1 0x20 ADD PUSH1 0x0 KECCAK256 PUSH1 0x4 ADD DUP5 DUP1 SLOAD PUSH2 0x1676 SWAP1 PUSH2 0x35A4 JUMP JUMPDEST DUP1 PUSH1 0x1F ADD PUSH1 0x20 DUP1 SWAP2 DIV MUL PUSH1 0x20 ADD PUSH1 0x40 MLOAD SWAP1 DUP2 ADD PUSH1 0x40 MSTORE DUP1 SWAP3 SWAP2 SWAP1 DUP2 DUP2 MSTORE PUSH1 0x20 ADD DUP3 DUP1 SLOAD PUSH2 0x16A2 SWAP1 PUSH2 0x35A4 JUMP JUMPDEST DUP1 ISZERO PUSH2 0x16EF JUMPI DUP1 PUSH1 0x1F LT PUSH2 0x16C4 JUMPI PUSH2 0x100 DUP1 DUP4 SLOAD DIV MUL DUP4 MSTORE SWAP2 PUSH1 0x20 ADD SWAP2 PUSH2 0x16EF JUMP JUMPDEST DUP3 ADD SWAP2 SWAP1 PUSH1 0x0 MSTORE PUSH1 0x20 PUSH1 0x0 KECCAK256 SWAP1 JUMPDEST DUP2 SLOAD DUP2 MSTORE SWAP1 PUSH1 0x1 ADD SWAP1 PUSH1 0x20 ADD DUP1 DUP4 GT PUSH2 0x16D2 JUMPI DUP3 SWAP1 SUB PUSH1 0x1F AND DUP3 ADD SWAP2 JUMPDEST POP POP POP POP POP SWAP5 POP DUP1 DUP1 SLOAD PUSH2 0x1702 SWAP1 PUSH2 0x35A4 JUMP JUMPDEST DUP1 PUSH1 0x1F ADD PUSH1 0x20 DUP1 SWAP2 DIV MUL PUSH1 0x20 ADD PUSH1 0x40 MLOAD SWAP1 DUP2 ADD PUSH1 0x40 MSTORE DUP1 SWAP3 SWAP2 SWAP1 DUP2 DUP2 MSTORE PUSH1 0x20 ADD DUP3 DUP1 SLOAD PUSH2 0x172E SWAP1 PUSH2 0x35A4 JUMP JUMPDEST DUP1 ISZERO PUSH2 0x177B JUMPI DUP1 PUSH1 0x1F LT PUSH2 0x1750 JUMPI PUSH2 0x100 DUP1 DUP4 SLOAD DIV MUL DUP4 MSTORE SWAP2 PUSH1 0x20 ADD SWAP2 PUSH2 0x177B JUMP JUMPDEST DUP3 ADD SWAP2 SWAP1 PUSH1 0x0 MSTORE PUSH1 0x20 PUSH1 0x0 KECCAK256 SWAP1 JUMPDEST DUP2 SLOAD DUP2 MSTORE SWAP1 PUSH1 0x1 ADD SWAP1 PUSH1 0x20 ADD DUP1 DUP4 GT PUSH2 0x175E JUMPI DUP3 SWAP1 SUB PUSH1 0x1F AND DUP3 ADD SWAP2 JUMPDEST POP POP POP POP POP SWAP1 POP SWAP6 POP SWAP6 POP SWAP6 POP SWAP6 POP SWAP6 POP POP SWAP2 SWAP4 SWAP6 SWAP1 SWAP3 SWAP5 POP JUMP JUMPDEST PUSH1 0x4 PUSH1 0x0 CALLER PUSH20 0xFFFFFFFFFFFFFFFFFFFFFFFFFFFFFFFFFFFFFFFF AND PUSH20 0xFFFFFFFFFFFFFFFFFFFFFFFFFFFFFFFFFFFFFFFF AND DUP2 MSTORE PUSH1 0x20 ADD SWAP1 DUP2 MSTORE PUSH1 0x20 ADD PUSH1 0x0 KECCAK256 PUSH1 0x3 ADD PUSH1 0x0 SWAP1 SLOAD SWAP1 PUSH2 0x100 EXP SWAP1 DIV PUSH1 0xFF AND PUSH1 0x40 MLOAD DUP1 PUSH1 0x40 ADD PUSH1 0x40 MSTORE DUP1 PUSH1 0x5 DUP2 MSTORE PUSH1 0x20 ADD PUSH32 0x574D552D32000000000000000000000000000000000000000000000000000000 DUP2 MSTORE POP SWAP1 PUSH2 0x185D JUMPI PUSH1 0x40 MLOAD PUSH32 0x8C379A000000000000000000000000000000000000000000000000000000000 DUP2 MSTORE PUSH1 0x4 ADD PUSH2 0x1854 SWAP2 SWAP1 PUSH2 0x31BD JUMP JUMPDEST PUSH1 0x40 MLOAD DUP1 SWAP2 SUB SWAP1 REVERT JUMPDEST POP PUSH1 0x0 PUSH1 0x4 PUSH1 0x0 CALLER PUSH20 0xFFFFFFFFFFFFFFFFFFFFFFFFFFFFFFFFFFFFFFFF AND PUSH20 0xFFFFFFFFFFFFFFFFFFFFFFFFFFFFFFFFFFFFFFFF AND DUP2 MSTORE PUSH1 0x20 ADD SWAP1 DUP2 MSTORE PUSH1 0x20 ADD PUSH1 0x0 KECCAK256 PUSH1 0x3 ADD PUSH1 0x0 PUSH2 0x100 EXP DUP2 SLOAD DUP2 PUSH1 0xFF MUL NOT AND SWAP1 DUP4 ISZERO ISZERO MUL OR SWAP1 SSTORE POP CALLER PUSH20 0xFFFFFFFFFFFFFFFFFFFFFFFFFFFFFFFFFFFFFFFF AND PUSH32 0x70D1177AA26C67F6B2FDB43400CFD7FF0C23A8712301ABE5ABA2EE3D89E28A10 TIMESTAMP PUSH1 0x40 MLOAD PUSH2 0x18FF SWAP2 SWAP1 PUSH2 0x337F JUMP JUMPDEST PUSH1 0x40 MLOAD DUP1 SWAP2 SUB SWAP1 LOG2 JUMP JUMPDEST PUSH1 0x60 PUSH1 0x1 PUSH1 0x0 DUP4 PUSH20 0xFFFFFFFFFFFFFFFFFFFFFFFFFFFFFFFFFFFFFFFF AND PUSH20 0xFFFFFFFFFFFFFFFFFFFFFFFFFFFFFFFFFFFFFFFF AND DUP2 MSTORE PUSH1 0x20 ADD SWAP1 DUP2 MSTORE PUSH1 0x20 ADD PUSH1 0x0 KECCAK256 DUP1 SLOAD DUP1 PUSH1 0x20 MUL PUSH1 0x20 ADD PUSH1 0x40 MLOAD SWAP1 DUP2 ADD PUSH1 0x40 MSTORE DUP1 SWAP3 SWAP2 SWAP1 DUP2 DUP2 MSTORE PUSH1 0x20 ADD DUP3 DUP1 SLOAD DUP1 ISZERO PUSH2 0x1994 JUMPI PUSH1 0x20 MUL DUP3 ADD SWAP2 SWAP1 PUSH1 0x0 MSTORE PUSH1 0x20 PUSH1 0x0 KECCAK256 SWAP1 JUMPDEST DUP2 SLOAD DUP2 MSTORE PUSH1 0x20 ADD SWAP1 PUSH1 0x1 ADD SWAP1 DUP1 DUP4 GT PUSH2 0x1980 JUMPI JUMPDEST POP POP POP POP POP SWAP1 POP SWAP2 SWAP1 POP JUMP JUMPDEST PUSH1 0x5 DUP2 DUP1 MLOAD PUSH1 0x20 DUP2 ADD DUP3 ADD DUP1 MLOAD DUP5 DUP3 MSTORE PUSH1 0x20 DUP4 ADD PUSH1 0x20 DUP6 ADD KECCAK256 DUP2 DUP4 MSTORE DUP1 SWAP6 POP POP POP POP POP POP PUSH1 0x0 SWAP2 POP SLOAD SWAP1 PUSH2 0x100 EXP SWAP1 DIV PUSH20 0xFFFFFFFFFFFFFFFFFFFFFFFFFFFFFFFFFFFFFFFF AND DUP2 JUMP JUMPDEST PUSH1 0x4 PUSH1 0x0 CALLER PUSH20 0xFFFFFFFFFFFFFFFFFFFFFFFFFFFFFFFFFFFFFFFF AND PUSH20 0xFFFFFFFFFFFFFFFFFFFFFFFFFFFFFFFFFFFFFFFF AND DUP2 MSTORE PUSH1 0x20 ADD SWAP1 DUP2 MSTORE PUSH1 0x20 ADD PUSH1 0x0 KECCAK256 PUSH1 0x3 ADD PUSH1 0x0 SWAP1 SLOAD SWAP1 PUSH2 0x100 EXP SWAP1 DIV PUSH1 0xFF AND PUSH1 0x40 MLOAD DUP1 PUSH1 0x40 ADD PUSH1 0x40 MSTORE DUP1 PUSH1 0x5 DUP2 MSTORE PUSH1 0x20 ADD PUSH32 0x574D552D32000000000000000000000000000000000000000000000000000000 DUP2 MSTORE POP SWAP1 PUSH2 0x1AB0 JUMPI PUSH1 0x40 MLOAD PUSH32 0x8C379A000000000000000000000000000000000000000000000000000000000 DUP2 MSTORE PUSH1 0x4 ADD PUSH2 0x1AA7 SWAP2 SWAP1 PUSH2 0x31BD JUMP JUMPDEST PUSH1 0x40 MLOAD DUP1 SWAP2 SUB SWAP1 REVERT JUMPDEST POP PUSH1 0x0 PUSH2 0x1ABD DUP5 DUP5 PUSH2 0x2A33 JUMP JUMPDEST SWAP1 POP DUP5 PUSH1 0x0 DUP1 DUP4 DUP2 MSTORE PUSH1 0x20 ADD SWAP1 DUP2 MSTORE PUSH1 0x20 ADD PUSH1 0x0 KECCAK256 PUSH1 0x0 ADD SWAP1 DUP1 MLOAD SWAP1 PUSH1 0x20 ADD SWAP1 PUSH2 0x1AE8 SWAP3 SWAP2 SWAP1 PUSH2 0x2A66 JUMP JUMPDEST POP DUP4 PUSH1 0x0 DUP1 DUP4 DUP2 MSTORE PUSH1 0x20 ADD SWAP1 DUP2 MSTORE PUSH1 0x20 ADD PUSH1 0x0 KECCAK256 PUSH1 0x1 ADD PUSH1 0x0 PUSH2 0x100 EXP DUP2 SLOAD DUP2 PUSH20 0xFFFFFFFFFFFFFFFFFFFFFFFFFFFFFFFFFFFFFFFF MUL NOT AND SWAP1 DUP4 PUSH20 0xFFFFFFFFFFFFFFFFFFFFFFFFFFFFFFFFFFFFFFFF AND MUL OR SWAP1 SSTORE POP DUP3 PUSH1 0x0 DUP1 DUP4 DUP2 MSTORE PUSH1 0x20 ADD SWAP1 DUP2 MSTORE PUSH1 0x20 ADD PUSH1 0x0 KECCAK256 PUSH1 0x2 ADD DUP2 SWAP1 SSTORE POP CALLER PUSH1 0x0 DUP1 DUP4 DUP2 MSTORE PUSH1 0x20 ADD SWAP1 DUP2 MSTORE PUSH1 0x20 ADD PUSH1 0x0 KECCAK256 PUSH1 0x3 ADD PUSH1 0x0 PUSH2 0x100 EXP DUP2 SLOAD DUP2 PUSH20 0xFFFFFFFFFFFFFFFFFFFFFFFFFFFFFFFFFFFFFFFF MUL NOT AND SWAP1 DUP4 PUSH20 0xFFFFFFFFFFFFFFFFFFFFFFFFFFFFFFFFFFFFFFFF AND MUL OR SWAP1 SSTORE POP DUP2 PUSH1 0x0 DUP1 DUP4 DUP2 MSTORE PUSH1 0x20 ADD SWAP1 DUP2 MSTORE PUSH1 0x20 ADD PUSH1 0x0 KECCAK256 PUSH1 0x4 ADD SWAP1 DUP1 MLOAD SWAP1 PUSH1 0x20 ADD SWAP1 PUSH2 0x1BD4 SWAP3 SWAP2 SWAP1 PUSH2 0x2A66 JUMP JUMPDEST POP PUSH1 0x1 PUSH1 0x0 CALLER PUSH20 0xFFFFFFFFFFFFFFFFFFFFFFFFFFFFFFFFFFFFFFFF AND PUSH20 0xFFFFFFFFFFFFFFFFFFFFFFFFFFFFFFFFFFFFFFFF AND DUP2 MSTORE PUSH1 0x20 ADD SWAP1 DUP2 MSTORE PUSH1 0x20 ADD PUSH1 0x0 KECCAK256 DUP2 SWAP1 DUP1 PUSH1 0x1 DUP2 SLOAD ADD DUP1 DUP3 SSTORE DUP1 SWAP2 POP POP PUSH1 0x1 SWAP1 SUB SWAP1 PUSH1 0x0 MSTORE PUSH1 0x20 PUSH1 0x0 KECCAK256 ADD PUSH1 0x0 SWAP1 SWAP2 SWAP1 SWAP2 SWAP1 SWAP2 POP SSTORE POP POP POP POP POP JUMP JUMPDEST PUSH1 0x6 PUSH1 0x20 MSTORE DUP1 PUSH1 0x0 MSTORE PUSH1 0x40 PUSH1 0x0 KECCAK256 PUSH1 0x0 SWAP2 POP SWAP1 POP DUP1 PUSH1 0x0 ADD SLOAD SWAP1 DUP1 PUSH1 0x1 ADD SLOAD SWAP1 DUP1 PUSH1 0x2 ADD SLOAD SWAP1 DUP1 PUSH1 0x3 ADD SLOAD SWAP1 POP DUP5 JUMP JUMPDEST DUP4 PUSH1 0x6 PUSH1 0x0 DUP8 PUSH20 0xFFFFFFFFFFFFFFFFFFFFFFFFFFFFFFFFFFFFFFFF AND PUSH20 0xFFFFFFFFFFFFFFFFFFFFFFFFFFFFFFFFFFFFFFFF AND DUP2 MSTORE PUSH1 0x20 ADD SWAP1 DUP2 MSTORE PUSH1 0x20 ADD PUSH1 0x0 KECCAK256 PUSH1 0x0 ADD PUSH1 0x0 DUP3 DUP3 SLOAD PUSH2 0x1CC4 SWAP2 SWAP1 PUSH2 0x3495 JUMP JUMPDEST SWAP3 POP POP DUP2 SWAP1 SSTORE POP DUP3 PUSH1 0x6 PUSH1 0x0 DUP8 PUSH20 0xFFFFFFFFFFFFFFFFFFFFFFFFFFFFFFFFFFFFFFFF AND PUSH20 0xFFFFFFFFFFFFFFFFFFFFFFFFFFFFFFFFFFFFFFFF AND DUP2 MSTORE PUSH1 0x20 ADD SWAP1 DUP2 MSTORE PUSH1 0x20 ADD PUSH1 0x0 KECCAK256 PUSH1 0x1 ADD PUSH1 0x0 DUP3 DUP3 SLOAD PUSH2 0x1D1D SWAP2 SWAP1 PUSH2 0x3495 JUMP JUMPDEST SWAP3 POP POP DUP2 SWAP1 SSTORE POP DUP2 PUSH1 0x6 PUSH1 0x0 DUP8 PUSH20 0xFFFFFFFFFFFFFFFFFFFFFFFFFFFFFFFFFFFFFFFF AND PUSH20 0xFFFFFFFFFFFFFFFFFFFFFFFFFFFFFFFFFFFFFFFF AND DUP2 MSTORE PUSH1 0x20 ADD SWAP1 DUP2 MSTORE PUSH1 0x20 ADD PUSH1 0x0 KECCAK256 PUSH1 0x2 ADD PUSH1 0x0 DUP3 DUP3 SLOAD PUSH2 0x1D76 SWAP2 SWAP1 PUSH2 0x3495 JUMP JUMPDEST SWAP3 POP POP DUP2 SWAP1 SSTORE POP DUP1 PUSH1 0x6 PUSH1 0x0 DUP8 PUSH20 0xFFFFFFFFFFFFFFFFFFFFFFFFFFFFFFFFFFFFFFFF AND PUSH20 0xFFFFFFFFFFFFFFFFFFFFFFFFFFFFFFFFFFFFFFFF AND DUP2 MSTORE PUSH1 0x20 ADD SWAP1 DUP2 MSTORE PUSH1 0x20 ADD PUSH1 0x0 KECCAK256 PUSH1 0x3 ADD PUSH1 0x0 DUP3 DUP3 SLOAD PUSH2 0x1DCF SWAP2 SWAP1 PUSH2 0x3495 JUMP JUMPDEST SWAP3 POP POP DUP2 SWAP1 SSTORE POP POP POP POP POP POP JUMP JUMPDEST PUSH1 0x0 DUP1 PUSH1 0x0 DUP1 PUSH1 0x6 PUSH1 0x0 DUP7 PUSH20 0xFFFFFFFFFFFFFFFFFFFFFFFFFFFFFFFFFFFFFFFF AND PUSH20 0xFFFFFFFFFFFFFFFFFFFFFFFFFFFFFFFFFFFFFFFF AND DUP2 MSTORE PUSH1 0x20 ADD SWAP1 DUP2 MSTORE PUSH1 0x20 ADD PUSH1 0x0 KECCAK256 PUSH1 0x2 ADD SLOAD PUSH1 0x6 PUSH1 0x0 DUP8 PUSH20 0xFFFFFFFFFFFFFFFFFFFFFFFFFFFFFFFFFFFFFFFF AND PUSH20 0xFFFFFFFFFFFFFFFFFFFFFFFFFFFFFFFFFFFFFFFF AND DUP2 MSTORE PUSH1 0x20 ADD SWAP1 DUP2 MSTORE PUSH1 0x20 ADD PUSH1 0x0 KECCAK256 PUSH1 0x3 ADD SLOAD PUSH1 0x6 PUSH1 0x0 DUP9 PUSH20 0xFFFFFFFFFFFFFFFFFFFFFFFFFFFFFFFFFFFFFFFF AND PUSH20 0xFFFFFFFFFFFFFFFFFFFFFFFFFFFFFFFFFFFFFFFF AND DUP2 MSTORE PUSH1 0x20 ADD SWAP1 DUP2 MSTORE PUSH1 0x20 ADD PUSH1 0x0 KECCAK256 PUSH1 0x0 ADD SLOAD PUSH1 0x6 PUSH1 0x0 DUP10 PUSH20 0xFFFFFFFFFFFFFFFFFFFFFFFFFFFFFFFFFFFFFFFF AND PUSH20 0xFFFFFFFFFFFFFFFFFFFFFFFFFFFFFFFFFFFFFFFF AND DUP2 MSTORE PUSH1 0x20 ADD SWAP1 DUP2 MSTORE PUSH1 0x20 ADD PUSH1 0x0 KECCAK256 PUSH1 0x1 ADD SLOAD SWAP4 POP SWAP4 POP SWAP4 POP SWAP4 POP SWAP2 SWAP4 POP SWAP2 SWAP4 JUMP JUMPDEST PUSH1 0x4 PUSH1 0x0 CALLER PUSH20 0xFFFFFFFFFFFFFFFFFFFFFFFFFFFFFFFFFFFFFFFF AND PUSH20 0xFFFFFFFFFFFFFFFFFFFFFFFFFFFFFFFFFFFFFFFF AND DUP2 MSTORE PUSH1 0x20 ADD SWAP1 DUP2 MSTORE PUSH1 0x20 ADD PUSH1 0x0 KECCAK256 PUSH1 0x1 ADD PUSH1 0x0 SWAP1 SLOAD SWAP1 PUSH2 0x100 EXP SWAP1 DIV PUSH1 0xFF AND ISZERO PUSH1 0x40 MLOAD DUP1 PUSH1 0x40 ADD PUSH1 0x40 MSTORE DUP1 PUSH1 0x5 DUP2 MSTORE PUSH1 0x20 ADD PUSH32 0x574D552D34000000000000000000000000000000000000000000000000000000 DUP2 MSTORE POP SWAP1 PUSH2 0x1FC6 JUMPI PUSH1 0x40 MLOAD PUSH32 0x8C379A000000000000000000000000000000000000000000000000000000000 DUP2 MSTORE PUSH1 0x4 ADD PUSH2 0x1FBD SWAP2 SWAP1 PUSH2 0x31BD JUMP JUMPDEST PUSH1 0x40 MLOAD DUP1 SWAP2 SUB SWAP1 REVERT JUMPDEST POP PUSH1 0x0 PUSH20 0xFFFFFFFFFFFFFFFFFFFFFFFFFFFFFFFFFFFFFFFF AND PUSH1 0x5 DUP3 PUSH1 0x40 MLOAD PUSH2 0x1FEF SWAP2 SWAP1 PUSH2 0x30C4 JUMP JUMPDEST SWAP1 DUP2 MSTORE PUSH1 0x20 ADD PUSH1 0x40 MLOAD DUP1 SWAP2 SUB SWAP1 KECCAK256 PUSH1 0x0 SWAP1 SLOAD SWAP1 PUSH2 0x100 EXP SWAP1 DIV PUSH20 0xFFFFFFFFFFFFFFFFFFFFFFFFFFFFFFFFFFFFFFFF AND PUSH20 0xFFFFFFFFFFFFFFFFFFFFFFFFFFFFFFFFFFFFFFFF AND EQ PUSH1 0x40 MLOAD DUP1 PUSH1 0x40 ADD PUSH1 0x40 MSTORE DUP1 PUSH1 0x5 DUP2 MSTORE PUSH1 0x20 ADD PUSH32 0x574D552D36000000000000000000000000000000000000000000000000000000 DUP2 MSTORE POP SWAP1 PUSH2 0x20AC JUMPI PUSH1 0x40 MLOAD PUSH32 0x8C379A000000000000000000000000000000000000000000000000000000000 DUP2 MSTORE PUSH1 0x4 ADD PUSH2 0x20A3 SWAP2 SWAP1 PUSH2 0x31BD JUMP JUMPDEST PUSH1 0x40 MLOAD DUP1 SWAP2 SUB SWAP1 REVERT JUMPDEST POP DUP1 PUSH1 0x4 PUSH1 0x0 CALLER PUSH20 0xFFFFFFFFFFFFFFFFFFFFFFFFFFFFFFFFFFFFFFFF AND PUSH20 0xFFFFFFFFFFFFFFFFFFFFFFFFFFFFFFFFFFFFFFFF AND DUP2 MSTORE PUSH1 0x20 ADD SWAP1 DUP2 MSTORE PUSH1 0x20 ADD PUSH1 0x0 KECCAK256 PUSH1 0x0 ADD SWAP1 DUP1 MLOAD SWAP1 PUSH1 0x20 ADD SWAP1 PUSH2 0x2103 SWAP3 SWAP2 SWAP1 PUSH2 0x2A66 JUMP JUMPDEST POP PUSH1 0x1 PUSH1 0x4 PUSH1 0x0 CALLER PUSH20 0xFFFFFFFFFFFFFFFFFFFFFFFFFFFFFFFFFFFFFFFF AND PUSH20 0xFFFFFFFFFFFFFFFFFFFFFFFFFFFFFFFFFFFFFFFF AND DUP2 MSTORE PUSH1 0x20 ADD SWAP1 DUP2 MSTORE PUSH1 0x20 ADD PUSH1 0x0 KECCAK256 PUSH1 0x1 ADD PUSH1 0x0 PUSH2 0x100 EXP DUP2 SLOAD DUP2 PUSH1 0xFF MUL NOT AND SWAP1 DUP4 ISZERO ISZERO MUL OR SWAP1 SSTORE POP TIMESTAMP PUSH1 0x4 PUSH1 0x0 CALLER PUSH20 0xFFFFFFFFFFFFFFFFFFFFFFFFFFFFFFFFFFFFFFFF AND PUSH20 0xFFFFFFFFFFFFFFFFFFFFFFFFFFFFFFFFFFFFFFFF AND DUP2 MSTORE PUSH1 0x20 ADD SWAP1 DUP2 MSTORE PUSH1 0x20 ADD PUSH1 0x0 KECCAK256 PUSH1 0x2 ADD DUP2 SWAP1 SSTORE POP PUSH1 0x1 PUSH1 0x4 PUSH1 0x0 CALLER PUSH20 0xFFFFFFFFFFFFFFFFFFFFFFFFFFFFFFFFFFFFFFFF AND PUSH20 0xFFFFFFFFFFFFFFFFFFFFFFFFFFFFFFFFFFFFFFFF AND DUP2 MSTORE PUSH1 0x20 ADD SWAP1 DUP2 MSTORE PUSH1 0x20 ADD PUSH1 0x0 KECCAK256 PUSH1 0x3 ADD PUSH1 0x0 PUSH2 0x100 EXP DUP2 SLOAD DUP2 PUSH1 0xFF MUL NOT AND SWAP1 DUP4 ISZERO ISZERO MUL OR SWAP1 SSTORE POP CALLER PUSH1 0x5 DUP3 PUSH1 0x40 MLOAD PUSH2 0x2212 SWAP2 SWAP1 PUSH2 0x30C4 JUMP JUMPDEST SWAP1 DUP2 MSTORE PUSH1 0x20 ADD PUSH1 0x40 MLOAD DUP1 SWAP2 SUB SWAP1 KECCAK256 PUSH1 0x0 PUSH2 0x100 EXP DUP2 SLOAD DUP2 PUSH20 0xFFFFFFFFFFFFFFFFFFFFFFFFFFFFFFFFFFFFFFFF MUL NOT AND SWAP1 DUP4 PUSH20 0xFFFFFFFFFFFFFFFFFFFFFFFFFFFFFFFFFFFFFFFF AND MUL OR SWAP1 SSTORE POP CALLER PUSH20 0xFFFFFFFFFFFFFFFFFFFFFFFFFFFFFFFFFFFFFFFF AND PUSH32 0xEE20C2C019DCBCA8D08FF74C4CE6F465E02D3611905C9ACEEB76A0C8E429AF2F DUP3 TIMESTAMP PUSH1 0x40 MLOAD PUSH2 0x22A6 SWAP3 SWAP2 SWAP1 PUSH2 0x334F JUMP JUMPDEST PUSH1 0x40 MLOAD DUP1 SWAP2 SUB SWAP1 LOG2 POP JUMP JUMPDEST PUSH1 0x2 PUSH1 0x20 MSTORE DUP2 PUSH1 0x0 MSTORE PUSH1 0x40 PUSH1 0x0 KECCAK256 DUP2 DUP2 SLOAD DUP2 LT PUSH2 0x22CD JUMPI PUSH1 0x0 DUP1 REVERT JUMPDEST SWAP1 PUSH1 0x0 MSTORE PUSH1 0x20 PUSH1 0x0 KECCAK256 ADD PUSH1 0x0 SWAP2 POP SWAP2 POP POP SLOAD DUP2 JUMP JUMPDEST PUSH1 0x60 DUP1 PUSH1 0x60 DUP1 PUSH1 0x60 DUP1 PUSH1 0x60 PUSH1 0x40 MLOAD DUP1 PUSH1 0x40 ADD PUSH1 0x40 MSTORE DUP1 PUSH1 0x6 DUP2 MSTORE PUSH1 0x20 ADD PUSH32 0x4156415441520000000000000000000000000000000000000000000000000000 DUP2 MSTORE POP PUSH1 0x40 MLOAD DUP1 PUSH1 0x40 ADD PUSH1 0x40 MSTORE DUP1 PUSH1 0x7 DUP2 MSTORE PUSH1 0x20 ADD PUSH32 0x5049435455524500000000000000000000000000000000000000000000000000 DUP2 MSTORE POP PUSH1 0x40 MLOAD DUP1 PUSH1 0x40 ADD PUSH1 0x40 MSTORE DUP1 PUSH1 0xE DUP2 MSTORE PUSH1 0x20 ADD PUSH32 0x47454E455241544956455F415254000000000000000000000000000000000000 DUP2 MSTORE POP PUSH1 0x40 MLOAD DUP1 PUSH1 0x40 ADD PUSH1 0x40 MSTORE DUP1 PUSH1 0x3 DUP2 MSTORE PUSH1 0x20 ADD PUSH32 0x4152540000000000000000000000000000000000000000000000000000000000 DUP2 MSTORE POP PUSH1 0x40 MLOAD DUP1 PUSH1 0x40 ADD PUSH1 0x40 MSTORE DUP1 PUSH1 0xC DUP2 MSTORE PUSH1 0x20 ADD PUSH32 0x434F4C4C45435449424C45530000000000000000000000000000000000000000 DUP2 MSTORE POP PUSH1 0x40 MLOAD DUP1 PUSH1 0x40 ADD PUSH1 0x40 MSTORE DUP1 PUSH1 0x8 DUP2 MSTORE PUSH1 0x20 ADD PUSH32 0x47414D4946494544000000000000000000000000000000000000000000000000 DUP2 MSTORE POP PUSH1 0x40 MLOAD DUP1 PUSH1 0x40 ADD PUSH1 0x40 MSTORE DUP1 PUSH1 0x5 DUP2 MSTORE PUSH1 0x20 ADD PUSH32 0x4F54484552000000000000000000000000000000000000000000000000000000 DUP2 MSTORE POP SWAP7 POP SWAP7 POP SWAP7 POP SWAP7 POP SWAP7 POP SWAP7 POP SWAP7 POP SWAP1 SWAP2 SWAP3 SWAP4 SWAP5 SWAP6 SWAP7 JUMP JUMPDEST PUSH1 0x60 PUSH1 0x4 PUSH1 0x0 CALLER PUSH20 0xFFFFFFFFFFFFFFFFFFFFFFFFFFFFFFFFFFFFFFFF AND PUSH20 0xFFFFFFFFFFFFFFFFFFFFFFFFFFFFFFFFFFFFFFFF AND DUP2 MSTORE PUSH1 0x20 ADD SWAP1 DUP2 MSTORE PUSH1 0x20 ADD PUSH1 0x0 KECCAK256 PUSH1 0x3 ADD PUSH1 0x0 SWAP1 SLOAD SWAP1 PUSH2 0x100 EXP SWAP1 DIV PUSH1 0xFF AND PUSH1 0x40 MLOAD DUP1 PUSH1 0x40 ADD PUSH1 0x40 MSTORE DUP1 PUSH1 0x5 DUP2 MSTORE PUSH1 0x20 ADD PUSH32 0x574D552D32000000000000000000000000000000000000000000000000000000 DUP2 MSTORE POP SWAP1 PUSH2 0x2547 JUMPI PUSH1 0x40 MLOAD PUSH32 0x8C379A000000000000000000000000000000000000000000000000000000000 DUP2 MSTORE PUSH1 0x4 ADD PUSH2 0x253E SWAP2 SWAP1 PUSH2 0x31BD JUMP JUMPDEST PUSH1 0x40 MLOAD DUP1 SWAP2 SUB SWAP1 REVERT JUMPDEST POP PUSH1 0x4 PUSH1 0x0 CALLER PUSH20 0xFFFFFFFFFFFFFFFFFFFFFFFFFFFFFFFFFFFFFFFF AND PUSH20 0xFFFFFFFFFFFFFFFFFFFFFFFFFFFFFFFFFFFFFFFF AND DUP2 MSTORE PUSH1 0x20 ADD SWAP1 DUP2 MSTORE PUSH1 0x20 ADD PUSH1 0x0 KECCAK256 PUSH1 0x0 ADD DUP1 SLOAD PUSH2 0x2595 SWAP1 PUSH2 0x35A4 JUMP JUMPDEST DUP1 PUSH1 0x1F ADD PUSH1 0x20 DUP1 SWAP2 DIV MUL PUSH1 0x20 ADD PUSH1 0x40 MLOAD SWAP1 DUP2 ADD PUSH1 0x40 MSTORE DUP1 SWAP3 SWAP2 SWAP1 DUP2 DUP2 MSTORE PUSH1 0x20 ADD DUP3 DUP1 SLOAD PUSH2 0x25C1 SWAP1 PUSH2 0x35A4 JUMP JUMPDEST DUP1 ISZERO PUSH2 0x260E JUMPI DUP1 PUSH1 0x1F LT PUSH2 0x25E3 JUMPI PUSH2 0x100 DUP1 DUP4 SLOAD DIV MUL DUP4 MSTORE SWAP2 PUSH1 0x20 ADD SWAP2 PUSH2 0x260E JUMP JUMPDEST DUP3 ADD SWAP2 SWAP1 PUSH1 0x0 MSTORE PUSH1 0x20 PUSH1 0x0 KECCAK256 SWAP1 JUMPDEST DUP2 SLOAD DUP2 MSTORE SWAP1 PUSH1 0x1 ADD SWAP1 PUSH1 0x20 ADD DUP1 DUP4 GT PUSH2 0x25F1 JUMPI DUP3 SWAP1 SUB PUSH1 0x1F AND DUP3 ADD SWAP2 JUMPDEST POP POP POP POP POP SWAP1 POP SWAP1 JUMP JUMPDEST DUP2 PUSH1 0x0 DUP1 DUP4 DUP2 MSTORE PUSH1 0x20 ADD SWAP1 DUP2 MSTORE PUSH1 0x20 ADD PUSH1 0x0 KECCAK256 PUSH1 0x3 ADD PUSH1 0x0 PUSH2 0x100 EXP DUP2 SLOAD DUP2 PUSH20 0xFFFFFFFFFFFFFFFFFFFFFFFFFFFFFFFFFFFFFFFF MUL NOT AND SWAP1 DUP4 PUSH20 0xFFFFFFFFFFFFFFFFFFFFFFFFFFFFFFFFFFFFFFFF AND MUL OR SWAP1 SSTORE POP PUSH1 0x1 PUSH1 0x0 DUP4 PUSH20 0xFFFFFFFFFFFFFFFFFFFFFFFFFFFFFFFFFFFFFFFF AND PUSH20 0xFFFFFFFFFFFFFFFFFFFFFFFFFFFFFFFFFFFFFFFF AND DUP2 MSTORE PUSH1 0x20 ADD SWAP1 DUP2 MSTORE PUSH1 0x20 ADD PUSH1 0x0 KECCAK256 DUP2 SWAP1 DUP1 PUSH1 0x1 DUP2 SLOAD ADD DUP1 DUP3 SSTORE DUP1 SWAP2 POP POP PUSH1 0x1 SWAP1 SUB SWAP1 PUSH1 0x0 MSTORE PUSH1 0x20 PUSH1 0x0 KECCAK256 ADD PUSH1 0x0 SWAP1 SWAP2 SWAP1 SWAP2 SWAP1 SWAP2 POP SSTORE POP POP POP JUMP JUMPDEST PUSH1 0x60 PUSH1 0x3 PUSH1 0x0 CALLER PUSH20 0xFFFFFFFFFFFFFFFFFFFFFFFFFFFFFFFFFFFFFFFF AND PUSH20 0xFFFFFFFFFFFFFFFFFFFFFFFFFFFFFFFFFFFFFFFF AND DUP2 MSTORE PUSH1 0x20 ADD SWAP1 DUP2 MSTORE PUSH1 0x20 ADD PUSH1 0x0 KECCAK256 PUSH1 0x0 DUP4 PUSH1 0x6 DUP2 GT ISZERO PUSH2 0x2753 JUMPI PUSH32 0x4E487B7100000000000000000000000000000000000000000000000000000000 PUSH1 0x0 MSTORE PUSH1 0x21 PUSH1 0x4 MSTORE PUSH1 0x24 PUSH1 0x0 REVERT JUMPDEST PUSH1 0x6 DUP2 GT ISZERO PUSH2 0x278B JUMPI PUSH32 0x4E487B7100000000000000000000000000000000000000000000000000000000 PUSH1 0x0 MSTORE PUSH1 0x21 PUSH1 0x4 MSTORE PUSH1 0x24 PUSH1 0x0 REVERT JUMPDEST DUP2 MSTORE PUSH1 0x20 ADD SWAP1 DUP2 MSTORE PUSH1 0x20 ADD PUSH1 0x0 KECCAK256 DUP1 SLOAD DUP1 PUSH1 0x20 MUL PUSH1 0x20 ADD PUSH1 0x40 MLOAD SWAP1 DUP2 ADD PUSH1 0x40 MSTORE DUP1 SWAP3 SWAP2 SWAP1 DUP2 DUP2 MSTORE PUSH1 0x20 ADD DUP3 DUP1 SLOAD DUP1 ISZERO PUSH2 0x27E3 JUMPI PUSH1 0x20 MUL DUP3 ADD SWAP2 SWAP1 PUSH1 0x0 MSTORE PUSH1 0x20 PUSH1 0x0 KECCAK256 SWAP1 JUMPDEST DUP2 SLOAD DUP2 MSTORE PUSH1 0x20 ADD SWAP1 PUSH1 0x1 ADD SWAP1 DUP1 DUP4 GT PUSH2 0x27CF JUMPI JUMPDEST POP POP POP POP POP SWAP1 POP SWAP2 SWAP1 POP JUMP JUMPDEST PUSH1 0x3 PUSH1 0x20 MSTORE DUP3 PUSH1 0x0 MSTORE PUSH1 0x40 PUSH1 0x0 KECCAK256 PUSH1 0x20 MSTORE DUP2 PUSH1 0x0 MSTORE PUSH1 0x40 PUSH1 0x0 KECCAK256 DUP2 DUP2 SLOAD DUP2 LT PUSH2 0x2817 JUMPI PUSH1 0x0 DUP1 REVERT JUMPDEST SWAP1 PUSH1 0x0 MSTORE PUSH1 0x20 PUSH1 0x0 KECCAK256 ADD PUSH1 0x0 SWAP3 POP SWAP3 POP POP POP SLOAD DUP2 JUMP JUMPDEST PUSH1 0x60 PUSH1 0x2 PUSH1 0x0 DUP4 PUSH1 0x6 DUP2 GT ISZERO PUSH2 0x286C JUMPI PUSH32 0x4E487B7100000000000000000000000000000000000000000000000000000000 PUSH1 0x0 MSTORE PUSH1 0x21 PUSH1 0x4 MSTORE PUSH1 0x24 PUSH1 0x0 REVERT JUMPDEST PUSH1 0x6 DUP2 GT ISZERO PUSH2 0x28A4 JUMPI PUSH32 0x4E487B7100000000000000000000000000000000000000000000000000000000 PUSH1 0x0 MSTORE PUSH1 0x21 PUSH1 0x4 MSTORE PUSH1 0x24 PUSH1 0x0 REVERT JUMPDEST DUP2 MSTORE PUSH1 0x20 ADD SWAP1 DUP2 MSTORE PUSH1 0x20 ADD PUSH1 0x0 KECCAK256 DUP1 SLOAD DUP1 PUSH1 0x20 MUL PUSH1 0x20 ADD PUSH1 0x40 MLOAD SWAP1 DUP2 ADD PUSH1 0x40 MSTORE DUP1 SWAP3 SWAP2 SWAP1 DUP2 DUP2 MSTORE PUSH1 0x20 ADD DUP3 DUP1 SLOAD DUP1 ISZERO PUSH2 0x28FC JUMPI PUSH1 0x20 MUL DUP3 ADD SWAP2 SWAP1 PUSH1 0x0 MSTORE PUSH1 0x20 PUSH1 0x0 KECCAK256 SWAP1 JUMPDEST DUP2 SLOAD DUP2 MSTORE PUSH1 0x20 ADD SWAP1 PUSH1 0x1 ADD SWAP1 DUP1 DUP4 GT PUSH2 0x28E8 JUMPI JUMPDEST POP POP POP POP POP SWAP1 POP SWAP2 SWAP1 POP JUMP JUMPDEST PUSH1 0x60 PUSH1 0x4 PUSH1 0x0 CALLER PUSH20 0xFFFFFFFFFFFFFFFFFFFFFFFFFFFFFFFFFFFFFFFF AND PUSH20 0xFFFFFFFFFFFFFFFFFFFFFFFFFFFFFFFFFFFFFFFF AND DUP2 MSTORE PUSH1 0x20 ADD SWAP1 DUP2 MSTORE PUSH1 0x20 ADD PUSH1 0x0 KECCAK256 PUSH1 0x4 ADD DUP1 SLOAD PUSH2 0x2957 SWAP1 PUSH2 0x35A4 JUMP JUMPDEST DUP1 PUSH1 0x1F ADD PUSH1 0x20 DUP1 SWAP2 DIV MUL PUSH1 0x20 ADD PUSH1 0x40 MLOAD SWAP1 DUP2 ADD PUSH1 0x40 MSTORE DUP1 SWAP3 SWAP2 SWAP1 DUP2 DUP2 MSTORE PUSH1 0x20 ADD DUP3 DUP1 SLOAD PUSH2 0x2983 SWAP1 PUSH2 0x35A4 JUMP JUMPDEST DUP1 ISZERO PUSH2 0x29D0 JUMPI DUP1 PUSH1 0x1F LT PUSH2 0x29A5 JUMPI PUSH2 0x100 DUP1 DUP4 SLOAD DIV MUL DUP4 MSTORE SWAP2 PUSH1 0x20 ADD SWAP2 PUSH2 0x29D0 JUMP JUMPDEST DUP3 ADD SWAP2 SWAP1 PUSH1 0x0 MSTORE PUSH1 0x20 PUSH1 0x0 KECCAK256 SWAP1 JUMPDEST DUP2 SLOAD DUP2 MSTORE SWAP1 PUSH1 0x1 ADD SWAP1 PUSH1 0x20 ADD DUP1 DUP4 GT PUSH2 0x29B3 JUMPI DUP3 SWAP1 SUB PUSH1 0x1F AND DUP3 ADD SWAP2 JUMPDEST POP POP POP POP POP SWAP1 POP SWAP1 JUMP JUMPDEST PUSH1 0x0 PUSH1 0x4 PUSH1 0x0 DUP4 PUSH20 0xFFFFFFFFFFFFFFFFFFFFFFFFFFFFFFFFFFFFFFFF AND PUSH20 0xFFFFFFFFFFFFFFFFFFFFFFFFFFFFFFFFFFFFFFFF AND DUP2 MSTORE PUSH1 0x20 ADD SWAP1 DUP2 MSTORE PUSH1 0x20 ADD PUSH1 0x0 KECCAK256 PUSH1 0x3 ADD PUSH1 0x0 SWAP1 SLOAD SWAP1 PUSH2 0x100 EXP SWAP1 DIV PUSH1 0xFF AND SWAP1 POP SWAP2 SWAP1 POP JUMP JUMPDEST PUSH1 0x0 DUP3 DUP3 PUSH1 0x40 MLOAD PUSH1 0x20 ADD PUSH2 0x2A48 SWAP3 SWAP2 SWAP1 PUSH2 0x3098 JUMP JUMPDEST PUSH1 0x40 MLOAD PUSH1 0x20 DUP2 DUP4 SUB SUB DUP2 MSTORE SWAP1 PUSH1 0x40 MSTORE DUP1 MLOAD SWAP1 PUSH1 0x20 ADD KECCAK256 SWAP1 POP SWAP3 SWAP2 POP POP JUMP JUMPDEST DUP3 DUP1 SLOAD PUSH2 0x2A72 SWAP1 PUSH2 0x35A4 JUMP JUMPDEST SWAP1 PUSH1 0x0 MSTORE PUSH1 0x20 PUSH1 0x0 KECCAK256 SWAP1 PUSH1 0x1F ADD PUSH1 0x20 SWAP1 DIV DUP2 ADD SWAP3 DUP3 PUSH2 0x2A94 JUMPI PUSH1 0x0 DUP6 SSTORE PUSH2 0x2ADB JUMP JUMPDEST DUP3 PUSH1 0x1F LT PUSH2 0x2AAD JUMPI DUP1 MLOAD PUSH1 0xFF NOT AND DUP4 DUP1 ADD OR DUP6 SSTORE PUSH2 0x2ADB JUMP JUMPDEST DUP3 DUP1 ADD PUSH1 0x1 ADD DUP6 SSTORE DUP3 ISZERO PUSH2 0x2ADB JUMPI SWAP2 DUP3 ADD JUMPDEST DUP3 DUP2 GT ISZERO PUSH2 0x2ADA JUMPI DUP3 MLOAD DUP3 SSTORE SWAP2 PUSH1 0x20 ADD SWAP2 SWAP1 PUSH1 0x1 ADD SWAP1 PUSH2 0x2ABF JUMP JUMPDEST JUMPDEST POP SWAP1 POP PUSH2 0x2AE8 SWAP2 SWAP1 PUSH2 0x2B2C JUMP JUMPDEST POP SWAP1 JUMP JUMPDEST POP DUP1 SLOAD PUSH2 0x2AF8 SWAP1 PUSH2 0x35A4 JUMP JUMPDEST PUSH1 0x0 DUP3 SSTORE DUP1 PUSH1 0x1F LT PUSH2 0x2B0A JUMPI POP PUSH2 0x2B29 JUMP JUMPDEST PUSH1 0x1F ADD PUSH1 0x20 SWAP1 DIV SWAP1 PUSH1 0x0 MSTORE PUSH1 0x20 PUSH1 0x0 KECCAK256 SWAP1 DUP2 ADD SWAP1 PUSH2 0x2B28 SWAP2 SWAP1 PUSH2 0x2B2C JUMP JUMPDEST JUMPDEST POP JUMP JUMPDEST JUMPDEST DUP1 DUP3 GT ISZERO PUSH2 0x2B45 JUMPI PUSH1 0x0 DUP2 PUSH1 0x0 SWAP1 SSTORE POP PUSH1 0x1 ADD PUSH2 0x2B2D JUMP JUMPDEST POP SWAP1 JUMP JUMPDEST PUSH1 0x0 PUSH2 0x2B5C PUSH2 0x2B57 DUP5 PUSH2 0x3404 JUMP JUMPDEST PUSH2 0x33DF JUMP JUMPDEST SWAP1 POP DUP3 DUP2 MSTORE PUSH1 0x20 DUP2 ADD DUP5 DUP5 DUP5 ADD GT ISZERO PUSH2 0x2B74 JUMPI PUSH1 0x0 DUP1 REVERT JUMPDEST PUSH2 0x2B7F DUP5 DUP3 DUP6 PUSH2 0x3562 JUMP JUMPDEST POP SWAP4 SWAP3 POP POP POP JUMP JUMPDEST PUSH1 0x0 DUP2 CALLDATALOAD SWAP1 POP PUSH2 0x2B96 DUP2 PUSH2 0x3723 JUMP JUMPDEST SWAP3 SWAP2 POP POP JUMP JUMPDEST PUSH1 0x0 DUP2 CALLDATALOAD SWAP1 POP PUSH2 0x2BAB DUP2 PUSH2 0x373A JUMP JUMPDEST SWAP3 SWAP2 POP POP JUMP JUMPDEST PUSH1 0x0 DUP2 CALLDATALOAD SWAP1 POP PUSH2 0x2BC0 DUP2 PUSH2 0x3751 JUMP JUMPDEST SWAP3 SWAP2 POP POP JUMP JUMPDEST PUSH1 0x0 DUP3 PUSH1 0x1F DUP4 ADD SLT PUSH2 0x2BD7 JUMPI PUSH1 0x0 DUP1 REVERT JUMPDEST DUP2 CALLDATALOAD PUSH2 0x2BE7 DUP5 DUP3 PUSH1 0x20 DUP7 ADD PUSH2 0x2B49 JUMP JUMPDEST SWAP2 POP POP SWAP3 SWAP2 POP POP JUMP JUMPDEST PUSH1 0x0 DUP2 CALLDATALOAD SWAP1 POP PUSH2 0x2BFF DUP2 PUSH2 0x3761 JUMP JUMPDEST SWAP3 SWAP2 POP POP JUMP JUMPDEST PUSH1 0x0 PUSH1 0x20 DUP3 DUP5 SUB SLT ISZERO PUSH2 0x2C17 JUMPI PUSH1 0x0 DUP1 REVERT JUMPDEST PUSH1 0x0 PUSH2 0x2C25 DUP5 DUP3 DUP6 ADD PUSH2 0x2B87 JUMP JUMPDEST SWAP2 POP POP SWAP3 SWAP2 POP POP JUMP JUMPDEST PUSH1 0x0 DUP1 PUSH1 0x0 PUSH1 0x60 DUP5 DUP7 SUB SLT ISZERO PUSH2 0x2C43 JUMPI PUSH1 0x0 DUP1 REVERT JUMPDEST PUSH1 0x0 PUSH2 0x2C51 DUP7 DUP3 DUP8 ADD PUSH2 0x2B87 JUMP JUMPDEST SWAP4 POP POP PUSH1 0x20 PUSH2 0x2C62 DUP7 DUP3 DUP8 ADD PUSH2 0x2B87 JUMP JUMPDEST SWAP3 POP POP PUSH1 0x40 PUSH2 0x2C73 DUP7 DUP3 DUP8 ADD PUSH2 0x2B9C JUMP JUMPDEST SWAP2 POP POP SWAP3 POP SWAP3 POP SWAP3 JUMP JUMPDEST PUSH1 0x0 DUP1 PUSH1 0x0 PUSH1 0x60 DUP5 DUP7 SUB SLT ISZERO PUSH2 0x2C92 JUMPI PUSH1 0x0 DUP1 REVERT JUMPDEST PUSH1 0x0 PUSH2 0x2CA0 DUP7 DUP3 DUP8 ADD PUSH2 0x2B87 JUMP JUMPDEST SWAP4 POP POP PUSH1 0x20 PUSH2 0x2CB1 DUP7 DUP3 DUP8 ADD PUSH2 0x2BB1 JUMP JUMPDEST SWAP3 POP POP PUSH1 0x40 PUSH2 0x2CC2 DUP7 DUP3 DUP8 ADD PUSH2 0x2BF0 JUMP JUMPDEST SWAP2 POP POP SWAP3 POP SWAP3 POP SWAP3 JUMP JUMPDEST PUSH1 0x0 DUP1 PUSH1 0x40 DUP4 DUP6 SUB SLT ISZERO PUSH2 0x2CDF JUMPI PUSH1 0x0 DUP1 REVERT JUMPDEST PUSH1 0x0 PUSH2 0x2CED DUP6 DUP3 DUP7 ADD PUSH2 0x2B87 JUMP JUMPDEST SWAP3 POP POP PUSH1 0x20 PUSH2 0x2CFE DUP6 DUP3 DUP7 ADD PUSH2 0x2BF0 JUMP JUMPDEST SWAP2 POP POP SWAP3 POP SWAP3 SWAP1 POP JUMP JUMPDEST PUSH1 0x0 DUP1 PUSH1 0x0 PUSH1 0x60 DUP5 DUP7 SUB SLT ISZERO PUSH2 0x2D1D JUMPI PUSH1 0x0 DUP1 REVERT JUMPDEST PUSH1 0x0 PUSH2 0x2D2B DUP7 DUP3 DUP8 ADD PUSH2 0x2B87 JUMP JUMPDEST SWAP4 POP POP PUSH1 0x20 PUSH2 0x2D3C DUP7 DUP3 DUP8 ADD PUSH2 0x2BF0 JUMP JUMPDEST SWAP3 POP POP PUSH1 0x40 PUSH2 0x2D4D DUP7 DUP3 DUP8 ADD PUSH2 0x2BB1 JUMP JUMPDEST SWAP2 POP POP SWAP3 POP SWAP3 POP SWAP3 JUMP JUMPDEST PUSH1 0x0 DUP1 PUSH1 0x0 DUP1 PUSH1 0x0 PUSH1 0xA0 DUP7 DUP9 SUB SLT ISZERO PUSH2 0x2D6F JUMPI PUSH1 0x0 DUP1 REVERT JUMPDEST PUSH1 0x0 PUSH2 0x2D7D DUP9 DUP3 DUP10 ADD PUSH2 0x2B87 JUMP JUMPDEST SWAP6 POP POP PUSH1 0x20 PUSH2 0x2D8E DUP9 DUP3 DUP10 ADD PUSH2 0x2BF0 JUMP JUMPDEST SWAP5 POP POP PUSH1 0x40 PUSH2 0x2D9F DUP9 DUP3 DUP10 ADD PUSH2 0x2BF0 JUMP JUMPDEST SWAP4 POP POP PUSH1 0x60 PUSH2 0x2DB0 DUP9 DUP3 DUP10 ADD PUSH2 0x2BF0 JUMP JUMPDEST SWAP3 POP POP PUSH1 0x80 PUSH2 0x2DC1 DUP9 DUP3 DUP10 ADD PUSH2 0x2BF0 JUMP JUMPDEST SWAP2 POP POP SWAP3 SWAP6 POP SWAP3 SWAP6 SWAP1 SWAP4 POP JUMP JUMPDEST PUSH1 0x0 PUSH1 0x20 DUP3 DUP5 SUB SLT ISZERO PUSH2 0x2DE0 JUMPI PUSH1 0x0 DUP1 REVERT JUMPDEST PUSH1 0x0 PUSH2 0x2DEE DUP5 DUP3 DUP6 ADD PUSH2 0x2B9C JUMP JUMPDEST SWAP2 POP POP SWAP3 SWAP2 POP POP JUMP JUMPDEST PUSH1 0x0 PUSH1 0x20 DUP3 DUP5 SUB SLT ISZERO PUSH2 0x2E09 JUMPI PUSH1 0x0 DUP1 REVERT JUMPDEST PUSH1 0x0 PUSH2 0x2E17 DUP5 DUP3 DUP6 ADD PUSH2 0x2BB1 JUMP JUMPDEST SWAP2 POP POP SWAP3 SWAP2 POP POP JUMP JUMPDEST PUSH1 0x0 DUP1 PUSH1 0x40 DUP4 DUP6 SUB SLT ISZERO PUSH2 0x2E33 JUMPI PUSH1 0x0 DUP1 REVERT JUMPDEST PUSH1 0x0 PUSH2 0x2E41 DUP6 DUP3 DUP7 ADD PUSH2 0x2BB1 JUMP JUMPDEST SWAP3 POP POP PUSH1 0x20 PUSH2 0x2E52 DUP6 DUP3 DUP7 ADD PUSH2 0x2BF0 JUMP JUMPDEST SWAP2 POP POP SWAP3 POP SWAP3 SWAP1 POP JUMP JUMPDEST PUSH1 0x0 PUSH1 0x20 DUP3 DUP5 SUB SLT ISZERO PUSH2 0x2E6E JUMPI PUSH1 0x0 DUP1 REVERT JUMPDEST PUSH1 0x0 DUP3 ADD CALLDATALOAD PUSH8 0xFFFFFFFFFFFFFFFF DUP2 GT ISZERO PUSH2 0x2E88 JUMPI PUSH1 0x0 DUP1 REVERT JUMPDEST PUSH2 0x2E94 DUP5 DUP3 DUP6 ADD PUSH2 0x2BC6 JUMP JUMPDEST SWAP2 POP POP SWAP3 SWAP2 POP POP JUMP JUMPDEST PUSH1 0x0 DUP1 PUSH1 0x0 DUP1 PUSH1 0x80 DUP6 DUP8 SUB SLT ISZERO PUSH2 0x2EB3 JUMPI PUSH1 0x0 DUP1 REVERT JUMPDEST PUSH1 0x0 DUP6 ADD CALLDATALOAD PUSH8 0xFFFFFFFFFFFFFFFF DUP2 GT ISZERO PUSH2 0x2ECD JUMPI PUSH1 0x0 DUP1 REVERT JUMPDEST PUSH2 0x2ED9 DUP8 DUP3 DUP9 ADD PUSH2 0x2BC6 JUMP JUMPDEST SWAP5 POP POP PUSH1 0x20 PUSH2 0x2EEA DUP8 DUP3 DUP9 ADD PUSH2 0x2B87 JUMP JUMPDEST SWAP4 POP POP PUSH1 0x40 PUSH2 0x2EFB DUP8 DUP3 DUP9 ADD PUSH2 0x2BF0 JUMP JUMPDEST SWAP3 POP POP PUSH1 0x60 DUP6 ADD CALLDATALOAD PUSH8 0xFFFFFFFFFFFFFFFF DUP2 GT ISZERO PUSH2 0x2F18 JUMPI PUSH1 0x0 DUP1 REVERT JUMPDEST PUSH2 0x2F24 DUP8 DUP3 DUP9 ADD PUSH2 0x2BC6 JUMP JUMPDEST SWAP2 POP POP SWAP3 SWAP6 SWAP2 SWAP5 POP SWAP3 POP JUMP JUMPDEST PUSH1 0x0 PUSH2 0x2F3C DUP4 DUP4 PUSH2 0x2FDB JUMP JUMPDEST PUSH1 0x20 DUP4 ADD SWAP1 POP SWAP3 SWAP2 POP POP JUMP JUMPDEST PUSH2 0x2F51 DUP2 PUSH2 0x34EB JUMP JUMPDEST DUP3 MSTORE POP POP JUMP JUMPDEST PUSH2 0x2F68 PUSH2 0x2F63 DUP3 PUSH2 0x34EB JUMP JUMPDEST PUSH2 0x3607 JUMP JUMPDEST DUP3 MSTORE POP POP JUMP JUMPDEST PUSH1 0x0 PUSH2 0x2F79 DUP3 PUSH2 0x3445 JUMP JUMPDEST PUSH2 0x2F83 DUP2 DUP6 PUSH2 0x3468 JUMP JUMPDEST SWAP4 POP PUSH2 0x2F8E DUP4 PUSH2 0x3435 JUMP JUMPDEST DUP1 PUSH1 0x0 JUMPDEST DUP4 DUP2 LT ISZERO PUSH2 0x2FBF JUMPI DUP2 MLOAD PUSH2 0x2FA6 DUP9 DUP3 PUSH2 0x2F30 JUMP JUMPDEST SWAP8 POP PUSH2 0x2FB1 DUP4 PUSH2 0x345B JUMP JUMPDEST SWAP3 POP POP PUSH1 0x1 DUP2 ADD SWAP1 POP PUSH2 0x2F92 JUMP JUMPDEST POP DUP6 SWAP4 POP POP POP POP SWAP3 SWAP2 POP POP JUMP JUMPDEST PUSH2 0x2FD5 DUP2 PUSH2 0x34FD JUMP JUMPDEST DUP3 MSTORE POP POP JUMP JUMPDEST PUSH2 0x2FE4 DUP2 PUSH2 0x3509 JUMP JUMPDEST DUP3 MSTORE POP POP JUMP JUMPDEST PUSH2 0x2FF3 DUP2 PUSH2 0x3509 JUMP JUMPDEST DUP3 MSTORE POP POP JUMP JUMPDEST PUSH2 0x3002 DUP2 PUSH2 0x3550 JUMP JUMPDEST DUP3 MSTORE POP POP JUMP JUMPDEST PUSH1 0x0 PUSH2 0x3013 DUP3 PUSH2 0x3450 JUMP JUMPDEST PUSH2 0x301D DUP2 DUP6 PUSH2 0x3479 JUMP JUMPDEST SWAP4 POP PUSH2 0x302D DUP2 DUP6 PUSH1 0x20 DUP7 ADD PUSH2 0x3571 JUMP JUMPDEST PUSH2 0x3036 DUP2 PUSH2 0x36F1 JUMP JUMPDEST DUP5 ADD SWAP2 POP POP SWAP3 SWAP2 POP POP JUMP JUMPDEST PUSH1 0x0 PUSH2 0x304C DUP3 PUSH2 0x3450 JUMP JUMPDEST PUSH2 0x3056 DUP2 DUP6 PUSH2 0x348A JUMP JUMPDEST SWAP4 POP PUSH2 0x3066 DUP2 DUP6 PUSH1 0x20 DUP7 ADD PUSH2 0x3571 JUMP JUMPDEST DUP1 DUP5 ADD SWAP2 POP POP SWAP3 SWAP2 POP POP JUMP JUMPDEST PUSH2 0x307B DUP2 PUSH2 0x3546 JUMP JUMPDEST DUP3 MSTORE POP POP JUMP JUMPDEST PUSH2 0x3092 PUSH2 0x308D DUP3 PUSH2 0x3546 JUMP JUMPDEST PUSH2 0x362B JUMP JUMPDEST DUP3 MSTORE POP POP JUMP JUMPDEST PUSH1 0x0 PUSH2 0x30A4 DUP3 DUP6 PUSH2 0x2F57 JUMP JUMPDEST PUSH1 0x14 DUP3 ADD SWAP2 POP PUSH2 0x30B4 DUP3 DUP5 PUSH2 0x3081 JUMP JUMPDEST PUSH1 0x20 DUP3 ADD SWAP2 POP DUP2 SWAP1 POP SWAP4 SWAP3 POP POP POP JUMP JUMPDEST PUSH1 0x0 PUSH2 0x30D0 DUP3 DUP5 PUSH2 0x3041 JUMP JUMPDEST SWAP2 POP DUP2 SWAP1 POP SWAP3 SWAP2 POP POP JUMP JUMPDEST PUSH1 0x0 PUSH1 0x20 DUP3 ADD SWAP1 POP PUSH2 0x30F0 PUSH1 0x0 DUP4 ADD DUP5 PUSH2 0x2F48 JUMP JUMPDEST SWAP3 SWAP2 POP POP JUMP JUMPDEST PUSH1 0x0 PUSH1 0x20 DUP3 ADD SWAP1 POP DUP2 DUP2 SUB PUSH1 0x0 DUP4 ADD MSTORE PUSH2 0x3110 DUP2 DUP5 PUSH2 0x2F6E JUMP JUMPDEST SWAP1 POP SWAP3 SWAP2 POP POP JUMP JUMPDEST PUSH1 0x0 PUSH1 0x20 DUP3 ADD SWAP1 POP PUSH2 0x312D PUSH1 0x0 DUP4 ADD DUP5 PUSH2 0x2FCC JUMP JUMPDEST SWAP3 SWAP2 POP POP JUMP JUMPDEST PUSH1 0x0 PUSH1 0x20 DUP3 ADD SWAP1 POP PUSH2 0x3148 PUSH1 0x0 DUP4 ADD DUP5 PUSH2 0x2FEA JUMP JUMPDEST SWAP3 SWAP2 POP POP JUMP JUMPDEST PUSH1 0x0 PUSH1 0xC0 DUP3 ADD SWAP1 POP PUSH2 0x3163 PUSH1 0x0 DUP4 ADD DUP10 PUSH2 0x2FEA JUMP JUMPDEST PUSH2 0x3170 PUSH1 0x20 DUP4 ADD DUP9 PUSH2 0x2F48 JUMP JUMPDEST PUSH2 0x317D PUSH1 0x40 DUP4 ADD DUP8 PUSH2 0x3072 JUMP JUMPDEST DUP2 DUP2 SUB PUSH1 0x60 DUP4 ADD MSTORE PUSH2 0x318F DUP2 DUP7 PUSH2 0x3008 JUMP JUMPDEST SWAP1 POP PUSH2 0x319E PUSH1 0x80 DUP4 ADD DUP6 PUSH2 0x2F48 JUMP JUMPDEST DUP2 DUP2 SUB PUSH1 0xA0 DUP4 ADD MSTORE PUSH2 0x31B0 DUP2 DUP5 PUSH2 0x3008 JUMP JUMPDEST SWAP1 POP SWAP8 SWAP7 POP POP POP POP POP POP POP JUMP JUMPDEST PUSH1 0x0 PUSH1 0x20 DUP3 ADD SWAP1 POP DUP2 DUP2 SUB PUSH1 0x0 DUP4 ADD MSTORE PUSH2 0x31D7 DUP2 DUP5 PUSH2 0x3008 JUMP JUMPDEST SWAP1 POP SWAP3 SWAP2 POP POP JUMP JUMPDEST PUSH1 0x0 PUSH1 0xA0 DUP3 ADD SWAP1 POP DUP2 DUP2 SUB PUSH1 0x0 DUP4 ADD MSTORE PUSH2 0x31F9 DUP2 DUP9 PUSH2 0x3008 JUMP JUMPDEST SWAP1 POP PUSH2 0x3208 PUSH1 0x20 DUP4 ADD DUP8 PUSH2 0x2F48 JUMP JUMPDEST PUSH2 0x3215 PUSH1 0x40 DUP4 ADD DUP7 PUSH2 0x3072 JUMP JUMPDEST PUSH2 0x3222 PUSH1 0x60 DUP4 ADD DUP6 PUSH2 0x2F48 JUMP JUMPDEST DUP2 DUP2 SUB PUSH1 0x80 DUP4 ADD MSTORE PUSH2 0x3234 DUP2 DUP5 PUSH2 0x3008 JUMP JUMPDEST SWAP1 POP SWAP7 SWAP6 POP POP POP POP POP POP JUMP JUMPDEST PUSH1 0x0 PUSH1 0xC0 DUP3 ADD SWAP1 POP DUP2 DUP2 SUB PUSH1 0x0 DUP4 ADD MSTORE PUSH2 0x325A DUP2 DUP10 PUSH2 0x3008 JUMP JUMPDEST SWAP1 POP PUSH2 0x3269 PUSH1 0x20 DUP4 ADD DUP9 PUSH2 0x2F48 JUMP JUMPDEST PUSH2 0x3276 PUSH1 0x40 DUP4 ADD DUP8 PUSH2 0x3072 JUMP JUMPDEST PUSH2 0x3283 PUSH1 0x60 DUP4 ADD DUP7 PUSH2 0x2F48 JUMP JUMPDEST DUP2 DUP2 SUB PUSH1 0x80 DUP4 ADD MSTORE PUSH2 0x3295 DUP2 DUP6 PUSH2 0x3008 JUMP JUMPDEST SWAP1 POP PUSH2 0x32A4 PUSH1 0xA0 DUP4 ADD DUP5 PUSH2 0x2FF9 JUMP JUMPDEST SWAP8 SWAP7 POP POP POP POP POP POP POP JUMP JUMPDEST PUSH1 0x0 PUSH1 0xE0 DUP3 ADD SWAP1 POP DUP2 DUP2 SUB PUSH1 0x0 DUP4 ADD MSTORE PUSH2 0x32C9 DUP2 DUP11 PUSH2 0x3008 JUMP JUMPDEST SWAP1 POP DUP2 DUP2 SUB PUSH1 0x20 DUP4 ADD MSTORE PUSH2 0x32DD DUP2 DUP10 PUSH2 0x3008 JUMP JUMPDEST SWAP1 POP DUP2 DUP2 SUB PUSH1 0x40 DUP4 ADD MSTORE PUSH2 0x32F1 DUP2 DUP9 PUSH2 0x3008 JUMP JUMPDEST SWAP1 POP DUP2 DUP2 SUB PUSH1 0x60 DUP4 ADD MSTORE PUSH2 0x3305 DUP2 DUP8 PUSH2 0x3008 JUMP JUMPDEST SWAP1 POP DUP2 DUP2 SUB PUSH1 0x80 DUP4 ADD MSTORE PUSH2 0x3319 DUP2 DUP7 PUSH2 0x3008 JUMP JUMPDEST SWAP1 POP DUP2 DUP2 SUB PUSH1 0xA0 DUP4 ADD MSTORE PUSH2 0x332D DUP2 DUP6 PUSH2 0x3008 JUMP JUMPDEST SWAP1 POP DUP2 DUP2 SUB PUSH1 0xC0 DUP4 ADD MSTORE PUSH2 0x3341 DUP2 DUP5 PUSH2 0x3008 JUMP JUMPDEST SWAP1 POP SWAP9 SWAP8 POP POP POP POP POP POP POP POP JUMP JUMPDEST PUSH1 0x0 PUSH1 0x40 DUP3 ADD SWAP1 POP DUP2 DUP2 SUB PUSH1 0x0 DUP4 ADD MSTORE PUSH2 0x3369 DUP2 DUP6 PUSH2 0x3008 JUMP JUMPDEST SWAP1 POP PUSH2 0x3378 PUSH1 0x20 DUP4 ADD DUP5 PUSH2 0x3072 JUMP JUMPDEST SWAP4 SWAP3 POP POP POP JUMP JUMPDEST PUSH1 0x0 PUSH1 0x20 DUP3 ADD SWAP1 POP PUSH2 0x3394 PUSH1 0x0 DUP4 ADD DUP5 PUSH2 0x3072 JUMP JUMPDEST SWAP3 SWAP2 POP POP JUMP JUMPDEST PUSH1 0x0 PUSH1 0x80 DUP3 ADD SWAP1 POP PUSH2 0x33AF PUSH1 0x0 DUP4 ADD DUP8 PUSH2 0x3072 JUMP JUMPDEST PUSH2 0x33BC PUSH1 0x20 DUP4 ADD DUP7 PUSH2 0x3072 JUMP JUMPDEST PUSH2 0x33C9 PUSH1 0x40 DUP4 ADD DUP6 PUSH2 0x3072 JUMP JUMPDEST PUSH2 0x33D6 PUSH1 0x60 DUP4 ADD DUP5 PUSH2 0x3072 JUMP JUMPDEST SWAP6 SWAP5 POP POP POP POP POP JUMP JUMPDEST PUSH1 0x0 PUSH2 0x33E9 PUSH2 0x33FA JUMP JUMPDEST SWAP1 POP PUSH2 0x33F5 DUP3 DUP3 PUSH2 0x35D6 JUMP JUMPDEST SWAP2 SWAP1 POP JUMP JUMPDEST PUSH1 0x0 PUSH1 0x40 MLOAD SWAP1 POP SWAP1 JUMP JUMPDEST PUSH1 0x0 PUSH8 0xFFFFFFFFFFFFFFFF DUP3 GT ISZERO PUSH2 0x341F JUMPI PUSH2 0x341E PUSH2 0x36C2 JUMP JUMPDEST JUMPDEST PUSH2 0x3428 DUP3 PUSH2 0x36F1 JUMP JUMPDEST SWAP1 POP PUSH1 0x20 DUP2 ADD SWAP1 POP SWAP2 SWAP1 POP JUMP JUMPDEST PUSH1 0x0 DUP2 SWAP1 POP PUSH1 0x20 DUP3 ADD SWAP1 POP SWAP2 SWAP1 POP JUMP JUMPDEST PUSH1 0x0 DUP2 MLOAD SWAP1 POP SWAP2 SWAP1 POP JUMP JUMPDEST PUSH1 0x0 DUP2 MLOAD SWAP1 POP SWAP2 SWAP1 POP JUMP JUMPDEST PUSH1 0x0 PUSH1 0x20 DUP3 ADD SWAP1 POP SWAP2 SWAP1 POP JUMP JUMPDEST PUSH1 0x0 DUP3 DUP3 MSTORE PUSH1 0x20 DUP3 ADD SWAP1 POP SWAP3 SWAP2 POP POP JUMP JUMPDEST PUSH1 0x0 DUP3 DUP3 MSTORE PUSH1 0x20 DUP3 ADD SWAP1 POP SWAP3 SWAP2 POP POP JUMP JUMPDEST PUSH1 0x0 DUP2 SWAP1 POP SWAP3 SWAP2 POP POP JUMP JUMPDEST PUSH1 0x0 PUSH2 0x34A0 DUP3 PUSH2 0x3546 JUMP JUMPDEST SWAP2 POP PUSH2 0x34AB DUP4 PUSH2 0x3546 JUMP JUMPDEST SWAP3 POP DUP3 PUSH32 0xFFFFFFFFFFFFFFFFFFFFFFFFFFFFFFFFFFFFFFFFFFFFFFFFFFFFFFFFFFFFFFFF SUB DUP3 GT ISZERO PUSH2 0x34E0 JUMPI PUSH2 0x34DF PUSH2 0x3635 JUMP JUMPDEST JUMPDEST DUP3 DUP3 ADD SWAP1 POP SWAP3 SWAP2 POP POP JUMP JUMPDEST PUSH1 0x0 PUSH2 0x34F6 DUP3 PUSH2 0x3526 JUMP JUMPDEST SWAP1 POP SWAP2 SWAP1 POP JUMP JUMPDEST PUSH1 0x0 DUP2 ISZERO ISZERO SWAP1 POP SWAP2 SWAP1 POP JUMP JUMPDEST PUSH1 0x0 DUP2 SWAP1 POP SWAP2 SWAP1 POP JUMP JUMPDEST PUSH1 0x0 DUP2 SWAP1 POP PUSH2 0x3521 DUP3 PUSH2 0x370F JUMP JUMPDEST SWAP2 SWAP1 POP JUMP JUMPDEST PUSH1 0x0 PUSH20 0xFFFFFFFFFFFFFFFFFFFFFFFFFFFFFFFFFFFFFFFF DUP3 AND SWAP1 POP SWAP2 SWAP1 POP JUMP JUMPDEST PUSH1 0x0 DUP2 SWAP1 POP SWAP2 SWAP1 POP JUMP JUMPDEST PUSH1 0x0 PUSH2 0x355B DUP3 PUSH2 0x3513 JUMP JUMPDEST SWAP1 POP SWAP2 SWAP1 POP JUMP JUMPDEST DUP3 DUP2 DUP4 CALLDATACOPY PUSH1 0x0 DUP4 DUP4 ADD MSTORE POP POP POP JUMP JUMPDEST PUSH1 0x0 JUMPDEST DUP4 DUP2 LT ISZERO PUSH2 0x358F JUMPI DUP1 DUP3 ADD MLOAD DUP2 DUP5 ADD MSTORE PUSH1 0x20 DUP2 ADD SWAP1 POP PUSH2 0x3574 JUMP JUMPDEST DUP4 DUP2 GT ISZERO PUSH2 0x359E JUMPI PUSH1 0x0 DUP5 DUP5 ADD MSTORE JUMPDEST POP POP POP POP JUMP JUMPDEST PUSH1 0x0 PUSH1 0x2 DUP3 DIV SWAP1 POP PUSH1 0x1 DUP3 AND DUP1 PUSH2 0x35BC JUMPI PUSH1 0x7F DUP3 AND SWAP2 POP JUMPDEST PUSH1 0x20 DUP3 LT DUP2 EQ ISZERO PUSH2 0x35D0 JUMPI PUSH2 0x35CF PUSH2 0x3693 JUMP JUMPDEST JUMPDEST POP SWAP2 SWAP1 POP JUMP JUMPDEST PUSH2 0x35DF DUP3 PUSH2 0x36F1 JUMP JUMPDEST DUP2 ADD DUP2 DUP2 LT PUSH8 0xFFFFFFFFFFFFFFFF DUP3 GT OR ISZERO PUSH2 0x35FE JUMPI PUSH2 0x35FD PUSH2 0x36C2 JUMP JUMPDEST JUMPDEST DUP1 PUSH1 0x40 MSTORE POP POP POP JUMP JUMPDEST PUSH1 0x0 PUSH2 0x3612 DUP3 PUSH2 0x3619 JUMP JUMPDEST SWAP1 POP SWAP2 SWAP1 POP JUMP JUMPDEST PUSH1 0x0 PUSH2 0x3624 DUP3 PUSH2 0x3702 JUMP JUMPDEST SWAP1 POP SWAP2 SWAP1 POP JUMP JUMPDEST PUSH1 0x0 DUP2 SWAP1 POP SWAP2 SWAP1 POP JUMP JUMPDEST PUSH32 0x4E487B7100000000000000000000000000000000000000000000000000000000 PUSH1 0x0 MSTORE PUSH1 0x11 PUSH1 0x4 MSTORE PUSH1 0x24 PUSH1 0x0 REVERT JUMPDEST PUSH32 0x4E487B7100000000000000000000000000000000000000000000000000000000 PUSH1 0x0 MSTORE PUSH1 0x21 PUSH1 0x4 MSTORE PUSH1 0x24 PUSH1 0x0 REVERT JUMPDEST PUSH32 0x4E487B7100000000000000000000000000000000000000000000000000000000 PUSH1 0x0 MSTORE PUSH1 0x22 PUSH1 0x4 MSTORE PUSH1 0x24 PUSH1 0x0 REVERT JUMPDEST PUSH32 0x4E487B7100000000000000000000000000000000000000000000000000000000 PUSH1 0x0 MSTORE PUSH1 0x41 PUSH1 0x4 MSTORE PUSH1 0x24 PUSH1 0x0 REVERT JUMPDEST PUSH1 0x0 PUSH1 0x1F NOT PUSH1 0x1F DUP4 ADD AND SWAP1 POP SWAP2 SWAP1 POP JUMP JUMPDEST PUSH1 0x0 DUP2 PUSH1 0x60 SHL SWAP1 POP SWAP2 SWAP1 POP JUMP JUMPDEST PUSH1 0x7 DUP2 LT PUSH2 0x3720 JUMPI PUSH2 0x371F PUSH2 0x3664 JUMP JUMPDEST JUMPDEST POP JUMP JUMPDEST PUSH2 0x372C DUP2 PUSH2 0x34EB JUMP JUMPDEST DUP2 EQ PUSH2 0x3737 JUMPI PUSH1 0x0 DUP1 REVERT JUMPDEST POP JUMP JUMPDEST PUSH2 0x3743 DUP2 PUSH2 0x3509 JUMP JUMPDEST DUP2 EQ PUSH2 0x374E JUMPI PUSH1 0x0 DUP1 REVERT JUMPDEST POP JUMP JUMPDEST PUSH1 0x7 DUP2 LT PUSH2 0x375E JUMPI PUSH1 0x0 DUP1 REVERT JUMPDEST POP JUMP JUMPDEST PUSH2 0x376A DUP2 PUSH2 0x3546 JUMP JUMPDEST DUP2 EQ PUSH2 0x3775 JUMPI PUSH1 0x0 DUP1 REVERT JUMPDEST POP JUMP INVALID LOG2 PUSH5 0x6970667358 0x22 SLT KECCAK256 0xFC 0xAA SWAP12 DUP7 0xC5 CALL PUSH31 0x856B9D95B8B4D28B1022DB869911FB3D2B26AE2AD85EBFAC2564736F6C6343 STOP ADDMOD DIV STOP CALLER "
				},
				"gasEstimates": {
					"creation": {
						"codeDepositCost": "2850800",
						"executionCost": "3115",
						"totalCost": "2853915"
					},
					"external": {
						"addressToAmountRecord(address)": "infinite",
						"checkLogIn(address)": "1699",
						"checkUser()": "infinite",
						"deleteUser()": "infinite",
						"getAllNftCatWise(uint8)": "infinite",
						"getNft(address,uint256)": "infinite",
						"getNftCategories()": "infinite",
						"getNftWithBytes32(bytes32)": "infinite",
						"getProfilePic()": "infinite",
						"getUniKeysMapping(address)": "infinite",
						"getUserNftCatWise(uint8)": "infinite",
						"logIn()": "infinite",
						"logOut()": "infinite",
						"myNFTs(bytes32)": "infinite",
						"nftCatWise(uint8,uint256)": "2586",
						"setAmountRecord(address,uint256,uint256,uint256,uint256)": "infinite",
						"setBuyNftData(address,address,bytes32)": "infinite",
						"setNft(string,address,uint256,string)": "infinite",
						"setNftCat(address,uint256,uint8)": "infinite",
						"setProfilePic(string)": "infinite",
						"signUp(string)": "infinite",
						"uniKeysMapping(address,uint256)": "2701",
						"updateUser(string)": "infinite",
						"userAmountDetail(address)": "infinite",
						"userNameToAddress(string)": "infinite",
						"userNftCatWise(address,uint8,uint256)": "2801"
					}
				},
				"methodIdentifiers": {
					"addressToAmountRecord(address)": "7111e750",
					"checkLogIn(address)": "f6f2ede0",
					"checkUser()": "c1562547",
					"deleteUser()": "026ff05e",
					"getAllNftCatWise(uint8)": "e36d6f50",
					"getNft(address,uint256)": "1c6932b6",
					"getNftCategories()": "bbc53ef2",
					"getNftWithBytes32(bytes32)": "3a196986",
					"getProfilePic()": "eb972008",
					"getUniKeysMapping(address)": "5cb0122a",
					"getUserNftCatWise(uint8)": "da31f722",
					"logIn()": "377b47a3",
					"logOut()": "4be422ae",
					"myNFTs(bytes32)": "07edbdc5",
					"nftCatWise(uint8,uint256)": "b2cf1886",
					"setAmountRecord(address,uint256,uint256,uint256,uint256)": "894fd813",
					"setBuyNftData(address,address,bytes32)": "ceda3b20",
					"setNft(string,address,uint256,string)": "6e9d4f8d",
					"setNftCat(address,uint256,uint8)": "2ae23109",
					"setProfilePic(string)": "011f2cce",
					"signUp(string)": "adcfb4fc",
					"uniKeysMapping(address,uint256)": "23e583b4",
					"updateUser(string)": "0b4f12f6",
					"userAmountDetail(address)": "8a1b9736",
					"userNameToAddress(string)": "6c608709",
					"userNftCatWise(address,uint8,uint256)": "dc9151c5"
				}
			},
			"storageLayout": {
				"storage": [
					{
						"astId": 744,
						"contract": "Bluelight-MP/UserDashboard.sol:UserDashboard",
						"label": "myNFTs",
						"offset": 0,
						"slot": "0",
						"type": "t_mapping(t_bytes32,t_struct(MyNFT)799_storage)"
					},
					{
						"astId": 749,
						"contract": "Bluelight-MP/UserDashboard.sol:UserDashboard",
						"label": "uniKeysMapping",
						"offset": 0,
						"slot": "1",
						"type": "t_mapping(t_address,t_array(t_bytes32)dyn_storage)"
					},
					{
						"astId": 755,
						"contract": "Bluelight-MP/UserDashboard.sol:UserDashboard",
						"label": "nftCatWise",
						"offset": 0,
						"slot": "2",
						"type": "t_mapping(t_enum(NftCategory)785,t_array(t_bytes32)dyn_storage)"
					},
					{
						"astId": 763,
						"contract": "Bluelight-MP/UserDashboard.sol:UserDashboard",
						"label": "userNftCatWise",
						"offset": 0,
						"slot": "3",
						"type": "t_mapping(t_address,t_mapping(t_enum(NftCategory)785,t_array(t_bytes32)dyn_storage))"
					},
					{
						"astId": 768,
						"contract": "Bluelight-MP/UserDashboard.sol:UserDashboard",
						"label": "users",
						"offset": 0,
						"slot": "4",
						"type": "t_mapping(t_address,t_struct(User)810_storage)"
					},
					{
						"astId": 772,
						"contract": "Bluelight-MP/UserDashboard.sol:UserDashboard",
						"label": "userNameToAddress",
						"offset": 0,
						"slot": "5",
						"type": "t_mapping(t_string_memory_ptr,t_address)"
					},
					{
						"astId": 777,
						"contract": "Bluelight-MP/UserDashboard.sol:UserDashboard",
						"label": "addressToAmountRecord",
						"offset": 0,
						"slot": "6",
						"type": "t_mapping(t_address,t_struct(AmountRecord)819_storage)"
					}
				],
				"types": {
					"t_address": {
						"encoding": "inplace",
						"label": "address",
						"numberOfBytes": "20"
					},
					"t_array(t_bytes32)dyn_storage": {
						"base": "t_bytes32",
						"encoding": "dynamic_array",
						"label": "bytes32[]",
						"numberOfBytes": "32"
					},
					"t_bool": {
						"encoding": "inplace",
						"label": "bool",
						"numberOfBytes": "1"
					},
					"t_bytes32": {
						"encoding": "inplace",
						"label": "bytes32",
						"numberOfBytes": "32"
					},
					"t_enum(NftCategory)785": {
						"encoding": "inplace",
						"label": "enum UserDashboard.NftCategory",
						"numberOfBytes": "1"
					},
					"t_mapping(t_address,t_array(t_bytes32)dyn_storage)": {
						"encoding": "mapping",
						"key": "t_address",
						"label": "mapping(address => bytes32[])",
						"numberOfBytes": "32",
						"value": "t_array(t_bytes32)dyn_storage"
					},
					"t_mapping(t_address,t_mapping(t_enum(NftCategory)785,t_array(t_bytes32)dyn_storage))": {
						"encoding": "mapping",
						"key": "t_address",
						"label": "mapping(address => mapping(enum UserDashboard.NftCategory => bytes32[]))",
						"numberOfBytes": "32",
						"value": "t_mapping(t_enum(NftCategory)785,t_array(t_bytes32)dyn_storage)"
					},
					"t_mapping(t_address,t_struct(AmountRecord)819_storage)": {
						"encoding": "mapping",
						"key": "t_address",
						"label": "mapping(address => struct UserDashboard.AmountRecord)",
						"numberOfBytes": "32",
						"value": "t_struct(AmountRecord)819_storage"
					},
					"t_mapping(t_address,t_struct(User)810_storage)": {
						"encoding": "mapping",
						"key": "t_address",
						"label": "mapping(address => struct UserDashboard.User)",
						"numberOfBytes": "32",
						"value": "t_struct(User)810_storage"
					},
					"t_mapping(t_bytes32,t_struct(MyNFT)799_storage)": {
						"encoding": "mapping",
						"key": "t_bytes32",
						"label": "mapping(bytes32 => struct UserDashboard.MyNFT)",
						"numberOfBytes": "32",
						"value": "t_struct(MyNFT)799_storage"
					},
					"t_mapping(t_enum(NftCategory)785,t_array(t_bytes32)dyn_storage)": {
						"encoding": "mapping",
						"key": "t_enum(NftCategory)785",
						"label": "mapping(enum UserDashboard.NftCategory => bytes32[])",
						"numberOfBytes": "32",
						"value": "t_array(t_bytes32)dyn_storage"
					},
					"t_mapping(t_string_memory_ptr,t_address)": {
						"encoding": "mapping",
						"key": "t_string_memory_ptr",
						"label": "mapping(string => address)",
						"numberOfBytes": "32",
						"value": "t_address"
					},
					"t_string_memory_ptr": {
						"encoding": "bytes",
						"label": "string",
						"numberOfBytes": "32"
					},
					"t_string_storage": {
						"encoding": "bytes",
						"label": "string",
						"numberOfBytes": "32"
					},
					"t_struct(AmountRecord)819_storage": {
						"encoding": "inplace",
						"label": "struct UserDashboard.AmountRecord",
						"members": [
							{
								"astId": 812,
								"contract": "Bluelight-MP/UserDashboard.sol:UserDashboard",
								"label": "curAmountSpent",
								"offset": 0,
								"slot": "0",
								"type": "t_uint256"
							},
							{
								"astId": 814,
								"contract": "Bluelight-MP/UserDashboard.sol:UserDashboard",
								"label": "tokenAmountSpent",
								"offset": 0,
								"slot": "1",
								"type": "t_uint256"
							},
							{
								"astId": 816,
								"contract": "Bluelight-MP/UserDashboard.sol:UserDashboard",
								"label": "curAmountEarned",
								"offset": 0,
								"slot": "2",
								"type": "t_uint256"
							},
							{
								"astId": 818,
								"contract": "Bluelight-MP/UserDashboard.sol:UserDashboard",
								"label": "tokenAmountEarned",
								"offset": 0,
								"slot": "3",
								"type": "t_uint256"
							}
						],
						"numberOfBytes": "128"
					},
					"t_struct(MyNFT)799_storage": {
						"encoding": "inplace",
						"label": "struct UserDashboard.MyNFT",
						"members": [
							{
								"astId": 787,
								"contract": "Bluelight-MP/UserDashboard.sol:UserDashboard",
								"label": "nftName",
								"offset": 0,
								"slot": "0",
								"type": "t_string_storage"
							},
							{
								"astId": 789,
								"contract": "Bluelight-MP/UserDashboard.sol:UserDashboard",
								"label": "contractAddress",
								"offset": 0,
								"slot": "1",
								"type": "t_address"
							},
							{
								"astId": 791,
								"contract": "Bluelight-MP/UserDashboard.sol:UserDashboard",
								"label": "tokenId",
								"offset": 0,
								"slot": "2",
								"type": "t_uint256"
							},
							{
								"astId": 793,
								"contract": "Bluelight-MP/UserDashboard.sol:UserDashboard",
								"label": "owner",
								"offset": 0,
								"slot": "3",
								"type": "t_address"
							},
							{
								"astId": 795,
								"contract": "Bluelight-MP/UserDashboard.sol:UserDashboard",
								"label": "ipfs",
								"offset": 0,
								"slot": "4",
								"type": "t_string_storage"
							},
							{
								"astId": 798,
								"contract": "Bluelight-MP/UserDashboard.sol:UserDashboard",
								"label": "nftCategory",
								"offset": 0,
								"slot": "5",
								"type": "t_enum(NftCategory)785"
							}
						],
						"numberOfBytes": "192"
					},
					"t_struct(User)810_storage": {
						"encoding": "inplace",
						"label": "struct UserDashboard.User",
						"members": [
							{
								"astId": 801,
								"contract": "Bluelight-MP/UserDashboard.sol:UserDashboard",
								"label": "userName",
								"offset": 0,
								"slot": "0",
								"type": "t_string_storage"
							},
							{
								"astId": 803,
								"contract": "Bluelight-MP/UserDashboard.sol:UserDashboard",
								"label": "userExisted",
								"offset": 0,
								"slot": "1",
								"type": "t_bool"
							},
							{
								"astId": 805,
								"contract": "Bluelight-MP/UserDashboard.sol:UserDashboard",
								"label": "creationTime",
								"offset": 0,
								"slot": "2",
								"type": "t_uint256"
							},
							{
								"astId": 807,
								"contract": "Bluelight-MP/UserDashboard.sol:UserDashboard",
								"label": "loggedIn",
								"offset": 0,
								"slot": "3",
								"type": "t_bool"
							},
							{
								"astId": 809,
								"contract": "Bluelight-MP/UserDashboard.sol:UserDashboard",
								"label": "profilePic",
								"offset": 0,
								"slot": "4",
								"type": "t_string_storage"
							}
						],
						"numberOfBytes": "160"
					},
					"t_uint256": {
						"encoding": "inplace",
						"label": "uint256",
						"numberOfBytes": "32"
					}
				}
			},
			"userdoc": {
				"kind": "user",
				"methods": {},
				"version": 1
			}
		}
	}
}