{
	"Bluelight-MP/UserDashboard.sol": {
		"UserDashboard": {
			"abi": [
				{
					"inputs": [],
					"stateMutability": "nonpayable",
					"type": "constructor"
				},
				{
					"anonymous": false,
					"inputs": [
						{
							"indexed": true,
							"internalType": "address",
							"name": "user",
							"type": "address"
						},
						{
							"indexed": false,
							"internalType": "uint256",
							"name": "timeStamp",
							"type": "uint256"
						}
					],
					"name": "LoggingIn",
					"type": "event"
				},
				{
					"anonymous": false,
					"inputs": [
						{
							"indexed": true,
							"internalType": "address",
							"name": "user",
							"type": "address"
						},
						{
							"indexed": false,
							"internalType": "uint256",
							"name": "timeStamp",
							"type": "uint256"
						}
					],
					"name": "LoggingOut",
					"type": "event"
				},
				{
					"anonymous": false,
					"inputs": [
						{
							"indexed": true,
							"internalType": "address",
							"name": "user",
							"type": "address"
						},
						{
							"indexed": false,
							"internalType": "string",
							"name": "username",
							"type": "string"
						},
						{
							"indexed": false,
							"internalType": "uint256",
							"name": "timeStamp",
							"type": "uint256"
						}
					],
					"name": "SignUp",
					"type": "event"
				},
				{
					"inputs": [
						{
							"internalType": "address",
							"name": "",
							"type": "address"
						}
					],
					"name": "addressToAmountRecord",
					"outputs": [
						{
							"internalType": "uint256",
							"name": "curAmountSpent",
							"type": "uint256"
						},
						{
							"internalType": "uint256",
							"name": "tokenAmountSpent",
							"type": "uint256"
						},
						{
							"internalType": "uint256",
							"name": "curAmountEarned",
							"type": "uint256"
						},
						{
							"internalType": "uint256",
							"name": "tokenAmountEarned",
							"type": "uint256"
						}
					],
					"stateMutability": "view",
					"type": "function"
				},
				{
					"inputs": [
						{
							"internalType": "address",
							"name": "_userAddr",
							"type": "address"
						}
					],
					"name": "checkLogIn",
					"outputs": [
						{
							"internalType": "bool",
							"name": "",
							"type": "bool"
						}
					],
					"stateMutability": "view",
					"type": "function"
				},
				{
					"inputs": [],
					"name": "checkUser",
					"outputs": [
						{
							"internalType": "string",
							"name": "",
							"type": "string"
						}
					],
					"stateMutability": "view",
					"type": "function"
				},
				{
					"inputs": [],
					"name": "deleteUser",
					"outputs": [
						{
							"internalType": "bool",
							"name": "",
							"type": "bool"
						}
					],
					"stateMutability": "nonpayable",
					"type": "function"
				},
				{
					"inputs": [
						{
							"internalType": "enum UserDashboard.NftCategory",
							"name": "nftCat",
							"type": "uint8"
						}
					],
					"name": "getAllNftCatWise",
					"outputs": [
						{
							"internalType": "bytes32[]",
							"name": "",
							"type": "bytes32[]"
						}
					],
					"stateMutability": "view",
					"type": "function"
				},
				{
					"inputs": [
						{
							"internalType": "address",
							"name": "_nftContractAddress",
							"type": "address"
						},
						{
							"internalType": "uint256",
							"name": "_tokenId",
							"type": "uint256"
						}
					],
					"name": "getNft",
					"outputs": [
						{
							"internalType": "bytes32",
							"name": "uniKey",
							"type": "bytes32"
						},
						{
							"internalType": "address",
							"name": "nftContractAddress",
							"type": "address"
						},
						{
							"internalType": "uint256",
							"name": "tokenId",
							"type": "uint256"
						},
						{
							"internalType": "string",
							"name": "name",
							"type": "string"
						},
						{
							"internalType": "address",
							"name": "owner",
							"type": "address"
						},
						{
							"internalType": "string",
							"name": "iPFS",
							"type": "string"
						}
					],
					"stateMutability": "view",
					"type": "function"
				},
				{
					"inputs": [],
					"name": "getNftCategories",
					"outputs": [
						{
							"internalType": "string",
							"name": "",
							"type": "string"
						},
						{
							"internalType": "string",
							"name": "",
							"type": "string"
						},
						{
							"internalType": "string",
							"name": "",
							"type": "string"
						},
						{
							"internalType": "string",
							"name": "",
							"type": "string"
						},
						{
							"internalType": "string",
							"name": "",
							"type": "string"
						},
						{
							"internalType": "string",
							"name": "",
							"type": "string"
						},
						{
							"internalType": "string",
							"name": "",
							"type": "string"
						}
					],
					"stateMutability": "pure",
					"type": "function"
				},
				{
					"inputs": [
						{
							"internalType": "bytes32",
							"name": "_uniKey",
							"type": "bytes32"
						}
					],
					"name": "getNftWithBytes32",
					"outputs": [
						{
							"internalType": "string",
							"name": "_name",
							"type": "string"
						},
						{
							"internalType": "address",
							"name": "nftContractAddress",
							"type": "address"
						},
						{
							"internalType": "uint256",
							"name": "tokenId",
							"type": "uint256"
						},
						{
							"internalType": "address",
							"name": "owner",
							"type": "address"
						},
						{
							"internalType": "string",
							"name": "iPFS",
							"type": "string"
						}
					],
					"stateMutability": "view",
					"type": "function"
				},
				{
					"inputs": [],
					"name": "getProfilePic",
					"outputs": [
						{
							"internalType": "string",
							"name": "ipfs",
							"type": "string"
						}
					],
					"stateMutability": "view",
					"type": "function"
				},
				{
					"inputs": [
						{
							"internalType": "address",
							"name": "ownerOfNfts",
							"type": "address"
						}
					],
					"name": "getUniKeysMapping",
					"outputs": [
						{
							"internalType": "bytes32[]",
							"name": "",
							"type": "bytes32[]"
						}
					],
					"stateMutability": "view",
					"type": "function"
				},
				{
					"inputs": [
						{
							"internalType": "enum UserDashboard.NftCategory",
							"name": "nftCat",
							"type": "uint8"
						}
					],
					"name": "getUserNftCatWise",
					"outputs": [
						{
							"internalType": "bytes32[]",
							"name": "",
							"type": "bytes32[]"
						}
					],
					"stateMutability": "view",
					"type": "function"
				},
				{
					"inputs": [],
					"name": "logIn",
					"outputs": [],
					"stateMutability": "nonpayable",
					"type": "function"
				},
				{
					"inputs": [],
					"name": "logOut",
					"outputs": [],
					"stateMutability": "nonpayable",
					"type": "function"
				},
				{
					"inputs": [
						{
							"internalType": "bytes32",
							"name": "",
							"type": "bytes32"
						}
					],
					"name": "myNFTs",
					"outputs": [
						{
							"internalType": "string",
							"name": "nftName",
							"type": "string"
						},
						{
							"internalType": "address",
							"name": "contractAddress",
							"type": "address"
						},
						{
							"internalType": "uint256",
							"name": "tokenId",
							"type": "uint256"
						},
						{
							"internalType": "address",
							"name": "owner",
							"type": "address"
						},
						{
							"internalType": "string",
							"name": "ipfs",
							"type": "string"
						},
						{
							"internalType": "enum UserDashboard.NftCategory",
							"name": "nftCategory",
							"type": "uint8"
						}
					],
					"stateMutability": "view",
					"type": "function"
				},
				{
					"inputs": [
						{
							"internalType": "enum UserDashboard.NftCategory",
							"name": "",
							"type": "uint8"
						},
						{
							"internalType": "uint256",
							"name": "",
							"type": "uint256"
						}
					],
					"name": "nftCatWise",
					"outputs": [
						{
							"internalType": "bytes32",
							"name": "",
							"type": "bytes32"
						}
					],
					"stateMutability": "view",
					"type": "function"
				},
				{
					"inputs": [
						{
							"internalType": "address",
							"name": "user",
							"type": "address"
						},
						{
							"internalType": "uint256",
							"name": "curAmountSpent",
							"type": "uint256"
						},
						{
							"internalType": "uint256",
							"name": "tokenAmountSpent",
							"type": "uint256"
						},
						{
							"internalType": "uint256",
							"name": "curAmountEarned",
							"type": "uint256"
						},
						{
							"internalType": "uint256",
							"name": "tokenAmountEarned",
							"type": "uint256"
						}
					],
					"name": "setAmountRecord",
					"outputs": [],
					"stateMutability": "nonpayable",
					"type": "function"
				},
				{
					"inputs": [
						{
							"internalType": "address",
							"name": "owner",
							"type": "address"
						},
						{
							"internalType": "bytes32",
							"name": "uniKey",
							"type": "bytes32"
						}
					],
					"name": "setBuyNftData",
					"outputs": [],
					"stateMutability": "nonpayable",
					"type": "function"
				},
				{
					"inputs": [
						{
							"internalType": "string",
							"name": "_name",
							"type": "string"
						},
						{
							"internalType": "address",
							"name": "nftContractAddress",
							"type": "address"
						},
						{
							"internalType": "uint256",
							"name": "tokenId",
							"type": "uint256"
						},
						{
							"internalType": "string",
							"name": "iPFS",
							"type": "string"
						}
					],
					"name": "setNft",
					"outputs": [],
					"stateMutability": "nonpayable",
					"type": "function"
				},
				{
					"inputs": [
						{
							"internalType": "address",
							"name": "nftContractAddress",
							"type": "address"
						},
						{
							"internalType": "uint256",
							"name": "tokenId",
							"type": "uint256"
						},
						{
							"internalType": "enum UserDashboard.NftCategory",
							"name": "nftCat",
							"type": "uint8"
						}
					],
					"name": "setNftCat",
					"outputs": [],
					"stateMutability": "nonpayable",
					"type": "function"
				},
				{
					"inputs": [
						{
							"internalType": "string",
							"name": "iPFS",
							"type": "string"
						}
					],
					"name": "setProfilePic",
					"outputs": [],
					"stateMutability": "nonpayable",
					"type": "function"
				},
				{
					"inputs": [
						{
							"internalType": "string",
							"name": "_userName",
							"type": "string"
						}
					],
					"name": "signUp",
					"outputs": [],
					"stateMutability": "nonpayable",
					"type": "function"
				},
				{
					"inputs": [
						{
							"internalType": "address",
							"name": "",
							"type": "address"
						},
						{
							"internalType": "uint256",
							"name": "",
							"type": "uint256"
						}
					],
					"name": "uniKeysMapping",
					"outputs": [
						{
							"internalType": "bytes32",
							"name": "",
							"type": "bytes32"
						}
					],
					"stateMutability": "view",
					"type": "function"
				},
				{
					"inputs": [
						{
							"internalType": "string",
							"name": "_userName",
							"type": "string"
						}
					],
					"name": "updateUser",
					"outputs": [],
					"stateMutability": "nonpayable",
					"type": "function"
				},
				{
					"inputs": [
						{
							"internalType": "address",
							"name": "user",
							"type": "address"
						}
					],
					"name": "userAmountDetail",
					"outputs": [
						{
							"internalType": "uint256",
							"name": "currencyEarned",
							"type": "uint256"
						},
						{
							"internalType": "uint256",
							"name": "earnedToken",
							"type": "uint256"
						},
						{
							"internalType": "uint256",
							"name": "currencySpent",
							"type": "uint256"
						},
						{
							"internalType": "uint256",
							"name": "tokenSpent",
							"type": "uint256"
						}
					],
					"stateMutability": "view",
					"type": "function"
				},
				{
					"inputs": [
						{
							"internalType": "string",
							"name": "",
							"type": "string"
						}
					],
					"name": "userNameToAddress",
					"outputs": [
						{
							"internalType": "address",
							"name": "",
							"type": "address"
						}
					],
					"stateMutability": "view",
					"type": "function"
				},
				{
					"inputs": [
						{
							"internalType": "address",
							"name": "",
							"type": "address"
						},
						{
							"internalType": "enum UserDashboard.NftCategory",
							"name": "",
							"type": "uint8"
						},
						{
							"internalType": "uint256",
							"name": "",
							"type": "uint256"
						}
					],
					"name": "userNftCatWise",
					"outputs": [
						{
							"internalType": "bytes32",
							"name": "",
							"type": "bytes32"
						}
					],
					"stateMutability": "view",
					"type": "function"
				}
			],
			"devdoc": {
				"kind": "dev",
				"methods": {},
				"version": 1
			},
			"evm": {
				"assembly": "    /* \"Bluelight-MP/UserDashboard.sol\":173:8312  contract UserDashboard is IUserDashboard, Helper{\r... */\n  mstore(0x40, 0x80)\n    /* \"Bluelight-MP/UserDashboard.sol\":1902:1925  constructor(){\r... */\n  callvalue\n  dup1\n  iszero\n  tag_1\n  jumpi\n  0x00\n  dup1\n  revert\ntag_1:\n  pop\n    /* \"Bluelight-MP/UserDashboard.sol\":173:8312  contract UserDashboard is IUserDashboard, Helper{\r... */\n  dataSize(sub_0)\n  dup1\n  dataOffset(sub_0)\n  0x00\n  codecopy\n  0x00\n  return\nstop\n\nsub_0: assembly {\n        /* \"Bluelight-MP/UserDashboard.sol\":173:8312  contract UserDashboard is IUserDashboard, Helper{\r... */\n      mstore(0x40, 0x80)\n      callvalue\n      dup1\n      iszero\n      tag_1\n      jumpi\n      0x00\n      dup1\n      revert\n    tag_1:\n      pop\n      jumpi(tag_2, lt(calldatasize, 0x04))\n      shr(0xe0, calldataload(0x00))\n      dup1\n      0x6e9d4f8d\n      gt\n      tag_29\n      jumpi\n      dup1\n      0xbbc53ef2\n      gt\n      tag_30\n      jumpi\n      dup1\n      0xdc9151c5\n      gt\n      tag_31\n      jumpi\n      dup1\n      0xdc9151c5\n      eq\n      tag_25\n      jumpi\n      dup1\n      0xe36d6f50\n      eq\n      tag_26\n      jumpi\n      dup1\n      0xeb972008\n      eq\n      tag_27\n      jumpi\n      dup1\n      0xf6f2ede0\n      eq\n      tag_28\n      jumpi\n      jump(tag_2)\n    tag_31:\n      dup1\n      0xbbc53ef2\n      eq\n      tag_22\n      jumpi\n      dup1\n      0xc1562547\n      eq\n      tag_23\n      jumpi\n      dup1\n      0xda31f722\n      eq\n      tag_24\n      jumpi\n      jump(tag_2)\n    tag_30:\n      dup1\n      0x6e9d4f8d\n      eq\n      tag_16\n      jumpi\n      dup1\n      0x7111e750\n      eq\n      tag_17\n      jumpi\n      dup1\n      0x894fd813\n      eq\n      tag_18\n      jumpi\n      dup1\n      0x8a1b9736\n      eq\n      tag_19\n      jumpi\n      dup1\n      0xadcfb4fc\n      eq\n      tag_20\n      jumpi\n      dup1\n      0xb2cf1886\n      eq\n      tag_21\n      jumpi\n      jump(tag_2)\n    tag_29:\n      dup1\n      0x2441f1f1\n      gt\n      tag_32\n      jumpi\n      dup1\n      0x3a196986\n      gt\n      tag_33\n      jumpi\n      dup1\n      0x3a196986\n      eq\n      tag_12\n      jumpi\n      dup1\n      0x4be422ae\n      eq\n      tag_13\n      jumpi\n      dup1\n      0x5cb0122a\n      eq\n      tag_14\n      jumpi\n      dup1\n      0x6c608709\n      eq\n      tag_15\n      jumpi\n      jump(tag_2)\n    tag_33:\n      dup1\n      0x2441f1f1\n      eq\n      tag_9\n      jumpi\n      dup1\n      0x2ae23109\n      eq\n      tag_10\n      jumpi\n      dup1\n      0x377b47a3\n      eq\n      tag_11\n      jumpi\n      jump(tag_2)\n    tag_32:\n      dup1\n      0x011f2cce\n      eq\n      tag_3\n      jumpi\n      dup1\n      0x026ff05e\n      eq\n      tag_4\n      jumpi\n      dup1\n      0x07edbdc5\n      eq\n      tag_5\n      jumpi\n      dup1\n      0x0b4f12f6\n      eq\n      tag_6\n      jumpi\n      dup1\n      0x1c6932b6\n      eq\n      tag_7\n      jumpi\n      dup1\n      0x23e583b4\n      eq\n      tag_8\n      jumpi\n    tag_2:\n      0x00\n      dup1\n      revert\n        /* \"Bluelight-MP/UserDashboard.sol\":6319:6493  function setProfilePic(string memory iPFS) external {\r... */\n    tag_3:\n      tag_34\n      0x04\n      dup1\n      calldatasize\n      sub\n      dup2\n      add\n      swap1\n      tag_35\n      swap2\n      swap1\n      tag_36\n      jump\t// in\n    tag_35:\n      tag_37\n      jump\t// in\n    tag_34:\n      stop\n        /* \"Bluelight-MP/UserDashboard.sol\":7136:7429  function deleteUser() external virtual override returns(bool){\r... */\n    tag_4:\n      tag_38\n      tag_39\n      jump\t// in\n    tag_38:\n      mload(0x40)\n      tag_40\n      swap2\n      swap1\n      tag_41\n      jump\t// in\n    tag_40:\n      mload(0x40)\n      dup1\n      swap2\n      sub\n      swap1\n      return\n        /* \"Bluelight-MP/UserDashboard.sol\":799:839  mapping (bytes32 => MyNFT) public myNFTs */\n    tag_5:\n      tag_42\n      0x04\n      dup1\n      calldatasize\n      sub\n      dup2\n      add\n      swap1\n      tag_43\n      swap2\n      swap1\n      tag_44\n      jump\t// in\n    tag_43:\n      tag_45\n      jump\t// in\n    tag_42:\n      mload(0x40)\n      tag_46\n      swap7\n      swap6\n      swap5\n      swap4\n      swap3\n      swap2\n      swap1\n      tag_47\n      jump\t// in\n    tag_46:\n      mload(0x40)\n      dup1\n      swap2\n      sub\n      swap1\n      return\n        /* \"Bluelight-MP/UserDashboard.sol\":6698:7130  function updateUser(string memory _userName) external virtual override{\r... */\n    tag_6:\n      tag_48\n      0x04\n      dup1\n      calldatasize\n      sub\n      dup2\n      add\n      swap1\n      tag_49\n      swap2\n      swap1\n      tag_36\n      jump\t// in\n    tag_49:\n      tag_50\n      jump\t// in\n    tag_48:\n      stop\n        /* \"Bluelight-MP/UserDashboard.sol\":4169:4648  function getNft(address _nftContractAddress, uint256 _tokenId) external virtual override view \r... */\n    tag_7:\n      tag_51\n      0x04\n      dup1\n      calldatasize\n      sub\n      dup2\n      add\n      swap1\n      tag_52\n      swap2\n      swap1\n      tag_53\n      jump\t// in\n    tag_52:\n      tag_54\n      jump\t// in\n    tag_51:\n      mload(0x40)\n      tag_55\n      swap7\n      swap6\n      swap5\n      swap4\n      swap3\n      swap2\n      swap1\n      tag_56\n      jump\t// in\n    tag_55:\n      mload(0x40)\n      dup1\n      swap2\n      sub\n      swap1\n      return\n        /* \"Bluelight-MP/UserDashboard.sol\":846:898  mapping (address => bytes32[]) public uniKeysMapping */\n    tag_8:\n      tag_57\n      0x04\n      dup1\n      calldatasize\n      sub\n      dup2\n      add\n      swap1\n      tag_58\n      swap2\n      swap1\n      tag_53\n      jump\t// in\n    tag_58:\n      tag_59\n      jump\t// in\n    tag_57:\n      mload(0x40)\n      tag_60\n      swap2\n      swap1\n      tag_61\n      jump\t// in\n    tag_60:\n      mload(0x40)\n      dup1\n      swap2\n      sub\n      swap1\n      return\n        /* \"Bluelight-MP/UserDashboard.sol\":2937:3130  function setBuyNftData(address owner, bytes32 uniKey) external virtual override{\r... */\n    tag_9:\n      tag_62\n      0x04\n      dup1\n      calldatasize\n      sub\n      dup2\n      add\n      swap1\n      tag_63\n      swap2\n      swap1\n      tag_64\n      jump\t// in\n    tag_63:\n      tag_65\n      jump\t// in\n    tag_62:\n      stop\n        /* \"Bluelight-MP/UserDashboard.sol\":2499:2931  function setNftCat(address nftContractAddress, uint256 tokenId, NftCategory nftCat) external {\r... */\n    tag_10:\n      tag_66\n      0x04\n      dup1\n      calldatasize\n      sub\n      dup2\n      add\n      swap1\n      tag_67\n      swap2\n      swap1\n      tag_68\n      jump\t// in\n    tag_67:\n      tag_69\n      jump\t// in\n    tag_66:\n      stop\n        /* \"Bluelight-MP/UserDashboard.sol\":4997:5277  function logIn() virtual override external {\r... */\n    tag_11:\n      tag_70\n      tag_71\n      jump\t// in\n    tag_70:\n      stop\n        /* \"Bluelight-MP/UserDashboard.sol\":3761:4157  function getNftWithBytes32(bytes32 _uniKey) external virtual override view \r... */\n    tag_12:\n      tag_72\n      0x04\n      dup1\n      calldatasize\n      sub\n      dup2\n      add\n      swap1\n      tag_73\n      swap2\n      swap1\n      tag_44\n      jump\t// in\n    tag_73:\n      tag_74\n      jump\t// in\n    tag_72:\n      mload(0x40)\n      tag_75\n      swap6\n      swap5\n      swap4\n      swap3\n      swap2\n      swap1\n      tag_76\n      jump\t// in\n    tag_75:\n      mload(0x40)\n      dup1\n      swap2\n      sub\n      swap1\n      return\n        /* \"Bluelight-MP/UserDashboard.sol\":5426:5656  function logOut() external virtual override{\r... */\n    tag_13:\n      tag_77\n      tag_78\n      jump\t// in\n    tag_77:\n      stop\n        /* \"Bluelight-MP/UserDashboard.sol\":4654:4794  function getUniKeysMapping(address ownerOfNfts) external view returns(bytes32[] memory){\r... */\n    tag_14:\n      tag_79\n      0x04\n      dup1\n      calldatasize\n      sub\n      dup2\n      add\n      swap1\n      tag_80\n      swap2\n      swap1\n      tag_81\n      jump\t// in\n    tag_80:\n      tag_82\n      jump\t// in\n    tag_79:\n      mload(0x40)\n      tag_83\n      swap2\n      swap1\n      tag_84\n      jump\t// in\n    tag_83:\n      mload(0x40)\n      dup1\n      swap2\n      sub\n      swap1\n      return\n        /* \"Bluelight-MP/UserDashboard.sol\":1115:1167  mapping (string => address) public userNameToAddress */\n    tag_15:\n      tag_85\n      0x04\n      dup1\n      calldatasize\n      sub\n      dup2\n      add\n      swap1\n      tag_86\n      swap2\n      swap1\n      tag_36\n      jump\t// in\n    tag_86:\n      tag_87\n      jump\t// in\n    tag_85:\n      mload(0x40)\n      tag_88\n      swap2\n      swap1\n      tag_89\n      jump\t// in\n    tag_88:\n      mload(0x40)\n      dup1\n      swap2\n      sub\n      swap1\n      return\n        /* \"Bluelight-MP/UserDashboard.sol\":1931:2493  function setNft(string memory _name, address nftContractAddress, uint256 tokenId, string memory iPFS) external virtual override{\r... */\n    tag_16:\n      tag_90\n      0x04\n      dup1\n      calldatasize\n      sub\n      dup2\n      add\n      swap1\n      tag_91\n      swap2\n      swap1\n      tag_92\n      jump\t// in\n    tag_91:\n      tag_93\n      jump\t// in\n    tag_90:\n      stop\n        /* \"Bluelight-MP/UserDashboard.sol\":1214:1276  mapping (address => AmountRecord) public addressToAmountRecord */\n    tag_17:\n      tag_94\n      0x04\n      dup1\n      calldatasize\n      sub\n      dup2\n      add\n      swap1\n      tag_95\n      swap2\n      swap1\n      tag_81\n      jump\t// in\n    tag_95:\n      tag_96\n      jump\t// in\n    tag_94:\n      mload(0x40)\n      tag_97\n      swap5\n      swap4\n      swap3\n      swap2\n      swap1\n      tag_98\n      jump\t// in\n    tag_97:\n      mload(0x40)\n      dup1\n      swap2\n      sub\n      swap1\n      return\n        /* \"Bluelight-MP/UserDashboard.sol\":7435:7893  function setAmountRecord(address user, uint curAmountSpent, uint tokenAmountSpent, uint curAmountEarned, uint tokenAmountEarned) external virtual override{\r... */\n    tag_18:\n      tag_99\n      0x04\n      dup1\n      calldatasize\n      sub\n      dup2\n      add\n      swap1\n      tag_100\n      swap2\n      swap1\n      tag_101\n      jump\t// in\n    tag_100:\n      tag_102\n      jump\t// in\n    tag_99:\n      stop\n        /* \"Bluelight-MP/UserDashboard.sol\":7899:8309  function userAmountDetail(address user) external virtual override view \r... */\n    tag_19:\n      tag_103\n      0x04\n      dup1\n      calldatasize\n      sub\n      dup2\n      add\n      swap1\n      tag_104\n      swap2\n      swap1\n      tag_81\n      jump\t// in\n    tag_104:\n      tag_105\n      jump\t// in\n    tag_103:\n      mload(0x40)\n      tag_106\n      swap5\n      swap4\n      swap3\n      swap2\n      swap1\n      tag_98\n      jump\t// in\n    tag_106:\n      mload(0x40)\n      dup1\n      swap2\n      sub\n      swap1\n      return\n        /* \"Bluelight-MP/UserDashboard.sol\":5662:6313  function signUp(string memory _userName) external virtual override{\r... */\n    tag_20:\n      tag_107\n      0x04\n      dup1\n      calldatasize\n      sub\n      dup2\n      add\n      swap1\n      tag_108\n      swap2\n      swap1\n      tag_36\n      jump\t// in\n    tag_108:\n      tag_109\n      jump\t// in\n    tag_107:\n      stop\n        /* \"Bluelight-MP/UserDashboard.sol\":905:957  mapping (NftCategory => bytes32[]) public nftCatWise */\n    tag_21:\n      tag_110\n      0x04\n      dup1\n      calldatasize\n      sub\n      dup2\n      add\n      swap1\n      tag_111\n      swap2\n      swap1\n      tag_112\n      jump\t// in\n    tag_111:\n      tag_113\n      jump\t// in\n    tag_110:\n      mload(0x40)\n      tag_114\n      swap2\n      swap1\n      tag_61\n      jump\t// in\n    tag_114:\n      mload(0x40)\n      dup1\n      swap2\n      sub\n      swap1\n      return\n        /* \"Bluelight-MP/UserDashboard.sol\":3497:3755  function getNftCategories() external pure returns(string memory,string memory,string memory,string memory,string memory,string memory,string memory) {\r... */\n    tag_22:\n      tag_115\n      tag_116\n      jump\t// in\n    tag_115:\n      mload(0x40)\n      tag_117\n      swap8\n      swap7\n      swap6\n      swap5\n      swap4\n      swap3\n      swap2\n      swap1\n      tag_118\n      jump\t// in\n    tag_117:\n      mload(0x40)\n      dup1\n      swap2\n      sub\n      swap1\n      return\n        /* \"Bluelight-MP/UserDashboard.sol\":6499:6692  function checkUser() external virtual override view returns(string memory){\r... */\n    tag_23:\n      tag_119\n      tag_120\n      jump\t// in\n    tag_119:\n      mload(0x40)\n      tag_121\n      swap2\n      swap1\n      tag_122\n      jump\t// in\n    tag_121:\n      mload(0x40)\n      dup1\n      swap2\n      sub\n      swap1\n      return\n        /* \"Bluelight-MP/UserDashboard.sol\":3345:3491  function getUserNftCatWise(NftCategory nftCat) external view returns(bytes32[] memory){\r... */\n    tag_24:\n      tag_123\n      0x04\n      dup1\n      calldatasize\n      sub\n      dup2\n      add\n      swap1\n      tag_124\n      swap2\n      swap1\n      tag_125\n      jump\t// in\n    tag_124:\n      tag_126\n      jump\t// in\n    tag_123:\n      mload(0x40)\n      tag_127\n      swap2\n      swap1\n      tag_84\n      jump\t// in\n    tag_127:\n      mload(0x40)\n      dup1\n      swap2\n      sub\n      swap1\n      return\n        /* \"Bluelight-MP/UserDashboard.sol\":964:1041  mapping (address => mapping (NftCategory => bytes32[])) public userNftCatWise */\n    tag_25:\n      tag_128\n      0x04\n      dup1\n      calldatasize\n      sub\n      dup2\n      add\n      swap1\n      tag_129\n      swap2\n      swap1\n      tag_130\n      jump\t// in\n    tag_129:\n      tag_131\n      jump\t// in\n    tag_128:\n      mload(0x40)\n      tag_132\n      swap2\n      swap1\n      tag_61\n      jump\t// in\n    tag_132:\n      mload(0x40)\n      dup1\n      swap2\n      sub\n      swap1\n      return\n        /* \"Bluelight-MP/UserDashboard.sol\":3210:3339  function getAllNftCatWise(NftCategory nftCat) external view returns(bytes32[] memory){\r... */\n    tag_26:\n      tag_133\n      0x04\n      dup1\n      calldatasize\n      sub\n      dup2\n      add\n      swap1\n      tag_134\n      swap2\n      swap1\n      tag_125\n      jump\t// in\n    tag_134:\n      tag_135\n      jump\t// in\n    tag_133:\n      mload(0x40)\n      tag_136\n      swap2\n      swap1\n      tag_84\n      jump\t// in\n    tag_136:\n      mload(0x40)\n      dup1\n      swap2\n      sub\n      swap1\n      return\n        /* \"Bluelight-MP/UserDashboard.sol\":4800:4920  function getProfilePic() external view returns(string memory ipfs){\r... */\n    tag_27:\n      tag_137\n      tag_138\n      jump\t// in\n    tag_137:\n      mload(0x40)\n      tag_139\n      swap2\n      swap1\n      tag_122\n      jump\t// in\n    tag_139:\n      mload(0x40)\n      dup1\n      swap2\n      sub\n      swap1\n      return\n        /* \"Bluelight-MP/UserDashboard.sol\":5284:5420  function checkLogIn(address _userAddr) external virtual override view returns(bool){  \r... */\n    tag_28:\n      tag_140\n      0x04\n      dup1\n      calldatasize\n      sub\n      dup2\n      add\n      swap1\n      tag_141\n      swap2\n      swap1\n      tag_81\n      jump\t// in\n    tag_141:\n      tag_142\n      jump\t// in\n    tag_140:\n      mload(0x40)\n      tag_143\n      swap2\n      swap1\n      tag_41\n      jump\t// in\n    tag_143:\n      mload(0x40)\n      dup1\n      swap2\n      sub\n      swap1\n      return\n        /* \"Bluelight-MP/UserDashboard.sol\":6319:6493  function setProfilePic(string memory iPFS) external {\r... */\n    tag_37:\n        /* \"Bluelight-MP/UserDashboard.sol\":6391:6396  users */\n      0x04\n        /* \"Bluelight-MP/UserDashboard.sol\":6391:6408  users[msg.sender] */\n      0x00\n        /* \"Bluelight-MP/UserDashboard.sol\":6397:6407  msg.sender */\n      caller\n        /* \"Bluelight-MP/UserDashboard.sol\":6391:6408  users[msg.sender] */\n      0xffffffffffffffffffffffffffffffffffffffff\n      and\n      0xffffffffffffffffffffffffffffffffffffffff\n      and\n      dup2\n      mstore\n      0x20\n      add\n      swap1\n      dup2\n      mstore\n      0x20\n      add\n      0x00\n      keccak256\n        /* \"Bluelight-MP/UserDashboard.sol\":6391:6417  users[msg.sender].loggedIn */\n      0x03\n      add\n      0x00\n      swap1\n      sload\n      swap1\n      0x0100\n      exp\n      swap1\n      div\n      0xff\n      and\n        /* \"Bluelight-MP/UserDashboard.sol\":6419:6438  CREATE_ACC_OR_LOGIN */\n      mload(0x40)\n      dup1\n      0x40\n      add\n      0x40\n      mstore\n      dup1\n      0x05\n      dup2\n      mstore\n      0x20\n      add\n      0x574d552d32000000000000000000000000000000000000000000000000000000\n      dup2\n      mstore\n      pop\n        /* \"Bluelight-MP/UserDashboard.sol\":6382:6439  require (users[msg.sender].loggedIn, CREATE_ACC_OR_LOGIN) */\n      swap1\n      tag_145\n      jumpi\n      mload(0x40)\n      0x08c379a000000000000000000000000000000000000000000000000000000000\n      dup2\n      mstore\n      0x04\n      add\n      tag_146\n      swap2\n      swap1\n      tag_122\n      jump\t// in\n    tag_146:\n      mload(0x40)\n      dup1\n      swap2\n      sub\n      swap1\n      revert\n    tag_145:\n      pop\n        /* \"Bluelight-MP/UserDashboard.sol\":6481:6485  iPFS */\n      dup1\n        /* \"Bluelight-MP/UserDashboard.sol\":6450:6455  users */\n      0x04\n        /* \"Bluelight-MP/UserDashboard.sol\":6450:6467  users[msg.sender] */\n      0x00\n        /* \"Bluelight-MP/UserDashboard.sol\":6456:6466  msg.sender */\n      caller\n        /* \"Bluelight-MP/UserDashboard.sol\":6450:6467  users[msg.sender] */\n      0xffffffffffffffffffffffffffffffffffffffff\n      and\n      0xffffffffffffffffffffffffffffffffffffffff\n      and\n      dup2\n      mstore\n      0x20\n      add\n      swap1\n      dup2\n      mstore\n      0x20\n      add\n      0x00\n      keccak256\n        /* \"Bluelight-MP/UserDashboard.sol\":6450:6478  users[msg.sender].profilePic */\n      0x04\n      add\n        /* \"Bluelight-MP/UserDashboard.sol\":6450:6485  users[msg.sender].profilePic = iPFS */\n      swap1\n      dup1\n      mload\n      swap1\n      0x20\n      add\n      swap1\n      tag_147\n      swap3\n      swap2\n      swap1\n      tag_148\n      jump\t// in\n    tag_147:\n      pop\n        /* \"Bluelight-MP/UserDashboard.sol\":6319:6493  function setProfilePic(string memory iPFS) external {\r... */\n      pop\n      jump\t// out\n        /* \"Bluelight-MP/UserDashboard.sol\":7136:7429  function deleteUser() external virtual override returns(bool){\r... */\n    tag_39:\n        /* \"Bluelight-MP/UserDashboard.sol\":7192:7196  bool */\n      0x00\n        /* \"Bluelight-MP/UserDashboard.sol\":7217:7222  users */\n      0x04\n        /* \"Bluelight-MP/UserDashboard.sol\":7217:7234  users[msg.sender] */\n      0x00\n        /* \"Bluelight-MP/UserDashboard.sol\":7223:7233  msg.sender */\n      caller\n        /* \"Bluelight-MP/UserDashboard.sol\":7217:7234  users[msg.sender] */\n      0xffffffffffffffffffffffffffffffffffffffff\n      and\n      0xffffffffffffffffffffffffffffffffffffffff\n      and\n      dup2\n      mstore\n      0x20\n      add\n      swap1\n      dup2\n      mstore\n      0x20\n      add\n      0x00\n      keccak256\n        /* \"Bluelight-MP/UserDashboard.sol\":7217:7246  users[msg.sender].userExisted */\n      0x01\n      add\n      0x00\n      swap1\n      sload\n      swap1\n      0x0100\n      exp\n      swap1\n      div\n      0xff\n      and\n        /* \"Bluelight-MP/UserDashboard.sol\":7248:7264  USER_NOT_EXISTED */\n      mload(0x40)\n      dup1\n      0x40\n      add\n      0x40\n      mstore\n      dup1\n      0x05\n      dup2\n      mstore\n      0x20\n      add\n      0x574d552d35000000000000000000000000000000000000000000000000000000\n      dup2\n      mstore\n      pop\n        /* \"Bluelight-MP/UserDashboard.sol\":7208:7265  require (users[msg.sender].userExisted, USER_NOT_EXISTED) */\n      swap1\n      tag_150\n      jumpi\n      mload(0x40)\n      0x08c379a000000000000000000000000000000000000000000000000000000000\n      dup2\n      mstore\n      0x04\n      add\n      tag_151\n      swap2\n      swap1\n      tag_122\n      jump\t// in\n    tag_151:\n      mload(0x40)\n      dup1\n      swap2\n      sub\n      swap1\n      revert\n    tag_150:\n      pop\n        /* \"Bluelight-MP/UserDashboard.sol\":7276:7294  string memory name */\n      0x00\n        /* \"Bluelight-MP/UserDashboard.sol\":7297:7302  users */\n      0x04\n        /* \"Bluelight-MP/UserDashboard.sol\":7297:7314  users[msg.sender] */\n      0x00\n        /* \"Bluelight-MP/UserDashboard.sol\":7303:7313  msg.sender */\n      caller\n        /* \"Bluelight-MP/UserDashboard.sol\":7297:7314  users[msg.sender] */\n      0xffffffffffffffffffffffffffffffffffffffff\n      and\n      0xffffffffffffffffffffffffffffffffffffffff\n      and\n      dup2\n      mstore\n      0x20\n      add\n      swap1\n      dup2\n      mstore\n      0x20\n      add\n      0x00\n      keccak256\n        /* \"Bluelight-MP/UserDashboard.sol\":7297:7323  users[msg.sender].userName */\n      0x00\n      add\n        /* \"Bluelight-MP/UserDashboard.sol\":7276:7323  string memory name = users[msg.sender].userName */\n      dup1\n      sload\n      tag_152\n      swap1\n      tag_153\n      jump\t// in\n    tag_152:\n      dup1\n      0x1f\n      add\n      0x20\n      dup1\n      swap2\n      div\n      mul\n      0x20\n      add\n      mload(0x40)\n      swap1\n      dup2\n      add\n      0x40\n      mstore\n      dup1\n      swap3\n      swap2\n      swap1\n      dup2\n      dup2\n      mstore\n      0x20\n      add\n      dup3\n      dup1\n      sload\n      tag_154\n      swap1\n      tag_153\n      jump\t// in\n    tag_154:\n      dup1\n      iszero\n      tag_155\n      jumpi\n      dup1\n      0x1f\n      lt\n      tag_156\n      jumpi\n      0x0100\n      dup1\n      dup4\n      sload\n      div\n      mul\n      dup4\n      mstore\n      swap2\n      0x20\n      add\n      swap2\n      jump(tag_155)\n    tag_156:\n      dup3\n      add\n      swap2\n      swap1\n      0x00\n      mstore\n      keccak256(0x00, 0x20)\n      swap1\n    tag_157:\n      dup2\n      sload\n      dup2\n      mstore\n      swap1\n      0x01\n      add\n      swap1\n      0x20\n      add\n      dup1\n      dup4\n      gt\n      tag_157\n      jumpi\n      dup3\n      swap1\n      sub\n      0x1f\n      and\n      dup3\n      add\n      swap2\n    tag_155:\n      pop\n      pop\n      pop\n      pop\n      pop\n      swap1\n      pop\n        /* \"Bluelight-MP/UserDashboard.sol\":7341:7358  userNameToAddress */\n      0x05\n        /* \"Bluelight-MP/UserDashboard.sol\":7359:7363  name */\n      dup2\n        /* \"Bluelight-MP/UserDashboard.sol\":7341:7364  userNameToAddress[name] */\n      mload(0x40)\n      tag_158\n      swap2\n      swap1\n      tag_159\n      jump\t// in\n    tag_158:\n      swap1\n      dup2\n      mstore\n      0x20\n      add\n      mload(0x40)\n      dup1\n      swap2\n      sub\n      swap1\n      keccak256\n      0x00\n        /* \"Bluelight-MP/UserDashboard.sol\":7334:7364  delete userNameToAddress[name] */\n      0x0100\n      exp\n      dup2\n      sload\n      swap1\n      0xffffffffffffffffffffffffffffffffffffffff\n      mul\n      not\n      and\n      swap1\n      sstore\n        /* \"Bluelight-MP/UserDashboard.sol\":7382:7387  users */\n      0x04\n        /* \"Bluelight-MP/UserDashboard.sol\":7382:7399  users[msg.sender] */\n      0x00\n        /* \"Bluelight-MP/UserDashboard.sol\":7388:7398  msg.sender */\n      caller\n        /* \"Bluelight-MP/UserDashboard.sol\":7382:7399  users[msg.sender] */\n      0xffffffffffffffffffffffffffffffffffffffff\n      and\n      0xffffffffffffffffffffffffffffffffffffffff\n      and\n      dup2\n      mstore\n      0x20\n      add\n      swap1\n      dup2\n      mstore\n      0x20\n      add\n      0x00\n      keccak256\n      0x00\n        /* \"Bluelight-MP/UserDashboard.sol\":7375:7399  delete users[msg.sender] */\n      dup1\n      dup3\n      add\n      0x00\n      tag_160\n      swap2\n      swap1\n      tag_161\n      jump\t// in\n    tag_160:\n      0x01\n      dup3\n      add\n      exp(0x0100, 0x00)\n      dup2\n      sload\n      swap1\n      0xff\n      mul\n      not\n      and\n      swap1\n      sstore\n      0x02\n      dup3\n      add\n      0x00\n      swap1\n      sstore\n      0x03\n      dup3\n      add\n      exp(0x0100, 0x00)\n      dup2\n      sload\n      swap1\n      0xff\n      mul\n      not\n      and\n      swap1\n      sstore\n      0x04\n      dup3\n      add\n      0x00\n      tag_162\n      swap2\n      swap1\n      tag_161\n      jump\t// in\n    tag_162:\n      pop\n      pop\n        /* \"Bluelight-MP/UserDashboard.sol\":7417:7421  true */\n      0x01\n        /* \"Bluelight-MP/UserDashboard.sol\":7410:7421  return true */\n      swap2\n      pop\n      pop\n        /* \"Bluelight-MP/UserDashboard.sol\":7136:7429  function deleteUser() external virtual override returns(bool){\r... */\n      swap1\n      jump\t// out\n        /* \"Bluelight-MP/UserDashboard.sol\":799:839  mapping (bytes32 => MyNFT) public myNFTs */\n    tag_45:\n      mstore(0x20, 0x00)\n      dup1\n      0x00\n      mstore\n      keccak256(0x00, 0x40)\n      0x00\n      swap2\n      pop\n      swap1\n      pop\n      dup1\n      0x00\n      add\n      dup1\n      sload\n      tag_163\n      swap1\n      tag_153\n      jump\t// in\n    tag_163:\n      dup1\n      0x1f\n      add\n      0x20\n      dup1\n      swap2\n      div\n      mul\n      0x20\n      add\n      mload(0x40)\n      swap1\n      dup2\n      add\n      0x40\n      mstore\n      dup1\n      swap3\n      swap2\n      swap1\n      dup2\n      dup2\n      mstore\n      0x20\n      add\n      dup3\n      dup1\n      sload\n      tag_164\n      swap1\n      tag_153\n      jump\t// in\n    tag_164:\n      dup1\n      iszero\n      tag_165\n      jumpi\n      dup1\n      0x1f\n      lt\n      tag_166\n      jumpi\n      0x0100\n      dup1\n      dup4\n      sload\n      div\n      mul\n      dup4\n      mstore\n      swap2\n      0x20\n      add\n      swap2\n      jump(tag_165)\n    tag_166:\n      dup3\n      add\n      swap2\n      swap1\n      0x00\n      mstore\n      keccak256(0x00, 0x20)\n      swap1\n    tag_167:\n      dup2\n      sload\n      dup2\n      mstore\n      swap1\n      0x01\n      add\n      swap1\n      0x20\n      add\n      dup1\n      dup4\n      gt\n      tag_167\n      jumpi\n      dup3\n      swap1\n      sub\n      0x1f\n      and\n      dup3\n      add\n      swap2\n    tag_165:\n      pop\n      pop\n      pop\n      pop\n      pop\n      swap1\n      dup1\n      0x01\n      add\n      0x00\n      swap1\n      sload\n      swap1\n      0x0100\n      exp\n      swap1\n      div\n      0xffffffffffffffffffffffffffffffffffffffff\n      and\n      swap1\n      dup1\n      0x02\n      add\n      sload\n      swap1\n      dup1\n      0x03\n      add\n      0x00\n      swap1\n      sload\n      swap1\n      0x0100\n      exp\n      swap1\n      div\n      0xffffffffffffffffffffffffffffffffffffffff\n      and\n      swap1\n      dup1\n      0x04\n      add\n      dup1\n      sload\n      tag_168\n      swap1\n      tag_153\n      jump\t// in\n    tag_168:\n      dup1\n      0x1f\n      add\n      0x20\n      dup1\n      swap2\n      div\n      mul\n      0x20\n      add\n      mload(0x40)\n      swap1\n      dup2\n      add\n      0x40\n      mstore\n      dup1\n      swap3\n      swap2\n      swap1\n      dup2\n      dup2\n      mstore\n      0x20\n      add\n      dup3\n      dup1\n      sload\n      tag_169\n      swap1\n      tag_153\n      jump\t// in\n    tag_169:\n      dup1\n      iszero\n      tag_170\n      jumpi\n      dup1\n      0x1f\n      lt\n      tag_171\n      jumpi\n      0x0100\n      dup1\n      dup4\n      sload\n      div\n      mul\n      dup4\n      mstore\n      swap2\n      0x20\n      add\n      swap2\n      jump(tag_170)\n    tag_171:\n      dup3\n      add\n      swap2\n      swap1\n      0x00\n      mstore\n      keccak256(0x00, 0x20)\n      swap1\n    tag_172:\n      dup2\n      sload\n      dup2\n      mstore\n      swap1\n      0x01\n      add\n      swap1\n      0x20\n      add\n      dup1\n      dup4\n      gt\n      tag_172\n      jumpi\n      dup3\n      swap1\n      sub\n      0x1f\n      and\n      dup3\n      add\n      swap2\n    tag_170:\n      pop\n      pop\n      pop\n      pop\n      pop\n      swap1\n      dup1\n      0x05\n      add\n      0x00\n      swap1\n      sload\n      swap1\n      0x0100\n      exp\n      swap1\n      div\n      0xff\n      and\n      swap1\n      pop\n      dup7\n      jump\t// out\n        /* \"Bluelight-MP/UserDashboard.sol\":6698:7130  function updateUser(string memory _userName) external virtual override{\r... */\n    tag_50:\n        /* \"Bluelight-MP/UserDashboard.sol\":6788:6793  users */\n      0x04\n        /* \"Bluelight-MP/UserDashboard.sol\":6788:6805  users[msg.sender] */\n      0x00\n        /* \"Bluelight-MP/UserDashboard.sol\":6794:6804  msg.sender */\n      caller\n        /* \"Bluelight-MP/UserDashboard.sol\":6788:6805  users[msg.sender] */\n      0xffffffffffffffffffffffffffffffffffffffff\n      and\n      0xffffffffffffffffffffffffffffffffffffffff\n      and\n      dup2\n      mstore\n      0x20\n      add\n      swap1\n      dup2\n      mstore\n      0x20\n      add\n      0x00\n      keccak256\n        /* \"Bluelight-MP/UserDashboard.sol\":6788:6814  users[msg.sender].loggedIn */\n      0x03\n      add\n      0x00\n      swap1\n      sload\n      swap1\n      0x0100\n      exp\n      swap1\n      div\n      0xff\n      and\n        /* \"Bluelight-MP/UserDashboard.sol\":6816:6835  CREATE_ACC_OR_LOGIN */\n      mload(0x40)\n      dup1\n      0x40\n      add\n      0x40\n      mstore\n      dup1\n      0x05\n      dup2\n      mstore\n      0x20\n      add\n      0x574d552d32000000000000000000000000000000000000000000000000000000\n      dup2\n      mstore\n      pop\n        /* \"Bluelight-MP/UserDashboard.sol\":6779:6836  require (users[msg.sender].loggedIn, CREATE_ACC_OR_LOGIN) */\n      swap1\n      tag_174\n      jumpi\n      mload(0x40)\n      0x08c379a000000000000000000000000000000000000000000000000000000000\n      dup2\n      mstore\n      0x04\n      add\n      tag_175\n      swap2\n      swap1\n      tag_122\n      jump\t// in\n    tag_175:\n      mload(0x40)\n      dup1\n      swap2\n      sub\n      swap1\n      revert\n    tag_174:\n      pop\n        /* \"Bluelight-MP/UserDashboard.sol\":6896:6897  0 */\n      0x00\n        /* \"Bluelight-MP/UserDashboard.sol\":6856:6898  userNameToAddress[_userName] == address(0) */\n      0xffffffffffffffffffffffffffffffffffffffff\n      and\n        /* \"Bluelight-MP/UserDashboard.sol\":6856:6873  userNameToAddress */\n      0x05\n        /* \"Bluelight-MP/UserDashboard.sol\":6874:6883  _userName */\n      dup3\n        /* \"Bluelight-MP/UserDashboard.sol\":6856:6884  userNameToAddress[_userName] */\n      mload(0x40)\n      tag_176\n      swap2\n      swap1\n      tag_159\n      jump\t// in\n    tag_176:\n      swap1\n      dup2\n      mstore\n      0x20\n      add\n      mload(0x40)\n      dup1\n      swap2\n      sub\n      swap1\n      keccak256\n      0x00\n      swap1\n      sload\n      swap1\n      0x0100\n      exp\n      swap1\n      div\n      0xffffffffffffffffffffffffffffffffffffffff\n      and\n        /* \"Bluelight-MP/UserDashboard.sol\":6856:6898  userNameToAddress[_userName] == address(0) */\n      0xffffffffffffffffffffffffffffffffffffffff\n      and\n      eq\n        /* \"Bluelight-MP/UserDashboard.sol\":6900:6917  USER_NAME_EXISTED */\n      mload(0x40)\n      dup1\n      0x40\n      add\n      0x40\n      mstore\n      dup1\n      0x05\n      dup2\n      mstore\n      0x20\n      add\n      0x574d552d36000000000000000000000000000000000000000000000000000000\n      dup2\n      mstore\n      pop\n        /* \"Bluelight-MP/UserDashboard.sol\":6847:6918  require (userNameToAddress[_userName] == address(0), USER_NAME_EXISTED) */\n      swap1\n      tag_177\n      jumpi\n      mload(0x40)\n      0x08c379a000000000000000000000000000000000000000000000000000000000\n      dup2\n      mstore\n      0x04\n      add\n      tag_178\n      swap2\n      swap1\n      tag_122\n      jump\t// in\n    tag_178:\n      mload(0x40)\n      dup1\n      swap2\n      sub\n      swap1\n      revert\n    tag_177:\n      pop\n        /* \"Bluelight-MP/UserDashboard.sol\":6931:6949  string memory name */\n      0x00\n        /* \"Bluelight-MP/UserDashboard.sol\":6952:6957  users */\n      0x04\n        /* \"Bluelight-MP/UserDashboard.sol\":6952:6969  users[msg.sender] */\n      0x00\n        /* \"Bluelight-MP/UserDashboard.sol\":6958:6968  msg.sender */\n      caller\n        /* \"Bluelight-MP/UserDashboard.sol\":6952:6969  users[msg.sender] */\n      0xffffffffffffffffffffffffffffffffffffffff\n      and\n      0xffffffffffffffffffffffffffffffffffffffff\n      and\n      dup2\n      mstore\n      0x20\n      add\n      swap1\n      dup2\n      mstore\n      0x20\n      add\n      0x00\n      keccak256\n        /* \"Bluelight-MP/UserDashboard.sol\":6952:6978  users[msg.sender].userName */\n      0x00\n      add\n        /* \"Bluelight-MP/UserDashboard.sol\":6931:6978  string memory name = users[msg.sender].userName */\n      dup1\n      sload\n      tag_179\n      swap1\n      tag_153\n      jump\t// in\n    tag_179:\n      dup1\n      0x1f\n      add\n      0x20\n      dup1\n      swap2\n      div\n      mul\n      0x20\n      add\n      mload(0x40)\n      swap1\n      dup2\n      add\n      0x40\n      mstore\n      dup1\n      swap3\n      swap2\n      swap1\n      dup2\n      dup2\n      mstore\n      0x20\n      add\n      dup3\n      dup1\n      sload\n      tag_180\n      swap1\n      tag_153\n      jump\t// in\n    tag_180:\n      dup1\n      iszero\n      tag_181\n      jumpi\n      dup1\n      0x1f\n      lt\n      tag_182\n      jumpi\n      0x0100\n      dup1\n      dup4\n      sload\n      div\n      mul\n      dup4\n      mstore\n      swap2\n      0x20\n      add\n      swap2\n      jump(tag_181)\n    tag_182:\n      dup3\n      add\n      swap2\n      swap1\n      0x00\n      mstore\n      keccak256(0x00, 0x20)\n      swap1\n    tag_183:\n      dup2\n      sload\n      dup2\n      mstore\n      swap1\n      0x01\n      add\n      swap1\n      0x20\n      add\n      dup1\n      dup4\n      gt\n      tag_183\n      jumpi\n      dup3\n      swap1\n      sub\n      0x1f\n      and\n      dup3\n      add\n      swap2\n    tag_181:\n      pop\n      pop\n      pop\n      pop\n      pop\n      swap1\n      pop\n        /* \"Bluelight-MP/UserDashboard.sol\":6996:7013  userNameToAddress */\n      0x05\n        /* \"Bluelight-MP/UserDashboard.sol\":7014:7018  name */\n      dup2\n        /* \"Bluelight-MP/UserDashboard.sol\":6996:7019  userNameToAddress[name] */\n      mload(0x40)\n      tag_184\n      swap2\n      swap1\n      tag_159\n      jump\t// in\n    tag_184:\n      swap1\n      dup2\n      mstore\n      0x20\n      add\n      mload(0x40)\n      dup1\n      swap2\n      sub\n      swap1\n      keccak256\n      0x00\n        /* \"Bluelight-MP/UserDashboard.sol\":6989:7019  delete userNameToAddress[name] */\n      0x0100\n      exp\n      dup2\n      sload\n      swap1\n      0xffffffffffffffffffffffffffffffffffffffff\n      mul\n      not\n      and\n      swap1\n      sstore\n        /* \"Bluelight-MP/UserDashboard.sol\":7061:7071  msg.sender */\n      caller\n        /* \"Bluelight-MP/UserDashboard.sol\":7030:7047  userNameToAddress */\n      0x05\n        /* \"Bluelight-MP/UserDashboard.sol\":7048:7057  _userName */\n      dup4\n        /* \"Bluelight-MP/UserDashboard.sol\":7030:7058  userNameToAddress[_userName] */\n      mload(0x40)\n      tag_185\n      swap2\n      swap1\n      tag_159\n      jump\t// in\n    tag_185:\n      swap1\n      dup2\n      mstore\n      0x20\n      add\n      mload(0x40)\n      dup1\n      swap2\n      sub\n      swap1\n      keccak256\n      0x00\n        /* \"Bluelight-MP/UserDashboard.sol\":7030:7071  userNameToAddress[_userName] = msg.sender */\n      0x0100\n      exp\n      dup2\n      sload\n      dup2\n      0xffffffffffffffffffffffffffffffffffffffff\n      mul\n      not\n      and\n      swap1\n      dup4\n      0xffffffffffffffffffffffffffffffffffffffff\n      and\n      mul\n      or\n      swap1\n      sstore\n      pop\n        /* \"Bluelight-MP/UserDashboard.sol\":7113:7122  _userName */\n      dup2\n        /* \"Bluelight-MP/UserDashboard.sol\":7084:7089  users */\n      0x04\n        /* \"Bluelight-MP/UserDashboard.sol\":7084:7101  users[msg.sender] */\n      0x00\n        /* \"Bluelight-MP/UserDashboard.sol\":7090:7100  msg.sender */\n      caller\n        /* \"Bluelight-MP/UserDashboard.sol\":7084:7101  users[msg.sender] */\n      0xffffffffffffffffffffffffffffffffffffffff\n      and\n      0xffffffffffffffffffffffffffffffffffffffff\n      and\n      dup2\n      mstore\n      0x20\n      add\n      swap1\n      dup2\n      mstore\n      0x20\n      add\n      0x00\n      keccak256\n        /* \"Bluelight-MP/UserDashboard.sol\":7084:7110  users[msg.sender].userName */\n      0x00\n      add\n        /* \"Bluelight-MP/UserDashboard.sol\":7084:7122  users[msg.sender].userName = _userName */\n      swap1\n      dup1\n      mload\n      swap1\n      0x20\n      add\n      swap1\n      tag_186\n      swap3\n      swap2\n      swap1\n      tag_148\n      jump\t// in\n    tag_186:\n      pop\n        /* \"Bluelight-MP/UserDashboard.sol\":6698:7130  function updateUser(string memory _userName) external virtual override{\r... */\n      pop\n      pop\n      jump\t// out\n        /* \"Bluelight-MP/UserDashboard.sol\":4169:4648  function getNft(address _nftContractAddress, uint256 _tokenId) external virtual override view \r... */\n    tag_54:\n        /* \"Bluelight-MP/UserDashboard.sol\":4281:4295  bytes32 uniKey */\n      0x00\n        /* \"Bluelight-MP/UserDashboard.sol\":4297:4323  address nftContractAddress */\n      dup1\n        /* \"Bluelight-MP/UserDashboard.sol\":4325:4337  uint tokenId */\n      0x00\n        /* \"Bluelight-MP/UserDashboard.sol\":4339:4357  string memory name */\n      0x60\n        /* \"Bluelight-MP/UserDashboard.sol\":4359:4372  address owner */\n      0x00\n        /* \"Bluelight-MP/UserDashboard.sol\":4374:4392  string memory iPFS */\n      0x60\n        /* \"Bluelight-MP/UserDashboard.sol\":4414:4429  bytes32 _uniKey */\n      0x00\n        /* \"Bluelight-MP/UserDashboard.sol\":4432:4482  getPrivateUniqueKey(_nftContractAddress, _tokenId) */\n      tag_188\n        /* \"Bluelight-MP/UserDashboard.sol\":4452:4471  _nftContractAddress */\n      dup10\n        /* \"Bluelight-MP/UserDashboard.sol\":4473:4481  _tokenId */\n      dup10\n        /* \"Bluelight-MP/UserDashboard.sol\":4432:4451  getPrivateUniqueKey */\n      tag_189\n        /* \"Bluelight-MP/UserDashboard.sol\":4432:4482  getPrivateUniqueKey(_nftContractAddress, _tokenId) */\n      jump\t// in\n    tag_188:\n        /* \"Bluelight-MP/UserDashboard.sol\":4414:4482  bytes32 _uniKey = getPrivateUniqueKey(_nftContractAddress, _tokenId) */\n      swap1\n      pop\n        /* \"Bluelight-MP/UserDashboard.sol\":4504:4511  _uniKey */\n      dup1\n        /* \"Bluelight-MP/UserDashboard.sol\":4513:4519  myNFTs */\n      0x00\n        /* \"Bluelight-MP/UserDashboard.sol\":4513:4528  myNFTs[_uniKey] */\n      dup1\n        /* \"Bluelight-MP/UserDashboard.sol\":4520:4527  _uniKey */\n      dup4\n        /* \"Bluelight-MP/UserDashboard.sol\":4513:4528  myNFTs[_uniKey] */\n      dup2\n      mstore\n      0x20\n      add\n      swap1\n      dup2\n      mstore\n      0x20\n      add\n      0x00\n      keccak256\n        /* \"Bluelight-MP/UserDashboard.sol\":4513:4544  myNFTs[_uniKey].contractAddress */\n      0x01\n      add\n      0x00\n      swap1\n      sload\n      swap1\n      0x0100\n      exp\n      swap1\n      div\n      0xffffffffffffffffffffffffffffffffffffffff\n      and\n        /* \"Bluelight-MP/UserDashboard.sol\":4546:4552  myNFTs */\n      0x00\n        /* \"Bluelight-MP/UserDashboard.sol\":4546:4561  myNFTs[_uniKey] */\n      dup1\n        /* \"Bluelight-MP/UserDashboard.sol\":4553:4560  _uniKey */\n      dup5\n        /* \"Bluelight-MP/UserDashboard.sol\":4546:4561  myNFTs[_uniKey] */\n      dup2\n      mstore\n      0x20\n      add\n      swap1\n      dup2\n      mstore\n      0x20\n      add\n      0x00\n      keccak256\n        /* \"Bluelight-MP/UserDashboard.sol\":4546:4569  myNFTs[_uniKey].tokenId */\n      0x02\n      add\n      sload\n        /* \"Bluelight-MP/UserDashboard.sol\":4571:4577  myNFTs */\n      0x00\n        /* \"Bluelight-MP/UserDashboard.sol\":4571:4586  myNFTs[_uniKey] */\n      dup1\n        /* \"Bluelight-MP/UserDashboard.sol\":4578:4585  _uniKey */\n      dup6\n        /* \"Bluelight-MP/UserDashboard.sol\":4571:4586  myNFTs[_uniKey] */\n      dup2\n      mstore\n      0x20\n      add\n      swap1\n      dup2\n      mstore\n      0x20\n      add\n      0x00\n      keccak256\n        /* \"Bluelight-MP/UserDashboard.sol\":4571:4594  myNFTs[_uniKey].nftName */\n      0x00\n      add\n        /* \"Bluelight-MP/UserDashboard.sol\":4596:4602  myNFTs */\n      0x00\n        /* \"Bluelight-MP/UserDashboard.sol\":4596:4611  myNFTs[_uniKey] */\n      dup1\n        /* \"Bluelight-MP/UserDashboard.sol\":4603:4610  _uniKey */\n      dup7\n        /* \"Bluelight-MP/UserDashboard.sol\":4596:4611  myNFTs[_uniKey] */\n      dup2\n      mstore\n      0x20\n      add\n      swap1\n      dup2\n      mstore\n      0x20\n      add\n      0x00\n      keccak256\n        /* \"Bluelight-MP/UserDashboard.sol\":4596:4617  myNFTs[_uniKey].owner */\n      0x03\n      add\n      0x00\n      swap1\n      sload\n      swap1\n      0x0100\n      exp\n      swap1\n      div\n      0xffffffffffffffffffffffffffffffffffffffff\n      and\n        /* \"Bluelight-MP/UserDashboard.sol\":4619:4625  myNFTs */\n      0x00\n        /* \"Bluelight-MP/UserDashboard.sol\":4619:4634  myNFTs[_uniKey] */\n      dup1\n        /* \"Bluelight-MP/UserDashboard.sol\":4626:4633  _uniKey */\n      dup8\n        /* \"Bluelight-MP/UserDashboard.sol\":4619:4634  myNFTs[_uniKey] */\n      dup2\n      mstore\n      0x20\n      add\n      swap1\n      dup2\n      mstore\n      0x20\n      add\n      0x00\n      keccak256\n        /* \"Bluelight-MP/UserDashboard.sol\":4619:4639  myNFTs[_uniKey].ipfs */\n      0x04\n      add\n        /* \"Bluelight-MP/UserDashboard.sol\":4496:4640  return (_uniKey, myNFTs[_uniKey].contractAddress, myNFTs[_uniKey].tokenId, myNFTs[_uniKey].nftName, myNFTs[_uniKey].owner, myNFTs[_uniKey].ipfs) */\n      dup3\n      dup1\n      sload\n      tag_190\n      swap1\n      tag_153\n      jump\t// in\n    tag_190:\n      dup1\n      0x1f\n      add\n      0x20\n      dup1\n      swap2\n      div\n      mul\n      0x20\n      add\n      mload(0x40)\n      swap1\n      dup2\n      add\n      0x40\n      mstore\n      dup1\n      swap3\n      swap2\n      swap1\n      dup2\n      dup2\n      mstore\n      0x20\n      add\n      dup3\n      dup1\n      sload\n      tag_191\n      swap1\n      tag_153\n      jump\t// in\n    tag_191:\n      dup1\n      iszero\n      tag_192\n      jumpi\n      dup1\n      0x1f\n      lt\n      tag_193\n      jumpi\n      0x0100\n      dup1\n      dup4\n      sload\n      div\n      mul\n      dup4\n      mstore\n      swap2\n      0x20\n      add\n      swap2\n      jump(tag_192)\n    tag_193:\n      dup3\n      add\n      swap2\n      swap1\n      0x00\n      mstore\n      keccak256(0x00, 0x20)\n      swap1\n    tag_194:\n      dup2\n      sload\n      dup2\n      mstore\n      swap1\n      0x01\n      add\n      swap1\n      0x20\n      add\n      dup1\n      dup4\n      gt\n      tag_194\n      jumpi\n      dup3\n      swap1\n      sub\n      0x1f\n      and\n      dup3\n      add\n      swap2\n    tag_192:\n      pop\n      pop\n      pop\n      pop\n      pop\n      swap3\n      pop\n      dup1\n      dup1\n      sload\n      tag_195\n      swap1\n      tag_153\n      jump\t// in\n    tag_195:\n      dup1\n      0x1f\n      add\n      0x20\n      dup1\n      swap2\n      div\n      mul\n      0x20\n      add\n      mload(0x40)\n      swap1\n      dup2\n      add\n      0x40\n      mstore\n      dup1\n      swap3\n      swap2\n      swap1\n      dup2\n      dup2\n      mstore\n      0x20\n      add\n      dup3\n      dup1\n      sload\n      tag_196\n      swap1\n      tag_153\n      jump\t// in\n    tag_196:\n      dup1\n      iszero\n      tag_197\n      jumpi\n      dup1\n      0x1f\n      lt\n      tag_198\n      jumpi\n      0x0100\n      dup1\n      dup4\n      sload\n      div\n      mul\n      dup4\n      mstore\n      swap2\n      0x20\n      add\n      swap2\n      jump(tag_197)\n    tag_198:\n      dup3\n      add\n      swap2\n      swap1\n      0x00\n      mstore\n      keccak256(0x00, 0x20)\n      swap1\n    tag_199:\n      dup2\n      sload\n      dup2\n      mstore\n      swap1\n      0x01\n      add\n      swap1\n      0x20\n      add\n      dup1\n      dup4\n      gt\n      tag_199\n      jumpi\n      dup3\n      swap1\n      sub\n      0x1f\n      and\n      dup3\n      add\n      swap2\n    tag_197:\n      pop\n      pop\n      pop\n      pop\n      pop\n      swap1\n      pop\n      swap7\n      pop\n      swap7\n      pop\n      swap7\n      pop\n      swap7\n      pop\n      swap7\n      pop\n      swap7\n      pop\n      pop\n        /* \"Bluelight-MP/UserDashboard.sol\":4169:4648  function getNft(address _nftContractAddress, uint256 _tokenId) external virtual override view \r... */\n      swap3\n      swap6\n      pop\n      swap3\n      swap6\n      pop\n      swap3\n      swap6\n      jump\t// out\n        /* \"Bluelight-MP/UserDashboard.sol\":846:898  mapping (address => bytes32[]) public uniKeysMapping */\n    tag_59:\n      mstore(0x20, 0x01)\n      dup2\n      0x00\n      mstore\n      keccak256(0x00, 0x40)\n      dup2\n      dup2\n      sload\n      dup2\n      lt\n      tag_200\n      jumpi\n      0x00\n      dup1\n      revert\n    tag_200:\n      swap1\n      0x00\n      mstore\n      keccak256(0x00, 0x20)\n      add\n      0x00\n      swap2\n      pop\n      swap2\n      pop\n      pop\n      sload\n      dup2\n      jump\t// out\n        /* \"Bluelight-MP/UserDashboard.sol\":2937:3130  function setBuyNftData(address owner, bytes32 uniKey) external virtual override{\r... */\n    tag_65:\n        /* \"Bluelight-MP/UserDashboard.sol\":3060:3065  owner */\n      dup2\n        /* \"Bluelight-MP/UserDashboard.sol\":3037:3043  myNFTs */\n      0x00\n        /* \"Bluelight-MP/UserDashboard.sol\":3037:3051  myNFTs[uniKey] */\n      dup1\n        /* \"Bluelight-MP/UserDashboard.sol\":3044:3050  uniKey */\n      dup4\n        /* \"Bluelight-MP/UserDashboard.sol\":3037:3051  myNFTs[uniKey] */\n      dup2\n      mstore\n      0x20\n      add\n      swap1\n      dup2\n      mstore\n      0x20\n      add\n      0x00\n      keccak256\n        /* \"Bluelight-MP/UserDashboard.sol\":3037:3057  myNFTs[uniKey].owner */\n      0x03\n      add\n      0x00\n        /* \"Bluelight-MP/UserDashboard.sol\":3037:3065  myNFTs[uniKey].owner = owner */\n      0x0100\n      exp\n      dup2\n      sload\n      dup2\n      0xffffffffffffffffffffffffffffffffffffffff\n      mul\n      not\n      and\n      swap1\n      dup4\n      0xffffffffffffffffffffffffffffffffffffffff\n      and\n      mul\n      or\n      swap1\n      sstore\n      pop\n        /* \"Bluelight-MP/UserDashboard.sol\":3086:3100  uniKeysMapping */\n      0x01\n        /* \"Bluelight-MP/UserDashboard.sol\":3086:3107  uniKeysMapping[owner] */\n      0x00\n        /* \"Bluelight-MP/UserDashboard.sol\":3101:3106  owner */\n      dup4\n        /* \"Bluelight-MP/UserDashboard.sol\":3086:3107  uniKeysMapping[owner] */\n      0xffffffffffffffffffffffffffffffffffffffff\n      and\n      0xffffffffffffffffffffffffffffffffffffffff\n      and\n      dup2\n      mstore\n      0x20\n      add\n      swap1\n      dup2\n      mstore\n      0x20\n      add\n      0x00\n      keccak256\n        /* \"Bluelight-MP/UserDashboard.sol\":3113:3119  uniKey */\n      dup2\n        /* \"Bluelight-MP/UserDashboard.sol\":3086:3120  uniKeysMapping[owner].push(uniKey) */\n      swap1\n      dup1\n      0x01\n      dup2\n      sload\n      add\n      dup1\n      dup3\n      sstore\n      dup1\n      swap2\n      pop\n      pop\n      0x01\n      swap1\n      sub\n      swap1\n      0x00\n      mstore\n      keccak256(0x00, 0x20)\n      add\n      0x00\n      swap1\n      swap2\n      swap1\n      swap2\n      swap1\n      swap2\n      pop\n      sstore\n        /* \"Bluelight-MP/UserDashboard.sol\":2937:3130  function setBuyNftData(address owner, bytes32 uniKey) external virtual override{\r... */\n      pop\n      pop\n      jump\t// out\n        /* \"Bluelight-MP/UserDashboard.sol\":2499:2931  function setNftCat(address nftContractAddress, uint256 tokenId, NftCategory nftCat) external {\r... */\n    tag_69:\n        /* \"Bluelight-MP/UserDashboard.sol\":2603:2617  bytes32 uniKey */\n      0x00\n        /* \"Bluelight-MP/UserDashboard.sol\":2620:2668  getPrivateUniqueKey(nftContractAddress, tokenId) */\n      tag_205\n        /* \"Bluelight-MP/UserDashboard.sol\":2640:2658  nftContractAddress */\n      dup5\n        /* \"Bluelight-MP/UserDashboard.sol\":2660:2667  tokenId */\n      dup5\n        /* \"Bluelight-MP/UserDashboard.sol\":2620:2639  getPrivateUniqueKey */\n      tag_189\n        /* \"Bluelight-MP/UserDashboard.sol\":2620:2668  getPrivateUniqueKey(nftContractAddress, tokenId) */\n      jump\t// in\n    tag_205:\n        /* \"Bluelight-MP/UserDashboard.sol\":2603:2668  bytes32 uniKey = getPrivateUniqueKey(nftContractAddress, tokenId) */\n      swap1\n      pop\n        /* \"Bluelight-MP/UserDashboard.sol\":2689:2694  users */\n      0x04\n        /* \"Bluelight-MP/UserDashboard.sol\":2689:2706  users[msg.sender] */\n      0x00\n        /* \"Bluelight-MP/UserDashboard.sol\":2695:2705  msg.sender */\n      caller\n        /* \"Bluelight-MP/UserDashboard.sol\":2689:2706  users[msg.sender] */\n      0xffffffffffffffffffffffffffffffffffffffff\n      and\n      0xffffffffffffffffffffffffffffffffffffffff\n      and\n      dup2\n      mstore\n      0x20\n      add\n      swap1\n      dup2\n      mstore\n      0x20\n      add\n      0x00\n      keccak256\n        /* \"Bluelight-MP/UserDashboard.sol\":2689:2715  users[msg.sender].loggedIn */\n      0x03\n      add\n      0x00\n      swap1\n      sload\n      swap1\n      0x0100\n      exp\n      swap1\n      div\n      0xff\n      and\n        /* \"Bluelight-MP/UserDashboard.sol\":2689:2753  users[msg.sender].loggedIn && myNFTs[uniKey].owner == msg.sender */\n      dup1\n      iszero\n      tag_206\n      jumpi\n      pop\n        /* \"Bluelight-MP/UserDashboard.sol\":2743:2753  msg.sender */\n      caller\n        /* \"Bluelight-MP/UserDashboard.sol\":2719:2753  myNFTs[uniKey].owner == msg.sender */\n      0xffffffffffffffffffffffffffffffffffffffff\n      and\n        /* \"Bluelight-MP/UserDashboard.sol\":2719:2725  myNFTs */\n      0x00\n        /* \"Bluelight-MP/UserDashboard.sol\":2719:2733  myNFTs[uniKey] */\n      dup1\n        /* \"Bluelight-MP/UserDashboard.sol\":2726:2732  uniKey */\n      dup4\n        /* \"Bluelight-MP/UserDashboard.sol\":2719:2733  myNFTs[uniKey] */\n      dup2\n      mstore\n      0x20\n      add\n      swap1\n      dup2\n      mstore\n      0x20\n      add\n      0x00\n      keccak256\n        /* \"Bluelight-MP/UserDashboard.sol\":2719:2739  myNFTs[uniKey].owner */\n      0x03\n      add\n      0x00\n      swap1\n      sload\n      swap1\n      0x0100\n      exp\n      swap1\n      div\n      0xffffffffffffffffffffffffffffffffffffffff\n      and\n        /* \"Bluelight-MP/UserDashboard.sol\":2719:2753  myNFTs[uniKey].owner == msg.sender */\n      0xffffffffffffffffffffffffffffffffffffffff\n      and\n      eq\n        /* \"Bluelight-MP/UserDashboard.sol\":2689:2753  users[msg.sender].loggedIn && myNFTs[uniKey].owner == msg.sender */\n    tag_206:\n        /* \"Bluelight-MP/UserDashboard.sol\":2755:2774  CREATE_ACC_OR_LOGIN */\n      mload(0x40)\n      dup1\n      0x40\n      add\n      0x40\n      mstore\n      dup1\n      0x05\n      dup2\n      mstore\n      0x20\n      add\n      0x574d552d32000000000000000000000000000000000000000000000000000000\n      dup2\n      mstore\n      pop\n        /* \"Bluelight-MP/UserDashboard.sol\":2680:2775  require (users[msg.sender].loggedIn && myNFTs[uniKey].owner == msg.sender, CREATE_ACC_OR_LOGIN) */\n      swap1\n      tag_207\n      jumpi\n      mload(0x40)\n      0x08c379a000000000000000000000000000000000000000000000000000000000\n      dup2\n      mstore\n      0x04\n      add\n      tag_208\n      swap2\n      swap1\n      tag_122\n      jump\t// in\n    tag_208:\n      mload(0x40)\n      dup1\n      swap2\n      sub\n      swap1\n      revert\n    tag_207:\n      pop\n        /* \"Bluelight-MP/UserDashboard.sol\":2817:2823  nftCat */\n      dup2\n        /* \"Bluelight-MP/UserDashboard.sol\":2788:2794  myNFTs */\n      0x00\n        /* \"Bluelight-MP/UserDashboard.sol\":2788:2802  myNFTs[uniKey] */\n      dup1\n        /* \"Bluelight-MP/UserDashboard.sol\":2795:2801  uniKey */\n      dup4\n        /* \"Bluelight-MP/UserDashboard.sol\":2788:2802  myNFTs[uniKey] */\n      dup2\n      mstore\n      0x20\n      add\n      swap1\n      dup2\n      mstore\n      0x20\n      add\n      0x00\n      keccak256\n        /* \"Bluelight-MP/UserDashboard.sol\":2788:2814  myNFTs[uniKey].nftCategory */\n      0x05\n      add\n      0x00\n        /* \"Bluelight-MP/UserDashboard.sol\":2788:2823  myNFTs[uniKey].nftCategory = nftCat */\n      0x0100\n      exp\n      dup2\n      sload\n      dup2\n      0xff\n      mul\n      not\n      and\n      swap1\n      dup4\n      0x06\n      dup2\n      gt\n      iszero\n      tag_209\n      jumpi\n      mstore(0x00, 0x4e487b7100000000000000000000000000000000000000000000000000000000)\n      mstore(0x04, 0x21)\n      revert(0x00, 0x24)\n    tag_209:\n      mul\n      or\n      swap1\n      sstore\n      pop\n        /* \"Bluelight-MP/UserDashboard.sol\":2834:2844  nftCatWise */\n      0x02\n        /* \"Bluelight-MP/UserDashboard.sol\":2834:2852  nftCatWise[nftCat] */\n      0x00\n        /* \"Bluelight-MP/UserDashboard.sol\":2845:2851  nftCat */\n      dup4\n        /* \"Bluelight-MP/UserDashboard.sol\":2834:2852  nftCatWise[nftCat] */\n      0x06\n      dup2\n      gt\n      iszero\n      tag_210\n      jumpi\n      mstore(0x00, 0x4e487b7100000000000000000000000000000000000000000000000000000000)\n      mstore(0x04, 0x21)\n      revert(0x00, 0x24)\n    tag_210:\n      0x06\n      dup2\n      gt\n      iszero\n      tag_211\n      jumpi\n      mstore(0x00, 0x4e487b7100000000000000000000000000000000000000000000000000000000)\n      mstore(0x04, 0x21)\n      revert(0x00, 0x24)\n    tag_211:\n      dup2\n      mstore\n      0x20\n      add\n      swap1\n      dup2\n      mstore\n      0x20\n      add\n      0x00\n      keccak256\n        /* \"Bluelight-MP/UserDashboard.sol\":2858:2864  uniKey */\n      dup2\n        /* \"Bluelight-MP/UserDashboard.sol\":2834:2865  nftCatWise[nftCat].push(uniKey) */\n      swap1\n      dup1\n      0x01\n      dup2\n      sload\n      add\n      dup1\n      dup3\n      sstore\n      dup1\n      swap2\n      pop\n      pop\n      0x01\n      swap1\n      sub\n      swap1\n      0x00\n      mstore\n      keccak256(0x00, 0x20)\n      add\n      0x00\n      swap1\n      swap2\n      swap1\n      swap2\n      swap1\n      swap2\n      pop\n      sstore\n        /* \"Bluelight-MP/UserDashboard.sol\":2876:2890  userNftCatWise */\n      0x03\n        /* \"Bluelight-MP/UserDashboard.sol\":2876:2902  userNftCatWise[msg.sender] */\n      0x00\n        /* \"Bluelight-MP/UserDashboard.sol\":2891:2901  msg.sender */\n      caller\n        /* \"Bluelight-MP/UserDashboard.sol\":2876:2902  userNftCatWise[msg.sender] */\n      0xffffffffffffffffffffffffffffffffffffffff\n      and\n      0xffffffffffffffffffffffffffffffffffffffff\n      and\n      dup2\n      mstore\n      0x20\n      add\n      swap1\n      dup2\n      mstore\n      0x20\n      add\n      0x00\n      keccak256\n        /* \"Bluelight-MP/UserDashboard.sol\":2876:2910  userNftCatWise[msg.sender][nftCat] */\n      0x00\n        /* \"Bluelight-MP/UserDashboard.sol\":2903:2909  nftCat */\n      dup4\n        /* \"Bluelight-MP/UserDashboard.sol\":2876:2910  userNftCatWise[msg.sender][nftCat] */\n      0x06\n      dup2\n      gt\n      iszero\n      tag_213\n      jumpi\n      mstore(0x00, 0x4e487b7100000000000000000000000000000000000000000000000000000000)\n      mstore(0x04, 0x21)\n      revert(0x00, 0x24)\n    tag_213:\n      0x06\n      dup2\n      gt\n      iszero\n      tag_214\n      jumpi\n      mstore(0x00, 0x4e487b7100000000000000000000000000000000000000000000000000000000)\n      mstore(0x04, 0x21)\n      revert(0x00, 0x24)\n    tag_214:\n      dup2\n      mstore\n      0x20\n      add\n      swap1\n      dup2\n      mstore\n      0x20\n      add\n      0x00\n      keccak256\n        /* \"Bluelight-MP/UserDashboard.sol\":2916:2922  uniKey */\n      dup2\n        /* \"Bluelight-MP/UserDashboard.sol\":2876:2923  userNftCatWise[msg.sender][nftCat].push(uniKey) */\n      swap1\n      dup1\n      0x01\n      dup2\n      sload\n      add\n      dup1\n      dup3\n      sstore\n      dup1\n      swap2\n      pop\n      pop\n      0x01\n      swap1\n      sub\n      swap1\n      0x00\n      mstore\n      keccak256(0x00, 0x20)\n      add\n      0x00\n      swap1\n      swap2\n      swap1\n      swap2\n      swap1\n      swap2\n      pop\n      sstore\n        /* \"Bluelight-MP/UserDashboard.sol\":2499:2931  function setNftCat(address nftContractAddress, uint256 tokenId, NftCategory nftCat) external {\r... */\n      pop\n      pop\n      pop\n      pop\n      jump\t// out\n        /* \"Bluelight-MP/UserDashboard.sol\":4997:5277  function logIn() virtual override external {\r... */\n    tag_71:\n        /* \"Bluelight-MP/UserDashboard.sol\":5060:5065  users */\n      0x04\n        /* \"Bluelight-MP/UserDashboard.sol\":5060:5077  users[msg.sender] */\n      0x00\n        /* \"Bluelight-MP/UserDashboard.sol\":5066:5076  msg.sender */\n      caller\n        /* \"Bluelight-MP/UserDashboard.sol\":5060:5077  users[msg.sender] */\n      0xffffffffffffffffffffffffffffffffffffffff\n      and\n      0xffffffffffffffffffffffffffffffffffffffff\n      and\n      dup2\n      mstore\n      0x20\n      add\n      swap1\n      dup2\n      mstore\n      0x20\n      add\n      0x00\n      keccak256\n        /* \"Bluelight-MP/UserDashboard.sol\":5060:5089  users[msg.sender].userExisted */\n      0x01\n      add\n      0x00\n      swap1\n      sload\n      swap1\n      0x0100\n      exp\n      swap1\n      div\n      0xff\n      and\n        /* \"Bluelight-MP/UserDashboard.sol\":5091:5105  CREATE_ACCOUNT */\n      mload(0x40)\n      dup1\n      0x40\n      add\n      0x40\n      mstore\n      dup1\n      0x05\n      dup2\n      mstore\n      0x20\n      add\n      0x574d552d31000000000000000000000000000000000000000000000000000000\n      dup2\n      mstore\n      pop\n        /* \"Bluelight-MP/UserDashboard.sol\":5051:5106  require (users[msg.sender].userExisted, CREATE_ACCOUNT) */\n      swap1\n      tag_217\n      jumpi\n      mload(0x40)\n      0x08c379a000000000000000000000000000000000000000000000000000000000\n      dup2\n      mstore\n      0x04\n      add\n      tag_218\n      swap2\n      swap1\n      tag_122\n      jump\t// in\n    tag_218:\n      mload(0x40)\n      dup1\n      swap2\n      sub\n      swap1\n      revert\n    tag_217:\n      pop\n        /* \"Bluelight-MP/UserDashboard.sol\":5127:5132  users */\n      0x04\n        /* \"Bluelight-MP/UserDashboard.sol\":5127:5144  users[msg.sender] */\n      0x00\n        /* \"Bluelight-MP/UserDashboard.sol\":5133:5143  msg.sender */\n      caller\n        /* \"Bluelight-MP/UserDashboard.sol\":5127:5144  users[msg.sender] */\n      0xffffffffffffffffffffffffffffffffffffffff\n      and\n      0xffffffffffffffffffffffffffffffffffffffff\n      and\n      dup2\n      mstore\n      0x20\n      add\n      swap1\n      dup2\n      mstore\n      0x20\n      add\n      0x00\n      keccak256\n        /* \"Bluelight-MP/UserDashboard.sol\":5127:5153  users[msg.sender].loggedIn */\n      0x03\n      add\n      0x00\n      swap1\n      sload\n      swap1\n      0x0100\n      exp\n      swap1\n      div\n      0xff\n      and\n        /* \"Bluelight-MP/UserDashboard.sol\":5126:5153  !users[msg.sender].loggedIn */\n      iszero\n        /* \"Bluelight-MP/UserDashboard.sol\":5155:5168  ALREADY_LOGIN */\n      mload(0x40)\n      dup1\n      0x40\n      add\n      0x40\n      mstore\n      dup1\n      0x05\n      dup2\n      mstore\n      0x20\n      add\n      0x574d552d33000000000000000000000000000000000000000000000000000000\n      dup2\n      mstore\n      pop\n        /* \"Bluelight-MP/UserDashboard.sol\":5117:5169  require (!users[msg.sender].loggedIn, ALREADY_LOGIN) */\n      swap1\n      tag_219\n      jumpi\n      mload(0x40)\n      0x08c379a000000000000000000000000000000000000000000000000000000000\n      dup2\n      mstore\n      0x04\n      add\n      tag_220\n      swap2\n      swap1\n      tag_122\n      jump\t// in\n    tag_220:\n      mload(0x40)\n      dup1\n      swap2\n      sub\n      swap1\n      revert\n    tag_219:\n      pop\n        /* \"Bluelight-MP/UserDashboard.sol\":5211:5215  true */\n      0x01\n        /* \"Bluelight-MP/UserDashboard.sol\":5182:5187  users */\n      0x04\n        /* \"Bluelight-MP/UserDashboard.sol\":5182:5199  users[msg.sender] */\n      0x00\n        /* \"Bluelight-MP/UserDashboard.sol\":5188:5198  msg.sender */\n      caller\n        /* \"Bluelight-MP/UserDashboard.sol\":5182:5199  users[msg.sender] */\n      0xffffffffffffffffffffffffffffffffffffffff\n      and\n      0xffffffffffffffffffffffffffffffffffffffff\n      and\n      dup2\n      mstore\n      0x20\n      add\n      swap1\n      dup2\n      mstore\n      0x20\n      add\n      0x00\n      keccak256\n        /* \"Bluelight-MP/UserDashboard.sol\":5182:5208  users[msg.sender].loggedIn */\n      0x03\n      add\n      0x00\n        /* \"Bluelight-MP/UserDashboard.sol\":5182:5215  users[msg.sender].loggedIn = true */\n      0x0100\n      exp\n      dup2\n      sload\n      dup2\n      0xff\n      mul\n      not\n      and\n      swap1\n      dup4\n      iszero\n      iszero\n      mul\n      or\n      swap1\n      sstore\n      pop\n        /* \"Bluelight-MP/UserDashboard.sol\":5241:5251  msg.sender */\n      caller\n        /* \"Bluelight-MP/UserDashboard.sol\":5231:5269  LoggingIn(msg.sender, block.timestamp) */\n      0xffffffffffffffffffffffffffffffffffffffff\n      and\n      0x364034de78a61b6190b049e2c5437370b27906bfed607993a5bc2dda23c16cff\n        /* \"Bluelight-MP/UserDashboard.sol\":5253:5268  block.timestamp */\n      timestamp\n        /* \"Bluelight-MP/UserDashboard.sol\":5231:5269  LoggingIn(msg.sender, block.timestamp) */\n      mload(0x40)\n      tag_221\n      swap2\n      swap1\n      tag_222\n      jump\t// in\n    tag_221:\n      mload(0x40)\n      dup1\n      swap2\n      sub\n      swap1\n      log2\n        /* \"Bluelight-MP/UserDashboard.sol\":4997:5277  function logIn() virtual override external {\r... */\n      jump\t// out\n        /* \"Bluelight-MP/UserDashboard.sol\":3761:4157  function getNftWithBytes32(bytes32 _uniKey) external virtual override view \r... */\n    tag_74:\n        /* \"Bluelight-MP/UserDashboard.sol\":3854:3873  string memory _name */\n      0x60\n        /* \"Bluelight-MP/UserDashboard.sol\":3875:3901  address nftContractAddress */\n      0x00\n        /* \"Bluelight-MP/UserDashboard.sol\":3903:3918  uint256 tokenId */\n      dup1\n        /* \"Bluelight-MP/UserDashboard.sol\":3920:3933  address owner */\n      0x00\n        /* \"Bluelight-MP/UserDashboard.sol\":3935:3953  string memory iPFS */\n      0x60\n        /* \"Bluelight-MP/UserDashboard.sol\":3965:3979  bytes32 uniKey */\n      0x00\n        /* \"Bluelight-MP/UserDashboard.sol\":3982:3989  _uniKey */\n      dup7\n        /* \"Bluelight-MP/UserDashboard.sol\":3965:3989  bytes32 uniKey = _uniKey */\n      swap1\n      pop\n        /* \"Bluelight-MP/UserDashboard.sol\":4018:4024  myNFTs */\n      0x00\n        /* \"Bluelight-MP/UserDashboard.sol\":4018:4032  myNFTs[uniKey] */\n      dup1\n        /* \"Bluelight-MP/UserDashboard.sol\":4025:4031  uniKey */\n      dup3\n        /* \"Bluelight-MP/UserDashboard.sol\":4018:4032  myNFTs[uniKey] */\n      dup2\n      mstore\n      0x20\n      add\n      swap1\n      dup2\n      mstore\n      0x20\n      add\n      0x00\n      keccak256\n        /* \"Bluelight-MP/UserDashboard.sol\":4018:4040  myNFTs[uniKey].nftName */\n      0x00\n      add\n        /* \"Bluelight-MP/UserDashboard.sol\":4042:4048  myNFTs */\n      0x00\n        /* \"Bluelight-MP/UserDashboard.sol\":4042:4056  myNFTs[uniKey] */\n      dup1\n        /* \"Bluelight-MP/UserDashboard.sol\":4049:4055  uniKey */\n      dup4\n        /* \"Bluelight-MP/UserDashboard.sol\":4042:4056  myNFTs[uniKey] */\n      dup2\n      mstore\n      0x20\n      add\n      swap1\n      dup2\n      mstore\n      0x20\n      add\n      0x00\n      keccak256\n        /* \"Bluelight-MP/UserDashboard.sol\":4042:4072  myNFTs[uniKey].contractAddress */\n      0x01\n      add\n      0x00\n      swap1\n      sload\n      swap1\n      0x0100\n      exp\n      swap1\n      div\n      0xffffffffffffffffffffffffffffffffffffffff\n      and\n        /* \"Bluelight-MP/UserDashboard.sol\":4074:4080  myNFTs */\n      0x00\n        /* \"Bluelight-MP/UserDashboard.sol\":4074:4088  myNFTs[uniKey] */\n      dup1\n        /* \"Bluelight-MP/UserDashboard.sol\":4081:4087  uniKey */\n      dup5\n        /* \"Bluelight-MP/UserDashboard.sol\":4074:4088  myNFTs[uniKey] */\n      dup2\n      mstore\n      0x20\n      add\n      swap1\n      dup2\n      mstore\n      0x20\n      add\n      0x00\n      keccak256\n        /* \"Bluelight-MP/UserDashboard.sol\":4074:4096  myNFTs[uniKey].tokenId */\n      0x02\n      add\n      sload\n        /* \"Bluelight-MP/UserDashboard.sol\":4098:4104  myNFTs */\n      0x00\n        /* \"Bluelight-MP/UserDashboard.sol\":4098:4112  myNFTs[uniKey] */\n      dup1\n        /* \"Bluelight-MP/UserDashboard.sol\":4105:4111  uniKey */\n      dup6\n        /* \"Bluelight-MP/UserDashboard.sol\":4098:4112  myNFTs[uniKey] */\n      dup2\n      mstore\n      0x20\n      add\n      swap1\n      dup2\n      mstore\n      0x20\n      add\n      0x00\n      keccak256\n        /* \"Bluelight-MP/UserDashboard.sol\":4098:4118  myNFTs[uniKey].owner */\n      0x03\n      add\n      0x00\n      swap1\n      sload\n      swap1\n      0x0100\n      exp\n      swap1\n      div\n      0xffffffffffffffffffffffffffffffffffffffff\n      and\n        /* \"Bluelight-MP/UserDashboard.sol\":4129:4135  myNFTs */\n      0x00\n        /* \"Bluelight-MP/UserDashboard.sol\":4129:4143  myNFTs[uniKey] */\n      dup1\n        /* \"Bluelight-MP/UserDashboard.sol\":4136:4142  uniKey */\n      dup7\n        /* \"Bluelight-MP/UserDashboard.sol\":4129:4143  myNFTs[uniKey] */\n      dup2\n      mstore\n      0x20\n      add\n      swap1\n      dup2\n      mstore\n      0x20\n      add\n      0x00\n      keccak256\n        /* \"Bluelight-MP/UserDashboard.sol\":4129:4148  myNFTs[uniKey].ipfs */\n      0x04\n      add\n        /* \"Bluelight-MP/UserDashboard.sol\":4010:4149  return (myNFTs[uniKey].nftName, myNFTs[uniKey].contractAddress, myNFTs[uniKey].tokenId, myNFTs[uniKey].owner,\r... */\n      dup5\n      dup1\n      sload\n      tag_224\n      swap1\n      tag_153\n      jump\t// in\n    tag_224:\n      dup1\n      0x1f\n      add\n      0x20\n      dup1\n      swap2\n      div\n      mul\n      0x20\n      add\n      mload(0x40)\n      swap1\n      dup2\n      add\n      0x40\n      mstore\n      dup1\n      swap3\n      swap2\n      swap1\n      dup2\n      dup2\n      mstore\n      0x20\n      add\n      dup3\n      dup1\n      sload\n      tag_225\n      swap1\n      tag_153\n      jump\t// in\n    tag_225:\n      dup1\n      iszero\n      tag_226\n      jumpi\n      dup1\n      0x1f\n      lt\n      tag_227\n      jumpi\n      0x0100\n      dup1\n      dup4\n      sload\n      div\n      mul\n      dup4\n      mstore\n      swap2\n      0x20\n      add\n      swap2\n      jump(tag_226)\n    tag_227:\n      dup3\n      add\n      swap2\n      swap1\n      0x00\n      mstore\n      keccak256(0x00, 0x20)\n      swap1\n    tag_228:\n      dup2\n      sload\n      dup2\n      mstore\n      swap1\n      0x01\n      add\n      swap1\n      0x20\n      add\n      dup1\n      dup4\n      gt\n      tag_228\n      jumpi\n      dup3\n      swap1\n      sub\n      0x1f\n      and\n      dup3\n      add\n      swap2\n    tag_226:\n      pop\n      pop\n      pop\n      pop\n      pop\n      swap5\n      pop\n      dup1\n      dup1\n      sload\n      tag_229\n      swap1\n      tag_153\n      jump\t// in\n    tag_229:\n      dup1\n      0x1f\n      add\n      0x20\n      dup1\n      swap2\n      div\n      mul\n      0x20\n      add\n      mload(0x40)\n      swap1\n      dup2\n      add\n      0x40\n      mstore\n      dup1\n      swap3\n      swap2\n      swap1\n      dup2\n      dup2\n      mstore\n      0x20\n      add\n      dup3\n      dup1\n      sload\n      tag_230\n      swap1\n      tag_153\n      jump\t// in\n    tag_230:\n      dup1\n      iszero\n      tag_231\n      jumpi\n      dup1\n      0x1f\n      lt\n      tag_232\n      jumpi\n      0x0100\n      dup1\n      dup4\n      sload\n      div\n      mul\n      dup4\n      mstore\n      swap2\n      0x20\n      add\n      swap2\n      jump(tag_231)\n    tag_232:\n      dup3\n      add\n      swap2\n      swap1\n      0x00\n      mstore\n      keccak256(0x00, 0x20)\n      swap1\n    tag_233:\n      dup2\n      sload\n      dup2\n      mstore\n      swap1\n      0x01\n      add\n      swap1\n      0x20\n      add\n      dup1\n      dup4\n      gt\n      tag_233\n      jumpi\n      dup3\n      swap1\n      sub\n      0x1f\n      and\n      dup3\n      add\n      swap2\n    tag_231:\n      pop\n      pop\n      pop\n      pop\n      pop\n      swap1\n      pop\n      swap6\n      pop\n      swap6\n      pop\n      swap6\n      pop\n      swap6\n      pop\n      swap6\n      pop\n      pop\n        /* \"Bluelight-MP/UserDashboard.sol\":3761:4157  function getNftWithBytes32(bytes32 _uniKey) external virtual override view \r... */\n      swap2\n      swap4\n      swap6\n      swap1\n      swap3\n      swap5\n      pop\n      jump\t// out\n        /* \"Bluelight-MP/UserDashboard.sol\":5426:5656  function logOut() external virtual override{\r... */\n    tag_78:\n        /* \"Bluelight-MP/UserDashboard.sol\":5489:5494  users */\n      0x04\n        /* \"Bluelight-MP/UserDashboard.sol\":5489:5506  users[msg.sender] */\n      0x00\n        /* \"Bluelight-MP/UserDashboard.sol\":5495:5505  msg.sender */\n      caller\n        /* \"Bluelight-MP/UserDashboard.sol\":5489:5506  users[msg.sender] */\n      0xffffffffffffffffffffffffffffffffffffffff\n      and\n      0xffffffffffffffffffffffffffffffffffffffff\n      and\n      dup2\n      mstore\n      0x20\n      add\n      swap1\n      dup2\n      mstore\n      0x20\n      add\n      0x00\n      keccak256\n        /* \"Bluelight-MP/UserDashboard.sol\":5489:5515  users[msg.sender].loggedIn */\n      0x03\n      add\n      0x00\n      swap1\n      sload\n      swap1\n      0x0100\n      exp\n      swap1\n      div\n      0xff\n      and\n        /* \"Bluelight-MP/UserDashboard.sol\":5517:5536  CREATE_ACC_OR_LOGIN */\n      mload(0x40)\n      dup1\n      0x40\n      add\n      0x40\n      mstore\n      dup1\n      0x05\n      dup2\n      mstore\n      0x20\n      add\n      0x574d552d32000000000000000000000000000000000000000000000000000000\n      dup2\n      mstore\n      pop\n        /* \"Bluelight-MP/UserDashboard.sol\":5480:5537  require (users[msg.sender].loggedIn, CREATE_ACC_OR_LOGIN) */\n      swap1\n      tag_235\n      jumpi\n      mload(0x40)\n      0x08c379a000000000000000000000000000000000000000000000000000000000\n      dup2\n      mstore\n      0x04\n      add\n      tag_236\n      swap2\n      swap1\n      tag_122\n      jump\t// in\n    tag_236:\n      mload(0x40)\n      dup1\n      swap2\n      sub\n      swap1\n      revert\n    tag_235:\n      pop\n        /* \"Bluelight-MP/UserDashboard.sol\":5577:5582  false */\n      0x00\n        /* \"Bluelight-MP/UserDashboard.sol\":5548:5553  users */\n      0x04\n        /* \"Bluelight-MP/UserDashboard.sol\":5548:5565  users[msg.sender] */\n      0x00\n        /* \"Bluelight-MP/UserDashboard.sol\":5554:5564  msg.sender */\n      caller\n        /* \"Bluelight-MP/UserDashboard.sol\":5548:5565  users[msg.sender] */\n      0xffffffffffffffffffffffffffffffffffffffff\n      and\n      0xffffffffffffffffffffffffffffffffffffffff\n      and\n      dup2\n      mstore\n      0x20\n      add\n      swap1\n      dup2\n      mstore\n      0x20\n      add\n      0x00\n      keccak256\n        /* \"Bluelight-MP/UserDashboard.sol\":5548:5574  users[msg.sender].loggedIn */\n      0x03\n      add\n      0x00\n        /* \"Bluelight-MP/UserDashboard.sol\":5548:5582  users[msg.sender].loggedIn = false */\n      0x0100\n      exp\n      dup2\n      sload\n      dup2\n      0xff\n      mul\n      not\n      and\n      swap1\n      dup4\n      iszero\n      iszero\n      mul\n      or\n      swap1\n      sstore\n      pop\n        /* \"Bluelight-MP/UserDashboard.sol\":5609:5619  msg.sender */\n      caller\n        /* \"Bluelight-MP/UserDashboard.sol\":5598:5637  LoggingOut(msg.sender, block.timestamp) */\n      0xffffffffffffffffffffffffffffffffffffffff\n      and\n      0x70d1177aa26c67f6b2fdb43400cfd7ff0c23a8712301abe5aba2ee3d89e28a10\n        /* \"Bluelight-MP/UserDashboard.sol\":5621:5636  block.timestamp */\n      timestamp\n        /* \"Bluelight-MP/UserDashboard.sol\":5598:5637  LoggingOut(msg.sender, block.timestamp) */\n      mload(0x40)\n      tag_237\n      swap2\n      swap1\n      tag_222\n      jump\t// in\n    tag_237:\n      mload(0x40)\n      dup1\n      swap2\n      sub\n      swap1\n      log2\n        /* \"Bluelight-MP/UserDashboard.sol\":5426:5656  function logOut() external virtual override{\r... */\n      jump\t// out\n        /* \"Bluelight-MP/UserDashboard.sol\":4654:4794  function getUniKeysMapping(address ownerOfNfts) external view returns(bytes32[] memory){\r... */\n    tag_82:\n        /* \"Bluelight-MP/UserDashboard.sol\":4724:4740  bytes32[] memory */\n      0x60\n        /* \"Bluelight-MP/UserDashboard.sol\":4759:4773  uniKeysMapping */\n      0x01\n        /* \"Bluelight-MP/UserDashboard.sol\":4759:4786  uniKeysMapping[ownerOfNfts] */\n      0x00\n        /* \"Bluelight-MP/UserDashboard.sol\":4774:4785  ownerOfNfts */\n      dup4\n        /* \"Bluelight-MP/UserDashboard.sol\":4759:4786  uniKeysMapping[ownerOfNfts] */\n      0xffffffffffffffffffffffffffffffffffffffff\n      and\n      0xffffffffffffffffffffffffffffffffffffffff\n      and\n      dup2\n      mstore\n      0x20\n      add\n      swap1\n      dup2\n      mstore\n      0x20\n      add\n      0x00\n      keccak256\n        /* \"Bluelight-MP/UserDashboard.sol\":4752:4786  return uniKeysMapping[ownerOfNfts] */\n      dup1\n      sload\n      dup1\n      0x20\n      mul\n      0x20\n      add\n      mload(0x40)\n      swap1\n      dup2\n      add\n      0x40\n      mstore\n      dup1\n      swap3\n      swap2\n      swap1\n      dup2\n      dup2\n      mstore\n      0x20\n      add\n      dup3\n      dup1\n      sload\n      dup1\n      iszero\n      tag_239\n      jumpi\n      0x20\n      mul\n      dup3\n      add\n      swap2\n      swap1\n      0x00\n      mstore\n      keccak256(0x00, 0x20)\n      swap1\n    tag_240:\n      dup2\n      sload\n      dup2\n      mstore\n      0x20\n      add\n      swap1\n      0x01\n      add\n      swap1\n      dup1\n      dup4\n      gt\n      tag_240\n      jumpi\n    tag_239:\n      pop\n      pop\n      pop\n      pop\n      pop\n      swap1\n      pop\n        /* \"Bluelight-MP/UserDashboard.sol\":4654:4794  function getUniKeysMapping(address ownerOfNfts) external view returns(bytes32[] memory){\r... */\n      swap2\n      swap1\n      pop\n      jump\t// out\n        /* \"Bluelight-MP/UserDashboard.sol\":1115:1167  mapping (string => address) public userNameToAddress */\n    tag_87:\n      0x05\n      dup2\n      dup1\n      mload\n      0x20\n      dup2\n      add\n      dup3\n      add\n      dup1\n      mload\n      dup5\n      dup3\n      mstore\n      0x20\n      dup4\n      add\n      0x20\n      dup6\n      add\n      keccak256\n      dup2\n      dup4\n      mstore\n      dup1\n      swap6\n      pop\n      pop\n      pop\n      pop\n      pop\n      pop\n      0x00\n      swap2\n      pop\n      sload\n      swap1\n      0x0100\n      exp\n      swap1\n      div\n      0xffffffffffffffffffffffffffffffffffffffff\n      and\n      dup2\n      jump\t// out\n        /* \"Bluelight-MP/UserDashboard.sol\":1931:2493  function setNft(string memory _name, address nftContractAddress, uint256 tokenId, string memory iPFS) external virtual override{\r... */\n    tag_93:\n        /* \"Bluelight-MP/UserDashboard.sol\":2078:2083  users */\n      0x04\n        /* \"Bluelight-MP/UserDashboard.sol\":2078:2095  users[msg.sender] */\n      0x00\n        /* \"Bluelight-MP/UserDashboard.sol\":2084:2094  msg.sender */\n      caller\n        /* \"Bluelight-MP/UserDashboard.sol\":2078:2095  users[msg.sender] */\n      0xffffffffffffffffffffffffffffffffffffffff\n      and\n      0xffffffffffffffffffffffffffffffffffffffff\n      and\n      dup2\n      mstore\n      0x20\n      add\n      swap1\n      dup2\n      mstore\n      0x20\n      add\n      0x00\n      keccak256\n        /* \"Bluelight-MP/UserDashboard.sol\":2078:2104  users[msg.sender].loggedIn */\n      0x03\n      add\n      0x00\n      swap1\n      sload\n      swap1\n      0x0100\n      exp\n      swap1\n      div\n      0xff\n      and\n        /* \"Bluelight-MP/UserDashboard.sol\":2106:2125  CREATE_ACC_OR_LOGIN */\n      mload(0x40)\n      dup1\n      0x40\n      add\n      0x40\n      mstore\n      dup1\n      0x05\n      dup2\n      mstore\n      0x20\n      add\n      0x574d552d32000000000000000000000000000000000000000000000000000000\n      dup2\n      mstore\n      pop\n        /* \"Bluelight-MP/UserDashboard.sol\":2069:2126  require (users[msg.sender].loggedIn, CREATE_ACC_OR_LOGIN) */\n      swap1\n      tag_242\n      jumpi\n      mload(0x40)\n      0x08c379a000000000000000000000000000000000000000000000000000000000\n      dup2\n      mstore\n      0x04\n      add\n      tag_243\n      swap2\n      swap1\n      tag_122\n      jump\t// in\n    tag_243:\n      mload(0x40)\n      dup1\n      swap2\n      sub\n      swap1\n      revert\n    tag_242:\n      pop\n        /* \"Bluelight-MP/UserDashboard.sol\":2139:2153  bytes32 uniKey */\n      0x00\n        /* \"Bluelight-MP/UserDashboard.sol\":2156:2204  getPrivateUniqueKey(nftContractAddress, tokenId) */\n      tag_244\n        /* \"Bluelight-MP/UserDashboard.sol\":2176:2194  nftContractAddress */\n      dup5\n        /* \"Bluelight-MP/UserDashboard.sol\":2196:2203  tokenId */\n      dup5\n        /* \"Bluelight-MP/UserDashboard.sol\":2156:2175  getPrivateUniqueKey */\n      tag_189\n        /* \"Bluelight-MP/UserDashboard.sol\":2156:2204  getPrivateUniqueKey(nftContractAddress, tokenId) */\n      jump\t// in\n    tag_244:\n        /* \"Bluelight-MP/UserDashboard.sol\":2139:2204  bytes32 uniKey = getPrivateUniqueKey(nftContractAddress, tokenId) */\n      swap1\n      pop\n        /* \"Bluelight-MP/UserDashboard.sol\":2241:2246  _name */\n      dup5\n        /* \"Bluelight-MP/UserDashboard.sol\":2216:2222  myNFTs */\n      0x00\n        /* \"Bluelight-MP/UserDashboard.sol\":2216:2230  myNFTs[uniKey] */\n      dup1\n        /* \"Bluelight-MP/UserDashboard.sol\":2223:2229  uniKey */\n      dup4\n        /* \"Bluelight-MP/UserDashboard.sol\":2216:2230  myNFTs[uniKey] */\n      dup2\n      mstore\n      0x20\n      add\n      swap1\n      dup2\n      mstore\n      0x20\n      add\n      0x00\n      keccak256\n        /* \"Bluelight-MP/UserDashboard.sol\":2216:2238  myNFTs[uniKey].nftName */\n      0x00\n      add\n        /* \"Bluelight-MP/UserDashboard.sol\":2216:2246  myNFTs[uniKey].nftName = _name */\n      swap1\n      dup1\n      mload\n      swap1\n      0x20\n      add\n      swap1\n      tag_245\n      swap3\n      swap2\n      swap1\n      tag_148\n      jump\t// in\n    tag_245:\n      pop\n        /* \"Bluelight-MP/UserDashboard.sol\":2290:2308  nftContractAddress */\n      dup4\n        /* \"Bluelight-MP/UserDashboard.sol\":2257:2263  myNFTs */\n      0x00\n        /* \"Bluelight-MP/UserDashboard.sol\":2257:2271  myNFTs[uniKey] */\n      dup1\n        /* \"Bluelight-MP/UserDashboard.sol\":2264:2270  uniKey */\n      dup4\n        /* \"Bluelight-MP/UserDashboard.sol\":2257:2271  myNFTs[uniKey] */\n      dup2\n      mstore\n      0x20\n      add\n      swap1\n      dup2\n      mstore\n      0x20\n      add\n      0x00\n      keccak256\n        /* \"Bluelight-MP/UserDashboard.sol\":2257:2287  myNFTs[uniKey].contractAddress */\n      0x01\n      add\n      0x00\n        /* \"Bluelight-MP/UserDashboard.sol\":2257:2308  myNFTs[uniKey].contractAddress = nftContractAddress */\n      0x0100\n      exp\n      dup2\n      sload\n      dup2\n      0xffffffffffffffffffffffffffffffffffffffff\n      mul\n      not\n      and\n      swap1\n      dup4\n      0xffffffffffffffffffffffffffffffffffffffff\n      and\n      mul\n      or\n      swap1\n      sstore\n      pop\n        /* \"Bluelight-MP/UserDashboard.sol\":2344:2351  tokenId */\n      dup3\n        /* \"Bluelight-MP/UserDashboard.sol\":2319:2325  myNFTs */\n      0x00\n        /* \"Bluelight-MP/UserDashboard.sol\":2319:2333  myNFTs[uniKey] */\n      dup1\n        /* \"Bluelight-MP/UserDashboard.sol\":2326:2332  uniKey */\n      dup4\n        /* \"Bluelight-MP/UserDashboard.sol\":2319:2333  myNFTs[uniKey] */\n      dup2\n      mstore\n      0x20\n      add\n      swap1\n      dup2\n      mstore\n      0x20\n      add\n      0x00\n      keccak256\n        /* \"Bluelight-MP/UserDashboard.sol\":2319:2341  myNFTs[uniKey].tokenId */\n      0x02\n      add\n        /* \"Bluelight-MP/UserDashboard.sol\":2319:2351  myNFTs[uniKey].tokenId = tokenId */\n      dup2\n      swap1\n      sstore\n      pop\n        /* \"Bluelight-MP/UserDashboard.sol\":2385:2395  msg.sender */\n      caller\n        /* \"Bluelight-MP/UserDashboard.sol\":2362:2368  myNFTs */\n      0x00\n        /* \"Bluelight-MP/UserDashboard.sol\":2362:2376  myNFTs[uniKey] */\n      dup1\n        /* \"Bluelight-MP/UserDashboard.sol\":2369:2375  uniKey */\n      dup4\n        /* \"Bluelight-MP/UserDashboard.sol\":2362:2376  myNFTs[uniKey] */\n      dup2\n      mstore\n      0x20\n      add\n      swap1\n      dup2\n      mstore\n      0x20\n      add\n      0x00\n      keccak256\n        /* \"Bluelight-MP/UserDashboard.sol\":2362:2382  myNFTs[uniKey].owner */\n      0x03\n      add\n      0x00\n        /* \"Bluelight-MP/UserDashboard.sol\":2362:2395  myNFTs[uniKey].owner = msg.sender */\n      0x0100\n      exp\n      dup2\n      sload\n      dup2\n      0xffffffffffffffffffffffffffffffffffffffff\n      mul\n      not\n      and\n      swap1\n      dup4\n      0xffffffffffffffffffffffffffffffffffffffff\n      and\n      mul\n      or\n      swap1\n      sstore\n      pop\n        /* \"Bluelight-MP/UserDashboard.sol\":2428:2432  iPFS */\n      dup2\n        /* \"Bluelight-MP/UserDashboard.sol\":2406:2412  myNFTs */\n      0x00\n        /* \"Bluelight-MP/UserDashboard.sol\":2406:2420  myNFTs[uniKey] */\n      dup1\n        /* \"Bluelight-MP/UserDashboard.sol\":2413:2419  uniKey */\n      dup4\n        /* \"Bluelight-MP/UserDashboard.sol\":2406:2420  myNFTs[uniKey] */\n      dup2\n      mstore\n      0x20\n      add\n      swap1\n      dup2\n      mstore\n      0x20\n      add\n      0x00\n      keccak256\n        /* \"Bluelight-MP/UserDashboard.sol\":2406:2425  myNFTs[uniKey].ipfs */\n      0x04\n      add\n        /* \"Bluelight-MP/UserDashboard.sol\":2406:2432  myNFTs[uniKey].ipfs = iPFS */\n      swap1\n      dup1\n      mload\n      swap1\n      0x20\n      add\n      swap1\n      tag_246\n      swap3\n      swap2\n      swap1\n      tag_148\n      jump\t// in\n    tag_246:\n      pop\n        /* \"Bluelight-MP/UserDashboard.sol\":2444:2458  uniKeysMapping */\n      0x01\n        /* \"Bluelight-MP/UserDashboard.sol\":2444:2470  uniKeysMapping[msg.sender] */\n      0x00\n        /* \"Bluelight-MP/UserDashboard.sol\":2459:2469  msg.sender */\n      caller\n        /* \"Bluelight-MP/UserDashboard.sol\":2444:2470  uniKeysMapping[msg.sender] */\n      0xffffffffffffffffffffffffffffffffffffffff\n      and\n      0xffffffffffffffffffffffffffffffffffffffff\n      and\n      dup2\n      mstore\n      0x20\n      add\n      swap1\n      dup2\n      mstore\n      0x20\n      add\n      0x00\n      keccak256\n        /* \"Bluelight-MP/UserDashboard.sol\":2476:2482  uniKey */\n      dup2\n        /* \"Bluelight-MP/UserDashboard.sol\":2444:2483  uniKeysMapping[msg.sender].push(uniKey) */\n      swap1\n      dup1\n      0x01\n      dup2\n      sload\n      add\n      dup1\n      dup3\n      sstore\n      dup1\n      swap2\n      pop\n      pop\n      0x01\n      swap1\n      sub\n      swap1\n      0x00\n      mstore\n      keccak256(0x00, 0x20)\n      add\n      0x00\n      swap1\n      swap2\n      swap1\n      swap2\n      swap1\n      swap2\n      pop\n      sstore\n        /* \"Bluelight-MP/UserDashboard.sol\":1931:2493  function setNft(string memory _name, address nftContractAddress, uint256 tokenId, string memory iPFS) external virtual override{\r... */\n      pop\n      pop\n      pop\n      pop\n      pop\n      jump\t// out\n        /* \"Bluelight-MP/UserDashboard.sol\":1214:1276  mapping (address => AmountRecord) public addressToAmountRecord */\n    tag_96:\n      mstore(0x20, 0x06)\n      dup1\n      0x00\n      mstore\n      keccak256(0x00, 0x40)\n      0x00\n      swap2\n      pop\n      swap1\n      pop\n      dup1\n      0x00\n      add\n      sload\n      swap1\n      dup1\n      0x01\n      add\n      sload\n      swap1\n      dup1\n      0x02\n      add\n      sload\n      swap1\n      dup1\n      0x03\n      add\n      sload\n      swap1\n      pop\n      dup5\n      jump\t// out\n        /* \"Bluelight-MP/UserDashboard.sol\":7435:7893  function setAmountRecord(address user, uint curAmountSpent, uint tokenAmountSpent, uint curAmountEarned, uint tokenAmountEarned) external virtual override{\r... */\n    tag_102:\n        /* \"Bluelight-MP/UserDashboard.sol\":7646:7660  curAmountSpent */\n      dup4\n        /* \"Bluelight-MP/UserDashboard.sol\":7600:7621  addressToAmountRecord */\n      0x06\n        /* \"Bluelight-MP/UserDashboard.sol\":7600:7627  addressToAmountRecord[user] */\n      0x00\n        /* \"Bluelight-MP/UserDashboard.sol\":7622:7626  user */\n      dup8\n        /* \"Bluelight-MP/UserDashboard.sol\":7600:7627  addressToAmountRecord[user] */\n      0xffffffffffffffffffffffffffffffffffffffff\n      and\n      0xffffffffffffffffffffffffffffffffffffffff\n      and\n      dup2\n      mstore\n      0x20\n      add\n      swap1\n      dup2\n      mstore\n      0x20\n      add\n      0x00\n      keccak256\n        /* \"Bluelight-MP/UserDashboard.sol\":7600:7642  addressToAmountRecord[user].curAmountSpent */\n      0x00\n      add\n      0x00\n        /* \"Bluelight-MP/UserDashboard.sol\":7600:7660  addressToAmountRecord[user].curAmountSpent += curAmountSpent */\n      dup3\n      dup3\n      sload\n      tag_249\n      swap2\n      swap1\n      tag_250\n      jump\t// in\n    tag_249:\n      swap3\n      pop\n      pop\n      dup2\n      swap1\n      sstore\n      pop\n        /* \"Bluelight-MP/UserDashboard.sol\":7719:7735  tokenAmountSpent */\n      dup3\n        /* \"Bluelight-MP/UserDashboard.sol\":7671:7692  addressToAmountRecord */\n      0x06\n        /* \"Bluelight-MP/UserDashboard.sol\":7671:7698  addressToAmountRecord[user] */\n      0x00\n        /* \"Bluelight-MP/UserDashboard.sol\":7693:7697  user */\n      dup8\n        /* \"Bluelight-MP/UserDashboard.sol\":7671:7698  addressToAmountRecord[user] */\n      0xffffffffffffffffffffffffffffffffffffffff\n      and\n      0xffffffffffffffffffffffffffffffffffffffff\n      and\n      dup2\n      mstore\n      0x20\n      add\n      swap1\n      dup2\n      mstore\n      0x20\n      add\n      0x00\n      keccak256\n        /* \"Bluelight-MP/UserDashboard.sol\":7671:7715  addressToAmountRecord[user].tokenAmountSpent */\n      0x01\n      add\n      0x00\n        /* \"Bluelight-MP/UserDashboard.sol\":7671:7735  addressToAmountRecord[user].tokenAmountSpent += tokenAmountSpent */\n      dup3\n      dup3\n      sload\n      tag_251\n      swap2\n      swap1\n      tag_250\n      jump\t// in\n    tag_251:\n      swap3\n      pop\n      pop\n      dup2\n      swap1\n      sstore\n      pop\n        /* \"Bluelight-MP/UserDashboard.sol\":7793:7808  curAmountEarned */\n      dup2\n        /* \"Bluelight-MP/UserDashboard.sol\":7746:7767  addressToAmountRecord */\n      0x06\n        /* \"Bluelight-MP/UserDashboard.sol\":7746:7773  addressToAmountRecord[user] */\n      0x00\n        /* \"Bluelight-MP/UserDashboard.sol\":7768:7772  user */\n      dup8\n        /* \"Bluelight-MP/UserDashboard.sol\":7746:7773  addressToAmountRecord[user] */\n      0xffffffffffffffffffffffffffffffffffffffff\n      and\n      0xffffffffffffffffffffffffffffffffffffffff\n      and\n      dup2\n      mstore\n      0x20\n      add\n      swap1\n      dup2\n      mstore\n      0x20\n      add\n      0x00\n      keccak256\n        /* \"Bluelight-MP/UserDashboard.sol\":7746:7789  addressToAmountRecord[user].curAmountEarned */\n      0x02\n      add\n      0x00\n        /* \"Bluelight-MP/UserDashboard.sol\":7746:7808  addressToAmountRecord[user].curAmountEarned += curAmountEarned */\n      dup3\n      dup3\n      sload\n      tag_252\n      swap2\n      swap1\n      tag_250\n      jump\t// in\n    tag_252:\n      swap3\n      pop\n      pop\n      dup2\n      swap1\n      sstore\n      pop\n        /* \"Bluelight-MP/UserDashboard.sol\":7868:7885  tokenAmountEarned */\n      dup1\n        /* \"Bluelight-MP/UserDashboard.sol\":7819:7840  addressToAmountRecord */\n      0x06\n        /* \"Bluelight-MP/UserDashboard.sol\":7819:7846  addressToAmountRecord[user] */\n      0x00\n        /* \"Bluelight-MP/UserDashboard.sol\":7841:7845  user */\n      dup8\n        /* \"Bluelight-MP/UserDashboard.sol\":7819:7846  addressToAmountRecord[user] */\n      0xffffffffffffffffffffffffffffffffffffffff\n      and\n      0xffffffffffffffffffffffffffffffffffffffff\n      and\n      dup2\n      mstore\n      0x20\n      add\n      swap1\n      dup2\n      mstore\n      0x20\n      add\n      0x00\n      keccak256\n        /* \"Bluelight-MP/UserDashboard.sol\":7819:7864  addressToAmountRecord[user].tokenAmountEarned */\n      0x03\n      add\n      0x00\n        /* \"Bluelight-MP/UserDashboard.sol\":7819:7885  addressToAmountRecord[user].tokenAmountEarned += tokenAmountEarned */\n      dup3\n      dup3\n      sload\n      tag_253\n      swap2\n      swap1\n      tag_250\n      jump\t// in\n    tag_253:\n      swap3\n      pop\n      pop\n      dup2\n      swap1\n      sstore\n      pop\n        /* \"Bluelight-MP/UserDashboard.sol\":7435:7893  function setAmountRecord(address user, uint curAmountSpent, uint tokenAmountSpent, uint curAmountEarned, uint tokenAmountEarned) external virtual override{\r... */\n      pop\n      pop\n      pop\n      pop\n      pop\n      jump\t// out\n        /* \"Bluelight-MP/UserDashboard.sol\":7899:8309  function userAmountDetail(address user) external virtual override view \r... */\n    tag_105:\n        /* \"Bluelight-MP/UserDashboard.sol\":7988:8007  uint currencyEarned */\n      0x00\n        /* \"Bluelight-MP/UserDashboard.sol\":8009:8025  uint earnedToken */\n      dup1\n        /* \"Bluelight-MP/UserDashboard.sol\":8027:8045  uint currencySpent */\n      0x00\n        /* \"Bluelight-MP/UserDashboard.sol\":8047:8062  uint tokenSpent */\n      dup1\n        /* \"Bluelight-MP/UserDashboard.sol\":8095:8116  addressToAmountRecord */\n      0x06\n        /* \"Bluelight-MP/UserDashboard.sol\":8095:8122  addressToAmountRecord[user] */\n      0x00\n        /* \"Bluelight-MP/UserDashboard.sol\":8117:8121  user */\n      dup7\n        /* \"Bluelight-MP/UserDashboard.sol\":8095:8122  addressToAmountRecord[user] */\n      0xffffffffffffffffffffffffffffffffffffffff\n      and\n      0xffffffffffffffffffffffffffffffffffffffff\n      and\n      dup2\n      mstore\n      0x20\n      add\n      swap1\n      dup2\n      mstore\n      0x20\n      add\n      0x00\n      keccak256\n        /* \"Bluelight-MP/UserDashboard.sol\":8095:8138  addressToAmountRecord[user].curAmountEarned */\n      0x02\n      add\n      sload\n        /* \"Bluelight-MP/UserDashboard.sol\":8140:8161  addressToAmountRecord */\n      0x06\n        /* \"Bluelight-MP/UserDashboard.sol\":8140:8167  addressToAmountRecord[user] */\n      0x00\n        /* \"Bluelight-MP/UserDashboard.sol\":8162:8166  user */\n      dup8\n        /* \"Bluelight-MP/UserDashboard.sol\":8140:8167  addressToAmountRecord[user] */\n      0xffffffffffffffffffffffffffffffffffffffff\n      and\n      0xffffffffffffffffffffffffffffffffffffffff\n      and\n      dup2\n      mstore\n      0x20\n      add\n      swap1\n      dup2\n      mstore\n      0x20\n      add\n      0x00\n      keccak256\n        /* \"Bluelight-MP/UserDashboard.sol\":8140:8185  addressToAmountRecord[user].tokenAmountEarned */\n      0x03\n      add\n      sload\n        /* \"Bluelight-MP/UserDashboard.sol\":8201:8222  addressToAmountRecord */\n      0x06\n        /* \"Bluelight-MP/UserDashboard.sol\":8201:8228  addressToAmountRecord[user] */\n      0x00\n        /* \"Bluelight-MP/UserDashboard.sol\":8223:8227  user */\n      dup9\n        /* \"Bluelight-MP/UserDashboard.sol\":8201:8228  addressToAmountRecord[user] */\n      0xffffffffffffffffffffffffffffffffffffffff\n      and\n      0xffffffffffffffffffffffffffffffffffffffff\n      and\n      dup2\n      mstore\n      0x20\n      add\n      swap1\n      dup2\n      mstore\n      0x20\n      add\n      0x00\n      keccak256\n        /* \"Bluelight-MP/UserDashboard.sol\":8201:8243  addressToAmountRecord[user].curAmountSpent */\n      0x00\n      add\n      sload\n        /* \"Bluelight-MP/UserDashboard.sol\":8246:8267  addressToAmountRecord */\n      0x06\n        /* \"Bluelight-MP/UserDashboard.sol\":8246:8273  addressToAmountRecord[user] */\n      0x00\n        /* \"Bluelight-MP/UserDashboard.sol\":8268:8272  user */\n      dup10\n        /* \"Bluelight-MP/UserDashboard.sol\":8246:8273  addressToAmountRecord[user] */\n      0xffffffffffffffffffffffffffffffffffffffff\n      and\n      0xffffffffffffffffffffffffffffffffffffffff\n      and\n      dup2\n      mstore\n      0x20\n      add\n      swap1\n      dup2\n      mstore\n      0x20\n      add\n      0x00\n      keccak256\n        /* \"Bluelight-MP/UserDashboard.sol\":8246:8290  addressToAmountRecord[user].tokenAmountSpent */\n      0x01\n      add\n      sload\n        /* \"Bluelight-MP/UserDashboard.sol\":8074:8301  return(\r... */\n      swap4\n      pop\n      swap4\n      pop\n      swap4\n      pop\n      swap4\n      pop\n        /* \"Bluelight-MP/UserDashboard.sol\":7899:8309  function userAmountDetail(address user) external virtual override view \r... */\n      swap2\n      swap4\n      pop\n      swap2\n      swap4\n      jump\t// out\n        /* \"Bluelight-MP/UserDashboard.sol\":5662:6313  function signUp(string memory _userName) external virtual override{\r... */\n    tag_109:\n        /* \"Bluelight-MP/UserDashboard.sol\":5749:5754  users */\n      0x04\n        /* \"Bluelight-MP/UserDashboard.sol\":5749:5766  users[msg.sender] */\n      0x00\n        /* \"Bluelight-MP/UserDashboard.sol\":5755:5765  msg.sender */\n      caller\n        /* \"Bluelight-MP/UserDashboard.sol\":5749:5766  users[msg.sender] */\n      0xffffffffffffffffffffffffffffffffffffffff\n      and\n      0xffffffffffffffffffffffffffffffffffffffff\n      and\n      dup2\n      mstore\n      0x20\n      add\n      swap1\n      dup2\n      mstore\n      0x20\n      add\n      0x00\n      keccak256\n        /* \"Bluelight-MP/UserDashboard.sol\":5749:5778  users[msg.sender].userExisted */\n      0x01\n      add\n      0x00\n      swap1\n      sload\n      swap1\n      0x0100\n      exp\n      swap1\n      div\n      0xff\n      and\n        /* \"Bluelight-MP/UserDashboard.sol\":5748:5778  !users[msg.sender].userExisted */\n      iszero\n        /* \"Bluelight-MP/UserDashboard.sol\":5780:5792  USER_EXISTED */\n      mload(0x40)\n      dup1\n      0x40\n      add\n      0x40\n      mstore\n      dup1\n      0x05\n      dup2\n      mstore\n      0x20\n      add\n      0x574d552d34000000000000000000000000000000000000000000000000000000\n      dup2\n      mstore\n      pop\n        /* \"Bluelight-MP/UserDashboard.sol\":5739:5793  require (!users[msg.sender].userExisted, USER_EXISTED) */\n      swap1\n      tag_256\n      jumpi\n      mload(0x40)\n      0x08c379a000000000000000000000000000000000000000000000000000000000\n      dup2\n      mstore\n      0x04\n      add\n      tag_257\n      swap2\n      swap1\n      tag_122\n      jump\t// in\n    tag_257:\n      mload(0x40)\n      dup1\n      swap2\n      sub\n      swap1\n      revert\n    tag_256:\n      pop\n        /* \"Bluelight-MP/UserDashboard.sol\":5853:5854  0 */\n      0x00\n        /* \"Bluelight-MP/UserDashboard.sol\":5813:5855  userNameToAddress[_userName] == address(0) */\n      0xffffffffffffffffffffffffffffffffffffffff\n      and\n        /* \"Bluelight-MP/UserDashboard.sol\":5813:5830  userNameToAddress */\n      0x05\n        /* \"Bluelight-MP/UserDashboard.sol\":5831:5840  _userName */\n      dup3\n        /* \"Bluelight-MP/UserDashboard.sol\":5813:5841  userNameToAddress[_userName] */\n      mload(0x40)\n      tag_258\n      swap2\n      swap1\n      tag_159\n      jump\t// in\n    tag_258:\n      swap1\n      dup2\n      mstore\n      0x20\n      add\n      mload(0x40)\n      dup1\n      swap2\n      sub\n      swap1\n      keccak256\n      0x00\n      swap1\n      sload\n      swap1\n      0x0100\n      exp\n      swap1\n      div\n      0xffffffffffffffffffffffffffffffffffffffff\n      and\n        /* \"Bluelight-MP/UserDashboard.sol\":5813:5855  userNameToAddress[_userName] == address(0) */\n      0xffffffffffffffffffffffffffffffffffffffff\n      and\n      eq\n        /* \"Bluelight-MP/UserDashboard.sol\":5857:5874  USER_NAME_EXISTED */\n      mload(0x40)\n      dup1\n      0x40\n      add\n      0x40\n      mstore\n      dup1\n      0x05\n      dup2\n      mstore\n      0x20\n      add\n      0x574d552d36000000000000000000000000000000000000000000000000000000\n      dup2\n      mstore\n      pop\n        /* \"Bluelight-MP/UserDashboard.sol\":5804:5875  require (userNameToAddress[_userName] == address(0), USER_NAME_EXISTED) */\n      swap1\n      tag_259\n      jumpi\n      mload(0x40)\n      0x08c379a000000000000000000000000000000000000000000000000000000000\n      dup2\n      mstore\n      0x04\n      add\n      tag_260\n      swap2\n      swap1\n      tag_122\n      jump\t// in\n    tag_260:\n      mload(0x40)\n      dup1\n      swap2\n      sub\n      swap1\n      revert\n    tag_259:\n      pop\n        /* \"Bluelight-MP/UserDashboard.sol\":5917:5926  _userName */\n      dup1\n        /* \"Bluelight-MP/UserDashboard.sol\":5888:5893  users */\n      0x04\n        /* \"Bluelight-MP/UserDashboard.sol\":5888:5905  users[msg.sender] */\n      0x00\n        /* \"Bluelight-MP/UserDashboard.sol\":5894:5904  msg.sender */\n      caller\n        /* \"Bluelight-MP/UserDashboard.sol\":5888:5905  users[msg.sender] */\n      0xffffffffffffffffffffffffffffffffffffffff\n      and\n      0xffffffffffffffffffffffffffffffffffffffff\n      and\n      dup2\n      mstore\n      0x20\n      add\n      swap1\n      dup2\n      mstore\n      0x20\n      add\n      0x00\n      keccak256\n        /* \"Bluelight-MP/UserDashboard.sol\":5888:5914  users[msg.sender].userName */\n      0x00\n      add\n        /* \"Bluelight-MP/UserDashboard.sol\":5888:5926  users[msg.sender].userName = _userName */\n      swap1\n      dup1\n      mload\n      swap1\n      0x20\n      add\n      swap1\n      tag_261\n      swap3\n      swap2\n      swap1\n      tag_148\n      jump\t// in\n    tag_261:\n      pop\n        /* \"Bluelight-MP/UserDashboard.sol\":5969:5973  true */\n      0x01\n        /* \"Bluelight-MP/UserDashboard.sol\":5937:5942  users */\n      0x04\n        /* \"Bluelight-MP/UserDashboard.sol\":5937:5954  users[msg.sender] */\n      0x00\n        /* \"Bluelight-MP/UserDashboard.sol\":5943:5953  msg.sender */\n      caller\n        /* \"Bluelight-MP/UserDashboard.sol\":5937:5954  users[msg.sender] */\n      0xffffffffffffffffffffffffffffffffffffffff\n      and\n      0xffffffffffffffffffffffffffffffffffffffff\n      and\n      dup2\n      mstore\n      0x20\n      add\n      swap1\n      dup2\n      mstore\n      0x20\n      add\n      0x00\n      keccak256\n        /* \"Bluelight-MP/UserDashboard.sol\":5937:5966  users[msg.sender].userExisted */\n      0x01\n      add\n      0x00\n        /* \"Bluelight-MP/UserDashboard.sol\":5937:5973  users[msg.sender].userExisted = true */\n      0x0100\n      exp\n      dup2\n      sload\n      dup2\n      0xff\n      mul\n      not\n      and\n      swap1\n      dup4\n      iszero\n      iszero\n      mul\n      or\n      swap1\n      sstore\n      pop\n        /* \"Bluelight-MP/UserDashboard.sol\":6017:6032  block.timestamp */\n      timestamp\n        /* \"Bluelight-MP/UserDashboard.sol\":5984:5989  users */\n      0x04\n        /* \"Bluelight-MP/UserDashboard.sol\":5984:6001  users[msg.sender] */\n      0x00\n        /* \"Bluelight-MP/UserDashboard.sol\":5990:6000  msg.sender */\n      caller\n        /* \"Bluelight-MP/UserDashboard.sol\":5984:6001  users[msg.sender] */\n      0xffffffffffffffffffffffffffffffffffffffff\n      and\n      0xffffffffffffffffffffffffffffffffffffffff\n      and\n      dup2\n      mstore\n      0x20\n      add\n      swap1\n      dup2\n      mstore\n      0x20\n      add\n      0x00\n      keccak256\n        /* \"Bluelight-MP/UserDashboard.sol\":5984:6014  users[msg.sender].creationTime */\n      0x02\n      add\n        /* \"Bluelight-MP/UserDashboard.sol\":5984:6032  users[msg.sender].creationTime = block.timestamp */\n      dup2\n      swap1\n      sstore\n      pop\n        /* \"Bluelight-MP/UserDashboard.sol\":6072:6076  true */\n      0x01\n        /* \"Bluelight-MP/UserDashboard.sol\":6043:6048  users */\n      0x04\n        /* \"Bluelight-MP/UserDashboard.sol\":6043:6060  users[msg.sender] */\n      0x00\n        /* \"Bluelight-MP/UserDashboard.sol\":6049:6059  msg.sender */\n      caller\n        /* \"Bluelight-MP/UserDashboard.sol\":6043:6060  users[msg.sender] */\n      0xffffffffffffffffffffffffffffffffffffffff\n      and\n      0xffffffffffffffffffffffffffffffffffffffff\n      and\n      dup2\n      mstore\n      0x20\n      add\n      swap1\n      dup2\n      mstore\n      0x20\n      add\n      0x00\n      keccak256\n        /* \"Bluelight-MP/UserDashboard.sol\":6043:6069  users[msg.sender].loggedIn */\n      0x03\n      add\n      0x00\n        /* \"Bluelight-MP/UserDashboard.sol\":6043:6076  users[msg.sender].loggedIn = true */\n      0x0100\n      exp\n      dup2\n      sload\n      dup2\n      0xff\n      mul\n      not\n      and\n      swap1\n      dup4\n      iszero\n      iszero\n      mul\n      or\n      swap1\n      sstore\n      pop\n        /* \"Bluelight-MP/UserDashboard.sol\":6118:6128  msg.sender */\n      caller\n        /* \"Bluelight-MP/UserDashboard.sol\":6087:6104  userNameToAddress */\n      0x05\n        /* \"Bluelight-MP/UserDashboard.sol\":6105:6114  _userName */\n      dup3\n        /* \"Bluelight-MP/UserDashboard.sol\":6087:6115  userNameToAddress[_userName] */\n      mload(0x40)\n      tag_262\n      swap2\n      swap1\n      tag_159\n      jump\t// in\n    tag_262:\n      swap1\n      dup2\n      mstore\n      0x20\n      add\n      mload(0x40)\n      dup1\n      swap2\n      sub\n      swap1\n      keccak256\n      0x00\n        /* \"Bluelight-MP/UserDashboard.sol\":6087:6128  userNameToAddress[_userName] = msg.sender */\n      0x0100\n      exp\n      dup2\n      sload\n      dup2\n      0xffffffffffffffffffffffffffffffffffffffff\n      mul\n      not\n      and\n      swap1\n      dup4\n      0xffffffffffffffffffffffffffffffffffffffff\n      and\n      mul\n      or\n      swap1\n      sstore\n      pop\n        /* \"Bluelight-MP/UserDashboard.sol\":6258:6268  msg.sender */\n      caller\n        /* \"Bluelight-MP/UserDashboard.sol\":6250:6297  SignUp (msg.sender, _userName, block.timestamp) */\n      0xffffffffffffffffffffffffffffffffffffffff\n      and\n      0xee20c2c019dcbca8d08ff74c4ce6f465e02d3611905c9aceeb76a0c8e429af2f\n        /* \"Bluelight-MP/UserDashboard.sol\":6270:6279  _userName */\n      dup3\n        /* \"Bluelight-MP/UserDashboard.sol\":6281:6296  block.timestamp */\n      timestamp\n        /* \"Bluelight-MP/UserDashboard.sol\":6250:6297  SignUp (msg.sender, _userName, block.timestamp) */\n      mload(0x40)\n      tag_263\n      swap3\n      swap2\n      swap1\n      tag_264\n      jump\t// in\n    tag_263:\n      mload(0x40)\n      dup1\n      swap2\n      sub\n      swap1\n      log2\n        /* \"Bluelight-MP/UserDashboard.sol\":5662:6313  function signUp(string memory _userName) external virtual override{\r... */\n      pop\n      jump\t// out\n        /* \"Bluelight-MP/UserDashboard.sol\":905:957  mapping (NftCategory => bytes32[]) public nftCatWise */\n    tag_113:\n      mstore(0x20, 0x02)\n      dup2\n      0x00\n      mstore\n      keccak256(0x00, 0x40)\n      dup2\n      dup2\n      sload\n      dup2\n      lt\n      tag_265\n      jumpi\n      0x00\n      dup1\n      revert\n    tag_265:\n      swap1\n      0x00\n      mstore\n      keccak256(0x00, 0x20)\n      add\n      0x00\n      swap2\n      pop\n      swap2\n      pop\n      pop\n      sload\n      dup2\n      jump\t// out\n        /* \"Bluelight-MP/UserDashboard.sol\":3497:3755  function getNftCategories() external pure returns(string memory,string memory,string memory,string memory,string memory,string memory,string memory) {\r... */\n    tag_116:\n        /* \"Bluelight-MP/UserDashboard.sol\":3547:3560  string memory */\n      0x60\n        /* \"Bluelight-MP/UserDashboard.sol\":3561:3574  string memory */\n      dup1\n        /* \"Bluelight-MP/UserDashboard.sol\":3575:3588  string memory */\n      0x60\n        /* \"Bluelight-MP/UserDashboard.sol\":3589:3602  string memory */\n      dup1\n        /* \"Bluelight-MP/UserDashboard.sol\":3603:3616  string memory */\n      0x60\n        /* \"Bluelight-MP/UserDashboard.sol\":3617:3630  string memory */\n      dup1\n        /* \"Bluelight-MP/UserDashboard.sol\":3631:3644  string memory */\n      0x60\n        /* \"Bluelight-MP/UserDashboard.sol\":3657:3747  return (\"AVATAR\", \"PICTURE\", \"GENERATIVE_ART\", \"ART\", \"COLLECTIBLES\", \"GAMIFIED\", \"OTHER\") */\n      mload(0x40)\n      dup1\n      0x40\n      add\n      0x40\n      mstore\n      dup1\n      0x06\n      dup2\n      mstore\n      0x20\n      add\n      0x4156415441520000000000000000000000000000000000000000000000000000\n      dup2\n      mstore\n      pop\n      mload(0x40)\n      dup1\n      0x40\n      add\n      0x40\n      mstore\n      dup1\n      0x07\n      dup2\n      mstore\n      0x20\n      add\n      0x5049435455524500000000000000000000000000000000000000000000000000\n      dup2\n      mstore\n      pop\n      mload(0x40)\n      dup1\n      0x40\n      add\n      0x40\n      mstore\n      dup1\n      0x0e\n      dup2\n      mstore\n      0x20\n      add\n      0x47454e455241544956455f415254000000000000000000000000000000000000\n      dup2\n      mstore\n      pop\n      mload(0x40)\n      dup1\n      0x40\n      add\n      0x40\n      mstore\n      dup1\n      0x03\n      dup2\n      mstore\n      0x20\n      add\n      0x4152540000000000000000000000000000000000000000000000000000000000\n      dup2\n      mstore\n      pop\n      mload(0x40)\n      dup1\n      0x40\n      add\n      0x40\n      mstore\n      dup1\n      0x0c\n      dup2\n      mstore\n      0x20\n      add\n      0x434f4c4c45435449424c45530000000000000000000000000000000000000000\n      dup2\n      mstore\n      pop\n      mload(0x40)\n      dup1\n      0x40\n      add\n      0x40\n      mstore\n      dup1\n      0x08\n      dup2\n      mstore\n      0x20\n      add\n      0x47414d4946494544000000000000000000000000000000000000000000000000\n      dup2\n      mstore\n      pop\n      mload(0x40)\n      dup1\n      0x40\n      add\n      0x40\n      mstore\n      dup1\n      0x05\n      dup2\n      mstore\n      0x20\n      add\n      0x4f54484552000000000000000000000000000000000000000000000000000000\n      dup2\n      mstore\n      pop\n      swap7\n      pop\n      swap7\n      pop\n      swap7\n      pop\n      swap7\n      pop\n      swap7\n      pop\n      swap7\n      pop\n      swap7\n      pop\n        /* \"Bluelight-MP/UserDashboard.sol\":3497:3755  function getNftCategories() external pure returns(string memory,string memory,string memory,string memory,string memory,string memory,string memory) {\r... */\n      swap1\n      swap2\n      swap3\n      swap4\n      swap5\n      swap6\n      swap7\n      jump\t// out\n        /* \"Bluelight-MP/UserDashboard.sol\":6499:6692  function checkUser() external virtual override view returns(string memory){\r... */\n    tag_120:\n        /* \"Bluelight-MP/UserDashboard.sol\":6559:6572  string memory */\n      0x60\n        /* \"Bluelight-MP/UserDashboard.sol\":6592:6597  users */\n      0x04\n        /* \"Bluelight-MP/UserDashboard.sol\":6592:6609  users[msg.sender] */\n      0x00\n        /* \"Bluelight-MP/UserDashboard.sol\":6598:6608  msg.sender */\n      caller\n        /* \"Bluelight-MP/UserDashboard.sol\":6592:6609  users[msg.sender] */\n      0xffffffffffffffffffffffffffffffffffffffff\n      and\n      0xffffffffffffffffffffffffffffffffffffffff\n      and\n      dup2\n      mstore\n      0x20\n      add\n      swap1\n      dup2\n      mstore\n      0x20\n      add\n      0x00\n      keccak256\n        /* \"Bluelight-MP/UserDashboard.sol\":6592:6618  users[msg.sender].loggedIn */\n      0x03\n      add\n      0x00\n      swap1\n      sload\n      swap1\n      0x0100\n      exp\n      swap1\n      div\n      0xff\n      and\n        /* \"Bluelight-MP/UserDashboard.sol\":6620:6639  CREATE_ACC_OR_LOGIN */\n      mload(0x40)\n      dup1\n      0x40\n      add\n      0x40\n      mstore\n      dup1\n      0x05\n      dup2\n      mstore\n      0x20\n      add\n      0x574d552d32000000000000000000000000000000000000000000000000000000\n      dup2\n      mstore\n      pop\n        /* \"Bluelight-MP/UserDashboard.sol\":6584:6640  require(users[msg.sender].loggedIn, CREATE_ACC_OR_LOGIN) */\n      swap1\n      tag_269\n      jumpi\n      mload(0x40)\n      0x08c379a000000000000000000000000000000000000000000000000000000000\n      dup2\n      mstore\n      0x04\n      add\n      tag_270\n      swap2\n      swap1\n      tag_122\n      jump\t// in\n    tag_270:\n      mload(0x40)\n      dup1\n      swap2\n      sub\n      swap1\n      revert\n    tag_269:\n      pop\n        /* \"Bluelight-MP/UserDashboard.sol\":6658:6663  users */\n      0x04\n        /* \"Bluelight-MP/UserDashboard.sol\":6658:6675  users[msg.sender] */\n      0x00\n        /* \"Bluelight-MP/UserDashboard.sol\":6664:6674  msg.sender */\n      caller\n        /* \"Bluelight-MP/UserDashboard.sol\":6658:6675  users[msg.sender] */\n      0xffffffffffffffffffffffffffffffffffffffff\n      and\n      0xffffffffffffffffffffffffffffffffffffffff\n      and\n      dup2\n      mstore\n      0x20\n      add\n      swap1\n      dup2\n      mstore\n      0x20\n      add\n      0x00\n      keccak256\n        /* \"Bluelight-MP/UserDashboard.sol\":6658:6684  users[msg.sender].userName */\n      0x00\n      add\n        /* \"Bluelight-MP/UserDashboard.sol\":6651:6684  return users[msg.sender].userName */\n      dup1\n      sload\n      tag_271\n      swap1\n      tag_153\n      jump\t// in\n    tag_271:\n      dup1\n      0x1f\n      add\n      0x20\n      dup1\n      swap2\n      div\n      mul\n      0x20\n      add\n      mload(0x40)\n      swap1\n      dup2\n      add\n      0x40\n      mstore\n      dup1\n      swap3\n      swap2\n      swap1\n      dup2\n      dup2\n      mstore\n      0x20\n      add\n      dup3\n      dup1\n      sload\n      tag_272\n      swap1\n      tag_153\n      jump\t// in\n    tag_272:\n      dup1\n      iszero\n      tag_273\n      jumpi\n      dup1\n      0x1f\n      lt\n      tag_274\n      jumpi\n      0x0100\n      dup1\n      dup4\n      sload\n      div\n      mul\n      dup4\n      mstore\n      swap2\n      0x20\n      add\n      swap2\n      jump(tag_273)\n    tag_274:\n      dup3\n      add\n      swap2\n      swap1\n      0x00\n      mstore\n      keccak256(0x00, 0x20)\n      swap1\n    tag_275:\n      dup2\n      sload\n      dup2\n      mstore\n      swap1\n      0x01\n      add\n      swap1\n      0x20\n      add\n      dup1\n      dup4\n      gt\n      tag_275\n      jumpi\n      dup3\n      swap1\n      sub\n      0x1f\n      and\n      dup3\n      add\n      swap2\n    tag_273:\n      pop\n      pop\n      pop\n      pop\n      pop\n      swap1\n      pop\n        /* \"Bluelight-MP/UserDashboard.sol\":6499:6692  function checkUser() external virtual override view returns(string memory){\r... */\n      swap1\n      jump\t// out\n        /* \"Bluelight-MP/UserDashboard.sol\":3345:3491  function getUserNftCatWise(NftCategory nftCat) external view returns(bytes32[] memory){\r... */\n    tag_126:\n        /* \"Bluelight-MP/UserDashboard.sol\":3414:3430  bytes32[] memory */\n      0x60\n        /* \"Bluelight-MP/UserDashboard.sol\":3449:3463  userNftCatWise */\n      0x03\n        /* \"Bluelight-MP/UserDashboard.sol\":3449:3475  userNftCatWise[msg.sender] */\n      0x00\n        /* \"Bluelight-MP/UserDashboard.sol\":3464:3474  msg.sender */\n      caller\n        /* \"Bluelight-MP/UserDashboard.sol\":3449:3475  userNftCatWise[msg.sender] */\n      0xffffffffffffffffffffffffffffffffffffffff\n      and\n      0xffffffffffffffffffffffffffffffffffffffff\n      and\n      dup2\n      mstore\n      0x20\n      add\n      swap1\n      dup2\n      mstore\n      0x20\n      add\n      0x00\n      keccak256\n        /* \"Bluelight-MP/UserDashboard.sol\":3449:3483  userNftCatWise[msg.sender][nftCat] */\n      0x00\n        /* \"Bluelight-MP/UserDashboard.sol\":3476:3482  nftCat */\n      dup4\n        /* \"Bluelight-MP/UserDashboard.sol\":3449:3483  userNftCatWise[msg.sender][nftCat] */\n      0x06\n      dup2\n      gt\n      iszero\n      tag_277\n      jumpi\n      mstore(0x00, 0x4e487b7100000000000000000000000000000000000000000000000000000000)\n      mstore(0x04, 0x21)\n      revert(0x00, 0x24)\n    tag_277:\n      0x06\n      dup2\n      gt\n      iszero\n      tag_278\n      jumpi\n      mstore(0x00, 0x4e487b7100000000000000000000000000000000000000000000000000000000)\n      mstore(0x04, 0x21)\n      revert(0x00, 0x24)\n    tag_278:\n      dup2\n      mstore\n      0x20\n      add\n      swap1\n      dup2\n      mstore\n      0x20\n      add\n      0x00\n      keccak256\n        /* \"Bluelight-MP/UserDashboard.sol\":3442:3483  return userNftCatWise[msg.sender][nftCat] */\n      dup1\n      sload\n      dup1\n      0x20\n      mul\n      0x20\n      add\n      mload(0x40)\n      swap1\n      dup2\n      add\n      0x40\n      mstore\n      dup1\n      swap3\n      swap2\n      swap1\n      dup2\n      dup2\n      mstore\n      0x20\n      add\n      dup3\n      dup1\n      sload\n      dup1\n      iszero\n      tag_279\n      jumpi\n      0x20\n      mul\n      dup3\n      add\n      swap2\n      swap1\n      0x00\n      mstore\n      keccak256(0x00, 0x20)\n      swap1\n    tag_280:\n      dup2\n      sload\n      dup2\n      mstore\n      0x20\n      add\n      swap1\n      0x01\n      add\n      swap1\n      dup1\n      dup4\n      gt\n      tag_280\n      jumpi\n    tag_279:\n      pop\n      pop\n      pop\n      pop\n      pop\n      swap1\n      pop\n        /* \"Bluelight-MP/UserDashboard.sol\":3345:3491  function getUserNftCatWise(NftCategory nftCat) external view returns(bytes32[] memory){\r... */\n      swap2\n      swap1\n      pop\n      jump\t// out\n        /* \"Bluelight-MP/UserDashboard.sol\":964:1041  mapping (address => mapping (NftCategory => bytes32[])) public userNftCatWise */\n    tag_131:\n      mstore(0x20, 0x03)\n      dup3\n      0x00\n      mstore\n      mstore(0x20, keccak256(0x00, 0x40))\n      dup2\n      0x00\n      mstore\n      keccak256(0x00, 0x40)\n      dup2\n      dup2\n      sload\n      dup2\n      lt\n      tag_281\n      jumpi\n      0x00\n      dup1\n      revert\n    tag_281:\n      swap1\n      0x00\n      mstore\n      keccak256(0x00, 0x20)\n      add\n      0x00\n      swap3\n      pop\n      swap3\n      pop\n      pop\n      pop\n      sload\n      dup2\n      jump\t// out\n        /* \"Bluelight-MP/UserDashboard.sol\":3210:3339  function getAllNftCatWise(NftCategory nftCat) external view returns(bytes32[] memory){\r... */\n    tag_135:\n        /* \"Bluelight-MP/UserDashboard.sol\":3278:3294  bytes32[] memory */\n      0x60\n        /* \"Bluelight-MP/UserDashboard.sol\":3313:3323  nftCatWise */\n      0x02\n        /* \"Bluelight-MP/UserDashboard.sol\":3313:3331  nftCatWise[nftCat] */\n      0x00\n        /* \"Bluelight-MP/UserDashboard.sol\":3324:3330  nftCat */\n      dup4\n        /* \"Bluelight-MP/UserDashboard.sol\":3313:3331  nftCatWise[nftCat] */\n      0x06\n      dup2\n      gt\n      iszero\n      tag_284\n      jumpi\n      mstore(0x00, 0x4e487b7100000000000000000000000000000000000000000000000000000000)\n      mstore(0x04, 0x21)\n      revert(0x00, 0x24)\n    tag_284:\n      0x06\n      dup2\n      gt\n      iszero\n      tag_285\n      jumpi\n      mstore(0x00, 0x4e487b7100000000000000000000000000000000000000000000000000000000)\n      mstore(0x04, 0x21)\n      revert(0x00, 0x24)\n    tag_285:\n      dup2\n      mstore\n      0x20\n      add\n      swap1\n      dup2\n      mstore\n      0x20\n      add\n      0x00\n      keccak256\n        /* \"Bluelight-MP/UserDashboard.sol\":3306:3331  return nftCatWise[nftCat] */\n      dup1\n      sload\n      dup1\n      0x20\n      mul\n      0x20\n      add\n      mload(0x40)\n      swap1\n      dup2\n      add\n      0x40\n      mstore\n      dup1\n      swap3\n      swap2\n      swap1\n      dup2\n      dup2\n      mstore\n      0x20\n      add\n      dup3\n      dup1\n      sload\n      dup1\n      iszero\n      tag_286\n      jumpi\n      0x20\n      mul\n      dup3\n      add\n      swap2\n      swap1\n      0x00\n      mstore\n      keccak256(0x00, 0x20)\n      swap1\n    tag_287:\n      dup2\n      sload\n      dup2\n      mstore\n      0x20\n      add\n      swap1\n      0x01\n      add\n      swap1\n      dup1\n      dup4\n      gt\n      tag_287\n      jumpi\n    tag_286:\n      pop\n      pop\n      pop\n      pop\n      pop\n      swap1\n      pop\n        /* \"Bluelight-MP/UserDashboard.sol\":3210:3339  function getAllNftCatWise(NftCategory nftCat) external view returns(bytes32[] memory){\r... */\n      swap2\n      swap1\n      pop\n      jump\t// out\n        /* \"Bluelight-MP/UserDashboard.sol\":4800:4920  function getProfilePic() external view returns(string memory ipfs){\r... */\n    tag_138:\n        /* \"Bluelight-MP/UserDashboard.sol\":4847:4865  string memory ipfs */\n      0x60\n        /* \"Bluelight-MP/UserDashboard.sol\":4884:4889  users */\n      0x04\n        /* \"Bluelight-MP/UserDashboard.sol\":4884:4901  users[msg.sender] */\n      0x00\n        /* \"Bluelight-MP/UserDashboard.sol\":4890:4900  msg.sender */\n      caller\n        /* \"Bluelight-MP/UserDashboard.sol\":4884:4901  users[msg.sender] */\n      0xffffffffffffffffffffffffffffffffffffffff\n      and\n      0xffffffffffffffffffffffffffffffffffffffff\n      and\n      dup2\n      mstore\n      0x20\n      add\n      swap1\n      dup2\n      mstore\n      0x20\n      add\n      0x00\n      keccak256\n        /* \"Bluelight-MP/UserDashboard.sol\":4884:4912  users[msg.sender].profilePic */\n      0x04\n      add\n        /* \"Bluelight-MP/UserDashboard.sol\":4877:4912  return users[msg.sender].profilePic */\n      dup1\n      sload\n      tag_289\n      swap1\n      tag_153\n      jump\t// in\n    tag_289:\n      dup1\n      0x1f\n      add\n      0x20\n      dup1\n      swap2\n      div\n      mul\n      0x20\n      add\n      mload(0x40)\n      swap1\n      dup2\n      add\n      0x40\n      mstore\n      dup1\n      swap3\n      swap2\n      swap1\n      dup2\n      dup2\n      mstore\n      0x20\n      add\n      dup3\n      dup1\n      sload\n      tag_290\n      swap1\n      tag_153\n      jump\t// in\n    tag_290:\n      dup1\n      iszero\n      tag_291\n      jumpi\n      dup1\n      0x1f\n      lt\n      tag_292\n      jumpi\n      0x0100\n      dup1\n      dup4\n      sload\n      div\n      mul\n      dup4\n      mstore\n      swap2\n      0x20\n      add\n      swap2\n      jump(tag_291)\n    tag_292:\n      dup3\n      add\n      swap2\n      swap1\n      0x00\n      mstore\n      keccak256(0x00, 0x20)\n      swap1\n    tag_293:\n      dup2\n      sload\n      dup2\n      mstore\n      swap1\n      0x01\n      add\n      swap1\n      0x20\n      add\n      dup1\n      dup4\n      gt\n      tag_293\n      jumpi\n      dup3\n      swap1\n      sub\n      0x1f\n      and\n      dup3\n      add\n      swap2\n    tag_291:\n      pop\n      pop\n      pop\n      pop\n      pop\n      swap1\n      pop\n        /* \"Bluelight-MP/UserDashboard.sol\":4800:4920  function getProfilePic() external view returns(string memory ipfs){\r... */\n      swap1\n      jump\t// out\n        /* \"Bluelight-MP/UserDashboard.sol\":5284:5420  function checkLogIn(address _userAddr) external virtual override view returns(bool){  \r... */\n    tag_142:\n        /* \"Bluelight-MP/UserDashboard.sol\":5362:5366  bool */\n      0x00\n        /* \"Bluelight-MP/UserDashboard.sol\":5387:5392  users */\n      0x04\n        /* \"Bluelight-MP/UserDashboard.sol\":5387:5403  users[_userAddr] */\n      0x00\n        /* \"Bluelight-MP/UserDashboard.sol\":5393:5402  _userAddr */\n      dup4\n        /* \"Bluelight-MP/UserDashboard.sol\":5387:5403  users[_userAddr] */\n      0xffffffffffffffffffffffffffffffffffffffff\n      and\n      0xffffffffffffffffffffffffffffffffffffffff\n      and\n      dup2\n      mstore\n      0x20\n      add\n      swap1\n      dup2\n      mstore\n      0x20\n      add\n      0x00\n      keccak256\n        /* \"Bluelight-MP/UserDashboard.sol\":5387:5412  users[_userAddr].loggedIn */\n      0x03\n      add\n      0x00\n      swap1\n      sload\n      swap1\n      0x0100\n      exp\n      swap1\n      div\n      0xff\n      and\n        /* \"Bluelight-MP/UserDashboard.sol\":5380:5412  return users[_userAddr].loggedIn */\n      swap1\n      pop\n        /* \"Bluelight-MP/UserDashboard.sol\":5284:5420  function checkLogIn(address _userAddr) external virtual override view returns(bool){  \r... */\n      swap2\n      swap1\n      pop\n      jump\t// out\n        /* \"Bluelight-MP/Helper.sol\":154:341  function getPrivateUniqueKey(address nftContractAddress, uint256 tokenId) internal pure returns (bytes32){\r... */\n    tag_189:\n        /* \"Bluelight-MP/Helper.sol\":251:258  bytes32 */\n      0x00\n        /* \"Bluelight-MP/Helper.sol\":304:322  nftContractAddress */\n      dup3\n        /* \"Bluelight-MP/Helper.sol\":324:331  tokenId */\n      dup3\n        /* \"Bluelight-MP/Helper.sol\":287:332  abi.encodePacked(nftContractAddress, tokenId) */\n      add(0x20, mload(0x40))\n      tag_296\n      swap3\n      swap2\n      swap1\n      tag_297\n      jump\t// in\n    tag_296:\n      mload(0x40)\n      0x20\n      dup2\n      dup4\n      sub\n      sub\n      dup2\n      mstore\n      swap1\n      0x40\n      mstore\n        /* \"Bluelight-MP/Helper.sol\":277:333  keccak256(abi.encodePacked(nftContractAddress, tokenId)) */\n      dup1\n      mload\n      swap1\n      0x20\n      add\n      keccak256\n        /* \"Bluelight-MP/Helper.sol\":270:333  return keccak256(abi.encodePacked(nftContractAddress, tokenId)) */\n      swap1\n      pop\n        /* \"Bluelight-MP/Helper.sol\":154:341  function getPrivateUniqueKey(address nftContractAddress, uint256 tokenId) internal pure returns (bytes32){\r... */\n      swap3\n      swap2\n      pop\n      pop\n      jump\t// out\n    tag_148:\n      dup3\n      dup1\n      sload\n      tag_298\n      swap1\n      tag_153\n      jump\t// in\n    tag_298:\n      swap1\n      0x00\n      mstore\n      keccak256(0x00, 0x20)\n      swap1\n      0x1f\n      add\n      0x20\n      swap1\n      div\n      dup2\n      add\n      swap3\n      dup3\n      tag_300\n      jumpi\n      0x00\n      dup6\n      sstore\n      jump(tag_299)\n    tag_300:\n      dup3\n      0x1f\n      lt\n      tag_301\n      jumpi\n      dup1\n      mload\n      not(0xff)\n      and\n      dup4\n      dup1\n      add\n      or\n      dup6\n      sstore\n      jump(tag_299)\n    tag_301:\n      dup3\n      dup1\n      add\n      0x01\n      add\n      dup6\n      sstore\n      dup3\n      iszero\n      tag_299\n      jumpi\n      swap2\n      dup3\n      add\n    tag_302:\n      dup3\n      dup2\n      gt\n      iszero\n      tag_303\n      jumpi\n      dup3\n      mload\n      dup3\n      sstore\n      swap2\n      0x20\n      add\n      swap2\n      swap1\n      0x01\n      add\n      swap1\n      jump(tag_302)\n    tag_303:\n    tag_299:\n      pop\n      swap1\n      pop\n      tag_304\n      swap2\n      swap1\n      tag_305\n      jump\t// in\n    tag_304:\n      pop\n      swap1\n      jump\t// out\n    tag_161:\n      pop\n      dup1\n      sload\n      tag_306\n      swap1\n      tag_153\n      jump\t// in\n    tag_306:\n      0x00\n      dup3\n      sstore\n      dup1\n      0x1f\n      lt\n      tag_308\n      jumpi\n      pop\n      jump(tag_307)\n    tag_308:\n      0x1f\n      add\n      0x20\n      swap1\n      div\n      swap1\n      0x00\n      mstore\n      keccak256(0x00, 0x20)\n      swap1\n      dup2\n      add\n      swap1\n      tag_309\n      swap2\n      swap1\n      tag_305\n      jump\t// in\n    tag_309:\n    tag_307:\n      pop\n      jump\t// out\n    tag_305:\n    tag_310:\n      dup1\n      dup3\n      gt\n      iszero\n      tag_311\n      jumpi\n      0x00\n      dup2\n      0x00\n      swap1\n      sstore\n      pop\n      0x01\n      add\n      jump(tag_310)\n    tag_311:\n      pop\n      swap1\n      jump\t// out\n        /* \"#utility.yul\":7:352   */\n    tag_313:\n        /* \"#utility.yul\":85:90   */\n      0x00\n        /* \"#utility.yul\":110:176   */\n      tag_315\n        /* \"#utility.yul\":126:175   */\n      tag_316\n        /* \"#utility.yul\":168:174   */\n      dup5\n        /* \"#utility.yul\":126:175   */\n      tag_317\n      jump\t// in\n    tag_316:\n        /* \"#utility.yul\":110:176   */\n      tag_318\n      jump\t// in\n    tag_315:\n        /* \"#utility.yul\":101:176   */\n      swap1\n      pop\n        /* \"#utility.yul\":199:205   */\n      dup3\n        /* \"#utility.yul\":192:197   */\n      dup2\n        /* \"#utility.yul\":185:206   */\n      mstore\n        /* \"#utility.yul\":237:241   */\n      0x20\n        /* \"#utility.yul\":230:235   */\n      dup2\n        /* \"#utility.yul\":226:242   */\n      add\n        /* \"#utility.yul\":275:278   */\n      dup5\n        /* \"#utility.yul\":266:272   */\n      dup5\n        /* \"#utility.yul\":261:264   */\n      dup5\n        /* \"#utility.yul\":257:273   */\n      add\n        /* \"#utility.yul\":254:279   */\n      gt\n        /* \"#utility.yul\":251:253   */\n      iszero\n      tag_319\n      jumpi\n        /* \"#utility.yul\":292:293   */\n      0x00\n        /* \"#utility.yul\":289:290   */\n      dup1\n        /* \"#utility.yul\":282:294   */\n      revert\n        /* \"#utility.yul\":251:253   */\n    tag_319:\n        /* \"#utility.yul\":305:346   */\n      tag_320\n        /* \"#utility.yul\":339:345   */\n      dup5\n        /* \"#utility.yul\":334:337   */\n      dup3\n        /* \"#utility.yul\":329:332   */\n      dup6\n        /* \"#utility.yul\":305:346   */\n      tag_321\n      jump\t// in\n    tag_320:\n        /* \"#utility.yul\":91:352   */\n      pop\n      swap4\n      swap3\n      pop\n      pop\n      pop\n      jump\t// out\n        /* \"#utility.yul\":358:497   */\n    tag_322:\n        /* \"#utility.yul\":404:409   */\n      0x00\n        /* \"#utility.yul\":442:448   */\n      dup2\n        /* \"#utility.yul\":429:449   */\n      calldataload\n        /* \"#utility.yul\":420:449   */\n      swap1\n      pop\n        /* \"#utility.yul\":458:491   */\n      tag_324\n        /* \"#utility.yul\":485:490   */\n      dup2\n        /* \"#utility.yul\":458:491   */\n      tag_325\n      jump\t// in\n    tag_324:\n        /* \"#utility.yul\":410:497   */\n      swap3\n      swap2\n      pop\n      pop\n      jump\t// out\n        /* \"#utility.yul\":503:642   */\n    tag_326:\n        /* \"#utility.yul\":549:554   */\n      0x00\n        /* \"#utility.yul\":587:593   */\n      dup2\n        /* \"#utility.yul\":574:594   */\n      calldataload\n        /* \"#utility.yul\":565:594   */\n      swap1\n      pop\n        /* \"#utility.yul\":603:636   */\n      tag_328\n        /* \"#utility.yul\":630:635   */\n      dup2\n        /* \"#utility.yul\":603:636   */\n      tag_329\n      jump\t// in\n    tag_328:\n        /* \"#utility.yul\":555:642   */\n      swap3\n      swap2\n      pop\n      pop\n      jump\t// out\n        /* \"#utility.yul\":648:817   */\n    tag_330:\n        /* \"#utility.yul\":709:714   */\n      0x00\n        /* \"#utility.yul\":747:753   */\n      dup2\n        /* \"#utility.yul\":734:754   */\n      calldataload\n        /* \"#utility.yul\":725:754   */\n      swap1\n      pop\n        /* \"#utility.yul\":763:811   */\n      tag_332\n        /* \"#utility.yul\":805:810   */\n      dup2\n        /* \"#utility.yul\":763:811   */\n      tag_333\n      jump\t// in\n    tag_332:\n        /* \"#utility.yul\":715:817   */\n      swap3\n      swap2\n      pop\n      pop\n      jump\t// out\n        /* \"#utility.yul\":837:1110   */\n    tag_334:\n        /* \"#utility.yul\":893:898   */\n      0x00\n        /* \"#utility.yul\":942:945   */\n      dup3\n        /* \"#utility.yul\":935:939   */\n      0x1f\n        /* \"#utility.yul\":927:933   */\n      dup4\n        /* \"#utility.yul\":923:940   */\n      add\n        /* \"#utility.yul\":919:946   */\n      slt\n        /* \"#utility.yul\":909:911   */\n      tag_336\n      jumpi\n        /* \"#utility.yul\":960:961   */\n      0x00\n        /* \"#utility.yul\":957:958   */\n      dup1\n        /* \"#utility.yul\":950:962   */\n      revert\n        /* \"#utility.yul\":909:911   */\n    tag_336:\n        /* \"#utility.yul\":1000:1006   */\n      dup2\n        /* \"#utility.yul\":987:1007   */\n      calldataload\n        /* \"#utility.yul\":1025:1104   */\n      tag_337\n        /* \"#utility.yul\":1100:1103   */\n      dup5\n        /* \"#utility.yul\":1092:1098   */\n      dup3\n        /* \"#utility.yul\":1085:1089   */\n      0x20\n        /* \"#utility.yul\":1077:1083   */\n      dup7\n        /* \"#utility.yul\":1073:1090   */\n      add\n        /* \"#utility.yul\":1025:1104   */\n      tag_313\n      jump\t// in\n    tag_337:\n        /* \"#utility.yul\":1016:1104   */\n      swap2\n      pop\n        /* \"#utility.yul\":899:1110   */\n      pop\n      swap3\n      swap2\n      pop\n      pop\n      jump\t// out\n        /* \"#utility.yul\":1116:1255   */\n    tag_338:\n        /* \"#utility.yul\":1162:1167   */\n      0x00\n        /* \"#utility.yul\":1200:1206   */\n      dup2\n        /* \"#utility.yul\":1187:1207   */\n      calldataload\n        /* \"#utility.yul\":1178:1207   */\n      swap1\n      pop\n        /* \"#utility.yul\":1216:1249   */\n      tag_340\n        /* \"#utility.yul\":1243:1248   */\n      dup2\n        /* \"#utility.yul\":1216:1249   */\n      tag_341\n      jump\t// in\n    tag_340:\n        /* \"#utility.yul\":1168:1255   */\n      swap3\n      swap2\n      pop\n      pop\n      jump\t// out\n        /* \"#utility.yul\":1261:1523   */\n    tag_81:\n        /* \"#utility.yul\":1320:1326   */\n      0x00\n        /* \"#utility.yul\":1369:1371   */\n      0x20\n        /* \"#utility.yul\":1357:1366   */\n      dup3\n        /* \"#utility.yul\":1348:1355   */\n      dup5\n        /* \"#utility.yul\":1344:1367   */\n      sub\n        /* \"#utility.yul\":1340:1372   */\n      slt\n        /* \"#utility.yul\":1337:1339   */\n      iszero\n      tag_343\n      jumpi\n        /* \"#utility.yul\":1385:1386   */\n      0x00\n        /* \"#utility.yul\":1382:1383   */\n      dup1\n        /* \"#utility.yul\":1375:1387   */\n      revert\n        /* \"#utility.yul\":1337:1339   */\n    tag_343:\n        /* \"#utility.yul\":1428:1429   */\n      0x00\n        /* \"#utility.yul\":1453:1506   */\n      tag_344\n        /* \"#utility.yul\":1498:1505   */\n      dup5\n        /* \"#utility.yul\":1489:1495   */\n      dup3\n        /* \"#utility.yul\":1478:1487   */\n      dup6\n        /* \"#utility.yul\":1474:1496   */\n      add\n        /* \"#utility.yul\":1453:1506   */\n      tag_322\n      jump\t// in\n    tag_344:\n        /* \"#utility.yul\":1443:1506   */\n      swap2\n      pop\n        /* \"#utility.yul\":1399:1516   */\n      pop\n        /* \"#utility.yul\":1327:1523   */\n      swap3\n      swap2\n      pop\n      pop\n      jump\t// out\n        /* \"#utility.yul\":1529:1936   */\n    tag_64:\n        /* \"#utility.yul\":1597:1603   */\n      0x00\n        /* \"#utility.yul\":1605:1611   */\n      dup1\n        /* \"#utility.yul\":1654:1656   */\n      0x40\n        /* \"#utility.yul\":1642:1651   */\n      dup4\n        /* \"#utility.yul\":1633:1640   */\n      dup6\n        /* \"#utility.yul\":1629:1652   */\n      sub\n        /* \"#utility.yul\":1625:1657   */\n      slt\n        /* \"#utility.yul\":1622:1624   */\n      iszero\n      tag_346\n      jumpi\n        /* \"#utility.yul\":1670:1671   */\n      0x00\n        /* \"#utility.yul\":1667:1668   */\n      dup1\n        /* \"#utility.yul\":1660:1672   */\n      revert\n        /* \"#utility.yul\":1622:1624   */\n    tag_346:\n        /* \"#utility.yul\":1713:1714   */\n      0x00\n        /* \"#utility.yul\":1738:1791   */\n      tag_347\n        /* \"#utility.yul\":1783:1790   */\n      dup6\n        /* \"#utility.yul\":1774:1780   */\n      dup3\n        /* \"#utility.yul\":1763:1772   */\n      dup7\n        /* \"#utility.yul\":1759:1781   */\n      add\n        /* \"#utility.yul\":1738:1791   */\n      tag_322\n      jump\t// in\n    tag_347:\n        /* \"#utility.yul\":1728:1791   */\n      swap3\n      pop\n        /* \"#utility.yul\":1684:1801   */\n      pop\n        /* \"#utility.yul\":1840:1842   */\n      0x20\n        /* \"#utility.yul\":1866:1919   */\n      tag_348\n        /* \"#utility.yul\":1911:1918   */\n      dup6\n        /* \"#utility.yul\":1902:1908   */\n      dup3\n        /* \"#utility.yul\":1891:1900   */\n      dup7\n        /* \"#utility.yul\":1887:1909   */\n      add\n        /* \"#utility.yul\":1866:1919   */\n      tag_326\n      jump\t// in\n    tag_348:\n        /* \"#utility.yul\":1856:1919   */\n      swap2\n      pop\n        /* \"#utility.yul\":1811:1929   */\n      pop\n        /* \"#utility.yul\":1612:1936   */\n      swap3\n      pop\n      swap3\n      swap1\n      pop\n      jump\t// out\n        /* \"#utility.yul\":1942:2524   */\n    tag_130:\n        /* \"#utility.yul\":2034:2040   */\n      0x00\n        /* \"#utility.yul\":2042:2048   */\n      dup1\n        /* \"#utility.yul\":2050:2056   */\n      0x00\n        /* \"#utility.yul\":2099:2101   */\n      0x60\n        /* \"#utility.yul\":2087:2096   */\n      dup5\n        /* \"#utility.yul\":2078:2085   */\n      dup7\n        /* \"#utility.yul\":2074:2097   */\n      sub\n        /* \"#utility.yul\":2070:2102   */\n      slt\n        /* \"#utility.yul\":2067:2069   */\n      iszero\n      tag_350\n      jumpi\n        /* \"#utility.yul\":2115:2116   */\n      0x00\n        /* \"#utility.yul\":2112:2113   */\n      dup1\n        /* \"#utility.yul\":2105:2117   */\n      revert\n        /* \"#utility.yul\":2067:2069   */\n    tag_350:\n        /* \"#utility.yul\":2158:2159   */\n      0x00\n        /* \"#utility.yul\":2183:2236   */\n      tag_351\n        /* \"#utility.yul\":2228:2235   */\n      dup7\n        /* \"#utility.yul\":2219:2225   */\n      dup3\n        /* \"#utility.yul\":2208:2217   */\n      dup8\n        /* \"#utility.yul\":2204:2226   */\n      add\n        /* \"#utility.yul\":2183:2236   */\n      tag_322\n      jump\t// in\n    tag_351:\n        /* \"#utility.yul\":2173:2236   */\n      swap4\n      pop\n        /* \"#utility.yul\":2129:2246   */\n      pop\n        /* \"#utility.yul\":2285:2287   */\n      0x20\n        /* \"#utility.yul\":2311:2379   */\n      tag_352\n        /* \"#utility.yul\":2371:2378   */\n      dup7\n        /* \"#utility.yul\":2362:2368   */\n      dup3\n        /* \"#utility.yul\":2351:2360   */\n      dup8\n        /* \"#utility.yul\":2347:2369   */\n      add\n        /* \"#utility.yul\":2311:2379   */\n      tag_330\n      jump\t// in\n    tag_352:\n        /* \"#utility.yul\":2301:2379   */\n      swap3\n      pop\n        /* \"#utility.yul\":2256:2389   */\n      pop\n        /* \"#utility.yul\":2428:2430   */\n      0x40\n        /* \"#utility.yul\":2454:2507   */\n      tag_353\n        /* \"#utility.yul\":2499:2506   */\n      dup7\n        /* \"#utility.yul\":2490:2496   */\n      dup3\n        /* \"#utility.yul\":2479:2488   */\n      dup8\n        /* \"#utility.yul\":2475:2497   */\n      add\n        /* \"#utility.yul\":2454:2507   */\n      tag_338\n      jump\t// in\n    tag_353:\n        /* \"#utility.yul\":2444:2507   */\n      swap2\n      pop\n        /* \"#utility.yul\":2399:2517   */\n      pop\n        /* \"#utility.yul\":2057:2524   */\n      swap3\n      pop\n      swap3\n      pop\n      swap3\n      jump\t// out\n        /* \"#utility.yul\":2530:2937   */\n    tag_53:\n        /* \"#utility.yul\":2598:2604   */\n      0x00\n        /* \"#utility.yul\":2606:2612   */\n      dup1\n        /* \"#utility.yul\":2655:2657   */\n      0x40\n        /* \"#utility.yul\":2643:2652   */\n      dup4\n        /* \"#utility.yul\":2634:2641   */\n      dup6\n        /* \"#utility.yul\":2630:2653   */\n      sub\n        /* \"#utility.yul\":2626:2658   */\n      slt\n        /* \"#utility.yul\":2623:2625   */\n      iszero\n      tag_355\n      jumpi\n        /* \"#utility.yul\":2671:2672   */\n      0x00\n        /* \"#utility.yul\":2668:2669   */\n      dup1\n        /* \"#utility.yul\":2661:2673   */\n      revert\n        /* \"#utility.yul\":2623:2625   */\n    tag_355:\n        /* \"#utility.yul\":2714:2715   */\n      0x00\n        /* \"#utility.yul\":2739:2792   */\n      tag_356\n        /* \"#utility.yul\":2784:2791   */\n      dup6\n        /* \"#utility.yul\":2775:2781   */\n      dup3\n        /* \"#utility.yul\":2764:2773   */\n      dup7\n        /* \"#utility.yul\":2760:2782   */\n      add\n        /* \"#utility.yul\":2739:2792   */\n      tag_322\n      jump\t// in\n    tag_356:\n        /* \"#utility.yul\":2729:2792   */\n      swap3\n      pop\n        /* \"#utility.yul\":2685:2802   */\n      pop\n        /* \"#utility.yul\":2841:2843   */\n      0x20\n        /* \"#utility.yul\":2867:2920   */\n      tag_357\n        /* \"#utility.yul\":2912:2919   */\n      dup6\n        /* \"#utility.yul\":2903:2909   */\n      dup3\n        /* \"#utility.yul\":2892:2901   */\n      dup7\n        /* \"#utility.yul\":2888:2910   */\n      add\n        /* \"#utility.yul\":2867:2920   */\n      tag_338\n      jump\t// in\n    tag_357:\n        /* \"#utility.yul\":2857:2920   */\n      swap2\n      pop\n        /* \"#utility.yul\":2812:2930   */\n      pop\n        /* \"#utility.yul\":2613:2937   */\n      swap3\n      pop\n      swap3\n      swap1\n      pop\n      jump\t// out\n        /* \"#utility.yul\":2943:3525   */\n    tag_68:\n        /* \"#utility.yul\":3035:3041   */\n      0x00\n        /* \"#utility.yul\":3043:3049   */\n      dup1\n        /* \"#utility.yul\":3051:3057   */\n      0x00\n        /* \"#utility.yul\":3100:3102   */\n      0x60\n        /* \"#utility.yul\":3088:3097   */\n      dup5\n        /* \"#utility.yul\":3079:3086   */\n      dup7\n        /* \"#utility.yul\":3075:3098   */\n      sub\n        /* \"#utility.yul\":3071:3103   */\n      slt\n        /* \"#utility.yul\":3068:3070   */\n      iszero\n      tag_359\n      jumpi\n        /* \"#utility.yul\":3116:3117   */\n      0x00\n        /* \"#utility.yul\":3113:3114   */\n      dup1\n        /* \"#utility.yul\":3106:3118   */\n      revert\n        /* \"#utility.yul\":3068:3070   */\n    tag_359:\n        /* \"#utility.yul\":3159:3160   */\n      0x00\n        /* \"#utility.yul\":3184:3237   */\n      tag_360\n        /* \"#utility.yul\":3229:3236   */\n      dup7\n        /* \"#utility.yul\":3220:3226   */\n      dup3\n        /* \"#utility.yul\":3209:3218   */\n      dup8\n        /* \"#utility.yul\":3205:3227   */\n      add\n        /* \"#utility.yul\":3184:3237   */\n      tag_322\n      jump\t// in\n    tag_360:\n        /* \"#utility.yul\":3174:3237   */\n      swap4\n      pop\n        /* \"#utility.yul\":3130:3247   */\n      pop\n        /* \"#utility.yul\":3286:3288   */\n      0x20\n        /* \"#utility.yul\":3312:3365   */\n      tag_361\n        /* \"#utility.yul\":3357:3364   */\n      dup7\n        /* \"#utility.yul\":3348:3354   */\n      dup3\n        /* \"#utility.yul\":3337:3346   */\n      dup8\n        /* \"#utility.yul\":3333:3355   */\n      add\n        /* \"#utility.yul\":3312:3365   */\n      tag_338\n      jump\t// in\n    tag_361:\n        /* \"#utility.yul\":3302:3365   */\n      swap3\n      pop\n        /* \"#utility.yul\":3257:3375   */\n      pop\n        /* \"#utility.yul\":3414:3416   */\n      0x40\n        /* \"#utility.yul\":3440:3508   */\n      tag_362\n        /* \"#utility.yul\":3500:3507   */\n      dup7\n        /* \"#utility.yul\":3491:3497   */\n      dup3\n        /* \"#utility.yul\":3480:3489   */\n      dup8\n        /* \"#utility.yul\":3476:3498   */\n      add\n        /* \"#utility.yul\":3440:3508   */\n      tag_330\n      jump\t// in\n    tag_362:\n        /* \"#utility.yul\":3430:3508   */\n      swap2\n      pop\n        /* \"#utility.yul\":3385:3518   */\n      pop\n        /* \"#utility.yul\":3058:3525   */\n      swap3\n      pop\n      swap3\n      pop\n      swap3\n      jump\t// out\n        /* \"#utility.yul\":3531:4375   */\n    tag_101:\n        /* \"#utility.yul\":3626:3632   */\n      0x00\n        /* \"#utility.yul\":3634:3640   */\n      dup1\n        /* \"#utility.yul\":3642:3648   */\n      0x00\n        /* \"#utility.yul\":3650:3656   */\n      dup1\n        /* \"#utility.yul\":3658:3664   */\n      0x00\n        /* \"#utility.yul\":3707:3710   */\n      0xa0\n        /* \"#utility.yul\":3695:3704   */\n      dup7\n        /* \"#utility.yul\":3686:3693   */\n      dup9\n        /* \"#utility.yul\":3682:3705   */\n      sub\n        /* \"#utility.yul\":3678:3711   */\n      slt\n        /* \"#utility.yul\":3675:3677   */\n      iszero\n      tag_364\n      jumpi\n        /* \"#utility.yul\":3724:3725   */\n      0x00\n        /* \"#utility.yul\":3721:3722   */\n      dup1\n        /* \"#utility.yul\":3714:3726   */\n      revert\n        /* \"#utility.yul\":3675:3677   */\n    tag_364:\n        /* \"#utility.yul\":3767:3768   */\n      0x00\n        /* \"#utility.yul\":3792:3845   */\n      tag_365\n        /* \"#utility.yul\":3837:3844   */\n      dup9\n        /* \"#utility.yul\":3828:3834   */\n      dup3\n        /* \"#utility.yul\":3817:3826   */\n      dup10\n        /* \"#utility.yul\":3813:3835   */\n      add\n        /* \"#utility.yul\":3792:3845   */\n      tag_322\n      jump\t// in\n    tag_365:\n        /* \"#utility.yul\":3782:3845   */\n      swap6\n      pop\n        /* \"#utility.yul\":3738:3855   */\n      pop\n        /* \"#utility.yul\":3894:3896   */\n      0x20\n        /* \"#utility.yul\":3920:3973   */\n      tag_366\n        /* \"#utility.yul\":3965:3972   */\n      dup9\n        /* \"#utility.yul\":3956:3962   */\n      dup3\n        /* \"#utility.yul\":3945:3954   */\n      dup10\n        /* \"#utility.yul\":3941:3963   */\n      add\n        /* \"#utility.yul\":3920:3973   */\n      tag_338\n      jump\t// in\n    tag_366:\n        /* \"#utility.yul\":3910:3973   */\n      swap5\n      pop\n        /* \"#utility.yul\":3865:3983   */\n      pop\n        /* \"#utility.yul\":4022:4024   */\n      0x40\n        /* \"#utility.yul\":4048:4101   */\n      tag_367\n        /* \"#utility.yul\":4093:4100   */\n      dup9\n        /* \"#utility.yul\":4084:4090   */\n      dup3\n        /* \"#utility.yul\":4073:4082   */\n      dup10\n        /* \"#utility.yul\":4069:4091   */\n      add\n        /* \"#utility.yul\":4048:4101   */\n      tag_338\n      jump\t// in\n    tag_367:\n        /* \"#utility.yul\":4038:4101   */\n      swap4\n      pop\n        /* \"#utility.yul\":3993:4111   */\n      pop\n        /* \"#utility.yul\":4150:4152   */\n      0x60\n        /* \"#utility.yul\":4176:4229   */\n      tag_368\n        /* \"#utility.yul\":4221:4228   */\n      dup9\n        /* \"#utility.yul\":4212:4218   */\n      dup3\n        /* \"#utility.yul\":4201:4210   */\n      dup10\n        /* \"#utility.yul\":4197:4219   */\n      add\n        /* \"#utility.yul\":4176:4229   */\n      tag_338\n      jump\t// in\n    tag_368:\n        /* \"#utility.yul\":4166:4229   */\n      swap3\n      pop\n        /* \"#utility.yul\":4121:4239   */\n      pop\n        /* \"#utility.yul\":4278:4281   */\n      0x80\n        /* \"#utility.yul\":4305:4358   */\n      tag_369\n        /* \"#utility.yul\":4350:4357   */\n      dup9\n        /* \"#utility.yul\":4341:4347   */\n      dup3\n        /* \"#utility.yul\":4330:4339   */\n      dup10\n        /* \"#utility.yul\":4326:4348   */\n      add\n        /* \"#utility.yul\":4305:4358   */\n      tag_338\n      jump\t// in\n    tag_369:\n        /* \"#utility.yul\":4295:4358   */\n      swap2\n      pop\n        /* \"#utility.yul\":4249:4368   */\n      pop\n        /* \"#utility.yul\":3665:4375   */\n      swap3\n      swap6\n      pop\n      swap3\n      swap6\n      swap1\n      swap4\n      pop\n      jump\t// out\n        /* \"#utility.yul\":4381:4643   */\n    tag_44:\n        /* \"#utility.yul\":4440:4446   */\n      0x00\n        /* \"#utility.yul\":4489:4491   */\n      0x20\n        /* \"#utility.yul\":4477:4486   */\n      dup3\n        /* \"#utility.yul\":4468:4475   */\n      dup5\n        /* \"#utility.yul\":4464:4487   */\n      sub\n        /* \"#utility.yul\":4460:4492   */\n      slt\n        /* \"#utility.yul\":4457:4459   */\n      iszero\n      tag_371\n      jumpi\n        /* \"#utility.yul\":4505:4506   */\n      0x00\n        /* \"#utility.yul\":4502:4503   */\n      dup1\n        /* \"#utility.yul\":4495:4507   */\n      revert\n        /* \"#utility.yul\":4457:4459   */\n    tag_371:\n        /* \"#utility.yul\":4548:4549   */\n      0x00\n        /* \"#utility.yul\":4573:4626   */\n      tag_372\n        /* \"#utility.yul\":4618:4625   */\n      dup5\n        /* \"#utility.yul\":4609:4615   */\n      dup3\n        /* \"#utility.yul\":4598:4607   */\n      dup6\n        /* \"#utility.yul\":4594:4616   */\n      add\n        /* \"#utility.yul\":4573:4626   */\n      tag_326\n      jump\t// in\n    tag_372:\n        /* \"#utility.yul\":4563:4626   */\n      swap2\n      pop\n        /* \"#utility.yul\":4519:4636   */\n      pop\n        /* \"#utility.yul\":4447:4643   */\n      swap3\n      swap2\n      pop\n      pop\n      jump\t// out\n        /* \"#utility.yul\":4649:4941   */\n    tag_125:\n        /* \"#utility.yul\":4723:4729   */\n      0x00\n        /* \"#utility.yul\":4772:4774   */\n      0x20\n        /* \"#utility.yul\":4760:4769   */\n      dup3\n        /* \"#utility.yul\":4751:4758   */\n      dup5\n        /* \"#utility.yul\":4747:4770   */\n      sub\n        /* \"#utility.yul\":4743:4775   */\n      slt\n        /* \"#utility.yul\":4740:4742   */\n      iszero\n      tag_374\n      jumpi\n        /* \"#utility.yul\":4788:4789   */\n      0x00\n        /* \"#utility.yul\":4785:4786   */\n      dup1\n        /* \"#utility.yul\":4778:4790   */\n      revert\n        /* \"#utility.yul\":4740:4742   */\n    tag_374:\n        /* \"#utility.yul\":4831:4832   */\n      0x00\n        /* \"#utility.yul\":4856:4924   */\n      tag_375\n        /* \"#utility.yul\":4916:4923   */\n      dup5\n        /* \"#utility.yul\":4907:4913   */\n      dup3\n        /* \"#utility.yul\":4896:4905   */\n      dup6\n        /* \"#utility.yul\":4892:4914   */\n      add\n        /* \"#utility.yul\":4856:4924   */\n      tag_330\n      jump\t// in\n    tag_375:\n        /* \"#utility.yul\":4846:4924   */\n      swap2\n      pop\n        /* \"#utility.yul\":4802:4934   */\n      pop\n        /* \"#utility.yul\":4730:4941   */\n      swap3\n      swap2\n      pop\n      pop\n      jump\t// out\n        /* \"#utility.yul\":4947:5384   */\n    tag_112:\n        /* \"#utility.yul\":5030:5036   */\n      0x00\n        /* \"#utility.yul\":5038:5044   */\n      dup1\n        /* \"#utility.yul\":5087:5089   */\n      0x40\n        /* \"#utility.yul\":5075:5084   */\n      dup4\n        /* \"#utility.yul\":5066:5073   */\n      dup6\n        /* \"#utility.yul\":5062:5085   */\n      sub\n        /* \"#utility.yul\":5058:5090   */\n      slt\n        /* \"#utility.yul\":5055:5057   */\n      iszero\n      tag_377\n      jumpi\n        /* \"#utility.yul\":5103:5104   */\n      0x00\n        /* \"#utility.yul\":5100:5101   */\n      dup1\n        /* \"#utility.yul\":5093:5105   */\n      revert\n        /* \"#utility.yul\":5055:5057   */\n    tag_377:\n        /* \"#utility.yul\":5146:5147   */\n      0x00\n        /* \"#utility.yul\":5171:5239   */\n      tag_378\n        /* \"#utility.yul\":5231:5238   */\n      dup6\n        /* \"#utility.yul\":5222:5228   */\n      dup3\n        /* \"#utility.yul\":5211:5220   */\n      dup7\n        /* \"#utility.yul\":5207:5229   */\n      add\n        /* \"#utility.yul\":5171:5239   */\n      tag_330\n      jump\t// in\n    tag_378:\n        /* \"#utility.yul\":5161:5239   */\n      swap3\n      pop\n        /* \"#utility.yul\":5117:5249   */\n      pop\n        /* \"#utility.yul\":5288:5290   */\n      0x20\n        /* \"#utility.yul\":5314:5367   */\n      tag_379\n        /* \"#utility.yul\":5359:5366   */\n      dup6\n        /* \"#utility.yul\":5350:5356   */\n      dup3\n        /* \"#utility.yul\":5339:5348   */\n      dup7\n        /* \"#utility.yul\":5335:5357   */\n      add\n        /* \"#utility.yul\":5314:5367   */\n      tag_338\n      jump\t// in\n    tag_379:\n        /* \"#utility.yul\":5304:5367   */\n      swap2\n      pop\n        /* \"#utility.yul\":5259:5377   */\n      pop\n        /* \"#utility.yul\":5045:5384   */\n      swap3\n      pop\n      swap3\n      swap1\n      pop\n      jump\t// out\n        /* \"#utility.yul\":5390:5765   */\n    tag_36:\n        /* \"#utility.yul\":5459:5465   */\n      0x00\n        /* \"#utility.yul\":5508:5510   */\n      0x20\n        /* \"#utility.yul\":5496:5505   */\n      dup3\n        /* \"#utility.yul\":5487:5494   */\n      dup5\n        /* \"#utility.yul\":5483:5506   */\n      sub\n        /* \"#utility.yul\":5479:5511   */\n      slt\n        /* \"#utility.yul\":5476:5478   */\n      iszero\n      tag_381\n      jumpi\n        /* \"#utility.yul\":5524:5525   */\n      0x00\n        /* \"#utility.yul\":5521:5522   */\n      dup1\n        /* \"#utility.yul\":5514:5526   */\n      revert\n        /* \"#utility.yul\":5476:5478   */\n    tag_381:\n        /* \"#utility.yul\":5595:5596   */\n      0x00\n        /* \"#utility.yul\":5584:5593   */\n      dup3\n        /* \"#utility.yul\":5580:5597   */\n      add\n        /* \"#utility.yul\":5567:5598   */\n      calldataload\n        /* \"#utility.yul\":5625:5643   */\n      0xffffffffffffffff\n        /* \"#utility.yul\":5617:5623   */\n      dup2\n        /* \"#utility.yul\":5614:5644   */\n      gt\n        /* \"#utility.yul\":5611:5613   */\n      iszero\n      tag_382\n      jumpi\n        /* \"#utility.yul\":5657:5658   */\n      0x00\n        /* \"#utility.yul\":5654:5655   */\n      dup1\n        /* \"#utility.yul\":5647:5659   */\n      revert\n        /* \"#utility.yul\":5611:5613   */\n    tag_382:\n        /* \"#utility.yul\":5685:5748   */\n      tag_383\n        /* \"#utility.yul\":5740:5747   */\n      dup5\n        /* \"#utility.yul\":5731:5737   */\n      dup3\n        /* \"#utility.yul\":5720:5729   */\n      dup6\n        /* \"#utility.yul\":5716:5738   */\n      add\n        /* \"#utility.yul\":5685:5748   */\n      tag_334\n      jump\t// in\n    tag_383:\n        /* \"#utility.yul\":5675:5748   */\n      swap2\n      pop\n        /* \"#utility.yul\":5538:5758   */\n      pop\n        /* \"#utility.yul\":5466:5765   */\n      swap3\n      swap2\n      pop\n      pop\n      jump\t// out\n        /* \"#utility.yul\":5771:6695   */\n    tag_92:\n        /* \"#utility.yul\":5877:5883   */\n      0x00\n        /* \"#utility.yul\":5885:5891   */\n      dup1\n        /* \"#utility.yul\":5893:5899   */\n      0x00\n        /* \"#utility.yul\":5901:5907   */\n      dup1\n        /* \"#utility.yul\":5950:5953   */\n      0x80\n        /* \"#utility.yul\":5938:5947   */\n      dup6\n        /* \"#utility.yul\":5929:5936   */\n      dup8\n        /* \"#utility.yul\":5925:5948   */\n      sub\n        /* \"#utility.yul\":5921:5954   */\n      slt\n        /* \"#utility.yul\":5918:5920   */\n      iszero\n      tag_385\n      jumpi\n        /* \"#utility.yul\":5967:5968   */\n      0x00\n        /* \"#utility.yul\":5964:5965   */\n      dup1\n        /* \"#utility.yul\":5957:5969   */\n      revert\n        /* \"#utility.yul\":5918:5920   */\n    tag_385:\n        /* \"#utility.yul\":6038:6039   */\n      0x00\n        /* \"#utility.yul\":6027:6036   */\n      dup6\n        /* \"#utility.yul\":6023:6040   */\n      add\n        /* \"#utility.yul\":6010:6041   */\n      calldataload\n        /* \"#utility.yul\":6068:6086   */\n      0xffffffffffffffff\n        /* \"#utility.yul\":6060:6066   */\n      dup2\n        /* \"#utility.yul\":6057:6087   */\n      gt\n        /* \"#utility.yul\":6054:6056   */\n      iszero\n      tag_386\n      jumpi\n        /* \"#utility.yul\":6100:6101   */\n      0x00\n        /* \"#utility.yul\":6097:6098   */\n      dup1\n        /* \"#utility.yul\":6090:6102   */\n      revert\n        /* \"#utility.yul\":6054:6056   */\n    tag_386:\n        /* \"#utility.yul\":6128:6191   */\n      tag_387\n        /* \"#utility.yul\":6183:6190   */\n      dup8\n        /* \"#utility.yul\":6174:6180   */\n      dup3\n        /* \"#utility.yul\":6163:6172   */\n      dup9\n        /* \"#utility.yul\":6159:6181   */\n      add\n        /* \"#utility.yul\":6128:6191   */\n      tag_334\n      jump\t// in\n    tag_387:\n        /* \"#utility.yul\":6118:6191   */\n      swap5\n      pop\n        /* \"#utility.yul\":5981:6201   */\n      pop\n        /* \"#utility.yul\":6240:6242   */\n      0x20\n        /* \"#utility.yul\":6266:6319   */\n      tag_388\n        /* \"#utility.yul\":6311:6318   */\n      dup8\n        /* \"#utility.yul\":6302:6308   */\n      dup3\n        /* \"#utility.yul\":6291:6300   */\n      dup9\n        /* \"#utility.yul\":6287:6309   */\n      add\n        /* \"#utility.yul\":6266:6319   */\n      tag_322\n      jump\t// in\n    tag_388:\n        /* \"#utility.yul\":6256:6319   */\n      swap4\n      pop\n        /* \"#utility.yul\":6211:6329   */\n      pop\n        /* \"#utility.yul\":6368:6370   */\n      0x40\n        /* \"#utility.yul\":6394:6447   */\n      tag_389\n        /* \"#utility.yul\":6439:6446   */\n      dup8\n        /* \"#utility.yul\":6430:6436   */\n      dup3\n        /* \"#utility.yul\":6419:6428   */\n      dup9\n        /* \"#utility.yul\":6415:6437   */\n      add\n        /* \"#utility.yul\":6394:6447   */\n      tag_338\n      jump\t// in\n    tag_389:\n        /* \"#utility.yul\":6384:6447   */\n      swap3\n      pop\n        /* \"#utility.yul\":6339:6457   */\n      pop\n        /* \"#utility.yul\":6524:6526   */\n      0x60\n        /* \"#utility.yul\":6513:6522   */\n      dup6\n        /* \"#utility.yul\":6509:6527   */\n      add\n        /* \"#utility.yul\":6496:6528   */\n      calldataload\n        /* \"#utility.yul\":6555:6573   */\n      0xffffffffffffffff\n        /* \"#utility.yul\":6547:6553   */\n      dup2\n        /* \"#utility.yul\":6544:6574   */\n      gt\n        /* \"#utility.yul\":6541:6543   */\n      iszero\n      tag_390\n      jumpi\n        /* \"#utility.yul\":6587:6588   */\n      0x00\n        /* \"#utility.yul\":6584:6585   */\n      dup1\n        /* \"#utility.yul\":6577:6589   */\n      revert\n        /* \"#utility.yul\":6541:6543   */\n    tag_390:\n        /* \"#utility.yul\":6615:6678   */\n      tag_391\n        /* \"#utility.yul\":6670:6677   */\n      dup8\n        /* \"#utility.yul\":6661:6667   */\n      dup3\n        /* \"#utility.yul\":6650:6659   */\n      dup9\n        /* \"#utility.yul\":6646:6668   */\n      add\n        /* \"#utility.yul\":6615:6678   */\n      tag_334\n      jump\t// in\n    tag_391:\n        /* \"#utility.yul\":6605:6678   */\n      swap2\n      pop\n        /* \"#utility.yul\":6467:6688   */\n      pop\n        /* \"#utility.yul\":5908:6695   */\n      swap3\n      swap6\n      swap2\n      swap5\n      pop\n      swap3\n      pop\n      jump\t// out\n        /* \"#utility.yul\":6701:6880   */\n    tag_392:\n        /* \"#utility.yul\":6770:6780   */\n      0x00\n        /* \"#utility.yul\":6791:6837   */\n      tag_394\n        /* \"#utility.yul\":6833:6836   */\n      dup4\n        /* \"#utility.yul\":6825:6831   */\n      dup4\n        /* \"#utility.yul\":6791:6837   */\n      tag_395\n      jump\t// in\n    tag_394:\n        /* \"#utility.yul\":6869:6873   */\n      0x20\n        /* \"#utility.yul\":6864:6867   */\n      dup4\n        /* \"#utility.yul\":6860:6874   */\n      add\n        /* \"#utility.yul\":6846:6874   */\n      swap1\n      pop\n        /* \"#utility.yul\":6781:6880   */\n      swap3\n      swap2\n      pop\n      pop\n      jump\t// out\n        /* \"#utility.yul\":6886:7004   */\n    tag_396:\n        /* \"#utility.yul\":6973:6997   */\n      tag_398\n        /* \"#utility.yul\":6991:6996   */\n      dup2\n        /* \"#utility.yul\":6973:6997   */\n      tag_399\n      jump\t// in\n    tag_398:\n        /* \"#utility.yul\":6968:6971   */\n      dup3\n        /* \"#utility.yul\":6961:6998   */\n      mstore\n        /* \"#utility.yul\":6951:7004   */\n      pop\n      pop\n      jump\t// out\n        /* \"#utility.yul\":7010:7167   */\n    tag_400:\n        /* \"#utility.yul\":7115:7160   */\n      tag_402\n        /* \"#utility.yul\":7135:7159   */\n      tag_403\n        /* \"#utility.yul\":7153:7158   */\n      dup3\n        /* \"#utility.yul\":7135:7159   */\n      tag_399\n      jump\t// in\n    tag_403:\n        /* \"#utility.yul\":7115:7160   */\n      tag_404\n      jump\t// in\n    tag_402:\n        /* \"#utility.yul\":7110:7113   */\n      dup3\n        /* \"#utility.yul\":7103:7161   */\n      mstore\n        /* \"#utility.yul\":7093:7167   */\n      pop\n      pop\n      jump\t// out\n        /* \"#utility.yul\":7203:7935   */\n    tag_405:\n        /* \"#utility.yul\":7322:7325   */\n      0x00\n        /* \"#utility.yul\":7351:7405   */\n      tag_407\n        /* \"#utility.yul\":7399:7404   */\n      dup3\n        /* \"#utility.yul\":7351:7405   */\n      tag_408\n      jump\t// in\n    tag_407:\n        /* \"#utility.yul\":7421:7507   */\n      tag_409\n        /* \"#utility.yul\":7500:7506   */\n      dup2\n        /* \"#utility.yul\":7495:7498   */\n      dup6\n        /* \"#utility.yul\":7421:7507   */\n      tag_410\n      jump\t// in\n    tag_409:\n        /* \"#utility.yul\":7414:7507   */\n      swap4\n      pop\n        /* \"#utility.yul\":7531:7587   */\n      tag_411\n        /* \"#utility.yul\":7581:7586   */\n      dup4\n        /* \"#utility.yul\":7531:7587   */\n      tag_412\n      jump\t// in\n    tag_411:\n        /* \"#utility.yul\":7610:7617   */\n      dup1\n        /* \"#utility.yul\":7641:7642   */\n      0x00\n        /* \"#utility.yul\":7626:7910   */\n    tag_413:\n        /* \"#utility.yul\":7651:7657   */\n      dup4\n        /* \"#utility.yul\":7648:7649   */\n      dup2\n        /* \"#utility.yul\":7645:7658   */\n      lt\n        /* \"#utility.yul\":7626:7910   */\n      iszero\n      tag_415\n      jumpi\n        /* \"#utility.yul\":7727:7733   */\n      dup2\n        /* \"#utility.yul\":7721:7734   */\n      mload\n        /* \"#utility.yul\":7754:7817   */\n      tag_416\n        /* \"#utility.yul\":7813:7816   */\n      dup9\n        /* \"#utility.yul\":7798:7811   */\n      dup3\n        /* \"#utility.yul\":7754:7817   */\n      tag_392\n      jump\t// in\n    tag_416:\n        /* \"#utility.yul\":7747:7817   */\n      swap8\n      pop\n        /* \"#utility.yul\":7840:7900   */\n      tag_417\n        /* \"#utility.yul\":7893:7899   */\n      dup4\n        /* \"#utility.yul\":7840:7900   */\n      tag_418\n      jump\t// in\n    tag_417:\n        /* \"#utility.yul\":7830:7900   */\n      swap3\n      pop\n        /* \"#utility.yul\":7686:7910   */\n      pop\n        /* \"#utility.yul\":7673:7674   */\n      0x01\n        /* \"#utility.yul\":7670:7671   */\n      dup2\n        /* \"#utility.yul\":7666:7675   */\n      add\n        /* \"#utility.yul\":7661:7675   */\n      swap1\n      pop\n        /* \"#utility.yul\":7626:7910   */\n      jump(tag_413)\n    tag_415:\n        /* \"#utility.yul\":7630:7644   */\n      pop\n        /* \"#utility.yul\":7926:7929   */\n      dup6\n        /* \"#utility.yul\":7919:7929   */\n      swap4\n      pop\n        /* \"#utility.yul\":7327:7935   */\n      pop\n      pop\n      pop\n      swap3\n      swap2\n      pop\n      pop\n      jump\t// out\n        /* \"#utility.yul\":7941:8050   */\n    tag_419:\n        /* \"#utility.yul\":8022:8043   */\n      tag_421\n        /* \"#utility.yul\":8037:8042   */\n      dup2\n        /* \"#utility.yul\":8022:8043   */\n      tag_422\n      jump\t// in\n    tag_421:\n        /* \"#utility.yul\":8017:8020   */\n      dup3\n        /* \"#utility.yul\":8010:8044   */\n      mstore\n        /* \"#utility.yul\":8000:8050   */\n      pop\n      pop\n      jump\t// out\n        /* \"#utility.yul\":8056:8164   */\n    tag_395:\n        /* \"#utility.yul\":8133:8157   */\n      tag_424\n        /* \"#utility.yul\":8151:8156   */\n      dup2\n        /* \"#utility.yul\":8133:8157   */\n      tag_425\n      jump\t// in\n    tag_424:\n        /* \"#utility.yul\":8128:8131   */\n      dup3\n        /* \"#utility.yul\":8121:8158   */\n      mstore\n        /* \"#utility.yul\":8111:8164   */\n      pop\n      pop\n      jump\t// out\n        /* \"#utility.yul\":8170:8288   */\n    tag_426:\n        /* \"#utility.yul\":8257:8281   */\n      tag_428\n        /* \"#utility.yul\":8275:8280   */\n      dup2\n        /* \"#utility.yul\":8257:8281   */\n      tag_425\n      jump\t// in\n    tag_428:\n        /* \"#utility.yul\":8252:8255   */\n      dup3\n        /* \"#utility.yul\":8245:8282   */\n      mstore\n        /* \"#utility.yul\":8235:8288   */\n      pop\n      pop\n      jump\t// out\n        /* \"#utility.yul\":8294:8451   */\n    tag_429:\n        /* \"#utility.yul\":8394:8444   */\n      tag_431\n        /* \"#utility.yul\":8438:8443   */\n      dup2\n        /* \"#utility.yul\":8394:8444   */\n      tag_432\n      jump\t// in\n    tag_431:\n        /* \"#utility.yul\":8389:8392   */\n      dup3\n        /* \"#utility.yul\":8382:8445   */\n      mstore\n        /* \"#utility.yul\":8372:8451   */\n      pop\n      pop\n      jump\t// out\n        /* \"#utility.yul\":8457:8821   */\n    tag_433:\n        /* \"#utility.yul\":8545:8548   */\n      0x00\n        /* \"#utility.yul\":8573:8612   */\n      tag_435\n        /* \"#utility.yul\":8606:8611   */\n      dup3\n        /* \"#utility.yul\":8573:8612   */\n      tag_436\n      jump\t// in\n    tag_435:\n        /* \"#utility.yul\":8628:8699   */\n      tag_437\n        /* \"#utility.yul\":8692:8698   */\n      dup2\n        /* \"#utility.yul\":8687:8690   */\n      dup6\n        /* \"#utility.yul\":8628:8699   */\n      tag_438\n      jump\t// in\n    tag_437:\n        /* \"#utility.yul\":8621:8699   */\n      swap4\n      pop\n        /* \"#utility.yul\":8708:8760   */\n      tag_439\n        /* \"#utility.yul\":8753:8759   */\n      dup2\n        /* \"#utility.yul\":8748:8751   */\n      dup6\n        /* \"#utility.yul\":8741:8745   */\n      0x20\n        /* \"#utility.yul\":8734:8739   */\n      dup7\n        /* \"#utility.yul\":8730:8746   */\n      add\n        /* \"#utility.yul\":8708:8760   */\n      tag_440\n      jump\t// in\n    tag_439:\n        /* \"#utility.yul\":8785:8814   */\n      tag_441\n        /* \"#utility.yul\":8807:8813   */\n      dup2\n        /* \"#utility.yul\":8785:8814   */\n      tag_442\n      jump\t// in\n    tag_441:\n        /* \"#utility.yul\":8780:8783   */\n      dup5\n        /* \"#utility.yul\":8776:8815   */\n      add\n        /* \"#utility.yul\":8769:8815   */\n      swap2\n      pop\n        /* \"#utility.yul\":8549:8821   */\n      pop\n      swap3\n      swap2\n      pop\n      pop\n      jump\t// out\n        /* \"#utility.yul\":8827:9204   */\n    tag_443:\n        /* \"#utility.yul\":8933:8936   */\n      0x00\n        /* \"#utility.yul\":8961:9000   */\n      tag_445\n        /* \"#utility.yul\":8994:8999   */\n      dup3\n        /* \"#utility.yul\":8961:9000   */\n      tag_436\n      jump\t// in\n    tag_445:\n        /* \"#utility.yul\":9016:9105   */\n      tag_446\n        /* \"#utility.yul\":9098:9104   */\n      dup2\n        /* \"#utility.yul\":9093:9096   */\n      dup6\n        /* \"#utility.yul\":9016:9105   */\n      tag_447\n      jump\t// in\n    tag_446:\n        /* \"#utility.yul\":9009:9105   */\n      swap4\n      pop\n        /* \"#utility.yul\":9114:9166   */\n      tag_448\n        /* \"#utility.yul\":9159:9165   */\n      dup2\n        /* \"#utility.yul\":9154:9157   */\n      dup6\n        /* \"#utility.yul\":9147:9151   */\n      0x20\n        /* \"#utility.yul\":9140:9145   */\n      dup7\n        /* \"#utility.yul\":9136:9152   */\n      add\n        /* \"#utility.yul\":9114:9166   */\n      tag_440\n      jump\t// in\n    tag_448:\n        /* \"#utility.yul\":9191:9197   */\n      dup1\n        /* \"#utility.yul\":9186:9189   */\n      dup5\n        /* \"#utility.yul\":9182:9198   */\n      add\n        /* \"#utility.yul\":9175:9198   */\n      swap2\n      pop\n        /* \"#utility.yul\":8937:9204   */\n      pop\n      swap3\n      swap2\n      pop\n      pop\n      jump\t// out\n        /* \"#utility.yul\":9210:9328   */\n    tag_449:\n        /* \"#utility.yul\":9297:9321   */\n      tag_451\n        /* \"#utility.yul\":9315:9320   */\n      dup2\n        /* \"#utility.yul\":9297:9321   */\n      tag_452\n      jump\t// in\n    tag_451:\n        /* \"#utility.yul\":9292:9295   */\n      dup3\n        /* \"#utility.yul\":9285:9322   */\n      mstore\n        /* \"#utility.yul\":9275:9328   */\n      pop\n      pop\n      jump\t// out\n        /* \"#utility.yul\":9334:9491   */\n    tag_453:\n        /* \"#utility.yul\":9439:9484   */\n      tag_455\n        /* \"#utility.yul\":9459:9483   */\n      tag_456\n        /* \"#utility.yul\":9477:9482   */\n      dup3\n        /* \"#utility.yul\":9459:9483   */\n      tag_452\n      jump\t// in\n    tag_456:\n        /* \"#utility.yul\":9439:9484   */\n      tag_457\n      jump\t// in\n    tag_455:\n        /* \"#utility.yul\":9434:9437   */\n      dup3\n        /* \"#utility.yul\":9427:9485   */\n      mstore\n        /* \"#utility.yul\":9417:9491   */\n      pop\n      pop\n      jump\t// out\n        /* \"#utility.yul\":9497:9894   */\n    tag_297:\n        /* \"#utility.yul\":9637:9640   */\n      0x00\n        /* \"#utility.yul\":9652:9727   */\n      tag_459\n        /* \"#utility.yul\":9723:9726   */\n      dup3\n        /* \"#utility.yul\":9714:9720   */\n      dup6\n        /* \"#utility.yul\":9652:9727   */\n      tag_400\n      jump\t// in\n    tag_459:\n        /* \"#utility.yul\":9752:9754   */\n      0x14\n        /* \"#utility.yul\":9747:9750   */\n      dup3\n        /* \"#utility.yul\":9743:9755   */\n      add\n        /* \"#utility.yul\":9736:9755   */\n      swap2\n      pop\n        /* \"#utility.yul\":9765:9840   */\n      tag_460\n        /* \"#utility.yul\":9836:9839   */\n      dup3\n        /* \"#utility.yul\":9827:9833   */\n      dup5\n        /* \"#utility.yul\":9765:9840   */\n      tag_453\n      jump\t// in\n    tag_460:\n        /* \"#utility.yul\":9865:9867   */\n      0x20\n        /* \"#utility.yul\":9860:9863   */\n      dup3\n        /* \"#utility.yul\":9856:9868   */\n      add\n        /* \"#utility.yul\":9849:9868   */\n      swap2\n      pop\n        /* \"#utility.yul\":9885:9888   */\n      dup2\n        /* \"#utility.yul\":9878:9888   */\n      swap1\n      pop\n        /* \"#utility.yul\":9641:9894   */\n      swap4\n      swap3\n      pop\n      pop\n      pop\n      jump\t// out\n        /* \"#utility.yul\":9900:10175   */\n    tag_159:\n        /* \"#utility.yul\":10032:10035   */\n      0x00\n        /* \"#utility.yul\":10054:10149   */\n      tag_462\n        /* \"#utility.yul\":10145:10148   */\n      dup3\n        /* \"#utility.yul\":10136:10142   */\n      dup5\n        /* \"#utility.yul\":10054:10149   */\n      tag_443\n      jump\t// in\n    tag_462:\n        /* \"#utility.yul\":10047:10149   */\n      swap2\n      pop\n        /* \"#utility.yul\":10166:10169   */\n      dup2\n        /* \"#utility.yul\":10159:10169   */\n      swap1\n      pop\n        /* \"#utility.yul\":10036:10175   */\n      swap3\n      swap2\n      pop\n      pop\n      jump\t// out\n        /* \"#utility.yul\":10181:10403   */\n    tag_89:\n        /* \"#utility.yul\":10274:10278   */\n      0x00\n        /* \"#utility.yul\":10312:10314   */\n      0x20\n        /* \"#utility.yul\":10301:10310   */\n      dup3\n        /* \"#utility.yul\":10297:10315   */\n      add\n        /* \"#utility.yul\":10289:10315   */\n      swap1\n      pop\n        /* \"#utility.yul\":10325:10396   */\n      tag_464\n        /* \"#utility.yul\":10393:10394   */\n      0x00\n        /* \"#utility.yul\":10382:10391   */\n      dup4\n        /* \"#utility.yul\":10378:10395   */\n      add\n        /* \"#utility.yul\":10369:10375   */\n      dup5\n        /* \"#utility.yul\":10325:10396   */\n      tag_396\n      jump\t// in\n    tag_464:\n        /* \"#utility.yul\":10279:10403   */\n      swap3\n      swap2\n      pop\n      pop\n      jump\t// out\n        /* \"#utility.yul\":10409:10782   */\n    tag_84:\n        /* \"#utility.yul\":10552:10556   */\n      0x00\n        /* \"#utility.yul\":10590:10592   */\n      0x20\n        /* \"#utility.yul\":10579:10588   */\n      dup3\n        /* \"#utility.yul\":10575:10593   */\n      add\n        /* \"#utility.yul\":10567:10593   */\n      swap1\n      pop\n        /* \"#utility.yul\":10639:10648   */\n      dup2\n        /* \"#utility.yul\":10633:10637   */\n      dup2\n        /* \"#utility.yul\":10629:10649   */\n      sub\n        /* \"#utility.yul\":10625:10626   */\n      0x00\n        /* \"#utility.yul\":10614:10623   */\n      dup4\n        /* \"#utility.yul\":10610:10627   */\n      add\n        /* \"#utility.yul\":10603:10650   */\n      mstore\n        /* \"#utility.yul\":10667:10775   */\n      tag_466\n        /* \"#utility.yul\":10770:10774   */\n      dup2\n        /* \"#utility.yul\":10761:10767   */\n      dup5\n        /* \"#utility.yul\":10667:10775   */\n      tag_405\n      jump\t// in\n    tag_466:\n        /* \"#utility.yul\":10659:10775   */\n      swap1\n      pop\n        /* \"#utility.yul\":10557:10782   */\n      swap3\n      swap2\n      pop\n      pop\n      jump\t// out\n        /* \"#utility.yul\":10788:10998   */\n    tag_41:\n        /* \"#utility.yul\":10875:10879   */\n      0x00\n        /* \"#utility.yul\":10913:10915   */\n      0x20\n        /* \"#utility.yul\":10902:10911   */\n      dup3\n        /* \"#utility.yul\":10898:10916   */\n      add\n        /* \"#utility.yul\":10890:10916   */\n      swap1\n      pop\n        /* \"#utility.yul\":10926:10991   */\n      tag_468\n        /* \"#utility.yul\":10988:10989   */\n      0x00\n        /* \"#utility.yul\":10977:10986   */\n      dup4\n        /* \"#utility.yul\":10973:10990   */\n      add\n        /* \"#utility.yul\":10964:10970   */\n      dup5\n        /* \"#utility.yul\":10926:10991   */\n      tag_419\n      jump\t// in\n    tag_468:\n        /* \"#utility.yul\":10880:10998   */\n      swap3\n      swap2\n      pop\n      pop\n      jump\t// out\n        /* \"#utility.yul\":11004:11226   */\n    tag_61:\n        /* \"#utility.yul\":11097:11101   */\n      0x00\n        /* \"#utility.yul\":11135:11137   */\n      0x20\n        /* \"#utility.yul\":11124:11133   */\n      dup3\n        /* \"#utility.yul\":11120:11138   */\n      add\n        /* \"#utility.yul\":11112:11138   */\n      swap1\n      pop\n        /* \"#utility.yul\":11148:11219   */\n      tag_470\n        /* \"#utility.yul\":11216:11217   */\n      0x00\n        /* \"#utility.yul\":11205:11214   */\n      dup4\n        /* \"#utility.yul\":11201:11218   */\n      add\n        /* \"#utility.yul\":11192:11198   */\n      dup5\n        /* \"#utility.yul\":11148:11219   */\n      tag_426\n      jump\t// in\n    tag_470:\n        /* \"#utility.yul\":11102:11226   */\n      swap3\n      swap2\n      pop\n      pop\n      jump\t// out\n        /* \"#utility.yul\":11232:12189   */\n    tag_56:\n        /* \"#utility.yul\":11505:11509   */\n      0x00\n        /* \"#utility.yul\":11543:11546   */\n      0xc0\n        /* \"#utility.yul\":11532:11541   */\n      dup3\n        /* \"#utility.yul\":11528:11547   */\n      add\n        /* \"#utility.yul\":11520:11547   */\n      swap1\n      pop\n        /* \"#utility.yul\":11557:11628   */\n      tag_472\n        /* \"#utility.yul\":11625:11626   */\n      0x00\n        /* \"#utility.yul\":11614:11623   */\n      dup4\n        /* \"#utility.yul\":11610:11627   */\n      add\n        /* \"#utility.yul\":11601:11607   */\n      dup10\n        /* \"#utility.yul\":11557:11628   */\n      tag_426\n      jump\t// in\n    tag_472:\n        /* \"#utility.yul\":11638:11710   */\n      tag_473\n        /* \"#utility.yul\":11706:11708   */\n      0x20\n        /* \"#utility.yul\":11695:11704   */\n      dup4\n        /* \"#utility.yul\":11691:11709   */\n      add\n        /* \"#utility.yul\":11682:11688   */\n      dup9\n        /* \"#utility.yul\":11638:11710   */\n      tag_396\n      jump\t// in\n    tag_473:\n        /* \"#utility.yul\":11720:11792   */\n      tag_474\n        /* \"#utility.yul\":11788:11790   */\n      0x40\n        /* \"#utility.yul\":11777:11786   */\n      dup4\n        /* \"#utility.yul\":11773:11791   */\n      add\n        /* \"#utility.yul\":11764:11770   */\n      dup8\n        /* \"#utility.yul\":11720:11792   */\n      tag_449\n      jump\t// in\n    tag_474:\n        /* \"#utility.yul\":11839:11848   */\n      dup2\n        /* \"#utility.yul\":11833:11837   */\n      dup2\n        /* \"#utility.yul\":11829:11849   */\n      sub\n        /* \"#utility.yul\":11824:11826   */\n      0x60\n        /* \"#utility.yul\":11813:11822   */\n      dup4\n        /* \"#utility.yul\":11809:11827   */\n      add\n        /* \"#utility.yul\":11802:11850   */\n      mstore\n        /* \"#utility.yul\":11867:11945   */\n      tag_475\n        /* \"#utility.yul\":11940:11944   */\n      dup2\n        /* \"#utility.yul\":11931:11937   */\n      dup7\n        /* \"#utility.yul\":11867:11945   */\n      tag_433\n      jump\t// in\n    tag_475:\n        /* \"#utility.yul\":11859:11945   */\n      swap1\n      pop\n        /* \"#utility.yul\":11955:12028   */\n      tag_476\n        /* \"#utility.yul\":12023:12026   */\n      0x80\n        /* \"#utility.yul\":12012:12021   */\n      dup4\n        /* \"#utility.yul\":12008:12027   */\n      add\n        /* \"#utility.yul\":11999:12005   */\n      dup6\n        /* \"#utility.yul\":11955:12028   */\n      tag_396\n      jump\t// in\n    tag_476:\n        /* \"#utility.yul\":12076:12085   */\n      dup2\n        /* \"#utility.yul\":12070:12074   */\n      dup2\n        /* \"#utility.yul\":12066:12086   */\n      sub\n        /* \"#utility.yul\":12060:12063   */\n      0xa0\n        /* \"#utility.yul\":12049:12058   */\n      dup4\n        /* \"#utility.yul\":12045:12064   */\n      add\n        /* \"#utility.yul\":12038:12087   */\n      mstore\n        /* \"#utility.yul\":12104:12182   */\n      tag_477\n        /* \"#utility.yul\":12177:12181   */\n      dup2\n        /* \"#utility.yul\":12168:12174   */\n      dup5\n        /* \"#utility.yul\":12104:12182   */\n      tag_433\n      jump\t// in\n    tag_477:\n        /* \"#utility.yul\":12096:12182   */\n      swap1\n      pop\n        /* \"#utility.yul\":11510:12189   */\n      swap8\n      swap7\n      pop\n      pop\n      pop\n      pop\n      pop\n      pop\n      pop\n      jump\t// out\n        /* \"#utility.yul\":12195:12508   */\n    tag_122:\n        /* \"#utility.yul\":12308:12312   */\n      0x00\n        /* \"#utility.yul\":12346:12348   */\n      0x20\n        /* \"#utility.yul\":12335:12344   */\n      dup3\n        /* \"#utility.yul\":12331:12349   */\n      add\n        /* \"#utility.yul\":12323:12349   */\n      swap1\n      pop\n        /* \"#utility.yul\":12395:12404   */\n      dup2\n        /* \"#utility.yul\":12389:12393   */\n      dup2\n        /* \"#utility.yul\":12385:12405   */\n      sub\n        /* \"#utility.yul\":12381:12382   */\n      0x00\n        /* \"#utility.yul\":12370:12379   */\n      dup4\n        /* \"#utility.yul\":12366:12383   */\n      add\n        /* \"#utility.yul\":12359:12406   */\n      mstore\n        /* \"#utility.yul\":12423:12501   */\n      tag_479\n        /* \"#utility.yul\":12496:12500   */\n      dup2\n        /* \"#utility.yul\":12487:12493   */\n      dup5\n        /* \"#utility.yul\":12423:12501   */\n      tag_433\n      jump\t// in\n    tag_479:\n        /* \"#utility.yul\":12415:12501   */\n      swap1\n      pop\n        /* \"#utility.yul\":12313:12508   */\n      swap3\n      swap2\n      pop\n      pop\n      jump\t// out\n        /* \"#utility.yul\":12514:13360   */\n    tag_76:\n        /* \"#utility.yul\":12759:12763   */\n      0x00\n        /* \"#utility.yul\":12797:12800   */\n      0xa0\n        /* \"#utility.yul\":12786:12795   */\n      dup3\n        /* \"#utility.yul\":12782:12801   */\n      add\n        /* \"#utility.yul\":12774:12801   */\n      swap1\n      pop\n        /* \"#utility.yul\":12847:12856   */\n      dup2\n        /* \"#utility.yul\":12841:12845   */\n      dup2\n        /* \"#utility.yul\":12837:12857   */\n      sub\n        /* \"#utility.yul\":12833:12834   */\n      0x00\n        /* \"#utility.yul\":12822:12831   */\n      dup4\n        /* \"#utility.yul\":12818:12835   */\n      add\n        /* \"#utility.yul\":12811:12858   */\n      mstore\n        /* \"#utility.yul\":12875:12953   */\n      tag_481\n        /* \"#utility.yul\":12948:12952   */\n      dup2\n        /* \"#utility.yul\":12939:12945   */\n      dup9\n        /* \"#utility.yul\":12875:12953   */\n      tag_433\n      jump\t// in\n    tag_481:\n        /* \"#utility.yul\":12867:12953   */\n      swap1\n      pop\n        /* \"#utility.yul\":12963:13035   */\n      tag_482\n        /* \"#utility.yul\":13031:13033   */\n      0x20\n        /* \"#utility.yul\":13020:13029   */\n      dup4\n        /* \"#utility.yul\":13016:13034   */\n      add\n        /* \"#utility.yul\":13007:13013   */\n      dup8\n        /* \"#utility.yul\":12963:13035   */\n      tag_396\n      jump\t// in\n    tag_482:\n        /* \"#utility.yul\":13045:13117   */\n      tag_483\n        /* \"#utility.yul\":13113:13115   */\n      0x40\n        /* \"#utility.yul\":13102:13111   */\n      dup4\n        /* \"#utility.yul\":13098:13116   */\n      add\n        /* \"#utility.yul\":13089:13095   */\n      dup7\n        /* \"#utility.yul\":13045:13117   */\n      tag_449\n      jump\t// in\n    tag_483:\n        /* \"#utility.yul\":13127:13199   */\n      tag_484\n        /* \"#utility.yul\":13195:13197   */\n      0x60\n        /* \"#utility.yul\":13184:13193   */\n      dup4\n        /* \"#utility.yul\":13180:13198   */\n      add\n        /* \"#utility.yul\":13171:13177   */\n      dup6\n        /* \"#utility.yul\":13127:13199   */\n      tag_396\n      jump\t// in\n    tag_484:\n        /* \"#utility.yul\":13247:13256   */\n      dup2\n        /* \"#utility.yul\":13241:13245   */\n      dup2\n        /* \"#utility.yul\":13237:13257   */\n      sub\n        /* \"#utility.yul\":13231:13234   */\n      0x80\n        /* \"#utility.yul\":13220:13229   */\n      dup4\n        /* \"#utility.yul\":13216:13235   */\n      add\n        /* \"#utility.yul\":13209:13258   */\n      mstore\n        /* \"#utility.yul\":13275:13353   */\n      tag_485\n        /* \"#utility.yul\":13348:13352   */\n      dup2\n        /* \"#utility.yul\":13339:13345   */\n      dup5\n        /* \"#utility.yul\":13275:13353   */\n      tag_433\n      jump\t// in\n    tag_485:\n        /* \"#utility.yul\":13267:13353   */\n      swap1\n      pop\n        /* \"#utility.yul\":12764:13360   */\n      swap7\n      swap6\n      pop\n      pop\n      pop\n      pop\n      pop\n      pop\n      jump\t// out\n        /* \"#utility.yul\":13366:14349   */\n    tag_47:\n        /* \"#utility.yul\":13652:13656   */\n      0x00\n        /* \"#utility.yul\":13690:13693   */\n      0xc0\n        /* \"#utility.yul\":13679:13688   */\n      dup3\n        /* \"#utility.yul\":13675:13694   */\n      add\n        /* \"#utility.yul\":13667:13694   */\n      swap1\n      pop\n        /* \"#utility.yul\":13740:13749   */\n      dup2\n        /* \"#utility.yul\":13734:13738   */\n      dup2\n        /* \"#utility.yul\":13730:13750   */\n      sub\n        /* \"#utility.yul\":13726:13727   */\n      0x00\n        /* \"#utility.yul\":13715:13724   */\n      dup4\n        /* \"#utility.yul\":13711:13728   */\n      add\n        /* \"#utility.yul\":13704:13751   */\n      mstore\n        /* \"#utility.yul\":13768:13846   */\n      tag_487\n        /* \"#utility.yul\":13841:13845   */\n      dup2\n        /* \"#utility.yul\":13832:13838   */\n      dup10\n        /* \"#utility.yul\":13768:13846   */\n      tag_433\n      jump\t// in\n    tag_487:\n        /* \"#utility.yul\":13760:13846   */\n      swap1\n      pop\n        /* \"#utility.yul\":13856:13928   */\n      tag_488\n        /* \"#utility.yul\":13924:13926   */\n      0x20\n        /* \"#utility.yul\":13913:13922   */\n      dup4\n        /* \"#utility.yul\":13909:13927   */\n      add\n        /* \"#utility.yul\":13900:13906   */\n      dup9\n        /* \"#utility.yul\":13856:13928   */\n      tag_396\n      jump\t// in\n    tag_488:\n        /* \"#utility.yul\":13938:14010   */\n      tag_489\n        /* \"#utility.yul\":14006:14008   */\n      0x40\n        /* \"#utility.yul\":13995:14004   */\n      dup4\n        /* \"#utility.yul\":13991:14009   */\n      add\n        /* \"#utility.yul\":13982:13988   */\n      dup8\n        /* \"#utility.yul\":13938:14010   */\n      tag_449\n      jump\t// in\n    tag_489:\n        /* \"#utility.yul\":14020:14092   */\n      tag_490\n        /* \"#utility.yul\":14088:14090   */\n      0x60\n        /* \"#utility.yul\":14077:14086   */\n      dup4\n        /* \"#utility.yul\":14073:14091   */\n      add\n        /* \"#utility.yul\":14064:14070   */\n      dup7\n        /* \"#utility.yul\":14020:14092   */\n      tag_396\n      jump\t// in\n    tag_490:\n        /* \"#utility.yul\":14140:14149   */\n      dup2\n        /* \"#utility.yul\":14134:14138   */\n      dup2\n        /* \"#utility.yul\":14130:14150   */\n      sub\n        /* \"#utility.yul\":14124:14127   */\n      0x80\n        /* \"#utility.yul\":14113:14122   */\n      dup4\n        /* \"#utility.yul\":14109:14128   */\n      add\n        /* \"#utility.yul\":14102:14151   */\n      mstore\n        /* \"#utility.yul\":14168:14246   */\n      tag_491\n        /* \"#utility.yul\":14241:14245   */\n      dup2\n        /* \"#utility.yul\":14232:14238   */\n      dup6\n        /* \"#utility.yul\":14168:14246   */\n      tag_433\n      jump\t// in\n    tag_491:\n        /* \"#utility.yul\":14160:14246   */\n      swap1\n      pop\n        /* \"#utility.yul\":14256:14342   */\n      tag_492\n        /* \"#utility.yul\":14337:14340   */\n      0xa0\n        /* \"#utility.yul\":14326:14335   */\n      dup4\n        /* \"#utility.yul\":14322:14341   */\n      add\n        /* \"#utility.yul\":14313:14319   */\n      dup5\n        /* \"#utility.yul\":14256:14342   */\n      tag_429\n      jump\t// in\n    tag_492:\n        /* \"#utility.yul\":13657:14349   */\n      swap8\n      swap7\n      pop\n      pop\n      pop\n      pop\n      pop\n      pop\n      pop\n      jump\t// out\n        /* \"#utility.yul\":14355:15878   */\n    tag_118:\n        /* \"#utility.yul\":14756:14760   */\n      0x00\n        /* \"#utility.yul\":14794:14797   */\n      0xe0\n        /* \"#utility.yul\":14783:14792   */\n      dup3\n        /* \"#utility.yul\":14779:14798   */\n      add\n        /* \"#utility.yul\":14771:14798   */\n      swap1\n      pop\n        /* \"#utility.yul\":14844:14853   */\n      dup2\n        /* \"#utility.yul\":14838:14842   */\n      dup2\n        /* \"#utility.yul\":14834:14854   */\n      sub\n        /* \"#utility.yul\":14830:14831   */\n      0x00\n        /* \"#utility.yul\":14819:14828   */\n      dup4\n        /* \"#utility.yul\":14815:14832   */\n      add\n        /* \"#utility.yul\":14808:14855   */\n      mstore\n        /* \"#utility.yul\":14872:14950   */\n      tag_494\n        /* \"#utility.yul\":14945:14949   */\n      dup2\n        /* \"#utility.yul\":14936:14942   */\n      dup11\n        /* \"#utility.yul\":14872:14950   */\n      tag_433\n      jump\t// in\n    tag_494:\n        /* \"#utility.yul\":14864:14950   */\n      swap1\n      pop\n        /* \"#utility.yul\":14997:15006   */\n      dup2\n        /* \"#utility.yul\":14991:14995   */\n      dup2\n        /* \"#utility.yul\":14987:15007   */\n      sub\n        /* \"#utility.yul\":14982:14984   */\n      0x20\n        /* \"#utility.yul\":14971:14980   */\n      dup4\n        /* \"#utility.yul\":14967:14985   */\n      add\n        /* \"#utility.yul\":14960:15008   */\n      mstore\n        /* \"#utility.yul\":15025:15103   */\n      tag_495\n        /* \"#utility.yul\":15098:15102   */\n      dup2\n        /* \"#utility.yul\":15089:15095   */\n      dup10\n        /* \"#utility.yul\":15025:15103   */\n      tag_433\n      jump\t// in\n    tag_495:\n        /* \"#utility.yul\":15017:15103   */\n      swap1\n      pop\n        /* \"#utility.yul\":15150:15159   */\n      dup2\n        /* \"#utility.yul\":15144:15148   */\n      dup2\n        /* \"#utility.yul\":15140:15160   */\n      sub\n        /* \"#utility.yul\":15135:15137   */\n      0x40\n        /* \"#utility.yul\":15124:15133   */\n      dup4\n        /* \"#utility.yul\":15120:15138   */\n      add\n        /* \"#utility.yul\":15113:15161   */\n      mstore\n        /* \"#utility.yul\":15178:15256   */\n      tag_496\n        /* \"#utility.yul\":15251:15255   */\n      dup2\n        /* \"#utility.yul\":15242:15248   */\n      dup9\n        /* \"#utility.yul\":15178:15256   */\n      tag_433\n      jump\t// in\n    tag_496:\n        /* \"#utility.yul\":15170:15256   */\n      swap1\n      pop\n        /* \"#utility.yul\":15303:15312   */\n      dup2\n        /* \"#utility.yul\":15297:15301   */\n      dup2\n        /* \"#utility.yul\":15293:15313   */\n      sub\n        /* \"#utility.yul\":15288:15290   */\n      0x60\n        /* \"#utility.yul\":15277:15286   */\n      dup4\n        /* \"#utility.yul\":15273:15291   */\n      add\n        /* \"#utility.yul\":15266:15314   */\n      mstore\n        /* \"#utility.yul\":15331:15409   */\n      tag_497\n        /* \"#utility.yul\":15404:15408   */\n      dup2\n        /* \"#utility.yul\":15395:15401   */\n      dup8\n        /* \"#utility.yul\":15331:15409   */\n      tag_433\n      jump\t// in\n    tag_497:\n        /* \"#utility.yul\":15323:15409   */\n      swap1\n      pop\n        /* \"#utility.yul\":15457:15466   */\n      dup2\n        /* \"#utility.yul\":15451:15455   */\n      dup2\n        /* \"#utility.yul\":15447:15467   */\n      sub\n        /* \"#utility.yul\":15441:15444   */\n      0x80\n        /* \"#utility.yul\":15430:15439   */\n      dup4\n        /* \"#utility.yul\":15426:15445   */\n      add\n        /* \"#utility.yul\":15419:15468   */\n      mstore\n        /* \"#utility.yul\":15485:15563   */\n      tag_498\n        /* \"#utility.yul\":15558:15562   */\n      dup2\n        /* \"#utility.yul\":15549:15555   */\n      dup7\n        /* \"#utility.yul\":15485:15563   */\n      tag_433\n      jump\t// in\n    tag_498:\n        /* \"#utility.yul\":15477:15563   */\n      swap1\n      pop\n        /* \"#utility.yul\":15611:15620   */\n      dup2\n        /* \"#utility.yul\":15605:15609   */\n      dup2\n        /* \"#utility.yul\":15601:15621   */\n      sub\n        /* \"#utility.yul\":15595:15598   */\n      0xa0\n        /* \"#utility.yul\":15584:15593   */\n      dup4\n        /* \"#utility.yul\":15580:15599   */\n      add\n        /* \"#utility.yul\":15573:15622   */\n      mstore\n        /* \"#utility.yul\":15639:15717   */\n      tag_499\n        /* \"#utility.yul\":15712:15716   */\n      dup2\n        /* \"#utility.yul\":15703:15709   */\n      dup6\n        /* \"#utility.yul\":15639:15717   */\n      tag_433\n      jump\t// in\n    tag_499:\n        /* \"#utility.yul\":15631:15717   */\n      swap1\n      pop\n        /* \"#utility.yul\":15765:15774   */\n      dup2\n        /* \"#utility.yul\":15759:15763   */\n      dup2\n        /* \"#utility.yul\":15755:15775   */\n      sub\n        /* \"#utility.yul\":15749:15752   */\n      0xc0\n        /* \"#utility.yul\":15738:15747   */\n      dup4\n        /* \"#utility.yul\":15734:15753   */\n      add\n        /* \"#utility.yul\":15727:15776   */\n      mstore\n        /* \"#utility.yul\":15793:15871   */\n      tag_500\n        /* \"#utility.yul\":15866:15870   */\n      dup2\n        /* \"#utility.yul\":15857:15863   */\n      dup5\n        /* \"#utility.yul\":15793:15871   */\n      tag_433\n      jump\t// in\n    tag_500:\n        /* \"#utility.yul\":15785:15871   */\n      swap1\n      pop\n        /* \"#utility.yul\":14761:15878   */\n      swap9\n      swap8\n      pop\n      pop\n      pop\n      pop\n      pop\n      pop\n      pop\n      pop\n      jump\t// out\n        /* \"#utility.yul\":15884:16307   */\n    tag_264:\n        /* \"#utility.yul\":16025:16029   */\n      0x00\n        /* \"#utility.yul\":16063:16065   */\n      0x40\n        /* \"#utility.yul\":16052:16061   */\n      dup3\n        /* \"#utility.yul\":16048:16066   */\n      add\n        /* \"#utility.yul\":16040:16066   */\n      swap1\n      pop\n        /* \"#utility.yul\":16112:16121   */\n      dup2\n        /* \"#utility.yul\":16106:16110   */\n      dup2\n        /* \"#utility.yul\":16102:16122   */\n      sub\n        /* \"#utility.yul\":16098:16099   */\n      0x00\n        /* \"#utility.yul\":16087:16096   */\n      dup4\n        /* \"#utility.yul\":16083:16100   */\n      add\n        /* \"#utility.yul\":16076:16123   */\n      mstore\n        /* \"#utility.yul\":16140:16218   */\n      tag_502\n        /* \"#utility.yul\":16213:16217   */\n      dup2\n        /* \"#utility.yul\":16204:16210   */\n      dup6\n        /* \"#utility.yul\":16140:16218   */\n      tag_433\n      jump\t// in\n    tag_502:\n        /* \"#utility.yul\":16132:16218   */\n      swap1\n      pop\n        /* \"#utility.yul\":16228:16300   */\n      tag_503\n        /* \"#utility.yul\":16296:16298   */\n      0x20\n        /* \"#utility.yul\":16285:16294   */\n      dup4\n        /* \"#utility.yul\":16281:16299   */\n      add\n        /* \"#utility.yul\":16272:16278   */\n      dup5\n        /* \"#utility.yul\":16228:16300   */\n      tag_449\n      jump\t// in\n    tag_503:\n        /* \"#utility.yul\":16030:16307   */\n      swap4\n      swap3\n      pop\n      pop\n      pop\n      jump\t// out\n        /* \"#utility.yul\":16313:16535   */\n    tag_222:\n        /* \"#utility.yul\":16406:16410   */\n      0x00\n        /* \"#utility.yul\":16444:16446   */\n      0x20\n        /* \"#utility.yul\":16433:16442   */\n      dup3\n        /* \"#utility.yul\":16429:16447   */\n      add\n        /* \"#utility.yul\":16421:16447   */\n      swap1\n      pop\n        /* \"#utility.yul\":16457:16528   */\n      tag_505\n        /* \"#utility.yul\":16525:16526   */\n      0x00\n        /* \"#utility.yul\":16514:16523   */\n      dup4\n        /* \"#utility.yul\":16510:16527   */\n      add\n        /* \"#utility.yul\":16501:16507   */\n      dup5\n        /* \"#utility.yul\":16457:16528   */\n      tag_449\n      jump\t// in\n    tag_505:\n        /* \"#utility.yul\":16411:16535   */\n      swap3\n      swap2\n      pop\n      pop\n      jump\t// out\n        /* \"#utility.yul\":16541:17094   */\n    tag_98:\n        /* \"#utility.yul\":16718:16722   */\n      0x00\n        /* \"#utility.yul\":16756:16759   */\n      0x80\n        /* \"#utility.yul\":16745:16754   */\n      dup3\n        /* \"#utility.yul\":16741:16760   */\n      add\n        /* \"#utility.yul\":16733:16760   */\n      swap1\n      pop\n        /* \"#utility.yul\":16770:16841   */\n      tag_507\n        /* \"#utility.yul\":16838:16839   */\n      0x00\n        /* \"#utility.yul\":16827:16836   */\n      dup4\n        /* \"#utility.yul\":16823:16840   */\n      add\n        /* \"#utility.yul\":16814:16820   */\n      dup8\n        /* \"#utility.yul\":16770:16841   */\n      tag_449\n      jump\t// in\n    tag_507:\n        /* \"#utility.yul\":16851:16923   */\n      tag_508\n        /* \"#utility.yul\":16919:16921   */\n      0x20\n        /* \"#utility.yul\":16908:16917   */\n      dup4\n        /* \"#utility.yul\":16904:16922   */\n      add\n        /* \"#utility.yul\":16895:16901   */\n      dup7\n        /* \"#utility.yul\":16851:16923   */\n      tag_449\n      jump\t// in\n    tag_508:\n        /* \"#utility.yul\":16933:17005   */\n      tag_509\n        /* \"#utility.yul\":17001:17003   */\n      0x40\n        /* \"#utility.yul\":16990:16999   */\n      dup4\n        /* \"#utility.yul\":16986:17004   */\n      add\n        /* \"#utility.yul\":16977:16983   */\n      dup6\n        /* \"#utility.yul\":16933:17005   */\n      tag_449\n      jump\t// in\n    tag_509:\n        /* \"#utility.yul\":17015:17087   */\n      tag_510\n        /* \"#utility.yul\":17083:17085   */\n      0x60\n        /* \"#utility.yul\":17072:17081   */\n      dup4\n        /* \"#utility.yul\":17068:17086   */\n      add\n        /* \"#utility.yul\":17059:17065   */\n      dup5\n        /* \"#utility.yul\":17015:17087   */\n      tag_449\n      jump\t// in\n    tag_510:\n        /* \"#utility.yul\":16723:17094   */\n      swap6\n      swap5\n      pop\n      pop\n      pop\n      pop\n      pop\n      jump\t// out\n        /* \"#utility.yul\":17100:17229   */\n    tag_318:\n        /* \"#utility.yul\":17134:17140   */\n      0x00\n        /* \"#utility.yul\":17161:17181   */\n      tag_512\n      tag_513\n      jump\t// in\n    tag_512:\n        /* \"#utility.yul\":17151:17181   */\n      swap1\n      pop\n        /* \"#utility.yul\":17190:17223   */\n      tag_514\n        /* \"#utility.yul\":17218:17222   */\n      dup3\n        /* \"#utility.yul\":17210:17216   */\n      dup3\n        /* \"#utility.yul\":17190:17223   */\n      tag_515\n      jump\t// in\n    tag_514:\n        /* \"#utility.yul\":17141:17229   */\n      swap2\n      swap1\n      pop\n      jump\t// out\n        /* \"#utility.yul\":17235:17310   */\n    tag_513:\n        /* \"#utility.yul\":17268:17274   */\n      0x00\n        /* \"#utility.yul\":17301:17303   */\n      0x40\n        /* \"#utility.yul\":17295:17304   */\n      mload\n        /* \"#utility.yul\":17285:17304   */\n      swap1\n      pop\n        /* \"#utility.yul\":17275:17310   */\n      swap1\n      jump\t// out\n        /* \"#utility.yul\":17316:17624   */\n    tag_317:\n        /* \"#utility.yul\":17378:17382   */\n      0x00\n        /* \"#utility.yul\":17468:17486   */\n      0xffffffffffffffff\n        /* \"#utility.yul\":17460:17466   */\n      dup3\n        /* \"#utility.yul\":17457:17487   */\n      gt\n        /* \"#utility.yul\":17454:17456   */\n      iszero\n      tag_518\n      jumpi\n        /* \"#utility.yul\":17490:17508   */\n      tag_519\n      tag_520\n      jump\t// in\n    tag_519:\n        /* \"#utility.yul\":17454:17456   */\n    tag_518:\n        /* \"#utility.yul\":17528:17557   */\n      tag_521\n        /* \"#utility.yul\":17550:17556   */\n      dup3\n        /* \"#utility.yul\":17528:17557   */\n      tag_442\n      jump\t// in\n    tag_521:\n        /* \"#utility.yul\":17520:17557   */\n      swap1\n      pop\n        /* \"#utility.yul\":17612:17616   */\n      0x20\n        /* \"#utility.yul\":17606:17610   */\n      dup2\n        /* \"#utility.yul\":17602:17617   */\n      add\n        /* \"#utility.yul\":17594:17617   */\n      swap1\n      pop\n        /* \"#utility.yul\":17383:17624   */\n      swap2\n      swap1\n      pop\n      jump\t// out\n        /* \"#utility.yul\":17630:17762   */\n    tag_412:\n        /* \"#utility.yul\":17697:17701   */\n      0x00\n        /* \"#utility.yul\":17720:17723   */\n      dup2\n        /* \"#utility.yul\":17712:17723   */\n      swap1\n      pop\n        /* \"#utility.yul\":17750:17754   */\n      0x20\n        /* \"#utility.yul\":17745:17748   */\n      dup3\n        /* \"#utility.yul\":17741:17755   */\n      add\n        /* \"#utility.yul\":17733:17755   */\n      swap1\n      pop\n        /* \"#utility.yul\":17702:17762   */\n      swap2\n      swap1\n      pop\n      jump\t// out\n        /* \"#utility.yul\":17768:17882   */\n    tag_408:\n        /* \"#utility.yul\":17835:17841   */\n      0x00\n        /* \"#utility.yul\":17869:17874   */\n      dup2\n        /* \"#utility.yul\":17863:17875   */\n      mload\n        /* \"#utility.yul\":17853:17875   */\n      swap1\n      pop\n        /* \"#utility.yul\":17842:17882   */\n      swap2\n      swap1\n      pop\n      jump\t// out\n        /* \"#utility.yul\":17888:17987   */\n    tag_436:\n        /* \"#utility.yul\":17940:17946   */\n      0x00\n        /* \"#utility.yul\":17974:17979   */\n      dup2\n        /* \"#utility.yul\":17968:17980   */\n      mload\n        /* \"#utility.yul\":17958:17980   */\n      swap1\n      pop\n        /* \"#utility.yul\":17947:17987   */\n      swap2\n      swap1\n      pop\n      jump\t// out\n        /* \"#utility.yul\":17993:18106   */\n    tag_418:\n        /* \"#utility.yul\":18063:18067   */\n      0x00\n        /* \"#utility.yul\":18095:18099   */\n      0x20\n        /* \"#utility.yul\":18090:18093   */\n      dup3\n        /* \"#utility.yul\":18086:18100   */\n      add\n        /* \"#utility.yul\":18078:18100   */\n      swap1\n      pop\n        /* \"#utility.yul\":18068:18106   */\n      swap2\n      swap1\n      pop\n      jump\t// out\n        /* \"#utility.yul\":18112:18296   */\n    tag_410:\n        /* \"#utility.yul\":18211:18222   */\n      0x00\n        /* \"#utility.yul\":18245:18251   */\n      dup3\n        /* \"#utility.yul\":18240:18243   */\n      dup3\n        /* \"#utility.yul\":18233:18252   */\n      mstore\n        /* \"#utility.yul\":18285:18289   */\n      0x20\n        /* \"#utility.yul\":18280:18283   */\n      dup3\n        /* \"#utility.yul\":18276:18290   */\n      add\n        /* \"#utility.yul\":18261:18290   */\n      swap1\n      pop\n        /* \"#utility.yul\":18223:18296   */\n      swap3\n      swap2\n      pop\n      pop\n      jump\t// out\n        /* \"#utility.yul\":18302:18471   */\n    tag_438:\n        /* \"#utility.yul\":18386:18397   */\n      0x00\n        /* \"#utility.yul\":18420:18426   */\n      dup3\n        /* \"#utility.yul\":18415:18418   */\n      dup3\n        /* \"#utility.yul\":18408:18427   */\n      mstore\n        /* \"#utility.yul\":18460:18464   */\n      0x20\n        /* \"#utility.yul\":18455:18458   */\n      dup3\n        /* \"#utility.yul\":18451:18465   */\n      add\n        /* \"#utility.yul\":18436:18465   */\n      swap1\n      pop\n        /* \"#utility.yul\":18398:18471   */\n      swap3\n      swap2\n      pop\n      pop\n      jump\t// out\n        /* \"#utility.yul\":18477:18625   */\n    tag_447:\n        /* \"#utility.yul\":18579:18590   */\n      0x00\n        /* \"#utility.yul\":18616:18619   */\n      dup2\n        /* \"#utility.yul\":18601:18619   */\n      swap1\n      pop\n        /* \"#utility.yul\":18591:18625   */\n      swap3\n      swap2\n      pop\n      pop\n      jump\t// out\n        /* \"#utility.yul\":18631:18936   */\n    tag_250:\n        /* \"#utility.yul\":18671:18674   */\n      0x00\n        /* \"#utility.yul\":18690:18710   */\n      tag_530\n        /* \"#utility.yul\":18708:18709   */\n      dup3\n        /* \"#utility.yul\":18690:18710   */\n      tag_452\n      jump\t// in\n    tag_530:\n        /* \"#utility.yul\":18685:18710   */\n      swap2\n      pop\n        /* \"#utility.yul\":18724:18744   */\n      tag_531\n        /* \"#utility.yul\":18742:18743   */\n      dup4\n        /* \"#utility.yul\":18724:18744   */\n      tag_452\n      jump\t// in\n    tag_531:\n        /* \"#utility.yul\":18719:18744   */\n      swap3\n      pop\n        /* \"#utility.yul\":18878:18879   */\n      dup3\n        /* \"#utility.yul\":18810:18876   */\n      0xffffffffffffffffffffffffffffffffffffffffffffffffffffffffffffffff\n        /* \"#utility.yul\":18806:18880   */\n      sub\n        /* \"#utility.yul\":18803:18804   */\n      dup3\n        /* \"#utility.yul\":18800:18881   */\n      gt\n        /* \"#utility.yul\":18797:18799   */\n      iszero\n      tag_532\n      jumpi\n        /* \"#utility.yul\":18884:18902   */\n      tag_533\n      tag_534\n      jump\t// in\n    tag_533:\n        /* \"#utility.yul\":18797:18799   */\n    tag_532:\n        /* \"#utility.yul\":18928:18929   */\n      dup3\n        /* \"#utility.yul\":18925:18926   */\n      dup3\n        /* \"#utility.yul\":18921:18930   */\n      add\n        /* \"#utility.yul\":18914:18930   */\n      swap1\n      pop\n        /* \"#utility.yul\":18675:18936   */\n      swap3\n      swap2\n      pop\n      pop\n      jump\t// out\n        /* \"#utility.yul\":18942:19038   */\n    tag_399:\n        /* \"#utility.yul\":18979:18986   */\n      0x00\n        /* \"#utility.yul\":19008:19032   */\n      tag_536\n        /* \"#utility.yul\":19026:19031   */\n      dup3\n        /* \"#utility.yul\":19008:19032   */\n      tag_537\n      jump\t// in\n    tag_536:\n        /* \"#utility.yul\":18997:19032   */\n      swap1\n      pop\n        /* \"#utility.yul\":18987:19038   */\n      swap2\n      swap1\n      pop\n      jump\t// out\n        /* \"#utility.yul\":19044:19134   */\n    tag_422:\n        /* \"#utility.yul\":19078:19085   */\n      0x00\n        /* \"#utility.yul\":19121:19126   */\n      dup2\n        /* \"#utility.yul\":19114:19127   */\n      iszero\n        /* \"#utility.yul\":19107:19128   */\n      iszero\n        /* \"#utility.yul\":19096:19128   */\n      swap1\n      pop\n        /* \"#utility.yul\":19086:19134   */\n      swap2\n      swap1\n      pop\n      jump\t// out\n        /* \"#utility.yul\":19140:19217   */\n    tag_425:\n        /* \"#utility.yul\":19177:19184   */\n      0x00\n        /* \"#utility.yul\":19206:19211   */\n      dup2\n        /* \"#utility.yul\":19195:19211   */\n      swap1\n      pop\n        /* \"#utility.yul\":19185:19217   */\n      swap2\n      swap1\n      pop\n      jump\t// out\n        /* \"#utility.yul\":19223:19364   */\n    tag_540:\n        /* \"#utility.yul\":19275:19282   */\n      0x00\n        /* \"#utility.yul\":19304:19309   */\n      dup2\n        /* \"#utility.yul\":19293:19309   */\n      swap1\n      pop\n        /* \"#utility.yul\":19310:19358   */\n      tag_542\n        /* \"#utility.yul\":19352:19357   */\n      dup3\n        /* \"#utility.yul\":19310:19358   */\n      tag_543\n      jump\t// in\n    tag_542:\n        /* \"#utility.yul\":19283:19364   */\n      swap2\n      swap1\n      pop\n      jump\t// out\n        /* \"#utility.yul\":19370:19496   */\n    tag_537:\n        /* \"#utility.yul\":19407:19414   */\n      0x00\n        /* \"#utility.yul\":19447:19489   */\n      0xffffffffffffffffffffffffffffffffffffffff\n        /* \"#utility.yul\":19440:19445   */\n      dup3\n        /* \"#utility.yul\":19436:19490   */\n      and\n        /* \"#utility.yul\":19425:19490   */\n      swap1\n      pop\n        /* \"#utility.yul\":19415:19496   */\n      swap2\n      swap1\n      pop\n      jump\t// out\n        /* \"#utility.yul\":19502:19579   */\n    tag_452:\n        /* \"#utility.yul\":19539:19546   */\n      0x00\n        /* \"#utility.yul\":19568:19573   */\n      dup2\n        /* \"#utility.yul\":19557:19573   */\n      swap1\n      pop\n        /* \"#utility.yul\":19547:19579   */\n      swap2\n      swap1\n      pop\n      jump\t// out\n        /* \"#utility.yul\":19585:19726   */\n    tag_432:\n        /* \"#utility.yul\":19648:19657   */\n      0x00\n        /* \"#utility.yul\":19681:19720   */\n      tag_547\n        /* \"#utility.yul\":19714:19719   */\n      dup3\n        /* \"#utility.yul\":19681:19720   */\n      tag_540\n      jump\t// in\n    tag_547:\n        /* \"#utility.yul\":19668:19720   */\n      swap1\n      pop\n        /* \"#utility.yul\":19658:19726   */\n      swap2\n      swap1\n      pop\n      jump\t// out\n        /* \"#utility.yul\":19732:19886   */\n    tag_321:\n        /* \"#utility.yul\":19816:19822   */\n      dup3\n        /* \"#utility.yul\":19811:19814   */\n      dup2\n        /* \"#utility.yul\":19806:19809   */\n      dup4\n        /* \"#utility.yul\":19793:19823   */\n      calldatacopy\n        /* \"#utility.yul\":19878:19879   */\n      0x00\n        /* \"#utility.yul\":19869:19875   */\n      dup4\n        /* \"#utility.yul\":19864:19867   */\n      dup4\n        /* \"#utility.yul\":19860:19876   */\n      add\n        /* \"#utility.yul\":19853:19880   */\n      mstore\n        /* \"#utility.yul\":19783:19886   */\n      pop\n      pop\n      pop\n      jump\t// out\n        /* \"#utility.yul\":19892:20199   */\n    tag_440:\n        /* \"#utility.yul\":19960:19961   */\n      0x00\n        /* \"#utility.yul\":19970:20083   */\n    tag_550:\n        /* \"#utility.yul\":19984:19990   */\n      dup4\n        /* \"#utility.yul\":19981:19982   */\n      dup2\n        /* \"#utility.yul\":19978:19991   */\n      lt\n        /* \"#utility.yul\":19970:20083   */\n      iszero\n      tag_552\n      jumpi\n        /* \"#utility.yul\":20069:20070   */\n      dup1\n        /* \"#utility.yul\":20064:20067   */\n      dup3\n        /* \"#utility.yul\":20060:20071   */\n      add\n        /* \"#utility.yul\":20054:20072   */\n      mload\n        /* \"#utility.yul\":20050:20051   */\n      dup2\n        /* \"#utility.yul\":20045:20048   */\n      dup5\n        /* \"#utility.yul\":20041:20052   */\n      add\n        /* \"#utility.yul\":20034:20073   */\n      mstore\n        /* \"#utility.yul\":20006:20008   */\n      0x20\n        /* \"#utility.yul\":20003:20004   */\n      dup2\n        /* \"#utility.yul\":19999:20009   */\n      add\n        /* \"#utility.yul\":19994:20009   */\n      swap1\n      pop\n        /* \"#utility.yul\":19970:20083   */\n      jump(tag_550)\n    tag_552:\n        /* \"#utility.yul\":20101:20107   */\n      dup4\n        /* \"#utility.yul\":20098:20099   */\n      dup2\n        /* \"#utility.yul\":20095:20108   */\n      gt\n        /* \"#utility.yul\":20092:20094   */\n      iszero\n      tag_553\n      jumpi\n        /* \"#utility.yul\":20181:20182   */\n      0x00\n        /* \"#utility.yul\":20172:20178   */\n      dup5\n        /* \"#utility.yul\":20167:20170   */\n      dup5\n        /* \"#utility.yul\":20163:20179   */\n      add\n        /* \"#utility.yul\":20156:20183   */\n      mstore\n        /* \"#utility.yul\":20092:20094   */\n    tag_553:\n        /* \"#utility.yul\":19941:20199   */\n      pop\n      pop\n      pop\n      pop\n      jump\t// out\n        /* \"#utility.yul\":20205:20525   */\n    tag_153:\n        /* \"#utility.yul\":20249:20255   */\n      0x00\n        /* \"#utility.yul\":20286:20287   */\n      0x02\n        /* \"#utility.yul\":20280:20284   */\n      dup3\n        /* \"#utility.yul\":20276:20288   */\n      div\n        /* \"#utility.yul\":20266:20288   */\n      swap1\n      pop\n        /* \"#utility.yul\":20333:20334   */\n      0x01\n        /* \"#utility.yul\":20327:20331   */\n      dup3\n        /* \"#utility.yul\":20323:20335   */\n      and\n        /* \"#utility.yul\":20354:20372   */\n      dup1\n        /* \"#utility.yul\":20344:20346   */\n      tag_555\n      jumpi\n        /* \"#utility.yul\":20410:20414   */\n      0x7f\n        /* \"#utility.yul\":20402:20408   */\n      dup3\n        /* \"#utility.yul\":20398:20415   */\n      and\n        /* \"#utility.yul\":20388:20415   */\n      swap2\n      pop\n        /* \"#utility.yul\":20344:20346   */\n    tag_555:\n        /* \"#utility.yul\":20472:20474   */\n      0x20\n        /* \"#utility.yul\":20464:20470   */\n      dup3\n        /* \"#utility.yul\":20461:20475   */\n      lt\n        /* \"#utility.yul\":20441:20459   */\n      dup2\n        /* \"#utility.yul\":20438:20476   */\n      eq\n        /* \"#utility.yul\":20435:20437   */\n      iszero\n      tag_556\n      jumpi\n        /* \"#utility.yul\":20491:20509   */\n      tag_557\n      tag_558\n      jump\t// in\n    tag_557:\n        /* \"#utility.yul\":20435:20437   */\n    tag_556:\n        /* \"#utility.yul\":20256:20525   */\n      pop\n      swap2\n      swap1\n      pop\n      jump\t// out\n        /* \"#utility.yul\":20531:20812   */\n    tag_515:\n        /* \"#utility.yul\":20614:20641   */\n      tag_560\n        /* \"#utility.yul\":20636:20640   */\n      dup3\n        /* \"#utility.yul\":20614:20641   */\n      tag_442\n      jump\t// in\n    tag_560:\n        /* \"#utility.yul\":20606:20612   */\n      dup2\n        /* \"#utility.yul\":20602:20642   */\n      add\n        /* \"#utility.yul\":20744:20750   */\n      dup2\n        /* \"#utility.yul\":20732:20742   */\n      dup2\n        /* \"#utility.yul\":20729:20751   */\n      lt\n        /* \"#utility.yul\":20708:20726   */\n      0xffffffffffffffff\n        /* \"#utility.yul\":20696:20706   */\n      dup3\n        /* \"#utility.yul\":20693:20727   */\n      gt\n        /* \"#utility.yul\":20690:20752   */\n      or\n        /* \"#utility.yul\":20687:20689   */\n      iszero\n      tag_561\n      jumpi\n        /* \"#utility.yul\":20755:20773   */\n      tag_562\n      tag_520\n      jump\t// in\n    tag_562:\n        /* \"#utility.yul\":20687:20689   */\n    tag_561:\n        /* \"#utility.yul\":20795:20805   */\n      dup1\n        /* \"#utility.yul\":20791:20793   */\n      0x40\n        /* \"#utility.yul\":20784:20806   */\n      mstore\n        /* \"#utility.yul\":20574:20812   */\n      pop\n      pop\n      pop\n      jump\t// out\n        /* \"#utility.yul\":20818:20918   */\n    tag_404:\n        /* \"#utility.yul\":20857:20864   */\n      0x00\n        /* \"#utility.yul\":20886:20912   */\n      tag_564\n        /* \"#utility.yul\":20906:20911   */\n      dup3\n        /* \"#utility.yul\":20886:20912   */\n      tag_565\n      jump\t// in\n    tag_564:\n        /* \"#utility.yul\":20875:20912   */\n      swap1\n      pop\n        /* \"#utility.yul\":20865:20918   */\n      swap2\n      swap1\n      pop\n      jump\t// out\n        /* \"#utility.yul\":20924:21018   */\n    tag_565:\n        /* \"#utility.yul\":20963:20970   */\n      0x00\n        /* \"#utility.yul\":20992:21012   */\n      tag_567\n        /* \"#utility.yul\":21006:21011   */\n      dup3\n        /* \"#utility.yul\":20992:21012   */\n      tag_568\n      jump\t// in\n    tag_567:\n        /* \"#utility.yul\":20981:21012   */\n      swap1\n      pop\n        /* \"#utility.yul\":20971:21018   */\n      swap2\n      swap1\n      pop\n      jump\t// out\n        /* \"#utility.yul\":21024:21103   */\n    tag_457:\n        /* \"#utility.yul\":21063:21070   */\n      0x00\n        /* \"#utility.yul\":21092:21097   */\n      dup2\n        /* \"#utility.yul\":21081:21097   */\n      swap1\n      pop\n        /* \"#utility.yul\":21071:21103   */\n      swap2\n      swap1\n      pop\n      jump\t// out\n        /* \"#utility.yul\":21109:21289   */\n    tag_534:\n        /* \"#utility.yul\":21157:21234   */\n      0x4e487b7100000000000000000000000000000000000000000000000000000000\n        /* \"#utility.yul\":21154:21155   */\n      0x00\n        /* \"#utility.yul\":21147:21235   */\n      mstore\n        /* \"#utility.yul\":21254:21258   */\n      0x11\n        /* \"#utility.yul\":21251:21252   */\n      0x04\n        /* \"#utility.yul\":21244:21259   */\n      mstore\n        /* \"#utility.yul\":21278:21282   */\n      0x24\n        /* \"#utility.yul\":21275:21276   */\n      0x00\n        /* \"#utility.yul\":21268:21283   */\n      revert\n        /* \"#utility.yul\":21295:21475   */\n    tag_571:\n        /* \"#utility.yul\":21343:21420   */\n      0x4e487b7100000000000000000000000000000000000000000000000000000000\n        /* \"#utility.yul\":21340:21341   */\n      0x00\n        /* \"#utility.yul\":21333:21421   */\n      mstore\n        /* \"#utility.yul\":21440:21444   */\n      0x21\n        /* \"#utility.yul\":21437:21438   */\n      0x04\n        /* \"#utility.yul\":21430:21445   */\n      mstore\n        /* \"#utility.yul\":21464:21468   */\n      0x24\n        /* \"#utility.yul\":21461:21462   */\n      0x00\n        /* \"#utility.yul\":21454:21469   */\n      revert\n        /* \"#utility.yul\":21481:21661   */\n    tag_558:\n        /* \"#utility.yul\":21529:21606   */\n      0x4e487b7100000000000000000000000000000000000000000000000000000000\n        /* \"#utility.yul\":21526:21527   */\n      0x00\n        /* \"#utility.yul\":21519:21607   */\n      mstore\n        /* \"#utility.yul\":21626:21630   */\n      0x22\n        /* \"#utility.yul\":21623:21624   */\n      0x04\n        /* \"#utility.yul\":21616:21631   */\n      mstore\n        /* \"#utility.yul\":21650:21654   */\n      0x24\n        /* \"#utility.yul\":21647:21648   */\n      0x00\n        /* \"#utility.yul\":21640:21655   */\n      revert\n        /* \"#utility.yul\":21667:21847   */\n    tag_520:\n        /* \"#utility.yul\":21715:21792   */\n      0x4e487b7100000000000000000000000000000000000000000000000000000000\n        /* \"#utility.yul\":21712:21713   */\n      0x00\n        /* \"#utility.yul\":21705:21793   */\n      mstore\n        /* \"#utility.yul\":21812:21816   */\n      0x41\n        /* \"#utility.yul\":21809:21810   */\n      0x04\n        /* \"#utility.yul\":21802:21817   */\n      mstore\n        /* \"#utility.yul\":21836:21840   */\n      0x24\n        /* \"#utility.yul\":21833:21834   */\n      0x00\n        /* \"#utility.yul\":21826:21841   */\n      revert\n        /* \"#utility.yul\":21853:21955   */\n    tag_442:\n        /* \"#utility.yul\":21894:21900   */\n      0x00\n        /* \"#utility.yul\":21945:21947   */\n      0x1f\n        /* \"#utility.yul\":21941:21948   */\n      not\n        /* \"#utility.yul\":21936:21938   */\n      0x1f\n        /* \"#utility.yul\":21929:21934   */\n      dup4\n        /* \"#utility.yul\":21925:21939   */\n      add\n        /* \"#utility.yul\":21921:21949   */\n      and\n        /* \"#utility.yul\":21911:21949   */\n      swap1\n      pop\n        /* \"#utility.yul\":21901:21955   */\n      swap2\n      swap1\n      pop\n      jump\t// out\n        /* \"#utility.yul\":21961:22055   */\n    tag_568:\n        /* \"#utility.yul\":21994:22002   */\n      0x00\n        /* \"#utility.yul\":22042:22047   */\n      dup2\n        /* \"#utility.yul\":22038:22040   */\n      0x60\n        /* \"#utility.yul\":22034:22048   */\n      shl\n        /* \"#utility.yul\":22013:22048   */\n      swap1\n      pop\n        /* \"#utility.yul\":22003:22055   */\n      swap2\n      swap1\n      pop\n      jump\t// out\n        /* \"#utility.yul\":22061:22181   */\n    tag_543:\n        /* \"#utility.yul\":22149:22150   */\n      0x07\n        /* \"#utility.yul\":22142:22147   */\n      dup2\n        /* \"#utility.yul\":22139:22151   */\n      lt\n        /* \"#utility.yul\":22129:22131   */\n      tag_578\n      jumpi\n        /* \"#utility.yul\":22155:22173   */\n      tag_579\n      tag_571\n      jump\t// in\n    tag_579:\n        /* \"#utility.yul\":22129:22131   */\n    tag_578:\n        /* \"#utility.yul\":22119:22181   */\n      pop\n      jump\t// out\n        /* \"#utility.yul\":22187:22309   */\n    tag_325:\n        /* \"#utility.yul\":22260:22284   */\n      tag_581\n        /* \"#utility.yul\":22278:22283   */\n      dup2\n        /* \"#utility.yul\":22260:22284   */\n      tag_399\n      jump\t// in\n    tag_581:\n        /* \"#utility.yul\":22253:22258   */\n      dup2\n        /* \"#utility.yul\":22250:22285   */\n      eq\n        /* \"#utility.yul\":22240:22242   */\n      tag_582\n      jumpi\n        /* \"#utility.yul\":22299:22300   */\n      0x00\n        /* \"#utility.yul\":22296:22297   */\n      dup1\n        /* \"#utility.yul\":22289:22301   */\n      revert\n        /* \"#utility.yul\":22240:22242   */\n    tag_582:\n        /* \"#utility.yul\":22230:22309   */\n      pop\n      jump\t// out\n        /* \"#utility.yul\":22315:22437   */\n    tag_329:\n        /* \"#utility.yul\":22388:22412   */\n      tag_584\n        /* \"#utility.yul\":22406:22411   */\n      dup2\n        /* \"#utility.yul\":22388:22412   */\n      tag_425\n      jump\t// in\n    tag_584:\n        /* \"#utility.yul\":22381:22386   */\n      dup2\n        /* \"#utility.yul\":22378:22413   */\n      eq\n        /* \"#utility.yul\":22368:22370   */\n      tag_585\n      jumpi\n        /* \"#utility.yul\":22427:22428   */\n      0x00\n        /* \"#utility.yul\":22424:22425   */\n      dup1\n        /* \"#utility.yul\":22417:22429   */\n      revert\n        /* \"#utility.yul\":22368:22370   */\n    tag_585:\n        /* \"#utility.yul\":22358:22437   */\n      pop\n      jump\t// out\n        /* \"#utility.yul\":22443:22557   */\n    tag_333:\n        /* \"#utility.yul\":22531:22532   */\n      0x07\n        /* \"#utility.yul\":22524:22529   */\n      dup2\n        /* \"#utility.yul\":22521:22533   */\n      lt\n        /* \"#utility.yul\":22511:22513   */\n      tag_587\n      jumpi\n        /* \"#utility.yul\":22547:22548   */\n      0x00\n        /* \"#utility.yul\":22544:22545   */\n      dup1\n        /* \"#utility.yul\":22537:22549   */\n      revert\n        /* \"#utility.yul\":22511:22513   */\n    tag_587:\n        /* \"#utility.yul\":22501:22557   */\n      pop\n      jump\t// out\n        /* \"#utility.yul\":22563:22685   */\n    tag_341:\n        /* \"#utility.yul\":22636:22660   */\n      tag_589\n        /* \"#utility.yul\":22654:22659   */\n      dup2\n        /* \"#utility.yul\":22636:22660   */\n      tag_452\n      jump\t// in\n    tag_589:\n        /* \"#utility.yul\":22629:22634   */\n      dup2\n        /* \"#utility.yul\":22626:22661   */\n      eq\n        /* \"#utility.yul\":22616:22618   */\n      tag_590\n      jumpi\n        /* \"#utility.yul\":22675:22676   */\n      0x00\n        /* \"#utility.yul\":22672:22673   */\n      dup1\n        /* \"#utility.yul\":22665:22677   */\n      revert\n        /* \"#utility.yul\":22616:22618   */\n    tag_590:\n        /* \"#utility.yul\":22606:22685   */\n      pop\n      jump\t// out\n\n    auxdata: 0xa264697066735822122024905876ca3a75ba212bda65d2399335dfd98c9de785c0e2aaaed68fe8fc6b6c64736f6c63430008040033\n}\n",
				"bytecode": {
					"linkReferences": {},
					"object": "608060405234801561001057600080fd5b5061379a806100206000396000f3fe608060405234801561001057600080fd5b506004361061018e5760003560e01c80636e9d4f8d116100de578063bbc53ef211610097578063dc9151c511610071578063dc9151c5146104bf578063e36d6f50146104ef578063eb9720081461051f578063f6f2ede01461053d5761018e565b8063bbc53ef21461044d578063c156254714610471578063da31f7221461048f5761018e565b80636e9d4f8d146103635780637111e7501461037f578063894fd813146103b25780638a1b9736146103ce578063adcfb4fc14610401578063b2cf18861461041d5761018e565b80632441f1f11161014b5780633a196986116101255780633a196986146102c55780634be422ae146102f95780635cb0122a146103035780636c608709146103335761018e565b80632441f1f1146102835780632ae231091461029f578063377b47a3146102bb5761018e565b8063011f2cce14610193578063026ff05e146101af57806307edbdc5146101cd5780630b4f12f6146102025780631c6932b61461021e57806323e583b414610253575b600080fd5b6101ad60048036038101906101a89190612e48565b61056d565b005b6101b761068f565b6040516101c49190613104565b60405180910390f35b6101e760048036038101906101e29190612dba565b610903565b6040516101f99695949392919061322c565b60405180910390f35b61021c60048036038101906102179190612e48565b610a9c565b005b61023860048036038101906102339190612cb8565b610e12565b60405161024a9695949392919061313a565b60405180910390f35b61026d60048036038101906102689190612cb8565b611007565b60405161027a919061311f565b60405180910390f35b61029d60048036038101906102989190612c2d565b611038565b005b6102b960048036038101906102b49190612cf4565b6110f6565b005b6102c3611432565b005b6102df60048036038101906102da9190612dba565b61166e565b6040516102f09594939291906131cb565b60405180910390f35b610301611854565b005b61031d60048036038101906103189190612c04565b6119c7565b60405161032a91906130e2565b60405180910390f35b61034d60048036038101906103489190612e48565b611a5e565b60405161035a91906130c7565b60405180910390f35b61037d60048036038101906103789190612e89565b611aa7565b005b61039960048036038101906103949190612c04565b611d00565b6040516103a99493929190613386565b60405180910390f35b6103cc60048036038101906103c79190612d43565b611d30565b005b6103e860048036038101906103e39190612c04565b611e9b565b6040516103f89493929190613386565b60405180910390f35b61041b60048036038101906104169190612e48565b611fbc565b005b61043760048036038101906104329190612e0c565b61236f565b604051610444919061311f565b60405180910390f35b6104556123a0565b604051610468979695949392919061329b565b60405180910390f35b61047961253c565b60405161048691906131a9565b60405180910390f35b6104a960048036038101906104a49190612de3565b6126d6565b6040516104b691906130e2565b60405180910390f35b6104d960048036038101906104d49190612c69565b6127ee565b6040516104e6919061311f565b60405180910390f35b61050960048036038101906105049190612de3565b61282c565b60405161051691906130e2565b60405180910390f35b610527612907565b60405161053491906131a9565b60405180910390f35b61055760048036038101906105529190612c04565b6129d9565b6040516105649190613104565b60405180910390f35b600460003373ffffffffffffffffffffffffffffffffffffffff1673ffffffffffffffffffffffffffffffffffffffff16815260200190815260200160002060030160009054906101000a900460ff166040518060400160405280600581526020017f574d552d3200000000000000000000000000000000000000000000000000000081525090610634576040517f08c379a000000000000000000000000000000000000000000000000000000000815260040161062b91906131a9565b60405180910390fd5b5080600460003373ffffffffffffffffffffffffffffffffffffffff1673ffffffffffffffffffffffffffffffffffffffff168152602001908152602001600020600401908051906020019061068b929190612a65565b5050565b6000600460003373ffffffffffffffffffffffffffffffffffffffff1673ffffffffffffffffffffffffffffffffffffffff16815260200190815260200160002060010160009054906101000a900460ff166040518060400160405280600581526020017f574d552d3500000000000000000000000000000000000000000000000000000081525090610758576040517f08c379a000000000000000000000000000000000000000000000000000000000815260040161074f91906131a9565b60405180910390fd5b506000600460003373ffffffffffffffffffffffffffffffffffffffff1673ffffffffffffffffffffffffffffffffffffffff16815260200190815260200160002060000180546107a890613590565b80601f01602080910402602001604051908101604052809291908181526020018280546107d490613590565b80156108215780601f106107f657610100808354040283529160200191610821565b820191906000526020600020905b81548152906001019060200180831161080457829003601f168201915b5050505050905060058160405161083891906130b0565b908152602001604051809103902060006101000a81549073ffffffffffffffffffffffffffffffffffffffff0219169055600460003373ffffffffffffffffffffffffffffffffffffffff1673ffffffffffffffffffffffffffffffffffffffff168152602001908152602001600020600080820160006108b99190612aeb565b6001820160006101000a81549060ff021916905560028201600090556003820160006101000a81549060ff02191690556004820160006108f99190612aeb565b5050600191505090565b600060205280600052604060002060009150905080600001805461092690613590565b80601f016020809104026020016040519081016040528092919081815260200182805461095290613590565b801561099f5780601f106109745761010080835404028352916020019161099f565b820191906000526020600020905b81548152906001019060200180831161098257829003601f168201915b5050505050908060010160009054906101000a900473ffffffffffffffffffffffffffffffffffffffff16908060020154908060030160009054906101000a900473ffffffffffffffffffffffffffffffffffffffff1690806004018054610a0690613590565b80601f0160208091040260200160405190810160405280929190818152602001828054610a3290613590565b8015610a7f5780601f10610a5457610100808354040283529160200191610a7f565b820191906000526020600020905b815481529060010190602001808311610a6257829003601f168201915b5050505050908060050160009054906101000a900460ff16905086565b600460003373ffffffffffffffffffffffffffffffffffffffff1673ffffffffffffffffffffffffffffffffffffffff16815260200190815260200160002060030160009054906101000a900460ff166040518060400160405280600581526020017f574d552d3200000000000000000000000000000000000000000000000000000081525090610b63576040517f08c379a0000000000000000000000000000000000000000000000000000000008152600401610b5a91906131a9565b60405180910390fd5b50600073ffffffffffffffffffffffffffffffffffffffff16600582604051610b8c91906130b0565b908152602001604051809103902060009054906101000a900473ffffffffffffffffffffffffffffffffffffffff1673ffffffffffffffffffffffffffffffffffffffff16146040518060400160405280600581526020017f574d552d3600000000000000000000000000000000000000000000000000000081525090610c49576040517f08c379a0000000000000000000000000000000000000000000000000000000008152600401610c4091906131a9565b60405180910390fd5b506000600460003373ffffffffffffffffffffffffffffffffffffffff1673ffffffffffffffffffffffffffffffffffffffff1681526020019081526020016000206000018054610c9990613590565b80601f0160208091040260200160405190810160405280929190818152602001828054610cc590613590565b8015610d125780601f10610ce757610100808354040283529160200191610d12565b820191906000526020600020905b815481529060010190602001808311610cf557829003601f168201915b50505050509050600581604051610d2991906130b0565b908152602001604051809103902060006101000a81549073ffffffffffffffffffffffffffffffffffffffff021916905533600583604051610d6b91906130b0565b908152602001604051809103902060006101000a81548173ffffffffffffffffffffffffffffffffffffffff021916908373ffffffffffffffffffffffffffffffffffffffff16021790555081600460003373ffffffffffffffffffffffffffffffffffffffff1673ffffffffffffffffffffffffffffffffffffffff1681526020019081526020016000206000019080519060200190610e0d929190612a65565b505050565b60008060006060600060606000610e298989612a32565b90508060008083815260200190815260200160002060010160009054906101000a900473ffffffffffffffffffffffffffffffffffffffff166000808481526020019081526020016000206002015460008085815260200190815260200160002060000160008086815260200190815260200160002060030160009054906101000a900473ffffffffffffffffffffffffffffffffffffffff16600080878152602001908152602001600020600401828054610ee490613590565b80601f0160208091040260200160405190810160405280929190818152602001828054610f1090613590565b8015610f5d5780601f10610f3257610100808354040283529160200191610f5d565b820191906000526020600020905b815481529060010190602001808311610f4057829003601f168201915b50505050509250808054610f7090613590565b80601f0160208091040260200160405190810160405280929190818152602001828054610f9c90613590565b8015610fe95780601f10610fbe57610100808354040283529160200191610fe9565b820191906000526020600020905b815481529060010190602001808311610fcc57829003601f168201915b50505050509050965096509650965096509650509295509295509295565b6001602052816000526040600020818154811061102357600080fd5b90600052602060002001600091509150505481565b8160008083815260200190815260200160002060030160006101000a81548173ffffffffffffffffffffffffffffffffffffffff021916908373ffffffffffffffffffffffffffffffffffffffff160217905550600160008373ffffffffffffffffffffffffffffffffffffffff1673ffffffffffffffffffffffffffffffffffffffff1681526020019081526020016000208190806001815401808255809150506001900390600052602060002001600090919091909150555050565b60006111028484612a32565b9050600460003373ffffffffffffffffffffffffffffffffffffffff1673ffffffffffffffffffffffffffffffffffffffff16815260200190815260200160002060030160009054906101000a900460ff1680156111c057503373ffffffffffffffffffffffffffffffffffffffff1660008083815260200190815260200160002060030160009054906101000a900473ffffffffffffffffffffffffffffffffffffffff1673ffffffffffffffffffffffffffffffffffffffff16145b6040518060400160405280600581526020017f574d552d3200000000000000000000000000000000000000000000000000000081525090611237576040517f08c379a000000000000000000000000000000000000000000000000000000000815260040161122e91906131a9565b60405180910390fd5b508160008083815260200190815260200160002060050160006101000a81548160ff02191690836006811115611296577f4e487b7100000000000000000000000000000000000000000000000000000000600052602160045260246000fd5b0217905550600260008360068111156112d8577f4e487b7100000000000000000000000000000000000000000000000000000000600052602160045260246000fd5b6006811115611310577f4e487b7100000000000000000000000000000000000000000000000000000000600052602160045260246000fd5b8152602001908152602001600020819080600181540180825580915050600190039060005260206000200160009091909190915055600360003373ffffffffffffffffffffffffffffffffffffffff1673ffffffffffffffffffffffffffffffffffffffff16815260200190815260200160002060008360068111156113bf577f4e487b7100000000000000000000000000000000000000000000000000000000600052602160045260246000fd5b60068111156113f7577f4e487b7100000000000000000000000000000000000000000000000000000000600052602160045260246000fd5b815260200190815260200160002081908060018154018082558091505060019003906000526020600020016000909190919091505550505050565b600460003373ffffffffffffffffffffffffffffffffffffffff1673ffffffffffffffffffffffffffffffffffffffff16815260200190815260200160002060010160009054906101000a900460ff166040518060400160405280600581526020017f574d552d31000000000000000000000000000000000000000000000000000000815250906114f9576040517f08c379a00000000000000000000000000000000000000000000000000000000081526004016114f091906131a9565b60405180910390fd5b50600460003373ffffffffffffffffffffffffffffffffffffffff1673ffffffffffffffffffffffffffffffffffffffff16815260200190815260200160002060030160009054906101000a900460ff16156040518060400160405280600581526020017f574d552d33000000000000000000000000000000000000000000000000000000815250906115c2576040517f08c379a00000000000000000000000000000000000000000000000000000000081526004016115b991906131a9565b60405180910390fd5b506001600460003373ffffffffffffffffffffffffffffffffffffffff1673ffffffffffffffffffffffffffffffffffffffff16815260200190815260200160002060030160006101000a81548160ff0219169083151502179055503373ffffffffffffffffffffffffffffffffffffffff167f364034de78a61b6190b049e2c5437370b27906bfed607993a5bc2dda23c16cff42604051611664919061336b565b60405180910390a2565b606060008060006060600086905060008082815260200190815260200160002060000160008083815260200190815260200160002060010160009054906101000a900473ffffffffffffffffffffffffffffffffffffffff166000808481526020019081526020016000206002015460008085815260200190815260200160002060030160009054906101000a900473ffffffffffffffffffffffffffffffffffffffff1660008086815260200190815260200160002060040184805461173490613590565b80601f016020809104026020016040519081016040528092919081815260200182805461176090613590565b80156117ad5780601f10611782576101008083540402835291602001916117ad565b820191906000526020600020905b81548152906001019060200180831161179057829003601f168201915b505050505094508080546117c090613590565b80601f01602080910402602001604051908101604052809291908181526020018280546117ec90613590565b80156118395780601f1061180e57610100808354040283529160200191611839565b820191906000526020600020905b81548152906001019060200180831161181c57829003601f168201915b50505050509050955095509550955095505091939590929450565b600460003373ffffffffffffffffffffffffffffffffffffffff1673ffffffffffffffffffffffffffffffffffffffff16815260200190815260200160002060030160009054906101000a900460ff166040518060400160405280600581526020017f574d552d320000000000000000000000000000000000000000000000000000008152509061191b576040517f08c379a000000000000000000000000000000000000000000000000000000000815260040161191291906131a9565b60405180910390fd5b506000600460003373ffffffffffffffffffffffffffffffffffffffff1673ffffffffffffffffffffffffffffffffffffffff16815260200190815260200160002060030160006101000a81548160ff0219169083151502179055503373ffffffffffffffffffffffffffffffffffffffff167f70d1177aa26c67f6b2fdb43400cfd7ff0c23a8712301abe5aba2ee3d89e28a10426040516119bd919061336b565b60405180910390a2565b6060600160008373ffffffffffffffffffffffffffffffffffffffff1673ffffffffffffffffffffffffffffffffffffffff168152602001908152602001600020805480602002602001604051908101604052809291908181526020018280548015611a5257602002820191906000526020600020905b815481526020019060010190808311611a3e575b50505050509050919050565b6005818051602081018201805184825260208301602085012081835280955050505050506000915054906101000a900473ffffffffffffffffffffffffffffffffffffffff1681565b600460003373ffffffffffffffffffffffffffffffffffffffff1673ffffffffffffffffffffffffffffffffffffffff16815260200190815260200160002060030160009054906101000a900460ff166040518060400160405280600581526020017f574d552d3200000000000000000000000000000000000000000000000000000081525090611b6e576040517f08c379a0000000000000000000000000000000000000000000000000000000008152600401611b6591906131a9565b60405180910390fd5b506000611b7b8484612a32565b9050846000808381526020019081526020016000206000019080519060200190611ba6929190612a65565b508360008083815260200190815260200160002060010160006101000a81548173ffffffffffffffffffffffffffffffffffffffff021916908373ffffffffffffffffffffffffffffffffffffffff16021790555082600080838152602001908152602001600020600201819055503360008083815260200190815260200160002060030160006101000a81548173ffffffffffffffffffffffffffffffffffffffff021916908373ffffffffffffffffffffffffffffffffffffffff160217905550816000808381526020019081526020016000206004019080519060200190611c92929190612a65565b50600160003373ffffffffffffffffffffffffffffffffffffffff1673ffffffffffffffffffffffffffffffffffffffff1681526020019081526020016000208190806001815401808255809150506001900390600052602060002001600090919091909150555050505050565b60066020528060005260406000206000915090508060000154908060010154908060020154908060030154905084565b83600660008773ffffffffffffffffffffffffffffffffffffffff1673ffffffffffffffffffffffffffffffffffffffff1681526020019081526020016000206000016000828254611d829190613481565b9250508190555082600660008773ffffffffffffffffffffffffffffffffffffffff1673ffffffffffffffffffffffffffffffffffffffff1681526020019081526020016000206001016000828254611ddb9190613481565b9250508190555081600660008773ffffffffffffffffffffffffffffffffffffffff1673ffffffffffffffffffffffffffffffffffffffff1681526020019081526020016000206002016000828254611e349190613481565b9250508190555080600660008773ffffffffffffffffffffffffffffffffffffffff1673ffffffffffffffffffffffffffffffffffffffff1681526020019081526020016000206003016000828254611e8d9190613481565b925050819055505050505050565b600080600080600660008673ffffffffffffffffffffffffffffffffffffffff1673ffffffffffffffffffffffffffffffffffffffff16815260200190815260200160002060020154600660008773ffffffffffffffffffffffffffffffffffffffff1673ffffffffffffffffffffffffffffffffffffffff16815260200190815260200160002060030154600660008873ffffffffffffffffffffffffffffffffffffffff1673ffffffffffffffffffffffffffffffffffffffff16815260200190815260200160002060000154600660008973ffffffffffffffffffffffffffffffffffffffff1673ffffffffffffffffffffffffffffffffffffffff1681526020019081526020016000206001015493509350935093509193509193565b600460003373ffffffffffffffffffffffffffffffffffffffff1673ffffffffffffffffffffffffffffffffffffffff16815260200190815260200160002060010160009054906101000a900460ff16156040518060400160405280600581526020017f574d552d3400000000000000000000000000000000000000000000000000000081525090612084576040517f08c379a000000000000000000000000000000000000000000000000000000000815260040161207b91906131a9565b60405180910390fd5b50600073ffffffffffffffffffffffffffffffffffffffff166005826040516120ad91906130b0565b908152602001604051809103902060009054906101000a900473ffffffffffffffffffffffffffffffffffffffff1673ffffffffffffffffffffffffffffffffffffffff16146040518060400160405280600581526020017f574d552d360000000000000000000000000000000000000000000000000000008152509061216a576040517f08c379a000000000000000000000000000000000000000000000000000000000815260040161216191906131a9565b60405180910390fd5b5080600460003373ffffffffffffffffffffffffffffffffffffffff1673ffffffffffffffffffffffffffffffffffffffff16815260200190815260200160002060000190805190602001906121c1929190612a65565b506001600460003373ffffffffffffffffffffffffffffffffffffffff1673ffffffffffffffffffffffffffffffffffffffff16815260200190815260200160002060010160006101000a81548160ff02191690831515021790555042600460003373ffffffffffffffffffffffffffffffffffffffff1673ffffffffffffffffffffffffffffffffffffffff168152602001908152602001600020600201819055506001600460003373ffffffffffffffffffffffffffffffffffffffff1673ffffffffffffffffffffffffffffffffffffffff16815260200190815260200160002060030160006101000a81548160ff021916908315150217905550336005826040516122d091906130b0565b908152602001604051809103902060006101000a81548173ffffffffffffffffffffffffffffffffffffffff021916908373ffffffffffffffffffffffffffffffffffffffff1602179055503373ffffffffffffffffffffffffffffffffffffffff167fee20c2c019dcbca8d08ff74c4ce6f465e02d3611905c9aceeb76a0c8e429af2f824260405161236492919061333b565b60405180910390a250565b6002602052816000526040600020818154811061238b57600080fd5b90600052602060002001600091509150505481565b60608060608060608060606040518060400160405280600681526020017f41564154415200000000000000000000000000000000000000000000000000008152506040518060400160405280600781526020017f50494354555245000000000000000000000000000000000000000000000000008152506040518060400160405280600e81526020017f47454e455241544956455f4152540000000000000000000000000000000000008152506040518060400160405280600381526020017f41525400000000000000000000000000000000000000000000000000000000008152506040518060400160405280600c81526020017f434f4c4c45435449424c455300000000000000000000000000000000000000008152506040518060400160405280600881526020017f47414d49464945440000000000000000000000000000000000000000000000008152506040518060400160405280600581526020017f4f54484552000000000000000000000000000000000000000000000000000000815250965096509650965096509650965090919293949596565b6060600460003373ffffffffffffffffffffffffffffffffffffffff1673ffffffffffffffffffffffffffffffffffffffff16815260200190815260200160002060030160009054906101000a900460ff166040518060400160405280600581526020017f574d552d3200000000000000000000000000000000000000000000000000000081525090612605576040517f08c379a00000000000000000000000000000000000000000000000000000000081526004016125fc91906131a9565b60405180910390fd5b50600460003373ffffffffffffffffffffffffffffffffffffffff1673ffffffffffffffffffffffffffffffffffffffff168152602001908152602001600020600001805461265390613590565b80601f016020809104026020016040519081016040528092919081815260200182805461267f90613590565b80156126cc5780601f106126a1576101008083540402835291602001916126cc565b820191906000526020600020905b8154815290600101906020018083116126af57829003601f168201915b5050505050905090565b6060600360003373ffffffffffffffffffffffffffffffffffffffff1673ffffffffffffffffffffffffffffffffffffffff1681526020019081526020016000206000836006811115612752577f4e487b7100000000000000000000000000000000000000000000000000000000600052602160045260246000fd5b600681111561278a577f4e487b7100000000000000000000000000000000000000000000000000000000600052602160045260246000fd5b81526020019081526020016000208054806020026020016040519081016040528092919081815260200182805480156127e257602002820191906000526020600020905b8154815260200190600101908083116127ce575b50505050509050919050565b6003602052826000526040600020602052816000526040600020818154811061281657600080fd5b9060005260206000200160009250925050505481565b60606002600083600681111561286b577f4e487b7100000000000000000000000000000000000000000000000000000000600052602160045260246000fd5b60068111156128a3577f4e487b7100000000000000000000000000000000000000000000000000000000600052602160045260246000fd5b81526020019081526020016000208054806020026020016040519081016040528092919081815260200182805480156128fb57602002820191906000526020600020905b8154815260200190600101908083116128e7575b50505050509050919050565b6060600460003373ffffffffffffffffffffffffffffffffffffffff1673ffffffffffffffffffffffffffffffffffffffff168152602001908152602001600020600401805461295690613590565b80601f016020809104026020016040519081016040528092919081815260200182805461298290613590565b80156129cf5780601f106129a4576101008083540402835291602001916129cf565b820191906000526020600020905b8154815290600101906020018083116129b257829003601f168201915b5050505050905090565b6000600460008373ffffffffffffffffffffffffffffffffffffffff1673ffffffffffffffffffffffffffffffffffffffff16815260200190815260200160002060030160009054906101000a900460ff169050919050565b60008282604051602001612a47929190613084565b60405160208183030381529060405280519060200120905092915050565b828054612a7190613590565b90600052602060002090601f016020900481019282612a935760008555612ada565b82601f10612aac57805160ff1916838001178555612ada565b82800160010185558215612ada579182015b82811115612ad9578251825591602001919060010190612abe565b5b509050612ae79190612b2b565b5090565b508054612af790613590565b6000825580601f10612b095750612b28565b601f016020900490600052602060002090810190612b279190612b2b565b5b50565b5b80821115612b44576000816000905550600101612b2c565b5090565b6000612b5b612b56846133f0565b6133cb565b905082815260208101848484011115612b7357600080fd5b612b7e84828561354e565b509392505050565b600081359050612b958161370f565b92915050565b600081359050612baa81613726565b92915050565b600081359050612bbf8161373d565b92915050565b600082601f830112612bd657600080fd5b8135612be6848260208601612b48565b91505092915050565b600081359050612bfe8161374d565b92915050565b600060208284031215612c1657600080fd5b6000612c2484828501612b86565b91505092915050565b60008060408385031215612c4057600080fd5b6000612c4e85828601612b86565b9250506020612c5f85828601612b9b565b9150509250929050565b600080600060608486031215612c7e57600080fd5b6000612c8c86828701612b86565b9350506020612c9d86828701612bb0565b9250506040612cae86828701612bef565b9150509250925092565b60008060408385031215612ccb57600080fd5b6000612cd985828601612b86565b9250506020612cea85828601612bef565b9150509250929050565b600080600060608486031215612d0957600080fd5b6000612d1786828701612b86565b9350506020612d2886828701612bef565b9250506040612d3986828701612bb0565b9150509250925092565b600080600080600060a08688031215612d5b57600080fd5b6000612d6988828901612b86565b9550506020612d7a88828901612bef565b9450506040612d8b88828901612bef565b9350506060612d9c88828901612bef565b9250506080612dad88828901612bef565b9150509295509295909350565b600060208284031215612dcc57600080fd5b6000612dda84828501612b9b565b91505092915050565b600060208284031215612df557600080fd5b6000612e0384828501612bb0565b91505092915050565b60008060408385031215612e1f57600080fd5b6000612e2d85828601612bb0565b9250506020612e3e85828601612bef565b9150509250929050565b600060208284031215612e5a57600080fd5b600082013567ffffffffffffffff811115612e7457600080fd5b612e8084828501612bc5565b91505092915050565b60008060008060808587031215612e9f57600080fd5b600085013567ffffffffffffffff811115612eb957600080fd5b612ec587828801612bc5565b9450506020612ed687828801612b86565b9350506040612ee787828801612bef565b925050606085013567ffffffffffffffff811115612f0457600080fd5b612f1087828801612bc5565b91505092959194509250565b6000612f288383612fc7565b60208301905092915050565b612f3d816134d7565b82525050565b612f54612f4f826134d7565b6135f3565b82525050565b6000612f6582613431565b612f6f8185613454565b9350612f7a83613421565b8060005b83811015612fab578151612f928882612f1c565b9750612f9d83613447565b925050600181019050612f7e565b5085935050505092915050565b612fc1816134e9565b82525050565b612fd0816134f5565b82525050565b612fdf816134f5565b82525050565b612fee8161353c565b82525050565b6000612fff8261343c565b6130098185613465565b935061301981856020860161355d565b613022816136dd565b840191505092915050565b60006130388261343c565b6130428185613476565b935061305281856020860161355d565b80840191505092915050565b61306781613532565b82525050565b61307e61307982613532565b613617565b82525050565b60006130908285612f43565b6014820191506130a0828461306d565b6020820191508190509392505050565b60006130bc828461302d565b915081905092915050565b60006020820190506130dc6000830184612f34565b92915050565b600060208201905081810360008301526130fc8184612f5a565b905092915050565b60006020820190506131196000830184612fb8565b92915050565b60006020820190506131346000830184612fd6565b92915050565b600060c08201905061314f6000830189612fd6565b61315c6020830188612f34565b613169604083018761305e565b818103606083015261317b8186612ff4565b905061318a6080830185612f34565b81810360a083015261319c8184612ff4565b9050979650505050505050565b600060208201905081810360008301526131c38184612ff4565b905092915050565b600060a08201905081810360008301526131e58188612ff4565b90506131f46020830187612f34565b613201604083018661305e565b61320e6060830185612f34565b81810360808301526132208184612ff4565b90509695505050505050565b600060c08201905081810360008301526132468189612ff4565b90506132556020830188612f34565b613262604083018761305e565b61326f6060830186612f34565b81810360808301526132818185612ff4565b905061329060a0830184612fe5565b979650505050505050565b600060e08201905081810360008301526132b5818a612ff4565b905081810360208301526132c98189612ff4565b905081810360408301526132dd8188612ff4565b905081810360608301526132f18187612ff4565b905081810360808301526133058186612ff4565b905081810360a08301526133198185612ff4565b905081810360c083015261332d8184612ff4565b905098975050505050505050565b600060408201905081810360008301526133558185612ff4565b9050613364602083018461305e565b9392505050565b6000602082019050613380600083018461305e565b92915050565b600060808201905061339b600083018761305e565b6133a8602083018661305e565b6133b5604083018561305e565b6133c2606083018461305e565b95945050505050565b60006133d56133e6565b90506133e182826135c2565b919050565b6000604051905090565b600067ffffffffffffffff82111561340b5761340a6136ae565b5b613414826136dd565b9050602081019050919050565b6000819050602082019050919050565b600081519050919050565b600081519050919050565b6000602082019050919050565b600082825260208201905092915050565b600082825260208201905092915050565b600081905092915050565b600061348c82613532565b915061349783613532565b9250827fffffffffffffffffffffffffffffffffffffffffffffffffffffffffffffffff038211156134cc576134cb613621565b5b828201905092915050565b60006134e282613512565b9050919050565b60008115159050919050565b6000819050919050565b600081905061350d826136fb565b919050565b600073ffffffffffffffffffffffffffffffffffffffff82169050919050565b6000819050919050565b6000613547826134ff565b9050919050565b82818337600083830152505050565b60005b8381101561357b578082015181840152602081019050613560565b8381111561358a576000848401525b50505050565b600060028204905060018216806135a857607f821691505b602082108114156135bc576135bb61367f565b5b50919050565b6135cb826136dd565b810181811067ffffffffffffffff821117156135ea576135e96136ae565b5b80604052505050565b60006135fe82613605565b9050919050565b6000613610826136ee565b9050919050565b6000819050919050565b7f4e487b7100000000000000000000000000000000000000000000000000000000600052601160045260246000fd5b7f4e487b7100000000000000000000000000000000000000000000000000000000600052602160045260246000fd5b7f4e487b7100000000000000000000000000000000000000000000000000000000600052602260045260246000fd5b7f4e487b7100000000000000000000000000000000000000000000000000000000600052604160045260246000fd5b6000601f19601f8301169050919050565b60008160601b9050919050565b6007811061370c5761370b613650565b5b50565b613718816134d7565b811461372357600080fd5b50565b61372f816134f5565b811461373a57600080fd5b50565b6007811061374a57600080fd5b50565b61375681613532565b811461376157600080fd5b5056fea264697066735822122024905876ca3a75ba212bda65d2399335dfd98c9de785c0e2aaaed68fe8fc6b6c64736f6c63430008040033",
					"opcodes": "PUSH1 0x80 PUSH1 0x40 MSTORE CALLVALUE DUP1 ISZERO PUSH2 0x10 JUMPI PUSH1 0x0 DUP1 REVERT JUMPDEST POP PUSH2 0x379A DUP1 PUSH2 0x20 PUSH1 0x0 CODECOPY PUSH1 0x0 RETURN INVALID PUSH1 0x80 PUSH1 0x40 MSTORE CALLVALUE DUP1 ISZERO PUSH2 0x10 JUMPI PUSH1 0x0 DUP1 REVERT JUMPDEST POP PUSH1 0x4 CALLDATASIZE LT PUSH2 0x18E JUMPI PUSH1 0x0 CALLDATALOAD PUSH1 0xE0 SHR DUP1 PUSH4 0x6E9D4F8D GT PUSH2 0xDE JUMPI DUP1 PUSH4 0xBBC53EF2 GT PUSH2 0x97 JUMPI DUP1 PUSH4 0xDC9151C5 GT PUSH2 0x71 JUMPI DUP1 PUSH4 0xDC9151C5 EQ PUSH2 0x4BF JUMPI DUP1 PUSH4 0xE36D6F50 EQ PUSH2 0x4EF JUMPI DUP1 PUSH4 0xEB972008 EQ PUSH2 0x51F JUMPI DUP1 PUSH4 0xF6F2EDE0 EQ PUSH2 0x53D JUMPI PUSH2 0x18E JUMP JUMPDEST DUP1 PUSH4 0xBBC53EF2 EQ PUSH2 0x44D JUMPI DUP1 PUSH4 0xC1562547 EQ PUSH2 0x471 JUMPI DUP1 PUSH4 0xDA31F722 EQ PUSH2 0x48F JUMPI PUSH2 0x18E JUMP JUMPDEST DUP1 PUSH4 0x6E9D4F8D EQ PUSH2 0x363 JUMPI DUP1 PUSH4 0x7111E750 EQ PUSH2 0x37F JUMPI DUP1 PUSH4 0x894FD813 EQ PUSH2 0x3B2 JUMPI DUP1 PUSH4 0x8A1B9736 EQ PUSH2 0x3CE JUMPI DUP1 PUSH4 0xADCFB4FC EQ PUSH2 0x401 JUMPI DUP1 PUSH4 0xB2CF1886 EQ PUSH2 0x41D JUMPI PUSH2 0x18E JUMP JUMPDEST DUP1 PUSH4 0x2441F1F1 GT PUSH2 0x14B JUMPI DUP1 PUSH4 0x3A196986 GT PUSH2 0x125 JUMPI DUP1 PUSH4 0x3A196986 EQ PUSH2 0x2C5 JUMPI DUP1 PUSH4 0x4BE422AE EQ PUSH2 0x2F9 JUMPI DUP1 PUSH4 0x5CB0122A EQ PUSH2 0x303 JUMPI DUP1 PUSH4 0x6C608709 EQ PUSH2 0x333 JUMPI PUSH2 0x18E JUMP JUMPDEST DUP1 PUSH4 0x2441F1F1 EQ PUSH2 0x283 JUMPI DUP1 PUSH4 0x2AE23109 EQ PUSH2 0x29F JUMPI DUP1 PUSH4 0x377B47A3 EQ PUSH2 0x2BB JUMPI PUSH2 0x18E JUMP JUMPDEST DUP1 PUSH4 0x11F2CCE EQ PUSH2 0x193 JUMPI DUP1 PUSH4 0x26FF05E EQ PUSH2 0x1AF JUMPI DUP1 PUSH4 0x7EDBDC5 EQ PUSH2 0x1CD JUMPI DUP1 PUSH4 0xB4F12F6 EQ PUSH2 0x202 JUMPI DUP1 PUSH4 0x1C6932B6 EQ PUSH2 0x21E JUMPI DUP1 PUSH4 0x23E583B4 EQ PUSH2 0x253 JUMPI JUMPDEST PUSH1 0x0 DUP1 REVERT JUMPDEST PUSH2 0x1AD PUSH1 0x4 DUP1 CALLDATASIZE SUB DUP2 ADD SWAP1 PUSH2 0x1A8 SWAP2 SWAP1 PUSH2 0x2E48 JUMP JUMPDEST PUSH2 0x56D JUMP JUMPDEST STOP JUMPDEST PUSH2 0x1B7 PUSH2 0x68F JUMP JUMPDEST PUSH1 0x40 MLOAD PUSH2 0x1C4 SWAP2 SWAP1 PUSH2 0x3104 JUMP JUMPDEST PUSH1 0x40 MLOAD DUP1 SWAP2 SUB SWAP1 RETURN JUMPDEST PUSH2 0x1E7 PUSH1 0x4 DUP1 CALLDATASIZE SUB DUP2 ADD SWAP1 PUSH2 0x1E2 SWAP2 SWAP1 PUSH2 0x2DBA JUMP JUMPDEST PUSH2 0x903 JUMP JUMPDEST PUSH1 0x40 MLOAD PUSH2 0x1F9 SWAP7 SWAP6 SWAP5 SWAP4 SWAP3 SWAP2 SWAP1 PUSH2 0x322C JUMP JUMPDEST PUSH1 0x40 MLOAD DUP1 SWAP2 SUB SWAP1 RETURN JUMPDEST PUSH2 0x21C PUSH1 0x4 DUP1 CALLDATASIZE SUB DUP2 ADD SWAP1 PUSH2 0x217 SWAP2 SWAP1 PUSH2 0x2E48 JUMP JUMPDEST PUSH2 0xA9C JUMP JUMPDEST STOP JUMPDEST PUSH2 0x238 PUSH1 0x4 DUP1 CALLDATASIZE SUB DUP2 ADD SWAP1 PUSH2 0x233 SWAP2 SWAP1 PUSH2 0x2CB8 JUMP JUMPDEST PUSH2 0xE12 JUMP JUMPDEST PUSH1 0x40 MLOAD PUSH2 0x24A SWAP7 SWAP6 SWAP5 SWAP4 SWAP3 SWAP2 SWAP1 PUSH2 0x313A JUMP JUMPDEST PUSH1 0x40 MLOAD DUP1 SWAP2 SUB SWAP1 RETURN JUMPDEST PUSH2 0x26D PUSH1 0x4 DUP1 CALLDATASIZE SUB DUP2 ADD SWAP1 PUSH2 0x268 SWAP2 SWAP1 PUSH2 0x2CB8 JUMP JUMPDEST PUSH2 0x1007 JUMP JUMPDEST PUSH1 0x40 MLOAD PUSH2 0x27A SWAP2 SWAP1 PUSH2 0x311F JUMP JUMPDEST PUSH1 0x40 MLOAD DUP1 SWAP2 SUB SWAP1 RETURN JUMPDEST PUSH2 0x29D PUSH1 0x4 DUP1 CALLDATASIZE SUB DUP2 ADD SWAP1 PUSH2 0x298 SWAP2 SWAP1 PUSH2 0x2C2D JUMP JUMPDEST PUSH2 0x1038 JUMP JUMPDEST STOP JUMPDEST PUSH2 0x2B9 PUSH1 0x4 DUP1 CALLDATASIZE SUB DUP2 ADD SWAP1 PUSH2 0x2B4 SWAP2 SWAP1 PUSH2 0x2CF4 JUMP JUMPDEST PUSH2 0x10F6 JUMP JUMPDEST STOP JUMPDEST PUSH2 0x2C3 PUSH2 0x1432 JUMP JUMPDEST STOP JUMPDEST PUSH2 0x2DF PUSH1 0x4 DUP1 CALLDATASIZE SUB DUP2 ADD SWAP1 PUSH2 0x2DA SWAP2 SWAP1 PUSH2 0x2DBA JUMP JUMPDEST PUSH2 0x166E JUMP JUMPDEST PUSH1 0x40 MLOAD PUSH2 0x2F0 SWAP6 SWAP5 SWAP4 SWAP3 SWAP2 SWAP1 PUSH2 0x31CB JUMP JUMPDEST PUSH1 0x40 MLOAD DUP1 SWAP2 SUB SWAP1 RETURN JUMPDEST PUSH2 0x301 PUSH2 0x1854 JUMP JUMPDEST STOP JUMPDEST PUSH2 0x31D PUSH1 0x4 DUP1 CALLDATASIZE SUB DUP2 ADD SWAP1 PUSH2 0x318 SWAP2 SWAP1 PUSH2 0x2C04 JUMP JUMPDEST PUSH2 0x19C7 JUMP JUMPDEST PUSH1 0x40 MLOAD PUSH2 0x32A SWAP2 SWAP1 PUSH2 0x30E2 JUMP JUMPDEST PUSH1 0x40 MLOAD DUP1 SWAP2 SUB SWAP1 RETURN JUMPDEST PUSH2 0x34D PUSH1 0x4 DUP1 CALLDATASIZE SUB DUP2 ADD SWAP1 PUSH2 0x348 SWAP2 SWAP1 PUSH2 0x2E48 JUMP JUMPDEST PUSH2 0x1A5E JUMP JUMPDEST PUSH1 0x40 MLOAD PUSH2 0x35A SWAP2 SWAP1 PUSH2 0x30C7 JUMP JUMPDEST PUSH1 0x40 MLOAD DUP1 SWAP2 SUB SWAP1 RETURN JUMPDEST PUSH2 0x37D PUSH1 0x4 DUP1 CALLDATASIZE SUB DUP2 ADD SWAP1 PUSH2 0x378 SWAP2 SWAP1 PUSH2 0x2E89 JUMP JUMPDEST PUSH2 0x1AA7 JUMP JUMPDEST STOP JUMPDEST PUSH2 0x399 PUSH1 0x4 DUP1 CALLDATASIZE SUB DUP2 ADD SWAP1 PUSH2 0x394 SWAP2 SWAP1 PUSH2 0x2C04 JUMP JUMPDEST PUSH2 0x1D00 JUMP JUMPDEST PUSH1 0x40 MLOAD PUSH2 0x3A9 SWAP5 SWAP4 SWAP3 SWAP2 SWAP1 PUSH2 0x3386 JUMP JUMPDEST PUSH1 0x40 MLOAD DUP1 SWAP2 SUB SWAP1 RETURN JUMPDEST PUSH2 0x3CC PUSH1 0x4 DUP1 CALLDATASIZE SUB DUP2 ADD SWAP1 PUSH2 0x3C7 SWAP2 SWAP1 PUSH2 0x2D43 JUMP JUMPDEST PUSH2 0x1D30 JUMP JUMPDEST STOP JUMPDEST PUSH2 0x3E8 PUSH1 0x4 DUP1 CALLDATASIZE SUB DUP2 ADD SWAP1 PUSH2 0x3E3 SWAP2 SWAP1 PUSH2 0x2C04 JUMP JUMPDEST PUSH2 0x1E9B JUMP JUMPDEST PUSH1 0x40 MLOAD PUSH2 0x3F8 SWAP5 SWAP4 SWAP3 SWAP2 SWAP1 PUSH2 0x3386 JUMP JUMPDEST PUSH1 0x40 MLOAD DUP1 SWAP2 SUB SWAP1 RETURN JUMPDEST PUSH2 0x41B PUSH1 0x4 DUP1 CALLDATASIZE SUB DUP2 ADD SWAP1 PUSH2 0x416 SWAP2 SWAP1 PUSH2 0x2E48 JUMP JUMPDEST PUSH2 0x1FBC JUMP JUMPDEST STOP JUMPDEST PUSH2 0x437 PUSH1 0x4 DUP1 CALLDATASIZE SUB DUP2 ADD SWAP1 PUSH2 0x432 SWAP2 SWAP1 PUSH2 0x2E0C JUMP JUMPDEST PUSH2 0x236F JUMP JUMPDEST PUSH1 0x40 MLOAD PUSH2 0x444 SWAP2 SWAP1 PUSH2 0x311F JUMP JUMPDEST PUSH1 0x40 MLOAD DUP1 SWAP2 SUB SWAP1 RETURN JUMPDEST PUSH2 0x455 PUSH2 0x23A0 JUMP JUMPDEST PUSH1 0x40 MLOAD PUSH2 0x468 SWAP8 SWAP7 SWAP6 SWAP5 SWAP4 SWAP3 SWAP2 SWAP1 PUSH2 0x329B JUMP JUMPDEST PUSH1 0x40 MLOAD DUP1 SWAP2 SUB SWAP1 RETURN JUMPDEST PUSH2 0x479 PUSH2 0x253C JUMP JUMPDEST PUSH1 0x40 MLOAD PUSH2 0x486 SWAP2 SWAP1 PUSH2 0x31A9 JUMP JUMPDEST PUSH1 0x40 MLOAD DUP1 SWAP2 SUB SWAP1 RETURN JUMPDEST PUSH2 0x4A9 PUSH1 0x4 DUP1 CALLDATASIZE SUB DUP2 ADD SWAP1 PUSH2 0x4A4 SWAP2 SWAP1 PUSH2 0x2DE3 JUMP JUMPDEST PUSH2 0x26D6 JUMP JUMPDEST PUSH1 0x40 MLOAD PUSH2 0x4B6 SWAP2 SWAP1 PUSH2 0x30E2 JUMP JUMPDEST PUSH1 0x40 MLOAD DUP1 SWAP2 SUB SWAP1 RETURN JUMPDEST PUSH2 0x4D9 PUSH1 0x4 DUP1 CALLDATASIZE SUB DUP2 ADD SWAP1 PUSH2 0x4D4 SWAP2 SWAP1 PUSH2 0x2C69 JUMP JUMPDEST PUSH2 0x27EE JUMP JUMPDEST PUSH1 0x40 MLOAD PUSH2 0x4E6 SWAP2 SWAP1 PUSH2 0x311F JUMP JUMPDEST PUSH1 0x40 MLOAD DUP1 SWAP2 SUB SWAP1 RETURN JUMPDEST PUSH2 0x509 PUSH1 0x4 DUP1 CALLDATASIZE SUB DUP2 ADD SWAP1 PUSH2 0x504 SWAP2 SWAP1 PUSH2 0x2DE3 JUMP JUMPDEST PUSH2 0x282C JUMP JUMPDEST PUSH1 0x40 MLOAD PUSH2 0x516 SWAP2 SWAP1 PUSH2 0x30E2 JUMP JUMPDEST PUSH1 0x40 MLOAD DUP1 SWAP2 SUB SWAP1 RETURN JUMPDEST PUSH2 0x527 PUSH2 0x2907 JUMP JUMPDEST PUSH1 0x40 MLOAD PUSH2 0x534 SWAP2 SWAP1 PUSH2 0x31A9 JUMP JUMPDEST PUSH1 0x40 MLOAD DUP1 SWAP2 SUB SWAP1 RETURN JUMPDEST PUSH2 0x557 PUSH1 0x4 DUP1 CALLDATASIZE SUB DUP2 ADD SWAP1 PUSH2 0x552 SWAP2 SWAP1 PUSH2 0x2C04 JUMP JUMPDEST PUSH2 0x29D9 JUMP JUMPDEST PUSH1 0x40 MLOAD PUSH2 0x564 SWAP2 SWAP1 PUSH2 0x3104 JUMP JUMPDEST PUSH1 0x40 MLOAD DUP1 SWAP2 SUB SWAP1 RETURN JUMPDEST PUSH1 0x4 PUSH1 0x0 CALLER PUSH20 0xFFFFFFFFFFFFFFFFFFFFFFFFFFFFFFFFFFFFFFFF AND PUSH20 0xFFFFFFFFFFFFFFFFFFFFFFFFFFFFFFFFFFFFFFFF AND DUP2 MSTORE PUSH1 0x20 ADD SWAP1 DUP2 MSTORE PUSH1 0x20 ADD PUSH1 0x0 KECCAK256 PUSH1 0x3 ADD PUSH1 0x0 SWAP1 SLOAD SWAP1 PUSH2 0x100 EXP SWAP1 DIV PUSH1 0xFF AND PUSH1 0x40 MLOAD DUP1 PUSH1 0x40 ADD PUSH1 0x40 MSTORE DUP1 PUSH1 0x5 DUP2 MSTORE PUSH1 0x20 ADD PUSH32 0x574D552D32000000000000000000000000000000000000000000000000000000 DUP2 MSTORE POP SWAP1 PUSH2 0x634 JUMPI PUSH1 0x40 MLOAD PUSH32 0x8C379A000000000000000000000000000000000000000000000000000000000 DUP2 MSTORE PUSH1 0x4 ADD PUSH2 0x62B SWAP2 SWAP1 PUSH2 0x31A9 JUMP JUMPDEST PUSH1 0x40 MLOAD DUP1 SWAP2 SUB SWAP1 REVERT JUMPDEST POP DUP1 PUSH1 0x4 PUSH1 0x0 CALLER PUSH20 0xFFFFFFFFFFFFFFFFFFFFFFFFFFFFFFFFFFFFFFFF AND PUSH20 0xFFFFFFFFFFFFFFFFFFFFFFFFFFFFFFFFFFFFFFFF AND DUP2 MSTORE PUSH1 0x20 ADD SWAP1 DUP2 MSTORE PUSH1 0x20 ADD PUSH1 0x0 KECCAK256 PUSH1 0x4 ADD SWAP1 DUP1 MLOAD SWAP1 PUSH1 0x20 ADD SWAP1 PUSH2 0x68B SWAP3 SWAP2 SWAP1 PUSH2 0x2A65 JUMP JUMPDEST POP POP JUMP JUMPDEST PUSH1 0x0 PUSH1 0x4 PUSH1 0x0 CALLER PUSH20 0xFFFFFFFFFFFFFFFFFFFFFFFFFFFFFFFFFFFFFFFF AND PUSH20 0xFFFFFFFFFFFFFFFFFFFFFFFFFFFFFFFFFFFFFFFF AND DUP2 MSTORE PUSH1 0x20 ADD SWAP1 DUP2 MSTORE PUSH1 0x20 ADD PUSH1 0x0 KECCAK256 PUSH1 0x1 ADD PUSH1 0x0 SWAP1 SLOAD SWAP1 PUSH2 0x100 EXP SWAP1 DIV PUSH1 0xFF AND PUSH1 0x40 MLOAD DUP1 PUSH1 0x40 ADD PUSH1 0x40 MSTORE DUP1 PUSH1 0x5 DUP2 MSTORE PUSH1 0x20 ADD PUSH32 0x574D552D35000000000000000000000000000000000000000000000000000000 DUP2 MSTORE POP SWAP1 PUSH2 0x758 JUMPI PUSH1 0x40 MLOAD PUSH32 0x8C379A000000000000000000000000000000000000000000000000000000000 DUP2 MSTORE PUSH1 0x4 ADD PUSH2 0x74F SWAP2 SWAP1 PUSH2 0x31A9 JUMP JUMPDEST PUSH1 0x40 MLOAD DUP1 SWAP2 SUB SWAP1 REVERT JUMPDEST POP PUSH1 0x0 PUSH1 0x4 PUSH1 0x0 CALLER PUSH20 0xFFFFFFFFFFFFFFFFFFFFFFFFFFFFFFFFFFFFFFFF AND PUSH20 0xFFFFFFFFFFFFFFFFFFFFFFFFFFFFFFFFFFFFFFFF AND DUP2 MSTORE PUSH1 0x20 ADD SWAP1 DUP2 MSTORE PUSH1 0x20 ADD PUSH1 0x0 KECCAK256 PUSH1 0x0 ADD DUP1 SLOAD PUSH2 0x7A8 SWAP1 PUSH2 0x3590 JUMP JUMPDEST DUP1 PUSH1 0x1F ADD PUSH1 0x20 DUP1 SWAP2 DIV MUL PUSH1 0x20 ADD PUSH1 0x40 MLOAD SWAP1 DUP2 ADD PUSH1 0x40 MSTORE DUP1 SWAP3 SWAP2 SWAP1 DUP2 DUP2 MSTORE PUSH1 0x20 ADD DUP3 DUP1 SLOAD PUSH2 0x7D4 SWAP1 PUSH2 0x3590 JUMP JUMPDEST DUP1 ISZERO PUSH2 0x821 JUMPI DUP1 PUSH1 0x1F LT PUSH2 0x7F6 JUMPI PUSH2 0x100 DUP1 DUP4 SLOAD DIV MUL DUP4 MSTORE SWAP2 PUSH1 0x20 ADD SWAP2 PUSH2 0x821 JUMP JUMPDEST DUP3 ADD SWAP2 SWAP1 PUSH1 0x0 MSTORE PUSH1 0x20 PUSH1 0x0 KECCAK256 SWAP1 JUMPDEST DUP2 SLOAD DUP2 MSTORE SWAP1 PUSH1 0x1 ADD SWAP1 PUSH1 0x20 ADD DUP1 DUP4 GT PUSH2 0x804 JUMPI DUP3 SWAP1 SUB PUSH1 0x1F AND DUP3 ADD SWAP2 JUMPDEST POP POP POP POP POP SWAP1 POP PUSH1 0x5 DUP2 PUSH1 0x40 MLOAD PUSH2 0x838 SWAP2 SWAP1 PUSH2 0x30B0 JUMP JUMPDEST SWAP1 DUP2 MSTORE PUSH1 0x20 ADD PUSH1 0x40 MLOAD DUP1 SWAP2 SUB SWAP1 KECCAK256 PUSH1 0x0 PUSH2 0x100 EXP DUP2 SLOAD SWAP1 PUSH20 0xFFFFFFFFFFFFFFFFFFFFFFFFFFFFFFFFFFFFFFFF MUL NOT AND SWAP1 SSTORE PUSH1 0x4 PUSH1 0x0 CALLER PUSH20 0xFFFFFFFFFFFFFFFFFFFFFFFFFFFFFFFFFFFFFFFF AND PUSH20 0xFFFFFFFFFFFFFFFFFFFFFFFFFFFFFFFFFFFFFFFF AND DUP2 MSTORE PUSH1 0x20 ADD SWAP1 DUP2 MSTORE PUSH1 0x20 ADD PUSH1 0x0 KECCAK256 PUSH1 0x0 DUP1 DUP3 ADD PUSH1 0x0 PUSH2 0x8B9 SWAP2 SWAP1 PUSH2 0x2AEB JUMP JUMPDEST PUSH1 0x1 DUP3 ADD PUSH1 0x0 PUSH2 0x100 EXP DUP2 SLOAD SWAP1 PUSH1 0xFF MUL NOT AND SWAP1 SSTORE PUSH1 0x2 DUP3 ADD PUSH1 0x0 SWAP1 SSTORE PUSH1 0x3 DUP3 ADD PUSH1 0x0 PUSH2 0x100 EXP DUP2 SLOAD SWAP1 PUSH1 0xFF MUL NOT AND SWAP1 SSTORE PUSH1 0x4 DUP3 ADD PUSH1 0x0 PUSH2 0x8F9 SWAP2 SWAP1 PUSH2 0x2AEB JUMP JUMPDEST POP POP PUSH1 0x1 SWAP2 POP POP SWAP1 JUMP JUMPDEST PUSH1 0x0 PUSH1 0x20 MSTORE DUP1 PUSH1 0x0 MSTORE PUSH1 0x40 PUSH1 0x0 KECCAK256 PUSH1 0x0 SWAP2 POP SWAP1 POP DUP1 PUSH1 0x0 ADD DUP1 SLOAD PUSH2 0x926 SWAP1 PUSH2 0x3590 JUMP JUMPDEST DUP1 PUSH1 0x1F ADD PUSH1 0x20 DUP1 SWAP2 DIV MUL PUSH1 0x20 ADD PUSH1 0x40 MLOAD SWAP1 DUP2 ADD PUSH1 0x40 MSTORE DUP1 SWAP3 SWAP2 SWAP1 DUP2 DUP2 MSTORE PUSH1 0x20 ADD DUP3 DUP1 SLOAD PUSH2 0x952 SWAP1 PUSH2 0x3590 JUMP JUMPDEST DUP1 ISZERO PUSH2 0x99F JUMPI DUP1 PUSH1 0x1F LT PUSH2 0x974 JUMPI PUSH2 0x100 DUP1 DUP4 SLOAD DIV MUL DUP4 MSTORE SWAP2 PUSH1 0x20 ADD SWAP2 PUSH2 0x99F JUMP JUMPDEST DUP3 ADD SWAP2 SWAP1 PUSH1 0x0 MSTORE PUSH1 0x20 PUSH1 0x0 KECCAK256 SWAP1 JUMPDEST DUP2 SLOAD DUP2 MSTORE SWAP1 PUSH1 0x1 ADD SWAP1 PUSH1 0x20 ADD DUP1 DUP4 GT PUSH2 0x982 JUMPI DUP3 SWAP1 SUB PUSH1 0x1F AND DUP3 ADD SWAP2 JUMPDEST POP POP POP POP POP SWAP1 DUP1 PUSH1 0x1 ADD PUSH1 0x0 SWAP1 SLOAD SWAP1 PUSH2 0x100 EXP SWAP1 DIV PUSH20 0xFFFFFFFFFFFFFFFFFFFFFFFFFFFFFFFFFFFFFFFF AND SWAP1 DUP1 PUSH1 0x2 ADD SLOAD SWAP1 DUP1 PUSH1 0x3 ADD PUSH1 0x0 SWAP1 SLOAD SWAP1 PUSH2 0x100 EXP SWAP1 DIV PUSH20 0xFFFFFFFFFFFFFFFFFFFFFFFFFFFFFFFFFFFFFFFF AND SWAP1 DUP1 PUSH1 0x4 ADD DUP1 SLOAD PUSH2 0xA06 SWAP1 PUSH2 0x3590 JUMP JUMPDEST DUP1 PUSH1 0x1F ADD PUSH1 0x20 DUP1 SWAP2 DIV MUL PUSH1 0x20 ADD PUSH1 0x40 MLOAD SWAP1 DUP2 ADD PUSH1 0x40 MSTORE DUP1 SWAP3 SWAP2 SWAP1 DUP2 DUP2 MSTORE PUSH1 0x20 ADD DUP3 DUP1 SLOAD PUSH2 0xA32 SWAP1 PUSH2 0x3590 JUMP JUMPDEST DUP1 ISZERO PUSH2 0xA7F JUMPI DUP1 PUSH1 0x1F LT PUSH2 0xA54 JUMPI PUSH2 0x100 DUP1 DUP4 SLOAD DIV MUL DUP4 MSTORE SWAP2 PUSH1 0x20 ADD SWAP2 PUSH2 0xA7F JUMP JUMPDEST DUP3 ADD SWAP2 SWAP1 PUSH1 0x0 MSTORE PUSH1 0x20 PUSH1 0x0 KECCAK256 SWAP1 JUMPDEST DUP2 SLOAD DUP2 MSTORE SWAP1 PUSH1 0x1 ADD SWAP1 PUSH1 0x20 ADD DUP1 DUP4 GT PUSH2 0xA62 JUMPI DUP3 SWAP1 SUB PUSH1 0x1F AND DUP3 ADD SWAP2 JUMPDEST POP POP POP POP POP SWAP1 DUP1 PUSH1 0x5 ADD PUSH1 0x0 SWAP1 SLOAD SWAP1 PUSH2 0x100 EXP SWAP1 DIV PUSH1 0xFF AND SWAP1 POP DUP7 JUMP JUMPDEST PUSH1 0x4 PUSH1 0x0 CALLER PUSH20 0xFFFFFFFFFFFFFFFFFFFFFFFFFFFFFFFFFFFFFFFF AND PUSH20 0xFFFFFFFFFFFFFFFFFFFFFFFFFFFFFFFFFFFFFFFF AND DUP2 MSTORE PUSH1 0x20 ADD SWAP1 DUP2 MSTORE PUSH1 0x20 ADD PUSH1 0x0 KECCAK256 PUSH1 0x3 ADD PUSH1 0x0 SWAP1 SLOAD SWAP1 PUSH2 0x100 EXP SWAP1 DIV PUSH1 0xFF AND PUSH1 0x40 MLOAD DUP1 PUSH1 0x40 ADD PUSH1 0x40 MSTORE DUP1 PUSH1 0x5 DUP2 MSTORE PUSH1 0x20 ADD PUSH32 0x574D552D32000000000000000000000000000000000000000000000000000000 DUP2 MSTORE POP SWAP1 PUSH2 0xB63 JUMPI PUSH1 0x40 MLOAD PUSH32 0x8C379A000000000000000000000000000000000000000000000000000000000 DUP2 MSTORE PUSH1 0x4 ADD PUSH2 0xB5A SWAP2 SWAP1 PUSH2 0x31A9 JUMP JUMPDEST PUSH1 0x40 MLOAD DUP1 SWAP2 SUB SWAP1 REVERT JUMPDEST POP PUSH1 0x0 PUSH20 0xFFFFFFFFFFFFFFFFFFFFFFFFFFFFFFFFFFFFFFFF AND PUSH1 0x5 DUP3 PUSH1 0x40 MLOAD PUSH2 0xB8C SWAP2 SWAP1 PUSH2 0x30B0 JUMP JUMPDEST SWAP1 DUP2 MSTORE PUSH1 0x20 ADD PUSH1 0x40 MLOAD DUP1 SWAP2 SUB SWAP1 KECCAK256 PUSH1 0x0 SWAP1 SLOAD SWAP1 PUSH2 0x100 EXP SWAP1 DIV PUSH20 0xFFFFFFFFFFFFFFFFFFFFFFFFFFFFFFFFFFFFFFFF AND PUSH20 0xFFFFFFFFFFFFFFFFFFFFFFFFFFFFFFFFFFFFFFFF AND EQ PUSH1 0x40 MLOAD DUP1 PUSH1 0x40 ADD PUSH1 0x40 MSTORE DUP1 PUSH1 0x5 DUP2 MSTORE PUSH1 0x20 ADD PUSH32 0x574D552D36000000000000000000000000000000000000000000000000000000 DUP2 MSTORE POP SWAP1 PUSH2 0xC49 JUMPI PUSH1 0x40 MLOAD PUSH32 0x8C379A000000000000000000000000000000000000000000000000000000000 DUP2 MSTORE PUSH1 0x4 ADD PUSH2 0xC40 SWAP2 SWAP1 PUSH2 0x31A9 JUMP JUMPDEST PUSH1 0x40 MLOAD DUP1 SWAP2 SUB SWAP1 REVERT JUMPDEST POP PUSH1 0x0 PUSH1 0x4 PUSH1 0x0 CALLER PUSH20 0xFFFFFFFFFFFFFFFFFFFFFFFFFFFFFFFFFFFFFFFF AND PUSH20 0xFFFFFFFFFFFFFFFFFFFFFFFFFFFFFFFFFFFFFFFF AND DUP2 MSTORE PUSH1 0x20 ADD SWAP1 DUP2 MSTORE PUSH1 0x20 ADD PUSH1 0x0 KECCAK256 PUSH1 0x0 ADD DUP1 SLOAD PUSH2 0xC99 SWAP1 PUSH2 0x3590 JUMP JUMPDEST DUP1 PUSH1 0x1F ADD PUSH1 0x20 DUP1 SWAP2 DIV MUL PUSH1 0x20 ADD PUSH1 0x40 MLOAD SWAP1 DUP2 ADD PUSH1 0x40 MSTORE DUP1 SWAP3 SWAP2 SWAP1 DUP2 DUP2 MSTORE PUSH1 0x20 ADD DUP3 DUP1 SLOAD PUSH2 0xCC5 SWAP1 PUSH2 0x3590 JUMP JUMPDEST DUP1 ISZERO PUSH2 0xD12 JUMPI DUP1 PUSH1 0x1F LT PUSH2 0xCE7 JUMPI PUSH2 0x100 DUP1 DUP4 SLOAD DIV MUL DUP4 MSTORE SWAP2 PUSH1 0x20 ADD SWAP2 PUSH2 0xD12 JUMP JUMPDEST DUP3 ADD SWAP2 SWAP1 PUSH1 0x0 MSTORE PUSH1 0x20 PUSH1 0x0 KECCAK256 SWAP1 JUMPDEST DUP2 SLOAD DUP2 MSTORE SWAP1 PUSH1 0x1 ADD SWAP1 PUSH1 0x20 ADD DUP1 DUP4 GT PUSH2 0xCF5 JUMPI DUP3 SWAP1 SUB PUSH1 0x1F AND DUP3 ADD SWAP2 JUMPDEST POP POP POP POP POP SWAP1 POP PUSH1 0x5 DUP2 PUSH1 0x40 MLOAD PUSH2 0xD29 SWAP2 SWAP1 PUSH2 0x30B0 JUMP JUMPDEST SWAP1 DUP2 MSTORE PUSH1 0x20 ADD PUSH1 0x40 MLOAD DUP1 SWAP2 SUB SWAP1 KECCAK256 PUSH1 0x0 PUSH2 0x100 EXP DUP2 SLOAD SWAP1 PUSH20 0xFFFFFFFFFFFFFFFFFFFFFFFFFFFFFFFFFFFFFFFF MUL NOT AND SWAP1 SSTORE CALLER PUSH1 0x5 DUP4 PUSH1 0x40 MLOAD PUSH2 0xD6B SWAP2 SWAP1 PUSH2 0x30B0 JUMP JUMPDEST SWAP1 DUP2 MSTORE PUSH1 0x20 ADD PUSH1 0x40 MLOAD DUP1 SWAP2 SUB SWAP1 KECCAK256 PUSH1 0x0 PUSH2 0x100 EXP DUP2 SLOAD DUP2 PUSH20 0xFFFFFFFFFFFFFFFFFFFFFFFFFFFFFFFFFFFFFFFF MUL NOT AND SWAP1 DUP4 PUSH20 0xFFFFFFFFFFFFFFFFFFFFFFFFFFFFFFFFFFFFFFFF AND MUL OR SWAP1 SSTORE POP DUP2 PUSH1 0x4 PUSH1 0x0 CALLER PUSH20 0xFFFFFFFFFFFFFFFFFFFFFFFFFFFFFFFFFFFFFFFF AND PUSH20 0xFFFFFFFFFFFFFFFFFFFFFFFFFFFFFFFFFFFFFFFF AND DUP2 MSTORE PUSH1 0x20 ADD SWAP1 DUP2 MSTORE PUSH1 0x20 ADD PUSH1 0x0 KECCAK256 PUSH1 0x0 ADD SWAP1 DUP1 MLOAD SWAP1 PUSH1 0x20 ADD SWAP1 PUSH2 0xE0D SWAP3 SWAP2 SWAP1 PUSH2 0x2A65 JUMP JUMPDEST POP POP POP JUMP JUMPDEST PUSH1 0x0 DUP1 PUSH1 0x0 PUSH1 0x60 PUSH1 0x0 PUSH1 0x60 PUSH1 0x0 PUSH2 0xE29 DUP10 DUP10 PUSH2 0x2A32 JUMP JUMPDEST SWAP1 POP DUP1 PUSH1 0x0 DUP1 DUP4 DUP2 MSTORE PUSH1 0x20 ADD SWAP1 DUP2 MSTORE PUSH1 0x20 ADD PUSH1 0x0 KECCAK256 PUSH1 0x1 ADD PUSH1 0x0 SWAP1 SLOAD SWAP1 PUSH2 0x100 EXP SWAP1 DIV PUSH20 0xFFFFFFFFFFFFFFFFFFFFFFFFFFFFFFFFFFFFFFFF AND PUSH1 0x0 DUP1 DUP5 DUP2 MSTORE PUSH1 0x20 ADD SWAP1 DUP2 MSTORE PUSH1 0x20 ADD PUSH1 0x0 KECCAK256 PUSH1 0x2 ADD SLOAD PUSH1 0x0 DUP1 DUP6 DUP2 MSTORE PUSH1 0x20 ADD SWAP1 DUP2 MSTORE PUSH1 0x20 ADD PUSH1 0x0 KECCAK256 PUSH1 0x0 ADD PUSH1 0x0 DUP1 DUP7 DUP2 MSTORE PUSH1 0x20 ADD SWAP1 DUP2 MSTORE PUSH1 0x20 ADD PUSH1 0x0 KECCAK256 PUSH1 0x3 ADD PUSH1 0x0 SWAP1 SLOAD SWAP1 PUSH2 0x100 EXP SWAP1 DIV PUSH20 0xFFFFFFFFFFFFFFFFFFFFFFFFFFFFFFFFFFFFFFFF AND PUSH1 0x0 DUP1 DUP8 DUP2 MSTORE PUSH1 0x20 ADD SWAP1 DUP2 MSTORE PUSH1 0x20 ADD PUSH1 0x0 KECCAK256 PUSH1 0x4 ADD DUP3 DUP1 SLOAD PUSH2 0xEE4 SWAP1 PUSH2 0x3590 JUMP JUMPDEST DUP1 PUSH1 0x1F ADD PUSH1 0x20 DUP1 SWAP2 DIV MUL PUSH1 0x20 ADD PUSH1 0x40 MLOAD SWAP1 DUP2 ADD PUSH1 0x40 MSTORE DUP1 SWAP3 SWAP2 SWAP1 DUP2 DUP2 MSTORE PUSH1 0x20 ADD DUP3 DUP1 SLOAD PUSH2 0xF10 SWAP1 PUSH2 0x3590 JUMP JUMPDEST DUP1 ISZERO PUSH2 0xF5D JUMPI DUP1 PUSH1 0x1F LT PUSH2 0xF32 JUMPI PUSH2 0x100 DUP1 DUP4 SLOAD DIV MUL DUP4 MSTORE SWAP2 PUSH1 0x20 ADD SWAP2 PUSH2 0xF5D JUMP JUMPDEST DUP3 ADD SWAP2 SWAP1 PUSH1 0x0 MSTORE PUSH1 0x20 PUSH1 0x0 KECCAK256 SWAP1 JUMPDEST DUP2 SLOAD DUP2 MSTORE SWAP1 PUSH1 0x1 ADD SWAP1 PUSH1 0x20 ADD DUP1 DUP4 GT PUSH2 0xF40 JUMPI DUP3 SWAP1 SUB PUSH1 0x1F AND DUP3 ADD SWAP2 JUMPDEST POP POP POP POP POP SWAP3 POP DUP1 DUP1 SLOAD PUSH2 0xF70 SWAP1 PUSH2 0x3590 JUMP JUMPDEST DUP1 PUSH1 0x1F ADD PUSH1 0x20 DUP1 SWAP2 DIV MUL PUSH1 0x20 ADD PUSH1 0x40 MLOAD SWAP1 DUP2 ADD PUSH1 0x40 MSTORE DUP1 SWAP3 SWAP2 SWAP1 DUP2 DUP2 MSTORE PUSH1 0x20 ADD DUP3 DUP1 SLOAD PUSH2 0xF9C SWAP1 PUSH2 0x3590 JUMP JUMPDEST DUP1 ISZERO PUSH2 0xFE9 JUMPI DUP1 PUSH1 0x1F LT PUSH2 0xFBE JUMPI PUSH2 0x100 DUP1 DUP4 SLOAD DIV MUL DUP4 MSTORE SWAP2 PUSH1 0x20 ADD SWAP2 PUSH2 0xFE9 JUMP JUMPDEST DUP3 ADD SWAP2 SWAP1 PUSH1 0x0 MSTORE PUSH1 0x20 PUSH1 0x0 KECCAK256 SWAP1 JUMPDEST DUP2 SLOAD DUP2 MSTORE SWAP1 PUSH1 0x1 ADD SWAP1 PUSH1 0x20 ADD DUP1 DUP4 GT PUSH2 0xFCC JUMPI DUP3 SWAP1 SUB PUSH1 0x1F AND DUP3 ADD SWAP2 JUMPDEST POP POP POP POP POP SWAP1 POP SWAP7 POP SWAP7 POP SWAP7 POP SWAP7 POP SWAP7 POP SWAP7 POP POP SWAP3 SWAP6 POP SWAP3 SWAP6 POP SWAP3 SWAP6 JUMP JUMPDEST PUSH1 0x1 PUSH1 0x20 MSTORE DUP2 PUSH1 0x0 MSTORE PUSH1 0x40 PUSH1 0x0 KECCAK256 DUP2 DUP2 SLOAD DUP2 LT PUSH2 0x1023 JUMPI PUSH1 0x0 DUP1 REVERT JUMPDEST SWAP1 PUSH1 0x0 MSTORE PUSH1 0x20 PUSH1 0x0 KECCAK256 ADD PUSH1 0x0 SWAP2 POP SWAP2 POP POP SLOAD DUP2 JUMP JUMPDEST DUP2 PUSH1 0x0 DUP1 DUP4 DUP2 MSTORE PUSH1 0x20 ADD SWAP1 DUP2 MSTORE PUSH1 0x20 ADD PUSH1 0x0 KECCAK256 PUSH1 0x3 ADD PUSH1 0x0 PUSH2 0x100 EXP DUP2 SLOAD DUP2 PUSH20 0xFFFFFFFFFFFFFFFFFFFFFFFFFFFFFFFFFFFFFFFF MUL NOT AND SWAP1 DUP4 PUSH20 0xFFFFFFFFFFFFFFFFFFFFFFFFFFFFFFFFFFFFFFFF AND MUL OR SWAP1 SSTORE POP PUSH1 0x1 PUSH1 0x0 DUP4 PUSH20 0xFFFFFFFFFFFFFFFFFFFFFFFFFFFFFFFFFFFFFFFF AND PUSH20 0xFFFFFFFFFFFFFFFFFFFFFFFFFFFFFFFFFFFFFFFF AND DUP2 MSTORE PUSH1 0x20 ADD SWAP1 DUP2 MSTORE PUSH1 0x20 ADD PUSH1 0x0 KECCAK256 DUP2 SWAP1 DUP1 PUSH1 0x1 DUP2 SLOAD ADD DUP1 DUP3 SSTORE DUP1 SWAP2 POP POP PUSH1 0x1 SWAP1 SUB SWAP1 PUSH1 0x0 MSTORE PUSH1 0x20 PUSH1 0x0 KECCAK256 ADD PUSH1 0x0 SWAP1 SWAP2 SWAP1 SWAP2 SWAP1 SWAP2 POP SSTORE POP POP JUMP JUMPDEST PUSH1 0x0 PUSH2 0x1102 DUP5 DUP5 PUSH2 0x2A32 JUMP JUMPDEST SWAP1 POP PUSH1 0x4 PUSH1 0x0 CALLER PUSH20 0xFFFFFFFFFFFFFFFFFFFFFFFFFFFFFFFFFFFFFFFF AND PUSH20 0xFFFFFFFFFFFFFFFFFFFFFFFFFFFFFFFFFFFFFFFF AND DUP2 MSTORE PUSH1 0x20 ADD SWAP1 DUP2 MSTORE PUSH1 0x20 ADD PUSH1 0x0 KECCAK256 PUSH1 0x3 ADD PUSH1 0x0 SWAP1 SLOAD SWAP1 PUSH2 0x100 EXP SWAP1 DIV PUSH1 0xFF AND DUP1 ISZERO PUSH2 0x11C0 JUMPI POP CALLER PUSH20 0xFFFFFFFFFFFFFFFFFFFFFFFFFFFFFFFFFFFFFFFF AND PUSH1 0x0 DUP1 DUP4 DUP2 MSTORE PUSH1 0x20 ADD SWAP1 DUP2 MSTORE PUSH1 0x20 ADD PUSH1 0x0 KECCAK256 PUSH1 0x3 ADD PUSH1 0x0 SWAP1 SLOAD SWAP1 PUSH2 0x100 EXP SWAP1 DIV PUSH20 0xFFFFFFFFFFFFFFFFFFFFFFFFFFFFFFFFFFFFFFFF AND PUSH20 0xFFFFFFFFFFFFFFFFFFFFFFFFFFFFFFFFFFFFFFFF AND EQ JUMPDEST PUSH1 0x40 MLOAD DUP1 PUSH1 0x40 ADD PUSH1 0x40 MSTORE DUP1 PUSH1 0x5 DUP2 MSTORE PUSH1 0x20 ADD PUSH32 0x574D552D32000000000000000000000000000000000000000000000000000000 DUP2 MSTORE POP SWAP1 PUSH2 0x1237 JUMPI PUSH1 0x40 MLOAD PUSH32 0x8C379A000000000000000000000000000000000000000000000000000000000 DUP2 MSTORE PUSH1 0x4 ADD PUSH2 0x122E SWAP2 SWAP1 PUSH2 0x31A9 JUMP JUMPDEST PUSH1 0x40 MLOAD DUP1 SWAP2 SUB SWAP1 REVERT JUMPDEST POP DUP2 PUSH1 0x0 DUP1 DUP4 DUP2 MSTORE PUSH1 0x20 ADD SWAP1 DUP2 MSTORE PUSH1 0x20 ADD PUSH1 0x0 KECCAK256 PUSH1 0x5 ADD PUSH1 0x0 PUSH2 0x100 EXP DUP2 SLOAD DUP2 PUSH1 0xFF MUL NOT AND SWAP1 DUP4 PUSH1 0x6 DUP2 GT ISZERO PUSH2 0x1296 JUMPI PUSH32 0x4E487B7100000000000000000000000000000000000000000000000000000000 PUSH1 0x0 MSTORE PUSH1 0x21 PUSH1 0x4 MSTORE PUSH1 0x24 PUSH1 0x0 REVERT JUMPDEST MUL OR SWAP1 SSTORE POP PUSH1 0x2 PUSH1 0x0 DUP4 PUSH1 0x6 DUP2 GT ISZERO PUSH2 0x12D8 JUMPI PUSH32 0x4E487B7100000000000000000000000000000000000000000000000000000000 PUSH1 0x0 MSTORE PUSH1 0x21 PUSH1 0x4 MSTORE PUSH1 0x24 PUSH1 0x0 REVERT JUMPDEST PUSH1 0x6 DUP2 GT ISZERO PUSH2 0x1310 JUMPI PUSH32 0x4E487B7100000000000000000000000000000000000000000000000000000000 PUSH1 0x0 MSTORE PUSH1 0x21 PUSH1 0x4 MSTORE PUSH1 0x24 PUSH1 0x0 REVERT JUMPDEST DUP2 MSTORE PUSH1 0x20 ADD SWAP1 DUP2 MSTORE PUSH1 0x20 ADD PUSH1 0x0 KECCAK256 DUP2 SWAP1 DUP1 PUSH1 0x1 DUP2 SLOAD ADD DUP1 DUP3 SSTORE DUP1 SWAP2 POP POP PUSH1 0x1 SWAP1 SUB SWAP1 PUSH1 0x0 MSTORE PUSH1 0x20 PUSH1 0x0 KECCAK256 ADD PUSH1 0x0 SWAP1 SWAP2 SWAP1 SWAP2 SWAP1 SWAP2 POP SSTORE PUSH1 0x3 PUSH1 0x0 CALLER PUSH20 0xFFFFFFFFFFFFFFFFFFFFFFFFFFFFFFFFFFFFFFFF AND PUSH20 0xFFFFFFFFFFFFFFFFFFFFFFFFFFFFFFFFFFFFFFFF AND DUP2 MSTORE PUSH1 0x20 ADD SWAP1 DUP2 MSTORE PUSH1 0x20 ADD PUSH1 0x0 KECCAK256 PUSH1 0x0 DUP4 PUSH1 0x6 DUP2 GT ISZERO PUSH2 0x13BF JUMPI PUSH32 0x4E487B7100000000000000000000000000000000000000000000000000000000 PUSH1 0x0 MSTORE PUSH1 0x21 PUSH1 0x4 MSTORE PUSH1 0x24 PUSH1 0x0 REVERT JUMPDEST PUSH1 0x6 DUP2 GT ISZERO PUSH2 0x13F7 JUMPI PUSH32 0x4E487B7100000000000000000000000000000000000000000000000000000000 PUSH1 0x0 MSTORE PUSH1 0x21 PUSH1 0x4 MSTORE PUSH1 0x24 PUSH1 0x0 REVERT JUMPDEST DUP2 MSTORE PUSH1 0x20 ADD SWAP1 DUP2 MSTORE PUSH1 0x20 ADD PUSH1 0x0 KECCAK256 DUP2 SWAP1 DUP1 PUSH1 0x1 DUP2 SLOAD ADD DUP1 DUP3 SSTORE DUP1 SWAP2 POP POP PUSH1 0x1 SWAP1 SUB SWAP1 PUSH1 0x0 MSTORE PUSH1 0x20 PUSH1 0x0 KECCAK256 ADD PUSH1 0x0 SWAP1 SWAP2 SWAP1 SWAP2 SWAP1 SWAP2 POP SSTORE POP POP POP POP JUMP JUMPDEST PUSH1 0x4 PUSH1 0x0 CALLER PUSH20 0xFFFFFFFFFFFFFFFFFFFFFFFFFFFFFFFFFFFFFFFF AND PUSH20 0xFFFFFFFFFFFFFFFFFFFFFFFFFFFFFFFFFFFFFFFF AND DUP2 MSTORE PUSH1 0x20 ADD SWAP1 DUP2 MSTORE PUSH1 0x20 ADD PUSH1 0x0 KECCAK256 PUSH1 0x1 ADD PUSH1 0x0 SWAP1 SLOAD SWAP1 PUSH2 0x100 EXP SWAP1 DIV PUSH1 0xFF AND PUSH1 0x40 MLOAD DUP1 PUSH1 0x40 ADD PUSH1 0x40 MSTORE DUP1 PUSH1 0x5 DUP2 MSTORE PUSH1 0x20 ADD PUSH32 0x574D552D31000000000000000000000000000000000000000000000000000000 DUP2 MSTORE POP SWAP1 PUSH2 0x14F9 JUMPI PUSH1 0x40 MLOAD PUSH32 0x8C379A000000000000000000000000000000000000000000000000000000000 DUP2 MSTORE PUSH1 0x4 ADD PUSH2 0x14F0 SWAP2 SWAP1 PUSH2 0x31A9 JUMP JUMPDEST PUSH1 0x40 MLOAD DUP1 SWAP2 SUB SWAP1 REVERT JUMPDEST POP PUSH1 0x4 PUSH1 0x0 CALLER PUSH20 0xFFFFFFFFFFFFFFFFFFFFFFFFFFFFFFFFFFFFFFFF AND PUSH20 0xFFFFFFFFFFFFFFFFFFFFFFFFFFFFFFFFFFFFFFFF AND DUP2 MSTORE PUSH1 0x20 ADD SWAP1 DUP2 MSTORE PUSH1 0x20 ADD PUSH1 0x0 KECCAK256 PUSH1 0x3 ADD PUSH1 0x0 SWAP1 SLOAD SWAP1 PUSH2 0x100 EXP SWAP1 DIV PUSH1 0xFF AND ISZERO PUSH1 0x40 MLOAD DUP1 PUSH1 0x40 ADD PUSH1 0x40 MSTORE DUP1 PUSH1 0x5 DUP2 MSTORE PUSH1 0x20 ADD PUSH32 0x574D552D33000000000000000000000000000000000000000000000000000000 DUP2 MSTORE POP SWAP1 PUSH2 0x15C2 JUMPI PUSH1 0x40 MLOAD PUSH32 0x8C379A000000000000000000000000000000000000000000000000000000000 DUP2 MSTORE PUSH1 0x4 ADD PUSH2 0x15B9 SWAP2 SWAP1 PUSH2 0x31A9 JUMP JUMPDEST PUSH1 0x40 MLOAD DUP1 SWAP2 SUB SWAP1 REVERT JUMPDEST POP PUSH1 0x1 PUSH1 0x4 PUSH1 0x0 CALLER PUSH20 0xFFFFFFFFFFFFFFFFFFFFFFFFFFFFFFFFFFFFFFFF AND PUSH20 0xFFFFFFFFFFFFFFFFFFFFFFFFFFFFFFFFFFFFFFFF AND DUP2 MSTORE PUSH1 0x20 ADD SWAP1 DUP2 MSTORE PUSH1 0x20 ADD PUSH1 0x0 KECCAK256 PUSH1 0x3 ADD PUSH1 0x0 PUSH2 0x100 EXP DUP2 SLOAD DUP2 PUSH1 0xFF MUL NOT AND SWAP1 DUP4 ISZERO ISZERO MUL OR SWAP1 SSTORE POP CALLER PUSH20 0xFFFFFFFFFFFFFFFFFFFFFFFFFFFFFFFFFFFFFFFF AND PUSH32 0x364034DE78A61B6190B049E2C5437370B27906BFED607993A5BC2DDA23C16CFF TIMESTAMP PUSH1 0x40 MLOAD PUSH2 0x1664 SWAP2 SWAP1 PUSH2 0x336B JUMP JUMPDEST PUSH1 0x40 MLOAD DUP1 SWAP2 SUB SWAP1 LOG2 JUMP JUMPDEST PUSH1 0x60 PUSH1 0x0 DUP1 PUSH1 0x0 PUSH1 0x60 PUSH1 0x0 DUP7 SWAP1 POP PUSH1 0x0 DUP1 DUP3 DUP2 MSTORE PUSH1 0x20 ADD SWAP1 DUP2 MSTORE PUSH1 0x20 ADD PUSH1 0x0 KECCAK256 PUSH1 0x0 ADD PUSH1 0x0 DUP1 DUP4 DUP2 MSTORE PUSH1 0x20 ADD SWAP1 DUP2 MSTORE PUSH1 0x20 ADD PUSH1 0x0 KECCAK256 PUSH1 0x1 ADD PUSH1 0x0 SWAP1 SLOAD SWAP1 PUSH2 0x100 EXP SWAP1 DIV PUSH20 0xFFFFFFFFFFFFFFFFFFFFFFFFFFFFFFFFFFFFFFFF AND PUSH1 0x0 DUP1 DUP5 DUP2 MSTORE PUSH1 0x20 ADD SWAP1 DUP2 MSTORE PUSH1 0x20 ADD PUSH1 0x0 KECCAK256 PUSH1 0x2 ADD SLOAD PUSH1 0x0 DUP1 DUP6 DUP2 MSTORE PUSH1 0x20 ADD SWAP1 DUP2 MSTORE PUSH1 0x20 ADD PUSH1 0x0 KECCAK256 PUSH1 0x3 ADD PUSH1 0x0 SWAP1 SLOAD SWAP1 PUSH2 0x100 EXP SWAP1 DIV PUSH20 0xFFFFFFFFFFFFFFFFFFFFFFFFFFFFFFFFFFFFFFFF AND PUSH1 0x0 DUP1 DUP7 DUP2 MSTORE PUSH1 0x20 ADD SWAP1 DUP2 MSTORE PUSH1 0x20 ADD PUSH1 0x0 KECCAK256 PUSH1 0x4 ADD DUP5 DUP1 SLOAD PUSH2 0x1734 SWAP1 PUSH2 0x3590 JUMP JUMPDEST DUP1 PUSH1 0x1F ADD PUSH1 0x20 DUP1 SWAP2 DIV MUL PUSH1 0x20 ADD PUSH1 0x40 MLOAD SWAP1 DUP2 ADD PUSH1 0x40 MSTORE DUP1 SWAP3 SWAP2 SWAP1 DUP2 DUP2 MSTORE PUSH1 0x20 ADD DUP3 DUP1 SLOAD PUSH2 0x1760 SWAP1 PUSH2 0x3590 JUMP JUMPDEST DUP1 ISZERO PUSH2 0x17AD JUMPI DUP1 PUSH1 0x1F LT PUSH2 0x1782 JUMPI PUSH2 0x100 DUP1 DUP4 SLOAD DIV MUL DUP4 MSTORE SWAP2 PUSH1 0x20 ADD SWAP2 PUSH2 0x17AD JUMP JUMPDEST DUP3 ADD SWAP2 SWAP1 PUSH1 0x0 MSTORE PUSH1 0x20 PUSH1 0x0 KECCAK256 SWAP1 JUMPDEST DUP2 SLOAD DUP2 MSTORE SWAP1 PUSH1 0x1 ADD SWAP1 PUSH1 0x20 ADD DUP1 DUP4 GT PUSH2 0x1790 JUMPI DUP3 SWAP1 SUB PUSH1 0x1F AND DUP3 ADD SWAP2 JUMPDEST POP POP POP POP POP SWAP5 POP DUP1 DUP1 SLOAD PUSH2 0x17C0 SWAP1 PUSH2 0x3590 JUMP JUMPDEST DUP1 PUSH1 0x1F ADD PUSH1 0x20 DUP1 SWAP2 DIV MUL PUSH1 0x20 ADD PUSH1 0x40 MLOAD SWAP1 DUP2 ADD PUSH1 0x40 MSTORE DUP1 SWAP3 SWAP2 SWAP1 DUP2 DUP2 MSTORE PUSH1 0x20 ADD DUP3 DUP1 SLOAD PUSH2 0x17EC SWAP1 PUSH2 0x3590 JUMP JUMPDEST DUP1 ISZERO PUSH2 0x1839 JUMPI DUP1 PUSH1 0x1F LT PUSH2 0x180E JUMPI PUSH2 0x100 DUP1 DUP4 SLOAD DIV MUL DUP4 MSTORE SWAP2 PUSH1 0x20 ADD SWAP2 PUSH2 0x1839 JUMP JUMPDEST DUP3 ADD SWAP2 SWAP1 PUSH1 0x0 MSTORE PUSH1 0x20 PUSH1 0x0 KECCAK256 SWAP1 JUMPDEST DUP2 SLOAD DUP2 MSTORE SWAP1 PUSH1 0x1 ADD SWAP1 PUSH1 0x20 ADD DUP1 DUP4 GT PUSH2 0x181C JUMPI DUP3 SWAP1 SUB PUSH1 0x1F AND DUP3 ADD SWAP2 JUMPDEST POP POP POP POP POP SWAP1 POP SWAP6 POP SWAP6 POP SWAP6 POP SWAP6 POP SWAP6 POP POP SWAP2 SWAP4 SWAP6 SWAP1 SWAP3 SWAP5 POP JUMP JUMPDEST PUSH1 0x4 PUSH1 0x0 CALLER PUSH20 0xFFFFFFFFFFFFFFFFFFFFFFFFFFFFFFFFFFFFFFFF AND PUSH20 0xFFFFFFFFFFFFFFFFFFFFFFFFFFFFFFFFFFFFFFFF AND DUP2 MSTORE PUSH1 0x20 ADD SWAP1 DUP2 MSTORE PUSH1 0x20 ADD PUSH1 0x0 KECCAK256 PUSH1 0x3 ADD PUSH1 0x0 SWAP1 SLOAD SWAP1 PUSH2 0x100 EXP SWAP1 DIV PUSH1 0xFF AND PUSH1 0x40 MLOAD DUP1 PUSH1 0x40 ADD PUSH1 0x40 MSTORE DUP1 PUSH1 0x5 DUP2 MSTORE PUSH1 0x20 ADD PUSH32 0x574D552D32000000000000000000000000000000000000000000000000000000 DUP2 MSTORE POP SWAP1 PUSH2 0x191B JUMPI PUSH1 0x40 MLOAD PUSH32 0x8C379A000000000000000000000000000000000000000000000000000000000 DUP2 MSTORE PUSH1 0x4 ADD PUSH2 0x1912 SWAP2 SWAP1 PUSH2 0x31A9 JUMP JUMPDEST PUSH1 0x40 MLOAD DUP1 SWAP2 SUB SWAP1 REVERT JUMPDEST POP PUSH1 0x0 PUSH1 0x4 PUSH1 0x0 CALLER PUSH20 0xFFFFFFFFFFFFFFFFFFFFFFFFFFFFFFFFFFFFFFFF AND PUSH20 0xFFFFFFFFFFFFFFFFFFFFFFFFFFFFFFFFFFFFFFFF AND DUP2 MSTORE PUSH1 0x20 ADD SWAP1 DUP2 MSTORE PUSH1 0x20 ADD PUSH1 0x0 KECCAK256 PUSH1 0x3 ADD PUSH1 0x0 PUSH2 0x100 EXP DUP2 SLOAD DUP2 PUSH1 0xFF MUL NOT AND SWAP1 DUP4 ISZERO ISZERO MUL OR SWAP1 SSTORE POP CALLER PUSH20 0xFFFFFFFFFFFFFFFFFFFFFFFFFFFFFFFFFFFFFFFF AND PUSH32 0x70D1177AA26C67F6B2FDB43400CFD7FF0C23A8712301ABE5ABA2EE3D89E28A10 TIMESTAMP PUSH1 0x40 MLOAD PUSH2 0x19BD SWAP2 SWAP1 PUSH2 0x336B JUMP JUMPDEST PUSH1 0x40 MLOAD DUP1 SWAP2 SUB SWAP1 LOG2 JUMP JUMPDEST PUSH1 0x60 PUSH1 0x1 PUSH1 0x0 DUP4 PUSH20 0xFFFFFFFFFFFFFFFFFFFFFFFFFFFFFFFFFFFFFFFF AND PUSH20 0xFFFFFFFFFFFFFFFFFFFFFFFFFFFFFFFFFFFFFFFF AND DUP2 MSTORE PUSH1 0x20 ADD SWAP1 DUP2 MSTORE PUSH1 0x20 ADD PUSH1 0x0 KECCAK256 DUP1 SLOAD DUP1 PUSH1 0x20 MUL PUSH1 0x20 ADD PUSH1 0x40 MLOAD SWAP1 DUP2 ADD PUSH1 0x40 MSTORE DUP1 SWAP3 SWAP2 SWAP1 DUP2 DUP2 MSTORE PUSH1 0x20 ADD DUP3 DUP1 SLOAD DUP1 ISZERO PUSH2 0x1A52 JUMPI PUSH1 0x20 MUL DUP3 ADD SWAP2 SWAP1 PUSH1 0x0 MSTORE PUSH1 0x20 PUSH1 0x0 KECCAK256 SWAP1 JUMPDEST DUP2 SLOAD DUP2 MSTORE PUSH1 0x20 ADD SWAP1 PUSH1 0x1 ADD SWAP1 DUP1 DUP4 GT PUSH2 0x1A3E JUMPI JUMPDEST POP POP POP POP POP SWAP1 POP SWAP2 SWAP1 POP JUMP JUMPDEST PUSH1 0x5 DUP2 DUP1 MLOAD PUSH1 0x20 DUP2 ADD DUP3 ADD DUP1 MLOAD DUP5 DUP3 MSTORE PUSH1 0x20 DUP4 ADD PUSH1 0x20 DUP6 ADD KECCAK256 DUP2 DUP4 MSTORE DUP1 SWAP6 POP POP POP POP POP POP PUSH1 0x0 SWAP2 POP SLOAD SWAP1 PUSH2 0x100 EXP SWAP1 DIV PUSH20 0xFFFFFFFFFFFFFFFFFFFFFFFFFFFFFFFFFFFFFFFF AND DUP2 JUMP JUMPDEST PUSH1 0x4 PUSH1 0x0 CALLER PUSH20 0xFFFFFFFFFFFFFFFFFFFFFFFFFFFFFFFFFFFFFFFF AND PUSH20 0xFFFFFFFFFFFFFFFFFFFFFFFFFFFFFFFFFFFFFFFF AND DUP2 MSTORE PUSH1 0x20 ADD SWAP1 DUP2 MSTORE PUSH1 0x20 ADD PUSH1 0x0 KECCAK256 PUSH1 0x3 ADD PUSH1 0x0 SWAP1 SLOAD SWAP1 PUSH2 0x100 EXP SWAP1 DIV PUSH1 0xFF AND PUSH1 0x40 MLOAD DUP1 PUSH1 0x40 ADD PUSH1 0x40 MSTORE DUP1 PUSH1 0x5 DUP2 MSTORE PUSH1 0x20 ADD PUSH32 0x574D552D32000000000000000000000000000000000000000000000000000000 DUP2 MSTORE POP SWAP1 PUSH2 0x1B6E JUMPI PUSH1 0x40 MLOAD PUSH32 0x8C379A000000000000000000000000000000000000000000000000000000000 DUP2 MSTORE PUSH1 0x4 ADD PUSH2 0x1B65 SWAP2 SWAP1 PUSH2 0x31A9 JUMP JUMPDEST PUSH1 0x40 MLOAD DUP1 SWAP2 SUB SWAP1 REVERT JUMPDEST POP PUSH1 0x0 PUSH2 0x1B7B DUP5 DUP5 PUSH2 0x2A32 JUMP JUMPDEST SWAP1 POP DUP5 PUSH1 0x0 DUP1 DUP4 DUP2 MSTORE PUSH1 0x20 ADD SWAP1 DUP2 MSTORE PUSH1 0x20 ADD PUSH1 0x0 KECCAK256 PUSH1 0x0 ADD SWAP1 DUP1 MLOAD SWAP1 PUSH1 0x20 ADD SWAP1 PUSH2 0x1BA6 SWAP3 SWAP2 SWAP1 PUSH2 0x2A65 JUMP JUMPDEST POP DUP4 PUSH1 0x0 DUP1 DUP4 DUP2 MSTORE PUSH1 0x20 ADD SWAP1 DUP2 MSTORE PUSH1 0x20 ADD PUSH1 0x0 KECCAK256 PUSH1 0x1 ADD PUSH1 0x0 PUSH2 0x100 EXP DUP2 SLOAD DUP2 PUSH20 0xFFFFFFFFFFFFFFFFFFFFFFFFFFFFFFFFFFFFFFFF MUL NOT AND SWAP1 DUP4 PUSH20 0xFFFFFFFFFFFFFFFFFFFFFFFFFFFFFFFFFFFFFFFF AND MUL OR SWAP1 SSTORE POP DUP3 PUSH1 0x0 DUP1 DUP4 DUP2 MSTORE PUSH1 0x20 ADD SWAP1 DUP2 MSTORE PUSH1 0x20 ADD PUSH1 0x0 KECCAK256 PUSH1 0x2 ADD DUP2 SWAP1 SSTORE POP CALLER PUSH1 0x0 DUP1 DUP4 DUP2 MSTORE PUSH1 0x20 ADD SWAP1 DUP2 MSTORE PUSH1 0x20 ADD PUSH1 0x0 KECCAK256 PUSH1 0x3 ADD PUSH1 0x0 PUSH2 0x100 EXP DUP2 SLOAD DUP2 PUSH20 0xFFFFFFFFFFFFFFFFFFFFFFFFFFFFFFFFFFFFFFFF MUL NOT AND SWAP1 DUP4 PUSH20 0xFFFFFFFFFFFFFFFFFFFFFFFFFFFFFFFFFFFFFFFF AND MUL OR SWAP1 SSTORE POP DUP2 PUSH1 0x0 DUP1 DUP4 DUP2 MSTORE PUSH1 0x20 ADD SWAP1 DUP2 MSTORE PUSH1 0x20 ADD PUSH1 0x0 KECCAK256 PUSH1 0x4 ADD SWAP1 DUP1 MLOAD SWAP1 PUSH1 0x20 ADD SWAP1 PUSH2 0x1C92 SWAP3 SWAP2 SWAP1 PUSH2 0x2A65 JUMP JUMPDEST POP PUSH1 0x1 PUSH1 0x0 CALLER PUSH20 0xFFFFFFFFFFFFFFFFFFFFFFFFFFFFFFFFFFFFFFFF AND PUSH20 0xFFFFFFFFFFFFFFFFFFFFFFFFFFFFFFFFFFFFFFFF AND DUP2 MSTORE PUSH1 0x20 ADD SWAP1 DUP2 MSTORE PUSH1 0x20 ADD PUSH1 0x0 KECCAK256 DUP2 SWAP1 DUP1 PUSH1 0x1 DUP2 SLOAD ADD DUP1 DUP3 SSTORE DUP1 SWAP2 POP POP PUSH1 0x1 SWAP1 SUB SWAP1 PUSH1 0x0 MSTORE PUSH1 0x20 PUSH1 0x0 KECCAK256 ADD PUSH1 0x0 SWAP1 SWAP2 SWAP1 SWAP2 SWAP1 SWAP2 POP SSTORE POP POP POP POP POP JUMP JUMPDEST PUSH1 0x6 PUSH1 0x20 MSTORE DUP1 PUSH1 0x0 MSTORE PUSH1 0x40 PUSH1 0x0 KECCAK256 PUSH1 0x0 SWAP2 POP SWAP1 POP DUP1 PUSH1 0x0 ADD SLOAD SWAP1 DUP1 PUSH1 0x1 ADD SLOAD SWAP1 DUP1 PUSH1 0x2 ADD SLOAD SWAP1 DUP1 PUSH1 0x3 ADD SLOAD SWAP1 POP DUP5 JUMP JUMPDEST DUP4 PUSH1 0x6 PUSH1 0x0 DUP8 PUSH20 0xFFFFFFFFFFFFFFFFFFFFFFFFFFFFFFFFFFFFFFFF AND PUSH20 0xFFFFFFFFFFFFFFFFFFFFFFFFFFFFFFFFFFFFFFFF AND DUP2 MSTORE PUSH1 0x20 ADD SWAP1 DUP2 MSTORE PUSH1 0x20 ADD PUSH1 0x0 KECCAK256 PUSH1 0x0 ADD PUSH1 0x0 DUP3 DUP3 SLOAD PUSH2 0x1D82 SWAP2 SWAP1 PUSH2 0x3481 JUMP JUMPDEST SWAP3 POP POP DUP2 SWAP1 SSTORE POP DUP3 PUSH1 0x6 PUSH1 0x0 DUP8 PUSH20 0xFFFFFFFFFFFFFFFFFFFFFFFFFFFFFFFFFFFFFFFF AND PUSH20 0xFFFFFFFFFFFFFFFFFFFFFFFFFFFFFFFFFFFFFFFF AND DUP2 MSTORE PUSH1 0x20 ADD SWAP1 DUP2 MSTORE PUSH1 0x20 ADD PUSH1 0x0 KECCAK256 PUSH1 0x1 ADD PUSH1 0x0 DUP3 DUP3 SLOAD PUSH2 0x1DDB SWAP2 SWAP1 PUSH2 0x3481 JUMP JUMPDEST SWAP3 POP POP DUP2 SWAP1 SSTORE POP DUP2 PUSH1 0x6 PUSH1 0x0 DUP8 PUSH20 0xFFFFFFFFFFFFFFFFFFFFFFFFFFFFFFFFFFFFFFFF AND PUSH20 0xFFFFFFFFFFFFFFFFFFFFFFFFFFFFFFFFFFFFFFFF AND DUP2 MSTORE PUSH1 0x20 ADD SWAP1 DUP2 MSTORE PUSH1 0x20 ADD PUSH1 0x0 KECCAK256 PUSH1 0x2 ADD PUSH1 0x0 DUP3 DUP3 SLOAD PUSH2 0x1E34 SWAP2 SWAP1 PUSH2 0x3481 JUMP JUMPDEST SWAP3 POP POP DUP2 SWAP1 SSTORE POP DUP1 PUSH1 0x6 PUSH1 0x0 DUP8 PUSH20 0xFFFFFFFFFFFFFFFFFFFFFFFFFFFFFFFFFFFFFFFF AND PUSH20 0xFFFFFFFFFFFFFFFFFFFFFFFFFFFFFFFFFFFFFFFF AND DUP2 MSTORE PUSH1 0x20 ADD SWAP1 DUP2 MSTORE PUSH1 0x20 ADD PUSH1 0x0 KECCAK256 PUSH1 0x3 ADD PUSH1 0x0 DUP3 DUP3 SLOAD PUSH2 0x1E8D SWAP2 SWAP1 PUSH2 0x3481 JUMP JUMPDEST SWAP3 POP POP DUP2 SWAP1 SSTORE POP POP POP POP POP POP JUMP JUMPDEST PUSH1 0x0 DUP1 PUSH1 0x0 DUP1 PUSH1 0x6 PUSH1 0x0 DUP7 PUSH20 0xFFFFFFFFFFFFFFFFFFFFFFFFFFFFFFFFFFFFFFFF AND PUSH20 0xFFFFFFFFFFFFFFFFFFFFFFFFFFFFFFFFFFFFFFFF AND DUP2 MSTORE PUSH1 0x20 ADD SWAP1 DUP2 MSTORE PUSH1 0x20 ADD PUSH1 0x0 KECCAK256 PUSH1 0x2 ADD SLOAD PUSH1 0x6 PUSH1 0x0 DUP8 PUSH20 0xFFFFFFFFFFFFFFFFFFFFFFFFFFFFFFFFFFFFFFFF AND PUSH20 0xFFFFFFFFFFFFFFFFFFFFFFFFFFFFFFFFFFFFFFFF AND DUP2 MSTORE PUSH1 0x20 ADD SWAP1 DUP2 MSTORE PUSH1 0x20 ADD PUSH1 0x0 KECCAK256 PUSH1 0x3 ADD SLOAD PUSH1 0x6 PUSH1 0x0 DUP9 PUSH20 0xFFFFFFFFFFFFFFFFFFFFFFFFFFFFFFFFFFFFFFFF AND PUSH20 0xFFFFFFFFFFFFFFFFFFFFFFFFFFFFFFFFFFFFFFFF AND DUP2 MSTORE PUSH1 0x20 ADD SWAP1 DUP2 MSTORE PUSH1 0x20 ADD PUSH1 0x0 KECCAK256 PUSH1 0x0 ADD SLOAD PUSH1 0x6 PUSH1 0x0 DUP10 PUSH20 0xFFFFFFFFFFFFFFFFFFFFFFFFFFFFFFFFFFFFFFFF AND PUSH20 0xFFFFFFFFFFFFFFFFFFFFFFFFFFFFFFFFFFFFFFFF AND DUP2 MSTORE PUSH1 0x20 ADD SWAP1 DUP2 MSTORE PUSH1 0x20 ADD PUSH1 0x0 KECCAK256 PUSH1 0x1 ADD SLOAD SWAP4 POP SWAP4 POP SWAP4 POP SWAP4 POP SWAP2 SWAP4 POP SWAP2 SWAP4 JUMP JUMPDEST PUSH1 0x4 PUSH1 0x0 CALLER PUSH20 0xFFFFFFFFFFFFFFFFFFFFFFFFFFFFFFFFFFFFFFFF AND PUSH20 0xFFFFFFFFFFFFFFFFFFFFFFFFFFFFFFFFFFFFFFFF AND DUP2 MSTORE PUSH1 0x20 ADD SWAP1 DUP2 MSTORE PUSH1 0x20 ADD PUSH1 0x0 KECCAK256 PUSH1 0x1 ADD PUSH1 0x0 SWAP1 SLOAD SWAP1 PUSH2 0x100 EXP SWAP1 DIV PUSH1 0xFF AND ISZERO PUSH1 0x40 MLOAD DUP1 PUSH1 0x40 ADD PUSH1 0x40 MSTORE DUP1 PUSH1 0x5 DUP2 MSTORE PUSH1 0x20 ADD PUSH32 0x574D552D34000000000000000000000000000000000000000000000000000000 DUP2 MSTORE POP SWAP1 PUSH2 0x2084 JUMPI PUSH1 0x40 MLOAD PUSH32 0x8C379A000000000000000000000000000000000000000000000000000000000 DUP2 MSTORE PUSH1 0x4 ADD PUSH2 0x207B SWAP2 SWAP1 PUSH2 0x31A9 JUMP JUMPDEST PUSH1 0x40 MLOAD DUP1 SWAP2 SUB SWAP1 REVERT JUMPDEST POP PUSH1 0x0 PUSH20 0xFFFFFFFFFFFFFFFFFFFFFFFFFFFFFFFFFFFFFFFF AND PUSH1 0x5 DUP3 PUSH1 0x40 MLOAD PUSH2 0x20AD SWAP2 SWAP1 PUSH2 0x30B0 JUMP JUMPDEST SWAP1 DUP2 MSTORE PUSH1 0x20 ADD PUSH1 0x40 MLOAD DUP1 SWAP2 SUB SWAP1 KECCAK256 PUSH1 0x0 SWAP1 SLOAD SWAP1 PUSH2 0x100 EXP SWAP1 DIV PUSH20 0xFFFFFFFFFFFFFFFFFFFFFFFFFFFFFFFFFFFFFFFF AND PUSH20 0xFFFFFFFFFFFFFFFFFFFFFFFFFFFFFFFFFFFFFFFF AND EQ PUSH1 0x40 MLOAD DUP1 PUSH1 0x40 ADD PUSH1 0x40 MSTORE DUP1 PUSH1 0x5 DUP2 MSTORE PUSH1 0x20 ADD PUSH32 0x574D552D36000000000000000000000000000000000000000000000000000000 DUP2 MSTORE POP SWAP1 PUSH2 0x216A JUMPI PUSH1 0x40 MLOAD PUSH32 0x8C379A000000000000000000000000000000000000000000000000000000000 DUP2 MSTORE PUSH1 0x4 ADD PUSH2 0x2161 SWAP2 SWAP1 PUSH2 0x31A9 JUMP JUMPDEST PUSH1 0x40 MLOAD DUP1 SWAP2 SUB SWAP1 REVERT JUMPDEST POP DUP1 PUSH1 0x4 PUSH1 0x0 CALLER PUSH20 0xFFFFFFFFFFFFFFFFFFFFFFFFFFFFFFFFFFFFFFFF AND PUSH20 0xFFFFFFFFFFFFFFFFFFFFFFFFFFFFFFFFFFFFFFFF AND DUP2 MSTORE PUSH1 0x20 ADD SWAP1 DUP2 MSTORE PUSH1 0x20 ADD PUSH1 0x0 KECCAK256 PUSH1 0x0 ADD SWAP1 DUP1 MLOAD SWAP1 PUSH1 0x20 ADD SWAP1 PUSH2 0x21C1 SWAP3 SWAP2 SWAP1 PUSH2 0x2A65 JUMP JUMPDEST POP PUSH1 0x1 PUSH1 0x4 PUSH1 0x0 CALLER PUSH20 0xFFFFFFFFFFFFFFFFFFFFFFFFFFFFFFFFFFFFFFFF AND PUSH20 0xFFFFFFFFFFFFFFFFFFFFFFFFFFFFFFFFFFFFFFFF AND DUP2 MSTORE PUSH1 0x20 ADD SWAP1 DUP2 MSTORE PUSH1 0x20 ADD PUSH1 0x0 KECCAK256 PUSH1 0x1 ADD PUSH1 0x0 PUSH2 0x100 EXP DUP2 SLOAD DUP2 PUSH1 0xFF MUL NOT AND SWAP1 DUP4 ISZERO ISZERO MUL OR SWAP1 SSTORE POP TIMESTAMP PUSH1 0x4 PUSH1 0x0 CALLER PUSH20 0xFFFFFFFFFFFFFFFFFFFFFFFFFFFFFFFFFFFFFFFF AND PUSH20 0xFFFFFFFFFFFFFFFFFFFFFFFFFFFFFFFFFFFFFFFF AND DUP2 MSTORE PUSH1 0x20 ADD SWAP1 DUP2 MSTORE PUSH1 0x20 ADD PUSH1 0x0 KECCAK256 PUSH1 0x2 ADD DUP2 SWAP1 SSTORE POP PUSH1 0x1 PUSH1 0x4 PUSH1 0x0 CALLER PUSH20 0xFFFFFFFFFFFFFFFFFFFFFFFFFFFFFFFFFFFFFFFF AND PUSH20 0xFFFFFFFFFFFFFFFFFFFFFFFFFFFFFFFFFFFFFFFF AND DUP2 MSTORE PUSH1 0x20 ADD SWAP1 DUP2 MSTORE PUSH1 0x20 ADD PUSH1 0x0 KECCAK256 PUSH1 0x3 ADD PUSH1 0x0 PUSH2 0x100 EXP DUP2 SLOAD DUP2 PUSH1 0xFF MUL NOT AND SWAP1 DUP4 ISZERO ISZERO MUL OR SWAP1 SSTORE POP CALLER PUSH1 0x5 DUP3 PUSH1 0x40 MLOAD PUSH2 0x22D0 SWAP2 SWAP1 PUSH2 0x30B0 JUMP JUMPDEST SWAP1 DUP2 MSTORE PUSH1 0x20 ADD PUSH1 0x40 MLOAD DUP1 SWAP2 SUB SWAP1 KECCAK256 PUSH1 0x0 PUSH2 0x100 EXP DUP2 SLOAD DUP2 PUSH20 0xFFFFFFFFFFFFFFFFFFFFFFFFFFFFFFFFFFFFFFFF MUL NOT AND SWAP1 DUP4 PUSH20 0xFFFFFFFFFFFFFFFFFFFFFFFFFFFFFFFFFFFFFFFF AND MUL OR SWAP1 SSTORE POP CALLER PUSH20 0xFFFFFFFFFFFFFFFFFFFFFFFFFFFFFFFFFFFFFFFF AND PUSH32 0xEE20C2C019DCBCA8D08FF74C4CE6F465E02D3611905C9ACEEB76A0C8E429AF2F DUP3 TIMESTAMP PUSH1 0x40 MLOAD PUSH2 0x2364 SWAP3 SWAP2 SWAP1 PUSH2 0x333B JUMP JUMPDEST PUSH1 0x40 MLOAD DUP1 SWAP2 SUB SWAP1 LOG2 POP JUMP JUMPDEST PUSH1 0x2 PUSH1 0x20 MSTORE DUP2 PUSH1 0x0 MSTORE PUSH1 0x40 PUSH1 0x0 KECCAK256 DUP2 DUP2 SLOAD DUP2 LT PUSH2 0x238B JUMPI PUSH1 0x0 DUP1 REVERT JUMPDEST SWAP1 PUSH1 0x0 MSTORE PUSH1 0x20 PUSH1 0x0 KECCAK256 ADD PUSH1 0x0 SWAP2 POP SWAP2 POP POP SLOAD DUP2 JUMP JUMPDEST PUSH1 0x60 DUP1 PUSH1 0x60 DUP1 PUSH1 0x60 DUP1 PUSH1 0x60 PUSH1 0x40 MLOAD DUP1 PUSH1 0x40 ADD PUSH1 0x40 MSTORE DUP1 PUSH1 0x6 DUP2 MSTORE PUSH1 0x20 ADD PUSH32 0x4156415441520000000000000000000000000000000000000000000000000000 DUP2 MSTORE POP PUSH1 0x40 MLOAD DUP1 PUSH1 0x40 ADD PUSH1 0x40 MSTORE DUP1 PUSH1 0x7 DUP2 MSTORE PUSH1 0x20 ADD PUSH32 0x5049435455524500000000000000000000000000000000000000000000000000 DUP2 MSTORE POP PUSH1 0x40 MLOAD DUP1 PUSH1 0x40 ADD PUSH1 0x40 MSTORE DUP1 PUSH1 0xE DUP2 MSTORE PUSH1 0x20 ADD PUSH32 0x47454E455241544956455F415254000000000000000000000000000000000000 DUP2 MSTORE POP PUSH1 0x40 MLOAD DUP1 PUSH1 0x40 ADD PUSH1 0x40 MSTORE DUP1 PUSH1 0x3 DUP2 MSTORE PUSH1 0x20 ADD PUSH32 0x4152540000000000000000000000000000000000000000000000000000000000 DUP2 MSTORE POP PUSH1 0x40 MLOAD DUP1 PUSH1 0x40 ADD PUSH1 0x40 MSTORE DUP1 PUSH1 0xC DUP2 MSTORE PUSH1 0x20 ADD PUSH32 0x434F4C4C45435449424C45530000000000000000000000000000000000000000 DUP2 MSTORE POP PUSH1 0x40 MLOAD DUP1 PUSH1 0x40 ADD PUSH1 0x40 MSTORE DUP1 PUSH1 0x8 DUP2 MSTORE PUSH1 0x20 ADD PUSH32 0x47414D4946494544000000000000000000000000000000000000000000000000 DUP2 MSTORE POP PUSH1 0x40 MLOAD DUP1 PUSH1 0x40 ADD PUSH1 0x40 MSTORE DUP1 PUSH1 0x5 DUP2 MSTORE PUSH1 0x20 ADD PUSH32 0x4F54484552000000000000000000000000000000000000000000000000000000 DUP2 MSTORE POP SWAP7 POP SWAP7 POP SWAP7 POP SWAP7 POP SWAP7 POP SWAP7 POP SWAP7 POP SWAP1 SWAP2 SWAP3 SWAP4 SWAP5 SWAP6 SWAP7 JUMP JUMPDEST PUSH1 0x60 PUSH1 0x4 PUSH1 0x0 CALLER PUSH20 0xFFFFFFFFFFFFFFFFFFFFFFFFFFFFFFFFFFFFFFFF AND PUSH20 0xFFFFFFFFFFFFFFFFFFFFFFFFFFFFFFFFFFFFFFFF AND DUP2 MSTORE PUSH1 0x20 ADD SWAP1 DUP2 MSTORE PUSH1 0x20 ADD PUSH1 0x0 KECCAK256 PUSH1 0x3 ADD PUSH1 0x0 SWAP1 SLOAD SWAP1 PUSH2 0x100 EXP SWAP1 DIV PUSH1 0xFF AND PUSH1 0x40 MLOAD DUP1 PUSH1 0x40 ADD PUSH1 0x40 MSTORE DUP1 PUSH1 0x5 DUP2 MSTORE PUSH1 0x20 ADD PUSH32 0x574D552D32000000000000000000000000000000000000000000000000000000 DUP2 MSTORE POP SWAP1 PUSH2 0x2605 JUMPI PUSH1 0x40 MLOAD PUSH32 0x8C379A000000000000000000000000000000000000000000000000000000000 DUP2 MSTORE PUSH1 0x4 ADD PUSH2 0x25FC SWAP2 SWAP1 PUSH2 0x31A9 JUMP JUMPDEST PUSH1 0x40 MLOAD DUP1 SWAP2 SUB SWAP1 REVERT JUMPDEST POP PUSH1 0x4 PUSH1 0x0 CALLER PUSH20 0xFFFFFFFFFFFFFFFFFFFFFFFFFFFFFFFFFFFFFFFF AND PUSH20 0xFFFFFFFFFFFFFFFFFFFFFFFFFFFFFFFFFFFFFFFF AND DUP2 MSTORE PUSH1 0x20 ADD SWAP1 DUP2 MSTORE PUSH1 0x20 ADD PUSH1 0x0 KECCAK256 PUSH1 0x0 ADD DUP1 SLOAD PUSH2 0x2653 SWAP1 PUSH2 0x3590 JUMP JUMPDEST DUP1 PUSH1 0x1F ADD PUSH1 0x20 DUP1 SWAP2 DIV MUL PUSH1 0x20 ADD PUSH1 0x40 MLOAD SWAP1 DUP2 ADD PUSH1 0x40 MSTORE DUP1 SWAP3 SWAP2 SWAP1 DUP2 DUP2 MSTORE PUSH1 0x20 ADD DUP3 DUP1 SLOAD PUSH2 0x267F SWAP1 PUSH2 0x3590 JUMP JUMPDEST DUP1 ISZERO PUSH2 0x26CC JUMPI DUP1 PUSH1 0x1F LT PUSH2 0x26A1 JUMPI PUSH2 0x100 DUP1 DUP4 SLOAD DIV MUL DUP4 MSTORE SWAP2 PUSH1 0x20 ADD SWAP2 PUSH2 0x26CC JUMP JUMPDEST DUP3 ADD SWAP2 SWAP1 PUSH1 0x0 MSTORE PUSH1 0x20 PUSH1 0x0 KECCAK256 SWAP1 JUMPDEST DUP2 SLOAD DUP2 MSTORE SWAP1 PUSH1 0x1 ADD SWAP1 PUSH1 0x20 ADD DUP1 DUP4 GT PUSH2 0x26AF JUMPI DUP3 SWAP1 SUB PUSH1 0x1F AND DUP3 ADD SWAP2 JUMPDEST POP POP POP POP POP SWAP1 POP SWAP1 JUMP JUMPDEST PUSH1 0x60 PUSH1 0x3 PUSH1 0x0 CALLER PUSH20 0xFFFFFFFFFFFFFFFFFFFFFFFFFFFFFFFFFFFFFFFF AND PUSH20 0xFFFFFFFFFFFFFFFFFFFFFFFFFFFFFFFFFFFFFFFF AND DUP2 MSTORE PUSH1 0x20 ADD SWAP1 DUP2 MSTORE PUSH1 0x20 ADD PUSH1 0x0 KECCAK256 PUSH1 0x0 DUP4 PUSH1 0x6 DUP2 GT ISZERO PUSH2 0x2752 JUMPI PUSH32 0x4E487B7100000000000000000000000000000000000000000000000000000000 PUSH1 0x0 MSTORE PUSH1 0x21 PUSH1 0x4 MSTORE PUSH1 0x24 PUSH1 0x0 REVERT JUMPDEST PUSH1 0x6 DUP2 GT ISZERO PUSH2 0x278A JUMPI PUSH32 0x4E487B7100000000000000000000000000000000000000000000000000000000 PUSH1 0x0 MSTORE PUSH1 0x21 PUSH1 0x4 MSTORE PUSH1 0x24 PUSH1 0x0 REVERT JUMPDEST DUP2 MSTORE PUSH1 0x20 ADD SWAP1 DUP2 MSTORE PUSH1 0x20 ADD PUSH1 0x0 KECCAK256 DUP1 SLOAD DUP1 PUSH1 0x20 MUL PUSH1 0x20 ADD PUSH1 0x40 MLOAD SWAP1 DUP2 ADD PUSH1 0x40 MSTORE DUP1 SWAP3 SWAP2 SWAP1 DUP2 DUP2 MSTORE PUSH1 0x20 ADD DUP3 DUP1 SLOAD DUP1 ISZERO PUSH2 0x27E2 JUMPI PUSH1 0x20 MUL DUP3 ADD SWAP2 SWAP1 PUSH1 0x0 MSTORE PUSH1 0x20 PUSH1 0x0 KECCAK256 SWAP1 JUMPDEST DUP2 SLOAD DUP2 MSTORE PUSH1 0x20 ADD SWAP1 PUSH1 0x1 ADD SWAP1 DUP1 DUP4 GT PUSH2 0x27CE JUMPI JUMPDEST POP POP POP POP POP SWAP1 POP SWAP2 SWAP1 POP JUMP JUMPDEST PUSH1 0x3 PUSH1 0x20 MSTORE DUP3 PUSH1 0x0 MSTORE PUSH1 0x40 PUSH1 0x0 KECCAK256 PUSH1 0x20 MSTORE DUP2 PUSH1 0x0 MSTORE PUSH1 0x40 PUSH1 0x0 KECCAK256 DUP2 DUP2 SLOAD DUP2 LT PUSH2 0x2816 JUMPI PUSH1 0x0 DUP1 REVERT JUMPDEST SWAP1 PUSH1 0x0 MSTORE PUSH1 0x20 PUSH1 0x0 KECCAK256 ADD PUSH1 0x0 SWAP3 POP SWAP3 POP POP POP SLOAD DUP2 JUMP JUMPDEST PUSH1 0x60 PUSH1 0x2 PUSH1 0x0 DUP4 PUSH1 0x6 DUP2 GT ISZERO PUSH2 0x286B JUMPI PUSH32 0x4E487B7100000000000000000000000000000000000000000000000000000000 PUSH1 0x0 MSTORE PUSH1 0x21 PUSH1 0x4 MSTORE PUSH1 0x24 PUSH1 0x0 REVERT JUMPDEST PUSH1 0x6 DUP2 GT ISZERO PUSH2 0x28A3 JUMPI PUSH32 0x4E487B7100000000000000000000000000000000000000000000000000000000 PUSH1 0x0 MSTORE PUSH1 0x21 PUSH1 0x4 MSTORE PUSH1 0x24 PUSH1 0x0 REVERT JUMPDEST DUP2 MSTORE PUSH1 0x20 ADD SWAP1 DUP2 MSTORE PUSH1 0x20 ADD PUSH1 0x0 KECCAK256 DUP1 SLOAD DUP1 PUSH1 0x20 MUL PUSH1 0x20 ADD PUSH1 0x40 MLOAD SWAP1 DUP2 ADD PUSH1 0x40 MSTORE DUP1 SWAP3 SWAP2 SWAP1 DUP2 DUP2 MSTORE PUSH1 0x20 ADD DUP3 DUP1 SLOAD DUP1 ISZERO PUSH2 0x28FB JUMPI PUSH1 0x20 MUL DUP3 ADD SWAP2 SWAP1 PUSH1 0x0 MSTORE PUSH1 0x20 PUSH1 0x0 KECCAK256 SWAP1 JUMPDEST DUP2 SLOAD DUP2 MSTORE PUSH1 0x20 ADD SWAP1 PUSH1 0x1 ADD SWAP1 DUP1 DUP4 GT PUSH2 0x28E7 JUMPI JUMPDEST POP POP POP POP POP SWAP1 POP SWAP2 SWAP1 POP JUMP JUMPDEST PUSH1 0x60 PUSH1 0x4 PUSH1 0x0 CALLER PUSH20 0xFFFFFFFFFFFFFFFFFFFFFFFFFFFFFFFFFFFFFFFF AND PUSH20 0xFFFFFFFFFFFFFFFFFFFFFFFFFFFFFFFFFFFFFFFF AND DUP2 MSTORE PUSH1 0x20 ADD SWAP1 DUP2 MSTORE PUSH1 0x20 ADD PUSH1 0x0 KECCAK256 PUSH1 0x4 ADD DUP1 SLOAD PUSH2 0x2956 SWAP1 PUSH2 0x3590 JUMP JUMPDEST DUP1 PUSH1 0x1F ADD PUSH1 0x20 DUP1 SWAP2 DIV MUL PUSH1 0x20 ADD PUSH1 0x40 MLOAD SWAP1 DUP2 ADD PUSH1 0x40 MSTORE DUP1 SWAP3 SWAP2 SWAP1 DUP2 DUP2 MSTORE PUSH1 0x20 ADD DUP3 DUP1 SLOAD PUSH2 0x2982 SWAP1 PUSH2 0x3590 JUMP JUMPDEST DUP1 ISZERO PUSH2 0x29CF JUMPI DUP1 PUSH1 0x1F LT PUSH2 0x29A4 JUMPI PUSH2 0x100 DUP1 DUP4 SLOAD DIV MUL DUP4 MSTORE SWAP2 PUSH1 0x20 ADD SWAP2 PUSH2 0x29CF JUMP JUMPDEST DUP3 ADD SWAP2 SWAP1 PUSH1 0x0 MSTORE PUSH1 0x20 PUSH1 0x0 KECCAK256 SWAP1 JUMPDEST DUP2 SLOAD DUP2 MSTORE SWAP1 PUSH1 0x1 ADD SWAP1 PUSH1 0x20 ADD DUP1 DUP4 GT PUSH2 0x29B2 JUMPI DUP3 SWAP1 SUB PUSH1 0x1F AND DUP3 ADD SWAP2 JUMPDEST POP POP POP POP POP SWAP1 POP SWAP1 JUMP JUMPDEST PUSH1 0x0 PUSH1 0x4 PUSH1 0x0 DUP4 PUSH20 0xFFFFFFFFFFFFFFFFFFFFFFFFFFFFFFFFFFFFFFFF AND PUSH20 0xFFFFFFFFFFFFFFFFFFFFFFFFFFFFFFFFFFFFFFFF AND DUP2 MSTORE PUSH1 0x20 ADD SWAP1 DUP2 MSTORE PUSH1 0x20 ADD PUSH1 0x0 KECCAK256 PUSH1 0x3 ADD PUSH1 0x0 SWAP1 SLOAD SWAP1 PUSH2 0x100 EXP SWAP1 DIV PUSH1 0xFF AND SWAP1 POP SWAP2 SWAP1 POP JUMP JUMPDEST PUSH1 0x0 DUP3 DUP3 PUSH1 0x40 MLOAD PUSH1 0x20 ADD PUSH2 0x2A47 SWAP3 SWAP2 SWAP1 PUSH2 0x3084 JUMP JUMPDEST PUSH1 0x40 MLOAD PUSH1 0x20 DUP2 DUP4 SUB SUB DUP2 MSTORE SWAP1 PUSH1 0x40 MSTORE DUP1 MLOAD SWAP1 PUSH1 0x20 ADD KECCAK256 SWAP1 POP SWAP3 SWAP2 POP POP JUMP JUMPDEST DUP3 DUP1 SLOAD PUSH2 0x2A71 SWAP1 PUSH2 0x3590 JUMP JUMPDEST SWAP1 PUSH1 0x0 MSTORE PUSH1 0x20 PUSH1 0x0 KECCAK256 SWAP1 PUSH1 0x1F ADD PUSH1 0x20 SWAP1 DIV DUP2 ADD SWAP3 DUP3 PUSH2 0x2A93 JUMPI PUSH1 0x0 DUP6 SSTORE PUSH2 0x2ADA JUMP JUMPDEST DUP3 PUSH1 0x1F LT PUSH2 0x2AAC JUMPI DUP1 MLOAD PUSH1 0xFF NOT AND DUP4 DUP1 ADD OR DUP6 SSTORE PUSH2 0x2ADA JUMP JUMPDEST DUP3 DUP1 ADD PUSH1 0x1 ADD DUP6 SSTORE DUP3 ISZERO PUSH2 0x2ADA JUMPI SWAP2 DUP3 ADD JUMPDEST DUP3 DUP2 GT ISZERO PUSH2 0x2AD9 JUMPI DUP3 MLOAD DUP3 SSTORE SWAP2 PUSH1 0x20 ADD SWAP2 SWAP1 PUSH1 0x1 ADD SWAP1 PUSH2 0x2ABE JUMP JUMPDEST JUMPDEST POP SWAP1 POP PUSH2 0x2AE7 SWAP2 SWAP1 PUSH2 0x2B2B JUMP JUMPDEST POP SWAP1 JUMP JUMPDEST POP DUP1 SLOAD PUSH2 0x2AF7 SWAP1 PUSH2 0x3590 JUMP JUMPDEST PUSH1 0x0 DUP3 SSTORE DUP1 PUSH1 0x1F LT PUSH2 0x2B09 JUMPI POP PUSH2 0x2B28 JUMP JUMPDEST PUSH1 0x1F ADD PUSH1 0x20 SWAP1 DIV SWAP1 PUSH1 0x0 MSTORE PUSH1 0x20 PUSH1 0x0 KECCAK256 SWAP1 DUP2 ADD SWAP1 PUSH2 0x2B27 SWAP2 SWAP1 PUSH2 0x2B2B JUMP JUMPDEST JUMPDEST POP JUMP JUMPDEST JUMPDEST DUP1 DUP3 GT ISZERO PUSH2 0x2B44 JUMPI PUSH1 0x0 DUP2 PUSH1 0x0 SWAP1 SSTORE POP PUSH1 0x1 ADD PUSH2 0x2B2C JUMP JUMPDEST POP SWAP1 JUMP JUMPDEST PUSH1 0x0 PUSH2 0x2B5B PUSH2 0x2B56 DUP5 PUSH2 0x33F0 JUMP JUMPDEST PUSH2 0x33CB JUMP JUMPDEST SWAP1 POP DUP3 DUP2 MSTORE PUSH1 0x20 DUP2 ADD DUP5 DUP5 DUP5 ADD GT ISZERO PUSH2 0x2B73 JUMPI PUSH1 0x0 DUP1 REVERT JUMPDEST PUSH2 0x2B7E DUP5 DUP3 DUP6 PUSH2 0x354E JUMP JUMPDEST POP SWAP4 SWAP3 POP POP POP JUMP JUMPDEST PUSH1 0x0 DUP2 CALLDATALOAD SWAP1 POP PUSH2 0x2B95 DUP2 PUSH2 0x370F JUMP JUMPDEST SWAP3 SWAP2 POP POP JUMP JUMPDEST PUSH1 0x0 DUP2 CALLDATALOAD SWAP1 POP PUSH2 0x2BAA DUP2 PUSH2 0x3726 JUMP JUMPDEST SWAP3 SWAP2 POP POP JUMP JUMPDEST PUSH1 0x0 DUP2 CALLDATALOAD SWAP1 POP PUSH2 0x2BBF DUP2 PUSH2 0x373D JUMP JUMPDEST SWAP3 SWAP2 POP POP JUMP JUMPDEST PUSH1 0x0 DUP3 PUSH1 0x1F DUP4 ADD SLT PUSH2 0x2BD6 JUMPI PUSH1 0x0 DUP1 REVERT JUMPDEST DUP2 CALLDATALOAD PUSH2 0x2BE6 DUP5 DUP3 PUSH1 0x20 DUP7 ADD PUSH2 0x2B48 JUMP JUMPDEST SWAP2 POP POP SWAP3 SWAP2 POP POP JUMP JUMPDEST PUSH1 0x0 DUP2 CALLDATALOAD SWAP1 POP PUSH2 0x2BFE DUP2 PUSH2 0x374D JUMP JUMPDEST SWAP3 SWAP2 POP POP JUMP JUMPDEST PUSH1 0x0 PUSH1 0x20 DUP3 DUP5 SUB SLT ISZERO PUSH2 0x2C16 JUMPI PUSH1 0x0 DUP1 REVERT JUMPDEST PUSH1 0x0 PUSH2 0x2C24 DUP5 DUP3 DUP6 ADD PUSH2 0x2B86 JUMP JUMPDEST SWAP2 POP POP SWAP3 SWAP2 POP POP JUMP JUMPDEST PUSH1 0x0 DUP1 PUSH1 0x40 DUP4 DUP6 SUB SLT ISZERO PUSH2 0x2C40 JUMPI PUSH1 0x0 DUP1 REVERT JUMPDEST PUSH1 0x0 PUSH2 0x2C4E DUP6 DUP3 DUP7 ADD PUSH2 0x2B86 JUMP JUMPDEST SWAP3 POP POP PUSH1 0x20 PUSH2 0x2C5F DUP6 DUP3 DUP7 ADD PUSH2 0x2B9B JUMP JUMPDEST SWAP2 POP POP SWAP3 POP SWAP3 SWAP1 POP JUMP JUMPDEST PUSH1 0x0 DUP1 PUSH1 0x0 PUSH1 0x60 DUP5 DUP7 SUB SLT ISZERO PUSH2 0x2C7E JUMPI PUSH1 0x0 DUP1 REVERT JUMPDEST PUSH1 0x0 PUSH2 0x2C8C DUP7 DUP3 DUP8 ADD PUSH2 0x2B86 JUMP JUMPDEST SWAP4 POP POP PUSH1 0x20 PUSH2 0x2C9D DUP7 DUP3 DUP8 ADD PUSH2 0x2BB0 JUMP JUMPDEST SWAP3 POP POP PUSH1 0x40 PUSH2 0x2CAE DUP7 DUP3 DUP8 ADD PUSH2 0x2BEF JUMP JUMPDEST SWAP2 POP POP SWAP3 POP SWAP3 POP SWAP3 JUMP JUMPDEST PUSH1 0x0 DUP1 PUSH1 0x40 DUP4 DUP6 SUB SLT ISZERO PUSH2 0x2CCB JUMPI PUSH1 0x0 DUP1 REVERT JUMPDEST PUSH1 0x0 PUSH2 0x2CD9 DUP6 DUP3 DUP7 ADD PUSH2 0x2B86 JUMP JUMPDEST SWAP3 POP POP PUSH1 0x20 PUSH2 0x2CEA DUP6 DUP3 DUP7 ADD PUSH2 0x2BEF JUMP JUMPDEST SWAP2 POP POP SWAP3 POP SWAP3 SWAP1 POP JUMP JUMPDEST PUSH1 0x0 DUP1 PUSH1 0x0 PUSH1 0x60 DUP5 DUP7 SUB SLT ISZERO PUSH2 0x2D09 JUMPI PUSH1 0x0 DUP1 REVERT JUMPDEST PUSH1 0x0 PUSH2 0x2D17 DUP7 DUP3 DUP8 ADD PUSH2 0x2B86 JUMP JUMPDEST SWAP4 POP POP PUSH1 0x20 PUSH2 0x2D28 DUP7 DUP3 DUP8 ADD PUSH2 0x2BEF JUMP JUMPDEST SWAP3 POP POP PUSH1 0x40 PUSH2 0x2D39 DUP7 DUP3 DUP8 ADD PUSH2 0x2BB0 JUMP JUMPDEST SWAP2 POP POP SWAP3 POP SWAP3 POP SWAP3 JUMP JUMPDEST PUSH1 0x0 DUP1 PUSH1 0x0 DUP1 PUSH1 0x0 PUSH1 0xA0 DUP7 DUP9 SUB SLT ISZERO PUSH2 0x2D5B JUMPI PUSH1 0x0 DUP1 REVERT JUMPDEST PUSH1 0x0 PUSH2 0x2D69 DUP9 DUP3 DUP10 ADD PUSH2 0x2B86 JUMP JUMPDEST SWAP6 POP POP PUSH1 0x20 PUSH2 0x2D7A DUP9 DUP3 DUP10 ADD PUSH2 0x2BEF JUMP JUMPDEST SWAP5 POP POP PUSH1 0x40 PUSH2 0x2D8B DUP9 DUP3 DUP10 ADD PUSH2 0x2BEF JUMP JUMPDEST SWAP4 POP POP PUSH1 0x60 PUSH2 0x2D9C DUP9 DUP3 DUP10 ADD PUSH2 0x2BEF JUMP JUMPDEST SWAP3 POP POP PUSH1 0x80 PUSH2 0x2DAD DUP9 DUP3 DUP10 ADD PUSH2 0x2BEF JUMP JUMPDEST SWAP2 POP POP SWAP3 SWAP6 POP SWAP3 SWAP6 SWAP1 SWAP4 POP JUMP JUMPDEST PUSH1 0x0 PUSH1 0x20 DUP3 DUP5 SUB SLT ISZERO PUSH2 0x2DCC JUMPI PUSH1 0x0 DUP1 REVERT JUMPDEST PUSH1 0x0 PUSH2 0x2DDA DUP5 DUP3 DUP6 ADD PUSH2 0x2B9B JUMP JUMPDEST SWAP2 POP POP SWAP3 SWAP2 POP POP JUMP JUMPDEST PUSH1 0x0 PUSH1 0x20 DUP3 DUP5 SUB SLT ISZERO PUSH2 0x2DF5 JUMPI PUSH1 0x0 DUP1 REVERT JUMPDEST PUSH1 0x0 PUSH2 0x2E03 DUP5 DUP3 DUP6 ADD PUSH2 0x2BB0 JUMP JUMPDEST SWAP2 POP POP SWAP3 SWAP2 POP POP JUMP JUMPDEST PUSH1 0x0 DUP1 PUSH1 0x40 DUP4 DUP6 SUB SLT ISZERO PUSH2 0x2E1F JUMPI PUSH1 0x0 DUP1 REVERT JUMPDEST PUSH1 0x0 PUSH2 0x2E2D DUP6 DUP3 DUP7 ADD PUSH2 0x2BB0 JUMP JUMPDEST SWAP3 POP POP PUSH1 0x20 PUSH2 0x2E3E DUP6 DUP3 DUP7 ADD PUSH2 0x2BEF JUMP JUMPDEST SWAP2 POP POP SWAP3 POP SWAP3 SWAP1 POP JUMP JUMPDEST PUSH1 0x0 PUSH1 0x20 DUP3 DUP5 SUB SLT ISZERO PUSH2 0x2E5A JUMPI PUSH1 0x0 DUP1 REVERT JUMPDEST PUSH1 0x0 DUP3 ADD CALLDATALOAD PUSH8 0xFFFFFFFFFFFFFFFF DUP2 GT ISZERO PUSH2 0x2E74 JUMPI PUSH1 0x0 DUP1 REVERT JUMPDEST PUSH2 0x2E80 DUP5 DUP3 DUP6 ADD PUSH2 0x2BC5 JUMP JUMPDEST SWAP2 POP POP SWAP3 SWAP2 POP POP JUMP JUMPDEST PUSH1 0x0 DUP1 PUSH1 0x0 DUP1 PUSH1 0x80 DUP6 DUP8 SUB SLT ISZERO PUSH2 0x2E9F JUMPI PUSH1 0x0 DUP1 REVERT JUMPDEST PUSH1 0x0 DUP6 ADD CALLDATALOAD PUSH8 0xFFFFFFFFFFFFFFFF DUP2 GT ISZERO PUSH2 0x2EB9 JUMPI PUSH1 0x0 DUP1 REVERT JUMPDEST PUSH2 0x2EC5 DUP8 DUP3 DUP9 ADD PUSH2 0x2BC5 JUMP JUMPDEST SWAP5 POP POP PUSH1 0x20 PUSH2 0x2ED6 DUP8 DUP3 DUP9 ADD PUSH2 0x2B86 JUMP JUMPDEST SWAP4 POP POP PUSH1 0x40 PUSH2 0x2EE7 DUP8 DUP3 DUP9 ADD PUSH2 0x2BEF JUMP JUMPDEST SWAP3 POP POP PUSH1 0x60 DUP6 ADD CALLDATALOAD PUSH8 0xFFFFFFFFFFFFFFFF DUP2 GT ISZERO PUSH2 0x2F04 JUMPI PUSH1 0x0 DUP1 REVERT JUMPDEST PUSH2 0x2F10 DUP8 DUP3 DUP9 ADD PUSH2 0x2BC5 JUMP JUMPDEST SWAP2 POP POP SWAP3 SWAP6 SWAP2 SWAP5 POP SWAP3 POP JUMP JUMPDEST PUSH1 0x0 PUSH2 0x2F28 DUP4 DUP4 PUSH2 0x2FC7 JUMP JUMPDEST PUSH1 0x20 DUP4 ADD SWAP1 POP SWAP3 SWAP2 POP POP JUMP JUMPDEST PUSH2 0x2F3D DUP2 PUSH2 0x34D7 JUMP JUMPDEST DUP3 MSTORE POP POP JUMP JUMPDEST PUSH2 0x2F54 PUSH2 0x2F4F DUP3 PUSH2 0x34D7 JUMP JUMPDEST PUSH2 0x35F3 JUMP JUMPDEST DUP3 MSTORE POP POP JUMP JUMPDEST PUSH1 0x0 PUSH2 0x2F65 DUP3 PUSH2 0x3431 JUMP JUMPDEST PUSH2 0x2F6F DUP2 DUP6 PUSH2 0x3454 JUMP JUMPDEST SWAP4 POP PUSH2 0x2F7A DUP4 PUSH2 0x3421 JUMP JUMPDEST DUP1 PUSH1 0x0 JUMPDEST DUP4 DUP2 LT ISZERO PUSH2 0x2FAB JUMPI DUP2 MLOAD PUSH2 0x2F92 DUP9 DUP3 PUSH2 0x2F1C JUMP JUMPDEST SWAP8 POP PUSH2 0x2F9D DUP4 PUSH2 0x3447 JUMP JUMPDEST SWAP3 POP POP PUSH1 0x1 DUP2 ADD SWAP1 POP PUSH2 0x2F7E JUMP JUMPDEST POP DUP6 SWAP4 POP POP POP POP SWAP3 SWAP2 POP POP JUMP JUMPDEST PUSH2 0x2FC1 DUP2 PUSH2 0x34E9 JUMP JUMPDEST DUP3 MSTORE POP POP JUMP JUMPDEST PUSH2 0x2FD0 DUP2 PUSH2 0x34F5 JUMP JUMPDEST DUP3 MSTORE POP POP JUMP JUMPDEST PUSH2 0x2FDF DUP2 PUSH2 0x34F5 JUMP JUMPDEST DUP3 MSTORE POP POP JUMP JUMPDEST PUSH2 0x2FEE DUP2 PUSH2 0x353C JUMP JUMPDEST DUP3 MSTORE POP POP JUMP JUMPDEST PUSH1 0x0 PUSH2 0x2FFF DUP3 PUSH2 0x343C JUMP JUMPDEST PUSH2 0x3009 DUP2 DUP6 PUSH2 0x3465 JUMP JUMPDEST SWAP4 POP PUSH2 0x3019 DUP2 DUP6 PUSH1 0x20 DUP7 ADD PUSH2 0x355D JUMP JUMPDEST PUSH2 0x3022 DUP2 PUSH2 0x36DD JUMP JUMPDEST DUP5 ADD SWAP2 POP POP SWAP3 SWAP2 POP POP JUMP JUMPDEST PUSH1 0x0 PUSH2 0x3038 DUP3 PUSH2 0x343C JUMP JUMPDEST PUSH2 0x3042 DUP2 DUP6 PUSH2 0x3476 JUMP JUMPDEST SWAP4 POP PUSH2 0x3052 DUP2 DUP6 PUSH1 0x20 DUP7 ADD PUSH2 0x355D JUMP JUMPDEST DUP1 DUP5 ADD SWAP2 POP POP SWAP3 SWAP2 POP POP JUMP JUMPDEST PUSH2 0x3067 DUP2 PUSH2 0x3532 JUMP JUMPDEST DUP3 MSTORE POP POP JUMP JUMPDEST PUSH2 0x307E PUSH2 0x3079 DUP3 PUSH2 0x3532 JUMP JUMPDEST PUSH2 0x3617 JUMP JUMPDEST DUP3 MSTORE POP POP JUMP JUMPDEST PUSH1 0x0 PUSH2 0x3090 DUP3 DUP6 PUSH2 0x2F43 JUMP JUMPDEST PUSH1 0x14 DUP3 ADD SWAP2 POP PUSH2 0x30A0 DUP3 DUP5 PUSH2 0x306D JUMP JUMPDEST PUSH1 0x20 DUP3 ADD SWAP2 POP DUP2 SWAP1 POP SWAP4 SWAP3 POP POP POP JUMP JUMPDEST PUSH1 0x0 PUSH2 0x30BC DUP3 DUP5 PUSH2 0x302D JUMP JUMPDEST SWAP2 POP DUP2 SWAP1 POP SWAP3 SWAP2 POP POP JUMP JUMPDEST PUSH1 0x0 PUSH1 0x20 DUP3 ADD SWAP1 POP PUSH2 0x30DC PUSH1 0x0 DUP4 ADD DUP5 PUSH2 0x2F34 JUMP JUMPDEST SWAP3 SWAP2 POP POP JUMP JUMPDEST PUSH1 0x0 PUSH1 0x20 DUP3 ADD SWAP1 POP DUP2 DUP2 SUB PUSH1 0x0 DUP4 ADD MSTORE PUSH2 0x30FC DUP2 DUP5 PUSH2 0x2F5A JUMP JUMPDEST SWAP1 POP SWAP3 SWAP2 POP POP JUMP JUMPDEST PUSH1 0x0 PUSH1 0x20 DUP3 ADD SWAP1 POP PUSH2 0x3119 PUSH1 0x0 DUP4 ADD DUP5 PUSH2 0x2FB8 JUMP JUMPDEST SWAP3 SWAP2 POP POP JUMP JUMPDEST PUSH1 0x0 PUSH1 0x20 DUP3 ADD SWAP1 POP PUSH2 0x3134 PUSH1 0x0 DUP4 ADD DUP5 PUSH2 0x2FD6 JUMP JUMPDEST SWAP3 SWAP2 POP POP JUMP JUMPDEST PUSH1 0x0 PUSH1 0xC0 DUP3 ADD SWAP1 POP PUSH2 0x314F PUSH1 0x0 DUP4 ADD DUP10 PUSH2 0x2FD6 JUMP JUMPDEST PUSH2 0x315C PUSH1 0x20 DUP4 ADD DUP9 PUSH2 0x2F34 JUMP JUMPDEST PUSH2 0x3169 PUSH1 0x40 DUP4 ADD DUP8 PUSH2 0x305E JUMP JUMPDEST DUP2 DUP2 SUB PUSH1 0x60 DUP4 ADD MSTORE PUSH2 0x317B DUP2 DUP7 PUSH2 0x2FF4 JUMP JUMPDEST SWAP1 POP PUSH2 0x318A PUSH1 0x80 DUP4 ADD DUP6 PUSH2 0x2F34 JUMP JUMPDEST DUP2 DUP2 SUB PUSH1 0xA0 DUP4 ADD MSTORE PUSH2 0x319C DUP2 DUP5 PUSH2 0x2FF4 JUMP JUMPDEST SWAP1 POP SWAP8 SWAP7 POP POP POP POP POP POP POP JUMP JUMPDEST PUSH1 0x0 PUSH1 0x20 DUP3 ADD SWAP1 POP DUP2 DUP2 SUB PUSH1 0x0 DUP4 ADD MSTORE PUSH2 0x31C3 DUP2 DUP5 PUSH2 0x2FF4 JUMP JUMPDEST SWAP1 POP SWAP3 SWAP2 POP POP JUMP JUMPDEST PUSH1 0x0 PUSH1 0xA0 DUP3 ADD SWAP1 POP DUP2 DUP2 SUB PUSH1 0x0 DUP4 ADD MSTORE PUSH2 0x31E5 DUP2 DUP9 PUSH2 0x2FF4 JUMP JUMPDEST SWAP1 POP PUSH2 0x31F4 PUSH1 0x20 DUP4 ADD DUP8 PUSH2 0x2F34 JUMP JUMPDEST PUSH2 0x3201 PUSH1 0x40 DUP4 ADD DUP7 PUSH2 0x305E JUMP JUMPDEST PUSH2 0x320E PUSH1 0x60 DUP4 ADD DUP6 PUSH2 0x2F34 JUMP JUMPDEST DUP2 DUP2 SUB PUSH1 0x80 DUP4 ADD MSTORE PUSH2 0x3220 DUP2 DUP5 PUSH2 0x2FF4 JUMP JUMPDEST SWAP1 POP SWAP7 SWAP6 POP POP POP POP POP POP JUMP JUMPDEST PUSH1 0x0 PUSH1 0xC0 DUP3 ADD SWAP1 POP DUP2 DUP2 SUB PUSH1 0x0 DUP4 ADD MSTORE PUSH2 0x3246 DUP2 DUP10 PUSH2 0x2FF4 JUMP JUMPDEST SWAP1 POP PUSH2 0x3255 PUSH1 0x20 DUP4 ADD DUP9 PUSH2 0x2F34 JUMP JUMPDEST PUSH2 0x3262 PUSH1 0x40 DUP4 ADD DUP8 PUSH2 0x305E JUMP JUMPDEST PUSH2 0x326F PUSH1 0x60 DUP4 ADD DUP7 PUSH2 0x2F34 JUMP JUMPDEST DUP2 DUP2 SUB PUSH1 0x80 DUP4 ADD MSTORE PUSH2 0x3281 DUP2 DUP6 PUSH2 0x2FF4 JUMP JUMPDEST SWAP1 POP PUSH2 0x3290 PUSH1 0xA0 DUP4 ADD DUP5 PUSH2 0x2FE5 JUMP JUMPDEST SWAP8 SWAP7 POP POP POP POP POP POP POP JUMP JUMPDEST PUSH1 0x0 PUSH1 0xE0 DUP3 ADD SWAP1 POP DUP2 DUP2 SUB PUSH1 0x0 DUP4 ADD MSTORE PUSH2 0x32B5 DUP2 DUP11 PUSH2 0x2FF4 JUMP JUMPDEST SWAP1 POP DUP2 DUP2 SUB PUSH1 0x20 DUP4 ADD MSTORE PUSH2 0x32C9 DUP2 DUP10 PUSH2 0x2FF4 JUMP JUMPDEST SWAP1 POP DUP2 DUP2 SUB PUSH1 0x40 DUP4 ADD MSTORE PUSH2 0x32DD DUP2 DUP9 PUSH2 0x2FF4 JUMP JUMPDEST SWAP1 POP DUP2 DUP2 SUB PUSH1 0x60 DUP4 ADD MSTORE PUSH2 0x32F1 DUP2 DUP8 PUSH2 0x2FF4 JUMP JUMPDEST SWAP1 POP DUP2 DUP2 SUB PUSH1 0x80 DUP4 ADD MSTORE PUSH2 0x3305 DUP2 DUP7 PUSH2 0x2FF4 JUMP JUMPDEST SWAP1 POP DUP2 DUP2 SUB PUSH1 0xA0 DUP4 ADD MSTORE PUSH2 0x3319 DUP2 DUP6 PUSH2 0x2FF4 JUMP JUMPDEST SWAP1 POP DUP2 DUP2 SUB PUSH1 0xC0 DUP4 ADD MSTORE PUSH2 0x332D DUP2 DUP5 PUSH2 0x2FF4 JUMP JUMPDEST SWAP1 POP SWAP9 SWAP8 POP POP POP POP POP POP POP POP JUMP JUMPDEST PUSH1 0x0 PUSH1 0x40 DUP3 ADD SWAP1 POP DUP2 DUP2 SUB PUSH1 0x0 DUP4 ADD MSTORE PUSH2 0x3355 DUP2 DUP6 PUSH2 0x2FF4 JUMP JUMPDEST SWAP1 POP PUSH2 0x3364 PUSH1 0x20 DUP4 ADD DUP5 PUSH2 0x305E JUMP JUMPDEST SWAP4 SWAP3 POP POP POP JUMP JUMPDEST PUSH1 0x0 PUSH1 0x20 DUP3 ADD SWAP1 POP PUSH2 0x3380 PUSH1 0x0 DUP4 ADD DUP5 PUSH2 0x305E JUMP JUMPDEST SWAP3 SWAP2 POP POP JUMP JUMPDEST PUSH1 0x0 PUSH1 0x80 DUP3 ADD SWAP1 POP PUSH2 0x339B PUSH1 0x0 DUP4 ADD DUP8 PUSH2 0x305E JUMP JUMPDEST PUSH2 0x33A8 PUSH1 0x20 DUP4 ADD DUP7 PUSH2 0x305E JUMP JUMPDEST PUSH2 0x33B5 PUSH1 0x40 DUP4 ADD DUP6 PUSH2 0x305E JUMP JUMPDEST PUSH2 0x33C2 PUSH1 0x60 DUP4 ADD DUP5 PUSH2 0x305E JUMP JUMPDEST SWAP6 SWAP5 POP POP POP POP POP JUMP JUMPDEST PUSH1 0x0 PUSH2 0x33D5 PUSH2 0x33E6 JUMP JUMPDEST SWAP1 POP PUSH2 0x33E1 DUP3 DUP3 PUSH2 0x35C2 JUMP JUMPDEST SWAP2 SWAP1 POP JUMP JUMPDEST PUSH1 0x0 PUSH1 0x40 MLOAD SWAP1 POP SWAP1 JUMP JUMPDEST PUSH1 0x0 PUSH8 0xFFFFFFFFFFFFFFFF DUP3 GT ISZERO PUSH2 0x340B JUMPI PUSH2 0x340A PUSH2 0x36AE JUMP JUMPDEST JUMPDEST PUSH2 0x3414 DUP3 PUSH2 0x36DD JUMP JUMPDEST SWAP1 POP PUSH1 0x20 DUP2 ADD SWAP1 POP SWAP2 SWAP1 POP JUMP JUMPDEST PUSH1 0x0 DUP2 SWAP1 POP PUSH1 0x20 DUP3 ADD SWAP1 POP SWAP2 SWAP1 POP JUMP JUMPDEST PUSH1 0x0 DUP2 MLOAD SWAP1 POP SWAP2 SWAP1 POP JUMP JUMPDEST PUSH1 0x0 DUP2 MLOAD SWAP1 POP SWAP2 SWAP1 POP JUMP JUMPDEST PUSH1 0x0 PUSH1 0x20 DUP3 ADD SWAP1 POP SWAP2 SWAP1 POP JUMP JUMPDEST PUSH1 0x0 DUP3 DUP3 MSTORE PUSH1 0x20 DUP3 ADD SWAP1 POP SWAP3 SWAP2 POP POP JUMP JUMPDEST PUSH1 0x0 DUP3 DUP3 MSTORE PUSH1 0x20 DUP3 ADD SWAP1 POP SWAP3 SWAP2 POP POP JUMP JUMPDEST PUSH1 0x0 DUP2 SWAP1 POP SWAP3 SWAP2 POP POP JUMP JUMPDEST PUSH1 0x0 PUSH2 0x348C DUP3 PUSH2 0x3532 JUMP JUMPDEST SWAP2 POP PUSH2 0x3497 DUP4 PUSH2 0x3532 JUMP JUMPDEST SWAP3 POP DUP3 PUSH32 0xFFFFFFFFFFFFFFFFFFFFFFFFFFFFFFFFFFFFFFFFFFFFFFFFFFFFFFFFFFFFFFFF SUB DUP3 GT ISZERO PUSH2 0x34CC JUMPI PUSH2 0x34CB PUSH2 0x3621 JUMP JUMPDEST JUMPDEST DUP3 DUP3 ADD SWAP1 POP SWAP3 SWAP2 POP POP JUMP JUMPDEST PUSH1 0x0 PUSH2 0x34E2 DUP3 PUSH2 0x3512 JUMP JUMPDEST SWAP1 POP SWAP2 SWAP1 POP JUMP JUMPDEST PUSH1 0x0 DUP2 ISZERO ISZERO SWAP1 POP SWAP2 SWAP1 POP JUMP JUMPDEST PUSH1 0x0 DUP2 SWAP1 POP SWAP2 SWAP1 POP JUMP JUMPDEST PUSH1 0x0 DUP2 SWAP1 POP PUSH2 0x350D DUP3 PUSH2 0x36FB JUMP JUMPDEST SWAP2 SWAP1 POP JUMP JUMPDEST PUSH1 0x0 PUSH20 0xFFFFFFFFFFFFFFFFFFFFFFFFFFFFFFFFFFFFFFFF DUP3 AND SWAP1 POP SWAP2 SWAP1 POP JUMP JUMPDEST PUSH1 0x0 DUP2 SWAP1 POP SWAP2 SWAP1 POP JUMP JUMPDEST PUSH1 0x0 PUSH2 0x3547 DUP3 PUSH2 0x34FF JUMP JUMPDEST SWAP1 POP SWAP2 SWAP1 POP JUMP JUMPDEST DUP3 DUP2 DUP4 CALLDATACOPY PUSH1 0x0 DUP4 DUP4 ADD MSTORE POP POP POP JUMP JUMPDEST PUSH1 0x0 JUMPDEST DUP4 DUP2 LT ISZERO PUSH2 0x357B JUMPI DUP1 DUP3 ADD MLOAD DUP2 DUP5 ADD MSTORE PUSH1 0x20 DUP2 ADD SWAP1 POP PUSH2 0x3560 JUMP JUMPDEST DUP4 DUP2 GT ISZERO PUSH2 0x358A JUMPI PUSH1 0x0 DUP5 DUP5 ADD MSTORE JUMPDEST POP POP POP POP JUMP JUMPDEST PUSH1 0x0 PUSH1 0x2 DUP3 DIV SWAP1 POP PUSH1 0x1 DUP3 AND DUP1 PUSH2 0x35A8 JUMPI PUSH1 0x7F DUP3 AND SWAP2 POP JUMPDEST PUSH1 0x20 DUP3 LT DUP2 EQ ISZERO PUSH2 0x35BC JUMPI PUSH2 0x35BB PUSH2 0x367F JUMP JUMPDEST JUMPDEST POP SWAP2 SWAP1 POP JUMP JUMPDEST PUSH2 0x35CB DUP3 PUSH2 0x36DD JUMP JUMPDEST DUP2 ADD DUP2 DUP2 LT PUSH8 0xFFFFFFFFFFFFFFFF DUP3 GT OR ISZERO PUSH2 0x35EA JUMPI PUSH2 0x35E9 PUSH2 0x36AE JUMP JUMPDEST JUMPDEST DUP1 PUSH1 0x40 MSTORE POP POP POP JUMP JUMPDEST PUSH1 0x0 PUSH2 0x35FE DUP3 PUSH2 0x3605 JUMP JUMPDEST SWAP1 POP SWAP2 SWAP1 POP JUMP JUMPDEST PUSH1 0x0 PUSH2 0x3610 DUP3 PUSH2 0x36EE JUMP JUMPDEST SWAP1 POP SWAP2 SWAP1 POP JUMP JUMPDEST PUSH1 0x0 DUP2 SWAP1 POP SWAP2 SWAP1 POP JUMP JUMPDEST PUSH32 0x4E487B7100000000000000000000000000000000000000000000000000000000 PUSH1 0x0 MSTORE PUSH1 0x11 PUSH1 0x4 MSTORE PUSH1 0x24 PUSH1 0x0 REVERT JUMPDEST PUSH32 0x4E487B7100000000000000000000000000000000000000000000000000000000 PUSH1 0x0 MSTORE PUSH1 0x21 PUSH1 0x4 MSTORE PUSH1 0x24 PUSH1 0x0 REVERT JUMPDEST PUSH32 0x4E487B7100000000000000000000000000000000000000000000000000000000 PUSH1 0x0 MSTORE PUSH1 0x22 PUSH1 0x4 MSTORE PUSH1 0x24 PUSH1 0x0 REVERT JUMPDEST PUSH32 0x4E487B7100000000000000000000000000000000000000000000000000000000 PUSH1 0x0 MSTORE PUSH1 0x41 PUSH1 0x4 MSTORE PUSH1 0x24 PUSH1 0x0 REVERT JUMPDEST PUSH1 0x0 PUSH1 0x1F NOT PUSH1 0x1F DUP4 ADD AND SWAP1 POP SWAP2 SWAP1 POP JUMP JUMPDEST PUSH1 0x0 DUP2 PUSH1 0x60 SHL SWAP1 POP SWAP2 SWAP1 POP JUMP JUMPDEST PUSH1 0x7 DUP2 LT PUSH2 0x370C JUMPI PUSH2 0x370B PUSH2 0x3650 JUMP JUMPDEST JUMPDEST POP JUMP JUMPDEST PUSH2 0x3718 DUP2 PUSH2 0x34D7 JUMP JUMPDEST DUP2 EQ PUSH2 0x3723 JUMPI PUSH1 0x0 DUP1 REVERT JUMPDEST POP JUMP JUMPDEST PUSH2 0x372F DUP2 PUSH2 0x34F5 JUMP JUMPDEST DUP2 EQ PUSH2 0x373A JUMPI PUSH1 0x0 DUP1 REVERT JUMPDEST POP JUMP JUMPDEST PUSH1 0x7 DUP2 LT PUSH2 0x374A JUMPI PUSH1 0x0 DUP1 REVERT JUMPDEST POP JUMP JUMPDEST PUSH2 0x3756 DUP2 PUSH2 0x3532 JUMP JUMPDEST DUP2 EQ PUSH2 0x3761 JUMPI PUSH1 0x0 DUP1 REVERT JUMPDEST POP JUMP INVALID LOG2 PUSH5 0x6970667358 0x22 SLT KECCAK256 0x24 SWAP1 PC PUSH23 0xCA3A75BA212BDA65D2399335DFD98C9DE785C0E2AAAED6 DUP16 0xE8 0xFC PUSH12 0x6C64736F6C63430008040033 "
				},
				"gasEstimates": {
					"creation": {
						"codeDepositCost": "2846800",
						"executionCost": "3107",
						"totalCost": "2849907"
					},
					"external": {
						"addressToAmountRecord(address)": "infinite",
						"checkLogIn(address)": "1699",
						"checkUser()": "infinite",
						"deleteUser()": "infinite",
						"getAllNftCatWise(uint8)": "infinite",
						"getNft(address,uint256)": "infinite",
						"getNftCategories()": "infinite",
						"getNftWithBytes32(bytes32)": "infinite",
						"getProfilePic()": "infinite",
						"getUniKeysMapping(address)": "infinite",
						"getUserNftCatWise(uint8)": "infinite",
						"logIn()": "infinite",
						"logOut()": "infinite",
						"myNFTs(bytes32)": "infinite",
						"nftCatWise(uint8,uint256)": "2608",
						"setAmountRecord(address,uint256,uint256,uint256,uint256)": "infinite",
						"setBuyNftData(address,bytes32)": "62638",
						"setNft(string,address,uint256,string)": "infinite",
						"setNftCat(address,uint256,uint8)": "infinite",
						"setProfilePic(string)": "infinite",
						"signUp(string)": "infinite",
						"uniKeysMapping(address,uint256)": "2701",
						"updateUser(string)": "infinite",
						"userAmountDetail(address)": "infinite",
						"userNameToAddress(string)": "infinite",
						"userNftCatWise(address,uint8,uint256)": "2801"
					}
				},
				"methodIdentifiers": {
					"addressToAmountRecord(address)": "7111e750",
					"checkLogIn(address)": "f6f2ede0",
					"checkUser()": "c1562547",
					"deleteUser()": "026ff05e",
					"getAllNftCatWise(uint8)": "e36d6f50",
					"getNft(address,uint256)": "1c6932b6",
					"getNftCategories()": "bbc53ef2",
					"getNftWithBytes32(bytes32)": "3a196986",
					"getProfilePic()": "eb972008",
					"getUniKeysMapping(address)": "5cb0122a",
					"getUserNftCatWise(uint8)": "da31f722",
					"logIn()": "377b47a3",
					"logOut()": "4be422ae",
					"myNFTs(bytes32)": "07edbdc5",
					"nftCatWise(uint8,uint256)": "b2cf1886",
					"setAmountRecord(address,uint256,uint256,uint256,uint256)": "894fd813",
					"setBuyNftData(address,bytes32)": "2441f1f1",
					"setNft(string,address,uint256,string)": "6e9d4f8d",
					"setNftCat(address,uint256,uint8)": "2ae23109",
					"setProfilePic(string)": "011f2cce",
					"signUp(string)": "adcfb4fc",
					"uniKeysMapping(address,uint256)": "23e583b4",
					"updateUser(string)": "0b4f12f6",
					"userAmountDetail(address)": "8a1b9736",
					"userNameToAddress(string)": "6c608709",
					"userNftCatWise(address,uint8,uint256)": "dc9151c5"
				}
			},
			"storageLayout": {
				"storage": [
					{
						"astId": 742,
						"contract": "Bluelight-MP/UserDashboard.sol:UserDashboard",
						"label": "myNFTs",
						"offset": 0,
						"slot": "0",
						"type": "t_mapping(t_bytes32,t_struct(MyNFT)797_storage)"
					},
					{
						"astId": 747,
						"contract": "Bluelight-MP/UserDashboard.sol:UserDashboard",
						"label": "uniKeysMapping",
						"offset": 0,
						"slot": "1",
						"type": "t_mapping(t_address,t_array(t_bytes32)dyn_storage)"
					},
					{
						"astId": 753,
						"contract": "Bluelight-MP/UserDashboard.sol:UserDashboard",
						"label": "nftCatWise",
						"offset": 0,
						"slot": "2",
						"type": "t_mapping(t_enum(NftCategory)783,t_array(t_bytes32)dyn_storage)"
					},
					{
						"astId": 761,
						"contract": "Bluelight-MP/UserDashboard.sol:UserDashboard",
						"label": "userNftCatWise",
						"offset": 0,
						"slot": "3",
						"type": "t_mapping(t_address,t_mapping(t_enum(NftCategory)783,t_array(t_bytes32)dyn_storage))"
					},
					{
						"astId": 766,
						"contract": "Bluelight-MP/UserDashboard.sol:UserDashboard",
						"label": "users",
						"offset": 0,
						"slot": "4",
						"type": "t_mapping(t_address,t_struct(User)808_storage)"
					},
					{
						"astId": 770,
						"contract": "Bluelight-MP/UserDashboard.sol:UserDashboard",
						"label": "userNameToAddress",
						"offset": 0,
						"slot": "5",
						"type": "t_mapping(t_string_memory_ptr,t_address)"
					},
					{
						"astId": 775,
						"contract": "Bluelight-MP/UserDashboard.sol:UserDashboard",
						"label": "addressToAmountRecord",
						"offset": 0,
						"slot": "6",
						"type": "t_mapping(t_address,t_struct(AmountRecord)817_storage)"
					}
				],
				"types": {
					"t_address": {
						"encoding": "inplace",
						"label": "address",
						"numberOfBytes": "20"
					},
					"t_array(t_bytes32)dyn_storage": {
						"base": "t_bytes32",
						"encoding": "dynamic_array",
						"label": "bytes32[]",
						"numberOfBytes": "32"
					},
					"t_bool": {
						"encoding": "inplace",
						"label": "bool",
						"numberOfBytes": "1"
					},
					"t_bytes32": {
						"encoding": "inplace",
						"label": "bytes32",
						"numberOfBytes": "32"
					},
					"t_enum(NftCategory)783": {
						"encoding": "inplace",
						"label": "enum UserDashboard.NftCategory",
						"numberOfBytes": "1"
					},
					"t_mapping(t_address,t_array(t_bytes32)dyn_storage)": {
						"encoding": "mapping",
						"key": "t_address",
						"label": "mapping(address => bytes32[])",
						"numberOfBytes": "32",
						"value": "t_array(t_bytes32)dyn_storage"
					},
					"t_mapping(t_address,t_mapping(t_enum(NftCategory)783,t_array(t_bytes32)dyn_storage))": {
						"encoding": "mapping",
						"key": "t_address",
						"label": "mapping(address => mapping(enum UserDashboard.NftCategory => bytes32[]))",
						"numberOfBytes": "32",
						"value": "t_mapping(t_enum(NftCategory)783,t_array(t_bytes32)dyn_storage)"
					},
					"t_mapping(t_address,t_struct(AmountRecord)817_storage)": {
						"encoding": "mapping",
						"key": "t_address",
						"label": "mapping(address => struct UserDashboard.AmountRecord)",
						"numberOfBytes": "32",
						"value": "t_struct(AmountRecord)817_storage"
					},
					"t_mapping(t_address,t_struct(User)808_storage)": {
						"encoding": "mapping",
						"key": "t_address",
						"label": "mapping(address => struct UserDashboard.User)",
						"numberOfBytes": "32",
						"value": "t_struct(User)808_storage"
					},
					"t_mapping(t_bytes32,t_struct(MyNFT)797_storage)": {
						"encoding": "mapping",
						"key": "t_bytes32",
						"label": "mapping(bytes32 => struct UserDashboard.MyNFT)",
						"numberOfBytes": "32",
						"value": "t_struct(MyNFT)797_storage"
					},
					"t_mapping(t_enum(NftCategory)783,t_array(t_bytes32)dyn_storage)": {
						"encoding": "mapping",
						"key": "t_enum(NftCategory)783",
						"label": "mapping(enum UserDashboard.NftCategory => bytes32[])",
						"numberOfBytes": "32",
						"value": "t_array(t_bytes32)dyn_storage"
					},
					"t_mapping(t_string_memory_ptr,t_address)": {
						"encoding": "mapping",
						"key": "t_string_memory_ptr",
						"label": "mapping(string => address)",
						"numberOfBytes": "32",
						"value": "t_address"
					},
					"t_string_memory_ptr": {
						"encoding": "bytes",
						"label": "string",
						"numberOfBytes": "32"
					},
					"t_string_storage": {
						"encoding": "bytes",
						"label": "string",
						"numberOfBytes": "32"
					},
					"t_struct(AmountRecord)817_storage": {
						"encoding": "inplace",
						"label": "struct UserDashboard.AmountRecord",
						"members": [
							{
								"astId": 810,
								"contract": "Bluelight-MP/UserDashboard.sol:UserDashboard",
								"label": "curAmountSpent",
								"offset": 0,
								"slot": "0",
								"type": "t_uint256"
							},
							{
								"astId": 812,
								"contract": "Bluelight-MP/UserDashboard.sol:UserDashboard",
								"label": "tokenAmountSpent",
								"offset": 0,
								"slot": "1",
								"type": "t_uint256"
							},
							{
								"astId": 814,
								"contract": "Bluelight-MP/UserDashboard.sol:UserDashboard",
								"label": "curAmountEarned",
								"offset": 0,
								"slot": "2",
								"type": "t_uint256"
							},
							{
								"astId": 816,
								"contract": "Bluelight-MP/UserDashboard.sol:UserDashboard",
								"label": "tokenAmountEarned",
								"offset": 0,
								"slot": "3",
								"type": "t_uint256"
							}
						],
						"numberOfBytes": "128"
					},
					"t_struct(MyNFT)797_storage": {
						"encoding": "inplace",
						"label": "struct UserDashboard.MyNFT",
						"members": [
							{
								"astId": 785,
								"contract": "Bluelight-MP/UserDashboard.sol:UserDashboard",
								"label": "nftName",
								"offset": 0,
								"slot": "0",
								"type": "t_string_storage"
							},
							{
								"astId": 787,
								"contract": "Bluelight-MP/UserDashboard.sol:UserDashboard",
								"label": "contractAddress",
								"offset": 0,
								"slot": "1",
								"type": "t_address"
							},
							{
								"astId": 789,
								"contract": "Bluelight-MP/UserDashboard.sol:UserDashboard",
								"label": "tokenId",
								"offset": 0,
								"slot": "2",
								"type": "t_uint256"
							},
							{
								"astId": 791,
								"contract": "Bluelight-MP/UserDashboard.sol:UserDashboard",
								"label": "owner",
								"offset": 0,
								"slot": "3",
								"type": "t_address"
							},
							{
								"astId": 793,
								"contract": "Bluelight-MP/UserDashboard.sol:UserDashboard",
								"label": "ipfs",
								"offset": 0,
								"slot": "4",
								"type": "t_string_storage"
							},
							{
								"astId": 796,
								"contract": "Bluelight-MP/UserDashboard.sol:UserDashboard",
								"label": "nftCategory",
								"offset": 0,
								"slot": "5",
								"type": "t_enum(NftCategory)783"
							}
						],
						"numberOfBytes": "192"
					},
					"t_struct(User)808_storage": {
						"encoding": "inplace",
						"label": "struct UserDashboard.User",
						"members": [
							{
								"astId": 799,
								"contract": "Bluelight-MP/UserDashboard.sol:UserDashboard",
								"label": "userName",
								"offset": 0,
								"slot": "0",
								"type": "t_string_storage"
							},
							{
								"astId": 801,
								"contract": "Bluelight-MP/UserDashboard.sol:UserDashboard",
								"label": "userExisted",
								"offset": 0,
								"slot": "1",
								"type": "t_bool"
							},
							{
								"astId": 803,
								"contract": "Bluelight-MP/UserDashboard.sol:UserDashboard",
								"label": "creationTime",
								"offset": 0,
								"slot": "2",
								"type": "t_uint256"
							},
							{
								"astId": 805,
								"contract": "Bluelight-MP/UserDashboard.sol:UserDashboard",
								"label": "loggedIn",
								"offset": 0,
								"slot": "3",
								"type": "t_bool"
							},
							{
								"astId": 807,
								"contract": "Bluelight-MP/UserDashboard.sol:UserDashboard",
								"label": "profilePic",
								"offset": 0,
								"slot": "4",
								"type": "t_string_storage"
							}
						],
						"numberOfBytes": "160"
					},
					"t_uint256": {
						"encoding": "inplace",
						"label": "uint256",
						"numberOfBytes": "32"
					}
				}
			},
			"userdoc": {
				"kind": "user",
				"methods": {},
				"version": 1
			}
		}
	}
}