{
	"Bluelight-MP/UserDashboard.sol": {
		"UserDashboard": {
			"abi": [
				{
					"inputs": [
						{
							"internalType": "address",
							"name": "wmAddr",
							"type": "address"
						}
					],
					"stateMutability": "nonpayable",
					"type": "constructor"
				},
				{
					"anonymous": false,
					"inputs": [
						{
							"indexed": true,
							"internalType": "address",
							"name": "user",
							"type": "address"
						},
						{
							"indexed": false,
							"internalType": "uint256",
							"name": "timeStamp",
							"type": "uint256"
						}
					],
					"name": "LoggingIn",
					"type": "event"
				},
				{
					"anonymous": false,
					"inputs": [
						{
							"indexed": true,
							"internalType": "address",
							"name": "user",
							"type": "address"
						},
						{
							"indexed": false,
							"internalType": "uint256",
							"name": "timeStamp",
							"type": "uint256"
						}
					],
					"name": "LoggingOut",
					"type": "event"
				},
				{
					"anonymous": false,
					"inputs": [
						{
							"indexed": true,
							"internalType": "address",
							"name": "user",
							"type": "address"
						},
						{
							"indexed": false,
							"internalType": "string",
							"name": "username",
							"type": "string"
						},
						{
							"indexed": false,
							"internalType": "uint256",
							"name": "timeStamp",
							"type": "uint256"
						}
					],
					"name": "SignUp",
					"type": "event"
				},
				{
					"inputs": [
						{
							"internalType": "address",
							"name": "",
							"type": "address"
						}
					],
					"name": "addressToAmountRecord",
					"outputs": [
						{
							"internalType": "uint256",
							"name": "curAmountSpent",
							"type": "uint256"
						},
						{
							"internalType": "uint256",
							"name": "tokenAmountSpent",
							"type": "uint256"
						},
						{
							"internalType": "uint256",
							"name": "curAmountEarned",
							"type": "uint256"
						},
						{
							"internalType": "uint256",
							"name": "tokenAmountEarned",
							"type": "uint256"
						}
					],
					"stateMutability": "view",
					"type": "function"
				},
				{
					"inputs": [
						{
							"internalType": "address",
							"name": "_userAddr",
							"type": "address"
						}
					],
					"name": "checkLogIn",
					"outputs": [
						{
							"internalType": "bool",
							"name": "",
							"type": "bool"
						}
					],
					"stateMutability": "view",
					"type": "function"
				},
				{
					"inputs": [],
					"name": "checkUser",
					"outputs": [
						{
							"internalType": "string",
							"name": "",
							"type": "string"
						}
					],
					"stateMutability": "view",
					"type": "function"
				},
				{
					"inputs": [],
					"name": "deleteUser",
					"outputs": [
						{
							"internalType": "bool",
							"name": "",
							"type": "bool"
						}
					],
					"stateMutability": "nonpayable",
					"type": "function"
				},
				{
					"inputs": [
						{
							"internalType": "bytes32",
							"name": "_uniKey",
							"type": "bytes32"
						}
					],
					"name": "getNftdata",
					"outputs": [
						{
							"internalType": "address",
							"name": "nftContractAddress",
							"type": "address"
						},
						{
							"internalType": "uint256",
							"name": "tokenId",
							"type": "uint256"
						},
						{
							"internalType": "address",
							"name": "owner",
							"type": "address"
						},
						{
							"internalType": "string",
							"name": "iPFS",
							"type": "string"
						}
					],
					"stateMutability": "view",
					"type": "function"
				},
				{
					"inputs": [],
					"name": "getProfilePic",
					"outputs": [
						{
							"internalType": "string",
							"name": "ipfs",
							"type": "string"
						}
					],
					"stateMutability": "view",
					"type": "function"
				},
				{
					"inputs": [
						{
							"internalType": "address",
							"name": "ownerOfNfts",
							"type": "address"
						}
					],
					"name": "getUniKeysMapping",
					"outputs": [
						{
							"internalType": "bytes32[]",
							"name": "",
							"type": "bytes32[]"
						}
					],
					"stateMutability": "view",
					"type": "function"
				},
				{
					"inputs": [],
					"name": "logIn",
					"outputs": [],
					"stateMutability": "nonpayable",
					"type": "function"
				},
				{
					"inputs": [],
					"name": "logOut",
					"outputs": [],
					"stateMutability": "nonpayable",
					"type": "function"
				},
				{
					"inputs": [
						{
							"internalType": "bytes32",
							"name": "",
							"type": "bytes32"
						}
					],
					"name": "myNFTs",
					"outputs": [
						{
							"internalType": "address",
							"name": "contractAddress",
							"type": "address"
						},
						{
							"internalType": "uint256",
							"name": "tokenId",
							"type": "uint256"
						},
						{
							"internalType": "address",
							"name": "owner",
							"type": "address"
						},
						{
							"internalType": "string",
							"name": "ipfs",
							"type": "string"
						}
					],
					"stateMutability": "view",
					"type": "function"
				},
				{
					"inputs": [
						{
							"internalType": "address",
							"name": "user",
							"type": "address"
						},
						{
							"internalType": "uint256",
							"name": "curAmountSpent",
							"type": "uint256"
						},
						{
							"internalType": "uint256",
							"name": "tokenAmountSpent",
							"type": "uint256"
						},
						{
							"internalType": "uint256",
							"name": "curAmountEarned",
							"type": "uint256"
						},
						{
							"internalType": "uint256",
							"name": "tokenAmountEarned",
							"type": "uint256"
						}
					],
					"name": "setAmountRecord",
					"outputs": [],
					"stateMutability": "nonpayable",
					"type": "function"
				},
				{
					"inputs": [
						{
							"internalType": "address",
							"name": "owner",
							"type": "address"
						},
						{
							"internalType": "address",
							"name": "nftContractAddress",
							"type": "address"
						},
						{
							"internalType": "uint256",
							"name": "tokenId",
							"type": "uint256"
						},
						{
							"internalType": "string",
							"name": "iPFS",
							"type": "string"
						}
					],
					"name": "setBuyNftData",
					"outputs": [],
					"stateMutability": "nonpayable",
					"type": "function"
				},
				{
					"inputs": [
						{
							"internalType": "address",
							"name": "owner",
							"type": "address"
						},
						{
							"internalType": "address",
							"name": "nftContractAddress",
							"type": "address"
						},
						{
							"internalType": "uint256",
							"name": "tokenId",
							"type": "uint256"
						},
						{
							"internalType": "string",
							"name": "iPFS",
							"type": "string"
						}
					],
					"name": "setNftData",
					"outputs": [],
					"stateMutability": "nonpayable",
					"type": "function"
				},
				{
					"inputs": [
						{
							"internalType": "string",
							"name": "iPFS",
							"type": "string"
						}
					],
					"name": "setProfilePic",
					"outputs": [],
					"stateMutability": "nonpayable",
					"type": "function"
				},
				{
					"inputs": [
						{
							"internalType": "string",
							"name": "_userName",
							"type": "string"
						}
					],
					"name": "signUp",
					"outputs": [],
					"stateMutability": "nonpayable",
					"type": "function"
				},
				{
					"inputs": [
						{
							"internalType": "address",
							"name": "",
							"type": "address"
						},
						{
							"internalType": "uint256",
							"name": "",
							"type": "uint256"
						}
					],
					"name": "uniKeysMapping",
					"outputs": [
						{
							"internalType": "bytes32",
							"name": "",
							"type": "bytes32"
						}
					],
					"stateMutability": "view",
					"type": "function"
				},
				{
					"inputs": [
						{
							"internalType": "string",
							"name": "_userName",
							"type": "string"
						}
					],
					"name": "updateUser",
					"outputs": [],
					"stateMutability": "nonpayable",
					"type": "function"
				},
				{
					"inputs": [
						{
							"internalType": "address",
							"name": "user",
							"type": "address"
						}
					],
					"name": "userAmountDetail",
					"outputs": [
						{
							"internalType": "uint256",
							"name": "currencyEarned",
							"type": "uint256"
						},
						{
							"internalType": "uint256",
							"name": "earnedToken",
							"type": "uint256"
						},
						{
							"internalType": "uint256",
							"name": "currencySpent",
							"type": "uint256"
						},
						{
							"internalType": "uint256",
							"name": "tokenSpent",
							"type": "uint256"
						}
					],
					"stateMutability": "view",
					"type": "function"
				},
				{
					"inputs": [
						{
							"internalType": "string",
							"name": "",
							"type": "string"
						}
					],
					"name": "userNameToAddress",
					"outputs": [
						{
							"internalType": "address",
							"name": "",
							"type": "address"
						}
					],
					"stateMutability": "view",
					"type": "function"
				}
			],
			"devdoc": {
				"kind": "dev",
				"methods": {},
				"version": 1
			},
			"evm": {
				"assembly": "    /* \"Bluelight-MP/UserDashboard.sol\":147:6492  contract UserDashboard is IUserDashboard{\r... */\n  mstore(0x40, 0x80)\n    /* \"Bluelight-MP/UserDashboard.sol\":1233:1315  constructor(address wmAddr){\r... */\n  callvalue\n  dup1\n  iszero\n  tag_1\n  jumpi\n  0x00\n  dup1\n  revert\ntag_1:\n  pop\n  mload(0x40)\n  sub(codesize, bytecodeSize)\n  dup1\n  bytecodeSize\n  dup4\n  codecopy\n  dup2\n  dup2\n  add\n  0x40\n  mstore\n  dup2\n  add\n  swap1\n  tag_2\n  swap2\n  swap1\n  tag_3\n  jump\t// in\ntag_2:\n    /* \"Bluelight-MP/UserDashboard.sol\":1300:1306  wmAddr */\n  dup1\n    /* \"Bluelight-MP/UserDashboard.sol\":1271:1285  waterMelonAddr */\n  0x00\n  dup1\n    /* \"Bluelight-MP/UserDashboard.sol\":1271:1307  waterMelonAddr = IWaterMelon(wmAddr) */\n  0x0100\n  exp\n  dup2\n  sload\n  dup2\n  0xffffffffffffffffffffffffffffffffffffffff\n  mul\n  not\n  and\n  swap1\n  dup4\n  0xffffffffffffffffffffffffffffffffffffffff\n  and\n  mul\n  or\n  swap1\n  sstore\n  pop\n    /* \"Bluelight-MP/UserDashboard.sol\":1233:1315  constructor(address wmAddr){\r... */\n  pop\n    /* \"Bluelight-MP/UserDashboard.sol\":147:6492  contract UserDashboard is IUserDashboard{\r... */\n  jump(tag_6)\n    /* \"#utility.yul\":7:150   */\ntag_8:\n    /* \"#utility.yul\":64:69   */\n  0x00\n    /* \"#utility.yul\":95:101   */\n  dup2\n    /* \"#utility.yul\":89:102   */\n  mload\n    /* \"#utility.yul\":80:102   */\n  swap1\n  pop\n    /* \"#utility.yul\":111:144   */\n  tag_10\n    /* \"#utility.yul\":138:143   */\n  dup2\n    /* \"#utility.yul\":111:144   */\n  tag_11\n  jump\t// in\ntag_10:\n    /* \"#utility.yul\":70:150   */\n  swap3\n  swap2\n  pop\n  pop\n  jump\t// out\n    /* \"#utility.yul\":156:440   */\ntag_3:\n    /* \"#utility.yul\":226:232   */\n  0x00\n    /* \"#utility.yul\":275:277   */\n  0x20\n    /* \"#utility.yul\":263:272   */\n  dup3\n    /* \"#utility.yul\":254:261   */\n  dup5\n    /* \"#utility.yul\":250:273   */\n  sub\n    /* \"#utility.yul\":246:278   */\n  slt\n    /* \"#utility.yul\":243:245   */\n  iszero\n  tag_13\n  jumpi\n    /* \"#utility.yul\":291:292   */\n  0x00\n    /* \"#utility.yul\":288:289   */\n  dup1\n    /* \"#utility.yul\":281:293   */\n  revert\n    /* \"#utility.yul\":243:245   */\ntag_13:\n    /* \"#utility.yul\":334:335   */\n  0x00\n    /* \"#utility.yul\":359:423   */\n  tag_14\n    /* \"#utility.yul\":415:422   */\n  dup5\n    /* \"#utility.yul\":406:412   */\n  dup3\n    /* \"#utility.yul\":395:404   */\n  dup6\n    /* \"#utility.yul\":391:413   */\n  add\n    /* \"#utility.yul\":359:423   */\n  tag_8\n  jump\t// in\ntag_14:\n    /* \"#utility.yul\":349:423   */\n  swap2\n  pop\n    /* \"#utility.yul\":305:433   */\n  pop\n    /* \"#utility.yul\":233:440   */\n  swap3\n  swap2\n  pop\n  pop\n  jump\t// out\n    /* \"#utility.yul\":446:542   */\ntag_15:\n    /* \"#utility.yul\":483:490   */\n  0x00\n    /* \"#utility.yul\":512:536   */\n  tag_17\n    /* \"#utility.yul\":530:535   */\n  dup3\n    /* \"#utility.yul\":512:536   */\n  tag_18\n  jump\t// in\ntag_17:\n    /* \"#utility.yul\":501:536   */\n  swap1\n  pop\n    /* \"#utility.yul\":491:542   */\n  swap2\n  swap1\n  pop\n  jump\t// out\n    /* \"#utility.yul\":548:674   */\ntag_18:\n    /* \"#utility.yul\":585:592   */\n  0x00\n    /* \"#utility.yul\":625:667   */\n  0xffffffffffffffffffffffffffffffffffffffff\n    /* \"#utility.yul\":618:623   */\n  dup3\n    /* \"#utility.yul\":614:668   */\n  and\n    /* \"#utility.yul\":603:668   */\n  swap1\n  pop\n    /* \"#utility.yul\":593:674   */\n  swap2\n  swap1\n  pop\n  jump\t// out\n    /* \"#utility.yul\":680:802   */\ntag_11:\n    /* \"#utility.yul\":753:777   */\n  tag_21\n    /* \"#utility.yul\":771:776   */\n  dup2\n    /* \"#utility.yul\":753:777   */\n  tag_15\n  jump\t// in\ntag_21:\n    /* \"#utility.yul\":746:751   */\n  dup2\n    /* \"#utility.yul\":743:778   */\n  eq\n    /* \"#utility.yul\":733:735   */\n  tag_22\n  jumpi\n    /* \"#utility.yul\":792:793   */\n  0x00\n    /* \"#utility.yul\":789:790   */\n  dup1\n    /* \"#utility.yul\":782:794   */\n  revert\n    /* \"#utility.yul\":733:735   */\ntag_22:\n    /* \"#utility.yul\":723:802   */\n  pop\n  jump\t// out\n    /* \"Bluelight-MP/UserDashboard.sol\":147:6492  contract UserDashboard is IUserDashboard{\r... */\ntag_6:\n  dataSize(sub_0)\n  dup1\n  dataOffset(sub_0)\n  0x00\n  codecopy\n  0x00\n  return\nstop\n\nsub_0: assembly {\n        /* \"Bluelight-MP/UserDashboard.sol\":147:6492  contract UserDashboard is IUserDashboard{\r... */\n      mstore(0x40, 0x80)\n      callvalue\n      dup1\n      iszero\n      tag_1\n      jumpi\n      0x00\n      dup1\n      revert\n    tag_1:\n      pop\n      jumpi(tag_2, lt(calldatasize, 0x04))\n      shr(0xe0, calldataload(0x00))\n      dup1\n      0x6c608709\n      gt\n      tag_22\n      jumpi\n      dup1\n      0xadcfb4fc\n      gt\n      tag_23\n      jumpi\n      dup1\n      0xadcfb4fc\n      eq\n      tag_17\n      jumpi\n      dup1\n      0xc1562547\n      eq\n      tag_18\n      jumpi\n      dup1\n      0xc6370dfc\n      eq\n      tag_19\n      jumpi\n      dup1\n      0xeb972008\n      eq\n      tag_20\n      jumpi\n      dup1\n      0xf6f2ede0\n      eq\n      tag_21\n      jumpi\n      jump(tag_2)\n    tag_23:\n      dup1\n      0x6c608709\n      eq\n      tag_12\n      jumpi\n      dup1\n      0x7111e750\n      eq\n      tag_13\n      jumpi\n      dup1\n      0x894fd813\n      eq\n      tag_14\n      jumpi\n      dup1\n      0x8a1b9736\n      eq\n      tag_15\n      jumpi\n      dup1\n      0x9efa528e\n      eq\n      tag_16\n      jumpi\n      jump(tag_2)\n    tag_22:\n      dup1\n      0x23e583b4\n      gt\n      tag_24\n      jumpi\n      dup1\n      0x23e583b4\n      eq\n      tag_7\n      jumpi\n      dup1\n      0x377b47a3\n      eq\n      tag_8\n      jumpi\n      dup1\n      0x46064ab9\n      eq\n      tag_9\n      jumpi\n      dup1\n      0x4be422ae\n      eq\n      tag_10\n      jumpi\n      dup1\n      0x5cb0122a\n      eq\n      tag_11\n      jumpi\n      jump(tag_2)\n    tag_24:\n      dup1\n      0x011f2cce\n      eq\n      tag_3\n      jumpi\n      dup1\n      0x026ff05e\n      eq\n      tag_4\n      jumpi\n      dup1\n      0x07edbdc5\n      eq\n      tag_5\n      jumpi\n      dup1\n      0x0b4f12f6\n      eq\n      tag_6\n      jumpi\n    tag_2:\n      0x00\n      dup1\n      revert\n        /* \"Bluelight-MP/UserDashboard.sol\":4307:4506  function setProfilePic(string memory iPFS) external {\r... */\n    tag_3:\n      tag_25\n      0x04\n      dup1\n      calldatasize\n      sub\n      dup2\n      add\n      swap1\n      tag_26\n      swap2\n      swap1\n      tag_27\n      jump\t// in\n    tag_26:\n      tag_28\n      jump\t// in\n    tag_25:\n      stop\n        /* \"Bluelight-MP/UserDashboard.sol\":5313:5609  function deleteUser() external virtual override returns(bool){\r... */\n    tag_4:\n      tag_29\n      tag_30\n      jump\t// in\n    tag_29:\n      mload(0x40)\n      tag_31\n      swap2\n      swap1\n      tag_32\n      jump\t// in\n    tag_31:\n      mload(0x40)\n      dup1\n      swap2\n      sub\n      swap1\n      return\n        /* \"Bluelight-MP/UserDashboard.sol\":890:930  mapping (bytes32 => MyNFT) public myNFTs */\n    tag_5:\n      tag_33\n      0x04\n      dup1\n      calldatasize\n      sub\n      dup2\n      add\n      swap1\n      tag_34\n      swap2\n      swap1\n      tag_35\n      jump\t// in\n    tag_34:\n      tag_36\n      jump\t// in\n    tag_33:\n      mload(0x40)\n      tag_37\n      swap5\n      swap4\n      swap3\n      swap2\n      swap1\n      tag_38\n      jump\t// in\n    tag_37:\n      mload(0x40)\n      dup1\n      swap2\n      sub\n      swap1\n      return\n        /* \"Bluelight-MP/UserDashboard.sol\":4866:5307  function updateUser(string memory _userName) external virtual override{\r... */\n    tag_6:\n      tag_39\n      0x04\n      dup1\n      calldatasize\n      sub\n      dup2\n      add\n      swap1\n      tag_40\n      swap2\n      swap1\n      tag_27\n      jump\t// in\n    tag_40:\n      tag_41\n      jump\t// in\n    tag_39:\n      stop\n        /* \"Bluelight-MP/UserDashboard.sol\":937:989  mapping (address => bytes32[]) public uniKeysMapping */\n    tag_7:\n      tag_42\n      0x04\n      dup1\n      calldatasize\n      sub\n      dup2\n      add\n      swap1\n      tag_43\n      swap2\n      swap1\n      tag_44\n      jump\t// in\n    tag_43:\n      tag_45\n      jump\t// in\n    tag_42:\n      mload(0x40)\n      tag_46\n      swap2\n      swap1\n      tag_47\n      jump\t// in\n    tag_46:\n      mload(0x40)\n      dup1\n      swap2\n      sub\n      swap1\n      return\n        /* \"Bluelight-MP/UserDashboard.sol\":2936:3256  function logIn() virtual override external {\r... */\n    tag_8:\n      tag_48\n      tag_49\n      jump\t// in\n    tag_48:\n      stop\n        /* \"Bluelight-MP/UserDashboard.sol\":2350:2713  function getNftdata(bytes32 _uniKey) external virtual override view returns(address nftContractAddress, uint256 tokenId, address owner, string memory iPFS){\r... */\n    tag_9:\n      tag_50\n      0x04\n      dup1\n      calldatasize\n      sub\n      dup2\n      add\n      swap1\n      tag_51\n      swap2\n      swap1\n      tag_35\n      jump\t// in\n    tag_51:\n      tag_52\n      jump\t// in\n    tag_50:\n      mload(0x40)\n      tag_53\n      swap5\n      swap4\n      swap3\n      swap2\n      swap1\n      tag_38\n      jump\t// in\n    tag_53:\n      mload(0x40)\n      dup1\n      swap2\n      sub\n      swap1\n      return\n        /* \"Bluelight-MP/UserDashboard.sol\":3405:3638  function logOut() external virtual override{\r... */\n    tag_10:\n      tag_54\n      tag_55\n      jump\t// in\n    tag_54:\n      stop\n        /* \"Bluelight-MP/UserDashboard.sol\":2719:2859  function getUniKeysMapping(address ownerOfNfts) external view returns(bytes32[] memory){\r... */\n    tag_11:\n      tag_56\n      0x04\n      dup1\n      calldatasize\n      sub\n      dup2\n      add\n      swap1\n      tag_57\n      swap2\n      swap1\n      tag_58\n      jump\t// in\n    tag_57:\n      tag_59\n      jump\t// in\n    tag_56:\n      mload(0x40)\n      tag_60\n      swap2\n      swap1\n      tag_61\n      jump\t// in\n    tag_60:\n      mload(0x40)\n      dup1\n      swap2\n      sub\n      swap1\n      return\n        /* \"Bluelight-MP/UserDashboard.sol\":1063:1115  mapping (string => address) public userNameToAddress */\n    tag_12:\n      tag_62\n      0x04\n      dup1\n      calldatasize\n      sub\n      dup2\n      add\n      swap1\n      tag_63\n      swap2\n      swap1\n      tag_27\n      jump\t// in\n    tag_63:\n      tag_64\n      jump\t// in\n    tag_62:\n      mload(0x40)\n      tag_65\n      swap2\n      swap1\n      tag_66\n      jump\t// in\n    tag_65:\n      mload(0x40)\n      dup1\n      swap2\n      sub\n      swap1\n      return\n        /* \"Bluelight-MP/UserDashboard.sol\":1162:1224  mapping (address => AmountRecord) public addressToAmountRecord */\n    tag_13:\n      tag_67\n      0x04\n      dup1\n      calldatasize\n      sub\n      dup2\n      add\n      swap1\n      tag_68\n      swap2\n      swap1\n      tag_58\n      jump\t// in\n    tag_68:\n      tag_69\n      jump\t// in\n    tag_67:\n      mload(0x40)\n      tag_70\n      swap5\n      swap4\n      swap3\n      swap2\n      swap1\n      tag_71\n      jump\t// in\n    tag_70:\n      mload(0x40)\n      dup1\n      swap2\n      sub\n      swap1\n      return\n        /* \"Bluelight-MP/UserDashboard.sol\":5615:6073  function setAmountRecord(address user, uint curAmountSpent, uint tokenAmountSpent, uint curAmountEarned, uint tokenAmountEarned) external virtual override{\r... */\n    tag_14:\n      tag_72\n      0x04\n      dup1\n      calldatasize\n      sub\n      dup2\n      add\n      swap1\n      tag_73\n      swap2\n      swap1\n      tag_74\n      jump\t// in\n    tag_73:\n      tag_75\n      jump\t// in\n    tag_72:\n      stop\n        /* \"Bluelight-MP/UserDashboard.sol\":6079:6489  function userAmountDetail(address user) external virtual override view \r... */\n    tag_15:\n      tag_76\n      0x04\n      dup1\n      calldatasize\n      sub\n      dup2\n      add\n      swap1\n      tag_77\n      swap2\n      swap1\n      tag_58\n      jump\t// in\n    tag_77:\n      tag_78\n      jump\t// in\n    tag_76:\n      mload(0x40)\n      tag_79\n      swap5\n      swap4\n      swap3\n      swap2\n      swap1\n      tag_71\n      jump\t// in\n    tag_79:\n      mload(0x40)\n      dup1\n      swap2\n      sub\n      swap1\n      return\n        /* \"Bluelight-MP/UserDashboard.sol\":1524:1982  function setNftData(address owner, address nftContractAddress, uint256 tokenId, string memory iPFS) external virtual override{\r... */\n    tag_16:\n      tag_80\n      0x04\n      dup1\n      calldatasize\n      sub\n      dup2\n      add\n      swap1\n      tag_81\n      swap2\n      swap1\n      tag_82\n      jump\t// in\n    tag_81:\n      tag_83\n      jump\t// in\n    tag_80:\n      stop\n        /* \"Bluelight-MP/UserDashboard.sol\":3644:4301  function signUp(string memory _userName) external virtual override{\r... */\n    tag_17:\n      tag_84\n      0x04\n      dup1\n      calldatasize\n      sub\n      dup2\n      add\n      swap1\n      tag_85\n      swap2\n      swap1\n      tag_27\n      jump\t// in\n    tag_85:\n      tag_86\n      jump\t// in\n    tag_84:\n      stop\n        /* \"Bluelight-MP/UserDashboard.sol\":4638:4860  function checkUser() external virtual override view returns(string memory){\r... */\n    tag_18:\n      tag_87\n      tag_88\n      jump\t// in\n    tag_87:\n      mload(0x40)\n      tag_89\n      swap2\n      swap1\n      tag_90\n      jump\t// in\n    tag_89:\n      mload(0x40)\n      dup1\n      swap2\n      sub\n      swap1\n      return\n        /* \"Bluelight-MP/UserDashboard.sol\":1988:2344  function setBuyNftData(address owner, address nftContractAddress, uint256 tokenId, string memory iPFS) external virtual override{\r... */\n    tag_19:\n      tag_91\n      0x04\n      dup1\n      calldatasize\n      sub\n      dup2\n      add\n      swap1\n      tag_92\n      swap2\n      swap1\n      tag_82\n      jump\t// in\n    tag_92:\n      tag_93\n      jump\t// in\n    tag_91:\n      stop\n        /* \"Bluelight-MP/UserDashboard.sol\":4512:4632  function getProfilePic() external view returns(string memory ipfs){\r... */\n    tag_20:\n      tag_94\n      tag_95\n      jump\t// in\n    tag_94:\n      mload(0x40)\n      tag_96\n      swap2\n      swap1\n      tag_90\n      jump\t// in\n    tag_96:\n      mload(0x40)\n      dup1\n      swap2\n      sub\n      swap1\n      return\n        /* \"Bluelight-MP/UserDashboard.sol\":3263:3399  function checkLogIn(address _userAddr) external virtual override view returns(bool){  \r... */\n    tag_21:\n      tag_97\n      0x04\n      dup1\n      calldatasize\n      sub\n      dup2\n      add\n      swap1\n      tag_98\n      swap2\n      swap1\n      tag_58\n      jump\t// in\n    tag_98:\n      tag_99\n      jump\t// in\n    tag_97:\n      mload(0x40)\n      tag_100\n      swap2\n      swap1\n      tag_32\n      jump\t// in\n    tag_100:\n      mload(0x40)\n      dup1\n      swap2\n      sub\n      swap1\n      return\n        /* \"Bluelight-MP/UserDashboard.sol\":4307:4506  function setProfilePic(string memory iPFS) external {\r... */\n    tag_28:\n        /* \"Bluelight-MP/UserDashboard.sol\":4379:4384  users */\n      0x03\n        /* \"Bluelight-MP/UserDashboard.sol\":4379:4396  users[msg.sender] */\n      0x00\n        /* \"Bluelight-MP/UserDashboard.sol\":4385:4395  msg.sender */\n      caller\n        /* \"Bluelight-MP/UserDashboard.sol\":4379:4396  users[msg.sender] */\n      0xffffffffffffffffffffffffffffffffffffffff\n      and\n      0xffffffffffffffffffffffffffffffffffffffff\n      and\n      dup2\n      mstore\n      0x20\n      add\n      swap1\n      dup2\n      mstore\n      0x20\n      add\n      0x00\n      keccak256\n        /* \"Bluelight-MP/UserDashboard.sol\":4379:4405  users[msg.sender].loggedIn */\n      0x03\n      add\n      0x00\n      swap1\n      sload\n      swap1\n      0x0100\n      exp\n      swap1\n      div\n      0xff\n      and\n        /* \"Bluelight-MP/UserDashboard.sol\":4370:4452  require (users[msg.sender].loggedIn, \"Login to your account, to set profile pic.\") */\n      tag_102\n      jumpi\n      mload(0x40)\n      0x08c379a000000000000000000000000000000000000000000000000000000000\n      dup2\n      mstore\n      0x04\n      add\n      tag_103\n      swap1\n      tag_104\n      jump\t// in\n    tag_103:\n      mload(0x40)\n      dup1\n      swap2\n      sub\n      swap1\n      revert\n    tag_102:\n        /* \"Bluelight-MP/UserDashboard.sol\":4494:4498  iPFS */\n      dup1\n        /* \"Bluelight-MP/UserDashboard.sol\":4463:4468  users */\n      0x03\n        /* \"Bluelight-MP/UserDashboard.sol\":4463:4480  users[msg.sender] */\n      0x00\n        /* \"Bluelight-MP/UserDashboard.sol\":4469:4479  msg.sender */\n      caller\n        /* \"Bluelight-MP/UserDashboard.sol\":4463:4480  users[msg.sender] */\n      0xffffffffffffffffffffffffffffffffffffffff\n      and\n      0xffffffffffffffffffffffffffffffffffffffff\n      and\n      dup2\n      mstore\n      0x20\n      add\n      swap1\n      dup2\n      mstore\n      0x20\n      add\n      0x00\n      keccak256\n        /* \"Bluelight-MP/UserDashboard.sol\":4463:4491  users[msg.sender].profilePic */\n      0x04\n      add\n        /* \"Bluelight-MP/UserDashboard.sol\":4463:4498  users[msg.sender].profilePic = iPFS */\n      swap1\n      dup1\n      mload\n      swap1\n      0x20\n      add\n      swap1\n      tag_105\n      swap3\n      swap2\n      swap1\n      tag_106\n      jump\t// in\n    tag_105:\n      pop\n        /* \"Bluelight-MP/UserDashboard.sol\":4307:4506  function setProfilePic(string memory iPFS) external {\r... */\n      pop\n      jump\t// out\n        /* \"Bluelight-MP/UserDashboard.sol\":5313:5609  function deleteUser() external virtual override returns(bool){\r... */\n    tag_30:\n        /* \"Bluelight-MP/UserDashboard.sol\":5369:5373  bool */\n      0x00\n        /* \"Bluelight-MP/UserDashboard.sol\":5394:5399  users */\n      0x03\n        /* \"Bluelight-MP/UserDashboard.sol\":5394:5411  users[msg.sender] */\n      0x00\n        /* \"Bluelight-MP/UserDashboard.sol\":5400:5410  msg.sender */\n      caller\n        /* \"Bluelight-MP/UserDashboard.sol\":5394:5411  users[msg.sender] */\n      0xffffffffffffffffffffffffffffffffffffffff\n      and\n      0xffffffffffffffffffffffffffffffffffffffff\n      and\n      dup2\n      mstore\n      0x20\n      add\n      swap1\n      dup2\n      mstore\n      0x20\n      add\n      0x00\n      keccak256\n        /* \"Bluelight-MP/UserDashboard.sol\":5394:5423  users[msg.sender].userExisted */\n      0x01\n      add\n      0x00\n      swap1\n      sload\n      swap1\n      0x0100\n      exp\n      swap1\n      div\n      0xff\n      and\n        /* \"Bluelight-MP/UserDashboard.sol\":5385:5445  require (users[msg.sender].userExisted, \"user not existed.\") */\n      tag_108\n      jumpi\n      mload(0x40)\n      0x08c379a000000000000000000000000000000000000000000000000000000000\n      dup2\n      mstore\n      0x04\n      add\n      tag_109\n      swap1\n      tag_110\n      jump\t// in\n    tag_109:\n      mload(0x40)\n      dup1\n      swap2\n      sub\n      swap1\n      revert\n    tag_108:\n        /* \"Bluelight-MP/UserDashboard.sol\":5456:5474  string memory name */\n      0x00\n        /* \"Bluelight-MP/UserDashboard.sol\":5477:5482  users */\n      0x03\n        /* \"Bluelight-MP/UserDashboard.sol\":5477:5494  users[msg.sender] */\n      0x00\n        /* \"Bluelight-MP/UserDashboard.sol\":5483:5493  msg.sender */\n      caller\n        /* \"Bluelight-MP/UserDashboard.sol\":5477:5494  users[msg.sender] */\n      0xffffffffffffffffffffffffffffffffffffffff\n      and\n      0xffffffffffffffffffffffffffffffffffffffff\n      and\n      dup2\n      mstore\n      0x20\n      add\n      swap1\n      dup2\n      mstore\n      0x20\n      add\n      0x00\n      keccak256\n        /* \"Bluelight-MP/UserDashboard.sol\":5477:5503  users[msg.sender].userName */\n      0x00\n      add\n        /* \"Bluelight-MP/UserDashboard.sol\":5456:5503  string memory name = users[msg.sender].userName */\n      dup1\n      sload\n      tag_111\n      swap1\n      tag_112\n      jump\t// in\n    tag_111:\n      dup1\n      0x1f\n      add\n      0x20\n      dup1\n      swap2\n      div\n      mul\n      0x20\n      add\n      mload(0x40)\n      swap1\n      dup2\n      add\n      0x40\n      mstore\n      dup1\n      swap3\n      swap2\n      swap1\n      dup2\n      dup2\n      mstore\n      0x20\n      add\n      dup3\n      dup1\n      sload\n      tag_113\n      swap1\n      tag_112\n      jump\t// in\n    tag_113:\n      dup1\n      iszero\n      tag_114\n      jumpi\n      dup1\n      0x1f\n      lt\n      tag_115\n      jumpi\n      0x0100\n      dup1\n      dup4\n      sload\n      div\n      mul\n      dup4\n      mstore\n      swap2\n      0x20\n      add\n      swap2\n      jump(tag_114)\n    tag_115:\n      dup3\n      add\n      swap2\n      swap1\n      0x00\n      mstore\n      keccak256(0x00, 0x20)\n      swap1\n    tag_116:\n      dup2\n      sload\n      dup2\n      mstore\n      swap1\n      0x01\n      add\n      swap1\n      0x20\n      add\n      dup1\n      dup4\n      gt\n      tag_116\n      jumpi\n      dup3\n      swap1\n      sub\n      0x1f\n      and\n      dup3\n      add\n      swap2\n    tag_114:\n      pop\n      pop\n      pop\n      pop\n      pop\n      swap1\n      pop\n        /* \"Bluelight-MP/UserDashboard.sol\":5521:5538  userNameToAddress */\n      0x04\n        /* \"Bluelight-MP/UserDashboard.sol\":5539:5543  name */\n      dup2\n        /* \"Bluelight-MP/UserDashboard.sol\":5521:5544  userNameToAddress[name] */\n      mload(0x40)\n      tag_117\n      swap2\n      swap1\n      tag_118\n      jump\t// in\n    tag_117:\n      swap1\n      dup2\n      mstore\n      0x20\n      add\n      mload(0x40)\n      dup1\n      swap2\n      sub\n      swap1\n      keccak256\n      0x00\n        /* \"Bluelight-MP/UserDashboard.sol\":5514:5544  delete userNameToAddress[name] */\n      0x0100\n      exp\n      dup2\n      sload\n      swap1\n      0xffffffffffffffffffffffffffffffffffffffff\n      mul\n      not\n      and\n      swap1\n      sstore\n        /* \"Bluelight-MP/UserDashboard.sol\":5562:5567  users */\n      0x03\n        /* \"Bluelight-MP/UserDashboard.sol\":5562:5579  users[msg.sender] */\n      0x00\n        /* \"Bluelight-MP/UserDashboard.sol\":5568:5578  msg.sender */\n      caller\n        /* \"Bluelight-MP/UserDashboard.sol\":5562:5579  users[msg.sender] */\n      0xffffffffffffffffffffffffffffffffffffffff\n      and\n      0xffffffffffffffffffffffffffffffffffffffff\n      and\n      dup2\n      mstore\n      0x20\n      add\n      swap1\n      dup2\n      mstore\n      0x20\n      add\n      0x00\n      keccak256\n      0x00\n        /* \"Bluelight-MP/UserDashboard.sol\":5555:5579  delete users[msg.sender] */\n      dup1\n      dup3\n      add\n      0x00\n      tag_119\n      swap2\n      swap1\n      tag_120\n      jump\t// in\n    tag_119:\n      0x01\n      dup3\n      add\n      exp(0x0100, 0x00)\n      dup2\n      sload\n      swap1\n      0xff\n      mul\n      not\n      and\n      swap1\n      sstore\n      0x02\n      dup3\n      add\n      0x00\n      swap1\n      sstore\n      0x03\n      dup3\n      add\n      exp(0x0100, 0x00)\n      dup2\n      sload\n      swap1\n      0xff\n      mul\n      not\n      and\n      swap1\n      sstore\n      0x04\n      dup3\n      add\n      0x00\n      tag_121\n      swap2\n      swap1\n      tag_120\n      jump\t// in\n    tag_121:\n      pop\n      pop\n        /* \"Bluelight-MP/UserDashboard.sol\":5597:5601  true */\n      0x01\n        /* \"Bluelight-MP/UserDashboard.sol\":5590:5601  return true */\n      swap2\n      pop\n      pop\n        /* \"Bluelight-MP/UserDashboard.sol\":5313:5609  function deleteUser() external virtual override returns(bool){\r... */\n      swap1\n      jump\t// out\n        /* \"Bluelight-MP/UserDashboard.sol\":890:930  mapping (bytes32 => MyNFT) public myNFTs */\n    tag_36:\n      mstore(0x20, 0x01)\n      dup1\n      0x00\n      mstore\n      keccak256(0x00, 0x40)\n      0x00\n      swap2\n      pop\n      swap1\n      pop\n      dup1\n      0x00\n      add\n      0x00\n      swap1\n      sload\n      swap1\n      0x0100\n      exp\n      swap1\n      div\n      0xffffffffffffffffffffffffffffffffffffffff\n      and\n      swap1\n      dup1\n      0x01\n      add\n      sload\n      swap1\n      dup1\n      0x02\n      add\n      0x00\n      swap1\n      sload\n      swap1\n      0x0100\n      exp\n      swap1\n      div\n      0xffffffffffffffffffffffffffffffffffffffff\n      and\n      swap1\n      dup1\n      0x03\n      add\n      dup1\n      sload\n      tag_122\n      swap1\n      tag_112\n      jump\t// in\n    tag_122:\n      dup1\n      0x1f\n      add\n      0x20\n      dup1\n      swap2\n      div\n      mul\n      0x20\n      add\n      mload(0x40)\n      swap1\n      dup2\n      add\n      0x40\n      mstore\n      dup1\n      swap3\n      swap2\n      swap1\n      dup2\n      dup2\n      mstore\n      0x20\n      add\n      dup3\n      dup1\n      sload\n      tag_123\n      swap1\n      tag_112\n      jump\t// in\n    tag_123:\n      dup1\n      iszero\n      tag_124\n      jumpi\n      dup1\n      0x1f\n      lt\n      tag_125\n      jumpi\n      0x0100\n      dup1\n      dup4\n      sload\n      div\n      mul\n      dup4\n      mstore\n      swap2\n      0x20\n      add\n      swap2\n      jump(tag_124)\n    tag_125:\n      dup3\n      add\n      swap2\n      swap1\n      0x00\n      mstore\n      keccak256(0x00, 0x20)\n      swap1\n    tag_126:\n      dup2\n      sload\n      dup2\n      mstore\n      swap1\n      0x01\n      add\n      swap1\n      0x20\n      add\n      dup1\n      dup4\n      gt\n      tag_126\n      jumpi\n      dup3\n      swap1\n      sub\n      0x1f\n      and\n      dup3\n      add\n      swap2\n    tag_124:\n      pop\n      pop\n      pop\n      pop\n      pop\n      swap1\n      pop\n      dup5\n      jump\t// out\n        /* \"Bluelight-MP/UserDashboard.sol\":4866:5307  function updateUser(string memory _userName) external virtual override{\r... */\n    tag_41:\n        /* \"Bluelight-MP/UserDashboard.sol\":4956:4961  users */\n      0x03\n        /* \"Bluelight-MP/UserDashboard.sol\":4956:4973  users[msg.sender] */\n      0x00\n        /* \"Bluelight-MP/UserDashboard.sol\":4962:4972  msg.sender */\n      caller\n        /* \"Bluelight-MP/UserDashboard.sol\":4956:4973  users[msg.sender] */\n      0xffffffffffffffffffffffffffffffffffffffff\n      and\n      0xffffffffffffffffffffffffffffffffffffffff\n      and\n      dup2\n      mstore\n      0x20\n      add\n      swap1\n      dup2\n      mstore\n      0x20\n      add\n      0x00\n      keccak256\n        /* \"Bluelight-MP/UserDashboard.sol\":4956:4982  users[msg.sender].loggedIn */\n      0x03\n      add\n      0x00\n      swap1\n      sload\n      swap1\n      0x0100\n      exp\n      swap1\n      div\n      0xff\n      and\n        /* \"Bluelight-MP/UserDashboard.sol\":4947:5010  require (users[msg.sender].loggedIn, \"Log in to your account.\") */\n      tag_128\n      jumpi\n      mload(0x40)\n      0x08c379a000000000000000000000000000000000000000000000000000000000\n      dup2\n      mstore\n      0x04\n      add\n      tag_129\n      swap1\n      tag_130\n      jump\t// in\n    tag_129:\n      mload(0x40)\n      dup1\n      swap2\n      sub\n      swap1\n      revert\n    tag_128:\n        /* \"Bluelight-MP/UserDashboard.sol\":5070:5071  0 */\n      0x00\n        /* \"Bluelight-MP/UserDashboard.sol\":5030:5072  userNameToAddress[_userName] == address(0) */\n      0xffffffffffffffffffffffffffffffffffffffff\n      and\n        /* \"Bluelight-MP/UserDashboard.sol\":5030:5047  userNameToAddress */\n      0x04\n        /* \"Bluelight-MP/UserDashboard.sol\":5048:5057  _userName */\n      dup3\n        /* \"Bluelight-MP/UserDashboard.sol\":5030:5058  userNameToAddress[_userName] */\n      mload(0x40)\n      tag_131\n      swap2\n      swap1\n      tag_118\n      jump\t// in\n    tag_131:\n      swap1\n      dup2\n      mstore\n      0x20\n      add\n      mload(0x40)\n      dup1\n      swap2\n      sub\n      swap1\n      keccak256\n      0x00\n      swap1\n      sload\n      swap1\n      0x0100\n      exp\n      swap1\n      div\n      0xffffffffffffffffffffffffffffffffffffffff\n      and\n        /* \"Bluelight-MP/UserDashboard.sol\":5030:5072  userNameToAddress[_userName] == address(0) */\n      0xffffffffffffffffffffffffffffffffffffffff\n      and\n      eq\n        /* \"Bluelight-MP/UserDashboard.sol\":5021:5095  require (userNameToAddress[_userName] == address(0), \"user name existed.\") */\n      tag_132\n      jumpi\n      mload(0x40)\n      0x08c379a000000000000000000000000000000000000000000000000000000000\n      dup2\n      mstore\n      0x04\n      add\n      tag_133\n      swap1\n      tag_134\n      jump\t// in\n    tag_133:\n      mload(0x40)\n      dup1\n      swap2\n      sub\n      swap1\n      revert\n    tag_132:\n        /* \"Bluelight-MP/UserDashboard.sol\":5108:5126  string memory name */\n      0x00\n        /* \"Bluelight-MP/UserDashboard.sol\":5129:5134  users */\n      0x03\n        /* \"Bluelight-MP/UserDashboard.sol\":5129:5146  users[msg.sender] */\n      0x00\n        /* \"Bluelight-MP/UserDashboard.sol\":5135:5145  msg.sender */\n      caller\n        /* \"Bluelight-MP/UserDashboard.sol\":5129:5146  users[msg.sender] */\n      0xffffffffffffffffffffffffffffffffffffffff\n      and\n      0xffffffffffffffffffffffffffffffffffffffff\n      and\n      dup2\n      mstore\n      0x20\n      add\n      swap1\n      dup2\n      mstore\n      0x20\n      add\n      0x00\n      keccak256\n        /* \"Bluelight-MP/UserDashboard.sol\":5129:5155  users[msg.sender].userName */\n      0x00\n      add\n        /* \"Bluelight-MP/UserDashboard.sol\":5108:5155  string memory name = users[msg.sender].userName */\n      dup1\n      sload\n      tag_135\n      swap1\n      tag_112\n      jump\t// in\n    tag_135:\n      dup1\n      0x1f\n      add\n      0x20\n      dup1\n      swap2\n      div\n      mul\n      0x20\n      add\n      mload(0x40)\n      swap1\n      dup2\n      add\n      0x40\n      mstore\n      dup1\n      swap3\n      swap2\n      swap1\n      dup2\n      dup2\n      mstore\n      0x20\n      add\n      dup3\n      dup1\n      sload\n      tag_136\n      swap1\n      tag_112\n      jump\t// in\n    tag_136:\n      dup1\n      iszero\n      tag_137\n      jumpi\n      dup1\n      0x1f\n      lt\n      tag_138\n      jumpi\n      0x0100\n      dup1\n      dup4\n      sload\n      div\n      mul\n      dup4\n      mstore\n      swap2\n      0x20\n      add\n      swap2\n      jump(tag_137)\n    tag_138:\n      dup3\n      add\n      swap2\n      swap1\n      0x00\n      mstore\n      keccak256(0x00, 0x20)\n      swap1\n    tag_139:\n      dup2\n      sload\n      dup2\n      mstore\n      swap1\n      0x01\n      add\n      swap1\n      0x20\n      add\n      dup1\n      dup4\n      gt\n      tag_139\n      jumpi\n      dup3\n      swap1\n      sub\n      0x1f\n      and\n      dup3\n      add\n      swap2\n    tag_137:\n      pop\n      pop\n      pop\n      pop\n      pop\n      swap1\n      pop\n        /* \"Bluelight-MP/UserDashboard.sol\":5173:5190  userNameToAddress */\n      0x04\n        /* \"Bluelight-MP/UserDashboard.sol\":5191:5195  name */\n      dup2\n        /* \"Bluelight-MP/UserDashboard.sol\":5173:5196  userNameToAddress[name] */\n      mload(0x40)\n      tag_140\n      swap2\n      swap1\n      tag_118\n      jump\t// in\n    tag_140:\n      swap1\n      dup2\n      mstore\n      0x20\n      add\n      mload(0x40)\n      dup1\n      swap2\n      sub\n      swap1\n      keccak256\n      0x00\n        /* \"Bluelight-MP/UserDashboard.sol\":5166:5196  delete userNameToAddress[name] */\n      0x0100\n      exp\n      dup2\n      sload\n      swap1\n      0xffffffffffffffffffffffffffffffffffffffff\n      mul\n      not\n      and\n      swap1\n      sstore\n        /* \"Bluelight-MP/UserDashboard.sol\":5238:5248  msg.sender */\n      caller\n        /* \"Bluelight-MP/UserDashboard.sol\":5207:5224  userNameToAddress */\n      0x04\n        /* \"Bluelight-MP/UserDashboard.sol\":5225:5234  _userName */\n      dup4\n        /* \"Bluelight-MP/UserDashboard.sol\":5207:5235  userNameToAddress[_userName] */\n      mload(0x40)\n      tag_141\n      swap2\n      swap1\n      tag_118\n      jump\t// in\n    tag_141:\n      swap1\n      dup2\n      mstore\n      0x20\n      add\n      mload(0x40)\n      dup1\n      swap2\n      sub\n      swap1\n      keccak256\n      0x00\n        /* \"Bluelight-MP/UserDashboard.sol\":5207:5248  userNameToAddress[_userName] = msg.sender */\n      0x0100\n      exp\n      dup2\n      sload\n      dup2\n      0xffffffffffffffffffffffffffffffffffffffff\n      mul\n      not\n      and\n      swap1\n      dup4\n      0xffffffffffffffffffffffffffffffffffffffff\n      and\n      mul\n      or\n      swap1\n      sstore\n      pop\n        /* \"Bluelight-MP/UserDashboard.sol\":5290:5299  _userName */\n      dup2\n        /* \"Bluelight-MP/UserDashboard.sol\":5261:5266  users */\n      0x03\n        /* \"Bluelight-MP/UserDashboard.sol\":5261:5278  users[msg.sender] */\n      0x00\n        /* \"Bluelight-MP/UserDashboard.sol\":5267:5277  msg.sender */\n      caller\n        /* \"Bluelight-MP/UserDashboard.sol\":5261:5278  users[msg.sender] */\n      0xffffffffffffffffffffffffffffffffffffffff\n      and\n      0xffffffffffffffffffffffffffffffffffffffff\n      and\n      dup2\n      mstore\n      0x20\n      add\n      swap1\n      dup2\n      mstore\n      0x20\n      add\n      0x00\n      keccak256\n        /* \"Bluelight-MP/UserDashboard.sol\":5261:5287  users[msg.sender].userName */\n      0x00\n      add\n        /* \"Bluelight-MP/UserDashboard.sol\":5261:5299  users[msg.sender].userName = _userName */\n      swap1\n      dup1\n      mload\n      swap1\n      0x20\n      add\n      swap1\n      tag_142\n      swap3\n      swap2\n      swap1\n      tag_106\n      jump\t// in\n    tag_142:\n      pop\n        /* \"Bluelight-MP/UserDashboard.sol\":4866:5307  function updateUser(string memory _userName) external virtual override{\r... */\n      pop\n      pop\n      jump\t// out\n        /* \"Bluelight-MP/UserDashboard.sol\":937:989  mapping (address => bytes32[]) public uniKeysMapping */\n    tag_45:\n      mstore(0x20, 0x02)\n      dup2\n      0x00\n      mstore\n      keccak256(0x00, 0x40)\n      dup2\n      dup2\n      sload\n      dup2\n      lt\n      tag_143\n      jumpi\n      0x00\n      dup1\n      revert\n    tag_143:\n      swap1\n      0x00\n      mstore\n      keccak256(0x00, 0x20)\n      add\n      0x00\n      swap2\n      pop\n      swap2\n      pop\n      pop\n      sload\n      dup2\n      jump\t// out\n        /* \"Bluelight-MP/UserDashboard.sol\":2936:3256  function logIn() virtual override external {\r... */\n    tag_49:\n        /* \"Bluelight-MP/UserDashboard.sol\":2999:3004  users */\n      0x03\n        /* \"Bluelight-MP/UserDashboard.sol\":2999:3016  users[msg.sender] */\n      0x00\n        /* \"Bluelight-MP/UserDashboard.sol\":3005:3015  msg.sender */\n      caller\n        /* \"Bluelight-MP/UserDashboard.sol\":2999:3016  users[msg.sender] */\n      0xffffffffffffffffffffffffffffffffffffffff\n      and\n      0xffffffffffffffffffffffffffffffffffffffff\n      and\n      dup2\n      mstore\n      0x20\n      add\n      swap1\n      dup2\n      mstore\n      0x20\n      add\n      0x00\n      keccak256\n        /* \"Bluelight-MP/UserDashboard.sol\":2999:3028  users[msg.sender].userExisted */\n      0x01\n      add\n      0x00\n      swap1\n      sload\n      swap1\n      0x0100\n      exp\n      swap1\n      div\n      0xff\n      and\n        /* \"Bluelight-MP/UserDashboard.sol\":2990:3072  require (users[msg.sender].userExisted, \"user not existed, create account first.\") */\n      tag_146\n      jumpi\n      mload(0x40)\n      0x08c379a000000000000000000000000000000000000000000000000000000000\n      dup2\n      mstore\n      0x04\n      add\n      tag_147\n      swap1\n      tag_148\n      jump\t// in\n    tag_147:\n      mload(0x40)\n      dup1\n      swap2\n      sub\n      swap1\n      revert\n    tag_146:\n        /* \"Bluelight-MP/UserDashboard.sol\":3093:3098  users */\n      0x03\n        /* \"Bluelight-MP/UserDashboard.sol\":3093:3110  users[msg.sender] */\n      0x00\n        /* \"Bluelight-MP/UserDashboard.sol\":3099:3109  msg.sender */\n      caller\n        /* \"Bluelight-MP/UserDashboard.sol\":3093:3110  users[msg.sender] */\n      0xffffffffffffffffffffffffffffffffffffffff\n      and\n      0xffffffffffffffffffffffffffffffffffffffff\n      and\n      dup2\n      mstore\n      0x20\n      add\n      swap1\n      dup2\n      mstore\n      0x20\n      add\n      0x00\n      keccak256\n        /* \"Bluelight-MP/UserDashboard.sol\":3093:3119  users[msg.sender].loggedIn */\n      0x03\n      add\n      0x00\n      swap1\n      sload\n      swap1\n      0x0100\n      exp\n      swap1\n      div\n      0xff\n      and\n        /* \"Bluelight-MP/UserDashboard.sol\":3092:3119  !users[msg.sender].loggedIn */\n      iszero\n        /* \"Bluelight-MP/UserDashboard.sol\":3083:3148  require (!users[msg.sender].loggedIn, \"you're already loggedIn.\") */\n      tag_149\n      jumpi\n      mload(0x40)\n      0x08c379a000000000000000000000000000000000000000000000000000000000\n      dup2\n      mstore\n      0x04\n      add\n      tag_150\n      swap1\n      tag_151\n      jump\t// in\n    tag_150:\n      mload(0x40)\n      dup1\n      swap2\n      sub\n      swap1\n      revert\n    tag_149:\n        /* \"Bluelight-MP/UserDashboard.sol\":3190:3194  true */\n      0x01\n        /* \"Bluelight-MP/UserDashboard.sol\":3161:3166  users */\n      0x03\n        /* \"Bluelight-MP/UserDashboard.sol\":3161:3178  users[msg.sender] */\n      0x00\n        /* \"Bluelight-MP/UserDashboard.sol\":3167:3177  msg.sender */\n      caller\n        /* \"Bluelight-MP/UserDashboard.sol\":3161:3178  users[msg.sender] */\n      0xffffffffffffffffffffffffffffffffffffffff\n      and\n      0xffffffffffffffffffffffffffffffffffffffff\n      and\n      dup2\n      mstore\n      0x20\n      add\n      swap1\n      dup2\n      mstore\n      0x20\n      add\n      0x00\n      keccak256\n        /* \"Bluelight-MP/UserDashboard.sol\":3161:3187  users[msg.sender].loggedIn */\n      0x03\n      add\n      0x00\n        /* \"Bluelight-MP/UserDashboard.sol\":3161:3194  users[msg.sender].loggedIn = true */\n      0x0100\n      exp\n      dup2\n      sload\n      dup2\n      0xff\n      mul\n      not\n      and\n      swap1\n      dup4\n      iszero\n      iszero\n      mul\n      or\n      swap1\n      sstore\n      pop\n        /* \"Bluelight-MP/UserDashboard.sol\":3220:3230  msg.sender */\n      caller\n        /* \"Bluelight-MP/UserDashboard.sol\":3210:3248  LoggingIn(msg.sender, block.timestamp) */\n      0xffffffffffffffffffffffffffffffffffffffff\n      and\n      0x364034de78a61b6190b049e2c5437370b27906bfed607993a5bc2dda23c16cff\n        /* \"Bluelight-MP/UserDashboard.sol\":3232:3247  block.timestamp */\n      timestamp\n        /* \"Bluelight-MP/UserDashboard.sol\":3210:3248  LoggingIn(msg.sender, block.timestamp) */\n      mload(0x40)\n      tag_152\n      swap2\n      swap1\n      tag_153\n      jump\t// in\n    tag_152:\n      mload(0x40)\n      dup1\n      swap2\n      sub\n      swap1\n      log2\n        /* \"Bluelight-MP/UserDashboard.sol\":2936:3256  function logIn() virtual override external {\r... */\n      jump\t// out\n        /* \"Bluelight-MP/UserDashboard.sol\":2350:2713  function getNftdata(bytes32 _uniKey) external virtual override view returns(address nftContractAddress, uint256 tokenId, address owner, string memory iPFS){\r... */\n    tag_52:\n        /* \"Bluelight-MP/UserDashboard.sol\":2426:2452  address nftContractAddress */\n      0x00\n        /* \"Bluelight-MP/UserDashboard.sol\":2454:2469  uint256 tokenId */\n      dup1\n        /* \"Bluelight-MP/UserDashboard.sol\":2471:2484  address owner */\n      0x00\n        /* \"Bluelight-MP/UserDashboard.sol\":2486:2504  string memory iPFS */\n      0x60\n        /* \"Bluelight-MP/UserDashboard.sol\":2516:2530  bytes32 uniKey */\n      0x00\n        /* \"Bluelight-MP/UserDashboard.sol\":2533:2540  _uniKey */\n      dup6\n        /* \"Bluelight-MP/UserDashboard.sol\":2516:2540  bytes32 uniKey = _uniKey */\n      swap1\n      pop\n        /* \"Bluelight-MP/UserDashboard.sol\":2570:2576  myNFTs */\n      0x01\n        /* \"Bluelight-MP/UserDashboard.sol\":2570:2584  myNFTs[uniKey] */\n      0x00\n        /* \"Bluelight-MP/UserDashboard.sol\":2577:2583  uniKey */\n      dup3\n        /* \"Bluelight-MP/UserDashboard.sol\":2570:2584  myNFTs[uniKey] */\n      dup2\n      mstore\n      0x20\n      add\n      swap1\n      dup2\n      mstore\n      0x20\n      add\n      0x00\n      keccak256\n        /* \"Bluelight-MP/UserDashboard.sol\":2570:2600  myNFTs[uniKey].contractAddress */\n      0x00\n      add\n      0x00\n      swap1\n      sload\n      swap1\n      0x0100\n      exp\n      swap1\n      div\n      0xffffffffffffffffffffffffffffffffffffffff\n      and\n        /* \"Bluelight-MP/UserDashboard.sol\":2611:2617  myNFTs */\n      0x01\n        /* \"Bluelight-MP/UserDashboard.sol\":2611:2625  myNFTs[uniKey] */\n      0x00\n        /* \"Bluelight-MP/UserDashboard.sol\":2618:2624  uniKey */\n      dup4\n        /* \"Bluelight-MP/UserDashboard.sol\":2611:2625  myNFTs[uniKey] */\n      dup2\n      mstore\n      0x20\n      add\n      swap1\n      dup2\n      mstore\n      0x20\n      add\n      0x00\n      keccak256\n        /* \"Bluelight-MP/UserDashboard.sol\":2611:2633  myNFTs[uniKey].tokenId */\n      0x01\n      add\n      sload\n        /* \"Bluelight-MP/UserDashboard.sol\":2644:2650  myNFTs */\n      0x01\n        /* \"Bluelight-MP/UserDashboard.sol\":2644:2658  myNFTs[uniKey] */\n      0x00\n        /* \"Bluelight-MP/UserDashboard.sol\":2651:2657  uniKey */\n      dup5\n        /* \"Bluelight-MP/UserDashboard.sol\":2644:2658  myNFTs[uniKey] */\n      dup2\n      mstore\n      0x20\n      add\n      swap1\n      dup2\n      mstore\n      0x20\n      add\n      0x00\n      keccak256\n        /* \"Bluelight-MP/UserDashboard.sol\":2644:2664  myNFTs[uniKey].owner */\n      0x02\n      add\n      0x00\n      swap1\n      sload\n      swap1\n      0x0100\n      exp\n      swap1\n      div\n      0xffffffffffffffffffffffffffffffffffffffff\n      and\n        /* \"Bluelight-MP/UserDashboard.sol\":2675:2681  myNFTs */\n      0x01\n        /* \"Bluelight-MP/UserDashboard.sol\":2675:2689  myNFTs[uniKey] */\n      0x00\n        /* \"Bluelight-MP/UserDashboard.sol\":2682:2688  uniKey */\n      dup6\n        /* \"Bluelight-MP/UserDashboard.sol\":2675:2689  myNFTs[uniKey] */\n      dup2\n      mstore\n      0x20\n      add\n      swap1\n      dup2\n      mstore\n      0x20\n      add\n      0x00\n      keccak256\n        /* \"Bluelight-MP/UserDashboard.sol\":2675:2694  myNFTs[uniKey].ipfs */\n      0x03\n      add\n        /* \"Bluelight-MP/UserDashboard.sol\":2561:2705  return ( myNFTs[uniKey].contractAddress,\r... */\n      dup1\n      dup1\n      sload\n      tag_155\n      swap1\n      tag_112\n      jump\t// in\n    tag_155:\n      dup1\n      0x1f\n      add\n      0x20\n      dup1\n      swap2\n      div\n      mul\n      0x20\n      add\n      mload(0x40)\n      swap1\n      dup2\n      add\n      0x40\n      mstore\n      dup1\n      swap3\n      swap2\n      swap1\n      dup2\n      dup2\n      mstore\n      0x20\n      add\n      dup3\n      dup1\n      sload\n      tag_156\n      swap1\n      tag_112\n      jump\t// in\n    tag_156:\n      dup1\n      iszero\n      tag_157\n      jumpi\n      dup1\n      0x1f\n      lt\n      tag_158\n      jumpi\n      0x0100\n      dup1\n      dup4\n      sload\n      div\n      mul\n      dup4\n      mstore\n      swap2\n      0x20\n      add\n      swap2\n      jump(tag_157)\n    tag_158:\n      dup3\n      add\n      swap2\n      swap1\n      0x00\n      mstore\n      keccak256(0x00, 0x20)\n      swap1\n    tag_159:\n      dup2\n      sload\n      dup2\n      mstore\n      swap1\n      0x01\n      add\n      swap1\n      0x20\n      add\n      dup1\n      dup4\n      gt\n      tag_159\n      jumpi\n      dup3\n      swap1\n      sub\n      0x1f\n      and\n      dup3\n      add\n      swap2\n    tag_157:\n      pop\n      pop\n      pop\n      pop\n      pop\n      swap1\n      pop\n      swap5\n      pop\n      swap5\n      pop\n      swap5\n      pop\n      swap5\n      pop\n      pop\n        /* \"Bluelight-MP/UserDashboard.sol\":2350:2713  function getNftdata(bytes32 _uniKey) external virtual override view returns(address nftContractAddress, uint256 tokenId, address owner, string memory iPFS){\r... */\n      swap2\n      swap4\n      pop\n      swap2\n      swap4\n      jump\t// out\n        /* \"Bluelight-MP/UserDashboard.sol\":3405:3638  function logOut() external virtual override{\r... */\n    tag_55:\n        /* \"Bluelight-MP/UserDashboard.sol\":3468:3473  users */\n      0x03\n        /* \"Bluelight-MP/UserDashboard.sol\":3468:3485  users[msg.sender] */\n      0x00\n        /* \"Bluelight-MP/UserDashboard.sol\":3474:3484  msg.sender */\n      caller\n        /* \"Bluelight-MP/UserDashboard.sol\":3468:3485  users[msg.sender] */\n      0xffffffffffffffffffffffffffffffffffffffff\n      and\n      0xffffffffffffffffffffffffffffffffffffffff\n      and\n      dup2\n      mstore\n      0x20\n      add\n      swap1\n      dup2\n      mstore\n      0x20\n      add\n      0x00\n      keccak256\n        /* \"Bluelight-MP/UserDashboard.sol\":3468:3494  users[msg.sender].loggedIn */\n      0x03\n      add\n      0x00\n      swap1\n      sload\n      swap1\n      0x0100\n      exp\n      swap1\n      div\n      0xff\n      and\n        /* \"Bluelight-MP/UserDashboard.sol\":3459:3519  require (users[msg.sender].loggedIn, \"you're not loggedIn.\") */\n      tag_161\n      jumpi\n      mload(0x40)\n      0x08c379a000000000000000000000000000000000000000000000000000000000\n      dup2\n      mstore\n      0x04\n      add\n      tag_162\n      swap1\n      tag_163\n      jump\t// in\n    tag_162:\n      mload(0x40)\n      dup1\n      swap2\n      sub\n      swap1\n      revert\n    tag_161:\n        /* \"Bluelight-MP/UserDashboard.sol\":3559:3564  false */\n      0x00\n        /* \"Bluelight-MP/UserDashboard.sol\":3530:3535  users */\n      0x03\n        /* \"Bluelight-MP/UserDashboard.sol\":3530:3547  users[msg.sender] */\n      0x00\n        /* \"Bluelight-MP/UserDashboard.sol\":3536:3546  msg.sender */\n      caller\n        /* \"Bluelight-MP/UserDashboard.sol\":3530:3547  users[msg.sender] */\n      0xffffffffffffffffffffffffffffffffffffffff\n      and\n      0xffffffffffffffffffffffffffffffffffffffff\n      and\n      dup2\n      mstore\n      0x20\n      add\n      swap1\n      dup2\n      mstore\n      0x20\n      add\n      0x00\n      keccak256\n        /* \"Bluelight-MP/UserDashboard.sol\":3530:3556  users[msg.sender].loggedIn */\n      0x03\n      add\n      0x00\n        /* \"Bluelight-MP/UserDashboard.sol\":3530:3564  users[msg.sender].loggedIn = false */\n      0x0100\n      exp\n      dup2\n      sload\n      dup2\n      0xff\n      mul\n      not\n      and\n      swap1\n      dup4\n      iszero\n      iszero\n      mul\n      or\n      swap1\n      sstore\n      pop\n        /* \"Bluelight-MP/UserDashboard.sol\":3591:3601  msg.sender */\n      caller\n        /* \"Bluelight-MP/UserDashboard.sol\":3580:3619  LoggingOut(msg.sender, block.timestamp) */\n      0xffffffffffffffffffffffffffffffffffffffff\n      and\n      0x70d1177aa26c67f6b2fdb43400cfd7ff0c23a8712301abe5aba2ee3d89e28a10\n        /* \"Bluelight-MP/UserDashboard.sol\":3603:3618  block.timestamp */\n      timestamp\n        /* \"Bluelight-MP/UserDashboard.sol\":3580:3619  LoggingOut(msg.sender, block.timestamp) */\n      mload(0x40)\n      tag_164\n      swap2\n      swap1\n      tag_153\n      jump\t// in\n    tag_164:\n      mload(0x40)\n      dup1\n      swap2\n      sub\n      swap1\n      log2\n        /* \"Bluelight-MP/UserDashboard.sol\":3405:3638  function logOut() external virtual override{\r... */\n      jump\t// out\n        /* \"Bluelight-MP/UserDashboard.sol\":2719:2859  function getUniKeysMapping(address ownerOfNfts) external view returns(bytes32[] memory){\r... */\n    tag_59:\n        /* \"Bluelight-MP/UserDashboard.sol\":2789:2805  bytes32[] memory */\n      0x60\n        /* \"Bluelight-MP/UserDashboard.sol\":2824:2838  uniKeysMapping */\n      0x02\n        /* \"Bluelight-MP/UserDashboard.sol\":2824:2851  uniKeysMapping[ownerOfNfts] */\n      0x00\n        /* \"Bluelight-MP/UserDashboard.sol\":2839:2850  ownerOfNfts */\n      dup4\n        /* \"Bluelight-MP/UserDashboard.sol\":2824:2851  uniKeysMapping[ownerOfNfts] */\n      0xffffffffffffffffffffffffffffffffffffffff\n      and\n      0xffffffffffffffffffffffffffffffffffffffff\n      and\n      dup2\n      mstore\n      0x20\n      add\n      swap1\n      dup2\n      mstore\n      0x20\n      add\n      0x00\n      keccak256\n        /* \"Bluelight-MP/UserDashboard.sol\":2817:2851  return uniKeysMapping[ownerOfNfts] */\n      dup1\n      sload\n      dup1\n      0x20\n      mul\n      0x20\n      add\n      mload(0x40)\n      swap1\n      dup2\n      add\n      0x40\n      mstore\n      dup1\n      swap3\n      swap2\n      swap1\n      dup2\n      dup2\n      mstore\n      0x20\n      add\n      dup3\n      dup1\n      sload\n      dup1\n      iszero\n      tag_166\n      jumpi\n      0x20\n      mul\n      dup3\n      add\n      swap2\n      swap1\n      0x00\n      mstore\n      keccak256(0x00, 0x20)\n      swap1\n    tag_167:\n      dup2\n      sload\n      dup2\n      mstore\n      0x20\n      add\n      swap1\n      0x01\n      add\n      swap1\n      dup1\n      dup4\n      gt\n      tag_167\n      jumpi\n    tag_166:\n      pop\n      pop\n      pop\n      pop\n      pop\n      swap1\n      pop\n        /* \"Bluelight-MP/UserDashboard.sol\":2719:2859  function getUniKeysMapping(address ownerOfNfts) external view returns(bytes32[] memory){\r... */\n      swap2\n      swap1\n      pop\n      jump\t// out\n        /* \"Bluelight-MP/UserDashboard.sol\":1063:1115  mapping (string => address) public userNameToAddress */\n    tag_64:\n      0x04\n      dup2\n      dup1\n      mload\n      0x20\n      dup2\n      add\n      dup3\n      add\n      dup1\n      mload\n      dup5\n      dup3\n      mstore\n      0x20\n      dup4\n      add\n      0x20\n      dup6\n      add\n      keccak256\n      dup2\n      dup4\n      mstore\n      dup1\n      swap6\n      pop\n      pop\n      pop\n      pop\n      pop\n      pop\n      0x00\n      swap2\n      pop\n      sload\n      swap1\n      0x0100\n      exp\n      swap1\n      div\n      0xffffffffffffffffffffffffffffffffffffffff\n      and\n      dup2\n      jump\t// out\n        /* \"Bluelight-MP/UserDashboard.sol\":1162:1224  mapping (address => AmountRecord) public addressToAmountRecord */\n    tag_69:\n      mstore(0x20, 0x05)\n      dup1\n      0x00\n      mstore\n      keccak256(0x00, 0x40)\n      0x00\n      swap2\n      pop\n      swap1\n      pop\n      dup1\n      0x00\n      add\n      sload\n      swap1\n      dup1\n      0x01\n      add\n      sload\n      swap1\n      dup1\n      0x02\n      add\n      sload\n      swap1\n      dup1\n      0x03\n      add\n      sload\n      swap1\n      pop\n      dup5\n      jump\t// out\n        /* \"Bluelight-MP/UserDashboard.sol\":5615:6073  function setAmountRecord(address user, uint curAmountSpent, uint tokenAmountSpent, uint curAmountEarned, uint tokenAmountEarned) external virtual override{\r... */\n    tag_75:\n        /* \"Bluelight-MP/UserDashboard.sol\":5826:5840  curAmountSpent */\n      dup4\n        /* \"Bluelight-MP/UserDashboard.sol\":5780:5801  addressToAmountRecord */\n      0x05\n        /* \"Bluelight-MP/UserDashboard.sol\":5780:5807  addressToAmountRecord[user] */\n      0x00\n        /* \"Bluelight-MP/UserDashboard.sol\":5802:5806  user */\n      dup8\n        /* \"Bluelight-MP/UserDashboard.sol\":5780:5807  addressToAmountRecord[user] */\n      0xffffffffffffffffffffffffffffffffffffffff\n      and\n      0xffffffffffffffffffffffffffffffffffffffff\n      and\n      dup2\n      mstore\n      0x20\n      add\n      swap1\n      dup2\n      mstore\n      0x20\n      add\n      0x00\n      keccak256\n        /* \"Bluelight-MP/UserDashboard.sol\":5780:5822  addressToAmountRecord[user].curAmountSpent */\n      0x00\n      add\n      0x00\n        /* \"Bluelight-MP/UserDashboard.sol\":5780:5840  addressToAmountRecord[user].curAmountSpent += curAmountSpent */\n      dup3\n      dup3\n      sload\n      tag_169\n      swap2\n      swap1\n      tag_170\n      jump\t// in\n    tag_169:\n      swap3\n      pop\n      pop\n      dup2\n      swap1\n      sstore\n      pop\n        /* \"Bluelight-MP/UserDashboard.sol\":5899:5915  tokenAmountSpent */\n      dup3\n        /* \"Bluelight-MP/UserDashboard.sol\":5851:5872  addressToAmountRecord */\n      0x05\n        /* \"Bluelight-MP/UserDashboard.sol\":5851:5878  addressToAmountRecord[user] */\n      0x00\n        /* \"Bluelight-MP/UserDashboard.sol\":5873:5877  user */\n      dup8\n        /* \"Bluelight-MP/UserDashboard.sol\":5851:5878  addressToAmountRecord[user] */\n      0xffffffffffffffffffffffffffffffffffffffff\n      and\n      0xffffffffffffffffffffffffffffffffffffffff\n      and\n      dup2\n      mstore\n      0x20\n      add\n      swap1\n      dup2\n      mstore\n      0x20\n      add\n      0x00\n      keccak256\n        /* \"Bluelight-MP/UserDashboard.sol\":5851:5895  addressToAmountRecord[user].tokenAmountSpent */\n      0x01\n      add\n      0x00\n        /* \"Bluelight-MP/UserDashboard.sol\":5851:5915  addressToAmountRecord[user].tokenAmountSpent += tokenAmountSpent */\n      dup3\n      dup3\n      sload\n      tag_171\n      swap2\n      swap1\n      tag_170\n      jump\t// in\n    tag_171:\n      swap3\n      pop\n      pop\n      dup2\n      swap1\n      sstore\n      pop\n        /* \"Bluelight-MP/UserDashboard.sol\":5973:5988  curAmountEarned */\n      dup2\n        /* \"Bluelight-MP/UserDashboard.sol\":5926:5947  addressToAmountRecord */\n      0x05\n        /* \"Bluelight-MP/UserDashboard.sol\":5926:5953  addressToAmountRecord[user] */\n      0x00\n        /* \"Bluelight-MP/UserDashboard.sol\":5948:5952  user */\n      dup8\n        /* \"Bluelight-MP/UserDashboard.sol\":5926:5953  addressToAmountRecord[user] */\n      0xffffffffffffffffffffffffffffffffffffffff\n      and\n      0xffffffffffffffffffffffffffffffffffffffff\n      and\n      dup2\n      mstore\n      0x20\n      add\n      swap1\n      dup2\n      mstore\n      0x20\n      add\n      0x00\n      keccak256\n        /* \"Bluelight-MP/UserDashboard.sol\":5926:5969  addressToAmountRecord[user].curAmountEarned */\n      0x02\n      add\n      0x00\n        /* \"Bluelight-MP/UserDashboard.sol\":5926:5988  addressToAmountRecord[user].curAmountEarned += curAmountEarned */\n      dup3\n      dup3\n      sload\n      tag_172\n      swap2\n      swap1\n      tag_170\n      jump\t// in\n    tag_172:\n      swap3\n      pop\n      pop\n      dup2\n      swap1\n      sstore\n      pop\n        /* \"Bluelight-MP/UserDashboard.sol\":6048:6065  tokenAmountEarned */\n      dup1\n        /* \"Bluelight-MP/UserDashboard.sol\":5999:6020  addressToAmountRecord */\n      0x05\n        /* \"Bluelight-MP/UserDashboard.sol\":5999:6026  addressToAmountRecord[user] */\n      0x00\n        /* \"Bluelight-MP/UserDashboard.sol\":6021:6025  user */\n      dup8\n        /* \"Bluelight-MP/UserDashboard.sol\":5999:6026  addressToAmountRecord[user] */\n      0xffffffffffffffffffffffffffffffffffffffff\n      and\n      0xffffffffffffffffffffffffffffffffffffffff\n      and\n      dup2\n      mstore\n      0x20\n      add\n      swap1\n      dup2\n      mstore\n      0x20\n      add\n      0x00\n      keccak256\n        /* \"Bluelight-MP/UserDashboard.sol\":5999:6044  addressToAmountRecord[user].tokenAmountEarned */\n      0x03\n      add\n      0x00\n        /* \"Bluelight-MP/UserDashboard.sol\":5999:6065  addressToAmountRecord[user].tokenAmountEarned += tokenAmountEarned */\n      dup3\n      dup3\n      sload\n      tag_173\n      swap2\n      swap1\n      tag_170\n      jump\t// in\n    tag_173:\n      swap3\n      pop\n      pop\n      dup2\n      swap1\n      sstore\n      pop\n        /* \"Bluelight-MP/UserDashboard.sol\":5615:6073  function setAmountRecord(address user, uint curAmountSpent, uint tokenAmountSpent, uint curAmountEarned, uint tokenAmountEarned) external virtual override{\r... */\n      pop\n      pop\n      pop\n      pop\n      pop\n      jump\t// out\n        /* \"Bluelight-MP/UserDashboard.sol\":6079:6489  function userAmountDetail(address user) external virtual override view \r... */\n    tag_78:\n        /* \"Bluelight-MP/UserDashboard.sol\":6168:6187  uint currencyEarned */\n      0x00\n        /* \"Bluelight-MP/UserDashboard.sol\":6189:6205  uint earnedToken */\n      dup1\n        /* \"Bluelight-MP/UserDashboard.sol\":6207:6225  uint currencySpent */\n      0x00\n        /* \"Bluelight-MP/UserDashboard.sol\":6227:6242  uint tokenSpent */\n      dup1\n        /* \"Bluelight-MP/UserDashboard.sol\":6275:6296  addressToAmountRecord */\n      0x05\n        /* \"Bluelight-MP/UserDashboard.sol\":6275:6302  addressToAmountRecord[user] */\n      0x00\n        /* \"Bluelight-MP/UserDashboard.sol\":6297:6301  user */\n      dup7\n        /* \"Bluelight-MP/UserDashboard.sol\":6275:6302  addressToAmountRecord[user] */\n      0xffffffffffffffffffffffffffffffffffffffff\n      and\n      0xffffffffffffffffffffffffffffffffffffffff\n      and\n      dup2\n      mstore\n      0x20\n      add\n      swap1\n      dup2\n      mstore\n      0x20\n      add\n      0x00\n      keccak256\n        /* \"Bluelight-MP/UserDashboard.sol\":6275:6318  addressToAmountRecord[user].curAmountEarned */\n      0x02\n      add\n      sload\n        /* \"Bluelight-MP/UserDashboard.sol\":6320:6341  addressToAmountRecord */\n      0x05\n        /* \"Bluelight-MP/UserDashboard.sol\":6320:6347  addressToAmountRecord[user] */\n      0x00\n        /* \"Bluelight-MP/UserDashboard.sol\":6342:6346  user */\n      dup8\n        /* \"Bluelight-MP/UserDashboard.sol\":6320:6347  addressToAmountRecord[user] */\n      0xffffffffffffffffffffffffffffffffffffffff\n      and\n      0xffffffffffffffffffffffffffffffffffffffff\n      and\n      dup2\n      mstore\n      0x20\n      add\n      swap1\n      dup2\n      mstore\n      0x20\n      add\n      0x00\n      keccak256\n        /* \"Bluelight-MP/UserDashboard.sol\":6320:6365  addressToAmountRecord[user].tokenAmountEarned */\n      0x03\n      add\n      sload\n        /* \"Bluelight-MP/UserDashboard.sol\":6381:6402  addressToAmountRecord */\n      0x05\n        /* \"Bluelight-MP/UserDashboard.sol\":6381:6408  addressToAmountRecord[user] */\n      0x00\n        /* \"Bluelight-MP/UserDashboard.sol\":6403:6407  user */\n      dup9\n        /* \"Bluelight-MP/UserDashboard.sol\":6381:6408  addressToAmountRecord[user] */\n      0xffffffffffffffffffffffffffffffffffffffff\n      and\n      0xffffffffffffffffffffffffffffffffffffffff\n      and\n      dup2\n      mstore\n      0x20\n      add\n      swap1\n      dup2\n      mstore\n      0x20\n      add\n      0x00\n      keccak256\n        /* \"Bluelight-MP/UserDashboard.sol\":6381:6423  addressToAmountRecord[user].curAmountSpent */\n      0x00\n      add\n      sload\n        /* \"Bluelight-MP/UserDashboard.sol\":6426:6447  addressToAmountRecord */\n      0x05\n        /* \"Bluelight-MP/UserDashboard.sol\":6426:6453  addressToAmountRecord[user] */\n      0x00\n        /* \"Bluelight-MP/UserDashboard.sol\":6448:6452  user */\n      dup10\n        /* \"Bluelight-MP/UserDashboard.sol\":6426:6453  addressToAmountRecord[user] */\n      0xffffffffffffffffffffffffffffffffffffffff\n      and\n      0xffffffffffffffffffffffffffffffffffffffff\n      and\n      dup2\n      mstore\n      0x20\n      add\n      swap1\n      dup2\n      mstore\n      0x20\n      add\n      0x00\n      keccak256\n        /* \"Bluelight-MP/UserDashboard.sol\":6426:6470  addressToAmountRecord[user].tokenAmountSpent */\n      0x01\n      add\n      sload\n        /* \"Bluelight-MP/UserDashboard.sol\":6254:6481  return(\r... */\n      swap4\n      pop\n      swap4\n      pop\n      swap4\n      pop\n      swap4\n      pop\n        /* \"Bluelight-MP/UserDashboard.sol\":6079:6489  function userAmountDetail(address user) external virtual override view \r... */\n      swap2\n      swap4\n      pop\n      swap2\n      swap4\n      jump\t// out\n        /* \"Bluelight-MP/UserDashboard.sol\":1524:1982  function setNftData(address owner, address nftContractAddress, uint256 tokenId, string memory iPFS) external virtual override{\r... */\n    tag_83:\n        /* \"Bluelight-MP/UserDashboard.sol\":1670:1684  bytes32 uniKey */\n      0x00\n        /* \"Bluelight-MP/UserDashboard.sol\":1687:1735  getPrivateUniqueKey(nftContractAddress, tokenId) */\n      tag_176\n        /* \"Bluelight-MP/UserDashboard.sol\":1707:1725  nftContractAddress */\n      dup5\n        /* \"Bluelight-MP/UserDashboard.sol\":1727:1734  tokenId */\n      dup5\n        /* \"Bluelight-MP/UserDashboard.sol\":1687:1706  getPrivateUniqueKey */\n      tag_177\n        /* \"Bluelight-MP/UserDashboard.sol\":1687:1735  getPrivateUniqueKey(nftContractAddress, tokenId) */\n      jump\t// in\n    tag_176:\n        /* \"Bluelight-MP/UserDashboard.sol\":1670:1735  bytes32 uniKey = getPrivateUniqueKey(nftContractAddress, tokenId) */\n      swap1\n      pop\n        /* \"Bluelight-MP/UserDashboard.sol\":1790:1808  nftContractAddress */\n      dup4\n        /* \"Bluelight-MP/UserDashboard.sol\":1757:1763  myNFTs */\n      0x01\n        /* \"Bluelight-MP/UserDashboard.sol\":1757:1771  myNFTs[uniKey] */\n      0x00\n        /* \"Bluelight-MP/UserDashboard.sol\":1764:1770  uniKey */\n      dup4\n        /* \"Bluelight-MP/UserDashboard.sol\":1757:1771  myNFTs[uniKey] */\n      dup2\n      mstore\n      0x20\n      add\n      swap1\n      dup2\n      mstore\n      0x20\n      add\n      0x00\n      keccak256\n        /* \"Bluelight-MP/UserDashboard.sol\":1757:1787  myNFTs[uniKey].contractAddress */\n      0x00\n      add\n      0x00\n        /* \"Bluelight-MP/UserDashboard.sol\":1757:1808  myNFTs[uniKey].contractAddress = nftContractAddress */\n      0x0100\n      exp\n      dup2\n      sload\n      dup2\n      0xffffffffffffffffffffffffffffffffffffffff\n      mul\n      not\n      and\n      swap1\n      dup4\n      0xffffffffffffffffffffffffffffffffffffffff\n      and\n      mul\n      or\n      swap1\n      sstore\n      pop\n        /* \"Bluelight-MP/UserDashboard.sol\":1844:1851  tokenId */\n      dup3\n        /* \"Bluelight-MP/UserDashboard.sol\":1819:1825  myNFTs */\n      0x01\n        /* \"Bluelight-MP/UserDashboard.sol\":1819:1833  myNFTs[uniKey] */\n      0x00\n        /* \"Bluelight-MP/UserDashboard.sol\":1826:1832  uniKey */\n      dup4\n        /* \"Bluelight-MP/UserDashboard.sol\":1819:1833  myNFTs[uniKey] */\n      dup2\n      mstore\n      0x20\n      add\n      swap1\n      dup2\n      mstore\n      0x20\n      add\n      0x00\n      keccak256\n        /* \"Bluelight-MP/UserDashboard.sol\":1819:1841  myNFTs[uniKey].tokenId */\n      0x01\n      add\n        /* \"Bluelight-MP/UserDashboard.sol\":1819:1851  myNFTs[uniKey].tokenId = tokenId */\n      dup2\n      swap1\n      sstore\n      pop\n        /* \"Bluelight-MP/UserDashboard.sol\":1885:1890  owner */\n      dup5\n        /* \"Bluelight-MP/UserDashboard.sol\":1862:1868  myNFTs */\n      0x01\n        /* \"Bluelight-MP/UserDashboard.sol\":1862:1876  myNFTs[uniKey] */\n      0x00\n        /* \"Bluelight-MP/UserDashboard.sol\":1869:1875  uniKey */\n      dup4\n        /* \"Bluelight-MP/UserDashboard.sol\":1862:1876  myNFTs[uniKey] */\n      dup2\n      mstore\n      0x20\n      add\n      swap1\n      dup2\n      mstore\n      0x20\n      add\n      0x00\n      keccak256\n        /* \"Bluelight-MP/UserDashboard.sol\":1862:1882  myNFTs[uniKey].owner */\n      0x02\n      add\n      0x00\n        /* \"Bluelight-MP/UserDashboard.sol\":1862:1890  myNFTs[uniKey].owner = owner */\n      0x0100\n      exp\n      dup2\n      sload\n      dup2\n      0xffffffffffffffffffffffffffffffffffffffff\n      mul\n      not\n      and\n      swap1\n      dup4\n      0xffffffffffffffffffffffffffffffffffffffff\n      and\n      mul\n      or\n      swap1\n      sstore\n      pop\n        /* \"Bluelight-MP/UserDashboard.sol\":1923:1927  iPFS */\n      dup2\n        /* \"Bluelight-MP/UserDashboard.sol\":1901:1907  myNFTs */\n      0x01\n        /* \"Bluelight-MP/UserDashboard.sol\":1901:1915  myNFTs[uniKey] */\n      0x00\n        /* \"Bluelight-MP/UserDashboard.sol\":1908:1914  uniKey */\n      dup4\n        /* \"Bluelight-MP/UserDashboard.sol\":1901:1915  myNFTs[uniKey] */\n      dup2\n      mstore\n      0x20\n      add\n      swap1\n      dup2\n      mstore\n      0x20\n      add\n      0x00\n      keccak256\n        /* \"Bluelight-MP/UserDashboard.sol\":1901:1920  myNFTs[uniKey].ipfs */\n      0x03\n      add\n        /* \"Bluelight-MP/UserDashboard.sol\":1901:1927  myNFTs[uniKey].ipfs = iPFS */\n      swap1\n      dup1\n      mload\n      swap1\n      0x20\n      add\n      swap1\n      tag_178\n      swap3\n      swap2\n      swap1\n      tag_106\n      jump\t// in\n    tag_178:\n      pop\n        /* \"Bluelight-MP/UserDashboard.sol\":1938:1952  uniKeysMapping */\n      0x02\n        /* \"Bluelight-MP/UserDashboard.sol\":1938:1959  uniKeysMapping[owner] */\n      0x00\n        /* \"Bluelight-MP/UserDashboard.sol\":1953:1958  owner */\n      dup7\n        /* \"Bluelight-MP/UserDashboard.sol\":1938:1959  uniKeysMapping[owner] */\n      0xffffffffffffffffffffffffffffffffffffffff\n      and\n      0xffffffffffffffffffffffffffffffffffffffff\n      and\n      dup2\n      mstore\n      0x20\n      add\n      swap1\n      dup2\n      mstore\n      0x20\n      add\n      0x00\n      keccak256\n        /* \"Bluelight-MP/UserDashboard.sol\":1965:1971  uniKey */\n      dup2\n        /* \"Bluelight-MP/UserDashboard.sol\":1938:1972  uniKeysMapping[owner].push(uniKey) */\n      swap1\n      dup1\n      0x01\n      dup2\n      sload\n      add\n      dup1\n      dup3\n      sstore\n      dup1\n      swap2\n      pop\n      pop\n      0x01\n      swap1\n      sub\n      swap1\n      0x00\n      mstore\n      keccak256(0x00, 0x20)\n      add\n      0x00\n      swap1\n      swap2\n      swap1\n      swap2\n      swap1\n      swap2\n      pop\n      sstore\n        /* \"Bluelight-MP/UserDashboard.sol\":1524:1982  function setNftData(address owner, address nftContractAddress, uint256 tokenId, string memory iPFS) external virtual override{\r... */\n      pop\n      pop\n      pop\n      pop\n      pop\n      jump\t// out\n        /* \"Bluelight-MP/UserDashboard.sol\":3644:4301  function signUp(string memory _userName) external virtual override{\r... */\n    tag_86:\n        /* \"Bluelight-MP/UserDashboard.sol\":3731:3736  users */\n      0x03\n        /* \"Bluelight-MP/UserDashboard.sol\":3731:3748  users[msg.sender] */\n      0x00\n        /* \"Bluelight-MP/UserDashboard.sol\":3737:3747  msg.sender */\n      caller\n        /* \"Bluelight-MP/UserDashboard.sol\":3731:3748  users[msg.sender] */\n      0xffffffffffffffffffffffffffffffffffffffff\n      and\n      0xffffffffffffffffffffffffffffffffffffffff\n      and\n      dup2\n      mstore\n      0x20\n      add\n      swap1\n      dup2\n      mstore\n      0x20\n      add\n      0x00\n      keccak256\n        /* \"Bluelight-MP/UserDashboard.sol\":3731:3760  users[msg.sender].userExisted */\n      0x01\n      add\n      0x00\n      swap1\n      sload\n      swap1\n      0x0100\n      exp\n      swap1\n      div\n      0xff\n      and\n        /* \"Bluelight-MP/UserDashboard.sol\":3730:3760  !users[msg.sender].userExisted */\n      iszero\n        /* \"Bluelight-MP/UserDashboard.sol\":3721:3778  require (!users[msg.sender].userExisted, \"user existed.\") */\n      tag_181\n      jumpi\n      mload(0x40)\n      0x08c379a000000000000000000000000000000000000000000000000000000000\n      dup2\n      mstore\n      0x04\n      add\n      tag_182\n      swap1\n      tag_183\n      jump\t// in\n    tag_182:\n      mload(0x40)\n      dup1\n      swap2\n      sub\n      swap1\n      revert\n    tag_181:\n        /* \"Bluelight-MP/UserDashboard.sol\":3838:3839  0 */\n      0x00\n        /* \"Bluelight-MP/UserDashboard.sol\":3798:3840  userNameToAddress[_userName] == address(0) */\n      0xffffffffffffffffffffffffffffffffffffffff\n      and\n        /* \"Bluelight-MP/UserDashboard.sol\":3798:3815  userNameToAddress */\n      0x04\n        /* \"Bluelight-MP/UserDashboard.sol\":3816:3825  _userName */\n      dup3\n        /* \"Bluelight-MP/UserDashboard.sol\":3798:3826  userNameToAddress[_userName] */\n      mload(0x40)\n      tag_184\n      swap2\n      swap1\n      tag_118\n      jump\t// in\n    tag_184:\n      swap1\n      dup2\n      mstore\n      0x20\n      add\n      mload(0x40)\n      dup1\n      swap2\n      sub\n      swap1\n      keccak256\n      0x00\n      swap1\n      sload\n      swap1\n      0x0100\n      exp\n      swap1\n      div\n      0xffffffffffffffffffffffffffffffffffffffff\n      and\n        /* \"Bluelight-MP/UserDashboard.sol\":3798:3840  userNameToAddress[_userName] == address(0) */\n      0xffffffffffffffffffffffffffffffffffffffff\n      and\n      eq\n        /* \"Bluelight-MP/UserDashboard.sol\":3789:3863  require (userNameToAddress[_userName] == address(0), \"user name existed.\") */\n      tag_185\n      jumpi\n      mload(0x40)\n      0x08c379a000000000000000000000000000000000000000000000000000000000\n      dup2\n      mstore\n      0x04\n      add\n      tag_186\n      swap1\n      tag_134\n      jump\t// in\n    tag_186:\n      mload(0x40)\n      dup1\n      swap2\n      sub\n      swap1\n      revert\n    tag_185:\n        /* \"Bluelight-MP/UserDashboard.sol\":3905:3914  _userName */\n      dup1\n        /* \"Bluelight-MP/UserDashboard.sol\":3876:3881  users */\n      0x03\n        /* \"Bluelight-MP/UserDashboard.sol\":3876:3893  users[msg.sender] */\n      0x00\n        /* \"Bluelight-MP/UserDashboard.sol\":3882:3892  msg.sender */\n      caller\n        /* \"Bluelight-MP/UserDashboard.sol\":3876:3893  users[msg.sender] */\n      0xffffffffffffffffffffffffffffffffffffffff\n      and\n      0xffffffffffffffffffffffffffffffffffffffff\n      and\n      dup2\n      mstore\n      0x20\n      add\n      swap1\n      dup2\n      mstore\n      0x20\n      add\n      0x00\n      keccak256\n        /* \"Bluelight-MP/UserDashboard.sol\":3876:3902  users[msg.sender].userName */\n      0x00\n      add\n        /* \"Bluelight-MP/UserDashboard.sol\":3876:3914  users[msg.sender].userName = _userName */\n      swap1\n      dup1\n      mload\n      swap1\n      0x20\n      add\n      swap1\n      tag_187\n      swap3\n      swap2\n      swap1\n      tag_106\n      jump\t// in\n    tag_187:\n      pop\n        /* \"Bluelight-MP/UserDashboard.sol\":3957:3961  true */\n      0x01\n        /* \"Bluelight-MP/UserDashboard.sol\":3925:3930  users */\n      0x03\n        /* \"Bluelight-MP/UserDashboard.sol\":3925:3942  users[msg.sender] */\n      0x00\n        /* \"Bluelight-MP/UserDashboard.sol\":3931:3941  msg.sender */\n      caller\n        /* \"Bluelight-MP/UserDashboard.sol\":3925:3942  users[msg.sender] */\n      0xffffffffffffffffffffffffffffffffffffffff\n      and\n      0xffffffffffffffffffffffffffffffffffffffff\n      and\n      dup2\n      mstore\n      0x20\n      add\n      swap1\n      dup2\n      mstore\n      0x20\n      add\n      0x00\n      keccak256\n        /* \"Bluelight-MP/UserDashboard.sol\":3925:3954  users[msg.sender].userExisted */\n      0x01\n      add\n      0x00\n        /* \"Bluelight-MP/UserDashboard.sol\":3925:3961  users[msg.sender].userExisted = true */\n      0x0100\n      exp\n      dup2\n      sload\n      dup2\n      0xff\n      mul\n      not\n      and\n      swap1\n      dup4\n      iszero\n      iszero\n      mul\n      or\n      swap1\n      sstore\n      pop\n        /* \"Bluelight-MP/UserDashboard.sol\":4005:4020  block.timestamp */\n      timestamp\n        /* \"Bluelight-MP/UserDashboard.sol\":3972:3977  users */\n      0x03\n        /* \"Bluelight-MP/UserDashboard.sol\":3972:3989  users[msg.sender] */\n      0x00\n        /* \"Bluelight-MP/UserDashboard.sol\":3978:3988  msg.sender */\n      caller\n        /* \"Bluelight-MP/UserDashboard.sol\":3972:3989  users[msg.sender] */\n      0xffffffffffffffffffffffffffffffffffffffff\n      and\n      0xffffffffffffffffffffffffffffffffffffffff\n      and\n      dup2\n      mstore\n      0x20\n      add\n      swap1\n      dup2\n      mstore\n      0x20\n      add\n      0x00\n      keccak256\n        /* \"Bluelight-MP/UserDashboard.sol\":3972:4002  users[msg.sender].creationTime */\n      0x02\n      add\n        /* \"Bluelight-MP/UserDashboard.sol\":3972:4020  users[msg.sender].creationTime = block.timestamp */\n      dup2\n      swap1\n      sstore\n      pop\n        /* \"Bluelight-MP/UserDashboard.sol\":4060:4064  true */\n      0x01\n        /* \"Bluelight-MP/UserDashboard.sol\":4031:4036  users */\n      0x03\n        /* \"Bluelight-MP/UserDashboard.sol\":4031:4048  users[msg.sender] */\n      0x00\n        /* \"Bluelight-MP/UserDashboard.sol\":4037:4047  msg.sender */\n      caller\n        /* \"Bluelight-MP/UserDashboard.sol\":4031:4048  users[msg.sender] */\n      0xffffffffffffffffffffffffffffffffffffffff\n      and\n      0xffffffffffffffffffffffffffffffffffffffff\n      and\n      dup2\n      mstore\n      0x20\n      add\n      swap1\n      dup2\n      mstore\n      0x20\n      add\n      0x00\n      keccak256\n        /* \"Bluelight-MP/UserDashboard.sol\":4031:4057  users[msg.sender].loggedIn */\n      0x03\n      add\n      0x00\n        /* \"Bluelight-MP/UserDashboard.sol\":4031:4064  users[msg.sender].loggedIn = true */\n      0x0100\n      exp\n      dup2\n      sload\n      dup2\n      0xff\n      mul\n      not\n      and\n      swap1\n      dup4\n      iszero\n      iszero\n      mul\n      or\n      swap1\n      sstore\n      pop\n        /* \"Bluelight-MP/UserDashboard.sol\":4106:4116  msg.sender */\n      caller\n        /* \"Bluelight-MP/UserDashboard.sol\":4075:4092  userNameToAddress */\n      0x04\n        /* \"Bluelight-MP/UserDashboard.sol\":4093:4102  _userName */\n      dup3\n        /* \"Bluelight-MP/UserDashboard.sol\":4075:4103  userNameToAddress[_userName] */\n      mload(0x40)\n      tag_188\n      swap2\n      swap1\n      tag_118\n      jump\t// in\n    tag_188:\n      swap1\n      dup2\n      mstore\n      0x20\n      add\n      mload(0x40)\n      dup1\n      swap2\n      sub\n      swap1\n      keccak256\n      0x00\n        /* \"Bluelight-MP/UserDashboard.sol\":4075:4116  userNameToAddress[_userName] = msg.sender */\n      0x0100\n      exp\n      dup2\n      sload\n      dup2\n      0xffffffffffffffffffffffffffffffffffffffff\n      mul\n      not\n      and\n      swap1\n      dup4\n      0xffffffffffffffffffffffffffffffffffffffff\n      and\n      mul\n      or\n      swap1\n      sstore\n      pop\n        /* \"Bluelight-MP/UserDashboard.sol\":4246:4256  msg.sender */\n      caller\n        /* \"Bluelight-MP/UserDashboard.sol\":4238:4285  SignUp (msg.sender, _userName, block.timestamp) */\n      0xffffffffffffffffffffffffffffffffffffffff\n      and\n      0xee20c2c019dcbca8d08ff74c4ce6f465e02d3611905c9aceeb76a0c8e429af2f\n        /* \"Bluelight-MP/UserDashboard.sol\":4258:4267  _userName */\n      dup3\n        /* \"Bluelight-MP/UserDashboard.sol\":4269:4284  block.timestamp */\n      timestamp\n        /* \"Bluelight-MP/UserDashboard.sol\":4238:4285  SignUp (msg.sender, _userName, block.timestamp) */\n      mload(0x40)\n      tag_189\n      swap3\n      swap2\n      swap1\n      tag_190\n      jump\t// in\n    tag_189:\n      mload(0x40)\n      dup1\n      swap2\n      sub\n      swap1\n      log2\n        /* \"Bluelight-MP/UserDashboard.sol\":3644:4301  function signUp(string memory _userName) external virtual override{\r... */\n      pop\n      jump\t// out\n        /* \"Bluelight-MP/UserDashboard.sol\":4638:4860  function checkUser() external virtual override view returns(string memory){\r... */\n    tag_88:\n        /* \"Bluelight-MP/UserDashboard.sol\":4698:4711  string memory */\n      0x60\n        /* \"Bluelight-MP/UserDashboard.sol\":4731:4736  users */\n      0x03\n        /* \"Bluelight-MP/UserDashboard.sol\":4731:4748  users[msg.sender] */\n      0x00\n        /* \"Bluelight-MP/UserDashboard.sol\":4737:4747  msg.sender */\n      caller\n        /* \"Bluelight-MP/UserDashboard.sol\":4731:4748  users[msg.sender] */\n      0xffffffffffffffffffffffffffffffffffffffff\n      and\n      0xffffffffffffffffffffffffffffffffffffffff\n      and\n      dup2\n      mstore\n      0x20\n      add\n      swap1\n      dup2\n      mstore\n      0x20\n      add\n      0x00\n      keccak256\n        /* \"Bluelight-MP/UserDashboard.sol\":4731:4757  users[msg.sender].loggedIn */\n      0x03\n      add\n      0x00\n      swap1\n      sload\n      swap1\n      0x0100\n      exp\n      swap1\n      div\n      0xff\n      and\n        /* \"Bluelight-MP/UserDashboard.sol\":4723:4808  require(users[msg.sender].loggedIn, \"create account first or logIn to your account.\") */\n      tag_192\n      jumpi\n      mload(0x40)\n      0x08c379a000000000000000000000000000000000000000000000000000000000\n      dup2\n      mstore\n      0x04\n      add\n      tag_193\n      swap1\n      tag_194\n      jump\t// in\n    tag_193:\n      mload(0x40)\n      dup1\n      swap2\n      sub\n      swap1\n      revert\n    tag_192:\n        /* \"Bluelight-MP/UserDashboard.sol\":4826:4831  users */\n      0x03\n        /* \"Bluelight-MP/UserDashboard.sol\":4826:4843  users[msg.sender] */\n      0x00\n        /* \"Bluelight-MP/UserDashboard.sol\":4832:4842  msg.sender */\n      caller\n        /* \"Bluelight-MP/UserDashboard.sol\":4826:4843  users[msg.sender] */\n      0xffffffffffffffffffffffffffffffffffffffff\n      and\n      0xffffffffffffffffffffffffffffffffffffffff\n      and\n      dup2\n      mstore\n      0x20\n      add\n      swap1\n      dup2\n      mstore\n      0x20\n      add\n      0x00\n      keccak256\n        /* \"Bluelight-MP/UserDashboard.sol\":4826:4852  users[msg.sender].userName */\n      0x00\n      add\n        /* \"Bluelight-MP/UserDashboard.sol\":4819:4852  return users[msg.sender].userName */\n      dup1\n      sload\n      tag_195\n      swap1\n      tag_112\n      jump\t// in\n    tag_195:\n      dup1\n      0x1f\n      add\n      0x20\n      dup1\n      swap2\n      div\n      mul\n      0x20\n      add\n      mload(0x40)\n      swap1\n      dup2\n      add\n      0x40\n      mstore\n      dup1\n      swap3\n      swap2\n      swap1\n      dup2\n      dup2\n      mstore\n      0x20\n      add\n      dup3\n      dup1\n      sload\n      tag_196\n      swap1\n      tag_112\n      jump\t// in\n    tag_196:\n      dup1\n      iszero\n      tag_197\n      jumpi\n      dup1\n      0x1f\n      lt\n      tag_198\n      jumpi\n      0x0100\n      dup1\n      dup4\n      sload\n      div\n      mul\n      dup4\n      mstore\n      swap2\n      0x20\n      add\n      swap2\n      jump(tag_197)\n    tag_198:\n      dup3\n      add\n      swap2\n      swap1\n      0x00\n      mstore\n      keccak256(0x00, 0x20)\n      swap1\n    tag_199:\n      dup2\n      sload\n      dup2\n      mstore\n      swap1\n      0x01\n      add\n      swap1\n      0x20\n      add\n      dup1\n      dup4\n      gt\n      tag_199\n      jumpi\n      dup3\n      swap1\n      sub\n      0x1f\n      and\n      dup3\n      add\n      swap2\n    tag_197:\n      pop\n      pop\n      pop\n      pop\n      pop\n      swap1\n      pop\n        /* \"Bluelight-MP/UserDashboard.sol\":4638:4860  function checkUser() external virtual override view returns(string memory){\r... */\n      swap1\n      jump\t// out\n        /* \"Bluelight-MP/UserDashboard.sol\":1988:2344  function setBuyNftData(address owner, address nftContractAddress, uint256 tokenId, string memory iPFS) external virtual override{\r... */\n    tag_93:\n        /* \"Bluelight-MP/UserDashboard.sol\":2137:2151  bytes32 uniKey */\n      0x00\n        /* \"Bluelight-MP/UserDashboard.sol\":2154:2202  getPrivateUniqueKey(nftContractAddress, tokenId) */\n      tag_201\n        /* \"Bluelight-MP/UserDashboard.sol\":2174:2192  nftContractAddress */\n      dup5\n        /* \"Bluelight-MP/UserDashboard.sol\":2194:2201  tokenId */\n      dup5\n        /* \"Bluelight-MP/UserDashboard.sol\":2154:2173  getPrivateUniqueKey */\n      tag_177\n        /* \"Bluelight-MP/UserDashboard.sol\":2154:2202  getPrivateUniqueKey(nftContractAddress, tokenId) */\n      jump\t// in\n    tag_201:\n        /* \"Bluelight-MP/UserDashboard.sol\":2137:2202  bytes32 uniKey = getPrivateUniqueKey(nftContractAddress, tokenId) */\n      swap1\n      pop\n        /* \"Bluelight-MP/UserDashboard.sol\":2247:2252  owner */\n      dup5\n        /* \"Bluelight-MP/UserDashboard.sol\":2224:2230  myNFTs */\n      0x01\n        /* \"Bluelight-MP/UserDashboard.sol\":2224:2238  myNFTs[uniKey] */\n      0x00\n        /* \"Bluelight-MP/UserDashboard.sol\":2231:2237  uniKey */\n      dup4\n        /* \"Bluelight-MP/UserDashboard.sol\":2224:2238  myNFTs[uniKey] */\n      dup2\n      mstore\n      0x20\n      add\n      swap1\n      dup2\n      mstore\n      0x20\n      add\n      0x00\n      keccak256\n        /* \"Bluelight-MP/UserDashboard.sol\":2224:2244  myNFTs[uniKey].owner */\n      0x02\n      add\n      0x00\n        /* \"Bluelight-MP/UserDashboard.sol\":2224:2252  myNFTs[uniKey].owner = owner */\n      0x0100\n      exp\n      dup2\n      sload\n      dup2\n      0xffffffffffffffffffffffffffffffffffffffff\n      mul\n      not\n      and\n      swap1\n      dup4\n      0xffffffffffffffffffffffffffffffffffffffff\n      and\n      mul\n      or\n      swap1\n      sstore\n      pop\n        /* \"Bluelight-MP/UserDashboard.sol\":2285:2289  iPFS */\n      dup2\n        /* \"Bluelight-MP/UserDashboard.sol\":2263:2269  myNFTs */\n      0x01\n        /* \"Bluelight-MP/UserDashboard.sol\":2263:2277  myNFTs[uniKey] */\n      0x00\n        /* \"Bluelight-MP/UserDashboard.sol\":2270:2276  uniKey */\n      dup4\n        /* \"Bluelight-MP/UserDashboard.sol\":2263:2277  myNFTs[uniKey] */\n      dup2\n      mstore\n      0x20\n      add\n      swap1\n      dup2\n      mstore\n      0x20\n      add\n      0x00\n      keccak256\n        /* \"Bluelight-MP/UserDashboard.sol\":2263:2282  myNFTs[uniKey].ipfs */\n      0x03\n      add\n        /* \"Bluelight-MP/UserDashboard.sol\":2263:2289  myNFTs[uniKey].ipfs = iPFS */\n      swap1\n      dup1\n      mload\n      swap1\n      0x20\n      add\n      swap1\n      tag_202\n      swap3\n      swap2\n      swap1\n      tag_106\n      jump\t// in\n    tag_202:\n      pop\n        /* \"Bluelight-MP/UserDashboard.sol\":2300:2314  uniKeysMapping */\n      0x02\n        /* \"Bluelight-MP/UserDashboard.sol\":2300:2321  uniKeysMapping[owner] */\n      0x00\n        /* \"Bluelight-MP/UserDashboard.sol\":2315:2320  owner */\n      dup7\n        /* \"Bluelight-MP/UserDashboard.sol\":2300:2321  uniKeysMapping[owner] */\n      0xffffffffffffffffffffffffffffffffffffffff\n      and\n      0xffffffffffffffffffffffffffffffffffffffff\n      and\n      dup2\n      mstore\n      0x20\n      add\n      swap1\n      dup2\n      mstore\n      0x20\n      add\n      0x00\n      keccak256\n        /* \"Bluelight-MP/UserDashboard.sol\":2327:2333  uniKey */\n      dup2\n        /* \"Bluelight-MP/UserDashboard.sol\":2300:2334  uniKeysMapping[owner].push(uniKey) */\n      swap1\n      dup1\n      0x01\n      dup2\n      sload\n      add\n      dup1\n      dup3\n      sstore\n      dup1\n      swap2\n      pop\n      pop\n      0x01\n      swap1\n      sub\n      swap1\n      0x00\n      mstore\n      keccak256(0x00, 0x20)\n      add\n      0x00\n      swap1\n      swap2\n      swap1\n      swap2\n      swap1\n      swap2\n      pop\n      sstore\n        /* \"Bluelight-MP/UserDashboard.sol\":1988:2344  function setBuyNftData(address owner, address nftContractAddress, uint256 tokenId, string memory iPFS) external virtual override{\r... */\n      pop\n      pop\n      pop\n      pop\n      pop\n      jump\t// out\n        /* \"Bluelight-MP/UserDashboard.sol\":4512:4632  function getProfilePic() external view returns(string memory ipfs){\r... */\n    tag_95:\n        /* \"Bluelight-MP/UserDashboard.sol\":4559:4577  string memory ipfs */\n      0x60\n        /* \"Bluelight-MP/UserDashboard.sol\":4596:4601  users */\n      0x03\n        /* \"Bluelight-MP/UserDashboard.sol\":4596:4613  users[msg.sender] */\n      0x00\n        /* \"Bluelight-MP/UserDashboard.sol\":4602:4612  msg.sender */\n      caller\n        /* \"Bluelight-MP/UserDashboard.sol\":4596:4613  users[msg.sender] */\n      0xffffffffffffffffffffffffffffffffffffffff\n      and\n      0xffffffffffffffffffffffffffffffffffffffff\n      and\n      dup2\n      mstore\n      0x20\n      add\n      swap1\n      dup2\n      mstore\n      0x20\n      add\n      0x00\n      keccak256\n        /* \"Bluelight-MP/UserDashboard.sol\":4596:4624  users[msg.sender].profilePic */\n      0x04\n      add\n        /* \"Bluelight-MP/UserDashboard.sol\":4589:4624  return users[msg.sender].profilePic */\n      dup1\n      sload\n      tag_205\n      swap1\n      tag_112\n      jump\t// in\n    tag_205:\n      dup1\n      0x1f\n      add\n      0x20\n      dup1\n      swap2\n      div\n      mul\n      0x20\n      add\n      mload(0x40)\n      swap1\n      dup2\n      add\n      0x40\n      mstore\n      dup1\n      swap3\n      swap2\n      swap1\n      dup2\n      dup2\n      mstore\n      0x20\n      add\n      dup3\n      dup1\n      sload\n      tag_206\n      swap1\n      tag_112\n      jump\t// in\n    tag_206:\n      dup1\n      iszero\n      tag_207\n      jumpi\n      dup1\n      0x1f\n      lt\n      tag_208\n      jumpi\n      0x0100\n      dup1\n      dup4\n      sload\n      div\n      mul\n      dup4\n      mstore\n      swap2\n      0x20\n      add\n      swap2\n      jump(tag_207)\n    tag_208:\n      dup3\n      add\n      swap2\n      swap1\n      0x00\n      mstore\n      keccak256(0x00, 0x20)\n      swap1\n    tag_209:\n      dup2\n      sload\n      dup2\n      mstore\n      swap1\n      0x01\n      add\n      swap1\n      0x20\n      add\n      dup1\n      dup4\n      gt\n      tag_209\n      jumpi\n      dup3\n      swap1\n      sub\n      0x1f\n      and\n      dup3\n      add\n      swap2\n    tag_207:\n      pop\n      pop\n      pop\n      pop\n      pop\n      swap1\n      pop\n        /* \"Bluelight-MP/UserDashboard.sol\":4512:4632  function getProfilePic() external view returns(string memory ipfs){\r... */\n      swap1\n      jump\t// out\n        /* \"Bluelight-MP/UserDashboard.sol\":3263:3399  function checkLogIn(address _userAddr) external virtual override view returns(bool){  \r... */\n    tag_99:\n        /* \"Bluelight-MP/UserDashboard.sol\":3341:3345  bool */\n      0x00\n        /* \"Bluelight-MP/UserDashboard.sol\":3366:3371  users */\n      0x03\n        /* \"Bluelight-MP/UserDashboard.sol\":3366:3382  users[_userAddr] */\n      0x00\n        /* \"Bluelight-MP/UserDashboard.sol\":3372:3381  _userAddr */\n      dup4\n        /* \"Bluelight-MP/UserDashboard.sol\":3366:3382  users[_userAddr] */\n      0xffffffffffffffffffffffffffffffffffffffff\n      and\n      0xffffffffffffffffffffffffffffffffffffffff\n      and\n      dup2\n      mstore\n      0x20\n      add\n      swap1\n      dup2\n      mstore\n      0x20\n      add\n      0x00\n      keccak256\n        /* \"Bluelight-MP/UserDashboard.sol\":3366:3391  users[_userAddr].loggedIn */\n      0x03\n      add\n      0x00\n      swap1\n      sload\n      swap1\n      0x0100\n      exp\n      swap1\n      div\n      0xff\n      and\n        /* \"Bluelight-MP/UserDashboard.sol\":3359:3391  return users[_userAddr].loggedIn */\n      swap1\n      pop\n        /* \"Bluelight-MP/UserDashboard.sol\":3263:3399  function checkLogIn(address _userAddr) external virtual override view returns(bool){  \r... */\n      swap2\n      swap1\n      pop\n      jump\t// out\n        /* \"Bluelight-MP/UserDashboard.sol\":1321:1518  function getPrivateUniqueKey(address nftContractAddress, uint256 tokenId) internal pure returns (bytes32 NFTUniKey){\r... */\n    tag_177:\n        /* \"Bluelight-MP/UserDashboard.sol\":1418:1435  bytes32 NFTUniKey */\n      0x00\n        /* \"Bluelight-MP/UserDashboard.sol\":1481:1499  nftContractAddress */\n      dup3\n        /* \"Bluelight-MP/UserDashboard.sol\":1501:1508  tokenId */\n      dup3\n        /* \"Bluelight-MP/UserDashboard.sol\":1464:1509  abi.encodePacked(nftContractAddress, tokenId) */\n      add(0x20, mload(0x40))\n      tag_212\n      swap3\n      swap2\n      swap1\n      tag_213\n      jump\t// in\n    tag_212:\n      mload(0x40)\n      0x20\n      dup2\n      dup4\n      sub\n      sub\n      dup2\n      mstore\n      swap1\n      0x40\n      mstore\n        /* \"Bluelight-MP/UserDashboard.sol\":1454:1510  keccak256(abi.encodePacked(nftContractAddress, tokenId)) */\n      dup1\n      mload\n      swap1\n      0x20\n      add\n      keccak256\n        /* \"Bluelight-MP/UserDashboard.sol\":1447:1510  return keccak256(abi.encodePacked(nftContractAddress, tokenId)) */\n      swap1\n      pop\n        /* \"Bluelight-MP/UserDashboard.sol\":1321:1518  function getPrivateUniqueKey(address nftContractAddress, uint256 tokenId) internal pure returns (bytes32 NFTUniKey){\r... */\n      swap3\n      swap2\n      pop\n      pop\n      jump\t// out\n    tag_106:\n      dup3\n      dup1\n      sload\n      tag_214\n      swap1\n      tag_112\n      jump\t// in\n    tag_214:\n      swap1\n      0x00\n      mstore\n      keccak256(0x00, 0x20)\n      swap1\n      0x1f\n      add\n      0x20\n      swap1\n      div\n      dup2\n      add\n      swap3\n      dup3\n      tag_216\n      jumpi\n      0x00\n      dup6\n      sstore\n      jump(tag_215)\n    tag_216:\n      dup3\n      0x1f\n      lt\n      tag_217\n      jumpi\n      dup1\n      mload\n      not(0xff)\n      and\n      dup4\n      dup1\n      add\n      or\n      dup6\n      sstore\n      jump(tag_215)\n    tag_217:\n      dup3\n      dup1\n      add\n      0x01\n      add\n      dup6\n      sstore\n      dup3\n      iszero\n      tag_215\n      jumpi\n      swap2\n      dup3\n      add\n    tag_218:\n      dup3\n      dup2\n      gt\n      iszero\n      tag_219\n      jumpi\n      dup3\n      mload\n      dup3\n      sstore\n      swap2\n      0x20\n      add\n      swap2\n      swap1\n      0x01\n      add\n      swap1\n      jump(tag_218)\n    tag_219:\n    tag_215:\n      pop\n      swap1\n      pop\n      tag_220\n      swap2\n      swap1\n      tag_221\n      jump\t// in\n    tag_220:\n      pop\n      swap1\n      jump\t// out\n    tag_120:\n      pop\n      dup1\n      sload\n      tag_222\n      swap1\n      tag_112\n      jump\t// in\n    tag_222:\n      0x00\n      dup3\n      sstore\n      dup1\n      0x1f\n      lt\n      tag_224\n      jumpi\n      pop\n      jump(tag_223)\n    tag_224:\n      0x1f\n      add\n      0x20\n      swap1\n      div\n      swap1\n      0x00\n      mstore\n      keccak256(0x00, 0x20)\n      swap1\n      dup2\n      add\n      swap1\n      tag_225\n      swap2\n      swap1\n      tag_221\n      jump\t// in\n    tag_225:\n    tag_223:\n      pop\n      jump\t// out\n    tag_221:\n    tag_226:\n      dup1\n      dup3\n      gt\n      iszero\n      tag_227\n      jumpi\n      0x00\n      dup2\n      0x00\n      swap1\n      sstore\n      pop\n      0x01\n      add\n      jump(tag_226)\n    tag_227:\n      pop\n      swap1\n      jump\t// out\n        /* \"#utility.yul\":7:352   */\n    tag_229:\n        /* \"#utility.yul\":85:90   */\n      0x00\n        /* \"#utility.yul\":110:176   */\n      tag_231\n        /* \"#utility.yul\":126:175   */\n      tag_232\n        /* \"#utility.yul\":168:174   */\n      dup5\n        /* \"#utility.yul\":126:175   */\n      tag_233\n      jump\t// in\n    tag_232:\n        /* \"#utility.yul\":110:176   */\n      tag_234\n      jump\t// in\n    tag_231:\n        /* \"#utility.yul\":101:176   */\n      swap1\n      pop\n        /* \"#utility.yul\":199:205   */\n      dup3\n        /* \"#utility.yul\":192:197   */\n      dup2\n        /* \"#utility.yul\":185:206   */\n      mstore\n        /* \"#utility.yul\":237:241   */\n      0x20\n        /* \"#utility.yul\":230:235   */\n      dup2\n        /* \"#utility.yul\":226:242   */\n      add\n        /* \"#utility.yul\":275:278   */\n      dup5\n        /* \"#utility.yul\":266:272   */\n      dup5\n        /* \"#utility.yul\":261:264   */\n      dup5\n        /* \"#utility.yul\":257:273   */\n      add\n        /* \"#utility.yul\":254:279   */\n      gt\n        /* \"#utility.yul\":251:253   */\n      iszero\n      tag_235\n      jumpi\n        /* \"#utility.yul\":292:293   */\n      0x00\n        /* \"#utility.yul\":289:290   */\n      dup1\n        /* \"#utility.yul\":282:294   */\n      revert\n        /* \"#utility.yul\":251:253   */\n    tag_235:\n        /* \"#utility.yul\":305:346   */\n      tag_236\n        /* \"#utility.yul\":339:345   */\n      dup5\n        /* \"#utility.yul\":334:337   */\n      dup3\n        /* \"#utility.yul\":329:332   */\n      dup6\n        /* \"#utility.yul\":305:346   */\n      tag_237\n      jump\t// in\n    tag_236:\n        /* \"#utility.yul\":91:352   */\n      pop\n      swap4\n      swap3\n      pop\n      pop\n      pop\n      jump\t// out\n        /* \"#utility.yul\":358:497   */\n    tag_238:\n        /* \"#utility.yul\":404:409   */\n      0x00\n        /* \"#utility.yul\":442:448   */\n      dup2\n        /* \"#utility.yul\":429:449   */\n      calldataload\n        /* \"#utility.yul\":420:449   */\n      swap1\n      pop\n        /* \"#utility.yul\":458:491   */\n      tag_240\n        /* \"#utility.yul\":485:490   */\n      dup2\n        /* \"#utility.yul\":458:491   */\n      tag_241\n      jump\t// in\n    tag_240:\n        /* \"#utility.yul\":410:497   */\n      swap3\n      swap2\n      pop\n      pop\n      jump\t// out\n        /* \"#utility.yul\":503:642   */\n    tag_242:\n        /* \"#utility.yul\":549:554   */\n      0x00\n        /* \"#utility.yul\":587:593   */\n      dup2\n        /* \"#utility.yul\":574:594   */\n      calldataload\n        /* \"#utility.yul\":565:594   */\n      swap1\n      pop\n        /* \"#utility.yul\":603:636   */\n      tag_244\n        /* \"#utility.yul\":630:635   */\n      dup2\n        /* \"#utility.yul\":603:636   */\n      tag_245\n      jump\t// in\n    tag_244:\n        /* \"#utility.yul\":555:642   */\n      swap3\n      swap2\n      pop\n      pop\n      jump\t// out\n        /* \"#utility.yul\":662:935   */\n    tag_246:\n        /* \"#utility.yul\":718:723   */\n      0x00\n        /* \"#utility.yul\":767:770   */\n      dup3\n        /* \"#utility.yul\":760:764   */\n      0x1f\n        /* \"#utility.yul\":752:758   */\n      dup4\n        /* \"#utility.yul\":748:765   */\n      add\n        /* \"#utility.yul\":744:771   */\n      slt\n        /* \"#utility.yul\":734:736   */\n      tag_248\n      jumpi\n        /* \"#utility.yul\":785:786   */\n      0x00\n        /* \"#utility.yul\":782:783   */\n      dup1\n        /* \"#utility.yul\":775:787   */\n      revert\n        /* \"#utility.yul\":734:736   */\n    tag_248:\n        /* \"#utility.yul\":825:831   */\n      dup2\n        /* \"#utility.yul\":812:832   */\n      calldataload\n        /* \"#utility.yul\":850:929   */\n      tag_249\n        /* \"#utility.yul\":925:928   */\n      dup5\n        /* \"#utility.yul\":917:923   */\n      dup3\n        /* \"#utility.yul\":910:914   */\n      0x20\n        /* \"#utility.yul\":902:908   */\n      dup7\n        /* \"#utility.yul\":898:915   */\n      add\n        /* \"#utility.yul\":850:929   */\n      tag_229\n      jump\t// in\n    tag_249:\n        /* \"#utility.yul\":841:929   */\n      swap2\n      pop\n        /* \"#utility.yul\":724:935   */\n      pop\n      swap3\n      swap2\n      pop\n      pop\n      jump\t// out\n        /* \"#utility.yul\":941:1080   */\n    tag_250:\n        /* \"#utility.yul\":987:992   */\n      0x00\n        /* \"#utility.yul\":1025:1031   */\n      dup2\n        /* \"#utility.yul\":1012:1032   */\n      calldataload\n        /* \"#utility.yul\":1003:1032   */\n      swap1\n      pop\n        /* \"#utility.yul\":1041:1074   */\n      tag_252\n        /* \"#utility.yul\":1068:1073   */\n      dup2\n        /* \"#utility.yul\":1041:1074   */\n      tag_253\n      jump\t// in\n    tag_252:\n        /* \"#utility.yul\":993:1080   */\n      swap3\n      swap2\n      pop\n      pop\n      jump\t// out\n        /* \"#utility.yul\":1086:1348   */\n    tag_58:\n        /* \"#utility.yul\":1145:1151   */\n      0x00\n        /* \"#utility.yul\":1194:1196   */\n      0x20\n        /* \"#utility.yul\":1182:1191   */\n      dup3\n        /* \"#utility.yul\":1173:1180   */\n      dup5\n        /* \"#utility.yul\":1169:1192   */\n      sub\n        /* \"#utility.yul\":1165:1197   */\n      slt\n        /* \"#utility.yul\":1162:1164   */\n      iszero\n      tag_255\n      jumpi\n        /* \"#utility.yul\":1210:1211   */\n      0x00\n        /* \"#utility.yul\":1207:1208   */\n      dup1\n        /* \"#utility.yul\":1200:1212   */\n      revert\n        /* \"#utility.yul\":1162:1164   */\n    tag_255:\n        /* \"#utility.yul\":1253:1254   */\n      0x00\n        /* \"#utility.yul\":1278:1331   */\n      tag_256\n        /* \"#utility.yul\":1323:1330   */\n      dup5\n        /* \"#utility.yul\":1314:1320   */\n      dup3\n        /* \"#utility.yul\":1303:1312   */\n      dup6\n        /* \"#utility.yul\":1299:1321   */\n      add\n        /* \"#utility.yul\":1278:1331   */\n      tag_238\n      jump\t// in\n    tag_256:\n        /* \"#utility.yul\":1268:1331   */\n      swap2\n      pop\n        /* \"#utility.yul\":1224:1341   */\n      pop\n        /* \"#utility.yul\":1152:1348   */\n      swap3\n      swap2\n      pop\n      pop\n      jump\t// out\n        /* \"#utility.yul\":1354:2165   */\n    tag_82:\n        /* \"#utility.yul\":1450:1456   */\n      0x00\n        /* \"#utility.yul\":1458:1464   */\n      dup1\n        /* \"#utility.yul\":1466:1472   */\n      0x00\n        /* \"#utility.yul\":1474:1480   */\n      dup1\n        /* \"#utility.yul\":1523:1526   */\n      0x80\n        /* \"#utility.yul\":1511:1520   */\n      dup6\n        /* \"#utility.yul\":1502:1509   */\n      dup8\n        /* \"#utility.yul\":1498:1521   */\n      sub\n        /* \"#utility.yul\":1494:1527   */\n      slt\n        /* \"#utility.yul\":1491:1493   */\n      iszero\n      tag_258\n      jumpi\n        /* \"#utility.yul\":1540:1541   */\n      0x00\n        /* \"#utility.yul\":1537:1538   */\n      dup1\n        /* \"#utility.yul\":1530:1542   */\n      revert\n        /* \"#utility.yul\":1491:1493   */\n    tag_258:\n        /* \"#utility.yul\":1583:1584   */\n      0x00\n        /* \"#utility.yul\":1608:1661   */\n      tag_259\n        /* \"#utility.yul\":1653:1660   */\n      dup8\n        /* \"#utility.yul\":1644:1650   */\n      dup3\n        /* \"#utility.yul\":1633:1642   */\n      dup9\n        /* \"#utility.yul\":1629:1651   */\n      add\n        /* \"#utility.yul\":1608:1661   */\n      tag_238\n      jump\t// in\n    tag_259:\n        /* \"#utility.yul\":1598:1661   */\n      swap5\n      pop\n        /* \"#utility.yul\":1554:1671   */\n      pop\n        /* \"#utility.yul\":1710:1712   */\n      0x20\n        /* \"#utility.yul\":1736:1789   */\n      tag_260\n        /* \"#utility.yul\":1781:1788   */\n      dup8\n        /* \"#utility.yul\":1772:1778   */\n      dup3\n        /* \"#utility.yul\":1761:1770   */\n      dup9\n        /* \"#utility.yul\":1757:1779   */\n      add\n        /* \"#utility.yul\":1736:1789   */\n      tag_238\n      jump\t// in\n    tag_260:\n        /* \"#utility.yul\":1726:1789   */\n      swap4\n      pop\n        /* \"#utility.yul\":1681:1799   */\n      pop\n        /* \"#utility.yul\":1838:1840   */\n      0x40\n        /* \"#utility.yul\":1864:1917   */\n      tag_261\n        /* \"#utility.yul\":1909:1916   */\n      dup8\n        /* \"#utility.yul\":1900:1906   */\n      dup3\n        /* \"#utility.yul\":1889:1898   */\n      dup9\n        /* \"#utility.yul\":1885:1907   */\n      add\n        /* \"#utility.yul\":1864:1917   */\n      tag_250\n      jump\t// in\n    tag_261:\n        /* \"#utility.yul\":1854:1917   */\n      swap3\n      pop\n        /* \"#utility.yul\":1809:1927   */\n      pop\n        /* \"#utility.yul\":1994:1996   */\n      0x60\n        /* \"#utility.yul\":1983:1992   */\n      dup6\n        /* \"#utility.yul\":1979:1997   */\n      add\n        /* \"#utility.yul\":1966:1998   */\n      calldataload\n        /* \"#utility.yul\":2025:2043   */\n      0xffffffffffffffff\n        /* \"#utility.yul\":2017:2023   */\n      dup2\n        /* \"#utility.yul\":2014:2044   */\n      gt\n        /* \"#utility.yul\":2011:2013   */\n      iszero\n      tag_262\n      jumpi\n        /* \"#utility.yul\":2057:2058   */\n      0x00\n        /* \"#utility.yul\":2054:2055   */\n      dup1\n        /* \"#utility.yul\":2047:2059   */\n      revert\n        /* \"#utility.yul\":2011:2013   */\n    tag_262:\n        /* \"#utility.yul\":2085:2148   */\n      tag_263\n        /* \"#utility.yul\":2140:2147   */\n      dup8\n        /* \"#utility.yul\":2131:2137   */\n      dup3\n        /* \"#utility.yul\":2120:2129   */\n      dup9\n        /* \"#utility.yul\":2116:2138   */\n      add\n        /* \"#utility.yul\":2085:2148   */\n      tag_246\n      jump\t// in\n    tag_263:\n        /* \"#utility.yul\":2075:2148   */\n      swap2\n      pop\n        /* \"#utility.yul\":1937:2158   */\n      pop\n        /* \"#utility.yul\":1481:2165   */\n      swap3\n      swap6\n      swap2\n      swap5\n      pop\n      swap3\n      pop\n      jump\t// out\n        /* \"#utility.yul\":2171:2578   */\n    tag_44:\n        /* \"#utility.yul\":2239:2245   */\n      0x00\n        /* \"#utility.yul\":2247:2253   */\n      dup1\n        /* \"#utility.yul\":2296:2298   */\n      0x40\n        /* \"#utility.yul\":2284:2293   */\n      dup4\n        /* \"#utility.yul\":2275:2282   */\n      dup6\n        /* \"#utility.yul\":2271:2294   */\n      sub\n        /* \"#utility.yul\":2267:2299   */\n      slt\n        /* \"#utility.yul\":2264:2266   */\n      iszero\n      tag_265\n      jumpi\n        /* \"#utility.yul\":2312:2313   */\n      0x00\n        /* \"#utility.yul\":2309:2310   */\n      dup1\n        /* \"#utility.yul\":2302:2314   */\n      revert\n        /* \"#utility.yul\":2264:2266   */\n    tag_265:\n        /* \"#utility.yul\":2355:2356   */\n      0x00\n        /* \"#utility.yul\":2380:2433   */\n      tag_266\n        /* \"#utility.yul\":2425:2432   */\n      dup6\n        /* \"#utility.yul\":2416:2422   */\n      dup3\n        /* \"#utility.yul\":2405:2414   */\n      dup7\n        /* \"#utility.yul\":2401:2423   */\n      add\n        /* \"#utility.yul\":2380:2433   */\n      tag_238\n      jump\t// in\n    tag_266:\n        /* \"#utility.yul\":2370:2433   */\n      swap3\n      pop\n        /* \"#utility.yul\":2326:2443   */\n      pop\n        /* \"#utility.yul\":2482:2484   */\n      0x20\n        /* \"#utility.yul\":2508:2561   */\n      tag_267\n        /* \"#utility.yul\":2553:2560   */\n      dup6\n        /* \"#utility.yul\":2544:2550   */\n      dup3\n        /* \"#utility.yul\":2533:2542   */\n      dup7\n        /* \"#utility.yul\":2529:2551   */\n      add\n        /* \"#utility.yul\":2508:2561   */\n      tag_250\n      jump\t// in\n    tag_267:\n        /* \"#utility.yul\":2498:2561   */\n      swap2\n      pop\n        /* \"#utility.yul\":2453:2571   */\n      pop\n        /* \"#utility.yul\":2254:2578   */\n      swap3\n      pop\n      swap3\n      swap1\n      pop\n      jump\t// out\n        /* \"#utility.yul\":2584:3428   */\n    tag_74:\n        /* \"#utility.yul\":2679:2685   */\n      0x00\n        /* \"#utility.yul\":2687:2693   */\n      dup1\n        /* \"#utility.yul\":2695:2701   */\n      0x00\n        /* \"#utility.yul\":2703:2709   */\n      dup1\n        /* \"#utility.yul\":2711:2717   */\n      0x00\n        /* \"#utility.yul\":2760:2763   */\n      0xa0\n        /* \"#utility.yul\":2748:2757   */\n      dup7\n        /* \"#utility.yul\":2739:2746   */\n      dup9\n        /* \"#utility.yul\":2735:2758   */\n      sub\n        /* \"#utility.yul\":2731:2764   */\n      slt\n        /* \"#utility.yul\":2728:2730   */\n      iszero\n      tag_269\n      jumpi\n        /* \"#utility.yul\":2777:2778   */\n      0x00\n        /* \"#utility.yul\":2774:2775   */\n      dup1\n        /* \"#utility.yul\":2767:2779   */\n      revert\n        /* \"#utility.yul\":2728:2730   */\n    tag_269:\n        /* \"#utility.yul\":2820:2821   */\n      0x00\n        /* \"#utility.yul\":2845:2898   */\n      tag_270\n        /* \"#utility.yul\":2890:2897   */\n      dup9\n        /* \"#utility.yul\":2881:2887   */\n      dup3\n        /* \"#utility.yul\":2870:2879   */\n      dup10\n        /* \"#utility.yul\":2866:2888   */\n      add\n        /* \"#utility.yul\":2845:2898   */\n      tag_238\n      jump\t// in\n    tag_270:\n        /* \"#utility.yul\":2835:2898   */\n      swap6\n      pop\n        /* \"#utility.yul\":2791:2908   */\n      pop\n        /* \"#utility.yul\":2947:2949   */\n      0x20\n        /* \"#utility.yul\":2973:3026   */\n      tag_271\n        /* \"#utility.yul\":3018:3025   */\n      dup9\n        /* \"#utility.yul\":3009:3015   */\n      dup3\n        /* \"#utility.yul\":2998:3007   */\n      dup10\n        /* \"#utility.yul\":2994:3016   */\n      add\n        /* \"#utility.yul\":2973:3026   */\n      tag_250\n      jump\t// in\n    tag_271:\n        /* \"#utility.yul\":2963:3026   */\n      swap5\n      pop\n        /* \"#utility.yul\":2918:3036   */\n      pop\n        /* \"#utility.yul\":3075:3077   */\n      0x40\n        /* \"#utility.yul\":3101:3154   */\n      tag_272\n        /* \"#utility.yul\":3146:3153   */\n      dup9\n        /* \"#utility.yul\":3137:3143   */\n      dup3\n        /* \"#utility.yul\":3126:3135   */\n      dup10\n        /* \"#utility.yul\":3122:3144   */\n      add\n        /* \"#utility.yul\":3101:3154   */\n      tag_250\n      jump\t// in\n    tag_272:\n        /* \"#utility.yul\":3091:3154   */\n      swap4\n      pop\n        /* \"#utility.yul\":3046:3164   */\n      pop\n        /* \"#utility.yul\":3203:3205   */\n      0x60\n        /* \"#utility.yul\":3229:3282   */\n      tag_273\n        /* \"#utility.yul\":3274:3281   */\n      dup9\n        /* \"#utility.yul\":3265:3271   */\n      dup3\n        /* \"#utility.yul\":3254:3263   */\n      dup10\n        /* \"#utility.yul\":3250:3272   */\n      add\n        /* \"#utility.yul\":3229:3282   */\n      tag_250\n      jump\t// in\n    tag_273:\n        /* \"#utility.yul\":3219:3282   */\n      swap3\n      pop\n        /* \"#utility.yul\":3174:3292   */\n      pop\n        /* \"#utility.yul\":3331:3334   */\n      0x80\n        /* \"#utility.yul\":3358:3411   */\n      tag_274\n        /* \"#utility.yul\":3403:3410   */\n      dup9\n        /* \"#utility.yul\":3394:3400   */\n      dup3\n        /* \"#utility.yul\":3383:3392   */\n      dup10\n        /* \"#utility.yul\":3379:3401   */\n      add\n        /* \"#utility.yul\":3358:3411   */\n      tag_250\n      jump\t// in\n    tag_274:\n        /* \"#utility.yul\":3348:3411   */\n      swap2\n      pop\n        /* \"#utility.yul\":3302:3421   */\n      pop\n        /* \"#utility.yul\":2718:3428   */\n      swap3\n      swap6\n      pop\n      swap3\n      swap6\n      swap1\n      swap4\n      pop\n      jump\t// out\n        /* \"#utility.yul\":3434:3696   */\n    tag_35:\n        /* \"#utility.yul\":3493:3499   */\n      0x00\n        /* \"#utility.yul\":3542:3544   */\n      0x20\n        /* \"#utility.yul\":3530:3539   */\n      dup3\n        /* \"#utility.yul\":3521:3528   */\n      dup5\n        /* \"#utility.yul\":3517:3540   */\n      sub\n        /* \"#utility.yul\":3513:3545   */\n      slt\n        /* \"#utility.yul\":3510:3512   */\n      iszero\n      tag_276\n      jumpi\n        /* \"#utility.yul\":3558:3559   */\n      0x00\n        /* \"#utility.yul\":3555:3556   */\n      dup1\n        /* \"#utility.yul\":3548:3560   */\n      revert\n        /* \"#utility.yul\":3510:3512   */\n    tag_276:\n        /* \"#utility.yul\":3601:3602   */\n      0x00\n        /* \"#utility.yul\":3626:3679   */\n      tag_277\n        /* \"#utility.yul\":3671:3678   */\n      dup5\n        /* \"#utility.yul\":3662:3668   */\n      dup3\n        /* \"#utility.yul\":3651:3660   */\n      dup6\n        /* \"#utility.yul\":3647:3669   */\n      add\n        /* \"#utility.yul\":3626:3679   */\n      tag_242\n      jump\t// in\n    tag_277:\n        /* \"#utility.yul\":3616:3679   */\n      swap2\n      pop\n        /* \"#utility.yul\":3572:3689   */\n      pop\n        /* \"#utility.yul\":3500:3696   */\n      swap3\n      swap2\n      pop\n      pop\n      jump\t// out\n        /* \"#utility.yul\":3702:4077   */\n    tag_27:\n        /* \"#utility.yul\":3771:3777   */\n      0x00\n        /* \"#utility.yul\":3820:3822   */\n      0x20\n        /* \"#utility.yul\":3808:3817   */\n      dup3\n        /* \"#utility.yul\":3799:3806   */\n      dup5\n        /* \"#utility.yul\":3795:3818   */\n      sub\n        /* \"#utility.yul\":3791:3823   */\n      slt\n        /* \"#utility.yul\":3788:3790   */\n      iszero\n      tag_279\n      jumpi\n        /* \"#utility.yul\":3836:3837   */\n      0x00\n        /* \"#utility.yul\":3833:3834   */\n      dup1\n        /* \"#utility.yul\":3826:3838   */\n      revert\n        /* \"#utility.yul\":3788:3790   */\n    tag_279:\n        /* \"#utility.yul\":3907:3908   */\n      0x00\n        /* \"#utility.yul\":3896:3905   */\n      dup3\n        /* \"#utility.yul\":3892:3909   */\n      add\n        /* \"#utility.yul\":3879:3910   */\n      calldataload\n        /* \"#utility.yul\":3937:3955   */\n      0xffffffffffffffff\n        /* \"#utility.yul\":3929:3935   */\n      dup2\n        /* \"#utility.yul\":3926:3956   */\n      gt\n        /* \"#utility.yul\":3923:3925   */\n      iszero\n      tag_280\n      jumpi\n        /* \"#utility.yul\":3969:3970   */\n      0x00\n        /* \"#utility.yul\":3966:3967   */\n      dup1\n        /* \"#utility.yul\":3959:3971   */\n      revert\n        /* \"#utility.yul\":3923:3925   */\n    tag_280:\n        /* \"#utility.yul\":3997:4060   */\n      tag_281\n        /* \"#utility.yul\":4052:4059   */\n      dup5\n        /* \"#utility.yul\":4043:4049   */\n      dup3\n        /* \"#utility.yul\":4032:4041   */\n      dup6\n        /* \"#utility.yul\":4028:4050   */\n      add\n        /* \"#utility.yul\":3997:4060   */\n      tag_246\n      jump\t// in\n    tag_281:\n        /* \"#utility.yul\":3987:4060   */\n      swap2\n      pop\n        /* \"#utility.yul\":3850:4070   */\n      pop\n        /* \"#utility.yul\":3778:4077   */\n      swap3\n      swap2\n      pop\n      pop\n      jump\t// out\n        /* \"#utility.yul\":4083:4262   */\n    tag_282:\n        /* \"#utility.yul\":4152:4162   */\n      0x00\n        /* \"#utility.yul\":4173:4219   */\n      tag_284\n        /* \"#utility.yul\":4215:4218   */\n      dup4\n        /* \"#utility.yul\":4207:4213   */\n      dup4\n        /* \"#utility.yul\":4173:4219   */\n      tag_285\n      jump\t// in\n    tag_284:\n        /* \"#utility.yul\":4251:4255   */\n      0x20\n        /* \"#utility.yul\":4246:4249   */\n      dup4\n        /* \"#utility.yul\":4242:4256   */\n      add\n        /* \"#utility.yul\":4228:4256   */\n      swap1\n      pop\n        /* \"#utility.yul\":4163:4262   */\n      swap3\n      swap2\n      pop\n      pop\n      jump\t// out\n        /* \"#utility.yul\":4268:4386   */\n    tag_286:\n        /* \"#utility.yul\":4355:4379   */\n      tag_288\n        /* \"#utility.yul\":4373:4378   */\n      dup2\n        /* \"#utility.yul\":4355:4379   */\n      tag_289\n      jump\t// in\n    tag_288:\n        /* \"#utility.yul\":4350:4353   */\n      dup3\n        /* \"#utility.yul\":4343:4380   */\n      mstore\n        /* \"#utility.yul\":4333:4386   */\n      pop\n      pop\n      jump\t// out\n        /* \"#utility.yul\":4392:4549   */\n    tag_290:\n        /* \"#utility.yul\":4497:4542   */\n      tag_292\n        /* \"#utility.yul\":4517:4541   */\n      tag_293\n        /* \"#utility.yul\":4535:4540   */\n      dup3\n        /* \"#utility.yul\":4517:4541   */\n      tag_289\n      jump\t// in\n    tag_293:\n        /* \"#utility.yul\":4497:4542   */\n      tag_294\n      jump\t// in\n    tag_292:\n        /* \"#utility.yul\":4492:4495   */\n      dup3\n        /* \"#utility.yul\":4485:4543   */\n      mstore\n        /* \"#utility.yul\":4475:4549   */\n      pop\n      pop\n      jump\t// out\n        /* \"#utility.yul\":4585:5317   */\n    tag_295:\n        /* \"#utility.yul\":4704:4707   */\n      0x00\n        /* \"#utility.yul\":4733:4787   */\n      tag_297\n        /* \"#utility.yul\":4781:4786   */\n      dup3\n        /* \"#utility.yul\":4733:4787   */\n      tag_298\n      jump\t// in\n    tag_297:\n        /* \"#utility.yul\":4803:4889   */\n      tag_299\n        /* \"#utility.yul\":4882:4888   */\n      dup2\n        /* \"#utility.yul\":4877:4880   */\n      dup6\n        /* \"#utility.yul\":4803:4889   */\n      tag_300\n      jump\t// in\n    tag_299:\n        /* \"#utility.yul\":4796:4889   */\n      swap4\n      pop\n        /* \"#utility.yul\":4913:4969   */\n      tag_301\n        /* \"#utility.yul\":4963:4968   */\n      dup4\n        /* \"#utility.yul\":4913:4969   */\n      tag_302\n      jump\t// in\n    tag_301:\n        /* \"#utility.yul\":4992:4999   */\n      dup1\n        /* \"#utility.yul\":5023:5024   */\n      0x00\n        /* \"#utility.yul\":5008:5292   */\n    tag_303:\n        /* \"#utility.yul\":5033:5039   */\n      dup4\n        /* \"#utility.yul\":5030:5031   */\n      dup2\n        /* \"#utility.yul\":5027:5040   */\n      lt\n        /* \"#utility.yul\":5008:5292   */\n      iszero\n      tag_305\n      jumpi\n        /* \"#utility.yul\":5109:5115   */\n      dup2\n        /* \"#utility.yul\":5103:5116   */\n      mload\n        /* \"#utility.yul\":5136:5199   */\n      tag_306\n        /* \"#utility.yul\":5195:5198   */\n      dup9\n        /* \"#utility.yul\":5180:5193   */\n      dup3\n        /* \"#utility.yul\":5136:5199   */\n      tag_282\n      jump\t// in\n    tag_306:\n        /* \"#utility.yul\":5129:5199   */\n      swap8\n      pop\n        /* \"#utility.yul\":5222:5282   */\n      tag_307\n        /* \"#utility.yul\":5275:5281   */\n      dup4\n        /* \"#utility.yul\":5222:5282   */\n      tag_308\n      jump\t// in\n    tag_307:\n        /* \"#utility.yul\":5212:5282   */\n      swap3\n      pop\n        /* \"#utility.yul\":5068:5292   */\n      pop\n        /* \"#utility.yul\":5055:5056   */\n      0x01\n        /* \"#utility.yul\":5052:5053   */\n      dup2\n        /* \"#utility.yul\":5048:5057   */\n      add\n        /* \"#utility.yul\":5043:5057   */\n      swap1\n      pop\n        /* \"#utility.yul\":5008:5292   */\n      jump(tag_303)\n    tag_305:\n        /* \"#utility.yul\":5012:5026   */\n      pop\n        /* \"#utility.yul\":5308:5311   */\n      dup6\n        /* \"#utility.yul\":5301:5311   */\n      swap4\n      pop\n        /* \"#utility.yul\":4709:5317   */\n      pop\n      pop\n      pop\n      swap3\n      swap2\n      pop\n      pop\n      jump\t// out\n        /* \"#utility.yul\":5323:5432   */\n    tag_309:\n        /* \"#utility.yul\":5404:5425   */\n      tag_311\n        /* \"#utility.yul\":5419:5424   */\n      dup2\n        /* \"#utility.yul\":5404:5425   */\n      tag_312\n      jump\t// in\n    tag_311:\n        /* \"#utility.yul\":5399:5402   */\n      dup3\n        /* \"#utility.yul\":5392:5426   */\n      mstore\n        /* \"#utility.yul\":5382:5432   */\n      pop\n      pop\n      jump\t// out\n        /* \"#utility.yul\":5438:5546   */\n    tag_285:\n        /* \"#utility.yul\":5515:5539   */\n      tag_314\n        /* \"#utility.yul\":5533:5538   */\n      dup2\n        /* \"#utility.yul\":5515:5539   */\n      tag_315\n      jump\t// in\n    tag_314:\n        /* \"#utility.yul\":5510:5513   */\n      dup3\n        /* \"#utility.yul\":5503:5540   */\n      mstore\n        /* \"#utility.yul\":5493:5546   */\n      pop\n      pop\n      jump\t// out\n        /* \"#utility.yul\":5552:5670   */\n    tag_316:\n        /* \"#utility.yul\":5639:5663   */\n      tag_318\n        /* \"#utility.yul\":5657:5662   */\n      dup2\n        /* \"#utility.yul\":5639:5663   */\n      tag_315\n      jump\t// in\n    tag_318:\n        /* \"#utility.yul\":5634:5637   */\n      dup3\n        /* \"#utility.yul\":5627:5664   */\n      mstore\n        /* \"#utility.yul\":5617:5670   */\n      pop\n      pop\n      jump\t// out\n        /* \"#utility.yul\":5676:6040   */\n    tag_319:\n        /* \"#utility.yul\":5764:5767   */\n      0x00\n        /* \"#utility.yul\":5792:5831   */\n      tag_321\n        /* \"#utility.yul\":5825:5830   */\n      dup3\n        /* \"#utility.yul\":5792:5831   */\n      tag_322\n      jump\t// in\n    tag_321:\n        /* \"#utility.yul\":5847:5918   */\n      tag_323\n        /* \"#utility.yul\":5911:5917   */\n      dup2\n        /* \"#utility.yul\":5906:5909   */\n      dup6\n        /* \"#utility.yul\":5847:5918   */\n      tag_324\n      jump\t// in\n    tag_323:\n        /* \"#utility.yul\":5840:5918   */\n      swap4\n      pop\n        /* \"#utility.yul\":5927:5979   */\n      tag_325\n        /* \"#utility.yul\":5972:5978   */\n      dup2\n        /* \"#utility.yul\":5967:5970   */\n      dup6\n        /* \"#utility.yul\":5960:5964   */\n      0x20\n        /* \"#utility.yul\":5953:5958   */\n      dup7\n        /* \"#utility.yul\":5949:5965   */\n      add\n        /* \"#utility.yul\":5927:5979   */\n      tag_326\n      jump\t// in\n    tag_325:\n        /* \"#utility.yul\":6004:6033   */\n      tag_327\n        /* \"#utility.yul\":6026:6032   */\n      dup2\n        /* \"#utility.yul\":6004:6033   */\n      tag_328\n      jump\t// in\n    tag_327:\n        /* \"#utility.yul\":5999:6002   */\n      dup5\n        /* \"#utility.yul\":5995:6034   */\n      add\n        /* \"#utility.yul\":5988:6034   */\n      swap2\n      pop\n        /* \"#utility.yul\":5768:6040   */\n      pop\n      swap3\n      swap2\n      pop\n      pop\n      jump\t// out\n        /* \"#utility.yul\":6046:6423   */\n    tag_329:\n        /* \"#utility.yul\":6152:6155   */\n      0x00\n        /* \"#utility.yul\":6180:6219   */\n      tag_331\n        /* \"#utility.yul\":6213:6218   */\n      dup3\n        /* \"#utility.yul\":6180:6219   */\n      tag_322\n      jump\t// in\n    tag_331:\n        /* \"#utility.yul\":6235:6324   */\n      tag_332\n        /* \"#utility.yul\":6317:6323   */\n      dup2\n        /* \"#utility.yul\":6312:6315   */\n      dup6\n        /* \"#utility.yul\":6235:6324   */\n      tag_333\n      jump\t// in\n    tag_332:\n        /* \"#utility.yul\":6228:6324   */\n      swap4\n      pop\n        /* \"#utility.yul\":6333:6385   */\n      tag_334\n        /* \"#utility.yul\":6378:6384   */\n      dup2\n        /* \"#utility.yul\":6373:6376   */\n      dup6\n        /* \"#utility.yul\":6366:6370   */\n      0x20\n        /* \"#utility.yul\":6359:6364   */\n      dup7\n        /* \"#utility.yul\":6355:6371   */\n      add\n        /* \"#utility.yul\":6333:6385   */\n      tag_326\n      jump\t// in\n    tag_334:\n        /* \"#utility.yul\":6410:6416   */\n      dup1\n        /* \"#utility.yul\":6405:6408   */\n      dup5\n        /* \"#utility.yul\":6401:6417   */\n      add\n        /* \"#utility.yul\":6394:6417   */\n      swap2\n      pop\n        /* \"#utility.yul\":6156:6423   */\n      pop\n      swap3\n      swap2\n      pop\n      pop\n      jump\t// out\n        /* \"#utility.yul\":6429:6795   */\n    tag_335:\n        /* \"#utility.yul\":6571:6574   */\n      0x00\n        /* \"#utility.yul\":6592:6659   */\n      tag_337\n        /* \"#utility.yul\":6656:6658   */\n      0x18\n        /* \"#utility.yul\":6651:6654   */\n      dup4\n        /* \"#utility.yul\":6592:6659   */\n      tag_324\n      jump\t// in\n    tag_337:\n        /* \"#utility.yul\":6585:6659   */\n      swap2\n      pop\n        /* \"#utility.yul\":6668:6761   */\n      tag_338\n        /* \"#utility.yul\":6757:6760   */\n      dup3\n        /* \"#utility.yul\":6668:6761   */\n      tag_339\n      jump\t// in\n    tag_338:\n        /* \"#utility.yul\":6786:6788   */\n      0x20\n        /* \"#utility.yul\":6781:6784   */\n      dup3\n        /* \"#utility.yul\":6777:6789   */\n      add\n        /* \"#utility.yul\":6770:6789   */\n      swap1\n      pop\n        /* \"#utility.yul\":6575:6795   */\n      swap2\n      swap1\n      pop\n      jump\t// out\n        /* \"#utility.yul\":6801:7167   */\n    tag_340:\n        /* \"#utility.yul\":6943:6946   */\n      0x00\n        /* \"#utility.yul\":6964:7031   */\n      tag_342\n        /* \"#utility.yul\":7028:7030   */\n      0x2e\n        /* \"#utility.yul\":7023:7026   */\n      dup4\n        /* \"#utility.yul\":6964:7031   */\n      tag_324\n      jump\t// in\n    tag_342:\n        /* \"#utility.yul\":6957:7031   */\n      swap2\n      pop\n        /* \"#utility.yul\":7040:7133   */\n      tag_343\n        /* \"#utility.yul\":7129:7132   */\n      dup3\n        /* \"#utility.yul\":7040:7133   */\n      tag_344\n      jump\t// in\n    tag_343:\n        /* \"#utility.yul\":7158:7160   */\n      0x40\n        /* \"#utility.yul\":7153:7156   */\n      dup3\n        /* \"#utility.yul\":7149:7161   */\n      add\n        /* \"#utility.yul\":7142:7161   */\n      swap1\n      pop\n        /* \"#utility.yul\":6947:7167   */\n      swap2\n      swap1\n      pop\n      jump\t// out\n        /* \"#utility.yul\":7173:7539   */\n    tag_345:\n        /* \"#utility.yul\":7315:7318   */\n      0x00\n        /* \"#utility.yul\":7336:7403   */\n      tag_347\n        /* \"#utility.yul\":7400:7402   */\n      0x17\n        /* \"#utility.yul\":7395:7398   */\n      dup4\n        /* \"#utility.yul\":7336:7403   */\n      tag_324\n      jump\t// in\n    tag_347:\n        /* \"#utility.yul\":7329:7403   */\n      swap2\n      pop\n        /* \"#utility.yul\":7412:7505   */\n      tag_348\n        /* \"#utility.yul\":7501:7504   */\n      dup3\n        /* \"#utility.yul\":7412:7505   */\n      tag_349\n      jump\t// in\n    tag_348:\n        /* \"#utility.yul\":7530:7532   */\n      0x20\n        /* \"#utility.yul\":7525:7528   */\n      dup3\n        /* \"#utility.yul\":7521:7533   */\n      add\n        /* \"#utility.yul\":7514:7533   */\n      swap1\n      pop\n        /* \"#utility.yul\":7319:7539   */\n      swap2\n      swap1\n      pop\n      jump\t// out\n        /* \"#utility.yul\":7545:7911   */\n    tag_350:\n        /* \"#utility.yul\":7687:7690   */\n      0x00\n        /* \"#utility.yul\":7708:7775   */\n      tag_352\n        /* \"#utility.yul\":7772:7774   */\n      0x27\n        /* \"#utility.yul\":7767:7770   */\n      dup4\n        /* \"#utility.yul\":7708:7775   */\n      tag_324\n      jump\t// in\n    tag_352:\n        /* \"#utility.yul\":7701:7775   */\n      swap2\n      pop\n        /* \"#utility.yul\":7784:7877   */\n      tag_353\n        /* \"#utility.yul\":7873:7876   */\n      dup3\n        /* \"#utility.yul\":7784:7877   */\n      tag_354\n      jump\t// in\n    tag_353:\n        /* \"#utility.yul\":7902:7904   */\n      0x40\n        /* \"#utility.yul\":7897:7900   */\n      dup3\n        /* \"#utility.yul\":7893:7905   */\n      add\n        /* \"#utility.yul\":7886:7905   */\n      swap1\n      pop\n        /* \"#utility.yul\":7691:7911   */\n      swap2\n      swap1\n      pop\n      jump\t// out\n        /* \"#utility.yul\":7917:8283   */\n    tag_355:\n        /* \"#utility.yul\":8059:8062   */\n      0x00\n        /* \"#utility.yul\":8080:8147   */\n      tag_357\n        /* \"#utility.yul\":8144:8146   */\n      0x11\n        /* \"#utility.yul\":8139:8142   */\n      dup4\n        /* \"#utility.yul\":8080:8147   */\n      tag_324\n      jump\t// in\n    tag_357:\n        /* \"#utility.yul\":8073:8147   */\n      swap2\n      pop\n        /* \"#utility.yul\":8156:8249   */\n      tag_358\n        /* \"#utility.yul\":8245:8248   */\n      dup3\n        /* \"#utility.yul\":8156:8249   */\n      tag_359\n      jump\t// in\n    tag_358:\n        /* \"#utility.yul\":8274:8276   */\n      0x20\n        /* \"#utility.yul\":8269:8272   */\n      dup3\n        /* \"#utility.yul\":8265:8277   */\n      add\n        /* \"#utility.yul\":8258:8277   */\n      swap1\n      pop\n        /* \"#utility.yul\":8063:8283   */\n      swap2\n      swap1\n      pop\n      jump\t// out\n        /* \"#utility.yul\":8289:8655   */\n    tag_360:\n        /* \"#utility.yul\":8431:8434   */\n      0x00\n        /* \"#utility.yul\":8452:8519   */\n      tag_362\n        /* \"#utility.yul\":8516:8518   */\n      0x14\n        /* \"#utility.yul\":8511:8514   */\n      dup4\n        /* \"#utility.yul\":8452:8519   */\n      tag_324\n      jump\t// in\n    tag_362:\n        /* \"#utility.yul\":8445:8519   */\n      swap2\n      pop\n        /* \"#utility.yul\":8528:8621   */\n      tag_363\n        /* \"#utility.yul\":8617:8620   */\n      dup3\n        /* \"#utility.yul\":8528:8621   */\n      tag_364\n      jump\t// in\n    tag_363:\n        /* \"#utility.yul\":8646:8648   */\n      0x20\n        /* \"#utility.yul\":8641:8644   */\n      dup3\n        /* \"#utility.yul\":8637:8649   */\n      add\n        /* \"#utility.yul\":8630:8649   */\n      swap1\n      pop\n        /* \"#utility.yul\":8435:8655   */\n      swap2\n      swap1\n      pop\n      jump\t// out\n        /* \"#utility.yul\":8661:9027   */\n    tag_365:\n        /* \"#utility.yul\":8803:8806   */\n      0x00\n        /* \"#utility.yul\":8824:8891   */\n      tag_367\n        /* \"#utility.yul\":8888:8890   */\n      0x2a\n        /* \"#utility.yul\":8883:8886   */\n      dup4\n        /* \"#utility.yul\":8824:8891   */\n      tag_324\n      jump\t// in\n    tag_367:\n        /* \"#utility.yul\":8817:8891   */\n      swap2\n      pop\n        /* \"#utility.yul\":8900:8993   */\n      tag_368\n        /* \"#utility.yul\":8989:8992   */\n      dup3\n        /* \"#utility.yul\":8900:8993   */\n      tag_369\n      jump\t// in\n    tag_368:\n        /* \"#utility.yul\":9018:9020   */\n      0x40\n        /* \"#utility.yul\":9013:9016   */\n      dup3\n        /* \"#utility.yul\":9009:9021   */\n      add\n        /* \"#utility.yul\":9002:9021   */\n      swap1\n      pop\n        /* \"#utility.yul\":8807:9027   */\n      swap2\n      swap1\n      pop\n      jump\t// out\n        /* \"#utility.yul\":9033:9399   */\n    tag_370:\n        /* \"#utility.yul\":9175:9178   */\n      0x00\n        /* \"#utility.yul\":9196:9263   */\n      tag_372\n        /* \"#utility.yul\":9260:9262   */\n      0x12\n        /* \"#utility.yul\":9255:9258   */\n      dup4\n        /* \"#utility.yul\":9196:9263   */\n      tag_324\n      jump\t// in\n    tag_372:\n        /* \"#utility.yul\":9189:9263   */\n      swap2\n      pop\n        /* \"#utility.yul\":9272:9365   */\n      tag_373\n        /* \"#utility.yul\":9361:9364   */\n      dup3\n        /* \"#utility.yul\":9272:9365   */\n      tag_374\n      jump\t// in\n    tag_373:\n        /* \"#utility.yul\":9390:9392   */\n      0x20\n        /* \"#utility.yul\":9385:9388   */\n      dup3\n        /* \"#utility.yul\":9381:9393   */\n      add\n        /* \"#utility.yul\":9374:9393   */\n      swap1\n      pop\n        /* \"#utility.yul\":9179:9399   */\n      swap2\n      swap1\n      pop\n      jump\t// out\n        /* \"#utility.yul\":9405:9771   */\n    tag_375:\n        /* \"#utility.yul\":9547:9550   */\n      0x00\n        /* \"#utility.yul\":9568:9635   */\n      tag_377\n        /* \"#utility.yul\":9632:9634   */\n      0x0d\n        /* \"#utility.yul\":9627:9630   */\n      dup4\n        /* \"#utility.yul\":9568:9635   */\n      tag_324\n      jump\t// in\n    tag_377:\n        /* \"#utility.yul\":9561:9635   */\n      swap2\n      pop\n        /* \"#utility.yul\":9644:9737   */\n      tag_378\n        /* \"#utility.yul\":9733:9736   */\n      dup3\n        /* \"#utility.yul\":9644:9737   */\n      tag_379\n      jump\t// in\n    tag_378:\n        /* \"#utility.yul\":9762:9764   */\n      0x20\n        /* \"#utility.yul\":9757:9760   */\n      dup3\n        /* \"#utility.yul\":9753:9765   */\n      add\n        /* \"#utility.yul\":9746:9765   */\n      swap1\n      pop\n        /* \"#utility.yul\":9551:9771   */\n      swap2\n      swap1\n      pop\n      jump\t// out\n        /* \"#utility.yul\":9777:9895   */\n    tag_380:\n        /* \"#utility.yul\":9864:9888   */\n      tag_382\n        /* \"#utility.yul\":9882:9887   */\n      dup2\n        /* \"#utility.yul\":9864:9888   */\n      tag_383\n      jump\t// in\n    tag_382:\n        /* \"#utility.yul\":9859:9862   */\n      dup3\n        /* \"#utility.yul\":9852:9889   */\n      mstore\n        /* \"#utility.yul\":9842:9895   */\n      pop\n      pop\n      jump\t// out\n        /* \"#utility.yul\":9901:10058   */\n    tag_384:\n        /* \"#utility.yul\":10006:10051   */\n      tag_386\n        /* \"#utility.yul\":10026:10050   */\n      tag_387\n        /* \"#utility.yul\":10044:10049   */\n      dup3\n        /* \"#utility.yul\":10026:10050   */\n      tag_383\n      jump\t// in\n    tag_387:\n        /* \"#utility.yul\":10006:10051   */\n      tag_388\n      jump\t// in\n    tag_386:\n        /* \"#utility.yul\":10001:10004   */\n      dup3\n        /* \"#utility.yul\":9994:10052   */\n      mstore\n        /* \"#utility.yul\":9984:10058   */\n      pop\n      pop\n      jump\t// out\n        /* \"#utility.yul\":10064:10461   */\n    tag_213:\n        /* \"#utility.yul\":10204:10207   */\n      0x00\n        /* \"#utility.yul\":10219:10294   */\n      tag_390\n        /* \"#utility.yul\":10290:10293   */\n      dup3\n        /* \"#utility.yul\":10281:10287   */\n      dup6\n        /* \"#utility.yul\":10219:10294   */\n      tag_290\n      jump\t// in\n    tag_390:\n        /* \"#utility.yul\":10319:10321   */\n      0x14\n        /* \"#utility.yul\":10314:10317   */\n      dup3\n        /* \"#utility.yul\":10310:10322   */\n      add\n        /* \"#utility.yul\":10303:10322   */\n      swap2\n      pop\n        /* \"#utility.yul\":10332:10407   */\n      tag_391\n        /* \"#utility.yul\":10403:10406   */\n      dup3\n        /* \"#utility.yul\":10394:10400   */\n      dup5\n        /* \"#utility.yul\":10332:10407   */\n      tag_384\n      jump\t// in\n    tag_391:\n        /* \"#utility.yul\":10432:10434   */\n      0x20\n        /* \"#utility.yul\":10427:10430   */\n      dup3\n        /* \"#utility.yul\":10423:10435   */\n      add\n        /* \"#utility.yul\":10416:10435   */\n      swap2\n      pop\n        /* \"#utility.yul\":10452:10455   */\n      dup2\n        /* \"#utility.yul\":10445:10455   */\n      swap1\n      pop\n        /* \"#utility.yul\":10208:10461   */\n      swap4\n      swap3\n      pop\n      pop\n      pop\n      jump\t// out\n        /* \"#utility.yul\":10467:10742   */\n    tag_118:\n        /* \"#utility.yul\":10599:10602   */\n      0x00\n        /* \"#utility.yul\":10621:10716   */\n      tag_393\n        /* \"#utility.yul\":10712:10715   */\n      dup3\n        /* \"#utility.yul\":10703:10709   */\n      dup5\n        /* \"#utility.yul\":10621:10716   */\n      tag_329\n      jump\t// in\n    tag_393:\n        /* \"#utility.yul\":10614:10716   */\n      swap2\n      pop\n        /* \"#utility.yul\":10733:10736   */\n      dup2\n        /* \"#utility.yul\":10726:10736   */\n      swap1\n      pop\n        /* \"#utility.yul\":10603:10742   */\n      swap3\n      swap2\n      pop\n      pop\n      jump\t// out\n        /* \"#utility.yul\":10748:10970   */\n    tag_66:\n        /* \"#utility.yul\":10841:10845   */\n      0x00\n        /* \"#utility.yul\":10879:10881   */\n      0x20\n        /* \"#utility.yul\":10868:10877   */\n      dup3\n        /* \"#utility.yul\":10864:10882   */\n      add\n        /* \"#utility.yul\":10856:10882   */\n      swap1\n      pop\n        /* \"#utility.yul\":10892:10963   */\n      tag_395\n        /* \"#utility.yul\":10960:10961   */\n      0x00\n        /* \"#utility.yul\":10949:10958   */\n      dup4\n        /* \"#utility.yul\":10945:10962   */\n      add\n        /* \"#utility.yul\":10936:10942   */\n      dup5\n        /* \"#utility.yul\":10892:10963   */\n      tag_286\n      jump\t// in\n    tag_395:\n        /* \"#utility.yul\":10846:10970   */\n      swap3\n      swap2\n      pop\n      pop\n      jump\t// out\n        /* \"#utility.yul\":10976:11620   */\n    tag_38:\n        /* \"#utility.yul\":11173:11177   */\n      0x00\n        /* \"#utility.yul\":11211:11214   */\n      0x80\n        /* \"#utility.yul\":11200:11209   */\n      dup3\n        /* \"#utility.yul\":11196:11215   */\n      add\n        /* \"#utility.yul\":11188:11215   */\n      swap1\n      pop\n        /* \"#utility.yul\":11225:11296   */\n      tag_397\n        /* \"#utility.yul\":11293:11294   */\n      0x00\n        /* \"#utility.yul\":11282:11291   */\n      dup4\n        /* \"#utility.yul\":11278:11295   */\n      add\n        /* \"#utility.yul\":11269:11275   */\n      dup8\n        /* \"#utility.yul\":11225:11296   */\n      tag_286\n      jump\t// in\n    tag_397:\n        /* \"#utility.yul\":11306:11378   */\n      tag_398\n        /* \"#utility.yul\":11374:11376   */\n      0x20\n        /* \"#utility.yul\":11363:11372   */\n      dup4\n        /* \"#utility.yul\":11359:11377   */\n      add\n        /* \"#utility.yul\":11350:11356   */\n      dup7\n        /* \"#utility.yul\":11306:11378   */\n      tag_380\n      jump\t// in\n    tag_398:\n        /* \"#utility.yul\":11388:11460   */\n      tag_399\n        /* \"#utility.yul\":11456:11458   */\n      0x40\n        /* \"#utility.yul\":11445:11454   */\n      dup4\n        /* \"#utility.yul\":11441:11459   */\n      add\n        /* \"#utility.yul\":11432:11438   */\n      dup6\n        /* \"#utility.yul\":11388:11460   */\n      tag_286\n      jump\t// in\n    tag_399:\n        /* \"#utility.yul\":11507:11516   */\n      dup2\n        /* \"#utility.yul\":11501:11505   */\n      dup2\n        /* \"#utility.yul\":11497:11517   */\n      sub\n        /* \"#utility.yul\":11492:11494   */\n      0x60\n        /* \"#utility.yul\":11481:11490   */\n      dup4\n        /* \"#utility.yul\":11477:11495   */\n      add\n        /* \"#utility.yul\":11470:11518   */\n      mstore\n        /* \"#utility.yul\":11535:11613   */\n      tag_400\n        /* \"#utility.yul\":11608:11612   */\n      dup2\n        /* \"#utility.yul\":11599:11605   */\n      dup5\n        /* \"#utility.yul\":11535:11613   */\n      tag_319\n      jump\t// in\n    tag_400:\n        /* \"#utility.yul\":11527:11613   */\n      swap1\n      pop\n        /* \"#utility.yul\":11178:11620   */\n      swap6\n      swap5\n      pop\n      pop\n      pop\n      pop\n      pop\n      jump\t// out\n        /* \"#utility.yul\":11626:11999   */\n    tag_61:\n        /* \"#utility.yul\":11769:11773   */\n      0x00\n        /* \"#utility.yul\":11807:11809   */\n      0x20\n        /* \"#utility.yul\":11796:11805   */\n      dup3\n        /* \"#utility.yul\":11792:11810   */\n      add\n        /* \"#utility.yul\":11784:11810   */\n      swap1\n      pop\n        /* \"#utility.yul\":11856:11865   */\n      dup2\n        /* \"#utility.yul\":11850:11854   */\n      dup2\n        /* \"#utility.yul\":11846:11866   */\n      sub\n        /* \"#utility.yul\":11842:11843   */\n      0x00\n        /* \"#utility.yul\":11831:11840   */\n      dup4\n        /* \"#utility.yul\":11827:11844   */\n      add\n        /* \"#utility.yul\":11820:11867   */\n      mstore\n        /* \"#utility.yul\":11884:11992   */\n      tag_402\n        /* \"#utility.yul\":11987:11991   */\n      dup2\n        /* \"#utility.yul\":11978:11984   */\n      dup5\n        /* \"#utility.yul\":11884:11992   */\n      tag_295\n      jump\t// in\n    tag_402:\n        /* \"#utility.yul\":11876:11992   */\n      swap1\n      pop\n        /* \"#utility.yul\":11774:11999   */\n      swap3\n      swap2\n      pop\n      pop\n      jump\t// out\n        /* \"#utility.yul\":12005:12215   */\n    tag_32:\n        /* \"#utility.yul\":12092:12096   */\n      0x00\n        /* \"#utility.yul\":12130:12132   */\n      0x20\n        /* \"#utility.yul\":12119:12128   */\n      dup3\n        /* \"#utility.yul\":12115:12133   */\n      add\n        /* \"#utility.yul\":12107:12133   */\n      swap1\n      pop\n        /* \"#utility.yul\":12143:12208   */\n      tag_404\n        /* \"#utility.yul\":12205:12206   */\n      0x00\n        /* \"#utility.yul\":12194:12203   */\n      dup4\n        /* \"#utility.yul\":12190:12207   */\n      add\n        /* \"#utility.yul\":12181:12187   */\n      dup5\n        /* \"#utility.yul\":12143:12208   */\n      tag_309\n      jump\t// in\n    tag_404:\n        /* \"#utility.yul\":12097:12215   */\n      swap3\n      swap2\n      pop\n      pop\n      jump\t// out\n        /* \"#utility.yul\":12221:12443   */\n    tag_47:\n        /* \"#utility.yul\":12314:12318   */\n      0x00\n        /* \"#utility.yul\":12352:12354   */\n      0x20\n        /* \"#utility.yul\":12341:12350   */\n      dup3\n        /* \"#utility.yul\":12337:12355   */\n      add\n        /* \"#utility.yul\":12329:12355   */\n      swap1\n      pop\n        /* \"#utility.yul\":12365:12436   */\n      tag_406\n        /* \"#utility.yul\":12433:12434   */\n      0x00\n        /* \"#utility.yul\":12422:12431   */\n      dup4\n        /* \"#utility.yul\":12418:12435   */\n      add\n        /* \"#utility.yul\":12409:12415   */\n      dup5\n        /* \"#utility.yul\":12365:12436   */\n      tag_316\n      jump\t// in\n    tag_406:\n        /* \"#utility.yul\":12319:12443   */\n      swap3\n      swap2\n      pop\n      pop\n      jump\t// out\n        /* \"#utility.yul\":12449:12762   */\n    tag_90:\n        /* \"#utility.yul\":12562:12566   */\n      0x00\n        /* \"#utility.yul\":12600:12602   */\n      0x20\n        /* \"#utility.yul\":12589:12598   */\n      dup3\n        /* \"#utility.yul\":12585:12603   */\n      add\n        /* \"#utility.yul\":12577:12603   */\n      swap1\n      pop\n        /* \"#utility.yul\":12649:12658   */\n      dup2\n        /* \"#utility.yul\":12643:12647   */\n      dup2\n        /* \"#utility.yul\":12639:12659   */\n      sub\n        /* \"#utility.yul\":12635:12636   */\n      0x00\n        /* \"#utility.yul\":12624:12633   */\n      dup4\n        /* \"#utility.yul\":12620:12637   */\n      add\n        /* \"#utility.yul\":12613:12660   */\n      mstore\n        /* \"#utility.yul\":12677:12755   */\n      tag_408\n        /* \"#utility.yul\":12750:12754   */\n      dup2\n        /* \"#utility.yul\":12741:12747   */\n      dup5\n        /* \"#utility.yul\":12677:12755   */\n      tag_319\n      jump\t// in\n    tag_408:\n        /* \"#utility.yul\":12669:12755   */\n      swap1\n      pop\n        /* \"#utility.yul\":12567:12762   */\n      swap3\n      swap2\n      pop\n      pop\n      jump\t// out\n        /* \"#utility.yul\":12768:13191   */\n    tag_190:\n        /* \"#utility.yul\":12909:12913   */\n      0x00\n        /* \"#utility.yul\":12947:12949   */\n      0x40\n        /* \"#utility.yul\":12936:12945   */\n      dup3\n        /* \"#utility.yul\":12932:12950   */\n      add\n        /* \"#utility.yul\":12924:12950   */\n      swap1\n      pop\n        /* \"#utility.yul\":12996:13005   */\n      dup2\n        /* \"#utility.yul\":12990:12994   */\n      dup2\n        /* \"#utility.yul\":12986:13006   */\n      sub\n        /* \"#utility.yul\":12982:12983   */\n      0x00\n        /* \"#utility.yul\":12971:12980   */\n      dup4\n        /* \"#utility.yul\":12967:12984   */\n      add\n        /* \"#utility.yul\":12960:13007   */\n      mstore\n        /* \"#utility.yul\":13024:13102   */\n      tag_410\n        /* \"#utility.yul\":13097:13101   */\n      dup2\n        /* \"#utility.yul\":13088:13094   */\n      dup6\n        /* \"#utility.yul\":13024:13102   */\n      tag_319\n      jump\t// in\n    tag_410:\n        /* \"#utility.yul\":13016:13102   */\n      swap1\n      pop\n        /* \"#utility.yul\":13112:13184   */\n      tag_411\n        /* \"#utility.yul\":13180:13182   */\n      0x20\n        /* \"#utility.yul\":13169:13178   */\n      dup4\n        /* \"#utility.yul\":13165:13183   */\n      add\n        /* \"#utility.yul\":13156:13162   */\n      dup5\n        /* \"#utility.yul\":13112:13184   */\n      tag_380\n      jump\t// in\n    tag_411:\n        /* \"#utility.yul\":12914:13191   */\n      swap4\n      swap3\n      pop\n      pop\n      pop\n      jump\t// out\n        /* \"#utility.yul\":13197:13616   */\n    tag_151:\n        /* \"#utility.yul\":13363:13367   */\n      0x00\n        /* \"#utility.yul\":13401:13403   */\n      0x20\n        /* \"#utility.yul\":13390:13399   */\n      dup3\n        /* \"#utility.yul\":13386:13404   */\n      add\n        /* \"#utility.yul\":13378:13404   */\n      swap1\n      pop\n        /* \"#utility.yul\":13450:13459   */\n      dup2\n        /* \"#utility.yul\":13444:13448   */\n      dup2\n        /* \"#utility.yul\":13440:13460   */\n      sub\n        /* \"#utility.yul\":13436:13437   */\n      0x00\n        /* \"#utility.yul\":13425:13434   */\n      dup4\n        /* \"#utility.yul\":13421:13438   */\n      add\n        /* \"#utility.yul\":13414:13461   */\n      mstore\n        /* \"#utility.yul\":13478:13609   */\n      tag_413\n        /* \"#utility.yul\":13604:13608   */\n      dup2\n        /* \"#utility.yul\":13478:13609   */\n      tag_335\n      jump\t// in\n    tag_413:\n        /* \"#utility.yul\":13470:13609   */\n      swap1\n      pop\n        /* \"#utility.yul\":13368:13616   */\n      swap2\n      swap1\n      pop\n      jump\t// out\n        /* \"#utility.yul\":13622:14041   */\n    tag_194:\n        /* \"#utility.yul\":13788:13792   */\n      0x00\n        /* \"#utility.yul\":13826:13828   */\n      0x20\n        /* \"#utility.yul\":13815:13824   */\n      dup3\n        /* \"#utility.yul\":13811:13829   */\n      add\n        /* \"#utility.yul\":13803:13829   */\n      swap1\n      pop\n        /* \"#utility.yul\":13875:13884   */\n      dup2\n        /* \"#utility.yul\":13869:13873   */\n      dup2\n        /* \"#utility.yul\":13865:13885   */\n      sub\n        /* \"#utility.yul\":13861:13862   */\n      0x00\n        /* \"#utility.yul\":13850:13859   */\n      dup4\n        /* \"#utility.yul\":13846:13863   */\n      add\n        /* \"#utility.yul\":13839:13886   */\n      mstore\n        /* \"#utility.yul\":13903:14034   */\n      tag_415\n        /* \"#utility.yul\":14029:14033   */\n      dup2\n        /* \"#utility.yul\":13903:14034   */\n      tag_340\n      jump\t// in\n    tag_415:\n        /* \"#utility.yul\":13895:14034   */\n      swap1\n      pop\n        /* \"#utility.yul\":13793:14041   */\n      swap2\n      swap1\n      pop\n      jump\t// out\n        /* \"#utility.yul\":14047:14466   */\n    tag_130:\n        /* \"#utility.yul\":14213:14217   */\n      0x00\n        /* \"#utility.yul\":14251:14253   */\n      0x20\n        /* \"#utility.yul\":14240:14249   */\n      dup3\n        /* \"#utility.yul\":14236:14254   */\n      add\n        /* \"#utility.yul\":14228:14254   */\n      swap1\n      pop\n        /* \"#utility.yul\":14300:14309   */\n      dup2\n        /* \"#utility.yul\":14294:14298   */\n      dup2\n        /* \"#utility.yul\":14290:14310   */\n      sub\n        /* \"#utility.yul\":14286:14287   */\n      0x00\n        /* \"#utility.yul\":14275:14284   */\n      dup4\n        /* \"#utility.yul\":14271:14288   */\n      add\n        /* \"#utility.yul\":14264:14311   */\n      mstore\n        /* \"#utility.yul\":14328:14459   */\n      tag_417\n        /* \"#utility.yul\":14454:14458   */\n      dup2\n        /* \"#utility.yul\":14328:14459   */\n      tag_345\n      jump\t// in\n    tag_417:\n        /* \"#utility.yul\":14320:14459   */\n      swap1\n      pop\n        /* \"#utility.yul\":14218:14466   */\n      swap2\n      swap1\n      pop\n      jump\t// out\n        /* \"#utility.yul\":14472:14891   */\n    tag_148:\n        /* \"#utility.yul\":14638:14642   */\n      0x00\n        /* \"#utility.yul\":14676:14678   */\n      0x20\n        /* \"#utility.yul\":14665:14674   */\n      dup3\n        /* \"#utility.yul\":14661:14679   */\n      add\n        /* \"#utility.yul\":14653:14679   */\n      swap1\n      pop\n        /* \"#utility.yul\":14725:14734   */\n      dup2\n        /* \"#utility.yul\":14719:14723   */\n      dup2\n        /* \"#utility.yul\":14715:14735   */\n      sub\n        /* \"#utility.yul\":14711:14712   */\n      0x00\n        /* \"#utility.yul\":14700:14709   */\n      dup4\n        /* \"#utility.yul\":14696:14713   */\n      add\n        /* \"#utility.yul\":14689:14736   */\n      mstore\n        /* \"#utility.yul\":14753:14884   */\n      tag_419\n        /* \"#utility.yul\":14879:14883   */\n      dup2\n        /* \"#utility.yul\":14753:14884   */\n      tag_350\n      jump\t// in\n    tag_419:\n        /* \"#utility.yul\":14745:14884   */\n      swap1\n      pop\n        /* \"#utility.yul\":14643:14891   */\n      swap2\n      swap1\n      pop\n      jump\t// out\n        /* \"#utility.yul\":14897:15316   */\n    tag_110:\n        /* \"#utility.yul\":15063:15067   */\n      0x00\n        /* \"#utility.yul\":15101:15103   */\n      0x20\n        /* \"#utility.yul\":15090:15099   */\n      dup3\n        /* \"#utility.yul\":15086:15104   */\n      add\n        /* \"#utility.yul\":15078:15104   */\n      swap1\n      pop\n        /* \"#utility.yul\":15150:15159   */\n      dup2\n        /* \"#utility.yul\":15144:15148   */\n      dup2\n        /* \"#utility.yul\":15140:15160   */\n      sub\n        /* \"#utility.yul\":15136:15137   */\n      0x00\n        /* \"#utility.yul\":15125:15134   */\n      dup4\n        /* \"#utility.yul\":15121:15138   */\n      add\n        /* \"#utility.yul\":15114:15161   */\n      mstore\n        /* \"#utility.yul\":15178:15309   */\n      tag_421\n        /* \"#utility.yul\":15304:15308   */\n      dup2\n        /* \"#utility.yul\":15178:15309   */\n      tag_355\n      jump\t// in\n    tag_421:\n        /* \"#utility.yul\":15170:15309   */\n      swap1\n      pop\n        /* \"#utility.yul\":15068:15316   */\n      swap2\n      swap1\n      pop\n      jump\t// out\n        /* \"#utility.yul\":15322:15741   */\n    tag_163:\n        /* \"#utility.yul\":15488:15492   */\n      0x00\n        /* \"#utility.yul\":15526:15528   */\n      0x20\n        /* \"#utility.yul\":15515:15524   */\n      dup3\n        /* \"#utility.yul\":15511:15529   */\n      add\n        /* \"#utility.yul\":15503:15529   */\n      swap1\n      pop\n        /* \"#utility.yul\":15575:15584   */\n      dup2\n        /* \"#utility.yul\":15569:15573   */\n      dup2\n        /* \"#utility.yul\":15565:15585   */\n      sub\n        /* \"#utility.yul\":15561:15562   */\n      0x00\n        /* \"#utility.yul\":15550:15559   */\n      dup4\n        /* \"#utility.yul\":15546:15563   */\n      add\n        /* \"#utility.yul\":15539:15586   */\n      mstore\n        /* \"#utility.yul\":15603:15734   */\n      tag_423\n        /* \"#utility.yul\":15729:15733   */\n      dup2\n        /* \"#utility.yul\":15603:15734   */\n      tag_360\n      jump\t// in\n    tag_423:\n        /* \"#utility.yul\":15595:15734   */\n      swap1\n      pop\n        /* \"#utility.yul\":15493:15741   */\n      swap2\n      swap1\n      pop\n      jump\t// out\n        /* \"#utility.yul\":15747:16166   */\n    tag_104:\n        /* \"#utility.yul\":15913:15917   */\n      0x00\n        /* \"#utility.yul\":15951:15953   */\n      0x20\n        /* \"#utility.yul\":15940:15949   */\n      dup3\n        /* \"#utility.yul\":15936:15954   */\n      add\n        /* \"#utility.yul\":15928:15954   */\n      swap1\n      pop\n        /* \"#utility.yul\":16000:16009   */\n      dup2\n        /* \"#utility.yul\":15994:15998   */\n      dup2\n        /* \"#utility.yul\":15990:16010   */\n      sub\n        /* \"#utility.yul\":15986:15987   */\n      0x00\n        /* \"#utility.yul\":15975:15984   */\n      dup4\n        /* \"#utility.yul\":15971:15988   */\n      add\n        /* \"#utility.yul\":15964:16011   */\n      mstore\n        /* \"#utility.yul\":16028:16159   */\n      tag_425\n        /* \"#utility.yul\":16154:16158   */\n      dup2\n        /* \"#utility.yul\":16028:16159   */\n      tag_365\n      jump\t// in\n    tag_425:\n        /* \"#utility.yul\":16020:16159   */\n      swap1\n      pop\n        /* \"#utility.yul\":15918:16166   */\n      swap2\n      swap1\n      pop\n      jump\t// out\n        /* \"#utility.yul\":16172:16591   */\n    tag_134:\n        /* \"#utility.yul\":16338:16342   */\n      0x00\n        /* \"#utility.yul\":16376:16378   */\n      0x20\n        /* \"#utility.yul\":16365:16374   */\n      dup3\n        /* \"#utility.yul\":16361:16379   */\n      add\n        /* \"#utility.yul\":16353:16379   */\n      swap1\n      pop\n        /* \"#utility.yul\":16425:16434   */\n      dup2\n        /* \"#utility.yul\":16419:16423   */\n      dup2\n        /* \"#utility.yul\":16415:16435   */\n      sub\n        /* \"#utility.yul\":16411:16412   */\n      0x00\n        /* \"#utility.yul\":16400:16409   */\n      dup4\n        /* \"#utility.yul\":16396:16413   */\n      add\n        /* \"#utility.yul\":16389:16436   */\n      mstore\n        /* \"#utility.yul\":16453:16584   */\n      tag_427\n        /* \"#utility.yul\":16579:16583   */\n      dup2\n        /* \"#utility.yul\":16453:16584   */\n      tag_370\n      jump\t// in\n    tag_427:\n        /* \"#utility.yul\":16445:16584   */\n      swap1\n      pop\n        /* \"#utility.yul\":16343:16591   */\n      swap2\n      swap1\n      pop\n      jump\t// out\n        /* \"#utility.yul\":16597:17016   */\n    tag_183:\n        /* \"#utility.yul\":16763:16767   */\n      0x00\n        /* \"#utility.yul\":16801:16803   */\n      0x20\n        /* \"#utility.yul\":16790:16799   */\n      dup3\n        /* \"#utility.yul\":16786:16804   */\n      add\n        /* \"#utility.yul\":16778:16804   */\n      swap1\n      pop\n        /* \"#utility.yul\":16850:16859   */\n      dup2\n        /* \"#utility.yul\":16844:16848   */\n      dup2\n        /* \"#utility.yul\":16840:16860   */\n      sub\n        /* \"#utility.yul\":16836:16837   */\n      0x00\n        /* \"#utility.yul\":16825:16834   */\n      dup4\n        /* \"#utility.yul\":16821:16838   */\n      add\n        /* \"#utility.yul\":16814:16861   */\n      mstore\n        /* \"#utility.yul\":16878:17009   */\n      tag_429\n        /* \"#utility.yul\":17004:17008   */\n      dup2\n        /* \"#utility.yul\":16878:17009   */\n      tag_375\n      jump\t// in\n    tag_429:\n        /* \"#utility.yul\":16870:17009   */\n      swap1\n      pop\n        /* \"#utility.yul\":16768:17016   */\n      swap2\n      swap1\n      pop\n      jump\t// out\n        /* \"#utility.yul\":17022:17244   */\n    tag_153:\n        /* \"#utility.yul\":17115:17119   */\n      0x00\n        /* \"#utility.yul\":17153:17155   */\n      0x20\n        /* \"#utility.yul\":17142:17151   */\n      dup3\n        /* \"#utility.yul\":17138:17156   */\n      add\n        /* \"#utility.yul\":17130:17156   */\n      swap1\n      pop\n        /* \"#utility.yul\":17166:17237   */\n      tag_431\n        /* \"#utility.yul\":17234:17235   */\n      0x00\n        /* \"#utility.yul\":17223:17232   */\n      dup4\n        /* \"#utility.yul\":17219:17236   */\n      add\n        /* \"#utility.yul\":17210:17216   */\n      dup5\n        /* \"#utility.yul\":17166:17237   */\n      tag_380\n      jump\t// in\n    tag_431:\n        /* \"#utility.yul\":17120:17244   */\n      swap3\n      swap2\n      pop\n      pop\n      jump\t// out\n        /* \"#utility.yul\":17250:17803   */\n    tag_71:\n        /* \"#utility.yul\":17427:17431   */\n      0x00\n        /* \"#utility.yul\":17465:17468   */\n      0x80\n        /* \"#utility.yul\":17454:17463   */\n      dup3\n        /* \"#utility.yul\":17450:17469   */\n      add\n        /* \"#utility.yul\":17442:17469   */\n      swap1\n      pop\n        /* \"#utility.yul\":17479:17550   */\n      tag_433\n        /* \"#utility.yul\":17547:17548   */\n      0x00\n        /* \"#utility.yul\":17536:17545   */\n      dup4\n        /* \"#utility.yul\":17532:17549   */\n      add\n        /* \"#utility.yul\":17523:17529   */\n      dup8\n        /* \"#utility.yul\":17479:17550   */\n      tag_380\n      jump\t// in\n    tag_433:\n        /* \"#utility.yul\":17560:17632   */\n      tag_434\n        /* \"#utility.yul\":17628:17630   */\n      0x20\n        /* \"#utility.yul\":17617:17626   */\n      dup4\n        /* \"#utility.yul\":17613:17631   */\n      add\n        /* \"#utility.yul\":17604:17610   */\n      dup7\n        /* \"#utility.yul\":17560:17632   */\n      tag_380\n      jump\t// in\n    tag_434:\n        /* \"#utility.yul\":17642:17714   */\n      tag_435\n        /* \"#utility.yul\":17710:17712   */\n      0x40\n        /* \"#utility.yul\":17699:17708   */\n      dup4\n        /* \"#utility.yul\":17695:17713   */\n      add\n        /* \"#utility.yul\":17686:17692   */\n      dup6\n        /* \"#utility.yul\":17642:17714   */\n      tag_380\n      jump\t// in\n    tag_435:\n        /* \"#utility.yul\":17724:17796   */\n      tag_436\n        /* \"#utility.yul\":17792:17794   */\n      0x60\n        /* \"#utility.yul\":17781:17790   */\n      dup4\n        /* \"#utility.yul\":17777:17795   */\n      add\n        /* \"#utility.yul\":17768:17774   */\n      dup5\n        /* \"#utility.yul\":17724:17796   */\n      tag_380\n      jump\t// in\n    tag_436:\n        /* \"#utility.yul\":17432:17803   */\n      swap6\n      swap5\n      pop\n      pop\n      pop\n      pop\n      pop\n      jump\t// out\n        /* \"#utility.yul\":17809:17938   */\n    tag_234:\n        /* \"#utility.yul\":17843:17849   */\n      0x00\n        /* \"#utility.yul\":17870:17890   */\n      tag_438\n      tag_439\n      jump\t// in\n    tag_438:\n        /* \"#utility.yul\":17860:17890   */\n      swap1\n      pop\n        /* \"#utility.yul\":17899:17932   */\n      tag_440\n        /* \"#utility.yul\":17927:17931   */\n      dup3\n        /* \"#utility.yul\":17919:17925   */\n      dup3\n        /* \"#utility.yul\":17899:17932   */\n      tag_441\n      jump\t// in\n    tag_440:\n        /* \"#utility.yul\":17850:17938   */\n      swap2\n      swap1\n      pop\n      jump\t// out\n        /* \"#utility.yul\":17944:18019   */\n    tag_439:\n        /* \"#utility.yul\":17977:17983   */\n      0x00\n        /* \"#utility.yul\":18010:18012   */\n      0x40\n        /* \"#utility.yul\":18004:18013   */\n      mload\n        /* \"#utility.yul\":17994:18013   */\n      swap1\n      pop\n        /* \"#utility.yul\":17984:18019   */\n      swap1\n      jump\t// out\n        /* \"#utility.yul\":18025:18333   */\n    tag_233:\n        /* \"#utility.yul\":18087:18091   */\n      0x00\n        /* \"#utility.yul\":18177:18195   */\n      0xffffffffffffffff\n        /* \"#utility.yul\":18169:18175   */\n      dup3\n        /* \"#utility.yul\":18166:18196   */\n      gt\n        /* \"#utility.yul\":18163:18165   */\n      iszero\n      tag_444\n      jumpi\n        /* \"#utility.yul\":18199:18217   */\n      tag_445\n      tag_446\n      jump\t// in\n    tag_445:\n        /* \"#utility.yul\":18163:18165   */\n    tag_444:\n        /* \"#utility.yul\":18237:18266   */\n      tag_447\n        /* \"#utility.yul\":18259:18265   */\n      dup3\n        /* \"#utility.yul\":18237:18266   */\n      tag_328\n      jump\t// in\n    tag_447:\n        /* \"#utility.yul\":18229:18266   */\n      swap1\n      pop\n        /* \"#utility.yul\":18321:18325   */\n      0x20\n        /* \"#utility.yul\":18315:18319   */\n      dup2\n        /* \"#utility.yul\":18311:18326   */\n      add\n        /* \"#utility.yul\":18303:18326   */\n      swap1\n      pop\n        /* \"#utility.yul\":18092:18333   */\n      swap2\n      swap1\n      pop\n      jump\t// out\n        /* \"#utility.yul\":18339:18471   */\n    tag_302:\n        /* \"#utility.yul\":18406:18410   */\n      0x00\n        /* \"#utility.yul\":18429:18432   */\n      dup2\n        /* \"#utility.yul\":18421:18432   */\n      swap1\n      pop\n        /* \"#utility.yul\":18459:18463   */\n      0x20\n        /* \"#utility.yul\":18454:18457   */\n      dup3\n        /* \"#utility.yul\":18450:18464   */\n      add\n        /* \"#utility.yul\":18442:18464   */\n      swap1\n      pop\n        /* \"#utility.yul\":18411:18471   */\n      swap2\n      swap1\n      pop\n      jump\t// out\n        /* \"#utility.yul\":18477:18591   */\n    tag_298:\n        /* \"#utility.yul\":18544:18550   */\n      0x00\n        /* \"#utility.yul\":18578:18583   */\n      dup2\n        /* \"#utility.yul\":18572:18584   */\n      mload\n        /* \"#utility.yul\":18562:18584   */\n      swap1\n      pop\n        /* \"#utility.yul\":18551:18591   */\n      swap2\n      swap1\n      pop\n      jump\t// out\n        /* \"#utility.yul\":18597:18696   */\n    tag_322:\n        /* \"#utility.yul\":18649:18655   */\n      0x00\n        /* \"#utility.yul\":18683:18688   */\n      dup2\n        /* \"#utility.yul\":18677:18689   */\n      mload\n        /* \"#utility.yul\":18667:18689   */\n      swap1\n      pop\n        /* \"#utility.yul\":18656:18696   */\n      swap2\n      swap1\n      pop\n      jump\t// out\n        /* \"#utility.yul\":18702:18815   */\n    tag_308:\n        /* \"#utility.yul\":18772:18776   */\n      0x00\n        /* \"#utility.yul\":18804:18808   */\n      0x20\n        /* \"#utility.yul\":18799:18802   */\n      dup3\n        /* \"#utility.yul\":18795:18809   */\n      add\n        /* \"#utility.yul\":18787:18809   */\n      swap1\n      pop\n        /* \"#utility.yul\":18777:18815   */\n      swap2\n      swap1\n      pop\n      jump\t// out\n        /* \"#utility.yul\":18821:19005   */\n    tag_300:\n        /* \"#utility.yul\":18920:18931   */\n      0x00\n        /* \"#utility.yul\":18954:18960   */\n      dup3\n        /* \"#utility.yul\":18949:18952   */\n      dup3\n        /* \"#utility.yul\":18942:18961   */\n      mstore\n        /* \"#utility.yul\":18994:18998   */\n      0x20\n        /* \"#utility.yul\":18989:18992   */\n      dup3\n        /* \"#utility.yul\":18985:18999   */\n      add\n        /* \"#utility.yul\":18970:18999   */\n      swap1\n      pop\n        /* \"#utility.yul\":18932:19005   */\n      swap3\n      swap2\n      pop\n      pop\n      jump\t// out\n        /* \"#utility.yul\":19011:19180   */\n    tag_324:\n        /* \"#utility.yul\":19095:19106   */\n      0x00\n        /* \"#utility.yul\":19129:19135   */\n      dup3\n        /* \"#utility.yul\":19124:19127   */\n      dup3\n        /* \"#utility.yul\":19117:19136   */\n      mstore\n        /* \"#utility.yul\":19169:19173   */\n      0x20\n        /* \"#utility.yul\":19164:19167   */\n      dup3\n        /* \"#utility.yul\":19160:19174   */\n      add\n        /* \"#utility.yul\":19145:19174   */\n      swap1\n      pop\n        /* \"#utility.yul\":19107:19180   */\n      swap3\n      swap2\n      pop\n      pop\n      jump\t// out\n        /* \"#utility.yul\":19186:19334   */\n    tag_333:\n        /* \"#utility.yul\":19288:19299   */\n      0x00\n        /* \"#utility.yul\":19325:19328   */\n      dup2\n        /* \"#utility.yul\":19310:19328   */\n      swap1\n      pop\n        /* \"#utility.yul\":19300:19334   */\n      swap3\n      swap2\n      pop\n      pop\n      jump\t// out\n        /* \"#utility.yul\":19340:19645   */\n    tag_170:\n        /* \"#utility.yul\":19380:19383   */\n      0x00\n        /* \"#utility.yul\":19399:19419   */\n      tag_456\n        /* \"#utility.yul\":19417:19418   */\n      dup3\n        /* \"#utility.yul\":19399:19419   */\n      tag_383\n      jump\t// in\n    tag_456:\n        /* \"#utility.yul\":19394:19419   */\n      swap2\n      pop\n        /* \"#utility.yul\":19433:19453   */\n      tag_457\n        /* \"#utility.yul\":19451:19452   */\n      dup4\n        /* \"#utility.yul\":19433:19453   */\n      tag_383\n      jump\t// in\n    tag_457:\n        /* \"#utility.yul\":19428:19453   */\n      swap3\n      pop\n        /* \"#utility.yul\":19587:19588   */\n      dup3\n        /* \"#utility.yul\":19519:19585   */\n      0xffffffffffffffffffffffffffffffffffffffffffffffffffffffffffffffff\n        /* \"#utility.yul\":19515:19589   */\n      sub\n        /* \"#utility.yul\":19512:19513   */\n      dup3\n        /* \"#utility.yul\":19509:19590   */\n      gt\n        /* \"#utility.yul\":19506:19508   */\n      iszero\n      tag_458\n      jumpi\n        /* \"#utility.yul\":19593:19611   */\n      tag_459\n      tag_460\n      jump\t// in\n    tag_459:\n        /* \"#utility.yul\":19506:19508   */\n    tag_458:\n        /* \"#utility.yul\":19637:19638   */\n      dup3\n        /* \"#utility.yul\":19634:19635   */\n      dup3\n        /* \"#utility.yul\":19630:19639   */\n      add\n        /* \"#utility.yul\":19623:19639   */\n      swap1\n      pop\n        /* \"#utility.yul\":19384:19645   */\n      swap3\n      swap2\n      pop\n      pop\n      jump\t// out\n        /* \"#utility.yul\":19651:19747   */\n    tag_289:\n        /* \"#utility.yul\":19688:19695   */\n      0x00\n        /* \"#utility.yul\":19717:19741   */\n      tag_462\n        /* \"#utility.yul\":19735:19740   */\n      dup3\n        /* \"#utility.yul\":19717:19741   */\n      tag_463\n      jump\t// in\n    tag_462:\n        /* \"#utility.yul\":19706:19741   */\n      swap1\n      pop\n        /* \"#utility.yul\":19696:19747   */\n      swap2\n      swap1\n      pop\n      jump\t// out\n        /* \"#utility.yul\":19753:19843   */\n    tag_312:\n        /* \"#utility.yul\":19787:19794   */\n      0x00\n        /* \"#utility.yul\":19830:19835   */\n      dup2\n        /* \"#utility.yul\":19823:19836   */\n      iszero\n        /* \"#utility.yul\":19816:19837   */\n      iszero\n        /* \"#utility.yul\":19805:19837   */\n      swap1\n      pop\n        /* \"#utility.yul\":19795:19843   */\n      swap2\n      swap1\n      pop\n      jump\t// out\n        /* \"#utility.yul\":19849:19926   */\n    tag_315:\n        /* \"#utility.yul\":19886:19893   */\n      0x00\n        /* \"#utility.yul\":19915:19920   */\n      dup2\n        /* \"#utility.yul\":19904:19920   */\n      swap1\n      pop\n        /* \"#utility.yul\":19894:19926   */\n      swap2\n      swap1\n      pop\n      jump\t// out\n        /* \"#utility.yul\":19932:20058   */\n    tag_463:\n        /* \"#utility.yul\":19969:19976   */\n      0x00\n        /* \"#utility.yul\":20009:20051   */\n      0xffffffffffffffffffffffffffffffffffffffff\n        /* \"#utility.yul\":20002:20007   */\n      dup3\n        /* \"#utility.yul\":19998:20052   */\n      and\n        /* \"#utility.yul\":19987:20052   */\n      swap1\n      pop\n        /* \"#utility.yul\":19977:20058   */\n      swap2\n      swap1\n      pop\n      jump\t// out\n        /* \"#utility.yul\":20064:20141   */\n    tag_383:\n        /* \"#utility.yul\":20101:20108   */\n      0x00\n        /* \"#utility.yul\":20130:20135   */\n      dup2\n        /* \"#utility.yul\":20119:20135   */\n      swap1\n      pop\n        /* \"#utility.yul\":20109:20141   */\n      swap2\n      swap1\n      pop\n      jump\t// out\n        /* \"#utility.yul\":20147:20301   */\n    tag_237:\n        /* \"#utility.yul\":20231:20237   */\n      dup3\n        /* \"#utility.yul\":20226:20229   */\n      dup2\n        /* \"#utility.yul\":20221:20224   */\n      dup4\n        /* \"#utility.yul\":20208:20238   */\n      calldatacopy\n        /* \"#utility.yul\":20293:20294   */\n      0x00\n        /* \"#utility.yul\":20284:20290   */\n      dup4\n        /* \"#utility.yul\":20279:20282   */\n      dup4\n        /* \"#utility.yul\":20275:20291   */\n      add\n        /* \"#utility.yul\":20268:20295   */\n      mstore\n        /* \"#utility.yul\":20198:20301   */\n      pop\n      pop\n      pop\n      jump\t// out\n        /* \"#utility.yul\":20307:20614   */\n    tag_326:\n        /* \"#utility.yul\":20375:20376   */\n      0x00\n        /* \"#utility.yul\":20385:20498   */\n    tag_470:\n        /* \"#utility.yul\":20399:20405   */\n      dup4\n        /* \"#utility.yul\":20396:20397   */\n      dup2\n        /* \"#utility.yul\":20393:20406   */\n      lt\n        /* \"#utility.yul\":20385:20498   */\n      iszero\n      tag_472\n      jumpi\n        /* \"#utility.yul\":20484:20485   */\n      dup1\n        /* \"#utility.yul\":20479:20482   */\n      dup3\n        /* \"#utility.yul\":20475:20486   */\n      add\n        /* \"#utility.yul\":20469:20487   */\n      mload\n        /* \"#utility.yul\":20465:20466   */\n      dup2\n        /* \"#utility.yul\":20460:20463   */\n      dup5\n        /* \"#utility.yul\":20456:20467   */\n      add\n        /* \"#utility.yul\":20449:20488   */\n      mstore\n        /* \"#utility.yul\":20421:20423   */\n      0x20\n        /* \"#utility.yul\":20418:20419   */\n      dup2\n        /* \"#utility.yul\":20414:20424   */\n      add\n        /* \"#utility.yul\":20409:20424   */\n      swap1\n      pop\n        /* \"#utility.yul\":20385:20498   */\n      jump(tag_470)\n    tag_472:\n        /* \"#utility.yul\":20516:20522   */\n      dup4\n        /* \"#utility.yul\":20513:20514   */\n      dup2\n        /* \"#utility.yul\":20510:20523   */\n      gt\n        /* \"#utility.yul\":20507:20509   */\n      iszero\n      tag_473\n      jumpi\n        /* \"#utility.yul\":20596:20597   */\n      0x00\n        /* \"#utility.yul\":20587:20593   */\n      dup5\n        /* \"#utility.yul\":20582:20585   */\n      dup5\n        /* \"#utility.yul\":20578:20594   */\n      add\n        /* \"#utility.yul\":20571:20598   */\n      mstore\n        /* \"#utility.yul\":20507:20509   */\n    tag_473:\n        /* \"#utility.yul\":20356:20614   */\n      pop\n      pop\n      pop\n      pop\n      jump\t// out\n        /* \"#utility.yul\":20620:20940   */\n    tag_112:\n        /* \"#utility.yul\":20664:20670   */\n      0x00\n        /* \"#utility.yul\":20701:20702   */\n      0x02\n        /* \"#utility.yul\":20695:20699   */\n      dup3\n        /* \"#utility.yul\":20691:20703   */\n      div\n        /* \"#utility.yul\":20681:20703   */\n      swap1\n      pop\n        /* \"#utility.yul\":20748:20749   */\n      0x01\n        /* \"#utility.yul\":20742:20746   */\n      dup3\n        /* \"#utility.yul\":20738:20750   */\n      and\n        /* \"#utility.yul\":20769:20787   */\n      dup1\n        /* \"#utility.yul\":20759:20761   */\n      tag_475\n      jumpi\n        /* \"#utility.yul\":20825:20829   */\n      0x7f\n        /* \"#utility.yul\":20817:20823   */\n      dup3\n        /* \"#utility.yul\":20813:20830   */\n      and\n        /* \"#utility.yul\":20803:20830   */\n      swap2\n      pop\n        /* \"#utility.yul\":20759:20761   */\n    tag_475:\n        /* \"#utility.yul\":20887:20889   */\n      0x20\n        /* \"#utility.yul\":20879:20885   */\n      dup3\n        /* \"#utility.yul\":20876:20890   */\n      lt\n        /* \"#utility.yul\":20856:20874   */\n      dup2\n        /* \"#utility.yul\":20853:20891   */\n      eq\n        /* \"#utility.yul\":20850:20852   */\n      iszero\n      tag_476\n      jumpi\n        /* \"#utility.yul\":20906:20924   */\n      tag_477\n      tag_478\n      jump\t// in\n    tag_477:\n        /* \"#utility.yul\":20850:20852   */\n    tag_476:\n        /* \"#utility.yul\":20671:20940   */\n      pop\n      swap2\n      swap1\n      pop\n      jump\t// out\n        /* \"#utility.yul\":20946:21227   */\n    tag_441:\n        /* \"#utility.yul\":21029:21056   */\n      tag_480\n        /* \"#utility.yul\":21051:21055   */\n      dup3\n        /* \"#utility.yul\":21029:21056   */\n      tag_328\n      jump\t// in\n    tag_480:\n        /* \"#utility.yul\":21021:21027   */\n      dup2\n        /* \"#utility.yul\":21017:21057   */\n      add\n        /* \"#utility.yul\":21159:21165   */\n      dup2\n        /* \"#utility.yul\":21147:21157   */\n      dup2\n        /* \"#utility.yul\":21144:21166   */\n      lt\n        /* \"#utility.yul\":21123:21141   */\n      0xffffffffffffffff\n        /* \"#utility.yul\":21111:21121   */\n      dup3\n        /* \"#utility.yul\":21108:21142   */\n      gt\n        /* \"#utility.yul\":21105:21167   */\n      or\n        /* \"#utility.yul\":21102:21104   */\n      iszero\n      tag_481\n      jumpi\n        /* \"#utility.yul\":21170:21188   */\n      tag_482\n      tag_446\n      jump\t// in\n    tag_482:\n        /* \"#utility.yul\":21102:21104   */\n    tag_481:\n        /* \"#utility.yul\":21210:21220   */\n      dup1\n        /* \"#utility.yul\":21206:21208   */\n      0x40\n        /* \"#utility.yul\":21199:21221   */\n      mstore\n        /* \"#utility.yul\":20989:21227   */\n      pop\n      pop\n      pop\n      jump\t// out\n        /* \"#utility.yul\":21233:21333   */\n    tag_294:\n        /* \"#utility.yul\":21272:21279   */\n      0x00\n        /* \"#utility.yul\":21301:21327   */\n      tag_484\n        /* \"#utility.yul\":21321:21326   */\n      dup3\n        /* \"#utility.yul\":21301:21327   */\n      tag_485\n      jump\t// in\n    tag_484:\n        /* \"#utility.yul\":21290:21327   */\n      swap1\n      pop\n        /* \"#utility.yul\":21280:21333   */\n      swap2\n      swap1\n      pop\n      jump\t// out\n        /* \"#utility.yul\":21339:21433   */\n    tag_485:\n        /* \"#utility.yul\":21378:21385   */\n      0x00\n        /* \"#utility.yul\":21407:21427   */\n      tag_487\n        /* \"#utility.yul\":21421:21426   */\n      dup3\n        /* \"#utility.yul\":21407:21427   */\n      tag_488\n      jump\t// in\n    tag_487:\n        /* \"#utility.yul\":21396:21427   */\n      swap1\n      pop\n        /* \"#utility.yul\":21386:21433   */\n      swap2\n      swap1\n      pop\n      jump\t// out\n        /* \"#utility.yul\":21439:21518   */\n    tag_388:\n        /* \"#utility.yul\":21478:21485   */\n      0x00\n        /* \"#utility.yul\":21507:21512   */\n      dup2\n        /* \"#utility.yul\":21496:21512   */\n      swap1\n      pop\n        /* \"#utility.yul\":21486:21518   */\n      swap2\n      swap1\n      pop\n      jump\t// out\n        /* \"#utility.yul\":21524:21704   */\n    tag_460:\n        /* \"#utility.yul\":21572:21649   */\n      0x4e487b7100000000000000000000000000000000000000000000000000000000\n        /* \"#utility.yul\":21569:21570   */\n      0x00\n        /* \"#utility.yul\":21562:21650   */\n      mstore\n        /* \"#utility.yul\":21669:21673   */\n      0x11\n        /* \"#utility.yul\":21666:21667   */\n      0x04\n        /* \"#utility.yul\":21659:21674   */\n      mstore\n        /* \"#utility.yul\":21693:21697   */\n      0x24\n        /* \"#utility.yul\":21690:21691   */\n      0x00\n        /* \"#utility.yul\":21683:21698   */\n      revert\n        /* \"#utility.yul\":21710:21890   */\n    tag_478:\n        /* \"#utility.yul\":21758:21835   */\n      0x4e487b7100000000000000000000000000000000000000000000000000000000\n        /* \"#utility.yul\":21755:21756   */\n      0x00\n        /* \"#utility.yul\":21748:21836   */\n      mstore\n        /* \"#utility.yul\":21855:21859   */\n      0x22\n        /* \"#utility.yul\":21852:21853   */\n      0x04\n        /* \"#utility.yul\":21845:21860   */\n      mstore\n        /* \"#utility.yul\":21879:21883   */\n      0x24\n        /* \"#utility.yul\":21876:21877   */\n      0x00\n        /* \"#utility.yul\":21869:21884   */\n      revert\n        /* \"#utility.yul\":21896:22076   */\n    tag_446:\n        /* \"#utility.yul\":21944:22021   */\n      0x4e487b7100000000000000000000000000000000000000000000000000000000\n        /* \"#utility.yul\":21941:21942   */\n      0x00\n        /* \"#utility.yul\":21934:22022   */\n      mstore\n        /* \"#utility.yul\":22041:22045   */\n      0x41\n        /* \"#utility.yul\":22038:22039   */\n      0x04\n        /* \"#utility.yul\":22031:22046   */\n      mstore\n        /* \"#utility.yul\":22065:22069   */\n      0x24\n        /* \"#utility.yul\":22062:22063   */\n      0x00\n        /* \"#utility.yul\":22055:22070   */\n      revert\n        /* \"#utility.yul\":22082:22184   */\n    tag_328:\n        /* \"#utility.yul\":22123:22129   */\n      0x00\n        /* \"#utility.yul\":22174:22176   */\n      0x1f\n        /* \"#utility.yul\":22170:22177   */\n      not\n        /* \"#utility.yul\":22165:22167   */\n      0x1f\n        /* \"#utility.yul\":22158:22163   */\n      dup4\n        /* \"#utility.yul\":22154:22168   */\n      add\n        /* \"#utility.yul\":22150:22178   */\n      and\n        /* \"#utility.yul\":22140:22178   */\n      swap1\n      pop\n        /* \"#utility.yul\":22130:22184   */\n      swap2\n      swap1\n      pop\n      jump\t// out\n        /* \"#utility.yul\":22190:22284   */\n    tag_488:\n        /* \"#utility.yul\":22223:22231   */\n      0x00\n        /* \"#utility.yul\":22271:22276   */\n      dup2\n        /* \"#utility.yul\":22267:22269   */\n      0x60\n        /* \"#utility.yul\":22263:22277   */\n      shl\n        /* \"#utility.yul\":22242:22277   */\n      swap1\n      pop\n        /* \"#utility.yul\":22232:22284   */\n      swap2\n      swap1\n      pop\n      jump\t// out\n        /* \"#utility.yul\":22290:22464   */\n    tag_339:\n        /* \"#utility.yul\":22430:22456   */\n      0x796f7527726520616c7265616479206c6f67676564496e2e0000000000000000\n        /* \"#utility.yul\":22426:22427   */\n      0x00\n        /* \"#utility.yul\":22418:22424   */\n      dup3\n        /* \"#utility.yul\":22414:22428   */\n      add\n        /* \"#utility.yul\":22407:22457   */\n      mstore\n        /* \"#utility.yul\":22396:22464   */\n      pop\n      jump\t// out\n        /* \"#utility.yul\":22470:22703   */\n    tag_344:\n        /* \"#utility.yul\":22610:22644   */\n      0x637265617465206163636f756e74206669727374206f72206c6f67496e20746f\n        /* \"#utility.yul\":22606:22607   */\n      0x00\n        /* \"#utility.yul\":22598:22604   */\n      dup3\n        /* \"#utility.yul\":22594:22608   */\n      add\n        /* \"#utility.yul\":22587:22645   */\n      mstore\n        /* \"#utility.yul\":22679:22695   */\n      0x20796f7572206163636f756e742e000000000000000000000000000000000000\n        /* \"#utility.yul\":22674:22676   */\n      0x20\n        /* \"#utility.yul\":22666:22672   */\n      dup3\n        /* \"#utility.yul\":22662:22677   */\n      add\n        /* \"#utility.yul\":22655:22696   */\n      mstore\n        /* \"#utility.yul\":22576:22703   */\n      pop\n      jump\t// out\n        /* \"#utility.yul\":22709:22882   */\n    tag_349:\n        /* \"#utility.yul\":22849:22874   */\n      0x4c6f6720696e20746f20796f7572206163636f756e742e000000000000000000\n        /* \"#utility.yul\":22845:22846   */\n      0x00\n        /* \"#utility.yul\":22837:22843   */\n      dup3\n        /* \"#utility.yul\":22833:22847   */\n      add\n        /* \"#utility.yul\":22826:22875   */\n      mstore\n        /* \"#utility.yul\":22815:22882   */\n      pop\n      jump\t// out\n        /* \"#utility.yul\":22888:23114   */\n    tag_354:\n        /* \"#utility.yul\":23028:23062   */\n      0x75736572206e6f7420657869737465642c20637265617465206163636f756e74\n        /* \"#utility.yul\":23024:23025   */\n      0x00\n        /* \"#utility.yul\":23016:23022   */\n      dup3\n        /* \"#utility.yul\":23012:23026   */\n      add\n        /* \"#utility.yul\":23005:23063   */\n      mstore\n        /* \"#utility.yul\":23097:23106   */\n      0x2066697273742e00000000000000000000000000000000000000000000000000\n        /* \"#utility.yul\":23092:23094   */\n      0x20\n        /* \"#utility.yul\":23084:23090   */\n      dup3\n        /* \"#utility.yul\":23080:23095   */\n      add\n        /* \"#utility.yul\":23073:23107   */\n      mstore\n        /* \"#utility.yul\":22994:23114   */\n      pop\n      jump\t// out\n        /* \"#utility.yul\":23120:23287   */\n    tag_359:\n        /* \"#utility.yul\":23260:23279   */\n      0x75736572206e6f7420657869737465642e000000000000000000000000000000\n        /* \"#utility.yul\":23256:23257   */\n      0x00\n        /* \"#utility.yul\":23248:23254   */\n      dup3\n        /* \"#utility.yul\":23244:23258   */\n      add\n        /* \"#utility.yul\":23237:23280   */\n      mstore\n        /* \"#utility.yul\":23226:23287   */\n      pop\n      jump\t// out\n        /* \"#utility.yul\":23293:23463   */\n    tag_364:\n        /* \"#utility.yul\":23433:23455   */\n      0x796f75277265206e6f74206c6f67676564496e2e000000000000000000000000\n        /* \"#utility.yul\":23429:23430   */\n      0x00\n        /* \"#utility.yul\":23421:23427   */\n      dup3\n        /* \"#utility.yul\":23417:23431   */\n      add\n        /* \"#utility.yul\":23410:23456   */\n      mstore\n        /* \"#utility.yul\":23399:23463   */\n      pop\n      jump\t// out\n        /* \"#utility.yul\":23469:23698   */\n    tag_369:\n        /* \"#utility.yul\":23609:23643   */\n      0x4c6f67696e20746f20796f7572206163636f756e742c20746f20736574207072\n        /* \"#utility.yul\":23605:23606   */\n      0x00\n        /* \"#utility.yul\":23597:23603   */\n      dup3\n        /* \"#utility.yul\":23593:23607   */\n      add\n        /* \"#utility.yul\":23586:23644   */\n      mstore\n        /* \"#utility.yul\":23678:23690   */\n      0x6f66696c65207069632e00000000000000000000000000000000000000000000\n        /* \"#utility.yul\":23673:23675   */\n      0x20\n        /* \"#utility.yul\":23665:23671   */\n      dup3\n        /* \"#utility.yul\":23661:23676   */\n      add\n        /* \"#utility.yul\":23654:23691   */\n      mstore\n        /* \"#utility.yul\":23575:23698   */\n      pop\n      jump\t// out\n        /* \"#utility.yul\":23704:23872   */\n    tag_374:\n        /* \"#utility.yul\":23844:23864   */\n      0x75736572206e616d6520657869737465642e0000000000000000000000000000\n        /* \"#utility.yul\":23840:23841   */\n      0x00\n        /* \"#utility.yul\":23832:23838   */\n      dup3\n        /* \"#utility.yul\":23828:23842   */\n      add\n        /* \"#utility.yul\":23821:23865   */\n      mstore\n        /* \"#utility.yul\":23810:23872   */\n      pop\n      jump\t// out\n        /* \"#utility.yul\":23878:24041   */\n    tag_379:\n        /* \"#utility.yul\":24018:24033   */\n      0x7573657220657869737465642e00000000000000000000000000000000000000\n        /* \"#utility.yul\":24014:24015   */\n      0x00\n        /* \"#utility.yul\":24006:24012   */\n      dup3\n        /* \"#utility.yul\":24002:24016   */\n      add\n        /* \"#utility.yul\":23995:24034   */\n      mstore\n        /* \"#utility.yul\":23984:24041   */\n      pop\n      jump\t// out\n        /* \"#utility.yul\":24047:24169   */\n    tag_241:\n        /* \"#utility.yul\":24120:24144   */\n      tag_505\n        /* \"#utility.yul\":24138:24143   */\n      dup2\n        /* \"#utility.yul\":24120:24144   */\n      tag_289\n      jump\t// in\n    tag_505:\n        /* \"#utility.yul\":24113:24118   */\n      dup2\n        /* \"#utility.yul\":24110:24145   */\n      eq\n        /* \"#utility.yul\":24100:24102   */\n      tag_506\n      jumpi\n        /* \"#utility.yul\":24159:24160   */\n      0x00\n        /* \"#utility.yul\":24156:24157   */\n      dup1\n        /* \"#utility.yul\":24149:24161   */\n      revert\n        /* \"#utility.yul\":24100:24102   */\n    tag_506:\n        /* \"#utility.yul\":24090:24169   */\n      pop\n      jump\t// out\n        /* \"#utility.yul\":24175:24297   */\n    tag_245:\n        /* \"#utility.yul\":24248:24272   */\n      tag_508\n        /* \"#utility.yul\":24266:24271   */\n      dup2\n        /* \"#utility.yul\":24248:24272   */\n      tag_315\n      jump\t// in\n    tag_508:\n        /* \"#utility.yul\":24241:24246   */\n      dup2\n        /* \"#utility.yul\":24238:24273   */\n      eq\n        /* \"#utility.yul\":24228:24230   */\n      tag_509\n      jumpi\n        /* \"#utility.yul\":24287:24288   */\n      0x00\n        /* \"#utility.yul\":24284:24285   */\n      dup1\n        /* \"#utility.yul\":24277:24289   */\n      revert\n        /* \"#utility.yul\":24228:24230   */\n    tag_509:\n        /* \"#utility.yul\":24218:24297   */\n      pop\n      jump\t// out\n        /* \"#utility.yul\":24303:24425   */\n    tag_253:\n        /* \"#utility.yul\":24376:24400   */\n      tag_511\n        /* \"#utility.yul\":24394:24399   */\n      dup2\n        /* \"#utility.yul\":24376:24400   */\n      tag_383\n      jump\t// in\n    tag_511:\n        /* \"#utility.yul\":24369:24374   */\n      dup2\n        /* \"#utility.yul\":24366:24401   */\n      eq\n        /* \"#utility.yul\":24356:24358   */\n      tag_512\n      jumpi\n        /* \"#utility.yul\":24415:24416   */\n      0x00\n        /* \"#utility.yul\":24412:24413   */\n      dup1\n        /* \"#utility.yul\":24405:24417   */\n      revert\n        /* \"#utility.yul\":24356:24358   */\n    tag_512:\n        /* \"#utility.yul\":24346:24425   */\n      pop\n      jump\t// out\n\n    auxdata: 0xa2646970667358221220d533b81ed8ba73a6eb983cb592ced99ad1cf8bb877efb49a96fbe644aa219dc264736f6c63430008040033\n}\n",
				"bytecode": {
					"linkReferences": {},
					"object": "60806040523480156200001157600080fd5b5060405162002a6e38038062002a6e833981810160405281019062000037919062000095565b806000806101000a81548173ffffffffffffffffffffffffffffffffffffffff021916908373ffffffffffffffffffffffffffffffffffffffff160217905550506200010f565b6000815190506200008f81620000f5565b92915050565b600060208284031215620000a857600080fd5b6000620000b8848285016200007e565b91505092915050565b6000620000ce82620000d5565b9050919050565b600073ffffffffffffffffffffffffffffffffffffffff82169050919050565b6200010081620000c1565b81146200010c57600080fd5b50565b61294f806200011f6000396000f3fe608060405234801561001057600080fd5b50600436106101215760003560e01c80636c608709116100ad578063adcfb4fc11610071578063adcfb4fc14610324578063c156254714610340578063c6370dfc1461035e578063eb9720081461037a578063f6f2ede01461039857610121565b80636c608709146102565780637111e75014610286578063894fd813146102b95780638a1b9736146102d55780639efa528e1461030857610121565b806323e583b4116100f457806323e583b4146101af578063377b47a3146101df57806346064ab9146101e95780634be422ae1461021c5780635cb0122a1461022657610121565b8063011f2cce14610126578063026ff05e1461014257806307edbdc5146101605780630b4f12f614610193575b600080fd5b610140600480360381019061013b9190611e6c565b6103c8565b005b61014a6104b1565b604051610157919061220d565b60405180910390f35b61017a60048036038101906101759190611e43565b6106ec565b60405161018a949392919061219f565b60405180910390f35b6101ad60048036038101906101a89190611e6c565b6107e4565b005b6101c960048036038101906101c49190611d90565b610ae8565b6040516101d69190612228565b60405180910390f35b6101e7610b19565b005b61020360048036038101906101fe9190611e43565b610ce3565b604051610213949392919061219f565b60405180910390f35b610224610e26565b005b610240600480360381019061023b9190611cec565b610f60565b60405161024d91906121eb565b60405180910390f35b610270600480360381019061026b9190611e6c565b610ff7565b60405161027d9190612184565b60405180910390f35b6102a0600480360381019061029b9190611cec565b611040565b6040516102b094939291906123d0565b60405180910390f35b6102d360048036038101906102ce9190611dcc565b611070565b005b6102ef60048036038101906102ea9190611cec565b6111db565b6040516102ff94939291906123d0565b60405180910390f35b610322600480360381019061031d9190611d15565b6112fc565b005b61033e60048036038101906103399190611e6c565b611467565b005b6103486117a8565b6040516103559190612243565b60405180910390f35b61037860048036038101906103739190611d15565b611909565b005b610382611a04565b60405161038f9190612243565b60405180910390f35b6103b260048036038101906103ad9190611cec565b611ad6565b6040516103bf919061220d565b60405180910390f35b600360003373ffffffffffffffffffffffffffffffffffffffff1673ffffffffffffffffffffffffffffffffffffffff16815260200190815260200160002060030160009054906101000a900460ff16610457576040517f08c379a000000000000000000000000000000000000000000000000000000000815260040161044e90612355565b60405180910390fd5b80600360003373ffffffffffffffffffffffffffffffffffffffff1673ffffffffffffffffffffffffffffffffffffffff16815260200190815260200160002060040190805190602001906104ad929190611b62565b5050565b6000600360003373ffffffffffffffffffffffffffffffffffffffff1673ffffffffffffffffffffffffffffffffffffffff16815260200190815260200160002060010160009054906101000a900460ff16610542576040517f08c379a000000000000000000000000000000000000000000000000000000000815260040161053990612315565b60405180910390fd5b6000600360003373ffffffffffffffffffffffffffffffffffffffff1673ffffffffffffffffffffffffffffffffffffffff1681526020019081526020016000206000018054610591906125b5565b80601f01602080910402602001604051908101604052809291908181526020018280546105bd906125b5565b801561060a5780601f106105df5761010080835404028352916020019161060a565b820191906000526020600020905b8154815290600101906020018083116105ed57829003601f168201915b50505050509050600481604051610621919061216d565b908152602001604051809103902060006101000a81549073ffffffffffffffffffffffffffffffffffffffff0219169055600360003373ffffffffffffffffffffffffffffffffffffffff1673ffffffffffffffffffffffffffffffffffffffff168152602001908152602001600020600080820160006106a29190611be8565b6001820160006101000a81549060ff021916905560028201600090556003820160006101000a81549060ff02191690556004820160006106e29190611be8565b5050600191505090565b60016020528060005260406000206000915090508060000160009054906101000a900473ffffffffffffffffffffffffffffffffffffffff16908060010154908060020160009054906101000a900473ffffffffffffffffffffffffffffffffffffffff1690806003018054610761906125b5565b80601f016020809104026020016040519081016040528092919081815260200182805461078d906125b5565b80156107da5780601f106107af576101008083540402835291602001916107da565b820191906000526020600020905b8154815290600101906020018083116107bd57829003601f168201915b5050505050905084565b600360003373ffffffffffffffffffffffffffffffffffffffff1673ffffffffffffffffffffffffffffffffffffffff16815260200190815260200160002060030160009054906101000a900460ff16610873576040517f08c379a000000000000000000000000000000000000000000000000000000000815260040161086a906122d5565b60405180910390fd5b600073ffffffffffffffffffffffffffffffffffffffff1660048260405161089b919061216d565b908152602001604051809103902060009054906101000a900473ffffffffffffffffffffffffffffffffffffffff1673ffffffffffffffffffffffffffffffffffffffff1614610920576040517f08c379a000000000000000000000000000000000000000000000000000000000815260040161091790612375565b60405180910390fd5b6000600360003373ffffffffffffffffffffffffffffffffffffffff1673ffffffffffffffffffffffffffffffffffffffff168152602001908152602001600020600001805461096f906125b5565b80601f016020809104026020016040519081016040528092919081815260200182805461099b906125b5565b80156109e85780601f106109bd576101008083540402835291602001916109e8565b820191906000526020600020905b8154815290600101906020018083116109cb57829003601f168201915b505050505090506004816040516109ff919061216d565b908152602001604051809103902060006101000a81549073ffffffffffffffffffffffffffffffffffffffff021916905533600483604051610a41919061216d565b908152602001604051809103902060006101000a81548173ffffffffffffffffffffffffffffffffffffffff021916908373ffffffffffffffffffffffffffffffffffffffff16021790555081600360003373ffffffffffffffffffffffffffffffffffffffff1673ffffffffffffffffffffffffffffffffffffffff1681526020019081526020016000206000019080519060200190610ae3929190611b62565b505050565b60026020528160005260406000208181548110610b0457600080fd5b90600052602060002001600091509150505481565b600360003373ffffffffffffffffffffffffffffffffffffffff1673ffffffffffffffffffffffffffffffffffffffff16815260200190815260200160002060010160009054906101000a900460ff16610ba8576040517f08c379a0000000000000000000000000000000000000000000000000000000008152600401610b9f906122f5565b60405180910390fd5b600360003373ffffffffffffffffffffffffffffffffffffffff1673ffffffffffffffffffffffffffffffffffffffff16815260200190815260200160002060030160009054906101000a900460ff1615610c38576040517f08c379a0000000000000000000000000000000000000000000000000000000008152600401610c2f90612295565b60405180910390fd5b6001600360003373ffffffffffffffffffffffffffffffffffffffff1673ffffffffffffffffffffffffffffffffffffffff16815260200190815260200160002060030160006101000a81548160ff0219169083151502179055503373ffffffffffffffffffffffffffffffffffffffff167f364034de78a61b6190b049e2c5437370b27906bfed607993a5bc2dda23c16cff42604051610cd991906123b5565b60405180910390a2565b6000806000606060008590506001600082815260200190815260200160002060000160009054906101000a900473ffffffffffffffffffffffffffffffffffffffff1660016000838152602001908152602001600020600101546001600084815260200190815260200160002060020160009054906101000a900473ffffffffffffffffffffffffffffffffffffffff1660016000858152602001908152602001600020600301808054610d96906125b5565b80601f0160208091040260200160405190810160405280929190818152602001828054610dc2906125b5565b8015610e0f5780601f10610de457610100808354040283529160200191610e0f565b820191906000526020600020905b815481529060010190602001808311610df257829003601f168201915b505050505090509450945094509450509193509193565b600360003373ffffffffffffffffffffffffffffffffffffffff1673ffffffffffffffffffffffffffffffffffffffff16815260200190815260200160002060030160009054906101000a900460ff16610eb5576040517f08c379a0000000000000000000000000000000000000000000000000000000008152600401610eac90612335565b60405180910390fd5b6000600360003373ffffffffffffffffffffffffffffffffffffffff1673ffffffffffffffffffffffffffffffffffffffff16815260200190815260200160002060030160006101000a81548160ff0219169083151502179055503373ffffffffffffffffffffffffffffffffffffffff167f70d1177aa26c67f6b2fdb43400cfd7ff0c23a8712301abe5aba2ee3d89e28a1042604051610f5691906123b5565b60405180910390a2565b6060600260008373ffffffffffffffffffffffffffffffffffffffff1673ffffffffffffffffffffffffffffffffffffffff168152602001908152602001600020805480602002602001604051908101604052809291908181526020018280548015610feb57602002820191906000526020600020905b815481526020019060010190808311610fd7575b50505050509050919050565b6004818051602081018201805184825260208301602085012081835280955050505050506000915054906101000a900473ffffffffffffffffffffffffffffffffffffffff1681565b60056020528060005260406000206000915090508060000154908060010154908060020154908060030154905084565b83600560008773ffffffffffffffffffffffffffffffffffffffff1673ffffffffffffffffffffffffffffffffffffffff16815260200190815260200160002060000160008282546110c291906124cb565b9250508190555082600560008773ffffffffffffffffffffffffffffffffffffffff1673ffffffffffffffffffffffffffffffffffffffff168152602001908152602001600020600101600082825461111b91906124cb565b9250508190555081600560008773ffffffffffffffffffffffffffffffffffffffff1673ffffffffffffffffffffffffffffffffffffffff168152602001908152602001600020600201600082825461117491906124cb565b9250508190555080600560008773ffffffffffffffffffffffffffffffffffffffff1673ffffffffffffffffffffffffffffffffffffffff16815260200190815260200160002060030160008282546111cd91906124cb565b925050819055505050505050565b600080600080600560008673ffffffffffffffffffffffffffffffffffffffff1673ffffffffffffffffffffffffffffffffffffffff16815260200190815260200160002060020154600560008773ffffffffffffffffffffffffffffffffffffffff1673ffffffffffffffffffffffffffffffffffffffff16815260200190815260200160002060030154600560008873ffffffffffffffffffffffffffffffffffffffff1673ffffffffffffffffffffffffffffffffffffffff16815260200190815260200160002060000154600560008973ffffffffffffffffffffffffffffffffffffffff1673ffffffffffffffffffffffffffffffffffffffff1681526020019081526020016000206001015493509350935093509193509193565b60006113088484611b2f565b9050836001600083815260200190815260200160002060000160006101000a81548173ffffffffffffffffffffffffffffffffffffffff021916908373ffffffffffffffffffffffffffffffffffffffff160217905550826001600083815260200190815260200160002060010181905550846001600083815260200190815260200160002060020160006101000a81548173ffffffffffffffffffffffffffffffffffffffff021916908373ffffffffffffffffffffffffffffffffffffffff160217905550816001600083815260200190815260200160002060030190805190602001906113f9929190611b62565b50600260008673ffffffffffffffffffffffffffffffffffffffff1673ffffffffffffffffffffffffffffffffffffffff1681526020019081526020016000208190806001815401808255809150506001900390600052602060002001600090919091909150555050505050565b600360003373ffffffffffffffffffffffffffffffffffffffff1673ffffffffffffffffffffffffffffffffffffffff16815260200190815260200160002060010160009054906101000a900460ff16156114f7576040517f08c379a00000000000000000000000000000000000000000000000000000000081526004016114ee90612395565b60405180910390fd5b600073ffffffffffffffffffffffffffffffffffffffff1660048260405161151f919061216d565b908152602001604051809103902060009054906101000a900473ffffffffffffffffffffffffffffffffffffffff1673ffffffffffffffffffffffffffffffffffffffff16146115a4576040517f08c379a000000000000000000000000000000000000000000000000000000000815260040161159b90612375565b60405180910390fd5b80600360003373ffffffffffffffffffffffffffffffffffffffff1673ffffffffffffffffffffffffffffffffffffffff16815260200190815260200160002060000190805190602001906115fa929190611b62565b506001600360003373ffffffffffffffffffffffffffffffffffffffff1673ffffffffffffffffffffffffffffffffffffffff16815260200190815260200160002060010160006101000a81548160ff02191690831515021790555042600360003373ffffffffffffffffffffffffffffffffffffffff1673ffffffffffffffffffffffffffffffffffffffff168152602001908152602001600020600201819055506001600360003373ffffffffffffffffffffffffffffffffffffffff1673ffffffffffffffffffffffffffffffffffffffff16815260200190815260200160002060030160006101000a81548160ff02191690831515021790555033600482604051611709919061216d565b908152602001604051809103902060006101000a81548173ffffffffffffffffffffffffffffffffffffffff021916908373ffffffffffffffffffffffffffffffffffffffff1602179055503373ffffffffffffffffffffffffffffffffffffffff167fee20c2c019dcbca8d08ff74c4ce6f465e02d3611905c9aceeb76a0c8e429af2f824260405161179d929190612265565b60405180910390a250565b6060600360003373ffffffffffffffffffffffffffffffffffffffff1673ffffffffffffffffffffffffffffffffffffffff16815260200190815260200160002060030160009054906101000a900460ff16611839576040517f08c379a0000000000000000000000000000000000000000000000000000000008152600401611830906122b5565b60405180910390fd5b600360003373ffffffffffffffffffffffffffffffffffffffff1673ffffffffffffffffffffffffffffffffffffffff1681526020019081526020016000206000018054611886906125b5565b80601f01602080910402602001604051908101604052809291908181526020018280546118b2906125b5565b80156118ff5780601f106118d4576101008083540402835291602001916118ff565b820191906000526020600020905b8154815290600101906020018083116118e257829003601f168201915b5050505050905090565b60006119158484611b2f565b9050846001600083815260200190815260200160002060020160006101000a81548173ffffffffffffffffffffffffffffffffffffffff021916908373ffffffffffffffffffffffffffffffffffffffff16021790555081600160008381526020019081526020016000206003019080519060200190611996929190611b62565b50600260008673ffffffffffffffffffffffffffffffffffffffff1673ffffffffffffffffffffffffffffffffffffffff1681526020019081526020016000208190806001815401808255809150506001900390600052602060002001600090919091909150555050505050565b6060600360003373ffffffffffffffffffffffffffffffffffffffff1673ffffffffffffffffffffffffffffffffffffffff1681526020019081526020016000206004018054611a53906125b5565b80601f0160208091040260200160405190810160405280929190818152602001828054611a7f906125b5565b8015611acc5780601f10611aa157610100808354040283529160200191611acc565b820191906000526020600020905b815481529060010190602001808311611aaf57829003601f168201915b5050505050905090565b6000600360008373ffffffffffffffffffffffffffffffffffffffff1673ffffffffffffffffffffffffffffffffffffffff16815260200190815260200160002060030160009054906101000a900460ff169050919050565b60008282604051602001611b44929190612141565b60405160208183030381529060405280519060200120905092915050565b828054611b6e906125b5565b90600052602060002090601f016020900481019282611b905760008555611bd7565b82601f10611ba957805160ff1916838001178555611bd7565b82800160010185558215611bd7579182015b82811115611bd6578251825591602001919060010190611bbb565b5b509050611be49190611c28565b5090565b508054611bf4906125b5565b6000825580601f10611c065750611c25565b601f016020900490600052602060002090810190611c249190611c28565b5b50565b5b80821115611c41576000816000905550600101611c29565b5090565b6000611c58611c538461243a565b612415565b905082815260208101848484011115611c7057600080fd5b611c7b848285612573565b509392505050565b600081359050611c92816128d4565b92915050565b600081359050611ca7816128eb565b92915050565b600082601f830112611cbe57600080fd5b8135611cce848260208601611c45565b91505092915050565b600081359050611ce681612902565b92915050565b600060208284031215611cfe57600080fd5b6000611d0c84828501611c83565b91505092915050565b60008060008060808587031215611d2b57600080fd5b6000611d3987828801611c83565b9450506020611d4a87828801611c83565b9350506040611d5b87828801611cd7565b925050606085013567ffffffffffffffff811115611d7857600080fd5b611d8487828801611cad565b91505092959194509250565b60008060408385031215611da357600080fd5b6000611db185828601611c83565b9250506020611dc285828601611cd7565b9150509250929050565b600080600080600060a08688031215611de457600080fd5b6000611df288828901611c83565b9550506020611e0388828901611cd7565b9450506040611e1488828901611cd7565b9350506060611e2588828901611cd7565b9250506080611e3688828901611cd7565b9150509295509295909350565b600060208284031215611e5557600080fd5b6000611e6384828501611c98565b91505092915050565b600060208284031215611e7e57600080fd5b600082013567ffffffffffffffff811115611e9857600080fd5b611ea484828501611cad565b91505092915050565b6000611eb98383611f58565b60208301905092915050565b611ece81612521565b82525050565b611ee5611ee082612521565b612618565b82525050565b6000611ef68261247b565b611f00818561249e565b9350611f0b8361246b565b8060005b83811015611f3c578151611f238882611ead565b9750611f2e83612491565b925050600181019050611f0f565b5085935050505092915050565b611f5281612533565b82525050565b611f618161253f565b82525050565b611f708161253f565b82525050565b6000611f8182612486565b611f8b81856124af565b9350611f9b818560208601612582565b611fa4816126d3565b840191505092915050565b6000611fba82612486565b611fc481856124c0565b9350611fd4818560208601612582565b80840191505092915050565b6000611fed6018836124af565b9150611ff8826126f1565b602082019050919050565b6000612010602e836124af565b915061201b8261271a565b604082019050919050565b60006120336017836124af565b915061203e82612769565b602082019050919050565b60006120566027836124af565b915061206182612792565b604082019050919050565b60006120796011836124af565b9150612084826127e1565b602082019050919050565b600061209c6014836124af565b91506120a78261280a565b602082019050919050565b60006120bf602a836124af565b91506120ca82612833565b604082019050919050565b60006120e26012836124af565b91506120ed82612882565b602082019050919050565b6000612105600d836124af565b9150612110826128ab565b602082019050919050565b61212481612569565b82525050565b61213b61213682612569565b61263c565b82525050565b600061214d8285611ed4565b60148201915061215d828461212a565b6020820191508190509392505050565b60006121798284611faf565b915081905092915050565b60006020820190506121996000830184611ec5565b92915050565b60006080820190506121b46000830187611ec5565b6121c1602083018661211b565b6121ce6040830185611ec5565b81810360608301526121e08184611f76565b905095945050505050565b600060208201905081810360008301526122058184611eeb565b905092915050565b60006020820190506122226000830184611f49565b92915050565b600060208201905061223d6000830184611f67565b92915050565b6000602082019050818103600083015261225d8184611f76565b905092915050565b6000604082019050818103600083015261227f8185611f76565b905061228e602083018461211b565b9392505050565b600060208201905081810360008301526122ae81611fe0565b9050919050565b600060208201905081810360008301526122ce81612003565b9050919050565b600060208201905081810360008301526122ee81612026565b9050919050565b6000602082019050818103600083015261230e81612049565b9050919050565b6000602082019050818103600083015261232e8161206c565b9050919050565b6000602082019050818103600083015261234e8161208f565b9050919050565b6000602082019050818103600083015261236e816120b2565b9050919050565b6000602082019050818103600083015261238e816120d5565b9050919050565b600060208201905081810360008301526123ae816120f8565b9050919050565b60006020820190506123ca600083018461211b565b92915050565b60006080820190506123e5600083018761211b565b6123f2602083018661211b565b6123ff604083018561211b565b61240c606083018461211b565b95945050505050565b600061241f612430565b905061242b82826125e7565b919050565b6000604051905090565b600067ffffffffffffffff821115612455576124546126a4565b5b61245e826126d3565b9050602081019050919050565b6000819050602082019050919050565b600081519050919050565b600081519050919050565b6000602082019050919050565b600082825260208201905092915050565b600082825260208201905092915050565b600081905092915050565b60006124d682612569565b91506124e183612569565b9250827fffffffffffffffffffffffffffffffffffffffffffffffffffffffffffffffff0382111561251657612515612646565b5b828201905092915050565b600061252c82612549565b9050919050565b60008115159050919050565b6000819050919050565b600073ffffffffffffffffffffffffffffffffffffffff82169050919050565b6000819050919050565b82818337600083830152505050565b60005b838110156125a0578082015181840152602081019050612585565b838111156125af576000848401525b50505050565b600060028204905060018216806125cd57607f821691505b602082108114156125e1576125e0612675565b5b50919050565b6125f0826126d3565b810181811067ffffffffffffffff8211171561260f5761260e6126a4565b5b80604052505050565b60006126238261262a565b9050919050565b6000612635826126e4565b9050919050565b6000819050919050565b7f4e487b7100000000000000000000000000000000000000000000000000000000600052601160045260246000fd5b7f4e487b7100000000000000000000000000000000000000000000000000000000600052602260045260246000fd5b7f4e487b7100000000000000000000000000000000000000000000000000000000600052604160045260246000fd5b6000601f19601f8301169050919050565b60008160601b9050919050565b7f796f7527726520616c7265616479206c6f67676564496e2e0000000000000000600082015250565b7f637265617465206163636f756e74206669727374206f72206c6f67496e20746f60008201527f20796f7572206163636f756e742e000000000000000000000000000000000000602082015250565b7f4c6f6720696e20746f20796f7572206163636f756e742e000000000000000000600082015250565b7f75736572206e6f7420657869737465642c20637265617465206163636f756e7460008201527f2066697273742e00000000000000000000000000000000000000000000000000602082015250565b7f75736572206e6f7420657869737465642e000000000000000000000000000000600082015250565b7f796f75277265206e6f74206c6f67676564496e2e000000000000000000000000600082015250565b7f4c6f67696e20746f20796f7572206163636f756e742c20746f2073657420707260008201527f6f66696c65207069632e00000000000000000000000000000000000000000000602082015250565b7f75736572206e616d6520657869737465642e0000000000000000000000000000600082015250565b7f7573657220657869737465642e00000000000000000000000000000000000000600082015250565b6128dd81612521565b81146128e857600080fd5b50565b6128f48161253f565b81146128ff57600080fd5b50565b61290b81612569565b811461291657600080fd5b5056fea2646970667358221220d533b81ed8ba73a6eb983cb592ced99ad1cf8bb877efb49a96fbe644aa219dc264736f6c63430008040033",
					"opcodes": "PUSH1 0x80 PUSH1 0x40 MSTORE CALLVALUE DUP1 ISZERO PUSH3 0x11 JUMPI PUSH1 0x0 DUP1 REVERT JUMPDEST POP PUSH1 0x40 MLOAD PUSH3 0x2A6E CODESIZE SUB DUP1 PUSH3 0x2A6E DUP4 CODECOPY DUP2 DUP2 ADD PUSH1 0x40 MSTORE DUP2 ADD SWAP1 PUSH3 0x37 SWAP2 SWAP1 PUSH3 0x95 JUMP JUMPDEST DUP1 PUSH1 0x0 DUP1 PUSH2 0x100 EXP DUP2 SLOAD DUP2 PUSH20 0xFFFFFFFFFFFFFFFFFFFFFFFFFFFFFFFFFFFFFFFF MUL NOT AND SWAP1 DUP4 PUSH20 0xFFFFFFFFFFFFFFFFFFFFFFFFFFFFFFFFFFFFFFFF AND MUL OR SWAP1 SSTORE POP POP PUSH3 0x10F JUMP JUMPDEST PUSH1 0x0 DUP2 MLOAD SWAP1 POP PUSH3 0x8F DUP2 PUSH3 0xF5 JUMP JUMPDEST SWAP3 SWAP2 POP POP JUMP JUMPDEST PUSH1 0x0 PUSH1 0x20 DUP3 DUP5 SUB SLT ISZERO PUSH3 0xA8 JUMPI PUSH1 0x0 DUP1 REVERT JUMPDEST PUSH1 0x0 PUSH3 0xB8 DUP5 DUP3 DUP6 ADD PUSH3 0x7E JUMP JUMPDEST SWAP2 POP POP SWAP3 SWAP2 POP POP JUMP JUMPDEST PUSH1 0x0 PUSH3 0xCE DUP3 PUSH3 0xD5 JUMP JUMPDEST SWAP1 POP SWAP2 SWAP1 POP JUMP JUMPDEST PUSH1 0x0 PUSH20 0xFFFFFFFFFFFFFFFFFFFFFFFFFFFFFFFFFFFFFFFF DUP3 AND SWAP1 POP SWAP2 SWAP1 POP JUMP JUMPDEST PUSH3 0x100 DUP2 PUSH3 0xC1 JUMP JUMPDEST DUP2 EQ PUSH3 0x10C JUMPI PUSH1 0x0 DUP1 REVERT JUMPDEST POP JUMP JUMPDEST PUSH2 0x294F DUP1 PUSH3 0x11F PUSH1 0x0 CODECOPY PUSH1 0x0 RETURN INVALID PUSH1 0x80 PUSH1 0x40 MSTORE CALLVALUE DUP1 ISZERO PUSH2 0x10 JUMPI PUSH1 0x0 DUP1 REVERT JUMPDEST POP PUSH1 0x4 CALLDATASIZE LT PUSH2 0x121 JUMPI PUSH1 0x0 CALLDATALOAD PUSH1 0xE0 SHR DUP1 PUSH4 0x6C608709 GT PUSH2 0xAD JUMPI DUP1 PUSH4 0xADCFB4FC GT PUSH2 0x71 JUMPI DUP1 PUSH4 0xADCFB4FC EQ PUSH2 0x324 JUMPI DUP1 PUSH4 0xC1562547 EQ PUSH2 0x340 JUMPI DUP1 PUSH4 0xC6370DFC EQ PUSH2 0x35E JUMPI DUP1 PUSH4 0xEB972008 EQ PUSH2 0x37A JUMPI DUP1 PUSH4 0xF6F2EDE0 EQ PUSH2 0x398 JUMPI PUSH2 0x121 JUMP JUMPDEST DUP1 PUSH4 0x6C608709 EQ PUSH2 0x256 JUMPI DUP1 PUSH4 0x7111E750 EQ PUSH2 0x286 JUMPI DUP1 PUSH4 0x894FD813 EQ PUSH2 0x2B9 JUMPI DUP1 PUSH4 0x8A1B9736 EQ PUSH2 0x2D5 JUMPI DUP1 PUSH4 0x9EFA528E EQ PUSH2 0x308 JUMPI PUSH2 0x121 JUMP JUMPDEST DUP1 PUSH4 0x23E583B4 GT PUSH2 0xF4 JUMPI DUP1 PUSH4 0x23E583B4 EQ PUSH2 0x1AF JUMPI DUP1 PUSH4 0x377B47A3 EQ PUSH2 0x1DF JUMPI DUP1 PUSH4 0x46064AB9 EQ PUSH2 0x1E9 JUMPI DUP1 PUSH4 0x4BE422AE EQ PUSH2 0x21C JUMPI DUP1 PUSH4 0x5CB0122A EQ PUSH2 0x226 JUMPI PUSH2 0x121 JUMP JUMPDEST DUP1 PUSH4 0x11F2CCE EQ PUSH2 0x126 JUMPI DUP1 PUSH4 0x26FF05E EQ PUSH2 0x142 JUMPI DUP1 PUSH4 0x7EDBDC5 EQ PUSH2 0x160 JUMPI DUP1 PUSH4 0xB4F12F6 EQ PUSH2 0x193 JUMPI JUMPDEST PUSH1 0x0 DUP1 REVERT JUMPDEST PUSH2 0x140 PUSH1 0x4 DUP1 CALLDATASIZE SUB DUP2 ADD SWAP1 PUSH2 0x13B SWAP2 SWAP1 PUSH2 0x1E6C JUMP JUMPDEST PUSH2 0x3C8 JUMP JUMPDEST STOP JUMPDEST PUSH2 0x14A PUSH2 0x4B1 JUMP JUMPDEST PUSH1 0x40 MLOAD PUSH2 0x157 SWAP2 SWAP1 PUSH2 0x220D JUMP JUMPDEST PUSH1 0x40 MLOAD DUP1 SWAP2 SUB SWAP1 RETURN JUMPDEST PUSH2 0x17A PUSH1 0x4 DUP1 CALLDATASIZE SUB DUP2 ADD SWAP1 PUSH2 0x175 SWAP2 SWAP1 PUSH2 0x1E43 JUMP JUMPDEST PUSH2 0x6EC JUMP JUMPDEST PUSH1 0x40 MLOAD PUSH2 0x18A SWAP5 SWAP4 SWAP3 SWAP2 SWAP1 PUSH2 0x219F JUMP JUMPDEST PUSH1 0x40 MLOAD DUP1 SWAP2 SUB SWAP1 RETURN JUMPDEST PUSH2 0x1AD PUSH1 0x4 DUP1 CALLDATASIZE SUB DUP2 ADD SWAP1 PUSH2 0x1A8 SWAP2 SWAP1 PUSH2 0x1E6C JUMP JUMPDEST PUSH2 0x7E4 JUMP JUMPDEST STOP JUMPDEST PUSH2 0x1C9 PUSH1 0x4 DUP1 CALLDATASIZE SUB DUP2 ADD SWAP1 PUSH2 0x1C4 SWAP2 SWAP1 PUSH2 0x1D90 JUMP JUMPDEST PUSH2 0xAE8 JUMP JUMPDEST PUSH1 0x40 MLOAD PUSH2 0x1D6 SWAP2 SWAP1 PUSH2 0x2228 JUMP JUMPDEST PUSH1 0x40 MLOAD DUP1 SWAP2 SUB SWAP1 RETURN JUMPDEST PUSH2 0x1E7 PUSH2 0xB19 JUMP JUMPDEST STOP JUMPDEST PUSH2 0x203 PUSH1 0x4 DUP1 CALLDATASIZE SUB DUP2 ADD SWAP1 PUSH2 0x1FE SWAP2 SWAP1 PUSH2 0x1E43 JUMP JUMPDEST PUSH2 0xCE3 JUMP JUMPDEST PUSH1 0x40 MLOAD PUSH2 0x213 SWAP5 SWAP4 SWAP3 SWAP2 SWAP1 PUSH2 0x219F JUMP JUMPDEST PUSH1 0x40 MLOAD DUP1 SWAP2 SUB SWAP1 RETURN JUMPDEST PUSH2 0x224 PUSH2 0xE26 JUMP JUMPDEST STOP JUMPDEST PUSH2 0x240 PUSH1 0x4 DUP1 CALLDATASIZE SUB DUP2 ADD SWAP1 PUSH2 0x23B SWAP2 SWAP1 PUSH2 0x1CEC JUMP JUMPDEST PUSH2 0xF60 JUMP JUMPDEST PUSH1 0x40 MLOAD PUSH2 0x24D SWAP2 SWAP1 PUSH2 0x21EB JUMP JUMPDEST PUSH1 0x40 MLOAD DUP1 SWAP2 SUB SWAP1 RETURN JUMPDEST PUSH2 0x270 PUSH1 0x4 DUP1 CALLDATASIZE SUB DUP2 ADD SWAP1 PUSH2 0x26B SWAP2 SWAP1 PUSH2 0x1E6C JUMP JUMPDEST PUSH2 0xFF7 JUMP JUMPDEST PUSH1 0x40 MLOAD PUSH2 0x27D SWAP2 SWAP1 PUSH2 0x2184 JUMP JUMPDEST PUSH1 0x40 MLOAD DUP1 SWAP2 SUB SWAP1 RETURN JUMPDEST PUSH2 0x2A0 PUSH1 0x4 DUP1 CALLDATASIZE SUB DUP2 ADD SWAP1 PUSH2 0x29B SWAP2 SWAP1 PUSH2 0x1CEC JUMP JUMPDEST PUSH2 0x1040 JUMP JUMPDEST PUSH1 0x40 MLOAD PUSH2 0x2B0 SWAP5 SWAP4 SWAP3 SWAP2 SWAP1 PUSH2 0x23D0 JUMP JUMPDEST PUSH1 0x40 MLOAD DUP1 SWAP2 SUB SWAP1 RETURN JUMPDEST PUSH2 0x2D3 PUSH1 0x4 DUP1 CALLDATASIZE SUB DUP2 ADD SWAP1 PUSH2 0x2CE SWAP2 SWAP1 PUSH2 0x1DCC JUMP JUMPDEST PUSH2 0x1070 JUMP JUMPDEST STOP JUMPDEST PUSH2 0x2EF PUSH1 0x4 DUP1 CALLDATASIZE SUB DUP2 ADD SWAP1 PUSH2 0x2EA SWAP2 SWAP1 PUSH2 0x1CEC JUMP JUMPDEST PUSH2 0x11DB JUMP JUMPDEST PUSH1 0x40 MLOAD PUSH2 0x2FF SWAP5 SWAP4 SWAP3 SWAP2 SWAP1 PUSH2 0x23D0 JUMP JUMPDEST PUSH1 0x40 MLOAD DUP1 SWAP2 SUB SWAP1 RETURN JUMPDEST PUSH2 0x322 PUSH1 0x4 DUP1 CALLDATASIZE SUB DUP2 ADD SWAP1 PUSH2 0x31D SWAP2 SWAP1 PUSH2 0x1D15 JUMP JUMPDEST PUSH2 0x12FC JUMP JUMPDEST STOP JUMPDEST PUSH2 0x33E PUSH1 0x4 DUP1 CALLDATASIZE SUB DUP2 ADD SWAP1 PUSH2 0x339 SWAP2 SWAP1 PUSH2 0x1E6C JUMP JUMPDEST PUSH2 0x1467 JUMP JUMPDEST STOP JUMPDEST PUSH2 0x348 PUSH2 0x17A8 JUMP JUMPDEST PUSH1 0x40 MLOAD PUSH2 0x355 SWAP2 SWAP1 PUSH2 0x2243 JUMP JUMPDEST PUSH1 0x40 MLOAD DUP1 SWAP2 SUB SWAP1 RETURN JUMPDEST PUSH2 0x378 PUSH1 0x4 DUP1 CALLDATASIZE SUB DUP2 ADD SWAP1 PUSH2 0x373 SWAP2 SWAP1 PUSH2 0x1D15 JUMP JUMPDEST PUSH2 0x1909 JUMP JUMPDEST STOP JUMPDEST PUSH2 0x382 PUSH2 0x1A04 JUMP JUMPDEST PUSH1 0x40 MLOAD PUSH2 0x38F SWAP2 SWAP1 PUSH2 0x2243 JUMP JUMPDEST PUSH1 0x40 MLOAD DUP1 SWAP2 SUB SWAP1 RETURN JUMPDEST PUSH2 0x3B2 PUSH1 0x4 DUP1 CALLDATASIZE SUB DUP2 ADD SWAP1 PUSH2 0x3AD SWAP2 SWAP1 PUSH2 0x1CEC JUMP JUMPDEST PUSH2 0x1AD6 JUMP JUMPDEST PUSH1 0x40 MLOAD PUSH2 0x3BF SWAP2 SWAP1 PUSH2 0x220D JUMP JUMPDEST PUSH1 0x40 MLOAD DUP1 SWAP2 SUB SWAP1 RETURN JUMPDEST PUSH1 0x3 PUSH1 0x0 CALLER PUSH20 0xFFFFFFFFFFFFFFFFFFFFFFFFFFFFFFFFFFFFFFFF AND PUSH20 0xFFFFFFFFFFFFFFFFFFFFFFFFFFFFFFFFFFFFFFFF AND DUP2 MSTORE PUSH1 0x20 ADD SWAP1 DUP2 MSTORE PUSH1 0x20 ADD PUSH1 0x0 KECCAK256 PUSH1 0x3 ADD PUSH1 0x0 SWAP1 SLOAD SWAP1 PUSH2 0x100 EXP SWAP1 DIV PUSH1 0xFF AND PUSH2 0x457 JUMPI PUSH1 0x40 MLOAD PUSH32 0x8C379A000000000000000000000000000000000000000000000000000000000 DUP2 MSTORE PUSH1 0x4 ADD PUSH2 0x44E SWAP1 PUSH2 0x2355 JUMP JUMPDEST PUSH1 0x40 MLOAD DUP1 SWAP2 SUB SWAP1 REVERT JUMPDEST DUP1 PUSH1 0x3 PUSH1 0x0 CALLER PUSH20 0xFFFFFFFFFFFFFFFFFFFFFFFFFFFFFFFFFFFFFFFF AND PUSH20 0xFFFFFFFFFFFFFFFFFFFFFFFFFFFFFFFFFFFFFFFF AND DUP2 MSTORE PUSH1 0x20 ADD SWAP1 DUP2 MSTORE PUSH1 0x20 ADD PUSH1 0x0 KECCAK256 PUSH1 0x4 ADD SWAP1 DUP1 MLOAD SWAP1 PUSH1 0x20 ADD SWAP1 PUSH2 0x4AD SWAP3 SWAP2 SWAP1 PUSH2 0x1B62 JUMP JUMPDEST POP POP JUMP JUMPDEST PUSH1 0x0 PUSH1 0x3 PUSH1 0x0 CALLER PUSH20 0xFFFFFFFFFFFFFFFFFFFFFFFFFFFFFFFFFFFFFFFF AND PUSH20 0xFFFFFFFFFFFFFFFFFFFFFFFFFFFFFFFFFFFFFFFF AND DUP2 MSTORE PUSH1 0x20 ADD SWAP1 DUP2 MSTORE PUSH1 0x20 ADD PUSH1 0x0 KECCAK256 PUSH1 0x1 ADD PUSH1 0x0 SWAP1 SLOAD SWAP1 PUSH2 0x100 EXP SWAP1 DIV PUSH1 0xFF AND PUSH2 0x542 JUMPI PUSH1 0x40 MLOAD PUSH32 0x8C379A000000000000000000000000000000000000000000000000000000000 DUP2 MSTORE PUSH1 0x4 ADD PUSH2 0x539 SWAP1 PUSH2 0x2315 JUMP JUMPDEST PUSH1 0x40 MLOAD DUP1 SWAP2 SUB SWAP1 REVERT JUMPDEST PUSH1 0x0 PUSH1 0x3 PUSH1 0x0 CALLER PUSH20 0xFFFFFFFFFFFFFFFFFFFFFFFFFFFFFFFFFFFFFFFF AND PUSH20 0xFFFFFFFFFFFFFFFFFFFFFFFFFFFFFFFFFFFFFFFF AND DUP2 MSTORE PUSH1 0x20 ADD SWAP1 DUP2 MSTORE PUSH1 0x20 ADD PUSH1 0x0 KECCAK256 PUSH1 0x0 ADD DUP1 SLOAD PUSH2 0x591 SWAP1 PUSH2 0x25B5 JUMP JUMPDEST DUP1 PUSH1 0x1F ADD PUSH1 0x20 DUP1 SWAP2 DIV MUL PUSH1 0x20 ADD PUSH1 0x40 MLOAD SWAP1 DUP2 ADD PUSH1 0x40 MSTORE DUP1 SWAP3 SWAP2 SWAP1 DUP2 DUP2 MSTORE PUSH1 0x20 ADD DUP3 DUP1 SLOAD PUSH2 0x5BD SWAP1 PUSH2 0x25B5 JUMP JUMPDEST DUP1 ISZERO PUSH2 0x60A JUMPI DUP1 PUSH1 0x1F LT PUSH2 0x5DF JUMPI PUSH2 0x100 DUP1 DUP4 SLOAD DIV MUL DUP4 MSTORE SWAP2 PUSH1 0x20 ADD SWAP2 PUSH2 0x60A JUMP JUMPDEST DUP3 ADD SWAP2 SWAP1 PUSH1 0x0 MSTORE PUSH1 0x20 PUSH1 0x0 KECCAK256 SWAP1 JUMPDEST DUP2 SLOAD DUP2 MSTORE SWAP1 PUSH1 0x1 ADD SWAP1 PUSH1 0x20 ADD DUP1 DUP4 GT PUSH2 0x5ED JUMPI DUP3 SWAP1 SUB PUSH1 0x1F AND DUP3 ADD SWAP2 JUMPDEST POP POP POP POP POP SWAP1 POP PUSH1 0x4 DUP2 PUSH1 0x40 MLOAD PUSH2 0x621 SWAP2 SWAP1 PUSH2 0x216D JUMP JUMPDEST SWAP1 DUP2 MSTORE PUSH1 0x20 ADD PUSH1 0x40 MLOAD DUP1 SWAP2 SUB SWAP1 KECCAK256 PUSH1 0x0 PUSH2 0x100 EXP DUP2 SLOAD SWAP1 PUSH20 0xFFFFFFFFFFFFFFFFFFFFFFFFFFFFFFFFFFFFFFFF MUL NOT AND SWAP1 SSTORE PUSH1 0x3 PUSH1 0x0 CALLER PUSH20 0xFFFFFFFFFFFFFFFFFFFFFFFFFFFFFFFFFFFFFFFF AND PUSH20 0xFFFFFFFFFFFFFFFFFFFFFFFFFFFFFFFFFFFFFFFF AND DUP2 MSTORE PUSH1 0x20 ADD SWAP1 DUP2 MSTORE PUSH1 0x20 ADD PUSH1 0x0 KECCAK256 PUSH1 0x0 DUP1 DUP3 ADD PUSH1 0x0 PUSH2 0x6A2 SWAP2 SWAP1 PUSH2 0x1BE8 JUMP JUMPDEST PUSH1 0x1 DUP3 ADD PUSH1 0x0 PUSH2 0x100 EXP DUP2 SLOAD SWAP1 PUSH1 0xFF MUL NOT AND SWAP1 SSTORE PUSH1 0x2 DUP3 ADD PUSH1 0x0 SWAP1 SSTORE PUSH1 0x3 DUP3 ADD PUSH1 0x0 PUSH2 0x100 EXP DUP2 SLOAD SWAP1 PUSH1 0xFF MUL NOT AND SWAP1 SSTORE PUSH1 0x4 DUP3 ADD PUSH1 0x0 PUSH2 0x6E2 SWAP2 SWAP1 PUSH2 0x1BE8 JUMP JUMPDEST POP POP PUSH1 0x1 SWAP2 POP POP SWAP1 JUMP JUMPDEST PUSH1 0x1 PUSH1 0x20 MSTORE DUP1 PUSH1 0x0 MSTORE PUSH1 0x40 PUSH1 0x0 KECCAK256 PUSH1 0x0 SWAP2 POP SWAP1 POP DUP1 PUSH1 0x0 ADD PUSH1 0x0 SWAP1 SLOAD SWAP1 PUSH2 0x100 EXP SWAP1 DIV PUSH20 0xFFFFFFFFFFFFFFFFFFFFFFFFFFFFFFFFFFFFFFFF AND SWAP1 DUP1 PUSH1 0x1 ADD SLOAD SWAP1 DUP1 PUSH1 0x2 ADD PUSH1 0x0 SWAP1 SLOAD SWAP1 PUSH2 0x100 EXP SWAP1 DIV PUSH20 0xFFFFFFFFFFFFFFFFFFFFFFFFFFFFFFFFFFFFFFFF AND SWAP1 DUP1 PUSH1 0x3 ADD DUP1 SLOAD PUSH2 0x761 SWAP1 PUSH2 0x25B5 JUMP JUMPDEST DUP1 PUSH1 0x1F ADD PUSH1 0x20 DUP1 SWAP2 DIV MUL PUSH1 0x20 ADD PUSH1 0x40 MLOAD SWAP1 DUP2 ADD PUSH1 0x40 MSTORE DUP1 SWAP3 SWAP2 SWAP1 DUP2 DUP2 MSTORE PUSH1 0x20 ADD DUP3 DUP1 SLOAD PUSH2 0x78D SWAP1 PUSH2 0x25B5 JUMP JUMPDEST DUP1 ISZERO PUSH2 0x7DA JUMPI DUP1 PUSH1 0x1F LT PUSH2 0x7AF JUMPI PUSH2 0x100 DUP1 DUP4 SLOAD DIV MUL DUP4 MSTORE SWAP2 PUSH1 0x20 ADD SWAP2 PUSH2 0x7DA JUMP JUMPDEST DUP3 ADD SWAP2 SWAP1 PUSH1 0x0 MSTORE PUSH1 0x20 PUSH1 0x0 KECCAK256 SWAP1 JUMPDEST DUP2 SLOAD DUP2 MSTORE SWAP1 PUSH1 0x1 ADD SWAP1 PUSH1 0x20 ADD DUP1 DUP4 GT PUSH2 0x7BD JUMPI DUP3 SWAP1 SUB PUSH1 0x1F AND DUP3 ADD SWAP2 JUMPDEST POP POP POP POP POP SWAP1 POP DUP5 JUMP JUMPDEST PUSH1 0x3 PUSH1 0x0 CALLER PUSH20 0xFFFFFFFFFFFFFFFFFFFFFFFFFFFFFFFFFFFFFFFF AND PUSH20 0xFFFFFFFFFFFFFFFFFFFFFFFFFFFFFFFFFFFFFFFF AND DUP2 MSTORE PUSH1 0x20 ADD SWAP1 DUP2 MSTORE PUSH1 0x20 ADD PUSH1 0x0 KECCAK256 PUSH1 0x3 ADD PUSH1 0x0 SWAP1 SLOAD SWAP1 PUSH2 0x100 EXP SWAP1 DIV PUSH1 0xFF AND PUSH2 0x873 JUMPI PUSH1 0x40 MLOAD PUSH32 0x8C379A000000000000000000000000000000000000000000000000000000000 DUP2 MSTORE PUSH1 0x4 ADD PUSH2 0x86A SWAP1 PUSH2 0x22D5 JUMP JUMPDEST PUSH1 0x40 MLOAD DUP1 SWAP2 SUB SWAP1 REVERT JUMPDEST PUSH1 0x0 PUSH20 0xFFFFFFFFFFFFFFFFFFFFFFFFFFFFFFFFFFFFFFFF AND PUSH1 0x4 DUP3 PUSH1 0x40 MLOAD PUSH2 0x89B SWAP2 SWAP1 PUSH2 0x216D JUMP JUMPDEST SWAP1 DUP2 MSTORE PUSH1 0x20 ADD PUSH1 0x40 MLOAD DUP1 SWAP2 SUB SWAP1 KECCAK256 PUSH1 0x0 SWAP1 SLOAD SWAP1 PUSH2 0x100 EXP SWAP1 DIV PUSH20 0xFFFFFFFFFFFFFFFFFFFFFFFFFFFFFFFFFFFFFFFF AND PUSH20 0xFFFFFFFFFFFFFFFFFFFFFFFFFFFFFFFFFFFFFFFF AND EQ PUSH2 0x920 JUMPI PUSH1 0x40 MLOAD PUSH32 0x8C379A000000000000000000000000000000000000000000000000000000000 DUP2 MSTORE PUSH1 0x4 ADD PUSH2 0x917 SWAP1 PUSH2 0x2375 JUMP JUMPDEST PUSH1 0x40 MLOAD DUP1 SWAP2 SUB SWAP1 REVERT JUMPDEST PUSH1 0x0 PUSH1 0x3 PUSH1 0x0 CALLER PUSH20 0xFFFFFFFFFFFFFFFFFFFFFFFFFFFFFFFFFFFFFFFF AND PUSH20 0xFFFFFFFFFFFFFFFFFFFFFFFFFFFFFFFFFFFFFFFF AND DUP2 MSTORE PUSH1 0x20 ADD SWAP1 DUP2 MSTORE PUSH1 0x20 ADD PUSH1 0x0 KECCAK256 PUSH1 0x0 ADD DUP1 SLOAD PUSH2 0x96F SWAP1 PUSH2 0x25B5 JUMP JUMPDEST DUP1 PUSH1 0x1F ADD PUSH1 0x20 DUP1 SWAP2 DIV MUL PUSH1 0x20 ADD PUSH1 0x40 MLOAD SWAP1 DUP2 ADD PUSH1 0x40 MSTORE DUP1 SWAP3 SWAP2 SWAP1 DUP2 DUP2 MSTORE PUSH1 0x20 ADD DUP3 DUP1 SLOAD PUSH2 0x99B SWAP1 PUSH2 0x25B5 JUMP JUMPDEST DUP1 ISZERO PUSH2 0x9E8 JUMPI DUP1 PUSH1 0x1F LT PUSH2 0x9BD JUMPI PUSH2 0x100 DUP1 DUP4 SLOAD DIV MUL DUP4 MSTORE SWAP2 PUSH1 0x20 ADD SWAP2 PUSH2 0x9E8 JUMP JUMPDEST DUP3 ADD SWAP2 SWAP1 PUSH1 0x0 MSTORE PUSH1 0x20 PUSH1 0x0 KECCAK256 SWAP1 JUMPDEST DUP2 SLOAD DUP2 MSTORE SWAP1 PUSH1 0x1 ADD SWAP1 PUSH1 0x20 ADD DUP1 DUP4 GT PUSH2 0x9CB JUMPI DUP3 SWAP1 SUB PUSH1 0x1F AND DUP3 ADD SWAP2 JUMPDEST POP POP POP POP POP SWAP1 POP PUSH1 0x4 DUP2 PUSH1 0x40 MLOAD PUSH2 0x9FF SWAP2 SWAP1 PUSH2 0x216D JUMP JUMPDEST SWAP1 DUP2 MSTORE PUSH1 0x20 ADD PUSH1 0x40 MLOAD DUP1 SWAP2 SUB SWAP1 KECCAK256 PUSH1 0x0 PUSH2 0x100 EXP DUP2 SLOAD SWAP1 PUSH20 0xFFFFFFFFFFFFFFFFFFFFFFFFFFFFFFFFFFFFFFFF MUL NOT AND SWAP1 SSTORE CALLER PUSH1 0x4 DUP4 PUSH1 0x40 MLOAD PUSH2 0xA41 SWAP2 SWAP1 PUSH2 0x216D JUMP JUMPDEST SWAP1 DUP2 MSTORE PUSH1 0x20 ADD PUSH1 0x40 MLOAD DUP1 SWAP2 SUB SWAP1 KECCAK256 PUSH1 0x0 PUSH2 0x100 EXP DUP2 SLOAD DUP2 PUSH20 0xFFFFFFFFFFFFFFFFFFFFFFFFFFFFFFFFFFFFFFFF MUL NOT AND SWAP1 DUP4 PUSH20 0xFFFFFFFFFFFFFFFFFFFFFFFFFFFFFFFFFFFFFFFF AND MUL OR SWAP1 SSTORE POP DUP2 PUSH1 0x3 PUSH1 0x0 CALLER PUSH20 0xFFFFFFFFFFFFFFFFFFFFFFFFFFFFFFFFFFFFFFFF AND PUSH20 0xFFFFFFFFFFFFFFFFFFFFFFFFFFFFFFFFFFFFFFFF AND DUP2 MSTORE PUSH1 0x20 ADD SWAP1 DUP2 MSTORE PUSH1 0x20 ADD PUSH1 0x0 KECCAK256 PUSH1 0x0 ADD SWAP1 DUP1 MLOAD SWAP1 PUSH1 0x20 ADD SWAP1 PUSH2 0xAE3 SWAP3 SWAP2 SWAP1 PUSH2 0x1B62 JUMP JUMPDEST POP POP POP JUMP JUMPDEST PUSH1 0x2 PUSH1 0x20 MSTORE DUP2 PUSH1 0x0 MSTORE PUSH1 0x40 PUSH1 0x0 KECCAK256 DUP2 DUP2 SLOAD DUP2 LT PUSH2 0xB04 JUMPI PUSH1 0x0 DUP1 REVERT JUMPDEST SWAP1 PUSH1 0x0 MSTORE PUSH1 0x20 PUSH1 0x0 KECCAK256 ADD PUSH1 0x0 SWAP2 POP SWAP2 POP POP SLOAD DUP2 JUMP JUMPDEST PUSH1 0x3 PUSH1 0x0 CALLER PUSH20 0xFFFFFFFFFFFFFFFFFFFFFFFFFFFFFFFFFFFFFFFF AND PUSH20 0xFFFFFFFFFFFFFFFFFFFFFFFFFFFFFFFFFFFFFFFF AND DUP2 MSTORE PUSH1 0x20 ADD SWAP1 DUP2 MSTORE PUSH1 0x20 ADD PUSH1 0x0 KECCAK256 PUSH1 0x1 ADD PUSH1 0x0 SWAP1 SLOAD SWAP1 PUSH2 0x100 EXP SWAP1 DIV PUSH1 0xFF AND PUSH2 0xBA8 JUMPI PUSH1 0x40 MLOAD PUSH32 0x8C379A000000000000000000000000000000000000000000000000000000000 DUP2 MSTORE PUSH1 0x4 ADD PUSH2 0xB9F SWAP1 PUSH2 0x22F5 JUMP JUMPDEST PUSH1 0x40 MLOAD DUP1 SWAP2 SUB SWAP1 REVERT JUMPDEST PUSH1 0x3 PUSH1 0x0 CALLER PUSH20 0xFFFFFFFFFFFFFFFFFFFFFFFFFFFFFFFFFFFFFFFF AND PUSH20 0xFFFFFFFFFFFFFFFFFFFFFFFFFFFFFFFFFFFFFFFF AND DUP2 MSTORE PUSH1 0x20 ADD SWAP1 DUP2 MSTORE PUSH1 0x20 ADD PUSH1 0x0 KECCAK256 PUSH1 0x3 ADD PUSH1 0x0 SWAP1 SLOAD SWAP1 PUSH2 0x100 EXP SWAP1 DIV PUSH1 0xFF AND ISZERO PUSH2 0xC38 JUMPI PUSH1 0x40 MLOAD PUSH32 0x8C379A000000000000000000000000000000000000000000000000000000000 DUP2 MSTORE PUSH1 0x4 ADD PUSH2 0xC2F SWAP1 PUSH2 0x2295 JUMP JUMPDEST PUSH1 0x40 MLOAD DUP1 SWAP2 SUB SWAP1 REVERT JUMPDEST PUSH1 0x1 PUSH1 0x3 PUSH1 0x0 CALLER PUSH20 0xFFFFFFFFFFFFFFFFFFFFFFFFFFFFFFFFFFFFFFFF AND PUSH20 0xFFFFFFFFFFFFFFFFFFFFFFFFFFFFFFFFFFFFFFFF AND DUP2 MSTORE PUSH1 0x20 ADD SWAP1 DUP2 MSTORE PUSH1 0x20 ADD PUSH1 0x0 KECCAK256 PUSH1 0x3 ADD PUSH1 0x0 PUSH2 0x100 EXP DUP2 SLOAD DUP2 PUSH1 0xFF MUL NOT AND SWAP1 DUP4 ISZERO ISZERO MUL OR SWAP1 SSTORE POP CALLER PUSH20 0xFFFFFFFFFFFFFFFFFFFFFFFFFFFFFFFFFFFFFFFF AND PUSH32 0x364034DE78A61B6190B049E2C5437370B27906BFED607993A5BC2DDA23C16CFF TIMESTAMP PUSH1 0x40 MLOAD PUSH2 0xCD9 SWAP2 SWAP1 PUSH2 0x23B5 JUMP JUMPDEST PUSH1 0x40 MLOAD DUP1 SWAP2 SUB SWAP1 LOG2 JUMP JUMPDEST PUSH1 0x0 DUP1 PUSH1 0x0 PUSH1 0x60 PUSH1 0x0 DUP6 SWAP1 POP PUSH1 0x1 PUSH1 0x0 DUP3 DUP2 MSTORE PUSH1 0x20 ADD SWAP1 DUP2 MSTORE PUSH1 0x20 ADD PUSH1 0x0 KECCAK256 PUSH1 0x0 ADD PUSH1 0x0 SWAP1 SLOAD SWAP1 PUSH2 0x100 EXP SWAP1 DIV PUSH20 0xFFFFFFFFFFFFFFFFFFFFFFFFFFFFFFFFFFFFFFFF AND PUSH1 0x1 PUSH1 0x0 DUP4 DUP2 MSTORE PUSH1 0x20 ADD SWAP1 DUP2 MSTORE PUSH1 0x20 ADD PUSH1 0x0 KECCAK256 PUSH1 0x1 ADD SLOAD PUSH1 0x1 PUSH1 0x0 DUP5 DUP2 MSTORE PUSH1 0x20 ADD SWAP1 DUP2 MSTORE PUSH1 0x20 ADD PUSH1 0x0 KECCAK256 PUSH1 0x2 ADD PUSH1 0x0 SWAP1 SLOAD SWAP1 PUSH2 0x100 EXP SWAP1 DIV PUSH20 0xFFFFFFFFFFFFFFFFFFFFFFFFFFFFFFFFFFFFFFFF AND PUSH1 0x1 PUSH1 0x0 DUP6 DUP2 MSTORE PUSH1 0x20 ADD SWAP1 DUP2 MSTORE PUSH1 0x20 ADD PUSH1 0x0 KECCAK256 PUSH1 0x3 ADD DUP1 DUP1 SLOAD PUSH2 0xD96 SWAP1 PUSH2 0x25B5 JUMP JUMPDEST DUP1 PUSH1 0x1F ADD PUSH1 0x20 DUP1 SWAP2 DIV MUL PUSH1 0x20 ADD PUSH1 0x40 MLOAD SWAP1 DUP2 ADD PUSH1 0x40 MSTORE DUP1 SWAP3 SWAP2 SWAP1 DUP2 DUP2 MSTORE PUSH1 0x20 ADD DUP3 DUP1 SLOAD PUSH2 0xDC2 SWAP1 PUSH2 0x25B5 JUMP JUMPDEST DUP1 ISZERO PUSH2 0xE0F JUMPI DUP1 PUSH1 0x1F LT PUSH2 0xDE4 JUMPI PUSH2 0x100 DUP1 DUP4 SLOAD DIV MUL DUP4 MSTORE SWAP2 PUSH1 0x20 ADD SWAP2 PUSH2 0xE0F JUMP JUMPDEST DUP3 ADD SWAP2 SWAP1 PUSH1 0x0 MSTORE PUSH1 0x20 PUSH1 0x0 KECCAK256 SWAP1 JUMPDEST DUP2 SLOAD DUP2 MSTORE SWAP1 PUSH1 0x1 ADD SWAP1 PUSH1 0x20 ADD DUP1 DUP4 GT PUSH2 0xDF2 JUMPI DUP3 SWAP1 SUB PUSH1 0x1F AND DUP3 ADD SWAP2 JUMPDEST POP POP POP POP POP SWAP1 POP SWAP5 POP SWAP5 POP SWAP5 POP SWAP5 POP POP SWAP2 SWAP4 POP SWAP2 SWAP4 JUMP JUMPDEST PUSH1 0x3 PUSH1 0x0 CALLER PUSH20 0xFFFFFFFFFFFFFFFFFFFFFFFFFFFFFFFFFFFFFFFF AND PUSH20 0xFFFFFFFFFFFFFFFFFFFFFFFFFFFFFFFFFFFFFFFF AND DUP2 MSTORE PUSH1 0x20 ADD SWAP1 DUP2 MSTORE PUSH1 0x20 ADD PUSH1 0x0 KECCAK256 PUSH1 0x3 ADD PUSH1 0x0 SWAP1 SLOAD SWAP1 PUSH2 0x100 EXP SWAP1 DIV PUSH1 0xFF AND PUSH2 0xEB5 JUMPI PUSH1 0x40 MLOAD PUSH32 0x8C379A000000000000000000000000000000000000000000000000000000000 DUP2 MSTORE PUSH1 0x4 ADD PUSH2 0xEAC SWAP1 PUSH2 0x2335 JUMP JUMPDEST PUSH1 0x40 MLOAD DUP1 SWAP2 SUB SWAP1 REVERT JUMPDEST PUSH1 0x0 PUSH1 0x3 PUSH1 0x0 CALLER PUSH20 0xFFFFFFFFFFFFFFFFFFFFFFFFFFFFFFFFFFFFFFFF AND PUSH20 0xFFFFFFFFFFFFFFFFFFFFFFFFFFFFFFFFFFFFFFFF AND DUP2 MSTORE PUSH1 0x20 ADD SWAP1 DUP2 MSTORE PUSH1 0x20 ADD PUSH1 0x0 KECCAK256 PUSH1 0x3 ADD PUSH1 0x0 PUSH2 0x100 EXP DUP2 SLOAD DUP2 PUSH1 0xFF MUL NOT AND SWAP1 DUP4 ISZERO ISZERO MUL OR SWAP1 SSTORE POP CALLER PUSH20 0xFFFFFFFFFFFFFFFFFFFFFFFFFFFFFFFFFFFFFFFF AND PUSH32 0x70D1177AA26C67F6B2FDB43400CFD7FF0C23A8712301ABE5ABA2EE3D89E28A10 TIMESTAMP PUSH1 0x40 MLOAD PUSH2 0xF56 SWAP2 SWAP1 PUSH2 0x23B5 JUMP JUMPDEST PUSH1 0x40 MLOAD DUP1 SWAP2 SUB SWAP1 LOG2 JUMP JUMPDEST PUSH1 0x60 PUSH1 0x2 PUSH1 0x0 DUP4 PUSH20 0xFFFFFFFFFFFFFFFFFFFFFFFFFFFFFFFFFFFFFFFF AND PUSH20 0xFFFFFFFFFFFFFFFFFFFFFFFFFFFFFFFFFFFFFFFF AND DUP2 MSTORE PUSH1 0x20 ADD SWAP1 DUP2 MSTORE PUSH1 0x20 ADD PUSH1 0x0 KECCAK256 DUP1 SLOAD DUP1 PUSH1 0x20 MUL PUSH1 0x20 ADD PUSH1 0x40 MLOAD SWAP1 DUP2 ADD PUSH1 0x40 MSTORE DUP1 SWAP3 SWAP2 SWAP1 DUP2 DUP2 MSTORE PUSH1 0x20 ADD DUP3 DUP1 SLOAD DUP1 ISZERO PUSH2 0xFEB JUMPI PUSH1 0x20 MUL DUP3 ADD SWAP2 SWAP1 PUSH1 0x0 MSTORE PUSH1 0x20 PUSH1 0x0 KECCAK256 SWAP1 JUMPDEST DUP2 SLOAD DUP2 MSTORE PUSH1 0x20 ADD SWAP1 PUSH1 0x1 ADD SWAP1 DUP1 DUP4 GT PUSH2 0xFD7 JUMPI JUMPDEST POP POP POP POP POP SWAP1 POP SWAP2 SWAP1 POP JUMP JUMPDEST PUSH1 0x4 DUP2 DUP1 MLOAD PUSH1 0x20 DUP2 ADD DUP3 ADD DUP1 MLOAD DUP5 DUP3 MSTORE PUSH1 0x20 DUP4 ADD PUSH1 0x20 DUP6 ADD KECCAK256 DUP2 DUP4 MSTORE DUP1 SWAP6 POP POP POP POP POP POP PUSH1 0x0 SWAP2 POP SLOAD SWAP1 PUSH2 0x100 EXP SWAP1 DIV PUSH20 0xFFFFFFFFFFFFFFFFFFFFFFFFFFFFFFFFFFFFFFFF AND DUP2 JUMP JUMPDEST PUSH1 0x5 PUSH1 0x20 MSTORE DUP1 PUSH1 0x0 MSTORE PUSH1 0x40 PUSH1 0x0 KECCAK256 PUSH1 0x0 SWAP2 POP SWAP1 POP DUP1 PUSH1 0x0 ADD SLOAD SWAP1 DUP1 PUSH1 0x1 ADD SLOAD SWAP1 DUP1 PUSH1 0x2 ADD SLOAD SWAP1 DUP1 PUSH1 0x3 ADD SLOAD SWAP1 POP DUP5 JUMP JUMPDEST DUP4 PUSH1 0x5 PUSH1 0x0 DUP8 PUSH20 0xFFFFFFFFFFFFFFFFFFFFFFFFFFFFFFFFFFFFFFFF AND PUSH20 0xFFFFFFFFFFFFFFFFFFFFFFFFFFFFFFFFFFFFFFFF AND DUP2 MSTORE PUSH1 0x20 ADD SWAP1 DUP2 MSTORE PUSH1 0x20 ADD PUSH1 0x0 KECCAK256 PUSH1 0x0 ADD PUSH1 0x0 DUP3 DUP3 SLOAD PUSH2 0x10C2 SWAP2 SWAP1 PUSH2 0x24CB JUMP JUMPDEST SWAP3 POP POP DUP2 SWAP1 SSTORE POP DUP3 PUSH1 0x5 PUSH1 0x0 DUP8 PUSH20 0xFFFFFFFFFFFFFFFFFFFFFFFFFFFFFFFFFFFFFFFF AND PUSH20 0xFFFFFFFFFFFFFFFFFFFFFFFFFFFFFFFFFFFFFFFF AND DUP2 MSTORE PUSH1 0x20 ADD SWAP1 DUP2 MSTORE PUSH1 0x20 ADD PUSH1 0x0 KECCAK256 PUSH1 0x1 ADD PUSH1 0x0 DUP3 DUP3 SLOAD PUSH2 0x111B SWAP2 SWAP1 PUSH2 0x24CB JUMP JUMPDEST SWAP3 POP POP DUP2 SWAP1 SSTORE POP DUP2 PUSH1 0x5 PUSH1 0x0 DUP8 PUSH20 0xFFFFFFFFFFFFFFFFFFFFFFFFFFFFFFFFFFFFFFFF AND PUSH20 0xFFFFFFFFFFFFFFFFFFFFFFFFFFFFFFFFFFFFFFFF AND DUP2 MSTORE PUSH1 0x20 ADD SWAP1 DUP2 MSTORE PUSH1 0x20 ADD PUSH1 0x0 KECCAK256 PUSH1 0x2 ADD PUSH1 0x0 DUP3 DUP3 SLOAD PUSH2 0x1174 SWAP2 SWAP1 PUSH2 0x24CB JUMP JUMPDEST SWAP3 POP POP DUP2 SWAP1 SSTORE POP DUP1 PUSH1 0x5 PUSH1 0x0 DUP8 PUSH20 0xFFFFFFFFFFFFFFFFFFFFFFFFFFFFFFFFFFFFFFFF AND PUSH20 0xFFFFFFFFFFFFFFFFFFFFFFFFFFFFFFFFFFFFFFFF AND DUP2 MSTORE PUSH1 0x20 ADD SWAP1 DUP2 MSTORE PUSH1 0x20 ADD PUSH1 0x0 KECCAK256 PUSH1 0x3 ADD PUSH1 0x0 DUP3 DUP3 SLOAD PUSH2 0x11CD SWAP2 SWAP1 PUSH2 0x24CB JUMP JUMPDEST SWAP3 POP POP DUP2 SWAP1 SSTORE POP POP POP POP POP POP JUMP JUMPDEST PUSH1 0x0 DUP1 PUSH1 0x0 DUP1 PUSH1 0x5 PUSH1 0x0 DUP7 PUSH20 0xFFFFFFFFFFFFFFFFFFFFFFFFFFFFFFFFFFFFFFFF AND PUSH20 0xFFFFFFFFFFFFFFFFFFFFFFFFFFFFFFFFFFFFFFFF AND DUP2 MSTORE PUSH1 0x20 ADD SWAP1 DUP2 MSTORE PUSH1 0x20 ADD PUSH1 0x0 KECCAK256 PUSH1 0x2 ADD SLOAD PUSH1 0x5 PUSH1 0x0 DUP8 PUSH20 0xFFFFFFFFFFFFFFFFFFFFFFFFFFFFFFFFFFFFFFFF AND PUSH20 0xFFFFFFFFFFFFFFFFFFFFFFFFFFFFFFFFFFFFFFFF AND DUP2 MSTORE PUSH1 0x20 ADD SWAP1 DUP2 MSTORE PUSH1 0x20 ADD PUSH1 0x0 KECCAK256 PUSH1 0x3 ADD SLOAD PUSH1 0x5 PUSH1 0x0 DUP9 PUSH20 0xFFFFFFFFFFFFFFFFFFFFFFFFFFFFFFFFFFFFFFFF AND PUSH20 0xFFFFFFFFFFFFFFFFFFFFFFFFFFFFFFFFFFFFFFFF AND DUP2 MSTORE PUSH1 0x20 ADD SWAP1 DUP2 MSTORE PUSH1 0x20 ADD PUSH1 0x0 KECCAK256 PUSH1 0x0 ADD SLOAD PUSH1 0x5 PUSH1 0x0 DUP10 PUSH20 0xFFFFFFFFFFFFFFFFFFFFFFFFFFFFFFFFFFFFFFFF AND PUSH20 0xFFFFFFFFFFFFFFFFFFFFFFFFFFFFFFFFFFFFFFFF AND DUP2 MSTORE PUSH1 0x20 ADD SWAP1 DUP2 MSTORE PUSH1 0x20 ADD PUSH1 0x0 KECCAK256 PUSH1 0x1 ADD SLOAD SWAP4 POP SWAP4 POP SWAP4 POP SWAP4 POP SWAP2 SWAP4 POP SWAP2 SWAP4 JUMP JUMPDEST PUSH1 0x0 PUSH2 0x1308 DUP5 DUP5 PUSH2 0x1B2F JUMP JUMPDEST SWAP1 POP DUP4 PUSH1 0x1 PUSH1 0x0 DUP4 DUP2 MSTORE PUSH1 0x20 ADD SWAP1 DUP2 MSTORE PUSH1 0x20 ADD PUSH1 0x0 KECCAK256 PUSH1 0x0 ADD PUSH1 0x0 PUSH2 0x100 EXP DUP2 SLOAD DUP2 PUSH20 0xFFFFFFFFFFFFFFFFFFFFFFFFFFFFFFFFFFFFFFFF MUL NOT AND SWAP1 DUP4 PUSH20 0xFFFFFFFFFFFFFFFFFFFFFFFFFFFFFFFFFFFFFFFF AND MUL OR SWAP1 SSTORE POP DUP3 PUSH1 0x1 PUSH1 0x0 DUP4 DUP2 MSTORE PUSH1 0x20 ADD SWAP1 DUP2 MSTORE PUSH1 0x20 ADD PUSH1 0x0 KECCAK256 PUSH1 0x1 ADD DUP2 SWAP1 SSTORE POP DUP5 PUSH1 0x1 PUSH1 0x0 DUP4 DUP2 MSTORE PUSH1 0x20 ADD SWAP1 DUP2 MSTORE PUSH1 0x20 ADD PUSH1 0x0 KECCAK256 PUSH1 0x2 ADD PUSH1 0x0 PUSH2 0x100 EXP DUP2 SLOAD DUP2 PUSH20 0xFFFFFFFFFFFFFFFFFFFFFFFFFFFFFFFFFFFFFFFF MUL NOT AND SWAP1 DUP4 PUSH20 0xFFFFFFFFFFFFFFFFFFFFFFFFFFFFFFFFFFFFFFFF AND MUL OR SWAP1 SSTORE POP DUP2 PUSH1 0x1 PUSH1 0x0 DUP4 DUP2 MSTORE PUSH1 0x20 ADD SWAP1 DUP2 MSTORE PUSH1 0x20 ADD PUSH1 0x0 KECCAK256 PUSH1 0x3 ADD SWAP1 DUP1 MLOAD SWAP1 PUSH1 0x20 ADD SWAP1 PUSH2 0x13F9 SWAP3 SWAP2 SWAP1 PUSH2 0x1B62 JUMP JUMPDEST POP PUSH1 0x2 PUSH1 0x0 DUP7 PUSH20 0xFFFFFFFFFFFFFFFFFFFFFFFFFFFFFFFFFFFFFFFF AND PUSH20 0xFFFFFFFFFFFFFFFFFFFFFFFFFFFFFFFFFFFFFFFF AND DUP2 MSTORE PUSH1 0x20 ADD SWAP1 DUP2 MSTORE PUSH1 0x20 ADD PUSH1 0x0 KECCAK256 DUP2 SWAP1 DUP1 PUSH1 0x1 DUP2 SLOAD ADD DUP1 DUP3 SSTORE DUP1 SWAP2 POP POP PUSH1 0x1 SWAP1 SUB SWAP1 PUSH1 0x0 MSTORE PUSH1 0x20 PUSH1 0x0 KECCAK256 ADD PUSH1 0x0 SWAP1 SWAP2 SWAP1 SWAP2 SWAP1 SWAP2 POP SSTORE POP POP POP POP POP JUMP JUMPDEST PUSH1 0x3 PUSH1 0x0 CALLER PUSH20 0xFFFFFFFFFFFFFFFFFFFFFFFFFFFFFFFFFFFFFFFF AND PUSH20 0xFFFFFFFFFFFFFFFFFFFFFFFFFFFFFFFFFFFFFFFF AND DUP2 MSTORE PUSH1 0x20 ADD SWAP1 DUP2 MSTORE PUSH1 0x20 ADD PUSH1 0x0 KECCAK256 PUSH1 0x1 ADD PUSH1 0x0 SWAP1 SLOAD SWAP1 PUSH2 0x100 EXP SWAP1 DIV PUSH1 0xFF AND ISZERO PUSH2 0x14F7 JUMPI PUSH1 0x40 MLOAD PUSH32 0x8C379A000000000000000000000000000000000000000000000000000000000 DUP2 MSTORE PUSH1 0x4 ADD PUSH2 0x14EE SWAP1 PUSH2 0x2395 JUMP JUMPDEST PUSH1 0x40 MLOAD DUP1 SWAP2 SUB SWAP1 REVERT JUMPDEST PUSH1 0x0 PUSH20 0xFFFFFFFFFFFFFFFFFFFFFFFFFFFFFFFFFFFFFFFF AND PUSH1 0x4 DUP3 PUSH1 0x40 MLOAD PUSH2 0x151F SWAP2 SWAP1 PUSH2 0x216D JUMP JUMPDEST SWAP1 DUP2 MSTORE PUSH1 0x20 ADD PUSH1 0x40 MLOAD DUP1 SWAP2 SUB SWAP1 KECCAK256 PUSH1 0x0 SWAP1 SLOAD SWAP1 PUSH2 0x100 EXP SWAP1 DIV PUSH20 0xFFFFFFFFFFFFFFFFFFFFFFFFFFFFFFFFFFFFFFFF AND PUSH20 0xFFFFFFFFFFFFFFFFFFFFFFFFFFFFFFFFFFFFFFFF AND EQ PUSH2 0x15A4 JUMPI PUSH1 0x40 MLOAD PUSH32 0x8C379A000000000000000000000000000000000000000000000000000000000 DUP2 MSTORE PUSH1 0x4 ADD PUSH2 0x159B SWAP1 PUSH2 0x2375 JUMP JUMPDEST PUSH1 0x40 MLOAD DUP1 SWAP2 SUB SWAP1 REVERT JUMPDEST DUP1 PUSH1 0x3 PUSH1 0x0 CALLER PUSH20 0xFFFFFFFFFFFFFFFFFFFFFFFFFFFFFFFFFFFFFFFF AND PUSH20 0xFFFFFFFFFFFFFFFFFFFFFFFFFFFFFFFFFFFFFFFF AND DUP2 MSTORE PUSH1 0x20 ADD SWAP1 DUP2 MSTORE PUSH1 0x20 ADD PUSH1 0x0 KECCAK256 PUSH1 0x0 ADD SWAP1 DUP1 MLOAD SWAP1 PUSH1 0x20 ADD SWAP1 PUSH2 0x15FA SWAP3 SWAP2 SWAP1 PUSH2 0x1B62 JUMP JUMPDEST POP PUSH1 0x1 PUSH1 0x3 PUSH1 0x0 CALLER PUSH20 0xFFFFFFFFFFFFFFFFFFFFFFFFFFFFFFFFFFFFFFFF AND PUSH20 0xFFFFFFFFFFFFFFFFFFFFFFFFFFFFFFFFFFFFFFFF AND DUP2 MSTORE PUSH1 0x20 ADD SWAP1 DUP2 MSTORE PUSH1 0x20 ADD PUSH1 0x0 KECCAK256 PUSH1 0x1 ADD PUSH1 0x0 PUSH2 0x100 EXP DUP2 SLOAD DUP2 PUSH1 0xFF MUL NOT AND SWAP1 DUP4 ISZERO ISZERO MUL OR SWAP1 SSTORE POP TIMESTAMP PUSH1 0x3 PUSH1 0x0 CALLER PUSH20 0xFFFFFFFFFFFFFFFFFFFFFFFFFFFFFFFFFFFFFFFF AND PUSH20 0xFFFFFFFFFFFFFFFFFFFFFFFFFFFFFFFFFFFFFFFF AND DUP2 MSTORE PUSH1 0x20 ADD SWAP1 DUP2 MSTORE PUSH1 0x20 ADD PUSH1 0x0 KECCAK256 PUSH1 0x2 ADD DUP2 SWAP1 SSTORE POP PUSH1 0x1 PUSH1 0x3 PUSH1 0x0 CALLER PUSH20 0xFFFFFFFFFFFFFFFFFFFFFFFFFFFFFFFFFFFFFFFF AND PUSH20 0xFFFFFFFFFFFFFFFFFFFFFFFFFFFFFFFFFFFFFFFF AND DUP2 MSTORE PUSH1 0x20 ADD SWAP1 DUP2 MSTORE PUSH1 0x20 ADD PUSH1 0x0 KECCAK256 PUSH1 0x3 ADD PUSH1 0x0 PUSH2 0x100 EXP DUP2 SLOAD DUP2 PUSH1 0xFF MUL NOT AND SWAP1 DUP4 ISZERO ISZERO MUL OR SWAP1 SSTORE POP CALLER PUSH1 0x4 DUP3 PUSH1 0x40 MLOAD PUSH2 0x1709 SWAP2 SWAP1 PUSH2 0x216D JUMP JUMPDEST SWAP1 DUP2 MSTORE PUSH1 0x20 ADD PUSH1 0x40 MLOAD DUP1 SWAP2 SUB SWAP1 KECCAK256 PUSH1 0x0 PUSH2 0x100 EXP DUP2 SLOAD DUP2 PUSH20 0xFFFFFFFFFFFFFFFFFFFFFFFFFFFFFFFFFFFFFFFF MUL NOT AND SWAP1 DUP4 PUSH20 0xFFFFFFFFFFFFFFFFFFFFFFFFFFFFFFFFFFFFFFFF AND MUL OR SWAP1 SSTORE POP CALLER PUSH20 0xFFFFFFFFFFFFFFFFFFFFFFFFFFFFFFFFFFFFFFFF AND PUSH32 0xEE20C2C019DCBCA8D08FF74C4CE6F465E02D3611905C9ACEEB76A0C8E429AF2F DUP3 TIMESTAMP PUSH1 0x40 MLOAD PUSH2 0x179D SWAP3 SWAP2 SWAP1 PUSH2 0x2265 JUMP JUMPDEST PUSH1 0x40 MLOAD DUP1 SWAP2 SUB SWAP1 LOG2 POP JUMP JUMPDEST PUSH1 0x60 PUSH1 0x3 PUSH1 0x0 CALLER PUSH20 0xFFFFFFFFFFFFFFFFFFFFFFFFFFFFFFFFFFFFFFFF AND PUSH20 0xFFFFFFFFFFFFFFFFFFFFFFFFFFFFFFFFFFFFFFFF AND DUP2 MSTORE PUSH1 0x20 ADD SWAP1 DUP2 MSTORE PUSH1 0x20 ADD PUSH1 0x0 KECCAK256 PUSH1 0x3 ADD PUSH1 0x0 SWAP1 SLOAD SWAP1 PUSH2 0x100 EXP SWAP1 DIV PUSH1 0xFF AND PUSH2 0x1839 JUMPI PUSH1 0x40 MLOAD PUSH32 0x8C379A000000000000000000000000000000000000000000000000000000000 DUP2 MSTORE PUSH1 0x4 ADD PUSH2 0x1830 SWAP1 PUSH2 0x22B5 JUMP JUMPDEST PUSH1 0x40 MLOAD DUP1 SWAP2 SUB SWAP1 REVERT JUMPDEST PUSH1 0x3 PUSH1 0x0 CALLER PUSH20 0xFFFFFFFFFFFFFFFFFFFFFFFFFFFFFFFFFFFFFFFF AND PUSH20 0xFFFFFFFFFFFFFFFFFFFFFFFFFFFFFFFFFFFFFFFF AND DUP2 MSTORE PUSH1 0x20 ADD SWAP1 DUP2 MSTORE PUSH1 0x20 ADD PUSH1 0x0 KECCAK256 PUSH1 0x0 ADD DUP1 SLOAD PUSH2 0x1886 SWAP1 PUSH2 0x25B5 JUMP JUMPDEST DUP1 PUSH1 0x1F ADD PUSH1 0x20 DUP1 SWAP2 DIV MUL PUSH1 0x20 ADD PUSH1 0x40 MLOAD SWAP1 DUP2 ADD PUSH1 0x40 MSTORE DUP1 SWAP3 SWAP2 SWAP1 DUP2 DUP2 MSTORE PUSH1 0x20 ADD DUP3 DUP1 SLOAD PUSH2 0x18B2 SWAP1 PUSH2 0x25B5 JUMP JUMPDEST DUP1 ISZERO PUSH2 0x18FF JUMPI DUP1 PUSH1 0x1F LT PUSH2 0x18D4 JUMPI PUSH2 0x100 DUP1 DUP4 SLOAD DIV MUL DUP4 MSTORE SWAP2 PUSH1 0x20 ADD SWAP2 PUSH2 0x18FF JUMP JUMPDEST DUP3 ADD SWAP2 SWAP1 PUSH1 0x0 MSTORE PUSH1 0x20 PUSH1 0x0 KECCAK256 SWAP1 JUMPDEST DUP2 SLOAD DUP2 MSTORE SWAP1 PUSH1 0x1 ADD SWAP1 PUSH1 0x20 ADD DUP1 DUP4 GT PUSH2 0x18E2 JUMPI DUP3 SWAP1 SUB PUSH1 0x1F AND DUP3 ADD SWAP2 JUMPDEST POP POP POP POP POP SWAP1 POP SWAP1 JUMP JUMPDEST PUSH1 0x0 PUSH2 0x1915 DUP5 DUP5 PUSH2 0x1B2F JUMP JUMPDEST SWAP1 POP DUP5 PUSH1 0x1 PUSH1 0x0 DUP4 DUP2 MSTORE PUSH1 0x20 ADD SWAP1 DUP2 MSTORE PUSH1 0x20 ADD PUSH1 0x0 KECCAK256 PUSH1 0x2 ADD PUSH1 0x0 PUSH2 0x100 EXP DUP2 SLOAD DUP2 PUSH20 0xFFFFFFFFFFFFFFFFFFFFFFFFFFFFFFFFFFFFFFFF MUL NOT AND SWAP1 DUP4 PUSH20 0xFFFFFFFFFFFFFFFFFFFFFFFFFFFFFFFFFFFFFFFF AND MUL OR SWAP1 SSTORE POP DUP2 PUSH1 0x1 PUSH1 0x0 DUP4 DUP2 MSTORE PUSH1 0x20 ADD SWAP1 DUP2 MSTORE PUSH1 0x20 ADD PUSH1 0x0 KECCAK256 PUSH1 0x3 ADD SWAP1 DUP1 MLOAD SWAP1 PUSH1 0x20 ADD SWAP1 PUSH2 0x1996 SWAP3 SWAP2 SWAP1 PUSH2 0x1B62 JUMP JUMPDEST POP PUSH1 0x2 PUSH1 0x0 DUP7 PUSH20 0xFFFFFFFFFFFFFFFFFFFFFFFFFFFFFFFFFFFFFFFF AND PUSH20 0xFFFFFFFFFFFFFFFFFFFFFFFFFFFFFFFFFFFFFFFF AND DUP2 MSTORE PUSH1 0x20 ADD SWAP1 DUP2 MSTORE PUSH1 0x20 ADD PUSH1 0x0 KECCAK256 DUP2 SWAP1 DUP1 PUSH1 0x1 DUP2 SLOAD ADD DUP1 DUP3 SSTORE DUP1 SWAP2 POP POP PUSH1 0x1 SWAP1 SUB SWAP1 PUSH1 0x0 MSTORE PUSH1 0x20 PUSH1 0x0 KECCAK256 ADD PUSH1 0x0 SWAP1 SWAP2 SWAP1 SWAP2 SWAP1 SWAP2 POP SSTORE POP POP POP POP POP JUMP JUMPDEST PUSH1 0x60 PUSH1 0x3 PUSH1 0x0 CALLER PUSH20 0xFFFFFFFFFFFFFFFFFFFFFFFFFFFFFFFFFFFFFFFF AND PUSH20 0xFFFFFFFFFFFFFFFFFFFFFFFFFFFFFFFFFFFFFFFF AND DUP2 MSTORE PUSH1 0x20 ADD SWAP1 DUP2 MSTORE PUSH1 0x20 ADD PUSH1 0x0 KECCAK256 PUSH1 0x4 ADD DUP1 SLOAD PUSH2 0x1A53 SWAP1 PUSH2 0x25B5 JUMP JUMPDEST DUP1 PUSH1 0x1F ADD PUSH1 0x20 DUP1 SWAP2 DIV MUL PUSH1 0x20 ADD PUSH1 0x40 MLOAD SWAP1 DUP2 ADD PUSH1 0x40 MSTORE DUP1 SWAP3 SWAP2 SWAP1 DUP2 DUP2 MSTORE PUSH1 0x20 ADD DUP3 DUP1 SLOAD PUSH2 0x1A7F SWAP1 PUSH2 0x25B5 JUMP JUMPDEST DUP1 ISZERO PUSH2 0x1ACC JUMPI DUP1 PUSH1 0x1F LT PUSH2 0x1AA1 JUMPI PUSH2 0x100 DUP1 DUP4 SLOAD DIV MUL DUP4 MSTORE SWAP2 PUSH1 0x20 ADD SWAP2 PUSH2 0x1ACC JUMP JUMPDEST DUP3 ADD SWAP2 SWAP1 PUSH1 0x0 MSTORE PUSH1 0x20 PUSH1 0x0 KECCAK256 SWAP1 JUMPDEST DUP2 SLOAD DUP2 MSTORE SWAP1 PUSH1 0x1 ADD SWAP1 PUSH1 0x20 ADD DUP1 DUP4 GT PUSH2 0x1AAF JUMPI DUP3 SWAP1 SUB PUSH1 0x1F AND DUP3 ADD SWAP2 JUMPDEST POP POP POP POP POP SWAP1 POP SWAP1 JUMP JUMPDEST PUSH1 0x0 PUSH1 0x3 PUSH1 0x0 DUP4 PUSH20 0xFFFFFFFFFFFFFFFFFFFFFFFFFFFFFFFFFFFFFFFF AND PUSH20 0xFFFFFFFFFFFFFFFFFFFFFFFFFFFFFFFFFFFFFFFF AND DUP2 MSTORE PUSH1 0x20 ADD SWAP1 DUP2 MSTORE PUSH1 0x20 ADD PUSH1 0x0 KECCAK256 PUSH1 0x3 ADD PUSH1 0x0 SWAP1 SLOAD SWAP1 PUSH2 0x100 EXP SWAP1 DIV PUSH1 0xFF AND SWAP1 POP SWAP2 SWAP1 POP JUMP JUMPDEST PUSH1 0x0 DUP3 DUP3 PUSH1 0x40 MLOAD PUSH1 0x20 ADD PUSH2 0x1B44 SWAP3 SWAP2 SWAP1 PUSH2 0x2141 JUMP JUMPDEST PUSH1 0x40 MLOAD PUSH1 0x20 DUP2 DUP4 SUB SUB DUP2 MSTORE SWAP1 PUSH1 0x40 MSTORE DUP1 MLOAD SWAP1 PUSH1 0x20 ADD KECCAK256 SWAP1 POP SWAP3 SWAP2 POP POP JUMP JUMPDEST DUP3 DUP1 SLOAD PUSH2 0x1B6E SWAP1 PUSH2 0x25B5 JUMP JUMPDEST SWAP1 PUSH1 0x0 MSTORE PUSH1 0x20 PUSH1 0x0 KECCAK256 SWAP1 PUSH1 0x1F ADD PUSH1 0x20 SWAP1 DIV DUP2 ADD SWAP3 DUP3 PUSH2 0x1B90 JUMPI PUSH1 0x0 DUP6 SSTORE PUSH2 0x1BD7 JUMP JUMPDEST DUP3 PUSH1 0x1F LT PUSH2 0x1BA9 JUMPI DUP1 MLOAD PUSH1 0xFF NOT AND DUP4 DUP1 ADD OR DUP6 SSTORE PUSH2 0x1BD7 JUMP JUMPDEST DUP3 DUP1 ADD PUSH1 0x1 ADD DUP6 SSTORE DUP3 ISZERO PUSH2 0x1BD7 JUMPI SWAP2 DUP3 ADD JUMPDEST DUP3 DUP2 GT ISZERO PUSH2 0x1BD6 JUMPI DUP3 MLOAD DUP3 SSTORE SWAP2 PUSH1 0x20 ADD SWAP2 SWAP1 PUSH1 0x1 ADD SWAP1 PUSH2 0x1BBB JUMP JUMPDEST JUMPDEST POP SWAP1 POP PUSH2 0x1BE4 SWAP2 SWAP1 PUSH2 0x1C28 JUMP JUMPDEST POP SWAP1 JUMP JUMPDEST POP DUP1 SLOAD PUSH2 0x1BF4 SWAP1 PUSH2 0x25B5 JUMP JUMPDEST PUSH1 0x0 DUP3 SSTORE DUP1 PUSH1 0x1F LT PUSH2 0x1C06 JUMPI POP PUSH2 0x1C25 JUMP JUMPDEST PUSH1 0x1F ADD PUSH1 0x20 SWAP1 DIV SWAP1 PUSH1 0x0 MSTORE PUSH1 0x20 PUSH1 0x0 KECCAK256 SWAP1 DUP2 ADD SWAP1 PUSH2 0x1C24 SWAP2 SWAP1 PUSH2 0x1C28 JUMP JUMPDEST JUMPDEST POP JUMP JUMPDEST JUMPDEST DUP1 DUP3 GT ISZERO PUSH2 0x1C41 JUMPI PUSH1 0x0 DUP2 PUSH1 0x0 SWAP1 SSTORE POP PUSH1 0x1 ADD PUSH2 0x1C29 JUMP JUMPDEST POP SWAP1 JUMP JUMPDEST PUSH1 0x0 PUSH2 0x1C58 PUSH2 0x1C53 DUP5 PUSH2 0x243A JUMP JUMPDEST PUSH2 0x2415 JUMP JUMPDEST SWAP1 POP DUP3 DUP2 MSTORE PUSH1 0x20 DUP2 ADD DUP5 DUP5 DUP5 ADD GT ISZERO PUSH2 0x1C70 JUMPI PUSH1 0x0 DUP1 REVERT JUMPDEST PUSH2 0x1C7B DUP5 DUP3 DUP6 PUSH2 0x2573 JUMP JUMPDEST POP SWAP4 SWAP3 POP POP POP JUMP JUMPDEST PUSH1 0x0 DUP2 CALLDATALOAD SWAP1 POP PUSH2 0x1C92 DUP2 PUSH2 0x28D4 JUMP JUMPDEST SWAP3 SWAP2 POP POP JUMP JUMPDEST PUSH1 0x0 DUP2 CALLDATALOAD SWAP1 POP PUSH2 0x1CA7 DUP2 PUSH2 0x28EB JUMP JUMPDEST SWAP3 SWAP2 POP POP JUMP JUMPDEST PUSH1 0x0 DUP3 PUSH1 0x1F DUP4 ADD SLT PUSH2 0x1CBE JUMPI PUSH1 0x0 DUP1 REVERT JUMPDEST DUP2 CALLDATALOAD PUSH2 0x1CCE DUP5 DUP3 PUSH1 0x20 DUP7 ADD PUSH2 0x1C45 JUMP JUMPDEST SWAP2 POP POP SWAP3 SWAP2 POP POP JUMP JUMPDEST PUSH1 0x0 DUP2 CALLDATALOAD SWAP1 POP PUSH2 0x1CE6 DUP2 PUSH2 0x2902 JUMP JUMPDEST SWAP3 SWAP2 POP POP JUMP JUMPDEST PUSH1 0x0 PUSH1 0x20 DUP3 DUP5 SUB SLT ISZERO PUSH2 0x1CFE JUMPI PUSH1 0x0 DUP1 REVERT JUMPDEST PUSH1 0x0 PUSH2 0x1D0C DUP5 DUP3 DUP6 ADD PUSH2 0x1C83 JUMP JUMPDEST SWAP2 POP POP SWAP3 SWAP2 POP POP JUMP JUMPDEST PUSH1 0x0 DUP1 PUSH1 0x0 DUP1 PUSH1 0x80 DUP6 DUP8 SUB SLT ISZERO PUSH2 0x1D2B JUMPI PUSH1 0x0 DUP1 REVERT JUMPDEST PUSH1 0x0 PUSH2 0x1D39 DUP8 DUP3 DUP9 ADD PUSH2 0x1C83 JUMP JUMPDEST SWAP5 POP POP PUSH1 0x20 PUSH2 0x1D4A DUP8 DUP3 DUP9 ADD PUSH2 0x1C83 JUMP JUMPDEST SWAP4 POP POP PUSH1 0x40 PUSH2 0x1D5B DUP8 DUP3 DUP9 ADD PUSH2 0x1CD7 JUMP JUMPDEST SWAP3 POP POP PUSH1 0x60 DUP6 ADD CALLDATALOAD PUSH8 0xFFFFFFFFFFFFFFFF DUP2 GT ISZERO PUSH2 0x1D78 JUMPI PUSH1 0x0 DUP1 REVERT JUMPDEST PUSH2 0x1D84 DUP8 DUP3 DUP9 ADD PUSH2 0x1CAD JUMP JUMPDEST SWAP2 POP POP SWAP3 SWAP6 SWAP2 SWAP5 POP SWAP3 POP JUMP JUMPDEST PUSH1 0x0 DUP1 PUSH1 0x40 DUP4 DUP6 SUB SLT ISZERO PUSH2 0x1DA3 JUMPI PUSH1 0x0 DUP1 REVERT JUMPDEST PUSH1 0x0 PUSH2 0x1DB1 DUP6 DUP3 DUP7 ADD PUSH2 0x1C83 JUMP JUMPDEST SWAP3 POP POP PUSH1 0x20 PUSH2 0x1DC2 DUP6 DUP3 DUP7 ADD PUSH2 0x1CD7 JUMP JUMPDEST SWAP2 POP POP SWAP3 POP SWAP3 SWAP1 POP JUMP JUMPDEST PUSH1 0x0 DUP1 PUSH1 0x0 DUP1 PUSH1 0x0 PUSH1 0xA0 DUP7 DUP9 SUB SLT ISZERO PUSH2 0x1DE4 JUMPI PUSH1 0x0 DUP1 REVERT JUMPDEST PUSH1 0x0 PUSH2 0x1DF2 DUP9 DUP3 DUP10 ADD PUSH2 0x1C83 JUMP JUMPDEST SWAP6 POP POP PUSH1 0x20 PUSH2 0x1E03 DUP9 DUP3 DUP10 ADD PUSH2 0x1CD7 JUMP JUMPDEST SWAP5 POP POP PUSH1 0x40 PUSH2 0x1E14 DUP9 DUP3 DUP10 ADD PUSH2 0x1CD7 JUMP JUMPDEST SWAP4 POP POP PUSH1 0x60 PUSH2 0x1E25 DUP9 DUP3 DUP10 ADD PUSH2 0x1CD7 JUMP JUMPDEST SWAP3 POP POP PUSH1 0x80 PUSH2 0x1E36 DUP9 DUP3 DUP10 ADD PUSH2 0x1CD7 JUMP JUMPDEST SWAP2 POP POP SWAP3 SWAP6 POP SWAP3 SWAP6 SWAP1 SWAP4 POP JUMP JUMPDEST PUSH1 0x0 PUSH1 0x20 DUP3 DUP5 SUB SLT ISZERO PUSH2 0x1E55 JUMPI PUSH1 0x0 DUP1 REVERT JUMPDEST PUSH1 0x0 PUSH2 0x1E63 DUP5 DUP3 DUP6 ADD PUSH2 0x1C98 JUMP JUMPDEST SWAP2 POP POP SWAP3 SWAP2 POP POP JUMP JUMPDEST PUSH1 0x0 PUSH1 0x20 DUP3 DUP5 SUB SLT ISZERO PUSH2 0x1E7E JUMPI PUSH1 0x0 DUP1 REVERT JUMPDEST PUSH1 0x0 DUP3 ADD CALLDATALOAD PUSH8 0xFFFFFFFFFFFFFFFF DUP2 GT ISZERO PUSH2 0x1E98 JUMPI PUSH1 0x0 DUP1 REVERT JUMPDEST PUSH2 0x1EA4 DUP5 DUP3 DUP6 ADD PUSH2 0x1CAD JUMP JUMPDEST SWAP2 POP POP SWAP3 SWAP2 POP POP JUMP JUMPDEST PUSH1 0x0 PUSH2 0x1EB9 DUP4 DUP4 PUSH2 0x1F58 JUMP JUMPDEST PUSH1 0x20 DUP4 ADD SWAP1 POP SWAP3 SWAP2 POP POP JUMP JUMPDEST PUSH2 0x1ECE DUP2 PUSH2 0x2521 JUMP JUMPDEST DUP3 MSTORE POP POP JUMP JUMPDEST PUSH2 0x1EE5 PUSH2 0x1EE0 DUP3 PUSH2 0x2521 JUMP JUMPDEST PUSH2 0x2618 JUMP JUMPDEST DUP3 MSTORE POP POP JUMP JUMPDEST PUSH1 0x0 PUSH2 0x1EF6 DUP3 PUSH2 0x247B JUMP JUMPDEST PUSH2 0x1F00 DUP2 DUP6 PUSH2 0x249E JUMP JUMPDEST SWAP4 POP PUSH2 0x1F0B DUP4 PUSH2 0x246B JUMP JUMPDEST DUP1 PUSH1 0x0 JUMPDEST DUP4 DUP2 LT ISZERO PUSH2 0x1F3C JUMPI DUP2 MLOAD PUSH2 0x1F23 DUP9 DUP3 PUSH2 0x1EAD JUMP JUMPDEST SWAP8 POP PUSH2 0x1F2E DUP4 PUSH2 0x2491 JUMP JUMPDEST SWAP3 POP POP PUSH1 0x1 DUP2 ADD SWAP1 POP PUSH2 0x1F0F JUMP JUMPDEST POP DUP6 SWAP4 POP POP POP POP SWAP3 SWAP2 POP POP JUMP JUMPDEST PUSH2 0x1F52 DUP2 PUSH2 0x2533 JUMP JUMPDEST DUP3 MSTORE POP POP JUMP JUMPDEST PUSH2 0x1F61 DUP2 PUSH2 0x253F JUMP JUMPDEST DUP3 MSTORE POP POP JUMP JUMPDEST PUSH2 0x1F70 DUP2 PUSH2 0x253F JUMP JUMPDEST DUP3 MSTORE POP POP JUMP JUMPDEST PUSH1 0x0 PUSH2 0x1F81 DUP3 PUSH2 0x2486 JUMP JUMPDEST PUSH2 0x1F8B DUP2 DUP6 PUSH2 0x24AF JUMP JUMPDEST SWAP4 POP PUSH2 0x1F9B DUP2 DUP6 PUSH1 0x20 DUP7 ADD PUSH2 0x2582 JUMP JUMPDEST PUSH2 0x1FA4 DUP2 PUSH2 0x26D3 JUMP JUMPDEST DUP5 ADD SWAP2 POP POP SWAP3 SWAP2 POP POP JUMP JUMPDEST PUSH1 0x0 PUSH2 0x1FBA DUP3 PUSH2 0x2486 JUMP JUMPDEST PUSH2 0x1FC4 DUP2 DUP6 PUSH2 0x24C0 JUMP JUMPDEST SWAP4 POP PUSH2 0x1FD4 DUP2 DUP6 PUSH1 0x20 DUP7 ADD PUSH2 0x2582 JUMP JUMPDEST DUP1 DUP5 ADD SWAP2 POP POP SWAP3 SWAP2 POP POP JUMP JUMPDEST PUSH1 0x0 PUSH2 0x1FED PUSH1 0x18 DUP4 PUSH2 0x24AF JUMP JUMPDEST SWAP2 POP PUSH2 0x1FF8 DUP3 PUSH2 0x26F1 JUMP JUMPDEST PUSH1 0x20 DUP3 ADD SWAP1 POP SWAP2 SWAP1 POP JUMP JUMPDEST PUSH1 0x0 PUSH2 0x2010 PUSH1 0x2E DUP4 PUSH2 0x24AF JUMP JUMPDEST SWAP2 POP PUSH2 0x201B DUP3 PUSH2 0x271A JUMP JUMPDEST PUSH1 0x40 DUP3 ADD SWAP1 POP SWAP2 SWAP1 POP JUMP JUMPDEST PUSH1 0x0 PUSH2 0x2033 PUSH1 0x17 DUP4 PUSH2 0x24AF JUMP JUMPDEST SWAP2 POP PUSH2 0x203E DUP3 PUSH2 0x2769 JUMP JUMPDEST PUSH1 0x20 DUP3 ADD SWAP1 POP SWAP2 SWAP1 POP JUMP JUMPDEST PUSH1 0x0 PUSH2 0x2056 PUSH1 0x27 DUP4 PUSH2 0x24AF JUMP JUMPDEST SWAP2 POP PUSH2 0x2061 DUP3 PUSH2 0x2792 JUMP JUMPDEST PUSH1 0x40 DUP3 ADD SWAP1 POP SWAP2 SWAP1 POP JUMP JUMPDEST PUSH1 0x0 PUSH2 0x2079 PUSH1 0x11 DUP4 PUSH2 0x24AF JUMP JUMPDEST SWAP2 POP PUSH2 0x2084 DUP3 PUSH2 0x27E1 JUMP JUMPDEST PUSH1 0x20 DUP3 ADD SWAP1 POP SWAP2 SWAP1 POP JUMP JUMPDEST PUSH1 0x0 PUSH2 0x209C PUSH1 0x14 DUP4 PUSH2 0x24AF JUMP JUMPDEST SWAP2 POP PUSH2 0x20A7 DUP3 PUSH2 0x280A JUMP JUMPDEST PUSH1 0x20 DUP3 ADD SWAP1 POP SWAP2 SWAP1 POP JUMP JUMPDEST PUSH1 0x0 PUSH2 0x20BF PUSH1 0x2A DUP4 PUSH2 0x24AF JUMP JUMPDEST SWAP2 POP PUSH2 0x20CA DUP3 PUSH2 0x2833 JUMP JUMPDEST PUSH1 0x40 DUP3 ADD SWAP1 POP SWAP2 SWAP1 POP JUMP JUMPDEST PUSH1 0x0 PUSH2 0x20E2 PUSH1 0x12 DUP4 PUSH2 0x24AF JUMP JUMPDEST SWAP2 POP PUSH2 0x20ED DUP3 PUSH2 0x2882 JUMP JUMPDEST PUSH1 0x20 DUP3 ADD SWAP1 POP SWAP2 SWAP1 POP JUMP JUMPDEST PUSH1 0x0 PUSH2 0x2105 PUSH1 0xD DUP4 PUSH2 0x24AF JUMP JUMPDEST SWAP2 POP PUSH2 0x2110 DUP3 PUSH2 0x28AB JUMP JUMPDEST PUSH1 0x20 DUP3 ADD SWAP1 POP SWAP2 SWAP1 POP JUMP JUMPDEST PUSH2 0x2124 DUP2 PUSH2 0x2569 JUMP JUMPDEST DUP3 MSTORE POP POP JUMP JUMPDEST PUSH2 0x213B PUSH2 0x2136 DUP3 PUSH2 0x2569 JUMP JUMPDEST PUSH2 0x263C JUMP JUMPDEST DUP3 MSTORE POP POP JUMP JUMPDEST PUSH1 0x0 PUSH2 0x214D DUP3 DUP6 PUSH2 0x1ED4 JUMP JUMPDEST PUSH1 0x14 DUP3 ADD SWAP2 POP PUSH2 0x215D DUP3 DUP5 PUSH2 0x212A JUMP JUMPDEST PUSH1 0x20 DUP3 ADD SWAP2 POP DUP2 SWAP1 POP SWAP4 SWAP3 POP POP POP JUMP JUMPDEST PUSH1 0x0 PUSH2 0x2179 DUP3 DUP5 PUSH2 0x1FAF JUMP JUMPDEST SWAP2 POP DUP2 SWAP1 POP SWAP3 SWAP2 POP POP JUMP JUMPDEST PUSH1 0x0 PUSH1 0x20 DUP3 ADD SWAP1 POP PUSH2 0x2199 PUSH1 0x0 DUP4 ADD DUP5 PUSH2 0x1EC5 JUMP JUMPDEST SWAP3 SWAP2 POP POP JUMP JUMPDEST PUSH1 0x0 PUSH1 0x80 DUP3 ADD SWAP1 POP PUSH2 0x21B4 PUSH1 0x0 DUP4 ADD DUP8 PUSH2 0x1EC5 JUMP JUMPDEST PUSH2 0x21C1 PUSH1 0x20 DUP4 ADD DUP7 PUSH2 0x211B JUMP JUMPDEST PUSH2 0x21CE PUSH1 0x40 DUP4 ADD DUP6 PUSH2 0x1EC5 JUMP JUMPDEST DUP2 DUP2 SUB PUSH1 0x60 DUP4 ADD MSTORE PUSH2 0x21E0 DUP2 DUP5 PUSH2 0x1F76 JUMP JUMPDEST SWAP1 POP SWAP6 SWAP5 POP POP POP POP POP JUMP JUMPDEST PUSH1 0x0 PUSH1 0x20 DUP3 ADD SWAP1 POP DUP2 DUP2 SUB PUSH1 0x0 DUP4 ADD MSTORE PUSH2 0x2205 DUP2 DUP5 PUSH2 0x1EEB JUMP JUMPDEST SWAP1 POP SWAP3 SWAP2 POP POP JUMP JUMPDEST PUSH1 0x0 PUSH1 0x20 DUP3 ADD SWAP1 POP PUSH2 0x2222 PUSH1 0x0 DUP4 ADD DUP5 PUSH2 0x1F49 JUMP JUMPDEST SWAP3 SWAP2 POP POP JUMP JUMPDEST PUSH1 0x0 PUSH1 0x20 DUP3 ADD SWAP1 POP PUSH2 0x223D PUSH1 0x0 DUP4 ADD DUP5 PUSH2 0x1F67 JUMP JUMPDEST SWAP3 SWAP2 POP POP JUMP JUMPDEST PUSH1 0x0 PUSH1 0x20 DUP3 ADD SWAP1 POP DUP2 DUP2 SUB PUSH1 0x0 DUP4 ADD MSTORE PUSH2 0x225D DUP2 DUP5 PUSH2 0x1F76 JUMP JUMPDEST SWAP1 POP SWAP3 SWAP2 POP POP JUMP JUMPDEST PUSH1 0x0 PUSH1 0x40 DUP3 ADD SWAP1 POP DUP2 DUP2 SUB PUSH1 0x0 DUP4 ADD MSTORE PUSH2 0x227F DUP2 DUP6 PUSH2 0x1F76 JUMP JUMPDEST SWAP1 POP PUSH2 0x228E PUSH1 0x20 DUP4 ADD DUP5 PUSH2 0x211B JUMP JUMPDEST SWAP4 SWAP3 POP POP POP JUMP JUMPDEST PUSH1 0x0 PUSH1 0x20 DUP3 ADD SWAP1 POP DUP2 DUP2 SUB PUSH1 0x0 DUP4 ADD MSTORE PUSH2 0x22AE DUP2 PUSH2 0x1FE0 JUMP JUMPDEST SWAP1 POP SWAP2 SWAP1 POP JUMP JUMPDEST PUSH1 0x0 PUSH1 0x20 DUP3 ADD SWAP1 POP DUP2 DUP2 SUB PUSH1 0x0 DUP4 ADD MSTORE PUSH2 0x22CE DUP2 PUSH2 0x2003 JUMP JUMPDEST SWAP1 POP SWAP2 SWAP1 POP JUMP JUMPDEST PUSH1 0x0 PUSH1 0x20 DUP3 ADD SWAP1 POP DUP2 DUP2 SUB PUSH1 0x0 DUP4 ADD MSTORE PUSH2 0x22EE DUP2 PUSH2 0x2026 JUMP JUMPDEST SWAP1 POP SWAP2 SWAP1 POP JUMP JUMPDEST PUSH1 0x0 PUSH1 0x20 DUP3 ADD SWAP1 POP DUP2 DUP2 SUB PUSH1 0x0 DUP4 ADD MSTORE PUSH2 0x230E DUP2 PUSH2 0x2049 JUMP JUMPDEST SWAP1 POP SWAP2 SWAP1 POP JUMP JUMPDEST PUSH1 0x0 PUSH1 0x20 DUP3 ADD SWAP1 POP DUP2 DUP2 SUB PUSH1 0x0 DUP4 ADD MSTORE PUSH2 0x232E DUP2 PUSH2 0x206C JUMP JUMPDEST SWAP1 POP SWAP2 SWAP1 POP JUMP JUMPDEST PUSH1 0x0 PUSH1 0x20 DUP3 ADD SWAP1 POP DUP2 DUP2 SUB PUSH1 0x0 DUP4 ADD MSTORE PUSH2 0x234E DUP2 PUSH2 0x208F JUMP JUMPDEST SWAP1 POP SWAP2 SWAP1 POP JUMP JUMPDEST PUSH1 0x0 PUSH1 0x20 DUP3 ADD SWAP1 POP DUP2 DUP2 SUB PUSH1 0x0 DUP4 ADD MSTORE PUSH2 0x236E DUP2 PUSH2 0x20B2 JUMP JUMPDEST SWAP1 POP SWAP2 SWAP1 POP JUMP JUMPDEST PUSH1 0x0 PUSH1 0x20 DUP3 ADD SWAP1 POP DUP2 DUP2 SUB PUSH1 0x0 DUP4 ADD MSTORE PUSH2 0x238E DUP2 PUSH2 0x20D5 JUMP JUMPDEST SWAP1 POP SWAP2 SWAP1 POP JUMP JUMPDEST PUSH1 0x0 PUSH1 0x20 DUP3 ADD SWAP1 POP DUP2 DUP2 SUB PUSH1 0x0 DUP4 ADD MSTORE PUSH2 0x23AE DUP2 PUSH2 0x20F8 JUMP JUMPDEST SWAP1 POP SWAP2 SWAP1 POP JUMP JUMPDEST PUSH1 0x0 PUSH1 0x20 DUP3 ADD SWAP1 POP PUSH2 0x23CA PUSH1 0x0 DUP4 ADD DUP5 PUSH2 0x211B JUMP JUMPDEST SWAP3 SWAP2 POP POP JUMP JUMPDEST PUSH1 0x0 PUSH1 0x80 DUP3 ADD SWAP1 POP PUSH2 0x23E5 PUSH1 0x0 DUP4 ADD DUP8 PUSH2 0x211B JUMP JUMPDEST PUSH2 0x23F2 PUSH1 0x20 DUP4 ADD DUP7 PUSH2 0x211B JUMP JUMPDEST PUSH2 0x23FF PUSH1 0x40 DUP4 ADD DUP6 PUSH2 0x211B JUMP JUMPDEST PUSH2 0x240C PUSH1 0x60 DUP4 ADD DUP5 PUSH2 0x211B JUMP JUMPDEST SWAP6 SWAP5 POP POP POP POP POP JUMP JUMPDEST PUSH1 0x0 PUSH2 0x241F PUSH2 0x2430 JUMP JUMPDEST SWAP1 POP PUSH2 0x242B DUP3 DUP3 PUSH2 0x25E7 JUMP JUMPDEST SWAP2 SWAP1 POP JUMP JUMPDEST PUSH1 0x0 PUSH1 0x40 MLOAD SWAP1 POP SWAP1 JUMP JUMPDEST PUSH1 0x0 PUSH8 0xFFFFFFFFFFFFFFFF DUP3 GT ISZERO PUSH2 0x2455 JUMPI PUSH2 0x2454 PUSH2 0x26A4 JUMP JUMPDEST JUMPDEST PUSH2 0x245E DUP3 PUSH2 0x26D3 JUMP JUMPDEST SWAP1 POP PUSH1 0x20 DUP2 ADD SWAP1 POP SWAP2 SWAP1 POP JUMP JUMPDEST PUSH1 0x0 DUP2 SWAP1 POP PUSH1 0x20 DUP3 ADD SWAP1 POP SWAP2 SWAP1 POP JUMP JUMPDEST PUSH1 0x0 DUP2 MLOAD SWAP1 POP SWAP2 SWAP1 POP JUMP JUMPDEST PUSH1 0x0 DUP2 MLOAD SWAP1 POP SWAP2 SWAP1 POP JUMP JUMPDEST PUSH1 0x0 PUSH1 0x20 DUP3 ADD SWAP1 POP SWAP2 SWAP1 POP JUMP JUMPDEST PUSH1 0x0 DUP3 DUP3 MSTORE PUSH1 0x20 DUP3 ADD SWAP1 POP SWAP3 SWAP2 POP POP JUMP JUMPDEST PUSH1 0x0 DUP3 DUP3 MSTORE PUSH1 0x20 DUP3 ADD SWAP1 POP SWAP3 SWAP2 POP POP JUMP JUMPDEST PUSH1 0x0 DUP2 SWAP1 POP SWAP3 SWAP2 POP POP JUMP JUMPDEST PUSH1 0x0 PUSH2 0x24D6 DUP3 PUSH2 0x2569 JUMP JUMPDEST SWAP2 POP PUSH2 0x24E1 DUP4 PUSH2 0x2569 JUMP JUMPDEST SWAP3 POP DUP3 PUSH32 0xFFFFFFFFFFFFFFFFFFFFFFFFFFFFFFFFFFFFFFFFFFFFFFFFFFFFFFFFFFFFFFFF SUB DUP3 GT ISZERO PUSH2 0x2516 JUMPI PUSH2 0x2515 PUSH2 0x2646 JUMP JUMPDEST JUMPDEST DUP3 DUP3 ADD SWAP1 POP SWAP3 SWAP2 POP POP JUMP JUMPDEST PUSH1 0x0 PUSH2 0x252C DUP3 PUSH2 0x2549 JUMP JUMPDEST SWAP1 POP SWAP2 SWAP1 POP JUMP JUMPDEST PUSH1 0x0 DUP2 ISZERO ISZERO SWAP1 POP SWAP2 SWAP1 POP JUMP JUMPDEST PUSH1 0x0 DUP2 SWAP1 POP SWAP2 SWAP1 POP JUMP JUMPDEST PUSH1 0x0 PUSH20 0xFFFFFFFFFFFFFFFFFFFFFFFFFFFFFFFFFFFFFFFF DUP3 AND SWAP1 POP SWAP2 SWAP1 POP JUMP JUMPDEST PUSH1 0x0 DUP2 SWAP1 POP SWAP2 SWAP1 POP JUMP JUMPDEST DUP3 DUP2 DUP4 CALLDATACOPY PUSH1 0x0 DUP4 DUP4 ADD MSTORE POP POP POP JUMP JUMPDEST PUSH1 0x0 JUMPDEST DUP4 DUP2 LT ISZERO PUSH2 0x25A0 JUMPI DUP1 DUP3 ADD MLOAD DUP2 DUP5 ADD MSTORE PUSH1 0x20 DUP2 ADD SWAP1 POP PUSH2 0x2585 JUMP JUMPDEST DUP4 DUP2 GT ISZERO PUSH2 0x25AF JUMPI PUSH1 0x0 DUP5 DUP5 ADD MSTORE JUMPDEST POP POP POP POP JUMP JUMPDEST PUSH1 0x0 PUSH1 0x2 DUP3 DIV SWAP1 POP PUSH1 0x1 DUP3 AND DUP1 PUSH2 0x25CD JUMPI PUSH1 0x7F DUP3 AND SWAP2 POP JUMPDEST PUSH1 0x20 DUP3 LT DUP2 EQ ISZERO PUSH2 0x25E1 JUMPI PUSH2 0x25E0 PUSH2 0x2675 JUMP JUMPDEST JUMPDEST POP SWAP2 SWAP1 POP JUMP JUMPDEST PUSH2 0x25F0 DUP3 PUSH2 0x26D3 JUMP JUMPDEST DUP2 ADD DUP2 DUP2 LT PUSH8 0xFFFFFFFFFFFFFFFF DUP3 GT OR ISZERO PUSH2 0x260F JUMPI PUSH2 0x260E PUSH2 0x26A4 JUMP JUMPDEST JUMPDEST DUP1 PUSH1 0x40 MSTORE POP POP POP JUMP JUMPDEST PUSH1 0x0 PUSH2 0x2623 DUP3 PUSH2 0x262A JUMP JUMPDEST SWAP1 POP SWAP2 SWAP1 POP JUMP JUMPDEST PUSH1 0x0 PUSH2 0x2635 DUP3 PUSH2 0x26E4 JUMP JUMPDEST SWAP1 POP SWAP2 SWAP1 POP JUMP JUMPDEST PUSH1 0x0 DUP2 SWAP1 POP SWAP2 SWAP1 POP JUMP JUMPDEST PUSH32 0x4E487B7100000000000000000000000000000000000000000000000000000000 PUSH1 0x0 MSTORE PUSH1 0x11 PUSH1 0x4 MSTORE PUSH1 0x24 PUSH1 0x0 REVERT JUMPDEST PUSH32 0x4E487B7100000000000000000000000000000000000000000000000000000000 PUSH1 0x0 MSTORE PUSH1 0x22 PUSH1 0x4 MSTORE PUSH1 0x24 PUSH1 0x0 REVERT JUMPDEST PUSH32 0x4E487B7100000000000000000000000000000000000000000000000000000000 PUSH1 0x0 MSTORE PUSH1 0x41 PUSH1 0x4 MSTORE PUSH1 0x24 PUSH1 0x0 REVERT JUMPDEST PUSH1 0x0 PUSH1 0x1F NOT PUSH1 0x1F DUP4 ADD AND SWAP1 POP SWAP2 SWAP1 POP JUMP JUMPDEST PUSH1 0x0 DUP2 PUSH1 0x60 SHL SWAP1 POP SWAP2 SWAP1 POP JUMP JUMPDEST PUSH32 0x796F7527726520616C7265616479206C6F67676564496E2E0000000000000000 PUSH1 0x0 DUP3 ADD MSTORE POP JUMP JUMPDEST PUSH32 0x637265617465206163636F756E74206669727374206F72206C6F67496E20746F PUSH1 0x0 DUP3 ADD MSTORE PUSH32 0x20796F7572206163636F756E742E000000000000000000000000000000000000 PUSH1 0x20 DUP3 ADD MSTORE POP JUMP JUMPDEST PUSH32 0x4C6F6720696E20746F20796F7572206163636F756E742E000000000000000000 PUSH1 0x0 DUP3 ADD MSTORE POP JUMP JUMPDEST PUSH32 0x75736572206E6F7420657869737465642C20637265617465206163636F756E74 PUSH1 0x0 DUP3 ADD MSTORE PUSH32 0x2066697273742E00000000000000000000000000000000000000000000000000 PUSH1 0x20 DUP3 ADD MSTORE POP JUMP JUMPDEST PUSH32 0x75736572206E6F7420657869737465642E000000000000000000000000000000 PUSH1 0x0 DUP3 ADD MSTORE POP JUMP JUMPDEST PUSH32 0x796F75277265206E6F74206C6F67676564496E2E000000000000000000000000 PUSH1 0x0 DUP3 ADD MSTORE POP JUMP JUMPDEST PUSH32 0x4C6F67696E20746F20796F7572206163636F756E742C20746F20736574207072 PUSH1 0x0 DUP3 ADD MSTORE PUSH32 0x6F66696C65207069632E00000000000000000000000000000000000000000000 PUSH1 0x20 DUP3 ADD MSTORE POP JUMP JUMPDEST PUSH32 0x75736572206E616D6520657869737465642E0000000000000000000000000000 PUSH1 0x0 DUP3 ADD MSTORE POP JUMP JUMPDEST PUSH32 0x7573657220657869737465642E00000000000000000000000000000000000000 PUSH1 0x0 DUP3 ADD MSTORE POP JUMP JUMPDEST PUSH2 0x28DD DUP2 PUSH2 0x2521 JUMP JUMPDEST DUP2 EQ PUSH2 0x28E8 JUMPI PUSH1 0x0 DUP1 REVERT JUMPDEST POP JUMP JUMPDEST PUSH2 0x28F4 DUP2 PUSH2 0x253F JUMP JUMPDEST DUP2 EQ PUSH2 0x28FF JUMPI PUSH1 0x0 DUP1 REVERT JUMPDEST POP JUMP JUMPDEST PUSH2 0x290B DUP2 PUSH2 0x2569 JUMP JUMPDEST DUP2 EQ PUSH2 0x2916 JUMPI PUSH1 0x0 DUP1 REVERT JUMPDEST POP JUMP INVALID LOG2 PUSH5 0x6970667358 0x22 SLT KECCAK256 0xD5 CALLER 0xB8 0x1E 0xD8 0xBA PUSH20 0xA6EB983CB592CED99AD1CF8BB877EFB49A96FBE6 DIFFICULTY 0xAA 0x21 SWAP14 0xC2 PUSH5 0x736F6C6343 STOP ADDMOD DIV STOP CALLER "
				},
				"gasEstimates": {
					"creation": {
						"codeDepositCost": "2115000",
						"executionCost": "infinite",
						"totalCost": "infinite"
					},
					"external": {
						"addressToAmountRecord(address)": "infinite",
						"checkLogIn(address)": "1699",
						"checkUser()": "infinite",
						"deleteUser()": "infinite",
						"getNftdata(bytes32)": "infinite",
						"getProfilePic()": "infinite",
						"getUniKeysMapping(address)": "infinite",
						"logIn()": "24623",
						"logOut()": "23716",
						"myNFTs(bytes32)": "infinite",
						"setAmountRecord(address,uint256,uint256,uint256,uint256)": "infinite",
						"setBuyNftData(address,address,uint256,string)": "infinite",
						"setNftData(address,address,uint256,string)": "infinite",
						"setProfilePic(string)": "infinite",
						"signUp(string)": "infinite",
						"uniKeysMapping(address,uint256)": "2590",
						"updateUser(string)": "infinite",
						"userAmountDetail(address)": "infinite",
						"userNameToAddress(string)": "infinite"
					},
					"internal": {
						"getPrivateUniqueKey(address,uint256)": "infinite"
					}
				},
				"methodIdentifiers": {
					"addressToAmountRecord(address)": "7111e750",
					"checkLogIn(address)": "f6f2ede0",
					"checkUser()": "c1562547",
					"deleteUser()": "026ff05e",
					"getNftdata(bytes32)": "46064ab9",
					"getProfilePic()": "eb972008",
					"getUniKeysMapping(address)": "5cb0122a",
					"logIn()": "377b47a3",
					"logOut()": "4be422ae",
					"myNFTs(bytes32)": "07edbdc5",
					"setAmountRecord(address,uint256,uint256,uint256,uint256)": "894fd813",
					"setBuyNftData(address,address,uint256,string)": "c6370dfc",
					"setNftData(address,address,uint256,string)": "9efa528e",
					"setProfilePic(string)": "011f2cce",
					"signUp(string)": "adcfb4fc",
					"uniKeysMapping(address,uint256)": "23e583b4",
					"updateUser(string)": "0b4f12f6",
					"userAmountDetail(address)": "8a1b9736",
					"userNameToAddress(string)": "6c608709"
				}
			},
			"storageLayout": {
				"storage": [
					{
						"astId": 380,
						"contract": "Bluelight-MP/UserDashboard.sol:UserDashboard",
						"label": "waterMelonAddr",
						"offset": 0,
						"slot": "0",
						"type": "t_contract(IWaterMelon)321"
					},
					{
						"astId": 385,
						"contract": "Bluelight-MP/UserDashboard.sol:UserDashboard",
						"label": "myNFTs",
						"offset": 0,
						"slot": "1",
						"type": "t_mapping(t_bytes32,t_struct(MyNFT)357_storage)"
					},
					{
						"astId": 390,
						"contract": "Bluelight-MP/UserDashboard.sol:UserDashboard",
						"label": "uniKeysMapping",
						"offset": 0,
						"slot": "2",
						"type": "t_mapping(t_address,t_array(t_bytes32)dyn_storage)"
					},
					{
						"astId": 395,
						"contract": "Bluelight-MP/UserDashboard.sol:UserDashboard",
						"label": "users",
						"offset": 0,
						"slot": "3",
						"type": "t_mapping(t_address,t_struct(User)368_storage)"
					},
					{
						"astId": 399,
						"contract": "Bluelight-MP/UserDashboard.sol:UserDashboard",
						"label": "userNameToAddress",
						"offset": 0,
						"slot": "4",
						"type": "t_mapping(t_string_memory_ptr,t_address)"
					},
					{
						"astId": 404,
						"contract": "Bluelight-MP/UserDashboard.sol:UserDashboard",
						"label": "addressToAmountRecord",
						"offset": 0,
						"slot": "5",
						"type": "t_mapping(t_address,t_struct(AmountRecord)377_storage)"
					}
				],
				"types": {
					"t_address": {
						"encoding": "inplace",
						"label": "address",
						"numberOfBytes": "20"
					},
					"t_array(t_bytes32)dyn_storage": {
						"base": "t_bytes32",
						"encoding": "dynamic_array",
						"label": "bytes32[]",
						"numberOfBytes": "32"
					},
					"t_bool": {
						"encoding": "inplace",
						"label": "bool",
						"numberOfBytes": "1"
					},
					"t_bytes32": {
						"encoding": "inplace",
						"label": "bytes32",
						"numberOfBytes": "32"
					},
					"t_contract(IWaterMelon)321": {
						"encoding": "inplace",
						"label": "contract IWaterMelon",
						"numberOfBytes": "20"
					},
					"t_mapping(t_address,t_array(t_bytes32)dyn_storage)": {
						"encoding": "mapping",
						"key": "t_address",
						"label": "mapping(address => bytes32[])",
						"numberOfBytes": "32",
						"value": "t_array(t_bytes32)dyn_storage"
					},
					"t_mapping(t_address,t_struct(AmountRecord)377_storage)": {
						"encoding": "mapping",
						"key": "t_address",
						"label": "mapping(address => struct UserDashboard.AmountRecord)",
						"numberOfBytes": "32",
						"value": "t_struct(AmountRecord)377_storage"
					},
					"t_mapping(t_address,t_struct(User)368_storage)": {
						"encoding": "mapping",
						"key": "t_address",
						"label": "mapping(address => struct UserDashboard.User)",
						"numberOfBytes": "32",
						"value": "t_struct(User)368_storage"
					},
					"t_mapping(t_bytes32,t_struct(MyNFT)357_storage)": {
						"encoding": "mapping",
						"key": "t_bytes32",
						"label": "mapping(bytes32 => struct UserDashboard.MyNFT)",
						"numberOfBytes": "32",
						"value": "t_struct(MyNFT)357_storage"
					},
					"t_mapping(t_string_memory_ptr,t_address)": {
						"encoding": "mapping",
						"key": "t_string_memory_ptr",
						"label": "mapping(string => address)",
						"numberOfBytes": "32",
						"value": "t_address"
					},
					"t_string_memory_ptr": {
						"encoding": "bytes",
						"label": "string",
						"numberOfBytes": "32"
					},
					"t_string_storage": {
						"encoding": "bytes",
						"label": "string",
						"numberOfBytes": "32"
					},
					"t_struct(AmountRecord)377_storage": {
						"encoding": "inplace",
						"label": "struct UserDashboard.AmountRecord",
						"members": [
							{
								"astId": 370,
								"contract": "Bluelight-MP/UserDashboard.sol:UserDashboard",
								"label": "curAmountSpent",
								"offset": 0,
								"slot": "0",
								"type": "t_uint256"
							},
							{
								"astId": 372,
								"contract": "Bluelight-MP/UserDashboard.sol:UserDashboard",
								"label": "tokenAmountSpent",
								"offset": 0,
								"slot": "1",
								"type": "t_uint256"
							},
							{
								"astId": 374,
								"contract": "Bluelight-MP/UserDashboard.sol:UserDashboard",
								"label": "curAmountEarned",
								"offset": 0,
								"slot": "2",
								"type": "t_uint256"
							},
							{
								"astId": 376,
								"contract": "Bluelight-MP/UserDashboard.sol:UserDashboard",
								"label": "tokenAmountEarned",
								"offset": 0,
								"slot": "3",
								"type": "t_uint256"
							}
						],
						"numberOfBytes": "128"
					},
					"t_struct(MyNFT)357_storage": {
						"encoding": "inplace",
						"label": "struct UserDashboard.MyNFT",
						"members": [
							{
								"astId": 350,
								"contract": "Bluelight-MP/UserDashboard.sol:UserDashboard",
								"label": "contractAddress",
								"offset": 0,
								"slot": "0",
								"type": "t_address"
							},
							{
								"astId": 352,
								"contract": "Bluelight-MP/UserDashboard.sol:UserDashboard",
								"label": "tokenId",
								"offset": 0,
								"slot": "1",
								"type": "t_uint256"
							},
							{
								"astId": 354,
								"contract": "Bluelight-MP/UserDashboard.sol:UserDashboard",
								"label": "owner",
								"offset": 0,
								"slot": "2",
								"type": "t_address"
							},
							{
								"astId": 356,
								"contract": "Bluelight-MP/UserDashboard.sol:UserDashboard",
								"label": "ipfs",
								"offset": 0,
								"slot": "3",
								"type": "t_string_storage"
							}
						],
						"numberOfBytes": "128"
					},
					"t_struct(User)368_storage": {
						"encoding": "inplace",
						"label": "struct UserDashboard.User",
						"members": [
							{
								"astId": 359,
								"contract": "Bluelight-MP/UserDashboard.sol:UserDashboard",
								"label": "userName",
								"offset": 0,
								"slot": "0",
								"type": "t_string_storage"
							},
							{
								"astId": 361,
								"contract": "Bluelight-MP/UserDashboard.sol:UserDashboard",
								"label": "userExisted",
								"offset": 0,
								"slot": "1",
								"type": "t_bool"
							},
							{
								"astId": 363,
								"contract": "Bluelight-MP/UserDashboard.sol:UserDashboard",
								"label": "creationTime",
								"offset": 0,
								"slot": "2",
								"type": "t_uint256"
							},
							{
								"astId": 365,
								"contract": "Bluelight-MP/UserDashboard.sol:UserDashboard",
								"label": "loggedIn",
								"offset": 0,
								"slot": "3",
								"type": "t_bool"
							},
							{
								"astId": 367,
								"contract": "Bluelight-MP/UserDashboard.sol:UserDashboard",
								"label": "profilePic",
								"offset": 0,
								"slot": "4",
								"type": "t_string_storage"
							}
						],
						"numberOfBytes": "160"
					},
					"t_uint256": {
						"encoding": "inplace",
						"label": "uint256",
						"numberOfBytes": "32"
					}
				}
			},
			"userdoc": {
				"kind": "user",
				"methods": {},
				"version": 1
			}
		}
	}
}