{
	"Bluelight-MP/UserDashboard.sol": {
		"UserDashboard": {
			"abi": [
				{
					"inputs": [
						{
							"internalType": "address",
							"name": "_marketplace",
							"type": "address"
						}
					],
					"stateMutability": "nonpayable",
					"type": "constructor"
				},
				{
					"anonymous": false,
					"inputs": [
						{
							"indexed": true,
							"internalType": "address",
							"name": "user",
							"type": "address"
						},
						{
							"indexed": false,
							"internalType": "uint256",
							"name": "timeStamp",
							"type": "uint256"
						}
					],
					"name": "LoggingIn",
					"type": "event"
				},
				{
					"anonymous": false,
					"inputs": [
						{
							"indexed": true,
							"internalType": "address",
							"name": "user",
							"type": "address"
						},
						{
							"indexed": false,
							"internalType": "uint256",
							"name": "timeStamp",
							"type": "uint256"
						}
					],
					"name": "LoggingOut",
					"type": "event"
				},
				{
					"anonymous": false,
					"inputs": [
						{
							"indexed": true,
							"internalType": "address",
							"name": "user",
							"type": "address"
						},
						{
							"indexed": false,
							"internalType": "string",
							"name": "username",
							"type": "string"
						},
						{
							"indexed": false,
							"internalType": "uint256",
							"name": "timeStamp",
							"type": "uint256"
						}
					],
					"name": "SignUp",
					"type": "event"
				},
				{
					"inputs": [
						{
							"internalType": "address",
							"name": "",
							"type": "address"
						}
					],
					"name": "addressToAmountRecord",
					"outputs": [
						{
							"internalType": "uint256",
							"name": "curAmountSpent",
							"type": "uint256"
						},
						{
							"internalType": "uint256",
							"name": "tokenAmountSpent",
							"type": "uint256"
						},
						{
							"internalType": "uint256",
							"name": "curAmountEarned",
							"type": "uint256"
						},
						{
							"internalType": "uint256",
							"name": "tokenAmountEarned",
							"type": "uint256"
						}
					],
					"stateMutability": "view",
					"type": "function"
				},
				{
					"inputs": [
						{
							"internalType": "address",
							"name": "_userAddr",
							"type": "address"
						}
					],
					"name": "checkLogIn",
					"outputs": [
						{
							"internalType": "bool",
							"name": "",
							"type": "bool"
						}
					],
					"stateMutability": "view",
					"type": "function"
				},
				{
					"inputs": [],
					"name": "checkUser",
					"outputs": [
						{
							"internalType": "string",
							"name": "",
							"type": "string"
						}
					],
					"stateMutability": "view",
					"type": "function"
				},
				{
					"inputs": [],
					"name": "deleteUser",
					"outputs": [
						{
							"internalType": "bool",
							"name": "",
							"type": "bool"
						}
					],
					"stateMutability": "nonpayable",
					"type": "function"
				},
				{
					"inputs": [
						{
							"internalType": "enum UserDashboard.NftCategory",
							"name": "nftCat",
							"type": "uint8"
						}
					],
					"name": "getAllNftCatWise",
					"outputs": [
						{
							"internalType": "bytes32[]",
							"name": "",
							"type": "bytes32[]"
						}
					],
					"stateMutability": "view",
					"type": "function"
				},
				{
					"inputs": [
						{
							"internalType": "address",
							"name": "_nftContractAddress",
							"type": "address"
						},
						{
							"internalType": "uint256",
							"name": "_tokenId",
							"type": "uint256"
						}
					],
					"name": "getNft",
					"outputs": [
						{
							"internalType": "bytes32",
							"name": "uniKey",
							"type": "bytes32"
						},
						{
							"internalType": "address",
							"name": "nftContractAddress",
							"type": "address"
						},
						{
							"internalType": "uint256",
							"name": "tokenId",
							"type": "uint256"
						},
						{
							"internalType": "string",
							"name": "name",
							"type": "string"
						},
						{
							"internalType": "address",
							"name": "owner",
							"type": "address"
						},
						{
							"internalType": "string",
							"name": "iPFS",
							"type": "string"
						}
					],
					"stateMutability": "view",
					"type": "function"
				},
				{
					"inputs": [],
					"name": "getNftCategories",
					"outputs": [
						{
							"internalType": "string",
							"name": "",
							"type": "string"
						},
						{
							"internalType": "string",
							"name": "",
							"type": "string"
						},
						{
							"internalType": "string",
							"name": "",
							"type": "string"
						},
						{
							"internalType": "string",
							"name": "",
							"type": "string"
						},
						{
							"internalType": "string",
							"name": "",
							"type": "string"
						},
						{
							"internalType": "string",
							"name": "",
							"type": "string"
						},
						{
							"internalType": "string",
							"name": "",
							"type": "string"
						}
					],
					"stateMutability": "pure",
					"type": "function"
				},
				{
					"inputs": [
						{
							"internalType": "bytes32",
							"name": "_uniKey",
							"type": "bytes32"
						}
					],
					"name": "getNftWithBytes32",
					"outputs": [
						{
							"internalType": "string",
							"name": "_name",
							"type": "string"
						},
						{
							"internalType": "address",
							"name": "nftContractAddress",
							"type": "address"
						},
						{
							"internalType": "uint256",
							"name": "tokenId",
							"type": "uint256"
						},
						{
							"internalType": "address",
							"name": "owner",
							"type": "address"
						},
						{
							"internalType": "string",
							"name": "iPFS",
							"type": "string"
						}
					],
					"stateMutability": "view",
					"type": "function"
				},
				{
					"inputs": [],
					"name": "getProfilePic",
					"outputs": [
						{
							"internalType": "string",
							"name": "ipfs",
							"type": "string"
						}
					],
					"stateMutability": "view",
					"type": "function"
				},
				{
					"inputs": [
						{
							"internalType": "address",
							"name": "ownerOfNfts",
							"type": "address"
						}
					],
					"name": "getUniKeysMapping",
					"outputs": [
						{
							"internalType": "bytes32[]",
							"name": "",
							"type": "bytes32[]"
						}
					],
					"stateMutability": "view",
					"type": "function"
				},
				{
					"inputs": [
						{
							"internalType": "enum UserDashboard.NftCategory",
							"name": "nftCat",
							"type": "uint8"
						}
					],
					"name": "getUserNftCatWise",
					"outputs": [
						{
							"internalType": "bytes32[]",
							"name": "",
							"type": "bytes32[]"
						}
					],
					"stateMutability": "view",
					"type": "function"
				},
				{
					"inputs": [],
					"name": "logIn",
					"outputs": [],
					"stateMutability": "nonpayable",
					"type": "function"
				},
				{
					"inputs": [],
					"name": "logOut",
					"outputs": [],
					"stateMutability": "nonpayable",
					"type": "function"
				},
				{
					"inputs": [
						{
							"internalType": "bytes32",
							"name": "",
							"type": "bytes32"
						}
					],
					"name": "myNFTs",
					"outputs": [
						{
							"internalType": "string",
							"name": "nftName",
							"type": "string"
						},
						{
							"internalType": "address",
							"name": "contractAddress",
							"type": "address"
						},
						{
							"internalType": "uint256",
							"name": "tokenId",
							"type": "uint256"
						},
						{
							"internalType": "address",
							"name": "owner",
							"type": "address"
						},
						{
							"internalType": "string",
							"name": "ipfs",
							"type": "string"
						},
						{
							"internalType": "enum UserDashboard.NftCategory",
							"name": "nftCategory",
							"type": "uint8"
						}
					],
					"stateMutability": "view",
					"type": "function"
				},
				{
					"inputs": [
						{
							"internalType": "enum UserDashboard.NftCategory",
							"name": "",
							"type": "uint8"
						},
						{
							"internalType": "uint256",
							"name": "",
							"type": "uint256"
						}
					],
					"name": "nftCatWise",
					"outputs": [
						{
							"internalType": "bytes32",
							"name": "",
							"type": "bytes32"
						}
					],
					"stateMutability": "view",
					"type": "function"
				},
				{
					"inputs": [
						{
							"internalType": "address",
							"name": "user",
							"type": "address"
						},
						{
							"internalType": "uint256",
							"name": "curAmountSpent",
							"type": "uint256"
						},
						{
							"internalType": "uint256",
							"name": "tokenAmountSpent",
							"type": "uint256"
						},
						{
							"internalType": "uint256",
							"name": "curAmountEarned",
							"type": "uint256"
						},
						{
							"internalType": "uint256",
							"name": "tokenAmountEarned",
							"type": "uint256"
						}
					],
					"name": "setAmountRecord",
					"outputs": [],
					"stateMutability": "nonpayable",
					"type": "function"
				},
				{
					"inputs": [
						{
							"internalType": "address",
							"name": "newOwner",
							"type": "address"
						},
						{
							"internalType": "bytes32",
							"name": "uniKey",
							"type": "bytes32"
						}
					],
					"name": "setBuyNftData",
					"outputs": [],
					"stateMutability": "nonpayable",
					"type": "function"
				},
				{
					"inputs": [
						{
							"internalType": "string",
							"name": "_name",
							"type": "string"
						},
						{
							"internalType": "address",
							"name": "nftContractAddress",
							"type": "address"
						},
						{
							"internalType": "uint256",
							"name": "tokenId",
							"type": "uint256"
						},
						{
							"internalType": "string",
							"name": "iPFS",
							"type": "string"
						}
					],
					"name": "setNft",
					"outputs": [],
					"stateMutability": "nonpayable",
					"type": "function"
				},
				{
					"inputs": [
						{
							"internalType": "address",
							"name": "nftContractAddress",
							"type": "address"
						},
						{
							"internalType": "uint256",
							"name": "tokenId",
							"type": "uint256"
						},
						{
							"internalType": "enum UserDashboard.NftCategory",
							"name": "nftCat",
							"type": "uint8"
						}
					],
					"name": "setNftCat",
					"outputs": [],
					"stateMutability": "nonpayable",
					"type": "function"
				},
				{
					"inputs": [
						{
							"internalType": "string",
							"name": "iPFS",
							"type": "string"
						}
					],
					"name": "setProfilePic",
					"outputs": [],
					"stateMutability": "nonpayable",
					"type": "function"
				},
				{
					"inputs": [
						{
							"internalType": "string",
							"name": "_userName",
							"type": "string"
						}
					],
					"name": "signUp",
					"outputs": [],
					"stateMutability": "nonpayable",
					"type": "function"
				},
				{
					"inputs": [
						{
							"internalType": "address",
							"name": "",
							"type": "address"
						},
						{
							"internalType": "uint256",
							"name": "",
							"type": "uint256"
						}
					],
					"name": "uniKeysMapping",
					"outputs": [
						{
							"internalType": "bytes32",
							"name": "",
							"type": "bytes32"
						}
					],
					"stateMutability": "view",
					"type": "function"
				},
				{
					"inputs": [
						{
							"internalType": "string",
							"name": "_userName",
							"type": "string"
						}
					],
					"name": "updateUser",
					"outputs": [],
					"stateMutability": "nonpayable",
					"type": "function"
				},
				{
					"inputs": [
						{
							"internalType": "address",
							"name": "user",
							"type": "address"
						}
					],
					"name": "userAmountDetail",
					"outputs": [
						{
							"internalType": "uint256",
							"name": "currencyEarned",
							"type": "uint256"
						},
						{
							"internalType": "uint256",
							"name": "earnedToken",
							"type": "uint256"
						},
						{
							"internalType": "uint256",
							"name": "currencySpent",
							"type": "uint256"
						},
						{
							"internalType": "uint256",
							"name": "tokenSpent",
							"type": "uint256"
						}
					],
					"stateMutability": "view",
					"type": "function"
				},
				{
					"inputs": [
						{
							"internalType": "string",
							"name": "",
							"type": "string"
						}
					],
					"name": "userNameToAddress",
					"outputs": [
						{
							"internalType": "address",
							"name": "",
							"type": "address"
						}
					],
					"stateMutability": "view",
					"type": "function"
				},
				{
					"inputs": [
						{
							"internalType": "address",
							"name": "",
							"type": "address"
						},
						{
							"internalType": "enum UserDashboard.NftCategory",
							"name": "",
							"type": "uint8"
						},
						{
							"internalType": "uint256",
							"name": "",
							"type": "uint256"
						}
					],
					"name": "userNftCatWise",
					"outputs": [
						{
							"internalType": "bytes32",
							"name": "",
							"type": "bytes32"
						}
					],
					"stateMutability": "view",
					"type": "function"
				}
			],
			"devdoc": {
				"kind": "dev",
				"methods": {},
				"version": 1
			},
			"evm": {
				"assembly": "    /* \"Bluelight-MP/UserDashboard.sol\":173:8495  contract UserDashboard is IUserDashboard, Helper{\r... */\n  mstore(0x40, 0x80)\n    /* \"Bluelight-MP/UserDashboard.sol\":1936:2027  constructor(address _marketplace){\r... */\n  callvalue\n  dup1\n  iszero\n  tag_1\n  jumpi\n  0x00\n  dup1\n  revert\ntag_1:\n  pop\n  mload(0x40)\n  sub(codesize, bytecodeSize)\n  dup1\n  bytecodeSize\n  dup4\n  codecopy\n  dup2\n  dup2\n  add\n  0x40\n  mstore\n  dup2\n  add\n  swap1\n  tag_2\n  swap2\n  swap1\n  tag_3\n  jump\t// in\ntag_2:\n    /* \"Bluelight-MP/UserDashboard.sol\":2006:2018  _marketplace */\n  dup1\n    /* \"Bluelight-MP/UserDashboard.sol\":1980:1991  marketplace */\n  0x00\n  dup1\n    /* \"Bluelight-MP/UserDashboard.sol\":1980:2019  marketplace = IWaterMelon(_marketplace) */\n  0x0100\n  exp\n  dup2\n  sload\n  dup2\n  0xffffffffffffffffffffffffffffffffffffffff\n  mul\n  not\n  and\n  swap1\n  dup4\n  0xffffffffffffffffffffffffffffffffffffffff\n  and\n  mul\n  or\n  swap1\n  sstore\n  pop\n    /* \"Bluelight-MP/UserDashboard.sol\":1936:2027  constructor(address _marketplace){\r... */\n  pop\n    /* \"Bluelight-MP/UserDashboard.sol\":173:8495  contract UserDashboard is IUserDashboard, Helper{\r... */\n  jump(tag_6)\n    /* \"#utility.yul\":7:150   */\ntag_8:\n    /* \"#utility.yul\":64:69   */\n  0x00\n    /* \"#utility.yul\":95:101   */\n  dup2\n    /* \"#utility.yul\":89:102   */\n  mload\n    /* \"#utility.yul\":80:102   */\n  swap1\n  pop\n    /* \"#utility.yul\":111:144   */\n  tag_10\n    /* \"#utility.yul\":138:143   */\n  dup2\n    /* \"#utility.yul\":111:144   */\n  tag_11\n  jump\t// in\ntag_10:\n    /* \"#utility.yul\":70:150   */\n  swap3\n  swap2\n  pop\n  pop\n  jump\t// out\n    /* \"#utility.yul\":156:440   */\ntag_3:\n    /* \"#utility.yul\":226:232   */\n  0x00\n    /* \"#utility.yul\":275:277   */\n  0x20\n    /* \"#utility.yul\":263:272   */\n  dup3\n    /* \"#utility.yul\":254:261   */\n  dup5\n    /* \"#utility.yul\":250:273   */\n  sub\n    /* \"#utility.yul\":246:278   */\n  slt\n    /* \"#utility.yul\":243:245   */\n  iszero\n  tag_13\n  jumpi\n    /* \"#utility.yul\":291:292   */\n  0x00\n    /* \"#utility.yul\":288:289   */\n  dup1\n    /* \"#utility.yul\":281:293   */\n  revert\n    /* \"#utility.yul\":243:245   */\ntag_13:\n    /* \"#utility.yul\":334:335   */\n  0x00\n    /* \"#utility.yul\":359:423   */\n  tag_14\n    /* \"#utility.yul\":415:422   */\n  dup5\n    /* \"#utility.yul\":406:412   */\n  dup3\n    /* \"#utility.yul\":395:404   */\n  dup6\n    /* \"#utility.yul\":391:413   */\n  add\n    /* \"#utility.yul\":359:423   */\n  tag_8\n  jump\t// in\ntag_14:\n    /* \"#utility.yul\":349:423   */\n  swap2\n  pop\n    /* \"#utility.yul\":305:433   */\n  pop\n    /* \"#utility.yul\":233:440   */\n  swap3\n  swap2\n  pop\n  pop\n  jump\t// out\n    /* \"#utility.yul\":446:542   */\ntag_15:\n    /* \"#utility.yul\":483:490   */\n  0x00\n    /* \"#utility.yul\":512:536   */\n  tag_17\n    /* \"#utility.yul\":530:535   */\n  dup3\n    /* \"#utility.yul\":512:536   */\n  tag_18\n  jump\t// in\ntag_17:\n    /* \"#utility.yul\":501:536   */\n  swap1\n  pop\n    /* \"#utility.yul\":491:542   */\n  swap2\n  swap1\n  pop\n  jump\t// out\n    /* \"#utility.yul\":548:674   */\ntag_18:\n    /* \"#utility.yul\":585:592   */\n  0x00\n    /* \"#utility.yul\":625:667   */\n  0xffffffffffffffffffffffffffffffffffffffff\n    /* \"#utility.yul\":618:623   */\n  dup3\n    /* \"#utility.yul\":614:668   */\n  and\n    /* \"#utility.yul\":603:668   */\n  swap1\n  pop\n    /* \"#utility.yul\":593:674   */\n  swap2\n  swap1\n  pop\n  jump\t// out\n    /* \"#utility.yul\":680:802   */\ntag_11:\n    /* \"#utility.yul\":753:777   */\n  tag_21\n    /* \"#utility.yul\":771:776   */\n  dup2\n    /* \"#utility.yul\":753:777   */\n  tag_15\n  jump\t// in\ntag_21:\n    /* \"#utility.yul\":746:751   */\n  dup2\n    /* \"#utility.yul\":743:778   */\n  eq\n    /* \"#utility.yul\":733:735   */\n  tag_22\n  jumpi\n    /* \"#utility.yul\":792:793   */\n  0x00\n    /* \"#utility.yul\":789:790   */\n  dup1\n    /* \"#utility.yul\":782:794   */\n  revert\n    /* \"#utility.yul\":733:735   */\ntag_22:\n    /* \"#utility.yul\":723:802   */\n  pop\n  jump\t// out\n    /* \"Bluelight-MP/UserDashboard.sol\":173:8495  contract UserDashboard is IUserDashboard, Helper{\r... */\ntag_6:\n  dataSize(sub_0)\n  dup1\n  dataOffset(sub_0)\n  0x00\n  codecopy\n  0x00\n  return\nstop\n\nsub_0: assembly {\n        /* \"Bluelight-MP/UserDashboard.sol\":173:8495  contract UserDashboard is IUserDashboard, Helper{\r... */\n      mstore(0x40, 0x80)\n      callvalue\n      dup1\n      iszero\n      tag_1\n      jumpi\n      0x00\n      dup1\n      revert\n    tag_1:\n      pop\n      jumpi(tag_2, lt(calldatasize, 0x04))\n      shr(0xe0, calldataload(0x00))\n      dup1\n      0x6e9d4f8d\n      gt\n      tag_29\n      jumpi\n      dup1\n      0xbbc53ef2\n      gt\n      tag_30\n      jumpi\n      dup1\n      0xdc9151c5\n      gt\n      tag_31\n      jumpi\n      dup1\n      0xdc9151c5\n      eq\n      tag_25\n      jumpi\n      dup1\n      0xe36d6f50\n      eq\n      tag_26\n      jumpi\n      dup1\n      0xeb972008\n      eq\n      tag_27\n      jumpi\n      dup1\n      0xf6f2ede0\n      eq\n      tag_28\n      jumpi\n      jump(tag_2)\n    tag_31:\n      dup1\n      0xbbc53ef2\n      eq\n      tag_22\n      jumpi\n      dup1\n      0xc1562547\n      eq\n      tag_23\n      jumpi\n      dup1\n      0xda31f722\n      eq\n      tag_24\n      jumpi\n      jump(tag_2)\n    tag_30:\n      dup1\n      0x6e9d4f8d\n      eq\n      tag_16\n      jumpi\n      dup1\n      0x7111e750\n      eq\n      tag_17\n      jumpi\n      dup1\n      0x894fd813\n      eq\n      tag_18\n      jumpi\n      dup1\n      0x8a1b9736\n      eq\n      tag_19\n      jumpi\n      dup1\n      0xadcfb4fc\n      eq\n      tag_20\n      jumpi\n      dup1\n      0xb2cf1886\n      eq\n      tag_21\n      jumpi\n      jump(tag_2)\n    tag_29:\n      dup1\n      0x2441f1f1\n      gt\n      tag_32\n      jumpi\n      dup1\n      0x3a196986\n      gt\n      tag_33\n      jumpi\n      dup1\n      0x3a196986\n      eq\n      tag_12\n      jumpi\n      dup1\n      0x4be422ae\n      eq\n      tag_13\n      jumpi\n      dup1\n      0x5cb0122a\n      eq\n      tag_14\n      jumpi\n      dup1\n      0x6c608709\n      eq\n      tag_15\n      jumpi\n      jump(tag_2)\n    tag_33:\n      dup1\n      0x2441f1f1\n      eq\n      tag_9\n      jumpi\n      dup1\n      0x2ae23109\n      eq\n      tag_10\n      jumpi\n      dup1\n      0x377b47a3\n      eq\n      tag_11\n      jumpi\n      jump(tag_2)\n    tag_32:\n      dup1\n      0x011f2cce\n      eq\n      tag_3\n      jumpi\n      dup1\n      0x026ff05e\n      eq\n      tag_4\n      jumpi\n      dup1\n      0x07edbdc5\n      eq\n      tag_5\n      jumpi\n      dup1\n      0x0b4f12f6\n      eq\n      tag_6\n      jumpi\n      dup1\n      0x1c6932b6\n      eq\n      tag_7\n      jumpi\n      dup1\n      0x23e583b4\n      eq\n      tag_8\n      jumpi\n    tag_2:\n      0x00\n      dup1\n      revert\n        /* \"Bluelight-MP/UserDashboard.sol\":6502:6676  function setProfilePic(string memory iPFS) external {\r... */\n    tag_3:\n      tag_34\n      0x04\n      dup1\n      calldatasize\n      sub\n      dup2\n      add\n      swap1\n      tag_35\n      swap2\n      swap1\n      tag_36\n      jump\t// in\n    tag_35:\n      tag_37\n      jump\t// in\n    tag_34:\n      stop\n        /* \"Bluelight-MP/UserDashboard.sol\":7319:7612  function deleteUser() external virtual override returns(bool){\r... */\n    tag_4:\n      tag_38\n      tag_39\n      jump\t// in\n    tag_38:\n      mload(0x40)\n      tag_40\n      swap2\n      swap1\n      tag_41\n      jump\t// in\n    tag_40:\n      mload(0x40)\n      dup1\n      swap2\n      sub\n      swap1\n      return\n        /* \"Bluelight-MP/UserDashboard.sol\":833:873  mapping (bytes32 => MyNFT) public myNFTs */\n    tag_5:\n      tag_42\n      0x04\n      dup1\n      calldatasize\n      sub\n      dup2\n      add\n      swap1\n      tag_43\n      swap2\n      swap1\n      tag_44\n      jump\t// in\n    tag_43:\n      tag_45\n      jump\t// in\n    tag_42:\n      mload(0x40)\n      tag_46\n      swap7\n      swap6\n      swap5\n      swap4\n      swap3\n      swap2\n      swap1\n      tag_47\n      jump\t// in\n    tag_46:\n      mload(0x40)\n      dup1\n      swap2\n      sub\n      swap1\n      return\n        /* \"Bluelight-MP/UserDashboard.sol\":6881:7313  function updateUser(string memory _userName) external virtual override{\r... */\n    tag_6:\n      tag_48\n      0x04\n      dup1\n      calldatasize\n      sub\n      dup2\n      add\n      swap1\n      tag_49\n      swap2\n      swap1\n      tag_36\n      jump\t// in\n    tag_49:\n      tag_50\n      jump\t// in\n    tag_48:\n      stop\n        /* \"Bluelight-MP/UserDashboard.sol\":4352:4831  function getNft(address _nftContractAddress, uint256 _tokenId) external virtual override view \r... */\n    tag_7:\n      tag_51\n      0x04\n      dup1\n      calldatasize\n      sub\n      dup2\n      add\n      swap1\n      tag_52\n      swap2\n      swap1\n      tag_53\n      jump\t// in\n    tag_52:\n      tag_54\n      jump\t// in\n    tag_51:\n      mload(0x40)\n      tag_55\n      swap7\n      swap6\n      swap5\n      swap4\n      swap3\n      swap2\n      swap1\n      tag_56\n      jump\t// in\n    tag_55:\n      mload(0x40)\n      dup1\n      swap2\n      sub\n      swap1\n      return\n        /* \"Bluelight-MP/UserDashboard.sol\":880:932  mapping (address => bytes32[]) public uniKeysMapping */\n    tag_8:\n      tag_57\n      0x04\n      dup1\n      calldatasize\n      sub\n      dup2\n      add\n      swap1\n      tag_58\n      swap2\n      swap1\n      tag_53\n      jump\t// in\n    tag_58:\n      tag_59\n      jump\t// in\n    tag_57:\n      mload(0x40)\n      tag_60\n      swap2\n      swap1\n      tag_61\n      jump\t// in\n    tag_60:\n      mload(0x40)\n      dup1\n      swap2\n      sub\n      swap1\n      return\n        /* \"Bluelight-MP/UserDashboard.sol\":3039:3313  function setBuyNftData(address newOwner, bytes32 uniKey) external virtual override{\r... */\n    tag_9:\n      tag_62\n      0x04\n      dup1\n      calldatasize\n      sub\n      dup2\n      add\n      swap1\n      tag_63\n      swap2\n      swap1\n      tag_64\n      jump\t// in\n    tag_63:\n      tag_65\n      jump\t// in\n    tag_62:\n      stop\n        /* \"Bluelight-MP/UserDashboard.sol\":2601:3033  function setNftCat(address nftContractAddress, uint256 tokenId, NftCategory nftCat) external {\r... */\n    tag_10:\n      tag_66\n      0x04\n      dup1\n      calldatasize\n      sub\n      dup2\n      add\n      swap1\n      tag_67\n      swap2\n      swap1\n      tag_68\n      jump\t// in\n    tag_67:\n      tag_69\n      jump\t// in\n    tag_66:\n      stop\n        /* \"Bluelight-MP/UserDashboard.sol\":5180:5460  function logIn() virtual override external {\r... */\n    tag_11:\n      tag_70\n      tag_71\n      jump\t// in\n    tag_70:\n      stop\n        /* \"Bluelight-MP/UserDashboard.sol\":3944:4340  function getNftWithBytes32(bytes32 _uniKey) external virtual override view \r... */\n    tag_12:\n      tag_72\n      0x04\n      dup1\n      calldatasize\n      sub\n      dup2\n      add\n      swap1\n      tag_73\n      swap2\n      swap1\n      tag_44\n      jump\t// in\n    tag_73:\n      tag_74\n      jump\t// in\n    tag_72:\n      mload(0x40)\n      tag_75\n      swap6\n      swap5\n      swap4\n      swap3\n      swap2\n      swap1\n      tag_76\n      jump\t// in\n    tag_75:\n      mload(0x40)\n      dup1\n      swap2\n      sub\n      swap1\n      return\n        /* \"Bluelight-MP/UserDashboard.sol\":5609:5839  function logOut() external virtual override{\r... */\n    tag_13:\n      tag_77\n      tag_78\n      jump\t// in\n    tag_77:\n      stop\n        /* \"Bluelight-MP/UserDashboard.sol\":4837:4977  function getUniKeysMapping(address ownerOfNfts) external view returns(bytes32[] memory){\r... */\n    tag_14:\n      tag_79\n      0x04\n      dup1\n      calldatasize\n      sub\n      dup2\n      add\n      swap1\n      tag_80\n      swap2\n      swap1\n      tag_81\n      jump\t// in\n    tag_80:\n      tag_82\n      jump\t// in\n    tag_79:\n      mload(0x40)\n      tag_83\n      swap2\n      swap1\n      tag_84\n      jump\t// in\n    tag_83:\n      mload(0x40)\n      dup1\n      swap2\n      sub\n      swap1\n      return\n        /* \"Bluelight-MP/UserDashboard.sol\":1149:1201  mapping (string => address) public userNameToAddress */\n    tag_15:\n      tag_85\n      0x04\n      dup1\n      calldatasize\n      sub\n      dup2\n      add\n      swap1\n      tag_86\n      swap2\n      swap1\n      tag_36\n      jump\t// in\n    tag_86:\n      tag_87\n      jump\t// in\n    tag_85:\n      mload(0x40)\n      tag_88\n      swap2\n      swap1\n      tag_89\n      jump\t// in\n    tag_88:\n      mload(0x40)\n      dup1\n      swap2\n      sub\n      swap1\n      return\n        /* \"Bluelight-MP/UserDashboard.sol\":2033:2595  function setNft(string memory _name, address nftContractAddress, uint256 tokenId, string memory iPFS) external virtual override{\r... */\n    tag_16:\n      tag_90\n      0x04\n      dup1\n      calldatasize\n      sub\n      dup2\n      add\n      swap1\n      tag_91\n      swap2\n      swap1\n      tag_92\n      jump\t// in\n    tag_91:\n      tag_93\n      jump\t// in\n    tag_90:\n      stop\n        /* \"Bluelight-MP/UserDashboard.sol\":1248:1310  mapping (address => AmountRecord) public addressToAmountRecord */\n    tag_17:\n      tag_94\n      0x04\n      dup1\n      calldatasize\n      sub\n      dup2\n      add\n      swap1\n      tag_95\n      swap2\n      swap1\n      tag_81\n      jump\t// in\n    tag_95:\n      tag_96\n      jump\t// in\n    tag_94:\n      mload(0x40)\n      tag_97\n      swap5\n      swap4\n      swap3\n      swap2\n      swap1\n      tag_98\n      jump\t// in\n    tag_97:\n      mload(0x40)\n      dup1\n      swap2\n      sub\n      swap1\n      return\n        /* \"Bluelight-MP/UserDashboard.sol\":7618:8076  function setAmountRecord(address user, uint curAmountSpent, uint tokenAmountSpent, uint curAmountEarned, uint tokenAmountEarned) external virtual override{\r... */\n    tag_18:\n      tag_99\n      0x04\n      dup1\n      calldatasize\n      sub\n      dup2\n      add\n      swap1\n      tag_100\n      swap2\n      swap1\n      tag_101\n      jump\t// in\n    tag_100:\n      tag_102\n      jump\t// in\n    tag_99:\n      stop\n        /* \"Bluelight-MP/UserDashboard.sol\":8082:8492  function userAmountDetail(address user) external virtual override view \r... */\n    tag_19:\n      tag_103\n      0x04\n      dup1\n      calldatasize\n      sub\n      dup2\n      add\n      swap1\n      tag_104\n      swap2\n      swap1\n      tag_81\n      jump\t// in\n    tag_104:\n      tag_105\n      jump\t// in\n    tag_103:\n      mload(0x40)\n      tag_106\n      swap5\n      swap4\n      swap3\n      swap2\n      swap1\n      tag_98\n      jump\t// in\n    tag_106:\n      mload(0x40)\n      dup1\n      swap2\n      sub\n      swap1\n      return\n        /* \"Bluelight-MP/UserDashboard.sol\":5845:6496  function signUp(string memory _userName) external virtual override{\r... */\n    tag_20:\n      tag_107\n      0x04\n      dup1\n      calldatasize\n      sub\n      dup2\n      add\n      swap1\n      tag_108\n      swap2\n      swap1\n      tag_36\n      jump\t// in\n    tag_108:\n      tag_109\n      jump\t// in\n    tag_107:\n      stop\n        /* \"Bluelight-MP/UserDashboard.sol\":939:991  mapping (NftCategory => bytes32[]) public nftCatWise */\n    tag_21:\n      tag_110\n      0x04\n      dup1\n      calldatasize\n      sub\n      dup2\n      add\n      swap1\n      tag_111\n      swap2\n      swap1\n      tag_112\n      jump\t// in\n    tag_111:\n      tag_113\n      jump\t// in\n    tag_110:\n      mload(0x40)\n      tag_114\n      swap2\n      swap1\n      tag_61\n      jump\t// in\n    tag_114:\n      mload(0x40)\n      dup1\n      swap2\n      sub\n      swap1\n      return\n        /* \"Bluelight-MP/UserDashboard.sol\":3680:3938  function getNftCategories() external pure returns(string memory,string memory,string memory,string memory,string memory,string memory,string memory) {\r... */\n    tag_22:\n      tag_115\n      tag_116\n      jump\t// in\n    tag_115:\n      mload(0x40)\n      tag_117\n      swap8\n      swap7\n      swap6\n      swap5\n      swap4\n      swap3\n      swap2\n      swap1\n      tag_118\n      jump\t// in\n    tag_117:\n      mload(0x40)\n      dup1\n      swap2\n      sub\n      swap1\n      return\n        /* \"Bluelight-MP/UserDashboard.sol\":6682:6875  function checkUser() external virtual override view returns(string memory){\r... */\n    tag_23:\n      tag_119\n      tag_120\n      jump\t// in\n    tag_119:\n      mload(0x40)\n      tag_121\n      swap2\n      swap1\n      tag_122\n      jump\t// in\n    tag_121:\n      mload(0x40)\n      dup1\n      swap2\n      sub\n      swap1\n      return\n        /* \"Bluelight-MP/UserDashboard.sol\":3528:3674  function getUserNftCatWise(NftCategory nftCat) external view returns(bytes32[] memory){\r... */\n    tag_24:\n      tag_123\n      0x04\n      dup1\n      calldatasize\n      sub\n      dup2\n      add\n      swap1\n      tag_124\n      swap2\n      swap1\n      tag_125\n      jump\t// in\n    tag_124:\n      tag_126\n      jump\t// in\n    tag_123:\n      mload(0x40)\n      tag_127\n      swap2\n      swap1\n      tag_84\n      jump\t// in\n    tag_127:\n      mload(0x40)\n      dup1\n      swap2\n      sub\n      swap1\n      return\n        /* \"Bluelight-MP/UserDashboard.sol\":998:1075  mapping (address => mapping (NftCategory => bytes32[])) public userNftCatWise */\n    tag_25:\n      tag_128\n      0x04\n      dup1\n      calldatasize\n      sub\n      dup2\n      add\n      swap1\n      tag_129\n      swap2\n      swap1\n      tag_130\n      jump\t// in\n    tag_129:\n      tag_131\n      jump\t// in\n    tag_128:\n      mload(0x40)\n      tag_132\n      swap2\n      swap1\n      tag_61\n      jump\t// in\n    tag_132:\n      mload(0x40)\n      dup1\n      swap2\n      sub\n      swap1\n      return\n        /* \"Bluelight-MP/UserDashboard.sol\":3393:3522  function getAllNftCatWise(NftCategory nftCat) external view returns(bytes32[] memory){\r... */\n    tag_26:\n      tag_133\n      0x04\n      dup1\n      calldatasize\n      sub\n      dup2\n      add\n      swap1\n      tag_134\n      swap2\n      swap1\n      tag_125\n      jump\t// in\n    tag_134:\n      tag_135\n      jump\t// in\n    tag_133:\n      mload(0x40)\n      tag_136\n      swap2\n      swap1\n      tag_84\n      jump\t// in\n    tag_136:\n      mload(0x40)\n      dup1\n      swap2\n      sub\n      swap1\n      return\n        /* \"Bluelight-MP/UserDashboard.sol\":4983:5103  function getProfilePic() external view returns(string memory ipfs){\r... */\n    tag_27:\n      tag_137\n      tag_138\n      jump\t// in\n    tag_137:\n      mload(0x40)\n      tag_139\n      swap2\n      swap1\n      tag_122\n      jump\t// in\n    tag_139:\n      mload(0x40)\n      dup1\n      swap2\n      sub\n      swap1\n      return\n        /* \"Bluelight-MP/UserDashboard.sol\":5467:5603  function checkLogIn(address _userAddr) external virtual override view returns(bool){  \r... */\n    tag_28:\n      tag_140\n      0x04\n      dup1\n      calldatasize\n      sub\n      dup2\n      add\n      swap1\n      tag_141\n      swap2\n      swap1\n      tag_81\n      jump\t// in\n    tag_141:\n      tag_142\n      jump\t// in\n    tag_140:\n      mload(0x40)\n      tag_143\n      swap2\n      swap1\n      tag_41\n      jump\t// in\n    tag_143:\n      mload(0x40)\n      dup1\n      swap2\n      sub\n      swap1\n      return\n        /* \"Bluelight-MP/UserDashboard.sol\":6502:6676  function setProfilePic(string memory iPFS) external {\r... */\n    tag_37:\n        /* \"Bluelight-MP/UserDashboard.sol\":6574:6579  users */\n      0x05\n        /* \"Bluelight-MP/UserDashboard.sol\":6574:6591  users[msg.sender] */\n      0x00\n        /* \"Bluelight-MP/UserDashboard.sol\":6580:6590  msg.sender */\n      caller\n        /* \"Bluelight-MP/UserDashboard.sol\":6574:6591  users[msg.sender] */\n      0xffffffffffffffffffffffffffffffffffffffff\n      and\n      0xffffffffffffffffffffffffffffffffffffffff\n      and\n      dup2\n      mstore\n      0x20\n      add\n      swap1\n      dup2\n      mstore\n      0x20\n      add\n      0x00\n      keccak256\n        /* \"Bluelight-MP/UserDashboard.sol\":6574:6600  users[msg.sender].loggedIn */\n      0x03\n      add\n      0x00\n      swap1\n      sload\n      swap1\n      0x0100\n      exp\n      swap1\n      div\n      0xff\n      and\n        /* \"Bluelight-MP/UserDashboard.sol\":6602:6621  CREATE_ACC_OR_LOGIN */\n      mload(0x40)\n      dup1\n      0x40\n      add\n      0x40\n      mstore\n      dup1\n      0x05\n      dup2\n      mstore\n      0x20\n      add\n      0x574d552d32000000000000000000000000000000000000000000000000000000\n      dup2\n      mstore\n      pop\n        /* \"Bluelight-MP/UserDashboard.sol\":6565:6622  require (users[msg.sender].loggedIn, CREATE_ACC_OR_LOGIN) */\n      swap1\n      tag_145\n      jumpi\n      mload(0x40)\n      0x08c379a000000000000000000000000000000000000000000000000000000000\n      dup2\n      mstore\n      0x04\n      add\n      tag_146\n      swap2\n      swap1\n      tag_122\n      jump\t// in\n    tag_146:\n      mload(0x40)\n      dup1\n      swap2\n      sub\n      swap1\n      revert\n    tag_145:\n      pop\n        /* \"Bluelight-MP/UserDashboard.sol\":6664:6668  iPFS */\n      dup1\n        /* \"Bluelight-MP/UserDashboard.sol\":6633:6638  users */\n      0x05\n        /* \"Bluelight-MP/UserDashboard.sol\":6633:6650  users[msg.sender] */\n      0x00\n        /* \"Bluelight-MP/UserDashboard.sol\":6639:6649  msg.sender */\n      caller\n        /* \"Bluelight-MP/UserDashboard.sol\":6633:6650  users[msg.sender] */\n      0xffffffffffffffffffffffffffffffffffffffff\n      and\n      0xffffffffffffffffffffffffffffffffffffffff\n      and\n      dup2\n      mstore\n      0x20\n      add\n      swap1\n      dup2\n      mstore\n      0x20\n      add\n      0x00\n      keccak256\n        /* \"Bluelight-MP/UserDashboard.sol\":6633:6661  users[msg.sender].profilePic */\n      0x04\n      add\n        /* \"Bluelight-MP/UserDashboard.sol\":6633:6668  users[msg.sender].profilePic = iPFS */\n      swap1\n      dup1\n      mload\n      swap1\n      0x20\n      add\n      swap1\n      tag_147\n      swap3\n      swap2\n      swap1\n      tag_148\n      jump\t// in\n    tag_147:\n      pop\n        /* \"Bluelight-MP/UserDashboard.sol\":6502:6676  function setProfilePic(string memory iPFS) external {\r... */\n      pop\n      jump\t// out\n        /* \"Bluelight-MP/UserDashboard.sol\":7319:7612  function deleteUser() external virtual override returns(bool){\r... */\n    tag_39:\n        /* \"Bluelight-MP/UserDashboard.sol\":7375:7379  bool */\n      0x00\n        /* \"Bluelight-MP/UserDashboard.sol\":7400:7405  users */\n      0x05\n        /* \"Bluelight-MP/UserDashboard.sol\":7400:7417  users[msg.sender] */\n      0x00\n        /* \"Bluelight-MP/UserDashboard.sol\":7406:7416  msg.sender */\n      caller\n        /* \"Bluelight-MP/UserDashboard.sol\":7400:7417  users[msg.sender] */\n      0xffffffffffffffffffffffffffffffffffffffff\n      and\n      0xffffffffffffffffffffffffffffffffffffffff\n      and\n      dup2\n      mstore\n      0x20\n      add\n      swap1\n      dup2\n      mstore\n      0x20\n      add\n      0x00\n      keccak256\n        /* \"Bluelight-MP/UserDashboard.sol\":7400:7429  users[msg.sender].userExisted */\n      0x01\n      add\n      0x00\n      swap1\n      sload\n      swap1\n      0x0100\n      exp\n      swap1\n      div\n      0xff\n      and\n        /* \"Bluelight-MP/UserDashboard.sol\":7431:7447  USER_NOT_EXISTED */\n      mload(0x40)\n      dup1\n      0x40\n      add\n      0x40\n      mstore\n      dup1\n      0x05\n      dup2\n      mstore\n      0x20\n      add\n      0x574d552d35000000000000000000000000000000000000000000000000000000\n      dup2\n      mstore\n      pop\n        /* \"Bluelight-MP/UserDashboard.sol\":7391:7448  require (users[msg.sender].userExisted, USER_NOT_EXISTED) */\n      swap1\n      tag_150\n      jumpi\n      mload(0x40)\n      0x08c379a000000000000000000000000000000000000000000000000000000000\n      dup2\n      mstore\n      0x04\n      add\n      tag_151\n      swap2\n      swap1\n      tag_122\n      jump\t// in\n    tag_151:\n      mload(0x40)\n      dup1\n      swap2\n      sub\n      swap1\n      revert\n    tag_150:\n      pop\n        /* \"Bluelight-MP/UserDashboard.sol\":7459:7477  string memory name */\n      0x00\n        /* \"Bluelight-MP/UserDashboard.sol\":7480:7485  users */\n      0x05\n        /* \"Bluelight-MP/UserDashboard.sol\":7480:7497  users[msg.sender] */\n      0x00\n        /* \"Bluelight-MP/UserDashboard.sol\":7486:7496  msg.sender */\n      caller\n        /* \"Bluelight-MP/UserDashboard.sol\":7480:7497  users[msg.sender] */\n      0xffffffffffffffffffffffffffffffffffffffff\n      and\n      0xffffffffffffffffffffffffffffffffffffffff\n      and\n      dup2\n      mstore\n      0x20\n      add\n      swap1\n      dup2\n      mstore\n      0x20\n      add\n      0x00\n      keccak256\n        /* \"Bluelight-MP/UserDashboard.sol\":7480:7506  users[msg.sender].userName */\n      0x00\n      add\n        /* \"Bluelight-MP/UserDashboard.sol\":7459:7506  string memory name = users[msg.sender].userName */\n      dup1\n      sload\n      tag_152\n      swap1\n      tag_153\n      jump\t// in\n    tag_152:\n      dup1\n      0x1f\n      add\n      0x20\n      dup1\n      swap2\n      div\n      mul\n      0x20\n      add\n      mload(0x40)\n      swap1\n      dup2\n      add\n      0x40\n      mstore\n      dup1\n      swap3\n      swap2\n      swap1\n      dup2\n      dup2\n      mstore\n      0x20\n      add\n      dup3\n      dup1\n      sload\n      tag_154\n      swap1\n      tag_153\n      jump\t// in\n    tag_154:\n      dup1\n      iszero\n      tag_155\n      jumpi\n      dup1\n      0x1f\n      lt\n      tag_156\n      jumpi\n      0x0100\n      dup1\n      dup4\n      sload\n      div\n      mul\n      dup4\n      mstore\n      swap2\n      0x20\n      add\n      swap2\n      jump(tag_155)\n    tag_156:\n      dup3\n      add\n      swap2\n      swap1\n      0x00\n      mstore\n      keccak256(0x00, 0x20)\n      swap1\n    tag_157:\n      dup2\n      sload\n      dup2\n      mstore\n      swap1\n      0x01\n      add\n      swap1\n      0x20\n      add\n      dup1\n      dup4\n      gt\n      tag_157\n      jumpi\n      dup3\n      swap1\n      sub\n      0x1f\n      and\n      dup3\n      add\n      swap2\n    tag_155:\n      pop\n      pop\n      pop\n      pop\n      pop\n      swap1\n      pop\n        /* \"Bluelight-MP/UserDashboard.sol\":7524:7541  userNameToAddress */\n      0x06\n        /* \"Bluelight-MP/UserDashboard.sol\":7542:7546  name */\n      dup2\n        /* \"Bluelight-MP/UserDashboard.sol\":7524:7547  userNameToAddress[name] */\n      mload(0x40)\n      tag_158\n      swap2\n      swap1\n      tag_159\n      jump\t// in\n    tag_158:\n      swap1\n      dup2\n      mstore\n      0x20\n      add\n      mload(0x40)\n      dup1\n      swap2\n      sub\n      swap1\n      keccak256\n      0x00\n        /* \"Bluelight-MP/UserDashboard.sol\":7517:7547  delete userNameToAddress[name] */\n      0x0100\n      exp\n      dup2\n      sload\n      swap1\n      0xffffffffffffffffffffffffffffffffffffffff\n      mul\n      not\n      and\n      swap1\n      sstore\n        /* \"Bluelight-MP/UserDashboard.sol\":7565:7570  users */\n      0x05\n        /* \"Bluelight-MP/UserDashboard.sol\":7565:7582  users[msg.sender] */\n      0x00\n        /* \"Bluelight-MP/UserDashboard.sol\":7571:7581  msg.sender */\n      caller\n        /* \"Bluelight-MP/UserDashboard.sol\":7565:7582  users[msg.sender] */\n      0xffffffffffffffffffffffffffffffffffffffff\n      and\n      0xffffffffffffffffffffffffffffffffffffffff\n      and\n      dup2\n      mstore\n      0x20\n      add\n      swap1\n      dup2\n      mstore\n      0x20\n      add\n      0x00\n      keccak256\n      0x00\n        /* \"Bluelight-MP/UserDashboard.sol\":7558:7582  delete users[msg.sender] */\n      dup1\n      dup3\n      add\n      0x00\n      tag_160\n      swap2\n      swap1\n      tag_161\n      jump\t// in\n    tag_160:\n      0x01\n      dup3\n      add\n      exp(0x0100, 0x00)\n      dup2\n      sload\n      swap1\n      0xff\n      mul\n      not\n      and\n      swap1\n      sstore\n      0x02\n      dup3\n      add\n      0x00\n      swap1\n      sstore\n      0x03\n      dup3\n      add\n      exp(0x0100, 0x00)\n      dup2\n      sload\n      swap1\n      0xff\n      mul\n      not\n      and\n      swap1\n      sstore\n      0x04\n      dup3\n      add\n      0x00\n      tag_162\n      swap2\n      swap1\n      tag_161\n      jump\t// in\n    tag_162:\n      pop\n      pop\n        /* \"Bluelight-MP/UserDashboard.sol\":7600:7604  true */\n      0x01\n        /* \"Bluelight-MP/UserDashboard.sol\":7593:7604  return true */\n      swap2\n      pop\n      pop\n        /* \"Bluelight-MP/UserDashboard.sol\":7319:7612  function deleteUser() external virtual override returns(bool){\r... */\n      swap1\n      jump\t// out\n        /* \"Bluelight-MP/UserDashboard.sol\":833:873  mapping (bytes32 => MyNFT) public myNFTs */\n    tag_45:\n      mstore(0x20, 0x01)\n      dup1\n      0x00\n      mstore\n      keccak256(0x00, 0x40)\n      0x00\n      swap2\n      pop\n      swap1\n      pop\n      dup1\n      0x00\n      add\n      dup1\n      sload\n      tag_163\n      swap1\n      tag_153\n      jump\t// in\n    tag_163:\n      dup1\n      0x1f\n      add\n      0x20\n      dup1\n      swap2\n      div\n      mul\n      0x20\n      add\n      mload(0x40)\n      swap1\n      dup2\n      add\n      0x40\n      mstore\n      dup1\n      swap3\n      swap2\n      swap1\n      dup2\n      dup2\n      mstore\n      0x20\n      add\n      dup3\n      dup1\n      sload\n      tag_164\n      swap1\n      tag_153\n      jump\t// in\n    tag_164:\n      dup1\n      iszero\n      tag_165\n      jumpi\n      dup1\n      0x1f\n      lt\n      tag_166\n      jumpi\n      0x0100\n      dup1\n      dup4\n      sload\n      div\n      mul\n      dup4\n      mstore\n      swap2\n      0x20\n      add\n      swap2\n      jump(tag_165)\n    tag_166:\n      dup3\n      add\n      swap2\n      swap1\n      0x00\n      mstore\n      keccak256(0x00, 0x20)\n      swap1\n    tag_167:\n      dup2\n      sload\n      dup2\n      mstore\n      swap1\n      0x01\n      add\n      swap1\n      0x20\n      add\n      dup1\n      dup4\n      gt\n      tag_167\n      jumpi\n      dup3\n      swap1\n      sub\n      0x1f\n      and\n      dup3\n      add\n      swap2\n    tag_165:\n      pop\n      pop\n      pop\n      pop\n      pop\n      swap1\n      dup1\n      0x01\n      add\n      0x00\n      swap1\n      sload\n      swap1\n      0x0100\n      exp\n      swap1\n      div\n      0xffffffffffffffffffffffffffffffffffffffff\n      and\n      swap1\n      dup1\n      0x02\n      add\n      sload\n      swap1\n      dup1\n      0x03\n      add\n      0x00\n      swap1\n      sload\n      swap1\n      0x0100\n      exp\n      swap1\n      div\n      0xffffffffffffffffffffffffffffffffffffffff\n      and\n      swap1\n      dup1\n      0x04\n      add\n      dup1\n      sload\n      tag_168\n      swap1\n      tag_153\n      jump\t// in\n    tag_168:\n      dup1\n      0x1f\n      add\n      0x20\n      dup1\n      swap2\n      div\n      mul\n      0x20\n      add\n      mload(0x40)\n      swap1\n      dup2\n      add\n      0x40\n      mstore\n      dup1\n      swap3\n      swap2\n      swap1\n      dup2\n      dup2\n      mstore\n      0x20\n      add\n      dup3\n      dup1\n      sload\n      tag_169\n      swap1\n      tag_153\n      jump\t// in\n    tag_169:\n      dup1\n      iszero\n      tag_170\n      jumpi\n      dup1\n      0x1f\n      lt\n      tag_171\n      jumpi\n      0x0100\n      dup1\n      dup4\n      sload\n      div\n      mul\n      dup4\n      mstore\n      swap2\n      0x20\n      add\n      swap2\n      jump(tag_170)\n    tag_171:\n      dup3\n      add\n      swap2\n      swap1\n      0x00\n      mstore\n      keccak256(0x00, 0x20)\n      swap1\n    tag_172:\n      dup2\n      sload\n      dup2\n      mstore\n      swap1\n      0x01\n      add\n      swap1\n      0x20\n      add\n      dup1\n      dup4\n      gt\n      tag_172\n      jumpi\n      dup3\n      swap1\n      sub\n      0x1f\n      and\n      dup3\n      add\n      swap2\n    tag_170:\n      pop\n      pop\n      pop\n      pop\n      pop\n      swap1\n      dup1\n      0x05\n      add\n      0x00\n      swap1\n      sload\n      swap1\n      0x0100\n      exp\n      swap1\n      div\n      0xff\n      and\n      swap1\n      pop\n      dup7\n      jump\t// out\n        /* \"Bluelight-MP/UserDashboard.sol\":6881:7313  function updateUser(string memory _userName) external virtual override{\r... */\n    tag_50:\n        /* \"Bluelight-MP/UserDashboard.sol\":6971:6976  users */\n      0x05\n        /* \"Bluelight-MP/UserDashboard.sol\":6971:6988  users[msg.sender] */\n      0x00\n        /* \"Bluelight-MP/UserDashboard.sol\":6977:6987  msg.sender */\n      caller\n        /* \"Bluelight-MP/UserDashboard.sol\":6971:6988  users[msg.sender] */\n      0xffffffffffffffffffffffffffffffffffffffff\n      and\n      0xffffffffffffffffffffffffffffffffffffffff\n      and\n      dup2\n      mstore\n      0x20\n      add\n      swap1\n      dup2\n      mstore\n      0x20\n      add\n      0x00\n      keccak256\n        /* \"Bluelight-MP/UserDashboard.sol\":6971:6997  users[msg.sender].loggedIn */\n      0x03\n      add\n      0x00\n      swap1\n      sload\n      swap1\n      0x0100\n      exp\n      swap1\n      div\n      0xff\n      and\n        /* \"Bluelight-MP/UserDashboard.sol\":6999:7018  CREATE_ACC_OR_LOGIN */\n      mload(0x40)\n      dup1\n      0x40\n      add\n      0x40\n      mstore\n      dup1\n      0x05\n      dup2\n      mstore\n      0x20\n      add\n      0x574d552d32000000000000000000000000000000000000000000000000000000\n      dup2\n      mstore\n      pop\n        /* \"Bluelight-MP/UserDashboard.sol\":6962:7019  require (users[msg.sender].loggedIn, CREATE_ACC_OR_LOGIN) */\n      swap1\n      tag_174\n      jumpi\n      mload(0x40)\n      0x08c379a000000000000000000000000000000000000000000000000000000000\n      dup2\n      mstore\n      0x04\n      add\n      tag_175\n      swap2\n      swap1\n      tag_122\n      jump\t// in\n    tag_175:\n      mload(0x40)\n      dup1\n      swap2\n      sub\n      swap1\n      revert\n    tag_174:\n      pop\n        /* \"Bluelight-MP/UserDashboard.sol\":7079:7080  0 */\n      0x00\n        /* \"Bluelight-MP/UserDashboard.sol\":7039:7081  userNameToAddress[_userName] == address(0) */\n      0xffffffffffffffffffffffffffffffffffffffff\n      and\n        /* \"Bluelight-MP/UserDashboard.sol\":7039:7056  userNameToAddress */\n      0x06\n        /* \"Bluelight-MP/UserDashboard.sol\":7057:7066  _userName */\n      dup3\n        /* \"Bluelight-MP/UserDashboard.sol\":7039:7067  userNameToAddress[_userName] */\n      mload(0x40)\n      tag_176\n      swap2\n      swap1\n      tag_159\n      jump\t// in\n    tag_176:\n      swap1\n      dup2\n      mstore\n      0x20\n      add\n      mload(0x40)\n      dup1\n      swap2\n      sub\n      swap1\n      keccak256\n      0x00\n      swap1\n      sload\n      swap1\n      0x0100\n      exp\n      swap1\n      div\n      0xffffffffffffffffffffffffffffffffffffffff\n      and\n        /* \"Bluelight-MP/UserDashboard.sol\":7039:7081  userNameToAddress[_userName] == address(0) */\n      0xffffffffffffffffffffffffffffffffffffffff\n      and\n      eq\n        /* \"Bluelight-MP/UserDashboard.sol\":7083:7100  USER_NAME_EXISTED */\n      mload(0x40)\n      dup1\n      0x40\n      add\n      0x40\n      mstore\n      dup1\n      0x05\n      dup2\n      mstore\n      0x20\n      add\n      0x574d552d36000000000000000000000000000000000000000000000000000000\n      dup2\n      mstore\n      pop\n        /* \"Bluelight-MP/UserDashboard.sol\":7030:7101  require (userNameToAddress[_userName] == address(0), USER_NAME_EXISTED) */\n      swap1\n      tag_177\n      jumpi\n      mload(0x40)\n      0x08c379a000000000000000000000000000000000000000000000000000000000\n      dup2\n      mstore\n      0x04\n      add\n      tag_178\n      swap2\n      swap1\n      tag_122\n      jump\t// in\n    tag_178:\n      mload(0x40)\n      dup1\n      swap2\n      sub\n      swap1\n      revert\n    tag_177:\n      pop\n        /* \"Bluelight-MP/UserDashboard.sol\":7114:7132  string memory name */\n      0x00\n        /* \"Bluelight-MP/UserDashboard.sol\":7135:7140  users */\n      0x05\n        /* \"Bluelight-MP/UserDashboard.sol\":7135:7152  users[msg.sender] */\n      0x00\n        /* \"Bluelight-MP/UserDashboard.sol\":7141:7151  msg.sender */\n      caller\n        /* \"Bluelight-MP/UserDashboard.sol\":7135:7152  users[msg.sender] */\n      0xffffffffffffffffffffffffffffffffffffffff\n      and\n      0xffffffffffffffffffffffffffffffffffffffff\n      and\n      dup2\n      mstore\n      0x20\n      add\n      swap1\n      dup2\n      mstore\n      0x20\n      add\n      0x00\n      keccak256\n        /* \"Bluelight-MP/UserDashboard.sol\":7135:7161  users[msg.sender].userName */\n      0x00\n      add\n        /* \"Bluelight-MP/UserDashboard.sol\":7114:7161  string memory name = users[msg.sender].userName */\n      dup1\n      sload\n      tag_179\n      swap1\n      tag_153\n      jump\t// in\n    tag_179:\n      dup1\n      0x1f\n      add\n      0x20\n      dup1\n      swap2\n      div\n      mul\n      0x20\n      add\n      mload(0x40)\n      swap1\n      dup2\n      add\n      0x40\n      mstore\n      dup1\n      swap3\n      swap2\n      swap1\n      dup2\n      dup2\n      mstore\n      0x20\n      add\n      dup3\n      dup1\n      sload\n      tag_180\n      swap1\n      tag_153\n      jump\t// in\n    tag_180:\n      dup1\n      iszero\n      tag_181\n      jumpi\n      dup1\n      0x1f\n      lt\n      tag_182\n      jumpi\n      0x0100\n      dup1\n      dup4\n      sload\n      div\n      mul\n      dup4\n      mstore\n      swap2\n      0x20\n      add\n      swap2\n      jump(tag_181)\n    tag_182:\n      dup3\n      add\n      swap2\n      swap1\n      0x00\n      mstore\n      keccak256(0x00, 0x20)\n      swap1\n    tag_183:\n      dup2\n      sload\n      dup2\n      mstore\n      swap1\n      0x01\n      add\n      swap1\n      0x20\n      add\n      dup1\n      dup4\n      gt\n      tag_183\n      jumpi\n      dup3\n      swap1\n      sub\n      0x1f\n      and\n      dup3\n      add\n      swap2\n    tag_181:\n      pop\n      pop\n      pop\n      pop\n      pop\n      swap1\n      pop\n        /* \"Bluelight-MP/UserDashboard.sol\":7179:7196  userNameToAddress */\n      0x06\n        /* \"Bluelight-MP/UserDashboard.sol\":7197:7201  name */\n      dup2\n        /* \"Bluelight-MP/UserDashboard.sol\":7179:7202  userNameToAddress[name] */\n      mload(0x40)\n      tag_184\n      swap2\n      swap1\n      tag_159\n      jump\t// in\n    tag_184:\n      swap1\n      dup2\n      mstore\n      0x20\n      add\n      mload(0x40)\n      dup1\n      swap2\n      sub\n      swap1\n      keccak256\n      0x00\n        /* \"Bluelight-MP/UserDashboard.sol\":7172:7202  delete userNameToAddress[name] */\n      0x0100\n      exp\n      dup2\n      sload\n      swap1\n      0xffffffffffffffffffffffffffffffffffffffff\n      mul\n      not\n      and\n      swap1\n      sstore\n        /* \"Bluelight-MP/UserDashboard.sol\":7244:7254  msg.sender */\n      caller\n        /* \"Bluelight-MP/UserDashboard.sol\":7213:7230  userNameToAddress */\n      0x06\n        /* \"Bluelight-MP/UserDashboard.sol\":7231:7240  _userName */\n      dup4\n        /* \"Bluelight-MP/UserDashboard.sol\":7213:7241  userNameToAddress[_userName] */\n      mload(0x40)\n      tag_185\n      swap2\n      swap1\n      tag_159\n      jump\t// in\n    tag_185:\n      swap1\n      dup2\n      mstore\n      0x20\n      add\n      mload(0x40)\n      dup1\n      swap2\n      sub\n      swap1\n      keccak256\n      0x00\n        /* \"Bluelight-MP/UserDashboard.sol\":7213:7254  userNameToAddress[_userName] = msg.sender */\n      0x0100\n      exp\n      dup2\n      sload\n      dup2\n      0xffffffffffffffffffffffffffffffffffffffff\n      mul\n      not\n      and\n      swap1\n      dup4\n      0xffffffffffffffffffffffffffffffffffffffff\n      and\n      mul\n      or\n      swap1\n      sstore\n      pop\n        /* \"Bluelight-MP/UserDashboard.sol\":7296:7305  _userName */\n      dup2\n        /* \"Bluelight-MP/UserDashboard.sol\":7267:7272  users */\n      0x05\n        /* \"Bluelight-MP/UserDashboard.sol\":7267:7284  users[msg.sender] */\n      0x00\n        /* \"Bluelight-MP/UserDashboard.sol\":7273:7283  msg.sender */\n      caller\n        /* \"Bluelight-MP/UserDashboard.sol\":7267:7284  users[msg.sender] */\n      0xffffffffffffffffffffffffffffffffffffffff\n      and\n      0xffffffffffffffffffffffffffffffffffffffff\n      and\n      dup2\n      mstore\n      0x20\n      add\n      swap1\n      dup2\n      mstore\n      0x20\n      add\n      0x00\n      keccak256\n        /* \"Bluelight-MP/UserDashboard.sol\":7267:7293  users[msg.sender].userName */\n      0x00\n      add\n        /* \"Bluelight-MP/UserDashboard.sol\":7267:7305  users[msg.sender].userName = _userName */\n      swap1\n      dup1\n      mload\n      swap1\n      0x20\n      add\n      swap1\n      tag_186\n      swap3\n      swap2\n      swap1\n      tag_148\n      jump\t// in\n    tag_186:\n      pop\n        /* \"Bluelight-MP/UserDashboard.sol\":6881:7313  function updateUser(string memory _userName) external virtual override{\r... */\n      pop\n      pop\n      jump\t// out\n        /* \"Bluelight-MP/UserDashboard.sol\":4352:4831  function getNft(address _nftContractAddress, uint256 _tokenId) external virtual override view \r... */\n    tag_54:\n        /* \"Bluelight-MP/UserDashboard.sol\":4464:4478  bytes32 uniKey */\n      0x00\n        /* \"Bluelight-MP/UserDashboard.sol\":4480:4506  address nftContractAddress */\n      dup1\n        /* \"Bluelight-MP/UserDashboard.sol\":4508:4520  uint tokenId */\n      0x00\n        /* \"Bluelight-MP/UserDashboard.sol\":4522:4540  string memory name */\n      0x60\n        /* \"Bluelight-MP/UserDashboard.sol\":4542:4555  address owner */\n      0x00\n        /* \"Bluelight-MP/UserDashboard.sol\":4557:4575  string memory iPFS */\n      0x60\n        /* \"Bluelight-MP/UserDashboard.sol\":4597:4612  bytes32 _uniKey */\n      0x00\n        /* \"Bluelight-MP/UserDashboard.sol\":4615:4665  getPrivateUniqueKey(_nftContractAddress, _tokenId) */\n      tag_188\n        /* \"Bluelight-MP/UserDashboard.sol\":4635:4654  _nftContractAddress */\n      dup10\n        /* \"Bluelight-MP/UserDashboard.sol\":4656:4664  _tokenId */\n      dup10\n        /* \"Bluelight-MP/UserDashboard.sol\":4615:4634  getPrivateUniqueKey */\n      tag_189\n        /* \"Bluelight-MP/UserDashboard.sol\":4615:4665  getPrivateUniqueKey(_nftContractAddress, _tokenId) */\n      jump\t// in\n    tag_188:\n        /* \"Bluelight-MP/UserDashboard.sol\":4597:4665  bytes32 _uniKey = getPrivateUniqueKey(_nftContractAddress, _tokenId) */\n      swap1\n      pop\n        /* \"Bluelight-MP/UserDashboard.sol\":4687:4694  _uniKey */\n      dup1\n        /* \"Bluelight-MP/UserDashboard.sol\":4696:4702  myNFTs */\n      0x01\n        /* \"Bluelight-MP/UserDashboard.sol\":4696:4711  myNFTs[_uniKey] */\n      0x00\n        /* \"Bluelight-MP/UserDashboard.sol\":4703:4710  _uniKey */\n      dup4\n        /* \"Bluelight-MP/UserDashboard.sol\":4696:4711  myNFTs[_uniKey] */\n      dup2\n      mstore\n      0x20\n      add\n      swap1\n      dup2\n      mstore\n      0x20\n      add\n      0x00\n      keccak256\n        /* \"Bluelight-MP/UserDashboard.sol\":4696:4727  myNFTs[_uniKey].contractAddress */\n      0x01\n      add\n      0x00\n      swap1\n      sload\n      swap1\n      0x0100\n      exp\n      swap1\n      div\n      0xffffffffffffffffffffffffffffffffffffffff\n      and\n        /* \"Bluelight-MP/UserDashboard.sol\":4729:4735  myNFTs */\n      0x01\n        /* \"Bluelight-MP/UserDashboard.sol\":4729:4744  myNFTs[_uniKey] */\n      0x00\n        /* \"Bluelight-MP/UserDashboard.sol\":4736:4743  _uniKey */\n      dup5\n        /* \"Bluelight-MP/UserDashboard.sol\":4729:4744  myNFTs[_uniKey] */\n      dup2\n      mstore\n      0x20\n      add\n      swap1\n      dup2\n      mstore\n      0x20\n      add\n      0x00\n      keccak256\n        /* \"Bluelight-MP/UserDashboard.sol\":4729:4752  myNFTs[_uniKey].tokenId */\n      0x02\n      add\n      sload\n        /* \"Bluelight-MP/UserDashboard.sol\":4754:4760  myNFTs */\n      0x01\n        /* \"Bluelight-MP/UserDashboard.sol\":4754:4769  myNFTs[_uniKey] */\n      0x00\n        /* \"Bluelight-MP/UserDashboard.sol\":4761:4768  _uniKey */\n      dup6\n        /* \"Bluelight-MP/UserDashboard.sol\":4754:4769  myNFTs[_uniKey] */\n      dup2\n      mstore\n      0x20\n      add\n      swap1\n      dup2\n      mstore\n      0x20\n      add\n      0x00\n      keccak256\n        /* \"Bluelight-MP/UserDashboard.sol\":4754:4777  myNFTs[_uniKey].nftName */\n      0x00\n      add\n        /* \"Bluelight-MP/UserDashboard.sol\":4779:4785  myNFTs */\n      0x01\n        /* \"Bluelight-MP/UserDashboard.sol\":4779:4794  myNFTs[_uniKey] */\n      0x00\n        /* \"Bluelight-MP/UserDashboard.sol\":4786:4793  _uniKey */\n      dup7\n        /* \"Bluelight-MP/UserDashboard.sol\":4779:4794  myNFTs[_uniKey] */\n      dup2\n      mstore\n      0x20\n      add\n      swap1\n      dup2\n      mstore\n      0x20\n      add\n      0x00\n      keccak256\n        /* \"Bluelight-MP/UserDashboard.sol\":4779:4800  myNFTs[_uniKey].owner */\n      0x03\n      add\n      0x00\n      swap1\n      sload\n      swap1\n      0x0100\n      exp\n      swap1\n      div\n      0xffffffffffffffffffffffffffffffffffffffff\n      and\n        /* \"Bluelight-MP/UserDashboard.sol\":4802:4808  myNFTs */\n      0x01\n        /* \"Bluelight-MP/UserDashboard.sol\":4802:4817  myNFTs[_uniKey] */\n      0x00\n        /* \"Bluelight-MP/UserDashboard.sol\":4809:4816  _uniKey */\n      dup8\n        /* \"Bluelight-MP/UserDashboard.sol\":4802:4817  myNFTs[_uniKey] */\n      dup2\n      mstore\n      0x20\n      add\n      swap1\n      dup2\n      mstore\n      0x20\n      add\n      0x00\n      keccak256\n        /* \"Bluelight-MP/UserDashboard.sol\":4802:4822  myNFTs[_uniKey].ipfs */\n      0x04\n      add\n        /* \"Bluelight-MP/UserDashboard.sol\":4679:4823  return (_uniKey, myNFTs[_uniKey].contractAddress, myNFTs[_uniKey].tokenId, myNFTs[_uniKey].nftName, myNFTs[_uniKey].owner, myNFTs[_uniKey].ipfs) */\n      dup3\n      dup1\n      sload\n      tag_190\n      swap1\n      tag_153\n      jump\t// in\n    tag_190:\n      dup1\n      0x1f\n      add\n      0x20\n      dup1\n      swap2\n      div\n      mul\n      0x20\n      add\n      mload(0x40)\n      swap1\n      dup2\n      add\n      0x40\n      mstore\n      dup1\n      swap3\n      swap2\n      swap1\n      dup2\n      dup2\n      mstore\n      0x20\n      add\n      dup3\n      dup1\n      sload\n      tag_191\n      swap1\n      tag_153\n      jump\t// in\n    tag_191:\n      dup1\n      iszero\n      tag_192\n      jumpi\n      dup1\n      0x1f\n      lt\n      tag_193\n      jumpi\n      0x0100\n      dup1\n      dup4\n      sload\n      div\n      mul\n      dup4\n      mstore\n      swap2\n      0x20\n      add\n      swap2\n      jump(tag_192)\n    tag_193:\n      dup3\n      add\n      swap2\n      swap1\n      0x00\n      mstore\n      keccak256(0x00, 0x20)\n      swap1\n    tag_194:\n      dup2\n      sload\n      dup2\n      mstore\n      swap1\n      0x01\n      add\n      swap1\n      0x20\n      add\n      dup1\n      dup4\n      gt\n      tag_194\n      jumpi\n      dup3\n      swap1\n      sub\n      0x1f\n      and\n      dup3\n      add\n      swap2\n    tag_192:\n      pop\n      pop\n      pop\n      pop\n      pop\n      swap3\n      pop\n      dup1\n      dup1\n      sload\n      tag_195\n      swap1\n      tag_153\n      jump\t// in\n    tag_195:\n      dup1\n      0x1f\n      add\n      0x20\n      dup1\n      swap2\n      div\n      mul\n      0x20\n      add\n      mload(0x40)\n      swap1\n      dup2\n      add\n      0x40\n      mstore\n      dup1\n      swap3\n      swap2\n      swap1\n      dup2\n      dup2\n      mstore\n      0x20\n      add\n      dup3\n      dup1\n      sload\n      tag_196\n      swap1\n      tag_153\n      jump\t// in\n    tag_196:\n      dup1\n      iszero\n      tag_197\n      jumpi\n      dup1\n      0x1f\n      lt\n      tag_198\n      jumpi\n      0x0100\n      dup1\n      dup4\n      sload\n      div\n      mul\n      dup4\n      mstore\n      swap2\n      0x20\n      add\n      swap2\n      jump(tag_197)\n    tag_198:\n      dup3\n      add\n      swap2\n      swap1\n      0x00\n      mstore\n      keccak256(0x00, 0x20)\n      swap1\n    tag_199:\n      dup2\n      sload\n      dup2\n      mstore\n      swap1\n      0x01\n      add\n      swap1\n      0x20\n      add\n      dup1\n      dup4\n      gt\n      tag_199\n      jumpi\n      dup3\n      swap1\n      sub\n      0x1f\n      and\n      dup3\n      add\n      swap2\n    tag_197:\n      pop\n      pop\n      pop\n      pop\n      pop\n      swap1\n      pop\n      swap7\n      pop\n      swap7\n      pop\n      swap7\n      pop\n      swap7\n      pop\n      swap7\n      pop\n      swap7\n      pop\n      pop\n        /* \"Bluelight-MP/UserDashboard.sol\":4352:4831  function getNft(address _nftContractAddress, uint256 _tokenId) external virtual override view \r... */\n      swap3\n      swap6\n      pop\n      swap3\n      swap6\n      pop\n      swap3\n      swap6\n      jump\t// out\n        /* \"Bluelight-MP/UserDashboard.sol\":880:932  mapping (address => bytes32[]) public uniKeysMapping */\n    tag_59:\n      mstore(0x20, 0x02)\n      dup2\n      0x00\n      mstore\n      keccak256(0x00, 0x40)\n      dup2\n      dup2\n      sload\n      dup2\n      lt\n      tag_200\n      jumpi\n      0x00\n      dup1\n      revert\n    tag_200:\n      swap1\n      0x00\n      mstore\n      keccak256(0x00, 0x20)\n      add\n      0x00\n      swap2\n      pop\n      swap2\n      pop\n      pop\n      sload\n      dup2\n      jump\t// out\n        /* \"Bluelight-MP/UserDashboard.sol\":3039:3313  function setBuyNftData(address newOwner, bytes32 uniKey) external virtual override{\r... */\n    tag_65:\n        /* \"Bluelight-MP/UserDashboard.sol\":3167:3177  msg.sender */\n      caller\n        /* \"Bluelight-MP/UserDashboard.sol\":3140:3178  marketplace == IWaterMelon(msg.sender) */\n      0xffffffffffffffffffffffffffffffffffffffff\n      and\n        /* \"Bluelight-MP/UserDashboard.sol\":3140:3151  marketplace */\n      0x00\n      dup1\n      sload\n      swap1\n      0x0100\n      exp\n      swap1\n      div\n      0xffffffffffffffffffffffffffffffffffffffff\n      and\n        /* \"Bluelight-MP/UserDashboard.sol\":3140:3178  marketplace == IWaterMelon(msg.sender) */\n      0xffffffffffffffffffffffffffffffffffffffff\n      and\n      eq\n        /* \"Bluelight-MP/UserDashboard.sol\":3132:3203  require(marketplace == IWaterMelon(msg.sender), \"call from wrong MP.\" ) */\n      tag_203\n      jumpi\n      mload(0x40)\n      0x08c379a000000000000000000000000000000000000000000000000000000000\n      dup2\n      mstore\n      0x04\n      add\n      tag_204\n      swap1\n      tag_205\n      jump\t// in\n    tag_204:\n      mload(0x40)\n      dup1\n      swap2\n      sub\n      swap1\n      revert\n    tag_203:\n        /* \"Bluelight-MP/UserDashboard.sol\":3237:3245  newOwner */\n      dup2\n        /* \"Bluelight-MP/UserDashboard.sol\":3214:3220  myNFTs */\n      0x01\n        /* \"Bluelight-MP/UserDashboard.sol\":3214:3228  myNFTs[uniKey] */\n      0x00\n        /* \"Bluelight-MP/UserDashboard.sol\":3221:3227  uniKey */\n      dup4\n        /* \"Bluelight-MP/UserDashboard.sol\":3214:3228  myNFTs[uniKey] */\n      dup2\n      mstore\n      0x20\n      add\n      swap1\n      dup2\n      mstore\n      0x20\n      add\n      0x00\n      keccak256\n        /* \"Bluelight-MP/UserDashboard.sol\":3214:3234  myNFTs[uniKey].owner */\n      0x03\n      add\n      0x00\n        /* \"Bluelight-MP/UserDashboard.sol\":3214:3245  myNFTs[uniKey].owner = newOwner */\n      0x0100\n      exp\n      dup2\n      sload\n      dup2\n      0xffffffffffffffffffffffffffffffffffffffff\n      mul\n      not\n      and\n      swap1\n      dup4\n      0xffffffffffffffffffffffffffffffffffffffff\n      and\n      mul\n      or\n      swap1\n      sstore\n      pop\n        /* \"Bluelight-MP/UserDashboard.sol\":3266:3280  uniKeysMapping */\n      0x02\n        /* \"Bluelight-MP/UserDashboard.sol\":3266:3290  uniKeysMapping[newOwner] */\n      0x00\n        /* \"Bluelight-MP/UserDashboard.sol\":3281:3289  newOwner */\n      dup4\n        /* \"Bluelight-MP/UserDashboard.sol\":3266:3290  uniKeysMapping[newOwner] */\n      0xffffffffffffffffffffffffffffffffffffffff\n      and\n      0xffffffffffffffffffffffffffffffffffffffff\n      and\n      dup2\n      mstore\n      0x20\n      add\n      swap1\n      dup2\n      mstore\n      0x20\n      add\n      0x00\n      keccak256\n        /* \"Bluelight-MP/UserDashboard.sol\":3296:3302  uniKey */\n      dup2\n        /* \"Bluelight-MP/UserDashboard.sol\":3266:3303  uniKeysMapping[newOwner].push(uniKey) */\n      swap1\n      dup1\n      0x01\n      dup2\n      sload\n      add\n      dup1\n      dup3\n      sstore\n      dup1\n      swap2\n      pop\n      pop\n      0x01\n      swap1\n      sub\n      swap1\n      0x00\n      mstore\n      keccak256(0x00, 0x20)\n      add\n      0x00\n      swap1\n      swap2\n      swap1\n      swap2\n      swap1\n      swap2\n      pop\n      sstore\n        /* \"Bluelight-MP/UserDashboard.sol\":3039:3313  function setBuyNftData(address newOwner, bytes32 uniKey) external virtual override{\r... */\n      pop\n      pop\n      jump\t// out\n        /* \"Bluelight-MP/UserDashboard.sol\":2601:3033  function setNftCat(address nftContractAddress, uint256 tokenId, NftCategory nftCat) external {\r... */\n    tag_69:\n        /* \"Bluelight-MP/UserDashboard.sol\":2705:2719  bytes32 uniKey */\n      0x00\n        /* \"Bluelight-MP/UserDashboard.sol\":2722:2770  getPrivateUniqueKey(nftContractAddress, tokenId) */\n      tag_208\n        /* \"Bluelight-MP/UserDashboard.sol\":2742:2760  nftContractAddress */\n      dup5\n        /* \"Bluelight-MP/UserDashboard.sol\":2762:2769  tokenId */\n      dup5\n        /* \"Bluelight-MP/UserDashboard.sol\":2722:2741  getPrivateUniqueKey */\n      tag_189\n        /* \"Bluelight-MP/UserDashboard.sol\":2722:2770  getPrivateUniqueKey(nftContractAddress, tokenId) */\n      jump\t// in\n    tag_208:\n        /* \"Bluelight-MP/UserDashboard.sol\":2705:2770  bytes32 uniKey = getPrivateUniqueKey(nftContractAddress, tokenId) */\n      swap1\n      pop\n        /* \"Bluelight-MP/UserDashboard.sol\":2791:2796  users */\n      0x05\n        /* \"Bluelight-MP/UserDashboard.sol\":2791:2808  users[msg.sender] */\n      0x00\n        /* \"Bluelight-MP/UserDashboard.sol\":2797:2807  msg.sender */\n      caller\n        /* \"Bluelight-MP/UserDashboard.sol\":2791:2808  users[msg.sender] */\n      0xffffffffffffffffffffffffffffffffffffffff\n      and\n      0xffffffffffffffffffffffffffffffffffffffff\n      and\n      dup2\n      mstore\n      0x20\n      add\n      swap1\n      dup2\n      mstore\n      0x20\n      add\n      0x00\n      keccak256\n        /* \"Bluelight-MP/UserDashboard.sol\":2791:2817  users[msg.sender].loggedIn */\n      0x03\n      add\n      0x00\n      swap1\n      sload\n      swap1\n      0x0100\n      exp\n      swap1\n      div\n      0xff\n      and\n        /* \"Bluelight-MP/UserDashboard.sol\":2791:2855  users[msg.sender].loggedIn && myNFTs[uniKey].owner == msg.sender */\n      dup1\n      iszero\n      tag_209\n      jumpi\n      pop\n        /* \"Bluelight-MP/UserDashboard.sol\":2845:2855  msg.sender */\n      caller\n        /* \"Bluelight-MP/UserDashboard.sol\":2821:2855  myNFTs[uniKey].owner == msg.sender */\n      0xffffffffffffffffffffffffffffffffffffffff\n      and\n        /* \"Bluelight-MP/UserDashboard.sol\":2821:2827  myNFTs */\n      0x01\n        /* \"Bluelight-MP/UserDashboard.sol\":2821:2835  myNFTs[uniKey] */\n      0x00\n        /* \"Bluelight-MP/UserDashboard.sol\":2828:2834  uniKey */\n      dup4\n        /* \"Bluelight-MP/UserDashboard.sol\":2821:2835  myNFTs[uniKey] */\n      dup2\n      mstore\n      0x20\n      add\n      swap1\n      dup2\n      mstore\n      0x20\n      add\n      0x00\n      keccak256\n        /* \"Bluelight-MP/UserDashboard.sol\":2821:2841  myNFTs[uniKey].owner */\n      0x03\n      add\n      0x00\n      swap1\n      sload\n      swap1\n      0x0100\n      exp\n      swap1\n      div\n      0xffffffffffffffffffffffffffffffffffffffff\n      and\n        /* \"Bluelight-MP/UserDashboard.sol\":2821:2855  myNFTs[uniKey].owner == msg.sender */\n      0xffffffffffffffffffffffffffffffffffffffff\n      and\n      eq\n        /* \"Bluelight-MP/UserDashboard.sol\":2791:2855  users[msg.sender].loggedIn && myNFTs[uniKey].owner == msg.sender */\n    tag_209:\n        /* \"Bluelight-MP/UserDashboard.sol\":2857:2876  CREATE_ACC_OR_LOGIN */\n      mload(0x40)\n      dup1\n      0x40\n      add\n      0x40\n      mstore\n      dup1\n      0x05\n      dup2\n      mstore\n      0x20\n      add\n      0x574d552d32000000000000000000000000000000000000000000000000000000\n      dup2\n      mstore\n      pop\n        /* \"Bluelight-MP/UserDashboard.sol\":2782:2877  require (users[msg.sender].loggedIn && myNFTs[uniKey].owner == msg.sender, CREATE_ACC_OR_LOGIN) */\n      swap1\n      tag_210\n      jumpi\n      mload(0x40)\n      0x08c379a000000000000000000000000000000000000000000000000000000000\n      dup2\n      mstore\n      0x04\n      add\n      tag_211\n      swap2\n      swap1\n      tag_122\n      jump\t// in\n    tag_211:\n      mload(0x40)\n      dup1\n      swap2\n      sub\n      swap1\n      revert\n    tag_210:\n      pop\n        /* \"Bluelight-MP/UserDashboard.sol\":2919:2925  nftCat */\n      dup2\n        /* \"Bluelight-MP/UserDashboard.sol\":2890:2896  myNFTs */\n      0x01\n        /* \"Bluelight-MP/UserDashboard.sol\":2890:2904  myNFTs[uniKey] */\n      0x00\n        /* \"Bluelight-MP/UserDashboard.sol\":2897:2903  uniKey */\n      dup4\n        /* \"Bluelight-MP/UserDashboard.sol\":2890:2904  myNFTs[uniKey] */\n      dup2\n      mstore\n      0x20\n      add\n      swap1\n      dup2\n      mstore\n      0x20\n      add\n      0x00\n      keccak256\n        /* \"Bluelight-MP/UserDashboard.sol\":2890:2916  myNFTs[uniKey].nftCategory */\n      0x05\n      add\n      0x00\n        /* \"Bluelight-MP/UserDashboard.sol\":2890:2925  myNFTs[uniKey].nftCategory = nftCat */\n      0x0100\n      exp\n      dup2\n      sload\n      dup2\n      0xff\n      mul\n      not\n      and\n      swap1\n      dup4\n      0x06\n      dup2\n      gt\n      iszero\n      tag_212\n      jumpi\n      mstore(0x00, 0x4e487b7100000000000000000000000000000000000000000000000000000000)\n      mstore(0x04, 0x21)\n      revert(0x00, 0x24)\n    tag_212:\n      mul\n      or\n      swap1\n      sstore\n      pop\n        /* \"Bluelight-MP/UserDashboard.sol\":2936:2946  nftCatWise */\n      0x03\n        /* \"Bluelight-MP/UserDashboard.sol\":2936:2954  nftCatWise[nftCat] */\n      0x00\n        /* \"Bluelight-MP/UserDashboard.sol\":2947:2953  nftCat */\n      dup4\n        /* \"Bluelight-MP/UserDashboard.sol\":2936:2954  nftCatWise[nftCat] */\n      0x06\n      dup2\n      gt\n      iszero\n      tag_213\n      jumpi\n      mstore(0x00, 0x4e487b7100000000000000000000000000000000000000000000000000000000)\n      mstore(0x04, 0x21)\n      revert(0x00, 0x24)\n    tag_213:\n      0x06\n      dup2\n      gt\n      iszero\n      tag_214\n      jumpi\n      mstore(0x00, 0x4e487b7100000000000000000000000000000000000000000000000000000000)\n      mstore(0x04, 0x21)\n      revert(0x00, 0x24)\n    tag_214:\n      dup2\n      mstore\n      0x20\n      add\n      swap1\n      dup2\n      mstore\n      0x20\n      add\n      0x00\n      keccak256\n        /* \"Bluelight-MP/UserDashboard.sol\":2960:2966  uniKey */\n      dup2\n        /* \"Bluelight-MP/UserDashboard.sol\":2936:2967  nftCatWise[nftCat].push(uniKey) */\n      swap1\n      dup1\n      0x01\n      dup2\n      sload\n      add\n      dup1\n      dup3\n      sstore\n      dup1\n      swap2\n      pop\n      pop\n      0x01\n      swap1\n      sub\n      swap1\n      0x00\n      mstore\n      keccak256(0x00, 0x20)\n      add\n      0x00\n      swap1\n      swap2\n      swap1\n      swap2\n      swap1\n      swap2\n      pop\n      sstore\n        /* \"Bluelight-MP/UserDashboard.sol\":2978:2992  userNftCatWise */\n      0x04\n        /* \"Bluelight-MP/UserDashboard.sol\":2978:3004  userNftCatWise[msg.sender] */\n      0x00\n        /* \"Bluelight-MP/UserDashboard.sol\":2993:3003  msg.sender */\n      caller\n        /* \"Bluelight-MP/UserDashboard.sol\":2978:3004  userNftCatWise[msg.sender] */\n      0xffffffffffffffffffffffffffffffffffffffff\n      and\n      0xffffffffffffffffffffffffffffffffffffffff\n      and\n      dup2\n      mstore\n      0x20\n      add\n      swap1\n      dup2\n      mstore\n      0x20\n      add\n      0x00\n      keccak256\n        /* \"Bluelight-MP/UserDashboard.sol\":2978:3012  userNftCatWise[msg.sender][nftCat] */\n      0x00\n        /* \"Bluelight-MP/UserDashboard.sol\":3005:3011  nftCat */\n      dup4\n        /* \"Bluelight-MP/UserDashboard.sol\":2978:3012  userNftCatWise[msg.sender][nftCat] */\n      0x06\n      dup2\n      gt\n      iszero\n      tag_216\n      jumpi\n      mstore(0x00, 0x4e487b7100000000000000000000000000000000000000000000000000000000)\n      mstore(0x04, 0x21)\n      revert(0x00, 0x24)\n    tag_216:\n      0x06\n      dup2\n      gt\n      iszero\n      tag_217\n      jumpi\n      mstore(0x00, 0x4e487b7100000000000000000000000000000000000000000000000000000000)\n      mstore(0x04, 0x21)\n      revert(0x00, 0x24)\n    tag_217:\n      dup2\n      mstore\n      0x20\n      add\n      swap1\n      dup2\n      mstore\n      0x20\n      add\n      0x00\n      keccak256\n        /* \"Bluelight-MP/UserDashboard.sol\":3018:3024  uniKey */\n      dup2\n        /* \"Bluelight-MP/UserDashboard.sol\":2978:3025  userNftCatWise[msg.sender][nftCat].push(uniKey) */\n      swap1\n      dup1\n      0x01\n      dup2\n      sload\n      add\n      dup1\n      dup3\n      sstore\n      dup1\n      swap2\n      pop\n      pop\n      0x01\n      swap1\n      sub\n      swap1\n      0x00\n      mstore\n      keccak256(0x00, 0x20)\n      add\n      0x00\n      swap1\n      swap2\n      swap1\n      swap2\n      swap1\n      swap2\n      pop\n      sstore\n        /* \"Bluelight-MP/UserDashboard.sol\":2601:3033  function setNftCat(address nftContractAddress, uint256 tokenId, NftCategory nftCat) external {\r... */\n      pop\n      pop\n      pop\n      pop\n      jump\t// out\n        /* \"Bluelight-MP/UserDashboard.sol\":5180:5460  function logIn() virtual override external {\r... */\n    tag_71:\n        /* \"Bluelight-MP/UserDashboard.sol\":5243:5248  users */\n      0x05\n        /* \"Bluelight-MP/UserDashboard.sol\":5243:5260  users[msg.sender] */\n      0x00\n        /* \"Bluelight-MP/UserDashboard.sol\":5249:5259  msg.sender */\n      caller\n        /* \"Bluelight-MP/UserDashboard.sol\":5243:5260  users[msg.sender] */\n      0xffffffffffffffffffffffffffffffffffffffff\n      and\n      0xffffffffffffffffffffffffffffffffffffffff\n      and\n      dup2\n      mstore\n      0x20\n      add\n      swap1\n      dup2\n      mstore\n      0x20\n      add\n      0x00\n      keccak256\n        /* \"Bluelight-MP/UserDashboard.sol\":5243:5272  users[msg.sender].userExisted */\n      0x01\n      add\n      0x00\n      swap1\n      sload\n      swap1\n      0x0100\n      exp\n      swap1\n      div\n      0xff\n      and\n        /* \"Bluelight-MP/UserDashboard.sol\":5274:5288  CREATE_ACCOUNT */\n      mload(0x40)\n      dup1\n      0x40\n      add\n      0x40\n      mstore\n      dup1\n      0x05\n      dup2\n      mstore\n      0x20\n      add\n      0x574d552d31000000000000000000000000000000000000000000000000000000\n      dup2\n      mstore\n      pop\n        /* \"Bluelight-MP/UserDashboard.sol\":5234:5289  require (users[msg.sender].userExisted, CREATE_ACCOUNT) */\n      swap1\n      tag_220\n      jumpi\n      mload(0x40)\n      0x08c379a000000000000000000000000000000000000000000000000000000000\n      dup2\n      mstore\n      0x04\n      add\n      tag_221\n      swap2\n      swap1\n      tag_122\n      jump\t// in\n    tag_221:\n      mload(0x40)\n      dup1\n      swap2\n      sub\n      swap1\n      revert\n    tag_220:\n      pop\n        /* \"Bluelight-MP/UserDashboard.sol\":5310:5315  users */\n      0x05\n        /* \"Bluelight-MP/UserDashboard.sol\":5310:5327  users[msg.sender] */\n      0x00\n        /* \"Bluelight-MP/UserDashboard.sol\":5316:5326  msg.sender */\n      caller\n        /* \"Bluelight-MP/UserDashboard.sol\":5310:5327  users[msg.sender] */\n      0xffffffffffffffffffffffffffffffffffffffff\n      and\n      0xffffffffffffffffffffffffffffffffffffffff\n      and\n      dup2\n      mstore\n      0x20\n      add\n      swap1\n      dup2\n      mstore\n      0x20\n      add\n      0x00\n      keccak256\n        /* \"Bluelight-MP/UserDashboard.sol\":5310:5336  users[msg.sender].loggedIn */\n      0x03\n      add\n      0x00\n      swap1\n      sload\n      swap1\n      0x0100\n      exp\n      swap1\n      div\n      0xff\n      and\n        /* \"Bluelight-MP/UserDashboard.sol\":5309:5336  !users[msg.sender].loggedIn */\n      iszero\n        /* \"Bluelight-MP/UserDashboard.sol\":5338:5351  ALREADY_LOGIN */\n      mload(0x40)\n      dup1\n      0x40\n      add\n      0x40\n      mstore\n      dup1\n      0x05\n      dup2\n      mstore\n      0x20\n      add\n      0x574d552d33000000000000000000000000000000000000000000000000000000\n      dup2\n      mstore\n      pop\n        /* \"Bluelight-MP/UserDashboard.sol\":5300:5352  require (!users[msg.sender].loggedIn, ALREADY_LOGIN) */\n      swap1\n      tag_222\n      jumpi\n      mload(0x40)\n      0x08c379a000000000000000000000000000000000000000000000000000000000\n      dup2\n      mstore\n      0x04\n      add\n      tag_223\n      swap2\n      swap1\n      tag_122\n      jump\t// in\n    tag_223:\n      mload(0x40)\n      dup1\n      swap2\n      sub\n      swap1\n      revert\n    tag_222:\n      pop\n        /* \"Bluelight-MP/UserDashboard.sol\":5394:5398  true */\n      0x01\n        /* \"Bluelight-MP/UserDashboard.sol\":5365:5370  users */\n      0x05\n        /* \"Bluelight-MP/UserDashboard.sol\":5365:5382  users[msg.sender] */\n      0x00\n        /* \"Bluelight-MP/UserDashboard.sol\":5371:5381  msg.sender */\n      caller\n        /* \"Bluelight-MP/UserDashboard.sol\":5365:5382  users[msg.sender] */\n      0xffffffffffffffffffffffffffffffffffffffff\n      and\n      0xffffffffffffffffffffffffffffffffffffffff\n      and\n      dup2\n      mstore\n      0x20\n      add\n      swap1\n      dup2\n      mstore\n      0x20\n      add\n      0x00\n      keccak256\n        /* \"Bluelight-MP/UserDashboard.sol\":5365:5391  users[msg.sender].loggedIn */\n      0x03\n      add\n      0x00\n        /* \"Bluelight-MP/UserDashboard.sol\":5365:5398  users[msg.sender].loggedIn = true */\n      0x0100\n      exp\n      dup2\n      sload\n      dup2\n      0xff\n      mul\n      not\n      and\n      swap1\n      dup4\n      iszero\n      iszero\n      mul\n      or\n      swap1\n      sstore\n      pop\n        /* \"Bluelight-MP/UserDashboard.sol\":5424:5434  msg.sender */\n      caller\n        /* \"Bluelight-MP/UserDashboard.sol\":5414:5452  LoggingIn(msg.sender, block.timestamp) */\n      0xffffffffffffffffffffffffffffffffffffffff\n      and\n      0x364034de78a61b6190b049e2c5437370b27906bfed607993a5bc2dda23c16cff\n        /* \"Bluelight-MP/UserDashboard.sol\":5436:5451  block.timestamp */\n      timestamp\n        /* \"Bluelight-MP/UserDashboard.sol\":5414:5452  LoggingIn(msg.sender, block.timestamp) */\n      mload(0x40)\n      tag_224\n      swap2\n      swap1\n      tag_225\n      jump\t// in\n    tag_224:\n      mload(0x40)\n      dup1\n      swap2\n      sub\n      swap1\n      log2\n        /* \"Bluelight-MP/UserDashboard.sol\":5180:5460  function logIn() virtual override external {\r... */\n      jump\t// out\n        /* \"Bluelight-MP/UserDashboard.sol\":3944:4340  function getNftWithBytes32(bytes32 _uniKey) external virtual override view \r... */\n    tag_74:\n        /* \"Bluelight-MP/UserDashboard.sol\":4037:4056  string memory _name */\n      0x60\n        /* \"Bluelight-MP/UserDashboard.sol\":4058:4084  address nftContractAddress */\n      0x00\n        /* \"Bluelight-MP/UserDashboard.sol\":4086:4101  uint256 tokenId */\n      dup1\n        /* \"Bluelight-MP/UserDashboard.sol\":4103:4116  address owner */\n      0x00\n        /* \"Bluelight-MP/UserDashboard.sol\":4118:4136  string memory iPFS */\n      0x60\n        /* \"Bluelight-MP/UserDashboard.sol\":4148:4162  bytes32 uniKey */\n      0x00\n        /* \"Bluelight-MP/UserDashboard.sol\":4165:4172  _uniKey */\n      dup7\n        /* \"Bluelight-MP/UserDashboard.sol\":4148:4172  bytes32 uniKey = _uniKey */\n      swap1\n      pop\n        /* \"Bluelight-MP/UserDashboard.sol\":4201:4207  myNFTs */\n      0x01\n        /* \"Bluelight-MP/UserDashboard.sol\":4201:4215  myNFTs[uniKey] */\n      0x00\n        /* \"Bluelight-MP/UserDashboard.sol\":4208:4214  uniKey */\n      dup3\n        /* \"Bluelight-MP/UserDashboard.sol\":4201:4215  myNFTs[uniKey] */\n      dup2\n      mstore\n      0x20\n      add\n      swap1\n      dup2\n      mstore\n      0x20\n      add\n      0x00\n      keccak256\n        /* \"Bluelight-MP/UserDashboard.sol\":4201:4223  myNFTs[uniKey].nftName */\n      0x00\n      add\n        /* \"Bluelight-MP/UserDashboard.sol\":4225:4231  myNFTs */\n      0x01\n        /* \"Bluelight-MP/UserDashboard.sol\":4225:4239  myNFTs[uniKey] */\n      0x00\n        /* \"Bluelight-MP/UserDashboard.sol\":4232:4238  uniKey */\n      dup4\n        /* \"Bluelight-MP/UserDashboard.sol\":4225:4239  myNFTs[uniKey] */\n      dup2\n      mstore\n      0x20\n      add\n      swap1\n      dup2\n      mstore\n      0x20\n      add\n      0x00\n      keccak256\n        /* \"Bluelight-MP/UserDashboard.sol\":4225:4255  myNFTs[uniKey].contractAddress */\n      0x01\n      add\n      0x00\n      swap1\n      sload\n      swap1\n      0x0100\n      exp\n      swap1\n      div\n      0xffffffffffffffffffffffffffffffffffffffff\n      and\n        /* \"Bluelight-MP/UserDashboard.sol\":4257:4263  myNFTs */\n      0x01\n        /* \"Bluelight-MP/UserDashboard.sol\":4257:4271  myNFTs[uniKey] */\n      0x00\n        /* \"Bluelight-MP/UserDashboard.sol\":4264:4270  uniKey */\n      dup5\n        /* \"Bluelight-MP/UserDashboard.sol\":4257:4271  myNFTs[uniKey] */\n      dup2\n      mstore\n      0x20\n      add\n      swap1\n      dup2\n      mstore\n      0x20\n      add\n      0x00\n      keccak256\n        /* \"Bluelight-MP/UserDashboard.sol\":4257:4279  myNFTs[uniKey].tokenId */\n      0x02\n      add\n      sload\n        /* \"Bluelight-MP/UserDashboard.sol\":4281:4287  myNFTs */\n      0x01\n        /* \"Bluelight-MP/UserDashboard.sol\":4281:4295  myNFTs[uniKey] */\n      0x00\n        /* \"Bluelight-MP/UserDashboard.sol\":4288:4294  uniKey */\n      dup6\n        /* \"Bluelight-MP/UserDashboard.sol\":4281:4295  myNFTs[uniKey] */\n      dup2\n      mstore\n      0x20\n      add\n      swap1\n      dup2\n      mstore\n      0x20\n      add\n      0x00\n      keccak256\n        /* \"Bluelight-MP/UserDashboard.sol\":4281:4301  myNFTs[uniKey].owner */\n      0x03\n      add\n      0x00\n      swap1\n      sload\n      swap1\n      0x0100\n      exp\n      swap1\n      div\n      0xffffffffffffffffffffffffffffffffffffffff\n      and\n        /* \"Bluelight-MP/UserDashboard.sol\":4312:4318  myNFTs */\n      0x01\n        /* \"Bluelight-MP/UserDashboard.sol\":4312:4326  myNFTs[uniKey] */\n      0x00\n        /* \"Bluelight-MP/UserDashboard.sol\":4319:4325  uniKey */\n      dup7\n        /* \"Bluelight-MP/UserDashboard.sol\":4312:4326  myNFTs[uniKey] */\n      dup2\n      mstore\n      0x20\n      add\n      swap1\n      dup2\n      mstore\n      0x20\n      add\n      0x00\n      keccak256\n        /* \"Bluelight-MP/UserDashboard.sol\":4312:4331  myNFTs[uniKey].ipfs */\n      0x04\n      add\n        /* \"Bluelight-MP/UserDashboard.sol\":4193:4332  return (myNFTs[uniKey].nftName, myNFTs[uniKey].contractAddress, myNFTs[uniKey].tokenId, myNFTs[uniKey].owner,\r... */\n      dup5\n      dup1\n      sload\n      tag_227\n      swap1\n      tag_153\n      jump\t// in\n    tag_227:\n      dup1\n      0x1f\n      add\n      0x20\n      dup1\n      swap2\n      div\n      mul\n      0x20\n      add\n      mload(0x40)\n      swap1\n      dup2\n      add\n      0x40\n      mstore\n      dup1\n      swap3\n      swap2\n      swap1\n      dup2\n      dup2\n      mstore\n      0x20\n      add\n      dup3\n      dup1\n      sload\n      tag_228\n      swap1\n      tag_153\n      jump\t// in\n    tag_228:\n      dup1\n      iszero\n      tag_229\n      jumpi\n      dup1\n      0x1f\n      lt\n      tag_230\n      jumpi\n      0x0100\n      dup1\n      dup4\n      sload\n      div\n      mul\n      dup4\n      mstore\n      swap2\n      0x20\n      add\n      swap2\n      jump(tag_229)\n    tag_230:\n      dup3\n      add\n      swap2\n      swap1\n      0x00\n      mstore\n      keccak256(0x00, 0x20)\n      swap1\n    tag_231:\n      dup2\n      sload\n      dup2\n      mstore\n      swap1\n      0x01\n      add\n      swap1\n      0x20\n      add\n      dup1\n      dup4\n      gt\n      tag_231\n      jumpi\n      dup3\n      swap1\n      sub\n      0x1f\n      and\n      dup3\n      add\n      swap2\n    tag_229:\n      pop\n      pop\n      pop\n      pop\n      pop\n      swap5\n      pop\n      dup1\n      dup1\n      sload\n      tag_232\n      swap1\n      tag_153\n      jump\t// in\n    tag_232:\n      dup1\n      0x1f\n      add\n      0x20\n      dup1\n      swap2\n      div\n      mul\n      0x20\n      add\n      mload(0x40)\n      swap1\n      dup2\n      add\n      0x40\n      mstore\n      dup1\n      swap3\n      swap2\n      swap1\n      dup2\n      dup2\n      mstore\n      0x20\n      add\n      dup3\n      dup1\n      sload\n      tag_233\n      swap1\n      tag_153\n      jump\t// in\n    tag_233:\n      dup1\n      iszero\n      tag_234\n      jumpi\n      dup1\n      0x1f\n      lt\n      tag_235\n      jumpi\n      0x0100\n      dup1\n      dup4\n      sload\n      div\n      mul\n      dup4\n      mstore\n      swap2\n      0x20\n      add\n      swap2\n      jump(tag_234)\n    tag_235:\n      dup3\n      add\n      swap2\n      swap1\n      0x00\n      mstore\n      keccak256(0x00, 0x20)\n      swap1\n    tag_236:\n      dup2\n      sload\n      dup2\n      mstore\n      swap1\n      0x01\n      add\n      swap1\n      0x20\n      add\n      dup1\n      dup4\n      gt\n      tag_236\n      jumpi\n      dup3\n      swap1\n      sub\n      0x1f\n      and\n      dup3\n      add\n      swap2\n    tag_234:\n      pop\n      pop\n      pop\n      pop\n      pop\n      swap1\n      pop\n      swap6\n      pop\n      swap6\n      pop\n      swap6\n      pop\n      swap6\n      pop\n      swap6\n      pop\n      pop\n        /* \"Bluelight-MP/UserDashboard.sol\":3944:4340  function getNftWithBytes32(bytes32 _uniKey) external virtual override view \r... */\n      swap2\n      swap4\n      swap6\n      swap1\n      swap3\n      swap5\n      pop\n      jump\t// out\n        /* \"Bluelight-MP/UserDashboard.sol\":5609:5839  function logOut() external virtual override{\r... */\n    tag_78:\n        /* \"Bluelight-MP/UserDashboard.sol\":5672:5677  users */\n      0x05\n        /* \"Bluelight-MP/UserDashboard.sol\":5672:5689  users[msg.sender] */\n      0x00\n        /* \"Bluelight-MP/UserDashboard.sol\":5678:5688  msg.sender */\n      caller\n        /* \"Bluelight-MP/UserDashboard.sol\":5672:5689  users[msg.sender] */\n      0xffffffffffffffffffffffffffffffffffffffff\n      and\n      0xffffffffffffffffffffffffffffffffffffffff\n      and\n      dup2\n      mstore\n      0x20\n      add\n      swap1\n      dup2\n      mstore\n      0x20\n      add\n      0x00\n      keccak256\n        /* \"Bluelight-MP/UserDashboard.sol\":5672:5698  users[msg.sender].loggedIn */\n      0x03\n      add\n      0x00\n      swap1\n      sload\n      swap1\n      0x0100\n      exp\n      swap1\n      div\n      0xff\n      and\n        /* \"Bluelight-MP/UserDashboard.sol\":5700:5719  CREATE_ACC_OR_LOGIN */\n      mload(0x40)\n      dup1\n      0x40\n      add\n      0x40\n      mstore\n      dup1\n      0x05\n      dup2\n      mstore\n      0x20\n      add\n      0x574d552d32000000000000000000000000000000000000000000000000000000\n      dup2\n      mstore\n      pop\n        /* \"Bluelight-MP/UserDashboard.sol\":5663:5720  require (users[msg.sender].loggedIn, CREATE_ACC_OR_LOGIN) */\n      swap1\n      tag_238\n      jumpi\n      mload(0x40)\n      0x08c379a000000000000000000000000000000000000000000000000000000000\n      dup2\n      mstore\n      0x04\n      add\n      tag_239\n      swap2\n      swap1\n      tag_122\n      jump\t// in\n    tag_239:\n      mload(0x40)\n      dup1\n      swap2\n      sub\n      swap1\n      revert\n    tag_238:\n      pop\n        /* \"Bluelight-MP/UserDashboard.sol\":5760:5765  false */\n      0x00\n        /* \"Bluelight-MP/UserDashboard.sol\":5731:5736  users */\n      0x05\n        /* \"Bluelight-MP/UserDashboard.sol\":5731:5748  users[msg.sender] */\n      0x00\n        /* \"Bluelight-MP/UserDashboard.sol\":5737:5747  msg.sender */\n      caller\n        /* \"Bluelight-MP/UserDashboard.sol\":5731:5748  users[msg.sender] */\n      0xffffffffffffffffffffffffffffffffffffffff\n      and\n      0xffffffffffffffffffffffffffffffffffffffff\n      and\n      dup2\n      mstore\n      0x20\n      add\n      swap1\n      dup2\n      mstore\n      0x20\n      add\n      0x00\n      keccak256\n        /* \"Bluelight-MP/UserDashboard.sol\":5731:5757  users[msg.sender].loggedIn */\n      0x03\n      add\n      0x00\n        /* \"Bluelight-MP/UserDashboard.sol\":5731:5765  users[msg.sender].loggedIn = false */\n      0x0100\n      exp\n      dup2\n      sload\n      dup2\n      0xff\n      mul\n      not\n      and\n      swap1\n      dup4\n      iszero\n      iszero\n      mul\n      or\n      swap1\n      sstore\n      pop\n        /* \"Bluelight-MP/UserDashboard.sol\":5792:5802  msg.sender */\n      caller\n        /* \"Bluelight-MP/UserDashboard.sol\":5781:5820  LoggingOut(msg.sender, block.timestamp) */\n      0xffffffffffffffffffffffffffffffffffffffff\n      and\n      0x70d1177aa26c67f6b2fdb43400cfd7ff0c23a8712301abe5aba2ee3d89e28a10\n        /* \"Bluelight-MP/UserDashboard.sol\":5804:5819  block.timestamp */\n      timestamp\n        /* \"Bluelight-MP/UserDashboard.sol\":5781:5820  LoggingOut(msg.sender, block.timestamp) */\n      mload(0x40)\n      tag_240\n      swap2\n      swap1\n      tag_225\n      jump\t// in\n    tag_240:\n      mload(0x40)\n      dup1\n      swap2\n      sub\n      swap1\n      log2\n        /* \"Bluelight-MP/UserDashboard.sol\":5609:5839  function logOut() external virtual override{\r... */\n      jump\t// out\n        /* \"Bluelight-MP/UserDashboard.sol\":4837:4977  function getUniKeysMapping(address ownerOfNfts) external view returns(bytes32[] memory){\r... */\n    tag_82:\n        /* \"Bluelight-MP/UserDashboard.sol\":4907:4923  bytes32[] memory */\n      0x60\n        /* \"Bluelight-MP/UserDashboard.sol\":4942:4956  uniKeysMapping */\n      0x02\n        /* \"Bluelight-MP/UserDashboard.sol\":4942:4969  uniKeysMapping[ownerOfNfts] */\n      0x00\n        /* \"Bluelight-MP/UserDashboard.sol\":4957:4968  ownerOfNfts */\n      dup4\n        /* \"Bluelight-MP/UserDashboard.sol\":4942:4969  uniKeysMapping[ownerOfNfts] */\n      0xffffffffffffffffffffffffffffffffffffffff\n      and\n      0xffffffffffffffffffffffffffffffffffffffff\n      and\n      dup2\n      mstore\n      0x20\n      add\n      swap1\n      dup2\n      mstore\n      0x20\n      add\n      0x00\n      keccak256\n        /* \"Bluelight-MP/UserDashboard.sol\":4935:4969  return uniKeysMapping[ownerOfNfts] */\n      dup1\n      sload\n      dup1\n      0x20\n      mul\n      0x20\n      add\n      mload(0x40)\n      swap1\n      dup2\n      add\n      0x40\n      mstore\n      dup1\n      swap3\n      swap2\n      swap1\n      dup2\n      dup2\n      mstore\n      0x20\n      add\n      dup3\n      dup1\n      sload\n      dup1\n      iszero\n      tag_242\n      jumpi\n      0x20\n      mul\n      dup3\n      add\n      swap2\n      swap1\n      0x00\n      mstore\n      keccak256(0x00, 0x20)\n      swap1\n    tag_243:\n      dup2\n      sload\n      dup2\n      mstore\n      0x20\n      add\n      swap1\n      0x01\n      add\n      swap1\n      dup1\n      dup4\n      gt\n      tag_243\n      jumpi\n    tag_242:\n      pop\n      pop\n      pop\n      pop\n      pop\n      swap1\n      pop\n        /* \"Bluelight-MP/UserDashboard.sol\":4837:4977  function getUniKeysMapping(address ownerOfNfts) external view returns(bytes32[] memory){\r... */\n      swap2\n      swap1\n      pop\n      jump\t// out\n        /* \"Bluelight-MP/UserDashboard.sol\":1149:1201  mapping (string => address) public userNameToAddress */\n    tag_87:\n      0x06\n      dup2\n      dup1\n      mload\n      0x20\n      dup2\n      add\n      dup3\n      add\n      dup1\n      mload\n      dup5\n      dup3\n      mstore\n      0x20\n      dup4\n      add\n      0x20\n      dup6\n      add\n      keccak256\n      dup2\n      dup4\n      mstore\n      dup1\n      swap6\n      pop\n      pop\n      pop\n      pop\n      pop\n      pop\n      0x00\n      swap2\n      pop\n      sload\n      swap1\n      0x0100\n      exp\n      swap1\n      div\n      0xffffffffffffffffffffffffffffffffffffffff\n      and\n      dup2\n      jump\t// out\n        /* \"Bluelight-MP/UserDashboard.sol\":2033:2595  function setNft(string memory _name, address nftContractAddress, uint256 tokenId, string memory iPFS) external virtual override{\r... */\n    tag_93:\n        /* \"Bluelight-MP/UserDashboard.sol\":2180:2185  users */\n      0x05\n        /* \"Bluelight-MP/UserDashboard.sol\":2180:2197  users[msg.sender] */\n      0x00\n        /* \"Bluelight-MP/UserDashboard.sol\":2186:2196  msg.sender */\n      caller\n        /* \"Bluelight-MP/UserDashboard.sol\":2180:2197  users[msg.sender] */\n      0xffffffffffffffffffffffffffffffffffffffff\n      and\n      0xffffffffffffffffffffffffffffffffffffffff\n      and\n      dup2\n      mstore\n      0x20\n      add\n      swap1\n      dup2\n      mstore\n      0x20\n      add\n      0x00\n      keccak256\n        /* \"Bluelight-MP/UserDashboard.sol\":2180:2206  users[msg.sender].loggedIn */\n      0x03\n      add\n      0x00\n      swap1\n      sload\n      swap1\n      0x0100\n      exp\n      swap1\n      div\n      0xff\n      and\n        /* \"Bluelight-MP/UserDashboard.sol\":2208:2227  CREATE_ACC_OR_LOGIN */\n      mload(0x40)\n      dup1\n      0x40\n      add\n      0x40\n      mstore\n      dup1\n      0x05\n      dup2\n      mstore\n      0x20\n      add\n      0x574d552d32000000000000000000000000000000000000000000000000000000\n      dup2\n      mstore\n      pop\n        /* \"Bluelight-MP/UserDashboard.sol\":2171:2228  require (users[msg.sender].loggedIn, CREATE_ACC_OR_LOGIN) */\n      swap1\n      tag_245\n      jumpi\n      mload(0x40)\n      0x08c379a000000000000000000000000000000000000000000000000000000000\n      dup2\n      mstore\n      0x04\n      add\n      tag_246\n      swap2\n      swap1\n      tag_122\n      jump\t// in\n    tag_246:\n      mload(0x40)\n      dup1\n      swap2\n      sub\n      swap1\n      revert\n    tag_245:\n      pop\n        /* \"Bluelight-MP/UserDashboard.sol\":2241:2255  bytes32 uniKey */\n      0x00\n        /* \"Bluelight-MP/UserDashboard.sol\":2258:2306  getPrivateUniqueKey(nftContractAddress, tokenId) */\n      tag_247\n        /* \"Bluelight-MP/UserDashboard.sol\":2278:2296  nftContractAddress */\n      dup5\n        /* \"Bluelight-MP/UserDashboard.sol\":2298:2305  tokenId */\n      dup5\n        /* \"Bluelight-MP/UserDashboard.sol\":2258:2277  getPrivateUniqueKey */\n      tag_189\n        /* \"Bluelight-MP/UserDashboard.sol\":2258:2306  getPrivateUniqueKey(nftContractAddress, tokenId) */\n      jump\t// in\n    tag_247:\n        /* \"Bluelight-MP/UserDashboard.sol\":2241:2306  bytes32 uniKey = getPrivateUniqueKey(nftContractAddress, tokenId) */\n      swap1\n      pop\n        /* \"Bluelight-MP/UserDashboard.sol\":2343:2348  _name */\n      dup5\n        /* \"Bluelight-MP/UserDashboard.sol\":2318:2324  myNFTs */\n      0x01\n        /* \"Bluelight-MP/UserDashboard.sol\":2318:2332  myNFTs[uniKey] */\n      0x00\n        /* \"Bluelight-MP/UserDashboard.sol\":2325:2331  uniKey */\n      dup4\n        /* \"Bluelight-MP/UserDashboard.sol\":2318:2332  myNFTs[uniKey] */\n      dup2\n      mstore\n      0x20\n      add\n      swap1\n      dup2\n      mstore\n      0x20\n      add\n      0x00\n      keccak256\n        /* \"Bluelight-MP/UserDashboard.sol\":2318:2340  myNFTs[uniKey].nftName */\n      0x00\n      add\n        /* \"Bluelight-MP/UserDashboard.sol\":2318:2348  myNFTs[uniKey].nftName = _name */\n      swap1\n      dup1\n      mload\n      swap1\n      0x20\n      add\n      swap1\n      tag_248\n      swap3\n      swap2\n      swap1\n      tag_148\n      jump\t// in\n    tag_248:\n      pop\n        /* \"Bluelight-MP/UserDashboard.sol\":2392:2410  nftContractAddress */\n      dup4\n        /* \"Bluelight-MP/UserDashboard.sol\":2359:2365  myNFTs */\n      0x01\n        /* \"Bluelight-MP/UserDashboard.sol\":2359:2373  myNFTs[uniKey] */\n      0x00\n        /* \"Bluelight-MP/UserDashboard.sol\":2366:2372  uniKey */\n      dup4\n        /* \"Bluelight-MP/UserDashboard.sol\":2359:2373  myNFTs[uniKey] */\n      dup2\n      mstore\n      0x20\n      add\n      swap1\n      dup2\n      mstore\n      0x20\n      add\n      0x00\n      keccak256\n        /* \"Bluelight-MP/UserDashboard.sol\":2359:2389  myNFTs[uniKey].contractAddress */\n      0x01\n      add\n      0x00\n        /* \"Bluelight-MP/UserDashboard.sol\":2359:2410  myNFTs[uniKey].contractAddress = nftContractAddress */\n      0x0100\n      exp\n      dup2\n      sload\n      dup2\n      0xffffffffffffffffffffffffffffffffffffffff\n      mul\n      not\n      and\n      swap1\n      dup4\n      0xffffffffffffffffffffffffffffffffffffffff\n      and\n      mul\n      or\n      swap1\n      sstore\n      pop\n        /* \"Bluelight-MP/UserDashboard.sol\":2446:2453  tokenId */\n      dup3\n        /* \"Bluelight-MP/UserDashboard.sol\":2421:2427  myNFTs */\n      0x01\n        /* \"Bluelight-MP/UserDashboard.sol\":2421:2435  myNFTs[uniKey] */\n      0x00\n        /* \"Bluelight-MP/UserDashboard.sol\":2428:2434  uniKey */\n      dup4\n        /* \"Bluelight-MP/UserDashboard.sol\":2421:2435  myNFTs[uniKey] */\n      dup2\n      mstore\n      0x20\n      add\n      swap1\n      dup2\n      mstore\n      0x20\n      add\n      0x00\n      keccak256\n        /* \"Bluelight-MP/UserDashboard.sol\":2421:2443  myNFTs[uniKey].tokenId */\n      0x02\n      add\n        /* \"Bluelight-MP/UserDashboard.sol\":2421:2453  myNFTs[uniKey].tokenId = tokenId */\n      dup2\n      swap1\n      sstore\n      pop\n        /* \"Bluelight-MP/UserDashboard.sol\":2487:2497  msg.sender */\n      caller\n        /* \"Bluelight-MP/UserDashboard.sol\":2464:2470  myNFTs */\n      0x01\n        /* \"Bluelight-MP/UserDashboard.sol\":2464:2478  myNFTs[uniKey] */\n      0x00\n        /* \"Bluelight-MP/UserDashboard.sol\":2471:2477  uniKey */\n      dup4\n        /* \"Bluelight-MP/UserDashboard.sol\":2464:2478  myNFTs[uniKey] */\n      dup2\n      mstore\n      0x20\n      add\n      swap1\n      dup2\n      mstore\n      0x20\n      add\n      0x00\n      keccak256\n        /* \"Bluelight-MP/UserDashboard.sol\":2464:2484  myNFTs[uniKey].owner */\n      0x03\n      add\n      0x00\n        /* \"Bluelight-MP/UserDashboard.sol\":2464:2497  myNFTs[uniKey].owner = msg.sender */\n      0x0100\n      exp\n      dup2\n      sload\n      dup2\n      0xffffffffffffffffffffffffffffffffffffffff\n      mul\n      not\n      and\n      swap1\n      dup4\n      0xffffffffffffffffffffffffffffffffffffffff\n      and\n      mul\n      or\n      swap1\n      sstore\n      pop\n        /* \"Bluelight-MP/UserDashboard.sol\":2530:2534  iPFS */\n      dup2\n        /* \"Bluelight-MP/UserDashboard.sol\":2508:2514  myNFTs */\n      0x01\n        /* \"Bluelight-MP/UserDashboard.sol\":2508:2522  myNFTs[uniKey] */\n      0x00\n        /* \"Bluelight-MP/UserDashboard.sol\":2515:2521  uniKey */\n      dup4\n        /* \"Bluelight-MP/UserDashboard.sol\":2508:2522  myNFTs[uniKey] */\n      dup2\n      mstore\n      0x20\n      add\n      swap1\n      dup2\n      mstore\n      0x20\n      add\n      0x00\n      keccak256\n        /* \"Bluelight-MP/UserDashboard.sol\":2508:2527  myNFTs[uniKey].ipfs */\n      0x04\n      add\n        /* \"Bluelight-MP/UserDashboard.sol\":2508:2534  myNFTs[uniKey].ipfs = iPFS */\n      swap1\n      dup1\n      mload\n      swap1\n      0x20\n      add\n      swap1\n      tag_249\n      swap3\n      swap2\n      swap1\n      tag_148\n      jump\t// in\n    tag_249:\n      pop\n        /* \"Bluelight-MP/UserDashboard.sol\":2546:2560  uniKeysMapping */\n      0x02\n        /* \"Bluelight-MP/UserDashboard.sol\":2546:2572  uniKeysMapping[msg.sender] */\n      0x00\n        /* \"Bluelight-MP/UserDashboard.sol\":2561:2571  msg.sender */\n      caller\n        /* \"Bluelight-MP/UserDashboard.sol\":2546:2572  uniKeysMapping[msg.sender] */\n      0xffffffffffffffffffffffffffffffffffffffff\n      and\n      0xffffffffffffffffffffffffffffffffffffffff\n      and\n      dup2\n      mstore\n      0x20\n      add\n      swap1\n      dup2\n      mstore\n      0x20\n      add\n      0x00\n      keccak256\n        /* \"Bluelight-MP/UserDashboard.sol\":2578:2584  uniKey */\n      dup2\n        /* \"Bluelight-MP/UserDashboard.sol\":2546:2585  uniKeysMapping[msg.sender].push(uniKey) */\n      swap1\n      dup1\n      0x01\n      dup2\n      sload\n      add\n      dup1\n      dup3\n      sstore\n      dup1\n      swap2\n      pop\n      pop\n      0x01\n      swap1\n      sub\n      swap1\n      0x00\n      mstore\n      keccak256(0x00, 0x20)\n      add\n      0x00\n      swap1\n      swap2\n      swap1\n      swap2\n      swap1\n      swap2\n      pop\n      sstore\n        /* \"Bluelight-MP/UserDashboard.sol\":2033:2595  function setNft(string memory _name, address nftContractAddress, uint256 tokenId, string memory iPFS) external virtual override{\r... */\n      pop\n      pop\n      pop\n      pop\n      pop\n      jump\t// out\n        /* \"Bluelight-MP/UserDashboard.sol\":1248:1310  mapping (address => AmountRecord) public addressToAmountRecord */\n    tag_96:\n      mstore(0x20, 0x07)\n      dup1\n      0x00\n      mstore\n      keccak256(0x00, 0x40)\n      0x00\n      swap2\n      pop\n      swap1\n      pop\n      dup1\n      0x00\n      add\n      sload\n      swap1\n      dup1\n      0x01\n      add\n      sload\n      swap1\n      dup1\n      0x02\n      add\n      sload\n      swap1\n      dup1\n      0x03\n      add\n      sload\n      swap1\n      pop\n      dup5\n      jump\t// out\n        /* \"Bluelight-MP/UserDashboard.sol\":7618:8076  function setAmountRecord(address user, uint curAmountSpent, uint tokenAmountSpent, uint curAmountEarned, uint tokenAmountEarned) external virtual override{\r... */\n    tag_102:\n        /* \"Bluelight-MP/UserDashboard.sol\":7829:7843  curAmountSpent */\n      dup4\n        /* \"Bluelight-MP/UserDashboard.sol\":7783:7804  addressToAmountRecord */\n      0x07\n        /* \"Bluelight-MP/UserDashboard.sol\":7783:7810  addressToAmountRecord[user] */\n      0x00\n        /* \"Bluelight-MP/UserDashboard.sol\":7805:7809  user */\n      dup8\n        /* \"Bluelight-MP/UserDashboard.sol\":7783:7810  addressToAmountRecord[user] */\n      0xffffffffffffffffffffffffffffffffffffffff\n      and\n      0xffffffffffffffffffffffffffffffffffffffff\n      and\n      dup2\n      mstore\n      0x20\n      add\n      swap1\n      dup2\n      mstore\n      0x20\n      add\n      0x00\n      keccak256\n        /* \"Bluelight-MP/UserDashboard.sol\":7783:7825  addressToAmountRecord[user].curAmountSpent */\n      0x00\n      add\n      0x00\n        /* \"Bluelight-MP/UserDashboard.sol\":7783:7843  addressToAmountRecord[user].curAmountSpent += curAmountSpent */\n      dup3\n      dup3\n      sload\n      tag_252\n      swap2\n      swap1\n      tag_253\n      jump\t// in\n    tag_252:\n      swap3\n      pop\n      pop\n      dup2\n      swap1\n      sstore\n      pop\n        /* \"Bluelight-MP/UserDashboard.sol\":7902:7918  tokenAmountSpent */\n      dup3\n        /* \"Bluelight-MP/UserDashboard.sol\":7854:7875  addressToAmountRecord */\n      0x07\n        /* \"Bluelight-MP/UserDashboard.sol\":7854:7881  addressToAmountRecord[user] */\n      0x00\n        /* \"Bluelight-MP/UserDashboard.sol\":7876:7880  user */\n      dup8\n        /* \"Bluelight-MP/UserDashboard.sol\":7854:7881  addressToAmountRecord[user] */\n      0xffffffffffffffffffffffffffffffffffffffff\n      and\n      0xffffffffffffffffffffffffffffffffffffffff\n      and\n      dup2\n      mstore\n      0x20\n      add\n      swap1\n      dup2\n      mstore\n      0x20\n      add\n      0x00\n      keccak256\n        /* \"Bluelight-MP/UserDashboard.sol\":7854:7898  addressToAmountRecord[user].tokenAmountSpent */\n      0x01\n      add\n      0x00\n        /* \"Bluelight-MP/UserDashboard.sol\":7854:7918  addressToAmountRecord[user].tokenAmountSpent += tokenAmountSpent */\n      dup3\n      dup3\n      sload\n      tag_254\n      swap2\n      swap1\n      tag_253\n      jump\t// in\n    tag_254:\n      swap3\n      pop\n      pop\n      dup2\n      swap1\n      sstore\n      pop\n        /* \"Bluelight-MP/UserDashboard.sol\":7976:7991  curAmountEarned */\n      dup2\n        /* \"Bluelight-MP/UserDashboard.sol\":7929:7950  addressToAmountRecord */\n      0x07\n        /* \"Bluelight-MP/UserDashboard.sol\":7929:7956  addressToAmountRecord[user] */\n      0x00\n        /* \"Bluelight-MP/UserDashboard.sol\":7951:7955  user */\n      dup8\n        /* \"Bluelight-MP/UserDashboard.sol\":7929:7956  addressToAmountRecord[user] */\n      0xffffffffffffffffffffffffffffffffffffffff\n      and\n      0xffffffffffffffffffffffffffffffffffffffff\n      and\n      dup2\n      mstore\n      0x20\n      add\n      swap1\n      dup2\n      mstore\n      0x20\n      add\n      0x00\n      keccak256\n        /* \"Bluelight-MP/UserDashboard.sol\":7929:7972  addressToAmountRecord[user].curAmountEarned */\n      0x02\n      add\n      0x00\n        /* \"Bluelight-MP/UserDashboard.sol\":7929:7991  addressToAmountRecord[user].curAmountEarned += curAmountEarned */\n      dup3\n      dup3\n      sload\n      tag_255\n      swap2\n      swap1\n      tag_253\n      jump\t// in\n    tag_255:\n      swap3\n      pop\n      pop\n      dup2\n      swap1\n      sstore\n      pop\n        /* \"Bluelight-MP/UserDashboard.sol\":8051:8068  tokenAmountEarned */\n      dup1\n        /* \"Bluelight-MP/UserDashboard.sol\":8002:8023  addressToAmountRecord */\n      0x07\n        /* \"Bluelight-MP/UserDashboard.sol\":8002:8029  addressToAmountRecord[user] */\n      0x00\n        /* \"Bluelight-MP/UserDashboard.sol\":8024:8028  user */\n      dup8\n        /* \"Bluelight-MP/UserDashboard.sol\":8002:8029  addressToAmountRecord[user] */\n      0xffffffffffffffffffffffffffffffffffffffff\n      and\n      0xffffffffffffffffffffffffffffffffffffffff\n      and\n      dup2\n      mstore\n      0x20\n      add\n      swap1\n      dup2\n      mstore\n      0x20\n      add\n      0x00\n      keccak256\n        /* \"Bluelight-MP/UserDashboard.sol\":8002:8047  addressToAmountRecord[user].tokenAmountEarned */\n      0x03\n      add\n      0x00\n        /* \"Bluelight-MP/UserDashboard.sol\":8002:8068  addressToAmountRecord[user].tokenAmountEarned += tokenAmountEarned */\n      dup3\n      dup3\n      sload\n      tag_256\n      swap2\n      swap1\n      tag_253\n      jump\t// in\n    tag_256:\n      swap3\n      pop\n      pop\n      dup2\n      swap1\n      sstore\n      pop\n        /* \"Bluelight-MP/UserDashboard.sol\":7618:8076  function setAmountRecord(address user, uint curAmountSpent, uint tokenAmountSpent, uint curAmountEarned, uint tokenAmountEarned) external virtual override{\r... */\n      pop\n      pop\n      pop\n      pop\n      pop\n      jump\t// out\n        /* \"Bluelight-MP/UserDashboard.sol\":8082:8492  function userAmountDetail(address user) external virtual override view \r... */\n    tag_105:\n        /* \"Bluelight-MP/UserDashboard.sol\":8171:8190  uint currencyEarned */\n      0x00\n        /* \"Bluelight-MP/UserDashboard.sol\":8192:8208  uint earnedToken */\n      dup1\n        /* \"Bluelight-MP/UserDashboard.sol\":8210:8228  uint currencySpent */\n      0x00\n        /* \"Bluelight-MP/UserDashboard.sol\":8230:8245  uint tokenSpent */\n      dup1\n        /* \"Bluelight-MP/UserDashboard.sol\":8278:8299  addressToAmountRecord */\n      0x07\n        /* \"Bluelight-MP/UserDashboard.sol\":8278:8305  addressToAmountRecord[user] */\n      0x00\n        /* \"Bluelight-MP/UserDashboard.sol\":8300:8304  user */\n      dup7\n        /* \"Bluelight-MP/UserDashboard.sol\":8278:8305  addressToAmountRecord[user] */\n      0xffffffffffffffffffffffffffffffffffffffff\n      and\n      0xffffffffffffffffffffffffffffffffffffffff\n      and\n      dup2\n      mstore\n      0x20\n      add\n      swap1\n      dup2\n      mstore\n      0x20\n      add\n      0x00\n      keccak256\n        /* \"Bluelight-MP/UserDashboard.sol\":8278:8321  addressToAmountRecord[user].curAmountEarned */\n      0x02\n      add\n      sload\n        /* \"Bluelight-MP/UserDashboard.sol\":8323:8344  addressToAmountRecord */\n      0x07\n        /* \"Bluelight-MP/UserDashboard.sol\":8323:8350  addressToAmountRecord[user] */\n      0x00\n        /* \"Bluelight-MP/UserDashboard.sol\":8345:8349  user */\n      dup8\n        /* \"Bluelight-MP/UserDashboard.sol\":8323:8350  addressToAmountRecord[user] */\n      0xffffffffffffffffffffffffffffffffffffffff\n      and\n      0xffffffffffffffffffffffffffffffffffffffff\n      and\n      dup2\n      mstore\n      0x20\n      add\n      swap1\n      dup2\n      mstore\n      0x20\n      add\n      0x00\n      keccak256\n        /* \"Bluelight-MP/UserDashboard.sol\":8323:8368  addressToAmountRecord[user].tokenAmountEarned */\n      0x03\n      add\n      sload\n        /* \"Bluelight-MP/UserDashboard.sol\":8384:8405  addressToAmountRecord */\n      0x07\n        /* \"Bluelight-MP/UserDashboard.sol\":8384:8411  addressToAmountRecord[user] */\n      0x00\n        /* \"Bluelight-MP/UserDashboard.sol\":8406:8410  user */\n      dup9\n        /* \"Bluelight-MP/UserDashboard.sol\":8384:8411  addressToAmountRecord[user] */\n      0xffffffffffffffffffffffffffffffffffffffff\n      and\n      0xffffffffffffffffffffffffffffffffffffffff\n      and\n      dup2\n      mstore\n      0x20\n      add\n      swap1\n      dup2\n      mstore\n      0x20\n      add\n      0x00\n      keccak256\n        /* \"Bluelight-MP/UserDashboard.sol\":8384:8426  addressToAmountRecord[user].curAmountSpent */\n      0x00\n      add\n      sload\n        /* \"Bluelight-MP/UserDashboard.sol\":8429:8450  addressToAmountRecord */\n      0x07\n        /* \"Bluelight-MP/UserDashboard.sol\":8429:8456  addressToAmountRecord[user] */\n      0x00\n        /* \"Bluelight-MP/UserDashboard.sol\":8451:8455  user */\n      dup10\n        /* \"Bluelight-MP/UserDashboard.sol\":8429:8456  addressToAmountRecord[user] */\n      0xffffffffffffffffffffffffffffffffffffffff\n      and\n      0xffffffffffffffffffffffffffffffffffffffff\n      and\n      dup2\n      mstore\n      0x20\n      add\n      swap1\n      dup2\n      mstore\n      0x20\n      add\n      0x00\n      keccak256\n        /* \"Bluelight-MP/UserDashboard.sol\":8429:8473  addressToAmountRecord[user].tokenAmountSpent */\n      0x01\n      add\n      sload\n        /* \"Bluelight-MP/UserDashboard.sol\":8257:8484  return(\r... */\n      swap4\n      pop\n      swap4\n      pop\n      swap4\n      pop\n      swap4\n      pop\n        /* \"Bluelight-MP/UserDashboard.sol\":8082:8492  function userAmountDetail(address user) external virtual override view \r... */\n      swap2\n      swap4\n      pop\n      swap2\n      swap4\n      jump\t// out\n        /* \"Bluelight-MP/UserDashboard.sol\":5845:6496  function signUp(string memory _userName) external virtual override{\r... */\n    tag_109:\n        /* \"Bluelight-MP/UserDashboard.sol\":5932:5937  users */\n      0x05\n        /* \"Bluelight-MP/UserDashboard.sol\":5932:5949  users[msg.sender] */\n      0x00\n        /* \"Bluelight-MP/UserDashboard.sol\":5938:5948  msg.sender */\n      caller\n        /* \"Bluelight-MP/UserDashboard.sol\":5932:5949  users[msg.sender] */\n      0xffffffffffffffffffffffffffffffffffffffff\n      and\n      0xffffffffffffffffffffffffffffffffffffffff\n      and\n      dup2\n      mstore\n      0x20\n      add\n      swap1\n      dup2\n      mstore\n      0x20\n      add\n      0x00\n      keccak256\n        /* \"Bluelight-MP/UserDashboard.sol\":5932:5961  users[msg.sender].userExisted */\n      0x01\n      add\n      0x00\n      swap1\n      sload\n      swap1\n      0x0100\n      exp\n      swap1\n      div\n      0xff\n      and\n        /* \"Bluelight-MP/UserDashboard.sol\":5931:5961  !users[msg.sender].userExisted */\n      iszero\n        /* \"Bluelight-MP/UserDashboard.sol\":5963:5975  USER_EXISTED */\n      mload(0x40)\n      dup1\n      0x40\n      add\n      0x40\n      mstore\n      dup1\n      0x05\n      dup2\n      mstore\n      0x20\n      add\n      0x574d552d34000000000000000000000000000000000000000000000000000000\n      dup2\n      mstore\n      pop\n        /* \"Bluelight-MP/UserDashboard.sol\":5922:5976  require (!users[msg.sender].userExisted, USER_EXISTED) */\n      swap1\n      tag_259\n      jumpi\n      mload(0x40)\n      0x08c379a000000000000000000000000000000000000000000000000000000000\n      dup2\n      mstore\n      0x04\n      add\n      tag_260\n      swap2\n      swap1\n      tag_122\n      jump\t// in\n    tag_260:\n      mload(0x40)\n      dup1\n      swap2\n      sub\n      swap1\n      revert\n    tag_259:\n      pop\n        /* \"Bluelight-MP/UserDashboard.sol\":6036:6037  0 */\n      0x00\n        /* \"Bluelight-MP/UserDashboard.sol\":5996:6038  userNameToAddress[_userName] == address(0) */\n      0xffffffffffffffffffffffffffffffffffffffff\n      and\n        /* \"Bluelight-MP/UserDashboard.sol\":5996:6013  userNameToAddress */\n      0x06\n        /* \"Bluelight-MP/UserDashboard.sol\":6014:6023  _userName */\n      dup3\n        /* \"Bluelight-MP/UserDashboard.sol\":5996:6024  userNameToAddress[_userName] */\n      mload(0x40)\n      tag_261\n      swap2\n      swap1\n      tag_159\n      jump\t// in\n    tag_261:\n      swap1\n      dup2\n      mstore\n      0x20\n      add\n      mload(0x40)\n      dup1\n      swap2\n      sub\n      swap1\n      keccak256\n      0x00\n      swap1\n      sload\n      swap1\n      0x0100\n      exp\n      swap1\n      div\n      0xffffffffffffffffffffffffffffffffffffffff\n      and\n        /* \"Bluelight-MP/UserDashboard.sol\":5996:6038  userNameToAddress[_userName] == address(0) */\n      0xffffffffffffffffffffffffffffffffffffffff\n      and\n      eq\n        /* \"Bluelight-MP/UserDashboard.sol\":6040:6057  USER_NAME_EXISTED */\n      mload(0x40)\n      dup1\n      0x40\n      add\n      0x40\n      mstore\n      dup1\n      0x05\n      dup2\n      mstore\n      0x20\n      add\n      0x574d552d36000000000000000000000000000000000000000000000000000000\n      dup2\n      mstore\n      pop\n        /* \"Bluelight-MP/UserDashboard.sol\":5987:6058  require (userNameToAddress[_userName] == address(0), USER_NAME_EXISTED) */\n      swap1\n      tag_262\n      jumpi\n      mload(0x40)\n      0x08c379a000000000000000000000000000000000000000000000000000000000\n      dup2\n      mstore\n      0x04\n      add\n      tag_263\n      swap2\n      swap1\n      tag_122\n      jump\t// in\n    tag_263:\n      mload(0x40)\n      dup1\n      swap2\n      sub\n      swap1\n      revert\n    tag_262:\n      pop\n        /* \"Bluelight-MP/UserDashboard.sol\":6100:6109  _userName */\n      dup1\n        /* \"Bluelight-MP/UserDashboard.sol\":6071:6076  users */\n      0x05\n        /* \"Bluelight-MP/UserDashboard.sol\":6071:6088  users[msg.sender] */\n      0x00\n        /* \"Bluelight-MP/UserDashboard.sol\":6077:6087  msg.sender */\n      caller\n        /* \"Bluelight-MP/UserDashboard.sol\":6071:6088  users[msg.sender] */\n      0xffffffffffffffffffffffffffffffffffffffff\n      and\n      0xffffffffffffffffffffffffffffffffffffffff\n      and\n      dup2\n      mstore\n      0x20\n      add\n      swap1\n      dup2\n      mstore\n      0x20\n      add\n      0x00\n      keccak256\n        /* \"Bluelight-MP/UserDashboard.sol\":6071:6097  users[msg.sender].userName */\n      0x00\n      add\n        /* \"Bluelight-MP/UserDashboard.sol\":6071:6109  users[msg.sender].userName = _userName */\n      swap1\n      dup1\n      mload\n      swap1\n      0x20\n      add\n      swap1\n      tag_264\n      swap3\n      swap2\n      swap1\n      tag_148\n      jump\t// in\n    tag_264:\n      pop\n        /* \"Bluelight-MP/UserDashboard.sol\":6152:6156  true */\n      0x01\n        /* \"Bluelight-MP/UserDashboard.sol\":6120:6125  users */\n      0x05\n        /* \"Bluelight-MP/UserDashboard.sol\":6120:6137  users[msg.sender] */\n      0x00\n        /* \"Bluelight-MP/UserDashboard.sol\":6126:6136  msg.sender */\n      caller\n        /* \"Bluelight-MP/UserDashboard.sol\":6120:6137  users[msg.sender] */\n      0xffffffffffffffffffffffffffffffffffffffff\n      and\n      0xffffffffffffffffffffffffffffffffffffffff\n      and\n      dup2\n      mstore\n      0x20\n      add\n      swap1\n      dup2\n      mstore\n      0x20\n      add\n      0x00\n      keccak256\n        /* \"Bluelight-MP/UserDashboard.sol\":6120:6149  users[msg.sender].userExisted */\n      0x01\n      add\n      0x00\n        /* \"Bluelight-MP/UserDashboard.sol\":6120:6156  users[msg.sender].userExisted = true */\n      0x0100\n      exp\n      dup2\n      sload\n      dup2\n      0xff\n      mul\n      not\n      and\n      swap1\n      dup4\n      iszero\n      iszero\n      mul\n      or\n      swap1\n      sstore\n      pop\n        /* \"Bluelight-MP/UserDashboard.sol\":6200:6215  block.timestamp */\n      timestamp\n        /* \"Bluelight-MP/UserDashboard.sol\":6167:6172  users */\n      0x05\n        /* \"Bluelight-MP/UserDashboard.sol\":6167:6184  users[msg.sender] */\n      0x00\n        /* \"Bluelight-MP/UserDashboard.sol\":6173:6183  msg.sender */\n      caller\n        /* \"Bluelight-MP/UserDashboard.sol\":6167:6184  users[msg.sender] */\n      0xffffffffffffffffffffffffffffffffffffffff\n      and\n      0xffffffffffffffffffffffffffffffffffffffff\n      and\n      dup2\n      mstore\n      0x20\n      add\n      swap1\n      dup2\n      mstore\n      0x20\n      add\n      0x00\n      keccak256\n        /* \"Bluelight-MP/UserDashboard.sol\":6167:6197  users[msg.sender].creationTime */\n      0x02\n      add\n        /* \"Bluelight-MP/UserDashboard.sol\":6167:6215  users[msg.sender].creationTime = block.timestamp */\n      dup2\n      swap1\n      sstore\n      pop\n        /* \"Bluelight-MP/UserDashboard.sol\":6255:6259  true */\n      0x01\n        /* \"Bluelight-MP/UserDashboard.sol\":6226:6231  users */\n      0x05\n        /* \"Bluelight-MP/UserDashboard.sol\":6226:6243  users[msg.sender] */\n      0x00\n        /* \"Bluelight-MP/UserDashboard.sol\":6232:6242  msg.sender */\n      caller\n        /* \"Bluelight-MP/UserDashboard.sol\":6226:6243  users[msg.sender] */\n      0xffffffffffffffffffffffffffffffffffffffff\n      and\n      0xffffffffffffffffffffffffffffffffffffffff\n      and\n      dup2\n      mstore\n      0x20\n      add\n      swap1\n      dup2\n      mstore\n      0x20\n      add\n      0x00\n      keccak256\n        /* \"Bluelight-MP/UserDashboard.sol\":6226:6252  users[msg.sender].loggedIn */\n      0x03\n      add\n      0x00\n        /* \"Bluelight-MP/UserDashboard.sol\":6226:6259  users[msg.sender].loggedIn = true */\n      0x0100\n      exp\n      dup2\n      sload\n      dup2\n      0xff\n      mul\n      not\n      and\n      swap1\n      dup4\n      iszero\n      iszero\n      mul\n      or\n      swap1\n      sstore\n      pop\n        /* \"Bluelight-MP/UserDashboard.sol\":6301:6311  msg.sender */\n      caller\n        /* \"Bluelight-MP/UserDashboard.sol\":6270:6287  userNameToAddress */\n      0x06\n        /* \"Bluelight-MP/UserDashboard.sol\":6288:6297  _userName */\n      dup3\n        /* \"Bluelight-MP/UserDashboard.sol\":6270:6298  userNameToAddress[_userName] */\n      mload(0x40)\n      tag_265\n      swap2\n      swap1\n      tag_159\n      jump\t// in\n    tag_265:\n      swap1\n      dup2\n      mstore\n      0x20\n      add\n      mload(0x40)\n      dup1\n      swap2\n      sub\n      swap1\n      keccak256\n      0x00\n        /* \"Bluelight-MP/UserDashboard.sol\":6270:6311  userNameToAddress[_userName] = msg.sender */\n      0x0100\n      exp\n      dup2\n      sload\n      dup2\n      0xffffffffffffffffffffffffffffffffffffffff\n      mul\n      not\n      and\n      swap1\n      dup4\n      0xffffffffffffffffffffffffffffffffffffffff\n      and\n      mul\n      or\n      swap1\n      sstore\n      pop\n        /* \"Bluelight-MP/UserDashboard.sol\":6441:6451  msg.sender */\n      caller\n        /* \"Bluelight-MP/UserDashboard.sol\":6433:6480  SignUp (msg.sender, _userName, block.timestamp) */\n      0xffffffffffffffffffffffffffffffffffffffff\n      and\n      0xee20c2c019dcbca8d08ff74c4ce6f465e02d3611905c9aceeb76a0c8e429af2f\n        /* \"Bluelight-MP/UserDashboard.sol\":6453:6462  _userName */\n      dup3\n        /* \"Bluelight-MP/UserDashboard.sol\":6464:6479  block.timestamp */\n      timestamp\n        /* \"Bluelight-MP/UserDashboard.sol\":6433:6480  SignUp (msg.sender, _userName, block.timestamp) */\n      mload(0x40)\n      tag_266\n      swap3\n      swap2\n      swap1\n      tag_267\n      jump\t// in\n    tag_266:\n      mload(0x40)\n      dup1\n      swap2\n      sub\n      swap1\n      log2\n        /* \"Bluelight-MP/UserDashboard.sol\":5845:6496  function signUp(string memory _userName) external virtual override{\r... */\n      pop\n      jump\t// out\n        /* \"Bluelight-MP/UserDashboard.sol\":939:991  mapping (NftCategory => bytes32[]) public nftCatWise */\n    tag_113:\n      mstore(0x20, 0x03)\n      dup2\n      0x00\n      mstore\n      keccak256(0x00, 0x40)\n      dup2\n      dup2\n      sload\n      dup2\n      lt\n      tag_268\n      jumpi\n      0x00\n      dup1\n      revert\n    tag_268:\n      swap1\n      0x00\n      mstore\n      keccak256(0x00, 0x20)\n      add\n      0x00\n      swap2\n      pop\n      swap2\n      pop\n      pop\n      sload\n      dup2\n      jump\t// out\n        /* \"Bluelight-MP/UserDashboard.sol\":3680:3938  function getNftCategories() external pure returns(string memory,string memory,string memory,string memory,string memory,string memory,string memory) {\r... */\n    tag_116:\n        /* \"Bluelight-MP/UserDashboard.sol\":3730:3743  string memory */\n      0x60\n        /* \"Bluelight-MP/UserDashboard.sol\":3744:3757  string memory */\n      dup1\n        /* \"Bluelight-MP/UserDashboard.sol\":3758:3771  string memory */\n      0x60\n        /* \"Bluelight-MP/UserDashboard.sol\":3772:3785  string memory */\n      dup1\n        /* \"Bluelight-MP/UserDashboard.sol\":3786:3799  string memory */\n      0x60\n        /* \"Bluelight-MP/UserDashboard.sol\":3800:3813  string memory */\n      dup1\n        /* \"Bluelight-MP/UserDashboard.sol\":3814:3827  string memory */\n      0x60\n        /* \"Bluelight-MP/UserDashboard.sol\":3840:3930  return (\"AVATAR\", \"PICTURE\", \"GENERATIVE_ART\", \"ART\", \"COLLECTIBLES\", \"GAMIFIED\", \"OTHER\") */\n      mload(0x40)\n      dup1\n      0x40\n      add\n      0x40\n      mstore\n      dup1\n      0x06\n      dup2\n      mstore\n      0x20\n      add\n      0x4156415441520000000000000000000000000000000000000000000000000000\n      dup2\n      mstore\n      pop\n      mload(0x40)\n      dup1\n      0x40\n      add\n      0x40\n      mstore\n      dup1\n      0x07\n      dup2\n      mstore\n      0x20\n      add\n      0x5049435455524500000000000000000000000000000000000000000000000000\n      dup2\n      mstore\n      pop\n      mload(0x40)\n      dup1\n      0x40\n      add\n      0x40\n      mstore\n      dup1\n      0x0e\n      dup2\n      mstore\n      0x20\n      add\n      0x47454e455241544956455f415254000000000000000000000000000000000000\n      dup2\n      mstore\n      pop\n      mload(0x40)\n      dup1\n      0x40\n      add\n      0x40\n      mstore\n      dup1\n      0x03\n      dup2\n      mstore\n      0x20\n      add\n      0x4152540000000000000000000000000000000000000000000000000000000000\n      dup2\n      mstore\n      pop\n      mload(0x40)\n      dup1\n      0x40\n      add\n      0x40\n      mstore\n      dup1\n      0x0c\n      dup2\n      mstore\n      0x20\n      add\n      0x434f4c4c45435449424c45530000000000000000000000000000000000000000\n      dup2\n      mstore\n      pop\n      mload(0x40)\n      dup1\n      0x40\n      add\n      0x40\n      mstore\n      dup1\n      0x08\n      dup2\n      mstore\n      0x20\n      add\n      0x47414d4946494544000000000000000000000000000000000000000000000000\n      dup2\n      mstore\n      pop\n      mload(0x40)\n      dup1\n      0x40\n      add\n      0x40\n      mstore\n      dup1\n      0x05\n      dup2\n      mstore\n      0x20\n      add\n      0x4f54484552000000000000000000000000000000000000000000000000000000\n      dup2\n      mstore\n      pop\n      swap7\n      pop\n      swap7\n      pop\n      swap7\n      pop\n      swap7\n      pop\n      swap7\n      pop\n      swap7\n      pop\n      swap7\n      pop\n        /* \"Bluelight-MP/UserDashboard.sol\":3680:3938  function getNftCategories() external pure returns(string memory,string memory,string memory,string memory,string memory,string memory,string memory) {\r... */\n      swap1\n      swap2\n      swap3\n      swap4\n      swap5\n      swap6\n      swap7\n      jump\t// out\n        /* \"Bluelight-MP/UserDashboard.sol\":6682:6875  function checkUser() external virtual override view returns(string memory){\r... */\n    tag_120:\n        /* \"Bluelight-MP/UserDashboard.sol\":6742:6755  string memory */\n      0x60\n        /* \"Bluelight-MP/UserDashboard.sol\":6775:6780  users */\n      0x05\n        /* \"Bluelight-MP/UserDashboard.sol\":6775:6792  users[msg.sender] */\n      0x00\n        /* \"Bluelight-MP/UserDashboard.sol\":6781:6791  msg.sender */\n      caller\n        /* \"Bluelight-MP/UserDashboard.sol\":6775:6792  users[msg.sender] */\n      0xffffffffffffffffffffffffffffffffffffffff\n      and\n      0xffffffffffffffffffffffffffffffffffffffff\n      and\n      dup2\n      mstore\n      0x20\n      add\n      swap1\n      dup2\n      mstore\n      0x20\n      add\n      0x00\n      keccak256\n        /* \"Bluelight-MP/UserDashboard.sol\":6775:6801  users[msg.sender].loggedIn */\n      0x03\n      add\n      0x00\n      swap1\n      sload\n      swap1\n      0x0100\n      exp\n      swap1\n      div\n      0xff\n      and\n        /* \"Bluelight-MP/UserDashboard.sol\":6803:6822  CREATE_ACC_OR_LOGIN */\n      mload(0x40)\n      dup1\n      0x40\n      add\n      0x40\n      mstore\n      dup1\n      0x05\n      dup2\n      mstore\n      0x20\n      add\n      0x574d552d32000000000000000000000000000000000000000000000000000000\n      dup2\n      mstore\n      pop\n        /* \"Bluelight-MP/UserDashboard.sol\":6767:6823  require(users[msg.sender].loggedIn, CREATE_ACC_OR_LOGIN) */\n      swap1\n      tag_272\n      jumpi\n      mload(0x40)\n      0x08c379a000000000000000000000000000000000000000000000000000000000\n      dup2\n      mstore\n      0x04\n      add\n      tag_273\n      swap2\n      swap1\n      tag_122\n      jump\t// in\n    tag_273:\n      mload(0x40)\n      dup1\n      swap2\n      sub\n      swap1\n      revert\n    tag_272:\n      pop\n        /* \"Bluelight-MP/UserDashboard.sol\":6841:6846  users */\n      0x05\n        /* \"Bluelight-MP/UserDashboard.sol\":6841:6858  users[msg.sender] */\n      0x00\n        /* \"Bluelight-MP/UserDashboard.sol\":6847:6857  msg.sender */\n      caller\n        /* \"Bluelight-MP/UserDashboard.sol\":6841:6858  users[msg.sender] */\n      0xffffffffffffffffffffffffffffffffffffffff\n      and\n      0xffffffffffffffffffffffffffffffffffffffff\n      and\n      dup2\n      mstore\n      0x20\n      add\n      swap1\n      dup2\n      mstore\n      0x20\n      add\n      0x00\n      keccak256\n        /* \"Bluelight-MP/UserDashboard.sol\":6841:6867  users[msg.sender].userName */\n      0x00\n      add\n        /* \"Bluelight-MP/UserDashboard.sol\":6834:6867  return users[msg.sender].userName */\n      dup1\n      sload\n      tag_274\n      swap1\n      tag_153\n      jump\t// in\n    tag_274:\n      dup1\n      0x1f\n      add\n      0x20\n      dup1\n      swap2\n      div\n      mul\n      0x20\n      add\n      mload(0x40)\n      swap1\n      dup2\n      add\n      0x40\n      mstore\n      dup1\n      swap3\n      swap2\n      swap1\n      dup2\n      dup2\n      mstore\n      0x20\n      add\n      dup3\n      dup1\n      sload\n      tag_275\n      swap1\n      tag_153\n      jump\t// in\n    tag_275:\n      dup1\n      iszero\n      tag_276\n      jumpi\n      dup1\n      0x1f\n      lt\n      tag_277\n      jumpi\n      0x0100\n      dup1\n      dup4\n      sload\n      div\n      mul\n      dup4\n      mstore\n      swap2\n      0x20\n      add\n      swap2\n      jump(tag_276)\n    tag_277:\n      dup3\n      add\n      swap2\n      swap1\n      0x00\n      mstore\n      keccak256(0x00, 0x20)\n      swap1\n    tag_278:\n      dup2\n      sload\n      dup2\n      mstore\n      swap1\n      0x01\n      add\n      swap1\n      0x20\n      add\n      dup1\n      dup4\n      gt\n      tag_278\n      jumpi\n      dup3\n      swap1\n      sub\n      0x1f\n      and\n      dup3\n      add\n      swap2\n    tag_276:\n      pop\n      pop\n      pop\n      pop\n      pop\n      swap1\n      pop\n        /* \"Bluelight-MP/UserDashboard.sol\":6682:6875  function checkUser() external virtual override view returns(string memory){\r... */\n      swap1\n      jump\t// out\n        /* \"Bluelight-MP/UserDashboard.sol\":3528:3674  function getUserNftCatWise(NftCategory nftCat) external view returns(bytes32[] memory){\r... */\n    tag_126:\n        /* \"Bluelight-MP/UserDashboard.sol\":3597:3613  bytes32[] memory */\n      0x60\n        /* \"Bluelight-MP/UserDashboard.sol\":3632:3646  userNftCatWise */\n      0x04\n        /* \"Bluelight-MP/UserDashboard.sol\":3632:3658  userNftCatWise[msg.sender] */\n      0x00\n        /* \"Bluelight-MP/UserDashboard.sol\":3647:3657  msg.sender */\n      caller\n        /* \"Bluelight-MP/UserDashboard.sol\":3632:3658  userNftCatWise[msg.sender] */\n      0xffffffffffffffffffffffffffffffffffffffff\n      and\n      0xffffffffffffffffffffffffffffffffffffffff\n      and\n      dup2\n      mstore\n      0x20\n      add\n      swap1\n      dup2\n      mstore\n      0x20\n      add\n      0x00\n      keccak256\n        /* \"Bluelight-MP/UserDashboard.sol\":3632:3666  userNftCatWise[msg.sender][nftCat] */\n      0x00\n        /* \"Bluelight-MP/UserDashboard.sol\":3659:3665  nftCat */\n      dup4\n        /* \"Bluelight-MP/UserDashboard.sol\":3632:3666  userNftCatWise[msg.sender][nftCat] */\n      0x06\n      dup2\n      gt\n      iszero\n      tag_280\n      jumpi\n      mstore(0x00, 0x4e487b7100000000000000000000000000000000000000000000000000000000)\n      mstore(0x04, 0x21)\n      revert(0x00, 0x24)\n    tag_280:\n      0x06\n      dup2\n      gt\n      iszero\n      tag_281\n      jumpi\n      mstore(0x00, 0x4e487b7100000000000000000000000000000000000000000000000000000000)\n      mstore(0x04, 0x21)\n      revert(0x00, 0x24)\n    tag_281:\n      dup2\n      mstore\n      0x20\n      add\n      swap1\n      dup2\n      mstore\n      0x20\n      add\n      0x00\n      keccak256\n        /* \"Bluelight-MP/UserDashboard.sol\":3625:3666  return userNftCatWise[msg.sender][nftCat] */\n      dup1\n      sload\n      dup1\n      0x20\n      mul\n      0x20\n      add\n      mload(0x40)\n      swap1\n      dup2\n      add\n      0x40\n      mstore\n      dup1\n      swap3\n      swap2\n      swap1\n      dup2\n      dup2\n      mstore\n      0x20\n      add\n      dup3\n      dup1\n      sload\n      dup1\n      iszero\n      tag_282\n      jumpi\n      0x20\n      mul\n      dup3\n      add\n      swap2\n      swap1\n      0x00\n      mstore\n      keccak256(0x00, 0x20)\n      swap1\n    tag_283:\n      dup2\n      sload\n      dup2\n      mstore\n      0x20\n      add\n      swap1\n      0x01\n      add\n      swap1\n      dup1\n      dup4\n      gt\n      tag_283\n      jumpi\n    tag_282:\n      pop\n      pop\n      pop\n      pop\n      pop\n      swap1\n      pop\n        /* \"Bluelight-MP/UserDashboard.sol\":3528:3674  function getUserNftCatWise(NftCategory nftCat) external view returns(bytes32[] memory){\r... */\n      swap2\n      swap1\n      pop\n      jump\t// out\n        /* \"Bluelight-MP/UserDashboard.sol\":998:1075  mapping (address => mapping (NftCategory => bytes32[])) public userNftCatWise */\n    tag_131:\n      mstore(0x20, 0x04)\n      dup3\n      0x00\n      mstore\n      mstore(0x20, keccak256(0x00, 0x40))\n      dup2\n      0x00\n      mstore\n      keccak256(0x00, 0x40)\n      dup2\n      dup2\n      sload\n      dup2\n      lt\n      tag_284\n      jumpi\n      0x00\n      dup1\n      revert\n    tag_284:\n      swap1\n      0x00\n      mstore\n      keccak256(0x00, 0x20)\n      add\n      0x00\n      swap3\n      pop\n      swap3\n      pop\n      pop\n      pop\n      sload\n      dup2\n      jump\t// out\n        /* \"Bluelight-MP/UserDashboard.sol\":3393:3522  function getAllNftCatWise(NftCategory nftCat) external view returns(bytes32[] memory){\r... */\n    tag_135:\n        /* \"Bluelight-MP/UserDashboard.sol\":3461:3477  bytes32[] memory */\n      0x60\n        /* \"Bluelight-MP/UserDashboard.sol\":3496:3506  nftCatWise */\n      0x03\n        /* \"Bluelight-MP/UserDashboard.sol\":3496:3514  nftCatWise[nftCat] */\n      0x00\n        /* \"Bluelight-MP/UserDashboard.sol\":3507:3513  nftCat */\n      dup4\n        /* \"Bluelight-MP/UserDashboard.sol\":3496:3514  nftCatWise[nftCat] */\n      0x06\n      dup2\n      gt\n      iszero\n      tag_287\n      jumpi\n      mstore(0x00, 0x4e487b7100000000000000000000000000000000000000000000000000000000)\n      mstore(0x04, 0x21)\n      revert(0x00, 0x24)\n    tag_287:\n      0x06\n      dup2\n      gt\n      iszero\n      tag_288\n      jumpi\n      mstore(0x00, 0x4e487b7100000000000000000000000000000000000000000000000000000000)\n      mstore(0x04, 0x21)\n      revert(0x00, 0x24)\n    tag_288:\n      dup2\n      mstore\n      0x20\n      add\n      swap1\n      dup2\n      mstore\n      0x20\n      add\n      0x00\n      keccak256\n        /* \"Bluelight-MP/UserDashboard.sol\":3489:3514  return nftCatWise[nftCat] */\n      dup1\n      sload\n      dup1\n      0x20\n      mul\n      0x20\n      add\n      mload(0x40)\n      swap1\n      dup2\n      add\n      0x40\n      mstore\n      dup1\n      swap3\n      swap2\n      swap1\n      dup2\n      dup2\n      mstore\n      0x20\n      add\n      dup3\n      dup1\n      sload\n      dup1\n      iszero\n      tag_289\n      jumpi\n      0x20\n      mul\n      dup3\n      add\n      swap2\n      swap1\n      0x00\n      mstore\n      keccak256(0x00, 0x20)\n      swap1\n    tag_290:\n      dup2\n      sload\n      dup2\n      mstore\n      0x20\n      add\n      swap1\n      0x01\n      add\n      swap1\n      dup1\n      dup4\n      gt\n      tag_290\n      jumpi\n    tag_289:\n      pop\n      pop\n      pop\n      pop\n      pop\n      swap1\n      pop\n        /* \"Bluelight-MP/UserDashboard.sol\":3393:3522  function getAllNftCatWise(NftCategory nftCat) external view returns(bytes32[] memory){\r... */\n      swap2\n      swap1\n      pop\n      jump\t// out\n        /* \"Bluelight-MP/UserDashboard.sol\":4983:5103  function getProfilePic() external view returns(string memory ipfs){\r... */\n    tag_138:\n        /* \"Bluelight-MP/UserDashboard.sol\":5030:5048  string memory ipfs */\n      0x60\n        /* \"Bluelight-MP/UserDashboard.sol\":5067:5072  users */\n      0x05\n        /* \"Bluelight-MP/UserDashboard.sol\":5067:5084  users[msg.sender] */\n      0x00\n        /* \"Bluelight-MP/UserDashboard.sol\":5073:5083  msg.sender */\n      caller\n        /* \"Bluelight-MP/UserDashboard.sol\":5067:5084  users[msg.sender] */\n      0xffffffffffffffffffffffffffffffffffffffff\n      and\n      0xffffffffffffffffffffffffffffffffffffffff\n      and\n      dup2\n      mstore\n      0x20\n      add\n      swap1\n      dup2\n      mstore\n      0x20\n      add\n      0x00\n      keccak256\n        /* \"Bluelight-MP/UserDashboard.sol\":5067:5095  users[msg.sender].profilePic */\n      0x04\n      add\n        /* \"Bluelight-MP/UserDashboard.sol\":5060:5095  return users[msg.sender].profilePic */\n      dup1\n      sload\n      tag_292\n      swap1\n      tag_153\n      jump\t// in\n    tag_292:\n      dup1\n      0x1f\n      add\n      0x20\n      dup1\n      swap2\n      div\n      mul\n      0x20\n      add\n      mload(0x40)\n      swap1\n      dup2\n      add\n      0x40\n      mstore\n      dup1\n      swap3\n      swap2\n      swap1\n      dup2\n      dup2\n      mstore\n      0x20\n      add\n      dup3\n      dup1\n      sload\n      tag_293\n      swap1\n      tag_153\n      jump\t// in\n    tag_293:\n      dup1\n      iszero\n      tag_294\n      jumpi\n      dup1\n      0x1f\n      lt\n      tag_295\n      jumpi\n      0x0100\n      dup1\n      dup4\n      sload\n      div\n      mul\n      dup4\n      mstore\n      swap2\n      0x20\n      add\n      swap2\n      jump(tag_294)\n    tag_295:\n      dup3\n      add\n      swap2\n      swap1\n      0x00\n      mstore\n      keccak256(0x00, 0x20)\n      swap1\n    tag_296:\n      dup2\n      sload\n      dup2\n      mstore\n      swap1\n      0x01\n      add\n      swap1\n      0x20\n      add\n      dup1\n      dup4\n      gt\n      tag_296\n      jumpi\n      dup3\n      swap1\n      sub\n      0x1f\n      and\n      dup3\n      add\n      swap2\n    tag_294:\n      pop\n      pop\n      pop\n      pop\n      pop\n      swap1\n      pop\n        /* \"Bluelight-MP/UserDashboard.sol\":4983:5103  function getProfilePic() external view returns(string memory ipfs){\r... */\n      swap1\n      jump\t// out\n        /* \"Bluelight-MP/UserDashboard.sol\":5467:5603  function checkLogIn(address _userAddr) external virtual override view returns(bool){  \r... */\n    tag_142:\n        /* \"Bluelight-MP/UserDashboard.sol\":5545:5549  bool */\n      0x00\n        /* \"Bluelight-MP/UserDashboard.sol\":5570:5575  users */\n      0x05\n        /* \"Bluelight-MP/UserDashboard.sol\":5570:5586  users[_userAddr] */\n      0x00\n        /* \"Bluelight-MP/UserDashboard.sol\":5576:5585  _userAddr */\n      dup4\n        /* \"Bluelight-MP/UserDashboard.sol\":5570:5586  users[_userAddr] */\n      0xffffffffffffffffffffffffffffffffffffffff\n      and\n      0xffffffffffffffffffffffffffffffffffffffff\n      and\n      dup2\n      mstore\n      0x20\n      add\n      swap1\n      dup2\n      mstore\n      0x20\n      add\n      0x00\n      keccak256\n        /* \"Bluelight-MP/UserDashboard.sol\":5570:5595  users[_userAddr].loggedIn */\n      0x03\n      add\n      0x00\n      swap1\n      sload\n      swap1\n      0x0100\n      exp\n      swap1\n      div\n      0xff\n      and\n        /* \"Bluelight-MP/UserDashboard.sol\":5563:5595  return users[_userAddr].loggedIn */\n      swap1\n      pop\n        /* \"Bluelight-MP/UserDashboard.sol\":5467:5603  function checkLogIn(address _userAddr) external virtual override view returns(bool){  \r... */\n      swap2\n      swap1\n      pop\n      jump\t// out\n        /* \"Bluelight-MP/Helper.sol\":154:341  function getPrivateUniqueKey(address nftContractAddress, uint256 tokenId) internal pure returns (bytes32){\r... */\n    tag_189:\n        /* \"Bluelight-MP/Helper.sol\":251:258  bytes32 */\n      0x00\n        /* \"Bluelight-MP/Helper.sol\":304:322  nftContractAddress */\n      dup3\n        /* \"Bluelight-MP/Helper.sol\":324:331  tokenId */\n      dup3\n        /* \"Bluelight-MP/Helper.sol\":287:332  abi.encodePacked(nftContractAddress, tokenId) */\n      add(0x20, mload(0x40))\n      tag_299\n      swap3\n      swap2\n      swap1\n      tag_300\n      jump\t// in\n    tag_299:\n      mload(0x40)\n      0x20\n      dup2\n      dup4\n      sub\n      sub\n      dup2\n      mstore\n      swap1\n      0x40\n      mstore\n        /* \"Bluelight-MP/Helper.sol\":277:333  keccak256(abi.encodePacked(nftContractAddress, tokenId)) */\n      dup1\n      mload\n      swap1\n      0x20\n      add\n      keccak256\n        /* \"Bluelight-MP/Helper.sol\":270:333  return keccak256(abi.encodePacked(nftContractAddress, tokenId)) */\n      swap1\n      pop\n        /* \"Bluelight-MP/Helper.sol\":154:341  function getPrivateUniqueKey(address nftContractAddress, uint256 tokenId) internal pure returns (bytes32){\r... */\n      swap3\n      swap2\n      pop\n      pop\n      jump\t// out\n    tag_148:\n      dup3\n      dup1\n      sload\n      tag_301\n      swap1\n      tag_153\n      jump\t// in\n    tag_301:\n      swap1\n      0x00\n      mstore\n      keccak256(0x00, 0x20)\n      swap1\n      0x1f\n      add\n      0x20\n      swap1\n      div\n      dup2\n      add\n      swap3\n      dup3\n      tag_303\n      jumpi\n      0x00\n      dup6\n      sstore\n      jump(tag_302)\n    tag_303:\n      dup3\n      0x1f\n      lt\n      tag_304\n      jumpi\n      dup1\n      mload\n      not(0xff)\n      and\n      dup4\n      dup1\n      add\n      or\n      dup6\n      sstore\n      jump(tag_302)\n    tag_304:\n      dup3\n      dup1\n      add\n      0x01\n      add\n      dup6\n      sstore\n      dup3\n      iszero\n      tag_302\n      jumpi\n      swap2\n      dup3\n      add\n    tag_305:\n      dup3\n      dup2\n      gt\n      iszero\n      tag_306\n      jumpi\n      dup3\n      mload\n      dup3\n      sstore\n      swap2\n      0x20\n      add\n      swap2\n      swap1\n      0x01\n      add\n      swap1\n      jump(tag_305)\n    tag_306:\n    tag_302:\n      pop\n      swap1\n      pop\n      tag_307\n      swap2\n      swap1\n      tag_308\n      jump\t// in\n    tag_307:\n      pop\n      swap1\n      jump\t// out\n    tag_161:\n      pop\n      dup1\n      sload\n      tag_309\n      swap1\n      tag_153\n      jump\t// in\n    tag_309:\n      0x00\n      dup3\n      sstore\n      dup1\n      0x1f\n      lt\n      tag_311\n      jumpi\n      pop\n      jump(tag_310)\n    tag_311:\n      0x1f\n      add\n      0x20\n      swap1\n      div\n      swap1\n      0x00\n      mstore\n      keccak256(0x00, 0x20)\n      swap1\n      dup2\n      add\n      swap1\n      tag_312\n      swap2\n      swap1\n      tag_308\n      jump\t// in\n    tag_312:\n    tag_310:\n      pop\n      jump\t// out\n    tag_308:\n    tag_313:\n      dup1\n      dup3\n      gt\n      iszero\n      tag_314\n      jumpi\n      0x00\n      dup2\n      0x00\n      swap1\n      sstore\n      pop\n      0x01\n      add\n      jump(tag_313)\n    tag_314:\n      pop\n      swap1\n      jump\t// out\n        /* \"#utility.yul\":7:352   */\n    tag_316:\n        /* \"#utility.yul\":85:90   */\n      0x00\n        /* \"#utility.yul\":110:176   */\n      tag_318\n        /* \"#utility.yul\":126:175   */\n      tag_319\n        /* \"#utility.yul\":168:174   */\n      dup5\n        /* \"#utility.yul\":126:175   */\n      tag_320\n      jump\t// in\n    tag_319:\n        /* \"#utility.yul\":110:176   */\n      tag_321\n      jump\t// in\n    tag_318:\n        /* \"#utility.yul\":101:176   */\n      swap1\n      pop\n        /* \"#utility.yul\":199:205   */\n      dup3\n        /* \"#utility.yul\":192:197   */\n      dup2\n        /* \"#utility.yul\":185:206   */\n      mstore\n        /* \"#utility.yul\":237:241   */\n      0x20\n        /* \"#utility.yul\":230:235   */\n      dup2\n        /* \"#utility.yul\":226:242   */\n      add\n        /* \"#utility.yul\":275:278   */\n      dup5\n        /* \"#utility.yul\":266:272   */\n      dup5\n        /* \"#utility.yul\":261:264   */\n      dup5\n        /* \"#utility.yul\":257:273   */\n      add\n        /* \"#utility.yul\":254:279   */\n      gt\n        /* \"#utility.yul\":251:253   */\n      iszero\n      tag_322\n      jumpi\n        /* \"#utility.yul\":292:293   */\n      0x00\n        /* \"#utility.yul\":289:290   */\n      dup1\n        /* \"#utility.yul\":282:294   */\n      revert\n        /* \"#utility.yul\":251:253   */\n    tag_322:\n        /* \"#utility.yul\":305:346   */\n      tag_323\n        /* \"#utility.yul\":339:345   */\n      dup5\n        /* \"#utility.yul\":334:337   */\n      dup3\n        /* \"#utility.yul\":329:332   */\n      dup6\n        /* \"#utility.yul\":305:346   */\n      tag_324\n      jump\t// in\n    tag_323:\n        /* \"#utility.yul\":91:352   */\n      pop\n      swap4\n      swap3\n      pop\n      pop\n      pop\n      jump\t// out\n        /* \"#utility.yul\":358:497   */\n    tag_325:\n        /* \"#utility.yul\":404:409   */\n      0x00\n        /* \"#utility.yul\":442:448   */\n      dup2\n        /* \"#utility.yul\":429:449   */\n      calldataload\n        /* \"#utility.yul\":420:449   */\n      swap1\n      pop\n        /* \"#utility.yul\":458:491   */\n      tag_327\n        /* \"#utility.yul\":485:490   */\n      dup2\n        /* \"#utility.yul\":458:491   */\n      tag_328\n      jump\t// in\n    tag_327:\n        /* \"#utility.yul\":410:497   */\n      swap3\n      swap2\n      pop\n      pop\n      jump\t// out\n        /* \"#utility.yul\":503:642   */\n    tag_329:\n        /* \"#utility.yul\":549:554   */\n      0x00\n        /* \"#utility.yul\":587:593   */\n      dup2\n        /* \"#utility.yul\":574:594   */\n      calldataload\n        /* \"#utility.yul\":565:594   */\n      swap1\n      pop\n        /* \"#utility.yul\":603:636   */\n      tag_331\n        /* \"#utility.yul\":630:635   */\n      dup2\n        /* \"#utility.yul\":603:636   */\n      tag_332\n      jump\t// in\n    tag_331:\n        /* \"#utility.yul\":555:642   */\n      swap3\n      swap2\n      pop\n      pop\n      jump\t// out\n        /* \"#utility.yul\":648:817   */\n    tag_333:\n        /* \"#utility.yul\":709:714   */\n      0x00\n        /* \"#utility.yul\":747:753   */\n      dup2\n        /* \"#utility.yul\":734:754   */\n      calldataload\n        /* \"#utility.yul\":725:754   */\n      swap1\n      pop\n        /* \"#utility.yul\":763:811   */\n      tag_335\n        /* \"#utility.yul\":805:810   */\n      dup2\n        /* \"#utility.yul\":763:811   */\n      tag_336\n      jump\t// in\n    tag_335:\n        /* \"#utility.yul\":715:817   */\n      swap3\n      swap2\n      pop\n      pop\n      jump\t// out\n        /* \"#utility.yul\":837:1110   */\n    tag_337:\n        /* \"#utility.yul\":893:898   */\n      0x00\n        /* \"#utility.yul\":942:945   */\n      dup3\n        /* \"#utility.yul\":935:939   */\n      0x1f\n        /* \"#utility.yul\":927:933   */\n      dup4\n        /* \"#utility.yul\":923:940   */\n      add\n        /* \"#utility.yul\":919:946   */\n      slt\n        /* \"#utility.yul\":909:911   */\n      tag_339\n      jumpi\n        /* \"#utility.yul\":960:961   */\n      0x00\n        /* \"#utility.yul\":957:958   */\n      dup1\n        /* \"#utility.yul\":950:962   */\n      revert\n        /* \"#utility.yul\":909:911   */\n    tag_339:\n        /* \"#utility.yul\":1000:1006   */\n      dup2\n        /* \"#utility.yul\":987:1007   */\n      calldataload\n        /* \"#utility.yul\":1025:1104   */\n      tag_340\n        /* \"#utility.yul\":1100:1103   */\n      dup5\n        /* \"#utility.yul\":1092:1098   */\n      dup3\n        /* \"#utility.yul\":1085:1089   */\n      0x20\n        /* \"#utility.yul\":1077:1083   */\n      dup7\n        /* \"#utility.yul\":1073:1090   */\n      add\n        /* \"#utility.yul\":1025:1104   */\n      tag_316\n      jump\t// in\n    tag_340:\n        /* \"#utility.yul\":1016:1104   */\n      swap2\n      pop\n        /* \"#utility.yul\":899:1110   */\n      pop\n      swap3\n      swap2\n      pop\n      pop\n      jump\t// out\n        /* \"#utility.yul\":1116:1255   */\n    tag_341:\n        /* \"#utility.yul\":1162:1167   */\n      0x00\n        /* \"#utility.yul\":1200:1206   */\n      dup2\n        /* \"#utility.yul\":1187:1207   */\n      calldataload\n        /* \"#utility.yul\":1178:1207   */\n      swap1\n      pop\n        /* \"#utility.yul\":1216:1249   */\n      tag_343\n        /* \"#utility.yul\":1243:1248   */\n      dup2\n        /* \"#utility.yul\":1216:1249   */\n      tag_344\n      jump\t// in\n    tag_343:\n        /* \"#utility.yul\":1168:1255   */\n      swap3\n      swap2\n      pop\n      pop\n      jump\t// out\n        /* \"#utility.yul\":1261:1523   */\n    tag_81:\n        /* \"#utility.yul\":1320:1326   */\n      0x00\n        /* \"#utility.yul\":1369:1371   */\n      0x20\n        /* \"#utility.yul\":1357:1366   */\n      dup3\n        /* \"#utility.yul\":1348:1355   */\n      dup5\n        /* \"#utility.yul\":1344:1367   */\n      sub\n        /* \"#utility.yul\":1340:1372   */\n      slt\n        /* \"#utility.yul\":1337:1339   */\n      iszero\n      tag_346\n      jumpi\n        /* \"#utility.yul\":1385:1386   */\n      0x00\n        /* \"#utility.yul\":1382:1383   */\n      dup1\n        /* \"#utility.yul\":1375:1387   */\n      revert\n        /* \"#utility.yul\":1337:1339   */\n    tag_346:\n        /* \"#utility.yul\":1428:1429   */\n      0x00\n        /* \"#utility.yul\":1453:1506   */\n      tag_347\n        /* \"#utility.yul\":1498:1505   */\n      dup5\n        /* \"#utility.yul\":1489:1495   */\n      dup3\n        /* \"#utility.yul\":1478:1487   */\n      dup6\n        /* \"#utility.yul\":1474:1496   */\n      add\n        /* \"#utility.yul\":1453:1506   */\n      tag_325\n      jump\t// in\n    tag_347:\n        /* \"#utility.yul\":1443:1506   */\n      swap2\n      pop\n        /* \"#utility.yul\":1399:1516   */\n      pop\n        /* \"#utility.yul\":1327:1523   */\n      swap3\n      swap2\n      pop\n      pop\n      jump\t// out\n        /* \"#utility.yul\":1529:1936   */\n    tag_64:\n        /* \"#utility.yul\":1597:1603   */\n      0x00\n        /* \"#utility.yul\":1605:1611   */\n      dup1\n        /* \"#utility.yul\":1654:1656   */\n      0x40\n        /* \"#utility.yul\":1642:1651   */\n      dup4\n        /* \"#utility.yul\":1633:1640   */\n      dup6\n        /* \"#utility.yul\":1629:1652   */\n      sub\n        /* \"#utility.yul\":1625:1657   */\n      slt\n        /* \"#utility.yul\":1622:1624   */\n      iszero\n      tag_349\n      jumpi\n        /* \"#utility.yul\":1670:1671   */\n      0x00\n        /* \"#utility.yul\":1667:1668   */\n      dup1\n        /* \"#utility.yul\":1660:1672   */\n      revert\n        /* \"#utility.yul\":1622:1624   */\n    tag_349:\n        /* \"#utility.yul\":1713:1714   */\n      0x00\n        /* \"#utility.yul\":1738:1791   */\n      tag_350\n        /* \"#utility.yul\":1783:1790   */\n      dup6\n        /* \"#utility.yul\":1774:1780   */\n      dup3\n        /* \"#utility.yul\":1763:1772   */\n      dup7\n        /* \"#utility.yul\":1759:1781   */\n      add\n        /* \"#utility.yul\":1738:1791   */\n      tag_325\n      jump\t// in\n    tag_350:\n        /* \"#utility.yul\":1728:1791   */\n      swap3\n      pop\n        /* \"#utility.yul\":1684:1801   */\n      pop\n        /* \"#utility.yul\":1840:1842   */\n      0x20\n        /* \"#utility.yul\":1866:1919   */\n      tag_351\n        /* \"#utility.yul\":1911:1918   */\n      dup6\n        /* \"#utility.yul\":1902:1908   */\n      dup3\n        /* \"#utility.yul\":1891:1900   */\n      dup7\n        /* \"#utility.yul\":1887:1909   */\n      add\n        /* \"#utility.yul\":1866:1919   */\n      tag_329\n      jump\t// in\n    tag_351:\n        /* \"#utility.yul\":1856:1919   */\n      swap2\n      pop\n        /* \"#utility.yul\":1811:1929   */\n      pop\n        /* \"#utility.yul\":1612:1936   */\n      swap3\n      pop\n      swap3\n      swap1\n      pop\n      jump\t// out\n        /* \"#utility.yul\":1942:2524   */\n    tag_130:\n        /* \"#utility.yul\":2034:2040   */\n      0x00\n        /* \"#utility.yul\":2042:2048   */\n      dup1\n        /* \"#utility.yul\":2050:2056   */\n      0x00\n        /* \"#utility.yul\":2099:2101   */\n      0x60\n        /* \"#utility.yul\":2087:2096   */\n      dup5\n        /* \"#utility.yul\":2078:2085   */\n      dup7\n        /* \"#utility.yul\":2074:2097   */\n      sub\n        /* \"#utility.yul\":2070:2102   */\n      slt\n        /* \"#utility.yul\":2067:2069   */\n      iszero\n      tag_353\n      jumpi\n        /* \"#utility.yul\":2115:2116   */\n      0x00\n        /* \"#utility.yul\":2112:2113   */\n      dup1\n        /* \"#utility.yul\":2105:2117   */\n      revert\n        /* \"#utility.yul\":2067:2069   */\n    tag_353:\n        /* \"#utility.yul\":2158:2159   */\n      0x00\n        /* \"#utility.yul\":2183:2236   */\n      tag_354\n        /* \"#utility.yul\":2228:2235   */\n      dup7\n        /* \"#utility.yul\":2219:2225   */\n      dup3\n        /* \"#utility.yul\":2208:2217   */\n      dup8\n        /* \"#utility.yul\":2204:2226   */\n      add\n        /* \"#utility.yul\":2183:2236   */\n      tag_325\n      jump\t// in\n    tag_354:\n        /* \"#utility.yul\":2173:2236   */\n      swap4\n      pop\n        /* \"#utility.yul\":2129:2246   */\n      pop\n        /* \"#utility.yul\":2285:2287   */\n      0x20\n        /* \"#utility.yul\":2311:2379   */\n      tag_355\n        /* \"#utility.yul\":2371:2378   */\n      dup7\n        /* \"#utility.yul\":2362:2368   */\n      dup3\n        /* \"#utility.yul\":2351:2360   */\n      dup8\n        /* \"#utility.yul\":2347:2369   */\n      add\n        /* \"#utility.yul\":2311:2379   */\n      tag_333\n      jump\t// in\n    tag_355:\n        /* \"#utility.yul\":2301:2379   */\n      swap3\n      pop\n        /* \"#utility.yul\":2256:2389   */\n      pop\n        /* \"#utility.yul\":2428:2430   */\n      0x40\n        /* \"#utility.yul\":2454:2507   */\n      tag_356\n        /* \"#utility.yul\":2499:2506   */\n      dup7\n        /* \"#utility.yul\":2490:2496   */\n      dup3\n        /* \"#utility.yul\":2479:2488   */\n      dup8\n        /* \"#utility.yul\":2475:2497   */\n      add\n        /* \"#utility.yul\":2454:2507   */\n      tag_341\n      jump\t// in\n    tag_356:\n        /* \"#utility.yul\":2444:2507   */\n      swap2\n      pop\n        /* \"#utility.yul\":2399:2517   */\n      pop\n        /* \"#utility.yul\":2057:2524   */\n      swap3\n      pop\n      swap3\n      pop\n      swap3\n      jump\t// out\n        /* \"#utility.yul\":2530:2937   */\n    tag_53:\n        /* \"#utility.yul\":2598:2604   */\n      0x00\n        /* \"#utility.yul\":2606:2612   */\n      dup1\n        /* \"#utility.yul\":2655:2657   */\n      0x40\n        /* \"#utility.yul\":2643:2652   */\n      dup4\n        /* \"#utility.yul\":2634:2641   */\n      dup6\n        /* \"#utility.yul\":2630:2653   */\n      sub\n        /* \"#utility.yul\":2626:2658   */\n      slt\n        /* \"#utility.yul\":2623:2625   */\n      iszero\n      tag_358\n      jumpi\n        /* \"#utility.yul\":2671:2672   */\n      0x00\n        /* \"#utility.yul\":2668:2669   */\n      dup1\n        /* \"#utility.yul\":2661:2673   */\n      revert\n        /* \"#utility.yul\":2623:2625   */\n    tag_358:\n        /* \"#utility.yul\":2714:2715   */\n      0x00\n        /* \"#utility.yul\":2739:2792   */\n      tag_359\n        /* \"#utility.yul\":2784:2791   */\n      dup6\n        /* \"#utility.yul\":2775:2781   */\n      dup3\n        /* \"#utility.yul\":2764:2773   */\n      dup7\n        /* \"#utility.yul\":2760:2782   */\n      add\n        /* \"#utility.yul\":2739:2792   */\n      tag_325\n      jump\t// in\n    tag_359:\n        /* \"#utility.yul\":2729:2792   */\n      swap3\n      pop\n        /* \"#utility.yul\":2685:2802   */\n      pop\n        /* \"#utility.yul\":2841:2843   */\n      0x20\n        /* \"#utility.yul\":2867:2920   */\n      tag_360\n        /* \"#utility.yul\":2912:2919   */\n      dup6\n        /* \"#utility.yul\":2903:2909   */\n      dup3\n        /* \"#utility.yul\":2892:2901   */\n      dup7\n        /* \"#utility.yul\":2888:2910   */\n      add\n        /* \"#utility.yul\":2867:2920   */\n      tag_341\n      jump\t// in\n    tag_360:\n        /* \"#utility.yul\":2857:2920   */\n      swap2\n      pop\n        /* \"#utility.yul\":2812:2930   */\n      pop\n        /* \"#utility.yul\":2613:2937   */\n      swap3\n      pop\n      swap3\n      swap1\n      pop\n      jump\t// out\n        /* \"#utility.yul\":2943:3525   */\n    tag_68:\n        /* \"#utility.yul\":3035:3041   */\n      0x00\n        /* \"#utility.yul\":3043:3049   */\n      dup1\n        /* \"#utility.yul\":3051:3057   */\n      0x00\n        /* \"#utility.yul\":3100:3102   */\n      0x60\n        /* \"#utility.yul\":3088:3097   */\n      dup5\n        /* \"#utility.yul\":3079:3086   */\n      dup7\n        /* \"#utility.yul\":3075:3098   */\n      sub\n        /* \"#utility.yul\":3071:3103   */\n      slt\n        /* \"#utility.yul\":3068:3070   */\n      iszero\n      tag_362\n      jumpi\n        /* \"#utility.yul\":3116:3117   */\n      0x00\n        /* \"#utility.yul\":3113:3114   */\n      dup1\n        /* \"#utility.yul\":3106:3118   */\n      revert\n        /* \"#utility.yul\":3068:3070   */\n    tag_362:\n        /* \"#utility.yul\":3159:3160   */\n      0x00\n        /* \"#utility.yul\":3184:3237   */\n      tag_363\n        /* \"#utility.yul\":3229:3236   */\n      dup7\n        /* \"#utility.yul\":3220:3226   */\n      dup3\n        /* \"#utility.yul\":3209:3218   */\n      dup8\n        /* \"#utility.yul\":3205:3227   */\n      add\n        /* \"#utility.yul\":3184:3237   */\n      tag_325\n      jump\t// in\n    tag_363:\n        /* \"#utility.yul\":3174:3237   */\n      swap4\n      pop\n        /* \"#utility.yul\":3130:3247   */\n      pop\n        /* \"#utility.yul\":3286:3288   */\n      0x20\n        /* \"#utility.yul\":3312:3365   */\n      tag_364\n        /* \"#utility.yul\":3357:3364   */\n      dup7\n        /* \"#utility.yul\":3348:3354   */\n      dup3\n        /* \"#utility.yul\":3337:3346   */\n      dup8\n        /* \"#utility.yul\":3333:3355   */\n      add\n        /* \"#utility.yul\":3312:3365   */\n      tag_341\n      jump\t// in\n    tag_364:\n        /* \"#utility.yul\":3302:3365   */\n      swap3\n      pop\n        /* \"#utility.yul\":3257:3375   */\n      pop\n        /* \"#utility.yul\":3414:3416   */\n      0x40\n        /* \"#utility.yul\":3440:3508   */\n      tag_365\n        /* \"#utility.yul\":3500:3507   */\n      dup7\n        /* \"#utility.yul\":3491:3497   */\n      dup3\n        /* \"#utility.yul\":3480:3489   */\n      dup8\n        /* \"#utility.yul\":3476:3498   */\n      add\n        /* \"#utility.yul\":3440:3508   */\n      tag_333\n      jump\t// in\n    tag_365:\n        /* \"#utility.yul\":3430:3508   */\n      swap2\n      pop\n        /* \"#utility.yul\":3385:3518   */\n      pop\n        /* \"#utility.yul\":3058:3525   */\n      swap3\n      pop\n      swap3\n      pop\n      swap3\n      jump\t// out\n        /* \"#utility.yul\":3531:4375   */\n    tag_101:\n        /* \"#utility.yul\":3626:3632   */\n      0x00\n        /* \"#utility.yul\":3634:3640   */\n      dup1\n        /* \"#utility.yul\":3642:3648   */\n      0x00\n        /* \"#utility.yul\":3650:3656   */\n      dup1\n        /* \"#utility.yul\":3658:3664   */\n      0x00\n        /* \"#utility.yul\":3707:3710   */\n      0xa0\n        /* \"#utility.yul\":3695:3704   */\n      dup7\n        /* \"#utility.yul\":3686:3693   */\n      dup9\n        /* \"#utility.yul\":3682:3705   */\n      sub\n        /* \"#utility.yul\":3678:3711   */\n      slt\n        /* \"#utility.yul\":3675:3677   */\n      iszero\n      tag_367\n      jumpi\n        /* \"#utility.yul\":3724:3725   */\n      0x00\n        /* \"#utility.yul\":3721:3722   */\n      dup1\n        /* \"#utility.yul\":3714:3726   */\n      revert\n        /* \"#utility.yul\":3675:3677   */\n    tag_367:\n        /* \"#utility.yul\":3767:3768   */\n      0x00\n        /* \"#utility.yul\":3792:3845   */\n      tag_368\n        /* \"#utility.yul\":3837:3844   */\n      dup9\n        /* \"#utility.yul\":3828:3834   */\n      dup3\n        /* \"#utility.yul\":3817:3826   */\n      dup10\n        /* \"#utility.yul\":3813:3835   */\n      add\n        /* \"#utility.yul\":3792:3845   */\n      tag_325\n      jump\t// in\n    tag_368:\n        /* \"#utility.yul\":3782:3845   */\n      swap6\n      pop\n        /* \"#utility.yul\":3738:3855   */\n      pop\n        /* \"#utility.yul\":3894:3896   */\n      0x20\n        /* \"#utility.yul\":3920:3973   */\n      tag_369\n        /* \"#utility.yul\":3965:3972   */\n      dup9\n        /* \"#utility.yul\":3956:3962   */\n      dup3\n        /* \"#utility.yul\":3945:3954   */\n      dup10\n        /* \"#utility.yul\":3941:3963   */\n      add\n        /* \"#utility.yul\":3920:3973   */\n      tag_341\n      jump\t// in\n    tag_369:\n        /* \"#utility.yul\":3910:3973   */\n      swap5\n      pop\n        /* \"#utility.yul\":3865:3983   */\n      pop\n        /* \"#utility.yul\":4022:4024   */\n      0x40\n        /* \"#utility.yul\":4048:4101   */\n      tag_370\n        /* \"#utility.yul\":4093:4100   */\n      dup9\n        /* \"#utility.yul\":4084:4090   */\n      dup3\n        /* \"#utility.yul\":4073:4082   */\n      dup10\n        /* \"#utility.yul\":4069:4091   */\n      add\n        /* \"#utility.yul\":4048:4101   */\n      tag_341\n      jump\t// in\n    tag_370:\n        /* \"#utility.yul\":4038:4101   */\n      swap4\n      pop\n        /* \"#utility.yul\":3993:4111   */\n      pop\n        /* \"#utility.yul\":4150:4152   */\n      0x60\n        /* \"#utility.yul\":4176:4229   */\n      tag_371\n        /* \"#utility.yul\":4221:4228   */\n      dup9\n        /* \"#utility.yul\":4212:4218   */\n      dup3\n        /* \"#utility.yul\":4201:4210   */\n      dup10\n        /* \"#utility.yul\":4197:4219   */\n      add\n        /* \"#utility.yul\":4176:4229   */\n      tag_341\n      jump\t// in\n    tag_371:\n        /* \"#utility.yul\":4166:4229   */\n      swap3\n      pop\n        /* \"#utility.yul\":4121:4239   */\n      pop\n        /* \"#utility.yul\":4278:4281   */\n      0x80\n        /* \"#utility.yul\":4305:4358   */\n      tag_372\n        /* \"#utility.yul\":4350:4357   */\n      dup9\n        /* \"#utility.yul\":4341:4347   */\n      dup3\n        /* \"#utility.yul\":4330:4339   */\n      dup10\n        /* \"#utility.yul\":4326:4348   */\n      add\n        /* \"#utility.yul\":4305:4358   */\n      tag_341\n      jump\t// in\n    tag_372:\n        /* \"#utility.yul\":4295:4358   */\n      swap2\n      pop\n        /* \"#utility.yul\":4249:4368   */\n      pop\n        /* \"#utility.yul\":3665:4375   */\n      swap3\n      swap6\n      pop\n      swap3\n      swap6\n      swap1\n      swap4\n      pop\n      jump\t// out\n        /* \"#utility.yul\":4381:4643   */\n    tag_44:\n        /* \"#utility.yul\":4440:4446   */\n      0x00\n        /* \"#utility.yul\":4489:4491   */\n      0x20\n        /* \"#utility.yul\":4477:4486   */\n      dup3\n        /* \"#utility.yul\":4468:4475   */\n      dup5\n        /* \"#utility.yul\":4464:4487   */\n      sub\n        /* \"#utility.yul\":4460:4492   */\n      slt\n        /* \"#utility.yul\":4457:4459   */\n      iszero\n      tag_374\n      jumpi\n        /* \"#utility.yul\":4505:4506   */\n      0x00\n        /* \"#utility.yul\":4502:4503   */\n      dup1\n        /* \"#utility.yul\":4495:4507   */\n      revert\n        /* \"#utility.yul\":4457:4459   */\n    tag_374:\n        /* \"#utility.yul\":4548:4549   */\n      0x00\n        /* \"#utility.yul\":4573:4626   */\n      tag_375\n        /* \"#utility.yul\":4618:4625   */\n      dup5\n        /* \"#utility.yul\":4609:4615   */\n      dup3\n        /* \"#utility.yul\":4598:4607   */\n      dup6\n        /* \"#utility.yul\":4594:4616   */\n      add\n        /* \"#utility.yul\":4573:4626   */\n      tag_329\n      jump\t// in\n    tag_375:\n        /* \"#utility.yul\":4563:4626   */\n      swap2\n      pop\n        /* \"#utility.yul\":4519:4636   */\n      pop\n        /* \"#utility.yul\":4447:4643   */\n      swap3\n      swap2\n      pop\n      pop\n      jump\t// out\n        /* \"#utility.yul\":4649:4941   */\n    tag_125:\n        /* \"#utility.yul\":4723:4729   */\n      0x00\n        /* \"#utility.yul\":4772:4774   */\n      0x20\n        /* \"#utility.yul\":4760:4769   */\n      dup3\n        /* \"#utility.yul\":4751:4758   */\n      dup5\n        /* \"#utility.yul\":4747:4770   */\n      sub\n        /* \"#utility.yul\":4743:4775   */\n      slt\n        /* \"#utility.yul\":4740:4742   */\n      iszero\n      tag_377\n      jumpi\n        /* \"#utility.yul\":4788:4789   */\n      0x00\n        /* \"#utility.yul\":4785:4786   */\n      dup1\n        /* \"#utility.yul\":4778:4790   */\n      revert\n        /* \"#utility.yul\":4740:4742   */\n    tag_377:\n        /* \"#utility.yul\":4831:4832   */\n      0x00\n        /* \"#utility.yul\":4856:4924   */\n      tag_378\n        /* \"#utility.yul\":4916:4923   */\n      dup5\n        /* \"#utility.yul\":4907:4913   */\n      dup3\n        /* \"#utility.yul\":4896:4905   */\n      dup6\n        /* \"#utility.yul\":4892:4914   */\n      add\n        /* \"#utility.yul\":4856:4924   */\n      tag_333\n      jump\t// in\n    tag_378:\n        /* \"#utility.yul\":4846:4924   */\n      swap2\n      pop\n        /* \"#utility.yul\":4802:4934   */\n      pop\n        /* \"#utility.yul\":4730:4941   */\n      swap3\n      swap2\n      pop\n      pop\n      jump\t// out\n        /* \"#utility.yul\":4947:5384   */\n    tag_112:\n        /* \"#utility.yul\":5030:5036   */\n      0x00\n        /* \"#utility.yul\":5038:5044   */\n      dup1\n        /* \"#utility.yul\":5087:5089   */\n      0x40\n        /* \"#utility.yul\":5075:5084   */\n      dup4\n        /* \"#utility.yul\":5066:5073   */\n      dup6\n        /* \"#utility.yul\":5062:5085   */\n      sub\n        /* \"#utility.yul\":5058:5090   */\n      slt\n        /* \"#utility.yul\":5055:5057   */\n      iszero\n      tag_380\n      jumpi\n        /* \"#utility.yul\":5103:5104   */\n      0x00\n        /* \"#utility.yul\":5100:5101   */\n      dup1\n        /* \"#utility.yul\":5093:5105   */\n      revert\n        /* \"#utility.yul\":5055:5057   */\n    tag_380:\n        /* \"#utility.yul\":5146:5147   */\n      0x00\n        /* \"#utility.yul\":5171:5239   */\n      tag_381\n        /* \"#utility.yul\":5231:5238   */\n      dup6\n        /* \"#utility.yul\":5222:5228   */\n      dup3\n        /* \"#utility.yul\":5211:5220   */\n      dup7\n        /* \"#utility.yul\":5207:5229   */\n      add\n        /* \"#utility.yul\":5171:5239   */\n      tag_333\n      jump\t// in\n    tag_381:\n        /* \"#utility.yul\":5161:5239   */\n      swap3\n      pop\n        /* \"#utility.yul\":5117:5249   */\n      pop\n        /* \"#utility.yul\":5288:5290   */\n      0x20\n        /* \"#utility.yul\":5314:5367   */\n      tag_382\n        /* \"#utility.yul\":5359:5366   */\n      dup6\n        /* \"#utility.yul\":5350:5356   */\n      dup3\n        /* \"#utility.yul\":5339:5348   */\n      dup7\n        /* \"#utility.yul\":5335:5357   */\n      add\n        /* \"#utility.yul\":5314:5367   */\n      tag_341\n      jump\t// in\n    tag_382:\n        /* \"#utility.yul\":5304:5367   */\n      swap2\n      pop\n        /* \"#utility.yul\":5259:5377   */\n      pop\n        /* \"#utility.yul\":5045:5384   */\n      swap3\n      pop\n      swap3\n      swap1\n      pop\n      jump\t// out\n        /* \"#utility.yul\":5390:5765   */\n    tag_36:\n        /* \"#utility.yul\":5459:5465   */\n      0x00\n        /* \"#utility.yul\":5508:5510   */\n      0x20\n        /* \"#utility.yul\":5496:5505   */\n      dup3\n        /* \"#utility.yul\":5487:5494   */\n      dup5\n        /* \"#utility.yul\":5483:5506   */\n      sub\n        /* \"#utility.yul\":5479:5511   */\n      slt\n        /* \"#utility.yul\":5476:5478   */\n      iszero\n      tag_384\n      jumpi\n        /* \"#utility.yul\":5524:5525   */\n      0x00\n        /* \"#utility.yul\":5521:5522   */\n      dup1\n        /* \"#utility.yul\":5514:5526   */\n      revert\n        /* \"#utility.yul\":5476:5478   */\n    tag_384:\n        /* \"#utility.yul\":5595:5596   */\n      0x00\n        /* \"#utility.yul\":5584:5593   */\n      dup3\n        /* \"#utility.yul\":5580:5597   */\n      add\n        /* \"#utility.yul\":5567:5598   */\n      calldataload\n        /* \"#utility.yul\":5625:5643   */\n      0xffffffffffffffff\n        /* \"#utility.yul\":5617:5623   */\n      dup2\n        /* \"#utility.yul\":5614:5644   */\n      gt\n        /* \"#utility.yul\":5611:5613   */\n      iszero\n      tag_385\n      jumpi\n        /* \"#utility.yul\":5657:5658   */\n      0x00\n        /* \"#utility.yul\":5654:5655   */\n      dup1\n        /* \"#utility.yul\":5647:5659   */\n      revert\n        /* \"#utility.yul\":5611:5613   */\n    tag_385:\n        /* \"#utility.yul\":5685:5748   */\n      tag_386\n        /* \"#utility.yul\":5740:5747   */\n      dup5\n        /* \"#utility.yul\":5731:5737   */\n      dup3\n        /* \"#utility.yul\":5720:5729   */\n      dup6\n        /* \"#utility.yul\":5716:5738   */\n      add\n        /* \"#utility.yul\":5685:5748   */\n      tag_337\n      jump\t// in\n    tag_386:\n        /* \"#utility.yul\":5675:5748   */\n      swap2\n      pop\n        /* \"#utility.yul\":5538:5758   */\n      pop\n        /* \"#utility.yul\":5466:5765   */\n      swap3\n      swap2\n      pop\n      pop\n      jump\t// out\n        /* \"#utility.yul\":5771:6695   */\n    tag_92:\n        /* \"#utility.yul\":5877:5883   */\n      0x00\n        /* \"#utility.yul\":5885:5891   */\n      dup1\n        /* \"#utility.yul\":5893:5899   */\n      0x00\n        /* \"#utility.yul\":5901:5907   */\n      dup1\n        /* \"#utility.yul\":5950:5953   */\n      0x80\n        /* \"#utility.yul\":5938:5947   */\n      dup6\n        /* \"#utility.yul\":5929:5936   */\n      dup8\n        /* \"#utility.yul\":5925:5948   */\n      sub\n        /* \"#utility.yul\":5921:5954   */\n      slt\n        /* \"#utility.yul\":5918:5920   */\n      iszero\n      tag_388\n      jumpi\n        /* \"#utility.yul\":5967:5968   */\n      0x00\n        /* \"#utility.yul\":5964:5965   */\n      dup1\n        /* \"#utility.yul\":5957:5969   */\n      revert\n        /* \"#utility.yul\":5918:5920   */\n    tag_388:\n        /* \"#utility.yul\":6038:6039   */\n      0x00\n        /* \"#utility.yul\":6027:6036   */\n      dup6\n        /* \"#utility.yul\":6023:6040   */\n      add\n        /* \"#utility.yul\":6010:6041   */\n      calldataload\n        /* \"#utility.yul\":6068:6086   */\n      0xffffffffffffffff\n        /* \"#utility.yul\":6060:6066   */\n      dup2\n        /* \"#utility.yul\":6057:6087   */\n      gt\n        /* \"#utility.yul\":6054:6056   */\n      iszero\n      tag_389\n      jumpi\n        /* \"#utility.yul\":6100:6101   */\n      0x00\n        /* \"#utility.yul\":6097:6098   */\n      dup1\n        /* \"#utility.yul\":6090:6102   */\n      revert\n        /* \"#utility.yul\":6054:6056   */\n    tag_389:\n        /* \"#utility.yul\":6128:6191   */\n      tag_390\n        /* \"#utility.yul\":6183:6190   */\n      dup8\n        /* \"#utility.yul\":6174:6180   */\n      dup3\n        /* \"#utility.yul\":6163:6172   */\n      dup9\n        /* \"#utility.yul\":6159:6181   */\n      add\n        /* \"#utility.yul\":6128:6191   */\n      tag_337\n      jump\t// in\n    tag_390:\n        /* \"#utility.yul\":6118:6191   */\n      swap5\n      pop\n        /* \"#utility.yul\":5981:6201   */\n      pop\n        /* \"#utility.yul\":6240:6242   */\n      0x20\n        /* \"#utility.yul\":6266:6319   */\n      tag_391\n        /* \"#utility.yul\":6311:6318   */\n      dup8\n        /* \"#utility.yul\":6302:6308   */\n      dup3\n        /* \"#utility.yul\":6291:6300   */\n      dup9\n        /* \"#utility.yul\":6287:6309   */\n      add\n        /* \"#utility.yul\":6266:6319   */\n      tag_325\n      jump\t// in\n    tag_391:\n        /* \"#utility.yul\":6256:6319   */\n      swap4\n      pop\n        /* \"#utility.yul\":6211:6329   */\n      pop\n        /* \"#utility.yul\":6368:6370   */\n      0x40\n        /* \"#utility.yul\":6394:6447   */\n      tag_392\n        /* \"#utility.yul\":6439:6446   */\n      dup8\n        /* \"#utility.yul\":6430:6436   */\n      dup3\n        /* \"#utility.yul\":6419:6428   */\n      dup9\n        /* \"#utility.yul\":6415:6437   */\n      add\n        /* \"#utility.yul\":6394:6447   */\n      tag_341\n      jump\t// in\n    tag_392:\n        /* \"#utility.yul\":6384:6447   */\n      swap3\n      pop\n        /* \"#utility.yul\":6339:6457   */\n      pop\n        /* \"#utility.yul\":6524:6526   */\n      0x60\n        /* \"#utility.yul\":6513:6522   */\n      dup6\n        /* \"#utility.yul\":6509:6527   */\n      add\n        /* \"#utility.yul\":6496:6528   */\n      calldataload\n        /* \"#utility.yul\":6555:6573   */\n      0xffffffffffffffff\n        /* \"#utility.yul\":6547:6553   */\n      dup2\n        /* \"#utility.yul\":6544:6574   */\n      gt\n        /* \"#utility.yul\":6541:6543   */\n      iszero\n      tag_393\n      jumpi\n        /* \"#utility.yul\":6587:6588   */\n      0x00\n        /* \"#utility.yul\":6584:6585   */\n      dup1\n        /* \"#utility.yul\":6577:6589   */\n      revert\n        /* \"#utility.yul\":6541:6543   */\n    tag_393:\n        /* \"#utility.yul\":6615:6678   */\n      tag_394\n        /* \"#utility.yul\":6670:6677   */\n      dup8\n        /* \"#utility.yul\":6661:6667   */\n      dup3\n        /* \"#utility.yul\":6650:6659   */\n      dup9\n        /* \"#utility.yul\":6646:6668   */\n      add\n        /* \"#utility.yul\":6615:6678   */\n      tag_337\n      jump\t// in\n    tag_394:\n        /* \"#utility.yul\":6605:6678   */\n      swap2\n      pop\n        /* \"#utility.yul\":6467:6688   */\n      pop\n        /* \"#utility.yul\":5908:6695   */\n      swap3\n      swap6\n      swap2\n      swap5\n      pop\n      swap3\n      pop\n      jump\t// out\n        /* \"#utility.yul\":6701:6880   */\n    tag_395:\n        /* \"#utility.yul\":6770:6780   */\n      0x00\n        /* \"#utility.yul\":6791:6837   */\n      tag_397\n        /* \"#utility.yul\":6833:6836   */\n      dup4\n        /* \"#utility.yul\":6825:6831   */\n      dup4\n        /* \"#utility.yul\":6791:6837   */\n      tag_398\n      jump\t// in\n    tag_397:\n        /* \"#utility.yul\":6869:6873   */\n      0x20\n        /* \"#utility.yul\":6864:6867   */\n      dup4\n        /* \"#utility.yul\":6860:6874   */\n      add\n        /* \"#utility.yul\":6846:6874   */\n      swap1\n      pop\n        /* \"#utility.yul\":6781:6880   */\n      swap3\n      swap2\n      pop\n      pop\n      jump\t// out\n        /* \"#utility.yul\":6886:7004   */\n    tag_399:\n        /* \"#utility.yul\":6973:6997   */\n      tag_401\n        /* \"#utility.yul\":6991:6996   */\n      dup2\n        /* \"#utility.yul\":6973:6997   */\n      tag_402\n      jump\t// in\n    tag_401:\n        /* \"#utility.yul\":6968:6971   */\n      dup3\n        /* \"#utility.yul\":6961:6998   */\n      mstore\n        /* \"#utility.yul\":6951:7004   */\n      pop\n      pop\n      jump\t// out\n        /* \"#utility.yul\":7010:7167   */\n    tag_403:\n        /* \"#utility.yul\":7115:7160   */\n      tag_405\n        /* \"#utility.yul\":7135:7159   */\n      tag_406\n        /* \"#utility.yul\":7153:7158   */\n      dup3\n        /* \"#utility.yul\":7135:7159   */\n      tag_402\n      jump\t// in\n    tag_406:\n        /* \"#utility.yul\":7115:7160   */\n      tag_407\n      jump\t// in\n    tag_405:\n        /* \"#utility.yul\":7110:7113   */\n      dup3\n        /* \"#utility.yul\":7103:7161   */\n      mstore\n        /* \"#utility.yul\":7093:7167   */\n      pop\n      pop\n      jump\t// out\n        /* \"#utility.yul\":7203:7935   */\n    tag_408:\n        /* \"#utility.yul\":7322:7325   */\n      0x00\n        /* \"#utility.yul\":7351:7405   */\n      tag_410\n        /* \"#utility.yul\":7399:7404   */\n      dup3\n        /* \"#utility.yul\":7351:7405   */\n      tag_411\n      jump\t// in\n    tag_410:\n        /* \"#utility.yul\":7421:7507   */\n      tag_412\n        /* \"#utility.yul\":7500:7506   */\n      dup2\n        /* \"#utility.yul\":7495:7498   */\n      dup6\n        /* \"#utility.yul\":7421:7507   */\n      tag_413\n      jump\t// in\n    tag_412:\n        /* \"#utility.yul\":7414:7507   */\n      swap4\n      pop\n        /* \"#utility.yul\":7531:7587   */\n      tag_414\n        /* \"#utility.yul\":7581:7586   */\n      dup4\n        /* \"#utility.yul\":7531:7587   */\n      tag_415\n      jump\t// in\n    tag_414:\n        /* \"#utility.yul\":7610:7617   */\n      dup1\n        /* \"#utility.yul\":7641:7642   */\n      0x00\n        /* \"#utility.yul\":7626:7910   */\n    tag_416:\n        /* \"#utility.yul\":7651:7657   */\n      dup4\n        /* \"#utility.yul\":7648:7649   */\n      dup2\n        /* \"#utility.yul\":7645:7658   */\n      lt\n        /* \"#utility.yul\":7626:7910   */\n      iszero\n      tag_418\n      jumpi\n        /* \"#utility.yul\":7727:7733   */\n      dup2\n        /* \"#utility.yul\":7721:7734   */\n      mload\n        /* \"#utility.yul\":7754:7817   */\n      tag_419\n        /* \"#utility.yul\":7813:7816   */\n      dup9\n        /* \"#utility.yul\":7798:7811   */\n      dup3\n        /* \"#utility.yul\":7754:7817   */\n      tag_395\n      jump\t// in\n    tag_419:\n        /* \"#utility.yul\":7747:7817   */\n      swap8\n      pop\n        /* \"#utility.yul\":7840:7900   */\n      tag_420\n        /* \"#utility.yul\":7893:7899   */\n      dup4\n        /* \"#utility.yul\":7840:7900   */\n      tag_421\n      jump\t// in\n    tag_420:\n        /* \"#utility.yul\":7830:7900   */\n      swap3\n      pop\n        /* \"#utility.yul\":7686:7910   */\n      pop\n        /* \"#utility.yul\":7673:7674   */\n      0x01\n        /* \"#utility.yul\":7670:7671   */\n      dup2\n        /* \"#utility.yul\":7666:7675   */\n      add\n        /* \"#utility.yul\":7661:7675   */\n      swap1\n      pop\n        /* \"#utility.yul\":7626:7910   */\n      jump(tag_416)\n    tag_418:\n        /* \"#utility.yul\":7630:7644   */\n      pop\n        /* \"#utility.yul\":7926:7929   */\n      dup6\n        /* \"#utility.yul\":7919:7929   */\n      swap4\n      pop\n        /* \"#utility.yul\":7327:7935   */\n      pop\n      pop\n      pop\n      swap3\n      swap2\n      pop\n      pop\n      jump\t// out\n        /* \"#utility.yul\":7941:8050   */\n    tag_422:\n        /* \"#utility.yul\":8022:8043   */\n      tag_424\n        /* \"#utility.yul\":8037:8042   */\n      dup2\n        /* \"#utility.yul\":8022:8043   */\n      tag_425\n      jump\t// in\n    tag_424:\n        /* \"#utility.yul\":8017:8020   */\n      dup3\n        /* \"#utility.yul\":8010:8044   */\n      mstore\n        /* \"#utility.yul\":8000:8050   */\n      pop\n      pop\n      jump\t// out\n        /* \"#utility.yul\":8056:8164   */\n    tag_398:\n        /* \"#utility.yul\":8133:8157   */\n      tag_427\n        /* \"#utility.yul\":8151:8156   */\n      dup2\n        /* \"#utility.yul\":8133:8157   */\n      tag_428\n      jump\t// in\n    tag_427:\n        /* \"#utility.yul\":8128:8131   */\n      dup3\n        /* \"#utility.yul\":8121:8158   */\n      mstore\n        /* \"#utility.yul\":8111:8164   */\n      pop\n      pop\n      jump\t// out\n        /* \"#utility.yul\":8170:8288   */\n    tag_429:\n        /* \"#utility.yul\":8257:8281   */\n      tag_431\n        /* \"#utility.yul\":8275:8280   */\n      dup2\n        /* \"#utility.yul\":8257:8281   */\n      tag_428\n      jump\t// in\n    tag_431:\n        /* \"#utility.yul\":8252:8255   */\n      dup3\n        /* \"#utility.yul\":8245:8282   */\n      mstore\n        /* \"#utility.yul\":8235:8288   */\n      pop\n      pop\n      jump\t// out\n        /* \"#utility.yul\":8294:8451   */\n    tag_432:\n        /* \"#utility.yul\":8394:8444   */\n      tag_434\n        /* \"#utility.yul\":8438:8443   */\n      dup2\n        /* \"#utility.yul\":8394:8444   */\n      tag_435\n      jump\t// in\n    tag_434:\n        /* \"#utility.yul\":8389:8392   */\n      dup3\n        /* \"#utility.yul\":8382:8445   */\n      mstore\n        /* \"#utility.yul\":8372:8451   */\n      pop\n      pop\n      jump\t// out\n        /* \"#utility.yul\":8457:8821   */\n    tag_436:\n        /* \"#utility.yul\":8545:8548   */\n      0x00\n        /* \"#utility.yul\":8573:8612   */\n      tag_438\n        /* \"#utility.yul\":8606:8611   */\n      dup3\n        /* \"#utility.yul\":8573:8612   */\n      tag_439\n      jump\t// in\n    tag_438:\n        /* \"#utility.yul\":8628:8699   */\n      tag_440\n        /* \"#utility.yul\":8692:8698   */\n      dup2\n        /* \"#utility.yul\":8687:8690   */\n      dup6\n        /* \"#utility.yul\":8628:8699   */\n      tag_441\n      jump\t// in\n    tag_440:\n        /* \"#utility.yul\":8621:8699   */\n      swap4\n      pop\n        /* \"#utility.yul\":8708:8760   */\n      tag_442\n        /* \"#utility.yul\":8753:8759   */\n      dup2\n        /* \"#utility.yul\":8748:8751   */\n      dup6\n        /* \"#utility.yul\":8741:8745   */\n      0x20\n        /* \"#utility.yul\":8734:8739   */\n      dup7\n        /* \"#utility.yul\":8730:8746   */\n      add\n        /* \"#utility.yul\":8708:8760   */\n      tag_443\n      jump\t// in\n    tag_442:\n        /* \"#utility.yul\":8785:8814   */\n      tag_444\n        /* \"#utility.yul\":8807:8813   */\n      dup2\n        /* \"#utility.yul\":8785:8814   */\n      tag_445\n      jump\t// in\n    tag_444:\n        /* \"#utility.yul\":8780:8783   */\n      dup5\n        /* \"#utility.yul\":8776:8815   */\n      add\n        /* \"#utility.yul\":8769:8815   */\n      swap2\n      pop\n        /* \"#utility.yul\":8549:8821   */\n      pop\n      swap3\n      swap2\n      pop\n      pop\n      jump\t// out\n        /* \"#utility.yul\":8827:9204   */\n    tag_446:\n        /* \"#utility.yul\":8933:8936   */\n      0x00\n        /* \"#utility.yul\":8961:9000   */\n      tag_448\n        /* \"#utility.yul\":8994:8999   */\n      dup3\n        /* \"#utility.yul\":8961:9000   */\n      tag_439\n      jump\t// in\n    tag_448:\n        /* \"#utility.yul\":9016:9105   */\n      tag_449\n        /* \"#utility.yul\":9098:9104   */\n      dup2\n        /* \"#utility.yul\":9093:9096   */\n      dup6\n        /* \"#utility.yul\":9016:9105   */\n      tag_450\n      jump\t// in\n    tag_449:\n        /* \"#utility.yul\":9009:9105   */\n      swap4\n      pop\n        /* \"#utility.yul\":9114:9166   */\n      tag_451\n        /* \"#utility.yul\":9159:9165   */\n      dup2\n        /* \"#utility.yul\":9154:9157   */\n      dup6\n        /* \"#utility.yul\":9147:9151   */\n      0x20\n        /* \"#utility.yul\":9140:9145   */\n      dup7\n        /* \"#utility.yul\":9136:9152   */\n      add\n        /* \"#utility.yul\":9114:9166   */\n      tag_443\n      jump\t// in\n    tag_451:\n        /* \"#utility.yul\":9191:9197   */\n      dup1\n        /* \"#utility.yul\":9186:9189   */\n      dup5\n        /* \"#utility.yul\":9182:9198   */\n      add\n        /* \"#utility.yul\":9175:9198   */\n      swap2\n      pop\n        /* \"#utility.yul\":8937:9204   */\n      pop\n      swap3\n      swap2\n      pop\n      pop\n      jump\t// out\n        /* \"#utility.yul\":9210:9576   */\n    tag_452:\n        /* \"#utility.yul\":9352:9355   */\n      0x00\n        /* \"#utility.yul\":9373:9440   */\n      tag_454\n        /* \"#utility.yul\":9437:9439   */\n      0x13\n        /* \"#utility.yul\":9432:9435   */\n      dup4\n        /* \"#utility.yul\":9373:9440   */\n      tag_441\n      jump\t// in\n    tag_454:\n        /* \"#utility.yul\":9366:9440   */\n      swap2\n      pop\n        /* \"#utility.yul\":9449:9542   */\n      tag_455\n        /* \"#utility.yul\":9538:9541   */\n      dup3\n        /* \"#utility.yul\":9449:9542   */\n      tag_456\n      jump\t// in\n    tag_455:\n        /* \"#utility.yul\":9567:9569   */\n      0x20\n        /* \"#utility.yul\":9562:9565   */\n      dup3\n        /* \"#utility.yul\":9558:9570   */\n      add\n        /* \"#utility.yul\":9551:9570   */\n      swap1\n      pop\n        /* \"#utility.yul\":9356:9576   */\n      swap2\n      swap1\n      pop\n      jump\t// out\n        /* \"#utility.yul\":9582:9700   */\n    tag_457:\n        /* \"#utility.yul\":9669:9693   */\n      tag_459\n        /* \"#utility.yul\":9687:9692   */\n      dup2\n        /* \"#utility.yul\":9669:9693   */\n      tag_460\n      jump\t// in\n    tag_459:\n        /* \"#utility.yul\":9664:9667   */\n      dup3\n        /* \"#utility.yul\":9657:9694   */\n      mstore\n        /* \"#utility.yul\":9647:9700   */\n      pop\n      pop\n      jump\t// out\n        /* \"#utility.yul\":9706:9863   */\n    tag_461:\n        /* \"#utility.yul\":9811:9856   */\n      tag_463\n        /* \"#utility.yul\":9831:9855   */\n      tag_464\n        /* \"#utility.yul\":9849:9854   */\n      dup3\n        /* \"#utility.yul\":9831:9855   */\n      tag_460\n      jump\t// in\n    tag_464:\n        /* \"#utility.yul\":9811:9856   */\n      tag_465\n      jump\t// in\n    tag_463:\n        /* \"#utility.yul\":9806:9809   */\n      dup3\n        /* \"#utility.yul\":9799:9857   */\n      mstore\n        /* \"#utility.yul\":9789:9863   */\n      pop\n      pop\n      jump\t// out\n        /* \"#utility.yul\":9869:10266   */\n    tag_300:\n        /* \"#utility.yul\":10009:10012   */\n      0x00\n        /* \"#utility.yul\":10024:10099   */\n      tag_467\n        /* \"#utility.yul\":10095:10098   */\n      dup3\n        /* \"#utility.yul\":10086:10092   */\n      dup6\n        /* \"#utility.yul\":10024:10099   */\n      tag_403\n      jump\t// in\n    tag_467:\n        /* \"#utility.yul\":10124:10126   */\n      0x14\n        /* \"#utility.yul\":10119:10122   */\n      dup3\n        /* \"#utility.yul\":10115:10127   */\n      add\n        /* \"#utility.yul\":10108:10127   */\n      swap2\n      pop\n        /* \"#utility.yul\":10137:10212   */\n      tag_468\n        /* \"#utility.yul\":10208:10211   */\n      dup3\n        /* \"#utility.yul\":10199:10205   */\n      dup5\n        /* \"#utility.yul\":10137:10212   */\n      tag_461\n      jump\t// in\n    tag_468:\n        /* \"#utility.yul\":10237:10239   */\n      0x20\n        /* \"#utility.yul\":10232:10235   */\n      dup3\n        /* \"#utility.yul\":10228:10240   */\n      add\n        /* \"#utility.yul\":10221:10240   */\n      swap2\n      pop\n        /* \"#utility.yul\":10257:10260   */\n      dup2\n        /* \"#utility.yul\":10250:10260   */\n      swap1\n      pop\n        /* \"#utility.yul\":10013:10266   */\n      swap4\n      swap3\n      pop\n      pop\n      pop\n      jump\t// out\n        /* \"#utility.yul\":10272:10547   */\n    tag_159:\n        /* \"#utility.yul\":10404:10407   */\n      0x00\n        /* \"#utility.yul\":10426:10521   */\n      tag_470\n        /* \"#utility.yul\":10517:10520   */\n      dup3\n        /* \"#utility.yul\":10508:10514   */\n      dup5\n        /* \"#utility.yul\":10426:10521   */\n      tag_446\n      jump\t// in\n    tag_470:\n        /* \"#utility.yul\":10419:10521   */\n      swap2\n      pop\n        /* \"#utility.yul\":10538:10541   */\n      dup2\n        /* \"#utility.yul\":10531:10541   */\n      swap1\n      pop\n        /* \"#utility.yul\":10408:10547   */\n      swap3\n      swap2\n      pop\n      pop\n      jump\t// out\n        /* \"#utility.yul\":10553:10775   */\n    tag_89:\n        /* \"#utility.yul\":10646:10650   */\n      0x00\n        /* \"#utility.yul\":10684:10686   */\n      0x20\n        /* \"#utility.yul\":10673:10682   */\n      dup3\n        /* \"#utility.yul\":10669:10687   */\n      add\n        /* \"#utility.yul\":10661:10687   */\n      swap1\n      pop\n        /* \"#utility.yul\":10697:10768   */\n      tag_472\n        /* \"#utility.yul\":10765:10766   */\n      0x00\n        /* \"#utility.yul\":10754:10763   */\n      dup4\n        /* \"#utility.yul\":10750:10767   */\n      add\n        /* \"#utility.yul\":10741:10747   */\n      dup5\n        /* \"#utility.yul\":10697:10768   */\n      tag_399\n      jump\t// in\n    tag_472:\n        /* \"#utility.yul\":10651:10775   */\n      swap3\n      swap2\n      pop\n      pop\n      jump\t// out\n        /* \"#utility.yul\":10781:11154   */\n    tag_84:\n        /* \"#utility.yul\":10924:10928   */\n      0x00\n        /* \"#utility.yul\":10962:10964   */\n      0x20\n        /* \"#utility.yul\":10951:10960   */\n      dup3\n        /* \"#utility.yul\":10947:10965   */\n      add\n        /* \"#utility.yul\":10939:10965   */\n      swap1\n      pop\n        /* \"#utility.yul\":11011:11020   */\n      dup2\n        /* \"#utility.yul\":11005:11009   */\n      dup2\n        /* \"#utility.yul\":11001:11021   */\n      sub\n        /* \"#utility.yul\":10997:10998   */\n      0x00\n        /* \"#utility.yul\":10986:10995   */\n      dup4\n        /* \"#utility.yul\":10982:10999   */\n      add\n        /* \"#utility.yul\":10975:11022   */\n      mstore\n        /* \"#utility.yul\":11039:11147   */\n      tag_474\n        /* \"#utility.yul\":11142:11146   */\n      dup2\n        /* \"#utility.yul\":11133:11139   */\n      dup5\n        /* \"#utility.yul\":11039:11147   */\n      tag_408\n      jump\t// in\n    tag_474:\n        /* \"#utility.yul\":11031:11147   */\n      swap1\n      pop\n        /* \"#utility.yul\":10929:11154   */\n      swap3\n      swap2\n      pop\n      pop\n      jump\t// out\n        /* \"#utility.yul\":11160:11370   */\n    tag_41:\n        /* \"#utility.yul\":11247:11251   */\n      0x00\n        /* \"#utility.yul\":11285:11287   */\n      0x20\n        /* \"#utility.yul\":11274:11283   */\n      dup3\n        /* \"#utility.yul\":11270:11288   */\n      add\n        /* \"#utility.yul\":11262:11288   */\n      swap1\n      pop\n        /* \"#utility.yul\":11298:11363   */\n      tag_476\n        /* \"#utility.yul\":11360:11361   */\n      0x00\n        /* \"#utility.yul\":11349:11358   */\n      dup4\n        /* \"#utility.yul\":11345:11362   */\n      add\n        /* \"#utility.yul\":11336:11342   */\n      dup5\n        /* \"#utility.yul\":11298:11363   */\n      tag_422\n      jump\t// in\n    tag_476:\n        /* \"#utility.yul\":11252:11370   */\n      swap3\n      swap2\n      pop\n      pop\n      jump\t// out\n        /* \"#utility.yul\":11376:11598   */\n    tag_61:\n        /* \"#utility.yul\":11469:11473   */\n      0x00\n        /* \"#utility.yul\":11507:11509   */\n      0x20\n        /* \"#utility.yul\":11496:11505   */\n      dup3\n        /* \"#utility.yul\":11492:11510   */\n      add\n        /* \"#utility.yul\":11484:11510   */\n      swap1\n      pop\n        /* \"#utility.yul\":11520:11591   */\n      tag_478\n        /* \"#utility.yul\":11588:11589   */\n      0x00\n        /* \"#utility.yul\":11577:11586   */\n      dup4\n        /* \"#utility.yul\":11573:11590   */\n      add\n        /* \"#utility.yul\":11564:11570   */\n      dup5\n        /* \"#utility.yul\":11520:11591   */\n      tag_429\n      jump\t// in\n    tag_478:\n        /* \"#utility.yul\":11474:11598   */\n      swap3\n      swap2\n      pop\n      pop\n      jump\t// out\n        /* \"#utility.yul\":11604:12561   */\n    tag_56:\n        /* \"#utility.yul\":11877:11881   */\n      0x00\n        /* \"#utility.yul\":11915:11918   */\n      0xc0\n        /* \"#utility.yul\":11904:11913   */\n      dup3\n        /* \"#utility.yul\":11900:11919   */\n      add\n        /* \"#utility.yul\":11892:11919   */\n      swap1\n      pop\n        /* \"#utility.yul\":11929:12000   */\n      tag_480\n        /* \"#utility.yul\":11997:11998   */\n      0x00\n        /* \"#utility.yul\":11986:11995   */\n      dup4\n        /* \"#utility.yul\":11982:11999   */\n      add\n        /* \"#utility.yul\":11973:11979   */\n      dup10\n        /* \"#utility.yul\":11929:12000   */\n      tag_429\n      jump\t// in\n    tag_480:\n        /* \"#utility.yul\":12010:12082   */\n      tag_481\n        /* \"#utility.yul\":12078:12080   */\n      0x20\n        /* \"#utility.yul\":12067:12076   */\n      dup4\n        /* \"#utility.yul\":12063:12081   */\n      add\n        /* \"#utility.yul\":12054:12060   */\n      dup9\n        /* \"#utility.yul\":12010:12082   */\n      tag_399\n      jump\t// in\n    tag_481:\n        /* \"#utility.yul\":12092:12164   */\n      tag_482\n        /* \"#utility.yul\":12160:12162   */\n      0x40\n        /* \"#utility.yul\":12149:12158   */\n      dup4\n        /* \"#utility.yul\":12145:12163   */\n      add\n        /* \"#utility.yul\":12136:12142   */\n      dup8\n        /* \"#utility.yul\":12092:12164   */\n      tag_457\n      jump\t// in\n    tag_482:\n        /* \"#utility.yul\":12211:12220   */\n      dup2\n        /* \"#utility.yul\":12205:12209   */\n      dup2\n        /* \"#utility.yul\":12201:12221   */\n      sub\n        /* \"#utility.yul\":12196:12198   */\n      0x60\n        /* \"#utility.yul\":12185:12194   */\n      dup4\n        /* \"#utility.yul\":12181:12199   */\n      add\n        /* \"#utility.yul\":12174:12222   */\n      mstore\n        /* \"#utility.yul\":12239:12317   */\n      tag_483\n        /* \"#utility.yul\":12312:12316   */\n      dup2\n        /* \"#utility.yul\":12303:12309   */\n      dup7\n        /* \"#utility.yul\":12239:12317   */\n      tag_436\n      jump\t// in\n    tag_483:\n        /* \"#utility.yul\":12231:12317   */\n      swap1\n      pop\n        /* \"#utility.yul\":12327:12400   */\n      tag_484\n        /* \"#utility.yul\":12395:12398   */\n      0x80\n        /* \"#utility.yul\":12384:12393   */\n      dup4\n        /* \"#utility.yul\":12380:12399   */\n      add\n        /* \"#utility.yul\":12371:12377   */\n      dup6\n        /* \"#utility.yul\":12327:12400   */\n      tag_399\n      jump\t// in\n    tag_484:\n        /* \"#utility.yul\":12448:12457   */\n      dup2\n        /* \"#utility.yul\":12442:12446   */\n      dup2\n        /* \"#utility.yul\":12438:12458   */\n      sub\n        /* \"#utility.yul\":12432:12435   */\n      0xa0\n        /* \"#utility.yul\":12421:12430   */\n      dup4\n        /* \"#utility.yul\":12417:12436   */\n      add\n        /* \"#utility.yul\":12410:12459   */\n      mstore\n        /* \"#utility.yul\":12476:12554   */\n      tag_485\n        /* \"#utility.yul\":12549:12553   */\n      dup2\n        /* \"#utility.yul\":12540:12546   */\n      dup5\n        /* \"#utility.yul\":12476:12554   */\n      tag_436\n      jump\t// in\n    tag_485:\n        /* \"#utility.yul\":12468:12554   */\n      swap1\n      pop\n        /* \"#utility.yul\":11882:12561   */\n      swap8\n      swap7\n      pop\n      pop\n      pop\n      pop\n      pop\n      pop\n      pop\n      jump\t// out\n        /* \"#utility.yul\":12567:12880   */\n    tag_122:\n        /* \"#utility.yul\":12680:12684   */\n      0x00\n        /* \"#utility.yul\":12718:12720   */\n      0x20\n        /* \"#utility.yul\":12707:12716   */\n      dup3\n        /* \"#utility.yul\":12703:12721   */\n      add\n        /* \"#utility.yul\":12695:12721   */\n      swap1\n      pop\n        /* \"#utility.yul\":12767:12776   */\n      dup2\n        /* \"#utility.yul\":12761:12765   */\n      dup2\n        /* \"#utility.yul\":12757:12777   */\n      sub\n        /* \"#utility.yul\":12753:12754   */\n      0x00\n        /* \"#utility.yul\":12742:12751   */\n      dup4\n        /* \"#utility.yul\":12738:12755   */\n      add\n        /* \"#utility.yul\":12731:12778   */\n      mstore\n        /* \"#utility.yul\":12795:12873   */\n      tag_487\n        /* \"#utility.yul\":12868:12872   */\n      dup2\n        /* \"#utility.yul\":12859:12865   */\n      dup5\n        /* \"#utility.yul\":12795:12873   */\n      tag_436\n      jump\t// in\n    tag_487:\n        /* \"#utility.yul\":12787:12873   */\n      swap1\n      pop\n        /* \"#utility.yul\":12685:12880   */\n      swap3\n      swap2\n      pop\n      pop\n      jump\t// out\n        /* \"#utility.yul\":12886:13732   */\n    tag_76:\n        /* \"#utility.yul\":13131:13135   */\n      0x00\n        /* \"#utility.yul\":13169:13172   */\n      0xa0\n        /* \"#utility.yul\":13158:13167   */\n      dup3\n        /* \"#utility.yul\":13154:13173   */\n      add\n        /* \"#utility.yul\":13146:13173   */\n      swap1\n      pop\n        /* \"#utility.yul\":13219:13228   */\n      dup2\n        /* \"#utility.yul\":13213:13217   */\n      dup2\n        /* \"#utility.yul\":13209:13229   */\n      sub\n        /* \"#utility.yul\":13205:13206   */\n      0x00\n        /* \"#utility.yul\":13194:13203   */\n      dup4\n        /* \"#utility.yul\":13190:13207   */\n      add\n        /* \"#utility.yul\":13183:13230   */\n      mstore\n        /* \"#utility.yul\":13247:13325   */\n      tag_489\n        /* \"#utility.yul\":13320:13324   */\n      dup2\n        /* \"#utility.yul\":13311:13317   */\n      dup9\n        /* \"#utility.yul\":13247:13325   */\n      tag_436\n      jump\t// in\n    tag_489:\n        /* \"#utility.yul\":13239:13325   */\n      swap1\n      pop\n        /* \"#utility.yul\":13335:13407   */\n      tag_490\n        /* \"#utility.yul\":13403:13405   */\n      0x20\n        /* \"#utility.yul\":13392:13401   */\n      dup4\n        /* \"#utility.yul\":13388:13406   */\n      add\n        /* \"#utility.yul\":13379:13385   */\n      dup8\n        /* \"#utility.yul\":13335:13407   */\n      tag_399\n      jump\t// in\n    tag_490:\n        /* \"#utility.yul\":13417:13489   */\n      tag_491\n        /* \"#utility.yul\":13485:13487   */\n      0x40\n        /* \"#utility.yul\":13474:13483   */\n      dup4\n        /* \"#utility.yul\":13470:13488   */\n      add\n        /* \"#utility.yul\":13461:13467   */\n      dup7\n        /* \"#utility.yul\":13417:13489   */\n      tag_457\n      jump\t// in\n    tag_491:\n        /* \"#utility.yul\":13499:13571   */\n      tag_492\n        /* \"#utility.yul\":13567:13569   */\n      0x60\n        /* \"#utility.yul\":13556:13565   */\n      dup4\n        /* \"#utility.yul\":13552:13570   */\n      add\n        /* \"#utility.yul\":13543:13549   */\n      dup6\n        /* \"#utility.yul\":13499:13571   */\n      tag_399\n      jump\t// in\n    tag_492:\n        /* \"#utility.yul\":13619:13628   */\n      dup2\n        /* \"#utility.yul\":13613:13617   */\n      dup2\n        /* \"#utility.yul\":13609:13629   */\n      sub\n        /* \"#utility.yul\":13603:13606   */\n      0x80\n        /* \"#utility.yul\":13592:13601   */\n      dup4\n        /* \"#utility.yul\":13588:13607   */\n      add\n        /* \"#utility.yul\":13581:13630   */\n      mstore\n        /* \"#utility.yul\":13647:13725   */\n      tag_493\n        /* \"#utility.yul\":13720:13724   */\n      dup2\n        /* \"#utility.yul\":13711:13717   */\n      dup5\n        /* \"#utility.yul\":13647:13725   */\n      tag_436\n      jump\t// in\n    tag_493:\n        /* \"#utility.yul\":13639:13725   */\n      swap1\n      pop\n        /* \"#utility.yul\":13136:13732   */\n      swap7\n      swap6\n      pop\n      pop\n      pop\n      pop\n      pop\n      pop\n      jump\t// out\n        /* \"#utility.yul\":13738:14721   */\n    tag_47:\n        /* \"#utility.yul\":14024:14028   */\n      0x00\n        /* \"#utility.yul\":14062:14065   */\n      0xc0\n        /* \"#utility.yul\":14051:14060   */\n      dup3\n        /* \"#utility.yul\":14047:14066   */\n      add\n        /* \"#utility.yul\":14039:14066   */\n      swap1\n      pop\n        /* \"#utility.yul\":14112:14121   */\n      dup2\n        /* \"#utility.yul\":14106:14110   */\n      dup2\n        /* \"#utility.yul\":14102:14122   */\n      sub\n        /* \"#utility.yul\":14098:14099   */\n      0x00\n        /* \"#utility.yul\":14087:14096   */\n      dup4\n        /* \"#utility.yul\":14083:14100   */\n      add\n        /* \"#utility.yul\":14076:14123   */\n      mstore\n        /* \"#utility.yul\":14140:14218   */\n      tag_495\n        /* \"#utility.yul\":14213:14217   */\n      dup2\n        /* \"#utility.yul\":14204:14210   */\n      dup10\n        /* \"#utility.yul\":14140:14218   */\n      tag_436\n      jump\t// in\n    tag_495:\n        /* \"#utility.yul\":14132:14218   */\n      swap1\n      pop\n        /* \"#utility.yul\":14228:14300   */\n      tag_496\n        /* \"#utility.yul\":14296:14298   */\n      0x20\n        /* \"#utility.yul\":14285:14294   */\n      dup4\n        /* \"#utility.yul\":14281:14299   */\n      add\n        /* \"#utility.yul\":14272:14278   */\n      dup9\n        /* \"#utility.yul\":14228:14300   */\n      tag_399\n      jump\t// in\n    tag_496:\n        /* \"#utility.yul\":14310:14382   */\n      tag_497\n        /* \"#utility.yul\":14378:14380   */\n      0x40\n        /* \"#utility.yul\":14367:14376   */\n      dup4\n        /* \"#utility.yul\":14363:14381   */\n      add\n        /* \"#utility.yul\":14354:14360   */\n      dup8\n        /* \"#utility.yul\":14310:14382   */\n      tag_457\n      jump\t// in\n    tag_497:\n        /* \"#utility.yul\":14392:14464   */\n      tag_498\n        /* \"#utility.yul\":14460:14462   */\n      0x60\n        /* \"#utility.yul\":14449:14458   */\n      dup4\n        /* \"#utility.yul\":14445:14463   */\n      add\n        /* \"#utility.yul\":14436:14442   */\n      dup7\n        /* \"#utility.yul\":14392:14464   */\n      tag_399\n      jump\t// in\n    tag_498:\n        /* \"#utility.yul\":14512:14521   */\n      dup2\n        /* \"#utility.yul\":14506:14510   */\n      dup2\n        /* \"#utility.yul\":14502:14522   */\n      sub\n        /* \"#utility.yul\":14496:14499   */\n      0x80\n        /* \"#utility.yul\":14485:14494   */\n      dup4\n        /* \"#utility.yul\":14481:14500   */\n      add\n        /* \"#utility.yul\":14474:14523   */\n      mstore\n        /* \"#utility.yul\":14540:14618   */\n      tag_499\n        /* \"#utility.yul\":14613:14617   */\n      dup2\n        /* \"#utility.yul\":14604:14610   */\n      dup6\n        /* \"#utility.yul\":14540:14618   */\n      tag_436\n      jump\t// in\n    tag_499:\n        /* \"#utility.yul\":14532:14618   */\n      swap1\n      pop\n        /* \"#utility.yul\":14628:14714   */\n      tag_500\n        /* \"#utility.yul\":14709:14712   */\n      0xa0\n        /* \"#utility.yul\":14698:14707   */\n      dup4\n        /* \"#utility.yul\":14694:14713   */\n      add\n        /* \"#utility.yul\":14685:14691   */\n      dup5\n        /* \"#utility.yul\":14628:14714   */\n      tag_432\n      jump\t// in\n    tag_500:\n        /* \"#utility.yul\":14029:14721   */\n      swap8\n      swap7\n      pop\n      pop\n      pop\n      pop\n      pop\n      pop\n      pop\n      jump\t// out\n        /* \"#utility.yul\":14727:16250   */\n    tag_118:\n        /* \"#utility.yul\":15128:15132   */\n      0x00\n        /* \"#utility.yul\":15166:15169   */\n      0xe0\n        /* \"#utility.yul\":15155:15164   */\n      dup3\n        /* \"#utility.yul\":15151:15170   */\n      add\n        /* \"#utility.yul\":15143:15170   */\n      swap1\n      pop\n        /* \"#utility.yul\":15216:15225   */\n      dup2\n        /* \"#utility.yul\":15210:15214   */\n      dup2\n        /* \"#utility.yul\":15206:15226   */\n      sub\n        /* \"#utility.yul\":15202:15203   */\n      0x00\n        /* \"#utility.yul\":15191:15200   */\n      dup4\n        /* \"#utility.yul\":15187:15204   */\n      add\n        /* \"#utility.yul\":15180:15227   */\n      mstore\n        /* \"#utility.yul\":15244:15322   */\n      tag_502\n        /* \"#utility.yul\":15317:15321   */\n      dup2\n        /* \"#utility.yul\":15308:15314   */\n      dup11\n        /* \"#utility.yul\":15244:15322   */\n      tag_436\n      jump\t// in\n    tag_502:\n        /* \"#utility.yul\":15236:15322   */\n      swap1\n      pop\n        /* \"#utility.yul\":15369:15378   */\n      dup2\n        /* \"#utility.yul\":15363:15367   */\n      dup2\n        /* \"#utility.yul\":15359:15379   */\n      sub\n        /* \"#utility.yul\":15354:15356   */\n      0x20\n        /* \"#utility.yul\":15343:15352   */\n      dup4\n        /* \"#utility.yul\":15339:15357   */\n      add\n        /* \"#utility.yul\":15332:15380   */\n      mstore\n        /* \"#utility.yul\":15397:15475   */\n      tag_503\n        /* \"#utility.yul\":15470:15474   */\n      dup2\n        /* \"#utility.yul\":15461:15467   */\n      dup10\n        /* \"#utility.yul\":15397:15475   */\n      tag_436\n      jump\t// in\n    tag_503:\n        /* \"#utility.yul\":15389:15475   */\n      swap1\n      pop\n        /* \"#utility.yul\":15522:15531   */\n      dup2\n        /* \"#utility.yul\":15516:15520   */\n      dup2\n        /* \"#utility.yul\":15512:15532   */\n      sub\n        /* \"#utility.yul\":15507:15509   */\n      0x40\n        /* \"#utility.yul\":15496:15505   */\n      dup4\n        /* \"#utility.yul\":15492:15510   */\n      add\n        /* \"#utility.yul\":15485:15533   */\n      mstore\n        /* \"#utility.yul\":15550:15628   */\n      tag_504\n        /* \"#utility.yul\":15623:15627   */\n      dup2\n        /* \"#utility.yul\":15614:15620   */\n      dup9\n        /* \"#utility.yul\":15550:15628   */\n      tag_436\n      jump\t// in\n    tag_504:\n        /* \"#utility.yul\":15542:15628   */\n      swap1\n      pop\n        /* \"#utility.yul\":15675:15684   */\n      dup2\n        /* \"#utility.yul\":15669:15673   */\n      dup2\n        /* \"#utility.yul\":15665:15685   */\n      sub\n        /* \"#utility.yul\":15660:15662   */\n      0x60\n        /* \"#utility.yul\":15649:15658   */\n      dup4\n        /* \"#utility.yul\":15645:15663   */\n      add\n        /* \"#utility.yul\":15638:15686   */\n      mstore\n        /* \"#utility.yul\":15703:15781   */\n      tag_505\n        /* \"#utility.yul\":15776:15780   */\n      dup2\n        /* \"#utility.yul\":15767:15773   */\n      dup8\n        /* \"#utility.yul\":15703:15781   */\n      tag_436\n      jump\t// in\n    tag_505:\n        /* \"#utility.yul\":15695:15781   */\n      swap1\n      pop\n        /* \"#utility.yul\":15829:15838   */\n      dup2\n        /* \"#utility.yul\":15823:15827   */\n      dup2\n        /* \"#utility.yul\":15819:15839   */\n      sub\n        /* \"#utility.yul\":15813:15816   */\n      0x80\n        /* \"#utility.yul\":15802:15811   */\n      dup4\n        /* \"#utility.yul\":15798:15817   */\n      add\n        /* \"#utility.yul\":15791:15840   */\n      mstore\n        /* \"#utility.yul\":15857:15935   */\n      tag_506\n        /* \"#utility.yul\":15930:15934   */\n      dup2\n        /* \"#utility.yul\":15921:15927   */\n      dup7\n        /* \"#utility.yul\":15857:15935   */\n      tag_436\n      jump\t// in\n    tag_506:\n        /* \"#utility.yul\":15849:15935   */\n      swap1\n      pop\n        /* \"#utility.yul\":15983:15992   */\n      dup2\n        /* \"#utility.yul\":15977:15981   */\n      dup2\n        /* \"#utility.yul\":15973:15993   */\n      sub\n        /* \"#utility.yul\":15967:15970   */\n      0xa0\n        /* \"#utility.yul\":15956:15965   */\n      dup4\n        /* \"#utility.yul\":15952:15971   */\n      add\n        /* \"#utility.yul\":15945:15994   */\n      mstore\n        /* \"#utility.yul\":16011:16089   */\n      tag_507\n        /* \"#utility.yul\":16084:16088   */\n      dup2\n        /* \"#utility.yul\":16075:16081   */\n      dup6\n        /* \"#utility.yul\":16011:16089   */\n      tag_436\n      jump\t// in\n    tag_507:\n        /* \"#utility.yul\":16003:16089   */\n      swap1\n      pop\n        /* \"#utility.yul\":16137:16146   */\n      dup2\n        /* \"#utility.yul\":16131:16135   */\n      dup2\n        /* \"#utility.yul\":16127:16147   */\n      sub\n        /* \"#utility.yul\":16121:16124   */\n      0xc0\n        /* \"#utility.yul\":16110:16119   */\n      dup4\n        /* \"#utility.yul\":16106:16125   */\n      add\n        /* \"#utility.yul\":16099:16148   */\n      mstore\n        /* \"#utility.yul\":16165:16243   */\n      tag_508\n        /* \"#utility.yul\":16238:16242   */\n      dup2\n        /* \"#utility.yul\":16229:16235   */\n      dup5\n        /* \"#utility.yul\":16165:16243   */\n      tag_436\n      jump\t// in\n    tag_508:\n        /* \"#utility.yul\":16157:16243   */\n      swap1\n      pop\n        /* \"#utility.yul\":15133:16250   */\n      swap9\n      swap8\n      pop\n      pop\n      pop\n      pop\n      pop\n      pop\n      pop\n      pop\n      jump\t// out\n        /* \"#utility.yul\":16256:16679   */\n    tag_267:\n        /* \"#utility.yul\":16397:16401   */\n      0x00\n        /* \"#utility.yul\":16435:16437   */\n      0x40\n        /* \"#utility.yul\":16424:16433   */\n      dup3\n        /* \"#utility.yul\":16420:16438   */\n      add\n        /* \"#utility.yul\":16412:16438   */\n      swap1\n      pop\n        /* \"#utility.yul\":16484:16493   */\n      dup2\n        /* \"#utility.yul\":16478:16482   */\n      dup2\n        /* \"#utility.yul\":16474:16494   */\n      sub\n        /* \"#utility.yul\":16470:16471   */\n      0x00\n        /* \"#utility.yul\":16459:16468   */\n      dup4\n        /* \"#utility.yul\":16455:16472   */\n      add\n        /* \"#utility.yul\":16448:16495   */\n      mstore\n        /* \"#utility.yul\":16512:16590   */\n      tag_510\n        /* \"#utility.yul\":16585:16589   */\n      dup2\n        /* \"#utility.yul\":16576:16582   */\n      dup6\n        /* \"#utility.yul\":16512:16590   */\n      tag_436\n      jump\t// in\n    tag_510:\n        /* \"#utility.yul\":16504:16590   */\n      swap1\n      pop\n        /* \"#utility.yul\":16600:16672   */\n      tag_511\n        /* \"#utility.yul\":16668:16670   */\n      0x20\n        /* \"#utility.yul\":16657:16666   */\n      dup4\n        /* \"#utility.yul\":16653:16671   */\n      add\n        /* \"#utility.yul\":16644:16650   */\n      dup5\n        /* \"#utility.yul\":16600:16672   */\n      tag_457\n      jump\t// in\n    tag_511:\n        /* \"#utility.yul\":16402:16679   */\n      swap4\n      swap3\n      pop\n      pop\n      pop\n      jump\t// out\n        /* \"#utility.yul\":16685:17104   */\n    tag_205:\n        /* \"#utility.yul\":16851:16855   */\n      0x00\n        /* \"#utility.yul\":16889:16891   */\n      0x20\n        /* \"#utility.yul\":16878:16887   */\n      dup3\n        /* \"#utility.yul\":16874:16892   */\n      add\n        /* \"#utility.yul\":16866:16892   */\n      swap1\n      pop\n        /* \"#utility.yul\":16938:16947   */\n      dup2\n        /* \"#utility.yul\":16932:16936   */\n      dup2\n        /* \"#utility.yul\":16928:16948   */\n      sub\n        /* \"#utility.yul\":16924:16925   */\n      0x00\n        /* \"#utility.yul\":16913:16922   */\n      dup4\n        /* \"#utility.yul\":16909:16926   */\n      add\n        /* \"#utility.yul\":16902:16949   */\n      mstore\n        /* \"#utility.yul\":16966:17097   */\n      tag_513\n        /* \"#utility.yul\":17092:17096   */\n      dup2\n        /* \"#utility.yul\":16966:17097   */\n      tag_452\n      jump\t// in\n    tag_513:\n        /* \"#utility.yul\":16958:17097   */\n      swap1\n      pop\n        /* \"#utility.yul\":16856:17104   */\n      swap2\n      swap1\n      pop\n      jump\t// out\n        /* \"#utility.yul\":17110:17332   */\n    tag_225:\n        /* \"#utility.yul\":17203:17207   */\n      0x00\n        /* \"#utility.yul\":17241:17243   */\n      0x20\n        /* \"#utility.yul\":17230:17239   */\n      dup3\n        /* \"#utility.yul\":17226:17244   */\n      add\n        /* \"#utility.yul\":17218:17244   */\n      swap1\n      pop\n        /* \"#utility.yul\":17254:17325   */\n      tag_515\n        /* \"#utility.yul\":17322:17323   */\n      0x00\n        /* \"#utility.yul\":17311:17320   */\n      dup4\n        /* \"#utility.yul\":17307:17324   */\n      add\n        /* \"#utility.yul\":17298:17304   */\n      dup5\n        /* \"#utility.yul\":17254:17325   */\n      tag_457\n      jump\t// in\n    tag_515:\n        /* \"#utility.yul\":17208:17332   */\n      swap3\n      swap2\n      pop\n      pop\n      jump\t// out\n        /* \"#utility.yul\":17338:17891   */\n    tag_98:\n        /* \"#utility.yul\":17515:17519   */\n      0x00\n        /* \"#utility.yul\":17553:17556   */\n      0x80\n        /* \"#utility.yul\":17542:17551   */\n      dup3\n        /* \"#utility.yul\":17538:17557   */\n      add\n        /* \"#utility.yul\":17530:17557   */\n      swap1\n      pop\n        /* \"#utility.yul\":17567:17638   */\n      tag_517\n        /* \"#utility.yul\":17635:17636   */\n      0x00\n        /* \"#utility.yul\":17624:17633   */\n      dup4\n        /* \"#utility.yul\":17620:17637   */\n      add\n        /* \"#utility.yul\":17611:17617   */\n      dup8\n        /* \"#utility.yul\":17567:17638   */\n      tag_457\n      jump\t// in\n    tag_517:\n        /* \"#utility.yul\":17648:17720   */\n      tag_518\n        /* \"#utility.yul\":17716:17718   */\n      0x20\n        /* \"#utility.yul\":17705:17714   */\n      dup4\n        /* \"#utility.yul\":17701:17719   */\n      add\n        /* \"#utility.yul\":17692:17698   */\n      dup7\n        /* \"#utility.yul\":17648:17720   */\n      tag_457\n      jump\t// in\n    tag_518:\n        /* \"#utility.yul\":17730:17802   */\n      tag_519\n        /* \"#utility.yul\":17798:17800   */\n      0x40\n        /* \"#utility.yul\":17787:17796   */\n      dup4\n        /* \"#utility.yul\":17783:17801   */\n      add\n        /* \"#utility.yul\":17774:17780   */\n      dup6\n        /* \"#utility.yul\":17730:17802   */\n      tag_457\n      jump\t// in\n    tag_519:\n        /* \"#utility.yul\":17812:17884   */\n      tag_520\n        /* \"#utility.yul\":17880:17882   */\n      0x60\n        /* \"#utility.yul\":17869:17878   */\n      dup4\n        /* \"#utility.yul\":17865:17883   */\n      add\n        /* \"#utility.yul\":17856:17862   */\n      dup5\n        /* \"#utility.yul\":17812:17884   */\n      tag_457\n      jump\t// in\n    tag_520:\n        /* \"#utility.yul\":17520:17891   */\n      swap6\n      swap5\n      pop\n      pop\n      pop\n      pop\n      pop\n      jump\t// out\n        /* \"#utility.yul\":17897:18026   */\n    tag_321:\n        /* \"#utility.yul\":17931:17937   */\n      0x00\n        /* \"#utility.yul\":17958:17978   */\n      tag_522\n      tag_523\n      jump\t// in\n    tag_522:\n        /* \"#utility.yul\":17948:17978   */\n      swap1\n      pop\n        /* \"#utility.yul\":17987:18020   */\n      tag_524\n        /* \"#utility.yul\":18015:18019   */\n      dup3\n        /* \"#utility.yul\":18007:18013   */\n      dup3\n        /* \"#utility.yul\":17987:18020   */\n      tag_525\n      jump\t// in\n    tag_524:\n        /* \"#utility.yul\":17938:18026   */\n      swap2\n      swap1\n      pop\n      jump\t// out\n        /* \"#utility.yul\":18032:18107   */\n    tag_523:\n        /* \"#utility.yul\":18065:18071   */\n      0x00\n        /* \"#utility.yul\":18098:18100   */\n      0x40\n        /* \"#utility.yul\":18092:18101   */\n      mload\n        /* \"#utility.yul\":18082:18101   */\n      swap1\n      pop\n        /* \"#utility.yul\":18072:18107   */\n      swap1\n      jump\t// out\n        /* \"#utility.yul\":18113:18421   */\n    tag_320:\n        /* \"#utility.yul\":18175:18179   */\n      0x00\n        /* \"#utility.yul\":18265:18283   */\n      0xffffffffffffffff\n        /* \"#utility.yul\":18257:18263   */\n      dup3\n        /* \"#utility.yul\":18254:18284   */\n      gt\n        /* \"#utility.yul\":18251:18253   */\n      iszero\n      tag_528\n      jumpi\n        /* \"#utility.yul\":18287:18305   */\n      tag_529\n      tag_530\n      jump\t// in\n    tag_529:\n        /* \"#utility.yul\":18251:18253   */\n    tag_528:\n        /* \"#utility.yul\":18325:18354   */\n      tag_531\n        /* \"#utility.yul\":18347:18353   */\n      dup3\n        /* \"#utility.yul\":18325:18354   */\n      tag_445\n      jump\t// in\n    tag_531:\n        /* \"#utility.yul\":18317:18354   */\n      swap1\n      pop\n        /* \"#utility.yul\":18409:18413   */\n      0x20\n        /* \"#utility.yul\":18403:18407   */\n      dup2\n        /* \"#utility.yul\":18399:18414   */\n      add\n        /* \"#utility.yul\":18391:18414   */\n      swap1\n      pop\n        /* \"#utility.yul\":18180:18421   */\n      swap2\n      swap1\n      pop\n      jump\t// out\n        /* \"#utility.yul\":18427:18559   */\n    tag_415:\n        /* \"#utility.yul\":18494:18498   */\n      0x00\n        /* \"#utility.yul\":18517:18520   */\n      dup2\n        /* \"#utility.yul\":18509:18520   */\n      swap1\n      pop\n        /* \"#utility.yul\":18547:18551   */\n      0x20\n        /* \"#utility.yul\":18542:18545   */\n      dup3\n        /* \"#utility.yul\":18538:18552   */\n      add\n        /* \"#utility.yul\":18530:18552   */\n      swap1\n      pop\n        /* \"#utility.yul\":18499:18559   */\n      swap2\n      swap1\n      pop\n      jump\t// out\n        /* \"#utility.yul\":18565:18679   */\n    tag_411:\n        /* \"#utility.yul\":18632:18638   */\n      0x00\n        /* \"#utility.yul\":18666:18671   */\n      dup2\n        /* \"#utility.yul\":18660:18672   */\n      mload\n        /* \"#utility.yul\":18650:18672   */\n      swap1\n      pop\n        /* \"#utility.yul\":18639:18679   */\n      swap2\n      swap1\n      pop\n      jump\t// out\n        /* \"#utility.yul\":18685:18784   */\n    tag_439:\n        /* \"#utility.yul\":18737:18743   */\n      0x00\n        /* \"#utility.yul\":18771:18776   */\n      dup2\n        /* \"#utility.yul\":18765:18777   */\n      mload\n        /* \"#utility.yul\":18755:18777   */\n      swap1\n      pop\n        /* \"#utility.yul\":18744:18784   */\n      swap2\n      swap1\n      pop\n      jump\t// out\n        /* \"#utility.yul\":18790:18903   */\n    tag_421:\n        /* \"#utility.yul\":18860:18864   */\n      0x00\n        /* \"#utility.yul\":18892:18896   */\n      0x20\n        /* \"#utility.yul\":18887:18890   */\n      dup3\n        /* \"#utility.yul\":18883:18897   */\n      add\n        /* \"#utility.yul\":18875:18897   */\n      swap1\n      pop\n        /* \"#utility.yul\":18865:18903   */\n      swap2\n      swap1\n      pop\n      jump\t// out\n        /* \"#utility.yul\":18909:19093   */\n    tag_413:\n        /* \"#utility.yul\":19008:19019   */\n      0x00\n        /* \"#utility.yul\":19042:19048   */\n      dup3\n        /* \"#utility.yul\":19037:19040   */\n      dup3\n        /* \"#utility.yul\":19030:19049   */\n      mstore\n        /* \"#utility.yul\":19082:19086   */\n      0x20\n        /* \"#utility.yul\":19077:19080   */\n      dup3\n        /* \"#utility.yul\":19073:19087   */\n      add\n        /* \"#utility.yul\":19058:19087   */\n      swap1\n      pop\n        /* \"#utility.yul\":19020:19093   */\n      swap3\n      swap2\n      pop\n      pop\n      jump\t// out\n        /* \"#utility.yul\":19099:19268   */\n    tag_441:\n        /* \"#utility.yul\":19183:19194   */\n      0x00\n        /* \"#utility.yul\":19217:19223   */\n      dup3\n        /* \"#utility.yul\":19212:19215   */\n      dup3\n        /* \"#utility.yul\":19205:19224   */\n      mstore\n        /* \"#utility.yul\":19257:19261   */\n      0x20\n        /* \"#utility.yul\":19252:19255   */\n      dup3\n        /* \"#utility.yul\":19248:19262   */\n      add\n        /* \"#utility.yul\":19233:19262   */\n      swap1\n      pop\n        /* \"#utility.yul\":19195:19268   */\n      swap3\n      swap2\n      pop\n      pop\n      jump\t// out\n        /* \"#utility.yul\":19274:19422   */\n    tag_450:\n        /* \"#utility.yul\":19376:19387   */\n      0x00\n        /* \"#utility.yul\":19413:19416   */\n      dup2\n        /* \"#utility.yul\":19398:19416   */\n      swap1\n      pop\n        /* \"#utility.yul\":19388:19422   */\n      swap3\n      swap2\n      pop\n      pop\n      jump\t// out\n        /* \"#utility.yul\":19428:19733   */\n    tag_253:\n        /* \"#utility.yul\":19468:19471   */\n      0x00\n        /* \"#utility.yul\":19487:19507   */\n      tag_540\n        /* \"#utility.yul\":19505:19506   */\n      dup3\n        /* \"#utility.yul\":19487:19507   */\n      tag_460\n      jump\t// in\n    tag_540:\n        /* \"#utility.yul\":19482:19507   */\n      swap2\n      pop\n        /* \"#utility.yul\":19521:19541   */\n      tag_541\n        /* \"#utility.yul\":19539:19540   */\n      dup4\n        /* \"#utility.yul\":19521:19541   */\n      tag_460\n      jump\t// in\n    tag_541:\n        /* \"#utility.yul\":19516:19541   */\n      swap3\n      pop\n        /* \"#utility.yul\":19675:19676   */\n      dup3\n        /* \"#utility.yul\":19607:19673   */\n      0xffffffffffffffffffffffffffffffffffffffffffffffffffffffffffffffff\n        /* \"#utility.yul\":19603:19677   */\n      sub\n        /* \"#utility.yul\":19600:19601   */\n      dup3\n        /* \"#utility.yul\":19597:19678   */\n      gt\n        /* \"#utility.yul\":19594:19596   */\n      iszero\n      tag_542\n      jumpi\n        /* \"#utility.yul\":19681:19699   */\n      tag_543\n      tag_544\n      jump\t// in\n    tag_543:\n        /* \"#utility.yul\":19594:19596   */\n    tag_542:\n        /* \"#utility.yul\":19725:19726   */\n      dup3\n        /* \"#utility.yul\":19722:19723   */\n      dup3\n        /* \"#utility.yul\":19718:19727   */\n      add\n        /* \"#utility.yul\":19711:19727   */\n      swap1\n      pop\n        /* \"#utility.yul\":19472:19733   */\n      swap3\n      swap2\n      pop\n      pop\n      jump\t// out\n        /* \"#utility.yul\":19739:19835   */\n    tag_402:\n        /* \"#utility.yul\":19776:19783   */\n      0x00\n        /* \"#utility.yul\":19805:19829   */\n      tag_546\n        /* \"#utility.yul\":19823:19828   */\n      dup3\n        /* \"#utility.yul\":19805:19829   */\n      tag_547\n      jump\t// in\n    tag_546:\n        /* \"#utility.yul\":19794:19829   */\n      swap1\n      pop\n        /* \"#utility.yul\":19784:19835   */\n      swap2\n      swap1\n      pop\n      jump\t// out\n        /* \"#utility.yul\":19841:19931   */\n    tag_425:\n        /* \"#utility.yul\":19875:19882   */\n      0x00\n        /* \"#utility.yul\":19918:19923   */\n      dup2\n        /* \"#utility.yul\":19911:19924   */\n      iszero\n        /* \"#utility.yul\":19904:19925   */\n      iszero\n        /* \"#utility.yul\":19893:19925   */\n      swap1\n      pop\n        /* \"#utility.yul\":19883:19931   */\n      swap2\n      swap1\n      pop\n      jump\t// out\n        /* \"#utility.yul\":19937:20014   */\n    tag_428:\n        /* \"#utility.yul\":19974:19981   */\n      0x00\n        /* \"#utility.yul\":20003:20008   */\n      dup2\n        /* \"#utility.yul\":19992:20008   */\n      swap1\n      pop\n        /* \"#utility.yul\":19982:20014   */\n      swap2\n      swap1\n      pop\n      jump\t// out\n        /* \"#utility.yul\":20020:20161   */\n    tag_550:\n        /* \"#utility.yul\":20072:20079   */\n      0x00\n        /* \"#utility.yul\":20101:20106   */\n      dup2\n        /* \"#utility.yul\":20090:20106   */\n      swap1\n      pop\n        /* \"#utility.yul\":20107:20155   */\n      tag_552\n        /* \"#utility.yul\":20149:20154   */\n      dup3\n        /* \"#utility.yul\":20107:20155   */\n      tag_553\n      jump\t// in\n    tag_552:\n        /* \"#utility.yul\":20080:20161   */\n      swap2\n      swap1\n      pop\n      jump\t// out\n        /* \"#utility.yul\":20167:20293   */\n    tag_547:\n        /* \"#utility.yul\":20204:20211   */\n      0x00\n        /* \"#utility.yul\":20244:20286   */\n      0xffffffffffffffffffffffffffffffffffffffff\n        /* \"#utility.yul\":20237:20242   */\n      dup3\n        /* \"#utility.yul\":20233:20287   */\n      and\n        /* \"#utility.yul\":20222:20287   */\n      swap1\n      pop\n        /* \"#utility.yul\":20212:20293   */\n      swap2\n      swap1\n      pop\n      jump\t// out\n        /* \"#utility.yul\":20299:20376   */\n    tag_460:\n        /* \"#utility.yul\":20336:20343   */\n      0x00\n        /* \"#utility.yul\":20365:20370   */\n      dup2\n        /* \"#utility.yul\":20354:20370   */\n      swap1\n      pop\n        /* \"#utility.yul\":20344:20376   */\n      swap2\n      swap1\n      pop\n      jump\t// out\n        /* \"#utility.yul\":20382:20523   */\n    tag_435:\n        /* \"#utility.yul\":20445:20454   */\n      0x00\n        /* \"#utility.yul\":20478:20517   */\n      tag_557\n        /* \"#utility.yul\":20511:20516   */\n      dup3\n        /* \"#utility.yul\":20478:20517   */\n      tag_550\n      jump\t// in\n    tag_557:\n        /* \"#utility.yul\":20465:20517   */\n      swap1\n      pop\n        /* \"#utility.yul\":20455:20523   */\n      swap2\n      swap1\n      pop\n      jump\t// out\n        /* \"#utility.yul\":20529:20683   */\n    tag_324:\n        /* \"#utility.yul\":20613:20619   */\n      dup3\n        /* \"#utility.yul\":20608:20611   */\n      dup2\n        /* \"#utility.yul\":20603:20606   */\n      dup4\n        /* \"#utility.yul\":20590:20620   */\n      calldatacopy\n        /* \"#utility.yul\":20675:20676   */\n      0x00\n        /* \"#utility.yul\":20666:20672   */\n      dup4\n        /* \"#utility.yul\":20661:20664   */\n      dup4\n        /* \"#utility.yul\":20657:20673   */\n      add\n        /* \"#utility.yul\":20650:20677   */\n      mstore\n        /* \"#utility.yul\":20580:20683   */\n      pop\n      pop\n      pop\n      jump\t// out\n        /* \"#utility.yul\":20689:20996   */\n    tag_443:\n        /* \"#utility.yul\":20757:20758   */\n      0x00\n        /* \"#utility.yul\":20767:20880   */\n    tag_560:\n        /* \"#utility.yul\":20781:20787   */\n      dup4\n        /* \"#utility.yul\":20778:20779   */\n      dup2\n        /* \"#utility.yul\":20775:20788   */\n      lt\n        /* \"#utility.yul\":20767:20880   */\n      iszero\n      tag_562\n      jumpi\n        /* \"#utility.yul\":20866:20867   */\n      dup1\n        /* \"#utility.yul\":20861:20864   */\n      dup3\n        /* \"#utility.yul\":20857:20868   */\n      add\n        /* \"#utility.yul\":20851:20869   */\n      mload\n        /* \"#utility.yul\":20847:20848   */\n      dup2\n        /* \"#utility.yul\":20842:20845   */\n      dup5\n        /* \"#utility.yul\":20838:20849   */\n      add\n        /* \"#utility.yul\":20831:20870   */\n      mstore\n        /* \"#utility.yul\":20803:20805   */\n      0x20\n        /* \"#utility.yul\":20800:20801   */\n      dup2\n        /* \"#utility.yul\":20796:20806   */\n      add\n        /* \"#utility.yul\":20791:20806   */\n      swap1\n      pop\n        /* \"#utility.yul\":20767:20880   */\n      jump(tag_560)\n    tag_562:\n        /* \"#utility.yul\":20898:20904   */\n      dup4\n        /* \"#utility.yul\":20895:20896   */\n      dup2\n        /* \"#utility.yul\":20892:20905   */\n      gt\n        /* \"#utility.yul\":20889:20891   */\n      iszero\n      tag_563\n      jumpi\n        /* \"#utility.yul\":20978:20979   */\n      0x00\n        /* \"#utility.yul\":20969:20975   */\n      dup5\n        /* \"#utility.yul\":20964:20967   */\n      dup5\n        /* \"#utility.yul\":20960:20976   */\n      add\n        /* \"#utility.yul\":20953:20980   */\n      mstore\n        /* \"#utility.yul\":20889:20891   */\n    tag_563:\n        /* \"#utility.yul\":20738:20996   */\n      pop\n      pop\n      pop\n      pop\n      jump\t// out\n        /* \"#utility.yul\":21002:21322   */\n    tag_153:\n        /* \"#utility.yul\":21046:21052   */\n      0x00\n        /* \"#utility.yul\":21083:21084   */\n      0x02\n        /* \"#utility.yul\":21077:21081   */\n      dup3\n        /* \"#utility.yul\":21073:21085   */\n      div\n        /* \"#utility.yul\":21063:21085   */\n      swap1\n      pop\n        /* \"#utility.yul\":21130:21131   */\n      0x01\n        /* \"#utility.yul\":21124:21128   */\n      dup3\n        /* \"#utility.yul\":21120:21132   */\n      and\n        /* \"#utility.yul\":21151:21169   */\n      dup1\n        /* \"#utility.yul\":21141:21143   */\n      tag_565\n      jumpi\n        /* \"#utility.yul\":21207:21211   */\n      0x7f\n        /* \"#utility.yul\":21199:21205   */\n      dup3\n        /* \"#utility.yul\":21195:21212   */\n      and\n        /* \"#utility.yul\":21185:21212   */\n      swap2\n      pop\n        /* \"#utility.yul\":21141:21143   */\n    tag_565:\n        /* \"#utility.yul\":21269:21271   */\n      0x20\n        /* \"#utility.yul\":21261:21267   */\n      dup3\n        /* \"#utility.yul\":21258:21272   */\n      lt\n        /* \"#utility.yul\":21238:21256   */\n      dup2\n        /* \"#utility.yul\":21235:21273   */\n      eq\n        /* \"#utility.yul\":21232:21234   */\n      iszero\n      tag_566\n      jumpi\n        /* \"#utility.yul\":21288:21306   */\n      tag_567\n      tag_568\n      jump\t// in\n    tag_567:\n        /* \"#utility.yul\":21232:21234   */\n    tag_566:\n        /* \"#utility.yul\":21053:21322   */\n      pop\n      swap2\n      swap1\n      pop\n      jump\t// out\n        /* \"#utility.yul\":21328:21609   */\n    tag_525:\n        /* \"#utility.yul\":21411:21438   */\n      tag_570\n        /* \"#utility.yul\":21433:21437   */\n      dup3\n        /* \"#utility.yul\":21411:21438   */\n      tag_445\n      jump\t// in\n    tag_570:\n        /* \"#utility.yul\":21403:21409   */\n      dup2\n        /* \"#utility.yul\":21399:21439   */\n      add\n        /* \"#utility.yul\":21541:21547   */\n      dup2\n        /* \"#utility.yul\":21529:21539   */\n      dup2\n        /* \"#utility.yul\":21526:21548   */\n      lt\n        /* \"#utility.yul\":21505:21523   */\n      0xffffffffffffffff\n        /* \"#utility.yul\":21493:21503   */\n      dup3\n        /* \"#utility.yul\":21490:21524   */\n      gt\n        /* \"#utility.yul\":21487:21549   */\n      or\n        /* \"#utility.yul\":21484:21486   */\n      iszero\n      tag_571\n      jumpi\n        /* \"#utility.yul\":21552:21570   */\n      tag_572\n      tag_530\n      jump\t// in\n    tag_572:\n        /* \"#utility.yul\":21484:21486   */\n    tag_571:\n        /* \"#utility.yul\":21592:21602   */\n      dup1\n        /* \"#utility.yul\":21588:21590   */\n      0x40\n        /* \"#utility.yul\":21581:21603   */\n      mstore\n        /* \"#utility.yul\":21371:21609   */\n      pop\n      pop\n      pop\n      jump\t// out\n        /* \"#utility.yul\":21615:21715   */\n    tag_407:\n        /* \"#utility.yul\":21654:21661   */\n      0x00\n        /* \"#utility.yul\":21683:21709   */\n      tag_574\n        /* \"#utility.yul\":21703:21708   */\n      dup3\n        /* \"#utility.yul\":21683:21709   */\n      tag_575\n      jump\t// in\n    tag_574:\n        /* \"#utility.yul\":21672:21709   */\n      swap1\n      pop\n        /* \"#utility.yul\":21662:21715   */\n      swap2\n      swap1\n      pop\n      jump\t// out\n        /* \"#utility.yul\":21721:21815   */\n    tag_575:\n        /* \"#utility.yul\":21760:21767   */\n      0x00\n        /* \"#utility.yul\":21789:21809   */\n      tag_577\n        /* \"#utility.yul\":21803:21808   */\n      dup3\n        /* \"#utility.yul\":21789:21809   */\n      tag_578\n      jump\t// in\n    tag_577:\n        /* \"#utility.yul\":21778:21809   */\n      swap1\n      pop\n        /* \"#utility.yul\":21768:21815   */\n      swap2\n      swap1\n      pop\n      jump\t// out\n        /* \"#utility.yul\":21821:21900   */\n    tag_465:\n        /* \"#utility.yul\":21860:21867   */\n      0x00\n        /* \"#utility.yul\":21889:21894   */\n      dup2\n        /* \"#utility.yul\":21878:21894   */\n      swap1\n      pop\n        /* \"#utility.yul\":21868:21900   */\n      swap2\n      swap1\n      pop\n      jump\t// out\n        /* \"#utility.yul\":21906:22086   */\n    tag_544:\n        /* \"#utility.yul\":21954:22031   */\n      0x4e487b7100000000000000000000000000000000000000000000000000000000\n        /* \"#utility.yul\":21951:21952   */\n      0x00\n        /* \"#utility.yul\":21944:22032   */\n      mstore\n        /* \"#utility.yul\":22051:22055   */\n      0x11\n        /* \"#utility.yul\":22048:22049   */\n      0x04\n        /* \"#utility.yul\":22041:22056   */\n      mstore\n        /* \"#utility.yul\":22075:22079   */\n      0x24\n        /* \"#utility.yul\":22072:22073   */\n      0x00\n        /* \"#utility.yul\":22065:22080   */\n      revert\n        /* \"#utility.yul\":22092:22272   */\n    tag_581:\n        /* \"#utility.yul\":22140:22217   */\n      0x4e487b7100000000000000000000000000000000000000000000000000000000\n        /* \"#utility.yul\":22137:22138   */\n      0x00\n        /* \"#utility.yul\":22130:22218   */\n      mstore\n        /* \"#utility.yul\":22237:22241   */\n      0x21\n        /* \"#utility.yul\":22234:22235   */\n      0x04\n        /* \"#utility.yul\":22227:22242   */\n      mstore\n        /* \"#utility.yul\":22261:22265   */\n      0x24\n        /* \"#utility.yul\":22258:22259   */\n      0x00\n        /* \"#utility.yul\":22251:22266   */\n      revert\n        /* \"#utility.yul\":22278:22458   */\n    tag_568:\n        /* \"#utility.yul\":22326:22403   */\n      0x4e487b7100000000000000000000000000000000000000000000000000000000\n        /* \"#utility.yul\":22323:22324   */\n      0x00\n        /* \"#utility.yul\":22316:22404   */\n      mstore\n        /* \"#utility.yul\":22423:22427   */\n      0x22\n        /* \"#utility.yul\":22420:22421   */\n      0x04\n        /* \"#utility.yul\":22413:22428   */\n      mstore\n        /* \"#utility.yul\":22447:22451   */\n      0x24\n        /* \"#utility.yul\":22444:22445   */\n      0x00\n        /* \"#utility.yul\":22437:22452   */\n      revert\n        /* \"#utility.yul\":22464:22644   */\n    tag_530:\n        /* \"#utility.yul\":22512:22589   */\n      0x4e487b7100000000000000000000000000000000000000000000000000000000\n        /* \"#utility.yul\":22509:22510   */\n      0x00\n        /* \"#utility.yul\":22502:22590   */\n      mstore\n        /* \"#utility.yul\":22609:22613   */\n      0x41\n        /* \"#utility.yul\":22606:22607   */\n      0x04\n        /* \"#utility.yul\":22599:22614   */\n      mstore\n        /* \"#utility.yul\":22633:22637   */\n      0x24\n        /* \"#utility.yul\":22630:22631   */\n      0x00\n        /* \"#utility.yul\":22623:22638   */\n      revert\n        /* \"#utility.yul\":22650:22752   */\n    tag_445:\n        /* \"#utility.yul\":22691:22697   */\n      0x00\n        /* \"#utility.yul\":22742:22744   */\n      0x1f\n        /* \"#utility.yul\":22738:22745   */\n      not\n        /* \"#utility.yul\":22733:22735   */\n      0x1f\n        /* \"#utility.yul\":22726:22731   */\n      dup4\n        /* \"#utility.yul\":22722:22736   */\n      add\n        /* \"#utility.yul\":22718:22746   */\n      and\n        /* \"#utility.yul\":22708:22746   */\n      swap1\n      pop\n        /* \"#utility.yul\":22698:22752   */\n      swap2\n      swap1\n      pop\n      jump\t// out\n        /* \"#utility.yul\":22758:22852   */\n    tag_578:\n        /* \"#utility.yul\":22791:22799   */\n      0x00\n        /* \"#utility.yul\":22839:22844   */\n      dup2\n        /* \"#utility.yul\":22835:22837   */\n      0x60\n        /* \"#utility.yul\":22831:22845   */\n      shl\n        /* \"#utility.yul\":22810:22845   */\n      swap1\n      pop\n        /* \"#utility.yul\":22800:22852   */\n      swap2\n      swap1\n      pop\n      jump\t// out\n        /* \"#utility.yul\":22858:23027   */\n    tag_456:\n        /* \"#utility.yul\":22998:23019   */\n      0x63616c6c2066726f6d2077726f6e67204d502e00000000000000000000000000\n        /* \"#utility.yul\":22994:22995   */\n      0x00\n        /* \"#utility.yul\":22986:22992   */\n      dup3\n        /* \"#utility.yul\":22982:22996   */\n      add\n        /* \"#utility.yul\":22975:23020   */\n      mstore\n        /* \"#utility.yul\":22964:23027   */\n      pop\n      jump\t// out\n        /* \"#utility.yul\":23033:23153   */\n    tag_553:\n        /* \"#utility.yul\":23121:23122   */\n      0x07\n        /* \"#utility.yul\":23114:23119   */\n      dup2\n        /* \"#utility.yul\":23111:23123   */\n      lt\n        /* \"#utility.yul\":23101:23103   */\n      tag_589\n      jumpi\n        /* \"#utility.yul\":23127:23145   */\n      tag_590\n      tag_581\n      jump\t// in\n    tag_590:\n        /* \"#utility.yul\":23101:23103   */\n    tag_589:\n        /* \"#utility.yul\":23091:23153   */\n      pop\n      jump\t// out\n        /* \"#utility.yul\":23159:23281   */\n    tag_328:\n        /* \"#utility.yul\":23232:23256   */\n      tag_592\n        /* \"#utility.yul\":23250:23255   */\n      dup2\n        /* \"#utility.yul\":23232:23256   */\n      tag_402\n      jump\t// in\n    tag_592:\n        /* \"#utility.yul\":23225:23230   */\n      dup2\n        /* \"#utility.yul\":23222:23257   */\n      eq\n        /* \"#utility.yul\":23212:23214   */\n      tag_593\n      jumpi\n        /* \"#utility.yul\":23271:23272   */\n      0x00\n        /* \"#utility.yul\":23268:23269   */\n      dup1\n        /* \"#utility.yul\":23261:23273   */\n      revert\n        /* \"#utility.yul\":23212:23214   */\n    tag_593:\n        /* \"#utility.yul\":23202:23281   */\n      pop\n      jump\t// out\n        /* \"#utility.yul\":23287:23409   */\n    tag_332:\n        /* \"#utility.yul\":23360:23384   */\n      tag_595\n        /* \"#utility.yul\":23378:23383   */\n      dup2\n        /* \"#utility.yul\":23360:23384   */\n      tag_428\n      jump\t// in\n    tag_595:\n        /* \"#utility.yul\":23353:23358   */\n      dup2\n        /* \"#utility.yul\":23350:23385   */\n      eq\n        /* \"#utility.yul\":23340:23342   */\n      tag_596\n      jumpi\n        /* \"#utility.yul\":23399:23400   */\n      0x00\n        /* \"#utility.yul\":23396:23397   */\n      dup1\n        /* \"#utility.yul\":23389:23401   */\n      revert\n        /* \"#utility.yul\":23340:23342   */\n    tag_596:\n        /* \"#utility.yul\":23330:23409   */\n      pop\n      jump\t// out\n        /* \"#utility.yul\":23415:23529   */\n    tag_336:\n        /* \"#utility.yul\":23503:23504   */\n      0x07\n        /* \"#utility.yul\":23496:23501   */\n      dup2\n        /* \"#utility.yul\":23493:23505   */\n      lt\n        /* \"#utility.yul\":23483:23485   */\n      tag_598\n      jumpi\n        /* \"#utility.yul\":23519:23520   */\n      0x00\n        /* \"#utility.yul\":23516:23517   */\n      dup1\n        /* \"#utility.yul\":23509:23521   */\n      revert\n        /* \"#utility.yul\":23483:23485   */\n    tag_598:\n        /* \"#utility.yul\":23473:23529   */\n      pop\n      jump\t// out\n        /* \"#utility.yul\":23535:23657   */\n    tag_344:\n        /* \"#utility.yul\":23608:23632   */\n      tag_600\n        /* \"#utility.yul\":23626:23631   */\n      dup2\n        /* \"#utility.yul\":23608:23632   */\n      tag_460\n      jump\t// in\n    tag_600:\n        /* \"#utility.yul\":23601:23606   */\n      dup2\n        /* \"#utility.yul\":23598:23633   */\n      eq\n        /* \"#utility.yul\":23588:23590   */\n      tag_601\n      jumpi\n        /* \"#utility.yul\":23647:23648   */\n      0x00\n        /* \"#utility.yul\":23644:23645   */\n      dup1\n        /* \"#utility.yul\":23637:23649   */\n      revert\n        /* \"#utility.yul\":23588:23590   */\n    tag_601:\n        /* \"#utility.yul\":23578:23657   */\n      pop\n      jump\t// out\n\n    auxdata: 0xa2646970667358221220d99c07a25ea9094629161b00496ad813f07ef5a9fcf3d9293c693209f900194764736f6c63430008040033\n}\n",
				"bytecode": {
					"linkReferences": {},
					"object": "60806040523480156200001157600080fd5b50604051620039c5380380620039c5833981810160405281019062000037919062000095565b806000806101000a81548173ffffffffffffffffffffffffffffffffffffffff021916908373ffffffffffffffffffffffffffffffffffffffff160217905550506200010f565b6000815190506200008f81620000f5565b92915050565b600060208284031215620000a857600080fd5b6000620000b8848285016200007e565b91505092915050565b6000620000ce82620000d5565b9050919050565b600073ffffffffffffffffffffffffffffffffffffffff82169050919050565b6200010081620000c1565b81146200010c57600080fd5b50565b6138a6806200011f6000396000f3fe608060405234801561001057600080fd5b506004361061018e5760003560e01c80636e9d4f8d116100de578063bbc53ef211610097578063dc9151c511610071578063dc9151c5146104bf578063e36d6f50146104ef578063eb9720081461051f578063f6f2ede01461053d5761018e565b8063bbc53ef21461044d578063c156254714610471578063da31f7221461048f5761018e565b80636e9d4f8d146103635780637111e7501461037f578063894fd813146103b25780638a1b9736146103ce578063adcfb4fc14610401578063b2cf18861461041d5761018e565b80632441f1f11161014b5780633a196986116101255780633a196986146102c55780634be422ae146102f95780635cb0122a146103035780636c608709146103335761018e565b80632441f1f1146102835780632ae231091461029f578063377b47a3146102bb5761018e565b8063011f2cce14610193578063026ff05e146101af57806307edbdc5146101cd5780630b4f12f6146102025780631c6932b61461021e57806323e583b414610253575b600080fd5b6101ad60048036038101906101a89190612ee8565b61056d565b005b6101b761068f565b6040516101c491906131c7565b60405180910390f35b6101e760048036038101906101e29190612e5a565b610903565b6040516101f9969594939291906132ef565b60405180910390f35b61021c60048036038101906102179190612ee8565b610a9c565b005b61023860048036038101906102339190612d58565b610e12565b60405161024a969594939291906131fd565b60405180910390f35b61026d60048036038101906102689190612d58565b61100c565b60405161027a91906131e2565b60405180910390f35b61029d60048036038101906102989190612ccd565b61103d565b005b6102b960048036038101906102b49190612d94565b61118a565b005b6102c36114c8565b005b6102df60048036038101906102da9190612e5a565b611704565b6040516102f095949392919061328e565b60405180910390f35b6103016118ef565b005b61031d60048036038101906103189190612ca4565b611a62565b60405161032a91906131a5565b60405180910390f35b61034d60048036038101906103489190612ee8565b611af9565b60405161035a919061318a565b60405180910390f35b61037d60048036038101906103789190612f29565b611b42565b005b61039960048036038101906103949190612ca4565b611da0565b6040516103a99493929190613469565b60405180910390f35b6103cc60048036038101906103c79190612de3565b611dd0565b005b6103e860048036038101906103e39190612ca4565b611f3b565b6040516103f89493929190613469565b60405180910390f35b61041b60048036038101906104169190612ee8565b61205c565b005b61043760048036038101906104329190612eac565b61240f565b60405161044491906131e2565b60405180910390f35b610455612440565b604051610468979695949392919061335e565b60405180910390f35b6104796125dc565b604051610486919061326c565b60405180910390f35b6104a960048036038101906104a49190612e83565b612776565b6040516104b691906131a5565b60405180910390f35b6104d960048036038101906104d49190612d09565b61288e565b6040516104e691906131e2565b60405180910390f35b61050960048036038101906105049190612e83565b6128cc565b60405161051691906131a5565b60405180910390f35b6105276129a7565b604051610534919061326c565b60405180910390f35b61055760048036038101906105529190612ca4565b612a79565b60405161056491906131c7565b60405180910390f35b600560003373ffffffffffffffffffffffffffffffffffffffff1673ffffffffffffffffffffffffffffffffffffffff16815260200190815260200160002060030160009054906101000a900460ff166040518060400160405280600581526020017f574d552d3200000000000000000000000000000000000000000000000000000081525090610634576040517f08c379a000000000000000000000000000000000000000000000000000000000815260040161062b919061326c565b60405180910390fd5b5080600560003373ffffffffffffffffffffffffffffffffffffffff1673ffffffffffffffffffffffffffffffffffffffff168152602001908152602001600020600401908051906020019061068b929190612b05565b5050565b6000600560003373ffffffffffffffffffffffffffffffffffffffff1673ffffffffffffffffffffffffffffffffffffffff16815260200190815260200160002060010160009054906101000a900460ff166040518060400160405280600581526020017f574d552d3500000000000000000000000000000000000000000000000000000081525090610758576040517f08c379a000000000000000000000000000000000000000000000000000000000815260040161074f919061326c565b60405180910390fd5b506000600560003373ffffffffffffffffffffffffffffffffffffffff1673ffffffffffffffffffffffffffffffffffffffff16815260200190815260200160002060000180546107a890613673565b80601f01602080910402602001604051908101604052809291908181526020018280546107d490613673565b80156108215780601f106107f657610100808354040283529160200191610821565b820191906000526020600020905b81548152906001019060200180831161080457829003601f168201915b505050505090506006816040516108389190613173565b908152602001604051809103902060006101000a81549073ffffffffffffffffffffffffffffffffffffffff0219169055600560003373ffffffffffffffffffffffffffffffffffffffff1673ffffffffffffffffffffffffffffffffffffffff168152602001908152602001600020600080820160006108b99190612b8b565b6001820160006101000a81549060ff021916905560028201600090556003820160006101000a81549060ff02191690556004820160006108f99190612b8b565b5050600191505090565b600160205280600052604060002060009150905080600001805461092690613673565b80601f016020809104026020016040519081016040528092919081815260200182805461095290613673565b801561099f5780601f106109745761010080835404028352916020019161099f565b820191906000526020600020905b81548152906001019060200180831161098257829003601f168201915b5050505050908060010160009054906101000a900473ffffffffffffffffffffffffffffffffffffffff16908060020154908060030160009054906101000a900473ffffffffffffffffffffffffffffffffffffffff1690806004018054610a0690613673565b80601f0160208091040260200160405190810160405280929190818152602001828054610a3290613673565b8015610a7f5780601f10610a5457610100808354040283529160200191610a7f565b820191906000526020600020905b815481529060010190602001808311610a6257829003601f168201915b5050505050908060050160009054906101000a900460ff16905086565b600560003373ffffffffffffffffffffffffffffffffffffffff1673ffffffffffffffffffffffffffffffffffffffff16815260200190815260200160002060030160009054906101000a900460ff166040518060400160405280600581526020017f574d552d3200000000000000000000000000000000000000000000000000000081525090610b63576040517f08c379a0000000000000000000000000000000000000000000000000000000008152600401610b5a919061326c565b60405180910390fd5b50600073ffffffffffffffffffffffffffffffffffffffff16600682604051610b8c9190613173565b908152602001604051809103902060009054906101000a900473ffffffffffffffffffffffffffffffffffffffff1673ffffffffffffffffffffffffffffffffffffffff16146040518060400160405280600581526020017f574d552d3600000000000000000000000000000000000000000000000000000081525090610c49576040517f08c379a0000000000000000000000000000000000000000000000000000000008152600401610c40919061326c565b60405180910390fd5b506000600560003373ffffffffffffffffffffffffffffffffffffffff1673ffffffffffffffffffffffffffffffffffffffff1681526020019081526020016000206000018054610c9990613673565b80601f0160208091040260200160405190810160405280929190818152602001828054610cc590613673565b8015610d125780601f10610ce757610100808354040283529160200191610d12565b820191906000526020600020905b815481529060010190602001808311610cf557829003601f168201915b50505050509050600681604051610d299190613173565b908152602001604051809103902060006101000a81549073ffffffffffffffffffffffffffffffffffffffff021916905533600683604051610d6b9190613173565b908152602001604051809103902060006101000a81548173ffffffffffffffffffffffffffffffffffffffff021916908373ffffffffffffffffffffffffffffffffffffffff16021790555081600560003373ffffffffffffffffffffffffffffffffffffffff1673ffffffffffffffffffffffffffffffffffffffff1681526020019081526020016000206000019080519060200190610e0d929190612b05565b505050565b60008060006060600060606000610e298989612ad2565b9050806001600083815260200190815260200160002060010160009054906101000a900473ffffffffffffffffffffffffffffffffffffffff166001600084815260200190815260200160002060020154600160008581526020019081526020016000206000016001600086815260200190815260200160002060030160009054906101000a900473ffffffffffffffffffffffffffffffffffffffff1660016000878152602001908152602001600020600401828054610ee990613673565b80601f0160208091040260200160405190810160405280929190818152602001828054610f1590613673565b8015610f625780601f10610f3757610100808354040283529160200191610f62565b820191906000526020600020905b815481529060010190602001808311610f4557829003601f168201915b50505050509250808054610f7590613673565b80601f0160208091040260200160405190810160405280929190818152602001828054610fa190613673565b8015610fee5780601f10610fc357610100808354040283529160200191610fee565b820191906000526020600020905b815481529060010190602001808311610fd157829003601f168201915b50505050509050965096509650965096509650509295509295509295565b6002602052816000526040600020818154811061102857600080fd5b90600052602060002001600091509150505481565b3373ffffffffffffffffffffffffffffffffffffffff1660008054906101000a900473ffffffffffffffffffffffffffffffffffffffff1673ffffffffffffffffffffffffffffffffffffffff16146110cb576040517f08c379a00000000000000000000000000000000000000000000000000000000081526004016110c29061342e565b60405180910390fd5b816001600083815260200190815260200160002060030160006101000a81548173ffffffffffffffffffffffffffffffffffffffff021916908373ffffffffffffffffffffffffffffffffffffffff160217905550600260008373ffffffffffffffffffffffffffffffffffffffff1673ffffffffffffffffffffffffffffffffffffffff1681526020019081526020016000208190806001815401808255809150506001900390600052602060002001600090919091909150555050565b60006111968484612ad2565b9050600560003373ffffffffffffffffffffffffffffffffffffffff1673ffffffffffffffffffffffffffffffffffffffff16815260200190815260200160002060030160009054906101000a900460ff16801561125557503373ffffffffffffffffffffffffffffffffffffffff166001600083815260200190815260200160002060030160009054906101000a900473ffffffffffffffffffffffffffffffffffffffff1673ffffffffffffffffffffffffffffffffffffffff16145b6040518060400160405280600581526020017f574d552d32000000000000000000000000000000000000000000000000000000815250906112cc576040517f08c379a00000000000000000000000000000000000000000000000000000000081526004016112c3919061326c565b60405180910390fd5b50816001600083815260200190815260200160002060050160006101000a81548160ff0219169083600681111561132c577f4e487b7100000000000000000000000000000000000000000000000000000000600052602160045260246000fd5b02179055506003600083600681111561136e577f4e487b7100000000000000000000000000000000000000000000000000000000600052602160045260246000fd5b60068111156113a6577f4e487b7100000000000000000000000000000000000000000000000000000000600052602160045260246000fd5b8152602001908152602001600020819080600181540180825580915050600190039060005260206000200160009091909190915055600460003373ffffffffffffffffffffffffffffffffffffffff1673ffffffffffffffffffffffffffffffffffffffff1681526020019081526020016000206000836006811115611455577f4e487b7100000000000000000000000000000000000000000000000000000000600052602160045260246000fd5b600681111561148d577f4e487b7100000000000000000000000000000000000000000000000000000000600052602160045260246000fd5b815260200190815260200160002081908060018154018082558091505060019003906000526020600020016000909190919091505550505050565b600560003373ffffffffffffffffffffffffffffffffffffffff1673ffffffffffffffffffffffffffffffffffffffff16815260200190815260200160002060010160009054906101000a900460ff166040518060400160405280600581526020017f574d552d310000000000000000000000000000000000000000000000000000008152509061158f576040517f08c379a0000000000000000000000000000000000000000000000000000000008152600401611586919061326c565b60405180910390fd5b50600560003373ffffffffffffffffffffffffffffffffffffffff1673ffffffffffffffffffffffffffffffffffffffff16815260200190815260200160002060030160009054906101000a900460ff16156040518060400160405280600581526020017f574d552d3300000000000000000000000000000000000000000000000000000081525090611658576040517f08c379a000000000000000000000000000000000000000000000000000000000815260040161164f919061326c565b60405180910390fd5b506001600560003373ffffffffffffffffffffffffffffffffffffffff1673ffffffffffffffffffffffffffffffffffffffff16815260200190815260200160002060030160006101000a81548160ff0219169083151502179055503373ffffffffffffffffffffffffffffffffffffffff167f364034de78a61b6190b049e2c5437370b27906bfed607993a5bc2dda23c16cff426040516116fa919061344e565b60405180910390a2565b6060600080600060606000869050600160008281526020019081526020016000206000016001600083815260200190815260200160002060010160009054906101000a900473ffffffffffffffffffffffffffffffffffffffff1660016000848152602001908152602001600020600201546001600085815260200190815260200160002060030160009054906101000a900473ffffffffffffffffffffffffffffffffffffffff16600160008681526020019081526020016000206004018480546117cf90613673565b80601f01602080910402602001604051908101604052809291908181526020018280546117fb90613673565b80156118485780601f1061181d57610100808354040283529160200191611848565b820191906000526020600020905b81548152906001019060200180831161182b57829003601f168201915b5050505050945080805461185b90613673565b80601f016020809104026020016040519081016040528092919081815260200182805461188790613673565b80156118d45780601f106118a9576101008083540402835291602001916118d4565b820191906000526020600020905b8154815290600101906020018083116118b757829003601f168201915b50505050509050955095509550955095505091939590929450565b600560003373ffffffffffffffffffffffffffffffffffffffff1673ffffffffffffffffffffffffffffffffffffffff16815260200190815260200160002060030160009054906101000a900460ff166040518060400160405280600581526020017f574d552d32000000000000000000000000000000000000000000000000000000815250906119b6576040517f08c379a00000000000000000000000000000000000000000000000000000000081526004016119ad919061326c565b60405180910390fd5b506000600560003373ffffffffffffffffffffffffffffffffffffffff1673ffffffffffffffffffffffffffffffffffffffff16815260200190815260200160002060030160006101000a81548160ff0219169083151502179055503373ffffffffffffffffffffffffffffffffffffffff167f70d1177aa26c67f6b2fdb43400cfd7ff0c23a8712301abe5aba2ee3d89e28a1042604051611a58919061344e565b60405180910390a2565b6060600260008373ffffffffffffffffffffffffffffffffffffffff1673ffffffffffffffffffffffffffffffffffffffff168152602001908152602001600020805480602002602001604051908101604052809291908181526020018280548015611aed57602002820191906000526020600020905b815481526020019060010190808311611ad9575b50505050509050919050565b6006818051602081018201805184825260208301602085012081835280955050505050506000915054906101000a900473ffffffffffffffffffffffffffffffffffffffff1681565b600560003373ffffffffffffffffffffffffffffffffffffffff1673ffffffffffffffffffffffffffffffffffffffff16815260200190815260200160002060030160009054906101000a900460ff166040518060400160405280600581526020017f574d552d3200000000000000000000000000000000000000000000000000000081525090611c09576040517f08c379a0000000000000000000000000000000000000000000000000000000008152600401611c00919061326c565b60405180910390fd5b506000611c168484612ad2565b905084600160008381526020019081526020016000206000019080519060200190611c42929190612b05565b50836001600083815260200190815260200160002060010160006101000a81548173ffffffffffffffffffffffffffffffffffffffff021916908373ffffffffffffffffffffffffffffffffffffffff160217905550826001600083815260200190815260200160002060020181905550336001600083815260200190815260200160002060030160006101000a81548173ffffffffffffffffffffffffffffffffffffffff021916908373ffffffffffffffffffffffffffffffffffffffff16021790555081600160008381526020019081526020016000206004019080519060200190611d32929190612b05565b50600260003373ffffffffffffffffffffffffffffffffffffffff1673ffffffffffffffffffffffffffffffffffffffff1681526020019081526020016000208190806001815401808255809150506001900390600052602060002001600090919091909150555050505050565b60076020528060005260406000206000915090508060000154908060010154908060020154908060030154905084565b83600760008773ffffffffffffffffffffffffffffffffffffffff1673ffffffffffffffffffffffffffffffffffffffff1681526020019081526020016000206000016000828254611e229190613564565b9250508190555082600760008773ffffffffffffffffffffffffffffffffffffffff1673ffffffffffffffffffffffffffffffffffffffff1681526020019081526020016000206001016000828254611e7b9190613564565b9250508190555081600760008773ffffffffffffffffffffffffffffffffffffffff1673ffffffffffffffffffffffffffffffffffffffff1681526020019081526020016000206002016000828254611ed49190613564565b9250508190555080600760008773ffffffffffffffffffffffffffffffffffffffff1673ffffffffffffffffffffffffffffffffffffffff1681526020019081526020016000206003016000828254611f2d9190613564565b925050819055505050505050565b600080600080600760008673ffffffffffffffffffffffffffffffffffffffff1673ffffffffffffffffffffffffffffffffffffffff16815260200190815260200160002060020154600760008773ffffffffffffffffffffffffffffffffffffffff1673ffffffffffffffffffffffffffffffffffffffff16815260200190815260200160002060030154600760008873ffffffffffffffffffffffffffffffffffffffff1673ffffffffffffffffffffffffffffffffffffffff16815260200190815260200160002060000154600760008973ffffffffffffffffffffffffffffffffffffffff1673ffffffffffffffffffffffffffffffffffffffff1681526020019081526020016000206001015493509350935093509193509193565b600560003373ffffffffffffffffffffffffffffffffffffffff1673ffffffffffffffffffffffffffffffffffffffff16815260200190815260200160002060010160009054906101000a900460ff16156040518060400160405280600581526020017f574d552d3400000000000000000000000000000000000000000000000000000081525090612124576040517f08c379a000000000000000000000000000000000000000000000000000000000815260040161211b919061326c565b60405180910390fd5b50600073ffffffffffffffffffffffffffffffffffffffff1660068260405161214d9190613173565b908152602001604051809103902060009054906101000a900473ffffffffffffffffffffffffffffffffffffffff1673ffffffffffffffffffffffffffffffffffffffff16146040518060400160405280600581526020017f574d552d360000000000000000000000000000000000000000000000000000008152509061220a576040517f08c379a0000000000000000000000000000000000000000000000000000000008152600401612201919061326c565b60405180910390fd5b5080600560003373ffffffffffffffffffffffffffffffffffffffff1673ffffffffffffffffffffffffffffffffffffffff1681526020019081526020016000206000019080519060200190612261929190612b05565b506001600560003373ffffffffffffffffffffffffffffffffffffffff1673ffffffffffffffffffffffffffffffffffffffff16815260200190815260200160002060010160006101000a81548160ff02191690831515021790555042600560003373ffffffffffffffffffffffffffffffffffffffff1673ffffffffffffffffffffffffffffffffffffffff168152602001908152602001600020600201819055506001600560003373ffffffffffffffffffffffffffffffffffffffff1673ffffffffffffffffffffffffffffffffffffffff16815260200190815260200160002060030160006101000a81548160ff021916908315150217905550336006826040516123709190613173565b908152602001604051809103902060006101000a81548173ffffffffffffffffffffffffffffffffffffffff021916908373ffffffffffffffffffffffffffffffffffffffff1602179055503373ffffffffffffffffffffffffffffffffffffffff167fee20c2c019dcbca8d08ff74c4ce6f465e02d3611905c9aceeb76a0c8e429af2f82426040516124049291906133fe565b60405180910390a250565b6003602052816000526040600020818154811061242b57600080fd5b90600052602060002001600091509150505481565b60608060608060608060606040518060400160405280600681526020017f41564154415200000000000000000000000000000000000000000000000000008152506040518060400160405280600781526020017f50494354555245000000000000000000000000000000000000000000000000008152506040518060400160405280600e81526020017f47454e455241544956455f4152540000000000000000000000000000000000008152506040518060400160405280600381526020017f41525400000000000000000000000000000000000000000000000000000000008152506040518060400160405280600c81526020017f434f4c4c45435449424c455300000000000000000000000000000000000000008152506040518060400160405280600881526020017f47414d49464945440000000000000000000000000000000000000000000000008152506040518060400160405280600581526020017f4f54484552000000000000000000000000000000000000000000000000000000815250965096509650965096509650965090919293949596565b6060600560003373ffffffffffffffffffffffffffffffffffffffff1673ffffffffffffffffffffffffffffffffffffffff16815260200190815260200160002060030160009054906101000a900460ff166040518060400160405280600581526020017f574d552d32000000000000000000000000000000000000000000000000000000815250906126a5576040517f08c379a000000000000000000000000000000000000000000000000000000000815260040161269c919061326c565b60405180910390fd5b50600560003373ffffffffffffffffffffffffffffffffffffffff1673ffffffffffffffffffffffffffffffffffffffff16815260200190815260200160002060000180546126f390613673565b80601f016020809104026020016040519081016040528092919081815260200182805461271f90613673565b801561276c5780601f106127415761010080835404028352916020019161276c565b820191906000526020600020905b81548152906001019060200180831161274f57829003601f168201915b5050505050905090565b6060600460003373ffffffffffffffffffffffffffffffffffffffff1673ffffffffffffffffffffffffffffffffffffffff16815260200190815260200160002060008360068111156127f2577f4e487b7100000000000000000000000000000000000000000000000000000000600052602160045260246000fd5b600681111561282a577f4e487b7100000000000000000000000000000000000000000000000000000000600052602160045260246000fd5b815260200190815260200160002080548060200260200160405190810160405280929190818152602001828054801561288257602002820191906000526020600020905b81548152602001906001019080831161286e575b50505050509050919050565b600460205282600052604060002060205281600052604060002081815481106128b657600080fd5b9060005260206000200160009250925050505481565b60606003600083600681111561290b577f4e487b7100000000000000000000000000000000000000000000000000000000600052602160045260246000fd5b6006811115612943577f4e487b7100000000000000000000000000000000000000000000000000000000600052602160045260246000fd5b815260200190815260200160002080548060200260200160405190810160405280929190818152602001828054801561299b57602002820191906000526020600020905b815481526020019060010190808311612987575b50505050509050919050565b6060600560003373ffffffffffffffffffffffffffffffffffffffff1673ffffffffffffffffffffffffffffffffffffffff16815260200190815260200160002060040180546129f690613673565b80601f0160208091040260200160405190810160405280929190818152602001828054612a2290613673565b8015612a6f5780601f10612a4457610100808354040283529160200191612a6f565b820191906000526020600020905b815481529060010190602001808311612a5257829003601f168201915b5050505050905090565b6000600560008373ffffffffffffffffffffffffffffffffffffffff1673ffffffffffffffffffffffffffffffffffffffff16815260200190815260200160002060030160009054906101000a900460ff169050919050565b60008282604051602001612ae7929190613147565b60405160208183030381529060405280519060200120905092915050565b828054612b1190613673565b90600052602060002090601f016020900481019282612b335760008555612b7a565b82601f10612b4c57805160ff1916838001178555612b7a565b82800160010185558215612b7a579182015b82811115612b79578251825591602001919060010190612b5e565b5b509050612b879190612bcb565b5090565b508054612b9790613673565b6000825580601f10612ba95750612bc8565b601f016020900490600052602060002090810190612bc79190612bcb565b5b50565b5b80821115612be4576000816000905550600101612bcc565b5090565b6000612bfb612bf6846134d3565b6134ae565b905082815260208101848484011115612c1357600080fd5b612c1e848285613631565b509392505050565b600081359050612c358161381b565b92915050565b600081359050612c4a81613832565b92915050565b600081359050612c5f81613849565b92915050565b600082601f830112612c7657600080fd5b8135612c86848260208601612be8565b91505092915050565b600081359050612c9e81613859565b92915050565b600060208284031215612cb657600080fd5b6000612cc484828501612c26565b91505092915050565b60008060408385031215612ce057600080fd5b6000612cee85828601612c26565b9250506020612cff85828601612c3b565b9150509250929050565b600080600060608486031215612d1e57600080fd5b6000612d2c86828701612c26565b9350506020612d3d86828701612c50565b9250506040612d4e86828701612c8f565b9150509250925092565b60008060408385031215612d6b57600080fd5b6000612d7985828601612c26565b9250506020612d8a85828601612c8f565b9150509250929050565b600080600060608486031215612da957600080fd5b6000612db786828701612c26565b9350506020612dc886828701612c8f565b9250506040612dd986828701612c50565b9150509250925092565b600080600080600060a08688031215612dfb57600080fd5b6000612e0988828901612c26565b9550506020612e1a88828901612c8f565b9450506040612e2b88828901612c8f565b9350506060612e3c88828901612c8f565b9250506080612e4d88828901612c8f565b9150509295509295909350565b600060208284031215612e6c57600080fd5b6000612e7a84828501612c3b565b91505092915050565b600060208284031215612e9557600080fd5b6000612ea384828501612c50565b91505092915050565b60008060408385031215612ebf57600080fd5b6000612ecd85828601612c50565b9250506020612ede85828601612c8f565b9150509250929050565b600060208284031215612efa57600080fd5b600082013567ffffffffffffffff811115612f1457600080fd5b612f2084828501612c65565b91505092915050565b60008060008060808587031215612f3f57600080fd5b600085013567ffffffffffffffff811115612f5957600080fd5b612f6587828801612c65565b9450506020612f7687828801612c26565b9350506040612f8787828801612c8f565b925050606085013567ffffffffffffffff811115612fa457600080fd5b612fb087828801612c65565b91505092959194509250565b6000612fc88383613067565b60208301905092915050565b612fdd816135ba565b82525050565b612ff4612fef826135ba565b6136d6565b82525050565b600061300582613514565b61300f8185613537565b935061301a83613504565b8060005b8381101561304b5781516130328882612fbc565b975061303d8361352a565b92505060018101905061301e565b5085935050505092915050565b613061816135cc565b82525050565b613070816135d8565b82525050565b61307f816135d8565b82525050565b61308e8161361f565b82525050565b600061309f8261351f565b6130a98185613548565b93506130b9818560208601613640565b6130c2816137c0565b840191505092915050565b60006130d88261351f565b6130e28185613559565b93506130f2818560208601613640565b80840191505092915050565b600061310b601383613548565b9150613116826137de565b602082019050919050565b61312a81613615565b82525050565b61314161313c82613615565b6136fa565b82525050565b60006131538285612fe3565b6014820191506131638284613130565b6020820191508190509392505050565b600061317f82846130cd565b915081905092915050565b600060208201905061319f6000830184612fd4565b92915050565b600060208201905081810360008301526131bf8184612ffa565b905092915050565b60006020820190506131dc6000830184613058565b92915050565b60006020820190506131f76000830184613076565b92915050565b600060c0820190506132126000830189613076565b61321f6020830188612fd4565b61322c6040830187613121565b818103606083015261323e8186613094565b905061324d6080830185612fd4565b81810360a083015261325f8184613094565b9050979650505050505050565b600060208201905081810360008301526132868184613094565b905092915050565b600060a08201905081810360008301526132a88188613094565b90506132b76020830187612fd4565b6132c46040830186613121565b6132d16060830185612fd4565b81810360808301526132e38184613094565b90509695505050505050565b600060c08201905081810360008301526133098189613094565b90506133186020830188612fd4565b6133256040830187613121565b6133326060830186612fd4565b81810360808301526133448185613094565b905061335360a0830184613085565b979650505050505050565b600060e0820190508181036000830152613378818a613094565b9050818103602083015261338c8189613094565b905081810360408301526133a08188613094565b905081810360608301526133b48187613094565b905081810360808301526133c88186613094565b905081810360a08301526133dc8185613094565b905081810360c08301526133f08184613094565b905098975050505050505050565b600060408201905081810360008301526134188185613094565b90506134276020830184613121565b9392505050565b60006020820190508181036000830152613447816130fe565b9050919050565b60006020820190506134636000830184613121565b92915050565b600060808201905061347e6000830187613121565b61348b6020830186613121565b6134986040830185613121565b6134a56060830184613121565b95945050505050565b60006134b86134c9565b90506134c482826136a5565b919050565b6000604051905090565b600067ffffffffffffffff8211156134ee576134ed613791565b5b6134f7826137c0565b9050602081019050919050565b6000819050602082019050919050565b600081519050919050565b600081519050919050565b6000602082019050919050565b600082825260208201905092915050565b600082825260208201905092915050565b600081905092915050565b600061356f82613615565b915061357a83613615565b9250827fffffffffffffffffffffffffffffffffffffffffffffffffffffffffffffffff038211156135af576135ae613704565b5b828201905092915050565b60006135c5826135f5565b9050919050565b60008115159050919050565b6000819050919050565b60008190506135f082613807565b919050565b600073ffffffffffffffffffffffffffffffffffffffff82169050919050565b6000819050919050565b600061362a826135e2565b9050919050565b82818337600083830152505050565b60005b8381101561365e578082015181840152602081019050613643565b8381111561366d576000848401525b50505050565b6000600282049050600182168061368b57607f821691505b6020821081141561369f5761369e613762565b5b50919050565b6136ae826137c0565b810181811067ffffffffffffffff821117156136cd576136cc613791565b5b80604052505050565b60006136e1826136e8565b9050919050565b60006136f3826137d1565b9050919050565b6000819050919050565b7f4e487b7100000000000000000000000000000000000000000000000000000000600052601160045260246000fd5b7f4e487b7100000000000000000000000000000000000000000000000000000000600052602160045260246000fd5b7f4e487b7100000000000000000000000000000000000000000000000000000000600052602260045260246000fd5b7f4e487b7100000000000000000000000000000000000000000000000000000000600052604160045260246000fd5b6000601f19601f8301169050919050565b60008160601b9050919050565b7f63616c6c2066726f6d2077726f6e67204d502e00000000000000000000000000600082015250565b6007811061381857613817613733565b5b50565b613824816135ba565b811461382f57600080fd5b50565b61383b816135d8565b811461384657600080fd5b50565b6007811061385657600080fd5b50565b61386281613615565b811461386d57600080fd5b5056fea2646970667358221220d99c07a25ea9094629161b00496ad813f07ef5a9fcf3d9293c693209f900194764736f6c63430008040033",
					"opcodes": "PUSH1 0x80 PUSH1 0x40 MSTORE CALLVALUE DUP1 ISZERO PUSH3 0x11 JUMPI PUSH1 0x0 DUP1 REVERT JUMPDEST POP PUSH1 0x40 MLOAD PUSH3 0x39C5 CODESIZE SUB DUP1 PUSH3 0x39C5 DUP4 CODECOPY DUP2 DUP2 ADD PUSH1 0x40 MSTORE DUP2 ADD SWAP1 PUSH3 0x37 SWAP2 SWAP1 PUSH3 0x95 JUMP JUMPDEST DUP1 PUSH1 0x0 DUP1 PUSH2 0x100 EXP DUP2 SLOAD DUP2 PUSH20 0xFFFFFFFFFFFFFFFFFFFFFFFFFFFFFFFFFFFFFFFF MUL NOT AND SWAP1 DUP4 PUSH20 0xFFFFFFFFFFFFFFFFFFFFFFFFFFFFFFFFFFFFFFFF AND MUL OR SWAP1 SSTORE POP POP PUSH3 0x10F JUMP JUMPDEST PUSH1 0x0 DUP2 MLOAD SWAP1 POP PUSH3 0x8F DUP2 PUSH3 0xF5 JUMP JUMPDEST SWAP3 SWAP2 POP POP JUMP JUMPDEST PUSH1 0x0 PUSH1 0x20 DUP3 DUP5 SUB SLT ISZERO PUSH3 0xA8 JUMPI PUSH1 0x0 DUP1 REVERT JUMPDEST PUSH1 0x0 PUSH3 0xB8 DUP5 DUP3 DUP6 ADD PUSH3 0x7E JUMP JUMPDEST SWAP2 POP POP SWAP3 SWAP2 POP POP JUMP JUMPDEST PUSH1 0x0 PUSH3 0xCE DUP3 PUSH3 0xD5 JUMP JUMPDEST SWAP1 POP SWAP2 SWAP1 POP JUMP JUMPDEST PUSH1 0x0 PUSH20 0xFFFFFFFFFFFFFFFFFFFFFFFFFFFFFFFFFFFFFFFF DUP3 AND SWAP1 POP SWAP2 SWAP1 POP JUMP JUMPDEST PUSH3 0x100 DUP2 PUSH3 0xC1 JUMP JUMPDEST DUP2 EQ PUSH3 0x10C JUMPI PUSH1 0x0 DUP1 REVERT JUMPDEST POP JUMP JUMPDEST PUSH2 0x38A6 DUP1 PUSH3 0x11F PUSH1 0x0 CODECOPY PUSH1 0x0 RETURN INVALID PUSH1 0x80 PUSH1 0x40 MSTORE CALLVALUE DUP1 ISZERO PUSH2 0x10 JUMPI PUSH1 0x0 DUP1 REVERT JUMPDEST POP PUSH1 0x4 CALLDATASIZE LT PUSH2 0x18E JUMPI PUSH1 0x0 CALLDATALOAD PUSH1 0xE0 SHR DUP1 PUSH4 0x6E9D4F8D GT PUSH2 0xDE JUMPI DUP1 PUSH4 0xBBC53EF2 GT PUSH2 0x97 JUMPI DUP1 PUSH4 0xDC9151C5 GT PUSH2 0x71 JUMPI DUP1 PUSH4 0xDC9151C5 EQ PUSH2 0x4BF JUMPI DUP1 PUSH4 0xE36D6F50 EQ PUSH2 0x4EF JUMPI DUP1 PUSH4 0xEB972008 EQ PUSH2 0x51F JUMPI DUP1 PUSH4 0xF6F2EDE0 EQ PUSH2 0x53D JUMPI PUSH2 0x18E JUMP JUMPDEST DUP1 PUSH4 0xBBC53EF2 EQ PUSH2 0x44D JUMPI DUP1 PUSH4 0xC1562547 EQ PUSH2 0x471 JUMPI DUP1 PUSH4 0xDA31F722 EQ PUSH2 0x48F JUMPI PUSH2 0x18E JUMP JUMPDEST DUP1 PUSH4 0x6E9D4F8D EQ PUSH2 0x363 JUMPI DUP1 PUSH4 0x7111E750 EQ PUSH2 0x37F JUMPI DUP1 PUSH4 0x894FD813 EQ PUSH2 0x3B2 JUMPI DUP1 PUSH4 0x8A1B9736 EQ PUSH2 0x3CE JUMPI DUP1 PUSH4 0xADCFB4FC EQ PUSH2 0x401 JUMPI DUP1 PUSH4 0xB2CF1886 EQ PUSH2 0x41D JUMPI PUSH2 0x18E JUMP JUMPDEST DUP1 PUSH4 0x2441F1F1 GT PUSH2 0x14B JUMPI DUP1 PUSH4 0x3A196986 GT PUSH2 0x125 JUMPI DUP1 PUSH4 0x3A196986 EQ PUSH2 0x2C5 JUMPI DUP1 PUSH4 0x4BE422AE EQ PUSH2 0x2F9 JUMPI DUP1 PUSH4 0x5CB0122A EQ PUSH2 0x303 JUMPI DUP1 PUSH4 0x6C608709 EQ PUSH2 0x333 JUMPI PUSH2 0x18E JUMP JUMPDEST DUP1 PUSH4 0x2441F1F1 EQ PUSH2 0x283 JUMPI DUP1 PUSH4 0x2AE23109 EQ PUSH2 0x29F JUMPI DUP1 PUSH4 0x377B47A3 EQ PUSH2 0x2BB JUMPI PUSH2 0x18E JUMP JUMPDEST DUP1 PUSH4 0x11F2CCE EQ PUSH2 0x193 JUMPI DUP1 PUSH4 0x26FF05E EQ PUSH2 0x1AF JUMPI DUP1 PUSH4 0x7EDBDC5 EQ PUSH2 0x1CD JUMPI DUP1 PUSH4 0xB4F12F6 EQ PUSH2 0x202 JUMPI DUP1 PUSH4 0x1C6932B6 EQ PUSH2 0x21E JUMPI DUP1 PUSH4 0x23E583B4 EQ PUSH2 0x253 JUMPI JUMPDEST PUSH1 0x0 DUP1 REVERT JUMPDEST PUSH2 0x1AD PUSH1 0x4 DUP1 CALLDATASIZE SUB DUP2 ADD SWAP1 PUSH2 0x1A8 SWAP2 SWAP1 PUSH2 0x2EE8 JUMP JUMPDEST PUSH2 0x56D JUMP JUMPDEST STOP JUMPDEST PUSH2 0x1B7 PUSH2 0x68F JUMP JUMPDEST PUSH1 0x40 MLOAD PUSH2 0x1C4 SWAP2 SWAP1 PUSH2 0x31C7 JUMP JUMPDEST PUSH1 0x40 MLOAD DUP1 SWAP2 SUB SWAP1 RETURN JUMPDEST PUSH2 0x1E7 PUSH1 0x4 DUP1 CALLDATASIZE SUB DUP2 ADD SWAP1 PUSH2 0x1E2 SWAP2 SWAP1 PUSH2 0x2E5A JUMP JUMPDEST PUSH2 0x903 JUMP JUMPDEST PUSH1 0x40 MLOAD PUSH2 0x1F9 SWAP7 SWAP6 SWAP5 SWAP4 SWAP3 SWAP2 SWAP1 PUSH2 0x32EF JUMP JUMPDEST PUSH1 0x40 MLOAD DUP1 SWAP2 SUB SWAP1 RETURN JUMPDEST PUSH2 0x21C PUSH1 0x4 DUP1 CALLDATASIZE SUB DUP2 ADD SWAP1 PUSH2 0x217 SWAP2 SWAP1 PUSH2 0x2EE8 JUMP JUMPDEST PUSH2 0xA9C JUMP JUMPDEST STOP JUMPDEST PUSH2 0x238 PUSH1 0x4 DUP1 CALLDATASIZE SUB DUP2 ADD SWAP1 PUSH2 0x233 SWAP2 SWAP1 PUSH2 0x2D58 JUMP JUMPDEST PUSH2 0xE12 JUMP JUMPDEST PUSH1 0x40 MLOAD PUSH2 0x24A SWAP7 SWAP6 SWAP5 SWAP4 SWAP3 SWAP2 SWAP1 PUSH2 0x31FD JUMP JUMPDEST PUSH1 0x40 MLOAD DUP1 SWAP2 SUB SWAP1 RETURN JUMPDEST PUSH2 0x26D PUSH1 0x4 DUP1 CALLDATASIZE SUB DUP2 ADD SWAP1 PUSH2 0x268 SWAP2 SWAP1 PUSH2 0x2D58 JUMP JUMPDEST PUSH2 0x100C JUMP JUMPDEST PUSH1 0x40 MLOAD PUSH2 0x27A SWAP2 SWAP1 PUSH2 0x31E2 JUMP JUMPDEST PUSH1 0x40 MLOAD DUP1 SWAP2 SUB SWAP1 RETURN JUMPDEST PUSH2 0x29D PUSH1 0x4 DUP1 CALLDATASIZE SUB DUP2 ADD SWAP1 PUSH2 0x298 SWAP2 SWAP1 PUSH2 0x2CCD JUMP JUMPDEST PUSH2 0x103D JUMP JUMPDEST STOP JUMPDEST PUSH2 0x2B9 PUSH1 0x4 DUP1 CALLDATASIZE SUB DUP2 ADD SWAP1 PUSH2 0x2B4 SWAP2 SWAP1 PUSH2 0x2D94 JUMP JUMPDEST PUSH2 0x118A JUMP JUMPDEST STOP JUMPDEST PUSH2 0x2C3 PUSH2 0x14C8 JUMP JUMPDEST STOP JUMPDEST PUSH2 0x2DF PUSH1 0x4 DUP1 CALLDATASIZE SUB DUP2 ADD SWAP1 PUSH2 0x2DA SWAP2 SWAP1 PUSH2 0x2E5A JUMP JUMPDEST PUSH2 0x1704 JUMP JUMPDEST PUSH1 0x40 MLOAD PUSH2 0x2F0 SWAP6 SWAP5 SWAP4 SWAP3 SWAP2 SWAP1 PUSH2 0x328E JUMP JUMPDEST PUSH1 0x40 MLOAD DUP1 SWAP2 SUB SWAP1 RETURN JUMPDEST PUSH2 0x301 PUSH2 0x18EF JUMP JUMPDEST STOP JUMPDEST PUSH2 0x31D PUSH1 0x4 DUP1 CALLDATASIZE SUB DUP2 ADD SWAP1 PUSH2 0x318 SWAP2 SWAP1 PUSH2 0x2CA4 JUMP JUMPDEST PUSH2 0x1A62 JUMP JUMPDEST PUSH1 0x40 MLOAD PUSH2 0x32A SWAP2 SWAP1 PUSH2 0x31A5 JUMP JUMPDEST PUSH1 0x40 MLOAD DUP1 SWAP2 SUB SWAP1 RETURN JUMPDEST PUSH2 0x34D PUSH1 0x4 DUP1 CALLDATASIZE SUB DUP2 ADD SWAP1 PUSH2 0x348 SWAP2 SWAP1 PUSH2 0x2EE8 JUMP JUMPDEST PUSH2 0x1AF9 JUMP JUMPDEST PUSH1 0x40 MLOAD PUSH2 0x35A SWAP2 SWAP1 PUSH2 0x318A JUMP JUMPDEST PUSH1 0x40 MLOAD DUP1 SWAP2 SUB SWAP1 RETURN JUMPDEST PUSH2 0x37D PUSH1 0x4 DUP1 CALLDATASIZE SUB DUP2 ADD SWAP1 PUSH2 0x378 SWAP2 SWAP1 PUSH2 0x2F29 JUMP JUMPDEST PUSH2 0x1B42 JUMP JUMPDEST STOP JUMPDEST PUSH2 0x399 PUSH1 0x4 DUP1 CALLDATASIZE SUB DUP2 ADD SWAP1 PUSH2 0x394 SWAP2 SWAP1 PUSH2 0x2CA4 JUMP JUMPDEST PUSH2 0x1DA0 JUMP JUMPDEST PUSH1 0x40 MLOAD PUSH2 0x3A9 SWAP5 SWAP4 SWAP3 SWAP2 SWAP1 PUSH2 0x3469 JUMP JUMPDEST PUSH1 0x40 MLOAD DUP1 SWAP2 SUB SWAP1 RETURN JUMPDEST PUSH2 0x3CC PUSH1 0x4 DUP1 CALLDATASIZE SUB DUP2 ADD SWAP1 PUSH2 0x3C7 SWAP2 SWAP1 PUSH2 0x2DE3 JUMP JUMPDEST PUSH2 0x1DD0 JUMP JUMPDEST STOP JUMPDEST PUSH2 0x3E8 PUSH1 0x4 DUP1 CALLDATASIZE SUB DUP2 ADD SWAP1 PUSH2 0x3E3 SWAP2 SWAP1 PUSH2 0x2CA4 JUMP JUMPDEST PUSH2 0x1F3B JUMP JUMPDEST PUSH1 0x40 MLOAD PUSH2 0x3F8 SWAP5 SWAP4 SWAP3 SWAP2 SWAP1 PUSH2 0x3469 JUMP JUMPDEST PUSH1 0x40 MLOAD DUP1 SWAP2 SUB SWAP1 RETURN JUMPDEST PUSH2 0x41B PUSH1 0x4 DUP1 CALLDATASIZE SUB DUP2 ADD SWAP1 PUSH2 0x416 SWAP2 SWAP1 PUSH2 0x2EE8 JUMP JUMPDEST PUSH2 0x205C JUMP JUMPDEST STOP JUMPDEST PUSH2 0x437 PUSH1 0x4 DUP1 CALLDATASIZE SUB DUP2 ADD SWAP1 PUSH2 0x432 SWAP2 SWAP1 PUSH2 0x2EAC JUMP JUMPDEST PUSH2 0x240F JUMP JUMPDEST PUSH1 0x40 MLOAD PUSH2 0x444 SWAP2 SWAP1 PUSH2 0x31E2 JUMP JUMPDEST PUSH1 0x40 MLOAD DUP1 SWAP2 SUB SWAP1 RETURN JUMPDEST PUSH2 0x455 PUSH2 0x2440 JUMP JUMPDEST PUSH1 0x40 MLOAD PUSH2 0x468 SWAP8 SWAP7 SWAP6 SWAP5 SWAP4 SWAP3 SWAP2 SWAP1 PUSH2 0x335E JUMP JUMPDEST PUSH1 0x40 MLOAD DUP1 SWAP2 SUB SWAP1 RETURN JUMPDEST PUSH2 0x479 PUSH2 0x25DC JUMP JUMPDEST PUSH1 0x40 MLOAD PUSH2 0x486 SWAP2 SWAP1 PUSH2 0x326C JUMP JUMPDEST PUSH1 0x40 MLOAD DUP1 SWAP2 SUB SWAP1 RETURN JUMPDEST PUSH2 0x4A9 PUSH1 0x4 DUP1 CALLDATASIZE SUB DUP2 ADD SWAP1 PUSH2 0x4A4 SWAP2 SWAP1 PUSH2 0x2E83 JUMP JUMPDEST PUSH2 0x2776 JUMP JUMPDEST PUSH1 0x40 MLOAD PUSH2 0x4B6 SWAP2 SWAP1 PUSH2 0x31A5 JUMP JUMPDEST PUSH1 0x40 MLOAD DUP1 SWAP2 SUB SWAP1 RETURN JUMPDEST PUSH2 0x4D9 PUSH1 0x4 DUP1 CALLDATASIZE SUB DUP2 ADD SWAP1 PUSH2 0x4D4 SWAP2 SWAP1 PUSH2 0x2D09 JUMP JUMPDEST PUSH2 0x288E JUMP JUMPDEST PUSH1 0x40 MLOAD PUSH2 0x4E6 SWAP2 SWAP1 PUSH2 0x31E2 JUMP JUMPDEST PUSH1 0x40 MLOAD DUP1 SWAP2 SUB SWAP1 RETURN JUMPDEST PUSH2 0x509 PUSH1 0x4 DUP1 CALLDATASIZE SUB DUP2 ADD SWAP1 PUSH2 0x504 SWAP2 SWAP1 PUSH2 0x2E83 JUMP JUMPDEST PUSH2 0x28CC JUMP JUMPDEST PUSH1 0x40 MLOAD PUSH2 0x516 SWAP2 SWAP1 PUSH2 0x31A5 JUMP JUMPDEST PUSH1 0x40 MLOAD DUP1 SWAP2 SUB SWAP1 RETURN JUMPDEST PUSH2 0x527 PUSH2 0x29A7 JUMP JUMPDEST PUSH1 0x40 MLOAD PUSH2 0x534 SWAP2 SWAP1 PUSH2 0x326C JUMP JUMPDEST PUSH1 0x40 MLOAD DUP1 SWAP2 SUB SWAP1 RETURN JUMPDEST PUSH2 0x557 PUSH1 0x4 DUP1 CALLDATASIZE SUB DUP2 ADD SWAP1 PUSH2 0x552 SWAP2 SWAP1 PUSH2 0x2CA4 JUMP JUMPDEST PUSH2 0x2A79 JUMP JUMPDEST PUSH1 0x40 MLOAD PUSH2 0x564 SWAP2 SWAP1 PUSH2 0x31C7 JUMP JUMPDEST PUSH1 0x40 MLOAD DUP1 SWAP2 SUB SWAP1 RETURN JUMPDEST PUSH1 0x5 PUSH1 0x0 CALLER PUSH20 0xFFFFFFFFFFFFFFFFFFFFFFFFFFFFFFFFFFFFFFFF AND PUSH20 0xFFFFFFFFFFFFFFFFFFFFFFFFFFFFFFFFFFFFFFFF AND DUP2 MSTORE PUSH1 0x20 ADD SWAP1 DUP2 MSTORE PUSH1 0x20 ADD PUSH1 0x0 KECCAK256 PUSH1 0x3 ADD PUSH1 0x0 SWAP1 SLOAD SWAP1 PUSH2 0x100 EXP SWAP1 DIV PUSH1 0xFF AND PUSH1 0x40 MLOAD DUP1 PUSH1 0x40 ADD PUSH1 0x40 MSTORE DUP1 PUSH1 0x5 DUP2 MSTORE PUSH1 0x20 ADD PUSH32 0x574D552D32000000000000000000000000000000000000000000000000000000 DUP2 MSTORE POP SWAP1 PUSH2 0x634 JUMPI PUSH1 0x40 MLOAD PUSH32 0x8C379A000000000000000000000000000000000000000000000000000000000 DUP2 MSTORE PUSH1 0x4 ADD PUSH2 0x62B SWAP2 SWAP1 PUSH2 0x326C JUMP JUMPDEST PUSH1 0x40 MLOAD DUP1 SWAP2 SUB SWAP1 REVERT JUMPDEST POP DUP1 PUSH1 0x5 PUSH1 0x0 CALLER PUSH20 0xFFFFFFFFFFFFFFFFFFFFFFFFFFFFFFFFFFFFFFFF AND PUSH20 0xFFFFFFFFFFFFFFFFFFFFFFFFFFFFFFFFFFFFFFFF AND DUP2 MSTORE PUSH1 0x20 ADD SWAP1 DUP2 MSTORE PUSH1 0x20 ADD PUSH1 0x0 KECCAK256 PUSH1 0x4 ADD SWAP1 DUP1 MLOAD SWAP1 PUSH1 0x20 ADD SWAP1 PUSH2 0x68B SWAP3 SWAP2 SWAP1 PUSH2 0x2B05 JUMP JUMPDEST POP POP JUMP JUMPDEST PUSH1 0x0 PUSH1 0x5 PUSH1 0x0 CALLER PUSH20 0xFFFFFFFFFFFFFFFFFFFFFFFFFFFFFFFFFFFFFFFF AND PUSH20 0xFFFFFFFFFFFFFFFFFFFFFFFFFFFFFFFFFFFFFFFF AND DUP2 MSTORE PUSH1 0x20 ADD SWAP1 DUP2 MSTORE PUSH1 0x20 ADD PUSH1 0x0 KECCAK256 PUSH1 0x1 ADD PUSH1 0x0 SWAP1 SLOAD SWAP1 PUSH2 0x100 EXP SWAP1 DIV PUSH1 0xFF AND PUSH1 0x40 MLOAD DUP1 PUSH1 0x40 ADD PUSH1 0x40 MSTORE DUP1 PUSH1 0x5 DUP2 MSTORE PUSH1 0x20 ADD PUSH32 0x574D552D35000000000000000000000000000000000000000000000000000000 DUP2 MSTORE POP SWAP1 PUSH2 0x758 JUMPI PUSH1 0x40 MLOAD PUSH32 0x8C379A000000000000000000000000000000000000000000000000000000000 DUP2 MSTORE PUSH1 0x4 ADD PUSH2 0x74F SWAP2 SWAP1 PUSH2 0x326C JUMP JUMPDEST PUSH1 0x40 MLOAD DUP1 SWAP2 SUB SWAP1 REVERT JUMPDEST POP PUSH1 0x0 PUSH1 0x5 PUSH1 0x0 CALLER PUSH20 0xFFFFFFFFFFFFFFFFFFFFFFFFFFFFFFFFFFFFFFFF AND PUSH20 0xFFFFFFFFFFFFFFFFFFFFFFFFFFFFFFFFFFFFFFFF AND DUP2 MSTORE PUSH1 0x20 ADD SWAP1 DUP2 MSTORE PUSH1 0x20 ADD PUSH1 0x0 KECCAK256 PUSH1 0x0 ADD DUP1 SLOAD PUSH2 0x7A8 SWAP1 PUSH2 0x3673 JUMP JUMPDEST DUP1 PUSH1 0x1F ADD PUSH1 0x20 DUP1 SWAP2 DIV MUL PUSH1 0x20 ADD PUSH1 0x40 MLOAD SWAP1 DUP2 ADD PUSH1 0x40 MSTORE DUP1 SWAP3 SWAP2 SWAP1 DUP2 DUP2 MSTORE PUSH1 0x20 ADD DUP3 DUP1 SLOAD PUSH2 0x7D4 SWAP1 PUSH2 0x3673 JUMP JUMPDEST DUP1 ISZERO PUSH2 0x821 JUMPI DUP1 PUSH1 0x1F LT PUSH2 0x7F6 JUMPI PUSH2 0x100 DUP1 DUP4 SLOAD DIV MUL DUP4 MSTORE SWAP2 PUSH1 0x20 ADD SWAP2 PUSH2 0x821 JUMP JUMPDEST DUP3 ADD SWAP2 SWAP1 PUSH1 0x0 MSTORE PUSH1 0x20 PUSH1 0x0 KECCAK256 SWAP1 JUMPDEST DUP2 SLOAD DUP2 MSTORE SWAP1 PUSH1 0x1 ADD SWAP1 PUSH1 0x20 ADD DUP1 DUP4 GT PUSH2 0x804 JUMPI DUP3 SWAP1 SUB PUSH1 0x1F AND DUP3 ADD SWAP2 JUMPDEST POP POP POP POP POP SWAP1 POP PUSH1 0x6 DUP2 PUSH1 0x40 MLOAD PUSH2 0x838 SWAP2 SWAP1 PUSH2 0x3173 JUMP JUMPDEST SWAP1 DUP2 MSTORE PUSH1 0x20 ADD PUSH1 0x40 MLOAD DUP1 SWAP2 SUB SWAP1 KECCAK256 PUSH1 0x0 PUSH2 0x100 EXP DUP2 SLOAD SWAP1 PUSH20 0xFFFFFFFFFFFFFFFFFFFFFFFFFFFFFFFFFFFFFFFF MUL NOT AND SWAP1 SSTORE PUSH1 0x5 PUSH1 0x0 CALLER PUSH20 0xFFFFFFFFFFFFFFFFFFFFFFFFFFFFFFFFFFFFFFFF AND PUSH20 0xFFFFFFFFFFFFFFFFFFFFFFFFFFFFFFFFFFFFFFFF AND DUP2 MSTORE PUSH1 0x20 ADD SWAP1 DUP2 MSTORE PUSH1 0x20 ADD PUSH1 0x0 KECCAK256 PUSH1 0x0 DUP1 DUP3 ADD PUSH1 0x0 PUSH2 0x8B9 SWAP2 SWAP1 PUSH2 0x2B8B JUMP JUMPDEST PUSH1 0x1 DUP3 ADD PUSH1 0x0 PUSH2 0x100 EXP DUP2 SLOAD SWAP1 PUSH1 0xFF MUL NOT AND SWAP1 SSTORE PUSH1 0x2 DUP3 ADD PUSH1 0x0 SWAP1 SSTORE PUSH1 0x3 DUP3 ADD PUSH1 0x0 PUSH2 0x100 EXP DUP2 SLOAD SWAP1 PUSH1 0xFF MUL NOT AND SWAP1 SSTORE PUSH1 0x4 DUP3 ADD PUSH1 0x0 PUSH2 0x8F9 SWAP2 SWAP1 PUSH2 0x2B8B JUMP JUMPDEST POP POP PUSH1 0x1 SWAP2 POP POP SWAP1 JUMP JUMPDEST PUSH1 0x1 PUSH1 0x20 MSTORE DUP1 PUSH1 0x0 MSTORE PUSH1 0x40 PUSH1 0x0 KECCAK256 PUSH1 0x0 SWAP2 POP SWAP1 POP DUP1 PUSH1 0x0 ADD DUP1 SLOAD PUSH2 0x926 SWAP1 PUSH2 0x3673 JUMP JUMPDEST DUP1 PUSH1 0x1F ADD PUSH1 0x20 DUP1 SWAP2 DIV MUL PUSH1 0x20 ADD PUSH1 0x40 MLOAD SWAP1 DUP2 ADD PUSH1 0x40 MSTORE DUP1 SWAP3 SWAP2 SWAP1 DUP2 DUP2 MSTORE PUSH1 0x20 ADD DUP3 DUP1 SLOAD PUSH2 0x952 SWAP1 PUSH2 0x3673 JUMP JUMPDEST DUP1 ISZERO PUSH2 0x99F JUMPI DUP1 PUSH1 0x1F LT PUSH2 0x974 JUMPI PUSH2 0x100 DUP1 DUP4 SLOAD DIV MUL DUP4 MSTORE SWAP2 PUSH1 0x20 ADD SWAP2 PUSH2 0x99F JUMP JUMPDEST DUP3 ADD SWAP2 SWAP1 PUSH1 0x0 MSTORE PUSH1 0x20 PUSH1 0x0 KECCAK256 SWAP1 JUMPDEST DUP2 SLOAD DUP2 MSTORE SWAP1 PUSH1 0x1 ADD SWAP1 PUSH1 0x20 ADD DUP1 DUP4 GT PUSH2 0x982 JUMPI DUP3 SWAP1 SUB PUSH1 0x1F AND DUP3 ADD SWAP2 JUMPDEST POP POP POP POP POP SWAP1 DUP1 PUSH1 0x1 ADD PUSH1 0x0 SWAP1 SLOAD SWAP1 PUSH2 0x100 EXP SWAP1 DIV PUSH20 0xFFFFFFFFFFFFFFFFFFFFFFFFFFFFFFFFFFFFFFFF AND SWAP1 DUP1 PUSH1 0x2 ADD SLOAD SWAP1 DUP1 PUSH1 0x3 ADD PUSH1 0x0 SWAP1 SLOAD SWAP1 PUSH2 0x100 EXP SWAP1 DIV PUSH20 0xFFFFFFFFFFFFFFFFFFFFFFFFFFFFFFFFFFFFFFFF AND SWAP1 DUP1 PUSH1 0x4 ADD DUP1 SLOAD PUSH2 0xA06 SWAP1 PUSH2 0x3673 JUMP JUMPDEST DUP1 PUSH1 0x1F ADD PUSH1 0x20 DUP1 SWAP2 DIV MUL PUSH1 0x20 ADD PUSH1 0x40 MLOAD SWAP1 DUP2 ADD PUSH1 0x40 MSTORE DUP1 SWAP3 SWAP2 SWAP1 DUP2 DUP2 MSTORE PUSH1 0x20 ADD DUP3 DUP1 SLOAD PUSH2 0xA32 SWAP1 PUSH2 0x3673 JUMP JUMPDEST DUP1 ISZERO PUSH2 0xA7F JUMPI DUP1 PUSH1 0x1F LT PUSH2 0xA54 JUMPI PUSH2 0x100 DUP1 DUP4 SLOAD DIV MUL DUP4 MSTORE SWAP2 PUSH1 0x20 ADD SWAP2 PUSH2 0xA7F JUMP JUMPDEST DUP3 ADD SWAP2 SWAP1 PUSH1 0x0 MSTORE PUSH1 0x20 PUSH1 0x0 KECCAK256 SWAP1 JUMPDEST DUP2 SLOAD DUP2 MSTORE SWAP1 PUSH1 0x1 ADD SWAP1 PUSH1 0x20 ADD DUP1 DUP4 GT PUSH2 0xA62 JUMPI DUP3 SWAP1 SUB PUSH1 0x1F AND DUP3 ADD SWAP2 JUMPDEST POP POP POP POP POP SWAP1 DUP1 PUSH1 0x5 ADD PUSH1 0x0 SWAP1 SLOAD SWAP1 PUSH2 0x100 EXP SWAP1 DIV PUSH1 0xFF AND SWAP1 POP DUP7 JUMP JUMPDEST PUSH1 0x5 PUSH1 0x0 CALLER PUSH20 0xFFFFFFFFFFFFFFFFFFFFFFFFFFFFFFFFFFFFFFFF AND PUSH20 0xFFFFFFFFFFFFFFFFFFFFFFFFFFFFFFFFFFFFFFFF AND DUP2 MSTORE PUSH1 0x20 ADD SWAP1 DUP2 MSTORE PUSH1 0x20 ADD PUSH1 0x0 KECCAK256 PUSH1 0x3 ADD PUSH1 0x0 SWAP1 SLOAD SWAP1 PUSH2 0x100 EXP SWAP1 DIV PUSH1 0xFF AND PUSH1 0x40 MLOAD DUP1 PUSH1 0x40 ADD PUSH1 0x40 MSTORE DUP1 PUSH1 0x5 DUP2 MSTORE PUSH1 0x20 ADD PUSH32 0x574D552D32000000000000000000000000000000000000000000000000000000 DUP2 MSTORE POP SWAP1 PUSH2 0xB63 JUMPI PUSH1 0x40 MLOAD PUSH32 0x8C379A000000000000000000000000000000000000000000000000000000000 DUP2 MSTORE PUSH1 0x4 ADD PUSH2 0xB5A SWAP2 SWAP1 PUSH2 0x326C JUMP JUMPDEST PUSH1 0x40 MLOAD DUP1 SWAP2 SUB SWAP1 REVERT JUMPDEST POP PUSH1 0x0 PUSH20 0xFFFFFFFFFFFFFFFFFFFFFFFFFFFFFFFFFFFFFFFF AND PUSH1 0x6 DUP3 PUSH1 0x40 MLOAD PUSH2 0xB8C SWAP2 SWAP1 PUSH2 0x3173 JUMP JUMPDEST SWAP1 DUP2 MSTORE PUSH1 0x20 ADD PUSH1 0x40 MLOAD DUP1 SWAP2 SUB SWAP1 KECCAK256 PUSH1 0x0 SWAP1 SLOAD SWAP1 PUSH2 0x100 EXP SWAP1 DIV PUSH20 0xFFFFFFFFFFFFFFFFFFFFFFFFFFFFFFFFFFFFFFFF AND PUSH20 0xFFFFFFFFFFFFFFFFFFFFFFFFFFFFFFFFFFFFFFFF AND EQ PUSH1 0x40 MLOAD DUP1 PUSH1 0x40 ADD PUSH1 0x40 MSTORE DUP1 PUSH1 0x5 DUP2 MSTORE PUSH1 0x20 ADD PUSH32 0x574D552D36000000000000000000000000000000000000000000000000000000 DUP2 MSTORE POP SWAP1 PUSH2 0xC49 JUMPI PUSH1 0x40 MLOAD PUSH32 0x8C379A000000000000000000000000000000000000000000000000000000000 DUP2 MSTORE PUSH1 0x4 ADD PUSH2 0xC40 SWAP2 SWAP1 PUSH2 0x326C JUMP JUMPDEST PUSH1 0x40 MLOAD DUP1 SWAP2 SUB SWAP1 REVERT JUMPDEST POP PUSH1 0x0 PUSH1 0x5 PUSH1 0x0 CALLER PUSH20 0xFFFFFFFFFFFFFFFFFFFFFFFFFFFFFFFFFFFFFFFF AND PUSH20 0xFFFFFFFFFFFFFFFFFFFFFFFFFFFFFFFFFFFFFFFF AND DUP2 MSTORE PUSH1 0x20 ADD SWAP1 DUP2 MSTORE PUSH1 0x20 ADD PUSH1 0x0 KECCAK256 PUSH1 0x0 ADD DUP1 SLOAD PUSH2 0xC99 SWAP1 PUSH2 0x3673 JUMP JUMPDEST DUP1 PUSH1 0x1F ADD PUSH1 0x20 DUP1 SWAP2 DIV MUL PUSH1 0x20 ADD PUSH1 0x40 MLOAD SWAP1 DUP2 ADD PUSH1 0x40 MSTORE DUP1 SWAP3 SWAP2 SWAP1 DUP2 DUP2 MSTORE PUSH1 0x20 ADD DUP3 DUP1 SLOAD PUSH2 0xCC5 SWAP1 PUSH2 0x3673 JUMP JUMPDEST DUP1 ISZERO PUSH2 0xD12 JUMPI DUP1 PUSH1 0x1F LT PUSH2 0xCE7 JUMPI PUSH2 0x100 DUP1 DUP4 SLOAD DIV MUL DUP4 MSTORE SWAP2 PUSH1 0x20 ADD SWAP2 PUSH2 0xD12 JUMP JUMPDEST DUP3 ADD SWAP2 SWAP1 PUSH1 0x0 MSTORE PUSH1 0x20 PUSH1 0x0 KECCAK256 SWAP1 JUMPDEST DUP2 SLOAD DUP2 MSTORE SWAP1 PUSH1 0x1 ADD SWAP1 PUSH1 0x20 ADD DUP1 DUP4 GT PUSH2 0xCF5 JUMPI DUP3 SWAP1 SUB PUSH1 0x1F AND DUP3 ADD SWAP2 JUMPDEST POP POP POP POP POP SWAP1 POP PUSH1 0x6 DUP2 PUSH1 0x40 MLOAD PUSH2 0xD29 SWAP2 SWAP1 PUSH2 0x3173 JUMP JUMPDEST SWAP1 DUP2 MSTORE PUSH1 0x20 ADD PUSH1 0x40 MLOAD DUP1 SWAP2 SUB SWAP1 KECCAK256 PUSH1 0x0 PUSH2 0x100 EXP DUP2 SLOAD SWAP1 PUSH20 0xFFFFFFFFFFFFFFFFFFFFFFFFFFFFFFFFFFFFFFFF MUL NOT AND SWAP1 SSTORE CALLER PUSH1 0x6 DUP4 PUSH1 0x40 MLOAD PUSH2 0xD6B SWAP2 SWAP1 PUSH2 0x3173 JUMP JUMPDEST SWAP1 DUP2 MSTORE PUSH1 0x20 ADD PUSH1 0x40 MLOAD DUP1 SWAP2 SUB SWAP1 KECCAK256 PUSH1 0x0 PUSH2 0x100 EXP DUP2 SLOAD DUP2 PUSH20 0xFFFFFFFFFFFFFFFFFFFFFFFFFFFFFFFFFFFFFFFF MUL NOT AND SWAP1 DUP4 PUSH20 0xFFFFFFFFFFFFFFFFFFFFFFFFFFFFFFFFFFFFFFFF AND MUL OR SWAP1 SSTORE POP DUP2 PUSH1 0x5 PUSH1 0x0 CALLER PUSH20 0xFFFFFFFFFFFFFFFFFFFFFFFFFFFFFFFFFFFFFFFF AND PUSH20 0xFFFFFFFFFFFFFFFFFFFFFFFFFFFFFFFFFFFFFFFF AND DUP2 MSTORE PUSH1 0x20 ADD SWAP1 DUP2 MSTORE PUSH1 0x20 ADD PUSH1 0x0 KECCAK256 PUSH1 0x0 ADD SWAP1 DUP1 MLOAD SWAP1 PUSH1 0x20 ADD SWAP1 PUSH2 0xE0D SWAP3 SWAP2 SWAP1 PUSH2 0x2B05 JUMP JUMPDEST POP POP POP JUMP JUMPDEST PUSH1 0x0 DUP1 PUSH1 0x0 PUSH1 0x60 PUSH1 0x0 PUSH1 0x60 PUSH1 0x0 PUSH2 0xE29 DUP10 DUP10 PUSH2 0x2AD2 JUMP JUMPDEST SWAP1 POP DUP1 PUSH1 0x1 PUSH1 0x0 DUP4 DUP2 MSTORE PUSH1 0x20 ADD SWAP1 DUP2 MSTORE PUSH1 0x20 ADD PUSH1 0x0 KECCAK256 PUSH1 0x1 ADD PUSH1 0x0 SWAP1 SLOAD SWAP1 PUSH2 0x100 EXP SWAP1 DIV PUSH20 0xFFFFFFFFFFFFFFFFFFFFFFFFFFFFFFFFFFFFFFFF AND PUSH1 0x1 PUSH1 0x0 DUP5 DUP2 MSTORE PUSH1 0x20 ADD SWAP1 DUP2 MSTORE PUSH1 0x20 ADD PUSH1 0x0 KECCAK256 PUSH1 0x2 ADD SLOAD PUSH1 0x1 PUSH1 0x0 DUP6 DUP2 MSTORE PUSH1 0x20 ADD SWAP1 DUP2 MSTORE PUSH1 0x20 ADD PUSH1 0x0 KECCAK256 PUSH1 0x0 ADD PUSH1 0x1 PUSH1 0x0 DUP7 DUP2 MSTORE PUSH1 0x20 ADD SWAP1 DUP2 MSTORE PUSH1 0x20 ADD PUSH1 0x0 KECCAK256 PUSH1 0x3 ADD PUSH1 0x0 SWAP1 SLOAD SWAP1 PUSH2 0x100 EXP SWAP1 DIV PUSH20 0xFFFFFFFFFFFFFFFFFFFFFFFFFFFFFFFFFFFFFFFF AND PUSH1 0x1 PUSH1 0x0 DUP8 DUP2 MSTORE PUSH1 0x20 ADD SWAP1 DUP2 MSTORE PUSH1 0x20 ADD PUSH1 0x0 KECCAK256 PUSH1 0x4 ADD DUP3 DUP1 SLOAD PUSH2 0xEE9 SWAP1 PUSH2 0x3673 JUMP JUMPDEST DUP1 PUSH1 0x1F ADD PUSH1 0x20 DUP1 SWAP2 DIV MUL PUSH1 0x20 ADD PUSH1 0x40 MLOAD SWAP1 DUP2 ADD PUSH1 0x40 MSTORE DUP1 SWAP3 SWAP2 SWAP1 DUP2 DUP2 MSTORE PUSH1 0x20 ADD DUP3 DUP1 SLOAD PUSH2 0xF15 SWAP1 PUSH2 0x3673 JUMP JUMPDEST DUP1 ISZERO PUSH2 0xF62 JUMPI DUP1 PUSH1 0x1F LT PUSH2 0xF37 JUMPI PUSH2 0x100 DUP1 DUP4 SLOAD DIV MUL DUP4 MSTORE SWAP2 PUSH1 0x20 ADD SWAP2 PUSH2 0xF62 JUMP JUMPDEST DUP3 ADD SWAP2 SWAP1 PUSH1 0x0 MSTORE PUSH1 0x20 PUSH1 0x0 KECCAK256 SWAP1 JUMPDEST DUP2 SLOAD DUP2 MSTORE SWAP1 PUSH1 0x1 ADD SWAP1 PUSH1 0x20 ADD DUP1 DUP4 GT PUSH2 0xF45 JUMPI DUP3 SWAP1 SUB PUSH1 0x1F AND DUP3 ADD SWAP2 JUMPDEST POP POP POP POP POP SWAP3 POP DUP1 DUP1 SLOAD PUSH2 0xF75 SWAP1 PUSH2 0x3673 JUMP JUMPDEST DUP1 PUSH1 0x1F ADD PUSH1 0x20 DUP1 SWAP2 DIV MUL PUSH1 0x20 ADD PUSH1 0x40 MLOAD SWAP1 DUP2 ADD PUSH1 0x40 MSTORE DUP1 SWAP3 SWAP2 SWAP1 DUP2 DUP2 MSTORE PUSH1 0x20 ADD DUP3 DUP1 SLOAD PUSH2 0xFA1 SWAP1 PUSH2 0x3673 JUMP JUMPDEST DUP1 ISZERO PUSH2 0xFEE JUMPI DUP1 PUSH1 0x1F LT PUSH2 0xFC3 JUMPI PUSH2 0x100 DUP1 DUP4 SLOAD DIV MUL DUP4 MSTORE SWAP2 PUSH1 0x20 ADD SWAP2 PUSH2 0xFEE JUMP JUMPDEST DUP3 ADD SWAP2 SWAP1 PUSH1 0x0 MSTORE PUSH1 0x20 PUSH1 0x0 KECCAK256 SWAP1 JUMPDEST DUP2 SLOAD DUP2 MSTORE SWAP1 PUSH1 0x1 ADD SWAP1 PUSH1 0x20 ADD DUP1 DUP4 GT PUSH2 0xFD1 JUMPI DUP3 SWAP1 SUB PUSH1 0x1F AND DUP3 ADD SWAP2 JUMPDEST POP POP POP POP POP SWAP1 POP SWAP7 POP SWAP7 POP SWAP7 POP SWAP7 POP SWAP7 POP SWAP7 POP POP SWAP3 SWAP6 POP SWAP3 SWAP6 POP SWAP3 SWAP6 JUMP JUMPDEST PUSH1 0x2 PUSH1 0x20 MSTORE DUP2 PUSH1 0x0 MSTORE PUSH1 0x40 PUSH1 0x0 KECCAK256 DUP2 DUP2 SLOAD DUP2 LT PUSH2 0x1028 JUMPI PUSH1 0x0 DUP1 REVERT JUMPDEST SWAP1 PUSH1 0x0 MSTORE PUSH1 0x20 PUSH1 0x0 KECCAK256 ADD PUSH1 0x0 SWAP2 POP SWAP2 POP POP SLOAD DUP2 JUMP JUMPDEST CALLER PUSH20 0xFFFFFFFFFFFFFFFFFFFFFFFFFFFFFFFFFFFFFFFF AND PUSH1 0x0 DUP1 SLOAD SWAP1 PUSH2 0x100 EXP SWAP1 DIV PUSH20 0xFFFFFFFFFFFFFFFFFFFFFFFFFFFFFFFFFFFFFFFF AND PUSH20 0xFFFFFFFFFFFFFFFFFFFFFFFFFFFFFFFFFFFFFFFF AND EQ PUSH2 0x10CB JUMPI PUSH1 0x40 MLOAD PUSH32 0x8C379A000000000000000000000000000000000000000000000000000000000 DUP2 MSTORE PUSH1 0x4 ADD PUSH2 0x10C2 SWAP1 PUSH2 0x342E JUMP JUMPDEST PUSH1 0x40 MLOAD DUP1 SWAP2 SUB SWAP1 REVERT JUMPDEST DUP2 PUSH1 0x1 PUSH1 0x0 DUP4 DUP2 MSTORE PUSH1 0x20 ADD SWAP1 DUP2 MSTORE PUSH1 0x20 ADD PUSH1 0x0 KECCAK256 PUSH1 0x3 ADD PUSH1 0x0 PUSH2 0x100 EXP DUP2 SLOAD DUP2 PUSH20 0xFFFFFFFFFFFFFFFFFFFFFFFFFFFFFFFFFFFFFFFF MUL NOT AND SWAP1 DUP4 PUSH20 0xFFFFFFFFFFFFFFFFFFFFFFFFFFFFFFFFFFFFFFFF AND MUL OR SWAP1 SSTORE POP PUSH1 0x2 PUSH1 0x0 DUP4 PUSH20 0xFFFFFFFFFFFFFFFFFFFFFFFFFFFFFFFFFFFFFFFF AND PUSH20 0xFFFFFFFFFFFFFFFFFFFFFFFFFFFFFFFFFFFFFFFF AND DUP2 MSTORE PUSH1 0x20 ADD SWAP1 DUP2 MSTORE PUSH1 0x20 ADD PUSH1 0x0 KECCAK256 DUP2 SWAP1 DUP1 PUSH1 0x1 DUP2 SLOAD ADD DUP1 DUP3 SSTORE DUP1 SWAP2 POP POP PUSH1 0x1 SWAP1 SUB SWAP1 PUSH1 0x0 MSTORE PUSH1 0x20 PUSH1 0x0 KECCAK256 ADD PUSH1 0x0 SWAP1 SWAP2 SWAP1 SWAP2 SWAP1 SWAP2 POP SSTORE POP POP JUMP JUMPDEST PUSH1 0x0 PUSH2 0x1196 DUP5 DUP5 PUSH2 0x2AD2 JUMP JUMPDEST SWAP1 POP PUSH1 0x5 PUSH1 0x0 CALLER PUSH20 0xFFFFFFFFFFFFFFFFFFFFFFFFFFFFFFFFFFFFFFFF AND PUSH20 0xFFFFFFFFFFFFFFFFFFFFFFFFFFFFFFFFFFFFFFFF AND DUP2 MSTORE PUSH1 0x20 ADD SWAP1 DUP2 MSTORE PUSH1 0x20 ADD PUSH1 0x0 KECCAK256 PUSH1 0x3 ADD PUSH1 0x0 SWAP1 SLOAD SWAP1 PUSH2 0x100 EXP SWAP1 DIV PUSH1 0xFF AND DUP1 ISZERO PUSH2 0x1255 JUMPI POP CALLER PUSH20 0xFFFFFFFFFFFFFFFFFFFFFFFFFFFFFFFFFFFFFFFF AND PUSH1 0x1 PUSH1 0x0 DUP4 DUP2 MSTORE PUSH1 0x20 ADD SWAP1 DUP2 MSTORE PUSH1 0x20 ADD PUSH1 0x0 KECCAK256 PUSH1 0x3 ADD PUSH1 0x0 SWAP1 SLOAD SWAP1 PUSH2 0x100 EXP SWAP1 DIV PUSH20 0xFFFFFFFFFFFFFFFFFFFFFFFFFFFFFFFFFFFFFFFF AND PUSH20 0xFFFFFFFFFFFFFFFFFFFFFFFFFFFFFFFFFFFFFFFF AND EQ JUMPDEST PUSH1 0x40 MLOAD DUP1 PUSH1 0x40 ADD PUSH1 0x40 MSTORE DUP1 PUSH1 0x5 DUP2 MSTORE PUSH1 0x20 ADD PUSH32 0x574D552D32000000000000000000000000000000000000000000000000000000 DUP2 MSTORE POP SWAP1 PUSH2 0x12CC JUMPI PUSH1 0x40 MLOAD PUSH32 0x8C379A000000000000000000000000000000000000000000000000000000000 DUP2 MSTORE PUSH1 0x4 ADD PUSH2 0x12C3 SWAP2 SWAP1 PUSH2 0x326C JUMP JUMPDEST PUSH1 0x40 MLOAD DUP1 SWAP2 SUB SWAP1 REVERT JUMPDEST POP DUP2 PUSH1 0x1 PUSH1 0x0 DUP4 DUP2 MSTORE PUSH1 0x20 ADD SWAP1 DUP2 MSTORE PUSH1 0x20 ADD PUSH1 0x0 KECCAK256 PUSH1 0x5 ADD PUSH1 0x0 PUSH2 0x100 EXP DUP2 SLOAD DUP2 PUSH1 0xFF MUL NOT AND SWAP1 DUP4 PUSH1 0x6 DUP2 GT ISZERO PUSH2 0x132C JUMPI PUSH32 0x4E487B7100000000000000000000000000000000000000000000000000000000 PUSH1 0x0 MSTORE PUSH1 0x21 PUSH1 0x4 MSTORE PUSH1 0x24 PUSH1 0x0 REVERT JUMPDEST MUL OR SWAP1 SSTORE POP PUSH1 0x3 PUSH1 0x0 DUP4 PUSH1 0x6 DUP2 GT ISZERO PUSH2 0x136E JUMPI PUSH32 0x4E487B7100000000000000000000000000000000000000000000000000000000 PUSH1 0x0 MSTORE PUSH1 0x21 PUSH1 0x4 MSTORE PUSH1 0x24 PUSH1 0x0 REVERT JUMPDEST PUSH1 0x6 DUP2 GT ISZERO PUSH2 0x13A6 JUMPI PUSH32 0x4E487B7100000000000000000000000000000000000000000000000000000000 PUSH1 0x0 MSTORE PUSH1 0x21 PUSH1 0x4 MSTORE PUSH1 0x24 PUSH1 0x0 REVERT JUMPDEST DUP2 MSTORE PUSH1 0x20 ADD SWAP1 DUP2 MSTORE PUSH1 0x20 ADD PUSH1 0x0 KECCAK256 DUP2 SWAP1 DUP1 PUSH1 0x1 DUP2 SLOAD ADD DUP1 DUP3 SSTORE DUP1 SWAP2 POP POP PUSH1 0x1 SWAP1 SUB SWAP1 PUSH1 0x0 MSTORE PUSH1 0x20 PUSH1 0x0 KECCAK256 ADD PUSH1 0x0 SWAP1 SWAP2 SWAP1 SWAP2 SWAP1 SWAP2 POP SSTORE PUSH1 0x4 PUSH1 0x0 CALLER PUSH20 0xFFFFFFFFFFFFFFFFFFFFFFFFFFFFFFFFFFFFFFFF AND PUSH20 0xFFFFFFFFFFFFFFFFFFFFFFFFFFFFFFFFFFFFFFFF AND DUP2 MSTORE PUSH1 0x20 ADD SWAP1 DUP2 MSTORE PUSH1 0x20 ADD PUSH1 0x0 KECCAK256 PUSH1 0x0 DUP4 PUSH1 0x6 DUP2 GT ISZERO PUSH2 0x1455 JUMPI PUSH32 0x4E487B7100000000000000000000000000000000000000000000000000000000 PUSH1 0x0 MSTORE PUSH1 0x21 PUSH1 0x4 MSTORE PUSH1 0x24 PUSH1 0x0 REVERT JUMPDEST PUSH1 0x6 DUP2 GT ISZERO PUSH2 0x148D JUMPI PUSH32 0x4E487B7100000000000000000000000000000000000000000000000000000000 PUSH1 0x0 MSTORE PUSH1 0x21 PUSH1 0x4 MSTORE PUSH1 0x24 PUSH1 0x0 REVERT JUMPDEST DUP2 MSTORE PUSH1 0x20 ADD SWAP1 DUP2 MSTORE PUSH1 0x20 ADD PUSH1 0x0 KECCAK256 DUP2 SWAP1 DUP1 PUSH1 0x1 DUP2 SLOAD ADD DUP1 DUP3 SSTORE DUP1 SWAP2 POP POP PUSH1 0x1 SWAP1 SUB SWAP1 PUSH1 0x0 MSTORE PUSH1 0x20 PUSH1 0x0 KECCAK256 ADD PUSH1 0x0 SWAP1 SWAP2 SWAP1 SWAP2 SWAP1 SWAP2 POP SSTORE POP POP POP POP JUMP JUMPDEST PUSH1 0x5 PUSH1 0x0 CALLER PUSH20 0xFFFFFFFFFFFFFFFFFFFFFFFFFFFFFFFFFFFFFFFF AND PUSH20 0xFFFFFFFFFFFFFFFFFFFFFFFFFFFFFFFFFFFFFFFF AND DUP2 MSTORE PUSH1 0x20 ADD SWAP1 DUP2 MSTORE PUSH1 0x20 ADD PUSH1 0x0 KECCAK256 PUSH1 0x1 ADD PUSH1 0x0 SWAP1 SLOAD SWAP1 PUSH2 0x100 EXP SWAP1 DIV PUSH1 0xFF AND PUSH1 0x40 MLOAD DUP1 PUSH1 0x40 ADD PUSH1 0x40 MSTORE DUP1 PUSH1 0x5 DUP2 MSTORE PUSH1 0x20 ADD PUSH32 0x574D552D31000000000000000000000000000000000000000000000000000000 DUP2 MSTORE POP SWAP1 PUSH2 0x158F JUMPI PUSH1 0x40 MLOAD PUSH32 0x8C379A000000000000000000000000000000000000000000000000000000000 DUP2 MSTORE PUSH1 0x4 ADD PUSH2 0x1586 SWAP2 SWAP1 PUSH2 0x326C JUMP JUMPDEST PUSH1 0x40 MLOAD DUP1 SWAP2 SUB SWAP1 REVERT JUMPDEST POP PUSH1 0x5 PUSH1 0x0 CALLER PUSH20 0xFFFFFFFFFFFFFFFFFFFFFFFFFFFFFFFFFFFFFFFF AND PUSH20 0xFFFFFFFFFFFFFFFFFFFFFFFFFFFFFFFFFFFFFFFF AND DUP2 MSTORE PUSH1 0x20 ADD SWAP1 DUP2 MSTORE PUSH1 0x20 ADD PUSH1 0x0 KECCAK256 PUSH1 0x3 ADD PUSH1 0x0 SWAP1 SLOAD SWAP1 PUSH2 0x100 EXP SWAP1 DIV PUSH1 0xFF AND ISZERO PUSH1 0x40 MLOAD DUP1 PUSH1 0x40 ADD PUSH1 0x40 MSTORE DUP1 PUSH1 0x5 DUP2 MSTORE PUSH1 0x20 ADD PUSH32 0x574D552D33000000000000000000000000000000000000000000000000000000 DUP2 MSTORE POP SWAP1 PUSH2 0x1658 JUMPI PUSH1 0x40 MLOAD PUSH32 0x8C379A000000000000000000000000000000000000000000000000000000000 DUP2 MSTORE PUSH1 0x4 ADD PUSH2 0x164F SWAP2 SWAP1 PUSH2 0x326C JUMP JUMPDEST PUSH1 0x40 MLOAD DUP1 SWAP2 SUB SWAP1 REVERT JUMPDEST POP PUSH1 0x1 PUSH1 0x5 PUSH1 0x0 CALLER PUSH20 0xFFFFFFFFFFFFFFFFFFFFFFFFFFFFFFFFFFFFFFFF AND PUSH20 0xFFFFFFFFFFFFFFFFFFFFFFFFFFFFFFFFFFFFFFFF AND DUP2 MSTORE PUSH1 0x20 ADD SWAP1 DUP2 MSTORE PUSH1 0x20 ADD PUSH1 0x0 KECCAK256 PUSH1 0x3 ADD PUSH1 0x0 PUSH2 0x100 EXP DUP2 SLOAD DUP2 PUSH1 0xFF MUL NOT AND SWAP1 DUP4 ISZERO ISZERO MUL OR SWAP1 SSTORE POP CALLER PUSH20 0xFFFFFFFFFFFFFFFFFFFFFFFFFFFFFFFFFFFFFFFF AND PUSH32 0x364034DE78A61B6190B049E2C5437370B27906BFED607993A5BC2DDA23C16CFF TIMESTAMP PUSH1 0x40 MLOAD PUSH2 0x16FA SWAP2 SWAP1 PUSH2 0x344E JUMP JUMPDEST PUSH1 0x40 MLOAD DUP1 SWAP2 SUB SWAP1 LOG2 JUMP JUMPDEST PUSH1 0x60 PUSH1 0x0 DUP1 PUSH1 0x0 PUSH1 0x60 PUSH1 0x0 DUP7 SWAP1 POP PUSH1 0x1 PUSH1 0x0 DUP3 DUP2 MSTORE PUSH1 0x20 ADD SWAP1 DUP2 MSTORE PUSH1 0x20 ADD PUSH1 0x0 KECCAK256 PUSH1 0x0 ADD PUSH1 0x1 PUSH1 0x0 DUP4 DUP2 MSTORE PUSH1 0x20 ADD SWAP1 DUP2 MSTORE PUSH1 0x20 ADD PUSH1 0x0 KECCAK256 PUSH1 0x1 ADD PUSH1 0x0 SWAP1 SLOAD SWAP1 PUSH2 0x100 EXP SWAP1 DIV PUSH20 0xFFFFFFFFFFFFFFFFFFFFFFFFFFFFFFFFFFFFFFFF AND PUSH1 0x1 PUSH1 0x0 DUP5 DUP2 MSTORE PUSH1 0x20 ADD SWAP1 DUP2 MSTORE PUSH1 0x20 ADD PUSH1 0x0 KECCAK256 PUSH1 0x2 ADD SLOAD PUSH1 0x1 PUSH1 0x0 DUP6 DUP2 MSTORE PUSH1 0x20 ADD SWAP1 DUP2 MSTORE PUSH1 0x20 ADD PUSH1 0x0 KECCAK256 PUSH1 0x3 ADD PUSH1 0x0 SWAP1 SLOAD SWAP1 PUSH2 0x100 EXP SWAP1 DIV PUSH20 0xFFFFFFFFFFFFFFFFFFFFFFFFFFFFFFFFFFFFFFFF AND PUSH1 0x1 PUSH1 0x0 DUP7 DUP2 MSTORE PUSH1 0x20 ADD SWAP1 DUP2 MSTORE PUSH1 0x20 ADD PUSH1 0x0 KECCAK256 PUSH1 0x4 ADD DUP5 DUP1 SLOAD PUSH2 0x17CF SWAP1 PUSH2 0x3673 JUMP JUMPDEST DUP1 PUSH1 0x1F ADD PUSH1 0x20 DUP1 SWAP2 DIV MUL PUSH1 0x20 ADD PUSH1 0x40 MLOAD SWAP1 DUP2 ADD PUSH1 0x40 MSTORE DUP1 SWAP3 SWAP2 SWAP1 DUP2 DUP2 MSTORE PUSH1 0x20 ADD DUP3 DUP1 SLOAD PUSH2 0x17FB SWAP1 PUSH2 0x3673 JUMP JUMPDEST DUP1 ISZERO PUSH2 0x1848 JUMPI DUP1 PUSH1 0x1F LT PUSH2 0x181D JUMPI PUSH2 0x100 DUP1 DUP4 SLOAD DIV MUL DUP4 MSTORE SWAP2 PUSH1 0x20 ADD SWAP2 PUSH2 0x1848 JUMP JUMPDEST DUP3 ADD SWAP2 SWAP1 PUSH1 0x0 MSTORE PUSH1 0x20 PUSH1 0x0 KECCAK256 SWAP1 JUMPDEST DUP2 SLOAD DUP2 MSTORE SWAP1 PUSH1 0x1 ADD SWAP1 PUSH1 0x20 ADD DUP1 DUP4 GT PUSH2 0x182B JUMPI DUP3 SWAP1 SUB PUSH1 0x1F AND DUP3 ADD SWAP2 JUMPDEST POP POP POP POP POP SWAP5 POP DUP1 DUP1 SLOAD PUSH2 0x185B SWAP1 PUSH2 0x3673 JUMP JUMPDEST DUP1 PUSH1 0x1F ADD PUSH1 0x20 DUP1 SWAP2 DIV MUL PUSH1 0x20 ADD PUSH1 0x40 MLOAD SWAP1 DUP2 ADD PUSH1 0x40 MSTORE DUP1 SWAP3 SWAP2 SWAP1 DUP2 DUP2 MSTORE PUSH1 0x20 ADD DUP3 DUP1 SLOAD PUSH2 0x1887 SWAP1 PUSH2 0x3673 JUMP JUMPDEST DUP1 ISZERO PUSH2 0x18D4 JUMPI DUP1 PUSH1 0x1F LT PUSH2 0x18A9 JUMPI PUSH2 0x100 DUP1 DUP4 SLOAD DIV MUL DUP4 MSTORE SWAP2 PUSH1 0x20 ADD SWAP2 PUSH2 0x18D4 JUMP JUMPDEST DUP3 ADD SWAP2 SWAP1 PUSH1 0x0 MSTORE PUSH1 0x20 PUSH1 0x0 KECCAK256 SWAP1 JUMPDEST DUP2 SLOAD DUP2 MSTORE SWAP1 PUSH1 0x1 ADD SWAP1 PUSH1 0x20 ADD DUP1 DUP4 GT PUSH2 0x18B7 JUMPI DUP3 SWAP1 SUB PUSH1 0x1F AND DUP3 ADD SWAP2 JUMPDEST POP POP POP POP POP SWAP1 POP SWAP6 POP SWAP6 POP SWAP6 POP SWAP6 POP SWAP6 POP POP SWAP2 SWAP4 SWAP6 SWAP1 SWAP3 SWAP5 POP JUMP JUMPDEST PUSH1 0x5 PUSH1 0x0 CALLER PUSH20 0xFFFFFFFFFFFFFFFFFFFFFFFFFFFFFFFFFFFFFFFF AND PUSH20 0xFFFFFFFFFFFFFFFFFFFFFFFFFFFFFFFFFFFFFFFF AND DUP2 MSTORE PUSH1 0x20 ADD SWAP1 DUP2 MSTORE PUSH1 0x20 ADD PUSH1 0x0 KECCAK256 PUSH1 0x3 ADD PUSH1 0x0 SWAP1 SLOAD SWAP1 PUSH2 0x100 EXP SWAP1 DIV PUSH1 0xFF AND PUSH1 0x40 MLOAD DUP1 PUSH1 0x40 ADD PUSH1 0x40 MSTORE DUP1 PUSH1 0x5 DUP2 MSTORE PUSH1 0x20 ADD PUSH32 0x574D552D32000000000000000000000000000000000000000000000000000000 DUP2 MSTORE POP SWAP1 PUSH2 0x19B6 JUMPI PUSH1 0x40 MLOAD PUSH32 0x8C379A000000000000000000000000000000000000000000000000000000000 DUP2 MSTORE PUSH1 0x4 ADD PUSH2 0x19AD SWAP2 SWAP1 PUSH2 0x326C JUMP JUMPDEST PUSH1 0x40 MLOAD DUP1 SWAP2 SUB SWAP1 REVERT JUMPDEST POP PUSH1 0x0 PUSH1 0x5 PUSH1 0x0 CALLER PUSH20 0xFFFFFFFFFFFFFFFFFFFFFFFFFFFFFFFFFFFFFFFF AND PUSH20 0xFFFFFFFFFFFFFFFFFFFFFFFFFFFFFFFFFFFFFFFF AND DUP2 MSTORE PUSH1 0x20 ADD SWAP1 DUP2 MSTORE PUSH1 0x20 ADD PUSH1 0x0 KECCAK256 PUSH1 0x3 ADD PUSH1 0x0 PUSH2 0x100 EXP DUP2 SLOAD DUP2 PUSH1 0xFF MUL NOT AND SWAP1 DUP4 ISZERO ISZERO MUL OR SWAP1 SSTORE POP CALLER PUSH20 0xFFFFFFFFFFFFFFFFFFFFFFFFFFFFFFFFFFFFFFFF AND PUSH32 0x70D1177AA26C67F6B2FDB43400CFD7FF0C23A8712301ABE5ABA2EE3D89E28A10 TIMESTAMP PUSH1 0x40 MLOAD PUSH2 0x1A58 SWAP2 SWAP1 PUSH2 0x344E JUMP JUMPDEST PUSH1 0x40 MLOAD DUP1 SWAP2 SUB SWAP1 LOG2 JUMP JUMPDEST PUSH1 0x60 PUSH1 0x2 PUSH1 0x0 DUP4 PUSH20 0xFFFFFFFFFFFFFFFFFFFFFFFFFFFFFFFFFFFFFFFF AND PUSH20 0xFFFFFFFFFFFFFFFFFFFFFFFFFFFFFFFFFFFFFFFF AND DUP2 MSTORE PUSH1 0x20 ADD SWAP1 DUP2 MSTORE PUSH1 0x20 ADD PUSH1 0x0 KECCAK256 DUP1 SLOAD DUP1 PUSH1 0x20 MUL PUSH1 0x20 ADD PUSH1 0x40 MLOAD SWAP1 DUP2 ADD PUSH1 0x40 MSTORE DUP1 SWAP3 SWAP2 SWAP1 DUP2 DUP2 MSTORE PUSH1 0x20 ADD DUP3 DUP1 SLOAD DUP1 ISZERO PUSH2 0x1AED JUMPI PUSH1 0x20 MUL DUP3 ADD SWAP2 SWAP1 PUSH1 0x0 MSTORE PUSH1 0x20 PUSH1 0x0 KECCAK256 SWAP1 JUMPDEST DUP2 SLOAD DUP2 MSTORE PUSH1 0x20 ADD SWAP1 PUSH1 0x1 ADD SWAP1 DUP1 DUP4 GT PUSH2 0x1AD9 JUMPI JUMPDEST POP POP POP POP POP SWAP1 POP SWAP2 SWAP1 POP JUMP JUMPDEST PUSH1 0x6 DUP2 DUP1 MLOAD PUSH1 0x20 DUP2 ADD DUP3 ADD DUP1 MLOAD DUP5 DUP3 MSTORE PUSH1 0x20 DUP4 ADD PUSH1 0x20 DUP6 ADD KECCAK256 DUP2 DUP4 MSTORE DUP1 SWAP6 POP POP POP POP POP POP PUSH1 0x0 SWAP2 POP SLOAD SWAP1 PUSH2 0x100 EXP SWAP1 DIV PUSH20 0xFFFFFFFFFFFFFFFFFFFFFFFFFFFFFFFFFFFFFFFF AND DUP2 JUMP JUMPDEST PUSH1 0x5 PUSH1 0x0 CALLER PUSH20 0xFFFFFFFFFFFFFFFFFFFFFFFFFFFFFFFFFFFFFFFF AND PUSH20 0xFFFFFFFFFFFFFFFFFFFFFFFFFFFFFFFFFFFFFFFF AND DUP2 MSTORE PUSH1 0x20 ADD SWAP1 DUP2 MSTORE PUSH1 0x20 ADD PUSH1 0x0 KECCAK256 PUSH1 0x3 ADD PUSH1 0x0 SWAP1 SLOAD SWAP1 PUSH2 0x100 EXP SWAP1 DIV PUSH1 0xFF AND PUSH1 0x40 MLOAD DUP1 PUSH1 0x40 ADD PUSH1 0x40 MSTORE DUP1 PUSH1 0x5 DUP2 MSTORE PUSH1 0x20 ADD PUSH32 0x574D552D32000000000000000000000000000000000000000000000000000000 DUP2 MSTORE POP SWAP1 PUSH2 0x1C09 JUMPI PUSH1 0x40 MLOAD PUSH32 0x8C379A000000000000000000000000000000000000000000000000000000000 DUP2 MSTORE PUSH1 0x4 ADD PUSH2 0x1C00 SWAP2 SWAP1 PUSH2 0x326C JUMP JUMPDEST PUSH1 0x40 MLOAD DUP1 SWAP2 SUB SWAP1 REVERT JUMPDEST POP PUSH1 0x0 PUSH2 0x1C16 DUP5 DUP5 PUSH2 0x2AD2 JUMP JUMPDEST SWAP1 POP DUP5 PUSH1 0x1 PUSH1 0x0 DUP4 DUP2 MSTORE PUSH1 0x20 ADD SWAP1 DUP2 MSTORE PUSH1 0x20 ADD PUSH1 0x0 KECCAK256 PUSH1 0x0 ADD SWAP1 DUP1 MLOAD SWAP1 PUSH1 0x20 ADD SWAP1 PUSH2 0x1C42 SWAP3 SWAP2 SWAP1 PUSH2 0x2B05 JUMP JUMPDEST POP DUP4 PUSH1 0x1 PUSH1 0x0 DUP4 DUP2 MSTORE PUSH1 0x20 ADD SWAP1 DUP2 MSTORE PUSH1 0x20 ADD PUSH1 0x0 KECCAK256 PUSH1 0x1 ADD PUSH1 0x0 PUSH2 0x100 EXP DUP2 SLOAD DUP2 PUSH20 0xFFFFFFFFFFFFFFFFFFFFFFFFFFFFFFFFFFFFFFFF MUL NOT AND SWAP1 DUP4 PUSH20 0xFFFFFFFFFFFFFFFFFFFFFFFFFFFFFFFFFFFFFFFF AND MUL OR SWAP1 SSTORE POP DUP3 PUSH1 0x1 PUSH1 0x0 DUP4 DUP2 MSTORE PUSH1 0x20 ADD SWAP1 DUP2 MSTORE PUSH1 0x20 ADD PUSH1 0x0 KECCAK256 PUSH1 0x2 ADD DUP2 SWAP1 SSTORE POP CALLER PUSH1 0x1 PUSH1 0x0 DUP4 DUP2 MSTORE PUSH1 0x20 ADD SWAP1 DUP2 MSTORE PUSH1 0x20 ADD PUSH1 0x0 KECCAK256 PUSH1 0x3 ADD PUSH1 0x0 PUSH2 0x100 EXP DUP2 SLOAD DUP2 PUSH20 0xFFFFFFFFFFFFFFFFFFFFFFFFFFFFFFFFFFFFFFFF MUL NOT AND SWAP1 DUP4 PUSH20 0xFFFFFFFFFFFFFFFFFFFFFFFFFFFFFFFFFFFFFFFF AND MUL OR SWAP1 SSTORE POP DUP2 PUSH1 0x1 PUSH1 0x0 DUP4 DUP2 MSTORE PUSH1 0x20 ADD SWAP1 DUP2 MSTORE PUSH1 0x20 ADD PUSH1 0x0 KECCAK256 PUSH1 0x4 ADD SWAP1 DUP1 MLOAD SWAP1 PUSH1 0x20 ADD SWAP1 PUSH2 0x1D32 SWAP3 SWAP2 SWAP1 PUSH2 0x2B05 JUMP JUMPDEST POP PUSH1 0x2 PUSH1 0x0 CALLER PUSH20 0xFFFFFFFFFFFFFFFFFFFFFFFFFFFFFFFFFFFFFFFF AND PUSH20 0xFFFFFFFFFFFFFFFFFFFFFFFFFFFFFFFFFFFFFFFF AND DUP2 MSTORE PUSH1 0x20 ADD SWAP1 DUP2 MSTORE PUSH1 0x20 ADD PUSH1 0x0 KECCAK256 DUP2 SWAP1 DUP1 PUSH1 0x1 DUP2 SLOAD ADD DUP1 DUP3 SSTORE DUP1 SWAP2 POP POP PUSH1 0x1 SWAP1 SUB SWAP1 PUSH1 0x0 MSTORE PUSH1 0x20 PUSH1 0x0 KECCAK256 ADD PUSH1 0x0 SWAP1 SWAP2 SWAP1 SWAP2 SWAP1 SWAP2 POP SSTORE POP POP POP POP POP JUMP JUMPDEST PUSH1 0x7 PUSH1 0x20 MSTORE DUP1 PUSH1 0x0 MSTORE PUSH1 0x40 PUSH1 0x0 KECCAK256 PUSH1 0x0 SWAP2 POP SWAP1 POP DUP1 PUSH1 0x0 ADD SLOAD SWAP1 DUP1 PUSH1 0x1 ADD SLOAD SWAP1 DUP1 PUSH1 0x2 ADD SLOAD SWAP1 DUP1 PUSH1 0x3 ADD SLOAD SWAP1 POP DUP5 JUMP JUMPDEST DUP4 PUSH1 0x7 PUSH1 0x0 DUP8 PUSH20 0xFFFFFFFFFFFFFFFFFFFFFFFFFFFFFFFFFFFFFFFF AND PUSH20 0xFFFFFFFFFFFFFFFFFFFFFFFFFFFFFFFFFFFFFFFF AND DUP2 MSTORE PUSH1 0x20 ADD SWAP1 DUP2 MSTORE PUSH1 0x20 ADD PUSH1 0x0 KECCAK256 PUSH1 0x0 ADD PUSH1 0x0 DUP3 DUP3 SLOAD PUSH2 0x1E22 SWAP2 SWAP1 PUSH2 0x3564 JUMP JUMPDEST SWAP3 POP POP DUP2 SWAP1 SSTORE POP DUP3 PUSH1 0x7 PUSH1 0x0 DUP8 PUSH20 0xFFFFFFFFFFFFFFFFFFFFFFFFFFFFFFFFFFFFFFFF AND PUSH20 0xFFFFFFFFFFFFFFFFFFFFFFFFFFFFFFFFFFFFFFFF AND DUP2 MSTORE PUSH1 0x20 ADD SWAP1 DUP2 MSTORE PUSH1 0x20 ADD PUSH1 0x0 KECCAK256 PUSH1 0x1 ADD PUSH1 0x0 DUP3 DUP3 SLOAD PUSH2 0x1E7B SWAP2 SWAP1 PUSH2 0x3564 JUMP JUMPDEST SWAP3 POP POP DUP2 SWAP1 SSTORE POP DUP2 PUSH1 0x7 PUSH1 0x0 DUP8 PUSH20 0xFFFFFFFFFFFFFFFFFFFFFFFFFFFFFFFFFFFFFFFF AND PUSH20 0xFFFFFFFFFFFFFFFFFFFFFFFFFFFFFFFFFFFFFFFF AND DUP2 MSTORE PUSH1 0x20 ADD SWAP1 DUP2 MSTORE PUSH1 0x20 ADD PUSH1 0x0 KECCAK256 PUSH1 0x2 ADD PUSH1 0x0 DUP3 DUP3 SLOAD PUSH2 0x1ED4 SWAP2 SWAP1 PUSH2 0x3564 JUMP JUMPDEST SWAP3 POP POP DUP2 SWAP1 SSTORE POP DUP1 PUSH1 0x7 PUSH1 0x0 DUP8 PUSH20 0xFFFFFFFFFFFFFFFFFFFFFFFFFFFFFFFFFFFFFFFF AND PUSH20 0xFFFFFFFFFFFFFFFFFFFFFFFFFFFFFFFFFFFFFFFF AND DUP2 MSTORE PUSH1 0x20 ADD SWAP1 DUP2 MSTORE PUSH1 0x20 ADD PUSH1 0x0 KECCAK256 PUSH1 0x3 ADD PUSH1 0x0 DUP3 DUP3 SLOAD PUSH2 0x1F2D SWAP2 SWAP1 PUSH2 0x3564 JUMP JUMPDEST SWAP3 POP POP DUP2 SWAP1 SSTORE POP POP POP POP POP POP JUMP JUMPDEST PUSH1 0x0 DUP1 PUSH1 0x0 DUP1 PUSH1 0x7 PUSH1 0x0 DUP7 PUSH20 0xFFFFFFFFFFFFFFFFFFFFFFFFFFFFFFFFFFFFFFFF AND PUSH20 0xFFFFFFFFFFFFFFFFFFFFFFFFFFFFFFFFFFFFFFFF AND DUP2 MSTORE PUSH1 0x20 ADD SWAP1 DUP2 MSTORE PUSH1 0x20 ADD PUSH1 0x0 KECCAK256 PUSH1 0x2 ADD SLOAD PUSH1 0x7 PUSH1 0x0 DUP8 PUSH20 0xFFFFFFFFFFFFFFFFFFFFFFFFFFFFFFFFFFFFFFFF AND PUSH20 0xFFFFFFFFFFFFFFFFFFFFFFFFFFFFFFFFFFFFFFFF AND DUP2 MSTORE PUSH1 0x20 ADD SWAP1 DUP2 MSTORE PUSH1 0x20 ADD PUSH1 0x0 KECCAK256 PUSH1 0x3 ADD SLOAD PUSH1 0x7 PUSH1 0x0 DUP9 PUSH20 0xFFFFFFFFFFFFFFFFFFFFFFFFFFFFFFFFFFFFFFFF AND PUSH20 0xFFFFFFFFFFFFFFFFFFFFFFFFFFFFFFFFFFFFFFFF AND DUP2 MSTORE PUSH1 0x20 ADD SWAP1 DUP2 MSTORE PUSH1 0x20 ADD PUSH1 0x0 KECCAK256 PUSH1 0x0 ADD SLOAD PUSH1 0x7 PUSH1 0x0 DUP10 PUSH20 0xFFFFFFFFFFFFFFFFFFFFFFFFFFFFFFFFFFFFFFFF AND PUSH20 0xFFFFFFFFFFFFFFFFFFFFFFFFFFFFFFFFFFFFFFFF AND DUP2 MSTORE PUSH1 0x20 ADD SWAP1 DUP2 MSTORE PUSH1 0x20 ADD PUSH1 0x0 KECCAK256 PUSH1 0x1 ADD SLOAD SWAP4 POP SWAP4 POP SWAP4 POP SWAP4 POP SWAP2 SWAP4 POP SWAP2 SWAP4 JUMP JUMPDEST PUSH1 0x5 PUSH1 0x0 CALLER PUSH20 0xFFFFFFFFFFFFFFFFFFFFFFFFFFFFFFFFFFFFFFFF AND PUSH20 0xFFFFFFFFFFFFFFFFFFFFFFFFFFFFFFFFFFFFFFFF AND DUP2 MSTORE PUSH1 0x20 ADD SWAP1 DUP2 MSTORE PUSH1 0x20 ADD PUSH1 0x0 KECCAK256 PUSH1 0x1 ADD PUSH1 0x0 SWAP1 SLOAD SWAP1 PUSH2 0x100 EXP SWAP1 DIV PUSH1 0xFF AND ISZERO PUSH1 0x40 MLOAD DUP1 PUSH1 0x40 ADD PUSH1 0x40 MSTORE DUP1 PUSH1 0x5 DUP2 MSTORE PUSH1 0x20 ADD PUSH32 0x574D552D34000000000000000000000000000000000000000000000000000000 DUP2 MSTORE POP SWAP1 PUSH2 0x2124 JUMPI PUSH1 0x40 MLOAD PUSH32 0x8C379A000000000000000000000000000000000000000000000000000000000 DUP2 MSTORE PUSH1 0x4 ADD PUSH2 0x211B SWAP2 SWAP1 PUSH2 0x326C JUMP JUMPDEST PUSH1 0x40 MLOAD DUP1 SWAP2 SUB SWAP1 REVERT JUMPDEST POP PUSH1 0x0 PUSH20 0xFFFFFFFFFFFFFFFFFFFFFFFFFFFFFFFFFFFFFFFF AND PUSH1 0x6 DUP3 PUSH1 0x40 MLOAD PUSH2 0x214D SWAP2 SWAP1 PUSH2 0x3173 JUMP JUMPDEST SWAP1 DUP2 MSTORE PUSH1 0x20 ADD PUSH1 0x40 MLOAD DUP1 SWAP2 SUB SWAP1 KECCAK256 PUSH1 0x0 SWAP1 SLOAD SWAP1 PUSH2 0x100 EXP SWAP1 DIV PUSH20 0xFFFFFFFFFFFFFFFFFFFFFFFFFFFFFFFFFFFFFFFF AND PUSH20 0xFFFFFFFFFFFFFFFFFFFFFFFFFFFFFFFFFFFFFFFF AND EQ PUSH1 0x40 MLOAD DUP1 PUSH1 0x40 ADD PUSH1 0x40 MSTORE DUP1 PUSH1 0x5 DUP2 MSTORE PUSH1 0x20 ADD PUSH32 0x574D552D36000000000000000000000000000000000000000000000000000000 DUP2 MSTORE POP SWAP1 PUSH2 0x220A JUMPI PUSH1 0x40 MLOAD PUSH32 0x8C379A000000000000000000000000000000000000000000000000000000000 DUP2 MSTORE PUSH1 0x4 ADD PUSH2 0x2201 SWAP2 SWAP1 PUSH2 0x326C JUMP JUMPDEST PUSH1 0x40 MLOAD DUP1 SWAP2 SUB SWAP1 REVERT JUMPDEST POP DUP1 PUSH1 0x5 PUSH1 0x0 CALLER PUSH20 0xFFFFFFFFFFFFFFFFFFFFFFFFFFFFFFFFFFFFFFFF AND PUSH20 0xFFFFFFFFFFFFFFFFFFFFFFFFFFFFFFFFFFFFFFFF AND DUP2 MSTORE PUSH1 0x20 ADD SWAP1 DUP2 MSTORE PUSH1 0x20 ADD PUSH1 0x0 KECCAK256 PUSH1 0x0 ADD SWAP1 DUP1 MLOAD SWAP1 PUSH1 0x20 ADD SWAP1 PUSH2 0x2261 SWAP3 SWAP2 SWAP1 PUSH2 0x2B05 JUMP JUMPDEST POP PUSH1 0x1 PUSH1 0x5 PUSH1 0x0 CALLER PUSH20 0xFFFFFFFFFFFFFFFFFFFFFFFFFFFFFFFFFFFFFFFF AND PUSH20 0xFFFFFFFFFFFFFFFFFFFFFFFFFFFFFFFFFFFFFFFF AND DUP2 MSTORE PUSH1 0x20 ADD SWAP1 DUP2 MSTORE PUSH1 0x20 ADD PUSH1 0x0 KECCAK256 PUSH1 0x1 ADD PUSH1 0x0 PUSH2 0x100 EXP DUP2 SLOAD DUP2 PUSH1 0xFF MUL NOT AND SWAP1 DUP4 ISZERO ISZERO MUL OR SWAP1 SSTORE POP TIMESTAMP PUSH1 0x5 PUSH1 0x0 CALLER PUSH20 0xFFFFFFFFFFFFFFFFFFFFFFFFFFFFFFFFFFFFFFFF AND PUSH20 0xFFFFFFFFFFFFFFFFFFFFFFFFFFFFFFFFFFFFFFFF AND DUP2 MSTORE PUSH1 0x20 ADD SWAP1 DUP2 MSTORE PUSH1 0x20 ADD PUSH1 0x0 KECCAK256 PUSH1 0x2 ADD DUP2 SWAP1 SSTORE POP PUSH1 0x1 PUSH1 0x5 PUSH1 0x0 CALLER PUSH20 0xFFFFFFFFFFFFFFFFFFFFFFFFFFFFFFFFFFFFFFFF AND PUSH20 0xFFFFFFFFFFFFFFFFFFFFFFFFFFFFFFFFFFFFFFFF AND DUP2 MSTORE PUSH1 0x20 ADD SWAP1 DUP2 MSTORE PUSH1 0x20 ADD PUSH1 0x0 KECCAK256 PUSH1 0x3 ADD PUSH1 0x0 PUSH2 0x100 EXP DUP2 SLOAD DUP2 PUSH1 0xFF MUL NOT AND SWAP1 DUP4 ISZERO ISZERO MUL OR SWAP1 SSTORE POP CALLER PUSH1 0x6 DUP3 PUSH1 0x40 MLOAD PUSH2 0x2370 SWAP2 SWAP1 PUSH2 0x3173 JUMP JUMPDEST SWAP1 DUP2 MSTORE PUSH1 0x20 ADD PUSH1 0x40 MLOAD DUP1 SWAP2 SUB SWAP1 KECCAK256 PUSH1 0x0 PUSH2 0x100 EXP DUP2 SLOAD DUP2 PUSH20 0xFFFFFFFFFFFFFFFFFFFFFFFFFFFFFFFFFFFFFFFF MUL NOT AND SWAP1 DUP4 PUSH20 0xFFFFFFFFFFFFFFFFFFFFFFFFFFFFFFFFFFFFFFFF AND MUL OR SWAP1 SSTORE POP CALLER PUSH20 0xFFFFFFFFFFFFFFFFFFFFFFFFFFFFFFFFFFFFFFFF AND PUSH32 0xEE20C2C019DCBCA8D08FF74C4CE6F465E02D3611905C9ACEEB76A0C8E429AF2F DUP3 TIMESTAMP PUSH1 0x40 MLOAD PUSH2 0x2404 SWAP3 SWAP2 SWAP1 PUSH2 0x33FE JUMP JUMPDEST PUSH1 0x40 MLOAD DUP1 SWAP2 SUB SWAP1 LOG2 POP JUMP JUMPDEST PUSH1 0x3 PUSH1 0x20 MSTORE DUP2 PUSH1 0x0 MSTORE PUSH1 0x40 PUSH1 0x0 KECCAK256 DUP2 DUP2 SLOAD DUP2 LT PUSH2 0x242B JUMPI PUSH1 0x0 DUP1 REVERT JUMPDEST SWAP1 PUSH1 0x0 MSTORE PUSH1 0x20 PUSH1 0x0 KECCAK256 ADD PUSH1 0x0 SWAP2 POP SWAP2 POP POP SLOAD DUP2 JUMP JUMPDEST PUSH1 0x60 DUP1 PUSH1 0x60 DUP1 PUSH1 0x60 DUP1 PUSH1 0x60 PUSH1 0x40 MLOAD DUP1 PUSH1 0x40 ADD PUSH1 0x40 MSTORE DUP1 PUSH1 0x6 DUP2 MSTORE PUSH1 0x20 ADD PUSH32 0x4156415441520000000000000000000000000000000000000000000000000000 DUP2 MSTORE POP PUSH1 0x40 MLOAD DUP1 PUSH1 0x40 ADD PUSH1 0x40 MSTORE DUP1 PUSH1 0x7 DUP2 MSTORE PUSH1 0x20 ADD PUSH32 0x5049435455524500000000000000000000000000000000000000000000000000 DUP2 MSTORE POP PUSH1 0x40 MLOAD DUP1 PUSH1 0x40 ADD PUSH1 0x40 MSTORE DUP1 PUSH1 0xE DUP2 MSTORE PUSH1 0x20 ADD PUSH32 0x47454E455241544956455F415254000000000000000000000000000000000000 DUP2 MSTORE POP PUSH1 0x40 MLOAD DUP1 PUSH1 0x40 ADD PUSH1 0x40 MSTORE DUP1 PUSH1 0x3 DUP2 MSTORE PUSH1 0x20 ADD PUSH32 0x4152540000000000000000000000000000000000000000000000000000000000 DUP2 MSTORE POP PUSH1 0x40 MLOAD DUP1 PUSH1 0x40 ADD PUSH1 0x40 MSTORE DUP1 PUSH1 0xC DUP2 MSTORE PUSH1 0x20 ADD PUSH32 0x434F4C4C45435449424C45530000000000000000000000000000000000000000 DUP2 MSTORE POP PUSH1 0x40 MLOAD DUP1 PUSH1 0x40 ADD PUSH1 0x40 MSTORE DUP1 PUSH1 0x8 DUP2 MSTORE PUSH1 0x20 ADD PUSH32 0x47414D4946494544000000000000000000000000000000000000000000000000 DUP2 MSTORE POP PUSH1 0x40 MLOAD DUP1 PUSH1 0x40 ADD PUSH1 0x40 MSTORE DUP1 PUSH1 0x5 DUP2 MSTORE PUSH1 0x20 ADD PUSH32 0x4F54484552000000000000000000000000000000000000000000000000000000 DUP2 MSTORE POP SWAP7 POP SWAP7 POP SWAP7 POP SWAP7 POP SWAP7 POP SWAP7 POP SWAP7 POP SWAP1 SWAP2 SWAP3 SWAP4 SWAP5 SWAP6 SWAP7 JUMP JUMPDEST PUSH1 0x60 PUSH1 0x5 PUSH1 0x0 CALLER PUSH20 0xFFFFFFFFFFFFFFFFFFFFFFFFFFFFFFFFFFFFFFFF AND PUSH20 0xFFFFFFFFFFFFFFFFFFFFFFFFFFFFFFFFFFFFFFFF AND DUP2 MSTORE PUSH1 0x20 ADD SWAP1 DUP2 MSTORE PUSH1 0x20 ADD PUSH1 0x0 KECCAK256 PUSH1 0x3 ADD PUSH1 0x0 SWAP1 SLOAD SWAP1 PUSH2 0x100 EXP SWAP1 DIV PUSH1 0xFF AND PUSH1 0x40 MLOAD DUP1 PUSH1 0x40 ADD PUSH1 0x40 MSTORE DUP1 PUSH1 0x5 DUP2 MSTORE PUSH1 0x20 ADD PUSH32 0x574D552D32000000000000000000000000000000000000000000000000000000 DUP2 MSTORE POP SWAP1 PUSH2 0x26A5 JUMPI PUSH1 0x40 MLOAD PUSH32 0x8C379A000000000000000000000000000000000000000000000000000000000 DUP2 MSTORE PUSH1 0x4 ADD PUSH2 0x269C SWAP2 SWAP1 PUSH2 0x326C JUMP JUMPDEST PUSH1 0x40 MLOAD DUP1 SWAP2 SUB SWAP1 REVERT JUMPDEST POP PUSH1 0x5 PUSH1 0x0 CALLER PUSH20 0xFFFFFFFFFFFFFFFFFFFFFFFFFFFFFFFFFFFFFFFF AND PUSH20 0xFFFFFFFFFFFFFFFFFFFFFFFFFFFFFFFFFFFFFFFF AND DUP2 MSTORE PUSH1 0x20 ADD SWAP1 DUP2 MSTORE PUSH1 0x20 ADD PUSH1 0x0 KECCAK256 PUSH1 0x0 ADD DUP1 SLOAD PUSH2 0x26F3 SWAP1 PUSH2 0x3673 JUMP JUMPDEST DUP1 PUSH1 0x1F ADD PUSH1 0x20 DUP1 SWAP2 DIV MUL PUSH1 0x20 ADD PUSH1 0x40 MLOAD SWAP1 DUP2 ADD PUSH1 0x40 MSTORE DUP1 SWAP3 SWAP2 SWAP1 DUP2 DUP2 MSTORE PUSH1 0x20 ADD DUP3 DUP1 SLOAD PUSH2 0x271F SWAP1 PUSH2 0x3673 JUMP JUMPDEST DUP1 ISZERO PUSH2 0x276C JUMPI DUP1 PUSH1 0x1F LT PUSH2 0x2741 JUMPI PUSH2 0x100 DUP1 DUP4 SLOAD DIV MUL DUP4 MSTORE SWAP2 PUSH1 0x20 ADD SWAP2 PUSH2 0x276C JUMP JUMPDEST DUP3 ADD SWAP2 SWAP1 PUSH1 0x0 MSTORE PUSH1 0x20 PUSH1 0x0 KECCAK256 SWAP1 JUMPDEST DUP2 SLOAD DUP2 MSTORE SWAP1 PUSH1 0x1 ADD SWAP1 PUSH1 0x20 ADD DUP1 DUP4 GT PUSH2 0x274F JUMPI DUP3 SWAP1 SUB PUSH1 0x1F AND DUP3 ADD SWAP2 JUMPDEST POP POP POP POP POP SWAP1 POP SWAP1 JUMP JUMPDEST PUSH1 0x60 PUSH1 0x4 PUSH1 0x0 CALLER PUSH20 0xFFFFFFFFFFFFFFFFFFFFFFFFFFFFFFFFFFFFFFFF AND PUSH20 0xFFFFFFFFFFFFFFFFFFFFFFFFFFFFFFFFFFFFFFFF AND DUP2 MSTORE PUSH1 0x20 ADD SWAP1 DUP2 MSTORE PUSH1 0x20 ADD PUSH1 0x0 KECCAK256 PUSH1 0x0 DUP4 PUSH1 0x6 DUP2 GT ISZERO PUSH2 0x27F2 JUMPI PUSH32 0x4E487B7100000000000000000000000000000000000000000000000000000000 PUSH1 0x0 MSTORE PUSH1 0x21 PUSH1 0x4 MSTORE PUSH1 0x24 PUSH1 0x0 REVERT JUMPDEST PUSH1 0x6 DUP2 GT ISZERO PUSH2 0x282A JUMPI PUSH32 0x4E487B7100000000000000000000000000000000000000000000000000000000 PUSH1 0x0 MSTORE PUSH1 0x21 PUSH1 0x4 MSTORE PUSH1 0x24 PUSH1 0x0 REVERT JUMPDEST DUP2 MSTORE PUSH1 0x20 ADD SWAP1 DUP2 MSTORE PUSH1 0x20 ADD PUSH1 0x0 KECCAK256 DUP1 SLOAD DUP1 PUSH1 0x20 MUL PUSH1 0x20 ADD PUSH1 0x40 MLOAD SWAP1 DUP2 ADD PUSH1 0x40 MSTORE DUP1 SWAP3 SWAP2 SWAP1 DUP2 DUP2 MSTORE PUSH1 0x20 ADD DUP3 DUP1 SLOAD DUP1 ISZERO PUSH2 0x2882 JUMPI PUSH1 0x20 MUL DUP3 ADD SWAP2 SWAP1 PUSH1 0x0 MSTORE PUSH1 0x20 PUSH1 0x0 KECCAK256 SWAP1 JUMPDEST DUP2 SLOAD DUP2 MSTORE PUSH1 0x20 ADD SWAP1 PUSH1 0x1 ADD SWAP1 DUP1 DUP4 GT PUSH2 0x286E JUMPI JUMPDEST POP POP POP POP POP SWAP1 POP SWAP2 SWAP1 POP JUMP JUMPDEST PUSH1 0x4 PUSH1 0x20 MSTORE DUP3 PUSH1 0x0 MSTORE PUSH1 0x40 PUSH1 0x0 KECCAK256 PUSH1 0x20 MSTORE DUP2 PUSH1 0x0 MSTORE PUSH1 0x40 PUSH1 0x0 KECCAK256 DUP2 DUP2 SLOAD DUP2 LT PUSH2 0x28B6 JUMPI PUSH1 0x0 DUP1 REVERT JUMPDEST SWAP1 PUSH1 0x0 MSTORE PUSH1 0x20 PUSH1 0x0 KECCAK256 ADD PUSH1 0x0 SWAP3 POP SWAP3 POP POP POP SLOAD DUP2 JUMP JUMPDEST PUSH1 0x60 PUSH1 0x3 PUSH1 0x0 DUP4 PUSH1 0x6 DUP2 GT ISZERO PUSH2 0x290B JUMPI PUSH32 0x4E487B7100000000000000000000000000000000000000000000000000000000 PUSH1 0x0 MSTORE PUSH1 0x21 PUSH1 0x4 MSTORE PUSH1 0x24 PUSH1 0x0 REVERT JUMPDEST PUSH1 0x6 DUP2 GT ISZERO PUSH2 0x2943 JUMPI PUSH32 0x4E487B7100000000000000000000000000000000000000000000000000000000 PUSH1 0x0 MSTORE PUSH1 0x21 PUSH1 0x4 MSTORE PUSH1 0x24 PUSH1 0x0 REVERT JUMPDEST DUP2 MSTORE PUSH1 0x20 ADD SWAP1 DUP2 MSTORE PUSH1 0x20 ADD PUSH1 0x0 KECCAK256 DUP1 SLOAD DUP1 PUSH1 0x20 MUL PUSH1 0x20 ADD PUSH1 0x40 MLOAD SWAP1 DUP2 ADD PUSH1 0x40 MSTORE DUP1 SWAP3 SWAP2 SWAP1 DUP2 DUP2 MSTORE PUSH1 0x20 ADD DUP3 DUP1 SLOAD DUP1 ISZERO PUSH2 0x299B JUMPI PUSH1 0x20 MUL DUP3 ADD SWAP2 SWAP1 PUSH1 0x0 MSTORE PUSH1 0x20 PUSH1 0x0 KECCAK256 SWAP1 JUMPDEST DUP2 SLOAD DUP2 MSTORE PUSH1 0x20 ADD SWAP1 PUSH1 0x1 ADD SWAP1 DUP1 DUP4 GT PUSH2 0x2987 JUMPI JUMPDEST POP POP POP POP POP SWAP1 POP SWAP2 SWAP1 POP JUMP JUMPDEST PUSH1 0x60 PUSH1 0x5 PUSH1 0x0 CALLER PUSH20 0xFFFFFFFFFFFFFFFFFFFFFFFFFFFFFFFFFFFFFFFF AND PUSH20 0xFFFFFFFFFFFFFFFFFFFFFFFFFFFFFFFFFFFFFFFF AND DUP2 MSTORE PUSH1 0x20 ADD SWAP1 DUP2 MSTORE PUSH1 0x20 ADD PUSH1 0x0 KECCAK256 PUSH1 0x4 ADD DUP1 SLOAD PUSH2 0x29F6 SWAP1 PUSH2 0x3673 JUMP JUMPDEST DUP1 PUSH1 0x1F ADD PUSH1 0x20 DUP1 SWAP2 DIV MUL PUSH1 0x20 ADD PUSH1 0x40 MLOAD SWAP1 DUP2 ADD PUSH1 0x40 MSTORE DUP1 SWAP3 SWAP2 SWAP1 DUP2 DUP2 MSTORE PUSH1 0x20 ADD DUP3 DUP1 SLOAD PUSH2 0x2A22 SWAP1 PUSH2 0x3673 JUMP JUMPDEST DUP1 ISZERO PUSH2 0x2A6F JUMPI DUP1 PUSH1 0x1F LT PUSH2 0x2A44 JUMPI PUSH2 0x100 DUP1 DUP4 SLOAD DIV MUL DUP4 MSTORE SWAP2 PUSH1 0x20 ADD SWAP2 PUSH2 0x2A6F JUMP JUMPDEST DUP3 ADD SWAP2 SWAP1 PUSH1 0x0 MSTORE PUSH1 0x20 PUSH1 0x0 KECCAK256 SWAP1 JUMPDEST DUP2 SLOAD DUP2 MSTORE SWAP1 PUSH1 0x1 ADD SWAP1 PUSH1 0x20 ADD DUP1 DUP4 GT PUSH2 0x2A52 JUMPI DUP3 SWAP1 SUB PUSH1 0x1F AND DUP3 ADD SWAP2 JUMPDEST POP POP POP POP POP SWAP1 POP SWAP1 JUMP JUMPDEST PUSH1 0x0 PUSH1 0x5 PUSH1 0x0 DUP4 PUSH20 0xFFFFFFFFFFFFFFFFFFFFFFFFFFFFFFFFFFFFFFFF AND PUSH20 0xFFFFFFFFFFFFFFFFFFFFFFFFFFFFFFFFFFFFFFFF AND DUP2 MSTORE PUSH1 0x20 ADD SWAP1 DUP2 MSTORE PUSH1 0x20 ADD PUSH1 0x0 KECCAK256 PUSH1 0x3 ADD PUSH1 0x0 SWAP1 SLOAD SWAP1 PUSH2 0x100 EXP SWAP1 DIV PUSH1 0xFF AND SWAP1 POP SWAP2 SWAP1 POP JUMP JUMPDEST PUSH1 0x0 DUP3 DUP3 PUSH1 0x40 MLOAD PUSH1 0x20 ADD PUSH2 0x2AE7 SWAP3 SWAP2 SWAP1 PUSH2 0x3147 JUMP JUMPDEST PUSH1 0x40 MLOAD PUSH1 0x20 DUP2 DUP4 SUB SUB DUP2 MSTORE SWAP1 PUSH1 0x40 MSTORE DUP1 MLOAD SWAP1 PUSH1 0x20 ADD KECCAK256 SWAP1 POP SWAP3 SWAP2 POP POP JUMP JUMPDEST DUP3 DUP1 SLOAD PUSH2 0x2B11 SWAP1 PUSH2 0x3673 JUMP JUMPDEST SWAP1 PUSH1 0x0 MSTORE PUSH1 0x20 PUSH1 0x0 KECCAK256 SWAP1 PUSH1 0x1F ADD PUSH1 0x20 SWAP1 DIV DUP2 ADD SWAP3 DUP3 PUSH2 0x2B33 JUMPI PUSH1 0x0 DUP6 SSTORE PUSH2 0x2B7A JUMP JUMPDEST DUP3 PUSH1 0x1F LT PUSH2 0x2B4C JUMPI DUP1 MLOAD PUSH1 0xFF NOT AND DUP4 DUP1 ADD OR DUP6 SSTORE PUSH2 0x2B7A JUMP JUMPDEST DUP3 DUP1 ADD PUSH1 0x1 ADD DUP6 SSTORE DUP3 ISZERO PUSH2 0x2B7A JUMPI SWAP2 DUP3 ADD JUMPDEST DUP3 DUP2 GT ISZERO PUSH2 0x2B79 JUMPI DUP3 MLOAD DUP3 SSTORE SWAP2 PUSH1 0x20 ADD SWAP2 SWAP1 PUSH1 0x1 ADD SWAP1 PUSH2 0x2B5E JUMP JUMPDEST JUMPDEST POP SWAP1 POP PUSH2 0x2B87 SWAP2 SWAP1 PUSH2 0x2BCB JUMP JUMPDEST POP SWAP1 JUMP JUMPDEST POP DUP1 SLOAD PUSH2 0x2B97 SWAP1 PUSH2 0x3673 JUMP JUMPDEST PUSH1 0x0 DUP3 SSTORE DUP1 PUSH1 0x1F LT PUSH2 0x2BA9 JUMPI POP PUSH2 0x2BC8 JUMP JUMPDEST PUSH1 0x1F ADD PUSH1 0x20 SWAP1 DIV SWAP1 PUSH1 0x0 MSTORE PUSH1 0x20 PUSH1 0x0 KECCAK256 SWAP1 DUP2 ADD SWAP1 PUSH2 0x2BC7 SWAP2 SWAP1 PUSH2 0x2BCB JUMP JUMPDEST JUMPDEST POP JUMP JUMPDEST JUMPDEST DUP1 DUP3 GT ISZERO PUSH2 0x2BE4 JUMPI PUSH1 0x0 DUP2 PUSH1 0x0 SWAP1 SSTORE POP PUSH1 0x1 ADD PUSH2 0x2BCC JUMP JUMPDEST POP SWAP1 JUMP JUMPDEST PUSH1 0x0 PUSH2 0x2BFB PUSH2 0x2BF6 DUP5 PUSH2 0x34D3 JUMP JUMPDEST PUSH2 0x34AE JUMP JUMPDEST SWAP1 POP DUP3 DUP2 MSTORE PUSH1 0x20 DUP2 ADD DUP5 DUP5 DUP5 ADD GT ISZERO PUSH2 0x2C13 JUMPI PUSH1 0x0 DUP1 REVERT JUMPDEST PUSH2 0x2C1E DUP5 DUP3 DUP6 PUSH2 0x3631 JUMP JUMPDEST POP SWAP4 SWAP3 POP POP POP JUMP JUMPDEST PUSH1 0x0 DUP2 CALLDATALOAD SWAP1 POP PUSH2 0x2C35 DUP2 PUSH2 0x381B JUMP JUMPDEST SWAP3 SWAP2 POP POP JUMP JUMPDEST PUSH1 0x0 DUP2 CALLDATALOAD SWAP1 POP PUSH2 0x2C4A DUP2 PUSH2 0x3832 JUMP JUMPDEST SWAP3 SWAP2 POP POP JUMP JUMPDEST PUSH1 0x0 DUP2 CALLDATALOAD SWAP1 POP PUSH2 0x2C5F DUP2 PUSH2 0x3849 JUMP JUMPDEST SWAP3 SWAP2 POP POP JUMP JUMPDEST PUSH1 0x0 DUP3 PUSH1 0x1F DUP4 ADD SLT PUSH2 0x2C76 JUMPI PUSH1 0x0 DUP1 REVERT JUMPDEST DUP2 CALLDATALOAD PUSH2 0x2C86 DUP5 DUP3 PUSH1 0x20 DUP7 ADD PUSH2 0x2BE8 JUMP JUMPDEST SWAP2 POP POP SWAP3 SWAP2 POP POP JUMP JUMPDEST PUSH1 0x0 DUP2 CALLDATALOAD SWAP1 POP PUSH2 0x2C9E DUP2 PUSH2 0x3859 JUMP JUMPDEST SWAP3 SWAP2 POP POP JUMP JUMPDEST PUSH1 0x0 PUSH1 0x20 DUP3 DUP5 SUB SLT ISZERO PUSH2 0x2CB6 JUMPI PUSH1 0x0 DUP1 REVERT JUMPDEST PUSH1 0x0 PUSH2 0x2CC4 DUP5 DUP3 DUP6 ADD PUSH2 0x2C26 JUMP JUMPDEST SWAP2 POP POP SWAP3 SWAP2 POP POP JUMP JUMPDEST PUSH1 0x0 DUP1 PUSH1 0x40 DUP4 DUP6 SUB SLT ISZERO PUSH2 0x2CE0 JUMPI PUSH1 0x0 DUP1 REVERT JUMPDEST PUSH1 0x0 PUSH2 0x2CEE DUP6 DUP3 DUP7 ADD PUSH2 0x2C26 JUMP JUMPDEST SWAP3 POP POP PUSH1 0x20 PUSH2 0x2CFF DUP6 DUP3 DUP7 ADD PUSH2 0x2C3B JUMP JUMPDEST SWAP2 POP POP SWAP3 POP SWAP3 SWAP1 POP JUMP JUMPDEST PUSH1 0x0 DUP1 PUSH1 0x0 PUSH1 0x60 DUP5 DUP7 SUB SLT ISZERO PUSH2 0x2D1E JUMPI PUSH1 0x0 DUP1 REVERT JUMPDEST PUSH1 0x0 PUSH2 0x2D2C DUP7 DUP3 DUP8 ADD PUSH2 0x2C26 JUMP JUMPDEST SWAP4 POP POP PUSH1 0x20 PUSH2 0x2D3D DUP7 DUP3 DUP8 ADD PUSH2 0x2C50 JUMP JUMPDEST SWAP3 POP POP PUSH1 0x40 PUSH2 0x2D4E DUP7 DUP3 DUP8 ADD PUSH2 0x2C8F JUMP JUMPDEST SWAP2 POP POP SWAP3 POP SWAP3 POP SWAP3 JUMP JUMPDEST PUSH1 0x0 DUP1 PUSH1 0x40 DUP4 DUP6 SUB SLT ISZERO PUSH2 0x2D6B JUMPI PUSH1 0x0 DUP1 REVERT JUMPDEST PUSH1 0x0 PUSH2 0x2D79 DUP6 DUP3 DUP7 ADD PUSH2 0x2C26 JUMP JUMPDEST SWAP3 POP POP PUSH1 0x20 PUSH2 0x2D8A DUP6 DUP3 DUP7 ADD PUSH2 0x2C8F JUMP JUMPDEST SWAP2 POP POP SWAP3 POP SWAP3 SWAP1 POP JUMP JUMPDEST PUSH1 0x0 DUP1 PUSH1 0x0 PUSH1 0x60 DUP5 DUP7 SUB SLT ISZERO PUSH2 0x2DA9 JUMPI PUSH1 0x0 DUP1 REVERT JUMPDEST PUSH1 0x0 PUSH2 0x2DB7 DUP7 DUP3 DUP8 ADD PUSH2 0x2C26 JUMP JUMPDEST SWAP4 POP POP PUSH1 0x20 PUSH2 0x2DC8 DUP7 DUP3 DUP8 ADD PUSH2 0x2C8F JUMP JUMPDEST SWAP3 POP POP PUSH1 0x40 PUSH2 0x2DD9 DUP7 DUP3 DUP8 ADD PUSH2 0x2C50 JUMP JUMPDEST SWAP2 POP POP SWAP3 POP SWAP3 POP SWAP3 JUMP JUMPDEST PUSH1 0x0 DUP1 PUSH1 0x0 DUP1 PUSH1 0x0 PUSH1 0xA0 DUP7 DUP9 SUB SLT ISZERO PUSH2 0x2DFB JUMPI PUSH1 0x0 DUP1 REVERT JUMPDEST PUSH1 0x0 PUSH2 0x2E09 DUP9 DUP3 DUP10 ADD PUSH2 0x2C26 JUMP JUMPDEST SWAP6 POP POP PUSH1 0x20 PUSH2 0x2E1A DUP9 DUP3 DUP10 ADD PUSH2 0x2C8F JUMP JUMPDEST SWAP5 POP POP PUSH1 0x40 PUSH2 0x2E2B DUP9 DUP3 DUP10 ADD PUSH2 0x2C8F JUMP JUMPDEST SWAP4 POP POP PUSH1 0x60 PUSH2 0x2E3C DUP9 DUP3 DUP10 ADD PUSH2 0x2C8F JUMP JUMPDEST SWAP3 POP POP PUSH1 0x80 PUSH2 0x2E4D DUP9 DUP3 DUP10 ADD PUSH2 0x2C8F JUMP JUMPDEST SWAP2 POP POP SWAP3 SWAP6 POP SWAP3 SWAP6 SWAP1 SWAP4 POP JUMP JUMPDEST PUSH1 0x0 PUSH1 0x20 DUP3 DUP5 SUB SLT ISZERO PUSH2 0x2E6C JUMPI PUSH1 0x0 DUP1 REVERT JUMPDEST PUSH1 0x0 PUSH2 0x2E7A DUP5 DUP3 DUP6 ADD PUSH2 0x2C3B JUMP JUMPDEST SWAP2 POP POP SWAP3 SWAP2 POP POP JUMP JUMPDEST PUSH1 0x0 PUSH1 0x20 DUP3 DUP5 SUB SLT ISZERO PUSH2 0x2E95 JUMPI PUSH1 0x0 DUP1 REVERT JUMPDEST PUSH1 0x0 PUSH2 0x2EA3 DUP5 DUP3 DUP6 ADD PUSH2 0x2C50 JUMP JUMPDEST SWAP2 POP POP SWAP3 SWAP2 POP POP JUMP JUMPDEST PUSH1 0x0 DUP1 PUSH1 0x40 DUP4 DUP6 SUB SLT ISZERO PUSH2 0x2EBF JUMPI PUSH1 0x0 DUP1 REVERT JUMPDEST PUSH1 0x0 PUSH2 0x2ECD DUP6 DUP3 DUP7 ADD PUSH2 0x2C50 JUMP JUMPDEST SWAP3 POP POP PUSH1 0x20 PUSH2 0x2EDE DUP6 DUP3 DUP7 ADD PUSH2 0x2C8F JUMP JUMPDEST SWAP2 POP POP SWAP3 POP SWAP3 SWAP1 POP JUMP JUMPDEST PUSH1 0x0 PUSH1 0x20 DUP3 DUP5 SUB SLT ISZERO PUSH2 0x2EFA JUMPI PUSH1 0x0 DUP1 REVERT JUMPDEST PUSH1 0x0 DUP3 ADD CALLDATALOAD PUSH8 0xFFFFFFFFFFFFFFFF DUP2 GT ISZERO PUSH2 0x2F14 JUMPI PUSH1 0x0 DUP1 REVERT JUMPDEST PUSH2 0x2F20 DUP5 DUP3 DUP6 ADD PUSH2 0x2C65 JUMP JUMPDEST SWAP2 POP POP SWAP3 SWAP2 POP POP JUMP JUMPDEST PUSH1 0x0 DUP1 PUSH1 0x0 DUP1 PUSH1 0x80 DUP6 DUP8 SUB SLT ISZERO PUSH2 0x2F3F JUMPI PUSH1 0x0 DUP1 REVERT JUMPDEST PUSH1 0x0 DUP6 ADD CALLDATALOAD PUSH8 0xFFFFFFFFFFFFFFFF DUP2 GT ISZERO PUSH2 0x2F59 JUMPI PUSH1 0x0 DUP1 REVERT JUMPDEST PUSH2 0x2F65 DUP8 DUP3 DUP9 ADD PUSH2 0x2C65 JUMP JUMPDEST SWAP5 POP POP PUSH1 0x20 PUSH2 0x2F76 DUP8 DUP3 DUP9 ADD PUSH2 0x2C26 JUMP JUMPDEST SWAP4 POP POP PUSH1 0x40 PUSH2 0x2F87 DUP8 DUP3 DUP9 ADD PUSH2 0x2C8F JUMP JUMPDEST SWAP3 POP POP PUSH1 0x60 DUP6 ADD CALLDATALOAD PUSH8 0xFFFFFFFFFFFFFFFF DUP2 GT ISZERO PUSH2 0x2FA4 JUMPI PUSH1 0x0 DUP1 REVERT JUMPDEST PUSH2 0x2FB0 DUP8 DUP3 DUP9 ADD PUSH2 0x2C65 JUMP JUMPDEST SWAP2 POP POP SWAP3 SWAP6 SWAP2 SWAP5 POP SWAP3 POP JUMP JUMPDEST PUSH1 0x0 PUSH2 0x2FC8 DUP4 DUP4 PUSH2 0x3067 JUMP JUMPDEST PUSH1 0x20 DUP4 ADD SWAP1 POP SWAP3 SWAP2 POP POP JUMP JUMPDEST PUSH2 0x2FDD DUP2 PUSH2 0x35BA JUMP JUMPDEST DUP3 MSTORE POP POP JUMP JUMPDEST PUSH2 0x2FF4 PUSH2 0x2FEF DUP3 PUSH2 0x35BA JUMP JUMPDEST PUSH2 0x36D6 JUMP JUMPDEST DUP3 MSTORE POP POP JUMP JUMPDEST PUSH1 0x0 PUSH2 0x3005 DUP3 PUSH2 0x3514 JUMP JUMPDEST PUSH2 0x300F DUP2 DUP6 PUSH2 0x3537 JUMP JUMPDEST SWAP4 POP PUSH2 0x301A DUP4 PUSH2 0x3504 JUMP JUMPDEST DUP1 PUSH1 0x0 JUMPDEST DUP4 DUP2 LT ISZERO PUSH2 0x304B JUMPI DUP2 MLOAD PUSH2 0x3032 DUP9 DUP3 PUSH2 0x2FBC JUMP JUMPDEST SWAP8 POP PUSH2 0x303D DUP4 PUSH2 0x352A JUMP JUMPDEST SWAP3 POP POP PUSH1 0x1 DUP2 ADD SWAP1 POP PUSH2 0x301E JUMP JUMPDEST POP DUP6 SWAP4 POP POP POP POP SWAP3 SWAP2 POP POP JUMP JUMPDEST PUSH2 0x3061 DUP2 PUSH2 0x35CC JUMP JUMPDEST DUP3 MSTORE POP POP JUMP JUMPDEST PUSH2 0x3070 DUP2 PUSH2 0x35D8 JUMP JUMPDEST DUP3 MSTORE POP POP JUMP JUMPDEST PUSH2 0x307F DUP2 PUSH2 0x35D8 JUMP JUMPDEST DUP3 MSTORE POP POP JUMP JUMPDEST PUSH2 0x308E DUP2 PUSH2 0x361F JUMP JUMPDEST DUP3 MSTORE POP POP JUMP JUMPDEST PUSH1 0x0 PUSH2 0x309F DUP3 PUSH2 0x351F JUMP JUMPDEST PUSH2 0x30A9 DUP2 DUP6 PUSH2 0x3548 JUMP JUMPDEST SWAP4 POP PUSH2 0x30B9 DUP2 DUP6 PUSH1 0x20 DUP7 ADD PUSH2 0x3640 JUMP JUMPDEST PUSH2 0x30C2 DUP2 PUSH2 0x37C0 JUMP JUMPDEST DUP5 ADD SWAP2 POP POP SWAP3 SWAP2 POP POP JUMP JUMPDEST PUSH1 0x0 PUSH2 0x30D8 DUP3 PUSH2 0x351F JUMP JUMPDEST PUSH2 0x30E2 DUP2 DUP6 PUSH2 0x3559 JUMP JUMPDEST SWAP4 POP PUSH2 0x30F2 DUP2 DUP6 PUSH1 0x20 DUP7 ADD PUSH2 0x3640 JUMP JUMPDEST DUP1 DUP5 ADD SWAP2 POP POP SWAP3 SWAP2 POP POP JUMP JUMPDEST PUSH1 0x0 PUSH2 0x310B PUSH1 0x13 DUP4 PUSH2 0x3548 JUMP JUMPDEST SWAP2 POP PUSH2 0x3116 DUP3 PUSH2 0x37DE JUMP JUMPDEST PUSH1 0x20 DUP3 ADD SWAP1 POP SWAP2 SWAP1 POP JUMP JUMPDEST PUSH2 0x312A DUP2 PUSH2 0x3615 JUMP JUMPDEST DUP3 MSTORE POP POP JUMP JUMPDEST PUSH2 0x3141 PUSH2 0x313C DUP3 PUSH2 0x3615 JUMP JUMPDEST PUSH2 0x36FA JUMP JUMPDEST DUP3 MSTORE POP POP JUMP JUMPDEST PUSH1 0x0 PUSH2 0x3153 DUP3 DUP6 PUSH2 0x2FE3 JUMP JUMPDEST PUSH1 0x14 DUP3 ADD SWAP2 POP PUSH2 0x3163 DUP3 DUP5 PUSH2 0x3130 JUMP JUMPDEST PUSH1 0x20 DUP3 ADD SWAP2 POP DUP2 SWAP1 POP SWAP4 SWAP3 POP POP POP JUMP JUMPDEST PUSH1 0x0 PUSH2 0x317F DUP3 DUP5 PUSH2 0x30CD JUMP JUMPDEST SWAP2 POP DUP2 SWAP1 POP SWAP3 SWAP2 POP POP JUMP JUMPDEST PUSH1 0x0 PUSH1 0x20 DUP3 ADD SWAP1 POP PUSH2 0x319F PUSH1 0x0 DUP4 ADD DUP5 PUSH2 0x2FD4 JUMP JUMPDEST SWAP3 SWAP2 POP POP JUMP JUMPDEST PUSH1 0x0 PUSH1 0x20 DUP3 ADD SWAP1 POP DUP2 DUP2 SUB PUSH1 0x0 DUP4 ADD MSTORE PUSH2 0x31BF DUP2 DUP5 PUSH2 0x2FFA JUMP JUMPDEST SWAP1 POP SWAP3 SWAP2 POP POP JUMP JUMPDEST PUSH1 0x0 PUSH1 0x20 DUP3 ADD SWAP1 POP PUSH2 0x31DC PUSH1 0x0 DUP4 ADD DUP5 PUSH2 0x3058 JUMP JUMPDEST SWAP3 SWAP2 POP POP JUMP JUMPDEST PUSH1 0x0 PUSH1 0x20 DUP3 ADD SWAP1 POP PUSH2 0x31F7 PUSH1 0x0 DUP4 ADD DUP5 PUSH2 0x3076 JUMP JUMPDEST SWAP3 SWAP2 POP POP JUMP JUMPDEST PUSH1 0x0 PUSH1 0xC0 DUP3 ADD SWAP1 POP PUSH2 0x3212 PUSH1 0x0 DUP4 ADD DUP10 PUSH2 0x3076 JUMP JUMPDEST PUSH2 0x321F PUSH1 0x20 DUP4 ADD DUP9 PUSH2 0x2FD4 JUMP JUMPDEST PUSH2 0x322C PUSH1 0x40 DUP4 ADD DUP8 PUSH2 0x3121 JUMP JUMPDEST DUP2 DUP2 SUB PUSH1 0x60 DUP4 ADD MSTORE PUSH2 0x323E DUP2 DUP7 PUSH2 0x3094 JUMP JUMPDEST SWAP1 POP PUSH2 0x324D PUSH1 0x80 DUP4 ADD DUP6 PUSH2 0x2FD4 JUMP JUMPDEST DUP2 DUP2 SUB PUSH1 0xA0 DUP4 ADD MSTORE PUSH2 0x325F DUP2 DUP5 PUSH2 0x3094 JUMP JUMPDEST SWAP1 POP SWAP8 SWAP7 POP POP POP POP POP POP POP JUMP JUMPDEST PUSH1 0x0 PUSH1 0x20 DUP3 ADD SWAP1 POP DUP2 DUP2 SUB PUSH1 0x0 DUP4 ADD MSTORE PUSH2 0x3286 DUP2 DUP5 PUSH2 0x3094 JUMP JUMPDEST SWAP1 POP SWAP3 SWAP2 POP POP JUMP JUMPDEST PUSH1 0x0 PUSH1 0xA0 DUP3 ADD SWAP1 POP DUP2 DUP2 SUB PUSH1 0x0 DUP4 ADD MSTORE PUSH2 0x32A8 DUP2 DUP9 PUSH2 0x3094 JUMP JUMPDEST SWAP1 POP PUSH2 0x32B7 PUSH1 0x20 DUP4 ADD DUP8 PUSH2 0x2FD4 JUMP JUMPDEST PUSH2 0x32C4 PUSH1 0x40 DUP4 ADD DUP7 PUSH2 0x3121 JUMP JUMPDEST PUSH2 0x32D1 PUSH1 0x60 DUP4 ADD DUP6 PUSH2 0x2FD4 JUMP JUMPDEST DUP2 DUP2 SUB PUSH1 0x80 DUP4 ADD MSTORE PUSH2 0x32E3 DUP2 DUP5 PUSH2 0x3094 JUMP JUMPDEST SWAP1 POP SWAP7 SWAP6 POP POP POP POP POP POP JUMP JUMPDEST PUSH1 0x0 PUSH1 0xC0 DUP3 ADD SWAP1 POP DUP2 DUP2 SUB PUSH1 0x0 DUP4 ADD MSTORE PUSH2 0x3309 DUP2 DUP10 PUSH2 0x3094 JUMP JUMPDEST SWAP1 POP PUSH2 0x3318 PUSH1 0x20 DUP4 ADD DUP9 PUSH2 0x2FD4 JUMP JUMPDEST PUSH2 0x3325 PUSH1 0x40 DUP4 ADD DUP8 PUSH2 0x3121 JUMP JUMPDEST PUSH2 0x3332 PUSH1 0x60 DUP4 ADD DUP7 PUSH2 0x2FD4 JUMP JUMPDEST DUP2 DUP2 SUB PUSH1 0x80 DUP4 ADD MSTORE PUSH2 0x3344 DUP2 DUP6 PUSH2 0x3094 JUMP JUMPDEST SWAP1 POP PUSH2 0x3353 PUSH1 0xA0 DUP4 ADD DUP5 PUSH2 0x3085 JUMP JUMPDEST SWAP8 SWAP7 POP POP POP POP POP POP POP JUMP JUMPDEST PUSH1 0x0 PUSH1 0xE0 DUP3 ADD SWAP1 POP DUP2 DUP2 SUB PUSH1 0x0 DUP4 ADD MSTORE PUSH2 0x3378 DUP2 DUP11 PUSH2 0x3094 JUMP JUMPDEST SWAP1 POP DUP2 DUP2 SUB PUSH1 0x20 DUP4 ADD MSTORE PUSH2 0x338C DUP2 DUP10 PUSH2 0x3094 JUMP JUMPDEST SWAP1 POP DUP2 DUP2 SUB PUSH1 0x40 DUP4 ADD MSTORE PUSH2 0x33A0 DUP2 DUP9 PUSH2 0x3094 JUMP JUMPDEST SWAP1 POP DUP2 DUP2 SUB PUSH1 0x60 DUP4 ADD MSTORE PUSH2 0x33B4 DUP2 DUP8 PUSH2 0x3094 JUMP JUMPDEST SWAP1 POP DUP2 DUP2 SUB PUSH1 0x80 DUP4 ADD MSTORE PUSH2 0x33C8 DUP2 DUP7 PUSH2 0x3094 JUMP JUMPDEST SWAP1 POP DUP2 DUP2 SUB PUSH1 0xA0 DUP4 ADD MSTORE PUSH2 0x33DC DUP2 DUP6 PUSH2 0x3094 JUMP JUMPDEST SWAP1 POP DUP2 DUP2 SUB PUSH1 0xC0 DUP4 ADD MSTORE PUSH2 0x33F0 DUP2 DUP5 PUSH2 0x3094 JUMP JUMPDEST SWAP1 POP SWAP9 SWAP8 POP POP POP POP POP POP POP POP JUMP JUMPDEST PUSH1 0x0 PUSH1 0x40 DUP3 ADD SWAP1 POP DUP2 DUP2 SUB PUSH1 0x0 DUP4 ADD MSTORE PUSH2 0x3418 DUP2 DUP6 PUSH2 0x3094 JUMP JUMPDEST SWAP1 POP PUSH2 0x3427 PUSH1 0x20 DUP4 ADD DUP5 PUSH2 0x3121 JUMP JUMPDEST SWAP4 SWAP3 POP POP POP JUMP JUMPDEST PUSH1 0x0 PUSH1 0x20 DUP3 ADD SWAP1 POP DUP2 DUP2 SUB PUSH1 0x0 DUP4 ADD MSTORE PUSH2 0x3447 DUP2 PUSH2 0x30FE JUMP JUMPDEST SWAP1 POP SWAP2 SWAP1 POP JUMP JUMPDEST PUSH1 0x0 PUSH1 0x20 DUP3 ADD SWAP1 POP PUSH2 0x3463 PUSH1 0x0 DUP4 ADD DUP5 PUSH2 0x3121 JUMP JUMPDEST SWAP3 SWAP2 POP POP JUMP JUMPDEST PUSH1 0x0 PUSH1 0x80 DUP3 ADD SWAP1 POP PUSH2 0x347E PUSH1 0x0 DUP4 ADD DUP8 PUSH2 0x3121 JUMP JUMPDEST PUSH2 0x348B PUSH1 0x20 DUP4 ADD DUP7 PUSH2 0x3121 JUMP JUMPDEST PUSH2 0x3498 PUSH1 0x40 DUP4 ADD DUP6 PUSH2 0x3121 JUMP JUMPDEST PUSH2 0x34A5 PUSH1 0x60 DUP4 ADD DUP5 PUSH2 0x3121 JUMP JUMPDEST SWAP6 SWAP5 POP POP POP POP POP JUMP JUMPDEST PUSH1 0x0 PUSH2 0x34B8 PUSH2 0x34C9 JUMP JUMPDEST SWAP1 POP PUSH2 0x34C4 DUP3 DUP3 PUSH2 0x36A5 JUMP JUMPDEST SWAP2 SWAP1 POP JUMP JUMPDEST PUSH1 0x0 PUSH1 0x40 MLOAD SWAP1 POP SWAP1 JUMP JUMPDEST PUSH1 0x0 PUSH8 0xFFFFFFFFFFFFFFFF DUP3 GT ISZERO PUSH2 0x34EE JUMPI PUSH2 0x34ED PUSH2 0x3791 JUMP JUMPDEST JUMPDEST PUSH2 0x34F7 DUP3 PUSH2 0x37C0 JUMP JUMPDEST SWAP1 POP PUSH1 0x20 DUP2 ADD SWAP1 POP SWAP2 SWAP1 POP JUMP JUMPDEST PUSH1 0x0 DUP2 SWAP1 POP PUSH1 0x20 DUP3 ADD SWAP1 POP SWAP2 SWAP1 POP JUMP JUMPDEST PUSH1 0x0 DUP2 MLOAD SWAP1 POP SWAP2 SWAP1 POP JUMP JUMPDEST PUSH1 0x0 DUP2 MLOAD SWAP1 POP SWAP2 SWAP1 POP JUMP JUMPDEST PUSH1 0x0 PUSH1 0x20 DUP3 ADD SWAP1 POP SWAP2 SWAP1 POP JUMP JUMPDEST PUSH1 0x0 DUP3 DUP3 MSTORE PUSH1 0x20 DUP3 ADD SWAP1 POP SWAP3 SWAP2 POP POP JUMP JUMPDEST PUSH1 0x0 DUP3 DUP3 MSTORE PUSH1 0x20 DUP3 ADD SWAP1 POP SWAP3 SWAP2 POP POP JUMP JUMPDEST PUSH1 0x0 DUP2 SWAP1 POP SWAP3 SWAP2 POP POP JUMP JUMPDEST PUSH1 0x0 PUSH2 0x356F DUP3 PUSH2 0x3615 JUMP JUMPDEST SWAP2 POP PUSH2 0x357A DUP4 PUSH2 0x3615 JUMP JUMPDEST SWAP3 POP DUP3 PUSH32 0xFFFFFFFFFFFFFFFFFFFFFFFFFFFFFFFFFFFFFFFFFFFFFFFFFFFFFFFFFFFFFFFF SUB DUP3 GT ISZERO PUSH2 0x35AF JUMPI PUSH2 0x35AE PUSH2 0x3704 JUMP JUMPDEST JUMPDEST DUP3 DUP3 ADD SWAP1 POP SWAP3 SWAP2 POP POP JUMP JUMPDEST PUSH1 0x0 PUSH2 0x35C5 DUP3 PUSH2 0x35F5 JUMP JUMPDEST SWAP1 POP SWAP2 SWAP1 POP JUMP JUMPDEST PUSH1 0x0 DUP2 ISZERO ISZERO SWAP1 POP SWAP2 SWAP1 POP JUMP JUMPDEST PUSH1 0x0 DUP2 SWAP1 POP SWAP2 SWAP1 POP JUMP JUMPDEST PUSH1 0x0 DUP2 SWAP1 POP PUSH2 0x35F0 DUP3 PUSH2 0x3807 JUMP JUMPDEST SWAP2 SWAP1 POP JUMP JUMPDEST PUSH1 0x0 PUSH20 0xFFFFFFFFFFFFFFFFFFFFFFFFFFFFFFFFFFFFFFFF DUP3 AND SWAP1 POP SWAP2 SWAP1 POP JUMP JUMPDEST PUSH1 0x0 DUP2 SWAP1 POP SWAP2 SWAP1 POP JUMP JUMPDEST PUSH1 0x0 PUSH2 0x362A DUP3 PUSH2 0x35E2 JUMP JUMPDEST SWAP1 POP SWAP2 SWAP1 POP JUMP JUMPDEST DUP3 DUP2 DUP4 CALLDATACOPY PUSH1 0x0 DUP4 DUP4 ADD MSTORE POP POP POP JUMP JUMPDEST PUSH1 0x0 JUMPDEST DUP4 DUP2 LT ISZERO PUSH2 0x365E JUMPI DUP1 DUP3 ADD MLOAD DUP2 DUP5 ADD MSTORE PUSH1 0x20 DUP2 ADD SWAP1 POP PUSH2 0x3643 JUMP JUMPDEST DUP4 DUP2 GT ISZERO PUSH2 0x366D JUMPI PUSH1 0x0 DUP5 DUP5 ADD MSTORE JUMPDEST POP POP POP POP JUMP JUMPDEST PUSH1 0x0 PUSH1 0x2 DUP3 DIV SWAP1 POP PUSH1 0x1 DUP3 AND DUP1 PUSH2 0x368B JUMPI PUSH1 0x7F DUP3 AND SWAP2 POP JUMPDEST PUSH1 0x20 DUP3 LT DUP2 EQ ISZERO PUSH2 0x369F JUMPI PUSH2 0x369E PUSH2 0x3762 JUMP JUMPDEST JUMPDEST POP SWAP2 SWAP1 POP JUMP JUMPDEST PUSH2 0x36AE DUP3 PUSH2 0x37C0 JUMP JUMPDEST DUP2 ADD DUP2 DUP2 LT PUSH8 0xFFFFFFFFFFFFFFFF DUP3 GT OR ISZERO PUSH2 0x36CD JUMPI PUSH2 0x36CC PUSH2 0x3791 JUMP JUMPDEST JUMPDEST DUP1 PUSH1 0x40 MSTORE POP POP POP JUMP JUMPDEST PUSH1 0x0 PUSH2 0x36E1 DUP3 PUSH2 0x36E8 JUMP JUMPDEST SWAP1 POP SWAP2 SWAP1 POP JUMP JUMPDEST PUSH1 0x0 PUSH2 0x36F3 DUP3 PUSH2 0x37D1 JUMP JUMPDEST SWAP1 POP SWAP2 SWAP1 POP JUMP JUMPDEST PUSH1 0x0 DUP2 SWAP1 POP SWAP2 SWAP1 POP JUMP JUMPDEST PUSH32 0x4E487B7100000000000000000000000000000000000000000000000000000000 PUSH1 0x0 MSTORE PUSH1 0x11 PUSH1 0x4 MSTORE PUSH1 0x24 PUSH1 0x0 REVERT JUMPDEST PUSH32 0x4E487B7100000000000000000000000000000000000000000000000000000000 PUSH1 0x0 MSTORE PUSH1 0x21 PUSH1 0x4 MSTORE PUSH1 0x24 PUSH1 0x0 REVERT JUMPDEST PUSH32 0x4E487B7100000000000000000000000000000000000000000000000000000000 PUSH1 0x0 MSTORE PUSH1 0x22 PUSH1 0x4 MSTORE PUSH1 0x24 PUSH1 0x0 REVERT JUMPDEST PUSH32 0x4E487B7100000000000000000000000000000000000000000000000000000000 PUSH1 0x0 MSTORE PUSH1 0x41 PUSH1 0x4 MSTORE PUSH1 0x24 PUSH1 0x0 REVERT JUMPDEST PUSH1 0x0 PUSH1 0x1F NOT PUSH1 0x1F DUP4 ADD AND SWAP1 POP SWAP2 SWAP1 POP JUMP JUMPDEST PUSH1 0x0 DUP2 PUSH1 0x60 SHL SWAP1 POP SWAP2 SWAP1 POP JUMP JUMPDEST PUSH32 0x63616C6C2066726F6D2077726F6E67204D502E00000000000000000000000000 PUSH1 0x0 DUP3 ADD MSTORE POP JUMP JUMPDEST PUSH1 0x7 DUP2 LT PUSH2 0x3818 JUMPI PUSH2 0x3817 PUSH2 0x3733 JUMP JUMPDEST JUMPDEST POP JUMP JUMPDEST PUSH2 0x3824 DUP2 PUSH2 0x35BA JUMP JUMPDEST DUP2 EQ PUSH2 0x382F JUMPI PUSH1 0x0 DUP1 REVERT JUMPDEST POP JUMP JUMPDEST PUSH2 0x383B DUP2 PUSH2 0x35D8 JUMP JUMPDEST DUP2 EQ PUSH2 0x3846 JUMPI PUSH1 0x0 DUP1 REVERT JUMPDEST POP JUMP JUMPDEST PUSH1 0x7 DUP2 LT PUSH2 0x3856 JUMPI PUSH1 0x0 DUP1 REVERT JUMPDEST POP JUMP JUMPDEST PUSH2 0x3862 DUP2 PUSH2 0x3615 JUMP JUMPDEST DUP2 EQ PUSH2 0x386D JUMPI PUSH1 0x0 DUP1 REVERT JUMPDEST POP JUMP INVALID LOG2 PUSH5 0x6970667358 0x22 SLT KECCAK256 0xD9 SWAP13 SMOD LOG2 0x5E 0xA9 MULMOD CHAINID 0x29 AND SHL STOP 0x49 PUSH11 0xD813F07EF5A9FCF3D9293C PUSH10 0x3209F900194764736F6C PUSH4 0x43000804 STOP CALLER "
				},
				"gasEstimates": {
					"creation": {
						"codeDepositCost": "2900400",
						"executionCost": "infinite",
						"totalCost": "infinite"
					},
					"external": {
						"addressToAmountRecord(address)": "infinite",
						"checkLogIn(address)": "1699",
						"checkUser()": "infinite",
						"deleteUser()": "infinite",
						"getAllNftCatWise(uint8)": "infinite",
						"getNft(address,uint256)": "infinite",
						"getNftCategories()": "infinite",
						"getNftWithBytes32(bytes32)": "infinite",
						"getProfilePic()": "infinite",
						"getUniKeysMapping(address)": "infinite",
						"getUserNftCatWise(uint8)": "infinite",
						"logIn()": "infinite",
						"logOut()": "infinite",
						"myNFTs(bytes32)": "infinite",
						"nftCatWise(uint8,uint256)": "2608",
						"setAmountRecord(address,uint256,uint256,uint256,uint256)": "infinite",
						"setBuyNftData(address,bytes32)": "63505",
						"setNft(string,address,uint256,string)": "infinite",
						"setNftCat(address,uint256,uint8)": "infinite",
						"setProfilePic(string)": "infinite",
						"signUp(string)": "infinite",
						"uniKeysMapping(address,uint256)": "2701",
						"updateUser(string)": "infinite",
						"userAmountDetail(address)": "infinite",
						"userNameToAddress(string)": "infinite",
						"userNftCatWise(address,uint8,uint256)": "2801"
					}
				},
				"methodIdentifiers": {
					"addressToAmountRecord(address)": "7111e750",
					"checkLogIn(address)": "f6f2ede0",
					"checkUser()": "c1562547",
					"deleteUser()": "026ff05e",
					"getAllNftCatWise(uint8)": "e36d6f50",
					"getNft(address,uint256)": "1c6932b6",
					"getNftCategories()": "bbc53ef2",
					"getNftWithBytes32(bytes32)": "3a196986",
					"getProfilePic()": "eb972008",
					"getUniKeysMapping(address)": "5cb0122a",
					"getUserNftCatWise(uint8)": "da31f722",
					"logIn()": "377b47a3",
					"logOut()": "4be422ae",
					"myNFTs(bytes32)": "07edbdc5",
					"nftCatWise(uint8,uint256)": "b2cf1886",
					"setAmountRecord(address,uint256,uint256,uint256,uint256)": "894fd813",
					"setBuyNftData(address,bytes32)": "2441f1f1",
					"setNft(string,address,uint256,string)": "6e9d4f8d",
					"setNftCat(address,uint256,uint8)": "2ae23109",
					"setProfilePic(string)": "011f2cce",
					"signUp(string)": "adcfb4fc",
					"uniKeysMapping(address,uint256)": "23e583b4",
					"updateUser(string)": "0b4f12f6",
					"userAmountDetail(address)": "8a1b9736",
					"userNameToAddress(string)": "6c608709",
					"userNftCatWise(address,uint8,uint256)": "dc9151c5"
				}
			},
			"storageLayout": {
				"storage": [
					{
						"astId": 720,
						"contract": "Bluelight-MP/UserDashboard.sol:UserDashboard",
						"label": "marketplace",
						"offset": 0,
						"slot": "0",
						"type": "t_contract(IWaterMelon)377"
					},
					{
						"astId": 745,
						"contract": "Bluelight-MP/UserDashboard.sol:UserDashboard",
						"label": "myNFTs",
						"offset": 0,
						"slot": "1",
						"type": "t_mapping(t_bytes32,t_struct(MyNFT)800_storage)"
					},
					{
						"astId": 750,
						"contract": "Bluelight-MP/UserDashboard.sol:UserDashboard",
						"label": "uniKeysMapping",
						"offset": 0,
						"slot": "2",
						"type": "t_mapping(t_address,t_array(t_bytes32)dyn_storage)"
					},
					{
						"astId": 756,
						"contract": "Bluelight-MP/UserDashboard.sol:UserDashboard",
						"label": "nftCatWise",
						"offset": 0,
						"slot": "3",
						"type": "t_mapping(t_enum(NftCategory)786,t_array(t_bytes32)dyn_storage)"
					},
					{
						"astId": 764,
						"contract": "Bluelight-MP/UserDashboard.sol:UserDashboard",
						"label": "userNftCatWise",
						"offset": 0,
						"slot": "4",
						"type": "t_mapping(t_address,t_mapping(t_enum(NftCategory)786,t_array(t_bytes32)dyn_storage))"
					},
					{
						"astId": 769,
						"contract": "Bluelight-MP/UserDashboard.sol:UserDashboard",
						"label": "users",
						"offset": 0,
						"slot": "5",
						"type": "t_mapping(t_address,t_struct(User)811_storage)"
					},
					{
						"astId": 773,
						"contract": "Bluelight-MP/UserDashboard.sol:UserDashboard",
						"label": "userNameToAddress",
						"offset": 0,
						"slot": "6",
						"type": "t_mapping(t_string_memory_ptr,t_address)"
					},
					{
						"astId": 778,
						"contract": "Bluelight-MP/UserDashboard.sol:UserDashboard",
						"label": "addressToAmountRecord",
						"offset": 0,
						"slot": "7",
						"type": "t_mapping(t_address,t_struct(AmountRecord)820_storage)"
					}
				],
				"types": {
					"t_address": {
						"encoding": "inplace",
						"label": "address",
						"numberOfBytes": "20"
					},
					"t_array(t_bytes32)dyn_storage": {
						"base": "t_bytes32",
						"encoding": "dynamic_array",
						"label": "bytes32[]",
						"numberOfBytes": "32"
					},
					"t_bool": {
						"encoding": "inplace",
						"label": "bool",
						"numberOfBytes": "1"
					},
					"t_bytes32": {
						"encoding": "inplace",
						"label": "bytes32",
						"numberOfBytes": "32"
					},
					"t_contract(IWaterMelon)377": {
						"encoding": "inplace",
						"label": "contract IWaterMelon",
						"numberOfBytes": "20"
					},
					"t_enum(NftCategory)786": {
						"encoding": "inplace",
						"label": "enum UserDashboard.NftCategory",
						"numberOfBytes": "1"
					},
					"t_mapping(t_address,t_array(t_bytes32)dyn_storage)": {
						"encoding": "mapping",
						"key": "t_address",
						"label": "mapping(address => bytes32[])",
						"numberOfBytes": "32",
						"value": "t_array(t_bytes32)dyn_storage"
					},
					"t_mapping(t_address,t_mapping(t_enum(NftCategory)786,t_array(t_bytes32)dyn_storage))": {
						"encoding": "mapping",
						"key": "t_address",
						"label": "mapping(address => mapping(enum UserDashboard.NftCategory => bytes32[]))",
						"numberOfBytes": "32",
						"value": "t_mapping(t_enum(NftCategory)786,t_array(t_bytes32)dyn_storage)"
					},
					"t_mapping(t_address,t_struct(AmountRecord)820_storage)": {
						"encoding": "mapping",
						"key": "t_address",
						"label": "mapping(address => struct UserDashboard.AmountRecord)",
						"numberOfBytes": "32",
						"value": "t_struct(AmountRecord)820_storage"
					},
					"t_mapping(t_address,t_struct(User)811_storage)": {
						"encoding": "mapping",
						"key": "t_address",
						"label": "mapping(address => struct UserDashboard.User)",
						"numberOfBytes": "32",
						"value": "t_struct(User)811_storage"
					},
					"t_mapping(t_bytes32,t_struct(MyNFT)800_storage)": {
						"encoding": "mapping",
						"key": "t_bytes32",
						"label": "mapping(bytes32 => struct UserDashboard.MyNFT)",
						"numberOfBytes": "32",
						"value": "t_struct(MyNFT)800_storage"
					},
					"t_mapping(t_enum(NftCategory)786,t_array(t_bytes32)dyn_storage)": {
						"encoding": "mapping",
						"key": "t_enum(NftCategory)786",
						"label": "mapping(enum UserDashboard.NftCategory => bytes32[])",
						"numberOfBytes": "32",
						"value": "t_array(t_bytes32)dyn_storage"
					},
					"t_mapping(t_string_memory_ptr,t_address)": {
						"encoding": "mapping",
						"key": "t_string_memory_ptr",
						"label": "mapping(string => address)",
						"numberOfBytes": "32",
						"value": "t_address"
					},
					"t_string_memory_ptr": {
						"encoding": "bytes",
						"label": "string",
						"numberOfBytes": "32"
					},
					"t_string_storage": {
						"encoding": "bytes",
						"label": "string",
						"numberOfBytes": "32"
					},
					"t_struct(AmountRecord)820_storage": {
						"encoding": "inplace",
						"label": "struct UserDashboard.AmountRecord",
						"members": [
							{
								"astId": 813,
								"contract": "Bluelight-MP/UserDashboard.sol:UserDashboard",
								"label": "curAmountSpent",
								"offset": 0,
								"slot": "0",
								"type": "t_uint256"
							},
							{
								"astId": 815,
								"contract": "Bluelight-MP/UserDashboard.sol:UserDashboard",
								"label": "tokenAmountSpent",
								"offset": 0,
								"slot": "1",
								"type": "t_uint256"
							},
							{
								"astId": 817,
								"contract": "Bluelight-MP/UserDashboard.sol:UserDashboard",
								"label": "curAmountEarned",
								"offset": 0,
								"slot": "2",
								"type": "t_uint256"
							},
							{
								"astId": 819,
								"contract": "Bluelight-MP/UserDashboard.sol:UserDashboard",
								"label": "tokenAmountEarned",
								"offset": 0,
								"slot": "3",
								"type": "t_uint256"
							}
						],
						"numberOfBytes": "128"
					},
					"t_struct(MyNFT)800_storage": {
						"encoding": "inplace",
						"label": "struct UserDashboard.MyNFT",
						"members": [
							{
								"astId": 788,
								"contract": "Bluelight-MP/UserDashboard.sol:UserDashboard",
								"label": "nftName",
								"offset": 0,
								"slot": "0",
								"type": "t_string_storage"
							},
							{
								"astId": 790,
								"contract": "Bluelight-MP/UserDashboard.sol:UserDashboard",
								"label": "contractAddress",
								"offset": 0,
								"slot": "1",
								"type": "t_address"
							},
							{
								"astId": 792,
								"contract": "Bluelight-MP/UserDashboard.sol:UserDashboard",
								"label": "tokenId",
								"offset": 0,
								"slot": "2",
								"type": "t_uint256"
							},
							{
								"astId": 794,
								"contract": "Bluelight-MP/UserDashboard.sol:UserDashboard",
								"label": "owner",
								"offset": 0,
								"slot": "3",
								"type": "t_address"
							},
							{
								"astId": 796,
								"contract": "Bluelight-MP/UserDashboard.sol:UserDashboard",
								"label": "ipfs",
								"offset": 0,
								"slot": "4",
								"type": "t_string_storage"
							},
							{
								"astId": 799,
								"contract": "Bluelight-MP/UserDashboard.sol:UserDashboard",
								"label": "nftCategory",
								"offset": 0,
								"slot": "5",
								"type": "t_enum(NftCategory)786"
							}
						],
						"numberOfBytes": "192"
					},
					"t_struct(User)811_storage": {
						"encoding": "inplace",
						"label": "struct UserDashboard.User",
						"members": [
							{
								"astId": 802,
								"contract": "Bluelight-MP/UserDashboard.sol:UserDashboard",
								"label": "userName",
								"offset": 0,
								"slot": "0",
								"type": "t_string_storage"
							},
							{
								"astId": 804,
								"contract": "Bluelight-MP/UserDashboard.sol:UserDashboard",
								"label": "userExisted",
								"offset": 0,
								"slot": "1",
								"type": "t_bool"
							},
							{
								"astId": 806,
								"contract": "Bluelight-MP/UserDashboard.sol:UserDashboard",
								"label": "creationTime",
								"offset": 0,
								"slot": "2",
								"type": "t_uint256"
							},
							{
								"astId": 808,
								"contract": "Bluelight-MP/UserDashboard.sol:UserDashboard",
								"label": "loggedIn",
								"offset": 0,
								"slot": "3",
								"type": "t_bool"
							},
							{
								"astId": 810,
								"contract": "Bluelight-MP/UserDashboard.sol:UserDashboard",
								"label": "profilePic",
								"offset": 0,
								"slot": "4",
								"type": "t_string_storage"
							}
						],
						"numberOfBytes": "160"
					},
					"t_uint256": {
						"encoding": "inplace",
						"label": "uint256",
						"numberOfBytes": "32"
					}
				}
			},
			"userdoc": {
				"kind": "user",
				"methods": {},
				"version": 1
			}
		}
	}
}