{
	"Bluelight-MP/UserDashboard.sol": {
		"UserDashboard": {
			"abi": [
				{
					"inputs": [
						{
							"internalType": "address",
							"name": "wmAddr",
							"type": "address"
						}
					],
					"stateMutability": "nonpayable",
					"type": "constructor"
				},
				{
					"anonymous": false,
					"inputs": [
						{
							"indexed": true,
							"internalType": "address",
							"name": "user",
							"type": "address"
						},
						{
							"indexed": false,
							"internalType": "uint256",
							"name": "timeStamp",
							"type": "uint256"
						}
					],
					"name": "LoggingIn",
					"type": "event"
				},
				{
					"anonymous": false,
					"inputs": [
						{
							"indexed": true,
							"internalType": "address",
							"name": "user",
							"type": "address"
						},
						{
							"indexed": false,
							"internalType": "uint256",
							"name": "timeStamp",
							"type": "uint256"
						}
					],
					"name": "LoggingOut",
					"type": "event"
				},
				{
					"anonymous": false,
					"inputs": [
						{
							"indexed": true,
							"internalType": "address",
							"name": "user",
							"type": "address"
						},
						{
							"indexed": false,
							"internalType": "string",
							"name": "username",
							"type": "string"
						},
						{
							"indexed": false,
							"internalType": "uint256",
							"name": "timeStamp",
							"type": "uint256"
						}
					],
					"name": "SignUp",
					"type": "event"
				},
				{
					"inputs": [
						{
							"internalType": "address",
							"name": "",
							"type": "address"
						}
					],
					"name": "addressToAmountRecord",
					"outputs": [
						{
							"internalType": "uint256",
							"name": "curAmountSpent",
							"type": "uint256"
						},
						{
							"internalType": "uint256",
							"name": "tokenAmountSpent",
							"type": "uint256"
						},
						{
							"internalType": "uint256",
							"name": "curAmountEarned",
							"type": "uint256"
						},
						{
							"internalType": "uint256",
							"name": "tokenAmountEarned",
							"type": "uint256"
						}
					],
					"stateMutability": "view",
					"type": "function"
				},
				{
					"inputs": [
						{
							"internalType": "address",
							"name": "_userAddr",
							"type": "address"
						}
					],
					"name": "checkLogIn",
					"outputs": [
						{
							"internalType": "bool",
							"name": "",
							"type": "bool"
						}
					],
					"stateMutability": "view",
					"type": "function"
				},
				{
					"inputs": [],
					"name": "checkUser",
					"outputs": [
						{
							"internalType": "string",
							"name": "",
							"type": "string"
						}
					],
					"stateMutability": "view",
					"type": "function"
				},
				{
					"inputs": [],
					"name": "deleteUser",
					"outputs": [
						{
							"internalType": "bool",
							"name": "",
							"type": "bool"
						}
					],
					"stateMutability": "nonpayable",
					"type": "function"
				},
				{
					"inputs": [
						{
							"internalType": "bytes32",
							"name": "_uniKey",
							"type": "bytes32"
						}
					],
					"name": "getNftdata",
					"outputs": [
						{
							"internalType": "address",
							"name": "nftContractAddress",
							"type": "address"
						},
						{
							"internalType": "uint256",
							"name": "tokenId",
							"type": "uint256"
						},
						{
							"internalType": "address",
							"name": "owner",
							"type": "address"
						},
						{
							"internalType": "string",
							"name": "iPFS",
							"type": "string"
						}
					],
					"stateMutability": "view",
					"type": "function"
				},
				{
					"inputs": [],
					"name": "getProfilePic",
					"outputs": [
						{
							"internalType": "string",
							"name": "ipfs",
							"type": "string"
						}
					],
					"stateMutability": "view",
					"type": "function"
				},
				{
					"inputs": [
						{
							"internalType": "address",
							"name": "ownerOfNfts",
							"type": "address"
						}
					],
					"name": "getUniKeysMapping",
					"outputs": [
						{
							"internalType": "bytes32[]",
							"name": "",
							"type": "bytes32[]"
						}
					],
					"stateMutability": "view",
					"type": "function"
				},
				{
					"inputs": [],
					"name": "logIn",
					"outputs": [],
					"stateMutability": "nonpayable",
					"type": "function"
				},
				{
					"inputs": [],
					"name": "logOut",
					"outputs": [],
					"stateMutability": "nonpayable",
					"type": "function"
				},
				{
					"inputs": [
						{
							"internalType": "bytes32",
							"name": "",
							"type": "bytes32"
						}
					],
					"name": "myNFTs",
					"outputs": [
						{
							"internalType": "address",
							"name": "contractAddress",
							"type": "address"
						},
						{
							"internalType": "uint256",
							"name": "tokenId",
							"type": "uint256"
						},
						{
							"internalType": "address",
							"name": "owner",
							"type": "address"
						},
						{
							"internalType": "string",
							"name": "ipfs",
							"type": "string"
						}
					],
					"stateMutability": "view",
					"type": "function"
				},
				{
					"inputs": [
						{
							"internalType": "address",
							"name": "user",
							"type": "address"
						},
						{
							"internalType": "uint256",
							"name": "curAmountSpent",
							"type": "uint256"
						},
						{
							"internalType": "uint256",
							"name": "tokenAmountSpent",
							"type": "uint256"
						},
						{
							"internalType": "uint256",
							"name": "curAmountEarned",
							"type": "uint256"
						},
						{
							"internalType": "uint256",
							"name": "tokenAmountEarned",
							"type": "uint256"
						}
					],
					"name": "setAmountRecord",
					"outputs": [],
					"stateMutability": "nonpayable",
					"type": "function"
				},
				{
					"inputs": [
						{
							"internalType": "address",
							"name": "owner",
							"type": "address"
						},
						{
							"internalType": "address",
							"name": "nftContractAddress",
							"type": "address"
						},
						{
							"internalType": "uint256",
							"name": "tokenId",
							"type": "uint256"
						},
						{
							"internalType": "string",
							"name": "iPFS",
							"type": "string"
						}
					],
					"name": "setNftData",
					"outputs": [],
					"stateMutability": "nonpayable",
					"type": "function"
				},
				{
					"inputs": [
						{
							"internalType": "string",
							"name": "iPFS",
							"type": "string"
						}
					],
					"name": "setProfilePic",
					"outputs": [],
					"stateMutability": "nonpayable",
					"type": "function"
				},
				{
					"inputs": [
						{
							"internalType": "string",
							"name": "_userName",
							"type": "string"
						}
					],
					"name": "signUp",
					"outputs": [],
					"stateMutability": "nonpayable",
					"type": "function"
				},
				{
					"inputs": [
						{
							"internalType": "address",
							"name": "",
							"type": "address"
						},
						{
							"internalType": "uint256",
							"name": "",
							"type": "uint256"
						}
					],
					"name": "uniKeysMapping",
					"outputs": [
						{
							"internalType": "bytes32",
							"name": "",
							"type": "bytes32"
						}
					],
					"stateMutability": "view",
					"type": "function"
				},
				{
					"inputs": [
						{
							"internalType": "string",
							"name": "_userName",
							"type": "string"
						}
					],
					"name": "updateUser",
					"outputs": [],
					"stateMutability": "nonpayable",
					"type": "function"
				},
				{
					"inputs": [
						{
							"internalType": "address",
							"name": "user",
							"type": "address"
						}
					],
					"name": "userAmountDetail",
					"outputs": [
						{
							"internalType": "uint256",
							"name": "currencyEarned",
							"type": "uint256"
						},
						{
							"internalType": "uint256",
							"name": "earnedToken",
							"type": "uint256"
						},
						{
							"internalType": "uint256",
							"name": "currencySpent",
							"type": "uint256"
						},
						{
							"internalType": "uint256",
							"name": "tokenSpent",
							"type": "uint256"
						}
					],
					"stateMutability": "view",
					"type": "function"
				},
				{
					"inputs": [
						{
							"internalType": "string",
							"name": "",
							"type": "string"
						}
					],
					"name": "userNameToAddress",
					"outputs": [
						{
							"internalType": "address",
							"name": "",
							"type": "address"
						}
					],
					"stateMutability": "view",
					"type": "function"
				}
			],
			"devdoc": {
				"kind": "dev",
				"methods": {},
				"version": 1
			},
			"evm": {
				"assembly": "    /* \"Bluelight-MP/UserDashboard.sol\":147:6130  contract UserDashboard is IUserDashboard{\r... */\n  mstore(0x40, 0x80)\n    /* \"Bluelight-MP/UserDashboard.sol\":1233:1315  constructor(address wmAddr){\r... */\n  callvalue\n  dup1\n  iszero\n  tag_1\n  jumpi\n  0x00\n  dup1\n  revert\ntag_1:\n  pop\n  mload(0x40)\n  sub(codesize, bytecodeSize)\n  dup1\n  bytecodeSize\n  dup4\n  codecopy\n  dup2\n  dup2\n  add\n  0x40\n  mstore\n  dup2\n  add\n  swap1\n  tag_2\n  swap2\n  swap1\n  tag_3\n  jump\t// in\ntag_2:\n    /* \"Bluelight-MP/UserDashboard.sol\":1300:1306  wmAddr */\n  dup1\n    /* \"Bluelight-MP/UserDashboard.sol\":1271:1285  waterMelonAddr */\n  0x00\n  dup1\n    /* \"Bluelight-MP/UserDashboard.sol\":1271:1307  waterMelonAddr = IWaterMelon(wmAddr) */\n  0x0100\n  exp\n  dup2\n  sload\n  dup2\n  0xffffffffffffffffffffffffffffffffffffffff\n  mul\n  not\n  and\n  swap1\n  dup4\n  0xffffffffffffffffffffffffffffffffffffffff\n  and\n  mul\n  or\n  swap1\n  sstore\n  pop\n    /* \"Bluelight-MP/UserDashboard.sol\":1233:1315  constructor(address wmAddr){\r... */\n  pop\n    /* \"Bluelight-MP/UserDashboard.sol\":147:6130  contract UserDashboard is IUserDashboard{\r... */\n  jump(tag_6)\n    /* \"#utility.yul\":7:150   */\ntag_8:\n    /* \"#utility.yul\":64:69   */\n  0x00\n    /* \"#utility.yul\":95:101   */\n  dup2\n    /* \"#utility.yul\":89:102   */\n  mload\n    /* \"#utility.yul\":80:102   */\n  swap1\n  pop\n    /* \"#utility.yul\":111:144   */\n  tag_10\n    /* \"#utility.yul\":138:143   */\n  dup2\n    /* \"#utility.yul\":111:144   */\n  tag_11\n  jump\t// in\ntag_10:\n    /* \"#utility.yul\":70:150   */\n  swap3\n  swap2\n  pop\n  pop\n  jump\t// out\n    /* \"#utility.yul\":156:440   */\ntag_3:\n    /* \"#utility.yul\":226:232   */\n  0x00\n    /* \"#utility.yul\":275:277   */\n  0x20\n    /* \"#utility.yul\":263:272   */\n  dup3\n    /* \"#utility.yul\":254:261   */\n  dup5\n    /* \"#utility.yul\":250:273   */\n  sub\n    /* \"#utility.yul\":246:278   */\n  slt\n    /* \"#utility.yul\":243:245   */\n  iszero\n  tag_13\n  jumpi\n    /* \"#utility.yul\":291:292   */\n  0x00\n    /* \"#utility.yul\":288:289   */\n  dup1\n    /* \"#utility.yul\":281:293   */\n  revert\n    /* \"#utility.yul\":243:245   */\ntag_13:\n    /* \"#utility.yul\":334:335   */\n  0x00\n    /* \"#utility.yul\":359:423   */\n  tag_14\n    /* \"#utility.yul\":415:422   */\n  dup5\n    /* \"#utility.yul\":406:412   */\n  dup3\n    /* \"#utility.yul\":395:404   */\n  dup6\n    /* \"#utility.yul\":391:413   */\n  add\n    /* \"#utility.yul\":359:423   */\n  tag_8\n  jump\t// in\ntag_14:\n    /* \"#utility.yul\":349:423   */\n  swap2\n  pop\n    /* \"#utility.yul\":305:433   */\n  pop\n    /* \"#utility.yul\":233:440   */\n  swap3\n  swap2\n  pop\n  pop\n  jump\t// out\n    /* \"#utility.yul\":446:542   */\ntag_15:\n    /* \"#utility.yul\":483:490   */\n  0x00\n    /* \"#utility.yul\":512:536   */\n  tag_17\n    /* \"#utility.yul\":530:535   */\n  dup3\n    /* \"#utility.yul\":512:536   */\n  tag_18\n  jump\t// in\ntag_17:\n    /* \"#utility.yul\":501:536   */\n  swap1\n  pop\n    /* \"#utility.yul\":491:542   */\n  swap2\n  swap1\n  pop\n  jump\t// out\n    /* \"#utility.yul\":548:674   */\ntag_18:\n    /* \"#utility.yul\":585:592   */\n  0x00\n    /* \"#utility.yul\":625:667   */\n  0xffffffffffffffffffffffffffffffffffffffff\n    /* \"#utility.yul\":618:623   */\n  dup3\n    /* \"#utility.yul\":614:668   */\n  and\n    /* \"#utility.yul\":603:668   */\n  swap1\n  pop\n    /* \"#utility.yul\":593:674   */\n  swap2\n  swap1\n  pop\n  jump\t// out\n    /* \"#utility.yul\":680:802   */\ntag_11:\n    /* \"#utility.yul\":753:777   */\n  tag_21\n    /* \"#utility.yul\":771:776   */\n  dup2\n    /* \"#utility.yul\":753:777   */\n  tag_15\n  jump\t// in\ntag_21:\n    /* \"#utility.yul\":746:751   */\n  dup2\n    /* \"#utility.yul\":743:778   */\n  eq\n    /* \"#utility.yul\":733:735   */\n  tag_22\n  jumpi\n    /* \"#utility.yul\":792:793   */\n  0x00\n    /* \"#utility.yul\":789:790   */\n  dup1\n    /* \"#utility.yul\":782:794   */\n  revert\n    /* \"#utility.yul\":733:735   */\ntag_22:\n    /* \"#utility.yul\":723:802   */\n  pop\n  jump\t// out\n    /* \"Bluelight-MP/UserDashboard.sol\":147:6130  contract UserDashboard is IUserDashboard{\r... */\ntag_6:\n  dataSize(sub_0)\n  dup1\n  dataOffset(sub_0)\n  0x00\n  codecopy\n  0x00\n  return\nstop\n\nsub_0: assembly {\n        /* \"Bluelight-MP/UserDashboard.sol\":147:6130  contract UserDashboard is IUserDashboard{\r... */\n      mstore(0x40, 0x80)\n      callvalue\n      dup1\n      iszero\n      tag_1\n      jumpi\n      0x00\n      dup1\n      revert\n    tag_1:\n      pop\n      jumpi(tag_2, lt(calldatasize, 0x04))\n      shr(0xe0, calldataload(0x00))\n      dup1\n      0x6c608709\n      gt\n      tag_21\n      jumpi\n      dup1\n      0x9efa528e\n      gt\n      tag_22\n      jumpi\n      dup1\n      0x9efa528e\n      eq\n      tag_16\n      jumpi\n      dup1\n      0xadcfb4fc\n      eq\n      tag_17\n      jumpi\n      dup1\n      0xc1562547\n      eq\n      tag_18\n      jumpi\n      dup1\n      0xeb972008\n      eq\n      tag_19\n      jumpi\n      dup1\n      0xf6f2ede0\n      eq\n      tag_20\n      jumpi\n      jump(tag_2)\n    tag_22:\n      dup1\n      0x6c608709\n      eq\n      tag_12\n      jumpi\n      dup1\n      0x7111e750\n      eq\n      tag_13\n      jumpi\n      dup1\n      0x894fd813\n      eq\n      tag_14\n      jumpi\n      dup1\n      0x8a1b9736\n      eq\n      tag_15\n      jumpi\n      jump(tag_2)\n    tag_21:\n      dup1\n      0x23e583b4\n      gt\n      tag_23\n      jumpi\n      dup1\n      0x23e583b4\n      eq\n      tag_7\n      jumpi\n      dup1\n      0x377b47a3\n      eq\n      tag_8\n      jumpi\n      dup1\n      0x46064ab9\n      eq\n      tag_9\n      jumpi\n      dup1\n      0x4be422ae\n      eq\n      tag_10\n      jumpi\n      dup1\n      0x5cb0122a\n      eq\n      tag_11\n      jumpi\n      jump(tag_2)\n    tag_23:\n      dup1\n      0x011f2cce\n      eq\n      tag_3\n      jumpi\n      dup1\n      0x026ff05e\n      eq\n      tag_4\n      jumpi\n      dup1\n      0x07edbdc5\n      eq\n      tag_5\n      jumpi\n      dup1\n      0x0b4f12f6\n      eq\n      tag_6\n      jumpi\n    tag_2:\n      0x00\n      dup1\n      revert\n        /* \"Bluelight-MP/UserDashboard.sol\":3945:4144  function setProfilePic(string memory iPFS) external {\r... */\n    tag_3:\n      tag_24\n      0x04\n      dup1\n      calldatasize\n      sub\n      dup2\n      add\n      swap1\n      tag_25\n      swap2\n      swap1\n      tag_26\n      jump\t// in\n    tag_25:\n      tag_27\n      jump\t// in\n    tag_24:\n      stop\n        /* \"Bluelight-MP/UserDashboard.sol\":4951:5247  function deleteUser() external virtual override returns(bool){\r... */\n    tag_4:\n      tag_28\n      tag_29\n      jump\t// in\n    tag_28:\n      mload(0x40)\n      tag_30\n      swap2\n      swap1\n      tag_31\n      jump\t// in\n    tag_30:\n      mload(0x40)\n      dup1\n      swap2\n      sub\n      swap1\n      return\n        /* \"Bluelight-MP/UserDashboard.sol\":890:930  mapping (bytes32 => MyNFT) public myNFTs */\n    tag_5:\n      tag_32\n      0x04\n      dup1\n      calldatasize\n      sub\n      dup2\n      add\n      swap1\n      tag_33\n      swap2\n      swap1\n      tag_34\n      jump\t// in\n    tag_33:\n      tag_35\n      jump\t// in\n    tag_32:\n      mload(0x40)\n      tag_36\n      swap5\n      swap4\n      swap3\n      swap2\n      swap1\n      tag_37\n      jump\t// in\n    tag_36:\n      mload(0x40)\n      dup1\n      swap2\n      sub\n      swap1\n      return\n        /* \"Bluelight-MP/UserDashboard.sol\":4504:4945  function updateUser(string memory _userName) external virtual override{\r... */\n    tag_6:\n      tag_38\n      0x04\n      dup1\n      calldatasize\n      sub\n      dup2\n      add\n      swap1\n      tag_39\n      swap2\n      swap1\n      tag_26\n      jump\t// in\n    tag_39:\n      tag_40\n      jump\t// in\n    tag_38:\n      stop\n        /* \"Bluelight-MP/UserDashboard.sol\":937:989  mapping (address => bytes32[]) public uniKeysMapping */\n    tag_7:\n      tag_41\n      0x04\n      dup1\n      calldatasize\n      sub\n      dup2\n      add\n      swap1\n      tag_42\n      swap2\n      swap1\n      tag_43\n      jump\t// in\n    tag_42:\n      tag_44\n      jump\t// in\n    tag_41:\n      mload(0x40)\n      tag_45\n      swap2\n      swap1\n      tag_46\n      jump\t// in\n    tag_45:\n      mload(0x40)\n      dup1\n      swap2\n      sub\n      swap1\n      return\n        /* \"Bluelight-MP/UserDashboard.sol\":2574:2894  function logIn() virtual override external {\r... */\n    tag_8:\n      tag_47\n      tag_48\n      jump\t// in\n    tag_47:\n      stop\n        /* \"Bluelight-MP/UserDashboard.sol\":1988:2351  function getNftdata(bytes32 _uniKey) external virtual override view returns(address nftContractAddress, uint256 tokenId, address owner, string memory iPFS){\r... */\n    tag_9:\n      tag_49\n      0x04\n      dup1\n      calldatasize\n      sub\n      dup2\n      add\n      swap1\n      tag_50\n      swap2\n      swap1\n      tag_34\n      jump\t// in\n    tag_50:\n      tag_51\n      jump\t// in\n    tag_49:\n      mload(0x40)\n      tag_52\n      swap5\n      swap4\n      swap3\n      swap2\n      swap1\n      tag_37\n      jump\t// in\n    tag_52:\n      mload(0x40)\n      dup1\n      swap2\n      sub\n      swap1\n      return\n        /* \"Bluelight-MP/UserDashboard.sol\":3043:3276  function logOut() external virtual override{\r... */\n    tag_10:\n      tag_53\n      tag_54\n      jump\t// in\n    tag_53:\n      stop\n        /* \"Bluelight-MP/UserDashboard.sol\":2357:2497  function getUniKeysMapping(address ownerOfNfts) external view returns(bytes32[] memory){\r... */\n    tag_11:\n      tag_55\n      0x04\n      dup1\n      calldatasize\n      sub\n      dup2\n      add\n      swap1\n      tag_56\n      swap2\n      swap1\n      tag_57\n      jump\t// in\n    tag_56:\n      tag_58\n      jump\t// in\n    tag_55:\n      mload(0x40)\n      tag_59\n      swap2\n      swap1\n      tag_60\n      jump\t// in\n    tag_59:\n      mload(0x40)\n      dup1\n      swap2\n      sub\n      swap1\n      return\n        /* \"Bluelight-MP/UserDashboard.sol\":1063:1115  mapping (string => address) public userNameToAddress */\n    tag_12:\n      tag_61\n      0x04\n      dup1\n      calldatasize\n      sub\n      dup2\n      add\n      swap1\n      tag_62\n      swap2\n      swap1\n      tag_26\n      jump\t// in\n    tag_62:\n      tag_63\n      jump\t// in\n    tag_61:\n      mload(0x40)\n      tag_64\n      swap2\n      swap1\n      tag_65\n      jump\t// in\n    tag_64:\n      mload(0x40)\n      dup1\n      swap2\n      sub\n      swap1\n      return\n        /* \"Bluelight-MP/UserDashboard.sol\":1162:1224  mapping (address => AmountRecord) public addressToAmountRecord */\n    tag_13:\n      tag_66\n      0x04\n      dup1\n      calldatasize\n      sub\n      dup2\n      add\n      swap1\n      tag_67\n      swap2\n      swap1\n      tag_57\n      jump\t// in\n    tag_67:\n      tag_68\n      jump\t// in\n    tag_66:\n      mload(0x40)\n      tag_69\n      swap5\n      swap4\n      swap3\n      swap2\n      swap1\n      tag_70\n      jump\t// in\n    tag_69:\n      mload(0x40)\n      dup1\n      swap2\n      sub\n      swap1\n      return\n        /* \"Bluelight-MP/UserDashboard.sol\":5253:5711  function setAmountRecord(address user, uint curAmountSpent, uint tokenAmountSpent, uint curAmountEarned, uint tokenAmountEarned) external virtual override{\r... */\n    tag_14:\n      tag_71\n      0x04\n      dup1\n      calldatasize\n      sub\n      dup2\n      add\n      swap1\n      tag_72\n      swap2\n      swap1\n      tag_73\n      jump\t// in\n    tag_72:\n      tag_74\n      jump\t// in\n    tag_71:\n      stop\n        /* \"Bluelight-MP/UserDashboard.sol\":5717:6127  function userAmountDetail(address user) external virtual override view \r... */\n    tag_15:\n      tag_75\n      0x04\n      dup1\n      calldatasize\n      sub\n      dup2\n      add\n      swap1\n      tag_76\n      swap2\n      swap1\n      tag_57\n      jump\t// in\n    tag_76:\n      tag_77\n      jump\t// in\n    tag_75:\n      mload(0x40)\n      tag_78\n      swap5\n      swap4\n      swap3\n      swap2\n      swap1\n      tag_70\n      jump\t// in\n    tag_78:\n      mload(0x40)\n      dup1\n      swap2\n      sub\n      swap1\n      return\n        /* \"Bluelight-MP/UserDashboard.sol\":1524:1982  function setNftData(address owner, address nftContractAddress, uint256 tokenId, string memory iPFS) external virtual override{\r... */\n    tag_16:\n      tag_79\n      0x04\n      dup1\n      calldatasize\n      sub\n      dup2\n      add\n      swap1\n      tag_80\n      swap2\n      swap1\n      tag_81\n      jump\t// in\n    tag_80:\n      tag_82\n      jump\t// in\n    tag_79:\n      stop\n        /* \"Bluelight-MP/UserDashboard.sol\":3282:3939  function signUp(string memory _userName) external virtual override{\r... */\n    tag_17:\n      tag_83\n      0x04\n      dup1\n      calldatasize\n      sub\n      dup2\n      add\n      swap1\n      tag_84\n      swap2\n      swap1\n      tag_26\n      jump\t// in\n    tag_84:\n      tag_85\n      jump\t// in\n    tag_83:\n      stop\n        /* \"Bluelight-MP/UserDashboard.sol\":4276:4498  function checkUser() external virtual override view returns(string memory){\r... */\n    tag_18:\n      tag_86\n      tag_87\n      jump\t// in\n    tag_86:\n      mload(0x40)\n      tag_88\n      swap2\n      swap1\n      tag_89\n      jump\t// in\n    tag_88:\n      mload(0x40)\n      dup1\n      swap2\n      sub\n      swap1\n      return\n        /* \"Bluelight-MP/UserDashboard.sol\":4150:4270  function getProfilePic() external view returns(string memory ipfs){\r... */\n    tag_19:\n      tag_90\n      tag_91\n      jump\t// in\n    tag_90:\n      mload(0x40)\n      tag_92\n      swap2\n      swap1\n      tag_89\n      jump\t// in\n    tag_92:\n      mload(0x40)\n      dup1\n      swap2\n      sub\n      swap1\n      return\n        /* \"Bluelight-MP/UserDashboard.sol\":2901:3037  function checkLogIn(address _userAddr) external virtual override view returns(bool){  \r... */\n    tag_20:\n      tag_93\n      0x04\n      dup1\n      calldatasize\n      sub\n      dup2\n      add\n      swap1\n      tag_94\n      swap2\n      swap1\n      tag_57\n      jump\t// in\n    tag_94:\n      tag_95\n      jump\t// in\n    tag_93:\n      mload(0x40)\n      tag_96\n      swap2\n      swap1\n      tag_31\n      jump\t// in\n    tag_96:\n      mload(0x40)\n      dup1\n      swap2\n      sub\n      swap1\n      return\n        /* \"Bluelight-MP/UserDashboard.sol\":3945:4144  function setProfilePic(string memory iPFS) external {\r... */\n    tag_27:\n        /* \"Bluelight-MP/UserDashboard.sol\":4017:4022  users */\n      0x03\n        /* \"Bluelight-MP/UserDashboard.sol\":4017:4034  users[msg.sender] */\n      0x00\n        /* \"Bluelight-MP/UserDashboard.sol\":4023:4033  msg.sender */\n      caller\n        /* \"Bluelight-MP/UserDashboard.sol\":4017:4034  users[msg.sender] */\n      0xffffffffffffffffffffffffffffffffffffffff\n      and\n      0xffffffffffffffffffffffffffffffffffffffff\n      and\n      dup2\n      mstore\n      0x20\n      add\n      swap1\n      dup2\n      mstore\n      0x20\n      add\n      0x00\n      keccak256\n        /* \"Bluelight-MP/UserDashboard.sol\":4017:4043  users[msg.sender].loggedIn */\n      0x03\n      add\n      0x00\n      swap1\n      sload\n      swap1\n      0x0100\n      exp\n      swap1\n      div\n      0xff\n      and\n        /* \"Bluelight-MP/UserDashboard.sol\":4008:4090  require (users[msg.sender].loggedIn, \"Login to your account, to set profile pic.\") */\n      tag_98\n      jumpi\n      mload(0x40)\n      0x08c379a000000000000000000000000000000000000000000000000000000000\n      dup2\n      mstore\n      0x04\n      add\n      tag_99\n      swap1\n      tag_100\n      jump\t// in\n    tag_99:\n      mload(0x40)\n      dup1\n      swap2\n      sub\n      swap1\n      revert\n    tag_98:\n        /* \"Bluelight-MP/UserDashboard.sol\":4132:4136  iPFS */\n      dup1\n        /* \"Bluelight-MP/UserDashboard.sol\":4101:4106  users */\n      0x03\n        /* \"Bluelight-MP/UserDashboard.sol\":4101:4118  users[msg.sender] */\n      0x00\n        /* \"Bluelight-MP/UserDashboard.sol\":4107:4117  msg.sender */\n      caller\n        /* \"Bluelight-MP/UserDashboard.sol\":4101:4118  users[msg.sender] */\n      0xffffffffffffffffffffffffffffffffffffffff\n      and\n      0xffffffffffffffffffffffffffffffffffffffff\n      and\n      dup2\n      mstore\n      0x20\n      add\n      swap1\n      dup2\n      mstore\n      0x20\n      add\n      0x00\n      keccak256\n        /* \"Bluelight-MP/UserDashboard.sol\":4101:4129  users[msg.sender].profilePic */\n      0x04\n      add\n        /* \"Bluelight-MP/UserDashboard.sol\":4101:4136  users[msg.sender].profilePic = iPFS */\n      swap1\n      dup1\n      mload\n      swap1\n      0x20\n      add\n      swap1\n      tag_101\n      swap3\n      swap2\n      swap1\n      tag_102\n      jump\t// in\n    tag_101:\n      pop\n        /* \"Bluelight-MP/UserDashboard.sol\":3945:4144  function setProfilePic(string memory iPFS) external {\r... */\n      pop\n      jump\t// out\n        /* \"Bluelight-MP/UserDashboard.sol\":4951:5247  function deleteUser() external virtual override returns(bool){\r... */\n    tag_29:\n        /* \"Bluelight-MP/UserDashboard.sol\":5007:5011  bool */\n      0x00\n        /* \"Bluelight-MP/UserDashboard.sol\":5032:5037  users */\n      0x03\n        /* \"Bluelight-MP/UserDashboard.sol\":5032:5049  users[msg.sender] */\n      0x00\n        /* \"Bluelight-MP/UserDashboard.sol\":5038:5048  msg.sender */\n      caller\n        /* \"Bluelight-MP/UserDashboard.sol\":5032:5049  users[msg.sender] */\n      0xffffffffffffffffffffffffffffffffffffffff\n      and\n      0xffffffffffffffffffffffffffffffffffffffff\n      and\n      dup2\n      mstore\n      0x20\n      add\n      swap1\n      dup2\n      mstore\n      0x20\n      add\n      0x00\n      keccak256\n        /* \"Bluelight-MP/UserDashboard.sol\":5032:5061  users[msg.sender].userExisted */\n      0x01\n      add\n      0x00\n      swap1\n      sload\n      swap1\n      0x0100\n      exp\n      swap1\n      div\n      0xff\n      and\n        /* \"Bluelight-MP/UserDashboard.sol\":5023:5083  require (users[msg.sender].userExisted, \"user not existed.\") */\n      tag_104\n      jumpi\n      mload(0x40)\n      0x08c379a000000000000000000000000000000000000000000000000000000000\n      dup2\n      mstore\n      0x04\n      add\n      tag_105\n      swap1\n      tag_106\n      jump\t// in\n    tag_105:\n      mload(0x40)\n      dup1\n      swap2\n      sub\n      swap1\n      revert\n    tag_104:\n        /* \"Bluelight-MP/UserDashboard.sol\":5094:5112  string memory name */\n      0x00\n        /* \"Bluelight-MP/UserDashboard.sol\":5115:5120  users */\n      0x03\n        /* \"Bluelight-MP/UserDashboard.sol\":5115:5132  users[msg.sender] */\n      0x00\n        /* \"Bluelight-MP/UserDashboard.sol\":5121:5131  msg.sender */\n      caller\n        /* \"Bluelight-MP/UserDashboard.sol\":5115:5132  users[msg.sender] */\n      0xffffffffffffffffffffffffffffffffffffffff\n      and\n      0xffffffffffffffffffffffffffffffffffffffff\n      and\n      dup2\n      mstore\n      0x20\n      add\n      swap1\n      dup2\n      mstore\n      0x20\n      add\n      0x00\n      keccak256\n        /* \"Bluelight-MP/UserDashboard.sol\":5115:5141  users[msg.sender].userName */\n      0x00\n      add\n        /* \"Bluelight-MP/UserDashboard.sol\":5094:5141  string memory name = users[msg.sender].userName */\n      dup1\n      sload\n      tag_107\n      swap1\n      tag_108\n      jump\t// in\n    tag_107:\n      dup1\n      0x1f\n      add\n      0x20\n      dup1\n      swap2\n      div\n      mul\n      0x20\n      add\n      mload(0x40)\n      swap1\n      dup2\n      add\n      0x40\n      mstore\n      dup1\n      swap3\n      swap2\n      swap1\n      dup2\n      dup2\n      mstore\n      0x20\n      add\n      dup3\n      dup1\n      sload\n      tag_109\n      swap1\n      tag_108\n      jump\t// in\n    tag_109:\n      dup1\n      iszero\n      tag_110\n      jumpi\n      dup1\n      0x1f\n      lt\n      tag_111\n      jumpi\n      0x0100\n      dup1\n      dup4\n      sload\n      div\n      mul\n      dup4\n      mstore\n      swap2\n      0x20\n      add\n      swap2\n      jump(tag_110)\n    tag_111:\n      dup3\n      add\n      swap2\n      swap1\n      0x00\n      mstore\n      keccak256(0x00, 0x20)\n      swap1\n    tag_112:\n      dup2\n      sload\n      dup2\n      mstore\n      swap1\n      0x01\n      add\n      swap1\n      0x20\n      add\n      dup1\n      dup4\n      gt\n      tag_112\n      jumpi\n      dup3\n      swap1\n      sub\n      0x1f\n      and\n      dup3\n      add\n      swap2\n    tag_110:\n      pop\n      pop\n      pop\n      pop\n      pop\n      swap1\n      pop\n        /* \"Bluelight-MP/UserDashboard.sol\":5159:5176  userNameToAddress */\n      0x04\n        /* \"Bluelight-MP/UserDashboard.sol\":5177:5181  name */\n      dup2\n        /* \"Bluelight-MP/UserDashboard.sol\":5159:5182  userNameToAddress[name] */\n      mload(0x40)\n      tag_113\n      swap2\n      swap1\n      tag_114\n      jump\t// in\n    tag_113:\n      swap1\n      dup2\n      mstore\n      0x20\n      add\n      mload(0x40)\n      dup1\n      swap2\n      sub\n      swap1\n      keccak256\n      0x00\n        /* \"Bluelight-MP/UserDashboard.sol\":5152:5182  delete userNameToAddress[name] */\n      0x0100\n      exp\n      dup2\n      sload\n      swap1\n      0xffffffffffffffffffffffffffffffffffffffff\n      mul\n      not\n      and\n      swap1\n      sstore\n        /* \"Bluelight-MP/UserDashboard.sol\":5200:5205  users */\n      0x03\n        /* \"Bluelight-MP/UserDashboard.sol\":5200:5217  users[msg.sender] */\n      0x00\n        /* \"Bluelight-MP/UserDashboard.sol\":5206:5216  msg.sender */\n      caller\n        /* \"Bluelight-MP/UserDashboard.sol\":5200:5217  users[msg.sender] */\n      0xffffffffffffffffffffffffffffffffffffffff\n      and\n      0xffffffffffffffffffffffffffffffffffffffff\n      and\n      dup2\n      mstore\n      0x20\n      add\n      swap1\n      dup2\n      mstore\n      0x20\n      add\n      0x00\n      keccak256\n      0x00\n        /* \"Bluelight-MP/UserDashboard.sol\":5193:5217  delete users[msg.sender] */\n      dup1\n      dup3\n      add\n      0x00\n      tag_115\n      swap2\n      swap1\n      tag_116\n      jump\t// in\n    tag_115:\n      0x01\n      dup3\n      add\n      exp(0x0100, 0x00)\n      dup2\n      sload\n      swap1\n      0xff\n      mul\n      not\n      and\n      swap1\n      sstore\n      0x02\n      dup3\n      add\n      0x00\n      swap1\n      sstore\n      0x03\n      dup3\n      add\n      exp(0x0100, 0x00)\n      dup2\n      sload\n      swap1\n      0xff\n      mul\n      not\n      and\n      swap1\n      sstore\n      0x04\n      dup3\n      add\n      0x00\n      tag_117\n      swap2\n      swap1\n      tag_116\n      jump\t// in\n    tag_117:\n      pop\n      pop\n        /* \"Bluelight-MP/UserDashboard.sol\":5235:5239  true */\n      0x01\n        /* \"Bluelight-MP/UserDashboard.sol\":5228:5239  return true */\n      swap2\n      pop\n      pop\n        /* \"Bluelight-MP/UserDashboard.sol\":4951:5247  function deleteUser() external virtual override returns(bool){\r... */\n      swap1\n      jump\t// out\n        /* \"Bluelight-MP/UserDashboard.sol\":890:930  mapping (bytes32 => MyNFT) public myNFTs */\n    tag_35:\n      mstore(0x20, 0x01)\n      dup1\n      0x00\n      mstore\n      keccak256(0x00, 0x40)\n      0x00\n      swap2\n      pop\n      swap1\n      pop\n      dup1\n      0x00\n      add\n      0x00\n      swap1\n      sload\n      swap1\n      0x0100\n      exp\n      swap1\n      div\n      0xffffffffffffffffffffffffffffffffffffffff\n      and\n      swap1\n      dup1\n      0x01\n      add\n      sload\n      swap1\n      dup1\n      0x02\n      add\n      0x00\n      swap1\n      sload\n      swap1\n      0x0100\n      exp\n      swap1\n      div\n      0xffffffffffffffffffffffffffffffffffffffff\n      and\n      swap1\n      dup1\n      0x03\n      add\n      dup1\n      sload\n      tag_118\n      swap1\n      tag_108\n      jump\t// in\n    tag_118:\n      dup1\n      0x1f\n      add\n      0x20\n      dup1\n      swap2\n      div\n      mul\n      0x20\n      add\n      mload(0x40)\n      swap1\n      dup2\n      add\n      0x40\n      mstore\n      dup1\n      swap3\n      swap2\n      swap1\n      dup2\n      dup2\n      mstore\n      0x20\n      add\n      dup3\n      dup1\n      sload\n      tag_119\n      swap1\n      tag_108\n      jump\t// in\n    tag_119:\n      dup1\n      iszero\n      tag_120\n      jumpi\n      dup1\n      0x1f\n      lt\n      tag_121\n      jumpi\n      0x0100\n      dup1\n      dup4\n      sload\n      div\n      mul\n      dup4\n      mstore\n      swap2\n      0x20\n      add\n      swap2\n      jump(tag_120)\n    tag_121:\n      dup3\n      add\n      swap2\n      swap1\n      0x00\n      mstore\n      keccak256(0x00, 0x20)\n      swap1\n    tag_122:\n      dup2\n      sload\n      dup2\n      mstore\n      swap1\n      0x01\n      add\n      swap1\n      0x20\n      add\n      dup1\n      dup4\n      gt\n      tag_122\n      jumpi\n      dup3\n      swap1\n      sub\n      0x1f\n      and\n      dup3\n      add\n      swap2\n    tag_120:\n      pop\n      pop\n      pop\n      pop\n      pop\n      swap1\n      pop\n      dup5\n      jump\t// out\n        /* \"Bluelight-MP/UserDashboard.sol\":4504:4945  function updateUser(string memory _userName) external virtual override{\r... */\n    tag_40:\n        /* \"Bluelight-MP/UserDashboard.sol\":4594:4599  users */\n      0x03\n        /* \"Bluelight-MP/UserDashboard.sol\":4594:4611  users[msg.sender] */\n      0x00\n        /* \"Bluelight-MP/UserDashboard.sol\":4600:4610  msg.sender */\n      caller\n        /* \"Bluelight-MP/UserDashboard.sol\":4594:4611  users[msg.sender] */\n      0xffffffffffffffffffffffffffffffffffffffff\n      and\n      0xffffffffffffffffffffffffffffffffffffffff\n      and\n      dup2\n      mstore\n      0x20\n      add\n      swap1\n      dup2\n      mstore\n      0x20\n      add\n      0x00\n      keccak256\n        /* \"Bluelight-MP/UserDashboard.sol\":4594:4620  users[msg.sender].loggedIn */\n      0x03\n      add\n      0x00\n      swap1\n      sload\n      swap1\n      0x0100\n      exp\n      swap1\n      div\n      0xff\n      and\n        /* \"Bluelight-MP/UserDashboard.sol\":4585:4648  require (users[msg.sender].loggedIn, \"Log in to your account.\") */\n      tag_124\n      jumpi\n      mload(0x40)\n      0x08c379a000000000000000000000000000000000000000000000000000000000\n      dup2\n      mstore\n      0x04\n      add\n      tag_125\n      swap1\n      tag_126\n      jump\t// in\n    tag_125:\n      mload(0x40)\n      dup1\n      swap2\n      sub\n      swap1\n      revert\n    tag_124:\n        /* \"Bluelight-MP/UserDashboard.sol\":4708:4709  0 */\n      0x00\n        /* \"Bluelight-MP/UserDashboard.sol\":4668:4710  userNameToAddress[_userName] == address(0) */\n      0xffffffffffffffffffffffffffffffffffffffff\n      and\n        /* \"Bluelight-MP/UserDashboard.sol\":4668:4685  userNameToAddress */\n      0x04\n        /* \"Bluelight-MP/UserDashboard.sol\":4686:4695  _userName */\n      dup3\n        /* \"Bluelight-MP/UserDashboard.sol\":4668:4696  userNameToAddress[_userName] */\n      mload(0x40)\n      tag_127\n      swap2\n      swap1\n      tag_114\n      jump\t// in\n    tag_127:\n      swap1\n      dup2\n      mstore\n      0x20\n      add\n      mload(0x40)\n      dup1\n      swap2\n      sub\n      swap1\n      keccak256\n      0x00\n      swap1\n      sload\n      swap1\n      0x0100\n      exp\n      swap1\n      div\n      0xffffffffffffffffffffffffffffffffffffffff\n      and\n        /* \"Bluelight-MP/UserDashboard.sol\":4668:4710  userNameToAddress[_userName] == address(0) */\n      0xffffffffffffffffffffffffffffffffffffffff\n      and\n      eq\n        /* \"Bluelight-MP/UserDashboard.sol\":4659:4733  require (userNameToAddress[_userName] == address(0), \"user name existed.\") */\n      tag_128\n      jumpi\n      mload(0x40)\n      0x08c379a000000000000000000000000000000000000000000000000000000000\n      dup2\n      mstore\n      0x04\n      add\n      tag_129\n      swap1\n      tag_130\n      jump\t// in\n    tag_129:\n      mload(0x40)\n      dup1\n      swap2\n      sub\n      swap1\n      revert\n    tag_128:\n        /* \"Bluelight-MP/UserDashboard.sol\":4746:4764  string memory name */\n      0x00\n        /* \"Bluelight-MP/UserDashboard.sol\":4767:4772  users */\n      0x03\n        /* \"Bluelight-MP/UserDashboard.sol\":4767:4784  users[msg.sender] */\n      0x00\n        /* \"Bluelight-MP/UserDashboard.sol\":4773:4783  msg.sender */\n      caller\n        /* \"Bluelight-MP/UserDashboard.sol\":4767:4784  users[msg.sender] */\n      0xffffffffffffffffffffffffffffffffffffffff\n      and\n      0xffffffffffffffffffffffffffffffffffffffff\n      and\n      dup2\n      mstore\n      0x20\n      add\n      swap1\n      dup2\n      mstore\n      0x20\n      add\n      0x00\n      keccak256\n        /* \"Bluelight-MP/UserDashboard.sol\":4767:4793  users[msg.sender].userName */\n      0x00\n      add\n        /* \"Bluelight-MP/UserDashboard.sol\":4746:4793  string memory name = users[msg.sender].userName */\n      dup1\n      sload\n      tag_131\n      swap1\n      tag_108\n      jump\t// in\n    tag_131:\n      dup1\n      0x1f\n      add\n      0x20\n      dup1\n      swap2\n      div\n      mul\n      0x20\n      add\n      mload(0x40)\n      swap1\n      dup2\n      add\n      0x40\n      mstore\n      dup1\n      swap3\n      swap2\n      swap1\n      dup2\n      dup2\n      mstore\n      0x20\n      add\n      dup3\n      dup1\n      sload\n      tag_132\n      swap1\n      tag_108\n      jump\t// in\n    tag_132:\n      dup1\n      iszero\n      tag_133\n      jumpi\n      dup1\n      0x1f\n      lt\n      tag_134\n      jumpi\n      0x0100\n      dup1\n      dup4\n      sload\n      div\n      mul\n      dup4\n      mstore\n      swap2\n      0x20\n      add\n      swap2\n      jump(tag_133)\n    tag_134:\n      dup3\n      add\n      swap2\n      swap1\n      0x00\n      mstore\n      keccak256(0x00, 0x20)\n      swap1\n    tag_135:\n      dup2\n      sload\n      dup2\n      mstore\n      swap1\n      0x01\n      add\n      swap1\n      0x20\n      add\n      dup1\n      dup4\n      gt\n      tag_135\n      jumpi\n      dup3\n      swap1\n      sub\n      0x1f\n      and\n      dup3\n      add\n      swap2\n    tag_133:\n      pop\n      pop\n      pop\n      pop\n      pop\n      swap1\n      pop\n        /* \"Bluelight-MP/UserDashboard.sol\":4811:4828  userNameToAddress */\n      0x04\n        /* \"Bluelight-MP/UserDashboard.sol\":4829:4833  name */\n      dup2\n        /* \"Bluelight-MP/UserDashboard.sol\":4811:4834  userNameToAddress[name] */\n      mload(0x40)\n      tag_136\n      swap2\n      swap1\n      tag_114\n      jump\t// in\n    tag_136:\n      swap1\n      dup2\n      mstore\n      0x20\n      add\n      mload(0x40)\n      dup1\n      swap2\n      sub\n      swap1\n      keccak256\n      0x00\n        /* \"Bluelight-MP/UserDashboard.sol\":4804:4834  delete userNameToAddress[name] */\n      0x0100\n      exp\n      dup2\n      sload\n      swap1\n      0xffffffffffffffffffffffffffffffffffffffff\n      mul\n      not\n      and\n      swap1\n      sstore\n        /* \"Bluelight-MP/UserDashboard.sol\":4876:4886  msg.sender */\n      caller\n        /* \"Bluelight-MP/UserDashboard.sol\":4845:4862  userNameToAddress */\n      0x04\n        /* \"Bluelight-MP/UserDashboard.sol\":4863:4872  _userName */\n      dup4\n        /* \"Bluelight-MP/UserDashboard.sol\":4845:4873  userNameToAddress[_userName] */\n      mload(0x40)\n      tag_137\n      swap2\n      swap1\n      tag_114\n      jump\t// in\n    tag_137:\n      swap1\n      dup2\n      mstore\n      0x20\n      add\n      mload(0x40)\n      dup1\n      swap2\n      sub\n      swap1\n      keccak256\n      0x00\n        /* \"Bluelight-MP/UserDashboard.sol\":4845:4886  userNameToAddress[_userName] = msg.sender */\n      0x0100\n      exp\n      dup2\n      sload\n      dup2\n      0xffffffffffffffffffffffffffffffffffffffff\n      mul\n      not\n      and\n      swap1\n      dup4\n      0xffffffffffffffffffffffffffffffffffffffff\n      and\n      mul\n      or\n      swap1\n      sstore\n      pop\n        /* \"Bluelight-MP/UserDashboard.sol\":4928:4937  _userName */\n      dup2\n        /* \"Bluelight-MP/UserDashboard.sol\":4899:4904  users */\n      0x03\n        /* \"Bluelight-MP/UserDashboard.sol\":4899:4916  users[msg.sender] */\n      0x00\n        /* \"Bluelight-MP/UserDashboard.sol\":4905:4915  msg.sender */\n      caller\n        /* \"Bluelight-MP/UserDashboard.sol\":4899:4916  users[msg.sender] */\n      0xffffffffffffffffffffffffffffffffffffffff\n      and\n      0xffffffffffffffffffffffffffffffffffffffff\n      and\n      dup2\n      mstore\n      0x20\n      add\n      swap1\n      dup2\n      mstore\n      0x20\n      add\n      0x00\n      keccak256\n        /* \"Bluelight-MP/UserDashboard.sol\":4899:4925  users[msg.sender].userName */\n      0x00\n      add\n        /* \"Bluelight-MP/UserDashboard.sol\":4899:4937  users[msg.sender].userName = _userName */\n      swap1\n      dup1\n      mload\n      swap1\n      0x20\n      add\n      swap1\n      tag_138\n      swap3\n      swap2\n      swap1\n      tag_102\n      jump\t// in\n    tag_138:\n      pop\n        /* \"Bluelight-MP/UserDashboard.sol\":4504:4945  function updateUser(string memory _userName) external virtual override{\r... */\n      pop\n      pop\n      jump\t// out\n        /* \"Bluelight-MP/UserDashboard.sol\":937:989  mapping (address => bytes32[]) public uniKeysMapping */\n    tag_44:\n      mstore(0x20, 0x02)\n      dup2\n      0x00\n      mstore\n      keccak256(0x00, 0x40)\n      dup2\n      dup2\n      sload\n      dup2\n      lt\n      tag_139\n      jumpi\n      0x00\n      dup1\n      revert\n    tag_139:\n      swap1\n      0x00\n      mstore\n      keccak256(0x00, 0x20)\n      add\n      0x00\n      swap2\n      pop\n      swap2\n      pop\n      pop\n      sload\n      dup2\n      jump\t// out\n        /* \"Bluelight-MP/UserDashboard.sol\":2574:2894  function logIn() virtual override external {\r... */\n    tag_48:\n        /* \"Bluelight-MP/UserDashboard.sol\":2637:2642  users */\n      0x03\n        /* \"Bluelight-MP/UserDashboard.sol\":2637:2654  users[msg.sender] */\n      0x00\n        /* \"Bluelight-MP/UserDashboard.sol\":2643:2653  msg.sender */\n      caller\n        /* \"Bluelight-MP/UserDashboard.sol\":2637:2654  users[msg.sender] */\n      0xffffffffffffffffffffffffffffffffffffffff\n      and\n      0xffffffffffffffffffffffffffffffffffffffff\n      and\n      dup2\n      mstore\n      0x20\n      add\n      swap1\n      dup2\n      mstore\n      0x20\n      add\n      0x00\n      keccak256\n        /* \"Bluelight-MP/UserDashboard.sol\":2637:2666  users[msg.sender].userExisted */\n      0x01\n      add\n      0x00\n      swap1\n      sload\n      swap1\n      0x0100\n      exp\n      swap1\n      div\n      0xff\n      and\n        /* \"Bluelight-MP/UserDashboard.sol\":2628:2710  require (users[msg.sender].userExisted, \"user not existed, create account first.\") */\n      tag_142\n      jumpi\n      mload(0x40)\n      0x08c379a000000000000000000000000000000000000000000000000000000000\n      dup2\n      mstore\n      0x04\n      add\n      tag_143\n      swap1\n      tag_144\n      jump\t// in\n    tag_143:\n      mload(0x40)\n      dup1\n      swap2\n      sub\n      swap1\n      revert\n    tag_142:\n        /* \"Bluelight-MP/UserDashboard.sol\":2731:2736  users */\n      0x03\n        /* \"Bluelight-MP/UserDashboard.sol\":2731:2748  users[msg.sender] */\n      0x00\n        /* \"Bluelight-MP/UserDashboard.sol\":2737:2747  msg.sender */\n      caller\n        /* \"Bluelight-MP/UserDashboard.sol\":2731:2748  users[msg.sender] */\n      0xffffffffffffffffffffffffffffffffffffffff\n      and\n      0xffffffffffffffffffffffffffffffffffffffff\n      and\n      dup2\n      mstore\n      0x20\n      add\n      swap1\n      dup2\n      mstore\n      0x20\n      add\n      0x00\n      keccak256\n        /* \"Bluelight-MP/UserDashboard.sol\":2731:2757  users[msg.sender].loggedIn */\n      0x03\n      add\n      0x00\n      swap1\n      sload\n      swap1\n      0x0100\n      exp\n      swap1\n      div\n      0xff\n      and\n        /* \"Bluelight-MP/UserDashboard.sol\":2730:2757  !users[msg.sender].loggedIn */\n      iszero\n        /* \"Bluelight-MP/UserDashboard.sol\":2721:2786  require (!users[msg.sender].loggedIn, \"you're already loggedIn.\") */\n      tag_145\n      jumpi\n      mload(0x40)\n      0x08c379a000000000000000000000000000000000000000000000000000000000\n      dup2\n      mstore\n      0x04\n      add\n      tag_146\n      swap1\n      tag_147\n      jump\t// in\n    tag_146:\n      mload(0x40)\n      dup1\n      swap2\n      sub\n      swap1\n      revert\n    tag_145:\n        /* \"Bluelight-MP/UserDashboard.sol\":2828:2832  true */\n      0x01\n        /* \"Bluelight-MP/UserDashboard.sol\":2799:2804  users */\n      0x03\n        /* \"Bluelight-MP/UserDashboard.sol\":2799:2816  users[msg.sender] */\n      0x00\n        /* \"Bluelight-MP/UserDashboard.sol\":2805:2815  msg.sender */\n      caller\n        /* \"Bluelight-MP/UserDashboard.sol\":2799:2816  users[msg.sender] */\n      0xffffffffffffffffffffffffffffffffffffffff\n      and\n      0xffffffffffffffffffffffffffffffffffffffff\n      and\n      dup2\n      mstore\n      0x20\n      add\n      swap1\n      dup2\n      mstore\n      0x20\n      add\n      0x00\n      keccak256\n        /* \"Bluelight-MP/UserDashboard.sol\":2799:2825  users[msg.sender].loggedIn */\n      0x03\n      add\n      0x00\n        /* \"Bluelight-MP/UserDashboard.sol\":2799:2832  users[msg.sender].loggedIn = true */\n      0x0100\n      exp\n      dup2\n      sload\n      dup2\n      0xff\n      mul\n      not\n      and\n      swap1\n      dup4\n      iszero\n      iszero\n      mul\n      or\n      swap1\n      sstore\n      pop\n        /* \"Bluelight-MP/UserDashboard.sol\":2858:2868  msg.sender */\n      caller\n        /* \"Bluelight-MP/UserDashboard.sol\":2848:2886  LoggingIn(msg.sender, block.timestamp) */\n      0xffffffffffffffffffffffffffffffffffffffff\n      and\n      0x364034de78a61b6190b049e2c5437370b27906bfed607993a5bc2dda23c16cff\n        /* \"Bluelight-MP/UserDashboard.sol\":2870:2885  block.timestamp */\n      timestamp\n        /* \"Bluelight-MP/UserDashboard.sol\":2848:2886  LoggingIn(msg.sender, block.timestamp) */\n      mload(0x40)\n      tag_148\n      swap2\n      swap1\n      tag_149\n      jump\t// in\n    tag_148:\n      mload(0x40)\n      dup1\n      swap2\n      sub\n      swap1\n      log2\n        /* \"Bluelight-MP/UserDashboard.sol\":2574:2894  function logIn() virtual override external {\r... */\n      jump\t// out\n        /* \"Bluelight-MP/UserDashboard.sol\":1988:2351  function getNftdata(bytes32 _uniKey) external virtual override view returns(address nftContractAddress, uint256 tokenId, address owner, string memory iPFS){\r... */\n    tag_51:\n        /* \"Bluelight-MP/UserDashboard.sol\":2064:2090  address nftContractAddress */\n      0x00\n        /* \"Bluelight-MP/UserDashboard.sol\":2092:2107  uint256 tokenId */\n      dup1\n        /* \"Bluelight-MP/UserDashboard.sol\":2109:2122  address owner */\n      0x00\n        /* \"Bluelight-MP/UserDashboard.sol\":2124:2142  string memory iPFS */\n      0x60\n        /* \"Bluelight-MP/UserDashboard.sol\":2154:2168  bytes32 uniKey */\n      0x00\n        /* \"Bluelight-MP/UserDashboard.sol\":2171:2178  _uniKey */\n      dup6\n        /* \"Bluelight-MP/UserDashboard.sol\":2154:2178  bytes32 uniKey = _uniKey */\n      swap1\n      pop\n        /* \"Bluelight-MP/UserDashboard.sol\":2208:2214  myNFTs */\n      0x01\n        /* \"Bluelight-MP/UserDashboard.sol\":2208:2222  myNFTs[uniKey] */\n      0x00\n        /* \"Bluelight-MP/UserDashboard.sol\":2215:2221  uniKey */\n      dup3\n        /* \"Bluelight-MP/UserDashboard.sol\":2208:2222  myNFTs[uniKey] */\n      dup2\n      mstore\n      0x20\n      add\n      swap1\n      dup2\n      mstore\n      0x20\n      add\n      0x00\n      keccak256\n        /* \"Bluelight-MP/UserDashboard.sol\":2208:2238  myNFTs[uniKey].contractAddress */\n      0x00\n      add\n      0x00\n      swap1\n      sload\n      swap1\n      0x0100\n      exp\n      swap1\n      div\n      0xffffffffffffffffffffffffffffffffffffffff\n      and\n        /* \"Bluelight-MP/UserDashboard.sol\":2249:2255  myNFTs */\n      0x01\n        /* \"Bluelight-MP/UserDashboard.sol\":2249:2263  myNFTs[uniKey] */\n      0x00\n        /* \"Bluelight-MP/UserDashboard.sol\":2256:2262  uniKey */\n      dup4\n        /* \"Bluelight-MP/UserDashboard.sol\":2249:2263  myNFTs[uniKey] */\n      dup2\n      mstore\n      0x20\n      add\n      swap1\n      dup2\n      mstore\n      0x20\n      add\n      0x00\n      keccak256\n        /* \"Bluelight-MP/UserDashboard.sol\":2249:2271  myNFTs[uniKey].tokenId */\n      0x01\n      add\n      sload\n        /* \"Bluelight-MP/UserDashboard.sol\":2282:2288  myNFTs */\n      0x01\n        /* \"Bluelight-MP/UserDashboard.sol\":2282:2296  myNFTs[uniKey] */\n      0x00\n        /* \"Bluelight-MP/UserDashboard.sol\":2289:2295  uniKey */\n      dup5\n        /* \"Bluelight-MP/UserDashboard.sol\":2282:2296  myNFTs[uniKey] */\n      dup2\n      mstore\n      0x20\n      add\n      swap1\n      dup2\n      mstore\n      0x20\n      add\n      0x00\n      keccak256\n        /* \"Bluelight-MP/UserDashboard.sol\":2282:2302  myNFTs[uniKey].owner */\n      0x02\n      add\n      0x00\n      swap1\n      sload\n      swap1\n      0x0100\n      exp\n      swap1\n      div\n      0xffffffffffffffffffffffffffffffffffffffff\n      and\n        /* \"Bluelight-MP/UserDashboard.sol\":2313:2319  myNFTs */\n      0x01\n        /* \"Bluelight-MP/UserDashboard.sol\":2313:2327  myNFTs[uniKey] */\n      0x00\n        /* \"Bluelight-MP/UserDashboard.sol\":2320:2326  uniKey */\n      dup6\n        /* \"Bluelight-MP/UserDashboard.sol\":2313:2327  myNFTs[uniKey] */\n      dup2\n      mstore\n      0x20\n      add\n      swap1\n      dup2\n      mstore\n      0x20\n      add\n      0x00\n      keccak256\n        /* \"Bluelight-MP/UserDashboard.sol\":2313:2332  myNFTs[uniKey].ipfs */\n      0x03\n      add\n        /* \"Bluelight-MP/UserDashboard.sol\":2199:2343  return ( myNFTs[uniKey].contractAddress,\r... */\n      dup1\n      dup1\n      sload\n      tag_151\n      swap1\n      tag_108\n      jump\t// in\n    tag_151:\n      dup1\n      0x1f\n      add\n      0x20\n      dup1\n      swap2\n      div\n      mul\n      0x20\n      add\n      mload(0x40)\n      swap1\n      dup2\n      add\n      0x40\n      mstore\n      dup1\n      swap3\n      swap2\n      swap1\n      dup2\n      dup2\n      mstore\n      0x20\n      add\n      dup3\n      dup1\n      sload\n      tag_152\n      swap1\n      tag_108\n      jump\t// in\n    tag_152:\n      dup1\n      iszero\n      tag_153\n      jumpi\n      dup1\n      0x1f\n      lt\n      tag_154\n      jumpi\n      0x0100\n      dup1\n      dup4\n      sload\n      div\n      mul\n      dup4\n      mstore\n      swap2\n      0x20\n      add\n      swap2\n      jump(tag_153)\n    tag_154:\n      dup3\n      add\n      swap2\n      swap1\n      0x00\n      mstore\n      keccak256(0x00, 0x20)\n      swap1\n    tag_155:\n      dup2\n      sload\n      dup2\n      mstore\n      swap1\n      0x01\n      add\n      swap1\n      0x20\n      add\n      dup1\n      dup4\n      gt\n      tag_155\n      jumpi\n      dup3\n      swap1\n      sub\n      0x1f\n      and\n      dup3\n      add\n      swap2\n    tag_153:\n      pop\n      pop\n      pop\n      pop\n      pop\n      swap1\n      pop\n      swap5\n      pop\n      swap5\n      pop\n      swap5\n      pop\n      swap5\n      pop\n      pop\n        /* \"Bluelight-MP/UserDashboard.sol\":1988:2351  function getNftdata(bytes32 _uniKey) external virtual override view returns(address nftContractAddress, uint256 tokenId, address owner, string memory iPFS){\r... */\n      swap2\n      swap4\n      pop\n      swap2\n      swap4\n      jump\t// out\n        /* \"Bluelight-MP/UserDashboard.sol\":3043:3276  function logOut() external virtual override{\r... */\n    tag_54:\n        /* \"Bluelight-MP/UserDashboard.sol\":3106:3111  users */\n      0x03\n        /* \"Bluelight-MP/UserDashboard.sol\":3106:3123  users[msg.sender] */\n      0x00\n        /* \"Bluelight-MP/UserDashboard.sol\":3112:3122  msg.sender */\n      caller\n        /* \"Bluelight-MP/UserDashboard.sol\":3106:3123  users[msg.sender] */\n      0xffffffffffffffffffffffffffffffffffffffff\n      and\n      0xffffffffffffffffffffffffffffffffffffffff\n      and\n      dup2\n      mstore\n      0x20\n      add\n      swap1\n      dup2\n      mstore\n      0x20\n      add\n      0x00\n      keccak256\n        /* \"Bluelight-MP/UserDashboard.sol\":3106:3132  users[msg.sender].loggedIn */\n      0x03\n      add\n      0x00\n      swap1\n      sload\n      swap1\n      0x0100\n      exp\n      swap1\n      div\n      0xff\n      and\n        /* \"Bluelight-MP/UserDashboard.sol\":3097:3157  require (users[msg.sender].loggedIn, \"you're not loggedIn.\") */\n      tag_157\n      jumpi\n      mload(0x40)\n      0x08c379a000000000000000000000000000000000000000000000000000000000\n      dup2\n      mstore\n      0x04\n      add\n      tag_158\n      swap1\n      tag_159\n      jump\t// in\n    tag_158:\n      mload(0x40)\n      dup1\n      swap2\n      sub\n      swap1\n      revert\n    tag_157:\n        /* \"Bluelight-MP/UserDashboard.sol\":3197:3202  false */\n      0x00\n        /* \"Bluelight-MP/UserDashboard.sol\":3168:3173  users */\n      0x03\n        /* \"Bluelight-MP/UserDashboard.sol\":3168:3185  users[msg.sender] */\n      0x00\n        /* \"Bluelight-MP/UserDashboard.sol\":3174:3184  msg.sender */\n      caller\n        /* \"Bluelight-MP/UserDashboard.sol\":3168:3185  users[msg.sender] */\n      0xffffffffffffffffffffffffffffffffffffffff\n      and\n      0xffffffffffffffffffffffffffffffffffffffff\n      and\n      dup2\n      mstore\n      0x20\n      add\n      swap1\n      dup2\n      mstore\n      0x20\n      add\n      0x00\n      keccak256\n        /* \"Bluelight-MP/UserDashboard.sol\":3168:3194  users[msg.sender].loggedIn */\n      0x03\n      add\n      0x00\n        /* \"Bluelight-MP/UserDashboard.sol\":3168:3202  users[msg.sender].loggedIn = false */\n      0x0100\n      exp\n      dup2\n      sload\n      dup2\n      0xff\n      mul\n      not\n      and\n      swap1\n      dup4\n      iszero\n      iszero\n      mul\n      or\n      swap1\n      sstore\n      pop\n        /* \"Bluelight-MP/UserDashboard.sol\":3229:3239  msg.sender */\n      caller\n        /* \"Bluelight-MP/UserDashboard.sol\":3218:3257  LoggingOut(msg.sender, block.timestamp) */\n      0xffffffffffffffffffffffffffffffffffffffff\n      and\n      0x70d1177aa26c67f6b2fdb43400cfd7ff0c23a8712301abe5aba2ee3d89e28a10\n        /* \"Bluelight-MP/UserDashboard.sol\":3241:3256  block.timestamp */\n      timestamp\n        /* \"Bluelight-MP/UserDashboard.sol\":3218:3257  LoggingOut(msg.sender, block.timestamp) */\n      mload(0x40)\n      tag_160\n      swap2\n      swap1\n      tag_149\n      jump\t// in\n    tag_160:\n      mload(0x40)\n      dup1\n      swap2\n      sub\n      swap1\n      log2\n        /* \"Bluelight-MP/UserDashboard.sol\":3043:3276  function logOut() external virtual override{\r... */\n      jump\t// out\n        /* \"Bluelight-MP/UserDashboard.sol\":2357:2497  function getUniKeysMapping(address ownerOfNfts) external view returns(bytes32[] memory){\r... */\n    tag_58:\n        /* \"Bluelight-MP/UserDashboard.sol\":2427:2443  bytes32[] memory */\n      0x60\n        /* \"Bluelight-MP/UserDashboard.sol\":2462:2476  uniKeysMapping */\n      0x02\n        /* \"Bluelight-MP/UserDashboard.sol\":2462:2489  uniKeysMapping[ownerOfNfts] */\n      0x00\n        /* \"Bluelight-MP/UserDashboard.sol\":2477:2488  ownerOfNfts */\n      dup4\n        /* \"Bluelight-MP/UserDashboard.sol\":2462:2489  uniKeysMapping[ownerOfNfts] */\n      0xffffffffffffffffffffffffffffffffffffffff\n      and\n      0xffffffffffffffffffffffffffffffffffffffff\n      and\n      dup2\n      mstore\n      0x20\n      add\n      swap1\n      dup2\n      mstore\n      0x20\n      add\n      0x00\n      keccak256\n        /* \"Bluelight-MP/UserDashboard.sol\":2455:2489  return uniKeysMapping[ownerOfNfts] */\n      dup1\n      sload\n      dup1\n      0x20\n      mul\n      0x20\n      add\n      mload(0x40)\n      swap1\n      dup2\n      add\n      0x40\n      mstore\n      dup1\n      swap3\n      swap2\n      swap1\n      dup2\n      dup2\n      mstore\n      0x20\n      add\n      dup3\n      dup1\n      sload\n      dup1\n      iszero\n      tag_162\n      jumpi\n      0x20\n      mul\n      dup3\n      add\n      swap2\n      swap1\n      0x00\n      mstore\n      keccak256(0x00, 0x20)\n      swap1\n    tag_163:\n      dup2\n      sload\n      dup2\n      mstore\n      0x20\n      add\n      swap1\n      0x01\n      add\n      swap1\n      dup1\n      dup4\n      gt\n      tag_163\n      jumpi\n    tag_162:\n      pop\n      pop\n      pop\n      pop\n      pop\n      swap1\n      pop\n        /* \"Bluelight-MP/UserDashboard.sol\":2357:2497  function getUniKeysMapping(address ownerOfNfts) external view returns(bytes32[] memory){\r... */\n      swap2\n      swap1\n      pop\n      jump\t// out\n        /* \"Bluelight-MP/UserDashboard.sol\":1063:1115  mapping (string => address) public userNameToAddress */\n    tag_63:\n      0x04\n      dup2\n      dup1\n      mload\n      0x20\n      dup2\n      add\n      dup3\n      add\n      dup1\n      mload\n      dup5\n      dup3\n      mstore\n      0x20\n      dup4\n      add\n      0x20\n      dup6\n      add\n      keccak256\n      dup2\n      dup4\n      mstore\n      dup1\n      swap6\n      pop\n      pop\n      pop\n      pop\n      pop\n      pop\n      0x00\n      swap2\n      pop\n      sload\n      swap1\n      0x0100\n      exp\n      swap1\n      div\n      0xffffffffffffffffffffffffffffffffffffffff\n      and\n      dup2\n      jump\t// out\n        /* \"Bluelight-MP/UserDashboard.sol\":1162:1224  mapping (address => AmountRecord) public addressToAmountRecord */\n    tag_68:\n      mstore(0x20, 0x05)\n      dup1\n      0x00\n      mstore\n      keccak256(0x00, 0x40)\n      0x00\n      swap2\n      pop\n      swap1\n      pop\n      dup1\n      0x00\n      add\n      sload\n      swap1\n      dup1\n      0x01\n      add\n      sload\n      swap1\n      dup1\n      0x02\n      add\n      sload\n      swap1\n      dup1\n      0x03\n      add\n      sload\n      swap1\n      pop\n      dup5\n      jump\t// out\n        /* \"Bluelight-MP/UserDashboard.sol\":5253:5711  function setAmountRecord(address user, uint curAmountSpent, uint tokenAmountSpent, uint curAmountEarned, uint tokenAmountEarned) external virtual override{\r... */\n    tag_74:\n        /* \"Bluelight-MP/UserDashboard.sol\":5464:5478  curAmountSpent */\n      dup4\n        /* \"Bluelight-MP/UserDashboard.sol\":5418:5439  addressToAmountRecord */\n      0x05\n        /* \"Bluelight-MP/UserDashboard.sol\":5418:5445  addressToAmountRecord[user] */\n      0x00\n        /* \"Bluelight-MP/UserDashboard.sol\":5440:5444  user */\n      dup8\n        /* \"Bluelight-MP/UserDashboard.sol\":5418:5445  addressToAmountRecord[user] */\n      0xffffffffffffffffffffffffffffffffffffffff\n      and\n      0xffffffffffffffffffffffffffffffffffffffff\n      and\n      dup2\n      mstore\n      0x20\n      add\n      swap1\n      dup2\n      mstore\n      0x20\n      add\n      0x00\n      keccak256\n        /* \"Bluelight-MP/UserDashboard.sol\":5418:5460  addressToAmountRecord[user].curAmountSpent */\n      0x00\n      add\n      0x00\n        /* \"Bluelight-MP/UserDashboard.sol\":5418:5478  addressToAmountRecord[user].curAmountSpent += curAmountSpent */\n      dup3\n      dup3\n      sload\n      tag_165\n      swap2\n      swap1\n      tag_166\n      jump\t// in\n    tag_165:\n      swap3\n      pop\n      pop\n      dup2\n      swap1\n      sstore\n      pop\n        /* \"Bluelight-MP/UserDashboard.sol\":5537:5553  tokenAmountSpent */\n      dup3\n        /* \"Bluelight-MP/UserDashboard.sol\":5489:5510  addressToAmountRecord */\n      0x05\n        /* \"Bluelight-MP/UserDashboard.sol\":5489:5516  addressToAmountRecord[user] */\n      0x00\n        /* \"Bluelight-MP/UserDashboard.sol\":5511:5515  user */\n      dup8\n        /* \"Bluelight-MP/UserDashboard.sol\":5489:5516  addressToAmountRecord[user] */\n      0xffffffffffffffffffffffffffffffffffffffff\n      and\n      0xffffffffffffffffffffffffffffffffffffffff\n      and\n      dup2\n      mstore\n      0x20\n      add\n      swap1\n      dup2\n      mstore\n      0x20\n      add\n      0x00\n      keccak256\n        /* \"Bluelight-MP/UserDashboard.sol\":5489:5533  addressToAmountRecord[user].tokenAmountSpent */\n      0x01\n      add\n      0x00\n        /* \"Bluelight-MP/UserDashboard.sol\":5489:5553  addressToAmountRecord[user].tokenAmountSpent += tokenAmountSpent */\n      dup3\n      dup3\n      sload\n      tag_167\n      swap2\n      swap1\n      tag_166\n      jump\t// in\n    tag_167:\n      swap3\n      pop\n      pop\n      dup2\n      swap1\n      sstore\n      pop\n        /* \"Bluelight-MP/UserDashboard.sol\":5611:5626  curAmountEarned */\n      dup2\n        /* \"Bluelight-MP/UserDashboard.sol\":5564:5585  addressToAmountRecord */\n      0x05\n        /* \"Bluelight-MP/UserDashboard.sol\":5564:5591  addressToAmountRecord[user] */\n      0x00\n        /* \"Bluelight-MP/UserDashboard.sol\":5586:5590  user */\n      dup8\n        /* \"Bluelight-MP/UserDashboard.sol\":5564:5591  addressToAmountRecord[user] */\n      0xffffffffffffffffffffffffffffffffffffffff\n      and\n      0xffffffffffffffffffffffffffffffffffffffff\n      and\n      dup2\n      mstore\n      0x20\n      add\n      swap1\n      dup2\n      mstore\n      0x20\n      add\n      0x00\n      keccak256\n        /* \"Bluelight-MP/UserDashboard.sol\":5564:5607  addressToAmountRecord[user].curAmountEarned */\n      0x02\n      add\n      0x00\n        /* \"Bluelight-MP/UserDashboard.sol\":5564:5626  addressToAmountRecord[user].curAmountEarned += curAmountEarned */\n      dup3\n      dup3\n      sload\n      tag_168\n      swap2\n      swap1\n      tag_166\n      jump\t// in\n    tag_168:\n      swap3\n      pop\n      pop\n      dup2\n      swap1\n      sstore\n      pop\n        /* \"Bluelight-MP/UserDashboard.sol\":5686:5703  tokenAmountEarned */\n      dup1\n        /* \"Bluelight-MP/UserDashboard.sol\":5637:5658  addressToAmountRecord */\n      0x05\n        /* \"Bluelight-MP/UserDashboard.sol\":5637:5664  addressToAmountRecord[user] */\n      0x00\n        /* \"Bluelight-MP/UserDashboard.sol\":5659:5663  user */\n      dup8\n        /* \"Bluelight-MP/UserDashboard.sol\":5637:5664  addressToAmountRecord[user] */\n      0xffffffffffffffffffffffffffffffffffffffff\n      and\n      0xffffffffffffffffffffffffffffffffffffffff\n      and\n      dup2\n      mstore\n      0x20\n      add\n      swap1\n      dup2\n      mstore\n      0x20\n      add\n      0x00\n      keccak256\n        /* \"Bluelight-MP/UserDashboard.sol\":5637:5682  addressToAmountRecord[user].tokenAmountEarned */\n      0x03\n      add\n      0x00\n        /* \"Bluelight-MP/UserDashboard.sol\":5637:5703  addressToAmountRecord[user].tokenAmountEarned += tokenAmountEarned */\n      dup3\n      dup3\n      sload\n      tag_169\n      swap2\n      swap1\n      tag_166\n      jump\t// in\n    tag_169:\n      swap3\n      pop\n      pop\n      dup2\n      swap1\n      sstore\n      pop\n        /* \"Bluelight-MP/UserDashboard.sol\":5253:5711  function setAmountRecord(address user, uint curAmountSpent, uint tokenAmountSpent, uint curAmountEarned, uint tokenAmountEarned) external virtual override{\r... */\n      pop\n      pop\n      pop\n      pop\n      pop\n      jump\t// out\n        /* \"Bluelight-MP/UserDashboard.sol\":5717:6127  function userAmountDetail(address user) external virtual override view \r... */\n    tag_77:\n        /* \"Bluelight-MP/UserDashboard.sol\":5806:5825  uint currencyEarned */\n      0x00\n        /* \"Bluelight-MP/UserDashboard.sol\":5827:5843  uint earnedToken */\n      dup1\n        /* \"Bluelight-MP/UserDashboard.sol\":5845:5863  uint currencySpent */\n      0x00\n        /* \"Bluelight-MP/UserDashboard.sol\":5865:5880  uint tokenSpent */\n      dup1\n        /* \"Bluelight-MP/UserDashboard.sol\":5913:5934  addressToAmountRecord */\n      0x05\n        /* \"Bluelight-MP/UserDashboard.sol\":5913:5940  addressToAmountRecord[user] */\n      0x00\n        /* \"Bluelight-MP/UserDashboard.sol\":5935:5939  user */\n      dup7\n        /* \"Bluelight-MP/UserDashboard.sol\":5913:5940  addressToAmountRecord[user] */\n      0xffffffffffffffffffffffffffffffffffffffff\n      and\n      0xffffffffffffffffffffffffffffffffffffffff\n      and\n      dup2\n      mstore\n      0x20\n      add\n      swap1\n      dup2\n      mstore\n      0x20\n      add\n      0x00\n      keccak256\n        /* \"Bluelight-MP/UserDashboard.sol\":5913:5956  addressToAmountRecord[user].curAmountEarned */\n      0x02\n      add\n      sload\n        /* \"Bluelight-MP/UserDashboard.sol\":5958:5979  addressToAmountRecord */\n      0x05\n        /* \"Bluelight-MP/UserDashboard.sol\":5958:5985  addressToAmountRecord[user] */\n      0x00\n        /* \"Bluelight-MP/UserDashboard.sol\":5980:5984  user */\n      dup8\n        /* \"Bluelight-MP/UserDashboard.sol\":5958:5985  addressToAmountRecord[user] */\n      0xffffffffffffffffffffffffffffffffffffffff\n      and\n      0xffffffffffffffffffffffffffffffffffffffff\n      and\n      dup2\n      mstore\n      0x20\n      add\n      swap1\n      dup2\n      mstore\n      0x20\n      add\n      0x00\n      keccak256\n        /* \"Bluelight-MP/UserDashboard.sol\":5958:6003  addressToAmountRecord[user].tokenAmountEarned */\n      0x03\n      add\n      sload\n        /* \"Bluelight-MP/UserDashboard.sol\":6019:6040  addressToAmountRecord */\n      0x05\n        /* \"Bluelight-MP/UserDashboard.sol\":6019:6046  addressToAmountRecord[user] */\n      0x00\n        /* \"Bluelight-MP/UserDashboard.sol\":6041:6045  user */\n      dup9\n        /* \"Bluelight-MP/UserDashboard.sol\":6019:6046  addressToAmountRecord[user] */\n      0xffffffffffffffffffffffffffffffffffffffff\n      and\n      0xffffffffffffffffffffffffffffffffffffffff\n      and\n      dup2\n      mstore\n      0x20\n      add\n      swap1\n      dup2\n      mstore\n      0x20\n      add\n      0x00\n      keccak256\n        /* \"Bluelight-MP/UserDashboard.sol\":6019:6061  addressToAmountRecord[user].curAmountSpent */\n      0x00\n      add\n      sload\n        /* \"Bluelight-MP/UserDashboard.sol\":6064:6085  addressToAmountRecord */\n      0x05\n        /* \"Bluelight-MP/UserDashboard.sol\":6064:6091  addressToAmountRecord[user] */\n      0x00\n        /* \"Bluelight-MP/UserDashboard.sol\":6086:6090  user */\n      dup10\n        /* \"Bluelight-MP/UserDashboard.sol\":6064:6091  addressToAmountRecord[user] */\n      0xffffffffffffffffffffffffffffffffffffffff\n      and\n      0xffffffffffffffffffffffffffffffffffffffff\n      and\n      dup2\n      mstore\n      0x20\n      add\n      swap1\n      dup2\n      mstore\n      0x20\n      add\n      0x00\n      keccak256\n        /* \"Bluelight-MP/UserDashboard.sol\":6064:6108  addressToAmountRecord[user].tokenAmountSpent */\n      0x01\n      add\n      sload\n        /* \"Bluelight-MP/UserDashboard.sol\":5892:6119  return(\r... */\n      swap4\n      pop\n      swap4\n      pop\n      swap4\n      pop\n      swap4\n      pop\n        /* \"Bluelight-MP/UserDashboard.sol\":5717:6127  function userAmountDetail(address user) external virtual override view \r... */\n      swap2\n      swap4\n      pop\n      swap2\n      swap4\n      jump\t// out\n        /* \"Bluelight-MP/UserDashboard.sol\":1524:1982  function setNftData(address owner, address nftContractAddress, uint256 tokenId, string memory iPFS) external virtual override{\r... */\n    tag_82:\n        /* \"Bluelight-MP/UserDashboard.sol\":1670:1684  bytes32 uniKey */\n      0x00\n        /* \"Bluelight-MP/UserDashboard.sol\":1687:1735  getPrivateUniqueKey(nftContractAddress, tokenId) */\n      tag_172\n        /* \"Bluelight-MP/UserDashboard.sol\":1707:1725  nftContractAddress */\n      dup5\n        /* \"Bluelight-MP/UserDashboard.sol\":1727:1734  tokenId */\n      dup5\n        /* \"Bluelight-MP/UserDashboard.sol\":1687:1706  getPrivateUniqueKey */\n      tag_173\n        /* \"Bluelight-MP/UserDashboard.sol\":1687:1735  getPrivateUniqueKey(nftContractAddress, tokenId) */\n      jump\t// in\n    tag_172:\n        /* \"Bluelight-MP/UserDashboard.sol\":1670:1735  bytes32 uniKey = getPrivateUniqueKey(nftContractAddress, tokenId) */\n      swap1\n      pop\n        /* \"Bluelight-MP/UserDashboard.sol\":1790:1808  nftContractAddress */\n      dup4\n        /* \"Bluelight-MP/UserDashboard.sol\":1757:1763  myNFTs */\n      0x01\n        /* \"Bluelight-MP/UserDashboard.sol\":1757:1771  myNFTs[uniKey] */\n      0x00\n        /* \"Bluelight-MP/UserDashboard.sol\":1764:1770  uniKey */\n      dup4\n        /* \"Bluelight-MP/UserDashboard.sol\":1757:1771  myNFTs[uniKey] */\n      dup2\n      mstore\n      0x20\n      add\n      swap1\n      dup2\n      mstore\n      0x20\n      add\n      0x00\n      keccak256\n        /* \"Bluelight-MP/UserDashboard.sol\":1757:1787  myNFTs[uniKey].contractAddress */\n      0x00\n      add\n      0x00\n        /* \"Bluelight-MP/UserDashboard.sol\":1757:1808  myNFTs[uniKey].contractAddress = nftContractAddress */\n      0x0100\n      exp\n      dup2\n      sload\n      dup2\n      0xffffffffffffffffffffffffffffffffffffffff\n      mul\n      not\n      and\n      swap1\n      dup4\n      0xffffffffffffffffffffffffffffffffffffffff\n      and\n      mul\n      or\n      swap1\n      sstore\n      pop\n        /* \"Bluelight-MP/UserDashboard.sol\":1844:1851  tokenId */\n      dup3\n        /* \"Bluelight-MP/UserDashboard.sol\":1819:1825  myNFTs */\n      0x01\n        /* \"Bluelight-MP/UserDashboard.sol\":1819:1833  myNFTs[uniKey] */\n      0x00\n        /* \"Bluelight-MP/UserDashboard.sol\":1826:1832  uniKey */\n      dup4\n        /* \"Bluelight-MP/UserDashboard.sol\":1819:1833  myNFTs[uniKey] */\n      dup2\n      mstore\n      0x20\n      add\n      swap1\n      dup2\n      mstore\n      0x20\n      add\n      0x00\n      keccak256\n        /* \"Bluelight-MP/UserDashboard.sol\":1819:1841  myNFTs[uniKey].tokenId */\n      0x01\n      add\n        /* \"Bluelight-MP/UserDashboard.sol\":1819:1851  myNFTs[uniKey].tokenId = tokenId */\n      dup2\n      swap1\n      sstore\n      pop\n        /* \"Bluelight-MP/UserDashboard.sol\":1885:1890  owner */\n      dup5\n        /* \"Bluelight-MP/UserDashboard.sol\":1862:1868  myNFTs */\n      0x01\n        /* \"Bluelight-MP/UserDashboard.sol\":1862:1876  myNFTs[uniKey] */\n      0x00\n        /* \"Bluelight-MP/UserDashboard.sol\":1869:1875  uniKey */\n      dup4\n        /* \"Bluelight-MP/UserDashboard.sol\":1862:1876  myNFTs[uniKey] */\n      dup2\n      mstore\n      0x20\n      add\n      swap1\n      dup2\n      mstore\n      0x20\n      add\n      0x00\n      keccak256\n        /* \"Bluelight-MP/UserDashboard.sol\":1862:1882  myNFTs[uniKey].owner */\n      0x02\n      add\n      0x00\n        /* \"Bluelight-MP/UserDashboard.sol\":1862:1890  myNFTs[uniKey].owner = owner */\n      0x0100\n      exp\n      dup2\n      sload\n      dup2\n      0xffffffffffffffffffffffffffffffffffffffff\n      mul\n      not\n      and\n      swap1\n      dup4\n      0xffffffffffffffffffffffffffffffffffffffff\n      and\n      mul\n      or\n      swap1\n      sstore\n      pop\n        /* \"Bluelight-MP/UserDashboard.sol\":1923:1927  iPFS */\n      dup2\n        /* \"Bluelight-MP/UserDashboard.sol\":1901:1907  myNFTs */\n      0x01\n        /* \"Bluelight-MP/UserDashboard.sol\":1901:1915  myNFTs[uniKey] */\n      0x00\n        /* \"Bluelight-MP/UserDashboard.sol\":1908:1914  uniKey */\n      dup4\n        /* \"Bluelight-MP/UserDashboard.sol\":1901:1915  myNFTs[uniKey] */\n      dup2\n      mstore\n      0x20\n      add\n      swap1\n      dup2\n      mstore\n      0x20\n      add\n      0x00\n      keccak256\n        /* \"Bluelight-MP/UserDashboard.sol\":1901:1920  myNFTs[uniKey].ipfs */\n      0x03\n      add\n        /* \"Bluelight-MP/UserDashboard.sol\":1901:1927  myNFTs[uniKey].ipfs = iPFS */\n      swap1\n      dup1\n      mload\n      swap1\n      0x20\n      add\n      swap1\n      tag_174\n      swap3\n      swap2\n      swap1\n      tag_102\n      jump\t// in\n    tag_174:\n      pop\n        /* \"Bluelight-MP/UserDashboard.sol\":1938:1952  uniKeysMapping */\n      0x02\n        /* \"Bluelight-MP/UserDashboard.sol\":1938:1959  uniKeysMapping[owner] */\n      0x00\n        /* \"Bluelight-MP/UserDashboard.sol\":1953:1958  owner */\n      dup7\n        /* \"Bluelight-MP/UserDashboard.sol\":1938:1959  uniKeysMapping[owner] */\n      0xffffffffffffffffffffffffffffffffffffffff\n      and\n      0xffffffffffffffffffffffffffffffffffffffff\n      and\n      dup2\n      mstore\n      0x20\n      add\n      swap1\n      dup2\n      mstore\n      0x20\n      add\n      0x00\n      keccak256\n        /* \"Bluelight-MP/UserDashboard.sol\":1965:1971  uniKey */\n      dup2\n        /* \"Bluelight-MP/UserDashboard.sol\":1938:1972  uniKeysMapping[owner].push(uniKey) */\n      swap1\n      dup1\n      0x01\n      dup2\n      sload\n      add\n      dup1\n      dup3\n      sstore\n      dup1\n      swap2\n      pop\n      pop\n      0x01\n      swap1\n      sub\n      swap1\n      0x00\n      mstore\n      keccak256(0x00, 0x20)\n      add\n      0x00\n      swap1\n      swap2\n      swap1\n      swap2\n      swap1\n      swap2\n      pop\n      sstore\n        /* \"Bluelight-MP/UserDashboard.sol\":1524:1982  function setNftData(address owner, address nftContractAddress, uint256 tokenId, string memory iPFS) external virtual override{\r... */\n      pop\n      pop\n      pop\n      pop\n      pop\n      jump\t// out\n        /* \"Bluelight-MP/UserDashboard.sol\":3282:3939  function signUp(string memory _userName) external virtual override{\r... */\n    tag_85:\n        /* \"Bluelight-MP/UserDashboard.sol\":3369:3374  users */\n      0x03\n        /* \"Bluelight-MP/UserDashboard.sol\":3369:3386  users[msg.sender] */\n      0x00\n        /* \"Bluelight-MP/UserDashboard.sol\":3375:3385  msg.sender */\n      caller\n        /* \"Bluelight-MP/UserDashboard.sol\":3369:3386  users[msg.sender] */\n      0xffffffffffffffffffffffffffffffffffffffff\n      and\n      0xffffffffffffffffffffffffffffffffffffffff\n      and\n      dup2\n      mstore\n      0x20\n      add\n      swap1\n      dup2\n      mstore\n      0x20\n      add\n      0x00\n      keccak256\n        /* \"Bluelight-MP/UserDashboard.sol\":3369:3398  users[msg.sender].userExisted */\n      0x01\n      add\n      0x00\n      swap1\n      sload\n      swap1\n      0x0100\n      exp\n      swap1\n      div\n      0xff\n      and\n        /* \"Bluelight-MP/UserDashboard.sol\":3368:3398  !users[msg.sender].userExisted */\n      iszero\n        /* \"Bluelight-MP/UserDashboard.sol\":3359:3416  require (!users[msg.sender].userExisted, \"user existed.\") */\n      tag_177\n      jumpi\n      mload(0x40)\n      0x08c379a000000000000000000000000000000000000000000000000000000000\n      dup2\n      mstore\n      0x04\n      add\n      tag_178\n      swap1\n      tag_179\n      jump\t// in\n    tag_178:\n      mload(0x40)\n      dup1\n      swap2\n      sub\n      swap1\n      revert\n    tag_177:\n        /* \"Bluelight-MP/UserDashboard.sol\":3476:3477  0 */\n      0x00\n        /* \"Bluelight-MP/UserDashboard.sol\":3436:3478  userNameToAddress[_userName] == address(0) */\n      0xffffffffffffffffffffffffffffffffffffffff\n      and\n        /* \"Bluelight-MP/UserDashboard.sol\":3436:3453  userNameToAddress */\n      0x04\n        /* \"Bluelight-MP/UserDashboard.sol\":3454:3463  _userName */\n      dup3\n        /* \"Bluelight-MP/UserDashboard.sol\":3436:3464  userNameToAddress[_userName] */\n      mload(0x40)\n      tag_180\n      swap2\n      swap1\n      tag_114\n      jump\t// in\n    tag_180:\n      swap1\n      dup2\n      mstore\n      0x20\n      add\n      mload(0x40)\n      dup1\n      swap2\n      sub\n      swap1\n      keccak256\n      0x00\n      swap1\n      sload\n      swap1\n      0x0100\n      exp\n      swap1\n      div\n      0xffffffffffffffffffffffffffffffffffffffff\n      and\n        /* \"Bluelight-MP/UserDashboard.sol\":3436:3478  userNameToAddress[_userName] == address(0) */\n      0xffffffffffffffffffffffffffffffffffffffff\n      and\n      eq\n        /* \"Bluelight-MP/UserDashboard.sol\":3427:3501  require (userNameToAddress[_userName] == address(0), \"user name existed.\") */\n      tag_181\n      jumpi\n      mload(0x40)\n      0x08c379a000000000000000000000000000000000000000000000000000000000\n      dup2\n      mstore\n      0x04\n      add\n      tag_182\n      swap1\n      tag_130\n      jump\t// in\n    tag_182:\n      mload(0x40)\n      dup1\n      swap2\n      sub\n      swap1\n      revert\n    tag_181:\n        /* \"Bluelight-MP/UserDashboard.sol\":3543:3552  _userName */\n      dup1\n        /* \"Bluelight-MP/UserDashboard.sol\":3514:3519  users */\n      0x03\n        /* \"Bluelight-MP/UserDashboard.sol\":3514:3531  users[msg.sender] */\n      0x00\n        /* \"Bluelight-MP/UserDashboard.sol\":3520:3530  msg.sender */\n      caller\n        /* \"Bluelight-MP/UserDashboard.sol\":3514:3531  users[msg.sender] */\n      0xffffffffffffffffffffffffffffffffffffffff\n      and\n      0xffffffffffffffffffffffffffffffffffffffff\n      and\n      dup2\n      mstore\n      0x20\n      add\n      swap1\n      dup2\n      mstore\n      0x20\n      add\n      0x00\n      keccak256\n        /* \"Bluelight-MP/UserDashboard.sol\":3514:3540  users[msg.sender].userName */\n      0x00\n      add\n        /* \"Bluelight-MP/UserDashboard.sol\":3514:3552  users[msg.sender].userName = _userName */\n      swap1\n      dup1\n      mload\n      swap1\n      0x20\n      add\n      swap1\n      tag_183\n      swap3\n      swap2\n      swap1\n      tag_102\n      jump\t// in\n    tag_183:\n      pop\n        /* \"Bluelight-MP/UserDashboard.sol\":3595:3599  true */\n      0x01\n        /* \"Bluelight-MP/UserDashboard.sol\":3563:3568  users */\n      0x03\n        /* \"Bluelight-MP/UserDashboard.sol\":3563:3580  users[msg.sender] */\n      0x00\n        /* \"Bluelight-MP/UserDashboard.sol\":3569:3579  msg.sender */\n      caller\n        /* \"Bluelight-MP/UserDashboard.sol\":3563:3580  users[msg.sender] */\n      0xffffffffffffffffffffffffffffffffffffffff\n      and\n      0xffffffffffffffffffffffffffffffffffffffff\n      and\n      dup2\n      mstore\n      0x20\n      add\n      swap1\n      dup2\n      mstore\n      0x20\n      add\n      0x00\n      keccak256\n        /* \"Bluelight-MP/UserDashboard.sol\":3563:3592  users[msg.sender].userExisted */\n      0x01\n      add\n      0x00\n        /* \"Bluelight-MP/UserDashboard.sol\":3563:3599  users[msg.sender].userExisted = true */\n      0x0100\n      exp\n      dup2\n      sload\n      dup2\n      0xff\n      mul\n      not\n      and\n      swap1\n      dup4\n      iszero\n      iszero\n      mul\n      or\n      swap1\n      sstore\n      pop\n        /* \"Bluelight-MP/UserDashboard.sol\":3643:3658  block.timestamp */\n      timestamp\n        /* \"Bluelight-MP/UserDashboard.sol\":3610:3615  users */\n      0x03\n        /* \"Bluelight-MP/UserDashboard.sol\":3610:3627  users[msg.sender] */\n      0x00\n        /* \"Bluelight-MP/UserDashboard.sol\":3616:3626  msg.sender */\n      caller\n        /* \"Bluelight-MP/UserDashboard.sol\":3610:3627  users[msg.sender] */\n      0xffffffffffffffffffffffffffffffffffffffff\n      and\n      0xffffffffffffffffffffffffffffffffffffffff\n      and\n      dup2\n      mstore\n      0x20\n      add\n      swap1\n      dup2\n      mstore\n      0x20\n      add\n      0x00\n      keccak256\n        /* \"Bluelight-MP/UserDashboard.sol\":3610:3640  users[msg.sender].creationTime */\n      0x02\n      add\n        /* \"Bluelight-MP/UserDashboard.sol\":3610:3658  users[msg.sender].creationTime = block.timestamp */\n      dup2\n      swap1\n      sstore\n      pop\n        /* \"Bluelight-MP/UserDashboard.sol\":3698:3702  true */\n      0x01\n        /* \"Bluelight-MP/UserDashboard.sol\":3669:3674  users */\n      0x03\n        /* \"Bluelight-MP/UserDashboard.sol\":3669:3686  users[msg.sender] */\n      0x00\n        /* \"Bluelight-MP/UserDashboard.sol\":3675:3685  msg.sender */\n      caller\n        /* \"Bluelight-MP/UserDashboard.sol\":3669:3686  users[msg.sender] */\n      0xffffffffffffffffffffffffffffffffffffffff\n      and\n      0xffffffffffffffffffffffffffffffffffffffff\n      and\n      dup2\n      mstore\n      0x20\n      add\n      swap1\n      dup2\n      mstore\n      0x20\n      add\n      0x00\n      keccak256\n        /* \"Bluelight-MP/UserDashboard.sol\":3669:3695  users[msg.sender].loggedIn */\n      0x03\n      add\n      0x00\n        /* \"Bluelight-MP/UserDashboard.sol\":3669:3702  users[msg.sender].loggedIn = true */\n      0x0100\n      exp\n      dup2\n      sload\n      dup2\n      0xff\n      mul\n      not\n      and\n      swap1\n      dup4\n      iszero\n      iszero\n      mul\n      or\n      swap1\n      sstore\n      pop\n        /* \"Bluelight-MP/UserDashboard.sol\":3744:3754  msg.sender */\n      caller\n        /* \"Bluelight-MP/UserDashboard.sol\":3713:3730  userNameToAddress */\n      0x04\n        /* \"Bluelight-MP/UserDashboard.sol\":3731:3740  _userName */\n      dup3\n        /* \"Bluelight-MP/UserDashboard.sol\":3713:3741  userNameToAddress[_userName] */\n      mload(0x40)\n      tag_184\n      swap2\n      swap1\n      tag_114\n      jump\t// in\n    tag_184:\n      swap1\n      dup2\n      mstore\n      0x20\n      add\n      mload(0x40)\n      dup1\n      swap2\n      sub\n      swap1\n      keccak256\n      0x00\n        /* \"Bluelight-MP/UserDashboard.sol\":3713:3754  userNameToAddress[_userName] = msg.sender */\n      0x0100\n      exp\n      dup2\n      sload\n      dup2\n      0xffffffffffffffffffffffffffffffffffffffff\n      mul\n      not\n      and\n      swap1\n      dup4\n      0xffffffffffffffffffffffffffffffffffffffff\n      and\n      mul\n      or\n      swap1\n      sstore\n      pop\n        /* \"Bluelight-MP/UserDashboard.sol\":3884:3894  msg.sender */\n      caller\n        /* \"Bluelight-MP/UserDashboard.sol\":3876:3923  SignUp (msg.sender, _userName, block.timestamp) */\n      0xffffffffffffffffffffffffffffffffffffffff\n      and\n      0xee20c2c019dcbca8d08ff74c4ce6f465e02d3611905c9aceeb76a0c8e429af2f\n        /* \"Bluelight-MP/UserDashboard.sol\":3896:3905  _userName */\n      dup3\n        /* \"Bluelight-MP/UserDashboard.sol\":3907:3922  block.timestamp */\n      timestamp\n        /* \"Bluelight-MP/UserDashboard.sol\":3876:3923  SignUp (msg.sender, _userName, block.timestamp) */\n      mload(0x40)\n      tag_185\n      swap3\n      swap2\n      swap1\n      tag_186\n      jump\t// in\n    tag_185:\n      mload(0x40)\n      dup1\n      swap2\n      sub\n      swap1\n      log2\n        /* \"Bluelight-MP/UserDashboard.sol\":3282:3939  function signUp(string memory _userName) external virtual override{\r... */\n      pop\n      jump\t// out\n        /* \"Bluelight-MP/UserDashboard.sol\":4276:4498  function checkUser() external virtual override view returns(string memory){\r... */\n    tag_87:\n        /* \"Bluelight-MP/UserDashboard.sol\":4336:4349  string memory */\n      0x60\n        /* \"Bluelight-MP/UserDashboard.sol\":4369:4374  users */\n      0x03\n        /* \"Bluelight-MP/UserDashboard.sol\":4369:4386  users[msg.sender] */\n      0x00\n        /* \"Bluelight-MP/UserDashboard.sol\":4375:4385  msg.sender */\n      caller\n        /* \"Bluelight-MP/UserDashboard.sol\":4369:4386  users[msg.sender] */\n      0xffffffffffffffffffffffffffffffffffffffff\n      and\n      0xffffffffffffffffffffffffffffffffffffffff\n      and\n      dup2\n      mstore\n      0x20\n      add\n      swap1\n      dup2\n      mstore\n      0x20\n      add\n      0x00\n      keccak256\n        /* \"Bluelight-MP/UserDashboard.sol\":4369:4395  users[msg.sender].loggedIn */\n      0x03\n      add\n      0x00\n      swap1\n      sload\n      swap1\n      0x0100\n      exp\n      swap1\n      div\n      0xff\n      and\n        /* \"Bluelight-MP/UserDashboard.sol\":4361:4446  require(users[msg.sender].loggedIn, \"create account first or logIn to your account.\") */\n      tag_188\n      jumpi\n      mload(0x40)\n      0x08c379a000000000000000000000000000000000000000000000000000000000\n      dup2\n      mstore\n      0x04\n      add\n      tag_189\n      swap1\n      tag_190\n      jump\t// in\n    tag_189:\n      mload(0x40)\n      dup1\n      swap2\n      sub\n      swap1\n      revert\n    tag_188:\n        /* \"Bluelight-MP/UserDashboard.sol\":4464:4469  users */\n      0x03\n        /* \"Bluelight-MP/UserDashboard.sol\":4464:4481  users[msg.sender] */\n      0x00\n        /* \"Bluelight-MP/UserDashboard.sol\":4470:4480  msg.sender */\n      caller\n        /* \"Bluelight-MP/UserDashboard.sol\":4464:4481  users[msg.sender] */\n      0xffffffffffffffffffffffffffffffffffffffff\n      and\n      0xffffffffffffffffffffffffffffffffffffffff\n      and\n      dup2\n      mstore\n      0x20\n      add\n      swap1\n      dup2\n      mstore\n      0x20\n      add\n      0x00\n      keccak256\n        /* \"Bluelight-MP/UserDashboard.sol\":4464:4490  users[msg.sender].userName */\n      0x00\n      add\n        /* \"Bluelight-MP/UserDashboard.sol\":4457:4490  return users[msg.sender].userName */\n      dup1\n      sload\n      tag_191\n      swap1\n      tag_108\n      jump\t// in\n    tag_191:\n      dup1\n      0x1f\n      add\n      0x20\n      dup1\n      swap2\n      div\n      mul\n      0x20\n      add\n      mload(0x40)\n      swap1\n      dup2\n      add\n      0x40\n      mstore\n      dup1\n      swap3\n      swap2\n      swap1\n      dup2\n      dup2\n      mstore\n      0x20\n      add\n      dup3\n      dup1\n      sload\n      tag_192\n      swap1\n      tag_108\n      jump\t// in\n    tag_192:\n      dup1\n      iszero\n      tag_193\n      jumpi\n      dup1\n      0x1f\n      lt\n      tag_194\n      jumpi\n      0x0100\n      dup1\n      dup4\n      sload\n      div\n      mul\n      dup4\n      mstore\n      swap2\n      0x20\n      add\n      swap2\n      jump(tag_193)\n    tag_194:\n      dup3\n      add\n      swap2\n      swap1\n      0x00\n      mstore\n      keccak256(0x00, 0x20)\n      swap1\n    tag_195:\n      dup2\n      sload\n      dup2\n      mstore\n      swap1\n      0x01\n      add\n      swap1\n      0x20\n      add\n      dup1\n      dup4\n      gt\n      tag_195\n      jumpi\n      dup3\n      swap1\n      sub\n      0x1f\n      and\n      dup3\n      add\n      swap2\n    tag_193:\n      pop\n      pop\n      pop\n      pop\n      pop\n      swap1\n      pop\n        /* \"Bluelight-MP/UserDashboard.sol\":4276:4498  function checkUser() external virtual override view returns(string memory){\r... */\n      swap1\n      jump\t// out\n        /* \"Bluelight-MP/UserDashboard.sol\":4150:4270  function getProfilePic() external view returns(string memory ipfs){\r... */\n    tag_91:\n        /* \"Bluelight-MP/UserDashboard.sol\":4197:4215  string memory ipfs */\n      0x60\n        /* \"Bluelight-MP/UserDashboard.sol\":4234:4239  users */\n      0x03\n        /* \"Bluelight-MP/UserDashboard.sol\":4234:4251  users[msg.sender] */\n      0x00\n        /* \"Bluelight-MP/UserDashboard.sol\":4240:4250  msg.sender */\n      caller\n        /* \"Bluelight-MP/UserDashboard.sol\":4234:4251  users[msg.sender] */\n      0xffffffffffffffffffffffffffffffffffffffff\n      and\n      0xffffffffffffffffffffffffffffffffffffffff\n      and\n      dup2\n      mstore\n      0x20\n      add\n      swap1\n      dup2\n      mstore\n      0x20\n      add\n      0x00\n      keccak256\n        /* \"Bluelight-MP/UserDashboard.sol\":4234:4262  users[msg.sender].profilePic */\n      0x04\n      add\n        /* \"Bluelight-MP/UserDashboard.sol\":4227:4262  return users[msg.sender].profilePic */\n      dup1\n      sload\n      tag_197\n      swap1\n      tag_108\n      jump\t// in\n    tag_197:\n      dup1\n      0x1f\n      add\n      0x20\n      dup1\n      swap2\n      div\n      mul\n      0x20\n      add\n      mload(0x40)\n      swap1\n      dup2\n      add\n      0x40\n      mstore\n      dup1\n      swap3\n      swap2\n      swap1\n      dup2\n      dup2\n      mstore\n      0x20\n      add\n      dup3\n      dup1\n      sload\n      tag_198\n      swap1\n      tag_108\n      jump\t// in\n    tag_198:\n      dup1\n      iszero\n      tag_199\n      jumpi\n      dup1\n      0x1f\n      lt\n      tag_200\n      jumpi\n      0x0100\n      dup1\n      dup4\n      sload\n      div\n      mul\n      dup4\n      mstore\n      swap2\n      0x20\n      add\n      swap2\n      jump(tag_199)\n    tag_200:\n      dup3\n      add\n      swap2\n      swap1\n      0x00\n      mstore\n      keccak256(0x00, 0x20)\n      swap1\n    tag_201:\n      dup2\n      sload\n      dup2\n      mstore\n      swap1\n      0x01\n      add\n      swap1\n      0x20\n      add\n      dup1\n      dup4\n      gt\n      tag_201\n      jumpi\n      dup3\n      swap1\n      sub\n      0x1f\n      and\n      dup3\n      add\n      swap2\n    tag_199:\n      pop\n      pop\n      pop\n      pop\n      pop\n      swap1\n      pop\n        /* \"Bluelight-MP/UserDashboard.sol\":4150:4270  function getProfilePic() external view returns(string memory ipfs){\r... */\n      swap1\n      jump\t// out\n        /* \"Bluelight-MP/UserDashboard.sol\":2901:3037  function checkLogIn(address _userAddr) external virtual override view returns(bool){  \r... */\n    tag_95:\n        /* \"Bluelight-MP/UserDashboard.sol\":2979:2983  bool */\n      0x00\n        /* \"Bluelight-MP/UserDashboard.sol\":3004:3009  users */\n      0x03\n        /* \"Bluelight-MP/UserDashboard.sol\":3004:3020  users[_userAddr] */\n      0x00\n        /* \"Bluelight-MP/UserDashboard.sol\":3010:3019  _userAddr */\n      dup4\n        /* \"Bluelight-MP/UserDashboard.sol\":3004:3020  users[_userAddr] */\n      0xffffffffffffffffffffffffffffffffffffffff\n      and\n      0xffffffffffffffffffffffffffffffffffffffff\n      and\n      dup2\n      mstore\n      0x20\n      add\n      swap1\n      dup2\n      mstore\n      0x20\n      add\n      0x00\n      keccak256\n        /* \"Bluelight-MP/UserDashboard.sol\":3004:3029  users[_userAddr].loggedIn */\n      0x03\n      add\n      0x00\n      swap1\n      sload\n      swap1\n      0x0100\n      exp\n      swap1\n      div\n      0xff\n      and\n        /* \"Bluelight-MP/UserDashboard.sol\":2997:3029  return users[_userAddr].loggedIn */\n      swap1\n      pop\n        /* \"Bluelight-MP/UserDashboard.sol\":2901:3037  function checkLogIn(address _userAddr) external virtual override view returns(bool){  \r... */\n      swap2\n      swap1\n      pop\n      jump\t// out\n        /* \"Bluelight-MP/UserDashboard.sol\":1321:1518  function getPrivateUniqueKey(address nftContractAddress, uint256 tokenId) internal pure returns (bytes32 NFTUniKey){\r... */\n    tag_173:\n        /* \"Bluelight-MP/UserDashboard.sol\":1418:1435  bytes32 NFTUniKey */\n      0x00\n        /* \"Bluelight-MP/UserDashboard.sol\":1481:1499  nftContractAddress */\n      dup3\n        /* \"Bluelight-MP/UserDashboard.sol\":1501:1508  tokenId */\n      dup3\n        /* \"Bluelight-MP/UserDashboard.sol\":1464:1509  abi.encodePacked(nftContractAddress, tokenId) */\n      add(0x20, mload(0x40))\n      tag_204\n      swap3\n      swap2\n      swap1\n      tag_205\n      jump\t// in\n    tag_204:\n      mload(0x40)\n      0x20\n      dup2\n      dup4\n      sub\n      sub\n      dup2\n      mstore\n      swap1\n      0x40\n      mstore\n        /* \"Bluelight-MP/UserDashboard.sol\":1454:1510  keccak256(abi.encodePacked(nftContractAddress, tokenId)) */\n      dup1\n      mload\n      swap1\n      0x20\n      add\n      keccak256\n        /* \"Bluelight-MP/UserDashboard.sol\":1447:1510  return keccak256(abi.encodePacked(nftContractAddress, tokenId)) */\n      swap1\n      pop\n        /* \"Bluelight-MP/UserDashboard.sol\":1321:1518  function getPrivateUniqueKey(address nftContractAddress, uint256 tokenId) internal pure returns (bytes32 NFTUniKey){\r... */\n      swap3\n      swap2\n      pop\n      pop\n      jump\t// out\n    tag_102:\n      dup3\n      dup1\n      sload\n      tag_206\n      swap1\n      tag_108\n      jump\t// in\n    tag_206:\n      swap1\n      0x00\n      mstore\n      keccak256(0x00, 0x20)\n      swap1\n      0x1f\n      add\n      0x20\n      swap1\n      div\n      dup2\n      add\n      swap3\n      dup3\n      tag_208\n      jumpi\n      0x00\n      dup6\n      sstore\n      jump(tag_207)\n    tag_208:\n      dup3\n      0x1f\n      lt\n      tag_209\n      jumpi\n      dup1\n      mload\n      not(0xff)\n      and\n      dup4\n      dup1\n      add\n      or\n      dup6\n      sstore\n      jump(tag_207)\n    tag_209:\n      dup3\n      dup1\n      add\n      0x01\n      add\n      dup6\n      sstore\n      dup3\n      iszero\n      tag_207\n      jumpi\n      swap2\n      dup3\n      add\n    tag_210:\n      dup3\n      dup2\n      gt\n      iszero\n      tag_211\n      jumpi\n      dup3\n      mload\n      dup3\n      sstore\n      swap2\n      0x20\n      add\n      swap2\n      swap1\n      0x01\n      add\n      swap1\n      jump(tag_210)\n    tag_211:\n    tag_207:\n      pop\n      swap1\n      pop\n      tag_212\n      swap2\n      swap1\n      tag_213\n      jump\t// in\n    tag_212:\n      pop\n      swap1\n      jump\t// out\n    tag_116:\n      pop\n      dup1\n      sload\n      tag_214\n      swap1\n      tag_108\n      jump\t// in\n    tag_214:\n      0x00\n      dup3\n      sstore\n      dup1\n      0x1f\n      lt\n      tag_216\n      jumpi\n      pop\n      jump(tag_215)\n    tag_216:\n      0x1f\n      add\n      0x20\n      swap1\n      div\n      swap1\n      0x00\n      mstore\n      keccak256(0x00, 0x20)\n      swap1\n      dup2\n      add\n      swap1\n      tag_217\n      swap2\n      swap1\n      tag_213\n      jump\t// in\n    tag_217:\n    tag_215:\n      pop\n      jump\t// out\n    tag_213:\n    tag_218:\n      dup1\n      dup3\n      gt\n      iszero\n      tag_219\n      jumpi\n      0x00\n      dup2\n      0x00\n      swap1\n      sstore\n      pop\n      0x01\n      add\n      jump(tag_218)\n    tag_219:\n      pop\n      swap1\n      jump\t// out\n        /* \"#utility.yul\":7:352   */\n    tag_221:\n        /* \"#utility.yul\":85:90   */\n      0x00\n        /* \"#utility.yul\":110:176   */\n      tag_223\n        /* \"#utility.yul\":126:175   */\n      tag_224\n        /* \"#utility.yul\":168:174   */\n      dup5\n        /* \"#utility.yul\":126:175   */\n      tag_225\n      jump\t// in\n    tag_224:\n        /* \"#utility.yul\":110:176   */\n      tag_226\n      jump\t// in\n    tag_223:\n        /* \"#utility.yul\":101:176   */\n      swap1\n      pop\n        /* \"#utility.yul\":199:205   */\n      dup3\n        /* \"#utility.yul\":192:197   */\n      dup2\n        /* \"#utility.yul\":185:206   */\n      mstore\n        /* \"#utility.yul\":237:241   */\n      0x20\n        /* \"#utility.yul\":230:235   */\n      dup2\n        /* \"#utility.yul\":226:242   */\n      add\n        /* \"#utility.yul\":275:278   */\n      dup5\n        /* \"#utility.yul\":266:272   */\n      dup5\n        /* \"#utility.yul\":261:264   */\n      dup5\n        /* \"#utility.yul\":257:273   */\n      add\n        /* \"#utility.yul\":254:279   */\n      gt\n        /* \"#utility.yul\":251:253   */\n      iszero\n      tag_227\n      jumpi\n        /* \"#utility.yul\":292:293   */\n      0x00\n        /* \"#utility.yul\":289:290   */\n      dup1\n        /* \"#utility.yul\":282:294   */\n      revert\n        /* \"#utility.yul\":251:253   */\n    tag_227:\n        /* \"#utility.yul\":305:346   */\n      tag_228\n        /* \"#utility.yul\":339:345   */\n      dup5\n        /* \"#utility.yul\":334:337   */\n      dup3\n        /* \"#utility.yul\":329:332   */\n      dup6\n        /* \"#utility.yul\":305:346   */\n      tag_229\n      jump\t// in\n    tag_228:\n        /* \"#utility.yul\":91:352   */\n      pop\n      swap4\n      swap3\n      pop\n      pop\n      pop\n      jump\t// out\n        /* \"#utility.yul\":358:497   */\n    tag_230:\n        /* \"#utility.yul\":404:409   */\n      0x00\n        /* \"#utility.yul\":442:448   */\n      dup2\n        /* \"#utility.yul\":429:449   */\n      calldataload\n        /* \"#utility.yul\":420:449   */\n      swap1\n      pop\n        /* \"#utility.yul\":458:491   */\n      tag_232\n        /* \"#utility.yul\":485:490   */\n      dup2\n        /* \"#utility.yul\":458:491   */\n      tag_233\n      jump\t// in\n    tag_232:\n        /* \"#utility.yul\":410:497   */\n      swap3\n      swap2\n      pop\n      pop\n      jump\t// out\n        /* \"#utility.yul\":503:642   */\n    tag_234:\n        /* \"#utility.yul\":549:554   */\n      0x00\n        /* \"#utility.yul\":587:593   */\n      dup2\n        /* \"#utility.yul\":574:594   */\n      calldataload\n        /* \"#utility.yul\":565:594   */\n      swap1\n      pop\n        /* \"#utility.yul\":603:636   */\n      tag_236\n        /* \"#utility.yul\":630:635   */\n      dup2\n        /* \"#utility.yul\":603:636   */\n      tag_237\n      jump\t// in\n    tag_236:\n        /* \"#utility.yul\":555:642   */\n      swap3\n      swap2\n      pop\n      pop\n      jump\t// out\n        /* \"#utility.yul\":662:935   */\n    tag_238:\n        /* \"#utility.yul\":718:723   */\n      0x00\n        /* \"#utility.yul\":767:770   */\n      dup3\n        /* \"#utility.yul\":760:764   */\n      0x1f\n        /* \"#utility.yul\":752:758   */\n      dup4\n        /* \"#utility.yul\":748:765   */\n      add\n        /* \"#utility.yul\":744:771   */\n      slt\n        /* \"#utility.yul\":734:736   */\n      tag_240\n      jumpi\n        /* \"#utility.yul\":785:786   */\n      0x00\n        /* \"#utility.yul\":782:783   */\n      dup1\n        /* \"#utility.yul\":775:787   */\n      revert\n        /* \"#utility.yul\":734:736   */\n    tag_240:\n        /* \"#utility.yul\":825:831   */\n      dup2\n        /* \"#utility.yul\":812:832   */\n      calldataload\n        /* \"#utility.yul\":850:929   */\n      tag_241\n        /* \"#utility.yul\":925:928   */\n      dup5\n        /* \"#utility.yul\":917:923   */\n      dup3\n        /* \"#utility.yul\":910:914   */\n      0x20\n        /* \"#utility.yul\":902:908   */\n      dup7\n        /* \"#utility.yul\":898:915   */\n      add\n        /* \"#utility.yul\":850:929   */\n      tag_221\n      jump\t// in\n    tag_241:\n        /* \"#utility.yul\":841:929   */\n      swap2\n      pop\n        /* \"#utility.yul\":724:935   */\n      pop\n      swap3\n      swap2\n      pop\n      pop\n      jump\t// out\n        /* \"#utility.yul\":941:1080   */\n    tag_242:\n        /* \"#utility.yul\":987:992   */\n      0x00\n        /* \"#utility.yul\":1025:1031   */\n      dup2\n        /* \"#utility.yul\":1012:1032   */\n      calldataload\n        /* \"#utility.yul\":1003:1032   */\n      swap1\n      pop\n        /* \"#utility.yul\":1041:1074   */\n      tag_244\n        /* \"#utility.yul\":1068:1073   */\n      dup2\n        /* \"#utility.yul\":1041:1074   */\n      tag_245\n      jump\t// in\n    tag_244:\n        /* \"#utility.yul\":993:1080   */\n      swap3\n      swap2\n      pop\n      pop\n      jump\t// out\n        /* \"#utility.yul\":1086:1348   */\n    tag_57:\n        /* \"#utility.yul\":1145:1151   */\n      0x00\n        /* \"#utility.yul\":1194:1196   */\n      0x20\n        /* \"#utility.yul\":1182:1191   */\n      dup3\n        /* \"#utility.yul\":1173:1180   */\n      dup5\n        /* \"#utility.yul\":1169:1192   */\n      sub\n        /* \"#utility.yul\":1165:1197   */\n      slt\n        /* \"#utility.yul\":1162:1164   */\n      iszero\n      tag_247\n      jumpi\n        /* \"#utility.yul\":1210:1211   */\n      0x00\n        /* \"#utility.yul\":1207:1208   */\n      dup1\n        /* \"#utility.yul\":1200:1212   */\n      revert\n        /* \"#utility.yul\":1162:1164   */\n    tag_247:\n        /* \"#utility.yul\":1253:1254   */\n      0x00\n        /* \"#utility.yul\":1278:1331   */\n      tag_248\n        /* \"#utility.yul\":1323:1330   */\n      dup5\n        /* \"#utility.yul\":1314:1320   */\n      dup3\n        /* \"#utility.yul\":1303:1312   */\n      dup6\n        /* \"#utility.yul\":1299:1321   */\n      add\n        /* \"#utility.yul\":1278:1331   */\n      tag_230\n      jump\t// in\n    tag_248:\n        /* \"#utility.yul\":1268:1331   */\n      swap2\n      pop\n        /* \"#utility.yul\":1224:1341   */\n      pop\n        /* \"#utility.yul\":1152:1348   */\n      swap3\n      swap2\n      pop\n      pop\n      jump\t// out\n        /* \"#utility.yul\":1354:2165   */\n    tag_81:\n        /* \"#utility.yul\":1450:1456   */\n      0x00\n        /* \"#utility.yul\":1458:1464   */\n      dup1\n        /* \"#utility.yul\":1466:1472   */\n      0x00\n        /* \"#utility.yul\":1474:1480   */\n      dup1\n        /* \"#utility.yul\":1523:1526   */\n      0x80\n        /* \"#utility.yul\":1511:1520   */\n      dup6\n        /* \"#utility.yul\":1502:1509   */\n      dup8\n        /* \"#utility.yul\":1498:1521   */\n      sub\n        /* \"#utility.yul\":1494:1527   */\n      slt\n        /* \"#utility.yul\":1491:1493   */\n      iszero\n      tag_250\n      jumpi\n        /* \"#utility.yul\":1540:1541   */\n      0x00\n        /* \"#utility.yul\":1537:1538   */\n      dup1\n        /* \"#utility.yul\":1530:1542   */\n      revert\n        /* \"#utility.yul\":1491:1493   */\n    tag_250:\n        /* \"#utility.yul\":1583:1584   */\n      0x00\n        /* \"#utility.yul\":1608:1661   */\n      tag_251\n        /* \"#utility.yul\":1653:1660   */\n      dup8\n        /* \"#utility.yul\":1644:1650   */\n      dup3\n        /* \"#utility.yul\":1633:1642   */\n      dup9\n        /* \"#utility.yul\":1629:1651   */\n      add\n        /* \"#utility.yul\":1608:1661   */\n      tag_230\n      jump\t// in\n    tag_251:\n        /* \"#utility.yul\":1598:1661   */\n      swap5\n      pop\n        /* \"#utility.yul\":1554:1671   */\n      pop\n        /* \"#utility.yul\":1710:1712   */\n      0x20\n        /* \"#utility.yul\":1736:1789   */\n      tag_252\n        /* \"#utility.yul\":1781:1788   */\n      dup8\n        /* \"#utility.yul\":1772:1778   */\n      dup3\n        /* \"#utility.yul\":1761:1770   */\n      dup9\n        /* \"#utility.yul\":1757:1779   */\n      add\n        /* \"#utility.yul\":1736:1789   */\n      tag_230\n      jump\t// in\n    tag_252:\n        /* \"#utility.yul\":1726:1789   */\n      swap4\n      pop\n        /* \"#utility.yul\":1681:1799   */\n      pop\n        /* \"#utility.yul\":1838:1840   */\n      0x40\n        /* \"#utility.yul\":1864:1917   */\n      tag_253\n        /* \"#utility.yul\":1909:1916   */\n      dup8\n        /* \"#utility.yul\":1900:1906   */\n      dup3\n        /* \"#utility.yul\":1889:1898   */\n      dup9\n        /* \"#utility.yul\":1885:1907   */\n      add\n        /* \"#utility.yul\":1864:1917   */\n      tag_242\n      jump\t// in\n    tag_253:\n        /* \"#utility.yul\":1854:1917   */\n      swap3\n      pop\n        /* \"#utility.yul\":1809:1927   */\n      pop\n        /* \"#utility.yul\":1994:1996   */\n      0x60\n        /* \"#utility.yul\":1983:1992   */\n      dup6\n        /* \"#utility.yul\":1979:1997   */\n      add\n        /* \"#utility.yul\":1966:1998   */\n      calldataload\n        /* \"#utility.yul\":2025:2043   */\n      0xffffffffffffffff\n        /* \"#utility.yul\":2017:2023   */\n      dup2\n        /* \"#utility.yul\":2014:2044   */\n      gt\n        /* \"#utility.yul\":2011:2013   */\n      iszero\n      tag_254\n      jumpi\n        /* \"#utility.yul\":2057:2058   */\n      0x00\n        /* \"#utility.yul\":2054:2055   */\n      dup1\n        /* \"#utility.yul\":2047:2059   */\n      revert\n        /* \"#utility.yul\":2011:2013   */\n    tag_254:\n        /* \"#utility.yul\":2085:2148   */\n      tag_255\n        /* \"#utility.yul\":2140:2147   */\n      dup8\n        /* \"#utility.yul\":2131:2137   */\n      dup3\n        /* \"#utility.yul\":2120:2129   */\n      dup9\n        /* \"#utility.yul\":2116:2138   */\n      add\n        /* \"#utility.yul\":2085:2148   */\n      tag_238\n      jump\t// in\n    tag_255:\n        /* \"#utility.yul\":2075:2148   */\n      swap2\n      pop\n        /* \"#utility.yul\":1937:2158   */\n      pop\n        /* \"#utility.yul\":1481:2165   */\n      swap3\n      swap6\n      swap2\n      swap5\n      pop\n      swap3\n      pop\n      jump\t// out\n        /* \"#utility.yul\":2171:2578   */\n    tag_43:\n        /* \"#utility.yul\":2239:2245   */\n      0x00\n        /* \"#utility.yul\":2247:2253   */\n      dup1\n        /* \"#utility.yul\":2296:2298   */\n      0x40\n        /* \"#utility.yul\":2284:2293   */\n      dup4\n        /* \"#utility.yul\":2275:2282   */\n      dup6\n        /* \"#utility.yul\":2271:2294   */\n      sub\n        /* \"#utility.yul\":2267:2299   */\n      slt\n        /* \"#utility.yul\":2264:2266   */\n      iszero\n      tag_257\n      jumpi\n        /* \"#utility.yul\":2312:2313   */\n      0x00\n        /* \"#utility.yul\":2309:2310   */\n      dup1\n        /* \"#utility.yul\":2302:2314   */\n      revert\n        /* \"#utility.yul\":2264:2266   */\n    tag_257:\n        /* \"#utility.yul\":2355:2356   */\n      0x00\n        /* \"#utility.yul\":2380:2433   */\n      tag_258\n        /* \"#utility.yul\":2425:2432   */\n      dup6\n        /* \"#utility.yul\":2416:2422   */\n      dup3\n        /* \"#utility.yul\":2405:2414   */\n      dup7\n        /* \"#utility.yul\":2401:2423   */\n      add\n        /* \"#utility.yul\":2380:2433   */\n      tag_230\n      jump\t// in\n    tag_258:\n        /* \"#utility.yul\":2370:2433   */\n      swap3\n      pop\n        /* \"#utility.yul\":2326:2443   */\n      pop\n        /* \"#utility.yul\":2482:2484   */\n      0x20\n        /* \"#utility.yul\":2508:2561   */\n      tag_259\n        /* \"#utility.yul\":2553:2560   */\n      dup6\n        /* \"#utility.yul\":2544:2550   */\n      dup3\n        /* \"#utility.yul\":2533:2542   */\n      dup7\n        /* \"#utility.yul\":2529:2551   */\n      add\n        /* \"#utility.yul\":2508:2561   */\n      tag_242\n      jump\t// in\n    tag_259:\n        /* \"#utility.yul\":2498:2561   */\n      swap2\n      pop\n        /* \"#utility.yul\":2453:2571   */\n      pop\n        /* \"#utility.yul\":2254:2578   */\n      swap3\n      pop\n      swap3\n      swap1\n      pop\n      jump\t// out\n        /* \"#utility.yul\":2584:3428   */\n    tag_73:\n        /* \"#utility.yul\":2679:2685   */\n      0x00\n        /* \"#utility.yul\":2687:2693   */\n      dup1\n        /* \"#utility.yul\":2695:2701   */\n      0x00\n        /* \"#utility.yul\":2703:2709   */\n      dup1\n        /* \"#utility.yul\":2711:2717   */\n      0x00\n        /* \"#utility.yul\":2760:2763   */\n      0xa0\n        /* \"#utility.yul\":2748:2757   */\n      dup7\n        /* \"#utility.yul\":2739:2746   */\n      dup9\n        /* \"#utility.yul\":2735:2758   */\n      sub\n        /* \"#utility.yul\":2731:2764   */\n      slt\n        /* \"#utility.yul\":2728:2730   */\n      iszero\n      tag_261\n      jumpi\n        /* \"#utility.yul\":2777:2778   */\n      0x00\n        /* \"#utility.yul\":2774:2775   */\n      dup1\n        /* \"#utility.yul\":2767:2779   */\n      revert\n        /* \"#utility.yul\":2728:2730   */\n    tag_261:\n        /* \"#utility.yul\":2820:2821   */\n      0x00\n        /* \"#utility.yul\":2845:2898   */\n      tag_262\n        /* \"#utility.yul\":2890:2897   */\n      dup9\n        /* \"#utility.yul\":2881:2887   */\n      dup3\n        /* \"#utility.yul\":2870:2879   */\n      dup10\n        /* \"#utility.yul\":2866:2888   */\n      add\n        /* \"#utility.yul\":2845:2898   */\n      tag_230\n      jump\t// in\n    tag_262:\n        /* \"#utility.yul\":2835:2898   */\n      swap6\n      pop\n        /* \"#utility.yul\":2791:2908   */\n      pop\n        /* \"#utility.yul\":2947:2949   */\n      0x20\n        /* \"#utility.yul\":2973:3026   */\n      tag_263\n        /* \"#utility.yul\":3018:3025   */\n      dup9\n        /* \"#utility.yul\":3009:3015   */\n      dup3\n        /* \"#utility.yul\":2998:3007   */\n      dup10\n        /* \"#utility.yul\":2994:3016   */\n      add\n        /* \"#utility.yul\":2973:3026   */\n      tag_242\n      jump\t// in\n    tag_263:\n        /* \"#utility.yul\":2963:3026   */\n      swap5\n      pop\n        /* \"#utility.yul\":2918:3036   */\n      pop\n        /* \"#utility.yul\":3075:3077   */\n      0x40\n        /* \"#utility.yul\":3101:3154   */\n      tag_264\n        /* \"#utility.yul\":3146:3153   */\n      dup9\n        /* \"#utility.yul\":3137:3143   */\n      dup3\n        /* \"#utility.yul\":3126:3135   */\n      dup10\n        /* \"#utility.yul\":3122:3144   */\n      add\n        /* \"#utility.yul\":3101:3154   */\n      tag_242\n      jump\t// in\n    tag_264:\n        /* \"#utility.yul\":3091:3154   */\n      swap4\n      pop\n        /* \"#utility.yul\":3046:3164   */\n      pop\n        /* \"#utility.yul\":3203:3205   */\n      0x60\n        /* \"#utility.yul\":3229:3282   */\n      tag_265\n        /* \"#utility.yul\":3274:3281   */\n      dup9\n        /* \"#utility.yul\":3265:3271   */\n      dup3\n        /* \"#utility.yul\":3254:3263   */\n      dup10\n        /* \"#utility.yul\":3250:3272   */\n      add\n        /* \"#utility.yul\":3229:3282   */\n      tag_242\n      jump\t// in\n    tag_265:\n        /* \"#utility.yul\":3219:3282   */\n      swap3\n      pop\n        /* \"#utility.yul\":3174:3292   */\n      pop\n        /* \"#utility.yul\":3331:3334   */\n      0x80\n        /* \"#utility.yul\":3358:3411   */\n      tag_266\n        /* \"#utility.yul\":3403:3410   */\n      dup9\n        /* \"#utility.yul\":3394:3400   */\n      dup3\n        /* \"#utility.yul\":3383:3392   */\n      dup10\n        /* \"#utility.yul\":3379:3401   */\n      add\n        /* \"#utility.yul\":3358:3411   */\n      tag_242\n      jump\t// in\n    tag_266:\n        /* \"#utility.yul\":3348:3411   */\n      swap2\n      pop\n        /* \"#utility.yul\":3302:3421   */\n      pop\n        /* \"#utility.yul\":2718:3428   */\n      swap3\n      swap6\n      pop\n      swap3\n      swap6\n      swap1\n      swap4\n      pop\n      jump\t// out\n        /* \"#utility.yul\":3434:3696   */\n    tag_34:\n        /* \"#utility.yul\":3493:3499   */\n      0x00\n        /* \"#utility.yul\":3542:3544   */\n      0x20\n        /* \"#utility.yul\":3530:3539   */\n      dup3\n        /* \"#utility.yul\":3521:3528   */\n      dup5\n        /* \"#utility.yul\":3517:3540   */\n      sub\n        /* \"#utility.yul\":3513:3545   */\n      slt\n        /* \"#utility.yul\":3510:3512   */\n      iszero\n      tag_268\n      jumpi\n        /* \"#utility.yul\":3558:3559   */\n      0x00\n        /* \"#utility.yul\":3555:3556   */\n      dup1\n        /* \"#utility.yul\":3548:3560   */\n      revert\n        /* \"#utility.yul\":3510:3512   */\n    tag_268:\n        /* \"#utility.yul\":3601:3602   */\n      0x00\n        /* \"#utility.yul\":3626:3679   */\n      tag_269\n        /* \"#utility.yul\":3671:3678   */\n      dup5\n        /* \"#utility.yul\":3662:3668   */\n      dup3\n        /* \"#utility.yul\":3651:3660   */\n      dup6\n        /* \"#utility.yul\":3647:3669   */\n      add\n        /* \"#utility.yul\":3626:3679   */\n      tag_234\n      jump\t// in\n    tag_269:\n        /* \"#utility.yul\":3616:3679   */\n      swap2\n      pop\n        /* \"#utility.yul\":3572:3689   */\n      pop\n        /* \"#utility.yul\":3500:3696   */\n      swap3\n      swap2\n      pop\n      pop\n      jump\t// out\n        /* \"#utility.yul\":3702:4077   */\n    tag_26:\n        /* \"#utility.yul\":3771:3777   */\n      0x00\n        /* \"#utility.yul\":3820:3822   */\n      0x20\n        /* \"#utility.yul\":3808:3817   */\n      dup3\n        /* \"#utility.yul\":3799:3806   */\n      dup5\n        /* \"#utility.yul\":3795:3818   */\n      sub\n        /* \"#utility.yul\":3791:3823   */\n      slt\n        /* \"#utility.yul\":3788:3790   */\n      iszero\n      tag_271\n      jumpi\n        /* \"#utility.yul\":3836:3837   */\n      0x00\n        /* \"#utility.yul\":3833:3834   */\n      dup1\n        /* \"#utility.yul\":3826:3838   */\n      revert\n        /* \"#utility.yul\":3788:3790   */\n    tag_271:\n        /* \"#utility.yul\":3907:3908   */\n      0x00\n        /* \"#utility.yul\":3896:3905   */\n      dup3\n        /* \"#utility.yul\":3892:3909   */\n      add\n        /* \"#utility.yul\":3879:3910   */\n      calldataload\n        /* \"#utility.yul\":3937:3955   */\n      0xffffffffffffffff\n        /* \"#utility.yul\":3929:3935   */\n      dup2\n        /* \"#utility.yul\":3926:3956   */\n      gt\n        /* \"#utility.yul\":3923:3925   */\n      iszero\n      tag_272\n      jumpi\n        /* \"#utility.yul\":3969:3970   */\n      0x00\n        /* \"#utility.yul\":3966:3967   */\n      dup1\n        /* \"#utility.yul\":3959:3971   */\n      revert\n        /* \"#utility.yul\":3923:3925   */\n    tag_272:\n        /* \"#utility.yul\":3997:4060   */\n      tag_273\n        /* \"#utility.yul\":4052:4059   */\n      dup5\n        /* \"#utility.yul\":4043:4049   */\n      dup3\n        /* \"#utility.yul\":4032:4041   */\n      dup6\n        /* \"#utility.yul\":4028:4050   */\n      add\n        /* \"#utility.yul\":3997:4060   */\n      tag_238\n      jump\t// in\n    tag_273:\n        /* \"#utility.yul\":3987:4060   */\n      swap2\n      pop\n        /* \"#utility.yul\":3850:4070   */\n      pop\n        /* \"#utility.yul\":3778:4077   */\n      swap3\n      swap2\n      pop\n      pop\n      jump\t// out\n        /* \"#utility.yul\":4083:4262   */\n    tag_274:\n        /* \"#utility.yul\":4152:4162   */\n      0x00\n        /* \"#utility.yul\":4173:4219   */\n      tag_276\n        /* \"#utility.yul\":4215:4218   */\n      dup4\n        /* \"#utility.yul\":4207:4213   */\n      dup4\n        /* \"#utility.yul\":4173:4219   */\n      tag_277\n      jump\t// in\n    tag_276:\n        /* \"#utility.yul\":4251:4255   */\n      0x20\n        /* \"#utility.yul\":4246:4249   */\n      dup4\n        /* \"#utility.yul\":4242:4256   */\n      add\n        /* \"#utility.yul\":4228:4256   */\n      swap1\n      pop\n        /* \"#utility.yul\":4163:4262   */\n      swap3\n      swap2\n      pop\n      pop\n      jump\t// out\n        /* \"#utility.yul\":4268:4386   */\n    tag_278:\n        /* \"#utility.yul\":4355:4379   */\n      tag_280\n        /* \"#utility.yul\":4373:4378   */\n      dup2\n        /* \"#utility.yul\":4355:4379   */\n      tag_281\n      jump\t// in\n    tag_280:\n        /* \"#utility.yul\":4350:4353   */\n      dup3\n        /* \"#utility.yul\":4343:4380   */\n      mstore\n        /* \"#utility.yul\":4333:4386   */\n      pop\n      pop\n      jump\t// out\n        /* \"#utility.yul\":4392:4549   */\n    tag_282:\n        /* \"#utility.yul\":4497:4542   */\n      tag_284\n        /* \"#utility.yul\":4517:4541   */\n      tag_285\n        /* \"#utility.yul\":4535:4540   */\n      dup3\n        /* \"#utility.yul\":4517:4541   */\n      tag_281\n      jump\t// in\n    tag_285:\n        /* \"#utility.yul\":4497:4542   */\n      tag_286\n      jump\t// in\n    tag_284:\n        /* \"#utility.yul\":4492:4495   */\n      dup3\n        /* \"#utility.yul\":4485:4543   */\n      mstore\n        /* \"#utility.yul\":4475:4549   */\n      pop\n      pop\n      jump\t// out\n        /* \"#utility.yul\":4585:5317   */\n    tag_287:\n        /* \"#utility.yul\":4704:4707   */\n      0x00\n        /* \"#utility.yul\":4733:4787   */\n      tag_289\n        /* \"#utility.yul\":4781:4786   */\n      dup3\n        /* \"#utility.yul\":4733:4787   */\n      tag_290\n      jump\t// in\n    tag_289:\n        /* \"#utility.yul\":4803:4889   */\n      tag_291\n        /* \"#utility.yul\":4882:4888   */\n      dup2\n        /* \"#utility.yul\":4877:4880   */\n      dup6\n        /* \"#utility.yul\":4803:4889   */\n      tag_292\n      jump\t// in\n    tag_291:\n        /* \"#utility.yul\":4796:4889   */\n      swap4\n      pop\n        /* \"#utility.yul\":4913:4969   */\n      tag_293\n        /* \"#utility.yul\":4963:4968   */\n      dup4\n        /* \"#utility.yul\":4913:4969   */\n      tag_294\n      jump\t// in\n    tag_293:\n        /* \"#utility.yul\":4992:4999   */\n      dup1\n        /* \"#utility.yul\":5023:5024   */\n      0x00\n        /* \"#utility.yul\":5008:5292   */\n    tag_295:\n        /* \"#utility.yul\":5033:5039   */\n      dup4\n        /* \"#utility.yul\":5030:5031   */\n      dup2\n        /* \"#utility.yul\":5027:5040   */\n      lt\n        /* \"#utility.yul\":5008:5292   */\n      iszero\n      tag_297\n      jumpi\n        /* \"#utility.yul\":5109:5115   */\n      dup2\n        /* \"#utility.yul\":5103:5116   */\n      mload\n        /* \"#utility.yul\":5136:5199   */\n      tag_298\n        /* \"#utility.yul\":5195:5198   */\n      dup9\n        /* \"#utility.yul\":5180:5193   */\n      dup3\n        /* \"#utility.yul\":5136:5199   */\n      tag_274\n      jump\t// in\n    tag_298:\n        /* \"#utility.yul\":5129:5199   */\n      swap8\n      pop\n        /* \"#utility.yul\":5222:5282   */\n      tag_299\n        /* \"#utility.yul\":5275:5281   */\n      dup4\n        /* \"#utility.yul\":5222:5282   */\n      tag_300\n      jump\t// in\n    tag_299:\n        /* \"#utility.yul\":5212:5282   */\n      swap3\n      pop\n        /* \"#utility.yul\":5068:5292   */\n      pop\n        /* \"#utility.yul\":5055:5056   */\n      0x01\n        /* \"#utility.yul\":5052:5053   */\n      dup2\n        /* \"#utility.yul\":5048:5057   */\n      add\n        /* \"#utility.yul\":5043:5057   */\n      swap1\n      pop\n        /* \"#utility.yul\":5008:5292   */\n      jump(tag_295)\n    tag_297:\n        /* \"#utility.yul\":5012:5026   */\n      pop\n        /* \"#utility.yul\":5308:5311   */\n      dup6\n        /* \"#utility.yul\":5301:5311   */\n      swap4\n      pop\n        /* \"#utility.yul\":4709:5317   */\n      pop\n      pop\n      pop\n      swap3\n      swap2\n      pop\n      pop\n      jump\t// out\n        /* \"#utility.yul\":5323:5432   */\n    tag_301:\n        /* \"#utility.yul\":5404:5425   */\n      tag_303\n        /* \"#utility.yul\":5419:5424   */\n      dup2\n        /* \"#utility.yul\":5404:5425   */\n      tag_304\n      jump\t// in\n    tag_303:\n        /* \"#utility.yul\":5399:5402   */\n      dup3\n        /* \"#utility.yul\":5392:5426   */\n      mstore\n        /* \"#utility.yul\":5382:5432   */\n      pop\n      pop\n      jump\t// out\n        /* \"#utility.yul\":5438:5546   */\n    tag_277:\n        /* \"#utility.yul\":5515:5539   */\n      tag_306\n        /* \"#utility.yul\":5533:5538   */\n      dup2\n        /* \"#utility.yul\":5515:5539   */\n      tag_307\n      jump\t// in\n    tag_306:\n        /* \"#utility.yul\":5510:5513   */\n      dup3\n        /* \"#utility.yul\":5503:5540   */\n      mstore\n        /* \"#utility.yul\":5493:5546   */\n      pop\n      pop\n      jump\t// out\n        /* \"#utility.yul\":5552:5670   */\n    tag_308:\n        /* \"#utility.yul\":5639:5663   */\n      tag_310\n        /* \"#utility.yul\":5657:5662   */\n      dup2\n        /* \"#utility.yul\":5639:5663   */\n      tag_307\n      jump\t// in\n    tag_310:\n        /* \"#utility.yul\":5634:5637   */\n      dup3\n        /* \"#utility.yul\":5627:5664   */\n      mstore\n        /* \"#utility.yul\":5617:5670   */\n      pop\n      pop\n      jump\t// out\n        /* \"#utility.yul\":5676:6040   */\n    tag_311:\n        /* \"#utility.yul\":5764:5767   */\n      0x00\n        /* \"#utility.yul\":5792:5831   */\n      tag_313\n        /* \"#utility.yul\":5825:5830   */\n      dup3\n        /* \"#utility.yul\":5792:5831   */\n      tag_314\n      jump\t// in\n    tag_313:\n        /* \"#utility.yul\":5847:5918   */\n      tag_315\n        /* \"#utility.yul\":5911:5917   */\n      dup2\n        /* \"#utility.yul\":5906:5909   */\n      dup6\n        /* \"#utility.yul\":5847:5918   */\n      tag_316\n      jump\t// in\n    tag_315:\n        /* \"#utility.yul\":5840:5918   */\n      swap4\n      pop\n        /* \"#utility.yul\":5927:5979   */\n      tag_317\n        /* \"#utility.yul\":5972:5978   */\n      dup2\n        /* \"#utility.yul\":5967:5970   */\n      dup6\n        /* \"#utility.yul\":5960:5964   */\n      0x20\n        /* \"#utility.yul\":5953:5958   */\n      dup7\n        /* \"#utility.yul\":5949:5965   */\n      add\n        /* \"#utility.yul\":5927:5979   */\n      tag_318\n      jump\t// in\n    tag_317:\n        /* \"#utility.yul\":6004:6033   */\n      tag_319\n        /* \"#utility.yul\":6026:6032   */\n      dup2\n        /* \"#utility.yul\":6004:6033   */\n      tag_320\n      jump\t// in\n    tag_319:\n        /* \"#utility.yul\":5999:6002   */\n      dup5\n        /* \"#utility.yul\":5995:6034   */\n      add\n        /* \"#utility.yul\":5988:6034   */\n      swap2\n      pop\n        /* \"#utility.yul\":5768:6040   */\n      pop\n      swap3\n      swap2\n      pop\n      pop\n      jump\t// out\n        /* \"#utility.yul\":6046:6423   */\n    tag_321:\n        /* \"#utility.yul\":6152:6155   */\n      0x00\n        /* \"#utility.yul\":6180:6219   */\n      tag_323\n        /* \"#utility.yul\":6213:6218   */\n      dup3\n        /* \"#utility.yul\":6180:6219   */\n      tag_314\n      jump\t// in\n    tag_323:\n        /* \"#utility.yul\":6235:6324   */\n      tag_324\n        /* \"#utility.yul\":6317:6323   */\n      dup2\n        /* \"#utility.yul\":6312:6315   */\n      dup6\n        /* \"#utility.yul\":6235:6324   */\n      tag_325\n      jump\t// in\n    tag_324:\n        /* \"#utility.yul\":6228:6324   */\n      swap4\n      pop\n        /* \"#utility.yul\":6333:6385   */\n      tag_326\n        /* \"#utility.yul\":6378:6384   */\n      dup2\n        /* \"#utility.yul\":6373:6376   */\n      dup6\n        /* \"#utility.yul\":6366:6370   */\n      0x20\n        /* \"#utility.yul\":6359:6364   */\n      dup7\n        /* \"#utility.yul\":6355:6371   */\n      add\n        /* \"#utility.yul\":6333:6385   */\n      tag_318\n      jump\t// in\n    tag_326:\n        /* \"#utility.yul\":6410:6416   */\n      dup1\n        /* \"#utility.yul\":6405:6408   */\n      dup5\n        /* \"#utility.yul\":6401:6417   */\n      add\n        /* \"#utility.yul\":6394:6417   */\n      swap2\n      pop\n        /* \"#utility.yul\":6156:6423   */\n      pop\n      swap3\n      swap2\n      pop\n      pop\n      jump\t// out\n        /* \"#utility.yul\":6429:6795   */\n    tag_327:\n        /* \"#utility.yul\":6571:6574   */\n      0x00\n        /* \"#utility.yul\":6592:6659   */\n      tag_329\n        /* \"#utility.yul\":6656:6658   */\n      0x18\n        /* \"#utility.yul\":6651:6654   */\n      dup4\n        /* \"#utility.yul\":6592:6659   */\n      tag_316\n      jump\t// in\n    tag_329:\n        /* \"#utility.yul\":6585:6659   */\n      swap2\n      pop\n        /* \"#utility.yul\":6668:6761   */\n      tag_330\n        /* \"#utility.yul\":6757:6760   */\n      dup3\n        /* \"#utility.yul\":6668:6761   */\n      tag_331\n      jump\t// in\n    tag_330:\n        /* \"#utility.yul\":6786:6788   */\n      0x20\n        /* \"#utility.yul\":6781:6784   */\n      dup3\n        /* \"#utility.yul\":6777:6789   */\n      add\n        /* \"#utility.yul\":6770:6789   */\n      swap1\n      pop\n        /* \"#utility.yul\":6575:6795   */\n      swap2\n      swap1\n      pop\n      jump\t// out\n        /* \"#utility.yul\":6801:7167   */\n    tag_332:\n        /* \"#utility.yul\":6943:6946   */\n      0x00\n        /* \"#utility.yul\":6964:7031   */\n      tag_334\n        /* \"#utility.yul\":7028:7030   */\n      0x2e\n        /* \"#utility.yul\":7023:7026   */\n      dup4\n        /* \"#utility.yul\":6964:7031   */\n      tag_316\n      jump\t// in\n    tag_334:\n        /* \"#utility.yul\":6957:7031   */\n      swap2\n      pop\n        /* \"#utility.yul\":7040:7133   */\n      tag_335\n        /* \"#utility.yul\":7129:7132   */\n      dup3\n        /* \"#utility.yul\":7040:7133   */\n      tag_336\n      jump\t// in\n    tag_335:\n        /* \"#utility.yul\":7158:7160   */\n      0x40\n        /* \"#utility.yul\":7153:7156   */\n      dup3\n        /* \"#utility.yul\":7149:7161   */\n      add\n        /* \"#utility.yul\":7142:7161   */\n      swap1\n      pop\n        /* \"#utility.yul\":6947:7167   */\n      swap2\n      swap1\n      pop\n      jump\t// out\n        /* \"#utility.yul\":7173:7539   */\n    tag_337:\n        /* \"#utility.yul\":7315:7318   */\n      0x00\n        /* \"#utility.yul\":7336:7403   */\n      tag_339\n        /* \"#utility.yul\":7400:7402   */\n      0x17\n        /* \"#utility.yul\":7395:7398   */\n      dup4\n        /* \"#utility.yul\":7336:7403   */\n      tag_316\n      jump\t// in\n    tag_339:\n        /* \"#utility.yul\":7329:7403   */\n      swap2\n      pop\n        /* \"#utility.yul\":7412:7505   */\n      tag_340\n        /* \"#utility.yul\":7501:7504   */\n      dup3\n        /* \"#utility.yul\":7412:7505   */\n      tag_341\n      jump\t// in\n    tag_340:\n        /* \"#utility.yul\":7530:7532   */\n      0x20\n        /* \"#utility.yul\":7525:7528   */\n      dup3\n        /* \"#utility.yul\":7521:7533   */\n      add\n        /* \"#utility.yul\":7514:7533   */\n      swap1\n      pop\n        /* \"#utility.yul\":7319:7539   */\n      swap2\n      swap1\n      pop\n      jump\t// out\n        /* \"#utility.yul\":7545:7911   */\n    tag_342:\n        /* \"#utility.yul\":7687:7690   */\n      0x00\n        /* \"#utility.yul\":7708:7775   */\n      tag_344\n        /* \"#utility.yul\":7772:7774   */\n      0x27\n        /* \"#utility.yul\":7767:7770   */\n      dup4\n        /* \"#utility.yul\":7708:7775   */\n      tag_316\n      jump\t// in\n    tag_344:\n        /* \"#utility.yul\":7701:7775   */\n      swap2\n      pop\n        /* \"#utility.yul\":7784:7877   */\n      tag_345\n        /* \"#utility.yul\":7873:7876   */\n      dup3\n        /* \"#utility.yul\":7784:7877   */\n      tag_346\n      jump\t// in\n    tag_345:\n        /* \"#utility.yul\":7902:7904   */\n      0x40\n        /* \"#utility.yul\":7897:7900   */\n      dup3\n        /* \"#utility.yul\":7893:7905   */\n      add\n        /* \"#utility.yul\":7886:7905   */\n      swap1\n      pop\n        /* \"#utility.yul\":7691:7911   */\n      swap2\n      swap1\n      pop\n      jump\t// out\n        /* \"#utility.yul\":7917:8283   */\n    tag_347:\n        /* \"#utility.yul\":8059:8062   */\n      0x00\n        /* \"#utility.yul\":8080:8147   */\n      tag_349\n        /* \"#utility.yul\":8144:8146   */\n      0x11\n        /* \"#utility.yul\":8139:8142   */\n      dup4\n        /* \"#utility.yul\":8080:8147   */\n      tag_316\n      jump\t// in\n    tag_349:\n        /* \"#utility.yul\":8073:8147   */\n      swap2\n      pop\n        /* \"#utility.yul\":8156:8249   */\n      tag_350\n        /* \"#utility.yul\":8245:8248   */\n      dup3\n        /* \"#utility.yul\":8156:8249   */\n      tag_351\n      jump\t// in\n    tag_350:\n        /* \"#utility.yul\":8274:8276   */\n      0x20\n        /* \"#utility.yul\":8269:8272   */\n      dup3\n        /* \"#utility.yul\":8265:8277   */\n      add\n        /* \"#utility.yul\":8258:8277   */\n      swap1\n      pop\n        /* \"#utility.yul\":8063:8283   */\n      swap2\n      swap1\n      pop\n      jump\t// out\n        /* \"#utility.yul\":8289:8655   */\n    tag_352:\n        /* \"#utility.yul\":8431:8434   */\n      0x00\n        /* \"#utility.yul\":8452:8519   */\n      tag_354\n        /* \"#utility.yul\":8516:8518   */\n      0x14\n        /* \"#utility.yul\":8511:8514   */\n      dup4\n        /* \"#utility.yul\":8452:8519   */\n      tag_316\n      jump\t// in\n    tag_354:\n        /* \"#utility.yul\":8445:8519   */\n      swap2\n      pop\n        /* \"#utility.yul\":8528:8621   */\n      tag_355\n        /* \"#utility.yul\":8617:8620   */\n      dup3\n        /* \"#utility.yul\":8528:8621   */\n      tag_356\n      jump\t// in\n    tag_355:\n        /* \"#utility.yul\":8646:8648   */\n      0x20\n        /* \"#utility.yul\":8641:8644   */\n      dup3\n        /* \"#utility.yul\":8637:8649   */\n      add\n        /* \"#utility.yul\":8630:8649   */\n      swap1\n      pop\n        /* \"#utility.yul\":8435:8655   */\n      swap2\n      swap1\n      pop\n      jump\t// out\n        /* \"#utility.yul\":8661:9027   */\n    tag_357:\n        /* \"#utility.yul\":8803:8806   */\n      0x00\n        /* \"#utility.yul\":8824:8891   */\n      tag_359\n        /* \"#utility.yul\":8888:8890   */\n      0x2a\n        /* \"#utility.yul\":8883:8886   */\n      dup4\n        /* \"#utility.yul\":8824:8891   */\n      tag_316\n      jump\t// in\n    tag_359:\n        /* \"#utility.yul\":8817:8891   */\n      swap2\n      pop\n        /* \"#utility.yul\":8900:8993   */\n      tag_360\n        /* \"#utility.yul\":8989:8992   */\n      dup3\n        /* \"#utility.yul\":8900:8993   */\n      tag_361\n      jump\t// in\n    tag_360:\n        /* \"#utility.yul\":9018:9020   */\n      0x40\n        /* \"#utility.yul\":9013:9016   */\n      dup3\n        /* \"#utility.yul\":9009:9021   */\n      add\n        /* \"#utility.yul\":9002:9021   */\n      swap1\n      pop\n        /* \"#utility.yul\":8807:9027   */\n      swap2\n      swap1\n      pop\n      jump\t// out\n        /* \"#utility.yul\":9033:9399   */\n    tag_362:\n        /* \"#utility.yul\":9175:9178   */\n      0x00\n        /* \"#utility.yul\":9196:9263   */\n      tag_364\n        /* \"#utility.yul\":9260:9262   */\n      0x12\n        /* \"#utility.yul\":9255:9258   */\n      dup4\n        /* \"#utility.yul\":9196:9263   */\n      tag_316\n      jump\t// in\n    tag_364:\n        /* \"#utility.yul\":9189:9263   */\n      swap2\n      pop\n        /* \"#utility.yul\":9272:9365   */\n      tag_365\n        /* \"#utility.yul\":9361:9364   */\n      dup3\n        /* \"#utility.yul\":9272:9365   */\n      tag_366\n      jump\t// in\n    tag_365:\n        /* \"#utility.yul\":9390:9392   */\n      0x20\n        /* \"#utility.yul\":9385:9388   */\n      dup3\n        /* \"#utility.yul\":9381:9393   */\n      add\n        /* \"#utility.yul\":9374:9393   */\n      swap1\n      pop\n        /* \"#utility.yul\":9179:9399   */\n      swap2\n      swap1\n      pop\n      jump\t// out\n        /* \"#utility.yul\":9405:9771   */\n    tag_367:\n        /* \"#utility.yul\":9547:9550   */\n      0x00\n        /* \"#utility.yul\":9568:9635   */\n      tag_369\n        /* \"#utility.yul\":9632:9634   */\n      0x0d\n        /* \"#utility.yul\":9627:9630   */\n      dup4\n        /* \"#utility.yul\":9568:9635   */\n      tag_316\n      jump\t// in\n    tag_369:\n        /* \"#utility.yul\":9561:9635   */\n      swap2\n      pop\n        /* \"#utility.yul\":9644:9737   */\n      tag_370\n        /* \"#utility.yul\":9733:9736   */\n      dup3\n        /* \"#utility.yul\":9644:9737   */\n      tag_371\n      jump\t// in\n    tag_370:\n        /* \"#utility.yul\":9762:9764   */\n      0x20\n        /* \"#utility.yul\":9757:9760   */\n      dup3\n        /* \"#utility.yul\":9753:9765   */\n      add\n        /* \"#utility.yul\":9746:9765   */\n      swap1\n      pop\n        /* \"#utility.yul\":9551:9771   */\n      swap2\n      swap1\n      pop\n      jump\t// out\n        /* \"#utility.yul\":9777:9895   */\n    tag_372:\n        /* \"#utility.yul\":9864:9888   */\n      tag_374\n        /* \"#utility.yul\":9882:9887   */\n      dup2\n        /* \"#utility.yul\":9864:9888   */\n      tag_375\n      jump\t// in\n    tag_374:\n        /* \"#utility.yul\":9859:9862   */\n      dup3\n        /* \"#utility.yul\":9852:9889   */\n      mstore\n        /* \"#utility.yul\":9842:9895   */\n      pop\n      pop\n      jump\t// out\n        /* \"#utility.yul\":9901:10058   */\n    tag_376:\n        /* \"#utility.yul\":10006:10051   */\n      tag_378\n        /* \"#utility.yul\":10026:10050   */\n      tag_379\n        /* \"#utility.yul\":10044:10049   */\n      dup3\n        /* \"#utility.yul\":10026:10050   */\n      tag_375\n      jump\t// in\n    tag_379:\n        /* \"#utility.yul\":10006:10051   */\n      tag_380\n      jump\t// in\n    tag_378:\n        /* \"#utility.yul\":10001:10004   */\n      dup3\n        /* \"#utility.yul\":9994:10052   */\n      mstore\n        /* \"#utility.yul\":9984:10058   */\n      pop\n      pop\n      jump\t// out\n        /* \"#utility.yul\":10064:10461   */\n    tag_205:\n        /* \"#utility.yul\":10204:10207   */\n      0x00\n        /* \"#utility.yul\":10219:10294   */\n      tag_382\n        /* \"#utility.yul\":10290:10293   */\n      dup3\n        /* \"#utility.yul\":10281:10287   */\n      dup6\n        /* \"#utility.yul\":10219:10294   */\n      tag_282\n      jump\t// in\n    tag_382:\n        /* \"#utility.yul\":10319:10321   */\n      0x14\n        /* \"#utility.yul\":10314:10317   */\n      dup3\n        /* \"#utility.yul\":10310:10322   */\n      add\n        /* \"#utility.yul\":10303:10322   */\n      swap2\n      pop\n        /* \"#utility.yul\":10332:10407   */\n      tag_383\n        /* \"#utility.yul\":10403:10406   */\n      dup3\n        /* \"#utility.yul\":10394:10400   */\n      dup5\n        /* \"#utility.yul\":10332:10407   */\n      tag_376\n      jump\t// in\n    tag_383:\n        /* \"#utility.yul\":10432:10434   */\n      0x20\n        /* \"#utility.yul\":10427:10430   */\n      dup3\n        /* \"#utility.yul\":10423:10435   */\n      add\n        /* \"#utility.yul\":10416:10435   */\n      swap2\n      pop\n        /* \"#utility.yul\":10452:10455   */\n      dup2\n        /* \"#utility.yul\":10445:10455   */\n      swap1\n      pop\n        /* \"#utility.yul\":10208:10461   */\n      swap4\n      swap3\n      pop\n      pop\n      pop\n      jump\t// out\n        /* \"#utility.yul\":10467:10742   */\n    tag_114:\n        /* \"#utility.yul\":10599:10602   */\n      0x00\n        /* \"#utility.yul\":10621:10716   */\n      tag_385\n        /* \"#utility.yul\":10712:10715   */\n      dup3\n        /* \"#utility.yul\":10703:10709   */\n      dup5\n        /* \"#utility.yul\":10621:10716   */\n      tag_321\n      jump\t// in\n    tag_385:\n        /* \"#utility.yul\":10614:10716   */\n      swap2\n      pop\n        /* \"#utility.yul\":10733:10736   */\n      dup2\n        /* \"#utility.yul\":10726:10736   */\n      swap1\n      pop\n        /* \"#utility.yul\":10603:10742   */\n      swap3\n      swap2\n      pop\n      pop\n      jump\t// out\n        /* \"#utility.yul\":10748:10970   */\n    tag_65:\n        /* \"#utility.yul\":10841:10845   */\n      0x00\n        /* \"#utility.yul\":10879:10881   */\n      0x20\n        /* \"#utility.yul\":10868:10877   */\n      dup3\n        /* \"#utility.yul\":10864:10882   */\n      add\n        /* \"#utility.yul\":10856:10882   */\n      swap1\n      pop\n        /* \"#utility.yul\":10892:10963   */\n      tag_387\n        /* \"#utility.yul\":10960:10961   */\n      0x00\n        /* \"#utility.yul\":10949:10958   */\n      dup4\n        /* \"#utility.yul\":10945:10962   */\n      add\n        /* \"#utility.yul\":10936:10942   */\n      dup5\n        /* \"#utility.yul\":10892:10963   */\n      tag_278\n      jump\t// in\n    tag_387:\n        /* \"#utility.yul\":10846:10970   */\n      swap3\n      swap2\n      pop\n      pop\n      jump\t// out\n        /* \"#utility.yul\":10976:11620   */\n    tag_37:\n        /* \"#utility.yul\":11173:11177   */\n      0x00\n        /* \"#utility.yul\":11211:11214   */\n      0x80\n        /* \"#utility.yul\":11200:11209   */\n      dup3\n        /* \"#utility.yul\":11196:11215   */\n      add\n        /* \"#utility.yul\":11188:11215   */\n      swap1\n      pop\n        /* \"#utility.yul\":11225:11296   */\n      tag_389\n        /* \"#utility.yul\":11293:11294   */\n      0x00\n        /* \"#utility.yul\":11282:11291   */\n      dup4\n        /* \"#utility.yul\":11278:11295   */\n      add\n        /* \"#utility.yul\":11269:11275   */\n      dup8\n        /* \"#utility.yul\":11225:11296   */\n      tag_278\n      jump\t// in\n    tag_389:\n        /* \"#utility.yul\":11306:11378   */\n      tag_390\n        /* \"#utility.yul\":11374:11376   */\n      0x20\n        /* \"#utility.yul\":11363:11372   */\n      dup4\n        /* \"#utility.yul\":11359:11377   */\n      add\n        /* \"#utility.yul\":11350:11356   */\n      dup7\n        /* \"#utility.yul\":11306:11378   */\n      tag_372\n      jump\t// in\n    tag_390:\n        /* \"#utility.yul\":11388:11460   */\n      tag_391\n        /* \"#utility.yul\":11456:11458   */\n      0x40\n        /* \"#utility.yul\":11445:11454   */\n      dup4\n        /* \"#utility.yul\":11441:11459   */\n      add\n        /* \"#utility.yul\":11432:11438   */\n      dup6\n        /* \"#utility.yul\":11388:11460   */\n      tag_278\n      jump\t// in\n    tag_391:\n        /* \"#utility.yul\":11507:11516   */\n      dup2\n        /* \"#utility.yul\":11501:11505   */\n      dup2\n        /* \"#utility.yul\":11497:11517   */\n      sub\n        /* \"#utility.yul\":11492:11494   */\n      0x60\n        /* \"#utility.yul\":11481:11490   */\n      dup4\n        /* \"#utility.yul\":11477:11495   */\n      add\n        /* \"#utility.yul\":11470:11518   */\n      mstore\n        /* \"#utility.yul\":11535:11613   */\n      tag_392\n        /* \"#utility.yul\":11608:11612   */\n      dup2\n        /* \"#utility.yul\":11599:11605   */\n      dup5\n        /* \"#utility.yul\":11535:11613   */\n      tag_311\n      jump\t// in\n    tag_392:\n        /* \"#utility.yul\":11527:11613   */\n      swap1\n      pop\n        /* \"#utility.yul\":11178:11620   */\n      swap6\n      swap5\n      pop\n      pop\n      pop\n      pop\n      pop\n      jump\t// out\n        /* \"#utility.yul\":11626:11999   */\n    tag_60:\n        /* \"#utility.yul\":11769:11773   */\n      0x00\n        /* \"#utility.yul\":11807:11809   */\n      0x20\n        /* \"#utility.yul\":11796:11805   */\n      dup3\n        /* \"#utility.yul\":11792:11810   */\n      add\n        /* \"#utility.yul\":11784:11810   */\n      swap1\n      pop\n        /* \"#utility.yul\":11856:11865   */\n      dup2\n        /* \"#utility.yul\":11850:11854   */\n      dup2\n        /* \"#utility.yul\":11846:11866   */\n      sub\n        /* \"#utility.yul\":11842:11843   */\n      0x00\n        /* \"#utility.yul\":11831:11840   */\n      dup4\n        /* \"#utility.yul\":11827:11844   */\n      add\n        /* \"#utility.yul\":11820:11867   */\n      mstore\n        /* \"#utility.yul\":11884:11992   */\n      tag_394\n        /* \"#utility.yul\":11987:11991   */\n      dup2\n        /* \"#utility.yul\":11978:11984   */\n      dup5\n        /* \"#utility.yul\":11884:11992   */\n      tag_287\n      jump\t// in\n    tag_394:\n        /* \"#utility.yul\":11876:11992   */\n      swap1\n      pop\n        /* \"#utility.yul\":11774:11999   */\n      swap3\n      swap2\n      pop\n      pop\n      jump\t// out\n        /* \"#utility.yul\":12005:12215   */\n    tag_31:\n        /* \"#utility.yul\":12092:12096   */\n      0x00\n        /* \"#utility.yul\":12130:12132   */\n      0x20\n        /* \"#utility.yul\":12119:12128   */\n      dup3\n        /* \"#utility.yul\":12115:12133   */\n      add\n        /* \"#utility.yul\":12107:12133   */\n      swap1\n      pop\n        /* \"#utility.yul\":12143:12208   */\n      tag_396\n        /* \"#utility.yul\":12205:12206   */\n      0x00\n        /* \"#utility.yul\":12194:12203   */\n      dup4\n        /* \"#utility.yul\":12190:12207   */\n      add\n        /* \"#utility.yul\":12181:12187   */\n      dup5\n        /* \"#utility.yul\":12143:12208   */\n      tag_301\n      jump\t// in\n    tag_396:\n        /* \"#utility.yul\":12097:12215   */\n      swap3\n      swap2\n      pop\n      pop\n      jump\t// out\n        /* \"#utility.yul\":12221:12443   */\n    tag_46:\n        /* \"#utility.yul\":12314:12318   */\n      0x00\n        /* \"#utility.yul\":12352:12354   */\n      0x20\n        /* \"#utility.yul\":12341:12350   */\n      dup3\n        /* \"#utility.yul\":12337:12355   */\n      add\n        /* \"#utility.yul\":12329:12355   */\n      swap1\n      pop\n        /* \"#utility.yul\":12365:12436   */\n      tag_398\n        /* \"#utility.yul\":12433:12434   */\n      0x00\n        /* \"#utility.yul\":12422:12431   */\n      dup4\n        /* \"#utility.yul\":12418:12435   */\n      add\n        /* \"#utility.yul\":12409:12415   */\n      dup5\n        /* \"#utility.yul\":12365:12436   */\n      tag_308\n      jump\t// in\n    tag_398:\n        /* \"#utility.yul\":12319:12443   */\n      swap3\n      swap2\n      pop\n      pop\n      jump\t// out\n        /* \"#utility.yul\":12449:12762   */\n    tag_89:\n        /* \"#utility.yul\":12562:12566   */\n      0x00\n        /* \"#utility.yul\":12600:12602   */\n      0x20\n        /* \"#utility.yul\":12589:12598   */\n      dup3\n        /* \"#utility.yul\":12585:12603   */\n      add\n        /* \"#utility.yul\":12577:12603   */\n      swap1\n      pop\n        /* \"#utility.yul\":12649:12658   */\n      dup2\n        /* \"#utility.yul\":12643:12647   */\n      dup2\n        /* \"#utility.yul\":12639:12659   */\n      sub\n        /* \"#utility.yul\":12635:12636   */\n      0x00\n        /* \"#utility.yul\":12624:12633   */\n      dup4\n        /* \"#utility.yul\":12620:12637   */\n      add\n        /* \"#utility.yul\":12613:12660   */\n      mstore\n        /* \"#utility.yul\":12677:12755   */\n      tag_400\n        /* \"#utility.yul\":12750:12754   */\n      dup2\n        /* \"#utility.yul\":12741:12747   */\n      dup5\n        /* \"#utility.yul\":12677:12755   */\n      tag_311\n      jump\t// in\n    tag_400:\n        /* \"#utility.yul\":12669:12755   */\n      swap1\n      pop\n        /* \"#utility.yul\":12567:12762   */\n      swap3\n      swap2\n      pop\n      pop\n      jump\t// out\n        /* \"#utility.yul\":12768:13191   */\n    tag_186:\n        /* \"#utility.yul\":12909:12913   */\n      0x00\n        /* \"#utility.yul\":12947:12949   */\n      0x40\n        /* \"#utility.yul\":12936:12945   */\n      dup3\n        /* \"#utility.yul\":12932:12950   */\n      add\n        /* \"#utility.yul\":12924:12950   */\n      swap1\n      pop\n        /* \"#utility.yul\":12996:13005   */\n      dup2\n        /* \"#utility.yul\":12990:12994   */\n      dup2\n        /* \"#utility.yul\":12986:13006   */\n      sub\n        /* \"#utility.yul\":12982:12983   */\n      0x00\n        /* \"#utility.yul\":12971:12980   */\n      dup4\n        /* \"#utility.yul\":12967:12984   */\n      add\n        /* \"#utility.yul\":12960:13007   */\n      mstore\n        /* \"#utility.yul\":13024:13102   */\n      tag_402\n        /* \"#utility.yul\":13097:13101   */\n      dup2\n        /* \"#utility.yul\":13088:13094   */\n      dup6\n        /* \"#utility.yul\":13024:13102   */\n      tag_311\n      jump\t// in\n    tag_402:\n        /* \"#utility.yul\":13016:13102   */\n      swap1\n      pop\n        /* \"#utility.yul\":13112:13184   */\n      tag_403\n        /* \"#utility.yul\":13180:13182   */\n      0x20\n        /* \"#utility.yul\":13169:13178   */\n      dup4\n        /* \"#utility.yul\":13165:13183   */\n      add\n        /* \"#utility.yul\":13156:13162   */\n      dup5\n        /* \"#utility.yul\":13112:13184   */\n      tag_372\n      jump\t// in\n    tag_403:\n        /* \"#utility.yul\":12914:13191   */\n      swap4\n      swap3\n      pop\n      pop\n      pop\n      jump\t// out\n        /* \"#utility.yul\":13197:13616   */\n    tag_147:\n        /* \"#utility.yul\":13363:13367   */\n      0x00\n        /* \"#utility.yul\":13401:13403   */\n      0x20\n        /* \"#utility.yul\":13390:13399   */\n      dup3\n        /* \"#utility.yul\":13386:13404   */\n      add\n        /* \"#utility.yul\":13378:13404   */\n      swap1\n      pop\n        /* \"#utility.yul\":13450:13459   */\n      dup2\n        /* \"#utility.yul\":13444:13448   */\n      dup2\n        /* \"#utility.yul\":13440:13460   */\n      sub\n        /* \"#utility.yul\":13436:13437   */\n      0x00\n        /* \"#utility.yul\":13425:13434   */\n      dup4\n        /* \"#utility.yul\":13421:13438   */\n      add\n        /* \"#utility.yul\":13414:13461   */\n      mstore\n        /* \"#utility.yul\":13478:13609   */\n      tag_405\n        /* \"#utility.yul\":13604:13608   */\n      dup2\n        /* \"#utility.yul\":13478:13609   */\n      tag_327\n      jump\t// in\n    tag_405:\n        /* \"#utility.yul\":13470:13609   */\n      swap1\n      pop\n        /* \"#utility.yul\":13368:13616   */\n      swap2\n      swap1\n      pop\n      jump\t// out\n        /* \"#utility.yul\":13622:14041   */\n    tag_190:\n        /* \"#utility.yul\":13788:13792   */\n      0x00\n        /* \"#utility.yul\":13826:13828   */\n      0x20\n        /* \"#utility.yul\":13815:13824   */\n      dup3\n        /* \"#utility.yul\":13811:13829   */\n      add\n        /* \"#utility.yul\":13803:13829   */\n      swap1\n      pop\n        /* \"#utility.yul\":13875:13884   */\n      dup2\n        /* \"#utility.yul\":13869:13873   */\n      dup2\n        /* \"#utility.yul\":13865:13885   */\n      sub\n        /* \"#utility.yul\":13861:13862   */\n      0x00\n        /* \"#utility.yul\":13850:13859   */\n      dup4\n        /* \"#utility.yul\":13846:13863   */\n      add\n        /* \"#utility.yul\":13839:13886   */\n      mstore\n        /* \"#utility.yul\":13903:14034   */\n      tag_407\n        /* \"#utility.yul\":14029:14033   */\n      dup2\n        /* \"#utility.yul\":13903:14034   */\n      tag_332\n      jump\t// in\n    tag_407:\n        /* \"#utility.yul\":13895:14034   */\n      swap1\n      pop\n        /* \"#utility.yul\":13793:14041   */\n      swap2\n      swap1\n      pop\n      jump\t// out\n        /* \"#utility.yul\":14047:14466   */\n    tag_126:\n        /* \"#utility.yul\":14213:14217   */\n      0x00\n        /* \"#utility.yul\":14251:14253   */\n      0x20\n        /* \"#utility.yul\":14240:14249   */\n      dup3\n        /* \"#utility.yul\":14236:14254   */\n      add\n        /* \"#utility.yul\":14228:14254   */\n      swap1\n      pop\n        /* \"#utility.yul\":14300:14309   */\n      dup2\n        /* \"#utility.yul\":14294:14298   */\n      dup2\n        /* \"#utility.yul\":14290:14310   */\n      sub\n        /* \"#utility.yul\":14286:14287   */\n      0x00\n        /* \"#utility.yul\":14275:14284   */\n      dup4\n        /* \"#utility.yul\":14271:14288   */\n      add\n        /* \"#utility.yul\":14264:14311   */\n      mstore\n        /* \"#utility.yul\":14328:14459   */\n      tag_409\n        /* \"#utility.yul\":14454:14458   */\n      dup2\n        /* \"#utility.yul\":14328:14459   */\n      tag_337\n      jump\t// in\n    tag_409:\n        /* \"#utility.yul\":14320:14459   */\n      swap1\n      pop\n        /* \"#utility.yul\":14218:14466   */\n      swap2\n      swap1\n      pop\n      jump\t// out\n        /* \"#utility.yul\":14472:14891   */\n    tag_144:\n        /* \"#utility.yul\":14638:14642   */\n      0x00\n        /* \"#utility.yul\":14676:14678   */\n      0x20\n        /* \"#utility.yul\":14665:14674   */\n      dup3\n        /* \"#utility.yul\":14661:14679   */\n      add\n        /* \"#utility.yul\":14653:14679   */\n      swap1\n      pop\n        /* \"#utility.yul\":14725:14734   */\n      dup2\n        /* \"#utility.yul\":14719:14723   */\n      dup2\n        /* \"#utility.yul\":14715:14735   */\n      sub\n        /* \"#utility.yul\":14711:14712   */\n      0x00\n        /* \"#utility.yul\":14700:14709   */\n      dup4\n        /* \"#utility.yul\":14696:14713   */\n      add\n        /* \"#utility.yul\":14689:14736   */\n      mstore\n        /* \"#utility.yul\":14753:14884   */\n      tag_411\n        /* \"#utility.yul\":14879:14883   */\n      dup2\n        /* \"#utility.yul\":14753:14884   */\n      tag_342\n      jump\t// in\n    tag_411:\n        /* \"#utility.yul\":14745:14884   */\n      swap1\n      pop\n        /* \"#utility.yul\":14643:14891   */\n      swap2\n      swap1\n      pop\n      jump\t// out\n        /* \"#utility.yul\":14897:15316   */\n    tag_106:\n        /* \"#utility.yul\":15063:15067   */\n      0x00\n        /* \"#utility.yul\":15101:15103   */\n      0x20\n        /* \"#utility.yul\":15090:15099   */\n      dup3\n        /* \"#utility.yul\":15086:15104   */\n      add\n        /* \"#utility.yul\":15078:15104   */\n      swap1\n      pop\n        /* \"#utility.yul\":15150:15159   */\n      dup2\n        /* \"#utility.yul\":15144:15148   */\n      dup2\n        /* \"#utility.yul\":15140:15160   */\n      sub\n        /* \"#utility.yul\":15136:15137   */\n      0x00\n        /* \"#utility.yul\":15125:15134   */\n      dup4\n        /* \"#utility.yul\":15121:15138   */\n      add\n        /* \"#utility.yul\":15114:15161   */\n      mstore\n        /* \"#utility.yul\":15178:15309   */\n      tag_413\n        /* \"#utility.yul\":15304:15308   */\n      dup2\n        /* \"#utility.yul\":15178:15309   */\n      tag_347\n      jump\t// in\n    tag_413:\n        /* \"#utility.yul\":15170:15309   */\n      swap1\n      pop\n        /* \"#utility.yul\":15068:15316   */\n      swap2\n      swap1\n      pop\n      jump\t// out\n        /* \"#utility.yul\":15322:15741   */\n    tag_159:\n        /* \"#utility.yul\":15488:15492   */\n      0x00\n        /* \"#utility.yul\":15526:15528   */\n      0x20\n        /* \"#utility.yul\":15515:15524   */\n      dup3\n        /* \"#utility.yul\":15511:15529   */\n      add\n        /* \"#utility.yul\":15503:15529   */\n      swap1\n      pop\n        /* \"#utility.yul\":15575:15584   */\n      dup2\n        /* \"#utility.yul\":15569:15573   */\n      dup2\n        /* \"#utility.yul\":15565:15585   */\n      sub\n        /* \"#utility.yul\":15561:15562   */\n      0x00\n        /* \"#utility.yul\":15550:15559   */\n      dup4\n        /* \"#utility.yul\":15546:15563   */\n      add\n        /* \"#utility.yul\":15539:15586   */\n      mstore\n        /* \"#utility.yul\":15603:15734   */\n      tag_415\n        /* \"#utility.yul\":15729:15733   */\n      dup2\n        /* \"#utility.yul\":15603:15734   */\n      tag_352\n      jump\t// in\n    tag_415:\n        /* \"#utility.yul\":15595:15734   */\n      swap1\n      pop\n        /* \"#utility.yul\":15493:15741   */\n      swap2\n      swap1\n      pop\n      jump\t// out\n        /* \"#utility.yul\":15747:16166   */\n    tag_100:\n        /* \"#utility.yul\":15913:15917   */\n      0x00\n        /* \"#utility.yul\":15951:15953   */\n      0x20\n        /* \"#utility.yul\":15940:15949   */\n      dup3\n        /* \"#utility.yul\":15936:15954   */\n      add\n        /* \"#utility.yul\":15928:15954   */\n      swap1\n      pop\n        /* \"#utility.yul\":16000:16009   */\n      dup2\n        /* \"#utility.yul\":15994:15998   */\n      dup2\n        /* \"#utility.yul\":15990:16010   */\n      sub\n        /* \"#utility.yul\":15986:15987   */\n      0x00\n        /* \"#utility.yul\":15975:15984   */\n      dup4\n        /* \"#utility.yul\":15971:15988   */\n      add\n        /* \"#utility.yul\":15964:16011   */\n      mstore\n        /* \"#utility.yul\":16028:16159   */\n      tag_417\n        /* \"#utility.yul\":16154:16158   */\n      dup2\n        /* \"#utility.yul\":16028:16159   */\n      tag_357\n      jump\t// in\n    tag_417:\n        /* \"#utility.yul\":16020:16159   */\n      swap1\n      pop\n        /* \"#utility.yul\":15918:16166   */\n      swap2\n      swap1\n      pop\n      jump\t// out\n        /* \"#utility.yul\":16172:16591   */\n    tag_130:\n        /* \"#utility.yul\":16338:16342   */\n      0x00\n        /* \"#utility.yul\":16376:16378   */\n      0x20\n        /* \"#utility.yul\":16365:16374   */\n      dup3\n        /* \"#utility.yul\":16361:16379   */\n      add\n        /* \"#utility.yul\":16353:16379   */\n      swap1\n      pop\n        /* \"#utility.yul\":16425:16434   */\n      dup2\n        /* \"#utility.yul\":16419:16423   */\n      dup2\n        /* \"#utility.yul\":16415:16435   */\n      sub\n        /* \"#utility.yul\":16411:16412   */\n      0x00\n        /* \"#utility.yul\":16400:16409   */\n      dup4\n        /* \"#utility.yul\":16396:16413   */\n      add\n        /* \"#utility.yul\":16389:16436   */\n      mstore\n        /* \"#utility.yul\":16453:16584   */\n      tag_419\n        /* \"#utility.yul\":16579:16583   */\n      dup2\n        /* \"#utility.yul\":16453:16584   */\n      tag_362\n      jump\t// in\n    tag_419:\n        /* \"#utility.yul\":16445:16584   */\n      swap1\n      pop\n        /* \"#utility.yul\":16343:16591   */\n      swap2\n      swap1\n      pop\n      jump\t// out\n        /* \"#utility.yul\":16597:17016   */\n    tag_179:\n        /* \"#utility.yul\":16763:16767   */\n      0x00\n        /* \"#utility.yul\":16801:16803   */\n      0x20\n        /* \"#utility.yul\":16790:16799   */\n      dup3\n        /* \"#utility.yul\":16786:16804   */\n      add\n        /* \"#utility.yul\":16778:16804   */\n      swap1\n      pop\n        /* \"#utility.yul\":16850:16859   */\n      dup2\n        /* \"#utility.yul\":16844:16848   */\n      dup2\n        /* \"#utility.yul\":16840:16860   */\n      sub\n        /* \"#utility.yul\":16836:16837   */\n      0x00\n        /* \"#utility.yul\":16825:16834   */\n      dup4\n        /* \"#utility.yul\":16821:16838   */\n      add\n        /* \"#utility.yul\":16814:16861   */\n      mstore\n        /* \"#utility.yul\":16878:17009   */\n      tag_421\n        /* \"#utility.yul\":17004:17008   */\n      dup2\n        /* \"#utility.yul\":16878:17009   */\n      tag_367\n      jump\t// in\n    tag_421:\n        /* \"#utility.yul\":16870:17009   */\n      swap1\n      pop\n        /* \"#utility.yul\":16768:17016   */\n      swap2\n      swap1\n      pop\n      jump\t// out\n        /* \"#utility.yul\":17022:17244   */\n    tag_149:\n        /* \"#utility.yul\":17115:17119   */\n      0x00\n        /* \"#utility.yul\":17153:17155   */\n      0x20\n        /* \"#utility.yul\":17142:17151   */\n      dup3\n        /* \"#utility.yul\":17138:17156   */\n      add\n        /* \"#utility.yul\":17130:17156   */\n      swap1\n      pop\n        /* \"#utility.yul\":17166:17237   */\n      tag_423\n        /* \"#utility.yul\":17234:17235   */\n      0x00\n        /* \"#utility.yul\":17223:17232   */\n      dup4\n        /* \"#utility.yul\":17219:17236   */\n      add\n        /* \"#utility.yul\":17210:17216   */\n      dup5\n        /* \"#utility.yul\":17166:17237   */\n      tag_372\n      jump\t// in\n    tag_423:\n        /* \"#utility.yul\":17120:17244   */\n      swap3\n      swap2\n      pop\n      pop\n      jump\t// out\n        /* \"#utility.yul\":17250:17803   */\n    tag_70:\n        /* \"#utility.yul\":17427:17431   */\n      0x00\n        /* \"#utility.yul\":17465:17468   */\n      0x80\n        /* \"#utility.yul\":17454:17463   */\n      dup3\n        /* \"#utility.yul\":17450:17469   */\n      add\n        /* \"#utility.yul\":17442:17469   */\n      swap1\n      pop\n        /* \"#utility.yul\":17479:17550   */\n      tag_425\n        /* \"#utility.yul\":17547:17548   */\n      0x00\n        /* \"#utility.yul\":17536:17545   */\n      dup4\n        /* \"#utility.yul\":17532:17549   */\n      add\n        /* \"#utility.yul\":17523:17529   */\n      dup8\n        /* \"#utility.yul\":17479:17550   */\n      tag_372\n      jump\t// in\n    tag_425:\n        /* \"#utility.yul\":17560:17632   */\n      tag_426\n        /* \"#utility.yul\":17628:17630   */\n      0x20\n        /* \"#utility.yul\":17617:17626   */\n      dup4\n        /* \"#utility.yul\":17613:17631   */\n      add\n        /* \"#utility.yul\":17604:17610   */\n      dup7\n        /* \"#utility.yul\":17560:17632   */\n      tag_372\n      jump\t// in\n    tag_426:\n        /* \"#utility.yul\":17642:17714   */\n      tag_427\n        /* \"#utility.yul\":17710:17712   */\n      0x40\n        /* \"#utility.yul\":17699:17708   */\n      dup4\n        /* \"#utility.yul\":17695:17713   */\n      add\n        /* \"#utility.yul\":17686:17692   */\n      dup6\n        /* \"#utility.yul\":17642:17714   */\n      tag_372\n      jump\t// in\n    tag_427:\n        /* \"#utility.yul\":17724:17796   */\n      tag_428\n        /* \"#utility.yul\":17792:17794   */\n      0x60\n        /* \"#utility.yul\":17781:17790   */\n      dup4\n        /* \"#utility.yul\":17777:17795   */\n      add\n        /* \"#utility.yul\":17768:17774   */\n      dup5\n        /* \"#utility.yul\":17724:17796   */\n      tag_372\n      jump\t// in\n    tag_428:\n        /* \"#utility.yul\":17432:17803   */\n      swap6\n      swap5\n      pop\n      pop\n      pop\n      pop\n      pop\n      jump\t// out\n        /* \"#utility.yul\":17809:17938   */\n    tag_226:\n        /* \"#utility.yul\":17843:17849   */\n      0x00\n        /* \"#utility.yul\":17870:17890   */\n      tag_430\n      tag_431\n      jump\t// in\n    tag_430:\n        /* \"#utility.yul\":17860:17890   */\n      swap1\n      pop\n        /* \"#utility.yul\":17899:17932   */\n      tag_432\n        /* \"#utility.yul\":17927:17931   */\n      dup3\n        /* \"#utility.yul\":17919:17925   */\n      dup3\n        /* \"#utility.yul\":17899:17932   */\n      tag_433\n      jump\t// in\n    tag_432:\n        /* \"#utility.yul\":17850:17938   */\n      swap2\n      swap1\n      pop\n      jump\t// out\n        /* \"#utility.yul\":17944:18019   */\n    tag_431:\n        /* \"#utility.yul\":17977:17983   */\n      0x00\n        /* \"#utility.yul\":18010:18012   */\n      0x40\n        /* \"#utility.yul\":18004:18013   */\n      mload\n        /* \"#utility.yul\":17994:18013   */\n      swap1\n      pop\n        /* \"#utility.yul\":17984:18019   */\n      swap1\n      jump\t// out\n        /* \"#utility.yul\":18025:18333   */\n    tag_225:\n        /* \"#utility.yul\":18087:18091   */\n      0x00\n        /* \"#utility.yul\":18177:18195   */\n      0xffffffffffffffff\n        /* \"#utility.yul\":18169:18175   */\n      dup3\n        /* \"#utility.yul\":18166:18196   */\n      gt\n        /* \"#utility.yul\":18163:18165   */\n      iszero\n      tag_436\n      jumpi\n        /* \"#utility.yul\":18199:18217   */\n      tag_437\n      tag_438\n      jump\t// in\n    tag_437:\n        /* \"#utility.yul\":18163:18165   */\n    tag_436:\n        /* \"#utility.yul\":18237:18266   */\n      tag_439\n        /* \"#utility.yul\":18259:18265   */\n      dup3\n        /* \"#utility.yul\":18237:18266   */\n      tag_320\n      jump\t// in\n    tag_439:\n        /* \"#utility.yul\":18229:18266   */\n      swap1\n      pop\n        /* \"#utility.yul\":18321:18325   */\n      0x20\n        /* \"#utility.yul\":18315:18319   */\n      dup2\n        /* \"#utility.yul\":18311:18326   */\n      add\n        /* \"#utility.yul\":18303:18326   */\n      swap1\n      pop\n        /* \"#utility.yul\":18092:18333   */\n      swap2\n      swap1\n      pop\n      jump\t// out\n        /* \"#utility.yul\":18339:18471   */\n    tag_294:\n        /* \"#utility.yul\":18406:18410   */\n      0x00\n        /* \"#utility.yul\":18429:18432   */\n      dup2\n        /* \"#utility.yul\":18421:18432   */\n      swap1\n      pop\n        /* \"#utility.yul\":18459:18463   */\n      0x20\n        /* \"#utility.yul\":18454:18457   */\n      dup3\n        /* \"#utility.yul\":18450:18464   */\n      add\n        /* \"#utility.yul\":18442:18464   */\n      swap1\n      pop\n        /* \"#utility.yul\":18411:18471   */\n      swap2\n      swap1\n      pop\n      jump\t// out\n        /* \"#utility.yul\":18477:18591   */\n    tag_290:\n        /* \"#utility.yul\":18544:18550   */\n      0x00\n        /* \"#utility.yul\":18578:18583   */\n      dup2\n        /* \"#utility.yul\":18572:18584   */\n      mload\n        /* \"#utility.yul\":18562:18584   */\n      swap1\n      pop\n        /* \"#utility.yul\":18551:18591   */\n      swap2\n      swap1\n      pop\n      jump\t// out\n        /* \"#utility.yul\":18597:18696   */\n    tag_314:\n        /* \"#utility.yul\":18649:18655   */\n      0x00\n        /* \"#utility.yul\":18683:18688   */\n      dup2\n        /* \"#utility.yul\":18677:18689   */\n      mload\n        /* \"#utility.yul\":18667:18689   */\n      swap1\n      pop\n        /* \"#utility.yul\":18656:18696   */\n      swap2\n      swap1\n      pop\n      jump\t// out\n        /* \"#utility.yul\":18702:18815   */\n    tag_300:\n        /* \"#utility.yul\":18772:18776   */\n      0x00\n        /* \"#utility.yul\":18804:18808   */\n      0x20\n        /* \"#utility.yul\":18799:18802   */\n      dup3\n        /* \"#utility.yul\":18795:18809   */\n      add\n        /* \"#utility.yul\":18787:18809   */\n      swap1\n      pop\n        /* \"#utility.yul\":18777:18815   */\n      swap2\n      swap1\n      pop\n      jump\t// out\n        /* \"#utility.yul\":18821:19005   */\n    tag_292:\n        /* \"#utility.yul\":18920:18931   */\n      0x00\n        /* \"#utility.yul\":18954:18960   */\n      dup3\n        /* \"#utility.yul\":18949:18952   */\n      dup3\n        /* \"#utility.yul\":18942:18961   */\n      mstore\n        /* \"#utility.yul\":18994:18998   */\n      0x20\n        /* \"#utility.yul\":18989:18992   */\n      dup3\n        /* \"#utility.yul\":18985:18999   */\n      add\n        /* \"#utility.yul\":18970:18999   */\n      swap1\n      pop\n        /* \"#utility.yul\":18932:19005   */\n      swap3\n      swap2\n      pop\n      pop\n      jump\t// out\n        /* \"#utility.yul\":19011:19180   */\n    tag_316:\n        /* \"#utility.yul\":19095:19106   */\n      0x00\n        /* \"#utility.yul\":19129:19135   */\n      dup3\n        /* \"#utility.yul\":19124:19127   */\n      dup3\n        /* \"#utility.yul\":19117:19136   */\n      mstore\n        /* \"#utility.yul\":19169:19173   */\n      0x20\n        /* \"#utility.yul\":19164:19167   */\n      dup3\n        /* \"#utility.yul\":19160:19174   */\n      add\n        /* \"#utility.yul\":19145:19174   */\n      swap1\n      pop\n        /* \"#utility.yul\":19107:19180   */\n      swap3\n      swap2\n      pop\n      pop\n      jump\t// out\n        /* \"#utility.yul\":19186:19334   */\n    tag_325:\n        /* \"#utility.yul\":19288:19299   */\n      0x00\n        /* \"#utility.yul\":19325:19328   */\n      dup2\n        /* \"#utility.yul\":19310:19328   */\n      swap1\n      pop\n        /* \"#utility.yul\":19300:19334   */\n      swap3\n      swap2\n      pop\n      pop\n      jump\t// out\n        /* \"#utility.yul\":19340:19645   */\n    tag_166:\n        /* \"#utility.yul\":19380:19383   */\n      0x00\n        /* \"#utility.yul\":19399:19419   */\n      tag_448\n        /* \"#utility.yul\":19417:19418   */\n      dup3\n        /* \"#utility.yul\":19399:19419   */\n      tag_375\n      jump\t// in\n    tag_448:\n        /* \"#utility.yul\":19394:19419   */\n      swap2\n      pop\n        /* \"#utility.yul\":19433:19453   */\n      tag_449\n        /* \"#utility.yul\":19451:19452   */\n      dup4\n        /* \"#utility.yul\":19433:19453   */\n      tag_375\n      jump\t// in\n    tag_449:\n        /* \"#utility.yul\":19428:19453   */\n      swap3\n      pop\n        /* \"#utility.yul\":19587:19588   */\n      dup3\n        /* \"#utility.yul\":19519:19585   */\n      0xffffffffffffffffffffffffffffffffffffffffffffffffffffffffffffffff\n        /* \"#utility.yul\":19515:19589   */\n      sub\n        /* \"#utility.yul\":19512:19513   */\n      dup3\n        /* \"#utility.yul\":19509:19590   */\n      gt\n        /* \"#utility.yul\":19506:19508   */\n      iszero\n      tag_450\n      jumpi\n        /* \"#utility.yul\":19593:19611   */\n      tag_451\n      tag_452\n      jump\t// in\n    tag_451:\n        /* \"#utility.yul\":19506:19508   */\n    tag_450:\n        /* \"#utility.yul\":19637:19638   */\n      dup3\n        /* \"#utility.yul\":19634:19635   */\n      dup3\n        /* \"#utility.yul\":19630:19639   */\n      add\n        /* \"#utility.yul\":19623:19639   */\n      swap1\n      pop\n        /* \"#utility.yul\":19384:19645   */\n      swap3\n      swap2\n      pop\n      pop\n      jump\t// out\n        /* \"#utility.yul\":19651:19747   */\n    tag_281:\n        /* \"#utility.yul\":19688:19695   */\n      0x00\n        /* \"#utility.yul\":19717:19741   */\n      tag_454\n        /* \"#utility.yul\":19735:19740   */\n      dup3\n        /* \"#utility.yul\":19717:19741   */\n      tag_455\n      jump\t// in\n    tag_454:\n        /* \"#utility.yul\":19706:19741   */\n      swap1\n      pop\n        /* \"#utility.yul\":19696:19747   */\n      swap2\n      swap1\n      pop\n      jump\t// out\n        /* \"#utility.yul\":19753:19843   */\n    tag_304:\n        /* \"#utility.yul\":19787:19794   */\n      0x00\n        /* \"#utility.yul\":19830:19835   */\n      dup2\n        /* \"#utility.yul\":19823:19836   */\n      iszero\n        /* \"#utility.yul\":19816:19837   */\n      iszero\n        /* \"#utility.yul\":19805:19837   */\n      swap1\n      pop\n        /* \"#utility.yul\":19795:19843   */\n      swap2\n      swap1\n      pop\n      jump\t// out\n        /* \"#utility.yul\":19849:19926   */\n    tag_307:\n        /* \"#utility.yul\":19886:19893   */\n      0x00\n        /* \"#utility.yul\":19915:19920   */\n      dup2\n        /* \"#utility.yul\":19904:19920   */\n      swap1\n      pop\n        /* \"#utility.yul\":19894:19926   */\n      swap2\n      swap1\n      pop\n      jump\t// out\n        /* \"#utility.yul\":19932:20058   */\n    tag_455:\n        /* \"#utility.yul\":19969:19976   */\n      0x00\n        /* \"#utility.yul\":20009:20051   */\n      0xffffffffffffffffffffffffffffffffffffffff\n        /* \"#utility.yul\":20002:20007   */\n      dup3\n        /* \"#utility.yul\":19998:20052   */\n      and\n        /* \"#utility.yul\":19987:20052   */\n      swap1\n      pop\n        /* \"#utility.yul\":19977:20058   */\n      swap2\n      swap1\n      pop\n      jump\t// out\n        /* \"#utility.yul\":20064:20141   */\n    tag_375:\n        /* \"#utility.yul\":20101:20108   */\n      0x00\n        /* \"#utility.yul\":20130:20135   */\n      dup2\n        /* \"#utility.yul\":20119:20135   */\n      swap1\n      pop\n        /* \"#utility.yul\":20109:20141   */\n      swap2\n      swap1\n      pop\n      jump\t// out\n        /* \"#utility.yul\":20147:20301   */\n    tag_229:\n        /* \"#utility.yul\":20231:20237   */\n      dup3\n        /* \"#utility.yul\":20226:20229   */\n      dup2\n        /* \"#utility.yul\":20221:20224   */\n      dup4\n        /* \"#utility.yul\":20208:20238   */\n      calldatacopy\n        /* \"#utility.yul\":20293:20294   */\n      0x00\n        /* \"#utility.yul\":20284:20290   */\n      dup4\n        /* \"#utility.yul\":20279:20282   */\n      dup4\n        /* \"#utility.yul\":20275:20291   */\n      add\n        /* \"#utility.yul\":20268:20295   */\n      mstore\n        /* \"#utility.yul\":20198:20301   */\n      pop\n      pop\n      pop\n      jump\t// out\n        /* \"#utility.yul\":20307:20614   */\n    tag_318:\n        /* \"#utility.yul\":20375:20376   */\n      0x00\n        /* \"#utility.yul\":20385:20498   */\n    tag_462:\n        /* \"#utility.yul\":20399:20405   */\n      dup4\n        /* \"#utility.yul\":20396:20397   */\n      dup2\n        /* \"#utility.yul\":20393:20406   */\n      lt\n        /* \"#utility.yul\":20385:20498   */\n      iszero\n      tag_464\n      jumpi\n        /* \"#utility.yul\":20484:20485   */\n      dup1\n        /* \"#utility.yul\":20479:20482   */\n      dup3\n        /* \"#utility.yul\":20475:20486   */\n      add\n        /* \"#utility.yul\":20469:20487   */\n      mload\n        /* \"#utility.yul\":20465:20466   */\n      dup2\n        /* \"#utility.yul\":20460:20463   */\n      dup5\n        /* \"#utility.yul\":20456:20467   */\n      add\n        /* \"#utility.yul\":20449:20488   */\n      mstore\n        /* \"#utility.yul\":20421:20423   */\n      0x20\n        /* \"#utility.yul\":20418:20419   */\n      dup2\n        /* \"#utility.yul\":20414:20424   */\n      add\n        /* \"#utility.yul\":20409:20424   */\n      swap1\n      pop\n        /* \"#utility.yul\":20385:20498   */\n      jump(tag_462)\n    tag_464:\n        /* \"#utility.yul\":20516:20522   */\n      dup4\n        /* \"#utility.yul\":20513:20514   */\n      dup2\n        /* \"#utility.yul\":20510:20523   */\n      gt\n        /* \"#utility.yul\":20507:20509   */\n      iszero\n      tag_465\n      jumpi\n        /* \"#utility.yul\":20596:20597   */\n      0x00\n        /* \"#utility.yul\":20587:20593   */\n      dup5\n        /* \"#utility.yul\":20582:20585   */\n      dup5\n        /* \"#utility.yul\":20578:20594   */\n      add\n        /* \"#utility.yul\":20571:20598   */\n      mstore\n        /* \"#utility.yul\":20507:20509   */\n    tag_465:\n        /* \"#utility.yul\":20356:20614   */\n      pop\n      pop\n      pop\n      pop\n      jump\t// out\n        /* \"#utility.yul\":20620:20940   */\n    tag_108:\n        /* \"#utility.yul\":20664:20670   */\n      0x00\n        /* \"#utility.yul\":20701:20702   */\n      0x02\n        /* \"#utility.yul\":20695:20699   */\n      dup3\n        /* \"#utility.yul\":20691:20703   */\n      div\n        /* \"#utility.yul\":20681:20703   */\n      swap1\n      pop\n        /* \"#utility.yul\":20748:20749   */\n      0x01\n        /* \"#utility.yul\":20742:20746   */\n      dup3\n        /* \"#utility.yul\":20738:20750   */\n      and\n        /* \"#utility.yul\":20769:20787   */\n      dup1\n        /* \"#utility.yul\":20759:20761   */\n      tag_467\n      jumpi\n        /* \"#utility.yul\":20825:20829   */\n      0x7f\n        /* \"#utility.yul\":20817:20823   */\n      dup3\n        /* \"#utility.yul\":20813:20830   */\n      and\n        /* \"#utility.yul\":20803:20830   */\n      swap2\n      pop\n        /* \"#utility.yul\":20759:20761   */\n    tag_467:\n        /* \"#utility.yul\":20887:20889   */\n      0x20\n        /* \"#utility.yul\":20879:20885   */\n      dup3\n        /* \"#utility.yul\":20876:20890   */\n      lt\n        /* \"#utility.yul\":20856:20874   */\n      dup2\n        /* \"#utility.yul\":20853:20891   */\n      eq\n        /* \"#utility.yul\":20850:20852   */\n      iszero\n      tag_468\n      jumpi\n        /* \"#utility.yul\":20906:20924   */\n      tag_469\n      tag_470\n      jump\t// in\n    tag_469:\n        /* \"#utility.yul\":20850:20852   */\n    tag_468:\n        /* \"#utility.yul\":20671:20940   */\n      pop\n      swap2\n      swap1\n      pop\n      jump\t// out\n        /* \"#utility.yul\":20946:21227   */\n    tag_433:\n        /* \"#utility.yul\":21029:21056   */\n      tag_472\n        /* \"#utility.yul\":21051:21055   */\n      dup3\n        /* \"#utility.yul\":21029:21056   */\n      tag_320\n      jump\t// in\n    tag_472:\n        /* \"#utility.yul\":21021:21027   */\n      dup2\n        /* \"#utility.yul\":21017:21057   */\n      add\n        /* \"#utility.yul\":21159:21165   */\n      dup2\n        /* \"#utility.yul\":21147:21157   */\n      dup2\n        /* \"#utility.yul\":21144:21166   */\n      lt\n        /* \"#utility.yul\":21123:21141   */\n      0xffffffffffffffff\n        /* \"#utility.yul\":21111:21121   */\n      dup3\n        /* \"#utility.yul\":21108:21142   */\n      gt\n        /* \"#utility.yul\":21105:21167   */\n      or\n        /* \"#utility.yul\":21102:21104   */\n      iszero\n      tag_473\n      jumpi\n        /* \"#utility.yul\":21170:21188   */\n      tag_474\n      tag_438\n      jump\t// in\n    tag_474:\n        /* \"#utility.yul\":21102:21104   */\n    tag_473:\n        /* \"#utility.yul\":21210:21220   */\n      dup1\n        /* \"#utility.yul\":21206:21208   */\n      0x40\n        /* \"#utility.yul\":21199:21221   */\n      mstore\n        /* \"#utility.yul\":20989:21227   */\n      pop\n      pop\n      pop\n      jump\t// out\n        /* \"#utility.yul\":21233:21333   */\n    tag_286:\n        /* \"#utility.yul\":21272:21279   */\n      0x00\n        /* \"#utility.yul\":21301:21327   */\n      tag_476\n        /* \"#utility.yul\":21321:21326   */\n      dup3\n        /* \"#utility.yul\":21301:21327   */\n      tag_477\n      jump\t// in\n    tag_476:\n        /* \"#utility.yul\":21290:21327   */\n      swap1\n      pop\n        /* \"#utility.yul\":21280:21333   */\n      swap2\n      swap1\n      pop\n      jump\t// out\n        /* \"#utility.yul\":21339:21433   */\n    tag_477:\n        /* \"#utility.yul\":21378:21385   */\n      0x00\n        /* \"#utility.yul\":21407:21427   */\n      tag_479\n        /* \"#utility.yul\":21421:21426   */\n      dup3\n        /* \"#utility.yul\":21407:21427   */\n      tag_480\n      jump\t// in\n    tag_479:\n        /* \"#utility.yul\":21396:21427   */\n      swap1\n      pop\n        /* \"#utility.yul\":21386:21433   */\n      swap2\n      swap1\n      pop\n      jump\t// out\n        /* \"#utility.yul\":21439:21518   */\n    tag_380:\n        /* \"#utility.yul\":21478:21485   */\n      0x00\n        /* \"#utility.yul\":21507:21512   */\n      dup2\n        /* \"#utility.yul\":21496:21512   */\n      swap1\n      pop\n        /* \"#utility.yul\":21486:21518   */\n      swap2\n      swap1\n      pop\n      jump\t// out\n        /* \"#utility.yul\":21524:21704   */\n    tag_452:\n        /* \"#utility.yul\":21572:21649   */\n      0x4e487b7100000000000000000000000000000000000000000000000000000000\n        /* \"#utility.yul\":21569:21570   */\n      0x00\n        /* \"#utility.yul\":21562:21650   */\n      mstore\n        /* \"#utility.yul\":21669:21673   */\n      0x11\n        /* \"#utility.yul\":21666:21667   */\n      0x04\n        /* \"#utility.yul\":21659:21674   */\n      mstore\n        /* \"#utility.yul\":21693:21697   */\n      0x24\n        /* \"#utility.yul\":21690:21691   */\n      0x00\n        /* \"#utility.yul\":21683:21698   */\n      revert\n        /* \"#utility.yul\":21710:21890   */\n    tag_470:\n        /* \"#utility.yul\":21758:21835   */\n      0x4e487b7100000000000000000000000000000000000000000000000000000000\n        /* \"#utility.yul\":21755:21756   */\n      0x00\n        /* \"#utility.yul\":21748:21836   */\n      mstore\n        /* \"#utility.yul\":21855:21859   */\n      0x22\n        /* \"#utility.yul\":21852:21853   */\n      0x04\n        /* \"#utility.yul\":21845:21860   */\n      mstore\n        /* \"#utility.yul\":21879:21883   */\n      0x24\n        /* \"#utility.yul\":21876:21877   */\n      0x00\n        /* \"#utility.yul\":21869:21884   */\n      revert\n        /* \"#utility.yul\":21896:22076   */\n    tag_438:\n        /* \"#utility.yul\":21944:22021   */\n      0x4e487b7100000000000000000000000000000000000000000000000000000000\n        /* \"#utility.yul\":21941:21942   */\n      0x00\n        /* \"#utility.yul\":21934:22022   */\n      mstore\n        /* \"#utility.yul\":22041:22045   */\n      0x41\n        /* \"#utility.yul\":22038:22039   */\n      0x04\n        /* \"#utility.yul\":22031:22046   */\n      mstore\n        /* \"#utility.yul\":22065:22069   */\n      0x24\n        /* \"#utility.yul\":22062:22063   */\n      0x00\n        /* \"#utility.yul\":22055:22070   */\n      revert\n        /* \"#utility.yul\":22082:22184   */\n    tag_320:\n        /* \"#utility.yul\":22123:22129   */\n      0x00\n        /* \"#utility.yul\":22174:22176   */\n      0x1f\n        /* \"#utility.yul\":22170:22177   */\n      not\n        /* \"#utility.yul\":22165:22167   */\n      0x1f\n        /* \"#utility.yul\":22158:22163   */\n      dup4\n        /* \"#utility.yul\":22154:22168   */\n      add\n        /* \"#utility.yul\":22150:22178   */\n      and\n        /* \"#utility.yul\":22140:22178   */\n      swap1\n      pop\n        /* \"#utility.yul\":22130:22184   */\n      swap2\n      swap1\n      pop\n      jump\t// out\n        /* \"#utility.yul\":22190:22284   */\n    tag_480:\n        /* \"#utility.yul\":22223:22231   */\n      0x00\n        /* \"#utility.yul\":22271:22276   */\n      dup2\n        /* \"#utility.yul\":22267:22269   */\n      0x60\n        /* \"#utility.yul\":22263:22277   */\n      shl\n        /* \"#utility.yul\":22242:22277   */\n      swap1\n      pop\n        /* \"#utility.yul\":22232:22284   */\n      swap2\n      swap1\n      pop\n      jump\t// out\n        /* \"#utility.yul\":22290:22464   */\n    tag_331:\n        /* \"#utility.yul\":22430:22456   */\n      0x796f7527726520616c7265616479206c6f67676564496e2e0000000000000000\n        /* \"#utility.yul\":22426:22427   */\n      0x00\n        /* \"#utility.yul\":22418:22424   */\n      dup3\n        /* \"#utility.yul\":22414:22428   */\n      add\n        /* \"#utility.yul\":22407:22457   */\n      mstore\n        /* \"#utility.yul\":22396:22464   */\n      pop\n      jump\t// out\n        /* \"#utility.yul\":22470:22703   */\n    tag_336:\n        /* \"#utility.yul\":22610:22644   */\n      0x637265617465206163636f756e74206669727374206f72206c6f67496e20746f\n        /* \"#utility.yul\":22606:22607   */\n      0x00\n        /* \"#utility.yul\":22598:22604   */\n      dup3\n        /* \"#utility.yul\":22594:22608   */\n      add\n        /* \"#utility.yul\":22587:22645   */\n      mstore\n        /* \"#utility.yul\":22679:22695   */\n      0x20796f7572206163636f756e742e000000000000000000000000000000000000\n        /* \"#utility.yul\":22674:22676   */\n      0x20\n        /* \"#utility.yul\":22666:22672   */\n      dup3\n        /* \"#utility.yul\":22662:22677   */\n      add\n        /* \"#utility.yul\":22655:22696   */\n      mstore\n        /* \"#utility.yul\":22576:22703   */\n      pop\n      jump\t// out\n        /* \"#utility.yul\":22709:22882   */\n    tag_341:\n        /* \"#utility.yul\":22849:22874   */\n      0x4c6f6720696e20746f20796f7572206163636f756e742e000000000000000000\n        /* \"#utility.yul\":22845:22846   */\n      0x00\n        /* \"#utility.yul\":22837:22843   */\n      dup3\n        /* \"#utility.yul\":22833:22847   */\n      add\n        /* \"#utility.yul\":22826:22875   */\n      mstore\n        /* \"#utility.yul\":22815:22882   */\n      pop\n      jump\t// out\n        /* \"#utility.yul\":22888:23114   */\n    tag_346:\n        /* \"#utility.yul\":23028:23062   */\n      0x75736572206e6f7420657869737465642c20637265617465206163636f756e74\n        /* \"#utility.yul\":23024:23025   */\n      0x00\n        /* \"#utility.yul\":23016:23022   */\n      dup3\n        /* \"#utility.yul\":23012:23026   */\n      add\n        /* \"#utility.yul\":23005:23063   */\n      mstore\n        /* \"#utility.yul\":23097:23106   */\n      0x2066697273742e00000000000000000000000000000000000000000000000000\n        /* \"#utility.yul\":23092:23094   */\n      0x20\n        /* \"#utility.yul\":23084:23090   */\n      dup3\n        /* \"#utility.yul\":23080:23095   */\n      add\n        /* \"#utility.yul\":23073:23107   */\n      mstore\n        /* \"#utility.yul\":22994:23114   */\n      pop\n      jump\t// out\n        /* \"#utility.yul\":23120:23287   */\n    tag_351:\n        /* \"#utility.yul\":23260:23279   */\n      0x75736572206e6f7420657869737465642e000000000000000000000000000000\n        /* \"#utility.yul\":23256:23257   */\n      0x00\n        /* \"#utility.yul\":23248:23254   */\n      dup3\n        /* \"#utility.yul\":23244:23258   */\n      add\n        /* \"#utility.yul\":23237:23280   */\n      mstore\n        /* \"#utility.yul\":23226:23287   */\n      pop\n      jump\t// out\n        /* \"#utility.yul\":23293:23463   */\n    tag_356:\n        /* \"#utility.yul\":23433:23455   */\n      0x796f75277265206e6f74206c6f67676564496e2e000000000000000000000000\n        /* \"#utility.yul\":23429:23430   */\n      0x00\n        /* \"#utility.yul\":23421:23427   */\n      dup3\n        /* \"#utility.yul\":23417:23431   */\n      add\n        /* \"#utility.yul\":23410:23456   */\n      mstore\n        /* \"#utility.yul\":23399:23463   */\n      pop\n      jump\t// out\n        /* \"#utility.yul\":23469:23698   */\n    tag_361:\n        /* \"#utility.yul\":23609:23643   */\n      0x4c6f67696e20746f20796f7572206163636f756e742c20746f20736574207072\n        /* \"#utility.yul\":23605:23606   */\n      0x00\n        /* \"#utility.yul\":23597:23603   */\n      dup3\n        /* \"#utility.yul\":23593:23607   */\n      add\n        /* \"#utility.yul\":23586:23644   */\n      mstore\n        /* \"#utility.yul\":23678:23690   */\n      0x6f66696c65207069632e00000000000000000000000000000000000000000000\n        /* \"#utility.yul\":23673:23675   */\n      0x20\n        /* \"#utility.yul\":23665:23671   */\n      dup3\n        /* \"#utility.yul\":23661:23676   */\n      add\n        /* \"#utility.yul\":23654:23691   */\n      mstore\n        /* \"#utility.yul\":23575:23698   */\n      pop\n      jump\t// out\n        /* \"#utility.yul\":23704:23872   */\n    tag_366:\n        /* \"#utility.yul\":23844:23864   */\n      0x75736572206e616d6520657869737465642e0000000000000000000000000000\n        /* \"#utility.yul\":23840:23841   */\n      0x00\n        /* \"#utility.yul\":23832:23838   */\n      dup3\n        /* \"#utility.yul\":23828:23842   */\n      add\n        /* \"#utility.yul\":23821:23865   */\n      mstore\n        /* \"#utility.yul\":23810:23872   */\n      pop\n      jump\t// out\n        /* \"#utility.yul\":23878:24041   */\n    tag_371:\n        /* \"#utility.yul\":24018:24033   */\n      0x7573657220657869737465642e00000000000000000000000000000000000000\n        /* \"#utility.yul\":24014:24015   */\n      0x00\n        /* \"#utility.yul\":24006:24012   */\n      dup3\n        /* \"#utility.yul\":24002:24016   */\n      add\n        /* \"#utility.yul\":23995:24034   */\n      mstore\n        /* \"#utility.yul\":23984:24041   */\n      pop\n      jump\t// out\n        /* \"#utility.yul\":24047:24169   */\n    tag_233:\n        /* \"#utility.yul\":24120:24144   */\n      tag_497\n        /* \"#utility.yul\":24138:24143   */\n      dup2\n        /* \"#utility.yul\":24120:24144   */\n      tag_281\n      jump\t// in\n    tag_497:\n        /* \"#utility.yul\":24113:24118   */\n      dup2\n        /* \"#utility.yul\":24110:24145   */\n      eq\n        /* \"#utility.yul\":24100:24102   */\n      tag_498\n      jumpi\n        /* \"#utility.yul\":24159:24160   */\n      0x00\n        /* \"#utility.yul\":24156:24157   */\n      dup1\n        /* \"#utility.yul\":24149:24161   */\n      revert\n        /* \"#utility.yul\":24100:24102   */\n    tag_498:\n        /* \"#utility.yul\":24090:24169   */\n      pop\n      jump\t// out\n        /* \"#utility.yul\":24175:24297   */\n    tag_237:\n        /* \"#utility.yul\":24248:24272   */\n      tag_500\n        /* \"#utility.yul\":24266:24271   */\n      dup2\n        /* \"#utility.yul\":24248:24272   */\n      tag_307\n      jump\t// in\n    tag_500:\n        /* \"#utility.yul\":24241:24246   */\n      dup2\n        /* \"#utility.yul\":24238:24273   */\n      eq\n        /* \"#utility.yul\":24228:24230   */\n      tag_501\n      jumpi\n        /* \"#utility.yul\":24287:24288   */\n      0x00\n        /* \"#utility.yul\":24284:24285   */\n      dup1\n        /* \"#utility.yul\":24277:24289   */\n      revert\n        /* \"#utility.yul\":24228:24230   */\n    tag_501:\n        /* \"#utility.yul\":24218:24297   */\n      pop\n      jump\t// out\n        /* \"#utility.yul\":24303:24425   */\n    tag_245:\n        /* \"#utility.yul\":24376:24400   */\n      tag_503\n        /* \"#utility.yul\":24394:24399   */\n      dup2\n        /* \"#utility.yul\":24376:24400   */\n      tag_375\n      jump\t// in\n    tag_503:\n        /* \"#utility.yul\":24369:24374   */\n      dup2\n        /* \"#utility.yul\":24366:24401   */\n      eq\n        /* \"#utility.yul\":24356:24358   */\n      tag_504\n      jumpi\n        /* \"#utility.yul\":24415:24416   */\n      0x00\n        /* \"#utility.yul\":24412:24413   */\n      dup1\n        /* \"#utility.yul\":24405:24417   */\n      revert\n        /* \"#utility.yul\":24356:24358   */\n    tag_504:\n        /* \"#utility.yul\":24346:24425   */\n      pop\n      jump\t// out\n\n    auxdata: 0xa26469706673582212206ea4101313f477539a1adc27f6cdee5b002ef10f8d8896af4935a7b95d83661064736f6c63430008040033\n}\n",
				"bytecode": {
					"linkReferences": {},
					"object": "60806040523480156200001157600080fd5b506040516200294c3803806200294c833981810160405281019062000037919062000095565b806000806101000a81548173ffffffffffffffffffffffffffffffffffffffff021916908373ffffffffffffffffffffffffffffffffffffffff160217905550506200010f565b6000815190506200008f81620000f5565b92915050565b600060208284031215620000a857600080fd5b6000620000b8848285016200007e565b91505092915050565b6000620000ce82620000d5565b9050919050565b600073ffffffffffffffffffffffffffffffffffffffff82169050919050565b6200010081620000c1565b81146200010c57600080fd5b50565b61282d806200011f6000396000f3fe608060405234801561001057600080fd5b50600436106101165760003560e01c80636c608709116100a25780639efa528e116100715780639efa528e146102fd578063adcfb4fc14610319578063c156254714610335578063eb97200814610353578063f6f2ede01461037157610116565b80636c6087091461024b5780637111e7501461027b578063894fd813146102ae5780638a1b9736146102ca57610116565b806323e583b4116100e957806323e583b4146101a4578063377b47a3146101d457806346064ab9146101de5780634be422ae146102115780635cb0122a1461021b57610116565b8063011f2cce1461011b578063026ff05e1461013757806307edbdc5146101555780630b4f12f614610188575b600080fd5b61013560048036038101906101309190611d4a565b6103a1565b005b61013f61048a565b60405161014c91906120eb565b60405180910390f35b61016f600480360381019061016a9190611d21565b6106c5565b60405161017f949392919061207d565b60405180910390f35b6101a2600480360381019061019d9190611d4a565b6107bd565b005b6101be60048036038101906101b99190611c6e565b610ac1565b6040516101cb9190612106565b60405180910390f35b6101dc610af2565b005b6101f860048036038101906101f39190611d21565b610cbc565b604051610208949392919061207d565b60405180910390f35b610219610dff565b005b61023560048036038101906102309190611bca565b610f39565b60405161024291906120c9565b60405180910390f35b61026560048036038101906102609190611d4a565b610fd0565b6040516102729190612062565b60405180910390f35b61029560048036038101906102909190611bca565b611019565b6040516102a594939291906122ae565b60405180910390f35b6102c860048036038101906102c39190611caa565b611049565b005b6102e460048036038101906102df9190611bca565b6111b4565b6040516102f494939291906122ae565b60405180910390f35b61031760048036038101906103129190611bf3565b6112d5565b005b610333600480360381019061032e9190611d4a565b611440565b005b61033d611781565b60405161034a9190612121565b60405180910390f35b61035b6118e2565b6040516103689190612121565b60405180910390f35b61038b60048036038101906103869190611bca565b6119b4565b60405161039891906120eb565b60405180910390f35b600360003373ffffffffffffffffffffffffffffffffffffffff1673ffffffffffffffffffffffffffffffffffffffff16815260200190815260200160002060030160009054906101000a900460ff16610430576040517f08c379a000000000000000000000000000000000000000000000000000000000815260040161042790612233565b60405180910390fd5b80600360003373ffffffffffffffffffffffffffffffffffffffff1673ffffffffffffffffffffffffffffffffffffffff1681526020019081526020016000206004019080519060200190610486929190611a40565b5050565b6000600360003373ffffffffffffffffffffffffffffffffffffffff1673ffffffffffffffffffffffffffffffffffffffff16815260200190815260200160002060010160009054906101000a900460ff1661051b576040517f08c379a0000000000000000000000000000000000000000000000000000000008152600401610512906121f3565b60405180910390fd5b6000600360003373ffffffffffffffffffffffffffffffffffffffff1673ffffffffffffffffffffffffffffffffffffffff168152602001908152602001600020600001805461056a90612493565b80601f016020809104026020016040519081016040528092919081815260200182805461059690612493565b80156105e35780601f106105b8576101008083540402835291602001916105e3565b820191906000526020600020905b8154815290600101906020018083116105c657829003601f168201915b505050505090506004816040516105fa919061204b565b908152602001604051809103902060006101000a81549073ffffffffffffffffffffffffffffffffffffffff0219169055600360003373ffffffffffffffffffffffffffffffffffffffff1673ffffffffffffffffffffffffffffffffffffffff1681526020019081526020016000206000808201600061067b9190611ac6565b6001820160006101000a81549060ff021916905560028201600090556003820160006101000a81549060ff02191690556004820160006106bb9190611ac6565b5050600191505090565b60016020528060005260406000206000915090508060000160009054906101000a900473ffffffffffffffffffffffffffffffffffffffff16908060010154908060020160009054906101000a900473ffffffffffffffffffffffffffffffffffffffff169080600301805461073a90612493565b80601f016020809104026020016040519081016040528092919081815260200182805461076690612493565b80156107b35780601f10610788576101008083540402835291602001916107b3565b820191906000526020600020905b81548152906001019060200180831161079657829003601f168201915b5050505050905084565b600360003373ffffffffffffffffffffffffffffffffffffffff1673ffffffffffffffffffffffffffffffffffffffff16815260200190815260200160002060030160009054906101000a900460ff1661084c576040517f08c379a0000000000000000000000000000000000000000000000000000000008152600401610843906121b3565b60405180910390fd5b600073ffffffffffffffffffffffffffffffffffffffff16600482604051610874919061204b565b908152602001604051809103902060009054906101000a900473ffffffffffffffffffffffffffffffffffffffff1673ffffffffffffffffffffffffffffffffffffffff16146108f9576040517f08c379a00000000000000000000000000000000000000000000000000000000081526004016108f090612253565b60405180910390fd5b6000600360003373ffffffffffffffffffffffffffffffffffffffff1673ffffffffffffffffffffffffffffffffffffffff168152602001908152602001600020600001805461094890612493565b80601f016020809104026020016040519081016040528092919081815260200182805461097490612493565b80156109c15780601f10610996576101008083540402835291602001916109c1565b820191906000526020600020905b8154815290600101906020018083116109a457829003601f168201915b505050505090506004816040516109d8919061204b565b908152602001604051809103902060006101000a81549073ffffffffffffffffffffffffffffffffffffffff021916905533600483604051610a1a919061204b565b908152602001604051809103902060006101000a81548173ffffffffffffffffffffffffffffffffffffffff021916908373ffffffffffffffffffffffffffffffffffffffff16021790555081600360003373ffffffffffffffffffffffffffffffffffffffff1673ffffffffffffffffffffffffffffffffffffffff1681526020019081526020016000206000019080519060200190610abc929190611a40565b505050565b60026020528160005260406000208181548110610add57600080fd5b90600052602060002001600091509150505481565b600360003373ffffffffffffffffffffffffffffffffffffffff1673ffffffffffffffffffffffffffffffffffffffff16815260200190815260200160002060010160009054906101000a900460ff16610b81576040517f08c379a0000000000000000000000000000000000000000000000000000000008152600401610b78906121d3565b60405180910390fd5b600360003373ffffffffffffffffffffffffffffffffffffffff1673ffffffffffffffffffffffffffffffffffffffff16815260200190815260200160002060030160009054906101000a900460ff1615610c11576040517f08c379a0000000000000000000000000000000000000000000000000000000008152600401610c0890612173565b60405180910390fd5b6001600360003373ffffffffffffffffffffffffffffffffffffffff1673ffffffffffffffffffffffffffffffffffffffff16815260200190815260200160002060030160006101000a81548160ff0219169083151502179055503373ffffffffffffffffffffffffffffffffffffffff167f364034de78a61b6190b049e2c5437370b27906bfed607993a5bc2dda23c16cff42604051610cb29190612293565b60405180910390a2565b6000806000606060008590506001600082815260200190815260200160002060000160009054906101000a900473ffffffffffffffffffffffffffffffffffffffff1660016000838152602001908152602001600020600101546001600084815260200190815260200160002060020160009054906101000a900473ffffffffffffffffffffffffffffffffffffffff1660016000858152602001908152602001600020600301808054610d6f90612493565b80601f0160208091040260200160405190810160405280929190818152602001828054610d9b90612493565b8015610de85780601f10610dbd57610100808354040283529160200191610de8565b820191906000526020600020905b815481529060010190602001808311610dcb57829003601f168201915b505050505090509450945094509450509193509193565b600360003373ffffffffffffffffffffffffffffffffffffffff1673ffffffffffffffffffffffffffffffffffffffff16815260200190815260200160002060030160009054906101000a900460ff16610e8e576040517f08c379a0000000000000000000000000000000000000000000000000000000008152600401610e8590612213565b60405180910390fd5b6000600360003373ffffffffffffffffffffffffffffffffffffffff1673ffffffffffffffffffffffffffffffffffffffff16815260200190815260200160002060030160006101000a81548160ff0219169083151502179055503373ffffffffffffffffffffffffffffffffffffffff167f70d1177aa26c67f6b2fdb43400cfd7ff0c23a8712301abe5aba2ee3d89e28a1042604051610f2f9190612293565b60405180910390a2565b6060600260008373ffffffffffffffffffffffffffffffffffffffff1673ffffffffffffffffffffffffffffffffffffffff168152602001908152602001600020805480602002602001604051908101604052809291908181526020018280548015610fc457602002820191906000526020600020905b815481526020019060010190808311610fb0575b50505050509050919050565b6004818051602081018201805184825260208301602085012081835280955050505050506000915054906101000a900473ffffffffffffffffffffffffffffffffffffffff1681565b60056020528060005260406000206000915090508060000154908060010154908060020154908060030154905084565b83600560008773ffffffffffffffffffffffffffffffffffffffff1673ffffffffffffffffffffffffffffffffffffffff168152602001908152602001600020600001600082825461109b91906123a9565b9250508190555082600560008773ffffffffffffffffffffffffffffffffffffffff1673ffffffffffffffffffffffffffffffffffffffff16815260200190815260200160002060010160008282546110f491906123a9565b9250508190555081600560008773ffffffffffffffffffffffffffffffffffffffff1673ffffffffffffffffffffffffffffffffffffffff168152602001908152602001600020600201600082825461114d91906123a9565b9250508190555080600560008773ffffffffffffffffffffffffffffffffffffffff1673ffffffffffffffffffffffffffffffffffffffff16815260200190815260200160002060030160008282546111a691906123a9565b925050819055505050505050565b600080600080600560008673ffffffffffffffffffffffffffffffffffffffff1673ffffffffffffffffffffffffffffffffffffffff16815260200190815260200160002060020154600560008773ffffffffffffffffffffffffffffffffffffffff1673ffffffffffffffffffffffffffffffffffffffff16815260200190815260200160002060030154600560008873ffffffffffffffffffffffffffffffffffffffff1673ffffffffffffffffffffffffffffffffffffffff16815260200190815260200160002060000154600560008973ffffffffffffffffffffffffffffffffffffffff1673ffffffffffffffffffffffffffffffffffffffff1681526020019081526020016000206001015493509350935093509193509193565b60006112e18484611a0d565b9050836001600083815260200190815260200160002060000160006101000a81548173ffffffffffffffffffffffffffffffffffffffff021916908373ffffffffffffffffffffffffffffffffffffffff160217905550826001600083815260200190815260200160002060010181905550846001600083815260200190815260200160002060020160006101000a81548173ffffffffffffffffffffffffffffffffffffffff021916908373ffffffffffffffffffffffffffffffffffffffff160217905550816001600083815260200190815260200160002060030190805190602001906113d2929190611a40565b50600260008673ffffffffffffffffffffffffffffffffffffffff1673ffffffffffffffffffffffffffffffffffffffff1681526020019081526020016000208190806001815401808255809150506001900390600052602060002001600090919091909150555050505050565b600360003373ffffffffffffffffffffffffffffffffffffffff1673ffffffffffffffffffffffffffffffffffffffff16815260200190815260200160002060010160009054906101000a900460ff16156114d0576040517f08c379a00000000000000000000000000000000000000000000000000000000081526004016114c790612273565b60405180910390fd5b600073ffffffffffffffffffffffffffffffffffffffff166004826040516114f8919061204b565b908152602001604051809103902060009054906101000a900473ffffffffffffffffffffffffffffffffffffffff1673ffffffffffffffffffffffffffffffffffffffff161461157d576040517f08c379a000000000000000000000000000000000000000000000000000000000815260040161157490612253565b60405180910390fd5b80600360003373ffffffffffffffffffffffffffffffffffffffff1673ffffffffffffffffffffffffffffffffffffffff16815260200190815260200160002060000190805190602001906115d3929190611a40565b506001600360003373ffffffffffffffffffffffffffffffffffffffff1673ffffffffffffffffffffffffffffffffffffffff16815260200190815260200160002060010160006101000a81548160ff02191690831515021790555042600360003373ffffffffffffffffffffffffffffffffffffffff1673ffffffffffffffffffffffffffffffffffffffff168152602001908152602001600020600201819055506001600360003373ffffffffffffffffffffffffffffffffffffffff1673ffffffffffffffffffffffffffffffffffffffff16815260200190815260200160002060030160006101000a81548160ff021916908315150217905550336004826040516116e2919061204b565b908152602001604051809103902060006101000a81548173ffffffffffffffffffffffffffffffffffffffff021916908373ffffffffffffffffffffffffffffffffffffffff1602179055503373ffffffffffffffffffffffffffffffffffffffff167fee20c2c019dcbca8d08ff74c4ce6f465e02d3611905c9aceeb76a0c8e429af2f8242604051611776929190612143565b60405180910390a250565b6060600360003373ffffffffffffffffffffffffffffffffffffffff1673ffffffffffffffffffffffffffffffffffffffff16815260200190815260200160002060030160009054906101000a900460ff16611812576040517f08c379a000000000000000000000000000000000000000000000000000000000815260040161180990612193565b60405180910390fd5b600360003373ffffffffffffffffffffffffffffffffffffffff1673ffffffffffffffffffffffffffffffffffffffff168152602001908152602001600020600001805461185f90612493565b80601f016020809104026020016040519081016040528092919081815260200182805461188b90612493565b80156118d85780601f106118ad576101008083540402835291602001916118d8565b820191906000526020600020905b8154815290600101906020018083116118bb57829003601f168201915b5050505050905090565b6060600360003373ffffffffffffffffffffffffffffffffffffffff1673ffffffffffffffffffffffffffffffffffffffff168152602001908152602001600020600401805461193190612493565b80601f016020809104026020016040519081016040528092919081815260200182805461195d90612493565b80156119aa5780601f1061197f576101008083540402835291602001916119aa565b820191906000526020600020905b81548152906001019060200180831161198d57829003601f168201915b5050505050905090565b6000600360008373ffffffffffffffffffffffffffffffffffffffff1673ffffffffffffffffffffffffffffffffffffffff16815260200190815260200160002060030160009054906101000a900460ff169050919050565b60008282604051602001611a2292919061201f565b60405160208183030381529060405280519060200120905092915050565b828054611a4c90612493565b90600052602060002090601f016020900481019282611a6e5760008555611ab5565b82601f10611a8757805160ff1916838001178555611ab5565b82800160010185558215611ab5579182015b82811115611ab4578251825591602001919060010190611a99565b5b509050611ac29190611b06565b5090565b508054611ad290612493565b6000825580601f10611ae45750611b03565b601f016020900490600052602060002090810190611b029190611b06565b5b50565b5b80821115611b1f576000816000905550600101611b07565b5090565b6000611b36611b3184612318565b6122f3565b905082815260208101848484011115611b4e57600080fd5b611b59848285612451565b509392505050565b600081359050611b70816127b2565b92915050565b600081359050611b85816127c9565b92915050565b600082601f830112611b9c57600080fd5b8135611bac848260208601611b23565b91505092915050565b600081359050611bc4816127e0565b92915050565b600060208284031215611bdc57600080fd5b6000611bea84828501611b61565b91505092915050565b60008060008060808587031215611c0957600080fd5b6000611c1787828801611b61565b9450506020611c2887828801611b61565b9350506040611c3987828801611bb5565b925050606085013567ffffffffffffffff811115611c5657600080fd5b611c6287828801611b8b565b91505092959194509250565b60008060408385031215611c8157600080fd5b6000611c8f85828601611b61565b9250506020611ca085828601611bb5565b9150509250929050565b600080600080600060a08688031215611cc257600080fd5b6000611cd088828901611b61565b9550506020611ce188828901611bb5565b9450506040611cf288828901611bb5565b9350506060611d0388828901611bb5565b9250506080611d1488828901611bb5565b9150509295509295909350565b600060208284031215611d3357600080fd5b6000611d4184828501611b76565b91505092915050565b600060208284031215611d5c57600080fd5b600082013567ffffffffffffffff811115611d7657600080fd5b611d8284828501611b8b565b91505092915050565b6000611d978383611e36565b60208301905092915050565b611dac816123ff565b82525050565b611dc3611dbe826123ff565b6124f6565b82525050565b6000611dd482612359565b611dde818561237c565b9350611de983612349565b8060005b83811015611e1a578151611e018882611d8b565b9750611e0c8361236f565b925050600181019050611ded565b5085935050505092915050565b611e3081612411565b82525050565b611e3f8161241d565b82525050565b611e4e8161241d565b82525050565b6000611e5f82612364565b611e69818561238d565b9350611e79818560208601612460565b611e82816125b1565b840191505092915050565b6000611e9882612364565b611ea2818561239e565b9350611eb2818560208601612460565b80840191505092915050565b6000611ecb60188361238d565b9150611ed6826125cf565b602082019050919050565b6000611eee602e8361238d565b9150611ef9826125f8565b604082019050919050565b6000611f1160178361238d565b9150611f1c82612647565b602082019050919050565b6000611f3460278361238d565b9150611f3f82612670565b604082019050919050565b6000611f5760118361238d565b9150611f62826126bf565b602082019050919050565b6000611f7a60148361238d565b9150611f85826126e8565b602082019050919050565b6000611f9d602a8361238d565b9150611fa882612711565b604082019050919050565b6000611fc060128361238d565b9150611fcb82612760565b602082019050919050565b6000611fe3600d8361238d565b9150611fee82612789565b602082019050919050565b61200281612447565b82525050565b61201961201482612447565b61251a565b82525050565b600061202b8285611db2565b60148201915061203b8284612008565b6020820191508190509392505050565b60006120578284611e8d565b915081905092915050565b60006020820190506120776000830184611da3565b92915050565b60006080820190506120926000830187611da3565b61209f6020830186611ff9565b6120ac6040830185611da3565b81810360608301526120be8184611e54565b905095945050505050565b600060208201905081810360008301526120e38184611dc9565b905092915050565b60006020820190506121006000830184611e27565b92915050565b600060208201905061211b6000830184611e45565b92915050565b6000602082019050818103600083015261213b8184611e54565b905092915050565b6000604082019050818103600083015261215d8185611e54565b905061216c6020830184611ff9565b9392505050565b6000602082019050818103600083015261218c81611ebe565b9050919050565b600060208201905081810360008301526121ac81611ee1565b9050919050565b600060208201905081810360008301526121cc81611f04565b9050919050565b600060208201905081810360008301526121ec81611f27565b9050919050565b6000602082019050818103600083015261220c81611f4a565b9050919050565b6000602082019050818103600083015261222c81611f6d565b9050919050565b6000602082019050818103600083015261224c81611f90565b9050919050565b6000602082019050818103600083015261226c81611fb3565b9050919050565b6000602082019050818103600083015261228c81611fd6565b9050919050565b60006020820190506122a86000830184611ff9565b92915050565b60006080820190506122c36000830187611ff9565b6122d06020830186611ff9565b6122dd6040830185611ff9565b6122ea6060830184611ff9565b95945050505050565b60006122fd61230e565b905061230982826124c5565b919050565b6000604051905090565b600067ffffffffffffffff82111561233357612332612582565b5b61233c826125b1565b9050602081019050919050565b6000819050602082019050919050565b600081519050919050565b600081519050919050565b6000602082019050919050565b600082825260208201905092915050565b600082825260208201905092915050565b600081905092915050565b60006123b482612447565b91506123bf83612447565b9250827fffffffffffffffffffffffffffffffffffffffffffffffffffffffffffffffff038211156123f4576123f3612524565b5b828201905092915050565b600061240a82612427565b9050919050565b60008115159050919050565b6000819050919050565b600073ffffffffffffffffffffffffffffffffffffffff82169050919050565b6000819050919050565b82818337600083830152505050565b60005b8381101561247e578082015181840152602081019050612463565b8381111561248d576000848401525b50505050565b600060028204905060018216806124ab57607f821691505b602082108114156124bf576124be612553565b5b50919050565b6124ce826125b1565b810181811067ffffffffffffffff821117156124ed576124ec612582565b5b80604052505050565b600061250182612508565b9050919050565b6000612513826125c2565b9050919050565b6000819050919050565b7f4e487b7100000000000000000000000000000000000000000000000000000000600052601160045260246000fd5b7f4e487b7100000000000000000000000000000000000000000000000000000000600052602260045260246000fd5b7f4e487b7100000000000000000000000000000000000000000000000000000000600052604160045260246000fd5b6000601f19601f8301169050919050565b60008160601b9050919050565b7f796f7527726520616c7265616479206c6f67676564496e2e0000000000000000600082015250565b7f637265617465206163636f756e74206669727374206f72206c6f67496e20746f60008201527f20796f7572206163636f756e742e000000000000000000000000000000000000602082015250565b7f4c6f6720696e20746f20796f7572206163636f756e742e000000000000000000600082015250565b7f75736572206e6f7420657869737465642c20637265617465206163636f756e7460008201527f2066697273742e00000000000000000000000000000000000000000000000000602082015250565b7f75736572206e6f7420657869737465642e000000000000000000000000000000600082015250565b7f796f75277265206e6f74206c6f67676564496e2e000000000000000000000000600082015250565b7f4c6f67696e20746f20796f7572206163636f756e742c20746f2073657420707260008201527f6f66696c65207069632e00000000000000000000000000000000000000000000602082015250565b7f75736572206e616d6520657869737465642e0000000000000000000000000000600082015250565b7f7573657220657869737465642e00000000000000000000000000000000000000600082015250565b6127bb816123ff565b81146127c657600080fd5b50565b6127d28161241d565b81146127dd57600080fd5b50565b6127e981612447565b81146127f457600080fd5b5056fea26469706673582212206ea4101313f477539a1adc27f6cdee5b002ef10f8d8896af4935a7b95d83661064736f6c63430008040033",
					"opcodes": "PUSH1 0x80 PUSH1 0x40 MSTORE CALLVALUE DUP1 ISZERO PUSH3 0x11 JUMPI PUSH1 0x0 DUP1 REVERT JUMPDEST POP PUSH1 0x40 MLOAD PUSH3 0x294C CODESIZE SUB DUP1 PUSH3 0x294C DUP4 CODECOPY DUP2 DUP2 ADD PUSH1 0x40 MSTORE DUP2 ADD SWAP1 PUSH3 0x37 SWAP2 SWAP1 PUSH3 0x95 JUMP JUMPDEST DUP1 PUSH1 0x0 DUP1 PUSH2 0x100 EXP DUP2 SLOAD DUP2 PUSH20 0xFFFFFFFFFFFFFFFFFFFFFFFFFFFFFFFFFFFFFFFF MUL NOT AND SWAP1 DUP4 PUSH20 0xFFFFFFFFFFFFFFFFFFFFFFFFFFFFFFFFFFFFFFFF AND MUL OR SWAP1 SSTORE POP POP PUSH3 0x10F JUMP JUMPDEST PUSH1 0x0 DUP2 MLOAD SWAP1 POP PUSH3 0x8F DUP2 PUSH3 0xF5 JUMP JUMPDEST SWAP3 SWAP2 POP POP JUMP JUMPDEST PUSH1 0x0 PUSH1 0x20 DUP3 DUP5 SUB SLT ISZERO PUSH3 0xA8 JUMPI PUSH1 0x0 DUP1 REVERT JUMPDEST PUSH1 0x0 PUSH3 0xB8 DUP5 DUP3 DUP6 ADD PUSH3 0x7E JUMP JUMPDEST SWAP2 POP POP SWAP3 SWAP2 POP POP JUMP JUMPDEST PUSH1 0x0 PUSH3 0xCE DUP3 PUSH3 0xD5 JUMP JUMPDEST SWAP1 POP SWAP2 SWAP1 POP JUMP JUMPDEST PUSH1 0x0 PUSH20 0xFFFFFFFFFFFFFFFFFFFFFFFFFFFFFFFFFFFFFFFF DUP3 AND SWAP1 POP SWAP2 SWAP1 POP JUMP JUMPDEST PUSH3 0x100 DUP2 PUSH3 0xC1 JUMP JUMPDEST DUP2 EQ PUSH3 0x10C JUMPI PUSH1 0x0 DUP1 REVERT JUMPDEST POP JUMP JUMPDEST PUSH2 0x282D DUP1 PUSH3 0x11F PUSH1 0x0 CODECOPY PUSH1 0x0 RETURN INVALID PUSH1 0x80 PUSH1 0x40 MSTORE CALLVALUE DUP1 ISZERO PUSH2 0x10 JUMPI PUSH1 0x0 DUP1 REVERT JUMPDEST POP PUSH1 0x4 CALLDATASIZE LT PUSH2 0x116 JUMPI PUSH1 0x0 CALLDATALOAD PUSH1 0xE0 SHR DUP1 PUSH4 0x6C608709 GT PUSH2 0xA2 JUMPI DUP1 PUSH4 0x9EFA528E GT PUSH2 0x71 JUMPI DUP1 PUSH4 0x9EFA528E EQ PUSH2 0x2FD JUMPI DUP1 PUSH4 0xADCFB4FC EQ PUSH2 0x319 JUMPI DUP1 PUSH4 0xC1562547 EQ PUSH2 0x335 JUMPI DUP1 PUSH4 0xEB972008 EQ PUSH2 0x353 JUMPI DUP1 PUSH4 0xF6F2EDE0 EQ PUSH2 0x371 JUMPI PUSH2 0x116 JUMP JUMPDEST DUP1 PUSH4 0x6C608709 EQ PUSH2 0x24B JUMPI DUP1 PUSH4 0x7111E750 EQ PUSH2 0x27B JUMPI DUP1 PUSH4 0x894FD813 EQ PUSH2 0x2AE JUMPI DUP1 PUSH4 0x8A1B9736 EQ PUSH2 0x2CA JUMPI PUSH2 0x116 JUMP JUMPDEST DUP1 PUSH4 0x23E583B4 GT PUSH2 0xE9 JUMPI DUP1 PUSH4 0x23E583B4 EQ PUSH2 0x1A4 JUMPI DUP1 PUSH4 0x377B47A3 EQ PUSH2 0x1D4 JUMPI DUP1 PUSH4 0x46064AB9 EQ PUSH2 0x1DE JUMPI DUP1 PUSH4 0x4BE422AE EQ PUSH2 0x211 JUMPI DUP1 PUSH4 0x5CB0122A EQ PUSH2 0x21B JUMPI PUSH2 0x116 JUMP JUMPDEST DUP1 PUSH4 0x11F2CCE EQ PUSH2 0x11B JUMPI DUP1 PUSH4 0x26FF05E EQ PUSH2 0x137 JUMPI DUP1 PUSH4 0x7EDBDC5 EQ PUSH2 0x155 JUMPI DUP1 PUSH4 0xB4F12F6 EQ PUSH2 0x188 JUMPI JUMPDEST PUSH1 0x0 DUP1 REVERT JUMPDEST PUSH2 0x135 PUSH1 0x4 DUP1 CALLDATASIZE SUB DUP2 ADD SWAP1 PUSH2 0x130 SWAP2 SWAP1 PUSH2 0x1D4A JUMP JUMPDEST PUSH2 0x3A1 JUMP JUMPDEST STOP JUMPDEST PUSH2 0x13F PUSH2 0x48A JUMP JUMPDEST PUSH1 0x40 MLOAD PUSH2 0x14C SWAP2 SWAP1 PUSH2 0x20EB JUMP JUMPDEST PUSH1 0x40 MLOAD DUP1 SWAP2 SUB SWAP1 RETURN JUMPDEST PUSH2 0x16F PUSH1 0x4 DUP1 CALLDATASIZE SUB DUP2 ADD SWAP1 PUSH2 0x16A SWAP2 SWAP1 PUSH2 0x1D21 JUMP JUMPDEST PUSH2 0x6C5 JUMP JUMPDEST PUSH1 0x40 MLOAD PUSH2 0x17F SWAP5 SWAP4 SWAP3 SWAP2 SWAP1 PUSH2 0x207D JUMP JUMPDEST PUSH1 0x40 MLOAD DUP1 SWAP2 SUB SWAP1 RETURN JUMPDEST PUSH2 0x1A2 PUSH1 0x4 DUP1 CALLDATASIZE SUB DUP2 ADD SWAP1 PUSH2 0x19D SWAP2 SWAP1 PUSH2 0x1D4A JUMP JUMPDEST PUSH2 0x7BD JUMP JUMPDEST STOP JUMPDEST PUSH2 0x1BE PUSH1 0x4 DUP1 CALLDATASIZE SUB DUP2 ADD SWAP1 PUSH2 0x1B9 SWAP2 SWAP1 PUSH2 0x1C6E JUMP JUMPDEST PUSH2 0xAC1 JUMP JUMPDEST PUSH1 0x40 MLOAD PUSH2 0x1CB SWAP2 SWAP1 PUSH2 0x2106 JUMP JUMPDEST PUSH1 0x40 MLOAD DUP1 SWAP2 SUB SWAP1 RETURN JUMPDEST PUSH2 0x1DC PUSH2 0xAF2 JUMP JUMPDEST STOP JUMPDEST PUSH2 0x1F8 PUSH1 0x4 DUP1 CALLDATASIZE SUB DUP2 ADD SWAP1 PUSH2 0x1F3 SWAP2 SWAP1 PUSH2 0x1D21 JUMP JUMPDEST PUSH2 0xCBC JUMP JUMPDEST PUSH1 0x40 MLOAD PUSH2 0x208 SWAP5 SWAP4 SWAP3 SWAP2 SWAP1 PUSH2 0x207D JUMP JUMPDEST PUSH1 0x40 MLOAD DUP1 SWAP2 SUB SWAP1 RETURN JUMPDEST PUSH2 0x219 PUSH2 0xDFF JUMP JUMPDEST STOP JUMPDEST PUSH2 0x235 PUSH1 0x4 DUP1 CALLDATASIZE SUB DUP2 ADD SWAP1 PUSH2 0x230 SWAP2 SWAP1 PUSH2 0x1BCA JUMP JUMPDEST PUSH2 0xF39 JUMP JUMPDEST PUSH1 0x40 MLOAD PUSH2 0x242 SWAP2 SWAP1 PUSH2 0x20C9 JUMP JUMPDEST PUSH1 0x40 MLOAD DUP1 SWAP2 SUB SWAP1 RETURN JUMPDEST PUSH2 0x265 PUSH1 0x4 DUP1 CALLDATASIZE SUB DUP2 ADD SWAP1 PUSH2 0x260 SWAP2 SWAP1 PUSH2 0x1D4A JUMP JUMPDEST PUSH2 0xFD0 JUMP JUMPDEST PUSH1 0x40 MLOAD PUSH2 0x272 SWAP2 SWAP1 PUSH2 0x2062 JUMP JUMPDEST PUSH1 0x40 MLOAD DUP1 SWAP2 SUB SWAP1 RETURN JUMPDEST PUSH2 0x295 PUSH1 0x4 DUP1 CALLDATASIZE SUB DUP2 ADD SWAP1 PUSH2 0x290 SWAP2 SWAP1 PUSH2 0x1BCA JUMP JUMPDEST PUSH2 0x1019 JUMP JUMPDEST PUSH1 0x40 MLOAD PUSH2 0x2A5 SWAP5 SWAP4 SWAP3 SWAP2 SWAP1 PUSH2 0x22AE JUMP JUMPDEST PUSH1 0x40 MLOAD DUP1 SWAP2 SUB SWAP1 RETURN JUMPDEST PUSH2 0x2C8 PUSH1 0x4 DUP1 CALLDATASIZE SUB DUP2 ADD SWAP1 PUSH2 0x2C3 SWAP2 SWAP1 PUSH2 0x1CAA JUMP JUMPDEST PUSH2 0x1049 JUMP JUMPDEST STOP JUMPDEST PUSH2 0x2E4 PUSH1 0x4 DUP1 CALLDATASIZE SUB DUP2 ADD SWAP1 PUSH2 0x2DF SWAP2 SWAP1 PUSH2 0x1BCA JUMP JUMPDEST PUSH2 0x11B4 JUMP JUMPDEST PUSH1 0x40 MLOAD PUSH2 0x2F4 SWAP5 SWAP4 SWAP3 SWAP2 SWAP1 PUSH2 0x22AE JUMP JUMPDEST PUSH1 0x40 MLOAD DUP1 SWAP2 SUB SWAP1 RETURN JUMPDEST PUSH2 0x317 PUSH1 0x4 DUP1 CALLDATASIZE SUB DUP2 ADD SWAP1 PUSH2 0x312 SWAP2 SWAP1 PUSH2 0x1BF3 JUMP JUMPDEST PUSH2 0x12D5 JUMP JUMPDEST STOP JUMPDEST PUSH2 0x333 PUSH1 0x4 DUP1 CALLDATASIZE SUB DUP2 ADD SWAP1 PUSH2 0x32E SWAP2 SWAP1 PUSH2 0x1D4A JUMP JUMPDEST PUSH2 0x1440 JUMP JUMPDEST STOP JUMPDEST PUSH2 0x33D PUSH2 0x1781 JUMP JUMPDEST PUSH1 0x40 MLOAD PUSH2 0x34A SWAP2 SWAP1 PUSH2 0x2121 JUMP JUMPDEST PUSH1 0x40 MLOAD DUP1 SWAP2 SUB SWAP1 RETURN JUMPDEST PUSH2 0x35B PUSH2 0x18E2 JUMP JUMPDEST PUSH1 0x40 MLOAD PUSH2 0x368 SWAP2 SWAP1 PUSH2 0x2121 JUMP JUMPDEST PUSH1 0x40 MLOAD DUP1 SWAP2 SUB SWAP1 RETURN JUMPDEST PUSH2 0x38B PUSH1 0x4 DUP1 CALLDATASIZE SUB DUP2 ADD SWAP1 PUSH2 0x386 SWAP2 SWAP1 PUSH2 0x1BCA JUMP JUMPDEST PUSH2 0x19B4 JUMP JUMPDEST PUSH1 0x40 MLOAD PUSH2 0x398 SWAP2 SWAP1 PUSH2 0x20EB JUMP JUMPDEST PUSH1 0x40 MLOAD DUP1 SWAP2 SUB SWAP1 RETURN JUMPDEST PUSH1 0x3 PUSH1 0x0 CALLER PUSH20 0xFFFFFFFFFFFFFFFFFFFFFFFFFFFFFFFFFFFFFFFF AND PUSH20 0xFFFFFFFFFFFFFFFFFFFFFFFFFFFFFFFFFFFFFFFF AND DUP2 MSTORE PUSH1 0x20 ADD SWAP1 DUP2 MSTORE PUSH1 0x20 ADD PUSH1 0x0 KECCAK256 PUSH1 0x3 ADD PUSH1 0x0 SWAP1 SLOAD SWAP1 PUSH2 0x100 EXP SWAP1 DIV PUSH1 0xFF AND PUSH2 0x430 JUMPI PUSH1 0x40 MLOAD PUSH32 0x8C379A000000000000000000000000000000000000000000000000000000000 DUP2 MSTORE PUSH1 0x4 ADD PUSH2 0x427 SWAP1 PUSH2 0x2233 JUMP JUMPDEST PUSH1 0x40 MLOAD DUP1 SWAP2 SUB SWAP1 REVERT JUMPDEST DUP1 PUSH1 0x3 PUSH1 0x0 CALLER PUSH20 0xFFFFFFFFFFFFFFFFFFFFFFFFFFFFFFFFFFFFFFFF AND PUSH20 0xFFFFFFFFFFFFFFFFFFFFFFFFFFFFFFFFFFFFFFFF AND DUP2 MSTORE PUSH1 0x20 ADD SWAP1 DUP2 MSTORE PUSH1 0x20 ADD PUSH1 0x0 KECCAK256 PUSH1 0x4 ADD SWAP1 DUP1 MLOAD SWAP1 PUSH1 0x20 ADD SWAP1 PUSH2 0x486 SWAP3 SWAP2 SWAP1 PUSH2 0x1A40 JUMP JUMPDEST POP POP JUMP JUMPDEST PUSH1 0x0 PUSH1 0x3 PUSH1 0x0 CALLER PUSH20 0xFFFFFFFFFFFFFFFFFFFFFFFFFFFFFFFFFFFFFFFF AND PUSH20 0xFFFFFFFFFFFFFFFFFFFFFFFFFFFFFFFFFFFFFFFF AND DUP2 MSTORE PUSH1 0x20 ADD SWAP1 DUP2 MSTORE PUSH1 0x20 ADD PUSH1 0x0 KECCAK256 PUSH1 0x1 ADD PUSH1 0x0 SWAP1 SLOAD SWAP1 PUSH2 0x100 EXP SWAP1 DIV PUSH1 0xFF AND PUSH2 0x51B JUMPI PUSH1 0x40 MLOAD PUSH32 0x8C379A000000000000000000000000000000000000000000000000000000000 DUP2 MSTORE PUSH1 0x4 ADD PUSH2 0x512 SWAP1 PUSH2 0x21F3 JUMP JUMPDEST PUSH1 0x40 MLOAD DUP1 SWAP2 SUB SWAP1 REVERT JUMPDEST PUSH1 0x0 PUSH1 0x3 PUSH1 0x0 CALLER PUSH20 0xFFFFFFFFFFFFFFFFFFFFFFFFFFFFFFFFFFFFFFFF AND PUSH20 0xFFFFFFFFFFFFFFFFFFFFFFFFFFFFFFFFFFFFFFFF AND DUP2 MSTORE PUSH1 0x20 ADD SWAP1 DUP2 MSTORE PUSH1 0x20 ADD PUSH1 0x0 KECCAK256 PUSH1 0x0 ADD DUP1 SLOAD PUSH2 0x56A SWAP1 PUSH2 0x2493 JUMP JUMPDEST DUP1 PUSH1 0x1F ADD PUSH1 0x20 DUP1 SWAP2 DIV MUL PUSH1 0x20 ADD PUSH1 0x40 MLOAD SWAP1 DUP2 ADD PUSH1 0x40 MSTORE DUP1 SWAP3 SWAP2 SWAP1 DUP2 DUP2 MSTORE PUSH1 0x20 ADD DUP3 DUP1 SLOAD PUSH2 0x596 SWAP1 PUSH2 0x2493 JUMP JUMPDEST DUP1 ISZERO PUSH2 0x5E3 JUMPI DUP1 PUSH1 0x1F LT PUSH2 0x5B8 JUMPI PUSH2 0x100 DUP1 DUP4 SLOAD DIV MUL DUP4 MSTORE SWAP2 PUSH1 0x20 ADD SWAP2 PUSH2 0x5E3 JUMP JUMPDEST DUP3 ADD SWAP2 SWAP1 PUSH1 0x0 MSTORE PUSH1 0x20 PUSH1 0x0 KECCAK256 SWAP1 JUMPDEST DUP2 SLOAD DUP2 MSTORE SWAP1 PUSH1 0x1 ADD SWAP1 PUSH1 0x20 ADD DUP1 DUP4 GT PUSH2 0x5C6 JUMPI DUP3 SWAP1 SUB PUSH1 0x1F AND DUP3 ADD SWAP2 JUMPDEST POP POP POP POP POP SWAP1 POP PUSH1 0x4 DUP2 PUSH1 0x40 MLOAD PUSH2 0x5FA SWAP2 SWAP1 PUSH2 0x204B JUMP JUMPDEST SWAP1 DUP2 MSTORE PUSH1 0x20 ADD PUSH1 0x40 MLOAD DUP1 SWAP2 SUB SWAP1 KECCAK256 PUSH1 0x0 PUSH2 0x100 EXP DUP2 SLOAD SWAP1 PUSH20 0xFFFFFFFFFFFFFFFFFFFFFFFFFFFFFFFFFFFFFFFF MUL NOT AND SWAP1 SSTORE PUSH1 0x3 PUSH1 0x0 CALLER PUSH20 0xFFFFFFFFFFFFFFFFFFFFFFFFFFFFFFFFFFFFFFFF AND PUSH20 0xFFFFFFFFFFFFFFFFFFFFFFFFFFFFFFFFFFFFFFFF AND DUP2 MSTORE PUSH1 0x20 ADD SWAP1 DUP2 MSTORE PUSH1 0x20 ADD PUSH1 0x0 KECCAK256 PUSH1 0x0 DUP1 DUP3 ADD PUSH1 0x0 PUSH2 0x67B SWAP2 SWAP1 PUSH2 0x1AC6 JUMP JUMPDEST PUSH1 0x1 DUP3 ADD PUSH1 0x0 PUSH2 0x100 EXP DUP2 SLOAD SWAP1 PUSH1 0xFF MUL NOT AND SWAP1 SSTORE PUSH1 0x2 DUP3 ADD PUSH1 0x0 SWAP1 SSTORE PUSH1 0x3 DUP3 ADD PUSH1 0x0 PUSH2 0x100 EXP DUP2 SLOAD SWAP1 PUSH1 0xFF MUL NOT AND SWAP1 SSTORE PUSH1 0x4 DUP3 ADD PUSH1 0x0 PUSH2 0x6BB SWAP2 SWAP1 PUSH2 0x1AC6 JUMP JUMPDEST POP POP PUSH1 0x1 SWAP2 POP POP SWAP1 JUMP JUMPDEST PUSH1 0x1 PUSH1 0x20 MSTORE DUP1 PUSH1 0x0 MSTORE PUSH1 0x40 PUSH1 0x0 KECCAK256 PUSH1 0x0 SWAP2 POP SWAP1 POP DUP1 PUSH1 0x0 ADD PUSH1 0x0 SWAP1 SLOAD SWAP1 PUSH2 0x100 EXP SWAP1 DIV PUSH20 0xFFFFFFFFFFFFFFFFFFFFFFFFFFFFFFFFFFFFFFFF AND SWAP1 DUP1 PUSH1 0x1 ADD SLOAD SWAP1 DUP1 PUSH1 0x2 ADD PUSH1 0x0 SWAP1 SLOAD SWAP1 PUSH2 0x100 EXP SWAP1 DIV PUSH20 0xFFFFFFFFFFFFFFFFFFFFFFFFFFFFFFFFFFFFFFFF AND SWAP1 DUP1 PUSH1 0x3 ADD DUP1 SLOAD PUSH2 0x73A SWAP1 PUSH2 0x2493 JUMP JUMPDEST DUP1 PUSH1 0x1F ADD PUSH1 0x20 DUP1 SWAP2 DIV MUL PUSH1 0x20 ADD PUSH1 0x40 MLOAD SWAP1 DUP2 ADD PUSH1 0x40 MSTORE DUP1 SWAP3 SWAP2 SWAP1 DUP2 DUP2 MSTORE PUSH1 0x20 ADD DUP3 DUP1 SLOAD PUSH2 0x766 SWAP1 PUSH2 0x2493 JUMP JUMPDEST DUP1 ISZERO PUSH2 0x7B3 JUMPI DUP1 PUSH1 0x1F LT PUSH2 0x788 JUMPI PUSH2 0x100 DUP1 DUP4 SLOAD DIV MUL DUP4 MSTORE SWAP2 PUSH1 0x20 ADD SWAP2 PUSH2 0x7B3 JUMP JUMPDEST DUP3 ADD SWAP2 SWAP1 PUSH1 0x0 MSTORE PUSH1 0x20 PUSH1 0x0 KECCAK256 SWAP1 JUMPDEST DUP2 SLOAD DUP2 MSTORE SWAP1 PUSH1 0x1 ADD SWAP1 PUSH1 0x20 ADD DUP1 DUP4 GT PUSH2 0x796 JUMPI DUP3 SWAP1 SUB PUSH1 0x1F AND DUP3 ADD SWAP2 JUMPDEST POP POP POP POP POP SWAP1 POP DUP5 JUMP JUMPDEST PUSH1 0x3 PUSH1 0x0 CALLER PUSH20 0xFFFFFFFFFFFFFFFFFFFFFFFFFFFFFFFFFFFFFFFF AND PUSH20 0xFFFFFFFFFFFFFFFFFFFFFFFFFFFFFFFFFFFFFFFF AND DUP2 MSTORE PUSH1 0x20 ADD SWAP1 DUP2 MSTORE PUSH1 0x20 ADD PUSH1 0x0 KECCAK256 PUSH1 0x3 ADD PUSH1 0x0 SWAP1 SLOAD SWAP1 PUSH2 0x100 EXP SWAP1 DIV PUSH1 0xFF AND PUSH2 0x84C JUMPI PUSH1 0x40 MLOAD PUSH32 0x8C379A000000000000000000000000000000000000000000000000000000000 DUP2 MSTORE PUSH1 0x4 ADD PUSH2 0x843 SWAP1 PUSH2 0x21B3 JUMP JUMPDEST PUSH1 0x40 MLOAD DUP1 SWAP2 SUB SWAP1 REVERT JUMPDEST PUSH1 0x0 PUSH20 0xFFFFFFFFFFFFFFFFFFFFFFFFFFFFFFFFFFFFFFFF AND PUSH1 0x4 DUP3 PUSH1 0x40 MLOAD PUSH2 0x874 SWAP2 SWAP1 PUSH2 0x204B JUMP JUMPDEST SWAP1 DUP2 MSTORE PUSH1 0x20 ADD PUSH1 0x40 MLOAD DUP1 SWAP2 SUB SWAP1 KECCAK256 PUSH1 0x0 SWAP1 SLOAD SWAP1 PUSH2 0x100 EXP SWAP1 DIV PUSH20 0xFFFFFFFFFFFFFFFFFFFFFFFFFFFFFFFFFFFFFFFF AND PUSH20 0xFFFFFFFFFFFFFFFFFFFFFFFFFFFFFFFFFFFFFFFF AND EQ PUSH2 0x8F9 JUMPI PUSH1 0x40 MLOAD PUSH32 0x8C379A000000000000000000000000000000000000000000000000000000000 DUP2 MSTORE PUSH1 0x4 ADD PUSH2 0x8F0 SWAP1 PUSH2 0x2253 JUMP JUMPDEST PUSH1 0x40 MLOAD DUP1 SWAP2 SUB SWAP1 REVERT JUMPDEST PUSH1 0x0 PUSH1 0x3 PUSH1 0x0 CALLER PUSH20 0xFFFFFFFFFFFFFFFFFFFFFFFFFFFFFFFFFFFFFFFF AND PUSH20 0xFFFFFFFFFFFFFFFFFFFFFFFFFFFFFFFFFFFFFFFF AND DUP2 MSTORE PUSH1 0x20 ADD SWAP1 DUP2 MSTORE PUSH1 0x20 ADD PUSH1 0x0 KECCAK256 PUSH1 0x0 ADD DUP1 SLOAD PUSH2 0x948 SWAP1 PUSH2 0x2493 JUMP JUMPDEST DUP1 PUSH1 0x1F ADD PUSH1 0x20 DUP1 SWAP2 DIV MUL PUSH1 0x20 ADD PUSH1 0x40 MLOAD SWAP1 DUP2 ADD PUSH1 0x40 MSTORE DUP1 SWAP3 SWAP2 SWAP1 DUP2 DUP2 MSTORE PUSH1 0x20 ADD DUP3 DUP1 SLOAD PUSH2 0x974 SWAP1 PUSH2 0x2493 JUMP JUMPDEST DUP1 ISZERO PUSH2 0x9C1 JUMPI DUP1 PUSH1 0x1F LT PUSH2 0x996 JUMPI PUSH2 0x100 DUP1 DUP4 SLOAD DIV MUL DUP4 MSTORE SWAP2 PUSH1 0x20 ADD SWAP2 PUSH2 0x9C1 JUMP JUMPDEST DUP3 ADD SWAP2 SWAP1 PUSH1 0x0 MSTORE PUSH1 0x20 PUSH1 0x0 KECCAK256 SWAP1 JUMPDEST DUP2 SLOAD DUP2 MSTORE SWAP1 PUSH1 0x1 ADD SWAP1 PUSH1 0x20 ADD DUP1 DUP4 GT PUSH2 0x9A4 JUMPI DUP3 SWAP1 SUB PUSH1 0x1F AND DUP3 ADD SWAP2 JUMPDEST POP POP POP POP POP SWAP1 POP PUSH1 0x4 DUP2 PUSH1 0x40 MLOAD PUSH2 0x9D8 SWAP2 SWAP1 PUSH2 0x204B JUMP JUMPDEST SWAP1 DUP2 MSTORE PUSH1 0x20 ADD PUSH1 0x40 MLOAD DUP1 SWAP2 SUB SWAP1 KECCAK256 PUSH1 0x0 PUSH2 0x100 EXP DUP2 SLOAD SWAP1 PUSH20 0xFFFFFFFFFFFFFFFFFFFFFFFFFFFFFFFFFFFFFFFF MUL NOT AND SWAP1 SSTORE CALLER PUSH1 0x4 DUP4 PUSH1 0x40 MLOAD PUSH2 0xA1A SWAP2 SWAP1 PUSH2 0x204B JUMP JUMPDEST SWAP1 DUP2 MSTORE PUSH1 0x20 ADD PUSH1 0x40 MLOAD DUP1 SWAP2 SUB SWAP1 KECCAK256 PUSH1 0x0 PUSH2 0x100 EXP DUP2 SLOAD DUP2 PUSH20 0xFFFFFFFFFFFFFFFFFFFFFFFFFFFFFFFFFFFFFFFF MUL NOT AND SWAP1 DUP4 PUSH20 0xFFFFFFFFFFFFFFFFFFFFFFFFFFFFFFFFFFFFFFFF AND MUL OR SWAP1 SSTORE POP DUP2 PUSH1 0x3 PUSH1 0x0 CALLER PUSH20 0xFFFFFFFFFFFFFFFFFFFFFFFFFFFFFFFFFFFFFFFF AND PUSH20 0xFFFFFFFFFFFFFFFFFFFFFFFFFFFFFFFFFFFFFFFF AND DUP2 MSTORE PUSH1 0x20 ADD SWAP1 DUP2 MSTORE PUSH1 0x20 ADD PUSH1 0x0 KECCAK256 PUSH1 0x0 ADD SWAP1 DUP1 MLOAD SWAP1 PUSH1 0x20 ADD SWAP1 PUSH2 0xABC SWAP3 SWAP2 SWAP1 PUSH2 0x1A40 JUMP JUMPDEST POP POP POP JUMP JUMPDEST PUSH1 0x2 PUSH1 0x20 MSTORE DUP2 PUSH1 0x0 MSTORE PUSH1 0x40 PUSH1 0x0 KECCAK256 DUP2 DUP2 SLOAD DUP2 LT PUSH2 0xADD JUMPI PUSH1 0x0 DUP1 REVERT JUMPDEST SWAP1 PUSH1 0x0 MSTORE PUSH1 0x20 PUSH1 0x0 KECCAK256 ADD PUSH1 0x0 SWAP2 POP SWAP2 POP POP SLOAD DUP2 JUMP JUMPDEST PUSH1 0x3 PUSH1 0x0 CALLER PUSH20 0xFFFFFFFFFFFFFFFFFFFFFFFFFFFFFFFFFFFFFFFF AND PUSH20 0xFFFFFFFFFFFFFFFFFFFFFFFFFFFFFFFFFFFFFFFF AND DUP2 MSTORE PUSH1 0x20 ADD SWAP1 DUP2 MSTORE PUSH1 0x20 ADD PUSH1 0x0 KECCAK256 PUSH1 0x1 ADD PUSH1 0x0 SWAP1 SLOAD SWAP1 PUSH2 0x100 EXP SWAP1 DIV PUSH1 0xFF AND PUSH2 0xB81 JUMPI PUSH1 0x40 MLOAD PUSH32 0x8C379A000000000000000000000000000000000000000000000000000000000 DUP2 MSTORE PUSH1 0x4 ADD PUSH2 0xB78 SWAP1 PUSH2 0x21D3 JUMP JUMPDEST PUSH1 0x40 MLOAD DUP1 SWAP2 SUB SWAP1 REVERT JUMPDEST PUSH1 0x3 PUSH1 0x0 CALLER PUSH20 0xFFFFFFFFFFFFFFFFFFFFFFFFFFFFFFFFFFFFFFFF AND PUSH20 0xFFFFFFFFFFFFFFFFFFFFFFFFFFFFFFFFFFFFFFFF AND DUP2 MSTORE PUSH1 0x20 ADD SWAP1 DUP2 MSTORE PUSH1 0x20 ADD PUSH1 0x0 KECCAK256 PUSH1 0x3 ADD PUSH1 0x0 SWAP1 SLOAD SWAP1 PUSH2 0x100 EXP SWAP1 DIV PUSH1 0xFF AND ISZERO PUSH2 0xC11 JUMPI PUSH1 0x40 MLOAD PUSH32 0x8C379A000000000000000000000000000000000000000000000000000000000 DUP2 MSTORE PUSH1 0x4 ADD PUSH2 0xC08 SWAP1 PUSH2 0x2173 JUMP JUMPDEST PUSH1 0x40 MLOAD DUP1 SWAP2 SUB SWAP1 REVERT JUMPDEST PUSH1 0x1 PUSH1 0x3 PUSH1 0x0 CALLER PUSH20 0xFFFFFFFFFFFFFFFFFFFFFFFFFFFFFFFFFFFFFFFF AND PUSH20 0xFFFFFFFFFFFFFFFFFFFFFFFFFFFFFFFFFFFFFFFF AND DUP2 MSTORE PUSH1 0x20 ADD SWAP1 DUP2 MSTORE PUSH1 0x20 ADD PUSH1 0x0 KECCAK256 PUSH1 0x3 ADD PUSH1 0x0 PUSH2 0x100 EXP DUP2 SLOAD DUP2 PUSH1 0xFF MUL NOT AND SWAP1 DUP4 ISZERO ISZERO MUL OR SWAP1 SSTORE POP CALLER PUSH20 0xFFFFFFFFFFFFFFFFFFFFFFFFFFFFFFFFFFFFFFFF AND PUSH32 0x364034DE78A61B6190B049E2C5437370B27906BFED607993A5BC2DDA23C16CFF TIMESTAMP PUSH1 0x40 MLOAD PUSH2 0xCB2 SWAP2 SWAP1 PUSH2 0x2293 JUMP JUMPDEST PUSH1 0x40 MLOAD DUP1 SWAP2 SUB SWAP1 LOG2 JUMP JUMPDEST PUSH1 0x0 DUP1 PUSH1 0x0 PUSH1 0x60 PUSH1 0x0 DUP6 SWAP1 POP PUSH1 0x1 PUSH1 0x0 DUP3 DUP2 MSTORE PUSH1 0x20 ADD SWAP1 DUP2 MSTORE PUSH1 0x20 ADD PUSH1 0x0 KECCAK256 PUSH1 0x0 ADD PUSH1 0x0 SWAP1 SLOAD SWAP1 PUSH2 0x100 EXP SWAP1 DIV PUSH20 0xFFFFFFFFFFFFFFFFFFFFFFFFFFFFFFFFFFFFFFFF AND PUSH1 0x1 PUSH1 0x0 DUP4 DUP2 MSTORE PUSH1 0x20 ADD SWAP1 DUP2 MSTORE PUSH1 0x20 ADD PUSH1 0x0 KECCAK256 PUSH1 0x1 ADD SLOAD PUSH1 0x1 PUSH1 0x0 DUP5 DUP2 MSTORE PUSH1 0x20 ADD SWAP1 DUP2 MSTORE PUSH1 0x20 ADD PUSH1 0x0 KECCAK256 PUSH1 0x2 ADD PUSH1 0x0 SWAP1 SLOAD SWAP1 PUSH2 0x100 EXP SWAP1 DIV PUSH20 0xFFFFFFFFFFFFFFFFFFFFFFFFFFFFFFFFFFFFFFFF AND PUSH1 0x1 PUSH1 0x0 DUP6 DUP2 MSTORE PUSH1 0x20 ADD SWAP1 DUP2 MSTORE PUSH1 0x20 ADD PUSH1 0x0 KECCAK256 PUSH1 0x3 ADD DUP1 DUP1 SLOAD PUSH2 0xD6F SWAP1 PUSH2 0x2493 JUMP JUMPDEST DUP1 PUSH1 0x1F ADD PUSH1 0x20 DUP1 SWAP2 DIV MUL PUSH1 0x20 ADD PUSH1 0x40 MLOAD SWAP1 DUP2 ADD PUSH1 0x40 MSTORE DUP1 SWAP3 SWAP2 SWAP1 DUP2 DUP2 MSTORE PUSH1 0x20 ADD DUP3 DUP1 SLOAD PUSH2 0xD9B SWAP1 PUSH2 0x2493 JUMP JUMPDEST DUP1 ISZERO PUSH2 0xDE8 JUMPI DUP1 PUSH1 0x1F LT PUSH2 0xDBD JUMPI PUSH2 0x100 DUP1 DUP4 SLOAD DIV MUL DUP4 MSTORE SWAP2 PUSH1 0x20 ADD SWAP2 PUSH2 0xDE8 JUMP JUMPDEST DUP3 ADD SWAP2 SWAP1 PUSH1 0x0 MSTORE PUSH1 0x20 PUSH1 0x0 KECCAK256 SWAP1 JUMPDEST DUP2 SLOAD DUP2 MSTORE SWAP1 PUSH1 0x1 ADD SWAP1 PUSH1 0x20 ADD DUP1 DUP4 GT PUSH2 0xDCB JUMPI DUP3 SWAP1 SUB PUSH1 0x1F AND DUP3 ADD SWAP2 JUMPDEST POP POP POP POP POP SWAP1 POP SWAP5 POP SWAP5 POP SWAP5 POP SWAP5 POP POP SWAP2 SWAP4 POP SWAP2 SWAP4 JUMP JUMPDEST PUSH1 0x3 PUSH1 0x0 CALLER PUSH20 0xFFFFFFFFFFFFFFFFFFFFFFFFFFFFFFFFFFFFFFFF AND PUSH20 0xFFFFFFFFFFFFFFFFFFFFFFFFFFFFFFFFFFFFFFFF AND DUP2 MSTORE PUSH1 0x20 ADD SWAP1 DUP2 MSTORE PUSH1 0x20 ADD PUSH1 0x0 KECCAK256 PUSH1 0x3 ADD PUSH1 0x0 SWAP1 SLOAD SWAP1 PUSH2 0x100 EXP SWAP1 DIV PUSH1 0xFF AND PUSH2 0xE8E JUMPI PUSH1 0x40 MLOAD PUSH32 0x8C379A000000000000000000000000000000000000000000000000000000000 DUP2 MSTORE PUSH1 0x4 ADD PUSH2 0xE85 SWAP1 PUSH2 0x2213 JUMP JUMPDEST PUSH1 0x40 MLOAD DUP1 SWAP2 SUB SWAP1 REVERT JUMPDEST PUSH1 0x0 PUSH1 0x3 PUSH1 0x0 CALLER PUSH20 0xFFFFFFFFFFFFFFFFFFFFFFFFFFFFFFFFFFFFFFFF AND PUSH20 0xFFFFFFFFFFFFFFFFFFFFFFFFFFFFFFFFFFFFFFFF AND DUP2 MSTORE PUSH1 0x20 ADD SWAP1 DUP2 MSTORE PUSH1 0x20 ADD PUSH1 0x0 KECCAK256 PUSH1 0x3 ADD PUSH1 0x0 PUSH2 0x100 EXP DUP2 SLOAD DUP2 PUSH1 0xFF MUL NOT AND SWAP1 DUP4 ISZERO ISZERO MUL OR SWAP1 SSTORE POP CALLER PUSH20 0xFFFFFFFFFFFFFFFFFFFFFFFFFFFFFFFFFFFFFFFF AND PUSH32 0x70D1177AA26C67F6B2FDB43400CFD7FF0C23A8712301ABE5ABA2EE3D89E28A10 TIMESTAMP PUSH1 0x40 MLOAD PUSH2 0xF2F SWAP2 SWAP1 PUSH2 0x2293 JUMP JUMPDEST PUSH1 0x40 MLOAD DUP1 SWAP2 SUB SWAP1 LOG2 JUMP JUMPDEST PUSH1 0x60 PUSH1 0x2 PUSH1 0x0 DUP4 PUSH20 0xFFFFFFFFFFFFFFFFFFFFFFFFFFFFFFFFFFFFFFFF AND PUSH20 0xFFFFFFFFFFFFFFFFFFFFFFFFFFFFFFFFFFFFFFFF AND DUP2 MSTORE PUSH1 0x20 ADD SWAP1 DUP2 MSTORE PUSH1 0x20 ADD PUSH1 0x0 KECCAK256 DUP1 SLOAD DUP1 PUSH1 0x20 MUL PUSH1 0x20 ADD PUSH1 0x40 MLOAD SWAP1 DUP2 ADD PUSH1 0x40 MSTORE DUP1 SWAP3 SWAP2 SWAP1 DUP2 DUP2 MSTORE PUSH1 0x20 ADD DUP3 DUP1 SLOAD DUP1 ISZERO PUSH2 0xFC4 JUMPI PUSH1 0x20 MUL DUP3 ADD SWAP2 SWAP1 PUSH1 0x0 MSTORE PUSH1 0x20 PUSH1 0x0 KECCAK256 SWAP1 JUMPDEST DUP2 SLOAD DUP2 MSTORE PUSH1 0x20 ADD SWAP1 PUSH1 0x1 ADD SWAP1 DUP1 DUP4 GT PUSH2 0xFB0 JUMPI JUMPDEST POP POP POP POP POP SWAP1 POP SWAP2 SWAP1 POP JUMP JUMPDEST PUSH1 0x4 DUP2 DUP1 MLOAD PUSH1 0x20 DUP2 ADD DUP3 ADD DUP1 MLOAD DUP5 DUP3 MSTORE PUSH1 0x20 DUP4 ADD PUSH1 0x20 DUP6 ADD KECCAK256 DUP2 DUP4 MSTORE DUP1 SWAP6 POP POP POP POP POP POP PUSH1 0x0 SWAP2 POP SLOAD SWAP1 PUSH2 0x100 EXP SWAP1 DIV PUSH20 0xFFFFFFFFFFFFFFFFFFFFFFFFFFFFFFFFFFFFFFFF AND DUP2 JUMP JUMPDEST PUSH1 0x5 PUSH1 0x20 MSTORE DUP1 PUSH1 0x0 MSTORE PUSH1 0x40 PUSH1 0x0 KECCAK256 PUSH1 0x0 SWAP2 POP SWAP1 POP DUP1 PUSH1 0x0 ADD SLOAD SWAP1 DUP1 PUSH1 0x1 ADD SLOAD SWAP1 DUP1 PUSH1 0x2 ADD SLOAD SWAP1 DUP1 PUSH1 0x3 ADD SLOAD SWAP1 POP DUP5 JUMP JUMPDEST DUP4 PUSH1 0x5 PUSH1 0x0 DUP8 PUSH20 0xFFFFFFFFFFFFFFFFFFFFFFFFFFFFFFFFFFFFFFFF AND PUSH20 0xFFFFFFFFFFFFFFFFFFFFFFFFFFFFFFFFFFFFFFFF AND DUP2 MSTORE PUSH1 0x20 ADD SWAP1 DUP2 MSTORE PUSH1 0x20 ADD PUSH1 0x0 KECCAK256 PUSH1 0x0 ADD PUSH1 0x0 DUP3 DUP3 SLOAD PUSH2 0x109B SWAP2 SWAP1 PUSH2 0x23A9 JUMP JUMPDEST SWAP3 POP POP DUP2 SWAP1 SSTORE POP DUP3 PUSH1 0x5 PUSH1 0x0 DUP8 PUSH20 0xFFFFFFFFFFFFFFFFFFFFFFFFFFFFFFFFFFFFFFFF AND PUSH20 0xFFFFFFFFFFFFFFFFFFFFFFFFFFFFFFFFFFFFFFFF AND DUP2 MSTORE PUSH1 0x20 ADD SWAP1 DUP2 MSTORE PUSH1 0x20 ADD PUSH1 0x0 KECCAK256 PUSH1 0x1 ADD PUSH1 0x0 DUP3 DUP3 SLOAD PUSH2 0x10F4 SWAP2 SWAP1 PUSH2 0x23A9 JUMP JUMPDEST SWAP3 POP POP DUP2 SWAP1 SSTORE POP DUP2 PUSH1 0x5 PUSH1 0x0 DUP8 PUSH20 0xFFFFFFFFFFFFFFFFFFFFFFFFFFFFFFFFFFFFFFFF AND PUSH20 0xFFFFFFFFFFFFFFFFFFFFFFFFFFFFFFFFFFFFFFFF AND DUP2 MSTORE PUSH1 0x20 ADD SWAP1 DUP2 MSTORE PUSH1 0x20 ADD PUSH1 0x0 KECCAK256 PUSH1 0x2 ADD PUSH1 0x0 DUP3 DUP3 SLOAD PUSH2 0x114D SWAP2 SWAP1 PUSH2 0x23A9 JUMP JUMPDEST SWAP3 POP POP DUP2 SWAP1 SSTORE POP DUP1 PUSH1 0x5 PUSH1 0x0 DUP8 PUSH20 0xFFFFFFFFFFFFFFFFFFFFFFFFFFFFFFFFFFFFFFFF AND PUSH20 0xFFFFFFFFFFFFFFFFFFFFFFFFFFFFFFFFFFFFFFFF AND DUP2 MSTORE PUSH1 0x20 ADD SWAP1 DUP2 MSTORE PUSH1 0x20 ADD PUSH1 0x0 KECCAK256 PUSH1 0x3 ADD PUSH1 0x0 DUP3 DUP3 SLOAD PUSH2 0x11A6 SWAP2 SWAP1 PUSH2 0x23A9 JUMP JUMPDEST SWAP3 POP POP DUP2 SWAP1 SSTORE POP POP POP POP POP POP JUMP JUMPDEST PUSH1 0x0 DUP1 PUSH1 0x0 DUP1 PUSH1 0x5 PUSH1 0x0 DUP7 PUSH20 0xFFFFFFFFFFFFFFFFFFFFFFFFFFFFFFFFFFFFFFFF AND PUSH20 0xFFFFFFFFFFFFFFFFFFFFFFFFFFFFFFFFFFFFFFFF AND DUP2 MSTORE PUSH1 0x20 ADD SWAP1 DUP2 MSTORE PUSH1 0x20 ADD PUSH1 0x0 KECCAK256 PUSH1 0x2 ADD SLOAD PUSH1 0x5 PUSH1 0x0 DUP8 PUSH20 0xFFFFFFFFFFFFFFFFFFFFFFFFFFFFFFFFFFFFFFFF AND PUSH20 0xFFFFFFFFFFFFFFFFFFFFFFFFFFFFFFFFFFFFFFFF AND DUP2 MSTORE PUSH1 0x20 ADD SWAP1 DUP2 MSTORE PUSH1 0x20 ADD PUSH1 0x0 KECCAK256 PUSH1 0x3 ADD SLOAD PUSH1 0x5 PUSH1 0x0 DUP9 PUSH20 0xFFFFFFFFFFFFFFFFFFFFFFFFFFFFFFFFFFFFFFFF AND PUSH20 0xFFFFFFFFFFFFFFFFFFFFFFFFFFFFFFFFFFFFFFFF AND DUP2 MSTORE PUSH1 0x20 ADD SWAP1 DUP2 MSTORE PUSH1 0x20 ADD PUSH1 0x0 KECCAK256 PUSH1 0x0 ADD SLOAD PUSH1 0x5 PUSH1 0x0 DUP10 PUSH20 0xFFFFFFFFFFFFFFFFFFFFFFFFFFFFFFFFFFFFFFFF AND PUSH20 0xFFFFFFFFFFFFFFFFFFFFFFFFFFFFFFFFFFFFFFFF AND DUP2 MSTORE PUSH1 0x20 ADD SWAP1 DUP2 MSTORE PUSH1 0x20 ADD PUSH1 0x0 KECCAK256 PUSH1 0x1 ADD SLOAD SWAP4 POP SWAP4 POP SWAP4 POP SWAP4 POP SWAP2 SWAP4 POP SWAP2 SWAP4 JUMP JUMPDEST PUSH1 0x0 PUSH2 0x12E1 DUP5 DUP5 PUSH2 0x1A0D JUMP JUMPDEST SWAP1 POP DUP4 PUSH1 0x1 PUSH1 0x0 DUP4 DUP2 MSTORE PUSH1 0x20 ADD SWAP1 DUP2 MSTORE PUSH1 0x20 ADD PUSH1 0x0 KECCAK256 PUSH1 0x0 ADD PUSH1 0x0 PUSH2 0x100 EXP DUP2 SLOAD DUP2 PUSH20 0xFFFFFFFFFFFFFFFFFFFFFFFFFFFFFFFFFFFFFFFF MUL NOT AND SWAP1 DUP4 PUSH20 0xFFFFFFFFFFFFFFFFFFFFFFFFFFFFFFFFFFFFFFFF AND MUL OR SWAP1 SSTORE POP DUP3 PUSH1 0x1 PUSH1 0x0 DUP4 DUP2 MSTORE PUSH1 0x20 ADD SWAP1 DUP2 MSTORE PUSH1 0x20 ADD PUSH1 0x0 KECCAK256 PUSH1 0x1 ADD DUP2 SWAP1 SSTORE POP DUP5 PUSH1 0x1 PUSH1 0x0 DUP4 DUP2 MSTORE PUSH1 0x20 ADD SWAP1 DUP2 MSTORE PUSH1 0x20 ADD PUSH1 0x0 KECCAK256 PUSH1 0x2 ADD PUSH1 0x0 PUSH2 0x100 EXP DUP2 SLOAD DUP2 PUSH20 0xFFFFFFFFFFFFFFFFFFFFFFFFFFFFFFFFFFFFFFFF MUL NOT AND SWAP1 DUP4 PUSH20 0xFFFFFFFFFFFFFFFFFFFFFFFFFFFFFFFFFFFFFFFF AND MUL OR SWAP1 SSTORE POP DUP2 PUSH1 0x1 PUSH1 0x0 DUP4 DUP2 MSTORE PUSH1 0x20 ADD SWAP1 DUP2 MSTORE PUSH1 0x20 ADD PUSH1 0x0 KECCAK256 PUSH1 0x3 ADD SWAP1 DUP1 MLOAD SWAP1 PUSH1 0x20 ADD SWAP1 PUSH2 0x13D2 SWAP3 SWAP2 SWAP1 PUSH2 0x1A40 JUMP JUMPDEST POP PUSH1 0x2 PUSH1 0x0 DUP7 PUSH20 0xFFFFFFFFFFFFFFFFFFFFFFFFFFFFFFFFFFFFFFFF AND PUSH20 0xFFFFFFFFFFFFFFFFFFFFFFFFFFFFFFFFFFFFFFFF AND DUP2 MSTORE PUSH1 0x20 ADD SWAP1 DUP2 MSTORE PUSH1 0x20 ADD PUSH1 0x0 KECCAK256 DUP2 SWAP1 DUP1 PUSH1 0x1 DUP2 SLOAD ADD DUP1 DUP3 SSTORE DUP1 SWAP2 POP POP PUSH1 0x1 SWAP1 SUB SWAP1 PUSH1 0x0 MSTORE PUSH1 0x20 PUSH1 0x0 KECCAK256 ADD PUSH1 0x0 SWAP1 SWAP2 SWAP1 SWAP2 SWAP1 SWAP2 POP SSTORE POP POP POP POP POP JUMP JUMPDEST PUSH1 0x3 PUSH1 0x0 CALLER PUSH20 0xFFFFFFFFFFFFFFFFFFFFFFFFFFFFFFFFFFFFFFFF AND PUSH20 0xFFFFFFFFFFFFFFFFFFFFFFFFFFFFFFFFFFFFFFFF AND DUP2 MSTORE PUSH1 0x20 ADD SWAP1 DUP2 MSTORE PUSH1 0x20 ADD PUSH1 0x0 KECCAK256 PUSH1 0x1 ADD PUSH1 0x0 SWAP1 SLOAD SWAP1 PUSH2 0x100 EXP SWAP1 DIV PUSH1 0xFF AND ISZERO PUSH2 0x14D0 JUMPI PUSH1 0x40 MLOAD PUSH32 0x8C379A000000000000000000000000000000000000000000000000000000000 DUP2 MSTORE PUSH1 0x4 ADD PUSH2 0x14C7 SWAP1 PUSH2 0x2273 JUMP JUMPDEST PUSH1 0x40 MLOAD DUP1 SWAP2 SUB SWAP1 REVERT JUMPDEST PUSH1 0x0 PUSH20 0xFFFFFFFFFFFFFFFFFFFFFFFFFFFFFFFFFFFFFFFF AND PUSH1 0x4 DUP3 PUSH1 0x40 MLOAD PUSH2 0x14F8 SWAP2 SWAP1 PUSH2 0x204B JUMP JUMPDEST SWAP1 DUP2 MSTORE PUSH1 0x20 ADD PUSH1 0x40 MLOAD DUP1 SWAP2 SUB SWAP1 KECCAK256 PUSH1 0x0 SWAP1 SLOAD SWAP1 PUSH2 0x100 EXP SWAP1 DIV PUSH20 0xFFFFFFFFFFFFFFFFFFFFFFFFFFFFFFFFFFFFFFFF AND PUSH20 0xFFFFFFFFFFFFFFFFFFFFFFFFFFFFFFFFFFFFFFFF AND EQ PUSH2 0x157D JUMPI PUSH1 0x40 MLOAD PUSH32 0x8C379A000000000000000000000000000000000000000000000000000000000 DUP2 MSTORE PUSH1 0x4 ADD PUSH2 0x1574 SWAP1 PUSH2 0x2253 JUMP JUMPDEST PUSH1 0x40 MLOAD DUP1 SWAP2 SUB SWAP1 REVERT JUMPDEST DUP1 PUSH1 0x3 PUSH1 0x0 CALLER PUSH20 0xFFFFFFFFFFFFFFFFFFFFFFFFFFFFFFFFFFFFFFFF AND PUSH20 0xFFFFFFFFFFFFFFFFFFFFFFFFFFFFFFFFFFFFFFFF AND DUP2 MSTORE PUSH1 0x20 ADD SWAP1 DUP2 MSTORE PUSH1 0x20 ADD PUSH1 0x0 KECCAK256 PUSH1 0x0 ADD SWAP1 DUP1 MLOAD SWAP1 PUSH1 0x20 ADD SWAP1 PUSH2 0x15D3 SWAP3 SWAP2 SWAP1 PUSH2 0x1A40 JUMP JUMPDEST POP PUSH1 0x1 PUSH1 0x3 PUSH1 0x0 CALLER PUSH20 0xFFFFFFFFFFFFFFFFFFFFFFFFFFFFFFFFFFFFFFFF AND PUSH20 0xFFFFFFFFFFFFFFFFFFFFFFFFFFFFFFFFFFFFFFFF AND DUP2 MSTORE PUSH1 0x20 ADD SWAP1 DUP2 MSTORE PUSH1 0x20 ADD PUSH1 0x0 KECCAK256 PUSH1 0x1 ADD PUSH1 0x0 PUSH2 0x100 EXP DUP2 SLOAD DUP2 PUSH1 0xFF MUL NOT AND SWAP1 DUP4 ISZERO ISZERO MUL OR SWAP1 SSTORE POP TIMESTAMP PUSH1 0x3 PUSH1 0x0 CALLER PUSH20 0xFFFFFFFFFFFFFFFFFFFFFFFFFFFFFFFFFFFFFFFF AND PUSH20 0xFFFFFFFFFFFFFFFFFFFFFFFFFFFFFFFFFFFFFFFF AND DUP2 MSTORE PUSH1 0x20 ADD SWAP1 DUP2 MSTORE PUSH1 0x20 ADD PUSH1 0x0 KECCAK256 PUSH1 0x2 ADD DUP2 SWAP1 SSTORE POP PUSH1 0x1 PUSH1 0x3 PUSH1 0x0 CALLER PUSH20 0xFFFFFFFFFFFFFFFFFFFFFFFFFFFFFFFFFFFFFFFF AND PUSH20 0xFFFFFFFFFFFFFFFFFFFFFFFFFFFFFFFFFFFFFFFF AND DUP2 MSTORE PUSH1 0x20 ADD SWAP1 DUP2 MSTORE PUSH1 0x20 ADD PUSH1 0x0 KECCAK256 PUSH1 0x3 ADD PUSH1 0x0 PUSH2 0x100 EXP DUP2 SLOAD DUP2 PUSH1 0xFF MUL NOT AND SWAP1 DUP4 ISZERO ISZERO MUL OR SWAP1 SSTORE POP CALLER PUSH1 0x4 DUP3 PUSH1 0x40 MLOAD PUSH2 0x16E2 SWAP2 SWAP1 PUSH2 0x204B JUMP JUMPDEST SWAP1 DUP2 MSTORE PUSH1 0x20 ADD PUSH1 0x40 MLOAD DUP1 SWAP2 SUB SWAP1 KECCAK256 PUSH1 0x0 PUSH2 0x100 EXP DUP2 SLOAD DUP2 PUSH20 0xFFFFFFFFFFFFFFFFFFFFFFFFFFFFFFFFFFFFFFFF MUL NOT AND SWAP1 DUP4 PUSH20 0xFFFFFFFFFFFFFFFFFFFFFFFFFFFFFFFFFFFFFFFF AND MUL OR SWAP1 SSTORE POP CALLER PUSH20 0xFFFFFFFFFFFFFFFFFFFFFFFFFFFFFFFFFFFFFFFF AND PUSH32 0xEE20C2C019DCBCA8D08FF74C4CE6F465E02D3611905C9ACEEB76A0C8E429AF2F DUP3 TIMESTAMP PUSH1 0x40 MLOAD PUSH2 0x1776 SWAP3 SWAP2 SWAP1 PUSH2 0x2143 JUMP JUMPDEST PUSH1 0x40 MLOAD DUP1 SWAP2 SUB SWAP1 LOG2 POP JUMP JUMPDEST PUSH1 0x60 PUSH1 0x3 PUSH1 0x0 CALLER PUSH20 0xFFFFFFFFFFFFFFFFFFFFFFFFFFFFFFFFFFFFFFFF AND PUSH20 0xFFFFFFFFFFFFFFFFFFFFFFFFFFFFFFFFFFFFFFFF AND DUP2 MSTORE PUSH1 0x20 ADD SWAP1 DUP2 MSTORE PUSH1 0x20 ADD PUSH1 0x0 KECCAK256 PUSH1 0x3 ADD PUSH1 0x0 SWAP1 SLOAD SWAP1 PUSH2 0x100 EXP SWAP1 DIV PUSH1 0xFF AND PUSH2 0x1812 JUMPI PUSH1 0x40 MLOAD PUSH32 0x8C379A000000000000000000000000000000000000000000000000000000000 DUP2 MSTORE PUSH1 0x4 ADD PUSH2 0x1809 SWAP1 PUSH2 0x2193 JUMP JUMPDEST PUSH1 0x40 MLOAD DUP1 SWAP2 SUB SWAP1 REVERT JUMPDEST PUSH1 0x3 PUSH1 0x0 CALLER PUSH20 0xFFFFFFFFFFFFFFFFFFFFFFFFFFFFFFFFFFFFFFFF AND PUSH20 0xFFFFFFFFFFFFFFFFFFFFFFFFFFFFFFFFFFFFFFFF AND DUP2 MSTORE PUSH1 0x20 ADD SWAP1 DUP2 MSTORE PUSH1 0x20 ADD PUSH1 0x0 KECCAK256 PUSH1 0x0 ADD DUP1 SLOAD PUSH2 0x185F SWAP1 PUSH2 0x2493 JUMP JUMPDEST DUP1 PUSH1 0x1F ADD PUSH1 0x20 DUP1 SWAP2 DIV MUL PUSH1 0x20 ADD PUSH1 0x40 MLOAD SWAP1 DUP2 ADD PUSH1 0x40 MSTORE DUP1 SWAP3 SWAP2 SWAP1 DUP2 DUP2 MSTORE PUSH1 0x20 ADD DUP3 DUP1 SLOAD PUSH2 0x188B SWAP1 PUSH2 0x2493 JUMP JUMPDEST DUP1 ISZERO PUSH2 0x18D8 JUMPI DUP1 PUSH1 0x1F LT PUSH2 0x18AD JUMPI PUSH2 0x100 DUP1 DUP4 SLOAD DIV MUL DUP4 MSTORE SWAP2 PUSH1 0x20 ADD SWAP2 PUSH2 0x18D8 JUMP JUMPDEST DUP3 ADD SWAP2 SWAP1 PUSH1 0x0 MSTORE PUSH1 0x20 PUSH1 0x0 KECCAK256 SWAP1 JUMPDEST DUP2 SLOAD DUP2 MSTORE SWAP1 PUSH1 0x1 ADD SWAP1 PUSH1 0x20 ADD DUP1 DUP4 GT PUSH2 0x18BB JUMPI DUP3 SWAP1 SUB PUSH1 0x1F AND DUP3 ADD SWAP2 JUMPDEST POP POP POP POP POP SWAP1 POP SWAP1 JUMP JUMPDEST PUSH1 0x60 PUSH1 0x3 PUSH1 0x0 CALLER PUSH20 0xFFFFFFFFFFFFFFFFFFFFFFFFFFFFFFFFFFFFFFFF AND PUSH20 0xFFFFFFFFFFFFFFFFFFFFFFFFFFFFFFFFFFFFFFFF AND DUP2 MSTORE PUSH1 0x20 ADD SWAP1 DUP2 MSTORE PUSH1 0x20 ADD PUSH1 0x0 KECCAK256 PUSH1 0x4 ADD DUP1 SLOAD PUSH2 0x1931 SWAP1 PUSH2 0x2493 JUMP JUMPDEST DUP1 PUSH1 0x1F ADD PUSH1 0x20 DUP1 SWAP2 DIV MUL PUSH1 0x20 ADD PUSH1 0x40 MLOAD SWAP1 DUP2 ADD PUSH1 0x40 MSTORE DUP1 SWAP3 SWAP2 SWAP1 DUP2 DUP2 MSTORE PUSH1 0x20 ADD DUP3 DUP1 SLOAD PUSH2 0x195D SWAP1 PUSH2 0x2493 JUMP JUMPDEST DUP1 ISZERO PUSH2 0x19AA JUMPI DUP1 PUSH1 0x1F LT PUSH2 0x197F JUMPI PUSH2 0x100 DUP1 DUP4 SLOAD DIV MUL DUP4 MSTORE SWAP2 PUSH1 0x20 ADD SWAP2 PUSH2 0x19AA JUMP JUMPDEST DUP3 ADD SWAP2 SWAP1 PUSH1 0x0 MSTORE PUSH1 0x20 PUSH1 0x0 KECCAK256 SWAP1 JUMPDEST DUP2 SLOAD DUP2 MSTORE SWAP1 PUSH1 0x1 ADD SWAP1 PUSH1 0x20 ADD DUP1 DUP4 GT PUSH2 0x198D JUMPI DUP3 SWAP1 SUB PUSH1 0x1F AND DUP3 ADD SWAP2 JUMPDEST POP POP POP POP POP SWAP1 POP SWAP1 JUMP JUMPDEST PUSH1 0x0 PUSH1 0x3 PUSH1 0x0 DUP4 PUSH20 0xFFFFFFFFFFFFFFFFFFFFFFFFFFFFFFFFFFFFFFFF AND PUSH20 0xFFFFFFFFFFFFFFFFFFFFFFFFFFFFFFFFFFFFFFFF AND DUP2 MSTORE PUSH1 0x20 ADD SWAP1 DUP2 MSTORE PUSH1 0x20 ADD PUSH1 0x0 KECCAK256 PUSH1 0x3 ADD PUSH1 0x0 SWAP1 SLOAD SWAP1 PUSH2 0x100 EXP SWAP1 DIV PUSH1 0xFF AND SWAP1 POP SWAP2 SWAP1 POP JUMP JUMPDEST PUSH1 0x0 DUP3 DUP3 PUSH1 0x40 MLOAD PUSH1 0x20 ADD PUSH2 0x1A22 SWAP3 SWAP2 SWAP1 PUSH2 0x201F JUMP JUMPDEST PUSH1 0x40 MLOAD PUSH1 0x20 DUP2 DUP4 SUB SUB DUP2 MSTORE SWAP1 PUSH1 0x40 MSTORE DUP1 MLOAD SWAP1 PUSH1 0x20 ADD KECCAK256 SWAP1 POP SWAP3 SWAP2 POP POP JUMP JUMPDEST DUP3 DUP1 SLOAD PUSH2 0x1A4C SWAP1 PUSH2 0x2493 JUMP JUMPDEST SWAP1 PUSH1 0x0 MSTORE PUSH1 0x20 PUSH1 0x0 KECCAK256 SWAP1 PUSH1 0x1F ADD PUSH1 0x20 SWAP1 DIV DUP2 ADD SWAP3 DUP3 PUSH2 0x1A6E JUMPI PUSH1 0x0 DUP6 SSTORE PUSH2 0x1AB5 JUMP JUMPDEST DUP3 PUSH1 0x1F LT PUSH2 0x1A87 JUMPI DUP1 MLOAD PUSH1 0xFF NOT AND DUP4 DUP1 ADD OR DUP6 SSTORE PUSH2 0x1AB5 JUMP JUMPDEST DUP3 DUP1 ADD PUSH1 0x1 ADD DUP6 SSTORE DUP3 ISZERO PUSH2 0x1AB5 JUMPI SWAP2 DUP3 ADD JUMPDEST DUP3 DUP2 GT ISZERO PUSH2 0x1AB4 JUMPI DUP3 MLOAD DUP3 SSTORE SWAP2 PUSH1 0x20 ADD SWAP2 SWAP1 PUSH1 0x1 ADD SWAP1 PUSH2 0x1A99 JUMP JUMPDEST JUMPDEST POP SWAP1 POP PUSH2 0x1AC2 SWAP2 SWAP1 PUSH2 0x1B06 JUMP JUMPDEST POP SWAP1 JUMP JUMPDEST POP DUP1 SLOAD PUSH2 0x1AD2 SWAP1 PUSH2 0x2493 JUMP JUMPDEST PUSH1 0x0 DUP3 SSTORE DUP1 PUSH1 0x1F LT PUSH2 0x1AE4 JUMPI POP PUSH2 0x1B03 JUMP JUMPDEST PUSH1 0x1F ADD PUSH1 0x20 SWAP1 DIV SWAP1 PUSH1 0x0 MSTORE PUSH1 0x20 PUSH1 0x0 KECCAK256 SWAP1 DUP2 ADD SWAP1 PUSH2 0x1B02 SWAP2 SWAP1 PUSH2 0x1B06 JUMP JUMPDEST JUMPDEST POP JUMP JUMPDEST JUMPDEST DUP1 DUP3 GT ISZERO PUSH2 0x1B1F JUMPI PUSH1 0x0 DUP2 PUSH1 0x0 SWAP1 SSTORE POP PUSH1 0x1 ADD PUSH2 0x1B07 JUMP JUMPDEST POP SWAP1 JUMP JUMPDEST PUSH1 0x0 PUSH2 0x1B36 PUSH2 0x1B31 DUP5 PUSH2 0x2318 JUMP JUMPDEST PUSH2 0x22F3 JUMP JUMPDEST SWAP1 POP DUP3 DUP2 MSTORE PUSH1 0x20 DUP2 ADD DUP5 DUP5 DUP5 ADD GT ISZERO PUSH2 0x1B4E JUMPI PUSH1 0x0 DUP1 REVERT JUMPDEST PUSH2 0x1B59 DUP5 DUP3 DUP6 PUSH2 0x2451 JUMP JUMPDEST POP SWAP4 SWAP3 POP POP POP JUMP JUMPDEST PUSH1 0x0 DUP2 CALLDATALOAD SWAP1 POP PUSH2 0x1B70 DUP2 PUSH2 0x27B2 JUMP JUMPDEST SWAP3 SWAP2 POP POP JUMP JUMPDEST PUSH1 0x0 DUP2 CALLDATALOAD SWAP1 POP PUSH2 0x1B85 DUP2 PUSH2 0x27C9 JUMP JUMPDEST SWAP3 SWAP2 POP POP JUMP JUMPDEST PUSH1 0x0 DUP3 PUSH1 0x1F DUP4 ADD SLT PUSH2 0x1B9C JUMPI PUSH1 0x0 DUP1 REVERT JUMPDEST DUP2 CALLDATALOAD PUSH2 0x1BAC DUP5 DUP3 PUSH1 0x20 DUP7 ADD PUSH2 0x1B23 JUMP JUMPDEST SWAP2 POP POP SWAP3 SWAP2 POP POP JUMP JUMPDEST PUSH1 0x0 DUP2 CALLDATALOAD SWAP1 POP PUSH2 0x1BC4 DUP2 PUSH2 0x27E0 JUMP JUMPDEST SWAP3 SWAP2 POP POP JUMP JUMPDEST PUSH1 0x0 PUSH1 0x20 DUP3 DUP5 SUB SLT ISZERO PUSH2 0x1BDC JUMPI PUSH1 0x0 DUP1 REVERT JUMPDEST PUSH1 0x0 PUSH2 0x1BEA DUP5 DUP3 DUP6 ADD PUSH2 0x1B61 JUMP JUMPDEST SWAP2 POP POP SWAP3 SWAP2 POP POP JUMP JUMPDEST PUSH1 0x0 DUP1 PUSH1 0x0 DUP1 PUSH1 0x80 DUP6 DUP8 SUB SLT ISZERO PUSH2 0x1C09 JUMPI PUSH1 0x0 DUP1 REVERT JUMPDEST PUSH1 0x0 PUSH2 0x1C17 DUP8 DUP3 DUP9 ADD PUSH2 0x1B61 JUMP JUMPDEST SWAP5 POP POP PUSH1 0x20 PUSH2 0x1C28 DUP8 DUP3 DUP9 ADD PUSH2 0x1B61 JUMP JUMPDEST SWAP4 POP POP PUSH1 0x40 PUSH2 0x1C39 DUP8 DUP3 DUP9 ADD PUSH2 0x1BB5 JUMP JUMPDEST SWAP3 POP POP PUSH1 0x60 DUP6 ADD CALLDATALOAD PUSH8 0xFFFFFFFFFFFFFFFF DUP2 GT ISZERO PUSH2 0x1C56 JUMPI PUSH1 0x0 DUP1 REVERT JUMPDEST PUSH2 0x1C62 DUP8 DUP3 DUP9 ADD PUSH2 0x1B8B JUMP JUMPDEST SWAP2 POP POP SWAP3 SWAP6 SWAP2 SWAP5 POP SWAP3 POP JUMP JUMPDEST PUSH1 0x0 DUP1 PUSH1 0x40 DUP4 DUP6 SUB SLT ISZERO PUSH2 0x1C81 JUMPI PUSH1 0x0 DUP1 REVERT JUMPDEST PUSH1 0x0 PUSH2 0x1C8F DUP6 DUP3 DUP7 ADD PUSH2 0x1B61 JUMP JUMPDEST SWAP3 POP POP PUSH1 0x20 PUSH2 0x1CA0 DUP6 DUP3 DUP7 ADD PUSH2 0x1BB5 JUMP JUMPDEST SWAP2 POP POP SWAP3 POP SWAP3 SWAP1 POP JUMP JUMPDEST PUSH1 0x0 DUP1 PUSH1 0x0 DUP1 PUSH1 0x0 PUSH1 0xA0 DUP7 DUP9 SUB SLT ISZERO PUSH2 0x1CC2 JUMPI PUSH1 0x0 DUP1 REVERT JUMPDEST PUSH1 0x0 PUSH2 0x1CD0 DUP9 DUP3 DUP10 ADD PUSH2 0x1B61 JUMP JUMPDEST SWAP6 POP POP PUSH1 0x20 PUSH2 0x1CE1 DUP9 DUP3 DUP10 ADD PUSH2 0x1BB5 JUMP JUMPDEST SWAP5 POP POP PUSH1 0x40 PUSH2 0x1CF2 DUP9 DUP3 DUP10 ADD PUSH2 0x1BB5 JUMP JUMPDEST SWAP4 POP POP PUSH1 0x60 PUSH2 0x1D03 DUP9 DUP3 DUP10 ADD PUSH2 0x1BB5 JUMP JUMPDEST SWAP3 POP POP PUSH1 0x80 PUSH2 0x1D14 DUP9 DUP3 DUP10 ADD PUSH2 0x1BB5 JUMP JUMPDEST SWAP2 POP POP SWAP3 SWAP6 POP SWAP3 SWAP6 SWAP1 SWAP4 POP JUMP JUMPDEST PUSH1 0x0 PUSH1 0x20 DUP3 DUP5 SUB SLT ISZERO PUSH2 0x1D33 JUMPI PUSH1 0x0 DUP1 REVERT JUMPDEST PUSH1 0x0 PUSH2 0x1D41 DUP5 DUP3 DUP6 ADD PUSH2 0x1B76 JUMP JUMPDEST SWAP2 POP POP SWAP3 SWAP2 POP POP JUMP JUMPDEST PUSH1 0x0 PUSH1 0x20 DUP3 DUP5 SUB SLT ISZERO PUSH2 0x1D5C JUMPI PUSH1 0x0 DUP1 REVERT JUMPDEST PUSH1 0x0 DUP3 ADD CALLDATALOAD PUSH8 0xFFFFFFFFFFFFFFFF DUP2 GT ISZERO PUSH2 0x1D76 JUMPI PUSH1 0x0 DUP1 REVERT JUMPDEST PUSH2 0x1D82 DUP5 DUP3 DUP6 ADD PUSH2 0x1B8B JUMP JUMPDEST SWAP2 POP POP SWAP3 SWAP2 POP POP JUMP JUMPDEST PUSH1 0x0 PUSH2 0x1D97 DUP4 DUP4 PUSH2 0x1E36 JUMP JUMPDEST PUSH1 0x20 DUP4 ADD SWAP1 POP SWAP3 SWAP2 POP POP JUMP JUMPDEST PUSH2 0x1DAC DUP2 PUSH2 0x23FF JUMP JUMPDEST DUP3 MSTORE POP POP JUMP JUMPDEST PUSH2 0x1DC3 PUSH2 0x1DBE DUP3 PUSH2 0x23FF JUMP JUMPDEST PUSH2 0x24F6 JUMP JUMPDEST DUP3 MSTORE POP POP JUMP JUMPDEST PUSH1 0x0 PUSH2 0x1DD4 DUP3 PUSH2 0x2359 JUMP JUMPDEST PUSH2 0x1DDE DUP2 DUP6 PUSH2 0x237C JUMP JUMPDEST SWAP4 POP PUSH2 0x1DE9 DUP4 PUSH2 0x2349 JUMP JUMPDEST DUP1 PUSH1 0x0 JUMPDEST DUP4 DUP2 LT ISZERO PUSH2 0x1E1A JUMPI DUP2 MLOAD PUSH2 0x1E01 DUP9 DUP3 PUSH2 0x1D8B JUMP JUMPDEST SWAP8 POP PUSH2 0x1E0C DUP4 PUSH2 0x236F JUMP JUMPDEST SWAP3 POP POP PUSH1 0x1 DUP2 ADD SWAP1 POP PUSH2 0x1DED JUMP JUMPDEST POP DUP6 SWAP4 POP POP POP POP SWAP3 SWAP2 POP POP JUMP JUMPDEST PUSH2 0x1E30 DUP2 PUSH2 0x2411 JUMP JUMPDEST DUP3 MSTORE POP POP JUMP JUMPDEST PUSH2 0x1E3F DUP2 PUSH2 0x241D JUMP JUMPDEST DUP3 MSTORE POP POP JUMP JUMPDEST PUSH2 0x1E4E DUP2 PUSH2 0x241D JUMP JUMPDEST DUP3 MSTORE POP POP JUMP JUMPDEST PUSH1 0x0 PUSH2 0x1E5F DUP3 PUSH2 0x2364 JUMP JUMPDEST PUSH2 0x1E69 DUP2 DUP6 PUSH2 0x238D JUMP JUMPDEST SWAP4 POP PUSH2 0x1E79 DUP2 DUP6 PUSH1 0x20 DUP7 ADD PUSH2 0x2460 JUMP JUMPDEST PUSH2 0x1E82 DUP2 PUSH2 0x25B1 JUMP JUMPDEST DUP5 ADD SWAP2 POP POP SWAP3 SWAP2 POP POP JUMP JUMPDEST PUSH1 0x0 PUSH2 0x1E98 DUP3 PUSH2 0x2364 JUMP JUMPDEST PUSH2 0x1EA2 DUP2 DUP6 PUSH2 0x239E JUMP JUMPDEST SWAP4 POP PUSH2 0x1EB2 DUP2 DUP6 PUSH1 0x20 DUP7 ADD PUSH2 0x2460 JUMP JUMPDEST DUP1 DUP5 ADD SWAP2 POP POP SWAP3 SWAP2 POP POP JUMP JUMPDEST PUSH1 0x0 PUSH2 0x1ECB PUSH1 0x18 DUP4 PUSH2 0x238D JUMP JUMPDEST SWAP2 POP PUSH2 0x1ED6 DUP3 PUSH2 0x25CF JUMP JUMPDEST PUSH1 0x20 DUP3 ADD SWAP1 POP SWAP2 SWAP1 POP JUMP JUMPDEST PUSH1 0x0 PUSH2 0x1EEE PUSH1 0x2E DUP4 PUSH2 0x238D JUMP JUMPDEST SWAP2 POP PUSH2 0x1EF9 DUP3 PUSH2 0x25F8 JUMP JUMPDEST PUSH1 0x40 DUP3 ADD SWAP1 POP SWAP2 SWAP1 POP JUMP JUMPDEST PUSH1 0x0 PUSH2 0x1F11 PUSH1 0x17 DUP4 PUSH2 0x238D JUMP JUMPDEST SWAP2 POP PUSH2 0x1F1C DUP3 PUSH2 0x2647 JUMP JUMPDEST PUSH1 0x20 DUP3 ADD SWAP1 POP SWAP2 SWAP1 POP JUMP JUMPDEST PUSH1 0x0 PUSH2 0x1F34 PUSH1 0x27 DUP4 PUSH2 0x238D JUMP JUMPDEST SWAP2 POP PUSH2 0x1F3F DUP3 PUSH2 0x2670 JUMP JUMPDEST PUSH1 0x40 DUP3 ADD SWAP1 POP SWAP2 SWAP1 POP JUMP JUMPDEST PUSH1 0x0 PUSH2 0x1F57 PUSH1 0x11 DUP4 PUSH2 0x238D JUMP JUMPDEST SWAP2 POP PUSH2 0x1F62 DUP3 PUSH2 0x26BF JUMP JUMPDEST PUSH1 0x20 DUP3 ADD SWAP1 POP SWAP2 SWAP1 POP JUMP JUMPDEST PUSH1 0x0 PUSH2 0x1F7A PUSH1 0x14 DUP4 PUSH2 0x238D JUMP JUMPDEST SWAP2 POP PUSH2 0x1F85 DUP3 PUSH2 0x26E8 JUMP JUMPDEST PUSH1 0x20 DUP3 ADD SWAP1 POP SWAP2 SWAP1 POP JUMP JUMPDEST PUSH1 0x0 PUSH2 0x1F9D PUSH1 0x2A DUP4 PUSH2 0x238D JUMP JUMPDEST SWAP2 POP PUSH2 0x1FA8 DUP3 PUSH2 0x2711 JUMP JUMPDEST PUSH1 0x40 DUP3 ADD SWAP1 POP SWAP2 SWAP1 POP JUMP JUMPDEST PUSH1 0x0 PUSH2 0x1FC0 PUSH1 0x12 DUP4 PUSH2 0x238D JUMP JUMPDEST SWAP2 POP PUSH2 0x1FCB DUP3 PUSH2 0x2760 JUMP JUMPDEST PUSH1 0x20 DUP3 ADD SWAP1 POP SWAP2 SWAP1 POP JUMP JUMPDEST PUSH1 0x0 PUSH2 0x1FE3 PUSH1 0xD DUP4 PUSH2 0x238D JUMP JUMPDEST SWAP2 POP PUSH2 0x1FEE DUP3 PUSH2 0x2789 JUMP JUMPDEST PUSH1 0x20 DUP3 ADD SWAP1 POP SWAP2 SWAP1 POP JUMP JUMPDEST PUSH2 0x2002 DUP2 PUSH2 0x2447 JUMP JUMPDEST DUP3 MSTORE POP POP JUMP JUMPDEST PUSH2 0x2019 PUSH2 0x2014 DUP3 PUSH2 0x2447 JUMP JUMPDEST PUSH2 0x251A JUMP JUMPDEST DUP3 MSTORE POP POP JUMP JUMPDEST PUSH1 0x0 PUSH2 0x202B DUP3 DUP6 PUSH2 0x1DB2 JUMP JUMPDEST PUSH1 0x14 DUP3 ADD SWAP2 POP PUSH2 0x203B DUP3 DUP5 PUSH2 0x2008 JUMP JUMPDEST PUSH1 0x20 DUP3 ADD SWAP2 POP DUP2 SWAP1 POP SWAP4 SWAP3 POP POP POP JUMP JUMPDEST PUSH1 0x0 PUSH2 0x2057 DUP3 DUP5 PUSH2 0x1E8D JUMP JUMPDEST SWAP2 POP DUP2 SWAP1 POP SWAP3 SWAP2 POP POP JUMP JUMPDEST PUSH1 0x0 PUSH1 0x20 DUP3 ADD SWAP1 POP PUSH2 0x2077 PUSH1 0x0 DUP4 ADD DUP5 PUSH2 0x1DA3 JUMP JUMPDEST SWAP3 SWAP2 POP POP JUMP JUMPDEST PUSH1 0x0 PUSH1 0x80 DUP3 ADD SWAP1 POP PUSH2 0x2092 PUSH1 0x0 DUP4 ADD DUP8 PUSH2 0x1DA3 JUMP JUMPDEST PUSH2 0x209F PUSH1 0x20 DUP4 ADD DUP7 PUSH2 0x1FF9 JUMP JUMPDEST PUSH2 0x20AC PUSH1 0x40 DUP4 ADD DUP6 PUSH2 0x1DA3 JUMP JUMPDEST DUP2 DUP2 SUB PUSH1 0x60 DUP4 ADD MSTORE PUSH2 0x20BE DUP2 DUP5 PUSH2 0x1E54 JUMP JUMPDEST SWAP1 POP SWAP6 SWAP5 POP POP POP POP POP JUMP JUMPDEST PUSH1 0x0 PUSH1 0x20 DUP3 ADD SWAP1 POP DUP2 DUP2 SUB PUSH1 0x0 DUP4 ADD MSTORE PUSH2 0x20E3 DUP2 DUP5 PUSH2 0x1DC9 JUMP JUMPDEST SWAP1 POP SWAP3 SWAP2 POP POP JUMP JUMPDEST PUSH1 0x0 PUSH1 0x20 DUP3 ADD SWAP1 POP PUSH2 0x2100 PUSH1 0x0 DUP4 ADD DUP5 PUSH2 0x1E27 JUMP JUMPDEST SWAP3 SWAP2 POP POP JUMP JUMPDEST PUSH1 0x0 PUSH1 0x20 DUP3 ADD SWAP1 POP PUSH2 0x211B PUSH1 0x0 DUP4 ADD DUP5 PUSH2 0x1E45 JUMP JUMPDEST SWAP3 SWAP2 POP POP JUMP JUMPDEST PUSH1 0x0 PUSH1 0x20 DUP3 ADD SWAP1 POP DUP2 DUP2 SUB PUSH1 0x0 DUP4 ADD MSTORE PUSH2 0x213B DUP2 DUP5 PUSH2 0x1E54 JUMP JUMPDEST SWAP1 POP SWAP3 SWAP2 POP POP JUMP JUMPDEST PUSH1 0x0 PUSH1 0x40 DUP3 ADD SWAP1 POP DUP2 DUP2 SUB PUSH1 0x0 DUP4 ADD MSTORE PUSH2 0x215D DUP2 DUP6 PUSH2 0x1E54 JUMP JUMPDEST SWAP1 POP PUSH2 0x216C PUSH1 0x20 DUP4 ADD DUP5 PUSH2 0x1FF9 JUMP JUMPDEST SWAP4 SWAP3 POP POP POP JUMP JUMPDEST PUSH1 0x0 PUSH1 0x20 DUP3 ADD SWAP1 POP DUP2 DUP2 SUB PUSH1 0x0 DUP4 ADD MSTORE PUSH2 0x218C DUP2 PUSH2 0x1EBE JUMP JUMPDEST SWAP1 POP SWAP2 SWAP1 POP JUMP JUMPDEST PUSH1 0x0 PUSH1 0x20 DUP3 ADD SWAP1 POP DUP2 DUP2 SUB PUSH1 0x0 DUP4 ADD MSTORE PUSH2 0x21AC DUP2 PUSH2 0x1EE1 JUMP JUMPDEST SWAP1 POP SWAP2 SWAP1 POP JUMP JUMPDEST PUSH1 0x0 PUSH1 0x20 DUP3 ADD SWAP1 POP DUP2 DUP2 SUB PUSH1 0x0 DUP4 ADD MSTORE PUSH2 0x21CC DUP2 PUSH2 0x1F04 JUMP JUMPDEST SWAP1 POP SWAP2 SWAP1 POP JUMP JUMPDEST PUSH1 0x0 PUSH1 0x20 DUP3 ADD SWAP1 POP DUP2 DUP2 SUB PUSH1 0x0 DUP4 ADD MSTORE PUSH2 0x21EC DUP2 PUSH2 0x1F27 JUMP JUMPDEST SWAP1 POP SWAP2 SWAP1 POP JUMP JUMPDEST PUSH1 0x0 PUSH1 0x20 DUP3 ADD SWAP1 POP DUP2 DUP2 SUB PUSH1 0x0 DUP4 ADD MSTORE PUSH2 0x220C DUP2 PUSH2 0x1F4A JUMP JUMPDEST SWAP1 POP SWAP2 SWAP1 POP JUMP JUMPDEST PUSH1 0x0 PUSH1 0x20 DUP3 ADD SWAP1 POP DUP2 DUP2 SUB PUSH1 0x0 DUP4 ADD MSTORE PUSH2 0x222C DUP2 PUSH2 0x1F6D JUMP JUMPDEST SWAP1 POP SWAP2 SWAP1 POP JUMP JUMPDEST PUSH1 0x0 PUSH1 0x20 DUP3 ADD SWAP1 POP DUP2 DUP2 SUB PUSH1 0x0 DUP4 ADD MSTORE PUSH2 0x224C DUP2 PUSH2 0x1F90 JUMP JUMPDEST SWAP1 POP SWAP2 SWAP1 POP JUMP JUMPDEST PUSH1 0x0 PUSH1 0x20 DUP3 ADD SWAP1 POP DUP2 DUP2 SUB PUSH1 0x0 DUP4 ADD MSTORE PUSH2 0x226C DUP2 PUSH2 0x1FB3 JUMP JUMPDEST SWAP1 POP SWAP2 SWAP1 POP JUMP JUMPDEST PUSH1 0x0 PUSH1 0x20 DUP3 ADD SWAP1 POP DUP2 DUP2 SUB PUSH1 0x0 DUP4 ADD MSTORE PUSH2 0x228C DUP2 PUSH2 0x1FD6 JUMP JUMPDEST SWAP1 POP SWAP2 SWAP1 POP JUMP JUMPDEST PUSH1 0x0 PUSH1 0x20 DUP3 ADD SWAP1 POP PUSH2 0x22A8 PUSH1 0x0 DUP4 ADD DUP5 PUSH2 0x1FF9 JUMP JUMPDEST SWAP3 SWAP2 POP POP JUMP JUMPDEST PUSH1 0x0 PUSH1 0x80 DUP3 ADD SWAP1 POP PUSH2 0x22C3 PUSH1 0x0 DUP4 ADD DUP8 PUSH2 0x1FF9 JUMP JUMPDEST PUSH2 0x22D0 PUSH1 0x20 DUP4 ADD DUP7 PUSH2 0x1FF9 JUMP JUMPDEST PUSH2 0x22DD PUSH1 0x40 DUP4 ADD DUP6 PUSH2 0x1FF9 JUMP JUMPDEST PUSH2 0x22EA PUSH1 0x60 DUP4 ADD DUP5 PUSH2 0x1FF9 JUMP JUMPDEST SWAP6 SWAP5 POP POP POP POP POP JUMP JUMPDEST PUSH1 0x0 PUSH2 0x22FD PUSH2 0x230E JUMP JUMPDEST SWAP1 POP PUSH2 0x2309 DUP3 DUP3 PUSH2 0x24C5 JUMP JUMPDEST SWAP2 SWAP1 POP JUMP JUMPDEST PUSH1 0x0 PUSH1 0x40 MLOAD SWAP1 POP SWAP1 JUMP JUMPDEST PUSH1 0x0 PUSH8 0xFFFFFFFFFFFFFFFF DUP3 GT ISZERO PUSH2 0x2333 JUMPI PUSH2 0x2332 PUSH2 0x2582 JUMP JUMPDEST JUMPDEST PUSH2 0x233C DUP3 PUSH2 0x25B1 JUMP JUMPDEST SWAP1 POP PUSH1 0x20 DUP2 ADD SWAP1 POP SWAP2 SWAP1 POP JUMP JUMPDEST PUSH1 0x0 DUP2 SWAP1 POP PUSH1 0x20 DUP3 ADD SWAP1 POP SWAP2 SWAP1 POP JUMP JUMPDEST PUSH1 0x0 DUP2 MLOAD SWAP1 POP SWAP2 SWAP1 POP JUMP JUMPDEST PUSH1 0x0 DUP2 MLOAD SWAP1 POP SWAP2 SWAP1 POP JUMP JUMPDEST PUSH1 0x0 PUSH1 0x20 DUP3 ADD SWAP1 POP SWAP2 SWAP1 POP JUMP JUMPDEST PUSH1 0x0 DUP3 DUP3 MSTORE PUSH1 0x20 DUP3 ADD SWAP1 POP SWAP3 SWAP2 POP POP JUMP JUMPDEST PUSH1 0x0 DUP3 DUP3 MSTORE PUSH1 0x20 DUP3 ADD SWAP1 POP SWAP3 SWAP2 POP POP JUMP JUMPDEST PUSH1 0x0 DUP2 SWAP1 POP SWAP3 SWAP2 POP POP JUMP JUMPDEST PUSH1 0x0 PUSH2 0x23B4 DUP3 PUSH2 0x2447 JUMP JUMPDEST SWAP2 POP PUSH2 0x23BF DUP4 PUSH2 0x2447 JUMP JUMPDEST SWAP3 POP DUP3 PUSH32 0xFFFFFFFFFFFFFFFFFFFFFFFFFFFFFFFFFFFFFFFFFFFFFFFFFFFFFFFFFFFFFFFF SUB DUP3 GT ISZERO PUSH2 0x23F4 JUMPI PUSH2 0x23F3 PUSH2 0x2524 JUMP JUMPDEST JUMPDEST DUP3 DUP3 ADD SWAP1 POP SWAP3 SWAP2 POP POP JUMP JUMPDEST PUSH1 0x0 PUSH2 0x240A DUP3 PUSH2 0x2427 JUMP JUMPDEST SWAP1 POP SWAP2 SWAP1 POP JUMP JUMPDEST PUSH1 0x0 DUP2 ISZERO ISZERO SWAP1 POP SWAP2 SWAP1 POP JUMP JUMPDEST PUSH1 0x0 DUP2 SWAP1 POP SWAP2 SWAP1 POP JUMP JUMPDEST PUSH1 0x0 PUSH20 0xFFFFFFFFFFFFFFFFFFFFFFFFFFFFFFFFFFFFFFFF DUP3 AND SWAP1 POP SWAP2 SWAP1 POP JUMP JUMPDEST PUSH1 0x0 DUP2 SWAP1 POP SWAP2 SWAP1 POP JUMP JUMPDEST DUP3 DUP2 DUP4 CALLDATACOPY PUSH1 0x0 DUP4 DUP4 ADD MSTORE POP POP POP JUMP JUMPDEST PUSH1 0x0 JUMPDEST DUP4 DUP2 LT ISZERO PUSH2 0x247E JUMPI DUP1 DUP3 ADD MLOAD DUP2 DUP5 ADD MSTORE PUSH1 0x20 DUP2 ADD SWAP1 POP PUSH2 0x2463 JUMP JUMPDEST DUP4 DUP2 GT ISZERO PUSH2 0x248D JUMPI PUSH1 0x0 DUP5 DUP5 ADD MSTORE JUMPDEST POP POP POP POP JUMP JUMPDEST PUSH1 0x0 PUSH1 0x2 DUP3 DIV SWAP1 POP PUSH1 0x1 DUP3 AND DUP1 PUSH2 0x24AB JUMPI PUSH1 0x7F DUP3 AND SWAP2 POP JUMPDEST PUSH1 0x20 DUP3 LT DUP2 EQ ISZERO PUSH2 0x24BF JUMPI PUSH2 0x24BE PUSH2 0x2553 JUMP JUMPDEST JUMPDEST POP SWAP2 SWAP1 POP JUMP JUMPDEST PUSH2 0x24CE DUP3 PUSH2 0x25B1 JUMP JUMPDEST DUP2 ADD DUP2 DUP2 LT PUSH8 0xFFFFFFFFFFFFFFFF DUP3 GT OR ISZERO PUSH2 0x24ED JUMPI PUSH2 0x24EC PUSH2 0x2582 JUMP JUMPDEST JUMPDEST DUP1 PUSH1 0x40 MSTORE POP POP POP JUMP JUMPDEST PUSH1 0x0 PUSH2 0x2501 DUP3 PUSH2 0x2508 JUMP JUMPDEST SWAP1 POP SWAP2 SWAP1 POP JUMP JUMPDEST PUSH1 0x0 PUSH2 0x2513 DUP3 PUSH2 0x25C2 JUMP JUMPDEST SWAP1 POP SWAP2 SWAP1 POP JUMP JUMPDEST PUSH1 0x0 DUP2 SWAP1 POP SWAP2 SWAP1 POP JUMP JUMPDEST PUSH32 0x4E487B7100000000000000000000000000000000000000000000000000000000 PUSH1 0x0 MSTORE PUSH1 0x11 PUSH1 0x4 MSTORE PUSH1 0x24 PUSH1 0x0 REVERT JUMPDEST PUSH32 0x4E487B7100000000000000000000000000000000000000000000000000000000 PUSH1 0x0 MSTORE PUSH1 0x22 PUSH1 0x4 MSTORE PUSH1 0x24 PUSH1 0x0 REVERT JUMPDEST PUSH32 0x4E487B7100000000000000000000000000000000000000000000000000000000 PUSH1 0x0 MSTORE PUSH1 0x41 PUSH1 0x4 MSTORE PUSH1 0x24 PUSH1 0x0 REVERT JUMPDEST PUSH1 0x0 PUSH1 0x1F NOT PUSH1 0x1F DUP4 ADD AND SWAP1 POP SWAP2 SWAP1 POP JUMP JUMPDEST PUSH1 0x0 DUP2 PUSH1 0x60 SHL SWAP1 POP SWAP2 SWAP1 POP JUMP JUMPDEST PUSH32 0x796F7527726520616C7265616479206C6F67676564496E2E0000000000000000 PUSH1 0x0 DUP3 ADD MSTORE POP JUMP JUMPDEST PUSH32 0x637265617465206163636F756E74206669727374206F72206C6F67496E20746F PUSH1 0x0 DUP3 ADD MSTORE PUSH32 0x20796F7572206163636F756E742E000000000000000000000000000000000000 PUSH1 0x20 DUP3 ADD MSTORE POP JUMP JUMPDEST PUSH32 0x4C6F6720696E20746F20796F7572206163636F756E742E000000000000000000 PUSH1 0x0 DUP3 ADD MSTORE POP JUMP JUMPDEST PUSH32 0x75736572206E6F7420657869737465642C20637265617465206163636F756E74 PUSH1 0x0 DUP3 ADD MSTORE PUSH32 0x2066697273742E00000000000000000000000000000000000000000000000000 PUSH1 0x20 DUP3 ADD MSTORE POP JUMP JUMPDEST PUSH32 0x75736572206E6F7420657869737465642E000000000000000000000000000000 PUSH1 0x0 DUP3 ADD MSTORE POP JUMP JUMPDEST PUSH32 0x796F75277265206E6F74206C6F67676564496E2E000000000000000000000000 PUSH1 0x0 DUP3 ADD MSTORE POP JUMP JUMPDEST PUSH32 0x4C6F67696E20746F20796F7572206163636F756E742C20746F20736574207072 PUSH1 0x0 DUP3 ADD MSTORE PUSH32 0x6F66696C65207069632E00000000000000000000000000000000000000000000 PUSH1 0x20 DUP3 ADD MSTORE POP JUMP JUMPDEST PUSH32 0x75736572206E616D6520657869737465642E0000000000000000000000000000 PUSH1 0x0 DUP3 ADD MSTORE POP JUMP JUMPDEST PUSH32 0x7573657220657869737465642E00000000000000000000000000000000000000 PUSH1 0x0 DUP3 ADD MSTORE POP JUMP JUMPDEST PUSH2 0x27BB DUP2 PUSH2 0x23FF JUMP JUMPDEST DUP2 EQ PUSH2 0x27C6 JUMPI PUSH1 0x0 DUP1 REVERT JUMPDEST POP JUMP JUMPDEST PUSH2 0x27D2 DUP2 PUSH2 0x241D JUMP JUMPDEST DUP2 EQ PUSH2 0x27DD JUMPI PUSH1 0x0 DUP1 REVERT JUMPDEST POP JUMP JUMPDEST PUSH2 0x27E9 DUP2 PUSH2 0x2447 JUMP JUMPDEST DUP2 EQ PUSH2 0x27F4 JUMPI PUSH1 0x0 DUP1 REVERT JUMPDEST POP JUMP INVALID LOG2 PUSH5 0x6970667358 0x22 SLT KECCAK256 PUSH15 0xA4101313F477539A1ADC27F6CDEE5B STOP 0x2E CALL 0xF DUP14 DUP9 SWAP7 0xAF 0x49 CALLDATALOAD 0xA7 0xB9 0x5D DUP4 PUSH7 0x1064736F6C6343 STOP ADDMOD DIV STOP CALLER "
				},
				"gasEstimates": {
					"creation": {
						"codeDepositCost": "2057000",
						"executionCost": "infinite",
						"totalCost": "infinite"
					},
					"external": {
						"addressToAmountRecord(address)": "infinite",
						"checkLogIn(address)": "1699",
						"checkUser()": "infinite",
						"deleteUser()": "infinite",
						"getNftdata(bytes32)": "infinite",
						"getProfilePic()": "infinite",
						"getUniKeysMapping(address)": "infinite",
						"logIn()": "24623",
						"logOut()": "23716",
						"myNFTs(bytes32)": "infinite",
						"setAmountRecord(address,uint256,uint256,uint256,uint256)": "infinite",
						"setNftData(address,address,uint256,string)": "infinite",
						"setProfilePic(string)": "infinite",
						"signUp(string)": "infinite",
						"uniKeysMapping(address,uint256)": "2590",
						"updateUser(string)": "infinite",
						"userAmountDetail(address)": "infinite",
						"userNameToAddress(string)": "infinite"
					},
					"internal": {
						"getPrivateUniqueKey(address,uint256)": "infinite"
					}
				},
				"methodIdentifiers": {
					"addressToAmountRecord(address)": "7111e750",
					"checkLogIn(address)": "f6f2ede0",
					"checkUser()": "c1562547",
					"deleteUser()": "026ff05e",
					"getNftdata(bytes32)": "46064ab9",
					"getProfilePic()": "eb972008",
					"getUniKeysMapping(address)": "5cb0122a",
					"logIn()": "377b47a3",
					"logOut()": "4be422ae",
					"myNFTs(bytes32)": "07edbdc5",
					"setAmountRecord(address,uint256,uint256,uint256,uint256)": "894fd813",
					"setNftData(address,address,uint256,string)": "9efa528e",
					"setProfilePic(string)": "011f2cce",
					"signUp(string)": "adcfb4fc",
					"uniKeysMapping(address,uint256)": "23e583b4",
					"updateUser(string)": "0b4f12f6",
					"userAmountDetail(address)": "8a1b9736",
					"userNameToAddress(string)": "6c608709"
				}
			},
			"storageLayout": {
				"storage": [
					{
						"astId": 369,
						"contract": "Bluelight-MP/UserDashboard.sol:UserDashboard",
						"label": "waterMelonAddr",
						"offset": 0,
						"slot": "0",
						"type": "t_contract(IWaterMelon)310"
					},
					{
						"astId": 374,
						"contract": "Bluelight-MP/UserDashboard.sol:UserDashboard",
						"label": "myNFTs",
						"offset": 0,
						"slot": "1",
						"type": "t_mapping(t_bytes32,t_struct(MyNFT)346_storage)"
					},
					{
						"astId": 379,
						"contract": "Bluelight-MP/UserDashboard.sol:UserDashboard",
						"label": "uniKeysMapping",
						"offset": 0,
						"slot": "2",
						"type": "t_mapping(t_address,t_array(t_bytes32)dyn_storage)"
					},
					{
						"astId": 384,
						"contract": "Bluelight-MP/UserDashboard.sol:UserDashboard",
						"label": "users",
						"offset": 0,
						"slot": "3",
						"type": "t_mapping(t_address,t_struct(User)357_storage)"
					},
					{
						"astId": 388,
						"contract": "Bluelight-MP/UserDashboard.sol:UserDashboard",
						"label": "userNameToAddress",
						"offset": 0,
						"slot": "4",
						"type": "t_mapping(t_string_memory_ptr,t_address)"
					},
					{
						"astId": 393,
						"contract": "Bluelight-MP/UserDashboard.sol:UserDashboard",
						"label": "addressToAmountRecord",
						"offset": 0,
						"slot": "5",
						"type": "t_mapping(t_address,t_struct(AmountRecord)366_storage)"
					}
				],
				"types": {
					"t_address": {
						"encoding": "inplace",
						"label": "address",
						"numberOfBytes": "20"
					},
					"t_array(t_bytes32)dyn_storage": {
						"base": "t_bytes32",
						"encoding": "dynamic_array",
						"label": "bytes32[]",
						"numberOfBytes": "32"
					},
					"t_bool": {
						"encoding": "inplace",
						"label": "bool",
						"numberOfBytes": "1"
					},
					"t_bytes32": {
						"encoding": "inplace",
						"label": "bytes32",
						"numberOfBytes": "32"
					},
					"t_contract(IWaterMelon)310": {
						"encoding": "inplace",
						"label": "contract IWaterMelon",
						"numberOfBytes": "20"
					},
					"t_mapping(t_address,t_array(t_bytes32)dyn_storage)": {
						"encoding": "mapping",
						"key": "t_address",
						"label": "mapping(address => bytes32[])",
						"numberOfBytes": "32",
						"value": "t_array(t_bytes32)dyn_storage"
					},
					"t_mapping(t_address,t_struct(AmountRecord)366_storage)": {
						"encoding": "mapping",
						"key": "t_address",
						"label": "mapping(address => struct UserDashboard.AmountRecord)",
						"numberOfBytes": "32",
						"value": "t_struct(AmountRecord)366_storage"
					},
					"t_mapping(t_address,t_struct(User)357_storage)": {
						"encoding": "mapping",
						"key": "t_address",
						"label": "mapping(address => struct UserDashboard.User)",
						"numberOfBytes": "32",
						"value": "t_struct(User)357_storage"
					},
					"t_mapping(t_bytes32,t_struct(MyNFT)346_storage)": {
						"encoding": "mapping",
						"key": "t_bytes32",
						"label": "mapping(bytes32 => struct UserDashboard.MyNFT)",
						"numberOfBytes": "32",
						"value": "t_struct(MyNFT)346_storage"
					},
					"t_mapping(t_string_memory_ptr,t_address)": {
						"encoding": "mapping",
						"key": "t_string_memory_ptr",
						"label": "mapping(string => address)",
						"numberOfBytes": "32",
						"value": "t_address"
					},
					"t_string_memory_ptr": {
						"encoding": "bytes",
						"label": "string",
						"numberOfBytes": "32"
					},
					"t_string_storage": {
						"encoding": "bytes",
						"label": "string",
						"numberOfBytes": "32"
					},
					"t_struct(AmountRecord)366_storage": {
						"encoding": "inplace",
						"label": "struct UserDashboard.AmountRecord",
						"members": [
							{
								"astId": 359,
								"contract": "Bluelight-MP/UserDashboard.sol:UserDashboard",
								"label": "curAmountSpent",
								"offset": 0,
								"slot": "0",
								"type": "t_uint256"
							},
							{
								"astId": 361,
								"contract": "Bluelight-MP/UserDashboard.sol:UserDashboard",
								"label": "tokenAmountSpent",
								"offset": 0,
								"slot": "1",
								"type": "t_uint256"
							},
							{
								"astId": 363,
								"contract": "Bluelight-MP/UserDashboard.sol:UserDashboard",
								"label": "curAmountEarned",
								"offset": 0,
								"slot": "2",
								"type": "t_uint256"
							},
							{
								"astId": 365,
								"contract": "Bluelight-MP/UserDashboard.sol:UserDashboard",
								"label": "tokenAmountEarned",
								"offset": 0,
								"slot": "3",
								"type": "t_uint256"
							}
						],
						"numberOfBytes": "128"
					},
					"t_struct(MyNFT)346_storage": {
						"encoding": "inplace",
						"label": "struct UserDashboard.MyNFT",
						"members": [
							{
								"astId": 339,
								"contract": "Bluelight-MP/UserDashboard.sol:UserDashboard",
								"label": "contractAddress",
								"offset": 0,
								"slot": "0",
								"type": "t_address"
							},
							{
								"astId": 341,
								"contract": "Bluelight-MP/UserDashboard.sol:UserDashboard",
								"label": "tokenId",
								"offset": 0,
								"slot": "1",
								"type": "t_uint256"
							},
							{
								"astId": 343,
								"contract": "Bluelight-MP/UserDashboard.sol:UserDashboard",
								"label": "owner",
								"offset": 0,
								"slot": "2",
								"type": "t_address"
							},
							{
								"astId": 345,
								"contract": "Bluelight-MP/UserDashboard.sol:UserDashboard",
								"label": "ipfs",
								"offset": 0,
								"slot": "3",
								"type": "t_string_storage"
							}
						],
						"numberOfBytes": "128"
					},
					"t_struct(User)357_storage": {
						"encoding": "inplace",
						"label": "struct UserDashboard.User",
						"members": [
							{
								"astId": 348,
								"contract": "Bluelight-MP/UserDashboard.sol:UserDashboard",
								"label": "userName",
								"offset": 0,
								"slot": "0",
								"type": "t_string_storage"
							},
							{
								"astId": 350,
								"contract": "Bluelight-MP/UserDashboard.sol:UserDashboard",
								"label": "userExisted",
								"offset": 0,
								"slot": "1",
								"type": "t_bool"
							},
							{
								"astId": 352,
								"contract": "Bluelight-MP/UserDashboard.sol:UserDashboard",
								"label": "creationTime",
								"offset": 0,
								"slot": "2",
								"type": "t_uint256"
							},
							{
								"astId": 354,
								"contract": "Bluelight-MP/UserDashboard.sol:UserDashboard",
								"label": "loggedIn",
								"offset": 0,
								"slot": "3",
								"type": "t_bool"
							},
							{
								"astId": 356,
								"contract": "Bluelight-MP/UserDashboard.sol:UserDashboard",
								"label": "profilePic",
								"offset": 0,
								"slot": "4",
								"type": "t_string_storage"
							}
						],
						"numberOfBytes": "160"
					},
					"t_uint256": {
						"encoding": "inplace",
						"label": "uint256",
						"numberOfBytes": "32"
					}
				}
			},
			"userdoc": {
				"kind": "user",
				"methods": {},
				"version": 1
			}
		}
	}
}