{
	"Bluelight-MP/UserDashboard.sol": {
		"UserDashboard": {
			"abi": [
				{
					"inputs": [
						{
							"internalType": "address",
							"name": "_marketplace",
							"type": "address"
						}
					],
					"stateMutability": "nonpayable",
					"type": "constructor"
				},
				{
					"anonymous": false,
					"inputs": [
						{
							"indexed": true,
							"internalType": "address",
							"name": "user",
							"type": "address"
						},
						{
							"indexed": false,
							"internalType": "uint256",
							"name": "timeStamp",
							"type": "uint256"
						}
					],
					"name": "LoggingIn",
					"type": "event"
				},
				{
					"anonymous": false,
					"inputs": [
						{
							"indexed": true,
							"internalType": "address",
							"name": "user",
							"type": "address"
						},
						{
							"indexed": false,
							"internalType": "uint256",
							"name": "timeStamp",
							"type": "uint256"
						}
					],
					"name": "LoggingOut",
					"type": "event"
				},
				{
					"anonymous": false,
					"inputs": [
						{
							"indexed": true,
							"internalType": "address",
							"name": "user",
							"type": "address"
						},
						{
							"indexed": false,
							"internalType": "string",
							"name": "username",
							"type": "string"
						},
						{
							"indexed": false,
							"internalType": "uint256",
							"name": "timeStamp",
							"type": "uint256"
						}
					],
					"name": "SignUp",
					"type": "event"
				},
				{
					"inputs": [
						{
							"internalType": "address",
							"name": "",
							"type": "address"
						}
					],
					"name": "addressToAmountRecord",
					"outputs": [
						{
							"internalType": "uint256",
							"name": "curAmountSpent",
							"type": "uint256"
						},
						{
							"internalType": "uint256",
							"name": "tokenAmountSpent",
							"type": "uint256"
						},
						{
							"internalType": "uint256",
							"name": "curAmountEarned",
							"type": "uint256"
						},
						{
							"internalType": "uint256",
							"name": "tokenAmountEarned",
							"type": "uint256"
						}
					],
					"stateMutability": "view",
					"type": "function"
				},
				{
					"inputs": [
						{
							"internalType": "address",
							"name": "_userAddr",
							"type": "address"
						}
					],
					"name": "checkLogIn",
					"outputs": [
						{
							"internalType": "bool",
							"name": "",
							"type": "bool"
						}
					],
					"stateMutability": "view",
					"type": "function"
				},
				{
					"inputs": [],
					"name": "checkUser",
					"outputs": [
						{
							"internalType": "string",
							"name": "",
							"type": "string"
						}
					],
					"stateMutability": "view",
					"type": "function"
				},
				{
					"inputs": [],
					"name": "deleteUser",
					"outputs": [
						{
							"internalType": "bool",
							"name": "",
							"type": "bool"
						}
					],
					"stateMutability": "nonpayable",
					"type": "function"
				},
				{
					"inputs": [
						{
							"internalType": "enum UserDashboard.NftCategory",
							"name": "nftCat",
							"type": "uint8"
						}
					],
					"name": "getAllNftCatWise",
					"outputs": [
						{
							"internalType": "bytes32[]",
							"name": "",
							"type": "bytes32[]"
						}
					],
					"stateMutability": "view",
					"type": "function"
				},
				{
					"inputs": [
						{
							"internalType": "address",
							"name": "_nftContractAddress",
							"type": "address"
						},
						{
							"internalType": "uint256",
							"name": "_tokenId",
							"type": "uint256"
						}
					],
					"name": "getNft",
					"outputs": [
						{
							"internalType": "bytes32",
							"name": "uniKey",
							"type": "bytes32"
						},
						{
							"internalType": "address",
							"name": "nftContractAddress",
							"type": "address"
						},
						{
							"internalType": "uint256",
							"name": "tokenId",
							"type": "uint256"
						},
						{
							"internalType": "string",
							"name": "name",
							"type": "string"
						},
						{
							"internalType": "address",
							"name": "owner",
							"type": "address"
						},
						{
							"internalType": "string",
							"name": "iPFS",
							"type": "string"
						}
					],
					"stateMutability": "view",
					"type": "function"
				},
				{
					"inputs": [],
					"name": "getNftCategories",
					"outputs": [
						{
							"internalType": "string",
							"name": "",
							"type": "string"
						},
						{
							"internalType": "string",
							"name": "",
							"type": "string"
						},
						{
							"internalType": "string",
							"name": "",
							"type": "string"
						},
						{
							"internalType": "string",
							"name": "",
							"type": "string"
						},
						{
							"internalType": "string",
							"name": "",
							"type": "string"
						},
						{
							"internalType": "string",
							"name": "",
							"type": "string"
						},
						{
							"internalType": "string",
							"name": "",
							"type": "string"
						}
					],
					"stateMutability": "pure",
					"type": "function"
				},
				{
					"inputs": [
						{
							"internalType": "bytes32",
							"name": "_uniKey",
							"type": "bytes32"
						}
					],
					"name": "getNftWithBytes32",
					"outputs": [
						{
							"internalType": "string",
							"name": "_name",
							"type": "string"
						},
						{
							"internalType": "address",
							"name": "nftContractAddress",
							"type": "address"
						},
						{
							"internalType": "uint256",
							"name": "tokenId",
							"type": "uint256"
						},
						{
							"internalType": "address",
							"name": "owner",
							"type": "address"
						},
						{
							"internalType": "string",
							"name": "iPFS",
							"type": "string"
						}
					],
					"stateMutability": "view",
					"type": "function"
				},
				{
					"inputs": [],
					"name": "getProfilePic",
					"outputs": [
						{
							"internalType": "string",
							"name": "ipfs",
							"type": "string"
						}
					],
					"stateMutability": "view",
					"type": "function"
				},
				{
					"inputs": [
						{
							"internalType": "address",
							"name": "ownerOfNfts",
							"type": "address"
						}
					],
					"name": "getUniKeysMapping",
					"outputs": [
						{
							"internalType": "bytes32[]",
							"name": "",
							"type": "bytes32[]"
						}
					],
					"stateMutability": "view",
					"type": "function"
				},
				{
					"inputs": [
						{
							"internalType": "enum UserDashboard.NftCategory",
							"name": "nftCat",
							"type": "uint8"
						}
					],
					"name": "getUserNftCatWise",
					"outputs": [
						{
							"internalType": "bytes32[]",
							"name": "",
							"type": "bytes32[]"
						}
					],
					"stateMutability": "view",
					"type": "function"
				},
				{
					"inputs": [],
					"name": "logIn",
					"outputs": [],
					"stateMutability": "nonpayable",
					"type": "function"
				},
				{
					"inputs": [],
					"name": "logOut",
					"outputs": [],
					"stateMutability": "nonpayable",
					"type": "function"
				},
				{
					"inputs": [
						{
							"internalType": "bytes32",
							"name": "",
							"type": "bytes32"
						}
					],
					"name": "myNFTs",
					"outputs": [
						{
							"internalType": "string",
							"name": "nftName",
							"type": "string"
						},
						{
							"internalType": "address",
							"name": "contractAddress",
							"type": "address"
						},
						{
							"internalType": "uint256",
							"name": "tokenId",
							"type": "uint256"
						},
						{
							"internalType": "address",
							"name": "owner",
							"type": "address"
						},
						{
							"internalType": "string",
							"name": "ipfs",
							"type": "string"
						},
						{
							"internalType": "enum UserDashboard.NftCategory",
							"name": "nftCategory",
							"type": "uint8"
						}
					],
					"stateMutability": "view",
					"type": "function"
				},
				{
					"inputs": [
						{
							"internalType": "enum UserDashboard.NftCategory",
							"name": "",
							"type": "uint8"
						},
						{
							"internalType": "uint256",
							"name": "",
							"type": "uint256"
						}
					],
					"name": "nftCatWise",
					"outputs": [
						{
							"internalType": "bytes32",
							"name": "",
							"type": "bytes32"
						}
					],
					"stateMutability": "view",
					"type": "function"
				},
				{
					"inputs": [
						{
							"internalType": "address",
							"name": "user",
							"type": "address"
						},
						{
							"internalType": "uint256",
							"name": "curAmountSpent",
							"type": "uint256"
						},
						{
							"internalType": "uint256",
							"name": "tokenAmountSpent",
							"type": "uint256"
						},
						{
							"internalType": "uint256",
							"name": "curAmountEarned",
							"type": "uint256"
						},
						{
							"internalType": "uint256",
							"name": "tokenAmountEarned",
							"type": "uint256"
						}
					],
					"name": "setAmountRecord",
					"outputs": [],
					"stateMutability": "nonpayable",
					"type": "function"
				},
				{
					"inputs": [
						{
							"internalType": "address",
							"name": "_marketplace",
							"type": "address"
						},
						{
							"internalType": "address",
							"name": "newOwner",
							"type": "address"
						},
						{
							"internalType": "bytes32",
							"name": "uniKey",
							"type": "bytes32"
						}
					],
					"name": "setBuyNftData",
					"outputs": [],
					"stateMutability": "nonpayable",
					"type": "function"
				},
				{
					"inputs": [
						{
							"internalType": "string",
							"name": "_name",
							"type": "string"
						},
						{
							"internalType": "address",
							"name": "nftContractAddress",
							"type": "address"
						},
						{
							"internalType": "uint256",
							"name": "tokenId",
							"type": "uint256"
						},
						{
							"internalType": "string",
							"name": "iPFS",
							"type": "string"
						}
					],
					"name": "setNft",
					"outputs": [],
					"stateMutability": "nonpayable",
					"type": "function"
				},
				{
					"inputs": [
						{
							"internalType": "address",
							"name": "nftContractAddress",
							"type": "address"
						},
						{
							"internalType": "uint256",
							"name": "tokenId",
							"type": "uint256"
						},
						{
							"internalType": "enum UserDashboard.NftCategory",
							"name": "nftCat",
							"type": "uint8"
						}
					],
					"name": "setNftCat",
					"outputs": [],
					"stateMutability": "nonpayable",
					"type": "function"
				},
				{
					"inputs": [
						{
							"internalType": "string",
							"name": "iPFS",
							"type": "string"
						}
					],
					"name": "setProfilePic",
					"outputs": [],
					"stateMutability": "nonpayable",
					"type": "function"
				},
				{
					"inputs": [
						{
							"internalType": "string",
							"name": "_userName",
							"type": "string"
						}
					],
					"name": "signUp",
					"outputs": [],
					"stateMutability": "nonpayable",
					"type": "function"
				},
				{
					"inputs": [
						{
							"internalType": "address",
							"name": "",
							"type": "address"
						},
						{
							"internalType": "uint256",
							"name": "",
							"type": "uint256"
						}
					],
					"name": "uniKeysMapping",
					"outputs": [
						{
							"internalType": "bytes32",
							"name": "",
							"type": "bytes32"
						}
					],
					"stateMutability": "view",
					"type": "function"
				},
				{
					"inputs": [
						{
							"internalType": "string",
							"name": "_userName",
							"type": "string"
						}
					],
					"name": "updateUser",
					"outputs": [],
					"stateMutability": "nonpayable",
					"type": "function"
				},
				{
					"inputs": [
						{
							"internalType": "address",
							"name": "user",
							"type": "address"
						}
					],
					"name": "userAmountDetail",
					"outputs": [
						{
							"internalType": "uint256",
							"name": "currencyEarned",
							"type": "uint256"
						},
						{
							"internalType": "uint256",
							"name": "earnedToken",
							"type": "uint256"
						},
						{
							"internalType": "uint256",
							"name": "currencySpent",
							"type": "uint256"
						},
						{
							"internalType": "uint256",
							"name": "tokenSpent",
							"type": "uint256"
						}
					],
					"stateMutability": "view",
					"type": "function"
				},
				{
					"inputs": [
						{
							"internalType": "string",
							"name": "",
							"type": "string"
						}
					],
					"name": "userNameToAddress",
					"outputs": [
						{
							"internalType": "address",
							"name": "",
							"type": "address"
						}
					],
					"stateMutability": "view",
					"type": "function"
				},
				{
					"inputs": [
						{
							"internalType": "address",
							"name": "",
							"type": "address"
						},
						{
							"internalType": "enum UserDashboard.NftCategory",
							"name": "",
							"type": "uint8"
						},
						{
							"internalType": "uint256",
							"name": "",
							"type": "uint256"
						}
					],
					"name": "userNftCatWise",
					"outputs": [
						{
							"internalType": "bytes32",
							"name": "",
							"type": "bytes32"
						}
					],
					"stateMutability": "view",
					"type": "function"
				}
			],
			"devdoc": {
				"kind": "dev",
				"methods": {},
				"version": 1
			},
			"evm": {
				"assembly": "    /* \"Bluelight-MP/UserDashboard.sol\":173:8517  contract UserDashboard is IUserDashboard, Helper{\r... */\n  mstore(0x40, 0x80)\n    /* \"Bluelight-MP/UserDashboard.sol\":1936:2027  constructor(address _marketplace){\r... */\n  callvalue\n  dup1\n  iszero\n  tag_1\n  jumpi\n  0x00\n  dup1\n  revert\ntag_1:\n  pop\n  mload(0x40)\n  sub(codesize, bytecodeSize)\n  dup1\n  bytecodeSize\n  dup4\n  codecopy\n  dup2\n  dup2\n  add\n  0x40\n  mstore\n  dup2\n  add\n  swap1\n  tag_2\n  swap2\n  swap1\n  tag_3\n  jump\t// in\ntag_2:\n    /* \"Bluelight-MP/UserDashboard.sol\":2006:2018  _marketplace */\n  dup1\n    /* \"Bluelight-MP/UserDashboard.sol\":1980:1991  marketplace */\n  0x00\n  dup1\n    /* \"Bluelight-MP/UserDashboard.sol\":1980:2019  marketplace = IWaterMelon(_marketplace) */\n  0x0100\n  exp\n  dup2\n  sload\n  dup2\n  0xffffffffffffffffffffffffffffffffffffffff\n  mul\n  not\n  and\n  swap1\n  dup4\n  0xffffffffffffffffffffffffffffffffffffffff\n  and\n  mul\n  or\n  swap1\n  sstore\n  pop\n    /* \"Bluelight-MP/UserDashboard.sol\":1936:2027  constructor(address _marketplace){\r... */\n  pop\n    /* \"Bluelight-MP/UserDashboard.sol\":173:8517  contract UserDashboard is IUserDashboard, Helper{\r... */\n  jump(tag_6)\n    /* \"#utility.yul\":7:150   */\ntag_8:\n    /* \"#utility.yul\":64:69   */\n  0x00\n    /* \"#utility.yul\":95:101   */\n  dup2\n    /* \"#utility.yul\":89:102   */\n  mload\n    /* \"#utility.yul\":80:102   */\n  swap1\n  pop\n    /* \"#utility.yul\":111:144   */\n  tag_10\n    /* \"#utility.yul\":138:143   */\n  dup2\n    /* \"#utility.yul\":111:144   */\n  tag_11\n  jump\t// in\ntag_10:\n    /* \"#utility.yul\":70:150   */\n  swap3\n  swap2\n  pop\n  pop\n  jump\t// out\n    /* \"#utility.yul\":156:440   */\ntag_3:\n    /* \"#utility.yul\":226:232   */\n  0x00\n    /* \"#utility.yul\":275:277   */\n  0x20\n    /* \"#utility.yul\":263:272   */\n  dup3\n    /* \"#utility.yul\":254:261   */\n  dup5\n    /* \"#utility.yul\":250:273   */\n  sub\n    /* \"#utility.yul\":246:278   */\n  slt\n    /* \"#utility.yul\":243:245   */\n  iszero\n  tag_13\n  jumpi\n    /* \"#utility.yul\":291:292   */\n  0x00\n    /* \"#utility.yul\":288:289   */\n  dup1\n    /* \"#utility.yul\":281:293   */\n  revert\n    /* \"#utility.yul\":243:245   */\ntag_13:\n    /* \"#utility.yul\":334:335   */\n  0x00\n    /* \"#utility.yul\":359:423   */\n  tag_14\n    /* \"#utility.yul\":415:422   */\n  dup5\n    /* \"#utility.yul\":406:412   */\n  dup3\n    /* \"#utility.yul\":395:404   */\n  dup6\n    /* \"#utility.yul\":391:413   */\n  add\n    /* \"#utility.yul\":359:423   */\n  tag_8\n  jump\t// in\ntag_14:\n    /* \"#utility.yul\":349:423   */\n  swap2\n  pop\n    /* \"#utility.yul\":305:433   */\n  pop\n    /* \"#utility.yul\":233:440   */\n  swap3\n  swap2\n  pop\n  pop\n  jump\t// out\n    /* \"#utility.yul\":446:542   */\ntag_15:\n    /* \"#utility.yul\":483:490   */\n  0x00\n    /* \"#utility.yul\":512:536   */\n  tag_17\n    /* \"#utility.yul\":530:535   */\n  dup3\n    /* \"#utility.yul\":512:536   */\n  tag_18\n  jump\t// in\ntag_17:\n    /* \"#utility.yul\":501:536   */\n  swap1\n  pop\n    /* \"#utility.yul\":491:542   */\n  swap2\n  swap1\n  pop\n  jump\t// out\n    /* \"#utility.yul\":548:674   */\ntag_18:\n    /* \"#utility.yul\":585:592   */\n  0x00\n    /* \"#utility.yul\":625:667   */\n  0xffffffffffffffffffffffffffffffffffffffff\n    /* \"#utility.yul\":618:623   */\n  dup3\n    /* \"#utility.yul\":614:668   */\n  and\n    /* \"#utility.yul\":603:668   */\n  swap1\n  pop\n    /* \"#utility.yul\":593:674   */\n  swap2\n  swap1\n  pop\n  jump\t// out\n    /* \"#utility.yul\":680:802   */\ntag_11:\n    /* \"#utility.yul\":753:777   */\n  tag_21\n    /* \"#utility.yul\":771:776   */\n  dup2\n    /* \"#utility.yul\":753:777   */\n  tag_15\n  jump\t// in\ntag_21:\n    /* \"#utility.yul\":746:751   */\n  dup2\n    /* \"#utility.yul\":743:778   */\n  eq\n    /* \"#utility.yul\":733:735   */\n  tag_22\n  jumpi\n    /* \"#utility.yul\":792:793   */\n  0x00\n    /* \"#utility.yul\":789:790   */\n  dup1\n    /* \"#utility.yul\":782:794   */\n  revert\n    /* \"#utility.yul\":733:735   */\ntag_22:\n    /* \"#utility.yul\":723:802   */\n  pop\n  jump\t// out\n    /* \"Bluelight-MP/UserDashboard.sol\":173:8517  contract UserDashboard is IUserDashboard, Helper{\r... */\ntag_6:\n  dataSize(sub_0)\n  dup1\n  dataOffset(sub_0)\n  0x00\n  codecopy\n  0x00\n  return\nstop\n\nsub_0: assembly {\n        /* \"Bluelight-MP/UserDashboard.sol\":173:8517  contract UserDashboard is IUserDashboard, Helper{\r... */\n      mstore(0x40, 0x80)\n      callvalue\n      dup1\n      iszero\n      tag_1\n      jumpi\n      0x00\n      dup1\n      revert\n    tag_1:\n      pop\n      jumpi(tag_2, lt(calldatasize, 0x04))\n      shr(0xe0, calldataload(0x00))\n      dup1\n      0x7111e750\n      gt\n      tag_29\n      jumpi\n      dup1\n      0xc1562547\n      gt\n      tag_30\n      jumpi\n      dup1\n      0xdc9151c5\n      gt\n      tag_31\n      jumpi\n      dup1\n      0xdc9151c5\n      eq\n      tag_25\n      jumpi\n      dup1\n      0xe36d6f50\n      eq\n      tag_26\n      jumpi\n      dup1\n      0xeb972008\n      eq\n      tag_27\n      jumpi\n      dup1\n      0xf6f2ede0\n      eq\n      tag_28\n      jumpi\n      jump(tag_2)\n    tag_31:\n      dup1\n      0xc1562547\n      eq\n      tag_22\n      jumpi\n      dup1\n      0xceda3b20\n      eq\n      tag_23\n      jumpi\n      dup1\n      0xda31f722\n      eq\n      tag_24\n      jumpi\n      jump(tag_2)\n    tag_30:\n      dup1\n      0x7111e750\n      eq\n      tag_16\n      jumpi\n      dup1\n      0x894fd813\n      eq\n      tag_17\n      jumpi\n      dup1\n      0x8a1b9736\n      eq\n      tag_18\n      jumpi\n      dup1\n      0xadcfb4fc\n      eq\n      tag_19\n      jumpi\n      dup1\n      0xb2cf1886\n      eq\n      tag_20\n      jumpi\n      dup1\n      0xbbc53ef2\n      eq\n      tag_21\n      jumpi\n      jump(tag_2)\n    tag_29:\n      dup1\n      0x2ae23109\n      gt\n      tag_32\n      jumpi\n      dup1\n      0x4be422ae\n      gt\n      tag_33\n      jumpi\n      dup1\n      0x4be422ae\n      eq\n      tag_12\n      jumpi\n      dup1\n      0x5cb0122a\n      eq\n      tag_13\n      jumpi\n      dup1\n      0x6c608709\n      eq\n      tag_14\n      jumpi\n      dup1\n      0x6e9d4f8d\n      eq\n      tag_15\n      jumpi\n      jump(tag_2)\n    tag_33:\n      dup1\n      0x2ae23109\n      eq\n      tag_9\n      jumpi\n      dup1\n      0x377b47a3\n      eq\n      tag_10\n      jumpi\n      dup1\n      0x3a196986\n      eq\n      tag_11\n      jumpi\n      jump(tag_2)\n    tag_32:\n      dup1\n      0x011f2cce\n      eq\n      tag_3\n      jumpi\n      dup1\n      0x026ff05e\n      eq\n      tag_4\n      jumpi\n      dup1\n      0x07edbdc5\n      eq\n      tag_5\n      jumpi\n      dup1\n      0x0b4f12f6\n      eq\n      tag_6\n      jumpi\n      dup1\n      0x1c6932b6\n      eq\n      tag_7\n      jumpi\n      dup1\n      0x23e583b4\n      eq\n      tag_8\n      jumpi\n    tag_2:\n      0x00\n      dup1\n      revert\n        /* \"Bluelight-MP/UserDashboard.sol\":6524:6698  function setProfilePic(string memory iPFS) external {\r... */\n    tag_3:\n      tag_34\n      0x04\n      dup1\n      calldatasize\n      sub\n      dup2\n      add\n      swap1\n      tag_35\n      swap2\n      swap1\n      tag_36\n      jump\t// in\n    tag_35:\n      tag_37\n      jump\t// in\n    tag_34:\n      stop\n        /* \"Bluelight-MP/UserDashboard.sol\":7341:7634  function deleteUser() external virtual override returns(bool){\r... */\n    tag_4:\n      tag_38\n      tag_39\n      jump\t// in\n    tag_38:\n      mload(0x40)\n      tag_40\n      swap2\n      swap1\n      tag_41\n      jump\t// in\n    tag_40:\n      mload(0x40)\n      dup1\n      swap2\n      sub\n      swap1\n      return\n        /* \"Bluelight-MP/UserDashboard.sol\":833:873  mapping (bytes32 => MyNFT) public myNFTs */\n    tag_5:\n      tag_42\n      0x04\n      dup1\n      calldatasize\n      sub\n      dup2\n      add\n      swap1\n      tag_43\n      swap2\n      swap1\n      tag_44\n      jump\t// in\n    tag_43:\n      tag_45\n      jump\t// in\n    tag_42:\n      mload(0x40)\n      tag_46\n      swap7\n      swap6\n      swap5\n      swap4\n      swap3\n      swap2\n      swap1\n      tag_47\n      jump\t// in\n    tag_46:\n      mload(0x40)\n      dup1\n      swap2\n      sub\n      swap1\n      return\n        /* \"Bluelight-MP/UserDashboard.sol\":6903:7335  function updateUser(string memory _userName) external virtual override{\r... */\n    tag_6:\n      tag_48\n      0x04\n      dup1\n      calldatasize\n      sub\n      dup2\n      add\n      swap1\n      tag_49\n      swap2\n      swap1\n      tag_36\n      jump\t// in\n    tag_49:\n      tag_50\n      jump\t// in\n    tag_48:\n      stop\n        /* \"Bluelight-MP/UserDashboard.sol\":4374:4853  function getNft(address _nftContractAddress, uint256 _tokenId) external virtual override view \r... */\n    tag_7:\n      tag_51\n      0x04\n      dup1\n      calldatasize\n      sub\n      dup2\n      add\n      swap1\n      tag_52\n      swap2\n      swap1\n      tag_53\n      jump\t// in\n    tag_52:\n      tag_54\n      jump\t// in\n    tag_51:\n      mload(0x40)\n      tag_55\n      swap7\n      swap6\n      swap5\n      swap4\n      swap3\n      swap2\n      swap1\n      tag_56\n      jump\t// in\n    tag_55:\n      mload(0x40)\n      dup1\n      swap2\n      sub\n      swap1\n      return\n        /* \"Bluelight-MP/UserDashboard.sol\":880:932  mapping (address => bytes32[]) public uniKeysMapping */\n    tag_8:\n      tag_57\n      0x04\n      dup1\n      calldatasize\n      sub\n      dup2\n      add\n      swap1\n      tag_58\n      swap2\n      swap1\n      tag_53\n      jump\t// in\n    tag_58:\n      tag_59\n      jump\t// in\n    tag_57:\n      mload(0x40)\n      tag_60\n      swap2\n      swap1\n      tag_61\n      jump\t// in\n    tag_60:\n      mload(0x40)\n      dup1\n      swap2\n      sub\n      swap1\n      return\n        /* \"Bluelight-MP/UserDashboard.sol\":2601:3033  function setNftCat(address nftContractAddress, uint256 tokenId, NftCategory nftCat) external {\r... */\n    tag_9:\n      tag_62\n      0x04\n      dup1\n      calldatasize\n      sub\n      dup2\n      add\n      swap1\n      tag_63\n      swap2\n      swap1\n      tag_64\n      jump\t// in\n    tag_63:\n      tag_65\n      jump\t// in\n    tag_62:\n      stop\n        /* \"Bluelight-MP/UserDashboard.sol\":5202:5482  function logIn() virtual override external {\r... */\n    tag_10:\n      tag_66\n      tag_67\n      jump\t// in\n    tag_66:\n      stop\n        /* \"Bluelight-MP/UserDashboard.sol\":3966:4362  function getNftWithBytes32(bytes32 _uniKey) external virtual override view \r... */\n    tag_11:\n      tag_68\n      0x04\n      dup1\n      calldatasize\n      sub\n      dup2\n      add\n      swap1\n      tag_69\n      swap2\n      swap1\n      tag_44\n      jump\t// in\n    tag_69:\n      tag_70\n      jump\t// in\n    tag_68:\n      mload(0x40)\n      tag_71\n      swap6\n      swap5\n      swap4\n      swap3\n      swap2\n      swap1\n      tag_72\n      jump\t// in\n    tag_71:\n      mload(0x40)\n      dup1\n      swap2\n      sub\n      swap1\n      return\n        /* \"Bluelight-MP/UserDashboard.sol\":5631:5861  function logOut() external virtual override{\r... */\n    tag_12:\n      tag_73\n      tag_74\n      jump\t// in\n    tag_73:\n      stop\n        /* \"Bluelight-MP/UserDashboard.sol\":4859:4999  function getUniKeysMapping(address ownerOfNfts) external view returns(bytes32[] memory){\r... */\n    tag_13:\n      tag_75\n      0x04\n      dup1\n      calldatasize\n      sub\n      dup2\n      add\n      swap1\n      tag_76\n      swap2\n      swap1\n      tag_77\n      jump\t// in\n    tag_76:\n      tag_78\n      jump\t// in\n    tag_75:\n      mload(0x40)\n      tag_79\n      swap2\n      swap1\n      tag_80\n      jump\t// in\n    tag_79:\n      mload(0x40)\n      dup1\n      swap2\n      sub\n      swap1\n      return\n        /* \"Bluelight-MP/UserDashboard.sol\":1149:1201  mapping (string => address) public userNameToAddress */\n    tag_14:\n      tag_81\n      0x04\n      dup1\n      calldatasize\n      sub\n      dup2\n      add\n      swap1\n      tag_82\n      swap2\n      swap1\n      tag_36\n      jump\t// in\n    tag_82:\n      tag_83\n      jump\t// in\n    tag_81:\n      mload(0x40)\n      tag_84\n      swap2\n      swap1\n      tag_85\n      jump\t// in\n    tag_84:\n      mload(0x40)\n      dup1\n      swap2\n      sub\n      swap1\n      return\n        /* \"Bluelight-MP/UserDashboard.sol\":2033:2595  function setNft(string memory _name, address nftContractAddress, uint256 tokenId, string memory iPFS) external virtual override{\r... */\n    tag_15:\n      tag_86\n      0x04\n      dup1\n      calldatasize\n      sub\n      dup2\n      add\n      swap1\n      tag_87\n      swap2\n      swap1\n      tag_88\n      jump\t// in\n    tag_87:\n      tag_89\n      jump\t// in\n    tag_86:\n      stop\n        /* \"Bluelight-MP/UserDashboard.sol\":1248:1310  mapping (address => AmountRecord) public addressToAmountRecord */\n    tag_16:\n      tag_90\n      0x04\n      dup1\n      calldatasize\n      sub\n      dup2\n      add\n      swap1\n      tag_91\n      swap2\n      swap1\n      tag_77\n      jump\t// in\n    tag_91:\n      tag_92\n      jump\t// in\n    tag_90:\n      mload(0x40)\n      tag_93\n      swap5\n      swap4\n      swap3\n      swap2\n      swap1\n      tag_94\n      jump\t// in\n    tag_93:\n      mload(0x40)\n      dup1\n      swap2\n      sub\n      swap1\n      return\n        /* \"Bluelight-MP/UserDashboard.sol\":7640:8098  function setAmountRecord(address user, uint curAmountSpent, uint tokenAmountSpent, uint curAmountEarned, uint tokenAmountEarned) external virtual override{\r... */\n    tag_17:\n      tag_95\n      0x04\n      dup1\n      calldatasize\n      sub\n      dup2\n      add\n      swap1\n      tag_96\n      swap2\n      swap1\n      tag_97\n      jump\t// in\n    tag_96:\n      tag_98\n      jump\t// in\n    tag_95:\n      stop\n        /* \"Bluelight-MP/UserDashboard.sol\":8104:8514  function userAmountDetail(address user) external virtual override view \r... */\n    tag_18:\n      tag_99\n      0x04\n      dup1\n      calldatasize\n      sub\n      dup2\n      add\n      swap1\n      tag_100\n      swap2\n      swap1\n      tag_77\n      jump\t// in\n    tag_100:\n      tag_101\n      jump\t// in\n    tag_99:\n      mload(0x40)\n      tag_102\n      swap5\n      swap4\n      swap3\n      swap2\n      swap1\n      tag_94\n      jump\t// in\n    tag_102:\n      mload(0x40)\n      dup1\n      swap2\n      sub\n      swap1\n      return\n        /* \"Bluelight-MP/UserDashboard.sol\":5867:6518  function signUp(string memory _userName) external virtual override{\r... */\n    tag_19:\n      tag_103\n      0x04\n      dup1\n      calldatasize\n      sub\n      dup2\n      add\n      swap1\n      tag_104\n      swap2\n      swap1\n      tag_36\n      jump\t// in\n    tag_104:\n      tag_105\n      jump\t// in\n    tag_103:\n      stop\n        /* \"Bluelight-MP/UserDashboard.sol\":939:991  mapping (NftCategory => bytes32[]) public nftCatWise */\n    tag_20:\n      tag_106\n      0x04\n      dup1\n      calldatasize\n      sub\n      dup2\n      add\n      swap1\n      tag_107\n      swap2\n      swap1\n      tag_108\n      jump\t// in\n    tag_107:\n      tag_109\n      jump\t// in\n    tag_106:\n      mload(0x40)\n      tag_110\n      swap2\n      swap1\n      tag_61\n      jump\t// in\n    tag_110:\n      mload(0x40)\n      dup1\n      swap2\n      sub\n      swap1\n      return\n        /* \"Bluelight-MP/UserDashboard.sol\":3702:3960  function getNftCategories() external pure returns(string memory,string memory,string memory,string memory,string memory,string memory,string memory) {\r... */\n    tag_21:\n      tag_111\n      tag_112\n      jump\t// in\n    tag_111:\n      mload(0x40)\n      tag_113\n      swap8\n      swap7\n      swap6\n      swap5\n      swap4\n      swap3\n      swap2\n      swap1\n      tag_114\n      jump\t// in\n    tag_113:\n      mload(0x40)\n      dup1\n      swap2\n      sub\n      swap1\n      return\n        /* \"Bluelight-MP/UserDashboard.sol\":6704:6897  function checkUser() external virtual override view returns(string memory){\r... */\n    tag_22:\n      tag_115\n      tag_116\n      jump\t// in\n    tag_115:\n      mload(0x40)\n      tag_117\n      swap2\n      swap1\n      tag_118\n      jump\t// in\n    tag_117:\n      mload(0x40)\n      dup1\n      swap2\n      sub\n      swap1\n      return\n        /* \"Bluelight-MP/UserDashboard.sol\":3039:3335  function setBuyNftData(address _marketplace, address newOwner, bytes32 uniKey) external virtual override{\r... */\n    tag_23:\n      tag_119\n      0x04\n      dup1\n      calldatasize\n      sub\n      dup2\n      add\n      swap1\n      tag_120\n      swap2\n      swap1\n      tag_121\n      jump\t// in\n    tag_120:\n      tag_122\n      jump\t// in\n    tag_119:\n      stop\n        /* \"Bluelight-MP/UserDashboard.sol\":3550:3696  function getUserNftCatWise(NftCategory nftCat) external view returns(bytes32[] memory){\r... */\n    tag_24:\n      tag_123\n      0x04\n      dup1\n      calldatasize\n      sub\n      dup2\n      add\n      swap1\n      tag_124\n      swap2\n      swap1\n      tag_125\n      jump\t// in\n    tag_124:\n      tag_126\n      jump\t// in\n    tag_123:\n      mload(0x40)\n      tag_127\n      swap2\n      swap1\n      tag_80\n      jump\t// in\n    tag_127:\n      mload(0x40)\n      dup1\n      swap2\n      sub\n      swap1\n      return\n        /* \"Bluelight-MP/UserDashboard.sol\":998:1075  mapping (address => mapping (NftCategory => bytes32[])) public userNftCatWise */\n    tag_25:\n      tag_128\n      0x04\n      dup1\n      calldatasize\n      sub\n      dup2\n      add\n      swap1\n      tag_129\n      swap2\n      swap1\n      tag_130\n      jump\t// in\n    tag_129:\n      tag_131\n      jump\t// in\n    tag_128:\n      mload(0x40)\n      tag_132\n      swap2\n      swap1\n      tag_61\n      jump\t// in\n    tag_132:\n      mload(0x40)\n      dup1\n      swap2\n      sub\n      swap1\n      return\n        /* \"Bluelight-MP/UserDashboard.sol\":3415:3544  function getAllNftCatWise(NftCategory nftCat) external view returns(bytes32[] memory){\r... */\n    tag_26:\n      tag_133\n      0x04\n      dup1\n      calldatasize\n      sub\n      dup2\n      add\n      swap1\n      tag_134\n      swap2\n      swap1\n      tag_125\n      jump\t// in\n    tag_134:\n      tag_135\n      jump\t// in\n    tag_133:\n      mload(0x40)\n      tag_136\n      swap2\n      swap1\n      tag_80\n      jump\t// in\n    tag_136:\n      mload(0x40)\n      dup1\n      swap2\n      sub\n      swap1\n      return\n        /* \"Bluelight-MP/UserDashboard.sol\":5005:5125  function getProfilePic() external view returns(string memory ipfs){\r... */\n    tag_27:\n      tag_137\n      tag_138\n      jump\t// in\n    tag_137:\n      mload(0x40)\n      tag_139\n      swap2\n      swap1\n      tag_118\n      jump\t// in\n    tag_139:\n      mload(0x40)\n      dup1\n      swap2\n      sub\n      swap1\n      return\n        /* \"Bluelight-MP/UserDashboard.sol\":5489:5625  function checkLogIn(address _userAddr) external virtual override view returns(bool){  \r... */\n    tag_28:\n      tag_140\n      0x04\n      dup1\n      calldatasize\n      sub\n      dup2\n      add\n      swap1\n      tag_141\n      swap2\n      swap1\n      tag_77\n      jump\t// in\n    tag_141:\n      tag_142\n      jump\t// in\n    tag_140:\n      mload(0x40)\n      tag_143\n      swap2\n      swap1\n      tag_41\n      jump\t// in\n    tag_143:\n      mload(0x40)\n      dup1\n      swap2\n      sub\n      swap1\n      return\n        /* \"Bluelight-MP/UserDashboard.sol\":6524:6698  function setProfilePic(string memory iPFS) external {\r... */\n    tag_37:\n        /* \"Bluelight-MP/UserDashboard.sol\":6596:6601  users */\n      0x05\n        /* \"Bluelight-MP/UserDashboard.sol\":6596:6613  users[msg.sender] */\n      0x00\n        /* \"Bluelight-MP/UserDashboard.sol\":6602:6612  msg.sender */\n      caller\n        /* \"Bluelight-MP/UserDashboard.sol\":6596:6613  users[msg.sender] */\n      0xffffffffffffffffffffffffffffffffffffffff\n      and\n      0xffffffffffffffffffffffffffffffffffffffff\n      and\n      dup2\n      mstore\n      0x20\n      add\n      swap1\n      dup2\n      mstore\n      0x20\n      add\n      0x00\n      keccak256\n        /* \"Bluelight-MP/UserDashboard.sol\":6596:6622  users[msg.sender].loggedIn */\n      0x03\n      add\n      0x00\n      swap1\n      sload\n      swap1\n      0x0100\n      exp\n      swap1\n      div\n      0xff\n      and\n        /* \"Bluelight-MP/UserDashboard.sol\":6624:6643  CREATE_ACC_OR_LOGIN */\n      mload(0x40)\n      dup1\n      0x40\n      add\n      0x40\n      mstore\n      dup1\n      0x05\n      dup2\n      mstore\n      0x20\n      add\n      0x574d552d32000000000000000000000000000000000000000000000000000000\n      dup2\n      mstore\n      pop\n        /* \"Bluelight-MP/UserDashboard.sol\":6587:6644  require (users[msg.sender].loggedIn, CREATE_ACC_OR_LOGIN) */\n      swap1\n      tag_145\n      jumpi\n      mload(0x40)\n      0x08c379a000000000000000000000000000000000000000000000000000000000\n      dup2\n      mstore\n      0x04\n      add\n      tag_146\n      swap2\n      swap1\n      tag_118\n      jump\t// in\n    tag_146:\n      mload(0x40)\n      dup1\n      swap2\n      sub\n      swap1\n      revert\n    tag_145:\n      pop\n        /* \"Bluelight-MP/UserDashboard.sol\":6686:6690  iPFS */\n      dup1\n        /* \"Bluelight-MP/UserDashboard.sol\":6655:6660  users */\n      0x05\n        /* \"Bluelight-MP/UserDashboard.sol\":6655:6672  users[msg.sender] */\n      0x00\n        /* \"Bluelight-MP/UserDashboard.sol\":6661:6671  msg.sender */\n      caller\n        /* \"Bluelight-MP/UserDashboard.sol\":6655:6672  users[msg.sender] */\n      0xffffffffffffffffffffffffffffffffffffffff\n      and\n      0xffffffffffffffffffffffffffffffffffffffff\n      and\n      dup2\n      mstore\n      0x20\n      add\n      swap1\n      dup2\n      mstore\n      0x20\n      add\n      0x00\n      keccak256\n        /* \"Bluelight-MP/UserDashboard.sol\":6655:6683  users[msg.sender].profilePic */\n      0x04\n      add\n        /* \"Bluelight-MP/UserDashboard.sol\":6655:6690  users[msg.sender].profilePic = iPFS */\n      swap1\n      dup1\n      mload\n      swap1\n      0x20\n      add\n      swap1\n      tag_147\n      swap3\n      swap2\n      swap1\n      tag_148\n      jump\t// in\n    tag_147:\n      pop\n        /* \"Bluelight-MP/UserDashboard.sol\":6524:6698  function setProfilePic(string memory iPFS) external {\r... */\n      pop\n      jump\t// out\n        /* \"Bluelight-MP/UserDashboard.sol\":7341:7634  function deleteUser() external virtual override returns(bool){\r... */\n    tag_39:\n        /* \"Bluelight-MP/UserDashboard.sol\":7397:7401  bool */\n      0x00\n        /* \"Bluelight-MP/UserDashboard.sol\":7422:7427  users */\n      0x05\n        /* \"Bluelight-MP/UserDashboard.sol\":7422:7439  users[msg.sender] */\n      0x00\n        /* \"Bluelight-MP/UserDashboard.sol\":7428:7438  msg.sender */\n      caller\n        /* \"Bluelight-MP/UserDashboard.sol\":7422:7439  users[msg.sender] */\n      0xffffffffffffffffffffffffffffffffffffffff\n      and\n      0xffffffffffffffffffffffffffffffffffffffff\n      and\n      dup2\n      mstore\n      0x20\n      add\n      swap1\n      dup2\n      mstore\n      0x20\n      add\n      0x00\n      keccak256\n        /* \"Bluelight-MP/UserDashboard.sol\":7422:7451  users[msg.sender].userExisted */\n      0x01\n      add\n      0x00\n      swap1\n      sload\n      swap1\n      0x0100\n      exp\n      swap1\n      div\n      0xff\n      and\n        /* \"Bluelight-MP/UserDashboard.sol\":7453:7469  USER_NOT_EXISTED */\n      mload(0x40)\n      dup1\n      0x40\n      add\n      0x40\n      mstore\n      dup1\n      0x05\n      dup2\n      mstore\n      0x20\n      add\n      0x574d552d35000000000000000000000000000000000000000000000000000000\n      dup2\n      mstore\n      pop\n        /* \"Bluelight-MP/UserDashboard.sol\":7413:7470  require (users[msg.sender].userExisted, USER_NOT_EXISTED) */\n      swap1\n      tag_150\n      jumpi\n      mload(0x40)\n      0x08c379a000000000000000000000000000000000000000000000000000000000\n      dup2\n      mstore\n      0x04\n      add\n      tag_151\n      swap2\n      swap1\n      tag_118\n      jump\t// in\n    tag_151:\n      mload(0x40)\n      dup1\n      swap2\n      sub\n      swap1\n      revert\n    tag_150:\n      pop\n        /* \"Bluelight-MP/UserDashboard.sol\":7481:7499  string memory name */\n      0x00\n        /* \"Bluelight-MP/UserDashboard.sol\":7502:7507  users */\n      0x05\n        /* \"Bluelight-MP/UserDashboard.sol\":7502:7519  users[msg.sender] */\n      0x00\n        /* \"Bluelight-MP/UserDashboard.sol\":7508:7518  msg.sender */\n      caller\n        /* \"Bluelight-MP/UserDashboard.sol\":7502:7519  users[msg.sender] */\n      0xffffffffffffffffffffffffffffffffffffffff\n      and\n      0xffffffffffffffffffffffffffffffffffffffff\n      and\n      dup2\n      mstore\n      0x20\n      add\n      swap1\n      dup2\n      mstore\n      0x20\n      add\n      0x00\n      keccak256\n        /* \"Bluelight-MP/UserDashboard.sol\":7502:7528  users[msg.sender].userName */\n      0x00\n      add\n        /* \"Bluelight-MP/UserDashboard.sol\":7481:7528  string memory name = users[msg.sender].userName */\n      dup1\n      sload\n      tag_152\n      swap1\n      tag_153\n      jump\t// in\n    tag_152:\n      dup1\n      0x1f\n      add\n      0x20\n      dup1\n      swap2\n      div\n      mul\n      0x20\n      add\n      mload(0x40)\n      swap1\n      dup2\n      add\n      0x40\n      mstore\n      dup1\n      swap3\n      swap2\n      swap1\n      dup2\n      dup2\n      mstore\n      0x20\n      add\n      dup3\n      dup1\n      sload\n      tag_154\n      swap1\n      tag_153\n      jump\t// in\n    tag_154:\n      dup1\n      iszero\n      tag_155\n      jumpi\n      dup1\n      0x1f\n      lt\n      tag_156\n      jumpi\n      0x0100\n      dup1\n      dup4\n      sload\n      div\n      mul\n      dup4\n      mstore\n      swap2\n      0x20\n      add\n      swap2\n      jump(tag_155)\n    tag_156:\n      dup3\n      add\n      swap2\n      swap1\n      0x00\n      mstore\n      keccak256(0x00, 0x20)\n      swap1\n    tag_157:\n      dup2\n      sload\n      dup2\n      mstore\n      swap1\n      0x01\n      add\n      swap1\n      0x20\n      add\n      dup1\n      dup4\n      gt\n      tag_157\n      jumpi\n      dup3\n      swap1\n      sub\n      0x1f\n      and\n      dup3\n      add\n      swap2\n    tag_155:\n      pop\n      pop\n      pop\n      pop\n      pop\n      swap1\n      pop\n        /* \"Bluelight-MP/UserDashboard.sol\":7546:7563  userNameToAddress */\n      0x06\n        /* \"Bluelight-MP/UserDashboard.sol\":7564:7568  name */\n      dup2\n        /* \"Bluelight-MP/UserDashboard.sol\":7546:7569  userNameToAddress[name] */\n      mload(0x40)\n      tag_158\n      swap2\n      swap1\n      tag_159\n      jump\t// in\n    tag_158:\n      swap1\n      dup2\n      mstore\n      0x20\n      add\n      mload(0x40)\n      dup1\n      swap2\n      sub\n      swap1\n      keccak256\n      0x00\n        /* \"Bluelight-MP/UserDashboard.sol\":7539:7569  delete userNameToAddress[name] */\n      0x0100\n      exp\n      dup2\n      sload\n      swap1\n      0xffffffffffffffffffffffffffffffffffffffff\n      mul\n      not\n      and\n      swap1\n      sstore\n        /* \"Bluelight-MP/UserDashboard.sol\":7587:7592  users */\n      0x05\n        /* \"Bluelight-MP/UserDashboard.sol\":7587:7604  users[msg.sender] */\n      0x00\n        /* \"Bluelight-MP/UserDashboard.sol\":7593:7603  msg.sender */\n      caller\n        /* \"Bluelight-MP/UserDashboard.sol\":7587:7604  users[msg.sender] */\n      0xffffffffffffffffffffffffffffffffffffffff\n      and\n      0xffffffffffffffffffffffffffffffffffffffff\n      and\n      dup2\n      mstore\n      0x20\n      add\n      swap1\n      dup2\n      mstore\n      0x20\n      add\n      0x00\n      keccak256\n      0x00\n        /* \"Bluelight-MP/UserDashboard.sol\":7580:7604  delete users[msg.sender] */\n      dup1\n      dup3\n      add\n      0x00\n      tag_160\n      swap2\n      swap1\n      tag_161\n      jump\t// in\n    tag_160:\n      0x01\n      dup3\n      add\n      exp(0x0100, 0x00)\n      dup2\n      sload\n      swap1\n      0xff\n      mul\n      not\n      and\n      swap1\n      sstore\n      0x02\n      dup3\n      add\n      0x00\n      swap1\n      sstore\n      0x03\n      dup3\n      add\n      exp(0x0100, 0x00)\n      dup2\n      sload\n      swap1\n      0xff\n      mul\n      not\n      and\n      swap1\n      sstore\n      0x04\n      dup3\n      add\n      0x00\n      tag_162\n      swap2\n      swap1\n      tag_161\n      jump\t// in\n    tag_162:\n      pop\n      pop\n        /* \"Bluelight-MP/UserDashboard.sol\":7622:7626  true */\n      0x01\n        /* \"Bluelight-MP/UserDashboard.sol\":7615:7626  return true */\n      swap2\n      pop\n      pop\n        /* \"Bluelight-MP/UserDashboard.sol\":7341:7634  function deleteUser() external virtual override returns(bool){\r... */\n      swap1\n      jump\t// out\n        /* \"Bluelight-MP/UserDashboard.sol\":833:873  mapping (bytes32 => MyNFT) public myNFTs */\n    tag_45:\n      mstore(0x20, 0x01)\n      dup1\n      0x00\n      mstore\n      keccak256(0x00, 0x40)\n      0x00\n      swap2\n      pop\n      swap1\n      pop\n      dup1\n      0x00\n      add\n      dup1\n      sload\n      tag_163\n      swap1\n      tag_153\n      jump\t// in\n    tag_163:\n      dup1\n      0x1f\n      add\n      0x20\n      dup1\n      swap2\n      div\n      mul\n      0x20\n      add\n      mload(0x40)\n      swap1\n      dup2\n      add\n      0x40\n      mstore\n      dup1\n      swap3\n      swap2\n      swap1\n      dup2\n      dup2\n      mstore\n      0x20\n      add\n      dup3\n      dup1\n      sload\n      tag_164\n      swap1\n      tag_153\n      jump\t// in\n    tag_164:\n      dup1\n      iszero\n      tag_165\n      jumpi\n      dup1\n      0x1f\n      lt\n      tag_166\n      jumpi\n      0x0100\n      dup1\n      dup4\n      sload\n      div\n      mul\n      dup4\n      mstore\n      swap2\n      0x20\n      add\n      swap2\n      jump(tag_165)\n    tag_166:\n      dup3\n      add\n      swap2\n      swap1\n      0x00\n      mstore\n      keccak256(0x00, 0x20)\n      swap1\n    tag_167:\n      dup2\n      sload\n      dup2\n      mstore\n      swap1\n      0x01\n      add\n      swap1\n      0x20\n      add\n      dup1\n      dup4\n      gt\n      tag_167\n      jumpi\n      dup3\n      swap1\n      sub\n      0x1f\n      and\n      dup3\n      add\n      swap2\n    tag_165:\n      pop\n      pop\n      pop\n      pop\n      pop\n      swap1\n      dup1\n      0x01\n      add\n      0x00\n      swap1\n      sload\n      swap1\n      0x0100\n      exp\n      swap1\n      div\n      0xffffffffffffffffffffffffffffffffffffffff\n      and\n      swap1\n      dup1\n      0x02\n      add\n      sload\n      swap1\n      dup1\n      0x03\n      add\n      0x00\n      swap1\n      sload\n      swap1\n      0x0100\n      exp\n      swap1\n      div\n      0xffffffffffffffffffffffffffffffffffffffff\n      and\n      swap1\n      dup1\n      0x04\n      add\n      dup1\n      sload\n      tag_168\n      swap1\n      tag_153\n      jump\t// in\n    tag_168:\n      dup1\n      0x1f\n      add\n      0x20\n      dup1\n      swap2\n      div\n      mul\n      0x20\n      add\n      mload(0x40)\n      swap1\n      dup2\n      add\n      0x40\n      mstore\n      dup1\n      swap3\n      swap2\n      swap1\n      dup2\n      dup2\n      mstore\n      0x20\n      add\n      dup3\n      dup1\n      sload\n      tag_169\n      swap1\n      tag_153\n      jump\t// in\n    tag_169:\n      dup1\n      iszero\n      tag_170\n      jumpi\n      dup1\n      0x1f\n      lt\n      tag_171\n      jumpi\n      0x0100\n      dup1\n      dup4\n      sload\n      div\n      mul\n      dup4\n      mstore\n      swap2\n      0x20\n      add\n      swap2\n      jump(tag_170)\n    tag_171:\n      dup3\n      add\n      swap2\n      swap1\n      0x00\n      mstore\n      keccak256(0x00, 0x20)\n      swap1\n    tag_172:\n      dup2\n      sload\n      dup2\n      mstore\n      swap1\n      0x01\n      add\n      swap1\n      0x20\n      add\n      dup1\n      dup4\n      gt\n      tag_172\n      jumpi\n      dup3\n      swap1\n      sub\n      0x1f\n      and\n      dup3\n      add\n      swap2\n    tag_170:\n      pop\n      pop\n      pop\n      pop\n      pop\n      swap1\n      dup1\n      0x05\n      add\n      0x00\n      swap1\n      sload\n      swap1\n      0x0100\n      exp\n      swap1\n      div\n      0xff\n      and\n      swap1\n      pop\n      dup7\n      jump\t// out\n        /* \"Bluelight-MP/UserDashboard.sol\":6903:7335  function updateUser(string memory _userName) external virtual override{\r... */\n    tag_50:\n        /* \"Bluelight-MP/UserDashboard.sol\":6993:6998  users */\n      0x05\n        /* \"Bluelight-MP/UserDashboard.sol\":6993:7010  users[msg.sender] */\n      0x00\n        /* \"Bluelight-MP/UserDashboard.sol\":6999:7009  msg.sender */\n      caller\n        /* \"Bluelight-MP/UserDashboard.sol\":6993:7010  users[msg.sender] */\n      0xffffffffffffffffffffffffffffffffffffffff\n      and\n      0xffffffffffffffffffffffffffffffffffffffff\n      and\n      dup2\n      mstore\n      0x20\n      add\n      swap1\n      dup2\n      mstore\n      0x20\n      add\n      0x00\n      keccak256\n        /* \"Bluelight-MP/UserDashboard.sol\":6993:7019  users[msg.sender].loggedIn */\n      0x03\n      add\n      0x00\n      swap1\n      sload\n      swap1\n      0x0100\n      exp\n      swap1\n      div\n      0xff\n      and\n        /* \"Bluelight-MP/UserDashboard.sol\":7021:7040  CREATE_ACC_OR_LOGIN */\n      mload(0x40)\n      dup1\n      0x40\n      add\n      0x40\n      mstore\n      dup1\n      0x05\n      dup2\n      mstore\n      0x20\n      add\n      0x574d552d32000000000000000000000000000000000000000000000000000000\n      dup2\n      mstore\n      pop\n        /* \"Bluelight-MP/UserDashboard.sol\":6984:7041  require (users[msg.sender].loggedIn, CREATE_ACC_OR_LOGIN) */\n      swap1\n      tag_174\n      jumpi\n      mload(0x40)\n      0x08c379a000000000000000000000000000000000000000000000000000000000\n      dup2\n      mstore\n      0x04\n      add\n      tag_175\n      swap2\n      swap1\n      tag_118\n      jump\t// in\n    tag_175:\n      mload(0x40)\n      dup1\n      swap2\n      sub\n      swap1\n      revert\n    tag_174:\n      pop\n        /* \"Bluelight-MP/UserDashboard.sol\":7101:7102  0 */\n      0x00\n        /* \"Bluelight-MP/UserDashboard.sol\":7061:7103  userNameToAddress[_userName] == address(0) */\n      0xffffffffffffffffffffffffffffffffffffffff\n      and\n        /* \"Bluelight-MP/UserDashboard.sol\":7061:7078  userNameToAddress */\n      0x06\n        /* \"Bluelight-MP/UserDashboard.sol\":7079:7088  _userName */\n      dup3\n        /* \"Bluelight-MP/UserDashboard.sol\":7061:7089  userNameToAddress[_userName] */\n      mload(0x40)\n      tag_176\n      swap2\n      swap1\n      tag_159\n      jump\t// in\n    tag_176:\n      swap1\n      dup2\n      mstore\n      0x20\n      add\n      mload(0x40)\n      dup1\n      swap2\n      sub\n      swap1\n      keccak256\n      0x00\n      swap1\n      sload\n      swap1\n      0x0100\n      exp\n      swap1\n      div\n      0xffffffffffffffffffffffffffffffffffffffff\n      and\n        /* \"Bluelight-MP/UserDashboard.sol\":7061:7103  userNameToAddress[_userName] == address(0) */\n      0xffffffffffffffffffffffffffffffffffffffff\n      and\n      eq\n        /* \"Bluelight-MP/UserDashboard.sol\":7105:7122  USER_NAME_EXISTED */\n      mload(0x40)\n      dup1\n      0x40\n      add\n      0x40\n      mstore\n      dup1\n      0x05\n      dup2\n      mstore\n      0x20\n      add\n      0x574d552d36000000000000000000000000000000000000000000000000000000\n      dup2\n      mstore\n      pop\n        /* \"Bluelight-MP/UserDashboard.sol\":7052:7123  require (userNameToAddress[_userName] == address(0), USER_NAME_EXISTED) */\n      swap1\n      tag_177\n      jumpi\n      mload(0x40)\n      0x08c379a000000000000000000000000000000000000000000000000000000000\n      dup2\n      mstore\n      0x04\n      add\n      tag_178\n      swap2\n      swap1\n      tag_118\n      jump\t// in\n    tag_178:\n      mload(0x40)\n      dup1\n      swap2\n      sub\n      swap1\n      revert\n    tag_177:\n      pop\n        /* \"Bluelight-MP/UserDashboard.sol\":7136:7154  string memory name */\n      0x00\n        /* \"Bluelight-MP/UserDashboard.sol\":7157:7162  users */\n      0x05\n        /* \"Bluelight-MP/UserDashboard.sol\":7157:7174  users[msg.sender] */\n      0x00\n        /* \"Bluelight-MP/UserDashboard.sol\":7163:7173  msg.sender */\n      caller\n        /* \"Bluelight-MP/UserDashboard.sol\":7157:7174  users[msg.sender] */\n      0xffffffffffffffffffffffffffffffffffffffff\n      and\n      0xffffffffffffffffffffffffffffffffffffffff\n      and\n      dup2\n      mstore\n      0x20\n      add\n      swap1\n      dup2\n      mstore\n      0x20\n      add\n      0x00\n      keccak256\n        /* \"Bluelight-MP/UserDashboard.sol\":7157:7183  users[msg.sender].userName */\n      0x00\n      add\n        /* \"Bluelight-MP/UserDashboard.sol\":7136:7183  string memory name = users[msg.sender].userName */\n      dup1\n      sload\n      tag_179\n      swap1\n      tag_153\n      jump\t// in\n    tag_179:\n      dup1\n      0x1f\n      add\n      0x20\n      dup1\n      swap2\n      div\n      mul\n      0x20\n      add\n      mload(0x40)\n      swap1\n      dup2\n      add\n      0x40\n      mstore\n      dup1\n      swap3\n      swap2\n      swap1\n      dup2\n      dup2\n      mstore\n      0x20\n      add\n      dup3\n      dup1\n      sload\n      tag_180\n      swap1\n      tag_153\n      jump\t// in\n    tag_180:\n      dup1\n      iszero\n      tag_181\n      jumpi\n      dup1\n      0x1f\n      lt\n      tag_182\n      jumpi\n      0x0100\n      dup1\n      dup4\n      sload\n      div\n      mul\n      dup4\n      mstore\n      swap2\n      0x20\n      add\n      swap2\n      jump(tag_181)\n    tag_182:\n      dup3\n      add\n      swap2\n      swap1\n      0x00\n      mstore\n      keccak256(0x00, 0x20)\n      swap1\n    tag_183:\n      dup2\n      sload\n      dup2\n      mstore\n      swap1\n      0x01\n      add\n      swap1\n      0x20\n      add\n      dup1\n      dup4\n      gt\n      tag_183\n      jumpi\n      dup3\n      swap1\n      sub\n      0x1f\n      and\n      dup3\n      add\n      swap2\n    tag_181:\n      pop\n      pop\n      pop\n      pop\n      pop\n      swap1\n      pop\n        /* \"Bluelight-MP/UserDashboard.sol\":7201:7218  userNameToAddress */\n      0x06\n        /* \"Bluelight-MP/UserDashboard.sol\":7219:7223  name */\n      dup2\n        /* \"Bluelight-MP/UserDashboard.sol\":7201:7224  userNameToAddress[name] */\n      mload(0x40)\n      tag_184\n      swap2\n      swap1\n      tag_159\n      jump\t// in\n    tag_184:\n      swap1\n      dup2\n      mstore\n      0x20\n      add\n      mload(0x40)\n      dup1\n      swap2\n      sub\n      swap1\n      keccak256\n      0x00\n        /* \"Bluelight-MP/UserDashboard.sol\":7194:7224  delete userNameToAddress[name] */\n      0x0100\n      exp\n      dup2\n      sload\n      swap1\n      0xffffffffffffffffffffffffffffffffffffffff\n      mul\n      not\n      and\n      swap1\n      sstore\n        /* \"Bluelight-MP/UserDashboard.sol\":7266:7276  msg.sender */\n      caller\n        /* \"Bluelight-MP/UserDashboard.sol\":7235:7252  userNameToAddress */\n      0x06\n        /* \"Bluelight-MP/UserDashboard.sol\":7253:7262  _userName */\n      dup4\n        /* \"Bluelight-MP/UserDashboard.sol\":7235:7263  userNameToAddress[_userName] */\n      mload(0x40)\n      tag_185\n      swap2\n      swap1\n      tag_159\n      jump\t// in\n    tag_185:\n      swap1\n      dup2\n      mstore\n      0x20\n      add\n      mload(0x40)\n      dup1\n      swap2\n      sub\n      swap1\n      keccak256\n      0x00\n        /* \"Bluelight-MP/UserDashboard.sol\":7235:7276  userNameToAddress[_userName] = msg.sender */\n      0x0100\n      exp\n      dup2\n      sload\n      dup2\n      0xffffffffffffffffffffffffffffffffffffffff\n      mul\n      not\n      and\n      swap1\n      dup4\n      0xffffffffffffffffffffffffffffffffffffffff\n      and\n      mul\n      or\n      swap1\n      sstore\n      pop\n        /* \"Bluelight-MP/UserDashboard.sol\":7318:7327  _userName */\n      dup2\n        /* \"Bluelight-MP/UserDashboard.sol\":7289:7294  users */\n      0x05\n        /* \"Bluelight-MP/UserDashboard.sol\":7289:7306  users[msg.sender] */\n      0x00\n        /* \"Bluelight-MP/UserDashboard.sol\":7295:7305  msg.sender */\n      caller\n        /* \"Bluelight-MP/UserDashboard.sol\":7289:7306  users[msg.sender] */\n      0xffffffffffffffffffffffffffffffffffffffff\n      and\n      0xffffffffffffffffffffffffffffffffffffffff\n      and\n      dup2\n      mstore\n      0x20\n      add\n      swap1\n      dup2\n      mstore\n      0x20\n      add\n      0x00\n      keccak256\n        /* \"Bluelight-MP/UserDashboard.sol\":7289:7315  users[msg.sender].userName */\n      0x00\n      add\n        /* \"Bluelight-MP/UserDashboard.sol\":7289:7327  users[msg.sender].userName = _userName */\n      swap1\n      dup1\n      mload\n      swap1\n      0x20\n      add\n      swap1\n      tag_186\n      swap3\n      swap2\n      swap1\n      tag_148\n      jump\t// in\n    tag_186:\n      pop\n        /* \"Bluelight-MP/UserDashboard.sol\":6903:7335  function updateUser(string memory _userName) external virtual override{\r... */\n      pop\n      pop\n      jump\t// out\n        /* \"Bluelight-MP/UserDashboard.sol\":4374:4853  function getNft(address _nftContractAddress, uint256 _tokenId) external virtual override view \r... */\n    tag_54:\n        /* \"Bluelight-MP/UserDashboard.sol\":4486:4500  bytes32 uniKey */\n      0x00\n        /* \"Bluelight-MP/UserDashboard.sol\":4502:4528  address nftContractAddress */\n      dup1\n        /* \"Bluelight-MP/UserDashboard.sol\":4530:4542  uint tokenId */\n      0x00\n        /* \"Bluelight-MP/UserDashboard.sol\":4544:4562  string memory name */\n      0x60\n        /* \"Bluelight-MP/UserDashboard.sol\":4564:4577  address owner */\n      0x00\n        /* \"Bluelight-MP/UserDashboard.sol\":4579:4597  string memory iPFS */\n      0x60\n        /* \"Bluelight-MP/UserDashboard.sol\":4619:4634  bytes32 _uniKey */\n      0x00\n        /* \"Bluelight-MP/UserDashboard.sol\":4637:4687  getPrivateUniqueKey(_nftContractAddress, _tokenId) */\n      tag_188\n        /* \"Bluelight-MP/UserDashboard.sol\":4657:4676  _nftContractAddress */\n      dup10\n        /* \"Bluelight-MP/UserDashboard.sol\":4678:4686  _tokenId */\n      dup10\n        /* \"Bluelight-MP/UserDashboard.sol\":4637:4656  getPrivateUniqueKey */\n      tag_189\n        /* \"Bluelight-MP/UserDashboard.sol\":4637:4687  getPrivateUniqueKey(_nftContractAddress, _tokenId) */\n      jump\t// in\n    tag_188:\n        /* \"Bluelight-MP/UserDashboard.sol\":4619:4687  bytes32 _uniKey = getPrivateUniqueKey(_nftContractAddress, _tokenId) */\n      swap1\n      pop\n        /* \"Bluelight-MP/UserDashboard.sol\":4709:4716  _uniKey */\n      dup1\n        /* \"Bluelight-MP/UserDashboard.sol\":4718:4724  myNFTs */\n      0x01\n        /* \"Bluelight-MP/UserDashboard.sol\":4718:4733  myNFTs[_uniKey] */\n      0x00\n        /* \"Bluelight-MP/UserDashboard.sol\":4725:4732  _uniKey */\n      dup4\n        /* \"Bluelight-MP/UserDashboard.sol\":4718:4733  myNFTs[_uniKey] */\n      dup2\n      mstore\n      0x20\n      add\n      swap1\n      dup2\n      mstore\n      0x20\n      add\n      0x00\n      keccak256\n        /* \"Bluelight-MP/UserDashboard.sol\":4718:4749  myNFTs[_uniKey].contractAddress */\n      0x01\n      add\n      0x00\n      swap1\n      sload\n      swap1\n      0x0100\n      exp\n      swap1\n      div\n      0xffffffffffffffffffffffffffffffffffffffff\n      and\n        /* \"Bluelight-MP/UserDashboard.sol\":4751:4757  myNFTs */\n      0x01\n        /* \"Bluelight-MP/UserDashboard.sol\":4751:4766  myNFTs[_uniKey] */\n      0x00\n        /* \"Bluelight-MP/UserDashboard.sol\":4758:4765  _uniKey */\n      dup5\n        /* \"Bluelight-MP/UserDashboard.sol\":4751:4766  myNFTs[_uniKey] */\n      dup2\n      mstore\n      0x20\n      add\n      swap1\n      dup2\n      mstore\n      0x20\n      add\n      0x00\n      keccak256\n        /* \"Bluelight-MP/UserDashboard.sol\":4751:4774  myNFTs[_uniKey].tokenId */\n      0x02\n      add\n      sload\n        /* \"Bluelight-MP/UserDashboard.sol\":4776:4782  myNFTs */\n      0x01\n        /* \"Bluelight-MP/UserDashboard.sol\":4776:4791  myNFTs[_uniKey] */\n      0x00\n        /* \"Bluelight-MP/UserDashboard.sol\":4783:4790  _uniKey */\n      dup6\n        /* \"Bluelight-MP/UserDashboard.sol\":4776:4791  myNFTs[_uniKey] */\n      dup2\n      mstore\n      0x20\n      add\n      swap1\n      dup2\n      mstore\n      0x20\n      add\n      0x00\n      keccak256\n        /* \"Bluelight-MP/UserDashboard.sol\":4776:4799  myNFTs[_uniKey].nftName */\n      0x00\n      add\n        /* \"Bluelight-MP/UserDashboard.sol\":4801:4807  myNFTs */\n      0x01\n        /* \"Bluelight-MP/UserDashboard.sol\":4801:4816  myNFTs[_uniKey] */\n      0x00\n        /* \"Bluelight-MP/UserDashboard.sol\":4808:4815  _uniKey */\n      dup7\n        /* \"Bluelight-MP/UserDashboard.sol\":4801:4816  myNFTs[_uniKey] */\n      dup2\n      mstore\n      0x20\n      add\n      swap1\n      dup2\n      mstore\n      0x20\n      add\n      0x00\n      keccak256\n        /* \"Bluelight-MP/UserDashboard.sol\":4801:4822  myNFTs[_uniKey].owner */\n      0x03\n      add\n      0x00\n      swap1\n      sload\n      swap1\n      0x0100\n      exp\n      swap1\n      div\n      0xffffffffffffffffffffffffffffffffffffffff\n      and\n        /* \"Bluelight-MP/UserDashboard.sol\":4824:4830  myNFTs */\n      0x01\n        /* \"Bluelight-MP/UserDashboard.sol\":4824:4839  myNFTs[_uniKey] */\n      0x00\n        /* \"Bluelight-MP/UserDashboard.sol\":4831:4838  _uniKey */\n      dup8\n        /* \"Bluelight-MP/UserDashboard.sol\":4824:4839  myNFTs[_uniKey] */\n      dup2\n      mstore\n      0x20\n      add\n      swap1\n      dup2\n      mstore\n      0x20\n      add\n      0x00\n      keccak256\n        /* \"Bluelight-MP/UserDashboard.sol\":4824:4844  myNFTs[_uniKey].ipfs */\n      0x04\n      add\n        /* \"Bluelight-MP/UserDashboard.sol\":4701:4845  return (_uniKey, myNFTs[_uniKey].contractAddress, myNFTs[_uniKey].tokenId, myNFTs[_uniKey].nftName, myNFTs[_uniKey].owner, myNFTs[_uniKey].ipfs) */\n      dup3\n      dup1\n      sload\n      tag_190\n      swap1\n      tag_153\n      jump\t// in\n    tag_190:\n      dup1\n      0x1f\n      add\n      0x20\n      dup1\n      swap2\n      div\n      mul\n      0x20\n      add\n      mload(0x40)\n      swap1\n      dup2\n      add\n      0x40\n      mstore\n      dup1\n      swap3\n      swap2\n      swap1\n      dup2\n      dup2\n      mstore\n      0x20\n      add\n      dup3\n      dup1\n      sload\n      tag_191\n      swap1\n      tag_153\n      jump\t// in\n    tag_191:\n      dup1\n      iszero\n      tag_192\n      jumpi\n      dup1\n      0x1f\n      lt\n      tag_193\n      jumpi\n      0x0100\n      dup1\n      dup4\n      sload\n      div\n      mul\n      dup4\n      mstore\n      swap2\n      0x20\n      add\n      swap2\n      jump(tag_192)\n    tag_193:\n      dup3\n      add\n      swap2\n      swap1\n      0x00\n      mstore\n      keccak256(0x00, 0x20)\n      swap1\n    tag_194:\n      dup2\n      sload\n      dup2\n      mstore\n      swap1\n      0x01\n      add\n      swap1\n      0x20\n      add\n      dup1\n      dup4\n      gt\n      tag_194\n      jumpi\n      dup3\n      swap1\n      sub\n      0x1f\n      and\n      dup3\n      add\n      swap2\n    tag_192:\n      pop\n      pop\n      pop\n      pop\n      pop\n      swap3\n      pop\n      dup1\n      dup1\n      sload\n      tag_195\n      swap1\n      tag_153\n      jump\t// in\n    tag_195:\n      dup1\n      0x1f\n      add\n      0x20\n      dup1\n      swap2\n      div\n      mul\n      0x20\n      add\n      mload(0x40)\n      swap1\n      dup2\n      add\n      0x40\n      mstore\n      dup1\n      swap3\n      swap2\n      swap1\n      dup2\n      dup2\n      mstore\n      0x20\n      add\n      dup3\n      dup1\n      sload\n      tag_196\n      swap1\n      tag_153\n      jump\t// in\n    tag_196:\n      dup1\n      iszero\n      tag_197\n      jumpi\n      dup1\n      0x1f\n      lt\n      tag_198\n      jumpi\n      0x0100\n      dup1\n      dup4\n      sload\n      div\n      mul\n      dup4\n      mstore\n      swap2\n      0x20\n      add\n      swap2\n      jump(tag_197)\n    tag_198:\n      dup3\n      add\n      swap2\n      swap1\n      0x00\n      mstore\n      keccak256(0x00, 0x20)\n      swap1\n    tag_199:\n      dup2\n      sload\n      dup2\n      mstore\n      swap1\n      0x01\n      add\n      swap1\n      0x20\n      add\n      dup1\n      dup4\n      gt\n      tag_199\n      jumpi\n      dup3\n      swap1\n      sub\n      0x1f\n      and\n      dup3\n      add\n      swap2\n    tag_197:\n      pop\n      pop\n      pop\n      pop\n      pop\n      swap1\n      pop\n      swap7\n      pop\n      swap7\n      pop\n      swap7\n      pop\n      swap7\n      pop\n      swap7\n      pop\n      swap7\n      pop\n      pop\n        /* \"Bluelight-MP/UserDashboard.sol\":4374:4853  function getNft(address _nftContractAddress, uint256 _tokenId) external virtual override view \r... */\n      swap3\n      swap6\n      pop\n      swap3\n      swap6\n      pop\n      swap3\n      swap6\n      jump\t// out\n        /* \"Bluelight-MP/UserDashboard.sol\":880:932  mapping (address => bytes32[]) public uniKeysMapping */\n    tag_59:\n      mstore(0x20, 0x02)\n      dup2\n      0x00\n      mstore\n      keccak256(0x00, 0x40)\n      dup2\n      dup2\n      sload\n      dup2\n      lt\n      tag_200\n      jumpi\n      0x00\n      dup1\n      revert\n    tag_200:\n      swap1\n      0x00\n      mstore\n      keccak256(0x00, 0x20)\n      add\n      0x00\n      swap2\n      pop\n      swap2\n      pop\n      pop\n      sload\n      dup2\n      jump\t// out\n        /* \"Bluelight-MP/UserDashboard.sol\":2601:3033  function setNftCat(address nftContractAddress, uint256 tokenId, NftCategory nftCat) external {\r... */\n    tag_65:\n        /* \"Bluelight-MP/UserDashboard.sol\":2705:2719  bytes32 uniKey */\n      0x00\n        /* \"Bluelight-MP/UserDashboard.sol\":2722:2770  getPrivateUniqueKey(nftContractAddress, tokenId) */\n      tag_203\n        /* \"Bluelight-MP/UserDashboard.sol\":2742:2760  nftContractAddress */\n      dup5\n        /* \"Bluelight-MP/UserDashboard.sol\":2762:2769  tokenId */\n      dup5\n        /* \"Bluelight-MP/UserDashboard.sol\":2722:2741  getPrivateUniqueKey */\n      tag_189\n        /* \"Bluelight-MP/UserDashboard.sol\":2722:2770  getPrivateUniqueKey(nftContractAddress, tokenId) */\n      jump\t// in\n    tag_203:\n        /* \"Bluelight-MP/UserDashboard.sol\":2705:2770  bytes32 uniKey = getPrivateUniqueKey(nftContractAddress, tokenId) */\n      swap1\n      pop\n        /* \"Bluelight-MP/UserDashboard.sol\":2791:2796  users */\n      0x05\n        /* \"Bluelight-MP/UserDashboard.sol\":2791:2808  users[msg.sender] */\n      0x00\n        /* \"Bluelight-MP/UserDashboard.sol\":2797:2807  msg.sender */\n      caller\n        /* \"Bluelight-MP/UserDashboard.sol\":2791:2808  users[msg.sender] */\n      0xffffffffffffffffffffffffffffffffffffffff\n      and\n      0xffffffffffffffffffffffffffffffffffffffff\n      and\n      dup2\n      mstore\n      0x20\n      add\n      swap1\n      dup2\n      mstore\n      0x20\n      add\n      0x00\n      keccak256\n        /* \"Bluelight-MP/UserDashboard.sol\":2791:2817  users[msg.sender].loggedIn */\n      0x03\n      add\n      0x00\n      swap1\n      sload\n      swap1\n      0x0100\n      exp\n      swap1\n      div\n      0xff\n      and\n        /* \"Bluelight-MP/UserDashboard.sol\":2791:2855  users[msg.sender].loggedIn && myNFTs[uniKey].owner == msg.sender */\n      dup1\n      iszero\n      tag_204\n      jumpi\n      pop\n        /* \"Bluelight-MP/UserDashboard.sol\":2845:2855  msg.sender */\n      caller\n        /* \"Bluelight-MP/UserDashboard.sol\":2821:2855  myNFTs[uniKey].owner == msg.sender */\n      0xffffffffffffffffffffffffffffffffffffffff\n      and\n        /* \"Bluelight-MP/UserDashboard.sol\":2821:2827  myNFTs */\n      0x01\n        /* \"Bluelight-MP/UserDashboard.sol\":2821:2835  myNFTs[uniKey] */\n      0x00\n        /* \"Bluelight-MP/UserDashboard.sol\":2828:2834  uniKey */\n      dup4\n        /* \"Bluelight-MP/UserDashboard.sol\":2821:2835  myNFTs[uniKey] */\n      dup2\n      mstore\n      0x20\n      add\n      swap1\n      dup2\n      mstore\n      0x20\n      add\n      0x00\n      keccak256\n        /* \"Bluelight-MP/UserDashboard.sol\":2821:2841  myNFTs[uniKey].owner */\n      0x03\n      add\n      0x00\n      swap1\n      sload\n      swap1\n      0x0100\n      exp\n      swap1\n      div\n      0xffffffffffffffffffffffffffffffffffffffff\n      and\n        /* \"Bluelight-MP/UserDashboard.sol\":2821:2855  myNFTs[uniKey].owner == msg.sender */\n      0xffffffffffffffffffffffffffffffffffffffff\n      and\n      eq\n        /* \"Bluelight-MP/UserDashboard.sol\":2791:2855  users[msg.sender].loggedIn && myNFTs[uniKey].owner == msg.sender */\n    tag_204:\n        /* \"Bluelight-MP/UserDashboard.sol\":2857:2876  CREATE_ACC_OR_LOGIN */\n      mload(0x40)\n      dup1\n      0x40\n      add\n      0x40\n      mstore\n      dup1\n      0x05\n      dup2\n      mstore\n      0x20\n      add\n      0x574d552d32000000000000000000000000000000000000000000000000000000\n      dup2\n      mstore\n      pop\n        /* \"Bluelight-MP/UserDashboard.sol\":2782:2877  require (users[msg.sender].loggedIn && myNFTs[uniKey].owner == msg.sender, CREATE_ACC_OR_LOGIN) */\n      swap1\n      tag_205\n      jumpi\n      mload(0x40)\n      0x08c379a000000000000000000000000000000000000000000000000000000000\n      dup2\n      mstore\n      0x04\n      add\n      tag_206\n      swap2\n      swap1\n      tag_118\n      jump\t// in\n    tag_206:\n      mload(0x40)\n      dup1\n      swap2\n      sub\n      swap1\n      revert\n    tag_205:\n      pop\n        /* \"Bluelight-MP/UserDashboard.sol\":2919:2925  nftCat */\n      dup2\n        /* \"Bluelight-MP/UserDashboard.sol\":2890:2896  myNFTs */\n      0x01\n        /* \"Bluelight-MP/UserDashboard.sol\":2890:2904  myNFTs[uniKey] */\n      0x00\n        /* \"Bluelight-MP/UserDashboard.sol\":2897:2903  uniKey */\n      dup4\n        /* \"Bluelight-MP/UserDashboard.sol\":2890:2904  myNFTs[uniKey] */\n      dup2\n      mstore\n      0x20\n      add\n      swap1\n      dup2\n      mstore\n      0x20\n      add\n      0x00\n      keccak256\n        /* \"Bluelight-MP/UserDashboard.sol\":2890:2916  myNFTs[uniKey].nftCategory */\n      0x05\n      add\n      0x00\n        /* \"Bluelight-MP/UserDashboard.sol\":2890:2925  myNFTs[uniKey].nftCategory = nftCat */\n      0x0100\n      exp\n      dup2\n      sload\n      dup2\n      0xff\n      mul\n      not\n      and\n      swap1\n      dup4\n      0x06\n      dup2\n      gt\n      iszero\n      tag_207\n      jumpi\n      mstore(0x00, 0x4e487b7100000000000000000000000000000000000000000000000000000000)\n      mstore(0x04, 0x21)\n      revert(0x00, 0x24)\n    tag_207:\n      mul\n      or\n      swap1\n      sstore\n      pop\n        /* \"Bluelight-MP/UserDashboard.sol\":2936:2946  nftCatWise */\n      0x03\n        /* \"Bluelight-MP/UserDashboard.sol\":2936:2954  nftCatWise[nftCat] */\n      0x00\n        /* \"Bluelight-MP/UserDashboard.sol\":2947:2953  nftCat */\n      dup4\n        /* \"Bluelight-MP/UserDashboard.sol\":2936:2954  nftCatWise[nftCat] */\n      0x06\n      dup2\n      gt\n      iszero\n      tag_208\n      jumpi\n      mstore(0x00, 0x4e487b7100000000000000000000000000000000000000000000000000000000)\n      mstore(0x04, 0x21)\n      revert(0x00, 0x24)\n    tag_208:\n      0x06\n      dup2\n      gt\n      iszero\n      tag_209\n      jumpi\n      mstore(0x00, 0x4e487b7100000000000000000000000000000000000000000000000000000000)\n      mstore(0x04, 0x21)\n      revert(0x00, 0x24)\n    tag_209:\n      dup2\n      mstore\n      0x20\n      add\n      swap1\n      dup2\n      mstore\n      0x20\n      add\n      0x00\n      keccak256\n        /* \"Bluelight-MP/UserDashboard.sol\":2960:2966  uniKey */\n      dup2\n        /* \"Bluelight-MP/UserDashboard.sol\":2936:2967  nftCatWise[nftCat].push(uniKey) */\n      swap1\n      dup1\n      0x01\n      dup2\n      sload\n      add\n      dup1\n      dup3\n      sstore\n      dup1\n      swap2\n      pop\n      pop\n      0x01\n      swap1\n      sub\n      swap1\n      0x00\n      mstore\n      keccak256(0x00, 0x20)\n      add\n      0x00\n      swap1\n      swap2\n      swap1\n      swap2\n      swap1\n      swap2\n      pop\n      sstore\n        /* \"Bluelight-MP/UserDashboard.sol\":2978:2992  userNftCatWise */\n      0x04\n        /* \"Bluelight-MP/UserDashboard.sol\":2978:3004  userNftCatWise[msg.sender] */\n      0x00\n        /* \"Bluelight-MP/UserDashboard.sol\":2993:3003  msg.sender */\n      caller\n        /* \"Bluelight-MP/UserDashboard.sol\":2978:3004  userNftCatWise[msg.sender] */\n      0xffffffffffffffffffffffffffffffffffffffff\n      and\n      0xffffffffffffffffffffffffffffffffffffffff\n      and\n      dup2\n      mstore\n      0x20\n      add\n      swap1\n      dup2\n      mstore\n      0x20\n      add\n      0x00\n      keccak256\n        /* \"Bluelight-MP/UserDashboard.sol\":2978:3012  userNftCatWise[msg.sender][nftCat] */\n      0x00\n        /* \"Bluelight-MP/UserDashboard.sol\":3005:3011  nftCat */\n      dup4\n        /* \"Bluelight-MP/UserDashboard.sol\":2978:3012  userNftCatWise[msg.sender][nftCat] */\n      0x06\n      dup2\n      gt\n      iszero\n      tag_211\n      jumpi\n      mstore(0x00, 0x4e487b7100000000000000000000000000000000000000000000000000000000)\n      mstore(0x04, 0x21)\n      revert(0x00, 0x24)\n    tag_211:\n      0x06\n      dup2\n      gt\n      iszero\n      tag_212\n      jumpi\n      mstore(0x00, 0x4e487b7100000000000000000000000000000000000000000000000000000000)\n      mstore(0x04, 0x21)\n      revert(0x00, 0x24)\n    tag_212:\n      dup2\n      mstore\n      0x20\n      add\n      swap1\n      dup2\n      mstore\n      0x20\n      add\n      0x00\n      keccak256\n        /* \"Bluelight-MP/UserDashboard.sol\":3018:3024  uniKey */\n      dup2\n        /* \"Bluelight-MP/UserDashboard.sol\":2978:3025  userNftCatWise[msg.sender][nftCat].push(uniKey) */\n      swap1\n      dup1\n      0x01\n      dup2\n      sload\n      add\n      dup1\n      dup3\n      sstore\n      dup1\n      swap2\n      pop\n      pop\n      0x01\n      swap1\n      sub\n      swap1\n      0x00\n      mstore\n      keccak256(0x00, 0x20)\n      add\n      0x00\n      swap1\n      swap2\n      swap1\n      swap2\n      swap1\n      swap2\n      pop\n      sstore\n        /* \"Bluelight-MP/UserDashboard.sol\":2601:3033  function setNftCat(address nftContractAddress, uint256 tokenId, NftCategory nftCat) external {\r... */\n      pop\n      pop\n      pop\n      pop\n      jump\t// out\n        /* \"Bluelight-MP/UserDashboard.sol\":5202:5482  function logIn() virtual override external {\r... */\n    tag_67:\n        /* \"Bluelight-MP/UserDashboard.sol\":5265:5270  users */\n      0x05\n        /* \"Bluelight-MP/UserDashboard.sol\":5265:5282  users[msg.sender] */\n      0x00\n        /* \"Bluelight-MP/UserDashboard.sol\":5271:5281  msg.sender */\n      caller\n        /* \"Bluelight-MP/UserDashboard.sol\":5265:5282  users[msg.sender] */\n      0xffffffffffffffffffffffffffffffffffffffff\n      and\n      0xffffffffffffffffffffffffffffffffffffffff\n      and\n      dup2\n      mstore\n      0x20\n      add\n      swap1\n      dup2\n      mstore\n      0x20\n      add\n      0x00\n      keccak256\n        /* \"Bluelight-MP/UserDashboard.sol\":5265:5294  users[msg.sender].userExisted */\n      0x01\n      add\n      0x00\n      swap1\n      sload\n      swap1\n      0x0100\n      exp\n      swap1\n      div\n      0xff\n      and\n        /* \"Bluelight-MP/UserDashboard.sol\":5296:5310  CREATE_ACCOUNT */\n      mload(0x40)\n      dup1\n      0x40\n      add\n      0x40\n      mstore\n      dup1\n      0x05\n      dup2\n      mstore\n      0x20\n      add\n      0x574d552d31000000000000000000000000000000000000000000000000000000\n      dup2\n      mstore\n      pop\n        /* \"Bluelight-MP/UserDashboard.sol\":5256:5311  require (users[msg.sender].userExisted, CREATE_ACCOUNT) */\n      swap1\n      tag_215\n      jumpi\n      mload(0x40)\n      0x08c379a000000000000000000000000000000000000000000000000000000000\n      dup2\n      mstore\n      0x04\n      add\n      tag_216\n      swap2\n      swap1\n      tag_118\n      jump\t// in\n    tag_216:\n      mload(0x40)\n      dup1\n      swap2\n      sub\n      swap1\n      revert\n    tag_215:\n      pop\n        /* \"Bluelight-MP/UserDashboard.sol\":5332:5337  users */\n      0x05\n        /* \"Bluelight-MP/UserDashboard.sol\":5332:5349  users[msg.sender] */\n      0x00\n        /* \"Bluelight-MP/UserDashboard.sol\":5338:5348  msg.sender */\n      caller\n        /* \"Bluelight-MP/UserDashboard.sol\":5332:5349  users[msg.sender] */\n      0xffffffffffffffffffffffffffffffffffffffff\n      and\n      0xffffffffffffffffffffffffffffffffffffffff\n      and\n      dup2\n      mstore\n      0x20\n      add\n      swap1\n      dup2\n      mstore\n      0x20\n      add\n      0x00\n      keccak256\n        /* \"Bluelight-MP/UserDashboard.sol\":5332:5358  users[msg.sender].loggedIn */\n      0x03\n      add\n      0x00\n      swap1\n      sload\n      swap1\n      0x0100\n      exp\n      swap1\n      div\n      0xff\n      and\n        /* \"Bluelight-MP/UserDashboard.sol\":5331:5358  !users[msg.sender].loggedIn */\n      iszero\n        /* \"Bluelight-MP/UserDashboard.sol\":5360:5373  ALREADY_LOGIN */\n      mload(0x40)\n      dup1\n      0x40\n      add\n      0x40\n      mstore\n      dup1\n      0x05\n      dup2\n      mstore\n      0x20\n      add\n      0x574d552d33000000000000000000000000000000000000000000000000000000\n      dup2\n      mstore\n      pop\n        /* \"Bluelight-MP/UserDashboard.sol\":5322:5374  require (!users[msg.sender].loggedIn, ALREADY_LOGIN) */\n      swap1\n      tag_217\n      jumpi\n      mload(0x40)\n      0x08c379a000000000000000000000000000000000000000000000000000000000\n      dup2\n      mstore\n      0x04\n      add\n      tag_218\n      swap2\n      swap1\n      tag_118\n      jump\t// in\n    tag_218:\n      mload(0x40)\n      dup1\n      swap2\n      sub\n      swap1\n      revert\n    tag_217:\n      pop\n        /* \"Bluelight-MP/UserDashboard.sol\":5416:5420  true */\n      0x01\n        /* \"Bluelight-MP/UserDashboard.sol\":5387:5392  users */\n      0x05\n        /* \"Bluelight-MP/UserDashboard.sol\":5387:5404  users[msg.sender] */\n      0x00\n        /* \"Bluelight-MP/UserDashboard.sol\":5393:5403  msg.sender */\n      caller\n        /* \"Bluelight-MP/UserDashboard.sol\":5387:5404  users[msg.sender] */\n      0xffffffffffffffffffffffffffffffffffffffff\n      and\n      0xffffffffffffffffffffffffffffffffffffffff\n      and\n      dup2\n      mstore\n      0x20\n      add\n      swap1\n      dup2\n      mstore\n      0x20\n      add\n      0x00\n      keccak256\n        /* \"Bluelight-MP/UserDashboard.sol\":5387:5413  users[msg.sender].loggedIn */\n      0x03\n      add\n      0x00\n        /* \"Bluelight-MP/UserDashboard.sol\":5387:5420  users[msg.sender].loggedIn = true */\n      0x0100\n      exp\n      dup2\n      sload\n      dup2\n      0xff\n      mul\n      not\n      and\n      swap1\n      dup4\n      iszero\n      iszero\n      mul\n      or\n      swap1\n      sstore\n      pop\n        /* \"Bluelight-MP/UserDashboard.sol\":5446:5456  msg.sender */\n      caller\n        /* \"Bluelight-MP/UserDashboard.sol\":5436:5474  LoggingIn(msg.sender, block.timestamp) */\n      0xffffffffffffffffffffffffffffffffffffffff\n      and\n      0x364034de78a61b6190b049e2c5437370b27906bfed607993a5bc2dda23c16cff\n        /* \"Bluelight-MP/UserDashboard.sol\":5458:5473  block.timestamp */\n      timestamp\n        /* \"Bluelight-MP/UserDashboard.sol\":5436:5474  LoggingIn(msg.sender, block.timestamp) */\n      mload(0x40)\n      tag_219\n      swap2\n      swap1\n      tag_220\n      jump\t// in\n    tag_219:\n      mload(0x40)\n      dup1\n      swap2\n      sub\n      swap1\n      log2\n        /* \"Bluelight-MP/UserDashboard.sol\":5202:5482  function logIn() virtual override external {\r... */\n      jump\t// out\n        /* \"Bluelight-MP/UserDashboard.sol\":3966:4362  function getNftWithBytes32(bytes32 _uniKey) external virtual override view \r... */\n    tag_70:\n        /* \"Bluelight-MP/UserDashboard.sol\":4059:4078  string memory _name */\n      0x60\n        /* \"Bluelight-MP/UserDashboard.sol\":4080:4106  address nftContractAddress */\n      0x00\n        /* \"Bluelight-MP/UserDashboard.sol\":4108:4123  uint256 tokenId */\n      dup1\n        /* \"Bluelight-MP/UserDashboard.sol\":4125:4138  address owner */\n      0x00\n        /* \"Bluelight-MP/UserDashboard.sol\":4140:4158  string memory iPFS */\n      0x60\n        /* \"Bluelight-MP/UserDashboard.sol\":4170:4184  bytes32 uniKey */\n      0x00\n        /* \"Bluelight-MP/UserDashboard.sol\":4187:4194  _uniKey */\n      dup7\n        /* \"Bluelight-MP/UserDashboard.sol\":4170:4194  bytes32 uniKey = _uniKey */\n      swap1\n      pop\n        /* \"Bluelight-MP/UserDashboard.sol\":4223:4229  myNFTs */\n      0x01\n        /* \"Bluelight-MP/UserDashboard.sol\":4223:4237  myNFTs[uniKey] */\n      0x00\n        /* \"Bluelight-MP/UserDashboard.sol\":4230:4236  uniKey */\n      dup3\n        /* \"Bluelight-MP/UserDashboard.sol\":4223:4237  myNFTs[uniKey] */\n      dup2\n      mstore\n      0x20\n      add\n      swap1\n      dup2\n      mstore\n      0x20\n      add\n      0x00\n      keccak256\n        /* \"Bluelight-MP/UserDashboard.sol\":4223:4245  myNFTs[uniKey].nftName */\n      0x00\n      add\n        /* \"Bluelight-MP/UserDashboard.sol\":4247:4253  myNFTs */\n      0x01\n        /* \"Bluelight-MP/UserDashboard.sol\":4247:4261  myNFTs[uniKey] */\n      0x00\n        /* \"Bluelight-MP/UserDashboard.sol\":4254:4260  uniKey */\n      dup4\n        /* \"Bluelight-MP/UserDashboard.sol\":4247:4261  myNFTs[uniKey] */\n      dup2\n      mstore\n      0x20\n      add\n      swap1\n      dup2\n      mstore\n      0x20\n      add\n      0x00\n      keccak256\n        /* \"Bluelight-MP/UserDashboard.sol\":4247:4277  myNFTs[uniKey].contractAddress */\n      0x01\n      add\n      0x00\n      swap1\n      sload\n      swap1\n      0x0100\n      exp\n      swap1\n      div\n      0xffffffffffffffffffffffffffffffffffffffff\n      and\n        /* \"Bluelight-MP/UserDashboard.sol\":4279:4285  myNFTs */\n      0x01\n        /* \"Bluelight-MP/UserDashboard.sol\":4279:4293  myNFTs[uniKey] */\n      0x00\n        /* \"Bluelight-MP/UserDashboard.sol\":4286:4292  uniKey */\n      dup5\n        /* \"Bluelight-MP/UserDashboard.sol\":4279:4293  myNFTs[uniKey] */\n      dup2\n      mstore\n      0x20\n      add\n      swap1\n      dup2\n      mstore\n      0x20\n      add\n      0x00\n      keccak256\n        /* \"Bluelight-MP/UserDashboard.sol\":4279:4301  myNFTs[uniKey].tokenId */\n      0x02\n      add\n      sload\n        /* \"Bluelight-MP/UserDashboard.sol\":4303:4309  myNFTs */\n      0x01\n        /* \"Bluelight-MP/UserDashboard.sol\":4303:4317  myNFTs[uniKey] */\n      0x00\n        /* \"Bluelight-MP/UserDashboard.sol\":4310:4316  uniKey */\n      dup6\n        /* \"Bluelight-MP/UserDashboard.sol\":4303:4317  myNFTs[uniKey] */\n      dup2\n      mstore\n      0x20\n      add\n      swap1\n      dup2\n      mstore\n      0x20\n      add\n      0x00\n      keccak256\n        /* \"Bluelight-MP/UserDashboard.sol\":4303:4323  myNFTs[uniKey].owner */\n      0x03\n      add\n      0x00\n      swap1\n      sload\n      swap1\n      0x0100\n      exp\n      swap1\n      div\n      0xffffffffffffffffffffffffffffffffffffffff\n      and\n        /* \"Bluelight-MP/UserDashboard.sol\":4334:4340  myNFTs */\n      0x01\n        /* \"Bluelight-MP/UserDashboard.sol\":4334:4348  myNFTs[uniKey] */\n      0x00\n        /* \"Bluelight-MP/UserDashboard.sol\":4341:4347  uniKey */\n      dup7\n        /* \"Bluelight-MP/UserDashboard.sol\":4334:4348  myNFTs[uniKey] */\n      dup2\n      mstore\n      0x20\n      add\n      swap1\n      dup2\n      mstore\n      0x20\n      add\n      0x00\n      keccak256\n        /* \"Bluelight-MP/UserDashboard.sol\":4334:4353  myNFTs[uniKey].ipfs */\n      0x04\n      add\n        /* \"Bluelight-MP/UserDashboard.sol\":4215:4354  return (myNFTs[uniKey].nftName, myNFTs[uniKey].contractAddress, myNFTs[uniKey].tokenId, myNFTs[uniKey].owner,\r... */\n      dup5\n      dup1\n      sload\n      tag_222\n      swap1\n      tag_153\n      jump\t// in\n    tag_222:\n      dup1\n      0x1f\n      add\n      0x20\n      dup1\n      swap2\n      div\n      mul\n      0x20\n      add\n      mload(0x40)\n      swap1\n      dup2\n      add\n      0x40\n      mstore\n      dup1\n      swap3\n      swap2\n      swap1\n      dup2\n      dup2\n      mstore\n      0x20\n      add\n      dup3\n      dup1\n      sload\n      tag_223\n      swap1\n      tag_153\n      jump\t// in\n    tag_223:\n      dup1\n      iszero\n      tag_224\n      jumpi\n      dup1\n      0x1f\n      lt\n      tag_225\n      jumpi\n      0x0100\n      dup1\n      dup4\n      sload\n      div\n      mul\n      dup4\n      mstore\n      swap2\n      0x20\n      add\n      swap2\n      jump(tag_224)\n    tag_225:\n      dup3\n      add\n      swap2\n      swap1\n      0x00\n      mstore\n      keccak256(0x00, 0x20)\n      swap1\n    tag_226:\n      dup2\n      sload\n      dup2\n      mstore\n      swap1\n      0x01\n      add\n      swap1\n      0x20\n      add\n      dup1\n      dup4\n      gt\n      tag_226\n      jumpi\n      dup3\n      swap1\n      sub\n      0x1f\n      and\n      dup3\n      add\n      swap2\n    tag_224:\n      pop\n      pop\n      pop\n      pop\n      pop\n      swap5\n      pop\n      dup1\n      dup1\n      sload\n      tag_227\n      swap1\n      tag_153\n      jump\t// in\n    tag_227:\n      dup1\n      0x1f\n      add\n      0x20\n      dup1\n      swap2\n      div\n      mul\n      0x20\n      add\n      mload(0x40)\n      swap1\n      dup2\n      add\n      0x40\n      mstore\n      dup1\n      swap3\n      swap2\n      swap1\n      dup2\n      dup2\n      mstore\n      0x20\n      add\n      dup3\n      dup1\n      sload\n      tag_228\n      swap1\n      tag_153\n      jump\t// in\n    tag_228:\n      dup1\n      iszero\n      tag_229\n      jumpi\n      dup1\n      0x1f\n      lt\n      tag_230\n      jumpi\n      0x0100\n      dup1\n      dup4\n      sload\n      div\n      mul\n      dup4\n      mstore\n      swap2\n      0x20\n      add\n      swap2\n      jump(tag_229)\n    tag_230:\n      dup3\n      add\n      swap2\n      swap1\n      0x00\n      mstore\n      keccak256(0x00, 0x20)\n      swap1\n    tag_231:\n      dup2\n      sload\n      dup2\n      mstore\n      swap1\n      0x01\n      add\n      swap1\n      0x20\n      add\n      dup1\n      dup4\n      gt\n      tag_231\n      jumpi\n      dup3\n      swap1\n      sub\n      0x1f\n      and\n      dup3\n      add\n      swap2\n    tag_229:\n      pop\n      pop\n      pop\n      pop\n      pop\n      swap1\n      pop\n      swap6\n      pop\n      swap6\n      pop\n      swap6\n      pop\n      swap6\n      pop\n      swap6\n      pop\n      pop\n        /* \"Bluelight-MP/UserDashboard.sol\":3966:4362  function getNftWithBytes32(bytes32 _uniKey) external virtual override view \r... */\n      swap2\n      swap4\n      swap6\n      swap1\n      swap3\n      swap5\n      pop\n      jump\t// out\n        /* \"Bluelight-MP/UserDashboard.sol\":5631:5861  function logOut() external virtual override{\r... */\n    tag_74:\n        /* \"Bluelight-MP/UserDashboard.sol\":5694:5699  users */\n      0x05\n        /* \"Bluelight-MP/UserDashboard.sol\":5694:5711  users[msg.sender] */\n      0x00\n        /* \"Bluelight-MP/UserDashboard.sol\":5700:5710  msg.sender */\n      caller\n        /* \"Bluelight-MP/UserDashboard.sol\":5694:5711  users[msg.sender] */\n      0xffffffffffffffffffffffffffffffffffffffff\n      and\n      0xffffffffffffffffffffffffffffffffffffffff\n      and\n      dup2\n      mstore\n      0x20\n      add\n      swap1\n      dup2\n      mstore\n      0x20\n      add\n      0x00\n      keccak256\n        /* \"Bluelight-MP/UserDashboard.sol\":5694:5720  users[msg.sender].loggedIn */\n      0x03\n      add\n      0x00\n      swap1\n      sload\n      swap1\n      0x0100\n      exp\n      swap1\n      div\n      0xff\n      and\n        /* \"Bluelight-MP/UserDashboard.sol\":5722:5741  CREATE_ACC_OR_LOGIN */\n      mload(0x40)\n      dup1\n      0x40\n      add\n      0x40\n      mstore\n      dup1\n      0x05\n      dup2\n      mstore\n      0x20\n      add\n      0x574d552d32000000000000000000000000000000000000000000000000000000\n      dup2\n      mstore\n      pop\n        /* \"Bluelight-MP/UserDashboard.sol\":5685:5742  require (users[msg.sender].loggedIn, CREATE_ACC_OR_LOGIN) */\n      swap1\n      tag_233\n      jumpi\n      mload(0x40)\n      0x08c379a000000000000000000000000000000000000000000000000000000000\n      dup2\n      mstore\n      0x04\n      add\n      tag_234\n      swap2\n      swap1\n      tag_118\n      jump\t// in\n    tag_234:\n      mload(0x40)\n      dup1\n      swap2\n      sub\n      swap1\n      revert\n    tag_233:\n      pop\n        /* \"Bluelight-MP/UserDashboard.sol\":5782:5787  false */\n      0x00\n        /* \"Bluelight-MP/UserDashboard.sol\":5753:5758  users */\n      0x05\n        /* \"Bluelight-MP/UserDashboard.sol\":5753:5770  users[msg.sender] */\n      0x00\n        /* \"Bluelight-MP/UserDashboard.sol\":5759:5769  msg.sender */\n      caller\n        /* \"Bluelight-MP/UserDashboard.sol\":5753:5770  users[msg.sender] */\n      0xffffffffffffffffffffffffffffffffffffffff\n      and\n      0xffffffffffffffffffffffffffffffffffffffff\n      and\n      dup2\n      mstore\n      0x20\n      add\n      swap1\n      dup2\n      mstore\n      0x20\n      add\n      0x00\n      keccak256\n        /* \"Bluelight-MP/UserDashboard.sol\":5753:5779  users[msg.sender].loggedIn */\n      0x03\n      add\n      0x00\n        /* \"Bluelight-MP/UserDashboard.sol\":5753:5787  users[msg.sender].loggedIn = false */\n      0x0100\n      exp\n      dup2\n      sload\n      dup2\n      0xff\n      mul\n      not\n      and\n      swap1\n      dup4\n      iszero\n      iszero\n      mul\n      or\n      swap1\n      sstore\n      pop\n        /* \"Bluelight-MP/UserDashboard.sol\":5814:5824  msg.sender */\n      caller\n        /* \"Bluelight-MP/UserDashboard.sol\":5803:5842  LoggingOut(msg.sender, block.timestamp) */\n      0xffffffffffffffffffffffffffffffffffffffff\n      and\n      0x70d1177aa26c67f6b2fdb43400cfd7ff0c23a8712301abe5aba2ee3d89e28a10\n        /* \"Bluelight-MP/UserDashboard.sol\":5826:5841  block.timestamp */\n      timestamp\n        /* \"Bluelight-MP/UserDashboard.sol\":5803:5842  LoggingOut(msg.sender, block.timestamp) */\n      mload(0x40)\n      tag_235\n      swap2\n      swap1\n      tag_220\n      jump\t// in\n    tag_235:\n      mload(0x40)\n      dup1\n      swap2\n      sub\n      swap1\n      log2\n        /* \"Bluelight-MP/UserDashboard.sol\":5631:5861  function logOut() external virtual override{\r... */\n      jump\t// out\n        /* \"Bluelight-MP/UserDashboard.sol\":4859:4999  function getUniKeysMapping(address ownerOfNfts) external view returns(bytes32[] memory){\r... */\n    tag_78:\n        /* \"Bluelight-MP/UserDashboard.sol\":4929:4945  bytes32[] memory */\n      0x60\n        /* \"Bluelight-MP/UserDashboard.sol\":4964:4978  uniKeysMapping */\n      0x02\n        /* \"Bluelight-MP/UserDashboard.sol\":4964:4991  uniKeysMapping[ownerOfNfts] */\n      0x00\n        /* \"Bluelight-MP/UserDashboard.sol\":4979:4990  ownerOfNfts */\n      dup4\n        /* \"Bluelight-MP/UserDashboard.sol\":4964:4991  uniKeysMapping[ownerOfNfts] */\n      0xffffffffffffffffffffffffffffffffffffffff\n      and\n      0xffffffffffffffffffffffffffffffffffffffff\n      and\n      dup2\n      mstore\n      0x20\n      add\n      swap1\n      dup2\n      mstore\n      0x20\n      add\n      0x00\n      keccak256\n        /* \"Bluelight-MP/UserDashboard.sol\":4957:4991  return uniKeysMapping[ownerOfNfts] */\n      dup1\n      sload\n      dup1\n      0x20\n      mul\n      0x20\n      add\n      mload(0x40)\n      swap1\n      dup2\n      add\n      0x40\n      mstore\n      dup1\n      swap3\n      swap2\n      swap1\n      dup2\n      dup2\n      mstore\n      0x20\n      add\n      dup3\n      dup1\n      sload\n      dup1\n      iszero\n      tag_237\n      jumpi\n      0x20\n      mul\n      dup3\n      add\n      swap2\n      swap1\n      0x00\n      mstore\n      keccak256(0x00, 0x20)\n      swap1\n    tag_238:\n      dup2\n      sload\n      dup2\n      mstore\n      0x20\n      add\n      swap1\n      0x01\n      add\n      swap1\n      dup1\n      dup4\n      gt\n      tag_238\n      jumpi\n    tag_237:\n      pop\n      pop\n      pop\n      pop\n      pop\n      swap1\n      pop\n        /* \"Bluelight-MP/UserDashboard.sol\":4859:4999  function getUniKeysMapping(address ownerOfNfts) external view returns(bytes32[] memory){\r... */\n      swap2\n      swap1\n      pop\n      jump\t// out\n        /* \"Bluelight-MP/UserDashboard.sol\":1149:1201  mapping (string => address) public userNameToAddress */\n    tag_83:\n      0x06\n      dup2\n      dup1\n      mload\n      0x20\n      dup2\n      add\n      dup3\n      add\n      dup1\n      mload\n      dup5\n      dup3\n      mstore\n      0x20\n      dup4\n      add\n      0x20\n      dup6\n      add\n      keccak256\n      dup2\n      dup4\n      mstore\n      dup1\n      swap6\n      pop\n      pop\n      pop\n      pop\n      pop\n      pop\n      0x00\n      swap2\n      pop\n      sload\n      swap1\n      0x0100\n      exp\n      swap1\n      div\n      0xffffffffffffffffffffffffffffffffffffffff\n      and\n      dup2\n      jump\t// out\n        /* \"Bluelight-MP/UserDashboard.sol\":2033:2595  function setNft(string memory _name, address nftContractAddress, uint256 tokenId, string memory iPFS) external virtual override{\r... */\n    tag_89:\n        /* \"Bluelight-MP/UserDashboard.sol\":2180:2185  users */\n      0x05\n        /* \"Bluelight-MP/UserDashboard.sol\":2180:2197  users[msg.sender] */\n      0x00\n        /* \"Bluelight-MP/UserDashboard.sol\":2186:2196  msg.sender */\n      caller\n        /* \"Bluelight-MP/UserDashboard.sol\":2180:2197  users[msg.sender] */\n      0xffffffffffffffffffffffffffffffffffffffff\n      and\n      0xffffffffffffffffffffffffffffffffffffffff\n      and\n      dup2\n      mstore\n      0x20\n      add\n      swap1\n      dup2\n      mstore\n      0x20\n      add\n      0x00\n      keccak256\n        /* \"Bluelight-MP/UserDashboard.sol\":2180:2206  users[msg.sender].loggedIn */\n      0x03\n      add\n      0x00\n      swap1\n      sload\n      swap1\n      0x0100\n      exp\n      swap1\n      div\n      0xff\n      and\n        /* \"Bluelight-MP/UserDashboard.sol\":2208:2227  CREATE_ACC_OR_LOGIN */\n      mload(0x40)\n      dup1\n      0x40\n      add\n      0x40\n      mstore\n      dup1\n      0x05\n      dup2\n      mstore\n      0x20\n      add\n      0x574d552d32000000000000000000000000000000000000000000000000000000\n      dup2\n      mstore\n      pop\n        /* \"Bluelight-MP/UserDashboard.sol\":2171:2228  require (users[msg.sender].loggedIn, CREATE_ACC_OR_LOGIN) */\n      swap1\n      tag_240\n      jumpi\n      mload(0x40)\n      0x08c379a000000000000000000000000000000000000000000000000000000000\n      dup2\n      mstore\n      0x04\n      add\n      tag_241\n      swap2\n      swap1\n      tag_118\n      jump\t// in\n    tag_241:\n      mload(0x40)\n      dup1\n      swap2\n      sub\n      swap1\n      revert\n    tag_240:\n      pop\n        /* \"Bluelight-MP/UserDashboard.sol\":2241:2255  bytes32 uniKey */\n      0x00\n        /* \"Bluelight-MP/UserDashboard.sol\":2258:2306  getPrivateUniqueKey(nftContractAddress, tokenId) */\n      tag_242\n        /* \"Bluelight-MP/UserDashboard.sol\":2278:2296  nftContractAddress */\n      dup5\n        /* \"Bluelight-MP/UserDashboard.sol\":2298:2305  tokenId */\n      dup5\n        /* \"Bluelight-MP/UserDashboard.sol\":2258:2277  getPrivateUniqueKey */\n      tag_189\n        /* \"Bluelight-MP/UserDashboard.sol\":2258:2306  getPrivateUniqueKey(nftContractAddress, tokenId) */\n      jump\t// in\n    tag_242:\n        /* \"Bluelight-MP/UserDashboard.sol\":2241:2306  bytes32 uniKey = getPrivateUniqueKey(nftContractAddress, tokenId) */\n      swap1\n      pop\n        /* \"Bluelight-MP/UserDashboard.sol\":2343:2348  _name */\n      dup5\n        /* \"Bluelight-MP/UserDashboard.sol\":2318:2324  myNFTs */\n      0x01\n        /* \"Bluelight-MP/UserDashboard.sol\":2318:2332  myNFTs[uniKey] */\n      0x00\n        /* \"Bluelight-MP/UserDashboard.sol\":2325:2331  uniKey */\n      dup4\n        /* \"Bluelight-MP/UserDashboard.sol\":2318:2332  myNFTs[uniKey] */\n      dup2\n      mstore\n      0x20\n      add\n      swap1\n      dup2\n      mstore\n      0x20\n      add\n      0x00\n      keccak256\n        /* \"Bluelight-MP/UserDashboard.sol\":2318:2340  myNFTs[uniKey].nftName */\n      0x00\n      add\n        /* \"Bluelight-MP/UserDashboard.sol\":2318:2348  myNFTs[uniKey].nftName = _name */\n      swap1\n      dup1\n      mload\n      swap1\n      0x20\n      add\n      swap1\n      tag_243\n      swap3\n      swap2\n      swap1\n      tag_148\n      jump\t// in\n    tag_243:\n      pop\n        /* \"Bluelight-MP/UserDashboard.sol\":2392:2410  nftContractAddress */\n      dup4\n        /* \"Bluelight-MP/UserDashboard.sol\":2359:2365  myNFTs */\n      0x01\n        /* \"Bluelight-MP/UserDashboard.sol\":2359:2373  myNFTs[uniKey] */\n      0x00\n        /* \"Bluelight-MP/UserDashboard.sol\":2366:2372  uniKey */\n      dup4\n        /* \"Bluelight-MP/UserDashboard.sol\":2359:2373  myNFTs[uniKey] */\n      dup2\n      mstore\n      0x20\n      add\n      swap1\n      dup2\n      mstore\n      0x20\n      add\n      0x00\n      keccak256\n        /* \"Bluelight-MP/UserDashboard.sol\":2359:2389  myNFTs[uniKey].contractAddress */\n      0x01\n      add\n      0x00\n        /* \"Bluelight-MP/UserDashboard.sol\":2359:2410  myNFTs[uniKey].contractAddress = nftContractAddress */\n      0x0100\n      exp\n      dup2\n      sload\n      dup2\n      0xffffffffffffffffffffffffffffffffffffffff\n      mul\n      not\n      and\n      swap1\n      dup4\n      0xffffffffffffffffffffffffffffffffffffffff\n      and\n      mul\n      or\n      swap1\n      sstore\n      pop\n        /* \"Bluelight-MP/UserDashboard.sol\":2446:2453  tokenId */\n      dup3\n        /* \"Bluelight-MP/UserDashboard.sol\":2421:2427  myNFTs */\n      0x01\n        /* \"Bluelight-MP/UserDashboard.sol\":2421:2435  myNFTs[uniKey] */\n      0x00\n        /* \"Bluelight-MP/UserDashboard.sol\":2428:2434  uniKey */\n      dup4\n        /* \"Bluelight-MP/UserDashboard.sol\":2421:2435  myNFTs[uniKey] */\n      dup2\n      mstore\n      0x20\n      add\n      swap1\n      dup2\n      mstore\n      0x20\n      add\n      0x00\n      keccak256\n        /* \"Bluelight-MP/UserDashboard.sol\":2421:2443  myNFTs[uniKey].tokenId */\n      0x02\n      add\n        /* \"Bluelight-MP/UserDashboard.sol\":2421:2453  myNFTs[uniKey].tokenId = tokenId */\n      dup2\n      swap1\n      sstore\n      pop\n        /* \"Bluelight-MP/UserDashboard.sol\":2487:2497  msg.sender */\n      caller\n        /* \"Bluelight-MP/UserDashboard.sol\":2464:2470  myNFTs */\n      0x01\n        /* \"Bluelight-MP/UserDashboard.sol\":2464:2478  myNFTs[uniKey] */\n      0x00\n        /* \"Bluelight-MP/UserDashboard.sol\":2471:2477  uniKey */\n      dup4\n        /* \"Bluelight-MP/UserDashboard.sol\":2464:2478  myNFTs[uniKey] */\n      dup2\n      mstore\n      0x20\n      add\n      swap1\n      dup2\n      mstore\n      0x20\n      add\n      0x00\n      keccak256\n        /* \"Bluelight-MP/UserDashboard.sol\":2464:2484  myNFTs[uniKey].owner */\n      0x03\n      add\n      0x00\n        /* \"Bluelight-MP/UserDashboard.sol\":2464:2497  myNFTs[uniKey].owner = msg.sender */\n      0x0100\n      exp\n      dup2\n      sload\n      dup2\n      0xffffffffffffffffffffffffffffffffffffffff\n      mul\n      not\n      and\n      swap1\n      dup4\n      0xffffffffffffffffffffffffffffffffffffffff\n      and\n      mul\n      or\n      swap1\n      sstore\n      pop\n        /* \"Bluelight-MP/UserDashboard.sol\":2530:2534  iPFS */\n      dup2\n        /* \"Bluelight-MP/UserDashboard.sol\":2508:2514  myNFTs */\n      0x01\n        /* \"Bluelight-MP/UserDashboard.sol\":2508:2522  myNFTs[uniKey] */\n      0x00\n        /* \"Bluelight-MP/UserDashboard.sol\":2515:2521  uniKey */\n      dup4\n        /* \"Bluelight-MP/UserDashboard.sol\":2508:2522  myNFTs[uniKey] */\n      dup2\n      mstore\n      0x20\n      add\n      swap1\n      dup2\n      mstore\n      0x20\n      add\n      0x00\n      keccak256\n        /* \"Bluelight-MP/UserDashboard.sol\":2508:2527  myNFTs[uniKey].ipfs */\n      0x04\n      add\n        /* \"Bluelight-MP/UserDashboard.sol\":2508:2534  myNFTs[uniKey].ipfs = iPFS */\n      swap1\n      dup1\n      mload\n      swap1\n      0x20\n      add\n      swap1\n      tag_244\n      swap3\n      swap2\n      swap1\n      tag_148\n      jump\t// in\n    tag_244:\n      pop\n        /* \"Bluelight-MP/UserDashboard.sol\":2546:2560  uniKeysMapping */\n      0x02\n        /* \"Bluelight-MP/UserDashboard.sol\":2546:2572  uniKeysMapping[msg.sender] */\n      0x00\n        /* \"Bluelight-MP/UserDashboard.sol\":2561:2571  msg.sender */\n      caller\n        /* \"Bluelight-MP/UserDashboard.sol\":2546:2572  uniKeysMapping[msg.sender] */\n      0xffffffffffffffffffffffffffffffffffffffff\n      and\n      0xffffffffffffffffffffffffffffffffffffffff\n      and\n      dup2\n      mstore\n      0x20\n      add\n      swap1\n      dup2\n      mstore\n      0x20\n      add\n      0x00\n      keccak256\n        /* \"Bluelight-MP/UserDashboard.sol\":2578:2584  uniKey */\n      dup2\n        /* \"Bluelight-MP/UserDashboard.sol\":2546:2585  uniKeysMapping[msg.sender].push(uniKey) */\n      swap1\n      dup1\n      0x01\n      dup2\n      sload\n      add\n      dup1\n      dup3\n      sstore\n      dup1\n      swap2\n      pop\n      pop\n      0x01\n      swap1\n      sub\n      swap1\n      0x00\n      mstore\n      keccak256(0x00, 0x20)\n      add\n      0x00\n      swap1\n      swap2\n      swap1\n      swap2\n      swap1\n      swap2\n      pop\n      sstore\n        /* \"Bluelight-MP/UserDashboard.sol\":2033:2595  function setNft(string memory _name, address nftContractAddress, uint256 tokenId, string memory iPFS) external virtual override{\r... */\n      pop\n      pop\n      pop\n      pop\n      pop\n      jump\t// out\n        /* \"Bluelight-MP/UserDashboard.sol\":1248:1310  mapping (address => AmountRecord) public addressToAmountRecord */\n    tag_92:\n      mstore(0x20, 0x07)\n      dup1\n      0x00\n      mstore\n      keccak256(0x00, 0x40)\n      0x00\n      swap2\n      pop\n      swap1\n      pop\n      dup1\n      0x00\n      add\n      sload\n      swap1\n      dup1\n      0x01\n      add\n      sload\n      swap1\n      dup1\n      0x02\n      add\n      sload\n      swap1\n      dup1\n      0x03\n      add\n      sload\n      swap1\n      pop\n      dup5\n      jump\t// out\n        /* \"Bluelight-MP/UserDashboard.sol\":7640:8098  function setAmountRecord(address user, uint curAmountSpent, uint tokenAmountSpent, uint curAmountEarned, uint tokenAmountEarned) external virtual override{\r... */\n    tag_98:\n        /* \"Bluelight-MP/UserDashboard.sol\":7851:7865  curAmountSpent */\n      dup4\n        /* \"Bluelight-MP/UserDashboard.sol\":7805:7826  addressToAmountRecord */\n      0x07\n        /* \"Bluelight-MP/UserDashboard.sol\":7805:7832  addressToAmountRecord[user] */\n      0x00\n        /* \"Bluelight-MP/UserDashboard.sol\":7827:7831  user */\n      dup8\n        /* \"Bluelight-MP/UserDashboard.sol\":7805:7832  addressToAmountRecord[user] */\n      0xffffffffffffffffffffffffffffffffffffffff\n      and\n      0xffffffffffffffffffffffffffffffffffffffff\n      and\n      dup2\n      mstore\n      0x20\n      add\n      swap1\n      dup2\n      mstore\n      0x20\n      add\n      0x00\n      keccak256\n        /* \"Bluelight-MP/UserDashboard.sol\":7805:7847  addressToAmountRecord[user].curAmountSpent */\n      0x00\n      add\n      0x00\n        /* \"Bluelight-MP/UserDashboard.sol\":7805:7865  addressToAmountRecord[user].curAmountSpent += curAmountSpent */\n      dup3\n      dup3\n      sload\n      tag_247\n      swap2\n      swap1\n      tag_248\n      jump\t// in\n    tag_247:\n      swap3\n      pop\n      pop\n      dup2\n      swap1\n      sstore\n      pop\n        /* \"Bluelight-MP/UserDashboard.sol\":7924:7940  tokenAmountSpent */\n      dup3\n        /* \"Bluelight-MP/UserDashboard.sol\":7876:7897  addressToAmountRecord */\n      0x07\n        /* \"Bluelight-MP/UserDashboard.sol\":7876:7903  addressToAmountRecord[user] */\n      0x00\n        /* \"Bluelight-MP/UserDashboard.sol\":7898:7902  user */\n      dup8\n        /* \"Bluelight-MP/UserDashboard.sol\":7876:7903  addressToAmountRecord[user] */\n      0xffffffffffffffffffffffffffffffffffffffff\n      and\n      0xffffffffffffffffffffffffffffffffffffffff\n      and\n      dup2\n      mstore\n      0x20\n      add\n      swap1\n      dup2\n      mstore\n      0x20\n      add\n      0x00\n      keccak256\n        /* \"Bluelight-MP/UserDashboard.sol\":7876:7920  addressToAmountRecord[user].tokenAmountSpent */\n      0x01\n      add\n      0x00\n        /* \"Bluelight-MP/UserDashboard.sol\":7876:7940  addressToAmountRecord[user].tokenAmountSpent += tokenAmountSpent */\n      dup3\n      dup3\n      sload\n      tag_249\n      swap2\n      swap1\n      tag_248\n      jump\t// in\n    tag_249:\n      swap3\n      pop\n      pop\n      dup2\n      swap1\n      sstore\n      pop\n        /* \"Bluelight-MP/UserDashboard.sol\":7998:8013  curAmountEarned */\n      dup2\n        /* \"Bluelight-MP/UserDashboard.sol\":7951:7972  addressToAmountRecord */\n      0x07\n        /* \"Bluelight-MP/UserDashboard.sol\":7951:7978  addressToAmountRecord[user] */\n      0x00\n        /* \"Bluelight-MP/UserDashboard.sol\":7973:7977  user */\n      dup8\n        /* \"Bluelight-MP/UserDashboard.sol\":7951:7978  addressToAmountRecord[user] */\n      0xffffffffffffffffffffffffffffffffffffffff\n      and\n      0xffffffffffffffffffffffffffffffffffffffff\n      and\n      dup2\n      mstore\n      0x20\n      add\n      swap1\n      dup2\n      mstore\n      0x20\n      add\n      0x00\n      keccak256\n        /* \"Bluelight-MP/UserDashboard.sol\":7951:7994  addressToAmountRecord[user].curAmountEarned */\n      0x02\n      add\n      0x00\n        /* \"Bluelight-MP/UserDashboard.sol\":7951:8013  addressToAmountRecord[user].curAmountEarned += curAmountEarned */\n      dup3\n      dup3\n      sload\n      tag_250\n      swap2\n      swap1\n      tag_248\n      jump\t// in\n    tag_250:\n      swap3\n      pop\n      pop\n      dup2\n      swap1\n      sstore\n      pop\n        /* \"Bluelight-MP/UserDashboard.sol\":8073:8090  tokenAmountEarned */\n      dup1\n        /* \"Bluelight-MP/UserDashboard.sol\":8024:8045  addressToAmountRecord */\n      0x07\n        /* \"Bluelight-MP/UserDashboard.sol\":8024:8051  addressToAmountRecord[user] */\n      0x00\n        /* \"Bluelight-MP/UserDashboard.sol\":8046:8050  user */\n      dup8\n        /* \"Bluelight-MP/UserDashboard.sol\":8024:8051  addressToAmountRecord[user] */\n      0xffffffffffffffffffffffffffffffffffffffff\n      and\n      0xffffffffffffffffffffffffffffffffffffffff\n      and\n      dup2\n      mstore\n      0x20\n      add\n      swap1\n      dup2\n      mstore\n      0x20\n      add\n      0x00\n      keccak256\n        /* \"Bluelight-MP/UserDashboard.sol\":8024:8069  addressToAmountRecord[user].tokenAmountEarned */\n      0x03\n      add\n      0x00\n        /* \"Bluelight-MP/UserDashboard.sol\":8024:8090  addressToAmountRecord[user].tokenAmountEarned += tokenAmountEarned */\n      dup3\n      dup3\n      sload\n      tag_251\n      swap2\n      swap1\n      tag_248\n      jump\t// in\n    tag_251:\n      swap3\n      pop\n      pop\n      dup2\n      swap1\n      sstore\n      pop\n        /* \"Bluelight-MP/UserDashboard.sol\":7640:8098  function setAmountRecord(address user, uint curAmountSpent, uint tokenAmountSpent, uint curAmountEarned, uint tokenAmountEarned) external virtual override{\r... */\n      pop\n      pop\n      pop\n      pop\n      pop\n      jump\t// out\n        /* \"Bluelight-MP/UserDashboard.sol\":8104:8514  function userAmountDetail(address user) external virtual override view \r... */\n    tag_101:\n        /* \"Bluelight-MP/UserDashboard.sol\":8193:8212  uint currencyEarned */\n      0x00\n        /* \"Bluelight-MP/UserDashboard.sol\":8214:8230  uint earnedToken */\n      dup1\n        /* \"Bluelight-MP/UserDashboard.sol\":8232:8250  uint currencySpent */\n      0x00\n        /* \"Bluelight-MP/UserDashboard.sol\":8252:8267  uint tokenSpent */\n      dup1\n        /* \"Bluelight-MP/UserDashboard.sol\":8300:8321  addressToAmountRecord */\n      0x07\n        /* \"Bluelight-MP/UserDashboard.sol\":8300:8327  addressToAmountRecord[user] */\n      0x00\n        /* \"Bluelight-MP/UserDashboard.sol\":8322:8326  user */\n      dup7\n        /* \"Bluelight-MP/UserDashboard.sol\":8300:8327  addressToAmountRecord[user] */\n      0xffffffffffffffffffffffffffffffffffffffff\n      and\n      0xffffffffffffffffffffffffffffffffffffffff\n      and\n      dup2\n      mstore\n      0x20\n      add\n      swap1\n      dup2\n      mstore\n      0x20\n      add\n      0x00\n      keccak256\n        /* \"Bluelight-MP/UserDashboard.sol\":8300:8343  addressToAmountRecord[user].curAmountEarned */\n      0x02\n      add\n      sload\n        /* \"Bluelight-MP/UserDashboard.sol\":8345:8366  addressToAmountRecord */\n      0x07\n        /* \"Bluelight-MP/UserDashboard.sol\":8345:8372  addressToAmountRecord[user] */\n      0x00\n        /* \"Bluelight-MP/UserDashboard.sol\":8367:8371  user */\n      dup8\n        /* \"Bluelight-MP/UserDashboard.sol\":8345:8372  addressToAmountRecord[user] */\n      0xffffffffffffffffffffffffffffffffffffffff\n      and\n      0xffffffffffffffffffffffffffffffffffffffff\n      and\n      dup2\n      mstore\n      0x20\n      add\n      swap1\n      dup2\n      mstore\n      0x20\n      add\n      0x00\n      keccak256\n        /* \"Bluelight-MP/UserDashboard.sol\":8345:8390  addressToAmountRecord[user].tokenAmountEarned */\n      0x03\n      add\n      sload\n        /* \"Bluelight-MP/UserDashboard.sol\":8406:8427  addressToAmountRecord */\n      0x07\n        /* \"Bluelight-MP/UserDashboard.sol\":8406:8433  addressToAmountRecord[user] */\n      0x00\n        /* \"Bluelight-MP/UserDashboard.sol\":8428:8432  user */\n      dup9\n        /* \"Bluelight-MP/UserDashboard.sol\":8406:8433  addressToAmountRecord[user] */\n      0xffffffffffffffffffffffffffffffffffffffff\n      and\n      0xffffffffffffffffffffffffffffffffffffffff\n      and\n      dup2\n      mstore\n      0x20\n      add\n      swap1\n      dup2\n      mstore\n      0x20\n      add\n      0x00\n      keccak256\n        /* \"Bluelight-MP/UserDashboard.sol\":8406:8448  addressToAmountRecord[user].curAmountSpent */\n      0x00\n      add\n      sload\n        /* \"Bluelight-MP/UserDashboard.sol\":8451:8472  addressToAmountRecord */\n      0x07\n        /* \"Bluelight-MP/UserDashboard.sol\":8451:8478  addressToAmountRecord[user] */\n      0x00\n        /* \"Bluelight-MP/UserDashboard.sol\":8473:8477  user */\n      dup10\n        /* \"Bluelight-MP/UserDashboard.sol\":8451:8478  addressToAmountRecord[user] */\n      0xffffffffffffffffffffffffffffffffffffffff\n      and\n      0xffffffffffffffffffffffffffffffffffffffff\n      and\n      dup2\n      mstore\n      0x20\n      add\n      swap1\n      dup2\n      mstore\n      0x20\n      add\n      0x00\n      keccak256\n        /* \"Bluelight-MP/UserDashboard.sol\":8451:8495  addressToAmountRecord[user].tokenAmountSpent */\n      0x01\n      add\n      sload\n        /* \"Bluelight-MP/UserDashboard.sol\":8279:8506  return(\r... */\n      swap4\n      pop\n      swap4\n      pop\n      swap4\n      pop\n      swap4\n      pop\n        /* \"Bluelight-MP/UserDashboard.sol\":8104:8514  function userAmountDetail(address user) external virtual override view \r... */\n      swap2\n      swap4\n      pop\n      swap2\n      swap4\n      jump\t// out\n        /* \"Bluelight-MP/UserDashboard.sol\":5867:6518  function signUp(string memory _userName) external virtual override{\r... */\n    tag_105:\n        /* \"Bluelight-MP/UserDashboard.sol\":5954:5959  users */\n      0x05\n        /* \"Bluelight-MP/UserDashboard.sol\":5954:5971  users[msg.sender] */\n      0x00\n        /* \"Bluelight-MP/UserDashboard.sol\":5960:5970  msg.sender */\n      caller\n        /* \"Bluelight-MP/UserDashboard.sol\":5954:5971  users[msg.sender] */\n      0xffffffffffffffffffffffffffffffffffffffff\n      and\n      0xffffffffffffffffffffffffffffffffffffffff\n      and\n      dup2\n      mstore\n      0x20\n      add\n      swap1\n      dup2\n      mstore\n      0x20\n      add\n      0x00\n      keccak256\n        /* \"Bluelight-MP/UserDashboard.sol\":5954:5983  users[msg.sender].userExisted */\n      0x01\n      add\n      0x00\n      swap1\n      sload\n      swap1\n      0x0100\n      exp\n      swap1\n      div\n      0xff\n      and\n        /* \"Bluelight-MP/UserDashboard.sol\":5953:5983  !users[msg.sender].userExisted */\n      iszero\n        /* \"Bluelight-MP/UserDashboard.sol\":5985:5997  USER_EXISTED */\n      mload(0x40)\n      dup1\n      0x40\n      add\n      0x40\n      mstore\n      dup1\n      0x05\n      dup2\n      mstore\n      0x20\n      add\n      0x574d552d34000000000000000000000000000000000000000000000000000000\n      dup2\n      mstore\n      pop\n        /* \"Bluelight-MP/UserDashboard.sol\":5944:5998  require (!users[msg.sender].userExisted, USER_EXISTED) */\n      swap1\n      tag_254\n      jumpi\n      mload(0x40)\n      0x08c379a000000000000000000000000000000000000000000000000000000000\n      dup2\n      mstore\n      0x04\n      add\n      tag_255\n      swap2\n      swap1\n      tag_118\n      jump\t// in\n    tag_255:\n      mload(0x40)\n      dup1\n      swap2\n      sub\n      swap1\n      revert\n    tag_254:\n      pop\n        /* \"Bluelight-MP/UserDashboard.sol\":6058:6059  0 */\n      0x00\n        /* \"Bluelight-MP/UserDashboard.sol\":6018:6060  userNameToAddress[_userName] == address(0) */\n      0xffffffffffffffffffffffffffffffffffffffff\n      and\n        /* \"Bluelight-MP/UserDashboard.sol\":6018:6035  userNameToAddress */\n      0x06\n        /* \"Bluelight-MP/UserDashboard.sol\":6036:6045  _userName */\n      dup3\n        /* \"Bluelight-MP/UserDashboard.sol\":6018:6046  userNameToAddress[_userName] */\n      mload(0x40)\n      tag_256\n      swap2\n      swap1\n      tag_159\n      jump\t// in\n    tag_256:\n      swap1\n      dup2\n      mstore\n      0x20\n      add\n      mload(0x40)\n      dup1\n      swap2\n      sub\n      swap1\n      keccak256\n      0x00\n      swap1\n      sload\n      swap1\n      0x0100\n      exp\n      swap1\n      div\n      0xffffffffffffffffffffffffffffffffffffffff\n      and\n        /* \"Bluelight-MP/UserDashboard.sol\":6018:6060  userNameToAddress[_userName] == address(0) */\n      0xffffffffffffffffffffffffffffffffffffffff\n      and\n      eq\n        /* \"Bluelight-MP/UserDashboard.sol\":6062:6079  USER_NAME_EXISTED */\n      mload(0x40)\n      dup1\n      0x40\n      add\n      0x40\n      mstore\n      dup1\n      0x05\n      dup2\n      mstore\n      0x20\n      add\n      0x574d552d36000000000000000000000000000000000000000000000000000000\n      dup2\n      mstore\n      pop\n        /* \"Bluelight-MP/UserDashboard.sol\":6009:6080  require (userNameToAddress[_userName] == address(0), USER_NAME_EXISTED) */\n      swap1\n      tag_257\n      jumpi\n      mload(0x40)\n      0x08c379a000000000000000000000000000000000000000000000000000000000\n      dup2\n      mstore\n      0x04\n      add\n      tag_258\n      swap2\n      swap1\n      tag_118\n      jump\t// in\n    tag_258:\n      mload(0x40)\n      dup1\n      swap2\n      sub\n      swap1\n      revert\n    tag_257:\n      pop\n        /* \"Bluelight-MP/UserDashboard.sol\":6122:6131  _userName */\n      dup1\n        /* \"Bluelight-MP/UserDashboard.sol\":6093:6098  users */\n      0x05\n        /* \"Bluelight-MP/UserDashboard.sol\":6093:6110  users[msg.sender] */\n      0x00\n        /* \"Bluelight-MP/UserDashboard.sol\":6099:6109  msg.sender */\n      caller\n        /* \"Bluelight-MP/UserDashboard.sol\":6093:6110  users[msg.sender] */\n      0xffffffffffffffffffffffffffffffffffffffff\n      and\n      0xffffffffffffffffffffffffffffffffffffffff\n      and\n      dup2\n      mstore\n      0x20\n      add\n      swap1\n      dup2\n      mstore\n      0x20\n      add\n      0x00\n      keccak256\n        /* \"Bluelight-MP/UserDashboard.sol\":6093:6119  users[msg.sender].userName */\n      0x00\n      add\n        /* \"Bluelight-MP/UserDashboard.sol\":6093:6131  users[msg.sender].userName = _userName */\n      swap1\n      dup1\n      mload\n      swap1\n      0x20\n      add\n      swap1\n      tag_259\n      swap3\n      swap2\n      swap1\n      tag_148\n      jump\t// in\n    tag_259:\n      pop\n        /* \"Bluelight-MP/UserDashboard.sol\":6174:6178  true */\n      0x01\n        /* \"Bluelight-MP/UserDashboard.sol\":6142:6147  users */\n      0x05\n        /* \"Bluelight-MP/UserDashboard.sol\":6142:6159  users[msg.sender] */\n      0x00\n        /* \"Bluelight-MP/UserDashboard.sol\":6148:6158  msg.sender */\n      caller\n        /* \"Bluelight-MP/UserDashboard.sol\":6142:6159  users[msg.sender] */\n      0xffffffffffffffffffffffffffffffffffffffff\n      and\n      0xffffffffffffffffffffffffffffffffffffffff\n      and\n      dup2\n      mstore\n      0x20\n      add\n      swap1\n      dup2\n      mstore\n      0x20\n      add\n      0x00\n      keccak256\n        /* \"Bluelight-MP/UserDashboard.sol\":6142:6171  users[msg.sender].userExisted */\n      0x01\n      add\n      0x00\n        /* \"Bluelight-MP/UserDashboard.sol\":6142:6178  users[msg.sender].userExisted = true */\n      0x0100\n      exp\n      dup2\n      sload\n      dup2\n      0xff\n      mul\n      not\n      and\n      swap1\n      dup4\n      iszero\n      iszero\n      mul\n      or\n      swap1\n      sstore\n      pop\n        /* \"Bluelight-MP/UserDashboard.sol\":6222:6237  block.timestamp */\n      timestamp\n        /* \"Bluelight-MP/UserDashboard.sol\":6189:6194  users */\n      0x05\n        /* \"Bluelight-MP/UserDashboard.sol\":6189:6206  users[msg.sender] */\n      0x00\n        /* \"Bluelight-MP/UserDashboard.sol\":6195:6205  msg.sender */\n      caller\n        /* \"Bluelight-MP/UserDashboard.sol\":6189:6206  users[msg.sender] */\n      0xffffffffffffffffffffffffffffffffffffffff\n      and\n      0xffffffffffffffffffffffffffffffffffffffff\n      and\n      dup2\n      mstore\n      0x20\n      add\n      swap1\n      dup2\n      mstore\n      0x20\n      add\n      0x00\n      keccak256\n        /* \"Bluelight-MP/UserDashboard.sol\":6189:6219  users[msg.sender].creationTime */\n      0x02\n      add\n        /* \"Bluelight-MP/UserDashboard.sol\":6189:6237  users[msg.sender].creationTime = block.timestamp */\n      dup2\n      swap1\n      sstore\n      pop\n        /* \"Bluelight-MP/UserDashboard.sol\":6277:6281  true */\n      0x01\n        /* \"Bluelight-MP/UserDashboard.sol\":6248:6253  users */\n      0x05\n        /* \"Bluelight-MP/UserDashboard.sol\":6248:6265  users[msg.sender] */\n      0x00\n        /* \"Bluelight-MP/UserDashboard.sol\":6254:6264  msg.sender */\n      caller\n        /* \"Bluelight-MP/UserDashboard.sol\":6248:6265  users[msg.sender] */\n      0xffffffffffffffffffffffffffffffffffffffff\n      and\n      0xffffffffffffffffffffffffffffffffffffffff\n      and\n      dup2\n      mstore\n      0x20\n      add\n      swap1\n      dup2\n      mstore\n      0x20\n      add\n      0x00\n      keccak256\n        /* \"Bluelight-MP/UserDashboard.sol\":6248:6274  users[msg.sender].loggedIn */\n      0x03\n      add\n      0x00\n        /* \"Bluelight-MP/UserDashboard.sol\":6248:6281  users[msg.sender].loggedIn = true */\n      0x0100\n      exp\n      dup2\n      sload\n      dup2\n      0xff\n      mul\n      not\n      and\n      swap1\n      dup4\n      iszero\n      iszero\n      mul\n      or\n      swap1\n      sstore\n      pop\n        /* \"Bluelight-MP/UserDashboard.sol\":6323:6333  msg.sender */\n      caller\n        /* \"Bluelight-MP/UserDashboard.sol\":6292:6309  userNameToAddress */\n      0x06\n        /* \"Bluelight-MP/UserDashboard.sol\":6310:6319  _userName */\n      dup3\n        /* \"Bluelight-MP/UserDashboard.sol\":6292:6320  userNameToAddress[_userName] */\n      mload(0x40)\n      tag_260\n      swap2\n      swap1\n      tag_159\n      jump\t// in\n    tag_260:\n      swap1\n      dup2\n      mstore\n      0x20\n      add\n      mload(0x40)\n      dup1\n      swap2\n      sub\n      swap1\n      keccak256\n      0x00\n        /* \"Bluelight-MP/UserDashboard.sol\":6292:6333  userNameToAddress[_userName] = msg.sender */\n      0x0100\n      exp\n      dup2\n      sload\n      dup2\n      0xffffffffffffffffffffffffffffffffffffffff\n      mul\n      not\n      and\n      swap1\n      dup4\n      0xffffffffffffffffffffffffffffffffffffffff\n      and\n      mul\n      or\n      swap1\n      sstore\n      pop\n        /* \"Bluelight-MP/UserDashboard.sol\":6463:6473  msg.sender */\n      caller\n        /* \"Bluelight-MP/UserDashboard.sol\":6455:6502  SignUp (msg.sender, _userName, block.timestamp) */\n      0xffffffffffffffffffffffffffffffffffffffff\n      and\n      0xee20c2c019dcbca8d08ff74c4ce6f465e02d3611905c9aceeb76a0c8e429af2f\n        /* \"Bluelight-MP/UserDashboard.sol\":6475:6484  _userName */\n      dup3\n        /* \"Bluelight-MP/UserDashboard.sol\":6486:6501  block.timestamp */\n      timestamp\n        /* \"Bluelight-MP/UserDashboard.sol\":6455:6502  SignUp (msg.sender, _userName, block.timestamp) */\n      mload(0x40)\n      tag_261\n      swap3\n      swap2\n      swap1\n      tag_262\n      jump\t// in\n    tag_261:\n      mload(0x40)\n      dup1\n      swap2\n      sub\n      swap1\n      log2\n        /* \"Bluelight-MP/UserDashboard.sol\":5867:6518  function signUp(string memory _userName) external virtual override{\r... */\n      pop\n      jump\t// out\n        /* \"Bluelight-MP/UserDashboard.sol\":939:991  mapping (NftCategory => bytes32[]) public nftCatWise */\n    tag_109:\n      mstore(0x20, 0x03)\n      dup2\n      0x00\n      mstore\n      keccak256(0x00, 0x40)\n      dup2\n      dup2\n      sload\n      dup2\n      lt\n      tag_263\n      jumpi\n      0x00\n      dup1\n      revert\n    tag_263:\n      swap1\n      0x00\n      mstore\n      keccak256(0x00, 0x20)\n      add\n      0x00\n      swap2\n      pop\n      swap2\n      pop\n      pop\n      sload\n      dup2\n      jump\t// out\n        /* \"Bluelight-MP/UserDashboard.sol\":3702:3960  function getNftCategories() external pure returns(string memory,string memory,string memory,string memory,string memory,string memory,string memory) {\r... */\n    tag_112:\n        /* \"Bluelight-MP/UserDashboard.sol\":3752:3765  string memory */\n      0x60\n        /* \"Bluelight-MP/UserDashboard.sol\":3766:3779  string memory */\n      dup1\n        /* \"Bluelight-MP/UserDashboard.sol\":3780:3793  string memory */\n      0x60\n        /* \"Bluelight-MP/UserDashboard.sol\":3794:3807  string memory */\n      dup1\n        /* \"Bluelight-MP/UserDashboard.sol\":3808:3821  string memory */\n      0x60\n        /* \"Bluelight-MP/UserDashboard.sol\":3822:3835  string memory */\n      dup1\n        /* \"Bluelight-MP/UserDashboard.sol\":3836:3849  string memory */\n      0x60\n        /* \"Bluelight-MP/UserDashboard.sol\":3862:3952  return (\"AVATAR\", \"PICTURE\", \"GENERATIVE_ART\", \"ART\", \"COLLECTIBLES\", \"GAMIFIED\", \"OTHER\") */\n      mload(0x40)\n      dup1\n      0x40\n      add\n      0x40\n      mstore\n      dup1\n      0x06\n      dup2\n      mstore\n      0x20\n      add\n      0x4156415441520000000000000000000000000000000000000000000000000000\n      dup2\n      mstore\n      pop\n      mload(0x40)\n      dup1\n      0x40\n      add\n      0x40\n      mstore\n      dup1\n      0x07\n      dup2\n      mstore\n      0x20\n      add\n      0x5049435455524500000000000000000000000000000000000000000000000000\n      dup2\n      mstore\n      pop\n      mload(0x40)\n      dup1\n      0x40\n      add\n      0x40\n      mstore\n      dup1\n      0x0e\n      dup2\n      mstore\n      0x20\n      add\n      0x47454e455241544956455f415254000000000000000000000000000000000000\n      dup2\n      mstore\n      pop\n      mload(0x40)\n      dup1\n      0x40\n      add\n      0x40\n      mstore\n      dup1\n      0x03\n      dup2\n      mstore\n      0x20\n      add\n      0x4152540000000000000000000000000000000000000000000000000000000000\n      dup2\n      mstore\n      pop\n      mload(0x40)\n      dup1\n      0x40\n      add\n      0x40\n      mstore\n      dup1\n      0x0c\n      dup2\n      mstore\n      0x20\n      add\n      0x434f4c4c45435449424c45530000000000000000000000000000000000000000\n      dup2\n      mstore\n      pop\n      mload(0x40)\n      dup1\n      0x40\n      add\n      0x40\n      mstore\n      dup1\n      0x08\n      dup2\n      mstore\n      0x20\n      add\n      0x47414d4946494544000000000000000000000000000000000000000000000000\n      dup2\n      mstore\n      pop\n      mload(0x40)\n      dup1\n      0x40\n      add\n      0x40\n      mstore\n      dup1\n      0x05\n      dup2\n      mstore\n      0x20\n      add\n      0x4f54484552000000000000000000000000000000000000000000000000000000\n      dup2\n      mstore\n      pop\n      swap7\n      pop\n      swap7\n      pop\n      swap7\n      pop\n      swap7\n      pop\n      swap7\n      pop\n      swap7\n      pop\n      swap7\n      pop\n        /* \"Bluelight-MP/UserDashboard.sol\":3702:3960  function getNftCategories() external pure returns(string memory,string memory,string memory,string memory,string memory,string memory,string memory) {\r... */\n      swap1\n      swap2\n      swap3\n      swap4\n      swap5\n      swap6\n      swap7\n      jump\t// out\n        /* \"Bluelight-MP/UserDashboard.sol\":6704:6897  function checkUser() external virtual override view returns(string memory){\r... */\n    tag_116:\n        /* \"Bluelight-MP/UserDashboard.sol\":6764:6777  string memory */\n      0x60\n        /* \"Bluelight-MP/UserDashboard.sol\":6797:6802  users */\n      0x05\n        /* \"Bluelight-MP/UserDashboard.sol\":6797:6814  users[msg.sender] */\n      0x00\n        /* \"Bluelight-MP/UserDashboard.sol\":6803:6813  msg.sender */\n      caller\n        /* \"Bluelight-MP/UserDashboard.sol\":6797:6814  users[msg.sender] */\n      0xffffffffffffffffffffffffffffffffffffffff\n      and\n      0xffffffffffffffffffffffffffffffffffffffff\n      and\n      dup2\n      mstore\n      0x20\n      add\n      swap1\n      dup2\n      mstore\n      0x20\n      add\n      0x00\n      keccak256\n        /* \"Bluelight-MP/UserDashboard.sol\":6797:6823  users[msg.sender].loggedIn */\n      0x03\n      add\n      0x00\n      swap1\n      sload\n      swap1\n      0x0100\n      exp\n      swap1\n      div\n      0xff\n      and\n        /* \"Bluelight-MP/UserDashboard.sol\":6825:6844  CREATE_ACC_OR_LOGIN */\n      mload(0x40)\n      dup1\n      0x40\n      add\n      0x40\n      mstore\n      dup1\n      0x05\n      dup2\n      mstore\n      0x20\n      add\n      0x574d552d32000000000000000000000000000000000000000000000000000000\n      dup2\n      mstore\n      pop\n        /* \"Bluelight-MP/UserDashboard.sol\":6789:6845  require(users[msg.sender].loggedIn, CREATE_ACC_OR_LOGIN) */\n      swap1\n      tag_267\n      jumpi\n      mload(0x40)\n      0x08c379a000000000000000000000000000000000000000000000000000000000\n      dup2\n      mstore\n      0x04\n      add\n      tag_268\n      swap2\n      swap1\n      tag_118\n      jump\t// in\n    tag_268:\n      mload(0x40)\n      dup1\n      swap2\n      sub\n      swap1\n      revert\n    tag_267:\n      pop\n        /* \"Bluelight-MP/UserDashboard.sol\":6863:6868  users */\n      0x05\n        /* \"Bluelight-MP/UserDashboard.sol\":6863:6880  users[msg.sender] */\n      0x00\n        /* \"Bluelight-MP/UserDashboard.sol\":6869:6879  msg.sender */\n      caller\n        /* \"Bluelight-MP/UserDashboard.sol\":6863:6880  users[msg.sender] */\n      0xffffffffffffffffffffffffffffffffffffffff\n      and\n      0xffffffffffffffffffffffffffffffffffffffff\n      and\n      dup2\n      mstore\n      0x20\n      add\n      swap1\n      dup2\n      mstore\n      0x20\n      add\n      0x00\n      keccak256\n        /* \"Bluelight-MP/UserDashboard.sol\":6863:6889  users[msg.sender].userName */\n      0x00\n      add\n        /* \"Bluelight-MP/UserDashboard.sol\":6856:6889  return users[msg.sender].userName */\n      dup1\n      sload\n      tag_269\n      swap1\n      tag_153\n      jump\t// in\n    tag_269:\n      dup1\n      0x1f\n      add\n      0x20\n      dup1\n      swap2\n      div\n      mul\n      0x20\n      add\n      mload(0x40)\n      swap1\n      dup2\n      add\n      0x40\n      mstore\n      dup1\n      swap3\n      swap2\n      swap1\n      dup2\n      dup2\n      mstore\n      0x20\n      add\n      dup3\n      dup1\n      sload\n      tag_270\n      swap1\n      tag_153\n      jump\t// in\n    tag_270:\n      dup1\n      iszero\n      tag_271\n      jumpi\n      dup1\n      0x1f\n      lt\n      tag_272\n      jumpi\n      0x0100\n      dup1\n      dup4\n      sload\n      div\n      mul\n      dup4\n      mstore\n      swap2\n      0x20\n      add\n      swap2\n      jump(tag_271)\n    tag_272:\n      dup3\n      add\n      swap2\n      swap1\n      0x00\n      mstore\n      keccak256(0x00, 0x20)\n      swap1\n    tag_273:\n      dup2\n      sload\n      dup2\n      mstore\n      swap1\n      0x01\n      add\n      swap1\n      0x20\n      add\n      dup1\n      dup4\n      gt\n      tag_273\n      jumpi\n      dup3\n      swap1\n      sub\n      0x1f\n      and\n      dup3\n      add\n      swap2\n    tag_271:\n      pop\n      pop\n      pop\n      pop\n      pop\n      swap1\n      pop\n        /* \"Bluelight-MP/UserDashboard.sol\":6704:6897  function checkUser() external virtual override view returns(string memory){\r... */\n      swap1\n      jump\t// out\n        /* \"Bluelight-MP/UserDashboard.sol\":3039:3335  function setBuyNftData(address _marketplace, address newOwner, bytes32 uniKey) external virtual override{\r... */\n    tag_122:\n        /* \"Bluelight-MP/UserDashboard.sol\":3189:3199  msg.sender */\n      caller\n        /* \"Bluelight-MP/UserDashboard.sol\":3162:3200  marketplace == IWaterMelon(msg.sender) */\n      0xffffffffffffffffffffffffffffffffffffffff\n      and\n        /* \"Bluelight-MP/UserDashboard.sol\":3162:3173  marketplace */\n      0x00\n      dup1\n      sload\n      swap1\n      0x0100\n      exp\n      swap1\n      div\n      0xffffffffffffffffffffffffffffffffffffffff\n      and\n        /* \"Bluelight-MP/UserDashboard.sol\":3162:3200  marketplace == IWaterMelon(msg.sender) */\n      0xffffffffffffffffffffffffffffffffffffffff\n      and\n      eq\n        /* \"Bluelight-MP/UserDashboard.sol\":3154:3225  require(marketplace == IWaterMelon(msg.sender), \"call from wrong MP.\" ) */\n      tag_275\n      jumpi\n      mload(0x40)\n      0x08c379a000000000000000000000000000000000000000000000000000000000\n      dup2\n      mstore\n      0x04\n      add\n      tag_276\n      swap1\n      tag_277\n      jump\t// in\n    tag_276:\n      mload(0x40)\n      dup1\n      swap2\n      sub\n      swap1\n      revert\n    tag_275:\n        /* \"Bluelight-MP/UserDashboard.sol\":3259:3267  newOwner */\n      dup2\n        /* \"Bluelight-MP/UserDashboard.sol\":3236:3242  myNFTs */\n      0x01\n        /* \"Bluelight-MP/UserDashboard.sol\":3236:3250  myNFTs[uniKey] */\n      0x00\n        /* \"Bluelight-MP/UserDashboard.sol\":3243:3249  uniKey */\n      dup4\n        /* \"Bluelight-MP/UserDashboard.sol\":3236:3250  myNFTs[uniKey] */\n      dup2\n      mstore\n      0x20\n      add\n      swap1\n      dup2\n      mstore\n      0x20\n      add\n      0x00\n      keccak256\n        /* \"Bluelight-MP/UserDashboard.sol\":3236:3256  myNFTs[uniKey].owner */\n      0x03\n      add\n      0x00\n        /* \"Bluelight-MP/UserDashboard.sol\":3236:3267  myNFTs[uniKey].owner = newOwner */\n      0x0100\n      exp\n      dup2\n      sload\n      dup2\n      0xffffffffffffffffffffffffffffffffffffffff\n      mul\n      not\n      and\n      swap1\n      dup4\n      0xffffffffffffffffffffffffffffffffffffffff\n      and\n      mul\n      or\n      swap1\n      sstore\n      pop\n        /* \"Bluelight-MP/UserDashboard.sol\":3288:3302  uniKeysMapping */\n      0x02\n        /* \"Bluelight-MP/UserDashboard.sol\":3288:3312  uniKeysMapping[newOwner] */\n      0x00\n        /* \"Bluelight-MP/UserDashboard.sol\":3303:3311  newOwner */\n      dup4\n        /* \"Bluelight-MP/UserDashboard.sol\":3288:3312  uniKeysMapping[newOwner] */\n      0xffffffffffffffffffffffffffffffffffffffff\n      and\n      0xffffffffffffffffffffffffffffffffffffffff\n      and\n      dup2\n      mstore\n      0x20\n      add\n      swap1\n      dup2\n      mstore\n      0x20\n      add\n      0x00\n      keccak256\n        /* \"Bluelight-MP/UserDashboard.sol\":3318:3324  uniKey */\n      dup2\n        /* \"Bluelight-MP/UserDashboard.sol\":3288:3325  uniKeysMapping[newOwner].push(uniKey) */\n      swap1\n      dup1\n      0x01\n      dup2\n      sload\n      add\n      dup1\n      dup3\n      sstore\n      dup1\n      swap2\n      pop\n      pop\n      0x01\n      swap1\n      sub\n      swap1\n      0x00\n      mstore\n      keccak256(0x00, 0x20)\n      add\n      0x00\n      swap1\n      swap2\n      swap1\n      swap2\n      swap1\n      swap2\n      pop\n      sstore\n        /* \"Bluelight-MP/UserDashboard.sol\":3039:3335  function setBuyNftData(address _marketplace, address newOwner, bytes32 uniKey) external virtual override{\r... */\n      pop\n      pop\n      pop\n      jump\t// out\n        /* \"Bluelight-MP/UserDashboard.sol\":3550:3696  function getUserNftCatWise(NftCategory nftCat) external view returns(bytes32[] memory){\r... */\n    tag_126:\n        /* \"Bluelight-MP/UserDashboard.sol\":3619:3635  bytes32[] memory */\n      0x60\n        /* \"Bluelight-MP/UserDashboard.sol\":3654:3668  userNftCatWise */\n      0x04\n        /* \"Bluelight-MP/UserDashboard.sol\":3654:3680  userNftCatWise[msg.sender] */\n      0x00\n        /* \"Bluelight-MP/UserDashboard.sol\":3669:3679  msg.sender */\n      caller\n        /* \"Bluelight-MP/UserDashboard.sol\":3654:3680  userNftCatWise[msg.sender] */\n      0xffffffffffffffffffffffffffffffffffffffff\n      and\n      0xffffffffffffffffffffffffffffffffffffffff\n      and\n      dup2\n      mstore\n      0x20\n      add\n      swap1\n      dup2\n      mstore\n      0x20\n      add\n      0x00\n      keccak256\n        /* \"Bluelight-MP/UserDashboard.sol\":3654:3688  userNftCatWise[msg.sender][nftCat] */\n      0x00\n        /* \"Bluelight-MP/UserDashboard.sol\":3681:3687  nftCat */\n      dup4\n        /* \"Bluelight-MP/UserDashboard.sol\":3654:3688  userNftCatWise[msg.sender][nftCat] */\n      0x06\n      dup2\n      gt\n      iszero\n      tag_280\n      jumpi\n      mstore(0x00, 0x4e487b7100000000000000000000000000000000000000000000000000000000)\n      mstore(0x04, 0x21)\n      revert(0x00, 0x24)\n    tag_280:\n      0x06\n      dup2\n      gt\n      iszero\n      tag_281\n      jumpi\n      mstore(0x00, 0x4e487b7100000000000000000000000000000000000000000000000000000000)\n      mstore(0x04, 0x21)\n      revert(0x00, 0x24)\n    tag_281:\n      dup2\n      mstore\n      0x20\n      add\n      swap1\n      dup2\n      mstore\n      0x20\n      add\n      0x00\n      keccak256\n        /* \"Bluelight-MP/UserDashboard.sol\":3647:3688  return userNftCatWise[msg.sender][nftCat] */\n      dup1\n      sload\n      dup1\n      0x20\n      mul\n      0x20\n      add\n      mload(0x40)\n      swap1\n      dup2\n      add\n      0x40\n      mstore\n      dup1\n      swap3\n      swap2\n      swap1\n      dup2\n      dup2\n      mstore\n      0x20\n      add\n      dup3\n      dup1\n      sload\n      dup1\n      iszero\n      tag_282\n      jumpi\n      0x20\n      mul\n      dup3\n      add\n      swap2\n      swap1\n      0x00\n      mstore\n      keccak256(0x00, 0x20)\n      swap1\n    tag_283:\n      dup2\n      sload\n      dup2\n      mstore\n      0x20\n      add\n      swap1\n      0x01\n      add\n      swap1\n      dup1\n      dup4\n      gt\n      tag_283\n      jumpi\n    tag_282:\n      pop\n      pop\n      pop\n      pop\n      pop\n      swap1\n      pop\n        /* \"Bluelight-MP/UserDashboard.sol\":3550:3696  function getUserNftCatWise(NftCategory nftCat) external view returns(bytes32[] memory){\r... */\n      swap2\n      swap1\n      pop\n      jump\t// out\n        /* \"Bluelight-MP/UserDashboard.sol\":998:1075  mapping (address => mapping (NftCategory => bytes32[])) public userNftCatWise */\n    tag_131:\n      mstore(0x20, 0x04)\n      dup3\n      0x00\n      mstore\n      mstore(0x20, keccak256(0x00, 0x40))\n      dup2\n      0x00\n      mstore\n      keccak256(0x00, 0x40)\n      dup2\n      dup2\n      sload\n      dup2\n      lt\n      tag_284\n      jumpi\n      0x00\n      dup1\n      revert\n    tag_284:\n      swap1\n      0x00\n      mstore\n      keccak256(0x00, 0x20)\n      add\n      0x00\n      swap3\n      pop\n      swap3\n      pop\n      pop\n      pop\n      sload\n      dup2\n      jump\t// out\n        /* \"Bluelight-MP/UserDashboard.sol\":3415:3544  function getAllNftCatWise(NftCategory nftCat) external view returns(bytes32[] memory){\r... */\n    tag_135:\n        /* \"Bluelight-MP/UserDashboard.sol\":3483:3499  bytes32[] memory */\n      0x60\n        /* \"Bluelight-MP/UserDashboard.sol\":3518:3528  nftCatWise */\n      0x03\n        /* \"Bluelight-MP/UserDashboard.sol\":3518:3536  nftCatWise[nftCat] */\n      0x00\n        /* \"Bluelight-MP/UserDashboard.sol\":3529:3535  nftCat */\n      dup4\n        /* \"Bluelight-MP/UserDashboard.sol\":3518:3536  nftCatWise[nftCat] */\n      0x06\n      dup2\n      gt\n      iszero\n      tag_287\n      jumpi\n      mstore(0x00, 0x4e487b7100000000000000000000000000000000000000000000000000000000)\n      mstore(0x04, 0x21)\n      revert(0x00, 0x24)\n    tag_287:\n      0x06\n      dup2\n      gt\n      iszero\n      tag_288\n      jumpi\n      mstore(0x00, 0x4e487b7100000000000000000000000000000000000000000000000000000000)\n      mstore(0x04, 0x21)\n      revert(0x00, 0x24)\n    tag_288:\n      dup2\n      mstore\n      0x20\n      add\n      swap1\n      dup2\n      mstore\n      0x20\n      add\n      0x00\n      keccak256\n        /* \"Bluelight-MP/UserDashboard.sol\":3511:3536  return nftCatWise[nftCat] */\n      dup1\n      sload\n      dup1\n      0x20\n      mul\n      0x20\n      add\n      mload(0x40)\n      swap1\n      dup2\n      add\n      0x40\n      mstore\n      dup1\n      swap3\n      swap2\n      swap1\n      dup2\n      dup2\n      mstore\n      0x20\n      add\n      dup3\n      dup1\n      sload\n      dup1\n      iszero\n      tag_289\n      jumpi\n      0x20\n      mul\n      dup3\n      add\n      swap2\n      swap1\n      0x00\n      mstore\n      keccak256(0x00, 0x20)\n      swap1\n    tag_290:\n      dup2\n      sload\n      dup2\n      mstore\n      0x20\n      add\n      swap1\n      0x01\n      add\n      swap1\n      dup1\n      dup4\n      gt\n      tag_290\n      jumpi\n    tag_289:\n      pop\n      pop\n      pop\n      pop\n      pop\n      swap1\n      pop\n        /* \"Bluelight-MP/UserDashboard.sol\":3415:3544  function getAllNftCatWise(NftCategory nftCat) external view returns(bytes32[] memory){\r... */\n      swap2\n      swap1\n      pop\n      jump\t// out\n        /* \"Bluelight-MP/UserDashboard.sol\":5005:5125  function getProfilePic() external view returns(string memory ipfs){\r... */\n    tag_138:\n        /* \"Bluelight-MP/UserDashboard.sol\":5052:5070  string memory ipfs */\n      0x60\n        /* \"Bluelight-MP/UserDashboard.sol\":5089:5094  users */\n      0x05\n        /* \"Bluelight-MP/UserDashboard.sol\":5089:5106  users[msg.sender] */\n      0x00\n        /* \"Bluelight-MP/UserDashboard.sol\":5095:5105  msg.sender */\n      caller\n        /* \"Bluelight-MP/UserDashboard.sol\":5089:5106  users[msg.sender] */\n      0xffffffffffffffffffffffffffffffffffffffff\n      and\n      0xffffffffffffffffffffffffffffffffffffffff\n      and\n      dup2\n      mstore\n      0x20\n      add\n      swap1\n      dup2\n      mstore\n      0x20\n      add\n      0x00\n      keccak256\n        /* \"Bluelight-MP/UserDashboard.sol\":5089:5117  users[msg.sender].profilePic */\n      0x04\n      add\n        /* \"Bluelight-MP/UserDashboard.sol\":5082:5117  return users[msg.sender].profilePic */\n      dup1\n      sload\n      tag_292\n      swap1\n      tag_153\n      jump\t// in\n    tag_292:\n      dup1\n      0x1f\n      add\n      0x20\n      dup1\n      swap2\n      div\n      mul\n      0x20\n      add\n      mload(0x40)\n      swap1\n      dup2\n      add\n      0x40\n      mstore\n      dup1\n      swap3\n      swap2\n      swap1\n      dup2\n      dup2\n      mstore\n      0x20\n      add\n      dup3\n      dup1\n      sload\n      tag_293\n      swap1\n      tag_153\n      jump\t// in\n    tag_293:\n      dup1\n      iszero\n      tag_294\n      jumpi\n      dup1\n      0x1f\n      lt\n      tag_295\n      jumpi\n      0x0100\n      dup1\n      dup4\n      sload\n      div\n      mul\n      dup4\n      mstore\n      swap2\n      0x20\n      add\n      swap2\n      jump(tag_294)\n    tag_295:\n      dup3\n      add\n      swap2\n      swap1\n      0x00\n      mstore\n      keccak256(0x00, 0x20)\n      swap1\n    tag_296:\n      dup2\n      sload\n      dup2\n      mstore\n      swap1\n      0x01\n      add\n      swap1\n      0x20\n      add\n      dup1\n      dup4\n      gt\n      tag_296\n      jumpi\n      dup3\n      swap1\n      sub\n      0x1f\n      and\n      dup3\n      add\n      swap2\n    tag_294:\n      pop\n      pop\n      pop\n      pop\n      pop\n      swap1\n      pop\n        /* \"Bluelight-MP/UserDashboard.sol\":5005:5125  function getProfilePic() external view returns(string memory ipfs){\r... */\n      swap1\n      jump\t// out\n        /* \"Bluelight-MP/UserDashboard.sol\":5489:5625  function checkLogIn(address _userAddr) external virtual override view returns(bool){  \r... */\n    tag_142:\n        /* \"Bluelight-MP/UserDashboard.sol\":5567:5571  bool */\n      0x00\n        /* \"Bluelight-MP/UserDashboard.sol\":5592:5597  users */\n      0x05\n        /* \"Bluelight-MP/UserDashboard.sol\":5592:5608  users[_userAddr] */\n      0x00\n        /* \"Bluelight-MP/UserDashboard.sol\":5598:5607  _userAddr */\n      dup4\n        /* \"Bluelight-MP/UserDashboard.sol\":5592:5608  users[_userAddr] */\n      0xffffffffffffffffffffffffffffffffffffffff\n      and\n      0xffffffffffffffffffffffffffffffffffffffff\n      and\n      dup2\n      mstore\n      0x20\n      add\n      swap1\n      dup2\n      mstore\n      0x20\n      add\n      0x00\n      keccak256\n        /* \"Bluelight-MP/UserDashboard.sol\":5592:5617  users[_userAddr].loggedIn */\n      0x03\n      add\n      0x00\n      swap1\n      sload\n      swap1\n      0x0100\n      exp\n      swap1\n      div\n      0xff\n      and\n        /* \"Bluelight-MP/UserDashboard.sol\":5585:5617  return users[_userAddr].loggedIn */\n      swap1\n      pop\n        /* \"Bluelight-MP/UserDashboard.sol\":5489:5625  function checkLogIn(address _userAddr) external virtual override view returns(bool){  \r... */\n      swap2\n      swap1\n      pop\n      jump\t// out\n        /* \"Bluelight-MP/Helper.sol\":154:341  function getPrivateUniqueKey(address nftContractAddress, uint256 tokenId) internal pure returns (bytes32){\r... */\n    tag_189:\n        /* \"Bluelight-MP/Helper.sol\":251:258  bytes32 */\n      0x00\n        /* \"Bluelight-MP/Helper.sol\":304:322  nftContractAddress */\n      dup3\n        /* \"Bluelight-MP/Helper.sol\":324:331  tokenId */\n      dup3\n        /* \"Bluelight-MP/Helper.sol\":287:332  abi.encodePacked(nftContractAddress, tokenId) */\n      add(0x20, mload(0x40))\n      tag_299\n      swap3\n      swap2\n      swap1\n      tag_300\n      jump\t// in\n    tag_299:\n      mload(0x40)\n      0x20\n      dup2\n      dup4\n      sub\n      sub\n      dup2\n      mstore\n      swap1\n      0x40\n      mstore\n        /* \"Bluelight-MP/Helper.sol\":277:333  keccak256(abi.encodePacked(nftContractAddress, tokenId)) */\n      dup1\n      mload\n      swap1\n      0x20\n      add\n      keccak256\n        /* \"Bluelight-MP/Helper.sol\":270:333  return keccak256(abi.encodePacked(nftContractAddress, tokenId)) */\n      swap1\n      pop\n        /* \"Bluelight-MP/Helper.sol\":154:341  function getPrivateUniqueKey(address nftContractAddress, uint256 tokenId) internal pure returns (bytes32){\r... */\n      swap3\n      swap2\n      pop\n      pop\n      jump\t// out\n    tag_148:\n      dup3\n      dup1\n      sload\n      tag_301\n      swap1\n      tag_153\n      jump\t// in\n    tag_301:\n      swap1\n      0x00\n      mstore\n      keccak256(0x00, 0x20)\n      swap1\n      0x1f\n      add\n      0x20\n      swap1\n      div\n      dup2\n      add\n      swap3\n      dup3\n      tag_303\n      jumpi\n      0x00\n      dup6\n      sstore\n      jump(tag_302)\n    tag_303:\n      dup3\n      0x1f\n      lt\n      tag_304\n      jumpi\n      dup1\n      mload\n      not(0xff)\n      and\n      dup4\n      dup1\n      add\n      or\n      dup6\n      sstore\n      jump(tag_302)\n    tag_304:\n      dup3\n      dup1\n      add\n      0x01\n      add\n      dup6\n      sstore\n      dup3\n      iszero\n      tag_302\n      jumpi\n      swap2\n      dup3\n      add\n    tag_305:\n      dup3\n      dup2\n      gt\n      iszero\n      tag_306\n      jumpi\n      dup3\n      mload\n      dup3\n      sstore\n      swap2\n      0x20\n      add\n      swap2\n      swap1\n      0x01\n      add\n      swap1\n      jump(tag_305)\n    tag_306:\n    tag_302:\n      pop\n      swap1\n      pop\n      tag_307\n      swap2\n      swap1\n      tag_308\n      jump\t// in\n    tag_307:\n      pop\n      swap1\n      jump\t// out\n    tag_161:\n      pop\n      dup1\n      sload\n      tag_309\n      swap1\n      tag_153\n      jump\t// in\n    tag_309:\n      0x00\n      dup3\n      sstore\n      dup1\n      0x1f\n      lt\n      tag_311\n      jumpi\n      pop\n      jump(tag_310)\n    tag_311:\n      0x1f\n      add\n      0x20\n      swap1\n      div\n      swap1\n      0x00\n      mstore\n      keccak256(0x00, 0x20)\n      swap1\n      dup2\n      add\n      swap1\n      tag_312\n      swap2\n      swap1\n      tag_308\n      jump\t// in\n    tag_312:\n    tag_310:\n      pop\n      jump\t// out\n    tag_308:\n    tag_313:\n      dup1\n      dup3\n      gt\n      iszero\n      tag_314\n      jumpi\n      0x00\n      dup2\n      0x00\n      swap1\n      sstore\n      pop\n      0x01\n      add\n      jump(tag_313)\n    tag_314:\n      pop\n      swap1\n      jump\t// out\n        /* \"#utility.yul\":7:352   */\n    tag_316:\n        /* \"#utility.yul\":85:90   */\n      0x00\n        /* \"#utility.yul\":110:176   */\n      tag_318\n        /* \"#utility.yul\":126:175   */\n      tag_319\n        /* \"#utility.yul\":168:174   */\n      dup5\n        /* \"#utility.yul\":126:175   */\n      tag_320\n      jump\t// in\n    tag_319:\n        /* \"#utility.yul\":110:176   */\n      tag_321\n      jump\t// in\n    tag_318:\n        /* \"#utility.yul\":101:176   */\n      swap1\n      pop\n        /* \"#utility.yul\":199:205   */\n      dup3\n        /* \"#utility.yul\":192:197   */\n      dup2\n        /* \"#utility.yul\":185:206   */\n      mstore\n        /* \"#utility.yul\":237:241   */\n      0x20\n        /* \"#utility.yul\":230:235   */\n      dup2\n        /* \"#utility.yul\":226:242   */\n      add\n        /* \"#utility.yul\":275:278   */\n      dup5\n        /* \"#utility.yul\":266:272   */\n      dup5\n        /* \"#utility.yul\":261:264   */\n      dup5\n        /* \"#utility.yul\":257:273   */\n      add\n        /* \"#utility.yul\":254:279   */\n      gt\n        /* \"#utility.yul\":251:253   */\n      iszero\n      tag_322\n      jumpi\n        /* \"#utility.yul\":292:293   */\n      0x00\n        /* \"#utility.yul\":289:290   */\n      dup1\n        /* \"#utility.yul\":282:294   */\n      revert\n        /* \"#utility.yul\":251:253   */\n    tag_322:\n        /* \"#utility.yul\":305:346   */\n      tag_323\n        /* \"#utility.yul\":339:345   */\n      dup5\n        /* \"#utility.yul\":334:337   */\n      dup3\n        /* \"#utility.yul\":329:332   */\n      dup6\n        /* \"#utility.yul\":305:346   */\n      tag_324\n      jump\t// in\n    tag_323:\n        /* \"#utility.yul\":91:352   */\n      pop\n      swap4\n      swap3\n      pop\n      pop\n      pop\n      jump\t// out\n        /* \"#utility.yul\":358:497   */\n    tag_325:\n        /* \"#utility.yul\":404:409   */\n      0x00\n        /* \"#utility.yul\":442:448   */\n      dup2\n        /* \"#utility.yul\":429:449   */\n      calldataload\n        /* \"#utility.yul\":420:449   */\n      swap1\n      pop\n        /* \"#utility.yul\":458:491   */\n      tag_327\n        /* \"#utility.yul\":485:490   */\n      dup2\n        /* \"#utility.yul\":458:491   */\n      tag_328\n      jump\t// in\n    tag_327:\n        /* \"#utility.yul\":410:497   */\n      swap3\n      swap2\n      pop\n      pop\n      jump\t// out\n        /* \"#utility.yul\":503:642   */\n    tag_329:\n        /* \"#utility.yul\":549:554   */\n      0x00\n        /* \"#utility.yul\":587:593   */\n      dup2\n        /* \"#utility.yul\":574:594   */\n      calldataload\n        /* \"#utility.yul\":565:594   */\n      swap1\n      pop\n        /* \"#utility.yul\":603:636   */\n      tag_331\n        /* \"#utility.yul\":630:635   */\n      dup2\n        /* \"#utility.yul\":603:636   */\n      tag_332\n      jump\t// in\n    tag_331:\n        /* \"#utility.yul\":555:642   */\n      swap3\n      swap2\n      pop\n      pop\n      jump\t// out\n        /* \"#utility.yul\":648:817   */\n    tag_333:\n        /* \"#utility.yul\":709:714   */\n      0x00\n        /* \"#utility.yul\":747:753   */\n      dup2\n        /* \"#utility.yul\":734:754   */\n      calldataload\n        /* \"#utility.yul\":725:754   */\n      swap1\n      pop\n        /* \"#utility.yul\":763:811   */\n      tag_335\n        /* \"#utility.yul\":805:810   */\n      dup2\n        /* \"#utility.yul\":763:811   */\n      tag_336\n      jump\t// in\n    tag_335:\n        /* \"#utility.yul\":715:817   */\n      swap3\n      swap2\n      pop\n      pop\n      jump\t// out\n        /* \"#utility.yul\":837:1110   */\n    tag_337:\n        /* \"#utility.yul\":893:898   */\n      0x00\n        /* \"#utility.yul\":942:945   */\n      dup3\n        /* \"#utility.yul\":935:939   */\n      0x1f\n        /* \"#utility.yul\":927:933   */\n      dup4\n        /* \"#utility.yul\":923:940   */\n      add\n        /* \"#utility.yul\":919:946   */\n      slt\n        /* \"#utility.yul\":909:911   */\n      tag_339\n      jumpi\n        /* \"#utility.yul\":960:961   */\n      0x00\n        /* \"#utility.yul\":957:958   */\n      dup1\n        /* \"#utility.yul\":950:962   */\n      revert\n        /* \"#utility.yul\":909:911   */\n    tag_339:\n        /* \"#utility.yul\":1000:1006   */\n      dup2\n        /* \"#utility.yul\":987:1007   */\n      calldataload\n        /* \"#utility.yul\":1025:1104   */\n      tag_340\n        /* \"#utility.yul\":1100:1103   */\n      dup5\n        /* \"#utility.yul\":1092:1098   */\n      dup3\n        /* \"#utility.yul\":1085:1089   */\n      0x20\n        /* \"#utility.yul\":1077:1083   */\n      dup7\n        /* \"#utility.yul\":1073:1090   */\n      add\n        /* \"#utility.yul\":1025:1104   */\n      tag_316\n      jump\t// in\n    tag_340:\n        /* \"#utility.yul\":1016:1104   */\n      swap2\n      pop\n        /* \"#utility.yul\":899:1110   */\n      pop\n      swap3\n      swap2\n      pop\n      pop\n      jump\t// out\n        /* \"#utility.yul\":1116:1255   */\n    tag_341:\n        /* \"#utility.yul\":1162:1167   */\n      0x00\n        /* \"#utility.yul\":1200:1206   */\n      dup2\n        /* \"#utility.yul\":1187:1207   */\n      calldataload\n        /* \"#utility.yul\":1178:1207   */\n      swap1\n      pop\n        /* \"#utility.yul\":1216:1249   */\n      tag_343\n        /* \"#utility.yul\":1243:1248   */\n      dup2\n        /* \"#utility.yul\":1216:1249   */\n      tag_344\n      jump\t// in\n    tag_343:\n        /* \"#utility.yul\":1168:1255   */\n      swap3\n      swap2\n      pop\n      pop\n      jump\t// out\n        /* \"#utility.yul\":1261:1523   */\n    tag_77:\n        /* \"#utility.yul\":1320:1326   */\n      0x00\n        /* \"#utility.yul\":1369:1371   */\n      0x20\n        /* \"#utility.yul\":1357:1366   */\n      dup3\n        /* \"#utility.yul\":1348:1355   */\n      dup5\n        /* \"#utility.yul\":1344:1367   */\n      sub\n        /* \"#utility.yul\":1340:1372   */\n      slt\n        /* \"#utility.yul\":1337:1339   */\n      iszero\n      tag_346\n      jumpi\n        /* \"#utility.yul\":1385:1386   */\n      0x00\n        /* \"#utility.yul\":1382:1383   */\n      dup1\n        /* \"#utility.yul\":1375:1387   */\n      revert\n        /* \"#utility.yul\":1337:1339   */\n    tag_346:\n        /* \"#utility.yul\":1428:1429   */\n      0x00\n        /* \"#utility.yul\":1453:1506   */\n      tag_347\n        /* \"#utility.yul\":1498:1505   */\n      dup5\n        /* \"#utility.yul\":1489:1495   */\n      dup3\n        /* \"#utility.yul\":1478:1487   */\n      dup6\n        /* \"#utility.yul\":1474:1496   */\n      add\n        /* \"#utility.yul\":1453:1506   */\n      tag_325\n      jump\t// in\n    tag_347:\n        /* \"#utility.yul\":1443:1506   */\n      swap2\n      pop\n        /* \"#utility.yul\":1399:1516   */\n      pop\n        /* \"#utility.yul\":1327:1523   */\n      swap3\n      swap2\n      pop\n      pop\n      jump\t// out\n        /* \"#utility.yul\":1529:2081   */\n    tag_121:\n        /* \"#utility.yul\":1606:1612   */\n      0x00\n        /* \"#utility.yul\":1614:1620   */\n      dup1\n        /* \"#utility.yul\":1622:1628   */\n      0x00\n        /* \"#utility.yul\":1671:1673   */\n      0x60\n        /* \"#utility.yul\":1659:1668   */\n      dup5\n        /* \"#utility.yul\":1650:1657   */\n      dup7\n        /* \"#utility.yul\":1646:1669   */\n      sub\n        /* \"#utility.yul\":1642:1674   */\n      slt\n        /* \"#utility.yul\":1639:1641   */\n      iszero\n      tag_349\n      jumpi\n        /* \"#utility.yul\":1687:1688   */\n      0x00\n        /* \"#utility.yul\":1684:1685   */\n      dup1\n        /* \"#utility.yul\":1677:1689   */\n      revert\n        /* \"#utility.yul\":1639:1641   */\n    tag_349:\n        /* \"#utility.yul\":1730:1731   */\n      0x00\n        /* \"#utility.yul\":1755:1808   */\n      tag_350\n        /* \"#utility.yul\":1800:1807   */\n      dup7\n        /* \"#utility.yul\":1791:1797   */\n      dup3\n        /* \"#utility.yul\":1780:1789   */\n      dup8\n        /* \"#utility.yul\":1776:1798   */\n      add\n        /* \"#utility.yul\":1755:1808   */\n      tag_325\n      jump\t// in\n    tag_350:\n        /* \"#utility.yul\":1745:1808   */\n      swap4\n      pop\n        /* \"#utility.yul\":1701:1818   */\n      pop\n        /* \"#utility.yul\":1857:1859   */\n      0x20\n        /* \"#utility.yul\":1883:1936   */\n      tag_351\n        /* \"#utility.yul\":1928:1935   */\n      dup7\n        /* \"#utility.yul\":1919:1925   */\n      dup3\n        /* \"#utility.yul\":1908:1917   */\n      dup8\n        /* \"#utility.yul\":1904:1926   */\n      add\n        /* \"#utility.yul\":1883:1936   */\n      tag_325\n      jump\t// in\n    tag_351:\n        /* \"#utility.yul\":1873:1936   */\n      swap3\n      pop\n        /* \"#utility.yul\":1828:1946   */\n      pop\n        /* \"#utility.yul\":1985:1987   */\n      0x40\n        /* \"#utility.yul\":2011:2064   */\n      tag_352\n        /* \"#utility.yul\":2056:2063   */\n      dup7\n        /* \"#utility.yul\":2047:2053   */\n      dup3\n        /* \"#utility.yul\":2036:2045   */\n      dup8\n        /* \"#utility.yul\":2032:2054   */\n      add\n        /* \"#utility.yul\":2011:2064   */\n      tag_329\n      jump\t// in\n    tag_352:\n        /* \"#utility.yul\":2001:2064   */\n      swap2\n      pop\n        /* \"#utility.yul\":1956:2074   */\n      pop\n        /* \"#utility.yul\":1629:2081   */\n      swap3\n      pop\n      swap3\n      pop\n      swap3\n      jump\t// out\n        /* \"#utility.yul\":2087:2669   */\n    tag_130:\n        /* \"#utility.yul\":2179:2185   */\n      0x00\n        /* \"#utility.yul\":2187:2193   */\n      dup1\n        /* \"#utility.yul\":2195:2201   */\n      0x00\n        /* \"#utility.yul\":2244:2246   */\n      0x60\n        /* \"#utility.yul\":2232:2241   */\n      dup5\n        /* \"#utility.yul\":2223:2230   */\n      dup7\n        /* \"#utility.yul\":2219:2242   */\n      sub\n        /* \"#utility.yul\":2215:2247   */\n      slt\n        /* \"#utility.yul\":2212:2214   */\n      iszero\n      tag_354\n      jumpi\n        /* \"#utility.yul\":2260:2261   */\n      0x00\n        /* \"#utility.yul\":2257:2258   */\n      dup1\n        /* \"#utility.yul\":2250:2262   */\n      revert\n        /* \"#utility.yul\":2212:2214   */\n    tag_354:\n        /* \"#utility.yul\":2303:2304   */\n      0x00\n        /* \"#utility.yul\":2328:2381   */\n      tag_355\n        /* \"#utility.yul\":2373:2380   */\n      dup7\n        /* \"#utility.yul\":2364:2370   */\n      dup3\n        /* \"#utility.yul\":2353:2362   */\n      dup8\n        /* \"#utility.yul\":2349:2371   */\n      add\n        /* \"#utility.yul\":2328:2381   */\n      tag_325\n      jump\t// in\n    tag_355:\n        /* \"#utility.yul\":2318:2381   */\n      swap4\n      pop\n        /* \"#utility.yul\":2274:2391   */\n      pop\n        /* \"#utility.yul\":2430:2432   */\n      0x20\n        /* \"#utility.yul\":2456:2524   */\n      tag_356\n        /* \"#utility.yul\":2516:2523   */\n      dup7\n        /* \"#utility.yul\":2507:2513   */\n      dup3\n        /* \"#utility.yul\":2496:2505   */\n      dup8\n        /* \"#utility.yul\":2492:2514   */\n      add\n        /* \"#utility.yul\":2456:2524   */\n      tag_333\n      jump\t// in\n    tag_356:\n        /* \"#utility.yul\":2446:2524   */\n      swap3\n      pop\n        /* \"#utility.yul\":2401:2534   */\n      pop\n        /* \"#utility.yul\":2573:2575   */\n      0x40\n        /* \"#utility.yul\":2599:2652   */\n      tag_357\n        /* \"#utility.yul\":2644:2651   */\n      dup7\n        /* \"#utility.yul\":2635:2641   */\n      dup3\n        /* \"#utility.yul\":2624:2633   */\n      dup8\n        /* \"#utility.yul\":2620:2642   */\n      add\n        /* \"#utility.yul\":2599:2652   */\n      tag_341\n      jump\t// in\n    tag_357:\n        /* \"#utility.yul\":2589:2652   */\n      swap2\n      pop\n        /* \"#utility.yul\":2544:2662   */\n      pop\n        /* \"#utility.yul\":2202:2669   */\n      swap3\n      pop\n      swap3\n      pop\n      swap3\n      jump\t// out\n        /* \"#utility.yul\":2675:3082   */\n    tag_53:\n        /* \"#utility.yul\":2743:2749   */\n      0x00\n        /* \"#utility.yul\":2751:2757   */\n      dup1\n        /* \"#utility.yul\":2800:2802   */\n      0x40\n        /* \"#utility.yul\":2788:2797   */\n      dup4\n        /* \"#utility.yul\":2779:2786   */\n      dup6\n        /* \"#utility.yul\":2775:2798   */\n      sub\n        /* \"#utility.yul\":2771:2803   */\n      slt\n        /* \"#utility.yul\":2768:2770   */\n      iszero\n      tag_359\n      jumpi\n        /* \"#utility.yul\":2816:2817   */\n      0x00\n        /* \"#utility.yul\":2813:2814   */\n      dup1\n        /* \"#utility.yul\":2806:2818   */\n      revert\n        /* \"#utility.yul\":2768:2770   */\n    tag_359:\n        /* \"#utility.yul\":2859:2860   */\n      0x00\n        /* \"#utility.yul\":2884:2937   */\n      tag_360\n        /* \"#utility.yul\":2929:2936   */\n      dup6\n        /* \"#utility.yul\":2920:2926   */\n      dup3\n        /* \"#utility.yul\":2909:2918   */\n      dup7\n        /* \"#utility.yul\":2905:2927   */\n      add\n        /* \"#utility.yul\":2884:2937   */\n      tag_325\n      jump\t// in\n    tag_360:\n        /* \"#utility.yul\":2874:2937   */\n      swap3\n      pop\n        /* \"#utility.yul\":2830:2947   */\n      pop\n        /* \"#utility.yul\":2986:2988   */\n      0x20\n        /* \"#utility.yul\":3012:3065   */\n      tag_361\n        /* \"#utility.yul\":3057:3064   */\n      dup6\n        /* \"#utility.yul\":3048:3054   */\n      dup3\n        /* \"#utility.yul\":3037:3046   */\n      dup7\n        /* \"#utility.yul\":3033:3055   */\n      add\n        /* \"#utility.yul\":3012:3065   */\n      tag_341\n      jump\t// in\n    tag_361:\n        /* \"#utility.yul\":3002:3065   */\n      swap2\n      pop\n        /* \"#utility.yul\":2957:3075   */\n      pop\n        /* \"#utility.yul\":2758:3082   */\n      swap3\n      pop\n      swap3\n      swap1\n      pop\n      jump\t// out\n        /* \"#utility.yul\":3088:3670   */\n    tag_64:\n        /* \"#utility.yul\":3180:3186   */\n      0x00\n        /* \"#utility.yul\":3188:3194   */\n      dup1\n        /* \"#utility.yul\":3196:3202   */\n      0x00\n        /* \"#utility.yul\":3245:3247   */\n      0x60\n        /* \"#utility.yul\":3233:3242   */\n      dup5\n        /* \"#utility.yul\":3224:3231   */\n      dup7\n        /* \"#utility.yul\":3220:3243   */\n      sub\n        /* \"#utility.yul\":3216:3248   */\n      slt\n        /* \"#utility.yul\":3213:3215   */\n      iszero\n      tag_363\n      jumpi\n        /* \"#utility.yul\":3261:3262   */\n      0x00\n        /* \"#utility.yul\":3258:3259   */\n      dup1\n        /* \"#utility.yul\":3251:3263   */\n      revert\n        /* \"#utility.yul\":3213:3215   */\n    tag_363:\n        /* \"#utility.yul\":3304:3305   */\n      0x00\n        /* \"#utility.yul\":3329:3382   */\n      tag_364\n        /* \"#utility.yul\":3374:3381   */\n      dup7\n        /* \"#utility.yul\":3365:3371   */\n      dup3\n        /* \"#utility.yul\":3354:3363   */\n      dup8\n        /* \"#utility.yul\":3350:3372   */\n      add\n        /* \"#utility.yul\":3329:3382   */\n      tag_325\n      jump\t// in\n    tag_364:\n        /* \"#utility.yul\":3319:3382   */\n      swap4\n      pop\n        /* \"#utility.yul\":3275:3392   */\n      pop\n        /* \"#utility.yul\":3431:3433   */\n      0x20\n        /* \"#utility.yul\":3457:3510   */\n      tag_365\n        /* \"#utility.yul\":3502:3509   */\n      dup7\n        /* \"#utility.yul\":3493:3499   */\n      dup3\n        /* \"#utility.yul\":3482:3491   */\n      dup8\n        /* \"#utility.yul\":3478:3500   */\n      add\n        /* \"#utility.yul\":3457:3510   */\n      tag_341\n      jump\t// in\n    tag_365:\n        /* \"#utility.yul\":3447:3510   */\n      swap3\n      pop\n        /* \"#utility.yul\":3402:3520   */\n      pop\n        /* \"#utility.yul\":3559:3561   */\n      0x40\n        /* \"#utility.yul\":3585:3653   */\n      tag_366\n        /* \"#utility.yul\":3645:3652   */\n      dup7\n        /* \"#utility.yul\":3636:3642   */\n      dup3\n        /* \"#utility.yul\":3625:3634   */\n      dup8\n        /* \"#utility.yul\":3621:3643   */\n      add\n        /* \"#utility.yul\":3585:3653   */\n      tag_333\n      jump\t// in\n    tag_366:\n        /* \"#utility.yul\":3575:3653   */\n      swap2\n      pop\n        /* \"#utility.yul\":3530:3663   */\n      pop\n        /* \"#utility.yul\":3203:3670   */\n      swap3\n      pop\n      swap3\n      pop\n      swap3\n      jump\t// out\n        /* \"#utility.yul\":3676:4520   */\n    tag_97:\n        /* \"#utility.yul\":3771:3777   */\n      0x00\n        /* \"#utility.yul\":3779:3785   */\n      dup1\n        /* \"#utility.yul\":3787:3793   */\n      0x00\n        /* \"#utility.yul\":3795:3801   */\n      dup1\n        /* \"#utility.yul\":3803:3809   */\n      0x00\n        /* \"#utility.yul\":3852:3855   */\n      0xa0\n        /* \"#utility.yul\":3840:3849   */\n      dup7\n        /* \"#utility.yul\":3831:3838   */\n      dup9\n        /* \"#utility.yul\":3827:3850   */\n      sub\n        /* \"#utility.yul\":3823:3856   */\n      slt\n        /* \"#utility.yul\":3820:3822   */\n      iszero\n      tag_368\n      jumpi\n        /* \"#utility.yul\":3869:3870   */\n      0x00\n        /* \"#utility.yul\":3866:3867   */\n      dup1\n        /* \"#utility.yul\":3859:3871   */\n      revert\n        /* \"#utility.yul\":3820:3822   */\n    tag_368:\n        /* \"#utility.yul\":3912:3913   */\n      0x00\n        /* \"#utility.yul\":3937:3990   */\n      tag_369\n        /* \"#utility.yul\":3982:3989   */\n      dup9\n        /* \"#utility.yul\":3973:3979   */\n      dup3\n        /* \"#utility.yul\":3962:3971   */\n      dup10\n        /* \"#utility.yul\":3958:3980   */\n      add\n        /* \"#utility.yul\":3937:3990   */\n      tag_325\n      jump\t// in\n    tag_369:\n        /* \"#utility.yul\":3927:3990   */\n      swap6\n      pop\n        /* \"#utility.yul\":3883:4000   */\n      pop\n        /* \"#utility.yul\":4039:4041   */\n      0x20\n        /* \"#utility.yul\":4065:4118   */\n      tag_370\n        /* \"#utility.yul\":4110:4117   */\n      dup9\n        /* \"#utility.yul\":4101:4107   */\n      dup3\n        /* \"#utility.yul\":4090:4099   */\n      dup10\n        /* \"#utility.yul\":4086:4108   */\n      add\n        /* \"#utility.yul\":4065:4118   */\n      tag_341\n      jump\t// in\n    tag_370:\n        /* \"#utility.yul\":4055:4118   */\n      swap5\n      pop\n        /* \"#utility.yul\":4010:4128   */\n      pop\n        /* \"#utility.yul\":4167:4169   */\n      0x40\n        /* \"#utility.yul\":4193:4246   */\n      tag_371\n        /* \"#utility.yul\":4238:4245   */\n      dup9\n        /* \"#utility.yul\":4229:4235   */\n      dup3\n        /* \"#utility.yul\":4218:4227   */\n      dup10\n        /* \"#utility.yul\":4214:4236   */\n      add\n        /* \"#utility.yul\":4193:4246   */\n      tag_341\n      jump\t// in\n    tag_371:\n        /* \"#utility.yul\":4183:4246   */\n      swap4\n      pop\n        /* \"#utility.yul\":4138:4256   */\n      pop\n        /* \"#utility.yul\":4295:4297   */\n      0x60\n        /* \"#utility.yul\":4321:4374   */\n      tag_372\n        /* \"#utility.yul\":4366:4373   */\n      dup9\n        /* \"#utility.yul\":4357:4363   */\n      dup3\n        /* \"#utility.yul\":4346:4355   */\n      dup10\n        /* \"#utility.yul\":4342:4364   */\n      add\n        /* \"#utility.yul\":4321:4374   */\n      tag_341\n      jump\t// in\n    tag_372:\n        /* \"#utility.yul\":4311:4374   */\n      swap3\n      pop\n        /* \"#utility.yul\":4266:4384   */\n      pop\n        /* \"#utility.yul\":4423:4426   */\n      0x80\n        /* \"#utility.yul\":4450:4503   */\n      tag_373\n        /* \"#utility.yul\":4495:4502   */\n      dup9\n        /* \"#utility.yul\":4486:4492   */\n      dup3\n        /* \"#utility.yul\":4475:4484   */\n      dup10\n        /* \"#utility.yul\":4471:4493   */\n      add\n        /* \"#utility.yul\":4450:4503   */\n      tag_341\n      jump\t// in\n    tag_373:\n        /* \"#utility.yul\":4440:4503   */\n      swap2\n      pop\n        /* \"#utility.yul\":4394:4513   */\n      pop\n        /* \"#utility.yul\":3810:4520   */\n      swap3\n      swap6\n      pop\n      swap3\n      swap6\n      swap1\n      swap4\n      pop\n      jump\t// out\n        /* \"#utility.yul\":4526:4788   */\n    tag_44:\n        /* \"#utility.yul\":4585:4591   */\n      0x00\n        /* \"#utility.yul\":4634:4636   */\n      0x20\n        /* \"#utility.yul\":4622:4631   */\n      dup3\n        /* \"#utility.yul\":4613:4620   */\n      dup5\n        /* \"#utility.yul\":4609:4632   */\n      sub\n        /* \"#utility.yul\":4605:4637   */\n      slt\n        /* \"#utility.yul\":4602:4604   */\n      iszero\n      tag_375\n      jumpi\n        /* \"#utility.yul\":4650:4651   */\n      0x00\n        /* \"#utility.yul\":4647:4648   */\n      dup1\n        /* \"#utility.yul\":4640:4652   */\n      revert\n        /* \"#utility.yul\":4602:4604   */\n    tag_375:\n        /* \"#utility.yul\":4693:4694   */\n      0x00\n        /* \"#utility.yul\":4718:4771   */\n      tag_376\n        /* \"#utility.yul\":4763:4770   */\n      dup5\n        /* \"#utility.yul\":4754:4760   */\n      dup3\n        /* \"#utility.yul\":4743:4752   */\n      dup6\n        /* \"#utility.yul\":4739:4761   */\n      add\n        /* \"#utility.yul\":4718:4771   */\n      tag_329\n      jump\t// in\n    tag_376:\n        /* \"#utility.yul\":4708:4771   */\n      swap2\n      pop\n        /* \"#utility.yul\":4664:4781   */\n      pop\n        /* \"#utility.yul\":4592:4788   */\n      swap3\n      swap2\n      pop\n      pop\n      jump\t// out\n        /* \"#utility.yul\":4794:5086   */\n    tag_125:\n        /* \"#utility.yul\":4868:4874   */\n      0x00\n        /* \"#utility.yul\":4917:4919   */\n      0x20\n        /* \"#utility.yul\":4905:4914   */\n      dup3\n        /* \"#utility.yul\":4896:4903   */\n      dup5\n        /* \"#utility.yul\":4892:4915   */\n      sub\n        /* \"#utility.yul\":4888:4920   */\n      slt\n        /* \"#utility.yul\":4885:4887   */\n      iszero\n      tag_378\n      jumpi\n        /* \"#utility.yul\":4933:4934   */\n      0x00\n        /* \"#utility.yul\":4930:4931   */\n      dup1\n        /* \"#utility.yul\":4923:4935   */\n      revert\n        /* \"#utility.yul\":4885:4887   */\n    tag_378:\n        /* \"#utility.yul\":4976:4977   */\n      0x00\n        /* \"#utility.yul\":5001:5069   */\n      tag_379\n        /* \"#utility.yul\":5061:5068   */\n      dup5\n        /* \"#utility.yul\":5052:5058   */\n      dup3\n        /* \"#utility.yul\":5041:5050   */\n      dup6\n        /* \"#utility.yul\":5037:5059   */\n      add\n        /* \"#utility.yul\":5001:5069   */\n      tag_333\n      jump\t// in\n    tag_379:\n        /* \"#utility.yul\":4991:5069   */\n      swap2\n      pop\n        /* \"#utility.yul\":4947:5079   */\n      pop\n        /* \"#utility.yul\":4875:5086   */\n      swap3\n      swap2\n      pop\n      pop\n      jump\t// out\n        /* \"#utility.yul\":5092:5529   */\n    tag_108:\n        /* \"#utility.yul\":5175:5181   */\n      0x00\n        /* \"#utility.yul\":5183:5189   */\n      dup1\n        /* \"#utility.yul\":5232:5234   */\n      0x40\n        /* \"#utility.yul\":5220:5229   */\n      dup4\n        /* \"#utility.yul\":5211:5218   */\n      dup6\n        /* \"#utility.yul\":5207:5230   */\n      sub\n        /* \"#utility.yul\":5203:5235   */\n      slt\n        /* \"#utility.yul\":5200:5202   */\n      iszero\n      tag_381\n      jumpi\n        /* \"#utility.yul\":5248:5249   */\n      0x00\n        /* \"#utility.yul\":5245:5246   */\n      dup1\n        /* \"#utility.yul\":5238:5250   */\n      revert\n        /* \"#utility.yul\":5200:5202   */\n    tag_381:\n        /* \"#utility.yul\":5291:5292   */\n      0x00\n        /* \"#utility.yul\":5316:5384   */\n      tag_382\n        /* \"#utility.yul\":5376:5383   */\n      dup6\n        /* \"#utility.yul\":5367:5373   */\n      dup3\n        /* \"#utility.yul\":5356:5365   */\n      dup7\n        /* \"#utility.yul\":5352:5374   */\n      add\n        /* \"#utility.yul\":5316:5384   */\n      tag_333\n      jump\t// in\n    tag_382:\n        /* \"#utility.yul\":5306:5384   */\n      swap3\n      pop\n        /* \"#utility.yul\":5262:5394   */\n      pop\n        /* \"#utility.yul\":5433:5435   */\n      0x20\n        /* \"#utility.yul\":5459:5512   */\n      tag_383\n        /* \"#utility.yul\":5504:5511   */\n      dup6\n        /* \"#utility.yul\":5495:5501   */\n      dup3\n        /* \"#utility.yul\":5484:5493   */\n      dup7\n        /* \"#utility.yul\":5480:5502   */\n      add\n        /* \"#utility.yul\":5459:5512   */\n      tag_341\n      jump\t// in\n    tag_383:\n        /* \"#utility.yul\":5449:5512   */\n      swap2\n      pop\n        /* \"#utility.yul\":5404:5522   */\n      pop\n        /* \"#utility.yul\":5190:5529   */\n      swap3\n      pop\n      swap3\n      swap1\n      pop\n      jump\t// out\n        /* \"#utility.yul\":5535:5910   */\n    tag_36:\n        /* \"#utility.yul\":5604:5610   */\n      0x00\n        /* \"#utility.yul\":5653:5655   */\n      0x20\n        /* \"#utility.yul\":5641:5650   */\n      dup3\n        /* \"#utility.yul\":5632:5639   */\n      dup5\n        /* \"#utility.yul\":5628:5651   */\n      sub\n        /* \"#utility.yul\":5624:5656   */\n      slt\n        /* \"#utility.yul\":5621:5623   */\n      iszero\n      tag_385\n      jumpi\n        /* \"#utility.yul\":5669:5670   */\n      0x00\n        /* \"#utility.yul\":5666:5667   */\n      dup1\n        /* \"#utility.yul\":5659:5671   */\n      revert\n        /* \"#utility.yul\":5621:5623   */\n    tag_385:\n        /* \"#utility.yul\":5740:5741   */\n      0x00\n        /* \"#utility.yul\":5729:5738   */\n      dup3\n        /* \"#utility.yul\":5725:5742   */\n      add\n        /* \"#utility.yul\":5712:5743   */\n      calldataload\n        /* \"#utility.yul\":5770:5788   */\n      0xffffffffffffffff\n        /* \"#utility.yul\":5762:5768   */\n      dup2\n        /* \"#utility.yul\":5759:5789   */\n      gt\n        /* \"#utility.yul\":5756:5758   */\n      iszero\n      tag_386\n      jumpi\n        /* \"#utility.yul\":5802:5803   */\n      0x00\n        /* \"#utility.yul\":5799:5800   */\n      dup1\n        /* \"#utility.yul\":5792:5804   */\n      revert\n        /* \"#utility.yul\":5756:5758   */\n    tag_386:\n        /* \"#utility.yul\":5830:5893   */\n      tag_387\n        /* \"#utility.yul\":5885:5892   */\n      dup5\n        /* \"#utility.yul\":5876:5882   */\n      dup3\n        /* \"#utility.yul\":5865:5874   */\n      dup6\n        /* \"#utility.yul\":5861:5883   */\n      add\n        /* \"#utility.yul\":5830:5893   */\n      tag_337\n      jump\t// in\n    tag_387:\n        /* \"#utility.yul\":5820:5893   */\n      swap2\n      pop\n        /* \"#utility.yul\":5683:5903   */\n      pop\n        /* \"#utility.yul\":5611:5910   */\n      swap3\n      swap2\n      pop\n      pop\n      jump\t// out\n        /* \"#utility.yul\":5916:6840   */\n    tag_88:\n        /* \"#utility.yul\":6022:6028   */\n      0x00\n        /* \"#utility.yul\":6030:6036   */\n      dup1\n        /* \"#utility.yul\":6038:6044   */\n      0x00\n        /* \"#utility.yul\":6046:6052   */\n      dup1\n        /* \"#utility.yul\":6095:6098   */\n      0x80\n        /* \"#utility.yul\":6083:6092   */\n      dup6\n        /* \"#utility.yul\":6074:6081   */\n      dup8\n        /* \"#utility.yul\":6070:6093   */\n      sub\n        /* \"#utility.yul\":6066:6099   */\n      slt\n        /* \"#utility.yul\":6063:6065   */\n      iszero\n      tag_389\n      jumpi\n        /* \"#utility.yul\":6112:6113   */\n      0x00\n        /* \"#utility.yul\":6109:6110   */\n      dup1\n        /* \"#utility.yul\":6102:6114   */\n      revert\n        /* \"#utility.yul\":6063:6065   */\n    tag_389:\n        /* \"#utility.yul\":6183:6184   */\n      0x00\n        /* \"#utility.yul\":6172:6181   */\n      dup6\n        /* \"#utility.yul\":6168:6185   */\n      add\n        /* \"#utility.yul\":6155:6186   */\n      calldataload\n        /* \"#utility.yul\":6213:6231   */\n      0xffffffffffffffff\n        /* \"#utility.yul\":6205:6211   */\n      dup2\n        /* \"#utility.yul\":6202:6232   */\n      gt\n        /* \"#utility.yul\":6199:6201   */\n      iszero\n      tag_390\n      jumpi\n        /* \"#utility.yul\":6245:6246   */\n      0x00\n        /* \"#utility.yul\":6242:6243   */\n      dup1\n        /* \"#utility.yul\":6235:6247   */\n      revert\n        /* \"#utility.yul\":6199:6201   */\n    tag_390:\n        /* \"#utility.yul\":6273:6336   */\n      tag_391\n        /* \"#utility.yul\":6328:6335   */\n      dup8\n        /* \"#utility.yul\":6319:6325   */\n      dup3\n        /* \"#utility.yul\":6308:6317   */\n      dup9\n        /* \"#utility.yul\":6304:6326   */\n      add\n        /* \"#utility.yul\":6273:6336   */\n      tag_337\n      jump\t// in\n    tag_391:\n        /* \"#utility.yul\":6263:6336   */\n      swap5\n      pop\n        /* \"#utility.yul\":6126:6346   */\n      pop\n        /* \"#utility.yul\":6385:6387   */\n      0x20\n        /* \"#utility.yul\":6411:6464   */\n      tag_392\n        /* \"#utility.yul\":6456:6463   */\n      dup8\n        /* \"#utility.yul\":6447:6453   */\n      dup3\n        /* \"#utility.yul\":6436:6445   */\n      dup9\n        /* \"#utility.yul\":6432:6454   */\n      add\n        /* \"#utility.yul\":6411:6464   */\n      tag_325\n      jump\t// in\n    tag_392:\n        /* \"#utility.yul\":6401:6464   */\n      swap4\n      pop\n        /* \"#utility.yul\":6356:6474   */\n      pop\n        /* \"#utility.yul\":6513:6515   */\n      0x40\n        /* \"#utility.yul\":6539:6592   */\n      tag_393\n        /* \"#utility.yul\":6584:6591   */\n      dup8\n        /* \"#utility.yul\":6575:6581   */\n      dup3\n        /* \"#utility.yul\":6564:6573   */\n      dup9\n        /* \"#utility.yul\":6560:6582   */\n      add\n        /* \"#utility.yul\":6539:6592   */\n      tag_341\n      jump\t// in\n    tag_393:\n        /* \"#utility.yul\":6529:6592   */\n      swap3\n      pop\n        /* \"#utility.yul\":6484:6602   */\n      pop\n        /* \"#utility.yul\":6669:6671   */\n      0x60\n        /* \"#utility.yul\":6658:6667   */\n      dup6\n        /* \"#utility.yul\":6654:6672   */\n      add\n        /* \"#utility.yul\":6641:6673   */\n      calldataload\n        /* \"#utility.yul\":6700:6718   */\n      0xffffffffffffffff\n        /* \"#utility.yul\":6692:6698   */\n      dup2\n        /* \"#utility.yul\":6689:6719   */\n      gt\n        /* \"#utility.yul\":6686:6688   */\n      iszero\n      tag_394\n      jumpi\n        /* \"#utility.yul\":6732:6733   */\n      0x00\n        /* \"#utility.yul\":6729:6730   */\n      dup1\n        /* \"#utility.yul\":6722:6734   */\n      revert\n        /* \"#utility.yul\":6686:6688   */\n    tag_394:\n        /* \"#utility.yul\":6760:6823   */\n      tag_395\n        /* \"#utility.yul\":6815:6822   */\n      dup8\n        /* \"#utility.yul\":6806:6812   */\n      dup3\n        /* \"#utility.yul\":6795:6804   */\n      dup9\n        /* \"#utility.yul\":6791:6813   */\n      add\n        /* \"#utility.yul\":6760:6823   */\n      tag_337\n      jump\t// in\n    tag_395:\n        /* \"#utility.yul\":6750:6823   */\n      swap2\n      pop\n        /* \"#utility.yul\":6612:6833   */\n      pop\n        /* \"#utility.yul\":6053:6840   */\n      swap3\n      swap6\n      swap2\n      swap5\n      pop\n      swap3\n      pop\n      jump\t// out\n        /* \"#utility.yul\":6846:7025   */\n    tag_396:\n        /* \"#utility.yul\":6915:6925   */\n      0x00\n        /* \"#utility.yul\":6936:6982   */\n      tag_398\n        /* \"#utility.yul\":6978:6981   */\n      dup4\n        /* \"#utility.yul\":6970:6976   */\n      dup4\n        /* \"#utility.yul\":6936:6982   */\n      tag_399\n      jump\t// in\n    tag_398:\n        /* \"#utility.yul\":7014:7018   */\n      0x20\n        /* \"#utility.yul\":7009:7012   */\n      dup4\n        /* \"#utility.yul\":7005:7019   */\n      add\n        /* \"#utility.yul\":6991:7019   */\n      swap1\n      pop\n        /* \"#utility.yul\":6926:7025   */\n      swap3\n      swap2\n      pop\n      pop\n      jump\t// out\n        /* \"#utility.yul\":7031:7149   */\n    tag_400:\n        /* \"#utility.yul\":7118:7142   */\n      tag_402\n        /* \"#utility.yul\":7136:7141   */\n      dup2\n        /* \"#utility.yul\":7118:7142   */\n      tag_403\n      jump\t// in\n    tag_402:\n        /* \"#utility.yul\":7113:7116   */\n      dup3\n        /* \"#utility.yul\":7106:7143   */\n      mstore\n        /* \"#utility.yul\":7096:7149   */\n      pop\n      pop\n      jump\t// out\n        /* \"#utility.yul\":7155:7312   */\n    tag_404:\n        /* \"#utility.yul\":7260:7305   */\n      tag_406\n        /* \"#utility.yul\":7280:7304   */\n      tag_407\n        /* \"#utility.yul\":7298:7303   */\n      dup3\n        /* \"#utility.yul\":7280:7304   */\n      tag_403\n      jump\t// in\n    tag_407:\n        /* \"#utility.yul\":7260:7305   */\n      tag_408\n      jump\t// in\n    tag_406:\n        /* \"#utility.yul\":7255:7258   */\n      dup3\n        /* \"#utility.yul\":7248:7306   */\n      mstore\n        /* \"#utility.yul\":7238:7312   */\n      pop\n      pop\n      jump\t// out\n        /* \"#utility.yul\":7348:8080   */\n    tag_409:\n        /* \"#utility.yul\":7467:7470   */\n      0x00\n        /* \"#utility.yul\":7496:7550   */\n      tag_411\n        /* \"#utility.yul\":7544:7549   */\n      dup3\n        /* \"#utility.yul\":7496:7550   */\n      tag_412\n      jump\t// in\n    tag_411:\n        /* \"#utility.yul\":7566:7652   */\n      tag_413\n        /* \"#utility.yul\":7645:7651   */\n      dup2\n        /* \"#utility.yul\":7640:7643   */\n      dup6\n        /* \"#utility.yul\":7566:7652   */\n      tag_414\n      jump\t// in\n    tag_413:\n        /* \"#utility.yul\":7559:7652   */\n      swap4\n      pop\n        /* \"#utility.yul\":7676:7732   */\n      tag_415\n        /* \"#utility.yul\":7726:7731   */\n      dup4\n        /* \"#utility.yul\":7676:7732   */\n      tag_416\n      jump\t// in\n    tag_415:\n        /* \"#utility.yul\":7755:7762   */\n      dup1\n        /* \"#utility.yul\":7786:7787   */\n      0x00\n        /* \"#utility.yul\":7771:8055   */\n    tag_417:\n        /* \"#utility.yul\":7796:7802   */\n      dup4\n        /* \"#utility.yul\":7793:7794   */\n      dup2\n        /* \"#utility.yul\":7790:7803   */\n      lt\n        /* \"#utility.yul\":7771:8055   */\n      iszero\n      tag_419\n      jumpi\n        /* \"#utility.yul\":7872:7878   */\n      dup2\n        /* \"#utility.yul\":7866:7879   */\n      mload\n        /* \"#utility.yul\":7899:7962   */\n      tag_420\n        /* \"#utility.yul\":7958:7961   */\n      dup9\n        /* \"#utility.yul\":7943:7956   */\n      dup3\n        /* \"#utility.yul\":7899:7962   */\n      tag_396\n      jump\t// in\n    tag_420:\n        /* \"#utility.yul\":7892:7962   */\n      swap8\n      pop\n        /* \"#utility.yul\":7985:8045   */\n      tag_421\n        /* \"#utility.yul\":8038:8044   */\n      dup4\n        /* \"#utility.yul\":7985:8045   */\n      tag_422\n      jump\t// in\n    tag_421:\n        /* \"#utility.yul\":7975:8045   */\n      swap3\n      pop\n        /* \"#utility.yul\":7831:8055   */\n      pop\n        /* \"#utility.yul\":7818:7819   */\n      0x01\n        /* \"#utility.yul\":7815:7816   */\n      dup2\n        /* \"#utility.yul\":7811:7820   */\n      add\n        /* \"#utility.yul\":7806:7820   */\n      swap1\n      pop\n        /* \"#utility.yul\":7771:8055   */\n      jump(tag_417)\n    tag_419:\n        /* \"#utility.yul\":7775:7789   */\n      pop\n        /* \"#utility.yul\":8071:8074   */\n      dup6\n        /* \"#utility.yul\":8064:8074   */\n      swap4\n      pop\n        /* \"#utility.yul\":7472:8080   */\n      pop\n      pop\n      pop\n      swap3\n      swap2\n      pop\n      pop\n      jump\t// out\n        /* \"#utility.yul\":8086:8195   */\n    tag_423:\n        /* \"#utility.yul\":8167:8188   */\n      tag_425\n        /* \"#utility.yul\":8182:8187   */\n      dup2\n        /* \"#utility.yul\":8167:8188   */\n      tag_426\n      jump\t// in\n    tag_425:\n        /* \"#utility.yul\":8162:8165   */\n      dup3\n        /* \"#utility.yul\":8155:8189   */\n      mstore\n        /* \"#utility.yul\":8145:8195   */\n      pop\n      pop\n      jump\t// out\n        /* \"#utility.yul\":8201:8309   */\n    tag_399:\n        /* \"#utility.yul\":8278:8302   */\n      tag_428\n        /* \"#utility.yul\":8296:8301   */\n      dup2\n        /* \"#utility.yul\":8278:8302   */\n      tag_429\n      jump\t// in\n    tag_428:\n        /* \"#utility.yul\":8273:8276   */\n      dup3\n        /* \"#utility.yul\":8266:8303   */\n      mstore\n        /* \"#utility.yul\":8256:8309   */\n      pop\n      pop\n      jump\t// out\n        /* \"#utility.yul\":8315:8433   */\n    tag_430:\n        /* \"#utility.yul\":8402:8426   */\n      tag_432\n        /* \"#utility.yul\":8420:8425   */\n      dup2\n        /* \"#utility.yul\":8402:8426   */\n      tag_429\n      jump\t// in\n    tag_432:\n        /* \"#utility.yul\":8397:8400   */\n      dup3\n        /* \"#utility.yul\":8390:8427   */\n      mstore\n        /* \"#utility.yul\":8380:8433   */\n      pop\n      pop\n      jump\t// out\n        /* \"#utility.yul\":8439:8596   */\n    tag_433:\n        /* \"#utility.yul\":8539:8589   */\n      tag_435\n        /* \"#utility.yul\":8583:8588   */\n      dup2\n        /* \"#utility.yul\":8539:8589   */\n      tag_436\n      jump\t// in\n    tag_435:\n        /* \"#utility.yul\":8534:8537   */\n      dup3\n        /* \"#utility.yul\":8527:8590   */\n      mstore\n        /* \"#utility.yul\":8517:8596   */\n      pop\n      pop\n      jump\t// out\n        /* \"#utility.yul\":8602:8966   */\n    tag_437:\n        /* \"#utility.yul\":8690:8693   */\n      0x00\n        /* \"#utility.yul\":8718:8757   */\n      tag_439\n        /* \"#utility.yul\":8751:8756   */\n      dup3\n        /* \"#utility.yul\":8718:8757   */\n      tag_440\n      jump\t// in\n    tag_439:\n        /* \"#utility.yul\":8773:8844   */\n      tag_441\n        /* \"#utility.yul\":8837:8843   */\n      dup2\n        /* \"#utility.yul\":8832:8835   */\n      dup6\n        /* \"#utility.yul\":8773:8844   */\n      tag_442\n      jump\t// in\n    tag_441:\n        /* \"#utility.yul\":8766:8844   */\n      swap4\n      pop\n        /* \"#utility.yul\":8853:8905   */\n      tag_443\n        /* \"#utility.yul\":8898:8904   */\n      dup2\n        /* \"#utility.yul\":8893:8896   */\n      dup6\n        /* \"#utility.yul\":8886:8890   */\n      0x20\n        /* \"#utility.yul\":8879:8884   */\n      dup7\n        /* \"#utility.yul\":8875:8891   */\n      add\n        /* \"#utility.yul\":8853:8905   */\n      tag_444\n      jump\t// in\n    tag_443:\n        /* \"#utility.yul\":8930:8959   */\n      tag_445\n        /* \"#utility.yul\":8952:8958   */\n      dup2\n        /* \"#utility.yul\":8930:8959   */\n      tag_446\n      jump\t// in\n    tag_445:\n        /* \"#utility.yul\":8925:8928   */\n      dup5\n        /* \"#utility.yul\":8921:8960   */\n      add\n        /* \"#utility.yul\":8914:8960   */\n      swap2\n      pop\n        /* \"#utility.yul\":8694:8966   */\n      pop\n      swap3\n      swap2\n      pop\n      pop\n      jump\t// out\n        /* \"#utility.yul\":8972:9349   */\n    tag_447:\n        /* \"#utility.yul\":9078:9081   */\n      0x00\n        /* \"#utility.yul\":9106:9145   */\n      tag_449\n        /* \"#utility.yul\":9139:9144   */\n      dup3\n        /* \"#utility.yul\":9106:9145   */\n      tag_440\n      jump\t// in\n    tag_449:\n        /* \"#utility.yul\":9161:9250   */\n      tag_450\n        /* \"#utility.yul\":9243:9249   */\n      dup2\n        /* \"#utility.yul\":9238:9241   */\n      dup6\n        /* \"#utility.yul\":9161:9250   */\n      tag_451\n      jump\t// in\n    tag_450:\n        /* \"#utility.yul\":9154:9250   */\n      swap4\n      pop\n        /* \"#utility.yul\":9259:9311   */\n      tag_452\n        /* \"#utility.yul\":9304:9310   */\n      dup2\n        /* \"#utility.yul\":9299:9302   */\n      dup6\n        /* \"#utility.yul\":9292:9296   */\n      0x20\n        /* \"#utility.yul\":9285:9290   */\n      dup7\n        /* \"#utility.yul\":9281:9297   */\n      add\n        /* \"#utility.yul\":9259:9311   */\n      tag_444\n      jump\t// in\n    tag_452:\n        /* \"#utility.yul\":9336:9342   */\n      dup1\n        /* \"#utility.yul\":9331:9334   */\n      dup5\n        /* \"#utility.yul\":9327:9343   */\n      add\n        /* \"#utility.yul\":9320:9343   */\n      swap2\n      pop\n        /* \"#utility.yul\":9082:9349   */\n      pop\n      swap3\n      swap2\n      pop\n      pop\n      jump\t// out\n        /* \"#utility.yul\":9355:9721   */\n    tag_453:\n        /* \"#utility.yul\":9497:9500   */\n      0x00\n        /* \"#utility.yul\":9518:9585   */\n      tag_455\n        /* \"#utility.yul\":9582:9584   */\n      0x13\n        /* \"#utility.yul\":9577:9580   */\n      dup4\n        /* \"#utility.yul\":9518:9585   */\n      tag_442\n      jump\t// in\n    tag_455:\n        /* \"#utility.yul\":9511:9585   */\n      swap2\n      pop\n        /* \"#utility.yul\":9594:9687   */\n      tag_456\n        /* \"#utility.yul\":9683:9686   */\n      dup3\n        /* \"#utility.yul\":9594:9687   */\n      tag_457\n      jump\t// in\n    tag_456:\n        /* \"#utility.yul\":9712:9714   */\n      0x20\n        /* \"#utility.yul\":9707:9710   */\n      dup3\n        /* \"#utility.yul\":9703:9715   */\n      add\n        /* \"#utility.yul\":9696:9715   */\n      swap1\n      pop\n        /* \"#utility.yul\":9501:9721   */\n      swap2\n      swap1\n      pop\n      jump\t// out\n        /* \"#utility.yul\":9727:9845   */\n    tag_458:\n        /* \"#utility.yul\":9814:9838   */\n      tag_460\n        /* \"#utility.yul\":9832:9837   */\n      dup2\n        /* \"#utility.yul\":9814:9838   */\n      tag_461\n      jump\t// in\n    tag_460:\n        /* \"#utility.yul\":9809:9812   */\n      dup3\n        /* \"#utility.yul\":9802:9839   */\n      mstore\n        /* \"#utility.yul\":9792:9845   */\n      pop\n      pop\n      jump\t// out\n        /* \"#utility.yul\":9851:10008   */\n    tag_462:\n        /* \"#utility.yul\":9956:10001   */\n      tag_464\n        /* \"#utility.yul\":9976:10000   */\n      tag_465\n        /* \"#utility.yul\":9994:9999   */\n      dup3\n        /* \"#utility.yul\":9976:10000   */\n      tag_461\n      jump\t// in\n    tag_465:\n        /* \"#utility.yul\":9956:10001   */\n      tag_466\n      jump\t// in\n    tag_464:\n        /* \"#utility.yul\":9951:9954   */\n      dup3\n        /* \"#utility.yul\":9944:10002   */\n      mstore\n        /* \"#utility.yul\":9934:10008   */\n      pop\n      pop\n      jump\t// out\n        /* \"#utility.yul\":10014:10411   */\n    tag_300:\n        /* \"#utility.yul\":10154:10157   */\n      0x00\n        /* \"#utility.yul\":10169:10244   */\n      tag_468\n        /* \"#utility.yul\":10240:10243   */\n      dup3\n        /* \"#utility.yul\":10231:10237   */\n      dup6\n        /* \"#utility.yul\":10169:10244   */\n      tag_404\n      jump\t// in\n    tag_468:\n        /* \"#utility.yul\":10269:10271   */\n      0x14\n        /* \"#utility.yul\":10264:10267   */\n      dup3\n        /* \"#utility.yul\":10260:10272   */\n      add\n        /* \"#utility.yul\":10253:10272   */\n      swap2\n      pop\n        /* \"#utility.yul\":10282:10357   */\n      tag_469\n        /* \"#utility.yul\":10353:10356   */\n      dup3\n        /* \"#utility.yul\":10344:10350   */\n      dup5\n        /* \"#utility.yul\":10282:10357   */\n      tag_462\n      jump\t// in\n    tag_469:\n        /* \"#utility.yul\":10382:10384   */\n      0x20\n        /* \"#utility.yul\":10377:10380   */\n      dup3\n        /* \"#utility.yul\":10373:10385   */\n      add\n        /* \"#utility.yul\":10366:10385   */\n      swap2\n      pop\n        /* \"#utility.yul\":10402:10405   */\n      dup2\n        /* \"#utility.yul\":10395:10405   */\n      swap1\n      pop\n        /* \"#utility.yul\":10158:10411   */\n      swap4\n      swap3\n      pop\n      pop\n      pop\n      jump\t// out\n        /* \"#utility.yul\":10417:10692   */\n    tag_159:\n        /* \"#utility.yul\":10549:10552   */\n      0x00\n        /* \"#utility.yul\":10571:10666   */\n      tag_471\n        /* \"#utility.yul\":10662:10665   */\n      dup3\n        /* \"#utility.yul\":10653:10659   */\n      dup5\n        /* \"#utility.yul\":10571:10666   */\n      tag_447\n      jump\t// in\n    tag_471:\n        /* \"#utility.yul\":10564:10666   */\n      swap2\n      pop\n        /* \"#utility.yul\":10683:10686   */\n      dup2\n        /* \"#utility.yul\":10676:10686   */\n      swap1\n      pop\n        /* \"#utility.yul\":10553:10692   */\n      swap3\n      swap2\n      pop\n      pop\n      jump\t// out\n        /* \"#utility.yul\":10698:10920   */\n    tag_85:\n        /* \"#utility.yul\":10791:10795   */\n      0x00\n        /* \"#utility.yul\":10829:10831   */\n      0x20\n        /* \"#utility.yul\":10818:10827   */\n      dup3\n        /* \"#utility.yul\":10814:10832   */\n      add\n        /* \"#utility.yul\":10806:10832   */\n      swap1\n      pop\n        /* \"#utility.yul\":10842:10913   */\n      tag_473\n        /* \"#utility.yul\":10910:10911   */\n      0x00\n        /* \"#utility.yul\":10899:10908   */\n      dup4\n        /* \"#utility.yul\":10895:10912   */\n      add\n        /* \"#utility.yul\":10886:10892   */\n      dup5\n        /* \"#utility.yul\":10842:10913   */\n      tag_400\n      jump\t// in\n    tag_473:\n        /* \"#utility.yul\":10796:10920   */\n      swap3\n      swap2\n      pop\n      pop\n      jump\t// out\n        /* \"#utility.yul\":10926:11299   */\n    tag_80:\n        /* \"#utility.yul\":11069:11073   */\n      0x00\n        /* \"#utility.yul\":11107:11109   */\n      0x20\n        /* \"#utility.yul\":11096:11105   */\n      dup3\n        /* \"#utility.yul\":11092:11110   */\n      add\n        /* \"#utility.yul\":11084:11110   */\n      swap1\n      pop\n        /* \"#utility.yul\":11156:11165   */\n      dup2\n        /* \"#utility.yul\":11150:11154   */\n      dup2\n        /* \"#utility.yul\":11146:11166   */\n      sub\n        /* \"#utility.yul\":11142:11143   */\n      0x00\n        /* \"#utility.yul\":11131:11140   */\n      dup4\n        /* \"#utility.yul\":11127:11144   */\n      add\n        /* \"#utility.yul\":11120:11167   */\n      mstore\n        /* \"#utility.yul\":11184:11292   */\n      tag_475\n        /* \"#utility.yul\":11287:11291   */\n      dup2\n        /* \"#utility.yul\":11278:11284   */\n      dup5\n        /* \"#utility.yul\":11184:11292   */\n      tag_409\n      jump\t// in\n    tag_475:\n        /* \"#utility.yul\":11176:11292   */\n      swap1\n      pop\n        /* \"#utility.yul\":11074:11299   */\n      swap3\n      swap2\n      pop\n      pop\n      jump\t// out\n        /* \"#utility.yul\":11305:11515   */\n    tag_41:\n        /* \"#utility.yul\":11392:11396   */\n      0x00\n        /* \"#utility.yul\":11430:11432   */\n      0x20\n        /* \"#utility.yul\":11419:11428   */\n      dup3\n        /* \"#utility.yul\":11415:11433   */\n      add\n        /* \"#utility.yul\":11407:11433   */\n      swap1\n      pop\n        /* \"#utility.yul\":11443:11508   */\n      tag_477\n        /* \"#utility.yul\":11505:11506   */\n      0x00\n        /* \"#utility.yul\":11494:11503   */\n      dup4\n        /* \"#utility.yul\":11490:11507   */\n      add\n        /* \"#utility.yul\":11481:11487   */\n      dup5\n        /* \"#utility.yul\":11443:11508   */\n      tag_423\n      jump\t// in\n    tag_477:\n        /* \"#utility.yul\":11397:11515   */\n      swap3\n      swap2\n      pop\n      pop\n      jump\t// out\n        /* \"#utility.yul\":11521:11743   */\n    tag_61:\n        /* \"#utility.yul\":11614:11618   */\n      0x00\n        /* \"#utility.yul\":11652:11654   */\n      0x20\n        /* \"#utility.yul\":11641:11650   */\n      dup3\n        /* \"#utility.yul\":11637:11655   */\n      add\n        /* \"#utility.yul\":11629:11655   */\n      swap1\n      pop\n        /* \"#utility.yul\":11665:11736   */\n      tag_479\n        /* \"#utility.yul\":11733:11734   */\n      0x00\n        /* \"#utility.yul\":11722:11731   */\n      dup4\n        /* \"#utility.yul\":11718:11735   */\n      add\n        /* \"#utility.yul\":11709:11715   */\n      dup5\n        /* \"#utility.yul\":11665:11736   */\n      tag_430\n      jump\t// in\n    tag_479:\n        /* \"#utility.yul\":11619:11743   */\n      swap3\n      swap2\n      pop\n      pop\n      jump\t// out\n        /* \"#utility.yul\":11749:12706   */\n    tag_56:\n        /* \"#utility.yul\":12022:12026   */\n      0x00\n        /* \"#utility.yul\":12060:12063   */\n      0xc0\n        /* \"#utility.yul\":12049:12058   */\n      dup3\n        /* \"#utility.yul\":12045:12064   */\n      add\n        /* \"#utility.yul\":12037:12064   */\n      swap1\n      pop\n        /* \"#utility.yul\":12074:12145   */\n      tag_481\n        /* \"#utility.yul\":12142:12143   */\n      0x00\n        /* \"#utility.yul\":12131:12140   */\n      dup4\n        /* \"#utility.yul\":12127:12144   */\n      add\n        /* \"#utility.yul\":12118:12124   */\n      dup10\n        /* \"#utility.yul\":12074:12145   */\n      tag_430\n      jump\t// in\n    tag_481:\n        /* \"#utility.yul\":12155:12227   */\n      tag_482\n        /* \"#utility.yul\":12223:12225   */\n      0x20\n        /* \"#utility.yul\":12212:12221   */\n      dup4\n        /* \"#utility.yul\":12208:12226   */\n      add\n        /* \"#utility.yul\":12199:12205   */\n      dup9\n        /* \"#utility.yul\":12155:12227   */\n      tag_400\n      jump\t// in\n    tag_482:\n        /* \"#utility.yul\":12237:12309   */\n      tag_483\n        /* \"#utility.yul\":12305:12307   */\n      0x40\n        /* \"#utility.yul\":12294:12303   */\n      dup4\n        /* \"#utility.yul\":12290:12308   */\n      add\n        /* \"#utility.yul\":12281:12287   */\n      dup8\n        /* \"#utility.yul\":12237:12309   */\n      tag_458\n      jump\t// in\n    tag_483:\n        /* \"#utility.yul\":12356:12365   */\n      dup2\n        /* \"#utility.yul\":12350:12354   */\n      dup2\n        /* \"#utility.yul\":12346:12366   */\n      sub\n        /* \"#utility.yul\":12341:12343   */\n      0x60\n        /* \"#utility.yul\":12330:12339   */\n      dup4\n        /* \"#utility.yul\":12326:12344   */\n      add\n        /* \"#utility.yul\":12319:12367   */\n      mstore\n        /* \"#utility.yul\":12384:12462   */\n      tag_484\n        /* \"#utility.yul\":12457:12461   */\n      dup2\n        /* \"#utility.yul\":12448:12454   */\n      dup7\n        /* \"#utility.yul\":12384:12462   */\n      tag_437\n      jump\t// in\n    tag_484:\n        /* \"#utility.yul\":12376:12462   */\n      swap1\n      pop\n        /* \"#utility.yul\":12472:12545   */\n      tag_485\n        /* \"#utility.yul\":12540:12543   */\n      0x80\n        /* \"#utility.yul\":12529:12538   */\n      dup4\n        /* \"#utility.yul\":12525:12544   */\n      add\n        /* \"#utility.yul\":12516:12522   */\n      dup6\n        /* \"#utility.yul\":12472:12545   */\n      tag_400\n      jump\t// in\n    tag_485:\n        /* \"#utility.yul\":12593:12602   */\n      dup2\n        /* \"#utility.yul\":12587:12591   */\n      dup2\n        /* \"#utility.yul\":12583:12603   */\n      sub\n        /* \"#utility.yul\":12577:12580   */\n      0xa0\n        /* \"#utility.yul\":12566:12575   */\n      dup4\n        /* \"#utility.yul\":12562:12581   */\n      add\n        /* \"#utility.yul\":12555:12604   */\n      mstore\n        /* \"#utility.yul\":12621:12699   */\n      tag_486\n        /* \"#utility.yul\":12694:12698   */\n      dup2\n        /* \"#utility.yul\":12685:12691   */\n      dup5\n        /* \"#utility.yul\":12621:12699   */\n      tag_437\n      jump\t// in\n    tag_486:\n        /* \"#utility.yul\":12613:12699   */\n      swap1\n      pop\n        /* \"#utility.yul\":12027:12706   */\n      swap8\n      swap7\n      pop\n      pop\n      pop\n      pop\n      pop\n      pop\n      pop\n      jump\t// out\n        /* \"#utility.yul\":12712:13025   */\n    tag_118:\n        /* \"#utility.yul\":12825:12829   */\n      0x00\n        /* \"#utility.yul\":12863:12865   */\n      0x20\n        /* \"#utility.yul\":12852:12861   */\n      dup3\n        /* \"#utility.yul\":12848:12866   */\n      add\n        /* \"#utility.yul\":12840:12866   */\n      swap1\n      pop\n        /* \"#utility.yul\":12912:12921   */\n      dup2\n        /* \"#utility.yul\":12906:12910   */\n      dup2\n        /* \"#utility.yul\":12902:12922   */\n      sub\n        /* \"#utility.yul\":12898:12899   */\n      0x00\n        /* \"#utility.yul\":12887:12896   */\n      dup4\n        /* \"#utility.yul\":12883:12900   */\n      add\n        /* \"#utility.yul\":12876:12923   */\n      mstore\n        /* \"#utility.yul\":12940:13018   */\n      tag_488\n        /* \"#utility.yul\":13013:13017   */\n      dup2\n        /* \"#utility.yul\":13004:13010   */\n      dup5\n        /* \"#utility.yul\":12940:13018   */\n      tag_437\n      jump\t// in\n    tag_488:\n        /* \"#utility.yul\":12932:13018   */\n      swap1\n      pop\n        /* \"#utility.yul\":12830:13025   */\n      swap3\n      swap2\n      pop\n      pop\n      jump\t// out\n        /* \"#utility.yul\":13031:13877   */\n    tag_72:\n        /* \"#utility.yul\":13276:13280   */\n      0x00\n        /* \"#utility.yul\":13314:13317   */\n      0xa0\n        /* \"#utility.yul\":13303:13312   */\n      dup3\n        /* \"#utility.yul\":13299:13318   */\n      add\n        /* \"#utility.yul\":13291:13318   */\n      swap1\n      pop\n        /* \"#utility.yul\":13364:13373   */\n      dup2\n        /* \"#utility.yul\":13358:13362   */\n      dup2\n        /* \"#utility.yul\":13354:13374   */\n      sub\n        /* \"#utility.yul\":13350:13351   */\n      0x00\n        /* \"#utility.yul\":13339:13348   */\n      dup4\n        /* \"#utility.yul\":13335:13352   */\n      add\n        /* \"#utility.yul\":13328:13375   */\n      mstore\n        /* \"#utility.yul\":13392:13470   */\n      tag_490\n        /* \"#utility.yul\":13465:13469   */\n      dup2\n        /* \"#utility.yul\":13456:13462   */\n      dup9\n        /* \"#utility.yul\":13392:13470   */\n      tag_437\n      jump\t// in\n    tag_490:\n        /* \"#utility.yul\":13384:13470   */\n      swap1\n      pop\n        /* \"#utility.yul\":13480:13552   */\n      tag_491\n        /* \"#utility.yul\":13548:13550   */\n      0x20\n        /* \"#utility.yul\":13537:13546   */\n      dup4\n        /* \"#utility.yul\":13533:13551   */\n      add\n        /* \"#utility.yul\":13524:13530   */\n      dup8\n        /* \"#utility.yul\":13480:13552   */\n      tag_400\n      jump\t// in\n    tag_491:\n        /* \"#utility.yul\":13562:13634   */\n      tag_492\n        /* \"#utility.yul\":13630:13632   */\n      0x40\n        /* \"#utility.yul\":13619:13628   */\n      dup4\n        /* \"#utility.yul\":13615:13633   */\n      add\n        /* \"#utility.yul\":13606:13612   */\n      dup7\n        /* \"#utility.yul\":13562:13634   */\n      tag_458\n      jump\t// in\n    tag_492:\n        /* \"#utility.yul\":13644:13716   */\n      tag_493\n        /* \"#utility.yul\":13712:13714   */\n      0x60\n        /* \"#utility.yul\":13701:13710   */\n      dup4\n        /* \"#utility.yul\":13697:13715   */\n      add\n        /* \"#utility.yul\":13688:13694   */\n      dup6\n        /* \"#utility.yul\":13644:13716   */\n      tag_400\n      jump\t// in\n    tag_493:\n        /* \"#utility.yul\":13764:13773   */\n      dup2\n        /* \"#utility.yul\":13758:13762   */\n      dup2\n        /* \"#utility.yul\":13754:13774   */\n      sub\n        /* \"#utility.yul\":13748:13751   */\n      0x80\n        /* \"#utility.yul\":13737:13746   */\n      dup4\n        /* \"#utility.yul\":13733:13752   */\n      add\n        /* \"#utility.yul\":13726:13775   */\n      mstore\n        /* \"#utility.yul\":13792:13870   */\n      tag_494\n        /* \"#utility.yul\":13865:13869   */\n      dup2\n        /* \"#utility.yul\":13856:13862   */\n      dup5\n        /* \"#utility.yul\":13792:13870   */\n      tag_437\n      jump\t// in\n    tag_494:\n        /* \"#utility.yul\":13784:13870   */\n      swap1\n      pop\n        /* \"#utility.yul\":13281:13877   */\n      swap7\n      swap6\n      pop\n      pop\n      pop\n      pop\n      pop\n      pop\n      jump\t// out\n        /* \"#utility.yul\":13883:14866   */\n    tag_47:\n        /* \"#utility.yul\":14169:14173   */\n      0x00\n        /* \"#utility.yul\":14207:14210   */\n      0xc0\n        /* \"#utility.yul\":14196:14205   */\n      dup3\n        /* \"#utility.yul\":14192:14211   */\n      add\n        /* \"#utility.yul\":14184:14211   */\n      swap1\n      pop\n        /* \"#utility.yul\":14257:14266   */\n      dup2\n        /* \"#utility.yul\":14251:14255   */\n      dup2\n        /* \"#utility.yul\":14247:14267   */\n      sub\n        /* \"#utility.yul\":14243:14244   */\n      0x00\n        /* \"#utility.yul\":14232:14241   */\n      dup4\n        /* \"#utility.yul\":14228:14245   */\n      add\n        /* \"#utility.yul\":14221:14268   */\n      mstore\n        /* \"#utility.yul\":14285:14363   */\n      tag_496\n        /* \"#utility.yul\":14358:14362   */\n      dup2\n        /* \"#utility.yul\":14349:14355   */\n      dup10\n        /* \"#utility.yul\":14285:14363   */\n      tag_437\n      jump\t// in\n    tag_496:\n        /* \"#utility.yul\":14277:14363   */\n      swap1\n      pop\n        /* \"#utility.yul\":14373:14445   */\n      tag_497\n        /* \"#utility.yul\":14441:14443   */\n      0x20\n        /* \"#utility.yul\":14430:14439   */\n      dup4\n        /* \"#utility.yul\":14426:14444   */\n      add\n        /* \"#utility.yul\":14417:14423   */\n      dup9\n        /* \"#utility.yul\":14373:14445   */\n      tag_400\n      jump\t// in\n    tag_497:\n        /* \"#utility.yul\":14455:14527   */\n      tag_498\n        /* \"#utility.yul\":14523:14525   */\n      0x40\n        /* \"#utility.yul\":14512:14521   */\n      dup4\n        /* \"#utility.yul\":14508:14526   */\n      add\n        /* \"#utility.yul\":14499:14505   */\n      dup8\n        /* \"#utility.yul\":14455:14527   */\n      tag_458\n      jump\t// in\n    tag_498:\n        /* \"#utility.yul\":14537:14609   */\n      tag_499\n        /* \"#utility.yul\":14605:14607   */\n      0x60\n        /* \"#utility.yul\":14594:14603   */\n      dup4\n        /* \"#utility.yul\":14590:14608   */\n      add\n        /* \"#utility.yul\":14581:14587   */\n      dup7\n        /* \"#utility.yul\":14537:14609   */\n      tag_400\n      jump\t// in\n    tag_499:\n        /* \"#utility.yul\":14657:14666   */\n      dup2\n        /* \"#utility.yul\":14651:14655   */\n      dup2\n        /* \"#utility.yul\":14647:14667   */\n      sub\n        /* \"#utility.yul\":14641:14644   */\n      0x80\n        /* \"#utility.yul\":14630:14639   */\n      dup4\n        /* \"#utility.yul\":14626:14645   */\n      add\n        /* \"#utility.yul\":14619:14668   */\n      mstore\n        /* \"#utility.yul\":14685:14763   */\n      tag_500\n        /* \"#utility.yul\":14758:14762   */\n      dup2\n        /* \"#utility.yul\":14749:14755   */\n      dup6\n        /* \"#utility.yul\":14685:14763   */\n      tag_437\n      jump\t// in\n    tag_500:\n        /* \"#utility.yul\":14677:14763   */\n      swap1\n      pop\n        /* \"#utility.yul\":14773:14859   */\n      tag_501\n        /* \"#utility.yul\":14854:14857   */\n      0xa0\n        /* \"#utility.yul\":14843:14852   */\n      dup4\n        /* \"#utility.yul\":14839:14858   */\n      add\n        /* \"#utility.yul\":14830:14836   */\n      dup5\n        /* \"#utility.yul\":14773:14859   */\n      tag_433\n      jump\t// in\n    tag_501:\n        /* \"#utility.yul\":14174:14866   */\n      swap8\n      swap7\n      pop\n      pop\n      pop\n      pop\n      pop\n      pop\n      pop\n      jump\t// out\n        /* \"#utility.yul\":14872:16395   */\n    tag_114:\n        /* \"#utility.yul\":15273:15277   */\n      0x00\n        /* \"#utility.yul\":15311:15314   */\n      0xe0\n        /* \"#utility.yul\":15300:15309   */\n      dup3\n        /* \"#utility.yul\":15296:15315   */\n      add\n        /* \"#utility.yul\":15288:15315   */\n      swap1\n      pop\n        /* \"#utility.yul\":15361:15370   */\n      dup2\n        /* \"#utility.yul\":15355:15359   */\n      dup2\n        /* \"#utility.yul\":15351:15371   */\n      sub\n        /* \"#utility.yul\":15347:15348   */\n      0x00\n        /* \"#utility.yul\":15336:15345   */\n      dup4\n        /* \"#utility.yul\":15332:15349   */\n      add\n        /* \"#utility.yul\":15325:15372   */\n      mstore\n        /* \"#utility.yul\":15389:15467   */\n      tag_503\n        /* \"#utility.yul\":15462:15466   */\n      dup2\n        /* \"#utility.yul\":15453:15459   */\n      dup11\n        /* \"#utility.yul\":15389:15467   */\n      tag_437\n      jump\t// in\n    tag_503:\n        /* \"#utility.yul\":15381:15467   */\n      swap1\n      pop\n        /* \"#utility.yul\":15514:15523   */\n      dup2\n        /* \"#utility.yul\":15508:15512   */\n      dup2\n        /* \"#utility.yul\":15504:15524   */\n      sub\n        /* \"#utility.yul\":15499:15501   */\n      0x20\n        /* \"#utility.yul\":15488:15497   */\n      dup4\n        /* \"#utility.yul\":15484:15502   */\n      add\n        /* \"#utility.yul\":15477:15525   */\n      mstore\n        /* \"#utility.yul\":15542:15620   */\n      tag_504\n        /* \"#utility.yul\":15615:15619   */\n      dup2\n        /* \"#utility.yul\":15606:15612   */\n      dup10\n        /* \"#utility.yul\":15542:15620   */\n      tag_437\n      jump\t// in\n    tag_504:\n        /* \"#utility.yul\":15534:15620   */\n      swap1\n      pop\n        /* \"#utility.yul\":15667:15676   */\n      dup2\n        /* \"#utility.yul\":15661:15665   */\n      dup2\n        /* \"#utility.yul\":15657:15677   */\n      sub\n        /* \"#utility.yul\":15652:15654   */\n      0x40\n        /* \"#utility.yul\":15641:15650   */\n      dup4\n        /* \"#utility.yul\":15637:15655   */\n      add\n        /* \"#utility.yul\":15630:15678   */\n      mstore\n        /* \"#utility.yul\":15695:15773   */\n      tag_505\n        /* \"#utility.yul\":15768:15772   */\n      dup2\n        /* \"#utility.yul\":15759:15765   */\n      dup9\n        /* \"#utility.yul\":15695:15773   */\n      tag_437\n      jump\t// in\n    tag_505:\n        /* \"#utility.yul\":15687:15773   */\n      swap1\n      pop\n        /* \"#utility.yul\":15820:15829   */\n      dup2\n        /* \"#utility.yul\":15814:15818   */\n      dup2\n        /* \"#utility.yul\":15810:15830   */\n      sub\n        /* \"#utility.yul\":15805:15807   */\n      0x60\n        /* \"#utility.yul\":15794:15803   */\n      dup4\n        /* \"#utility.yul\":15790:15808   */\n      add\n        /* \"#utility.yul\":15783:15831   */\n      mstore\n        /* \"#utility.yul\":15848:15926   */\n      tag_506\n        /* \"#utility.yul\":15921:15925   */\n      dup2\n        /* \"#utility.yul\":15912:15918   */\n      dup8\n        /* \"#utility.yul\":15848:15926   */\n      tag_437\n      jump\t// in\n    tag_506:\n        /* \"#utility.yul\":15840:15926   */\n      swap1\n      pop\n        /* \"#utility.yul\":15974:15983   */\n      dup2\n        /* \"#utility.yul\":15968:15972   */\n      dup2\n        /* \"#utility.yul\":15964:15984   */\n      sub\n        /* \"#utility.yul\":15958:15961   */\n      0x80\n        /* \"#utility.yul\":15947:15956   */\n      dup4\n        /* \"#utility.yul\":15943:15962   */\n      add\n        /* \"#utility.yul\":15936:15985   */\n      mstore\n        /* \"#utility.yul\":16002:16080   */\n      tag_507\n        /* \"#utility.yul\":16075:16079   */\n      dup2\n        /* \"#utility.yul\":16066:16072   */\n      dup7\n        /* \"#utility.yul\":16002:16080   */\n      tag_437\n      jump\t// in\n    tag_507:\n        /* \"#utility.yul\":15994:16080   */\n      swap1\n      pop\n        /* \"#utility.yul\":16128:16137   */\n      dup2\n        /* \"#utility.yul\":16122:16126   */\n      dup2\n        /* \"#utility.yul\":16118:16138   */\n      sub\n        /* \"#utility.yul\":16112:16115   */\n      0xa0\n        /* \"#utility.yul\":16101:16110   */\n      dup4\n        /* \"#utility.yul\":16097:16116   */\n      add\n        /* \"#utility.yul\":16090:16139   */\n      mstore\n        /* \"#utility.yul\":16156:16234   */\n      tag_508\n        /* \"#utility.yul\":16229:16233   */\n      dup2\n        /* \"#utility.yul\":16220:16226   */\n      dup6\n        /* \"#utility.yul\":16156:16234   */\n      tag_437\n      jump\t// in\n    tag_508:\n        /* \"#utility.yul\":16148:16234   */\n      swap1\n      pop\n        /* \"#utility.yul\":16282:16291   */\n      dup2\n        /* \"#utility.yul\":16276:16280   */\n      dup2\n        /* \"#utility.yul\":16272:16292   */\n      sub\n        /* \"#utility.yul\":16266:16269   */\n      0xc0\n        /* \"#utility.yul\":16255:16264   */\n      dup4\n        /* \"#utility.yul\":16251:16270   */\n      add\n        /* \"#utility.yul\":16244:16293   */\n      mstore\n        /* \"#utility.yul\":16310:16388   */\n      tag_509\n        /* \"#utility.yul\":16383:16387   */\n      dup2\n        /* \"#utility.yul\":16374:16380   */\n      dup5\n        /* \"#utility.yul\":16310:16388   */\n      tag_437\n      jump\t// in\n    tag_509:\n        /* \"#utility.yul\":16302:16388   */\n      swap1\n      pop\n        /* \"#utility.yul\":15278:16395   */\n      swap9\n      swap8\n      pop\n      pop\n      pop\n      pop\n      pop\n      pop\n      pop\n      pop\n      jump\t// out\n        /* \"#utility.yul\":16401:16824   */\n    tag_262:\n        /* \"#utility.yul\":16542:16546   */\n      0x00\n        /* \"#utility.yul\":16580:16582   */\n      0x40\n        /* \"#utility.yul\":16569:16578   */\n      dup3\n        /* \"#utility.yul\":16565:16583   */\n      add\n        /* \"#utility.yul\":16557:16583   */\n      swap1\n      pop\n        /* \"#utility.yul\":16629:16638   */\n      dup2\n        /* \"#utility.yul\":16623:16627   */\n      dup2\n        /* \"#utility.yul\":16619:16639   */\n      sub\n        /* \"#utility.yul\":16615:16616   */\n      0x00\n        /* \"#utility.yul\":16604:16613   */\n      dup4\n        /* \"#utility.yul\":16600:16617   */\n      add\n        /* \"#utility.yul\":16593:16640   */\n      mstore\n        /* \"#utility.yul\":16657:16735   */\n      tag_511\n        /* \"#utility.yul\":16730:16734   */\n      dup2\n        /* \"#utility.yul\":16721:16727   */\n      dup6\n        /* \"#utility.yul\":16657:16735   */\n      tag_437\n      jump\t// in\n    tag_511:\n        /* \"#utility.yul\":16649:16735   */\n      swap1\n      pop\n        /* \"#utility.yul\":16745:16817   */\n      tag_512\n        /* \"#utility.yul\":16813:16815   */\n      0x20\n        /* \"#utility.yul\":16802:16811   */\n      dup4\n        /* \"#utility.yul\":16798:16816   */\n      add\n        /* \"#utility.yul\":16789:16795   */\n      dup5\n        /* \"#utility.yul\":16745:16817   */\n      tag_458\n      jump\t// in\n    tag_512:\n        /* \"#utility.yul\":16547:16824   */\n      swap4\n      swap3\n      pop\n      pop\n      pop\n      jump\t// out\n        /* \"#utility.yul\":16830:17249   */\n    tag_277:\n        /* \"#utility.yul\":16996:17000   */\n      0x00\n        /* \"#utility.yul\":17034:17036   */\n      0x20\n        /* \"#utility.yul\":17023:17032   */\n      dup3\n        /* \"#utility.yul\":17019:17037   */\n      add\n        /* \"#utility.yul\":17011:17037   */\n      swap1\n      pop\n        /* \"#utility.yul\":17083:17092   */\n      dup2\n        /* \"#utility.yul\":17077:17081   */\n      dup2\n        /* \"#utility.yul\":17073:17093   */\n      sub\n        /* \"#utility.yul\":17069:17070   */\n      0x00\n        /* \"#utility.yul\":17058:17067   */\n      dup4\n        /* \"#utility.yul\":17054:17071   */\n      add\n        /* \"#utility.yul\":17047:17094   */\n      mstore\n        /* \"#utility.yul\":17111:17242   */\n      tag_514\n        /* \"#utility.yul\":17237:17241   */\n      dup2\n        /* \"#utility.yul\":17111:17242   */\n      tag_453\n      jump\t// in\n    tag_514:\n        /* \"#utility.yul\":17103:17242   */\n      swap1\n      pop\n        /* \"#utility.yul\":17001:17249   */\n      swap2\n      swap1\n      pop\n      jump\t// out\n        /* \"#utility.yul\":17255:17477   */\n    tag_220:\n        /* \"#utility.yul\":17348:17352   */\n      0x00\n        /* \"#utility.yul\":17386:17388   */\n      0x20\n        /* \"#utility.yul\":17375:17384   */\n      dup3\n        /* \"#utility.yul\":17371:17389   */\n      add\n        /* \"#utility.yul\":17363:17389   */\n      swap1\n      pop\n        /* \"#utility.yul\":17399:17470   */\n      tag_516\n        /* \"#utility.yul\":17467:17468   */\n      0x00\n        /* \"#utility.yul\":17456:17465   */\n      dup4\n        /* \"#utility.yul\":17452:17469   */\n      add\n        /* \"#utility.yul\":17443:17449   */\n      dup5\n        /* \"#utility.yul\":17399:17470   */\n      tag_458\n      jump\t// in\n    tag_516:\n        /* \"#utility.yul\":17353:17477   */\n      swap3\n      swap2\n      pop\n      pop\n      jump\t// out\n        /* \"#utility.yul\":17483:18036   */\n    tag_94:\n        /* \"#utility.yul\":17660:17664   */\n      0x00\n        /* \"#utility.yul\":17698:17701   */\n      0x80\n        /* \"#utility.yul\":17687:17696   */\n      dup3\n        /* \"#utility.yul\":17683:17702   */\n      add\n        /* \"#utility.yul\":17675:17702   */\n      swap1\n      pop\n        /* \"#utility.yul\":17712:17783   */\n      tag_518\n        /* \"#utility.yul\":17780:17781   */\n      0x00\n        /* \"#utility.yul\":17769:17778   */\n      dup4\n        /* \"#utility.yul\":17765:17782   */\n      add\n        /* \"#utility.yul\":17756:17762   */\n      dup8\n        /* \"#utility.yul\":17712:17783   */\n      tag_458\n      jump\t// in\n    tag_518:\n        /* \"#utility.yul\":17793:17865   */\n      tag_519\n        /* \"#utility.yul\":17861:17863   */\n      0x20\n        /* \"#utility.yul\":17850:17859   */\n      dup4\n        /* \"#utility.yul\":17846:17864   */\n      add\n        /* \"#utility.yul\":17837:17843   */\n      dup7\n        /* \"#utility.yul\":17793:17865   */\n      tag_458\n      jump\t// in\n    tag_519:\n        /* \"#utility.yul\":17875:17947   */\n      tag_520\n        /* \"#utility.yul\":17943:17945   */\n      0x40\n        /* \"#utility.yul\":17932:17941   */\n      dup4\n        /* \"#utility.yul\":17928:17946   */\n      add\n        /* \"#utility.yul\":17919:17925   */\n      dup6\n        /* \"#utility.yul\":17875:17947   */\n      tag_458\n      jump\t// in\n    tag_520:\n        /* \"#utility.yul\":17957:18029   */\n      tag_521\n        /* \"#utility.yul\":18025:18027   */\n      0x60\n        /* \"#utility.yul\":18014:18023   */\n      dup4\n        /* \"#utility.yul\":18010:18028   */\n      add\n        /* \"#utility.yul\":18001:18007   */\n      dup5\n        /* \"#utility.yul\":17957:18029   */\n      tag_458\n      jump\t// in\n    tag_521:\n        /* \"#utility.yul\":17665:18036   */\n      swap6\n      swap5\n      pop\n      pop\n      pop\n      pop\n      pop\n      jump\t// out\n        /* \"#utility.yul\":18042:18171   */\n    tag_321:\n        /* \"#utility.yul\":18076:18082   */\n      0x00\n        /* \"#utility.yul\":18103:18123   */\n      tag_523\n      tag_524\n      jump\t// in\n    tag_523:\n        /* \"#utility.yul\":18093:18123   */\n      swap1\n      pop\n        /* \"#utility.yul\":18132:18165   */\n      tag_525\n        /* \"#utility.yul\":18160:18164   */\n      dup3\n        /* \"#utility.yul\":18152:18158   */\n      dup3\n        /* \"#utility.yul\":18132:18165   */\n      tag_526\n      jump\t// in\n    tag_525:\n        /* \"#utility.yul\":18083:18171   */\n      swap2\n      swap1\n      pop\n      jump\t// out\n        /* \"#utility.yul\":18177:18252   */\n    tag_524:\n        /* \"#utility.yul\":18210:18216   */\n      0x00\n        /* \"#utility.yul\":18243:18245   */\n      0x40\n        /* \"#utility.yul\":18237:18246   */\n      mload\n        /* \"#utility.yul\":18227:18246   */\n      swap1\n      pop\n        /* \"#utility.yul\":18217:18252   */\n      swap1\n      jump\t// out\n        /* \"#utility.yul\":18258:18566   */\n    tag_320:\n        /* \"#utility.yul\":18320:18324   */\n      0x00\n        /* \"#utility.yul\":18410:18428   */\n      0xffffffffffffffff\n        /* \"#utility.yul\":18402:18408   */\n      dup3\n        /* \"#utility.yul\":18399:18429   */\n      gt\n        /* \"#utility.yul\":18396:18398   */\n      iszero\n      tag_529\n      jumpi\n        /* \"#utility.yul\":18432:18450   */\n      tag_530\n      tag_531\n      jump\t// in\n    tag_530:\n        /* \"#utility.yul\":18396:18398   */\n    tag_529:\n        /* \"#utility.yul\":18470:18499   */\n      tag_532\n        /* \"#utility.yul\":18492:18498   */\n      dup3\n        /* \"#utility.yul\":18470:18499   */\n      tag_446\n      jump\t// in\n    tag_532:\n        /* \"#utility.yul\":18462:18499   */\n      swap1\n      pop\n        /* \"#utility.yul\":18554:18558   */\n      0x20\n        /* \"#utility.yul\":18548:18552   */\n      dup2\n        /* \"#utility.yul\":18544:18559   */\n      add\n        /* \"#utility.yul\":18536:18559   */\n      swap1\n      pop\n        /* \"#utility.yul\":18325:18566   */\n      swap2\n      swap1\n      pop\n      jump\t// out\n        /* \"#utility.yul\":18572:18704   */\n    tag_416:\n        /* \"#utility.yul\":18639:18643   */\n      0x00\n        /* \"#utility.yul\":18662:18665   */\n      dup2\n        /* \"#utility.yul\":18654:18665   */\n      swap1\n      pop\n        /* \"#utility.yul\":18692:18696   */\n      0x20\n        /* \"#utility.yul\":18687:18690   */\n      dup3\n        /* \"#utility.yul\":18683:18697   */\n      add\n        /* \"#utility.yul\":18675:18697   */\n      swap1\n      pop\n        /* \"#utility.yul\":18644:18704   */\n      swap2\n      swap1\n      pop\n      jump\t// out\n        /* \"#utility.yul\":18710:18824   */\n    tag_412:\n        /* \"#utility.yul\":18777:18783   */\n      0x00\n        /* \"#utility.yul\":18811:18816   */\n      dup2\n        /* \"#utility.yul\":18805:18817   */\n      mload\n        /* \"#utility.yul\":18795:18817   */\n      swap1\n      pop\n        /* \"#utility.yul\":18784:18824   */\n      swap2\n      swap1\n      pop\n      jump\t// out\n        /* \"#utility.yul\":18830:18929   */\n    tag_440:\n        /* \"#utility.yul\":18882:18888   */\n      0x00\n        /* \"#utility.yul\":18916:18921   */\n      dup2\n        /* \"#utility.yul\":18910:18922   */\n      mload\n        /* \"#utility.yul\":18900:18922   */\n      swap1\n      pop\n        /* \"#utility.yul\":18889:18929   */\n      swap2\n      swap1\n      pop\n      jump\t// out\n        /* \"#utility.yul\":18935:19048   */\n    tag_422:\n        /* \"#utility.yul\":19005:19009   */\n      0x00\n        /* \"#utility.yul\":19037:19041   */\n      0x20\n        /* \"#utility.yul\":19032:19035   */\n      dup3\n        /* \"#utility.yul\":19028:19042   */\n      add\n        /* \"#utility.yul\":19020:19042   */\n      swap1\n      pop\n        /* \"#utility.yul\":19010:19048   */\n      swap2\n      swap1\n      pop\n      jump\t// out\n        /* \"#utility.yul\":19054:19238   */\n    tag_414:\n        /* \"#utility.yul\":19153:19164   */\n      0x00\n        /* \"#utility.yul\":19187:19193   */\n      dup3\n        /* \"#utility.yul\":19182:19185   */\n      dup3\n        /* \"#utility.yul\":19175:19194   */\n      mstore\n        /* \"#utility.yul\":19227:19231   */\n      0x20\n        /* \"#utility.yul\":19222:19225   */\n      dup3\n        /* \"#utility.yul\":19218:19232   */\n      add\n        /* \"#utility.yul\":19203:19232   */\n      swap1\n      pop\n        /* \"#utility.yul\":19165:19238   */\n      swap3\n      swap2\n      pop\n      pop\n      jump\t// out\n        /* \"#utility.yul\":19244:19413   */\n    tag_442:\n        /* \"#utility.yul\":19328:19339   */\n      0x00\n        /* \"#utility.yul\":19362:19368   */\n      dup3\n        /* \"#utility.yul\":19357:19360   */\n      dup3\n        /* \"#utility.yul\":19350:19369   */\n      mstore\n        /* \"#utility.yul\":19402:19406   */\n      0x20\n        /* \"#utility.yul\":19397:19400   */\n      dup3\n        /* \"#utility.yul\":19393:19407   */\n      add\n        /* \"#utility.yul\":19378:19407   */\n      swap1\n      pop\n        /* \"#utility.yul\":19340:19413   */\n      swap3\n      swap2\n      pop\n      pop\n      jump\t// out\n        /* \"#utility.yul\":19419:19567   */\n    tag_451:\n        /* \"#utility.yul\":19521:19532   */\n      0x00\n        /* \"#utility.yul\":19558:19561   */\n      dup2\n        /* \"#utility.yul\":19543:19561   */\n      swap1\n      pop\n        /* \"#utility.yul\":19533:19567   */\n      swap3\n      swap2\n      pop\n      pop\n      jump\t// out\n        /* \"#utility.yul\":19573:19878   */\n    tag_248:\n        /* \"#utility.yul\":19613:19616   */\n      0x00\n        /* \"#utility.yul\":19632:19652   */\n      tag_541\n        /* \"#utility.yul\":19650:19651   */\n      dup3\n        /* \"#utility.yul\":19632:19652   */\n      tag_461\n      jump\t// in\n    tag_541:\n        /* \"#utility.yul\":19627:19652   */\n      swap2\n      pop\n        /* \"#utility.yul\":19666:19686   */\n      tag_542\n        /* \"#utility.yul\":19684:19685   */\n      dup4\n        /* \"#utility.yul\":19666:19686   */\n      tag_461\n      jump\t// in\n    tag_542:\n        /* \"#utility.yul\":19661:19686   */\n      swap3\n      pop\n        /* \"#utility.yul\":19820:19821   */\n      dup3\n        /* \"#utility.yul\":19752:19818   */\n      0xffffffffffffffffffffffffffffffffffffffffffffffffffffffffffffffff\n        /* \"#utility.yul\":19748:19822   */\n      sub\n        /* \"#utility.yul\":19745:19746   */\n      dup3\n        /* \"#utility.yul\":19742:19823   */\n      gt\n        /* \"#utility.yul\":19739:19741   */\n      iszero\n      tag_543\n      jumpi\n        /* \"#utility.yul\":19826:19844   */\n      tag_544\n      tag_545\n      jump\t// in\n    tag_544:\n        /* \"#utility.yul\":19739:19741   */\n    tag_543:\n        /* \"#utility.yul\":19870:19871   */\n      dup3\n        /* \"#utility.yul\":19867:19868   */\n      dup3\n        /* \"#utility.yul\":19863:19872   */\n      add\n        /* \"#utility.yul\":19856:19872   */\n      swap1\n      pop\n        /* \"#utility.yul\":19617:19878   */\n      swap3\n      swap2\n      pop\n      pop\n      jump\t// out\n        /* \"#utility.yul\":19884:19980   */\n    tag_403:\n        /* \"#utility.yul\":19921:19928   */\n      0x00\n        /* \"#utility.yul\":19950:19974   */\n      tag_547\n        /* \"#utility.yul\":19968:19973   */\n      dup3\n        /* \"#utility.yul\":19950:19974   */\n      tag_548\n      jump\t// in\n    tag_547:\n        /* \"#utility.yul\":19939:19974   */\n      swap1\n      pop\n        /* \"#utility.yul\":19929:19980   */\n      swap2\n      swap1\n      pop\n      jump\t// out\n        /* \"#utility.yul\":19986:20076   */\n    tag_426:\n        /* \"#utility.yul\":20020:20027   */\n      0x00\n        /* \"#utility.yul\":20063:20068   */\n      dup2\n        /* \"#utility.yul\":20056:20069   */\n      iszero\n        /* \"#utility.yul\":20049:20070   */\n      iszero\n        /* \"#utility.yul\":20038:20070   */\n      swap1\n      pop\n        /* \"#utility.yul\":20028:20076   */\n      swap2\n      swap1\n      pop\n      jump\t// out\n        /* \"#utility.yul\":20082:20159   */\n    tag_429:\n        /* \"#utility.yul\":20119:20126   */\n      0x00\n        /* \"#utility.yul\":20148:20153   */\n      dup2\n        /* \"#utility.yul\":20137:20153   */\n      swap1\n      pop\n        /* \"#utility.yul\":20127:20159   */\n      swap2\n      swap1\n      pop\n      jump\t// out\n        /* \"#utility.yul\":20165:20306   */\n    tag_551:\n        /* \"#utility.yul\":20217:20224   */\n      0x00\n        /* \"#utility.yul\":20246:20251   */\n      dup2\n        /* \"#utility.yul\":20235:20251   */\n      swap1\n      pop\n        /* \"#utility.yul\":20252:20300   */\n      tag_553\n        /* \"#utility.yul\":20294:20299   */\n      dup3\n        /* \"#utility.yul\":20252:20300   */\n      tag_554\n      jump\t// in\n    tag_553:\n        /* \"#utility.yul\":20225:20306   */\n      swap2\n      swap1\n      pop\n      jump\t// out\n        /* \"#utility.yul\":20312:20438   */\n    tag_548:\n        /* \"#utility.yul\":20349:20356   */\n      0x00\n        /* \"#utility.yul\":20389:20431   */\n      0xffffffffffffffffffffffffffffffffffffffff\n        /* \"#utility.yul\":20382:20387   */\n      dup3\n        /* \"#utility.yul\":20378:20432   */\n      and\n        /* \"#utility.yul\":20367:20432   */\n      swap1\n      pop\n        /* \"#utility.yul\":20357:20438   */\n      swap2\n      swap1\n      pop\n      jump\t// out\n        /* \"#utility.yul\":20444:20521   */\n    tag_461:\n        /* \"#utility.yul\":20481:20488   */\n      0x00\n        /* \"#utility.yul\":20510:20515   */\n      dup2\n        /* \"#utility.yul\":20499:20515   */\n      swap1\n      pop\n        /* \"#utility.yul\":20489:20521   */\n      swap2\n      swap1\n      pop\n      jump\t// out\n        /* \"#utility.yul\":20527:20668   */\n    tag_436:\n        /* \"#utility.yul\":20590:20599   */\n      0x00\n        /* \"#utility.yul\":20623:20662   */\n      tag_558\n        /* \"#utility.yul\":20656:20661   */\n      dup3\n        /* \"#utility.yul\":20623:20662   */\n      tag_551\n      jump\t// in\n    tag_558:\n        /* \"#utility.yul\":20610:20662   */\n      swap1\n      pop\n        /* \"#utility.yul\":20600:20668   */\n      swap2\n      swap1\n      pop\n      jump\t// out\n        /* \"#utility.yul\":20674:20828   */\n    tag_324:\n        /* \"#utility.yul\":20758:20764   */\n      dup3\n        /* \"#utility.yul\":20753:20756   */\n      dup2\n        /* \"#utility.yul\":20748:20751   */\n      dup4\n        /* \"#utility.yul\":20735:20765   */\n      calldatacopy\n        /* \"#utility.yul\":20820:20821   */\n      0x00\n        /* \"#utility.yul\":20811:20817   */\n      dup4\n        /* \"#utility.yul\":20806:20809   */\n      dup4\n        /* \"#utility.yul\":20802:20818   */\n      add\n        /* \"#utility.yul\":20795:20822   */\n      mstore\n        /* \"#utility.yul\":20725:20828   */\n      pop\n      pop\n      pop\n      jump\t// out\n        /* \"#utility.yul\":20834:21141   */\n    tag_444:\n        /* \"#utility.yul\":20902:20903   */\n      0x00\n        /* \"#utility.yul\":20912:21025   */\n    tag_561:\n        /* \"#utility.yul\":20926:20932   */\n      dup4\n        /* \"#utility.yul\":20923:20924   */\n      dup2\n        /* \"#utility.yul\":20920:20933   */\n      lt\n        /* \"#utility.yul\":20912:21025   */\n      iszero\n      tag_563\n      jumpi\n        /* \"#utility.yul\":21011:21012   */\n      dup1\n        /* \"#utility.yul\":21006:21009   */\n      dup3\n        /* \"#utility.yul\":21002:21013   */\n      add\n        /* \"#utility.yul\":20996:21014   */\n      mload\n        /* \"#utility.yul\":20992:20993   */\n      dup2\n        /* \"#utility.yul\":20987:20990   */\n      dup5\n        /* \"#utility.yul\":20983:20994   */\n      add\n        /* \"#utility.yul\":20976:21015   */\n      mstore\n        /* \"#utility.yul\":20948:20950   */\n      0x20\n        /* \"#utility.yul\":20945:20946   */\n      dup2\n        /* \"#utility.yul\":20941:20951   */\n      add\n        /* \"#utility.yul\":20936:20951   */\n      swap1\n      pop\n        /* \"#utility.yul\":20912:21025   */\n      jump(tag_561)\n    tag_563:\n        /* \"#utility.yul\":21043:21049   */\n      dup4\n        /* \"#utility.yul\":21040:21041   */\n      dup2\n        /* \"#utility.yul\":21037:21050   */\n      gt\n        /* \"#utility.yul\":21034:21036   */\n      iszero\n      tag_564\n      jumpi\n        /* \"#utility.yul\":21123:21124   */\n      0x00\n        /* \"#utility.yul\":21114:21120   */\n      dup5\n        /* \"#utility.yul\":21109:21112   */\n      dup5\n        /* \"#utility.yul\":21105:21121   */\n      add\n        /* \"#utility.yul\":21098:21125   */\n      mstore\n        /* \"#utility.yul\":21034:21036   */\n    tag_564:\n        /* \"#utility.yul\":20883:21141   */\n      pop\n      pop\n      pop\n      pop\n      jump\t// out\n        /* \"#utility.yul\":21147:21467   */\n    tag_153:\n        /* \"#utility.yul\":21191:21197   */\n      0x00\n        /* \"#utility.yul\":21228:21229   */\n      0x02\n        /* \"#utility.yul\":21222:21226   */\n      dup3\n        /* \"#utility.yul\":21218:21230   */\n      div\n        /* \"#utility.yul\":21208:21230   */\n      swap1\n      pop\n        /* \"#utility.yul\":21275:21276   */\n      0x01\n        /* \"#utility.yul\":21269:21273   */\n      dup3\n        /* \"#utility.yul\":21265:21277   */\n      and\n        /* \"#utility.yul\":21296:21314   */\n      dup1\n        /* \"#utility.yul\":21286:21288   */\n      tag_566\n      jumpi\n        /* \"#utility.yul\":21352:21356   */\n      0x7f\n        /* \"#utility.yul\":21344:21350   */\n      dup3\n        /* \"#utility.yul\":21340:21357   */\n      and\n        /* \"#utility.yul\":21330:21357   */\n      swap2\n      pop\n        /* \"#utility.yul\":21286:21288   */\n    tag_566:\n        /* \"#utility.yul\":21414:21416   */\n      0x20\n        /* \"#utility.yul\":21406:21412   */\n      dup3\n        /* \"#utility.yul\":21403:21417   */\n      lt\n        /* \"#utility.yul\":21383:21401   */\n      dup2\n        /* \"#utility.yul\":21380:21418   */\n      eq\n        /* \"#utility.yul\":21377:21379   */\n      iszero\n      tag_567\n      jumpi\n        /* \"#utility.yul\":21433:21451   */\n      tag_568\n      tag_569\n      jump\t// in\n    tag_568:\n        /* \"#utility.yul\":21377:21379   */\n    tag_567:\n        /* \"#utility.yul\":21198:21467   */\n      pop\n      swap2\n      swap1\n      pop\n      jump\t// out\n        /* \"#utility.yul\":21473:21754   */\n    tag_526:\n        /* \"#utility.yul\":21556:21583   */\n      tag_571\n        /* \"#utility.yul\":21578:21582   */\n      dup3\n        /* \"#utility.yul\":21556:21583   */\n      tag_446\n      jump\t// in\n    tag_571:\n        /* \"#utility.yul\":21548:21554   */\n      dup2\n        /* \"#utility.yul\":21544:21584   */\n      add\n        /* \"#utility.yul\":21686:21692   */\n      dup2\n        /* \"#utility.yul\":21674:21684   */\n      dup2\n        /* \"#utility.yul\":21671:21693   */\n      lt\n        /* \"#utility.yul\":21650:21668   */\n      0xffffffffffffffff\n        /* \"#utility.yul\":21638:21648   */\n      dup3\n        /* \"#utility.yul\":21635:21669   */\n      gt\n        /* \"#utility.yul\":21632:21694   */\n      or\n        /* \"#utility.yul\":21629:21631   */\n      iszero\n      tag_572\n      jumpi\n        /* \"#utility.yul\":21697:21715   */\n      tag_573\n      tag_531\n      jump\t// in\n    tag_573:\n        /* \"#utility.yul\":21629:21631   */\n    tag_572:\n        /* \"#utility.yul\":21737:21747   */\n      dup1\n        /* \"#utility.yul\":21733:21735   */\n      0x40\n        /* \"#utility.yul\":21726:21748   */\n      mstore\n        /* \"#utility.yul\":21516:21754   */\n      pop\n      pop\n      pop\n      jump\t// out\n        /* \"#utility.yul\":21760:21860   */\n    tag_408:\n        /* \"#utility.yul\":21799:21806   */\n      0x00\n        /* \"#utility.yul\":21828:21854   */\n      tag_575\n        /* \"#utility.yul\":21848:21853   */\n      dup3\n        /* \"#utility.yul\":21828:21854   */\n      tag_576\n      jump\t// in\n    tag_575:\n        /* \"#utility.yul\":21817:21854   */\n      swap1\n      pop\n        /* \"#utility.yul\":21807:21860   */\n      swap2\n      swap1\n      pop\n      jump\t// out\n        /* \"#utility.yul\":21866:21960   */\n    tag_576:\n        /* \"#utility.yul\":21905:21912   */\n      0x00\n        /* \"#utility.yul\":21934:21954   */\n      tag_578\n        /* \"#utility.yul\":21948:21953   */\n      dup3\n        /* \"#utility.yul\":21934:21954   */\n      tag_579\n      jump\t// in\n    tag_578:\n        /* \"#utility.yul\":21923:21954   */\n      swap1\n      pop\n        /* \"#utility.yul\":21913:21960   */\n      swap2\n      swap1\n      pop\n      jump\t// out\n        /* \"#utility.yul\":21966:22045   */\n    tag_466:\n        /* \"#utility.yul\":22005:22012   */\n      0x00\n        /* \"#utility.yul\":22034:22039   */\n      dup2\n        /* \"#utility.yul\":22023:22039   */\n      swap1\n      pop\n        /* \"#utility.yul\":22013:22045   */\n      swap2\n      swap1\n      pop\n      jump\t// out\n        /* \"#utility.yul\":22051:22231   */\n    tag_545:\n        /* \"#utility.yul\":22099:22176   */\n      0x4e487b7100000000000000000000000000000000000000000000000000000000\n        /* \"#utility.yul\":22096:22097   */\n      0x00\n        /* \"#utility.yul\":22089:22177   */\n      mstore\n        /* \"#utility.yul\":22196:22200   */\n      0x11\n        /* \"#utility.yul\":22193:22194   */\n      0x04\n        /* \"#utility.yul\":22186:22201   */\n      mstore\n        /* \"#utility.yul\":22220:22224   */\n      0x24\n        /* \"#utility.yul\":22217:22218   */\n      0x00\n        /* \"#utility.yul\":22210:22225   */\n      revert\n        /* \"#utility.yul\":22237:22417   */\n    tag_582:\n        /* \"#utility.yul\":22285:22362   */\n      0x4e487b7100000000000000000000000000000000000000000000000000000000\n        /* \"#utility.yul\":22282:22283   */\n      0x00\n        /* \"#utility.yul\":22275:22363   */\n      mstore\n        /* \"#utility.yul\":22382:22386   */\n      0x21\n        /* \"#utility.yul\":22379:22380   */\n      0x04\n        /* \"#utility.yul\":22372:22387   */\n      mstore\n        /* \"#utility.yul\":22406:22410   */\n      0x24\n        /* \"#utility.yul\":22403:22404   */\n      0x00\n        /* \"#utility.yul\":22396:22411   */\n      revert\n        /* \"#utility.yul\":22423:22603   */\n    tag_569:\n        /* \"#utility.yul\":22471:22548   */\n      0x4e487b7100000000000000000000000000000000000000000000000000000000\n        /* \"#utility.yul\":22468:22469   */\n      0x00\n        /* \"#utility.yul\":22461:22549   */\n      mstore\n        /* \"#utility.yul\":22568:22572   */\n      0x22\n        /* \"#utility.yul\":22565:22566   */\n      0x04\n        /* \"#utility.yul\":22558:22573   */\n      mstore\n        /* \"#utility.yul\":22592:22596   */\n      0x24\n        /* \"#utility.yul\":22589:22590   */\n      0x00\n        /* \"#utility.yul\":22582:22597   */\n      revert\n        /* \"#utility.yul\":22609:22789   */\n    tag_531:\n        /* \"#utility.yul\":22657:22734   */\n      0x4e487b7100000000000000000000000000000000000000000000000000000000\n        /* \"#utility.yul\":22654:22655   */\n      0x00\n        /* \"#utility.yul\":22647:22735   */\n      mstore\n        /* \"#utility.yul\":22754:22758   */\n      0x41\n        /* \"#utility.yul\":22751:22752   */\n      0x04\n        /* \"#utility.yul\":22744:22759   */\n      mstore\n        /* \"#utility.yul\":22778:22782   */\n      0x24\n        /* \"#utility.yul\":22775:22776   */\n      0x00\n        /* \"#utility.yul\":22768:22783   */\n      revert\n        /* \"#utility.yul\":22795:22897   */\n    tag_446:\n        /* \"#utility.yul\":22836:22842   */\n      0x00\n        /* \"#utility.yul\":22887:22889   */\n      0x1f\n        /* \"#utility.yul\":22883:22890   */\n      not\n        /* \"#utility.yul\":22878:22880   */\n      0x1f\n        /* \"#utility.yul\":22871:22876   */\n      dup4\n        /* \"#utility.yul\":22867:22881   */\n      add\n        /* \"#utility.yul\":22863:22891   */\n      and\n        /* \"#utility.yul\":22853:22891   */\n      swap1\n      pop\n        /* \"#utility.yul\":22843:22897   */\n      swap2\n      swap1\n      pop\n      jump\t// out\n        /* \"#utility.yul\":22903:22997   */\n    tag_579:\n        /* \"#utility.yul\":22936:22944   */\n      0x00\n        /* \"#utility.yul\":22984:22989   */\n      dup2\n        /* \"#utility.yul\":22980:22982   */\n      0x60\n        /* \"#utility.yul\":22976:22990   */\n      shl\n        /* \"#utility.yul\":22955:22990   */\n      swap1\n      pop\n        /* \"#utility.yul\":22945:22997   */\n      swap2\n      swap1\n      pop\n      jump\t// out\n        /* \"#utility.yul\":23003:23172   */\n    tag_457:\n        /* \"#utility.yul\":23143:23164   */\n      0x63616c6c2066726f6d2077726f6e67204d502e00000000000000000000000000\n        /* \"#utility.yul\":23139:23140   */\n      0x00\n        /* \"#utility.yul\":23131:23137   */\n      dup3\n        /* \"#utility.yul\":23127:23141   */\n      add\n        /* \"#utility.yul\":23120:23165   */\n      mstore\n        /* \"#utility.yul\":23109:23172   */\n      pop\n      jump\t// out\n        /* \"#utility.yul\":23178:23298   */\n    tag_554:\n        /* \"#utility.yul\":23266:23267   */\n      0x07\n        /* \"#utility.yul\":23259:23264   */\n      dup2\n        /* \"#utility.yul\":23256:23268   */\n      lt\n        /* \"#utility.yul\":23246:23248   */\n      tag_590\n      jumpi\n        /* \"#utility.yul\":23272:23290   */\n      tag_591\n      tag_582\n      jump\t// in\n    tag_591:\n        /* \"#utility.yul\":23246:23248   */\n    tag_590:\n        /* \"#utility.yul\":23236:23298   */\n      pop\n      jump\t// out\n        /* \"#utility.yul\":23304:23426   */\n    tag_328:\n        /* \"#utility.yul\":23377:23401   */\n      tag_593\n        /* \"#utility.yul\":23395:23400   */\n      dup2\n        /* \"#utility.yul\":23377:23401   */\n      tag_403\n      jump\t// in\n    tag_593:\n        /* \"#utility.yul\":23370:23375   */\n      dup2\n        /* \"#utility.yul\":23367:23402   */\n      eq\n        /* \"#utility.yul\":23357:23359   */\n      tag_594\n      jumpi\n        /* \"#utility.yul\":23416:23417   */\n      0x00\n        /* \"#utility.yul\":23413:23414   */\n      dup1\n        /* \"#utility.yul\":23406:23418   */\n      revert\n        /* \"#utility.yul\":23357:23359   */\n    tag_594:\n        /* \"#utility.yul\":23347:23426   */\n      pop\n      jump\t// out\n        /* \"#utility.yul\":23432:23554   */\n    tag_332:\n        /* \"#utility.yul\":23505:23529   */\n      tag_596\n        /* \"#utility.yul\":23523:23528   */\n      dup2\n        /* \"#utility.yul\":23505:23529   */\n      tag_429\n      jump\t// in\n    tag_596:\n        /* \"#utility.yul\":23498:23503   */\n      dup2\n        /* \"#utility.yul\":23495:23530   */\n      eq\n        /* \"#utility.yul\":23485:23487   */\n      tag_597\n      jumpi\n        /* \"#utility.yul\":23544:23545   */\n      0x00\n        /* \"#utility.yul\":23541:23542   */\n      dup1\n        /* \"#utility.yul\":23534:23546   */\n      revert\n        /* \"#utility.yul\":23485:23487   */\n    tag_597:\n        /* \"#utility.yul\":23475:23554   */\n      pop\n      jump\t// out\n        /* \"#utility.yul\":23560:23674   */\n    tag_336:\n        /* \"#utility.yul\":23648:23649   */\n      0x07\n        /* \"#utility.yul\":23641:23646   */\n      dup2\n        /* \"#utility.yul\":23638:23650   */\n      lt\n        /* \"#utility.yul\":23628:23630   */\n      tag_599\n      jumpi\n        /* \"#utility.yul\":23664:23665   */\n      0x00\n        /* \"#utility.yul\":23661:23662   */\n      dup1\n        /* \"#utility.yul\":23654:23666   */\n      revert\n        /* \"#utility.yul\":23628:23630   */\n    tag_599:\n        /* \"#utility.yul\":23618:23674   */\n      pop\n      jump\t// out\n        /* \"#utility.yul\":23680:23802   */\n    tag_344:\n        /* \"#utility.yul\":23753:23777   */\n      tag_601\n        /* \"#utility.yul\":23771:23776   */\n      dup2\n        /* \"#utility.yul\":23753:23777   */\n      tag_461\n      jump\t// in\n    tag_601:\n        /* \"#utility.yul\":23746:23751   */\n      dup2\n        /* \"#utility.yul\":23743:23778   */\n      eq\n        /* \"#utility.yul\":23733:23735   */\n      tag_602\n      jumpi\n        /* \"#utility.yul\":23792:23793   */\n      0x00\n        /* \"#utility.yul\":23789:23790   */\n      dup1\n        /* \"#utility.yul\":23782:23794   */\n      revert\n        /* \"#utility.yul\":23733:23735   */\n    tag_602:\n        /* \"#utility.yul\":23723:23802   */\n      pop\n      jump\t// out\n\n    auxdata: 0xa26469706673582212203ae31a12b3868803f00739dcc45d0df1f01e8c9473624e75d233dd9e82974b8e64736f6c63430008040033\n}\n",
				"bytecode": {
					"linkReferences": {},
					"object": "60806040523480156200001157600080fd5b50604051620039d9380380620039d9833981810160405281019062000037919062000095565b806000806101000a81548173ffffffffffffffffffffffffffffffffffffffff021916908373ffffffffffffffffffffffffffffffffffffffff160217905550506200010f565b6000815190506200008f81620000f5565b92915050565b600060208284031215620000a857600080fd5b6000620000b8848285016200007e565b91505092915050565b6000620000ce82620000d5565b9050919050565b600073ffffffffffffffffffffffffffffffffffffffff82169050919050565b6200010081620000c1565b81146200010c57600080fd5b50565b6138ba806200011f6000396000f3fe608060405234801561001057600080fd5b506004361061018e5760003560e01c80637111e750116100de578063c156254711610097578063dc9151c511610071578063dc9151c5146104bf578063e36d6f50146104ef578063eb9720081461051f578063f6f2ede01461053d5761018e565b8063c156254714610455578063ceda3b2014610473578063da31f7221461048f5761018e565b80637111e75014610363578063894fd813146103965780638a1b9736146103b2578063adcfb4fc146103e5578063b2cf188614610401578063bbc53ef2146104315761018e565b80632ae231091161014b5780634be422ae116101255780634be422ae146102dd5780635cb0122a146102e75780636c608709146103175780636e9d4f8d146103475761018e565b80632ae2310914610283578063377b47a31461029f5780633a196986146102a95761018e565b8063011f2cce14610193578063026ff05e146101af57806307edbdc5146101cd5780630b4f12f6146102025780631c6932b61461021e57806323e583b414610253575b600080fd5b6101ad60048036038101906101a89190612efc565b61056d565b005b6101b761068f565b6040516101c491906131db565b60405180910390f35b6101e760048036038101906101e29190612e6e565b610903565b6040516101f996959493929190613303565b60405180910390f35b61021c60048036038101906102179190612efc565b610a9c565b005b61023860048036038101906102339190612d6c565b610e12565b60405161024a96959493929190613211565b60405180910390f35b61026d60048036038101906102689190612d6c565b61100c565b60405161027a91906131f6565b60405180910390f35b61029d60048036038101906102989190612da8565b61103d565b005b6102a761137b565b005b6102c360048036038101906102be9190612e6e565b6115b7565b6040516102d49594939291906132a2565b60405180910390f35b6102e56117a2565b005b61030160048036038101906102fc9190612ca5565b611915565b60405161030e91906131b9565b60405180910390f35b610331600480360381019061032c9190612efc565b6119ac565b60405161033e919061319e565b60405180910390f35b610361600480360381019061035c9190612f3d565b6119f5565b005b61037d60048036038101906103789190612ca5565b611c53565b60405161038d949392919061347d565b60405180910390f35b6103b060048036038101906103ab9190612df7565b611c83565b005b6103cc60048036038101906103c79190612ca5565b611dee565b6040516103dc949392919061347d565b60405180910390f35b6103ff60048036038101906103fa9190612efc565b611f0f565b005b61041b60048036038101906104169190612ec0565b6122c2565b60405161042891906131f6565b60405180910390f35b6104396122f3565b60405161044c9796959493929190613372565b60405180910390f35b61045d61248f565b60405161046a9190613280565b60405180910390f35b61048d60048036038101906104889190612cce565b612629565b005b6104a960048036038101906104a49190612e97565b612777565b6040516104b691906131b9565b60405180910390f35b6104d960048036038101906104d49190612d1d565b61288f565b6040516104e691906131f6565b60405180910390f35b61050960048036038101906105049190612e97565b6128cd565b60405161051691906131b9565b60405180910390f35b6105276129a8565b6040516105349190613280565b60405180910390f35b61055760048036038101906105529190612ca5565b612a7a565b60405161056491906131db565b60405180910390f35b600560003373ffffffffffffffffffffffffffffffffffffffff1673ffffffffffffffffffffffffffffffffffffffff16815260200190815260200160002060030160009054906101000a900460ff166040518060400160405280600581526020017f574d552d3200000000000000000000000000000000000000000000000000000081525090610634576040517f08c379a000000000000000000000000000000000000000000000000000000000815260040161062b9190613280565b60405180910390fd5b5080600560003373ffffffffffffffffffffffffffffffffffffffff1673ffffffffffffffffffffffffffffffffffffffff168152602001908152602001600020600401908051906020019061068b929190612b06565b5050565b6000600560003373ffffffffffffffffffffffffffffffffffffffff1673ffffffffffffffffffffffffffffffffffffffff16815260200190815260200160002060010160009054906101000a900460ff166040518060400160405280600581526020017f574d552d3500000000000000000000000000000000000000000000000000000081525090610758576040517f08c379a000000000000000000000000000000000000000000000000000000000815260040161074f9190613280565b60405180910390fd5b506000600560003373ffffffffffffffffffffffffffffffffffffffff1673ffffffffffffffffffffffffffffffffffffffff16815260200190815260200160002060000180546107a890613687565b80601f01602080910402602001604051908101604052809291908181526020018280546107d490613687565b80156108215780601f106107f657610100808354040283529160200191610821565b820191906000526020600020905b81548152906001019060200180831161080457829003601f168201915b505050505090506006816040516108389190613187565b908152602001604051809103902060006101000a81549073ffffffffffffffffffffffffffffffffffffffff0219169055600560003373ffffffffffffffffffffffffffffffffffffffff1673ffffffffffffffffffffffffffffffffffffffff168152602001908152602001600020600080820160006108b99190612b8c565b6001820160006101000a81549060ff021916905560028201600090556003820160006101000a81549060ff02191690556004820160006108f99190612b8c565b5050600191505090565b600160205280600052604060002060009150905080600001805461092690613687565b80601f016020809104026020016040519081016040528092919081815260200182805461095290613687565b801561099f5780601f106109745761010080835404028352916020019161099f565b820191906000526020600020905b81548152906001019060200180831161098257829003601f168201915b5050505050908060010160009054906101000a900473ffffffffffffffffffffffffffffffffffffffff16908060020154908060030160009054906101000a900473ffffffffffffffffffffffffffffffffffffffff1690806004018054610a0690613687565b80601f0160208091040260200160405190810160405280929190818152602001828054610a3290613687565b8015610a7f5780601f10610a5457610100808354040283529160200191610a7f565b820191906000526020600020905b815481529060010190602001808311610a6257829003601f168201915b5050505050908060050160009054906101000a900460ff16905086565b600560003373ffffffffffffffffffffffffffffffffffffffff1673ffffffffffffffffffffffffffffffffffffffff16815260200190815260200160002060030160009054906101000a900460ff166040518060400160405280600581526020017f574d552d3200000000000000000000000000000000000000000000000000000081525090610b63576040517f08c379a0000000000000000000000000000000000000000000000000000000008152600401610b5a9190613280565b60405180910390fd5b50600073ffffffffffffffffffffffffffffffffffffffff16600682604051610b8c9190613187565b908152602001604051809103902060009054906101000a900473ffffffffffffffffffffffffffffffffffffffff1673ffffffffffffffffffffffffffffffffffffffff16146040518060400160405280600581526020017f574d552d3600000000000000000000000000000000000000000000000000000081525090610c49576040517f08c379a0000000000000000000000000000000000000000000000000000000008152600401610c409190613280565b60405180910390fd5b506000600560003373ffffffffffffffffffffffffffffffffffffffff1673ffffffffffffffffffffffffffffffffffffffff1681526020019081526020016000206000018054610c9990613687565b80601f0160208091040260200160405190810160405280929190818152602001828054610cc590613687565b8015610d125780601f10610ce757610100808354040283529160200191610d12565b820191906000526020600020905b815481529060010190602001808311610cf557829003601f168201915b50505050509050600681604051610d299190613187565b908152602001604051809103902060006101000a81549073ffffffffffffffffffffffffffffffffffffffff021916905533600683604051610d6b9190613187565b908152602001604051809103902060006101000a81548173ffffffffffffffffffffffffffffffffffffffff021916908373ffffffffffffffffffffffffffffffffffffffff16021790555081600560003373ffffffffffffffffffffffffffffffffffffffff1673ffffffffffffffffffffffffffffffffffffffff1681526020019081526020016000206000019080519060200190610e0d929190612b06565b505050565b60008060006060600060606000610e298989612ad3565b9050806001600083815260200190815260200160002060010160009054906101000a900473ffffffffffffffffffffffffffffffffffffffff166001600084815260200190815260200160002060020154600160008581526020019081526020016000206000016001600086815260200190815260200160002060030160009054906101000a900473ffffffffffffffffffffffffffffffffffffffff1660016000878152602001908152602001600020600401828054610ee990613687565b80601f0160208091040260200160405190810160405280929190818152602001828054610f1590613687565b8015610f625780601f10610f3757610100808354040283529160200191610f62565b820191906000526020600020905b815481529060010190602001808311610f4557829003601f168201915b50505050509250808054610f7590613687565b80601f0160208091040260200160405190810160405280929190818152602001828054610fa190613687565b8015610fee5780601f10610fc357610100808354040283529160200191610fee565b820191906000526020600020905b815481529060010190602001808311610fd157829003601f168201915b50505050509050965096509650965096509650509295509295509295565b6002602052816000526040600020818154811061102857600080fd5b90600052602060002001600091509150505481565b60006110498484612ad3565b9050600560003373ffffffffffffffffffffffffffffffffffffffff1673ffffffffffffffffffffffffffffffffffffffff16815260200190815260200160002060030160009054906101000a900460ff16801561110857503373ffffffffffffffffffffffffffffffffffffffff166001600083815260200190815260200160002060030160009054906101000a900473ffffffffffffffffffffffffffffffffffffffff1673ffffffffffffffffffffffffffffffffffffffff16145b6040518060400160405280600581526020017f574d552d320000000000000000000000000000000000000000000000000000008152509061117f576040517f08c379a00000000000000000000000000000000000000000000000000000000081526004016111769190613280565b60405180910390fd5b50816001600083815260200190815260200160002060050160006101000a81548160ff021916908360068111156111df577f4e487b7100000000000000000000000000000000000000000000000000000000600052602160045260246000fd5b021790555060036000836006811115611221577f4e487b7100000000000000000000000000000000000000000000000000000000600052602160045260246000fd5b6006811115611259577f4e487b7100000000000000000000000000000000000000000000000000000000600052602160045260246000fd5b8152602001908152602001600020819080600181540180825580915050600190039060005260206000200160009091909190915055600460003373ffffffffffffffffffffffffffffffffffffffff1673ffffffffffffffffffffffffffffffffffffffff1681526020019081526020016000206000836006811115611308577f4e487b7100000000000000000000000000000000000000000000000000000000600052602160045260246000fd5b6006811115611340577f4e487b7100000000000000000000000000000000000000000000000000000000600052602160045260246000fd5b815260200190815260200160002081908060018154018082558091505060019003906000526020600020016000909190919091505550505050565b600560003373ffffffffffffffffffffffffffffffffffffffff1673ffffffffffffffffffffffffffffffffffffffff16815260200190815260200160002060010160009054906101000a900460ff166040518060400160405280600581526020017f574d552d3100000000000000000000000000000000000000000000000000000081525090611442576040517f08c379a00000000000000000000000000000000000000000000000000000000081526004016114399190613280565b60405180910390fd5b50600560003373ffffffffffffffffffffffffffffffffffffffff1673ffffffffffffffffffffffffffffffffffffffff16815260200190815260200160002060030160009054906101000a900460ff16156040518060400160405280600581526020017f574d552d330000000000000000000000000000000000000000000000000000008152509061150b576040517f08c379a00000000000000000000000000000000000000000000000000000000081526004016115029190613280565b60405180910390fd5b506001600560003373ffffffffffffffffffffffffffffffffffffffff1673ffffffffffffffffffffffffffffffffffffffff16815260200190815260200160002060030160006101000a81548160ff0219169083151502179055503373ffffffffffffffffffffffffffffffffffffffff167f364034de78a61b6190b049e2c5437370b27906bfed607993a5bc2dda23c16cff426040516115ad9190613462565b60405180910390a2565b6060600080600060606000869050600160008281526020019081526020016000206000016001600083815260200190815260200160002060010160009054906101000a900473ffffffffffffffffffffffffffffffffffffffff1660016000848152602001908152602001600020600201546001600085815260200190815260200160002060030160009054906101000a900473ffffffffffffffffffffffffffffffffffffffff166001600086815260200190815260200160002060040184805461168290613687565b80601f01602080910402602001604051908101604052809291908181526020018280546116ae90613687565b80156116fb5780601f106116d0576101008083540402835291602001916116fb565b820191906000526020600020905b8154815290600101906020018083116116de57829003601f168201915b5050505050945080805461170e90613687565b80601f016020809104026020016040519081016040528092919081815260200182805461173a90613687565b80156117875780601f1061175c57610100808354040283529160200191611787565b820191906000526020600020905b81548152906001019060200180831161176a57829003601f168201915b50505050509050955095509550955095505091939590929450565b600560003373ffffffffffffffffffffffffffffffffffffffff1673ffffffffffffffffffffffffffffffffffffffff16815260200190815260200160002060030160009054906101000a900460ff166040518060400160405280600581526020017f574d552d3200000000000000000000000000000000000000000000000000000081525090611869576040517f08c379a00000000000000000000000000000000000000000000000000000000081526004016118609190613280565b60405180910390fd5b506000600560003373ffffffffffffffffffffffffffffffffffffffff1673ffffffffffffffffffffffffffffffffffffffff16815260200190815260200160002060030160006101000a81548160ff0219169083151502179055503373ffffffffffffffffffffffffffffffffffffffff167f70d1177aa26c67f6b2fdb43400cfd7ff0c23a8712301abe5aba2ee3d89e28a104260405161190b9190613462565b60405180910390a2565b6060600260008373ffffffffffffffffffffffffffffffffffffffff1673ffffffffffffffffffffffffffffffffffffffff1681526020019081526020016000208054806020026020016040519081016040528092919081815260200182805480156119a057602002820191906000526020600020905b81548152602001906001019080831161198c575b50505050509050919050565b6006818051602081018201805184825260208301602085012081835280955050505050506000915054906101000a900473ffffffffffffffffffffffffffffffffffffffff1681565b600560003373ffffffffffffffffffffffffffffffffffffffff1673ffffffffffffffffffffffffffffffffffffffff16815260200190815260200160002060030160009054906101000a900460ff166040518060400160405280600581526020017f574d552d3200000000000000000000000000000000000000000000000000000081525090611abc576040517f08c379a0000000000000000000000000000000000000000000000000000000008152600401611ab39190613280565b60405180910390fd5b506000611ac98484612ad3565b905084600160008381526020019081526020016000206000019080519060200190611af5929190612b06565b50836001600083815260200190815260200160002060010160006101000a81548173ffffffffffffffffffffffffffffffffffffffff021916908373ffffffffffffffffffffffffffffffffffffffff160217905550826001600083815260200190815260200160002060020181905550336001600083815260200190815260200160002060030160006101000a81548173ffffffffffffffffffffffffffffffffffffffff021916908373ffffffffffffffffffffffffffffffffffffffff16021790555081600160008381526020019081526020016000206004019080519060200190611be5929190612b06565b50600260003373ffffffffffffffffffffffffffffffffffffffff1673ffffffffffffffffffffffffffffffffffffffff1681526020019081526020016000208190806001815401808255809150506001900390600052602060002001600090919091909150555050505050565b60076020528060005260406000206000915090508060000154908060010154908060020154908060030154905084565b83600760008773ffffffffffffffffffffffffffffffffffffffff1673ffffffffffffffffffffffffffffffffffffffff1681526020019081526020016000206000016000828254611cd59190613578565b9250508190555082600760008773ffffffffffffffffffffffffffffffffffffffff1673ffffffffffffffffffffffffffffffffffffffff1681526020019081526020016000206001016000828254611d2e9190613578565b9250508190555081600760008773ffffffffffffffffffffffffffffffffffffffff1673ffffffffffffffffffffffffffffffffffffffff1681526020019081526020016000206002016000828254611d879190613578565b9250508190555080600760008773ffffffffffffffffffffffffffffffffffffffff1673ffffffffffffffffffffffffffffffffffffffff1681526020019081526020016000206003016000828254611de09190613578565b925050819055505050505050565b600080600080600760008673ffffffffffffffffffffffffffffffffffffffff1673ffffffffffffffffffffffffffffffffffffffff16815260200190815260200160002060020154600760008773ffffffffffffffffffffffffffffffffffffffff1673ffffffffffffffffffffffffffffffffffffffff16815260200190815260200160002060030154600760008873ffffffffffffffffffffffffffffffffffffffff1673ffffffffffffffffffffffffffffffffffffffff16815260200190815260200160002060000154600760008973ffffffffffffffffffffffffffffffffffffffff1673ffffffffffffffffffffffffffffffffffffffff1681526020019081526020016000206001015493509350935093509193509193565b600560003373ffffffffffffffffffffffffffffffffffffffff1673ffffffffffffffffffffffffffffffffffffffff16815260200190815260200160002060010160009054906101000a900460ff16156040518060400160405280600581526020017f574d552d3400000000000000000000000000000000000000000000000000000081525090611fd7576040517f08c379a0000000000000000000000000000000000000000000000000000000008152600401611fce9190613280565b60405180910390fd5b50600073ffffffffffffffffffffffffffffffffffffffff166006826040516120009190613187565b908152602001604051809103902060009054906101000a900473ffffffffffffffffffffffffffffffffffffffff1673ffffffffffffffffffffffffffffffffffffffff16146040518060400160405280600581526020017f574d552d36000000000000000000000000000000000000000000000000000000815250906120bd576040517f08c379a00000000000000000000000000000000000000000000000000000000081526004016120b49190613280565b60405180910390fd5b5080600560003373ffffffffffffffffffffffffffffffffffffffff1673ffffffffffffffffffffffffffffffffffffffff1681526020019081526020016000206000019080519060200190612114929190612b06565b506001600560003373ffffffffffffffffffffffffffffffffffffffff1673ffffffffffffffffffffffffffffffffffffffff16815260200190815260200160002060010160006101000a81548160ff02191690831515021790555042600560003373ffffffffffffffffffffffffffffffffffffffff1673ffffffffffffffffffffffffffffffffffffffff168152602001908152602001600020600201819055506001600560003373ffffffffffffffffffffffffffffffffffffffff1673ffffffffffffffffffffffffffffffffffffffff16815260200190815260200160002060030160006101000a81548160ff021916908315150217905550336006826040516122239190613187565b908152602001604051809103902060006101000a81548173ffffffffffffffffffffffffffffffffffffffff021916908373ffffffffffffffffffffffffffffffffffffffff1602179055503373ffffffffffffffffffffffffffffffffffffffff167fee20c2c019dcbca8d08ff74c4ce6f465e02d3611905c9aceeb76a0c8e429af2f82426040516122b7929190613412565b60405180910390a250565b600360205281600052604060002081815481106122de57600080fd5b90600052602060002001600091509150505481565b60608060608060608060606040518060400160405280600681526020017f41564154415200000000000000000000000000000000000000000000000000008152506040518060400160405280600781526020017f50494354555245000000000000000000000000000000000000000000000000008152506040518060400160405280600e81526020017f47454e455241544956455f4152540000000000000000000000000000000000008152506040518060400160405280600381526020017f41525400000000000000000000000000000000000000000000000000000000008152506040518060400160405280600c81526020017f434f4c4c45435449424c455300000000000000000000000000000000000000008152506040518060400160405280600881526020017f47414d49464945440000000000000000000000000000000000000000000000008152506040518060400160405280600581526020017f4f54484552000000000000000000000000000000000000000000000000000000815250965096509650965096509650965090919293949596565b6060600560003373ffffffffffffffffffffffffffffffffffffffff1673ffffffffffffffffffffffffffffffffffffffff16815260200190815260200160002060030160009054906101000a900460ff166040518060400160405280600581526020017f574d552d3200000000000000000000000000000000000000000000000000000081525090612558576040517f08c379a000000000000000000000000000000000000000000000000000000000815260040161254f9190613280565b60405180910390fd5b50600560003373ffffffffffffffffffffffffffffffffffffffff1673ffffffffffffffffffffffffffffffffffffffff16815260200190815260200160002060000180546125a690613687565b80601f01602080910402602001604051908101604052809291908181526020018280546125d290613687565b801561261f5780601f106125f45761010080835404028352916020019161261f565b820191906000526020600020905b81548152906001019060200180831161260257829003601f168201915b5050505050905090565b3373ffffffffffffffffffffffffffffffffffffffff1660008054906101000a900473ffffffffffffffffffffffffffffffffffffffff1673ffffffffffffffffffffffffffffffffffffffff16146126b7576040517f08c379a00000000000000000000000000000000000000000000000000000000081526004016126ae90613442565b60405180910390fd5b816001600083815260200190815260200160002060030160006101000a81548173ffffffffffffffffffffffffffffffffffffffff021916908373ffffffffffffffffffffffffffffffffffffffff160217905550600260008373ffffffffffffffffffffffffffffffffffffffff1673ffffffffffffffffffffffffffffffffffffffff168152602001908152602001600020819080600181540180825580915050600190039060005260206000200160009091909190915055505050565b6060600460003373ffffffffffffffffffffffffffffffffffffffff1673ffffffffffffffffffffffffffffffffffffffff16815260200190815260200160002060008360068111156127f3577f4e487b7100000000000000000000000000000000000000000000000000000000600052602160045260246000fd5b600681111561282b577f4e487b7100000000000000000000000000000000000000000000000000000000600052602160045260246000fd5b815260200190815260200160002080548060200260200160405190810160405280929190818152602001828054801561288357602002820191906000526020600020905b81548152602001906001019080831161286f575b50505050509050919050565b600460205282600052604060002060205281600052604060002081815481106128b757600080fd5b9060005260206000200160009250925050505481565b60606003600083600681111561290c577f4e487b7100000000000000000000000000000000000000000000000000000000600052602160045260246000fd5b6006811115612944577f4e487b7100000000000000000000000000000000000000000000000000000000600052602160045260246000fd5b815260200190815260200160002080548060200260200160405190810160405280929190818152602001828054801561299c57602002820191906000526020600020905b815481526020019060010190808311612988575b50505050509050919050565b6060600560003373ffffffffffffffffffffffffffffffffffffffff1673ffffffffffffffffffffffffffffffffffffffff16815260200190815260200160002060040180546129f790613687565b80601f0160208091040260200160405190810160405280929190818152602001828054612a2390613687565b8015612a705780601f10612a4557610100808354040283529160200191612a70565b820191906000526020600020905b815481529060010190602001808311612a5357829003601f168201915b5050505050905090565b6000600560008373ffffffffffffffffffffffffffffffffffffffff1673ffffffffffffffffffffffffffffffffffffffff16815260200190815260200160002060030160009054906101000a900460ff169050919050565b60008282604051602001612ae892919061315b565b60405160208183030381529060405280519060200120905092915050565b828054612b1290613687565b90600052602060002090601f016020900481019282612b345760008555612b7b565b82601f10612b4d57805160ff1916838001178555612b7b565b82800160010185558215612b7b579182015b82811115612b7a578251825591602001919060010190612b5f565b5b509050612b889190612bcc565b5090565b508054612b9890613687565b6000825580601f10612baa5750612bc9565b601f016020900490600052602060002090810190612bc89190612bcc565b5b50565b5b80821115612be5576000816000905550600101612bcd565b5090565b6000612bfc612bf7846134e7565b6134c2565b905082815260208101848484011115612c1457600080fd5b612c1f848285613645565b509392505050565b600081359050612c368161382f565b92915050565b600081359050612c4b81613846565b92915050565b600081359050612c608161385d565b92915050565b600082601f830112612c7757600080fd5b8135612c87848260208601612be9565b91505092915050565b600081359050612c9f8161386d565b92915050565b600060208284031215612cb757600080fd5b6000612cc584828501612c27565b91505092915050565b600080600060608486031215612ce357600080fd5b6000612cf186828701612c27565b9350506020612d0286828701612c27565b9250506040612d1386828701612c3c565b9150509250925092565b600080600060608486031215612d3257600080fd5b6000612d4086828701612c27565b9350506020612d5186828701612c51565b9250506040612d6286828701612c90565b9150509250925092565b60008060408385031215612d7f57600080fd5b6000612d8d85828601612c27565b9250506020612d9e85828601612c90565b9150509250929050565b600080600060608486031215612dbd57600080fd5b6000612dcb86828701612c27565b9350506020612ddc86828701612c90565b9250506040612ded86828701612c51565b9150509250925092565b600080600080600060a08688031215612e0f57600080fd5b6000612e1d88828901612c27565b9550506020612e2e88828901612c90565b9450506040612e3f88828901612c90565b9350506060612e5088828901612c90565b9250506080612e6188828901612c90565b9150509295509295909350565b600060208284031215612e8057600080fd5b6000612e8e84828501612c3c565b91505092915050565b600060208284031215612ea957600080fd5b6000612eb784828501612c51565b91505092915050565b60008060408385031215612ed357600080fd5b6000612ee185828601612c51565b9250506020612ef285828601612c90565b9150509250929050565b600060208284031215612f0e57600080fd5b600082013567ffffffffffffffff811115612f2857600080fd5b612f3484828501612c66565b91505092915050565b60008060008060808587031215612f5357600080fd5b600085013567ffffffffffffffff811115612f6d57600080fd5b612f7987828801612c66565b9450506020612f8a87828801612c27565b9350506040612f9b87828801612c90565b925050606085013567ffffffffffffffff811115612fb857600080fd5b612fc487828801612c66565b91505092959194509250565b6000612fdc838361307b565b60208301905092915050565b612ff1816135ce565b82525050565b613008613003826135ce565b6136ea565b82525050565b600061301982613528565b613023818561354b565b935061302e83613518565b8060005b8381101561305f5781516130468882612fd0565b97506130518361353e565b925050600181019050613032565b5085935050505092915050565b613075816135e0565b82525050565b613084816135ec565b82525050565b613093816135ec565b82525050565b6130a281613633565b82525050565b60006130b382613533565b6130bd818561355c565b93506130cd818560208601613654565b6130d6816137d4565b840191505092915050565b60006130ec82613533565b6130f6818561356d565b9350613106818560208601613654565b80840191505092915050565b600061311f60138361355c565b915061312a826137f2565b602082019050919050565b61313e81613629565b82525050565b61315561315082613629565b61370e565b82525050565b60006131678285612ff7565b6014820191506131778284613144565b6020820191508190509392505050565b600061319382846130e1565b915081905092915050565b60006020820190506131b36000830184612fe8565b92915050565b600060208201905081810360008301526131d3818461300e565b905092915050565b60006020820190506131f0600083018461306c565b92915050565b600060208201905061320b600083018461308a565b92915050565b600060c082019050613226600083018961308a565b6132336020830188612fe8565b6132406040830187613135565b818103606083015261325281866130a8565b90506132616080830185612fe8565b81810360a083015261327381846130a8565b9050979650505050505050565b6000602082019050818103600083015261329a81846130a8565b905092915050565b600060a08201905081810360008301526132bc81886130a8565b90506132cb6020830187612fe8565b6132d86040830186613135565b6132e56060830185612fe8565b81810360808301526132f781846130a8565b90509695505050505050565b600060c082019050818103600083015261331d81896130a8565b905061332c6020830188612fe8565b6133396040830187613135565b6133466060830186612fe8565b818103608083015261335881856130a8565b905061336760a0830184613099565b979650505050505050565b600060e082019050818103600083015261338c818a6130a8565b905081810360208301526133a081896130a8565b905081810360408301526133b481886130a8565b905081810360608301526133c881876130a8565b905081810360808301526133dc81866130a8565b905081810360a08301526133f081856130a8565b905081810360c083015261340481846130a8565b905098975050505050505050565b6000604082019050818103600083015261342c81856130a8565b905061343b6020830184613135565b9392505050565b6000602082019050818103600083015261345b81613112565b9050919050565b60006020820190506134776000830184613135565b92915050565b60006080820190506134926000830187613135565b61349f6020830186613135565b6134ac6040830185613135565b6134b96060830184613135565b95945050505050565b60006134cc6134dd565b90506134d882826136b9565b919050565b6000604051905090565b600067ffffffffffffffff821115613502576135016137a5565b5b61350b826137d4565b9050602081019050919050565b6000819050602082019050919050565b600081519050919050565b600081519050919050565b6000602082019050919050565b600082825260208201905092915050565b600082825260208201905092915050565b600081905092915050565b600061358382613629565b915061358e83613629565b9250827fffffffffffffffffffffffffffffffffffffffffffffffffffffffffffffffff038211156135c3576135c2613718565b5b828201905092915050565b60006135d982613609565b9050919050565b60008115159050919050565b6000819050919050565b60008190506136048261381b565b919050565b600073ffffffffffffffffffffffffffffffffffffffff82169050919050565b6000819050919050565b600061363e826135f6565b9050919050565b82818337600083830152505050565b60005b83811015613672578082015181840152602081019050613657565b83811115613681576000848401525b50505050565b6000600282049050600182168061369f57607f821691505b602082108114156136b3576136b2613776565b5b50919050565b6136c2826137d4565b810181811067ffffffffffffffff821117156136e1576136e06137a5565b5b80604052505050565b60006136f5826136fc565b9050919050565b6000613707826137e5565b9050919050565b6000819050919050565b7f4e487b7100000000000000000000000000000000000000000000000000000000600052601160045260246000fd5b7f4e487b7100000000000000000000000000000000000000000000000000000000600052602160045260246000fd5b7f4e487b7100000000000000000000000000000000000000000000000000000000600052602260045260246000fd5b7f4e487b7100000000000000000000000000000000000000000000000000000000600052604160045260246000fd5b6000601f19601f8301169050919050565b60008160601b9050919050565b7f63616c6c2066726f6d2077726f6e67204d502e00000000000000000000000000600082015250565b6007811061382c5761382b613747565b5b50565b613838816135ce565b811461384357600080fd5b50565b61384f816135ec565b811461385a57600080fd5b50565b6007811061386a57600080fd5b50565b61387681613629565b811461388157600080fd5b5056fea26469706673582212203ae31a12b3868803f00739dcc45d0df1f01e8c9473624e75d233dd9e82974b8e64736f6c63430008040033",
					"opcodes": "PUSH1 0x80 PUSH1 0x40 MSTORE CALLVALUE DUP1 ISZERO PUSH3 0x11 JUMPI PUSH1 0x0 DUP1 REVERT JUMPDEST POP PUSH1 0x40 MLOAD PUSH3 0x39D9 CODESIZE SUB DUP1 PUSH3 0x39D9 DUP4 CODECOPY DUP2 DUP2 ADD PUSH1 0x40 MSTORE DUP2 ADD SWAP1 PUSH3 0x37 SWAP2 SWAP1 PUSH3 0x95 JUMP JUMPDEST DUP1 PUSH1 0x0 DUP1 PUSH2 0x100 EXP DUP2 SLOAD DUP2 PUSH20 0xFFFFFFFFFFFFFFFFFFFFFFFFFFFFFFFFFFFFFFFF MUL NOT AND SWAP1 DUP4 PUSH20 0xFFFFFFFFFFFFFFFFFFFFFFFFFFFFFFFFFFFFFFFF AND MUL OR SWAP1 SSTORE POP POP PUSH3 0x10F JUMP JUMPDEST PUSH1 0x0 DUP2 MLOAD SWAP1 POP PUSH3 0x8F DUP2 PUSH3 0xF5 JUMP JUMPDEST SWAP3 SWAP2 POP POP JUMP JUMPDEST PUSH1 0x0 PUSH1 0x20 DUP3 DUP5 SUB SLT ISZERO PUSH3 0xA8 JUMPI PUSH1 0x0 DUP1 REVERT JUMPDEST PUSH1 0x0 PUSH3 0xB8 DUP5 DUP3 DUP6 ADD PUSH3 0x7E JUMP JUMPDEST SWAP2 POP POP SWAP3 SWAP2 POP POP JUMP JUMPDEST PUSH1 0x0 PUSH3 0xCE DUP3 PUSH3 0xD5 JUMP JUMPDEST SWAP1 POP SWAP2 SWAP1 POP JUMP JUMPDEST PUSH1 0x0 PUSH20 0xFFFFFFFFFFFFFFFFFFFFFFFFFFFFFFFFFFFFFFFF DUP3 AND SWAP1 POP SWAP2 SWAP1 POP JUMP JUMPDEST PUSH3 0x100 DUP2 PUSH3 0xC1 JUMP JUMPDEST DUP2 EQ PUSH3 0x10C JUMPI PUSH1 0x0 DUP1 REVERT JUMPDEST POP JUMP JUMPDEST PUSH2 0x38BA DUP1 PUSH3 0x11F PUSH1 0x0 CODECOPY PUSH1 0x0 RETURN INVALID PUSH1 0x80 PUSH1 0x40 MSTORE CALLVALUE DUP1 ISZERO PUSH2 0x10 JUMPI PUSH1 0x0 DUP1 REVERT JUMPDEST POP PUSH1 0x4 CALLDATASIZE LT PUSH2 0x18E JUMPI PUSH1 0x0 CALLDATALOAD PUSH1 0xE0 SHR DUP1 PUSH4 0x7111E750 GT PUSH2 0xDE JUMPI DUP1 PUSH4 0xC1562547 GT PUSH2 0x97 JUMPI DUP1 PUSH4 0xDC9151C5 GT PUSH2 0x71 JUMPI DUP1 PUSH4 0xDC9151C5 EQ PUSH2 0x4BF JUMPI DUP1 PUSH4 0xE36D6F50 EQ PUSH2 0x4EF JUMPI DUP1 PUSH4 0xEB972008 EQ PUSH2 0x51F JUMPI DUP1 PUSH4 0xF6F2EDE0 EQ PUSH2 0x53D JUMPI PUSH2 0x18E JUMP JUMPDEST DUP1 PUSH4 0xC1562547 EQ PUSH2 0x455 JUMPI DUP1 PUSH4 0xCEDA3B20 EQ PUSH2 0x473 JUMPI DUP1 PUSH4 0xDA31F722 EQ PUSH2 0x48F JUMPI PUSH2 0x18E JUMP JUMPDEST DUP1 PUSH4 0x7111E750 EQ PUSH2 0x363 JUMPI DUP1 PUSH4 0x894FD813 EQ PUSH2 0x396 JUMPI DUP1 PUSH4 0x8A1B9736 EQ PUSH2 0x3B2 JUMPI DUP1 PUSH4 0xADCFB4FC EQ PUSH2 0x3E5 JUMPI DUP1 PUSH4 0xB2CF1886 EQ PUSH2 0x401 JUMPI DUP1 PUSH4 0xBBC53EF2 EQ PUSH2 0x431 JUMPI PUSH2 0x18E JUMP JUMPDEST DUP1 PUSH4 0x2AE23109 GT PUSH2 0x14B JUMPI DUP1 PUSH4 0x4BE422AE GT PUSH2 0x125 JUMPI DUP1 PUSH4 0x4BE422AE EQ PUSH2 0x2DD JUMPI DUP1 PUSH4 0x5CB0122A EQ PUSH2 0x2E7 JUMPI DUP1 PUSH4 0x6C608709 EQ PUSH2 0x317 JUMPI DUP1 PUSH4 0x6E9D4F8D EQ PUSH2 0x347 JUMPI PUSH2 0x18E JUMP JUMPDEST DUP1 PUSH4 0x2AE23109 EQ PUSH2 0x283 JUMPI DUP1 PUSH4 0x377B47A3 EQ PUSH2 0x29F JUMPI DUP1 PUSH4 0x3A196986 EQ PUSH2 0x2A9 JUMPI PUSH2 0x18E JUMP JUMPDEST DUP1 PUSH4 0x11F2CCE EQ PUSH2 0x193 JUMPI DUP1 PUSH4 0x26FF05E EQ PUSH2 0x1AF JUMPI DUP1 PUSH4 0x7EDBDC5 EQ PUSH2 0x1CD JUMPI DUP1 PUSH4 0xB4F12F6 EQ PUSH2 0x202 JUMPI DUP1 PUSH4 0x1C6932B6 EQ PUSH2 0x21E JUMPI DUP1 PUSH4 0x23E583B4 EQ PUSH2 0x253 JUMPI JUMPDEST PUSH1 0x0 DUP1 REVERT JUMPDEST PUSH2 0x1AD PUSH1 0x4 DUP1 CALLDATASIZE SUB DUP2 ADD SWAP1 PUSH2 0x1A8 SWAP2 SWAP1 PUSH2 0x2EFC JUMP JUMPDEST PUSH2 0x56D JUMP JUMPDEST STOP JUMPDEST PUSH2 0x1B7 PUSH2 0x68F JUMP JUMPDEST PUSH1 0x40 MLOAD PUSH2 0x1C4 SWAP2 SWAP1 PUSH2 0x31DB JUMP JUMPDEST PUSH1 0x40 MLOAD DUP1 SWAP2 SUB SWAP1 RETURN JUMPDEST PUSH2 0x1E7 PUSH1 0x4 DUP1 CALLDATASIZE SUB DUP2 ADD SWAP1 PUSH2 0x1E2 SWAP2 SWAP1 PUSH2 0x2E6E JUMP JUMPDEST PUSH2 0x903 JUMP JUMPDEST PUSH1 0x40 MLOAD PUSH2 0x1F9 SWAP7 SWAP6 SWAP5 SWAP4 SWAP3 SWAP2 SWAP1 PUSH2 0x3303 JUMP JUMPDEST PUSH1 0x40 MLOAD DUP1 SWAP2 SUB SWAP1 RETURN JUMPDEST PUSH2 0x21C PUSH1 0x4 DUP1 CALLDATASIZE SUB DUP2 ADD SWAP1 PUSH2 0x217 SWAP2 SWAP1 PUSH2 0x2EFC JUMP JUMPDEST PUSH2 0xA9C JUMP JUMPDEST STOP JUMPDEST PUSH2 0x238 PUSH1 0x4 DUP1 CALLDATASIZE SUB DUP2 ADD SWAP1 PUSH2 0x233 SWAP2 SWAP1 PUSH2 0x2D6C JUMP JUMPDEST PUSH2 0xE12 JUMP JUMPDEST PUSH1 0x40 MLOAD PUSH2 0x24A SWAP7 SWAP6 SWAP5 SWAP4 SWAP3 SWAP2 SWAP1 PUSH2 0x3211 JUMP JUMPDEST PUSH1 0x40 MLOAD DUP1 SWAP2 SUB SWAP1 RETURN JUMPDEST PUSH2 0x26D PUSH1 0x4 DUP1 CALLDATASIZE SUB DUP2 ADD SWAP1 PUSH2 0x268 SWAP2 SWAP1 PUSH2 0x2D6C JUMP JUMPDEST PUSH2 0x100C JUMP JUMPDEST PUSH1 0x40 MLOAD PUSH2 0x27A SWAP2 SWAP1 PUSH2 0x31F6 JUMP JUMPDEST PUSH1 0x40 MLOAD DUP1 SWAP2 SUB SWAP1 RETURN JUMPDEST PUSH2 0x29D PUSH1 0x4 DUP1 CALLDATASIZE SUB DUP2 ADD SWAP1 PUSH2 0x298 SWAP2 SWAP1 PUSH2 0x2DA8 JUMP JUMPDEST PUSH2 0x103D JUMP JUMPDEST STOP JUMPDEST PUSH2 0x2A7 PUSH2 0x137B JUMP JUMPDEST STOP JUMPDEST PUSH2 0x2C3 PUSH1 0x4 DUP1 CALLDATASIZE SUB DUP2 ADD SWAP1 PUSH2 0x2BE SWAP2 SWAP1 PUSH2 0x2E6E JUMP JUMPDEST PUSH2 0x15B7 JUMP JUMPDEST PUSH1 0x40 MLOAD PUSH2 0x2D4 SWAP6 SWAP5 SWAP4 SWAP3 SWAP2 SWAP1 PUSH2 0x32A2 JUMP JUMPDEST PUSH1 0x40 MLOAD DUP1 SWAP2 SUB SWAP1 RETURN JUMPDEST PUSH2 0x2E5 PUSH2 0x17A2 JUMP JUMPDEST STOP JUMPDEST PUSH2 0x301 PUSH1 0x4 DUP1 CALLDATASIZE SUB DUP2 ADD SWAP1 PUSH2 0x2FC SWAP2 SWAP1 PUSH2 0x2CA5 JUMP JUMPDEST PUSH2 0x1915 JUMP JUMPDEST PUSH1 0x40 MLOAD PUSH2 0x30E SWAP2 SWAP1 PUSH2 0x31B9 JUMP JUMPDEST PUSH1 0x40 MLOAD DUP1 SWAP2 SUB SWAP1 RETURN JUMPDEST PUSH2 0x331 PUSH1 0x4 DUP1 CALLDATASIZE SUB DUP2 ADD SWAP1 PUSH2 0x32C SWAP2 SWAP1 PUSH2 0x2EFC JUMP JUMPDEST PUSH2 0x19AC JUMP JUMPDEST PUSH1 0x40 MLOAD PUSH2 0x33E SWAP2 SWAP1 PUSH2 0x319E JUMP JUMPDEST PUSH1 0x40 MLOAD DUP1 SWAP2 SUB SWAP1 RETURN JUMPDEST PUSH2 0x361 PUSH1 0x4 DUP1 CALLDATASIZE SUB DUP2 ADD SWAP1 PUSH2 0x35C SWAP2 SWAP1 PUSH2 0x2F3D JUMP JUMPDEST PUSH2 0x19F5 JUMP JUMPDEST STOP JUMPDEST PUSH2 0x37D PUSH1 0x4 DUP1 CALLDATASIZE SUB DUP2 ADD SWAP1 PUSH2 0x378 SWAP2 SWAP1 PUSH2 0x2CA5 JUMP JUMPDEST PUSH2 0x1C53 JUMP JUMPDEST PUSH1 0x40 MLOAD PUSH2 0x38D SWAP5 SWAP4 SWAP3 SWAP2 SWAP1 PUSH2 0x347D JUMP JUMPDEST PUSH1 0x40 MLOAD DUP1 SWAP2 SUB SWAP1 RETURN JUMPDEST PUSH2 0x3B0 PUSH1 0x4 DUP1 CALLDATASIZE SUB DUP2 ADD SWAP1 PUSH2 0x3AB SWAP2 SWAP1 PUSH2 0x2DF7 JUMP JUMPDEST PUSH2 0x1C83 JUMP JUMPDEST STOP JUMPDEST PUSH2 0x3CC PUSH1 0x4 DUP1 CALLDATASIZE SUB DUP2 ADD SWAP1 PUSH2 0x3C7 SWAP2 SWAP1 PUSH2 0x2CA5 JUMP JUMPDEST PUSH2 0x1DEE JUMP JUMPDEST PUSH1 0x40 MLOAD PUSH2 0x3DC SWAP5 SWAP4 SWAP3 SWAP2 SWAP1 PUSH2 0x347D JUMP JUMPDEST PUSH1 0x40 MLOAD DUP1 SWAP2 SUB SWAP1 RETURN JUMPDEST PUSH2 0x3FF PUSH1 0x4 DUP1 CALLDATASIZE SUB DUP2 ADD SWAP1 PUSH2 0x3FA SWAP2 SWAP1 PUSH2 0x2EFC JUMP JUMPDEST PUSH2 0x1F0F JUMP JUMPDEST STOP JUMPDEST PUSH2 0x41B PUSH1 0x4 DUP1 CALLDATASIZE SUB DUP2 ADD SWAP1 PUSH2 0x416 SWAP2 SWAP1 PUSH2 0x2EC0 JUMP JUMPDEST PUSH2 0x22C2 JUMP JUMPDEST PUSH1 0x40 MLOAD PUSH2 0x428 SWAP2 SWAP1 PUSH2 0x31F6 JUMP JUMPDEST PUSH1 0x40 MLOAD DUP1 SWAP2 SUB SWAP1 RETURN JUMPDEST PUSH2 0x439 PUSH2 0x22F3 JUMP JUMPDEST PUSH1 0x40 MLOAD PUSH2 0x44C SWAP8 SWAP7 SWAP6 SWAP5 SWAP4 SWAP3 SWAP2 SWAP1 PUSH2 0x3372 JUMP JUMPDEST PUSH1 0x40 MLOAD DUP1 SWAP2 SUB SWAP1 RETURN JUMPDEST PUSH2 0x45D PUSH2 0x248F JUMP JUMPDEST PUSH1 0x40 MLOAD PUSH2 0x46A SWAP2 SWAP1 PUSH2 0x3280 JUMP JUMPDEST PUSH1 0x40 MLOAD DUP1 SWAP2 SUB SWAP1 RETURN JUMPDEST PUSH2 0x48D PUSH1 0x4 DUP1 CALLDATASIZE SUB DUP2 ADD SWAP1 PUSH2 0x488 SWAP2 SWAP1 PUSH2 0x2CCE JUMP JUMPDEST PUSH2 0x2629 JUMP JUMPDEST STOP JUMPDEST PUSH2 0x4A9 PUSH1 0x4 DUP1 CALLDATASIZE SUB DUP2 ADD SWAP1 PUSH2 0x4A4 SWAP2 SWAP1 PUSH2 0x2E97 JUMP JUMPDEST PUSH2 0x2777 JUMP JUMPDEST PUSH1 0x40 MLOAD PUSH2 0x4B6 SWAP2 SWAP1 PUSH2 0x31B9 JUMP JUMPDEST PUSH1 0x40 MLOAD DUP1 SWAP2 SUB SWAP1 RETURN JUMPDEST PUSH2 0x4D9 PUSH1 0x4 DUP1 CALLDATASIZE SUB DUP2 ADD SWAP1 PUSH2 0x4D4 SWAP2 SWAP1 PUSH2 0x2D1D JUMP JUMPDEST PUSH2 0x288F JUMP JUMPDEST PUSH1 0x40 MLOAD PUSH2 0x4E6 SWAP2 SWAP1 PUSH2 0x31F6 JUMP JUMPDEST PUSH1 0x40 MLOAD DUP1 SWAP2 SUB SWAP1 RETURN JUMPDEST PUSH2 0x509 PUSH1 0x4 DUP1 CALLDATASIZE SUB DUP2 ADD SWAP1 PUSH2 0x504 SWAP2 SWAP1 PUSH2 0x2E97 JUMP JUMPDEST PUSH2 0x28CD JUMP JUMPDEST PUSH1 0x40 MLOAD PUSH2 0x516 SWAP2 SWAP1 PUSH2 0x31B9 JUMP JUMPDEST PUSH1 0x40 MLOAD DUP1 SWAP2 SUB SWAP1 RETURN JUMPDEST PUSH2 0x527 PUSH2 0x29A8 JUMP JUMPDEST PUSH1 0x40 MLOAD PUSH2 0x534 SWAP2 SWAP1 PUSH2 0x3280 JUMP JUMPDEST PUSH1 0x40 MLOAD DUP1 SWAP2 SUB SWAP1 RETURN JUMPDEST PUSH2 0x557 PUSH1 0x4 DUP1 CALLDATASIZE SUB DUP2 ADD SWAP1 PUSH2 0x552 SWAP2 SWAP1 PUSH2 0x2CA5 JUMP JUMPDEST PUSH2 0x2A7A JUMP JUMPDEST PUSH1 0x40 MLOAD PUSH2 0x564 SWAP2 SWAP1 PUSH2 0x31DB JUMP JUMPDEST PUSH1 0x40 MLOAD DUP1 SWAP2 SUB SWAP1 RETURN JUMPDEST PUSH1 0x5 PUSH1 0x0 CALLER PUSH20 0xFFFFFFFFFFFFFFFFFFFFFFFFFFFFFFFFFFFFFFFF AND PUSH20 0xFFFFFFFFFFFFFFFFFFFFFFFFFFFFFFFFFFFFFFFF AND DUP2 MSTORE PUSH1 0x20 ADD SWAP1 DUP2 MSTORE PUSH1 0x20 ADD PUSH1 0x0 KECCAK256 PUSH1 0x3 ADD PUSH1 0x0 SWAP1 SLOAD SWAP1 PUSH2 0x100 EXP SWAP1 DIV PUSH1 0xFF AND PUSH1 0x40 MLOAD DUP1 PUSH1 0x40 ADD PUSH1 0x40 MSTORE DUP1 PUSH1 0x5 DUP2 MSTORE PUSH1 0x20 ADD PUSH32 0x574D552D32000000000000000000000000000000000000000000000000000000 DUP2 MSTORE POP SWAP1 PUSH2 0x634 JUMPI PUSH1 0x40 MLOAD PUSH32 0x8C379A000000000000000000000000000000000000000000000000000000000 DUP2 MSTORE PUSH1 0x4 ADD PUSH2 0x62B SWAP2 SWAP1 PUSH2 0x3280 JUMP JUMPDEST PUSH1 0x40 MLOAD DUP1 SWAP2 SUB SWAP1 REVERT JUMPDEST POP DUP1 PUSH1 0x5 PUSH1 0x0 CALLER PUSH20 0xFFFFFFFFFFFFFFFFFFFFFFFFFFFFFFFFFFFFFFFF AND PUSH20 0xFFFFFFFFFFFFFFFFFFFFFFFFFFFFFFFFFFFFFFFF AND DUP2 MSTORE PUSH1 0x20 ADD SWAP1 DUP2 MSTORE PUSH1 0x20 ADD PUSH1 0x0 KECCAK256 PUSH1 0x4 ADD SWAP1 DUP1 MLOAD SWAP1 PUSH1 0x20 ADD SWAP1 PUSH2 0x68B SWAP3 SWAP2 SWAP1 PUSH2 0x2B06 JUMP JUMPDEST POP POP JUMP JUMPDEST PUSH1 0x0 PUSH1 0x5 PUSH1 0x0 CALLER PUSH20 0xFFFFFFFFFFFFFFFFFFFFFFFFFFFFFFFFFFFFFFFF AND PUSH20 0xFFFFFFFFFFFFFFFFFFFFFFFFFFFFFFFFFFFFFFFF AND DUP2 MSTORE PUSH1 0x20 ADD SWAP1 DUP2 MSTORE PUSH1 0x20 ADD PUSH1 0x0 KECCAK256 PUSH1 0x1 ADD PUSH1 0x0 SWAP1 SLOAD SWAP1 PUSH2 0x100 EXP SWAP1 DIV PUSH1 0xFF AND PUSH1 0x40 MLOAD DUP1 PUSH1 0x40 ADD PUSH1 0x40 MSTORE DUP1 PUSH1 0x5 DUP2 MSTORE PUSH1 0x20 ADD PUSH32 0x574D552D35000000000000000000000000000000000000000000000000000000 DUP2 MSTORE POP SWAP1 PUSH2 0x758 JUMPI PUSH1 0x40 MLOAD PUSH32 0x8C379A000000000000000000000000000000000000000000000000000000000 DUP2 MSTORE PUSH1 0x4 ADD PUSH2 0x74F SWAP2 SWAP1 PUSH2 0x3280 JUMP JUMPDEST PUSH1 0x40 MLOAD DUP1 SWAP2 SUB SWAP1 REVERT JUMPDEST POP PUSH1 0x0 PUSH1 0x5 PUSH1 0x0 CALLER PUSH20 0xFFFFFFFFFFFFFFFFFFFFFFFFFFFFFFFFFFFFFFFF AND PUSH20 0xFFFFFFFFFFFFFFFFFFFFFFFFFFFFFFFFFFFFFFFF AND DUP2 MSTORE PUSH1 0x20 ADD SWAP1 DUP2 MSTORE PUSH1 0x20 ADD PUSH1 0x0 KECCAK256 PUSH1 0x0 ADD DUP1 SLOAD PUSH2 0x7A8 SWAP1 PUSH2 0x3687 JUMP JUMPDEST DUP1 PUSH1 0x1F ADD PUSH1 0x20 DUP1 SWAP2 DIV MUL PUSH1 0x20 ADD PUSH1 0x40 MLOAD SWAP1 DUP2 ADD PUSH1 0x40 MSTORE DUP1 SWAP3 SWAP2 SWAP1 DUP2 DUP2 MSTORE PUSH1 0x20 ADD DUP3 DUP1 SLOAD PUSH2 0x7D4 SWAP1 PUSH2 0x3687 JUMP JUMPDEST DUP1 ISZERO PUSH2 0x821 JUMPI DUP1 PUSH1 0x1F LT PUSH2 0x7F6 JUMPI PUSH2 0x100 DUP1 DUP4 SLOAD DIV MUL DUP4 MSTORE SWAP2 PUSH1 0x20 ADD SWAP2 PUSH2 0x821 JUMP JUMPDEST DUP3 ADD SWAP2 SWAP1 PUSH1 0x0 MSTORE PUSH1 0x20 PUSH1 0x0 KECCAK256 SWAP1 JUMPDEST DUP2 SLOAD DUP2 MSTORE SWAP1 PUSH1 0x1 ADD SWAP1 PUSH1 0x20 ADD DUP1 DUP4 GT PUSH2 0x804 JUMPI DUP3 SWAP1 SUB PUSH1 0x1F AND DUP3 ADD SWAP2 JUMPDEST POP POP POP POP POP SWAP1 POP PUSH1 0x6 DUP2 PUSH1 0x40 MLOAD PUSH2 0x838 SWAP2 SWAP1 PUSH2 0x3187 JUMP JUMPDEST SWAP1 DUP2 MSTORE PUSH1 0x20 ADD PUSH1 0x40 MLOAD DUP1 SWAP2 SUB SWAP1 KECCAK256 PUSH1 0x0 PUSH2 0x100 EXP DUP2 SLOAD SWAP1 PUSH20 0xFFFFFFFFFFFFFFFFFFFFFFFFFFFFFFFFFFFFFFFF MUL NOT AND SWAP1 SSTORE PUSH1 0x5 PUSH1 0x0 CALLER PUSH20 0xFFFFFFFFFFFFFFFFFFFFFFFFFFFFFFFFFFFFFFFF AND PUSH20 0xFFFFFFFFFFFFFFFFFFFFFFFFFFFFFFFFFFFFFFFF AND DUP2 MSTORE PUSH1 0x20 ADD SWAP1 DUP2 MSTORE PUSH1 0x20 ADD PUSH1 0x0 KECCAK256 PUSH1 0x0 DUP1 DUP3 ADD PUSH1 0x0 PUSH2 0x8B9 SWAP2 SWAP1 PUSH2 0x2B8C JUMP JUMPDEST PUSH1 0x1 DUP3 ADD PUSH1 0x0 PUSH2 0x100 EXP DUP2 SLOAD SWAP1 PUSH1 0xFF MUL NOT AND SWAP1 SSTORE PUSH1 0x2 DUP3 ADD PUSH1 0x0 SWAP1 SSTORE PUSH1 0x3 DUP3 ADD PUSH1 0x0 PUSH2 0x100 EXP DUP2 SLOAD SWAP1 PUSH1 0xFF MUL NOT AND SWAP1 SSTORE PUSH1 0x4 DUP3 ADD PUSH1 0x0 PUSH2 0x8F9 SWAP2 SWAP1 PUSH2 0x2B8C JUMP JUMPDEST POP POP PUSH1 0x1 SWAP2 POP POP SWAP1 JUMP JUMPDEST PUSH1 0x1 PUSH1 0x20 MSTORE DUP1 PUSH1 0x0 MSTORE PUSH1 0x40 PUSH1 0x0 KECCAK256 PUSH1 0x0 SWAP2 POP SWAP1 POP DUP1 PUSH1 0x0 ADD DUP1 SLOAD PUSH2 0x926 SWAP1 PUSH2 0x3687 JUMP JUMPDEST DUP1 PUSH1 0x1F ADD PUSH1 0x20 DUP1 SWAP2 DIV MUL PUSH1 0x20 ADD PUSH1 0x40 MLOAD SWAP1 DUP2 ADD PUSH1 0x40 MSTORE DUP1 SWAP3 SWAP2 SWAP1 DUP2 DUP2 MSTORE PUSH1 0x20 ADD DUP3 DUP1 SLOAD PUSH2 0x952 SWAP1 PUSH2 0x3687 JUMP JUMPDEST DUP1 ISZERO PUSH2 0x99F JUMPI DUP1 PUSH1 0x1F LT PUSH2 0x974 JUMPI PUSH2 0x100 DUP1 DUP4 SLOAD DIV MUL DUP4 MSTORE SWAP2 PUSH1 0x20 ADD SWAP2 PUSH2 0x99F JUMP JUMPDEST DUP3 ADD SWAP2 SWAP1 PUSH1 0x0 MSTORE PUSH1 0x20 PUSH1 0x0 KECCAK256 SWAP1 JUMPDEST DUP2 SLOAD DUP2 MSTORE SWAP1 PUSH1 0x1 ADD SWAP1 PUSH1 0x20 ADD DUP1 DUP4 GT PUSH2 0x982 JUMPI DUP3 SWAP1 SUB PUSH1 0x1F AND DUP3 ADD SWAP2 JUMPDEST POP POP POP POP POP SWAP1 DUP1 PUSH1 0x1 ADD PUSH1 0x0 SWAP1 SLOAD SWAP1 PUSH2 0x100 EXP SWAP1 DIV PUSH20 0xFFFFFFFFFFFFFFFFFFFFFFFFFFFFFFFFFFFFFFFF AND SWAP1 DUP1 PUSH1 0x2 ADD SLOAD SWAP1 DUP1 PUSH1 0x3 ADD PUSH1 0x0 SWAP1 SLOAD SWAP1 PUSH2 0x100 EXP SWAP1 DIV PUSH20 0xFFFFFFFFFFFFFFFFFFFFFFFFFFFFFFFFFFFFFFFF AND SWAP1 DUP1 PUSH1 0x4 ADD DUP1 SLOAD PUSH2 0xA06 SWAP1 PUSH2 0x3687 JUMP JUMPDEST DUP1 PUSH1 0x1F ADD PUSH1 0x20 DUP1 SWAP2 DIV MUL PUSH1 0x20 ADD PUSH1 0x40 MLOAD SWAP1 DUP2 ADD PUSH1 0x40 MSTORE DUP1 SWAP3 SWAP2 SWAP1 DUP2 DUP2 MSTORE PUSH1 0x20 ADD DUP3 DUP1 SLOAD PUSH2 0xA32 SWAP1 PUSH2 0x3687 JUMP JUMPDEST DUP1 ISZERO PUSH2 0xA7F JUMPI DUP1 PUSH1 0x1F LT PUSH2 0xA54 JUMPI PUSH2 0x100 DUP1 DUP4 SLOAD DIV MUL DUP4 MSTORE SWAP2 PUSH1 0x20 ADD SWAP2 PUSH2 0xA7F JUMP JUMPDEST DUP3 ADD SWAP2 SWAP1 PUSH1 0x0 MSTORE PUSH1 0x20 PUSH1 0x0 KECCAK256 SWAP1 JUMPDEST DUP2 SLOAD DUP2 MSTORE SWAP1 PUSH1 0x1 ADD SWAP1 PUSH1 0x20 ADD DUP1 DUP4 GT PUSH2 0xA62 JUMPI DUP3 SWAP1 SUB PUSH1 0x1F AND DUP3 ADD SWAP2 JUMPDEST POP POP POP POP POP SWAP1 DUP1 PUSH1 0x5 ADD PUSH1 0x0 SWAP1 SLOAD SWAP1 PUSH2 0x100 EXP SWAP1 DIV PUSH1 0xFF AND SWAP1 POP DUP7 JUMP JUMPDEST PUSH1 0x5 PUSH1 0x0 CALLER PUSH20 0xFFFFFFFFFFFFFFFFFFFFFFFFFFFFFFFFFFFFFFFF AND PUSH20 0xFFFFFFFFFFFFFFFFFFFFFFFFFFFFFFFFFFFFFFFF AND DUP2 MSTORE PUSH1 0x20 ADD SWAP1 DUP2 MSTORE PUSH1 0x20 ADD PUSH1 0x0 KECCAK256 PUSH1 0x3 ADD PUSH1 0x0 SWAP1 SLOAD SWAP1 PUSH2 0x100 EXP SWAP1 DIV PUSH1 0xFF AND PUSH1 0x40 MLOAD DUP1 PUSH1 0x40 ADD PUSH1 0x40 MSTORE DUP1 PUSH1 0x5 DUP2 MSTORE PUSH1 0x20 ADD PUSH32 0x574D552D32000000000000000000000000000000000000000000000000000000 DUP2 MSTORE POP SWAP1 PUSH2 0xB63 JUMPI PUSH1 0x40 MLOAD PUSH32 0x8C379A000000000000000000000000000000000000000000000000000000000 DUP2 MSTORE PUSH1 0x4 ADD PUSH2 0xB5A SWAP2 SWAP1 PUSH2 0x3280 JUMP JUMPDEST PUSH1 0x40 MLOAD DUP1 SWAP2 SUB SWAP1 REVERT JUMPDEST POP PUSH1 0x0 PUSH20 0xFFFFFFFFFFFFFFFFFFFFFFFFFFFFFFFFFFFFFFFF AND PUSH1 0x6 DUP3 PUSH1 0x40 MLOAD PUSH2 0xB8C SWAP2 SWAP1 PUSH2 0x3187 JUMP JUMPDEST SWAP1 DUP2 MSTORE PUSH1 0x20 ADD PUSH1 0x40 MLOAD DUP1 SWAP2 SUB SWAP1 KECCAK256 PUSH1 0x0 SWAP1 SLOAD SWAP1 PUSH2 0x100 EXP SWAP1 DIV PUSH20 0xFFFFFFFFFFFFFFFFFFFFFFFFFFFFFFFFFFFFFFFF AND PUSH20 0xFFFFFFFFFFFFFFFFFFFFFFFFFFFFFFFFFFFFFFFF AND EQ PUSH1 0x40 MLOAD DUP1 PUSH1 0x40 ADD PUSH1 0x40 MSTORE DUP1 PUSH1 0x5 DUP2 MSTORE PUSH1 0x20 ADD PUSH32 0x574D552D36000000000000000000000000000000000000000000000000000000 DUP2 MSTORE POP SWAP1 PUSH2 0xC49 JUMPI PUSH1 0x40 MLOAD PUSH32 0x8C379A000000000000000000000000000000000000000000000000000000000 DUP2 MSTORE PUSH1 0x4 ADD PUSH2 0xC40 SWAP2 SWAP1 PUSH2 0x3280 JUMP JUMPDEST PUSH1 0x40 MLOAD DUP1 SWAP2 SUB SWAP1 REVERT JUMPDEST POP PUSH1 0x0 PUSH1 0x5 PUSH1 0x0 CALLER PUSH20 0xFFFFFFFFFFFFFFFFFFFFFFFFFFFFFFFFFFFFFFFF AND PUSH20 0xFFFFFFFFFFFFFFFFFFFFFFFFFFFFFFFFFFFFFFFF AND DUP2 MSTORE PUSH1 0x20 ADD SWAP1 DUP2 MSTORE PUSH1 0x20 ADD PUSH1 0x0 KECCAK256 PUSH1 0x0 ADD DUP1 SLOAD PUSH2 0xC99 SWAP1 PUSH2 0x3687 JUMP JUMPDEST DUP1 PUSH1 0x1F ADD PUSH1 0x20 DUP1 SWAP2 DIV MUL PUSH1 0x20 ADD PUSH1 0x40 MLOAD SWAP1 DUP2 ADD PUSH1 0x40 MSTORE DUP1 SWAP3 SWAP2 SWAP1 DUP2 DUP2 MSTORE PUSH1 0x20 ADD DUP3 DUP1 SLOAD PUSH2 0xCC5 SWAP1 PUSH2 0x3687 JUMP JUMPDEST DUP1 ISZERO PUSH2 0xD12 JUMPI DUP1 PUSH1 0x1F LT PUSH2 0xCE7 JUMPI PUSH2 0x100 DUP1 DUP4 SLOAD DIV MUL DUP4 MSTORE SWAP2 PUSH1 0x20 ADD SWAP2 PUSH2 0xD12 JUMP JUMPDEST DUP3 ADD SWAP2 SWAP1 PUSH1 0x0 MSTORE PUSH1 0x20 PUSH1 0x0 KECCAK256 SWAP1 JUMPDEST DUP2 SLOAD DUP2 MSTORE SWAP1 PUSH1 0x1 ADD SWAP1 PUSH1 0x20 ADD DUP1 DUP4 GT PUSH2 0xCF5 JUMPI DUP3 SWAP1 SUB PUSH1 0x1F AND DUP3 ADD SWAP2 JUMPDEST POP POP POP POP POP SWAP1 POP PUSH1 0x6 DUP2 PUSH1 0x40 MLOAD PUSH2 0xD29 SWAP2 SWAP1 PUSH2 0x3187 JUMP JUMPDEST SWAP1 DUP2 MSTORE PUSH1 0x20 ADD PUSH1 0x40 MLOAD DUP1 SWAP2 SUB SWAP1 KECCAK256 PUSH1 0x0 PUSH2 0x100 EXP DUP2 SLOAD SWAP1 PUSH20 0xFFFFFFFFFFFFFFFFFFFFFFFFFFFFFFFFFFFFFFFF MUL NOT AND SWAP1 SSTORE CALLER PUSH1 0x6 DUP4 PUSH1 0x40 MLOAD PUSH2 0xD6B SWAP2 SWAP1 PUSH2 0x3187 JUMP JUMPDEST SWAP1 DUP2 MSTORE PUSH1 0x20 ADD PUSH1 0x40 MLOAD DUP1 SWAP2 SUB SWAP1 KECCAK256 PUSH1 0x0 PUSH2 0x100 EXP DUP2 SLOAD DUP2 PUSH20 0xFFFFFFFFFFFFFFFFFFFFFFFFFFFFFFFFFFFFFFFF MUL NOT AND SWAP1 DUP4 PUSH20 0xFFFFFFFFFFFFFFFFFFFFFFFFFFFFFFFFFFFFFFFF AND MUL OR SWAP1 SSTORE POP DUP2 PUSH1 0x5 PUSH1 0x0 CALLER PUSH20 0xFFFFFFFFFFFFFFFFFFFFFFFFFFFFFFFFFFFFFFFF AND PUSH20 0xFFFFFFFFFFFFFFFFFFFFFFFFFFFFFFFFFFFFFFFF AND DUP2 MSTORE PUSH1 0x20 ADD SWAP1 DUP2 MSTORE PUSH1 0x20 ADD PUSH1 0x0 KECCAK256 PUSH1 0x0 ADD SWAP1 DUP1 MLOAD SWAP1 PUSH1 0x20 ADD SWAP1 PUSH2 0xE0D SWAP3 SWAP2 SWAP1 PUSH2 0x2B06 JUMP JUMPDEST POP POP POP JUMP JUMPDEST PUSH1 0x0 DUP1 PUSH1 0x0 PUSH1 0x60 PUSH1 0x0 PUSH1 0x60 PUSH1 0x0 PUSH2 0xE29 DUP10 DUP10 PUSH2 0x2AD3 JUMP JUMPDEST SWAP1 POP DUP1 PUSH1 0x1 PUSH1 0x0 DUP4 DUP2 MSTORE PUSH1 0x20 ADD SWAP1 DUP2 MSTORE PUSH1 0x20 ADD PUSH1 0x0 KECCAK256 PUSH1 0x1 ADD PUSH1 0x0 SWAP1 SLOAD SWAP1 PUSH2 0x100 EXP SWAP1 DIV PUSH20 0xFFFFFFFFFFFFFFFFFFFFFFFFFFFFFFFFFFFFFFFF AND PUSH1 0x1 PUSH1 0x0 DUP5 DUP2 MSTORE PUSH1 0x20 ADD SWAP1 DUP2 MSTORE PUSH1 0x20 ADD PUSH1 0x0 KECCAK256 PUSH1 0x2 ADD SLOAD PUSH1 0x1 PUSH1 0x0 DUP6 DUP2 MSTORE PUSH1 0x20 ADD SWAP1 DUP2 MSTORE PUSH1 0x20 ADD PUSH1 0x0 KECCAK256 PUSH1 0x0 ADD PUSH1 0x1 PUSH1 0x0 DUP7 DUP2 MSTORE PUSH1 0x20 ADD SWAP1 DUP2 MSTORE PUSH1 0x20 ADD PUSH1 0x0 KECCAK256 PUSH1 0x3 ADD PUSH1 0x0 SWAP1 SLOAD SWAP1 PUSH2 0x100 EXP SWAP1 DIV PUSH20 0xFFFFFFFFFFFFFFFFFFFFFFFFFFFFFFFFFFFFFFFF AND PUSH1 0x1 PUSH1 0x0 DUP8 DUP2 MSTORE PUSH1 0x20 ADD SWAP1 DUP2 MSTORE PUSH1 0x20 ADD PUSH1 0x0 KECCAK256 PUSH1 0x4 ADD DUP3 DUP1 SLOAD PUSH2 0xEE9 SWAP1 PUSH2 0x3687 JUMP JUMPDEST DUP1 PUSH1 0x1F ADD PUSH1 0x20 DUP1 SWAP2 DIV MUL PUSH1 0x20 ADD PUSH1 0x40 MLOAD SWAP1 DUP2 ADD PUSH1 0x40 MSTORE DUP1 SWAP3 SWAP2 SWAP1 DUP2 DUP2 MSTORE PUSH1 0x20 ADD DUP3 DUP1 SLOAD PUSH2 0xF15 SWAP1 PUSH2 0x3687 JUMP JUMPDEST DUP1 ISZERO PUSH2 0xF62 JUMPI DUP1 PUSH1 0x1F LT PUSH2 0xF37 JUMPI PUSH2 0x100 DUP1 DUP4 SLOAD DIV MUL DUP4 MSTORE SWAP2 PUSH1 0x20 ADD SWAP2 PUSH2 0xF62 JUMP JUMPDEST DUP3 ADD SWAP2 SWAP1 PUSH1 0x0 MSTORE PUSH1 0x20 PUSH1 0x0 KECCAK256 SWAP1 JUMPDEST DUP2 SLOAD DUP2 MSTORE SWAP1 PUSH1 0x1 ADD SWAP1 PUSH1 0x20 ADD DUP1 DUP4 GT PUSH2 0xF45 JUMPI DUP3 SWAP1 SUB PUSH1 0x1F AND DUP3 ADD SWAP2 JUMPDEST POP POP POP POP POP SWAP3 POP DUP1 DUP1 SLOAD PUSH2 0xF75 SWAP1 PUSH2 0x3687 JUMP JUMPDEST DUP1 PUSH1 0x1F ADD PUSH1 0x20 DUP1 SWAP2 DIV MUL PUSH1 0x20 ADD PUSH1 0x40 MLOAD SWAP1 DUP2 ADD PUSH1 0x40 MSTORE DUP1 SWAP3 SWAP2 SWAP1 DUP2 DUP2 MSTORE PUSH1 0x20 ADD DUP3 DUP1 SLOAD PUSH2 0xFA1 SWAP1 PUSH2 0x3687 JUMP JUMPDEST DUP1 ISZERO PUSH2 0xFEE JUMPI DUP1 PUSH1 0x1F LT PUSH2 0xFC3 JUMPI PUSH2 0x100 DUP1 DUP4 SLOAD DIV MUL DUP4 MSTORE SWAP2 PUSH1 0x20 ADD SWAP2 PUSH2 0xFEE JUMP JUMPDEST DUP3 ADD SWAP2 SWAP1 PUSH1 0x0 MSTORE PUSH1 0x20 PUSH1 0x0 KECCAK256 SWAP1 JUMPDEST DUP2 SLOAD DUP2 MSTORE SWAP1 PUSH1 0x1 ADD SWAP1 PUSH1 0x20 ADD DUP1 DUP4 GT PUSH2 0xFD1 JUMPI DUP3 SWAP1 SUB PUSH1 0x1F AND DUP3 ADD SWAP2 JUMPDEST POP POP POP POP POP SWAP1 POP SWAP7 POP SWAP7 POP SWAP7 POP SWAP7 POP SWAP7 POP SWAP7 POP POP SWAP3 SWAP6 POP SWAP3 SWAP6 POP SWAP3 SWAP6 JUMP JUMPDEST PUSH1 0x2 PUSH1 0x20 MSTORE DUP2 PUSH1 0x0 MSTORE PUSH1 0x40 PUSH1 0x0 KECCAK256 DUP2 DUP2 SLOAD DUP2 LT PUSH2 0x1028 JUMPI PUSH1 0x0 DUP1 REVERT JUMPDEST SWAP1 PUSH1 0x0 MSTORE PUSH1 0x20 PUSH1 0x0 KECCAK256 ADD PUSH1 0x0 SWAP2 POP SWAP2 POP POP SLOAD DUP2 JUMP JUMPDEST PUSH1 0x0 PUSH2 0x1049 DUP5 DUP5 PUSH2 0x2AD3 JUMP JUMPDEST SWAP1 POP PUSH1 0x5 PUSH1 0x0 CALLER PUSH20 0xFFFFFFFFFFFFFFFFFFFFFFFFFFFFFFFFFFFFFFFF AND PUSH20 0xFFFFFFFFFFFFFFFFFFFFFFFFFFFFFFFFFFFFFFFF AND DUP2 MSTORE PUSH1 0x20 ADD SWAP1 DUP2 MSTORE PUSH1 0x20 ADD PUSH1 0x0 KECCAK256 PUSH1 0x3 ADD PUSH1 0x0 SWAP1 SLOAD SWAP1 PUSH2 0x100 EXP SWAP1 DIV PUSH1 0xFF AND DUP1 ISZERO PUSH2 0x1108 JUMPI POP CALLER PUSH20 0xFFFFFFFFFFFFFFFFFFFFFFFFFFFFFFFFFFFFFFFF AND PUSH1 0x1 PUSH1 0x0 DUP4 DUP2 MSTORE PUSH1 0x20 ADD SWAP1 DUP2 MSTORE PUSH1 0x20 ADD PUSH1 0x0 KECCAK256 PUSH1 0x3 ADD PUSH1 0x0 SWAP1 SLOAD SWAP1 PUSH2 0x100 EXP SWAP1 DIV PUSH20 0xFFFFFFFFFFFFFFFFFFFFFFFFFFFFFFFFFFFFFFFF AND PUSH20 0xFFFFFFFFFFFFFFFFFFFFFFFFFFFFFFFFFFFFFFFF AND EQ JUMPDEST PUSH1 0x40 MLOAD DUP1 PUSH1 0x40 ADD PUSH1 0x40 MSTORE DUP1 PUSH1 0x5 DUP2 MSTORE PUSH1 0x20 ADD PUSH32 0x574D552D32000000000000000000000000000000000000000000000000000000 DUP2 MSTORE POP SWAP1 PUSH2 0x117F JUMPI PUSH1 0x40 MLOAD PUSH32 0x8C379A000000000000000000000000000000000000000000000000000000000 DUP2 MSTORE PUSH1 0x4 ADD PUSH2 0x1176 SWAP2 SWAP1 PUSH2 0x3280 JUMP JUMPDEST PUSH1 0x40 MLOAD DUP1 SWAP2 SUB SWAP1 REVERT JUMPDEST POP DUP2 PUSH1 0x1 PUSH1 0x0 DUP4 DUP2 MSTORE PUSH1 0x20 ADD SWAP1 DUP2 MSTORE PUSH1 0x20 ADD PUSH1 0x0 KECCAK256 PUSH1 0x5 ADD PUSH1 0x0 PUSH2 0x100 EXP DUP2 SLOAD DUP2 PUSH1 0xFF MUL NOT AND SWAP1 DUP4 PUSH1 0x6 DUP2 GT ISZERO PUSH2 0x11DF JUMPI PUSH32 0x4E487B7100000000000000000000000000000000000000000000000000000000 PUSH1 0x0 MSTORE PUSH1 0x21 PUSH1 0x4 MSTORE PUSH1 0x24 PUSH1 0x0 REVERT JUMPDEST MUL OR SWAP1 SSTORE POP PUSH1 0x3 PUSH1 0x0 DUP4 PUSH1 0x6 DUP2 GT ISZERO PUSH2 0x1221 JUMPI PUSH32 0x4E487B7100000000000000000000000000000000000000000000000000000000 PUSH1 0x0 MSTORE PUSH1 0x21 PUSH1 0x4 MSTORE PUSH1 0x24 PUSH1 0x0 REVERT JUMPDEST PUSH1 0x6 DUP2 GT ISZERO PUSH2 0x1259 JUMPI PUSH32 0x4E487B7100000000000000000000000000000000000000000000000000000000 PUSH1 0x0 MSTORE PUSH1 0x21 PUSH1 0x4 MSTORE PUSH1 0x24 PUSH1 0x0 REVERT JUMPDEST DUP2 MSTORE PUSH1 0x20 ADD SWAP1 DUP2 MSTORE PUSH1 0x20 ADD PUSH1 0x0 KECCAK256 DUP2 SWAP1 DUP1 PUSH1 0x1 DUP2 SLOAD ADD DUP1 DUP3 SSTORE DUP1 SWAP2 POP POP PUSH1 0x1 SWAP1 SUB SWAP1 PUSH1 0x0 MSTORE PUSH1 0x20 PUSH1 0x0 KECCAK256 ADD PUSH1 0x0 SWAP1 SWAP2 SWAP1 SWAP2 SWAP1 SWAP2 POP SSTORE PUSH1 0x4 PUSH1 0x0 CALLER PUSH20 0xFFFFFFFFFFFFFFFFFFFFFFFFFFFFFFFFFFFFFFFF AND PUSH20 0xFFFFFFFFFFFFFFFFFFFFFFFFFFFFFFFFFFFFFFFF AND DUP2 MSTORE PUSH1 0x20 ADD SWAP1 DUP2 MSTORE PUSH1 0x20 ADD PUSH1 0x0 KECCAK256 PUSH1 0x0 DUP4 PUSH1 0x6 DUP2 GT ISZERO PUSH2 0x1308 JUMPI PUSH32 0x4E487B7100000000000000000000000000000000000000000000000000000000 PUSH1 0x0 MSTORE PUSH1 0x21 PUSH1 0x4 MSTORE PUSH1 0x24 PUSH1 0x0 REVERT JUMPDEST PUSH1 0x6 DUP2 GT ISZERO PUSH2 0x1340 JUMPI PUSH32 0x4E487B7100000000000000000000000000000000000000000000000000000000 PUSH1 0x0 MSTORE PUSH1 0x21 PUSH1 0x4 MSTORE PUSH1 0x24 PUSH1 0x0 REVERT JUMPDEST DUP2 MSTORE PUSH1 0x20 ADD SWAP1 DUP2 MSTORE PUSH1 0x20 ADD PUSH1 0x0 KECCAK256 DUP2 SWAP1 DUP1 PUSH1 0x1 DUP2 SLOAD ADD DUP1 DUP3 SSTORE DUP1 SWAP2 POP POP PUSH1 0x1 SWAP1 SUB SWAP1 PUSH1 0x0 MSTORE PUSH1 0x20 PUSH1 0x0 KECCAK256 ADD PUSH1 0x0 SWAP1 SWAP2 SWAP1 SWAP2 SWAP1 SWAP2 POP SSTORE POP POP POP POP JUMP JUMPDEST PUSH1 0x5 PUSH1 0x0 CALLER PUSH20 0xFFFFFFFFFFFFFFFFFFFFFFFFFFFFFFFFFFFFFFFF AND PUSH20 0xFFFFFFFFFFFFFFFFFFFFFFFFFFFFFFFFFFFFFFFF AND DUP2 MSTORE PUSH1 0x20 ADD SWAP1 DUP2 MSTORE PUSH1 0x20 ADD PUSH1 0x0 KECCAK256 PUSH1 0x1 ADD PUSH1 0x0 SWAP1 SLOAD SWAP1 PUSH2 0x100 EXP SWAP1 DIV PUSH1 0xFF AND PUSH1 0x40 MLOAD DUP1 PUSH1 0x40 ADD PUSH1 0x40 MSTORE DUP1 PUSH1 0x5 DUP2 MSTORE PUSH1 0x20 ADD PUSH32 0x574D552D31000000000000000000000000000000000000000000000000000000 DUP2 MSTORE POP SWAP1 PUSH2 0x1442 JUMPI PUSH1 0x40 MLOAD PUSH32 0x8C379A000000000000000000000000000000000000000000000000000000000 DUP2 MSTORE PUSH1 0x4 ADD PUSH2 0x1439 SWAP2 SWAP1 PUSH2 0x3280 JUMP JUMPDEST PUSH1 0x40 MLOAD DUP1 SWAP2 SUB SWAP1 REVERT JUMPDEST POP PUSH1 0x5 PUSH1 0x0 CALLER PUSH20 0xFFFFFFFFFFFFFFFFFFFFFFFFFFFFFFFFFFFFFFFF AND PUSH20 0xFFFFFFFFFFFFFFFFFFFFFFFFFFFFFFFFFFFFFFFF AND DUP2 MSTORE PUSH1 0x20 ADD SWAP1 DUP2 MSTORE PUSH1 0x20 ADD PUSH1 0x0 KECCAK256 PUSH1 0x3 ADD PUSH1 0x0 SWAP1 SLOAD SWAP1 PUSH2 0x100 EXP SWAP1 DIV PUSH1 0xFF AND ISZERO PUSH1 0x40 MLOAD DUP1 PUSH1 0x40 ADD PUSH1 0x40 MSTORE DUP1 PUSH1 0x5 DUP2 MSTORE PUSH1 0x20 ADD PUSH32 0x574D552D33000000000000000000000000000000000000000000000000000000 DUP2 MSTORE POP SWAP1 PUSH2 0x150B JUMPI PUSH1 0x40 MLOAD PUSH32 0x8C379A000000000000000000000000000000000000000000000000000000000 DUP2 MSTORE PUSH1 0x4 ADD PUSH2 0x1502 SWAP2 SWAP1 PUSH2 0x3280 JUMP JUMPDEST PUSH1 0x40 MLOAD DUP1 SWAP2 SUB SWAP1 REVERT JUMPDEST POP PUSH1 0x1 PUSH1 0x5 PUSH1 0x0 CALLER PUSH20 0xFFFFFFFFFFFFFFFFFFFFFFFFFFFFFFFFFFFFFFFF AND PUSH20 0xFFFFFFFFFFFFFFFFFFFFFFFFFFFFFFFFFFFFFFFF AND DUP2 MSTORE PUSH1 0x20 ADD SWAP1 DUP2 MSTORE PUSH1 0x20 ADD PUSH1 0x0 KECCAK256 PUSH1 0x3 ADD PUSH1 0x0 PUSH2 0x100 EXP DUP2 SLOAD DUP2 PUSH1 0xFF MUL NOT AND SWAP1 DUP4 ISZERO ISZERO MUL OR SWAP1 SSTORE POP CALLER PUSH20 0xFFFFFFFFFFFFFFFFFFFFFFFFFFFFFFFFFFFFFFFF AND PUSH32 0x364034DE78A61B6190B049E2C5437370B27906BFED607993A5BC2DDA23C16CFF TIMESTAMP PUSH1 0x40 MLOAD PUSH2 0x15AD SWAP2 SWAP1 PUSH2 0x3462 JUMP JUMPDEST PUSH1 0x40 MLOAD DUP1 SWAP2 SUB SWAP1 LOG2 JUMP JUMPDEST PUSH1 0x60 PUSH1 0x0 DUP1 PUSH1 0x0 PUSH1 0x60 PUSH1 0x0 DUP7 SWAP1 POP PUSH1 0x1 PUSH1 0x0 DUP3 DUP2 MSTORE PUSH1 0x20 ADD SWAP1 DUP2 MSTORE PUSH1 0x20 ADD PUSH1 0x0 KECCAK256 PUSH1 0x0 ADD PUSH1 0x1 PUSH1 0x0 DUP4 DUP2 MSTORE PUSH1 0x20 ADD SWAP1 DUP2 MSTORE PUSH1 0x20 ADD PUSH1 0x0 KECCAK256 PUSH1 0x1 ADD PUSH1 0x0 SWAP1 SLOAD SWAP1 PUSH2 0x100 EXP SWAP1 DIV PUSH20 0xFFFFFFFFFFFFFFFFFFFFFFFFFFFFFFFFFFFFFFFF AND PUSH1 0x1 PUSH1 0x0 DUP5 DUP2 MSTORE PUSH1 0x20 ADD SWAP1 DUP2 MSTORE PUSH1 0x20 ADD PUSH1 0x0 KECCAK256 PUSH1 0x2 ADD SLOAD PUSH1 0x1 PUSH1 0x0 DUP6 DUP2 MSTORE PUSH1 0x20 ADD SWAP1 DUP2 MSTORE PUSH1 0x20 ADD PUSH1 0x0 KECCAK256 PUSH1 0x3 ADD PUSH1 0x0 SWAP1 SLOAD SWAP1 PUSH2 0x100 EXP SWAP1 DIV PUSH20 0xFFFFFFFFFFFFFFFFFFFFFFFFFFFFFFFFFFFFFFFF AND PUSH1 0x1 PUSH1 0x0 DUP7 DUP2 MSTORE PUSH1 0x20 ADD SWAP1 DUP2 MSTORE PUSH1 0x20 ADD PUSH1 0x0 KECCAK256 PUSH1 0x4 ADD DUP5 DUP1 SLOAD PUSH2 0x1682 SWAP1 PUSH2 0x3687 JUMP JUMPDEST DUP1 PUSH1 0x1F ADD PUSH1 0x20 DUP1 SWAP2 DIV MUL PUSH1 0x20 ADD PUSH1 0x40 MLOAD SWAP1 DUP2 ADD PUSH1 0x40 MSTORE DUP1 SWAP3 SWAP2 SWAP1 DUP2 DUP2 MSTORE PUSH1 0x20 ADD DUP3 DUP1 SLOAD PUSH2 0x16AE SWAP1 PUSH2 0x3687 JUMP JUMPDEST DUP1 ISZERO PUSH2 0x16FB JUMPI DUP1 PUSH1 0x1F LT PUSH2 0x16D0 JUMPI PUSH2 0x100 DUP1 DUP4 SLOAD DIV MUL DUP4 MSTORE SWAP2 PUSH1 0x20 ADD SWAP2 PUSH2 0x16FB JUMP JUMPDEST DUP3 ADD SWAP2 SWAP1 PUSH1 0x0 MSTORE PUSH1 0x20 PUSH1 0x0 KECCAK256 SWAP1 JUMPDEST DUP2 SLOAD DUP2 MSTORE SWAP1 PUSH1 0x1 ADD SWAP1 PUSH1 0x20 ADD DUP1 DUP4 GT PUSH2 0x16DE JUMPI DUP3 SWAP1 SUB PUSH1 0x1F AND DUP3 ADD SWAP2 JUMPDEST POP POP POP POP POP SWAP5 POP DUP1 DUP1 SLOAD PUSH2 0x170E SWAP1 PUSH2 0x3687 JUMP JUMPDEST DUP1 PUSH1 0x1F ADD PUSH1 0x20 DUP1 SWAP2 DIV MUL PUSH1 0x20 ADD PUSH1 0x40 MLOAD SWAP1 DUP2 ADD PUSH1 0x40 MSTORE DUP1 SWAP3 SWAP2 SWAP1 DUP2 DUP2 MSTORE PUSH1 0x20 ADD DUP3 DUP1 SLOAD PUSH2 0x173A SWAP1 PUSH2 0x3687 JUMP JUMPDEST DUP1 ISZERO PUSH2 0x1787 JUMPI DUP1 PUSH1 0x1F LT PUSH2 0x175C JUMPI PUSH2 0x100 DUP1 DUP4 SLOAD DIV MUL DUP4 MSTORE SWAP2 PUSH1 0x20 ADD SWAP2 PUSH2 0x1787 JUMP JUMPDEST DUP3 ADD SWAP2 SWAP1 PUSH1 0x0 MSTORE PUSH1 0x20 PUSH1 0x0 KECCAK256 SWAP1 JUMPDEST DUP2 SLOAD DUP2 MSTORE SWAP1 PUSH1 0x1 ADD SWAP1 PUSH1 0x20 ADD DUP1 DUP4 GT PUSH2 0x176A JUMPI DUP3 SWAP1 SUB PUSH1 0x1F AND DUP3 ADD SWAP2 JUMPDEST POP POP POP POP POP SWAP1 POP SWAP6 POP SWAP6 POP SWAP6 POP SWAP6 POP SWAP6 POP POP SWAP2 SWAP4 SWAP6 SWAP1 SWAP3 SWAP5 POP JUMP JUMPDEST PUSH1 0x5 PUSH1 0x0 CALLER PUSH20 0xFFFFFFFFFFFFFFFFFFFFFFFFFFFFFFFFFFFFFFFF AND PUSH20 0xFFFFFFFFFFFFFFFFFFFFFFFFFFFFFFFFFFFFFFFF AND DUP2 MSTORE PUSH1 0x20 ADD SWAP1 DUP2 MSTORE PUSH1 0x20 ADD PUSH1 0x0 KECCAK256 PUSH1 0x3 ADD PUSH1 0x0 SWAP1 SLOAD SWAP1 PUSH2 0x100 EXP SWAP1 DIV PUSH1 0xFF AND PUSH1 0x40 MLOAD DUP1 PUSH1 0x40 ADD PUSH1 0x40 MSTORE DUP1 PUSH1 0x5 DUP2 MSTORE PUSH1 0x20 ADD PUSH32 0x574D552D32000000000000000000000000000000000000000000000000000000 DUP2 MSTORE POP SWAP1 PUSH2 0x1869 JUMPI PUSH1 0x40 MLOAD PUSH32 0x8C379A000000000000000000000000000000000000000000000000000000000 DUP2 MSTORE PUSH1 0x4 ADD PUSH2 0x1860 SWAP2 SWAP1 PUSH2 0x3280 JUMP JUMPDEST PUSH1 0x40 MLOAD DUP1 SWAP2 SUB SWAP1 REVERT JUMPDEST POP PUSH1 0x0 PUSH1 0x5 PUSH1 0x0 CALLER PUSH20 0xFFFFFFFFFFFFFFFFFFFFFFFFFFFFFFFFFFFFFFFF AND PUSH20 0xFFFFFFFFFFFFFFFFFFFFFFFFFFFFFFFFFFFFFFFF AND DUP2 MSTORE PUSH1 0x20 ADD SWAP1 DUP2 MSTORE PUSH1 0x20 ADD PUSH1 0x0 KECCAK256 PUSH1 0x3 ADD PUSH1 0x0 PUSH2 0x100 EXP DUP2 SLOAD DUP2 PUSH1 0xFF MUL NOT AND SWAP1 DUP4 ISZERO ISZERO MUL OR SWAP1 SSTORE POP CALLER PUSH20 0xFFFFFFFFFFFFFFFFFFFFFFFFFFFFFFFFFFFFFFFF AND PUSH32 0x70D1177AA26C67F6B2FDB43400CFD7FF0C23A8712301ABE5ABA2EE3D89E28A10 TIMESTAMP PUSH1 0x40 MLOAD PUSH2 0x190B SWAP2 SWAP1 PUSH2 0x3462 JUMP JUMPDEST PUSH1 0x40 MLOAD DUP1 SWAP2 SUB SWAP1 LOG2 JUMP JUMPDEST PUSH1 0x60 PUSH1 0x2 PUSH1 0x0 DUP4 PUSH20 0xFFFFFFFFFFFFFFFFFFFFFFFFFFFFFFFFFFFFFFFF AND PUSH20 0xFFFFFFFFFFFFFFFFFFFFFFFFFFFFFFFFFFFFFFFF AND DUP2 MSTORE PUSH1 0x20 ADD SWAP1 DUP2 MSTORE PUSH1 0x20 ADD PUSH1 0x0 KECCAK256 DUP1 SLOAD DUP1 PUSH1 0x20 MUL PUSH1 0x20 ADD PUSH1 0x40 MLOAD SWAP1 DUP2 ADD PUSH1 0x40 MSTORE DUP1 SWAP3 SWAP2 SWAP1 DUP2 DUP2 MSTORE PUSH1 0x20 ADD DUP3 DUP1 SLOAD DUP1 ISZERO PUSH2 0x19A0 JUMPI PUSH1 0x20 MUL DUP3 ADD SWAP2 SWAP1 PUSH1 0x0 MSTORE PUSH1 0x20 PUSH1 0x0 KECCAK256 SWAP1 JUMPDEST DUP2 SLOAD DUP2 MSTORE PUSH1 0x20 ADD SWAP1 PUSH1 0x1 ADD SWAP1 DUP1 DUP4 GT PUSH2 0x198C JUMPI JUMPDEST POP POP POP POP POP SWAP1 POP SWAP2 SWAP1 POP JUMP JUMPDEST PUSH1 0x6 DUP2 DUP1 MLOAD PUSH1 0x20 DUP2 ADD DUP3 ADD DUP1 MLOAD DUP5 DUP3 MSTORE PUSH1 0x20 DUP4 ADD PUSH1 0x20 DUP6 ADD KECCAK256 DUP2 DUP4 MSTORE DUP1 SWAP6 POP POP POP POP POP POP PUSH1 0x0 SWAP2 POP SLOAD SWAP1 PUSH2 0x100 EXP SWAP1 DIV PUSH20 0xFFFFFFFFFFFFFFFFFFFFFFFFFFFFFFFFFFFFFFFF AND DUP2 JUMP JUMPDEST PUSH1 0x5 PUSH1 0x0 CALLER PUSH20 0xFFFFFFFFFFFFFFFFFFFFFFFFFFFFFFFFFFFFFFFF AND PUSH20 0xFFFFFFFFFFFFFFFFFFFFFFFFFFFFFFFFFFFFFFFF AND DUP2 MSTORE PUSH1 0x20 ADD SWAP1 DUP2 MSTORE PUSH1 0x20 ADD PUSH1 0x0 KECCAK256 PUSH1 0x3 ADD PUSH1 0x0 SWAP1 SLOAD SWAP1 PUSH2 0x100 EXP SWAP1 DIV PUSH1 0xFF AND PUSH1 0x40 MLOAD DUP1 PUSH1 0x40 ADD PUSH1 0x40 MSTORE DUP1 PUSH1 0x5 DUP2 MSTORE PUSH1 0x20 ADD PUSH32 0x574D552D32000000000000000000000000000000000000000000000000000000 DUP2 MSTORE POP SWAP1 PUSH2 0x1ABC JUMPI PUSH1 0x40 MLOAD PUSH32 0x8C379A000000000000000000000000000000000000000000000000000000000 DUP2 MSTORE PUSH1 0x4 ADD PUSH2 0x1AB3 SWAP2 SWAP1 PUSH2 0x3280 JUMP JUMPDEST PUSH1 0x40 MLOAD DUP1 SWAP2 SUB SWAP1 REVERT JUMPDEST POP PUSH1 0x0 PUSH2 0x1AC9 DUP5 DUP5 PUSH2 0x2AD3 JUMP JUMPDEST SWAP1 POP DUP5 PUSH1 0x1 PUSH1 0x0 DUP4 DUP2 MSTORE PUSH1 0x20 ADD SWAP1 DUP2 MSTORE PUSH1 0x20 ADD PUSH1 0x0 KECCAK256 PUSH1 0x0 ADD SWAP1 DUP1 MLOAD SWAP1 PUSH1 0x20 ADD SWAP1 PUSH2 0x1AF5 SWAP3 SWAP2 SWAP1 PUSH2 0x2B06 JUMP JUMPDEST POP DUP4 PUSH1 0x1 PUSH1 0x0 DUP4 DUP2 MSTORE PUSH1 0x20 ADD SWAP1 DUP2 MSTORE PUSH1 0x20 ADD PUSH1 0x0 KECCAK256 PUSH1 0x1 ADD PUSH1 0x0 PUSH2 0x100 EXP DUP2 SLOAD DUP2 PUSH20 0xFFFFFFFFFFFFFFFFFFFFFFFFFFFFFFFFFFFFFFFF MUL NOT AND SWAP1 DUP4 PUSH20 0xFFFFFFFFFFFFFFFFFFFFFFFFFFFFFFFFFFFFFFFF AND MUL OR SWAP1 SSTORE POP DUP3 PUSH1 0x1 PUSH1 0x0 DUP4 DUP2 MSTORE PUSH1 0x20 ADD SWAP1 DUP2 MSTORE PUSH1 0x20 ADD PUSH1 0x0 KECCAK256 PUSH1 0x2 ADD DUP2 SWAP1 SSTORE POP CALLER PUSH1 0x1 PUSH1 0x0 DUP4 DUP2 MSTORE PUSH1 0x20 ADD SWAP1 DUP2 MSTORE PUSH1 0x20 ADD PUSH1 0x0 KECCAK256 PUSH1 0x3 ADD PUSH1 0x0 PUSH2 0x100 EXP DUP2 SLOAD DUP2 PUSH20 0xFFFFFFFFFFFFFFFFFFFFFFFFFFFFFFFFFFFFFFFF MUL NOT AND SWAP1 DUP4 PUSH20 0xFFFFFFFFFFFFFFFFFFFFFFFFFFFFFFFFFFFFFFFF AND MUL OR SWAP1 SSTORE POP DUP2 PUSH1 0x1 PUSH1 0x0 DUP4 DUP2 MSTORE PUSH1 0x20 ADD SWAP1 DUP2 MSTORE PUSH1 0x20 ADD PUSH1 0x0 KECCAK256 PUSH1 0x4 ADD SWAP1 DUP1 MLOAD SWAP1 PUSH1 0x20 ADD SWAP1 PUSH2 0x1BE5 SWAP3 SWAP2 SWAP1 PUSH2 0x2B06 JUMP JUMPDEST POP PUSH1 0x2 PUSH1 0x0 CALLER PUSH20 0xFFFFFFFFFFFFFFFFFFFFFFFFFFFFFFFFFFFFFFFF AND PUSH20 0xFFFFFFFFFFFFFFFFFFFFFFFFFFFFFFFFFFFFFFFF AND DUP2 MSTORE PUSH1 0x20 ADD SWAP1 DUP2 MSTORE PUSH1 0x20 ADD PUSH1 0x0 KECCAK256 DUP2 SWAP1 DUP1 PUSH1 0x1 DUP2 SLOAD ADD DUP1 DUP3 SSTORE DUP1 SWAP2 POP POP PUSH1 0x1 SWAP1 SUB SWAP1 PUSH1 0x0 MSTORE PUSH1 0x20 PUSH1 0x0 KECCAK256 ADD PUSH1 0x0 SWAP1 SWAP2 SWAP1 SWAP2 SWAP1 SWAP2 POP SSTORE POP POP POP POP POP JUMP JUMPDEST PUSH1 0x7 PUSH1 0x20 MSTORE DUP1 PUSH1 0x0 MSTORE PUSH1 0x40 PUSH1 0x0 KECCAK256 PUSH1 0x0 SWAP2 POP SWAP1 POP DUP1 PUSH1 0x0 ADD SLOAD SWAP1 DUP1 PUSH1 0x1 ADD SLOAD SWAP1 DUP1 PUSH1 0x2 ADD SLOAD SWAP1 DUP1 PUSH1 0x3 ADD SLOAD SWAP1 POP DUP5 JUMP JUMPDEST DUP4 PUSH1 0x7 PUSH1 0x0 DUP8 PUSH20 0xFFFFFFFFFFFFFFFFFFFFFFFFFFFFFFFFFFFFFFFF AND PUSH20 0xFFFFFFFFFFFFFFFFFFFFFFFFFFFFFFFFFFFFFFFF AND DUP2 MSTORE PUSH1 0x20 ADD SWAP1 DUP2 MSTORE PUSH1 0x20 ADD PUSH1 0x0 KECCAK256 PUSH1 0x0 ADD PUSH1 0x0 DUP3 DUP3 SLOAD PUSH2 0x1CD5 SWAP2 SWAP1 PUSH2 0x3578 JUMP JUMPDEST SWAP3 POP POP DUP2 SWAP1 SSTORE POP DUP3 PUSH1 0x7 PUSH1 0x0 DUP8 PUSH20 0xFFFFFFFFFFFFFFFFFFFFFFFFFFFFFFFFFFFFFFFF AND PUSH20 0xFFFFFFFFFFFFFFFFFFFFFFFFFFFFFFFFFFFFFFFF AND DUP2 MSTORE PUSH1 0x20 ADD SWAP1 DUP2 MSTORE PUSH1 0x20 ADD PUSH1 0x0 KECCAK256 PUSH1 0x1 ADD PUSH1 0x0 DUP3 DUP3 SLOAD PUSH2 0x1D2E SWAP2 SWAP1 PUSH2 0x3578 JUMP JUMPDEST SWAP3 POP POP DUP2 SWAP1 SSTORE POP DUP2 PUSH1 0x7 PUSH1 0x0 DUP8 PUSH20 0xFFFFFFFFFFFFFFFFFFFFFFFFFFFFFFFFFFFFFFFF AND PUSH20 0xFFFFFFFFFFFFFFFFFFFFFFFFFFFFFFFFFFFFFFFF AND DUP2 MSTORE PUSH1 0x20 ADD SWAP1 DUP2 MSTORE PUSH1 0x20 ADD PUSH1 0x0 KECCAK256 PUSH1 0x2 ADD PUSH1 0x0 DUP3 DUP3 SLOAD PUSH2 0x1D87 SWAP2 SWAP1 PUSH2 0x3578 JUMP JUMPDEST SWAP3 POP POP DUP2 SWAP1 SSTORE POP DUP1 PUSH1 0x7 PUSH1 0x0 DUP8 PUSH20 0xFFFFFFFFFFFFFFFFFFFFFFFFFFFFFFFFFFFFFFFF AND PUSH20 0xFFFFFFFFFFFFFFFFFFFFFFFFFFFFFFFFFFFFFFFF AND DUP2 MSTORE PUSH1 0x20 ADD SWAP1 DUP2 MSTORE PUSH1 0x20 ADD PUSH1 0x0 KECCAK256 PUSH1 0x3 ADD PUSH1 0x0 DUP3 DUP3 SLOAD PUSH2 0x1DE0 SWAP2 SWAP1 PUSH2 0x3578 JUMP JUMPDEST SWAP3 POP POP DUP2 SWAP1 SSTORE POP POP POP POP POP POP JUMP JUMPDEST PUSH1 0x0 DUP1 PUSH1 0x0 DUP1 PUSH1 0x7 PUSH1 0x0 DUP7 PUSH20 0xFFFFFFFFFFFFFFFFFFFFFFFFFFFFFFFFFFFFFFFF AND PUSH20 0xFFFFFFFFFFFFFFFFFFFFFFFFFFFFFFFFFFFFFFFF AND DUP2 MSTORE PUSH1 0x20 ADD SWAP1 DUP2 MSTORE PUSH1 0x20 ADD PUSH1 0x0 KECCAK256 PUSH1 0x2 ADD SLOAD PUSH1 0x7 PUSH1 0x0 DUP8 PUSH20 0xFFFFFFFFFFFFFFFFFFFFFFFFFFFFFFFFFFFFFFFF AND PUSH20 0xFFFFFFFFFFFFFFFFFFFFFFFFFFFFFFFFFFFFFFFF AND DUP2 MSTORE PUSH1 0x20 ADD SWAP1 DUP2 MSTORE PUSH1 0x20 ADD PUSH1 0x0 KECCAK256 PUSH1 0x3 ADD SLOAD PUSH1 0x7 PUSH1 0x0 DUP9 PUSH20 0xFFFFFFFFFFFFFFFFFFFFFFFFFFFFFFFFFFFFFFFF AND PUSH20 0xFFFFFFFFFFFFFFFFFFFFFFFFFFFFFFFFFFFFFFFF AND DUP2 MSTORE PUSH1 0x20 ADD SWAP1 DUP2 MSTORE PUSH1 0x20 ADD PUSH1 0x0 KECCAK256 PUSH1 0x0 ADD SLOAD PUSH1 0x7 PUSH1 0x0 DUP10 PUSH20 0xFFFFFFFFFFFFFFFFFFFFFFFFFFFFFFFFFFFFFFFF AND PUSH20 0xFFFFFFFFFFFFFFFFFFFFFFFFFFFFFFFFFFFFFFFF AND DUP2 MSTORE PUSH1 0x20 ADD SWAP1 DUP2 MSTORE PUSH1 0x20 ADD PUSH1 0x0 KECCAK256 PUSH1 0x1 ADD SLOAD SWAP4 POP SWAP4 POP SWAP4 POP SWAP4 POP SWAP2 SWAP4 POP SWAP2 SWAP4 JUMP JUMPDEST PUSH1 0x5 PUSH1 0x0 CALLER PUSH20 0xFFFFFFFFFFFFFFFFFFFFFFFFFFFFFFFFFFFFFFFF AND PUSH20 0xFFFFFFFFFFFFFFFFFFFFFFFFFFFFFFFFFFFFFFFF AND DUP2 MSTORE PUSH1 0x20 ADD SWAP1 DUP2 MSTORE PUSH1 0x20 ADD PUSH1 0x0 KECCAK256 PUSH1 0x1 ADD PUSH1 0x0 SWAP1 SLOAD SWAP1 PUSH2 0x100 EXP SWAP1 DIV PUSH1 0xFF AND ISZERO PUSH1 0x40 MLOAD DUP1 PUSH1 0x40 ADD PUSH1 0x40 MSTORE DUP1 PUSH1 0x5 DUP2 MSTORE PUSH1 0x20 ADD PUSH32 0x574D552D34000000000000000000000000000000000000000000000000000000 DUP2 MSTORE POP SWAP1 PUSH2 0x1FD7 JUMPI PUSH1 0x40 MLOAD PUSH32 0x8C379A000000000000000000000000000000000000000000000000000000000 DUP2 MSTORE PUSH1 0x4 ADD PUSH2 0x1FCE SWAP2 SWAP1 PUSH2 0x3280 JUMP JUMPDEST PUSH1 0x40 MLOAD DUP1 SWAP2 SUB SWAP1 REVERT JUMPDEST POP PUSH1 0x0 PUSH20 0xFFFFFFFFFFFFFFFFFFFFFFFFFFFFFFFFFFFFFFFF AND PUSH1 0x6 DUP3 PUSH1 0x40 MLOAD PUSH2 0x2000 SWAP2 SWAP1 PUSH2 0x3187 JUMP JUMPDEST SWAP1 DUP2 MSTORE PUSH1 0x20 ADD PUSH1 0x40 MLOAD DUP1 SWAP2 SUB SWAP1 KECCAK256 PUSH1 0x0 SWAP1 SLOAD SWAP1 PUSH2 0x100 EXP SWAP1 DIV PUSH20 0xFFFFFFFFFFFFFFFFFFFFFFFFFFFFFFFFFFFFFFFF AND PUSH20 0xFFFFFFFFFFFFFFFFFFFFFFFFFFFFFFFFFFFFFFFF AND EQ PUSH1 0x40 MLOAD DUP1 PUSH1 0x40 ADD PUSH1 0x40 MSTORE DUP1 PUSH1 0x5 DUP2 MSTORE PUSH1 0x20 ADD PUSH32 0x574D552D36000000000000000000000000000000000000000000000000000000 DUP2 MSTORE POP SWAP1 PUSH2 0x20BD JUMPI PUSH1 0x40 MLOAD PUSH32 0x8C379A000000000000000000000000000000000000000000000000000000000 DUP2 MSTORE PUSH1 0x4 ADD PUSH2 0x20B4 SWAP2 SWAP1 PUSH2 0x3280 JUMP JUMPDEST PUSH1 0x40 MLOAD DUP1 SWAP2 SUB SWAP1 REVERT JUMPDEST POP DUP1 PUSH1 0x5 PUSH1 0x0 CALLER PUSH20 0xFFFFFFFFFFFFFFFFFFFFFFFFFFFFFFFFFFFFFFFF AND PUSH20 0xFFFFFFFFFFFFFFFFFFFFFFFFFFFFFFFFFFFFFFFF AND DUP2 MSTORE PUSH1 0x20 ADD SWAP1 DUP2 MSTORE PUSH1 0x20 ADD PUSH1 0x0 KECCAK256 PUSH1 0x0 ADD SWAP1 DUP1 MLOAD SWAP1 PUSH1 0x20 ADD SWAP1 PUSH2 0x2114 SWAP3 SWAP2 SWAP1 PUSH2 0x2B06 JUMP JUMPDEST POP PUSH1 0x1 PUSH1 0x5 PUSH1 0x0 CALLER PUSH20 0xFFFFFFFFFFFFFFFFFFFFFFFFFFFFFFFFFFFFFFFF AND PUSH20 0xFFFFFFFFFFFFFFFFFFFFFFFFFFFFFFFFFFFFFFFF AND DUP2 MSTORE PUSH1 0x20 ADD SWAP1 DUP2 MSTORE PUSH1 0x20 ADD PUSH1 0x0 KECCAK256 PUSH1 0x1 ADD PUSH1 0x0 PUSH2 0x100 EXP DUP2 SLOAD DUP2 PUSH1 0xFF MUL NOT AND SWAP1 DUP4 ISZERO ISZERO MUL OR SWAP1 SSTORE POP TIMESTAMP PUSH1 0x5 PUSH1 0x0 CALLER PUSH20 0xFFFFFFFFFFFFFFFFFFFFFFFFFFFFFFFFFFFFFFFF AND PUSH20 0xFFFFFFFFFFFFFFFFFFFFFFFFFFFFFFFFFFFFFFFF AND DUP2 MSTORE PUSH1 0x20 ADD SWAP1 DUP2 MSTORE PUSH1 0x20 ADD PUSH1 0x0 KECCAK256 PUSH1 0x2 ADD DUP2 SWAP1 SSTORE POP PUSH1 0x1 PUSH1 0x5 PUSH1 0x0 CALLER PUSH20 0xFFFFFFFFFFFFFFFFFFFFFFFFFFFFFFFFFFFFFFFF AND PUSH20 0xFFFFFFFFFFFFFFFFFFFFFFFFFFFFFFFFFFFFFFFF AND DUP2 MSTORE PUSH1 0x20 ADD SWAP1 DUP2 MSTORE PUSH1 0x20 ADD PUSH1 0x0 KECCAK256 PUSH1 0x3 ADD PUSH1 0x0 PUSH2 0x100 EXP DUP2 SLOAD DUP2 PUSH1 0xFF MUL NOT AND SWAP1 DUP4 ISZERO ISZERO MUL OR SWAP1 SSTORE POP CALLER PUSH1 0x6 DUP3 PUSH1 0x40 MLOAD PUSH2 0x2223 SWAP2 SWAP1 PUSH2 0x3187 JUMP JUMPDEST SWAP1 DUP2 MSTORE PUSH1 0x20 ADD PUSH1 0x40 MLOAD DUP1 SWAP2 SUB SWAP1 KECCAK256 PUSH1 0x0 PUSH2 0x100 EXP DUP2 SLOAD DUP2 PUSH20 0xFFFFFFFFFFFFFFFFFFFFFFFFFFFFFFFFFFFFFFFF MUL NOT AND SWAP1 DUP4 PUSH20 0xFFFFFFFFFFFFFFFFFFFFFFFFFFFFFFFFFFFFFFFF AND MUL OR SWAP1 SSTORE POP CALLER PUSH20 0xFFFFFFFFFFFFFFFFFFFFFFFFFFFFFFFFFFFFFFFF AND PUSH32 0xEE20C2C019DCBCA8D08FF74C4CE6F465E02D3611905C9ACEEB76A0C8E429AF2F DUP3 TIMESTAMP PUSH1 0x40 MLOAD PUSH2 0x22B7 SWAP3 SWAP2 SWAP1 PUSH2 0x3412 JUMP JUMPDEST PUSH1 0x40 MLOAD DUP1 SWAP2 SUB SWAP1 LOG2 POP JUMP JUMPDEST PUSH1 0x3 PUSH1 0x20 MSTORE DUP2 PUSH1 0x0 MSTORE PUSH1 0x40 PUSH1 0x0 KECCAK256 DUP2 DUP2 SLOAD DUP2 LT PUSH2 0x22DE JUMPI PUSH1 0x0 DUP1 REVERT JUMPDEST SWAP1 PUSH1 0x0 MSTORE PUSH1 0x20 PUSH1 0x0 KECCAK256 ADD PUSH1 0x0 SWAP2 POP SWAP2 POP POP SLOAD DUP2 JUMP JUMPDEST PUSH1 0x60 DUP1 PUSH1 0x60 DUP1 PUSH1 0x60 DUP1 PUSH1 0x60 PUSH1 0x40 MLOAD DUP1 PUSH1 0x40 ADD PUSH1 0x40 MSTORE DUP1 PUSH1 0x6 DUP2 MSTORE PUSH1 0x20 ADD PUSH32 0x4156415441520000000000000000000000000000000000000000000000000000 DUP2 MSTORE POP PUSH1 0x40 MLOAD DUP1 PUSH1 0x40 ADD PUSH1 0x40 MSTORE DUP1 PUSH1 0x7 DUP2 MSTORE PUSH1 0x20 ADD PUSH32 0x5049435455524500000000000000000000000000000000000000000000000000 DUP2 MSTORE POP PUSH1 0x40 MLOAD DUP1 PUSH1 0x40 ADD PUSH1 0x40 MSTORE DUP1 PUSH1 0xE DUP2 MSTORE PUSH1 0x20 ADD PUSH32 0x47454E455241544956455F415254000000000000000000000000000000000000 DUP2 MSTORE POP PUSH1 0x40 MLOAD DUP1 PUSH1 0x40 ADD PUSH1 0x40 MSTORE DUP1 PUSH1 0x3 DUP2 MSTORE PUSH1 0x20 ADD PUSH32 0x4152540000000000000000000000000000000000000000000000000000000000 DUP2 MSTORE POP PUSH1 0x40 MLOAD DUP1 PUSH1 0x40 ADD PUSH1 0x40 MSTORE DUP1 PUSH1 0xC DUP2 MSTORE PUSH1 0x20 ADD PUSH32 0x434F4C4C45435449424C45530000000000000000000000000000000000000000 DUP2 MSTORE POP PUSH1 0x40 MLOAD DUP1 PUSH1 0x40 ADD PUSH1 0x40 MSTORE DUP1 PUSH1 0x8 DUP2 MSTORE PUSH1 0x20 ADD PUSH32 0x47414D4946494544000000000000000000000000000000000000000000000000 DUP2 MSTORE POP PUSH1 0x40 MLOAD DUP1 PUSH1 0x40 ADD PUSH1 0x40 MSTORE DUP1 PUSH1 0x5 DUP2 MSTORE PUSH1 0x20 ADD PUSH32 0x4F54484552000000000000000000000000000000000000000000000000000000 DUP2 MSTORE POP SWAP7 POP SWAP7 POP SWAP7 POP SWAP7 POP SWAP7 POP SWAP7 POP SWAP7 POP SWAP1 SWAP2 SWAP3 SWAP4 SWAP5 SWAP6 SWAP7 JUMP JUMPDEST PUSH1 0x60 PUSH1 0x5 PUSH1 0x0 CALLER PUSH20 0xFFFFFFFFFFFFFFFFFFFFFFFFFFFFFFFFFFFFFFFF AND PUSH20 0xFFFFFFFFFFFFFFFFFFFFFFFFFFFFFFFFFFFFFFFF AND DUP2 MSTORE PUSH1 0x20 ADD SWAP1 DUP2 MSTORE PUSH1 0x20 ADD PUSH1 0x0 KECCAK256 PUSH1 0x3 ADD PUSH1 0x0 SWAP1 SLOAD SWAP1 PUSH2 0x100 EXP SWAP1 DIV PUSH1 0xFF AND PUSH1 0x40 MLOAD DUP1 PUSH1 0x40 ADD PUSH1 0x40 MSTORE DUP1 PUSH1 0x5 DUP2 MSTORE PUSH1 0x20 ADD PUSH32 0x574D552D32000000000000000000000000000000000000000000000000000000 DUP2 MSTORE POP SWAP1 PUSH2 0x2558 JUMPI PUSH1 0x40 MLOAD PUSH32 0x8C379A000000000000000000000000000000000000000000000000000000000 DUP2 MSTORE PUSH1 0x4 ADD PUSH2 0x254F SWAP2 SWAP1 PUSH2 0x3280 JUMP JUMPDEST PUSH1 0x40 MLOAD DUP1 SWAP2 SUB SWAP1 REVERT JUMPDEST POP PUSH1 0x5 PUSH1 0x0 CALLER PUSH20 0xFFFFFFFFFFFFFFFFFFFFFFFFFFFFFFFFFFFFFFFF AND PUSH20 0xFFFFFFFFFFFFFFFFFFFFFFFFFFFFFFFFFFFFFFFF AND DUP2 MSTORE PUSH1 0x20 ADD SWAP1 DUP2 MSTORE PUSH1 0x20 ADD PUSH1 0x0 KECCAK256 PUSH1 0x0 ADD DUP1 SLOAD PUSH2 0x25A6 SWAP1 PUSH2 0x3687 JUMP JUMPDEST DUP1 PUSH1 0x1F ADD PUSH1 0x20 DUP1 SWAP2 DIV MUL PUSH1 0x20 ADD PUSH1 0x40 MLOAD SWAP1 DUP2 ADD PUSH1 0x40 MSTORE DUP1 SWAP3 SWAP2 SWAP1 DUP2 DUP2 MSTORE PUSH1 0x20 ADD DUP3 DUP1 SLOAD PUSH2 0x25D2 SWAP1 PUSH2 0x3687 JUMP JUMPDEST DUP1 ISZERO PUSH2 0x261F JUMPI DUP1 PUSH1 0x1F LT PUSH2 0x25F4 JUMPI PUSH2 0x100 DUP1 DUP4 SLOAD DIV MUL DUP4 MSTORE SWAP2 PUSH1 0x20 ADD SWAP2 PUSH2 0x261F JUMP JUMPDEST DUP3 ADD SWAP2 SWAP1 PUSH1 0x0 MSTORE PUSH1 0x20 PUSH1 0x0 KECCAK256 SWAP1 JUMPDEST DUP2 SLOAD DUP2 MSTORE SWAP1 PUSH1 0x1 ADD SWAP1 PUSH1 0x20 ADD DUP1 DUP4 GT PUSH2 0x2602 JUMPI DUP3 SWAP1 SUB PUSH1 0x1F AND DUP3 ADD SWAP2 JUMPDEST POP POP POP POP POP SWAP1 POP SWAP1 JUMP JUMPDEST CALLER PUSH20 0xFFFFFFFFFFFFFFFFFFFFFFFFFFFFFFFFFFFFFFFF AND PUSH1 0x0 DUP1 SLOAD SWAP1 PUSH2 0x100 EXP SWAP1 DIV PUSH20 0xFFFFFFFFFFFFFFFFFFFFFFFFFFFFFFFFFFFFFFFF AND PUSH20 0xFFFFFFFFFFFFFFFFFFFFFFFFFFFFFFFFFFFFFFFF AND EQ PUSH2 0x26B7 JUMPI PUSH1 0x40 MLOAD PUSH32 0x8C379A000000000000000000000000000000000000000000000000000000000 DUP2 MSTORE PUSH1 0x4 ADD PUSH2 0x26AE SWAP1 PUSH2 0x3442 JUMP JUMPDEST PUSH1 0x40 MLOAD DUP1 SWAP2 SUB SWAP1 REVERT JUMPDEST DUP2 PUSH1 0x1 PUSH1 0x0 DUP4 DUP2 MSTORE PUSH1 0x20 ADD SWAP1 DUP2 MSTORE PUSH1 0x20 ADD PUSH1 0x0 KECCAK256 PUSH1 0x3 ADD PUSH1 0x0 PUSH2 0x100 EXP DUP2 SLOAD DUP2 PUSH20 0xFFFFFFFFFFFFFFFFFFFFFFFFFFFFFFFFFFFFFFFF MUL NOT AND SWAP1 DUP4 PUSH20 0xFFFFFFFFFFFFFFFFFFFFFFFFFFFFFFFFFFFFFFFF AND MUL OR SWAP1 SSTORE POP PUSH1 0x2 PUSH1 0x0 DUP4 PUSH20 0xFFFFFFFFFFFFFFFFFFFFFFFFFFFFFFFFFFFFFFFF AND PUSH20 0xFFFFFFFFFFFFFFFFFFFFFFFFFFFFFFFFFFFFFFFF AND DUP2 MSTORE PUSH1 0x20 ADD SWAP1 DUP2 MSTORE PUSH1 0x20 ADD PUSH1 0x0 KECCAK256 DUP2 SWAP1 DUP1 PUSH1 0x1 DUP2 SLOAD ADD DUP1 DUP3 SSTORE DUP1 SWAP2 POP POP PUSH1 0x1 SWAP1 SUB SWAP1 PUSH1 0x0 MSTORE PUSH1 0x20 PUSH1 0x0 KECCAK256 ADD PUSH1 0x0 SWAP1 SWAP2 SWAP1 SWAP2 SWAP1 SWAP2 POP SSTORE POP POP POP JUMP JUMPDEST PUSH1 0x60 PUSH1 0x4 PUSH1 0x0 CALLER PUSH20 0xFFFFFFFFFFFFFFFFFFFFFFFFFFFFFFFFFFFFFFFF AND PUSH20 0xFFFFFFFFFFFFFFFFFFFFFFFFFFFFFFFFFFFFFFFF AND DUP2 MSTORE PUSH1 0x20 ADD SWAP1 DUP2 MSTORE PUSH1 0x20 ADD PUSH1 0x0 KECCAK256 PUSH1 0x0 DUP4 PUSH1 0x6 DUP2 GT ISZERO PUSH2 0x27F3 JUMPI PUSH32 0x4E487B7100000000000000000000000000000000000000000000000000000000 PUSH1 0x0 MSTORE PUSH1 0x21 PUSH1 0x4 MSTORE PUSH1 0x24 PUSH1 0x0 REVERT JUMPDEST PUSH1 0x6 DUP2 GT ISZERO PUSH2 0x282B JUMPI PUSH32 0x4E487B7100000000000000000000000000000000000000000000000000000000 PUSH1 0x0 MSTORE PUSH1 0x21 PUSH1 0x4 MSTORE PUSH1 0x24 PUSH1 0x0 REVERT JUMPDEST DUP2 MSTORE PUSH1 0x20 ADD SWAP1 DUP2 MSTORE PUSH1 0x20 ADD PUSH1 0x0 KECCAK256 DUP1 SLOAD DUP1 PUSH1 0x20 MUL PUSH1 0x20 ADD PUSH1 0x40 MLOAD SWAP1 DUP2 ADD PUSH1 0x40 MSTORE DUP1 SWAP3 SWAP2 SWAP1 DUP2 DUP2 MSTORE PUSH1 0x20 ADD DUP3 DUP1 SLOAD DUP1 ISZERO PUSH2 0x2883 JUMPI PUSH1 0x20 MUL DUP3 ADD SWAP2 SWAP1 PUSH1 0x0 MSTORE PUSH1 0x20 PUSH1 0x0 KECCAK256 SWAP1 JUMPDEST DUP2 SLOAD DUP2 MSTORE PUSH1 0x20 ADD SWAP1 PUSH1 0x1 ADD SWAP1 DUP1 DUP4 GT PUSH2 0x286F JUMPI JUMPDEST POP POP POP POP POP SWAP1 POP SWAP2 SWAP1 POP JUMP JUMPDEST PUSH1 0x4 PUSH1 0x20 MSTORE DUP3 PUSH1 0x0 MSTORE PUSH1 0x40 PUSH1 0x0 KECCAK256 PUSH1 0x20 MSTORE DUP2 PUSH1 0x0 MSTORE PUSH1 0x40 PUSH1 0x0 KECCAK256 DUP2 DUP2 SLOAD DUP2 LT PUSH2 0x28B7 JUMPI PUSH1 0x0 DUP1 REVERT JUMPDEST SWAP1 PUSH1 0x0 MSTORE PUSH1 0x20 PUSH1 0x0 KECCAK256 ADD PUSH1 0x0 SWAP3 POP SWAP3 POP POP POP SLOAD DUP2 JUMP JUMPDEST PUSH1 0x60 PUSH1 0x3 PUSH1 0x0 DUP4 PUSH1 0x6 DUP2 GT ISZERO PUSH2 0x290C JUMPI PUSH32 0x4E487B7100000000000000000000000000000000000000000000000000000000 PUSH1 0x0 MSTORE PUSH1 0x21 PUSH1 0x4 MSTORE PUSH1 0x24 PUSH1 0x0 REVERT JUMPDEST PUSH1 0x6 DUP2 GT ISZERO PUSH2 0x2944 JUMPI PUSH32 0x4E487B7100000000000000000000000000000000000000000000000000000000 PUSH1 0x0 MSTORE PUSH1 0x21 PUSH1 0x4 MSTORE PUSH1 0x24 PUSH1 0x0 REVERT JUMPDEST DUP2 MSTORE PUSH1 0x20 ADD SWAP1 DUP2 MSTORE PUSH1 0x20 ADD PUSH1 0x0 KECCAK256 DUP1 SLOAD DUP1 PUSH1 0x20 MUL PUSH1 0x20 ADD PUSH1 0x40 MLOAD SWAP1 DUP2 ADD PUSH1 0x40 MSTORE DUP1 SWAP3 SWAP2 SWAP1 DUP2 DUP2 MSTORE PUSH1 0x20 ADD DUP3 DUP1 SLOAD DUP1 ISZERO PUSH2 0x299C JUMPI PUSH1 0x20 MUL DUP3 ADD SWAP2 SWAP1 PUSH1 0x0 MSTORE PUSH1 0x20 PUSH1 0x0 KECCAK256 SWAP1 JUMPDEST DUP2 SLOAD DUP2 MSTORE PUSH1 0x20 ADD SWAP1 PUSH1 0x1 ADD SWAP1 DUP1 DUP4 GT PUSH2 0x2988 JUMPI JUMPDEST POP POP POP POP POP SWAP1 POP SWAP2 SWAP1 POP JUMP JUMPDEST PUSH1 0x60 PUSH1 0x5 PUSH1 0x0 CALLER PUSH20 0xFFFFFFFFFFFFFFFFFFFFFFFFFFFFFFFFFFFFFFFF AND PUSH20 0xFFFFFFFFFFFFFFFFFFFFFFFFFFFFFFFFFFFFFFFF AND DUP2 MSTORE PUSH1 0x20 ADD SWAP1 DUP2 MSTORE PUSH1 0x20 ADD PUSH1 0x0 KECCAK256 PUSH1 0x4 ADD DUP1 SLOAD PUSH2 0x29F7 SWAP1 PUSH2 0x3687 JUMP JUMPDEST DUP1 PUSH1 0x1F ADD PUSH1 0x20 DUP1 SWAP2 DIV MUL PUSH1 0x20 ADD PUSH1 0x40 MLOAD SWAP1 DUP2 ADD PUSH1 0x40 MSTORE DUP1 SWAP3 SWAP2 SWAP1 DUP2 DUP2 MSTORE PUSH1 0x20 ADD DUP3 DUP1 SLOAD PUSH2 0x2A23 SWAP1 PUSH2 0x3687 JUMP JUMPDEST DUP1 ISZERO PUSH2 0x2A70 JUMPI DUP1 PUSH1 0x1F LT PUSH2 0x2A45 JUMPI PUSH2 0x100 DUP1 DUP4 SLOAD DIV MUL DUP4 MSTORE SWAP2 PUSH1 0x20 ADD SWAP2 PUSH2 0x2A70 JUMP JUMPDEST DUP3 ADD SWAP2 SWAP1 PUSH1 0x0 MSTORE PUSH1 0x20 PUSH1 0x0 KECCAK256 SWAP1 JUMPDEST DUP2 SLOAD DUP2 MSTORE SWAP1 PUSH1 0x1 ADD SWAP1 PUSH1 0x20 ADD DUP1 DUP4 GT PUSH2 0x2A53 JUMPI DUP3 SWAP1 SUB PUSH1 0x1F AND DUP3 ADD SWAP2 JUMPDEST POP POP POP POP POP SWAP1 POP SWAP1 JUMP JUMPDEST PUSH1 0x0 PUSH1 0x5 PUSH1 0x0 DUP4 PUSH20 0xFFFFFFFFFFFFFFFFFFFFFFFFFFFFFFFFFFFFFFFF AND PUSH20 0xFFFFFFFFFFFFFFFFFFFFFFFFFFFFFFFFFFFFFFFF AND DUP2 MSTORE PUSH1 0x20 ADD SWAP1 DUP2 MSTORE PUSH1 0x20 ADD PUSH1 0x0 KECCAK256 PUSH1 0x3 ADD PUSH1 0x0 SWAP1 SLOAD SWAP1 PUSH2 0x100 EXP SWAP1 DIV PUSH1 0xFF AND SWAP1 POP SWAP2 SWAP1 POP JUMP JUMPDEST PUSH1 0x0 DUP3 DUP3 PUSH1 0x40 MLOAD PUSH1 0x20 ADD PUSH2 0x2AE8 SWAP3 SWAP2 SWAP1 PUSH2 0x315B JUMP JUMPDEST PUSH1 0x40 MLOAD PUSH1 0x20 DUP2 DUP4 SUB SUB DUP2 MSTORE SWAP1 PUSH1 0x40 MSTORE DUP1 MLOAD SWAP1 PUSH1 0x20 ADD KECCAK256 SWAP1 POP SWAP3 SWAP2 POP POP JUMP JUMPDEST DUP3 DUP1 SLOAD PUSH2 0x2B12 SWAP1 PUSH2 0x3687 JUMP JUMPDEST SWAP1 PUSH1 0x0 MSTORE PUSH1 0x20 PUSH1 0x0 KECCAK256 SWAP1 PUSH1 0x1F ADD PUSH1 0x20 SWAP1 DIV DUP2 ADD SWAP3 DUP3 PUSH2 0x2B34 JUMPI PUSH1 0x0 DUP6 SSTORE PUSH2 0x2B7B JUMP JUMPDEST DUP3 PUSH1 0x1F LT PUSH2 0x2B4D JUMPI DUP1 MLOAD PUSH1 0xFF NOT AND DUP4 DUP1 ADD OR DUP6 SSTORE PUSH2 0x2B7B JUMP JUMPDEST DUP3 DUP1 ADD PUSH1 0x1 ADD DUP6 SSTORE DUP3 ISZERO PUSH2 0x2B7B JUMPI SWAP2 DUP3 ADD JUMPDEST DUP3 DUP2 GT ISZERO PUSH2 0x2B7A JUMPI DUP3 MLOAD DUP3 SSTORE SWAP2 PUSH1 0x20 ADD SWAP2 SWAP1 PUSH1 0x1 ADD SWAP1 PUSH2 0x2B5F JUMP JUMPDEST JUMPDEST POP SWAP1 POP PUSH2 0x2B88 SWAP2 SWAP1 PUSH2 0x2BCC JUMP JUMPDEST POP SWAP1 JUMP JUMPDEST POP DUP1 SLOAD PUSH2 0x2B98 SWAP1 PUSH2 0x3687 JUMP JUMPDEST PUSH1 0x0 DUP3 SSTORE DUP1 PUSH1 0x1F LT PUSH2 0x2BAA JUMPI POP PUSH2 0x2BC9 JUMP JUMPDEST PUSH1 0x1F ADD PUSH1 0x20 SWAP1 DIV SWAP1 PUSH1 0x0 MSTORE PUSH1 0x20 PUSH1 0x0 KECCAK256 SWAP1 DUP2 ADD SWAP1 PUSH2 0x2BC8 SWAP2 SWAP1 PUSH2 0x2BCC JUMP JUMPDEST JUMPDEST POP JUMP JUMPDEST JUMPDEST DUP1 DUP3 GT ISZERO PUSH2 0x2BE5 JUMPI PUSH1 0x0 DUP2 PUSH1 0x0 SWAP1 SSTORE POP PUSH1 0x1 ADD PUSH2 0x2BCD JUMP JUMPDEST POP SWAP1 JUMP JUMPDEST PUSH1 0x0 PUSH2 0x2BFC PUSH2 0x2BF7 DUP5 PUSH2 0x34E7 JUMP JUMPDEST PUSH2 0x34C2 JUMP JUMPDEST SWAP1 POP DUP3 DUP2 MSTORE PUSH1 0x20 DUP2 ADD DUP5 DUP5 DUP5 ADD GT ISZERO PUSH2 0x2C14 JUMPI PUSH1 0x0 DUP1 REVERT JUMPDEST PUSH2 0x2C1F DUP5 DUP3 DUP6 PUSH2 0x3645 JUMP JUMPDEST POP SWAP4 SWAP3 POP POP POP JUMP JUMPDEST PUSH1 0x0 DUP2 CALLDATALOAD SWAP1 POP PUSH2 0x2C36 DUP2 PUSH2 0x382F JUMP JUMPDEST SWAP3 SWAP2 POP POP JUMP JUMPDEST PUSH1 0x0 DUP2 CALLDATALOAD SWAP1 POP PUSH2 0x2C4B DUP2 PUSH2 0x3846 JUMP JUMPDEST SWAP3 SWAP2 POP POP JUMP JUMPDEST PUSH1 0x0 DUP2 CALLDATALOAD SWAP1 POP PUSH2 0x2C60 DUP2 PUSH2 0x385D JUMP JUMPDEST SWAP3 SWAP2 POP POP JUMP JUMPDEST PUSH1 0x0 DUP3 PUSH1 0x1F DUP4 ADD SLT PUSH2 0x2C77 JUMPI PUSH1 0x0 DUP1 REVERT JUMPDEST DUP2 CALLDATALOAD PUSH2 0x2C87 DUP5 DUP3 PUSH1 0x20 DUP7 ADD PUSH2 0x2BE9 JUMP JUMPDEST SWAP2 POP POP SWAP3 SWAP2 POP POP JUMP JUMPDEST PUSH1 0x0 DUP2 CALLDATALOAD SWAP1 POP PUSH2 0x2C9F DUP2 PUSH2 0x386D JUMP JUMPDEST SWAP3 SWAP2 POP POP JUMP JUMPDEST PUSH1 0x0 PUSH1 0x20 DUP3 DUP5 SUB SLT ISZERO PUSH2 0x2CB7 JUMPI PUSH1 0x0 DUP1 REVERT JUMPDEST PUSH1 0x0 PUSH2 0x2CC5 DUP5 DUP3 DUP6 ADD PUSH2 0x2C27 JUMP JUMPDEST SWAP2 POP POP SWAP3 SWAP2 POP POP JUMP JUMPDEST PUSH1 0x0 DUP1 PUSH1 0x0 PUSH1 0x60 DUP5 DUP7 SUB SLT ISZERO PUSH2 0x2CE3 JUMPI PUSH1 0x0 DUP1 REVERT JUMPDEST PUSH1 0x0 PUSH2 0x2CF1 DUP7 DUP3 DUP8 ADD PUSH2 0x2C27 JUMP JUMPDEST SWAP4 POP POP PUSH1 0x20 PUSH2 0x2D02 DUP7 DUP3 DUP8 ADD PUSH2 0x2C27 JUMP JUMPDEST SWAP3 POP POP PUSH1 0x40 PUSH2 0x2D13 DUP7 DUP3 DUP8 ADD PUSH2 0x2C3C JUMP JUMPDEST SWAP2 POP POP SWAP3 POP SWAP3 POP SWAP3 JUMP JUMPDEST PUSH1 0x0 DUP1 PUSH1 0x0 PUSH1 0x60 DUP5 DUP7 SUB SLT ISZERO PUSH2 0x2D32 JUMPI PUSH1 0x0 DUP1 REVERT JUMPDEST PUSH1 0x0 PUSH2 0x2D40 DUP7 DUP3 DUP8 ADD PUSH2 0x2C27 JUMP JUMPDEST SWAP4 POP POP PUSH1 0x20 PUSH2 0x2D51 DUP7 DUP3 DUP8 ADD PUSH2 0x2C51 JUMP JUMPDEST SWAP3 POP POP PUSH1 0x40 PUSH2 0x2D62 DUP7 DUP3 DUP8 ADD PUSH2 0x2C90 JUMP JUMPDEST SWAP2 POP POP SWAP3 POP SWAP3 POP SWAP3 JUMP JUMPDEST PUSH1 0x0 DUP1 PUSH1 0x40 DUP4 DUP6 SUB SLT ISZERO PUSH2 0x2D7F JUMPI PUSH1 0x0 DUP1 REVERT JUMPDEST PUSH1 0x0 PUSH2 0x2D8D DUP6 DUP3 DUP7 ADD PUSH2 0x2C27 JUMP JUMPDEST SWAP3 POP POP PUSH1 0x20 PUSH2 0x2D9E DUP6 DUP3 DUP7 ADD PUSH2 0x2C90 JUMP JUMPDEST SWAP2 POP POP SWAP3 POP SWAP3 SWAP1 POP JUMP JUMPDEST PUSH1 0x0 DUP1 PUSH1 0x0 PUSH1 0x60 DUP5 DUP7 SUB SLT ISZERO PUSH2 0x2DBD JUMPI PUSH1 0x0 DUP1 REVERT JUMPDEST PUSH1 0x0 PUSH2 0x2DCB DUP7 DUP3 DUP8 ADD PUSH2 0x2C27 JUMP JUMPDEST SWAP4 POP POP PUSH1 0x20 PUSH2 0x2DDC DUP7 DUP3 DUP8 ADD PUSH2 0x2C90 JUMP JUMPDEST SWAP3 POP POP PUSH1 0x40 PUSH2 0x2DED DUP7 DUP3 DUP8 ADD PUSH2 0x2C51 JUMP JUMPDEST SWAP2 POP POP SWAP3 POP SWAP3 POP SWAP3 JUMP JUMPDEST PUSH1 0x0 DUP1 PUSH1 0x0 DUP1 PUSH1 0x0 PUSH1 0xA0 DUP7 DUP9 SUB SLT ISZERO PUSH2 0x2E0F JUMPI PUSH1 0x0 DUP1 REVERT JUMPDEST PUSH1 0x0 PUSH2 0x2E1D DUP9 DUP3 DUP10 ADD PUSH2 0x2C27 JUMP JUMPDEST SWAP6 POP POP PUSH1 0x20 PUSH2 0x2E2E DUP9 DUP3 DUP10 ADD PUSH2 0x2C90 JUMP JUMPDEST SWAP5 POP POP PUSH1 0x40 PUSH2 0x2E3F DUP9 DUP3 DUP10 ADD PUSH2 0x2C90 JUMP JUMPDEST SWAP4 POP POP PUSH1 0x60 PUSH2 0x2E50 DUP9 DUP3 DUP10 ADD PUSH2 0x2C90 JUMP JUMPDEST SWAP3 POP POP PUSH1 0x80 PUSH2 0x2E61 DUP9 DUP3 DUP10 ADD PUSH2 0x2C90 JUMP JUMPDEST SWAP2 POP POP SWAP3 SWAP6 POP SWAP3 SWAP6 SWAP1 SWAP4 POP JUMP JUMPDEST PUSH1 0x0 PUSH1 0x20 DUP3 DUP5 SUB SLT ISZERO PUSH2 0x2E80 JUMPI PUSH1 0x0 DUP1 REVERT JUMPDEST PUSH1 0x0 PUSH2 0x2E8E DUP5 DUP3 DUP6 ADD PUSH2 0x2C3C JUMP JUMPDEST SWAP2 POP POP SWAP3 SWAP2 POP POP JUMP JUMPDEST PUSH1 0x0 PUSH1 0x20 DUP3 DUP5 SUB SLT ISZERO PUSH2 0x2EA9 JUMPI PUSH1 0x0 DUP1 REVERT JUMPDEST PUSH1 0x0 PUSH2 0x2EB7 DUP5 DUP3 DUP6 ADD PUSH2 0x2C51 JUMP JUMPDEST SWAP2 POP POP SWAP3 SWAP2 POP POP JUMP JUMPDEST PUSH1 0x0 DUP1 PUSH1 0x40 DUP4 DUP6 SUB SLT ISZERO PUSH2 0x2ED3 JUMPI PUSH1 0x0 DUP1 REVERT JUMPDEST PUSH1 0x0 PUSH2 0x2EE1 DUP6 DUP3 DUP7 ADD PUSH2 0x2C51 JUMP JUMPDEST SWAP3 POP POP PUSH1 0x20 PUSH2 0x2EF2 DUP6 DUP3 DUP7 ADD PUSH2 0x2C90 JUMP JUMPDEST SWAP2 POP POP SWAP3 POP SWAP3 SWAP1 POP JUMP JUMPDEST PUSH1 0x0 PUSH1 0x20 DUP3 DUP5 SUB SLT ISZERO PUSH2 0x2F0E JUMPI PUSH1 0x0 DUP1 REVERT JUMPDEST PUSH1 0x0 DUP3 ADD CALLDATALOAD PUSH8 0xFFFFFFFFFFFFFFFF DUP2 GT ISZERO PUSH2 0x2F28 JUMPI PUSH1 0x0 DUP1 REVERT JUMPDEST PUSH2 0x2F34 DUP5 DUP3 DUP6 ADD PUSH2 0x2C66 JUMP JUMPDEST SWAP2 POP POP SWAP3 SWAP2 POP POP JUMP JUMPDEST PUSH1 0x0 DUP1 PUSH1 0x0 DUP1 PUSH1 0x80 DUP6 DUP8 SUB SLT ISZERO PUSH2 0x2F53 JUMPI PUSH1 0x0 DUP1 REVERT JUMPDEST PUSH1 0x0 DUP6 ADD CALLDATALOAD PUSH8 0xFFFFFFFFFFFFFFFF DUP2 GT ISZERO PUSH2 0x2F6D JUMPI PUSH1 0x0 DUP1 REVERT JUMPDEST PUSH2 0x2F79 DUP8 DUP3 DUP9 ADD PUSH2 0x2C66 JUMP JUMPDEST SWAP5 POP POP PUSH1 0x20 PUSH2 0x2F8A DUP8 DUP3 DUP9 ADD PUSH2 0x2C27 JUMP JUMPDEST SWAP4 POP POP PUSH1 0x40 PUSH2 0x2F9B DUP8 DUP3 DUP9 ADD PUSH2 0x2C90 JUMP JUMPDEST SWAP3 POP POP PUSH1 0x60 DUP6 ADD CALLDATALOAD PUSH8 0xFFFFFFFFFFFFFFFF DUP2 GT ISZERO PUSH2 0x2FB8 JUMPI PUSH1 0x0 DUP1 REVERT JUMPDEST PUSH2 0x2FC4 DUP8 DUP3 DUP9 ADD PUSH2 0x2C66 JUMP JUMPDEST SWAP2 POP POP SWAP3 SWAP6 SWAP2 SWAP5 POP SWAP3 POP JUMP JUMPDEST PUSH1 0x0 PUSH2 0x2FDC DUP4 DUP4 PUSH2 0x307B JUMP JUMPDEST PUSH1 0x20 DUP4 ADD SWAP1 POP SWAP3 SWAP2 POP POP JUMP JUMPDEST PUSH2 0x2FF1 DUP2 PUSH2 0x35CE JUMP JUMPDEST DUP3 MSTORE POP POP JUMP JUMPDEST PUSH2 0x3008 PUSH2 0x3003 DUP3 PUSH2 0x35CE JUMP JUMPDEST PUSH2 0x36EA JUMP JUMPDEST DUP3 MSTORE POP POP JUMP JUMPDEST PUSH1 0x0 PUSH2 0x3019 DUP3 PUSH2 0x3528 JUMP JUMPDEST PUSH2 0x3023 DUP2 DUP6 PUSH2 0x354B JUMP JUMPDEST SWAP4 POP PUSH2 0x302E DUP4 PUSH2 0x3518 JUMP JUMPDEST DUP1 PUSH1 0x0 JUMPDEST DUP4 DUP2 LT ISZERO PUSH2 0x305F JUMPI DUP2 MLOAD PUSH2 0x3046 DUP9 DUP3 PUSH2 0x2FD0 JUMP JUMPDEST SWAP8 POP PUSH2 0x3051 DUP4 PUSH2 0x353E JUMP JUMPDEST SWAP3 POP POP PUSH1 0x1 DUP2 ADD SWAP1 POP PUSH2 0x3032 JUMP JUMPDEST POP DUP6 SWAP4 POP POP POP POP SWAP3 SWAP2 POP POP JUMP JUMPDEST PUSH2 0x3075 DUP2 PUSH2 0x35E0 JUMP JUMPDEST DUP3 MSTORE POP POP JUMP JUMPDEST PUSH2 0x3084 DUP2 PUSH2 0x35EC JUMP JUMPDEST DUP3 MSTORE POP POP JUMP JUMPDEST PUSH2 0x3093 DUP2 PUSH2 0x35EC JUMP JUMPDEST DUP3 MSTORE POP POP JUMP JUMPDEST PUSH2 0x30A2 DUP2 PUSH2 0x3633 JUMP JUMPDEST DUP3 MSTORE POP POP JUMP JUMPDEST PUSH1 0x0 PUSH2 0x30B3 DUP3 PUSH2 0x3533 JUMP JUMPDEST PUSH2 0x30BD DUP2 DUP6 PUSH2 0x355C JUMP JUMPDEST SWAP4 POP PUSH2 0x30CD DUP2 DUP6 PUSH1 0x20 DUP7 ADD PUSH2 0x3654 JUMP JUMPDEST PUSH2 0x30D6 DUP2 PUSH2 0x37D4 JUMP JUMPDEST DUP5 ADD SWAP2 POP POP SWAP3 SWAP2 POP POP JUMP JUMPDEST PUSH1 0x0 PUSH2 0x30EC DUP3 PUSH2 0x3533 JUMP JUMPDEST PUSH2 0x30F6 DUP2 DUP6 PUSH2 0x356D JUMP JUMPDEST SWAP4 POP PUSH2 0x3106 DUP2 DUP6 PUSH1 0x20 DUP7 ADD PUSH2 0x3654 JUMP JUMPDEST DUP1 DUP5 ADD SWAP2 POP POP SWAP3 SWAP2 POP POP JUMP JUMPDEST PUSH1 0x0 PUSH2 0x311F PUSH1 0x13 DUP4 PUSH2 0x355C JUMP JUMPDEST SWAP2 POP PUSH2 0x312A DUP3 PUSH2 0x37F2 JUMP JUMPDEST PUSH1 0x20 DUP3 ADD SWAP1 POP SWAP2 SWAP1 POP JUMP JUMPDEST PUSH2 0x313E DUP2 PUSH2 0x3629 JUMP JUMPDEST DUP3 MSTORE POP POP JUMP JUMPDEST PUSH2 0x3155 PUSH2 0x3150 DUP3 PUSH2 0x3629 JUMP JUMPDEST PUSH2 0x370E JUMP JUMPDEST DUP3 MSTORE POP POP JUMP JUMPDEST PUSH1 0x0 PUSH2 0x3167 DUP3 DUP6 PUSH2 0x2FF7 JUMP JUMPDEST PUSH1 0x14 DUP3 ADD SWAP2 POP PUSH2 0x3177 DUP3 DUP5 PUSH2 0x3144 JUMP JUMPDEST PUSH1 0x20 DUP3 ADD SWAP2 POP DUP2 SWAP1 POP SWAP4 SWAP3 POP POP POP JUMP JUMPDEST PUSH1 0x0 PUSH2 0x3193 DUP3 DUP5 PUSH2 0x30E1 JUMP JUMPDEST SWAP2 POP DUP2 SWAP1 POP SWAP3 SWAP2 POP POP JUMP JUMPDEST PUSH1 0x0 PUSH1 0x20 DUP3 ADD SWAP1 POP PUSH2 0x31B3 PUSH1 0x0 DUP4 ADD DUP5 PUSH2 0x2FE8 JUMP JUMPDEST SWAP3 SWAP2 POP POP JUMP JUMPDEST PUSH1 0x0 PUSH1 0x20 DUP3 ADD SWAP1 POP DUP2 DUP2 SUB PUSH1 0x0 DUP4 ADD MSTORE PUSH2 0x31D3 DUP2 DUP5 PUSH2 0x300E JUMP JUMPDEST SWAP1 POP SWAP3 SWAP2 POP POP JUMP JUMPDEST PUSH1 0x0 PUSH1 0x20 DUP3 ADD SWAP1 POP PUSH2 0x31F0 PUSH1 0x0 DUP4 ADD DUP5 PUSH2 0x306C JUMP JUMPDEST SWAP3 SWAP2 POP POP JUMP JUMPDEST PUSH1 0x0 PUSH1 0x20 DUP3 ADD SWAP1 POP PUSH2 0x320B PUSH1 0x0 DUP4 ADD DUP5 PUSH2 0x308A JUMP JUMPDEST SWAP3 SWAP2 POP POP JUMP JUMPDEST PUSH1 0x0 PUSH1 0xC0 DUP3 ADD SWAP1 POP PUSH2 0x3226 PUSH1 0x0 DUP4 ADD DUP10 PUSH2 0x308A JUMP JUMPDEST PUSH2 0x3233 PUSH1 0x20 DUP4 ADD DUP9 PUSH2 0x2FE8 JUMP JUMPDEST PUSH2 0x3240 PUSH1 0x40 DUP4 ADD DUP8 PUSH2 0x3135 JUMP JUMPDEST DUP2 DUP2 SUB PUSH1 0x60 DUP4 ADD MSTORE PUSH2 0x3252 DUP2 DUP7 PUSH2 0x30A8 JUMP JUMPDEST SWAP1 POP PUSH2 0x3261 PUSH1 0x80 DUP4 ADD DUP6 PUSH2 0x2FE8 JUMP JUMPDEST DUP2 DUP2 SUB PUSH1 0xA0 DUP4 ADD MSTORE PUSH2 0x3273 DUP2 DUP5 PUSH2 0x30A8 JUMP JUMPDEST SWAP1 POP SWAP8 SWAP7 POP POP POP POP POP POP POP JUMP JUMPDEST PUSH1 0x0 PUSH1 0x20 DUP3 ADD SWAP1 POP DUP2 DUP2 SUB PUSH1 0x0 DUP4 ADD MSTORE PUSH2 0x329A DUP2 DUP5 PUSH2 0x30A8 JUMP JUMPDEST SWAP1 POP SWAP3 SWAP2 POP POP JUMP JUMPDEST PUSH1 0x0 PUSH1 0xA0 DUP3 ADD SWAP1 POP DUP2 DUP2 SUB PUSH1 0x0 DUP4 ADD MSTORE PUSH2 0x32BC DUP2 DUP9 PUSH2 0x30A8 JUMP JUMPDEST SWAP1 POP PUSH2 0x32CB PUSH1 0x20 DUP4 ADD DUP8 PUSH2 0x2FE8 JUMP JUMPDEST PUSH2 0x32D8 PUSH1 0x40 DUP4 ADD DUP7 PUSH2 0x3135 JUMP JUMPDEST PUSH2 0x32E5 PUSH1 0x60 DUP4 ADD DUP6 PUSH2 0x2FE8 JUMP JUMPDEST DUP2 DUP2 SUB PUSH1 0x80 DUP4 ADD MSTORE PUSH2 0x32F7 DUP2 DUP5 PUSH2 0x30A8 JUMP JUMPDEST SWAP1 POP SWAP7 SWAP6 POP POP POP POP POP POP JUMP JUMPDEST PUSH1 0x0 PUSH1 0xC0 DUP3 ADD SWAP1 POP DUP2 DUP2 SUB PUSH1 0x0 DUP4 ADD MSTORE PUSH2 0x331D DUP2 DUP10 PUSH2 0x30A8 JUMP JUMPDEST SWAP1 POP PUSH2 0x332C PUSH1 0x20 DUP4 ADD DUP9 PUSH2 0x2FE8 JUMP JUMPDEST PUSH2 0x3339 PUSH1 0x40 DUP4 ADD DUP8 PUSH2 0x3135 JUMP JUMPDEST PUSH2 0x3346 PUSH1 0x60 DUP4 ADD DUP7 PUSH2 0x2FE8 JUMP JUMPDEST DUP2 DUP2 SUB PUSH1 0x80 DUP4 ADD MSTORE PUSH2 0x3358 DUP2 DUP6 PUSH2 0x30A8 JUMP JUMPDEST SWAP1 POP PUSH2 0x3367 PUSH1 0xA0 DUP4 ADD DUP5 PUSH2 0x3099 JUMP JUMPDEST SWAP8 SWAP7 POP POP POP POP POP POP POP JUMP JUMPDEST PUSH1 0x0 PUSH1 0xE0 DUP3 ADD SWAP1 POP DUP2 DUP2 SUB PUSH1 0x0 DUP4 ADD MSTORE PUSH2 0x338C DUP2 DUP11 PUSH2 0x30A8 JUMP JUMPDEST SWAP1 POP DUP2 DUP2 SUB PUSH1 0x20 DUP4 ADD MSTORE PUSH2 0x33A0 DUP2 DUP10 PUSH2 0x30A8 JUMP JUMPDEST SWAP1 POP DUP2 DUP2 SUB PUSH1 0x40 DUP4 ADD MSTORE PUSH2 0x33B4 DUP2 DUP9 PUSH2 0x30A8 JUMP JUMPDEST SWAP1 POP DUP2 DUP2 SUB PUSH1 0x60 DUP4 ADD MSTORE PUSH2 0x33C8 DUP2 DUP8 PUSH2 0x30A8 JUMP JUMPDEST SWAP1 POP DUP2 DUP2 SUB PUSH1 0x80 DUP4 ADD MSTORE PUSH2 0x33DC DUP2 DUP7 PUSH2 0x30A8 JUMP JUMPDEST SWAP1 POP DUP2 DUP2 SUB PUSH1 0xA0 DUP4 ADD MSTORE PUSH2 0x33F0 DUP2 DUP6 PUSH2 0x30A8 JUMP JUMPDEST SWAP1 POP DUP2 DUP2 SUB PUSH1 0xC0 DUP4 ADD MSTORE PUSH2 0x3404 DUP2 DUP5 PUSH2 0x30A8 JUMP JUMPDEST SWAP1 POP SWAP9 SWAP8 POP POP POP POP POP POP POP POP JUMP JUMPDEST PUSH1 0x0 PUSH1 0x40 DUP3 ADD SWAP1 POP DUP2 DUP2 SUB PUSH1 0x0 DUP4 ADD MSTORE PUSH2 0x342C DUP2 DUP6 PUSH2 0x30A8 JUMP JUMPDEST SWAP1 POP PUSH2 0x343B PUSH1 0x20 DUP4 ADD DUP5 PUSH2 0x3135 JUMP JUMPDEST SWAP4 SWAP3 POP POP POP JUMP JUMPDEST PUSH1 0x0 PUSH1 0x20 DUP3 ADD SWAP1 POP DUP2 DUP2 SUB PUSH1 0x0 DUP4 ADD MSTORE PUSH2 0x345B DUP2 PUSH2 0x3112 JUMP JUMPDEST SWAP1 POP SWAP2 SWAP1 POP JUMP JUMPDEST PUSH1 0x0 PUSH1 0x20 DUP3 ADD SWAP1 POP PUSH2 0x3477 PUSH1 0x0 DUP4 ADD DUP5 PUSH2 0x3135 JUMP JUMPDEST SWAP3 SWAP2 POP POP JUMP JUMPDEST PUSH1 0x0 PUSH1 0x80 DUP3 ADD SWAP1 POP PUSH2 0x3492 PUSH1 0x0 DUP4 ADD DUP8 PUSH2 0x3135 JUMP JUMPDEST PUSH2 0x349F PUSH1 0x20 DUP4 ADD DUP7 PUSH2 0x3135 JUMP JUMPDEST PUSH2 0x34AC PUSH1 0x40 DUP4 ADD DUP6 PUSH2 0x3135 JUMP JUMPDEST PUSH2 0x34B9 PUSH1 0x60 DUP4 ADD DUP5 PUSH2 0x3135 JUMP JUMPDEST SWAP6 SWAP5 POP POP POP POP POP JUMP JUMPDEST PUSH1 0x0 PUSH2 0x34CC PUSH2 0x34DD JUMP JUMPDEST SWAP1 POP PUSH2 0x34D8 DUP3 DUP3 PUSH2 0x36B9 JUMP JUMPDEST SWAP2 SWAP1 POP JUMP JUMPDEST PUSH1 0x0 PUSH1 0x40 MLOAD SWAP1 POP SWAP1 JUMP JUMPDEST PUSH1 0x0 PUSH8 0xFFFFFFFFFFFFFFFF DUP3 GT ISZERO PUSH2 0x3502 JUMPI PUSH2 0x3501 PUSH2 0x37A5 JUMP JUMPDEST JUMPDEST PUSH2 0x350B DUP3 PUSH2 0x37D4 JUMP JUMPDEST SWAP1 POP PUSH1 0x20 DUP2 ADD SWAP1 POP SWAP2 SWAP1 POP JUMP JUMPDEST PUSH1 0x0 DUP2 SWAP1 POP PUSH1 0x20 DUP3 ADD SWAP1 POP SWAP2 SWAP1 POP JUMP JUMPDEST PUSH1 0x0 DUP2 MLOAD SWAP1 POP SWAP2 SWAP1 POP JUMP JUMPDEST PUSH1 0x0 DUP2 MLOAD SWAP1 POP SWAP2 SWAP1 POP JUMP JUMPDEST PUSH1 0x0 PUSH1 0x20 DUP3 ADD SWAP1 POP SWAP2 SWAP1 POP JUMP JUMPDEST PUSH1 0x0 DUP3 DUP3 MSTORE PUSH1 0x20 DUP3 ADD SWAP1 POP SWAP3 SWAP2 POP POP JUMP JUMPDEST PUSH1 0x0 DUP3 DUP3 MSTORE PUSH1 0x20 DUP3 ADD SWAP1 POP SWAP3 SWAP2 POP POP JUMP JUMPDEST PUSH1 0x0 DUP2 SWAP1 POP SWAP3 SWAP2 POP POP JUMP JUMPDEST PUSH1 0x0 PUSH2 0x3583 DUP3 PUSH2 0x3629 JUMP JUMPDEST SWAP2 POP PUSH2 0x358E DUP4 PUSH2 0x3629 JUMP JUMPDEST SWAP3 POP DUP3 PUSH32 0xFFFFFFFFFFFFFFFFFFFFFFFFFFFFFFFFFFFFFFFFFFFFFFFFFFFFFFFFFFFFFFFF SUB DUP3 GT ISZERO PUSH2 0x35C3 JUMPI PUSH2 0x35C2 PUSH2 0x3718 JUMP JUMPDEST JUMPDEST DUP3 DUP3 ADD SWAP1 POP SWAP3 SWAP2 POP POP JUMP JUMPDEST PUSH1 0x0 PUSH2 0x35D9 DUP3 PUSH2 0x3609 JUMP JUMPDEST SWAP1 POP SWAP2 SWAP1 POP JUMP JUMPDEST PUSH1 0x0 DUP2 ISZERO ISZERO SWAP1 POP SWAP2 SWAP1 POP JUMP JUMPDEST PUSH1 0x0 DUP2 SWAP1 POP SWAP2 SWAP1 POP JUMP JUMPDEST PUSH1 0x0 DUP2 SWAP1 POP PUSH2 0x3604 DUP3 PUSH2 0x381B JUMP JUMPDEST SWAP2 SWAP1 POP JUMP JUMPDEST PUSH1 0x0 PUSH20 0xFFFFFFFFFFFFFFFFFFFFFFFFFFFFFFFFFFFFFFFF DUP3 AND SWAP1 POP SWAP2 SWAP1 POP JUMP JUMPDEST PUSH1 0x0 DUP2 SWAP1 POP SWAP2 SWAP1 POP JUMP JUMPDEST PUSH1 0x0 PUSH2 0x363E DUP3 PUSH2 0x35F6 JUMP JUMPDEST SWAP1 POP SWAP2 SWAP1 POP JUMP JUMPDEST DUP3 DUP2 DUP4 CALLDATACOPY PUSH1 0x0 DUP4 DUP4 ADD MSTORE POP POP POP JUMP JUMPDEST PUSH1 0x0 JUMPDEST DUP4 DUP2 LT ISZERO PUSH2 0x3672 JUMPI DUP1 DUP3 ADD MLOAD DUP2 DUP5 ADD MSTORE PUSH1 0x20 DUP2 ADD SWAP1 POP PUSH2 0x3657 JUMP JUMPDEST DUP4 DUP2 GT ISZERO PUSH2 0x3681 JUMPI PUSH1 0x0 DUP5 DUP5 ADD MSTORE JUMPDEST POP POP POP POP JUMP JUMPDEST PUSH1 0x0 PUSH1 0x2 DUP3 DIV SWAP1 POP PUSH1 0x1 DUP3 AND DUP1 PUSH2 0x369F JUMPI PUSH1 0x7F DUP3 AND SWAP2 POP JUMPDEST PUSH1 0x20 DUP3 LT DUP2 EQ ISZERO PUSH2 0x36B3 JUMPI PUSH2 0x36B2 PUSH2 0x3776 JUMP JUMPDEST JUMPDEST POP SWAP2 SWAP1 POP JUMP JUMPDEST PUSH2 0x36C2 DUP3 PUSH2 0x37D4 JUMP JUMPDEST DUP2 ADD DUP2 DUP2 LT PUSH8 0xFFFFFFFFFFFFFFFF DUP3 GT OR ISZERO PUSH2 0x36E1 JUMPI PUSH2 0x36E0 PUSH2 0x37A5 JUMP JUMPDEST JUMPDEST DUP1 PUSH1 0x40 MSTORE POP POP POP JUMP JUMPDEST PUSH1 0x0 PUSH2 0x36F5 DUP3 PUSH2 0x36FC JUMP JUMPDEST SWAP1 POP SWAP2 SWAP1 POP JUMP JUMPDEST PUSH1 0x0 PUSH2 0x3707 DUP3 PUSH2 0x37E5 JUMP JUMPDEST SWAP1 POP SWAP2 SWAP1 POP JUMP JUMPDEST PUSH1 0x0 DUP2 SWAP1 POP SWAP2 SWAP1 POP JUMP JUMPDEST PUSH32 0x4E487B7100000000000000000000000000000000000000000000000000000000 PUSH1 0x0 MSTORE PUSH1 0x11 PUSH1 0x4 MSTORE PUSH1 0x24 PUSH1 0x0 REVERT JUMPDEST PUSH32 0x4E487B7100000000000000000000000000000000000000000000000000000000 PUSH1 0x0 MSTORE PUSH1 0x21 PUSH1 0x4 MSTORE PUSH1 0x24 PUSH1 0x0 REVERT JUMPDEST PUSH32 0x4E487B7100000000000000000000000000000000000000000000000000000000 PUSH1 0x0 MSTORE PUSH1 0x22 PUSH1 0x4 MSTORE PUSH1 0x24 PUSH1 0x0 REVERT JUMPDEST PUSH32 0x4E487B7100000000000000000000000000000000000000000000000000000000 PUSH1 0x0 MSTORE PUSH1 0x41 PUSH1 0x4 MSTORE PUSH1 0x24 PUSH1 0x0 REVERT JUMPDEST PUSH1 0x0 PUSH1 0x1F NOT PUSH1 0x1F DUP4 ADD AND SWAP1 POP SWAP2 SWAP1 POP JUMP JUMPDEST PUSH1 0x0 DUP2 PUSH1 0x60 SHL SWAP1 POP SWAP2 SWAP1 POP JUMP JUMPDEST PUSH32 0x63616C6C2066726F6D2077726F6E67204D502E00000000000000000000000000 PUSH1 0x0 DUP3 ADD MSTORE POP JUMP JUMPDEST PUSH1 0x7 DUP2 LT PUSH2 0x382C JUMPI PUSH2 0x382B PUSH2 0x3747 JUMP JUMPDEST JUMPDEST POP JUMP JUMPDEST PUSH2 0x3838 DUP2 PUSH2 0x35CE JUMP JUMPDEST DUP2 EQ PUSH2 0x3843 JUMPI PUSH1 0x0 DUP1 REVERT JUMPDEST POP JUMP JUMPDEST PUSH2 0x384F DUP2 PUSH2 0x35EC JUMP JUMPDEST DUP2 EQ PUSH2 0x385A JUMPI PUSH1 0x0 DUP1 REVERT JUMPDEST POP JUMP JUMPDEST PUSH1 0x7 DUP2 LT PUSH2 0x386A JUMPI PUSH1 0x0 DUP1 REVERT JUMPDEST POP JUMP JUMPDEST PUSH2 0x3876 DUP2 PUSH2 0x3629 JUMP JUMPDEST DUP2 EQ PUSH2 0x3881 JUMPI PUSH1 0x0 DUP1 REVERT JUMPDEST POP JUMP INVALID LOG2 PUSH5 0x6970667358 0x22 SLT KECCAK256 GASPRICE 0xE3 BYTE SLT 0xB3 DUP7 DUP9 SUB CREATE SMOD CODECOPY 0xDC 0xC4 0x5D 0xD CALL CREATE 0x1E DUP13 SWAP5 PUSH20 0x624E75D233DD9E82974B8E64736F6C6343000804 STOP CALLER "
				},
				"gasEstimates": {
					"creation": {
						"codeDepositCost": "2904400",
						"executionCost": "infinite",
						"totalCost": "infinite"
					},
					"external": {
						"addressToAmountRecord(address)": "infinite",
						"checkLogIn(address)": "1699",
						"checkUser()": "infinite",
						"deleteUser()": "infinite",
						"getAllNftCatWise(uint8)": "infinite",
						"getNft(address,uint256)": "infinite",
						"getNftCategories()": "infinite",
						"getNftWithBytes32(bytes32)": "infinite",
						"getProfilePic()": "infinite",
						"getUniKeysMapping(address)": "infinite",
						"getUserNftCatWise(uint8)": "infinite",
						"logIn()": "infinite",
						"logOut()": "infinite",
						"myNFTs(bytes32)": "infinite",
						"nftCatWise(uint8,uint256)": "2586",
						"setAmountRecord(address,uint256,uint256,uint256,uint256)": "infinite",
						"setBuyNftData(address,address,bytes32)": "infinite",
						"setNft(string,address,uint256,string)": "infinite",
						"setNftCat(address,uint256,uint8)": "infinite",
						"setProfilePic(string)": "infinite",
						"signUp(string)": "infinite",
						"uniKeysMapping(address,uint256)": "2701",
						"updateUser(string)": "infinite",
						"userAmountDetail(address)": "infinite",
						"userNameToAddress(string)": "infinite",
						"userNftCatWise(address,uint8,uint256)": "2801"
					}
				},
				"methodIdentifiers": {
					"addressToAmountRecord(address)": "7111e750",
					"checkLogIn(address)": "f6f2ede0",
					"checkUser()": "c1562547",
					"deleteUser()": "026ff05e",
					"getAllNftCatWise(uint8)": "e36d6f50",
					"getNft(address,uint256)": "1c6932b6",
					"getNftCategories()": "bbc53ef2",
					"getNftWithBytes32(bytes32)": "3a196986",
					"getProfilePic()": "eb972008",
					"getUniKeysMapping(address)": "5cb0122a",
					"getUserNftCatWise(uint8)": "da31f722",
					"logIn()": "377b47a3",
					"logOut()": "4be422ae",
					"myNFTs(bytes32)": "07edbdc5",
					"nftCatWise(uint8,uint256)": "b2cf1886",
					"setAmountRecord(address,uint256,uint256,uint256,uint256)": "894fd813",
					"setBuyNftData(address,address,bytes32)": "ceda3b20",
					"setNft(string,address,uint256,string)": "6e9d4f8d",
					"setNftCat(address,uint256,uint8)": "2ae23109",
					"setProfilePic(string)": "011f2cce",
					"signUp(string)": "adcfb4fc",
					"uniKeysMapping(address,uint256)": "23e583b4",
					"updateUser(string)": "0b4f12f6",
					"userAmountDetail(address)": "8a1b9736",
					"userNameToAddress(string)": "6c608709",
					"userNftCatWise(address,uint8,uint256)": "dc9151c5"
				}
			},
			"storageLayout": {
				"storage": [
					{
						"astId": 722,
						"contract": "Bluelight-MP/UserDashboard.sol:UserDashboard",
						"label": "marketplace",
						"offset": 0,
						"slot": "0",
						"type": "t_contract(IWaterMelon)379"
					},
					{
						"astId": 747,
						"contract": "Bluelight-MP/UserDashboard.sol:UserDashboard",
						"label": "myNFTs",
						"offset": 0,
						"slot": "1",
						"type": "t_mapping(t_bytes32,t_struct(MyNFT)802_storage)"
					},
					{
						"astId": 752,
						"contract": "Bluelight-MP/UserDashboard.sol:UserDashboard",
						"label": "uniKeysMapping",
						"offset": 0,
						"slot": "2",
						"type": "t_mapping(t_address,t_array(t_bytes32)dyn_storage)"
					},
					{
						"astId": 758,
						"contract": "Bluelight-MP/UserDashboard.sol:UserDashboard",
						"label": "nftCatWise",
						"offset": 0,
						"slot": "3",
						"type": "t_mapping(t_enum(NftCategory)788,t_array(t_bytes32)dyn_storage)"
					},
					{
						"astId": 766,
						"contract": "Bluelight-MP/UserDashboard.sol:UserDashboard",
						"label": "userNftCatWise",
						"offset": 0,
						"slot": "4",
						"type": "t_mapping(t_address,t_mapping(t_enum(NftCategory)788,t_array(t_bytes32)dyn_storage))"
					},
					{
						"astId": 771,
						"contract": "Bluelight-MP/UserDashboard.sol:UserDashboard",
						"label": "users",
						"offset": 0,
						"slot": "5",
						"type": "t_mapping(t_address,t_struct(User)813_storage)"
					},
					{
						"astId": 775,
						"contract": "Bluelight-MP/UserDashboard.sol:UserDashboard",
						"label": "userNameToAddress",
						"offset": 0,
						"slot": "6",
						"type": "t_mapping(t_string_memory_ptr,t_address)"
					},
					{
						"astId": 780,
						"contract": "Bluelight-MP/UserDashboard.sol:UserDashboard",
						"label": "addressToAmountRecord",
						"offset": 0,
						"slot": "7",
						"type": "t_mapping(t_address,t_struct(AmountRecord)822_storage)"
					}
				],
				"types": {
					"t_address": {
						"encoding": "inplace",
						"label": "address",
						"numberOfBytes": "20"
					},
					"t_array(t_bytes32)dyn_storage": {
						"base": "t_bytes32",
						"encoding": "dynamic_array",
						"label": "bytes32[]",
						"numberOfBytes": "32"
					},
					"t_bool": {
						"encoding": "inplace",
						"label": "bool",
						"numberOfBytes": "1"
					},
					"t_bytes32": {
						"encoding": "inplace",
						"label": "bytes32",
						"numberOfBytes": "32"
					},
					"t_contract(IWaterMelon)379": {
						"encoding": "inplace",
						"label": "contract IWaterMelon",
						"numberOfBytes": "20"
					},
					"t_enum(NftCategory)788": {
						"encoding": "inplace",
						"label": "enum UserDashboard.NftCategory",
						"numberOfBytes": "1"
					},
					"t_mapping(t_address,t_array(t_bytes32)dyn_storage)": {
						"encoding": "mapping",
						"key": "t_address",
						"label": "mapping(address => bytes32[])",
						"numberOfBytes": "32",
						"value": "t_array(t_bytes32)dyn_storage"
					},
					"t_mapping(t_address,t_mapping(t_enum(NftCategory)788,t_array(t_bytes32)dyn_storage))": {
						"encoding": "mapping",
						"key": "t_address",
						"label": "mapping(address => mapping(enum UserDashboard.NftCategory => bytes32[]))",
						"numberOfBytes": "32",
						"value": "t_mapping(t_enum(NftCategory)788,t_array(t_bytes32)dyn_storage)"
					},
					"t_mapping(t_address,t_struct(AmountRecord)822_storage)": {
						"encoding": "mapping",
						"key": "t_address",
						"label": "mapping(address => struct UserDashboard.AmountRecord)",
						"numberOfBytes": "32",
						"value": "t_struct(AmountRecord)822_storage"
					},
					"t_mapping(t_address,t_struct(User)813_storage)": {
						"encoding": "mapping",
						"key": "t_address",
						"label": "mapping(address => struct UserDashboard.User)",
						"numberOfBytes": "32",
						"value": "t_struct(User)813_storage"
					},
					"t_mapping(t_bytes32,t_struct(MyNFT)802_storage)": {
						"encoding": "mapping",
						"key": "t_bytes32",
						"label": "mapping(bytes32 => struct UserDashboard.MyNFT)",
						"numberOfBytes": "32",
						"value": "t_struct(MyNFT)802_storage"
					},
					"t_mapping(t_enum(NftCategory)788,t_array(t_bytes32)dyn_storage)": {
						"encoding": "mapping",
						"key": "t_enum(NftCategory)788",
						"label": "mapping(enum UserDashboard.NftCategory => bytes32[])",
						"numberOfBytes": "32",
						"value": "t_array(t_bytes32)dyn_storage"
					},
					"t_mapping(t_string_memory_ptr,t_address)": {
						"encoding": "mapping",
						"key": "t_string_memory_ptr",
						"label": "mapping(string => address)",
						"numberOfBytes": "32",
						"value": "t_address"
					},
					"t_string_memory_ptr": {
						"encoding": "bytes",
						"label": "string",
						"numberOfBytes": "32"
					},
					"t_string_storage": {
						"encoding": "bytes",
						"label": "string",
						"numberOfBytes": "32"
					},
					"t_struct(AmountRecord)822_storage": {
						"encoding": "inplace",
						"label": "struct UserDashboard.AmountRecord",
						"members": [
							{
								"astId": 815,
								"contract": "Bluelight-MP/UserDashboard.sol:UserDashboard",
								"label": "curAmountSpent",
								"offset": 0,
								"slot": "0",
								"type": "t_uint256"
							},
							{
								"astId": 817,
								"contract": "Bluelight-MP/UserDashboard.sol:UserDashboard",
								"label": "tokenAmountSpent",
								"offset": 0,
								"slot": "1",
								"type": "t_uint256"
							},
							{
								"astId": 819,
								"contract": "Bluelight-MP/UserDashboard.sol:UserDashboard",
								"label": "curAmountEarned",
								"offset": 0,
								"slot": "2",
								"type": "t_uint256"
							},
							{
								"astId": 821,
								"contract": "Bluelight-MP/UserDashboard.sol:UserDashboard",
								"label": "tokenAmountEarned",
								"offset": 0,
								"slot": "3",
								"type": "t_uint256"
							}
						],
						"numberOfBytes": "128"
					},
					"t_struct(MyNFT)802_storage": {
						"encoding": "inplace",
						"label": "struct UserDashboard.MyNFT",
						"members": [
							{
								"astId": 790,
								"contract": "Bluelight-MP/UserDashboard.sol:UserDashboard",
								"label": "nftName",
								"offset": 0,
								"slot": "0",
								"type": "t_string_storage"
							},
							{
								"astId": 792,
								"contract": "Bluelight-MP/UserDashboard.sol:UserDashboard",
								"label": "contractAddress",
								"offset": 0,
								"slot": "1",
								"type": "t_address"
							},
							{
								"astId": 794,
								"contract": "Bluelight-MP/UserDashboard.sol:UserDashboard",
								"label": "tokenId",
								"offset": 0,
								"slot": "2",
								"type": "t_uint256"
							},
							{
								"astId": 796,
								"contract": "Bluelight-MP/UserDashboard.sol:UserDashboard",
								"label": "owner",
								"offset": 0,
								"slot": "3",
								"type": "t_address"
							},
							{
								"astId": 798,
								"contract": "Bluelight-MP/UserDashboard.sol:UserDashboard",
								"label": "ipfs",
								"offset": 0,
								"slot": "4",
								"type": "t_string_storage"
							},
							{
								"astId": 801,
								"contract": "Bluelight-MP/UserDashboard.sol:UserDashboard",
								"label": "nftCategory",
								"offset": 0,
								"slot": "5",
								"type": "t_enum(NftCategory)788"
							}
						],
						"numberOfBytes": "192"
					},
					"t_struct(User)813_storage": {
						"encoding": "inplace",
						"label": "struct UserDashboard.User",
						"members": [
							{
								"astId": 804,
								"contract": "Bluelight-MP/UserDashboard.sol:UserDashboard",
								"label": "userName",
								"offset": 0,
								"slot": "0",
								"type": "t_string_storage"
							},
							{
								"astId": 806,
								"contract": "Bluelight-MP/UserDashboard.sol:UserDashboard",
								"label": "userExisted",
								"offset": 0,
								"slot": "1",
								"type": "t_bool"
							},
							{
								"astId": 808,
								"contract": "Bluelight-MP/UserDashboard.sol:UserDashboard",
								"label": "creationTime",
								"offset": 0,
								"slot": "2",
								"type": "t_uint256"
							},
							{
								"astId": 810,
								"contract": "Bluelight-MP/UserDashboard.sol:UserDashboard",
								"label": "loggedIn",
								"offset": 0,
								"slot": "3",
								"type": "t_bool"
							},
							{
								"astId": 812,
								"contract": "Bluelight-MP/UserDashboard.sol:UserDashboard",
								"label": "profilePic",
								"offset": 0,
								"slot": "4",
								"type": "t_string_storage"
							}
						],
						"numberOfBytes": "160"
					},
					"t_uint256": {
						"encoding": "inplace",
						"label": "uint256",
						"numberOfBytes": "32"
					}
				}
			},
			"userdoc": {
				"kind": "user",
				"methods": {},
				"version": 1
			}
		}
	}
}