{
	"Bluelight-MP/UserDashboard.sol": {
		"UserDashboard": {
			"abi": [
				{
					"inputs": [
						{
							"internalType": "address",
							"name": "wmAddr",
							"type": "address"
						}
					],
					"stateMutability": "nonpayable",
					"type": "constructor"
				},
				{
					"anonymous": false,
					"inputs": [
						{
							"indexed": true,
							"internalType": "address",
							"name": "user",
							"type": "address"
						},
						{
							"indexed": false,
							"internalType": "uint256",
							"name": "timeStamp",
							"type": "uint256"
						}
					],
					"name": "LoggingIn",
					"type": "event"
				},
				{
					"anonymous": false,
					"inputs": [
						{
							"indexed": true,
							"internalType": "address",
							"name": "user",
							"type": "address"
						},
						{
							"indexed": false,
							"internalType": "uint256",
							"name": "timeStamp",
							"type": "uint256"
						}
					],
					"name": "LoggingOut",
					"type": "event"
				},
				{
					"anonymous": false,
					"inputs": [
						{
							"indexed": true,
							"internalType": "address",
							"name": "user",
							"type": "address"
						},
						{
							"indexed": false,
							"internalType": "string",
							"name": "username",
							"type": "string"
						},
						{
							"indexed": false,
							"internalType": "uint256",
							"name": "timeStamp",
							"type": "uint256"
						}
					],
					"name": "SignUp",
					"type": "event"
				},
				{
					"inputs": [
						{
							"internalType": "address",
							"name": "",
							"type": "address"
						}
					],
					"name": "addressToAmountRecord",
					"outputs": [
						{
							"internalType": "uint256",
							"name": "curAmountSpent",
							"type": "uint256"
						},
						{
							"internalType": "uint256",
							"name": "tokenAmountSpent",
							"type": "uint256"
						},
						{
							"internalType": "uint256",
							"name": "curAmountEarned",
							"type": "uint256"
						},
						{
							"internalType": "uint256",
							"name": "tokenAmountEarned",
							"type": "uint256"
						}
					],
					"stateMutability": "view",
					"type": "function"
				},
				{
					"inputs": [
						{
							"internalType": "address",
							"name": "_userAddr",
							"type": "address"
						}
					],
					"name": "checkLogIn",
					"outputs": [
						{
							"internalType": "bool",
							"name": "",
							"type": "bool"
						}
					],
					"stateMutability": "view",
					"type": "function"
				},
				{
					"inputs": [],
					"name": "checkUser",
					"outputs": [
						{
							"internalType": "string",
							"name": "",
							"type": "string"
						}
					],
					"stateMutability": "view",
					"type": "function"
				},
				{
					"inputs": [],
					"name": "deleteUser",
					"outputs": [
						{
							"internalType": "bool",
							"name": "",
							"type": "bool"
						}
					],
					"stateMutability": "nonpayable",
					"type": "function"
				},
				{
					"inputs": [
						{
							"internalType": "bytes32",
							"name": "_uniKey",
							"type": "bytes32"
						}
					],
					"name": "getNftdata",
					"outputs": [
						{
							"internalType": "address",
							"name": "nftContractAddress",
							"type": "address"
						},
						{
							"internalType": "uint256",
							"name": "tokenId",
							"type": "uint256"
						},
						{
							"internalType": "address",
							"name": "owner",
							"type": "address"
						},
						{
							"internalType": "string",
							"name": "iPFS",
							"type": "string"
						}
					],
					"stateMutability": "view",
					"type": "function"
				},
				{
					"inputs": [],
					"name": "getProfilePic",
					"outputs": [
						{
							"internalType": "string",
							"name": "ipfs",
							"type": "string"
						}
					],
					"stateMutability": "view",
					"type": "function"
				},
				{
					"inputs": [
						{
							"internalType": "address",
							"name": "ownerOfNfts",
							"type": "address"
						}
					],
					"name": "getUniKeysMapping",
					"outputs": [
						{
							"internalType": "bytes32[]",
							"name": "",
							"type": "bytes32[]"
						}
					],
					"stateMutability": "view",
					"type": "function"
				},
				{
					"inputs": [],
					"name": "logIn",
					"outputs": [],
					"stateMutability": "nonpayable",
					"type": "function"
				},
				{
					"inputs": [],
					"name": "logOut",
					"outputs": [],
					"stateMutability": "nonpayable",
					"type": "function"
				},
				{
					"inputs": [
						{
							"internalType": "bytes32",
							"name": "",
							"type": "bytes32"
						}
					],
					"name": "myNFTs",
					"outputs": [
						{
							"internalType": "address",
							"name": "contractAddress",
							"type": "address"
						},
						{
							"internalType": "uint256",
							"name": "tokenId",
							"type": "uint256"
						},
						{
							"internalType": "address",
							"name": "owner",
							"type": "address"
						},
						{
							"internalType": "string",
							"name": "ipfs",
							"type": "string"
						}
					],
					"stateMutability": "view",
					"type": "function"
				},
				{
					"inputs": [
						{
							"internalType": "address",
							"name": "user",
							"type": "address"
						},
						{
							"internalType": "uint256",
							"name": "curAmountSpent",
							"type": "uint256"
						},
						{
							"internalType": "uint256",
							"name": "tokenAmountSpent",
							"type": "uint256"
						},
						{
							"internalType": "uint256",
							"name": "curAmountEarned",
							"type": "uint256"
						},
						{
							"internalType": "uint256",
							"name": "tokenAmountEarned",
							"type": "uint256"
						}
					],
					"name": "setAmountRecord",
					"outputs": [],
					"stateMutability": "nonpayable",
					"type": "function"
				},
				{
					"inputs": [
						{
							"internalType": "address",
							"name": "owner",
							"type": "address"
						},
						{
							"internalType": "address",
							"name": "nftContractAddress",
							"type": "address"
						},
						{
							"internalType": "uint256",
							"name": "tokenId",
							"type": "uint256"
						}
					],
					"name": "setBuyNftData",
					"outputs": [],
					"stateMutability": "nonpayable",
					"type": "function"
				},
				{
					"inputs": [
						{
							"internalType": "address",
							"name": "owner",
							"type": "address"
						},
						{
							"internalType": "address",
							"name": "nftContractAddress",
							"type": "address"
						},
						{
							"internalType": "uint256",
							"name": "tokenId",
							"type": "uint256"
						},
						{
							"internalType": "string",
							"name": "iPFS",
							"type": "string"
						}
					],
					"name": "setNftData",
					"outputs": [],
					"stateMutability": "nonpayable",
					"type": "function"
				},
				{
					"inputs": [
						{
							"internalType": "string",
							"name": "iPFS",
							"type": "string"
						}
					],
					"name": "setProfilePic",
					"outputs": [],
					"stateMutability": "nonpayable",
					"type": "function"
				},
				{
					"inputs": [
						{
							"internalType": "string",
							"name": "_userName",
							"type": "string"
						}
					],
					"name": "signUp",
					"outputs": [],
					"stateMutability": "nonpayable",
					"type": "function"
				},
				{
					"inputs": [
						{
							"internalType": "address",
							"name": "",
							"type": "address"
						},
						{
							"internalType": "uint256",
							"name": "",
							"type": "uint256"
						}
					],
					"name": "uniKeysMapping",
					"outputs": [
						{
							"internalType": "bytes32",
							"name": "",
							"type": "bytes32"
						}
					],
					"stateMutability": "view",
					"type": "function"
				},
				{
					"inputs": [
						{
							"internalType": "string",
							"name": "_userName",
							"type": "string"
						}
					],
					"name": "updateUser",
					"outputs": [],
					"stateMutability": "nonpayable",
					"type": "function"
				},
				{
					"inputs": [
						{
							"internalType": "address",
							"name": "user",
							"type": "address"
						}
					],
					"name": "userAmountDetail",
					"outputs": [
						{
							"internalType": "uint256",
							"name": "currencyEarned",
							"type": "uint256"
						},
						{
							"internalType": "uint256",
							"name": "earnedToken",
							"type": "uint256"
						},
						{
							"internalType": "uint256",
							"name": "currencySpent",
							"type": "uint256"
						},
						{
							"internalType": "uint256",
							"name": "tokenSpent",
							"type": "uint256"
						}
					],
					"stateMutability": "view",
					"type": "function"
				},
				{
					"inputs": [
						{
							"internalType": "string",
							"name": "",
							"type": "string"
						}
					],
					"name": "userNameToAddress",
					"outputs": [
						{
							"internalType": "address",
							"name": "",
							"type": "address"
						}
					],
					"stateMutability": "view",
					"type": "function"
				}
			],
			"devdoc": {
				"kind": "dev",
				"methods": {},
				"version": 1
			},
			"evm": {
				"assembly": "    /* \"Bluelight-MP/UserDashboard.sol\":147:6445  contract UserDashboard is IUserDashboard{\r... */\n  mstore(0x40, 0x80)\n    /* \"Bluelight-MP/UserDashboard.sol\":1233:1315  constructor(address wmAddr){\r... */\n  callvalue\n  dup1\n  iszero\n  tag_1\n  jumpi\n  0x00\n  dup1\n  revert\ntag_1:\n  pop\n  mload(0x40)\n  sub(codesize, bytecodeSize)\n  dup1\n  bytecodeSize\n  dup4\n  codecopy\n  dup2\n  dup2\n  add\n  0x40\n  mstore\n  dup2\n  add\n  swap1\n  tag_2\n  swap2\n  swap1\n  tag_3\n  jump\t// in\ntag_2:\n    /* \"Bluelight-MP/UserDashboard.sol\":1300:1306  wmAddr */\n  dup1\n    /* \"Bluelight-MP/UserDashboard.sol\":1271:1285  waterMelonAddr */\n  0x00\n  dup1\n    /* \"Bluelight-MP/UserDashboard.sol\":1271:1307  waterMelonAddr = IWaterMelon(wmAddr) */\n  0x0100\n  exp\n  dup2\n  sload\n  dup2\n  0xffffffffffffffffffffffffffffffffffffffff\n  mul\n  not\n  and\n  swap1\n  dup4\n  0xffffffffffffffffffffffffffffffffffffffff\n  and\n  mul\n  or\n  swap1\n  sstore\n  pop\n    /* \"Bluelight-MP/UserDashboard.sol\":1233:1315  constructor(address wmAddr){\r... */\n  pop\n    /* \"Bluelight-MP/UserDashboard.sol\":147:6445  contract UserDashboard is IUserDashboard{\r... */\n  jump(tag_6)\n    /* \"#utility.yul\":7:150   */\ntag_8:\n    /* \"#utility.yul\":64:69   */\n  0x00\n    /* \"#utility.yul\":95:101   */\n  dup2\n    /* \"#utility.yul\":89:102   */\n  mload\n    /* \"#utility.yul\":80:102   */\n  swap1\n  pop\n    /* \"#utility.yul\":111:144   */\n  tag_10\n    /* \"#utility.yul\":138:143   */\n  dup2\n    /* \"#utility.yul\":111:144   */\n  tag_11\n  jump\t// in\ntag_10:\n    /* \"#utility.yul\":70:150   */\n  swap3\n  swap2\n  pop\n  pop\n  jump\t// out\n    /* \"#utility.yul\":156:440   */\ntag_3:\n    /* \"#utility.yul\":226:232   */\n  0x00\n    /* \"#utility.yul\":275:277   */\n  0x20\n    /* \"#utility.yul\":263:272   */\n  dup3\n    /* \"#utility.yul\":254:261   */\n  dup5\n    /* \"#utility.yul\":250:273   */\n  sub\n    /* \"#utility.yul\":246:278   */\n  slt\n    /* \"#utility.yul\":243:245   */\n  iszero\n  tag_13\n  jumpi\n    /* \"#utility.yul\":291:292   */\n  0x00\n    /* \"#utility.yul\":288:289   */\n  dup1\n    /* \"#utility.yul\":281:293   */\n  revert\n    /* \"#utility.yul\":243:245   */\ntag_13:\n    /* \"#utility.yul\":334:335   */\n  0x00\n    /* \"#utility.yul\":359:423   */\n  tag_14\n    /* \"#utility.yul\":415:422   */\n  dup5\n    /* \"#utility.yul\":406:412   */\n  dup3\n    /* \"#utility.yul\":395:404   */\n  dup6\n    /* \"#utility.yul\":391:413   */\n  add\n    /* \"#utility.yul\":359:423   */\n  tag_8\n  jump\t// in\ntag_14:\n    /* \"#utility.yul\":349:423   */\n  swap2\n  pop\n    /* \"#utility.yul\":305:433   */\n  pop\n    /* \"#utility.yul\":233:440   */\n  swap3\n  swap2\n  pop\n  pop\n  jump\t// out\n    /* \"#utility.yul\":446:542   */\ntag_15:\n    /* \"#utility.yul\":483:490   */\n  0x00\n    /* \"#utility.yul\":512:536   */\n  tag_17\n    /* \"#utility.yul\":530:535   */\n  dup3\n    /* \"#utility.yul\":512:536   */\n  tag_18\n  jump\t// in\ntag_17:\n    /* \"#utility.yul\":501:536   */\n  swap1\n  pop\n    /* \"#utility.yul\":491:542   */\n  swap2\n  swap1\n  pop\n  jump\t// out\n    /* \"#utility.yul\":548:674   */\ntag_18:\n    /* \"#utility.yul\":585:592   */\n  0x00\n    /* \"#utility.yul\":625:667   */\n  0xffffffffffffffffffffffffffffffffffffffff\n    /* \"#utility.yul\":618:623   */\n  dup3\n    /* \"#utility.yul\":614:668   */\n  and\n    /* \"#utility.yul\":603:668   */\n  swap1\n  pop\n    /* \"#utility.yul\":593:674   */\n  swap2\n  swap1\n  pop\n  jump\t// out\n    /* \"#utility.yul\":680:802   */\ntag_11:\n    /* \"#utility.yul\":753:777   */\n  tag_21\n    /* \"#utility.yul\":771:776   */\n  dup2\n    /* \"#utility.yul\":753:777   */\n  tag_15\n  jump\t// in\ntag_21:\n    /* \"#utility.yul\":746:751   */\n  dup2\n    /* \"#utility.yul\":743:778   */\n  eq\n    /* \"#utility.yul\":733:735   */\n  tag_22\n  jumpi\n    /* \"#utility.yul\":792:793   */\n  0x00\n    /* \"#utility.yul\":789:790   */\n  dup1\n    /* \"#utility.yul\":782:794   */\n  revert\n    /* \"#utility.yul\":733:735   */\ntag_22:\n    /* \"#utility.yul\":723:802   */\n  pop\n  jump\t// out\n    /* \"Bluelight-MP/UserDashboard.sol\":147:6445  contract UserDashboard is IUserDashboard{\r... */\ntag_6:\n  dataSize(sub_0)\n  dup1\n  dataOffset(sub_0)\n  0x00\n  codecopy\n  0x00\n  return\nstop\n\nsub_0: assembly {\n        /* \"Bluelight-MP/UserDashboard.sol\":147:6445  contract UserDashboard is IUserDashboard{\r... */\n      mstore(0x40, 0x80)\n      callvalue\n      dup1\n      iszero\n      tag_1\n      jumpi\n      0x00\n      dup1\n      revert\n    tag_1:\n      pop\n      jumpi(tag_2, lt(calldatasize, 0x04))\n      shr(0xe0, calldataload(0x00))\n      dup1\n      0x6c608709\n      gt\n      tag_22\n      jumpi\n      dup1\n      0x9efa528e\n      gt\n      tag_23\n      jumpi\n      dup1\n      0x9efa528e\n      eq\n      tag_17\n      jumpi\n      dup1\n      0xadcfb4fc\n      eq\n      tag_18\n      jumpi\n      dup1\n      0xc1562547\n      eq\n      tag_19\n      jumpi\n      dup1\n      0xeb972008\n      eq\n      tag_20\n      jumpi\n      dup1\n      0xf6f2ede0\n      eq\n      tag_21\n      jumpi\n      jump(tag_2)\n    tag_23:\n      dup1\n      0x6c608709\n      eq\n      tag_12\n      jumpi\n      dup1\n      0x7111e750\n      eq\n      tag_13\n      jumpi\n      dup1\n      0x894fd813\n      eq\n      tag_14\n      jumpi\n      dup1\n      0x8a1b9736\n      eq\n      tag_15\n      jumpi\n      dup1\n      0x9bf44b7d\n      eq\n      tag_16\n      jumpi\n      jump(tag_2)\n    tag_22:\n      dup1\n      0x23e583b4\n      gt\n      tag_24\n      jumpi\n      dup1\n      0x23e583b4\n      eq\n      tag_7\n      jumpi\n      dup1\n      0x377b47a3\n      eq\n      tag_8\n      jumpi\n      dup1\n      0x46064ab9\n      eq\n      tag_9\n      jumpi\n      dup1\n      0x4be422ae\n      eq\n      tag_10\n      jumpi\n      dup1\n      0x5cb0122a\n      eq\n      tag_11\n      jumpi\n      jump(tag_2)\n    tag_24:\n      dup1\n      0x011f2cce\n      eq\n      tag_3\n      jumpi\n      dup1\n      0x026ff05e\n      eq\n      tag_4\n      jumpi\n      dup1\n      0x07edbdc5\n      eq\n      tag_5\n      jumpi\n      dup1\n      0x0b4f12f6\n      eq\n      tag_6\n      jumpi\n    tag_2:\n      0x00\n      dup1\n      revert\n        /* \"Bluelight-MP/UserDashboard.sol\":4260:4459  function setProfilePic(string memory iPFS) external {\r... */\n    tag_3:\n      tag_25\n      0x04\n      dup1\n      calldatasize\n      sub\n      dup2\n      add\n      swap1\n      tag_26\n      swap2\n      swap1\n      tag_27\n      jump\t// in\n    tag_26:\n      tag_28\n      jump\t// in\n    tag_25:\n      stop\n        /* \"Bluelight-MP/UserDashboard.sol\":5266:5562  function deleteUser() external virtual override returns(bool){\r... */\n    tag_4:\n      tag_29\n      tag_30\n      jump\t// in\n    tag_29:\n      mload(0x40)\n      tag_31\n      swap2\n      swap1\n      tag_32\n      jump\t// in\n    tag_31:\n      mload(0x40)\n      dup1\n      swap2\n      sub\n      swap1\n      return\n        /* \"Bluelight-MP/UserDashboard.sol\":890:930  mapping (bytes32 => MyNFT) public myNFTs */\n    tag_5:\n      tag_33\n      0x04\n      dup1\n      calldatasize\n      sub\n      dup2\n      add\n      swap1\n      tag_34\n      swap2\n      swap1\n      tag_35\n      jump\t// in\n    tag_34:\n      tag_36\n      jump\t// in\n    tag_33:\n      mload(0x40)\n      tag_37\n      swap5\n      swap4\n      swap3\n      swap2\n      swap1\n      tag_38\n      jump\t// in\n    tag_37:\n      mload(0x40)\n      dup1\n      swap2\n      sub\n      swap1\n      return\n        /* \"Bluelight-MP/UserDashboard.sol\":4819:5260  function updateUser(string memory _userName) external virtual override{\r... */\n    tag_6:\n      tag_39\n      0x04\n      dup1\n      calldatasize\n      sub\n      dup2\n      add\n      swap1\n      tag_40\n      swap2\n      swap1\n      tag_27\n      jump\t// in\n    tag_40:\n      tag_41\n      jump\t// in\n    tag_39:\n      stop\n        /* \"Bluelight-MP/UserDashboard.sol\":937:989  mapping (address => bytes32[]) public uniKeysMapping */\n    tag_7:\n      tag_42\n      0x04\n      dup1\n      calldatasize\n      sub\n      dup2\n      add\n      swap1\n      tag_43\n      swap2\n      swap1\n      tag_44\n      jump\t// in\n    tag_43:\n      tag_45\n      jump\t// in\n    tag_42:\n      mload(0x40)\n      tag_46\n      swap2\n      swap1\n      tag_47\n      jump\t// in\n    tag_46:\n      mload(0x40)\n      dup1\n      swap2\n      sub\n      swap1\n      return\n        /* \"Bluelight-MP/UserDashboard.sol\":2889:3209  function logIn() virtual override external {\r... */\n    tag_8:\n      tag_48\n      tag_49\n      jump\t// in\n    tag_48:\n      stop\n        /* \"Bluelight-MP/UserDashboard.sol\":2303:2666  function getNftdata(bytes32 _uniKey) external virtual override view returns(address nftContractAddress, uint256 tokenId, address owner, string memory iPFS){\r... */\n    tag_9:\n      tag_50\n      0x04\n      dup1\n      calldatasize\n      sub\n      dup2\n      add\n      swap1\n      tag_51\n      swap2\n      swap1\n      tag_35\n      jump\t// in\n    tag_51:\n      tag_52\n      jump\t// in\n    tag_50:\n      mload(0x40)\n      tag_53\n      swap5\n      swap4\n      swap3\n      swap2\n      swap1\n      tag_38\n      jump\t// in\n    tag_53:\n      mload(0x40)\n      dup1\n      swap2\n      sub\n      swap1\n      return\n        /* \"Bluelight-MP/UserDashboard.sol\":3358:3591  function logOut() external virtual override{\r... */\n    tag_10:\n      tag_54\n      tag_55\n      jump\t// in\n    tag_54:\n      stop\n        /* \"Bluelight-MP/UserDashboard.sol\":2672:2812  function getUniKeysMapping(address ownerOfNfts) external view returns(bytes32[] memory){\r... */\n    tag_11:\n      tag_56\n      0x04\n      dup1\n      calldatasize\n      sub\n      dup2\n      add\n      swap1\n      tag_57\n      swap2\n      swap1\n      tag_58\n      jump\t// in\n    tag_57:\n      tag_59\n      jump\t// in\n    tag_56:\n      mload(0x40)\n      tag_60\n      swap2\n      swap1\n      tag_61\n      jump\t// in\n    tag_60:\n      mload(0x40)\n      dup1\n      swap2\n      sub\n      swap1\n      return\n        /* \"Bluelight-MP/UserDashboard.sol\":1063:1115  mapping (string => address) public userNameToAddress */\n    tag_12:\n      tag_62\n      0x04\n      dup1\n      calldatasize\n      sub\n      dup2\n      add\n      swap1\n      tag_63\n      swap2\n      swap1\n      tag_27\n      jump\t// in\n    tag_63:\n      tag_64\n      jump\t// in\n    tag_62:\n      mload(0x40)\n      tag_65\n      swap2\n      swap1\n      tag_66\n      jump\t// in\n    tag_65:\n      mload(0x40)\n      dup1\n      swap2\n      sub\n      swap1\n      return\n        /* \"Bluelight-MP/UserDashboard.sol\":1162:1224  mapping (address => AmountRecord) public addressToAmountRecord */\n    tag_13:\n      tag_67\n      0x04\n      dup1\n      calldatasize\n      sub\n      dup2\n      add\n      swap1\n      tag_68\n      swap2\n      swap1\n      tag_58\n      jump\t// in\n    tag_68:\n      tag_69\n      jump\t// in\n    tag_67:\n      mload(0x40)\n      tag_70\n      swap5\n      swap4\n      swap3\n      swap2\n      swap1\n      tag_71\n      jump\t// in\n    tag_70:\n      mload(0x40)\n      dup1\n      swap2\n      sub\n      swap1\n      return\n        /* \"Bluelight-MP/UserDashboard.sol\":5568:6026  function setAmountRecord(address user, uint curAmountSpent, uint tokenAmountSpent, uint curAmountEarned, uint tokenAmountEarned) external virtual override{\r... */\n    tag_14:\n      tag_72\n      0x04\n      dup1\n      calldatasize\n      sub\n      dup2\n      add\n      swap1\n      tag_73\n      swap2\n      swap1\n      tag_74\n      jump\t// in\n    tag_73:\n      tag_75\n      jump\t// in\n    tag_72:\n      stop\n        /* \"Bluelight-MP/UserDashboard.sol\":6032:6442  function userAmountDetail(address user) external virtual override view \r... */\n    tag_15:\n      tag_76\n      0x04\n      dup1\n      calldatasize\n      sub\n      dup2\n      add\n      swap1\n      tag_77\n      swap2\n      swap1\n      tag_58\n      jump\t// in\n    tag_77:\n      tag_78\n      jump\t// in\n    tag_76:\n      mload(0x40)\n      tag_79\n      swap5\n      swap4\n      swap3\n      swap2\n      swap1\n      tag_71\n      jump\t// in\n    tag_79:\n      mload(0x40)\n      dup1\n      swap2\n      sub\n      swap1\n      return\n        /* \"Bluelight-MP/UserDashboard.sol\":1988:2297  function setBuyNftData(address owner, address nftContractAddress, uint256 tokenId) external virtual override{\r... */\n    tag_16:\n      tag_80\n      0x04\n      dup1\n      calldatasize\n      sub\n      dup2\n      add\n      swap1\n      tag_81\n      swap2\n      swap1\n      tag_82\n      jump\t// in\n    tag_81:\n      tag_83\n      jump\t// in\n    tag_80:\n      stop\n        /* \"Bluelight-MP/UserDashboard.sol\":1524:1982  function setNftData(address owner, address nftContractAddress, uint256 tokenId, string memory iPFS) external virtual override{\r... */\n    tag_17:\n      tag_84\n      0x04\n      dup1\n      calldatasize\n      sub\n      dup2\n      add\n      swap1\n      tag_85\n      swap2\n      swap1\n      tag_86\n      jump\t// in\n    tag_85:\n      tag_87\n      jump\t// in\n    tag_84:\n      stop\n        /* \"Bluelight-MP/UserDashboard.sol\":3597:4254  function signUp(string memory _userName) external virtual override{\r... */\n    tag_18:\n      tag_88\n      0x04\n      dup1\n      calldatasize\n      sub\n      dup2\n      add\n      swap1\n      tag_89\n      swap2\n      swap1\n      tag_27\n      jump\t// in\n    tag_89:\n      tag_90\n      jump\t// in\n    tag_88:\n      stop\n        /* \"Bluelight-MP/UserDashboard.sol\":4591:4813  function checkUser() external virtual override view returns(string memory){\r... */\n    tag_19:\n      tag_91\n      tag_92\n      jump\t// in\n    tag_91:\n      mload(0x40)\n      tag_93\n      swap2\n      swap1\n      tag_94\n      jump\t// in\n    tag_93:\n      mload(0x40)\n      dup1\n      swap2\n      sub\n      swap1\n      return\n        /* \"Bluelight-MP/UserDashboard.sol\":4465:4585  function getProfilePic() external view returns(string memory ipfs){\r... */\n    tag_20:\n      tag_95\n      tag_96\n      jump\t// in\n    tag_95:\n      mload(0x40)\n      tag_97\n      swap2\n      swap1\n      tag_94\n      jump\t// in\n    tag_97:\n      mload(0x40)\n      dup1\n      swap2\n      sub\n      swap1\n      return\n        /* \"Bluelight-MP/UserDashboard.sol\":3216:3352  function checkLogIn(address _userAddr) external virtual override view returns(bool){  \r... */\n    tag_21:\n      tag_98\n      0x04\n      dup1\n      calldatasize\n      sub\n      dup2\n      add\n      swap1\n      tag_99\n      swap2\n      swap1\n      tag_58\n      jump\t// in\n    tag_99:\n      tag_100\n      jump\t// in\n    tag_98:\n      mload(0x40)\n      tag_101\n      swap2\n      swap1\n      tag_32\n      jump\t// in\n    tag_101:\n      mload(0x40)\n      dup1\n      swap2\n      sub\n      swap1\n      return\n        /* \"Bluelight-MP/UserDashboard.sol\":4260:4459  function setProfilePic(string memory iPFS) external {\r... */\n    tag_28:\n        /* \"Bluelight-MP/UserDashboard.sol\":4332:4337  users */\n      0x03\n        /* \"Bluelight-MP/UserDashboard.sol\":4332:4349  users[msg.sender] */\n      0x00\n        /* \"Bluelight-MP/UserDashboard.sol\":4338:4348  msg.sender */\n      caller\n        /* \"Bluelight-MP/UserDashboard.sol\":4332:4349  users[msg.sender] */\n      0xffffffffffffffffffffffffffffffffffffffff\n      and\n      0xffffffffffffffffffffffffffffffffffffffff\n      and\n      dup2\n      mstore\n      0x20\n      add\n      swap1\n      dup2\n      mstore\n      0x20\n      add\n      0x00\n      keccak256\n        /* \"Bluelight-MP/UserDashboard.sol\":4332:4358  users[msg.sender].loggedIn */\n      0x03\n      add\n      0x00\n      swap1\n      sload\n      swap1\n      0x0100\n      exp\n      swap1\n      div\n      0xff\n      and\n        /* \"Bluelight-MP/UserDashboard.sol\":4323:4405  require (users[msg.sender].loggedIn, \"Login to your account, to set profile pic.\") */\n      tag_103\n      jumpi\n      mload(0x40)\n      0x08c379a000000000000000000000000000000000000000000000000000000000\n      dup2\n      mstore\n      0x04\n      add\n      tag_104\n      swap1\n      tag_105\n      jump\t// in\n    tag_104:\n      mload(0x40)\n      dup1\n      swap2\n      sub\n      swap1\n      revert\n    tag_103:\n        /* \"Bluelight-MP/UserDashboard.sol\":4447:4451  iPFS */\n      dup1\n        /* \"Bluelight-MP/UserDashboard.sol\":4416:4421  users */\n      0x03\n        /* \"Bluelight-MP/UserDashboard.sol\":4416:4433  users[msg.sender] */\n      0x00\n        /* \"Bluelight-MP/UserDashboard.sol\":4422:4432  msg.sender */\n      caller\n        /* \"Bluelight-MP/UserDashboard.sol\":4416:4433  users[msg.sender] */\n      0xffffffffffffffffffffffffffffffffffffffff\n      and\n      0xffffffffffffffffffffffffffffffffffffffff\n      and\n      dup2\n      mstore\n      0x20\n      add\n      swap1\n      dup2\n      mstore\n      0x20\n      add\n      0x00\n      keccak256\n        /* \"Bluelight-MP/UserDashboard.sol\":4416:4444  users[msg.sender].profilePic */\n      0x04\n      add\n        /* \"Bluelight-MP/UserDashboard.sol\":4416:4451  users[msg.sender].profilePic = iPFS */\n      swap1\n      dup1\n      mload\n      swap1\n      0x20\n      add\n      swap1\n      tag_106\n      swap3\n      swap2\n      swap1\n      tag_107\n      jump\t// in\n    tag_106:\n      pop\n        /* \"Bluelight-MP/UserDashboard.sol\":4260:4459  function setProfilePic(string memory iPFS) external {\r... */\n      pop\n      jump\t// out\n        /* \"Bluelight-MP/UserDashboard.sol\":5266:5562  function deleteUser() external virtual override returns(bool){\r... */\n    tag_30:\n        /* \"Bluelight-MP/UserDashboard.sol\":5322:5326  bool */\n      0x00\n        /* \"Bluelight-MP/UserDashboard.sol\":5347:5352  users */\n      0x03\n        /* \"Bluelight-MP/UserDashboard.sol\":5347:5364  users[msg.sender] */\n      0x00\n        /* \"Bluelight-MP/UserDashboard.sol\":5353:5363  msg.sender */\n      caller\n        /* \"Bluelight-MP/UserDashboard.sol\":5347:5364  users[msg.sender] */\n      0xffffffffffffffffffffffffffffffffffffffff\n      and\n      0xffffffffffffffffffffffffffffffffffffffff\n      and\n      dup2\n      mstore\n      0x20\n      add\n      swap1\n      dup2\n      mstore\n      0x20\n      add\n      0x00\n      keccak256\n        /* \"Bluelight-MP/UserDashboard.sol\":5347:5376  users[msg.sender].userExisted */\n      0x01\n      add\n      0x00\n      swap1\n      sload\n      swap1\n      0x0100\n      exp\n      swap1\n      div\n      0xff\n      and\n        /* \"Bluelight-MP/UserDashboard.sol\":5338:5398  require (users[msg.sender].userExisted, \"user not existed.\") */\n      tag_109\n      jumpi\n      mload(0x40)\n      0x08c379a000000000000000000000000000000000000000000000000000000000\n      dup2\n      mstore\n      0x04\n      add\n      tag_110\n      swap1\n      tag_111\n      jump\t// in\n    tag_110:\n      mload(0x40)\n      dup1\n      swap2\n      sub\n      swap1\n      revert\n    tag_109:\n        /* \"Bluelight-MP/UserDashboard.sol\":5409:5427  string memory name */\n      0x00\n        /* \"Bluelight-MP/UserDashboard.sol\":5430:5435  users */\n      0x03\n        /* \"Bluelight-MP/UserDashboard.sol\":5430:5447  users[msg.sender] */\n      0x00\n        /* \"Bluelight-MP/UserDashboard.sol\":5436:5446  msg.sender */\n      caller\n        /* \"Bluelight-MP/UserDashboard.sol\":5430:5447  users[msg.sender] */\n      0xffffffffffffffffffffffffffffffffffffffff\n      and\n      0xffffffffffffffffffffffffffffffffffffffff\n      and\n      dup2\n      mstore\n      0x20\n      add\n      swap1\n      dup2\n      mstore\n      0x20\n      add\n      0x00\n      keccak256\n        /* \"Bluelight-MP/UserDashboard.sol\":5430:5456  users[msg.sender].userName */\n      0x00\n      add\n        /* \"Bluelight-MP/UserDashboard.sol\":5409:5456  string memory name = users[msg.sender].userName */\n      dup1\n      sload\n      tag_112\n      swap1\n      tag_113\n      jump\t// in\n    tag_112:\n      dup1\n      0x1f\n      add\n      0x20\n      dup1\n      swap2\n      div\n      mul\n      0x20\n      add\n      mload(0x40)\n      swap1\n      dup2\n      add\n      0x40\n      mstore\n      dup1\n      swap3\n      swap2\n      swap1\n      dup2\n      dup2\n      mstore\n      0x20\n      add\n      dup3\n      dup1\n      sload\n      tag_114\n      swap1\n      tag_113\n      jump\t// in\n    tag_114:\n      dup1\n      iszero\n      tag_115\n      jumpi\n      dup1\n      0x1f\n      lt\n      tag_116\n      jumpi\n      0x0100\n      dup1\n      dup4\n      sload\n      div\n      mul\n      dup4\n      mstore\n      swap2\n      0x20\n      add\n      swap2\n      jump(tag_115)\n    tag_116:\n      dup3\n      add\n      swap2\n      swap1\n      0x00\n      mstore\n      keccak256(0x00, 0x20)\n      swap1\n    tag_117:\n      dup2\n      sload\n      dup2\n      mstore\n      swap1\n      0x01\n      add\n      swap1\n      0x20\n      add\n      dup1\n      dup4\n      gt\n      tag_117\n      jumpi\n      dup3\n      swap1\n      sub\n      0x1f\n      and\n      dup3\n      add\n      swap2\n    tag_115:\n      pop\n      pop\n      pop\n      pop\n      pop\n      swap1\n      pop\n        /* \"Bluelight-MP/UserDashboard.sol\":5474:5491  userNameToAddress */\n      0x04\n        /* \"Bluelight-MP/UserDashboard.sol\":5492:5496  name */\n      dup2\n        /* \"Bluelight-MP/UserDashboard.sol\":5474:5497  userNameToAddress[name] */\n      mload(0x40)\n      tag_118\n      swap2\n      swap1\n      tag_119\n      jump\t// in\n    tag_118:\n      swap1\n      dup2\n      mstore\n      0x20\n      add\n      mload(0x40)\n      dup1\n      swap2\n      sub\n      swap1\n      keccak256\n      0x00\n        /* \"Bluelight-MP/UserDashboard.sol\":5467:5497  delete userNameToAddress[name] */\n      0x0100\n      exp\n      dup2\n      sload\n      swap1\n      0xffffffffffffffffffffffffffffffffffffffff\n      mul\n      not\n      and\n      swap1\n      sstore\n        /* \"Bluelight-MP/UserDashboard.sol\":5515:5520  users */\n      0x03\n        /* \"Bluelight-MP/UserDashboard.sol\":5515:5532  users[msg.sender] */\n      0x00\n        /* \"Bluelight-MP/UserDashboard.sol\":5521:5531  msg.sender */\n      caller\n        /* \"Bluelight-MP/UserDashboard.sol\":5515:5532  users[msg.sender] */\n      0xffffffffffffffffffffffffffffffffffffffff\n      and\n      0xffffffffffffffffffffffffffffffffffffffff\n      and\n      dup2\n      mstore\n      0x20\n      add\n      swap1\n      dup2\n      mstore\n      0x20\n      add\n      0x00\n      keccak256\n      0x00\n        /* \"Bluelight-MP/UserDashboard.sol\":5508:5532  delete users[msg.sender] */\n      dup1\n      dup3\n      add\n      0x00\n      tag_120\n      swap2\n      swap1\n      tag_121\n      jump\t// in\n    tag_120:\n      0x01\n      dup3\n      add\n      exp(0x0100, 0x00)\n      dup2\n      sload\n      swap1\n      0xff\n      mul\n      not\n      and\n      swap1\n      sstore\n      0x02\n      dup3\n      add\n      0x00\n      swap1\n      sstore\n      0x03\n      dup3\n      add\n      exp(0x0100, 0x00)\n      dup2\n      sload\n      swap1\n      0xff\n      mul\n      not\n      and\n      swap1\n      sstore\n      0x04\n      dup3\n      add\n      0x00\n      tag_122\n      swap2\n      swap1\n      tag_121\n      jump\t// in\n    tag_122:\n      pop\n      pop\n        /* \"Bluelight-MP/UserDashboard.sol\":5550:5554  true */\n      0x01\n        /* \"Bluelight-MP/UserDashboard.sol\":5543:5554  return true */\n      swap2\n      pop\n      pop\n        /* \"Bluelight-MP/UserDashboard.sol\":5266:5562  function deleteUser() external virtual override returns(bool){\r... */\n      swap1\n      jump\t// out\n        /* \"Bluelight-MP/UserDashboard.sol\":890:930  mapping (bytes32 => MyNFT) public myNFTs */\n    tag_36:\n      mstore(0x20, 0x01)\n      dup1\n      0x00\n      mstore\n      keccak256(0x00, 0x40)\n      0x00\n      swap2\n      pop\n      swap1\n      pop\n      dup1\n      0x00\n      add\n      0x00\n      swap1\n      sload\n      swap1\n      0x0100\n      exp\n      swap1\n      div\n      0xffffffffffffffffffffffffffffffffffffffff\n      and\n      swap1\n      dup1\n      0x01\n      add\n      sload\n      swap1\n      dup1\n      0x02\n      add\n      0x00\n      swap1\n      sload\n      swap1\n      0x0100\n      exp\n      swap1\n      div\n      0xffffffffffffffffffffffffffffffffffffffff\n      and\n      swap1\n      dup1\n      0x03\n      add\n      dup1\n      sload\n      tag_123\n      swap1\n      tag_113\n      jump\t// in\n    tag_123:\n      dup1\n      0x1f\n      add\n      0x20\n      dup1\n      swap2\n      div\n      mul\n      0x20\n      add\n      mload(0x40)\n      swap1\n      dup2\n      add\n      0x40\n      mstore\n      dup1\n      swap3\n      swap2\n      swap1\n      dup2\n      dup2\n      mstore\n      0x20\n      add\n      dup3\n      dup1\n      sload\n      tag_124\n      swap1\n      tag_113\n      jump\t// in\n    tag_124:\n      dup1\n      iszero\n      tag_125\n      jumpi\n      dup1\n      0x1f\n      lt\n      tag_126\n      jumpi\n      0x0100\n      dup1\n      dup4\n      sload\n      div\n      mul\n      dup4\n      mstore\n      swap2\n      0x20\n      add\n      swap2\n      jump(tag_125)\n    tag_126:\n      dup3\n      add\n      swap2\n      swap1\n      0x00\n      mstore\n      keccak256(0x00, 0x20)\n      swap1\n    tag_127:\n      dup2\n      sload\n      dup2\n      mstore\n      swap1\n      0x01\n      add\n      swap1\n      0x20\n      add\n      dup1\n      dup4\n      gt\n      tag_127\n      jumpi\n      dup3\n      swap1\n      sub\n      0x1f\n      and\n      dup3\n      add\n      swap2\n    tag_125:\n      pop\n      pop\n      pop\n      pop\n      pop\n      swap1\n      pop\n      dup5\n      jump\t// out\n        /* \"Bluelight-MP/UserDashboard.sol\":4819:5260  function updateUser(string memory _userName) external virtual override{\r... */\n    tag_41:\n        /* \"Bluelight-MP/UserDashboard.sol\":4909:4914  users */\n      0x03\n        /* \"Bluelight-MP/UserDashboard.sol\":4909:4926  users[msg.sender] */\n      0x00\n        /* \"Bluelight-MP/UserDashboard.sol\":4915:4925  msg.sender */\n      caller\n        /* \"Bluelight-MP/UserDashboard.sol\":4909:4926  users[msg.sender] */\n      0xffffffffffffffffffffffffffffffffffffffff\n      and\n      0xffffffffffffffffffffffffffffffffffffffff\n      and\n      dup2\n      mstore\n      0x20\n      add\n      swap1\n      dup2\n      mstore\n      0x20\n      add\n      0x00\n      keccak256\n        /* \"Bluelight-MP/UserDashboard.sol\":4909:4935  users[msg.sender].loggedIn */\n      0x03\n      add\n      0x00\n      swap1\n      sload\n      swap1\n      0x0100\n      exp\n      swap1\n      div\n      0xff\n      and\n        /* \"Bluelight-MP/UserDashboard.sol\":4900:4963  require (users[msg.sender].loggedIn, \"Log in to your account.\") */\n      tag_129\n      jumpi\n      mload(0x40)\n      0x08c379a000000000000000000000000000000000000000000000000000000000\n      dup2\n      mstore\n      0x04\n      add\n      tag_130\n      swap1\n      tag_131\n      jump\t// in\n    tag_130:\n      mload(0x40)\n      dup1\n      swap2\n      sub\n      swap1\n      revert\n    tag_129:\n        /* \"Bluelight-MP/UserDashboard.sol\":5023:5024  0 */\n      0x00\n        /* \"Bluelight-MP/UserDashboard.sol\":4983:5025  userNameToAddress[_userName] == address(0) */\n      0xffffffffffffffffffffffffffffffffffffffff\n      and\n        /* \"Bluelight-MP/UserDashboard.sol\":4983:5000  userNameToAddress */\n      0x04\n        /* \"Bluelight-MP/UserDashboard.sol\":5001:5010  _userName */\n      dup3\n        /* \"Bluelight-MP/UserDashboard.sol\":4983:5011  userNameToAddress[_userName] */\n      mload(0x40)\n      tag_132\n      swap2\n      swap1\n      tag_119\n      jump\t// in\n    tag_132:\n      swap1\n      dup2\n      mstore\n      0x20\n      add\n      mload(0x40)\n      dup1\n      swap2\n      sub\n      swap1\n      keccak256\n      0x00\n      swap1\n      sload\n      swap1\n      0x0100\n      exp\n      swap1\n      div\n      0xffffffffffffffffffffffffffffffffffffffff\n      and\n        /* \"Bluelight-MP/UserDashboard.sol\":4983:5025  userNameToAddress[_userName] == address(0) */\n      0xffffffffffffffffffffffffffffffffffffffff\n      and\n      eq\n        /* \"Bluelight-MP/UserDashboard.sol\":4974:5048  require (userNameToAddress[_userName] == address(0), \"user name existed.\") */\n      tag_133\n      jumpi\n      mload(0x40)\n      0x08c379a000000000000000000000000000000000000000000000000000000000\n      dup2\n      mstore\n      0x04\n      add\n      tag_134\n      swap1\n      tag_135\n      jump\t// in\n    tag_134:\n      mload(0x40)\n      dup1\n      swap2\n      sub\n      swap1\n      revert\n    tag_133:\n        /* \"Bluelight-MP/UserDashboard.sol\":5061:5079  string memory name */\n      0x00\n        /* \"Bluelight-MP/UserDashboard.sol\":5082:5087  users */\n      0x03\n        /* \"Bluelight-MP/UserDashboard.sol\":5082:5099  users[msg.sender] */\n      0x00\n        /* \"Bluelight-MP/UserDashboard.sol\":5088:5098  msg.sender */\n      caller\n        /* \"Bluelight-MP/UserDashboard.sol\":5082:5099  users[msg.sender] */\n      0xffffffffffffffffffffffffffffffffffffffff\n      and\n      0xffffffffffffffffffffffffffffffffffffffff\n      and\n      dup2\n      mstore\n      0x20\n      add\n      swap1\n      dup2\n      mstore\n      0x20\n      add\n      0x00\n      keccak256\n        /* \"Bluelight-MP/UserDashboard.sol\":5082:5108  users[msg.sender].userName */\n      0x00\n      add\n        /* \"Bluelight-MP/UserDashboard.sol\":5061:5108  string memory name = users[msg.sender].userName */\n      dup1\n      sload\n      tag_136\n      swap1\n      tag_113\n      jump\t// in\n    tag_136:\n      dup1\n      0x1f\n      add\n      0x20\n      dup1\n      swap2\n      div\n      mul\n      0x20\n      add\n      mload(0x40)\n      swap1\n      dup2\n      add\n      0x40\n      mstore\n      dup1\n      swap3\n      swap2\n      swap1\n      dup2\n      dup2\n      mstore\n      0x20\n      add\n      dup3\n      dup1\n      sload\n      tag_137\n      swap1\n      tag_113\n      jump\t// in\n    tag_137:\n      dup1\n      iszero\n      tag_138\n      jumpi\n      dup1\n      0x1f\n      lt\n      tag_139\n      jumpi\n      0x0100\n      dup1\n      dup4\n      sload\n      div\n      mul\n      dup4\n      mstore\n      swap2\n      0x20\n      add\n      swap2\n      jump(tag_138)\n    tag_139:\n      dup3\n      add\n      swap2\n      swap1\n      0x00\n      mstore\n      keccak256(0x00, 0x20)\n      swap1\n    tag_140:\n      dup2\n      sload\n      dup2\n      mstore\n      swap1\n      0x01\n      add\n      swap1\n      0x20\n      add\n      dup1\n      dup4\n      gt\n      tag_140\n      jumpi\n      dup3\n      swap1\n      sub\n      0x1f\n      and\n      dup3\n      add\n      swap2\n    tag_138:\n      pop\n      pop\n      pop\n      pop\n      pop\n      swap1\n      pop\n        /* \"Bluelight-MP/UserDashboard.sol\":5126:5143  userNameToAddress */\n      0x04\n        /* \"Bluelight-MP/UserDashboard.sol\":5144:5148  name */\n      dup2\n        /* \"Bluelight-MP/UserDashboard.sol\":5126:5149  userNameToAddress[name] */\n      mload(0x40)\n      tag_141\n      swap2\n      swap1\n      tag_119\n      jump\t// in\n    tag_141:\n      swap1\n      dup2\n      mstore\n      0x20\n      add\n      mload(0x40)\n      dup1\n      swap2\n      sub\n      swap1\n      keccak256\n      0x00\n        /* \"Bluelight-MP/UserDashboard.sol\":5119:5149  delete userNameToAddress[name] */\n      0x0100\n      exp\n      dup2\n      sload\n      swap1\n      0xffffffffffffffffffffffffffffffffffffffff\n      mul\n      not\n      and\n      swap1\n      sstore\n        /* \"Bluelight-MP/UserDashboard.sol\":5191:5201  msg.sender */\n      caller\n        /* \"Bluelight-MP/UserDashboard.sol\":5160:5177  userNameToAddress */\n      0x04\n        /* \"Bluelight-MP/UserDashboard.sol\":5178:5187  _userName */\n      dup4\n        /* \"Bluelight-MP/UserDashboard.sol\":5160:5188  userNameToAddress[_userName] */\n      mload(0x40)\n      tag_142\n      swap2\n      swap1\n      tag_119\n      jump\t// in\n    tag_142:\n      swap1\n      dup2\n      mstore\n      0x20\n      add\n      mload(0x40)\n      dup1\n      swap2\n      sub\n      swap1\n      keccak256\n      0x00\n        /* \"Bluelight-MP/UserDashboard.sol\":5160:5201  userNameToAddress[_userName] = msg.sender */\n      0x0100\n      exp\n      dup2\n      sload\n      dup2\n      0xffffffffffffffffffffffffffffffffffffffff\n      mul\n      not\n      and\n      swap1\n      dup4\n      0xffffffffffffffffffffffffffffffffffffffff\n      and\n      mul\n      or\n      swap1\n      sstore\n      pop\n        /* \"Bluelight-MP/UserDashboard.sol\":5243:5252  _userName */\n      dup2\n        /* \"Bluelight-MP/UserDashboard.sol\":5214:5219  users */\n      0x03\n        /* \"Bluelight-MP/UserDashboard.sol\":5214:5231  users[msg.sender] */\n      0x00\n        /* \"Bluelight-MP/UserDashboard.sol\":5220:5230  msg.sender */\n      caller\n        /* \"Bluelight-MP/UserDashboard.sol\":5214:5231  users[msg.sender] */\n      0xffffffffffffffffffffffffffffffffffffffff\n      and\n      0xffffffffffffffffffffffffffffffffffffffff\n      and\n      dup2\n      mstore\n      0x20\n      add\n      swap1\n      dup2\n      mstore\n      0x20\n      add\n      0x00\n      keccak256\n        /* \"Bluelight-MP/UserDashboard.sol\":5214:5240  users[msg.sender].userName */\n      0x00\n      add\n        /* \"Bluelight-MP/UserDashboard.sol\":5214:5252  users[msg.sender].userName = _userName */\n      swap1\n      dup1\n      mload\n      swap1\n      0x20\n      add\n      swap1\n      tag_143\n      swap3\n      swap2\n      swap1\n      tag_107\n      jump\t// in\n    tag_143:\n      pop\n        /* \"Bluelight-MP/UserDashboard.sol\":4819:5260  function updateUser(string memory _userName) external virtual override{\r... */\n      pop\n      pop\n      jump\t// out\n        /* \"Bluelight-MP/UserDashboard.sol\":937:989  mapping (address => bytes32[]) public uniKeysMapping */\n    tag_45:\n      mstore(0x20, 0x02)\n      dup2\n      0x00\n      mstore\n      keccak256(0x00, 0x40)\n      dup2\n      dup2\n      sload\n      dup2\n      lt\n      tag_144\n      jumpi\n      0x00\n      dup1\n      revert\n    tag_144:\n      swap1\n      0x00\n      mstore\n      keccak256(0x00, 0x20)\n      add\n      0x00\n      swap2\n      pop\n      swap2\n      pop\n      pop\n      sload\n      dup2\n      jump\t// out\n        /* \"Bluelight-MP/UserDashboard.sol\":2889:3209  function logIn() virtual override external {\r... */\n    tag_49:\n        /* \"Bluelight-MP/UserDashboard.sol\":2952:2957  users */\n      0x03\n        /* \"Bluelight-MP/UserDashboard.sol\":2952:2969  users[msg.sender] */\n      0x00\n        /* \"Bluelight-MP/UserDashboard.sol\":2958:2968  msg.sender */\n      caller\n        /* \"Bluelight-MP/UserDashboard.sol\":2952:2969  users[msg.sender] */\n      0xffffffffffffffffffffffffffffffffffffffff\n      and\n      0xffffffffffffffffffffffffffffffffffffffff\n      and\n      dup2\n      mstore\n      0x20\n      add\n      swap1\n      dup2\n      mstore\n      0x20\n      add\n      0x00\n      keccak256\n        /* \"Bluelight-MP/UserDashboard.sol\":2952:2981  users[msg.sender].userExisted */\n      0x01\n      add\n      0x00\n      swap1\n      sload\n      swap1\n      0x0100\n      exp\n      swap1\n      div\n      0xff\n      and\n        /* \"Bluelight-MP/UserDashboard.sol\":2943:3025  require (users[msg.sender].userExisted, \"user not existed, create account first.\") */\n      tag_147\n      jumpi\n      mload(0x40)\n      0x08c379a000000000000000000000000000000000000000000000000000000000\n      dup2\n      mstore\n      0x04\n      add\n      tag_148\n      swap1\n      tag_149\n      jump\t// in\n    tag_148:\n      mload(0x40)\n      dup1\n      swap2\n      sub\n      swap1\n      revert\n    tag_147:\n        /* \"Bluelight-MP/UserDashboard.sol\":3046:3051  users */\n      0x03\n        /* \"Bluelight-MP/UserDashboard.sol\":3046:3063  users[msg.sender] */\n      0x00\n        /* \"Bluelight-MP/UserDashboard.sol\":3052:3062  msg.sender */\n      caller\n        /* \"Bluelight-MP/UserDashboard.sol\":3046:3063  users[msg.sender] */\n      0xffffffffffffffffffffffffffffffffffffffff\n      and\n      0xffffffffffffffffffffffffffffffffffffffff\n      and\n      dup2\n      mstore\n      0x20\n      add\n      swap1\n      dup2\n      mstore\n      0x20\n      add\n      0x00\n      keccak256\n        /* \"Bluelight-MP/UserDashboard.sol\":3046:3072  users[msg.sender].loggedIn */\n      0x03\n      add\n      0x00\n      swap1\n      sload\n      swap1\n      0x0100\n      exp\n      swap1\n      div\n      0xff\n      and\n        /* \"Bluelight-MP/UserDashboard.sol\":3045:3072  !users[msg.sender].loggedIn */\n      iszero\n        /* \"Bluelight-MP/UserDashboard.sol\":3036:3101  require (!users[msg.sender].loggedIn, \"you're already loggedIn.\") */\n      tag_150\n      jumpi\n      mload(0x40)\n      0x08c379a000000000000000000000000000000000000000000000000000000000\n      dup2\n      mstore\n      0x04\n      add\n      tag_151\n      swap1\n      tag_152\n      jump\t// in\n    tag_151:\n      mload(0x40)\n      dup1\n      swap2\n      sub\n      swap1\n      revert\n    tag_150:\n        /* \"Bluelight-MP/UserDashboard.sol\":3143:3147  true */\n      0x01\n        /* \"Bluelight-MP/UserDashboard.sol\":3114:3119  users */\n      0x03\n        /* \"Bluelight-MP/UserDashboard.sol\":3114:3131  users[msg.sender] */\n      0x00\n        /* \"Bluelight-MP/UserDashboard.sol\":3120:3130  msg.sender */\n      caller\n        /* \"Bluelight-MP/UserDashboard.sol\":3114:3131  users[msg.sender] */\n      0xffffffffffffffffffffffffffffffffffffffff\n      and\n      0xffffffffffffffffffffffffffffffffffffffff\n      and\n      dup2\n      mstore\n      0x20\n      add\n      swap1\n      dup2\n      mstore\n      0x20\n      add\n      0x00\n      keccak256\n        /* \"Bluelight-MP/UserDashboard.sol\":3114:3140  users[msg.sender].loggedIn */\n      0x03\n      add\n      0x00\n        /* \"Bluelight-MP/UserDashboard.sol\":3114:3147  users[msg.sender].loggedIn = true */\n      0x0100\n      exp\n      dup2\n      sload\n      dup2\n      0xff\n      mul\n      not\n      and\n      swap1\n      dup4\n      iszero\n      iszero\n      mul\n      or\n      swap1\n      sstore\n      pop\n        /* \"Bluelight-MP/UserDashboard.sol\":3173:3183  msg.sender */\n      caller\n        /* \"Bluelight-MP/UserDashboard.sol\":3163:3201  LoggingIn(msg.sender, block.timestamp) */\n      0xffffffffffffffffffffffffffffffffffffffff\n      and\n      0x364034de78a61b6190b049e2c5437370b27906bfed607993a5bc2dda23c16cff\n        /* \"Bluelight-MP/UserDashboard.sol\":3185:3200  block.timestamp */\n      timestamp\n        /* \"Bluelight-MP/UserDashboard.sol\":3163:3201  LoggingIn(msg.sender, block.timestamp) */\n      mload(0x40)\n      tag_153\n      swap2\n      swap1\n      tag_154\n      jump\t// in\n    tag_153:\n      mload(0x40)\n      dup1\n      swap2\n      sub\n      swap1\n      log2\n        /* \"Bluelight-MP/UserDashboard.sol\":2889:3209  function logIn() virtual override external {\r... */\n      jump\t// out\n        /* \"Bluelight-MP/UserDashboard.sol\":2303:2666  function getNftdata(bytes32 _uniKey) external virtual override view returns(address nftContractAddress, uint256 tokenId, address owner, string memory iPFS){\r... */\n    tag_52:\n        /* \"Bluelight-MP/UserDashboard.sol\":2379:2405  address nftContractAddress */\n      0x00\n        /* \"Bluelight-MP/UserDashboard.sol\":2407:2422  uint256 tokenId */\n      dup1\n        /* \"Bluelight-MP/UserDashboard.sol\":2424:2437  address owner */\n      0x00\n        /* \"Bluelight-MP/UserDashboard.sol\":2439:2457  string memory iPFS */\n      0x60\n        /* \"Bluelight-MP/UserDashboard.sol\":2469:2483  bytes32 uniKey */\n      0x00\n        /* \"Bluelight-MP/UserDashboard.sol\":2486:2493  _uniKey */\n      dup6\n        /* \"Bluelight-MP/UserDashboard.sol\":2469:2493  bytes32 uniKey = _uniKey */\n      swap1\n      pop\n        /* \"Bluelight-MP/UserDashboard.sol\":2523:2529  myNFTs */\n      0x01\n        /* \"Bluelight-MP/UserDashboard.sol\":2523:2537  myNFTs[uniKey] */\n      0x00\n        /* \"Bluelight-MP/UserDashboard.sol\":2530:2536  uniKey */\n      dup3\n        /* \"Bluelight-MP/UserDashboard.sol\":2523:2537  myNFTs[uniKey] */\n      dup2\n      mstore\n      0x20\n      add\n      swap1\n      dup2\n      mstore\n      0x20\n      add\n      0x00\n      keccak256\n        /* \"Bluelight-MP/UserDashboard.sol\":2523:2553  myNFTs[uniKey].contractAddress */\n      0x00\n      add\n      0x00\n      swap1\n      sload\n      swap1\n      0x0100\n      exp\n      swap1\n      div\n      0xffffffffffffffffffffffffffffffffffffffff\n      and\n        /* \"Bluelight-MP/UserDashboard.sol\":2564:2570  myNFTs */\n      0x01\n        /* \"Bluelight-MP/UserDashboard.sol\":2564:2578  myNFTs[uniKey] */\n      0x00\n        /* \"Bluelight-MP/UserDashboard.sol\":2571:2577  uniKey */\n      dup4\n        /* \"Bluelight-MP/UserDashboard.sol\":2564:2578  myNFTs[uniKey] */\n      dup2\n      mstore\n      0x20\n      add\n      swap1\n      dup2\n      mstore\n      0x20\n      add\n      0x00\n      keccak256\n        /* \"Bluelight-MP/UserDashboard.sol\":2564:2586  myNFTs[uniKey].tokenId */\n      0x01\n      add\n      sload\n        /* \"Bluelight-MP/UserDashboard.sol\":2597:2603  myNFTs */\n      0x01\n        /* \"Bluelight-MP/UserDashboard.sol\":2597:2611  myNFTs[uniKey] */\n      0x00\n        /* \"Bluelight-MP/UserDashboard.sol\":2604:2610  uniKey */\n      dup5\n        /* \"Bluelight-MP/UserDashboard.sol\":2597:2611  myNFTs[uniKey] */\n      dup2\n      mstore\n      0x20\n      add\n      swap1\n      dup2\n      mstore\n      0x20\n      add\n      0x00\n      keccak256\n        /* \"Bluelight-MP/UserDashboard.sol\":2597:2617  myNFTs[uniKey].owner */\n      0x02\n      add\n      0x00\n      swap1\n      sload\n      swap1\n      0x0100\n      exp\n      swap1\n      div\n      0xffffffffffffffffffffffffffffffffffffffff\n      and\n        /* \"Bluelight-MP/UserDashboard.sol\":2628:2634  myNFTs */\n      0x01\n        /* \"Bluelight-MP/UserDashboard.sol\":2628:2642  myNFTs[uniKey] */\n      0x00\n        /* \"Bluelight-MP/UserDashboard.sol\":2635:2641  uniKey */\n      dup6\n        /* \"Bluelight-MP/UserDashboard.sol\":2628:2642  myNFTs[uniKey] */\n      dup2\n      mstore\n      0x20\n      add\n      swap1\n      dup2\n      mstore\n      0x20\n      add\n      0x00\n      keccak256\n        /* \"Bluelight-MP/UserDashboard.sol\":2628:2647  myNFTs[uniKey].ipfs */\n      0x03\n      add\n        /* \"Bluelight-MP/UserDashboard.sol\":2514:2658  return ( myNFTs[uniKey].contractAddress,\r... */\n      dup1\n      dup1\n      sload\n      tag_156\n      swap1\n      tag_113\n      jump\t// in\n    tag_156:\n      dup1\n      0x1f\n      add\n      0x20\n      dup1\n      swap2\n      div\n      mul\n      0x20\n      add\n      mload(0x40)\n      swap1\n      dup2\n      add\n      0x40\n      mstore\n      dup1\n      swap3\n      swap2\n      swap1\n      dup2\n      dup2\n      mstore\n      0x20\n      add\n      dup3\n      dup1\n      sload\n      tag_157\n      swap1\n      tag_113\n      jump\t// in\n    tag_157:\n      dup1\n      iszero\n      tag_158\n      jumpi\n      dup1\n      0x1f\n      lt\n      tag_159\n      jumpi\n      0x0100\n      dup1\n      dup4\n      sload\n      div\n      mul\n      dup4\n      mstore\n      swap2\n      0x20\n      add\n      swap2\n      jump(tag_158)\n    tag_159:\n      dup3\n      add\n      swap2\n      swap1\n      0x00\n      mstore\n      keccak256(0x00, 0x20)\n      swap1\n    tag_160:\n      dup2\n      sload\n      dup2\n      mstore\n      swap1\n      0x01\n      add\n      swap1\n      0x20\n      add\n      dup1\n      dup4\n      gt\n      tag_160\n      jumpi\n      dup3\n      swap1\n      sub\n      0x1f\n      and\n      dup3\n      add\n      swap2\n    tag_158:\n      pop\n      pop\n      pop\n      pop\n      pop\n      swap1\n      pop\n      swap5\n      pop\n      swap5\n      pop\n      swap5\n      pop\n      swap5\n      pop\n      pop\n        /* \"Bluelight-MP/UserDashboard.sol\":2303:2666  function getNftdata(bytes32 _uniKey) external virtual override view returns(address nftContractAddress, uint256 tokenId, address owner, string memory iPFS){\r... */\n      swap2\n      swap4\n      pop\n      swap2\n      swap4\n      jump\t// out\n        /* \"Bluelight-MP/UserDashboard.sol\":3358:3591  function logOut() external virtual override{\r... */\n    tag_55:\n        /* \"Bluelight-MP/UserDashboard.sol\":3421:3426  users */\n      0x03\n        /* \"Bluelight-MP/UserDashboard.sol\":3421:3438  users[msg.sender] */\n      0x00\n        /* \"Bluelight-MP/UserDashboard.sol\":3427:3437  msg.sender */\n      caller\n        /* \"Bluelight-MP/UserDashboard.sol\":3421:3438  users[msg.sender] */\n      0xffffffffffffffffffffffffffffffffffffffff\n      and\n      0xffffffffffffffffffffffffffffffffffffffff\n      and\n      dup2\n      mstore\n      0x20\n      add\n      swap1\n      dup2\n      mstore\n      0x20\n      add\n      0x00\n      keccak256\n        /* \"Bluelight-MP/UserDashboard.sol\":3421:3447  users[msg.sender].loggedIn */\n      0x03\n      add\n      0x00\n      swap1\n      sload\n      swap1\n      0x0100\n      exp\n      swap1\n      div\n      0xff\n      and\n        /* \"Bluelight-MP/UserDashboard.sol\":3412:3472  require (users[msg.sender].loggedIn, \"you're not loggedIn.\") */\n      tag_162\n      jumpi\n      mload(0x40)\n      0x08c379a000000000000000000000000000000000000000000000000000000000\n      dup2\n      mstore\n      0x04\n      add\n      tag_163\n      swap1\n      tag_164\n      jump\t// in\n    tag_163:\n      mload(0x40)\n      dup1\n      swap2\n      sub\n      swap1\n      revert\n    tag_162:\n        /* \"Bluelight-MP/UserDashboard.sol\":3512:3517  false */\n      0x00\n        /* \"Bluelight-MP/UserDashboard.sol\":3483:3488  users */\n      0x03\n        /* \"Bluelight-MP/UserDashboard.sol\":3483:3500  users[msg.sender] */\n      0x00\n        /* \"Bluelight-MP/UserDashboard.sol\":3489:3499  msg.sender */\n      caller\n        /* \"Bluelight-MP/UserDashboard.sol\":3483:3500  users[msg.sender] */\n      0xffffffffffffffffffffffffffffffffffffffff\n      and\n      0xffffffffffffffffffffffffffffffffffffffff\n      and\n      dup2\n      mstore\n      0x20\n      add\n      swap1\n      dup2\n      mstore\n      0x20\n      add\n      0x00\n      keccak256\n        /* \"Bluelight-MP/UserDashboard.sol\":3483:3509  users[msg.sender].loggedIn */\n      0x03\n      add\n      0x00\n        /* \"Bluelight-MP/UserDashboard.sol\":3483:3517  users[msg.sender].loggedIn = false */\n      0x0100\n      exp\n      dup2\n      sload\n      dup2\n      0xff\n      mul\n      not\n      and\n      swap1\n      dup4\n      iszero\n      iszero\n      mul\n      or\n      swap1\n      sstore\n      pop\n        /* \"Bluelight-MP/UserDashboard.sol\":3544:3554  msg.sender */\n      caller\n        /* \"Bluelight-MP/UserDashboard.sol\":3533:3572  LoggingOut(msg.sender, block.timestamp) */\n      0xffffffffffffffffffffffffffffffffffffffff\n      and\n      0x70d1177aa26c67f6b2fdb43400cfd7ff0c23a8712301abe5aba2ee3d89e28a10\n        /* \"Bluelight-MP/UserDashboard.sol\":3556:3571  block.timestamp */\n      timestamp\n        /* \"Bluelight-MP/UserDashboard.sol\":3533:3572  LoggingOut(msg.sender, block.timestamp) */\n      mload(0x40)\n      tag_165\n      swap2\n      swap1\n      tag_154\n      jump\t// in\n    tag_165:\n      mload(0x40)\n      dup1\n      swap2\n      sub\n      swap1\n      log2\n        /* \"Bluelight-MP/UserDashboard.sol\":3358:3591  function logOut() external virtual override{\r... */\n      jump\t// out\n        /* \"Bluelight-MP/UserDashboard.sol\":2672:2812  function getUniKeysMapping(address ownerOfNfts) external view returns(bytes32[] memory){\r... */\n    tag_59:\n        /* \"Bluelight-MP/UserDashboard.sol\":2742:2758  bytes32[] memory */\n      0x60\n        /* \"Bluelight-MP/UserDashboard.sol\":2777:2791  uniKeysMapping */\n      0x02\n        /* \"Bluelight-MP/UserDashboard.sol\":2777:2804  uniKeysMapping[ownerOfNfts] */\n      0x00\n        /* \"Bluelight-MP/UserDashboard.sol\":2792:2803  ownerOfNfts */\n      dup4\n        /* \"Bluelight-MP/UserDashboard.sol\":2777:2804  uniKeysMapping[ownerOfNfts] */\n      0xffffffffffffffffffffffffffffffffffffffff\n      and\n      0xffffffffffffffffffffffffffffffffffffffff\n      and\n      dup2\n      mstore\n      0x20\n      add\n      swap1\n      dup2\n      mstore\n      0x20\n      add\n      0x00\n      keccak256\n        /* \"Bluelight-MP/UserDashboard.sol\":2770:2804  return uniKeysMapping[ownerOfNfts] */\n      dup1\n      sload\n      dup1\n      0x20\n      mul\n      0x20\n      add\n      mload(0x40)\n      swap1\n      dup2\n      add\n      0x40\n      mstore\n      dup1\n      swap3\n      swap2\n      swap1\n      dup2\n      dup2\n      mstore\n      0x20\n      add\n      dup3\n      dup1\n      sload\n      dup1\n      iszero\n      tag_167\n      jumpi\n      0x20\n      mul\n      dup3\n      add\n      swap2\n      swap1\n      0x00\n      mstore\n      keccak256(0x00, 0x20)\n      swap1\n    tag_168:\n      dup2\n      sload\n      dup2\n      mstore\n      0x20\n      add\n      swap1\n      0x01\n      add\n      swap1\n      dup1\n      dup4\n      gt\n      tag_168\n      jumpi\n    tag_167:\n      pop\n      pop\n      pop\n      pop\n      pop\n      swap1\n      pop\n        /* \"Bluelight-MP/UserDashboard.sol\":2672:2812  function getUniKeysMapping(address ownerOfNfts) external view returns(bytes32[] memory){\r... */\n      swap2\n      swap1\n      pop\n      jump\t// out\n        /* \"Bluelight-MP/UserDashboard.sol\":1063:1115  mapping (string => address) public userNameToAddress */\n    tag_64:\n      0x04\n      dup2\n      dup1\n      mload\n      0x20\n      dup2\n      add\n      dup3\n      add\n      dup1\n      mload\n      dup5\n      dup3\n      mstore\n      0x20\n      dup4\n      add\n      0x20\n      dup6\n      add\n      keccak256\n      dup2\n      dup4\n      mstore\n      dup1\n      swap6\n      pop\n      pop\n      pop\n      pop\n      pop\n      pop\n      0x00\n      swap2\n      pop\n      sload\n      swap1\n      0x0100\n      exp\n      swap1\n      div\n      0xffffffffffffffffffffffffffffffffffffffff\n      and\n      dup2\n      jump\t// out\n        /* \"Bluelight-MP/UserDashboard.sol\":1162:1224  mapping (address => AmountRecord) public addressToAmountRecord */\n    tag_69:\n      mstore(0x20, 0x05)\n      dup1\n      0x00\n      mstore\n      keccak256(0x00, 0x40)\n      0x00\n      swap2\n      pop\n      swap1\n      pop\n      dup1\n      0x00\n      add\n      sload\n      swap1\n      dup1\n      0x01\n      add\n      sload\n      swap1\n      dup1\n      0x02\n      add\n      sload\n      swap1\n      dup1\n      0x03\n      add\n      sload\n      swap1\n      pop\n      dup5\n      jump\t// out\n        /* \"Bluelight-MP/UserDashboard.sol\":5568:6026  function setAmountRecord(address user, uint curAmountSpent, uint tokenAmountSpent, uint curAmountEarned, uint tokenAmountEarned) external virtual override{\r... */\n    tag_75:\n        /* \"Bluelight-MP/UserDashboard.sol\":5779:5793  curAmountSpent */\n      dup4\n        /* \"Bluelight-MP/UserDashboard.sol\":5733:5754  addressToAmountRecord */\n      0x05\n        /* \"Bluelight-MP/UserDashboard.sol\":5733:5760  addressToAmountRecord[user] */\n      0x00\n        /* \"Bluelight-MP/UserDashboard.sol\":5755:5759  user */\n      dup8\n        /* \"Bluelight-MP/UserDashboard.sol\":5733:5760  addressToAmountRecord[user] */\n      0xffffffffffffffffffffffffffffffffffffffff\n      and\n      0xffffffffffffffffffffffffffffffffffffffff\n      and\n      dup2\n      mstore\n      0x20\n      add\n      swap1\n      dup2\n      mstore\n      0x20\n      add\n      0x00\n      keccak256\n        /* \"Bluelight-MP/UserDashboard.sol\":5733:5775  addressToAmountRecord[user].curAmountSpent */\n      0x00\n      add\n      0x00\n        /* \"Bluelight-MP/UserDashboard.sol\":5733:5793  addressToAmountRecord[user].curAmountSpent += curAmountSpent */\n      dup3\n      dup3\n      sload\n      tag_170\n      swap2\n      swap1\n      tag_171\n      jump\t// in\n    tag_170:\n      swap3\n      pop\n      pop\n      dup2\n      swap1\n      sstore\n      pop\n        /* \"Bluelight-MP/UserDashboard.sol\":5852:5868  tokenAmountSpent */\n      dup3\n        /* \"Bluelight-MP/UserDashboard.sol\":5804:5825  addressToAmountRecord */\n      0x05\n        /* \"Bluelight-MP/UserDashboard.sol\":5804:5831  addressToAmountRecord[user] */\n      0x00\n        /* \"Bluelight-MP/UserDashboard.sol\":5826:5830  user */\n      dup8\n        /* \"Bluelight-MP/UserDashboard.sol\":5804:5831  addressToAmountRecord[user] */\n      0xffffffffffffffffffffffffffffffffffffffff\n      and\n      0xffffffffffffffffffffffffffffffffffffffff\n      and\n      dup2\n      mstore\n      0x20\n      add\n      swap1\n      dup2\n      mstore\n      0x20\n      add\n      0x00\n      keccak256\n        /* \"Bluelight-MP/UserDashboard.sol\":5804:5848  addressToAmountRecord[user].tokenAmountSpent */\n      0x01\n      add\n      0x00\n        /* \"Bluelight-MP/UserDashboard.sol\":5804:5868  addressToAmountRecord[user].tokenAmountSpent += tokenAmountSpent */\n      dup3\n      dup3\n      sload\n      tag_172\n      swap2\n      swap1\n      tag_171\n      jump\t// in\n    tag_172:\n      swap3\n      pop\n      pop\n      dup2\n      swap1\n      sstore\n      pop\n        /* \"Bluelight-MP/UserDashboard.sol\":5926:5941  curAmountEarned */\n      dup2\n        /* \"Bluelight-MP/UserDashboard.sol\":5879:5900  addressToAmountRecord */\n      0x05\n        /* \"Bluelight-MP/UserDashboard.sol\":5879:5906  addressToAmountRecord[user] */\n      0x00\n        /* \"Bluelight-MP/UserDashboard.sol\":5901:5905  user */\n      dup8\n        /* \"Bluelight-MP/UserDashboard.sol\":5879:5906  addressToAmountRecord[user] */\n      0xffffffffffffffffffffffffffffffffffffffff\n      and\n      0xffffffffffffffffffffffffffffffffffffffff\n      and\n      dup2\n      mstore\n      0x20\n      add\n      swap1\n      dup2\n      mstore\n      0x20\n      add\n      0x00\n      keccak256\n        /* \"Bluelight-MP/UserDashboard.sol\":5879:5922  addressToAmountRecord[user].curAmountEarned */\n      0x02\n      add\n      0x00\n        /* \"Bluelight-MP/UserDashboard.sol\":5879:5941  addressToAmountRecord[user].curAmountEarned += curAmountEarned */\n      dup3\n      dup3\n      sload\n      tag_173\n      swap2\n      swap1\n      tag_171\n      jump\t// in\n    tag_173:\n      swap3\n      pop\n      pop\n      dup2\n      swap1\n      sstore\n      pop\n        /* \"Bluelight-MP/UserDashboard.sol\":6001:6018  tokenAmountEarned */\n      dup1\n        /* \"Bluelight-MP/UserDashboard.sol\":5952:5973  addressToAmountRecord */\n      0x05\n        /* \"Bluelight-MP/UserDashboard.sol\":5952:5979  addressToAmountRecord[user] */\n      0x00\n        /* \"Bluelight-MP/UserDashboard.sol\":5974:5978  user */\n      dup8\n        /* \"Bluelight-MP/UserDashboard.sol\":5952:5979  addressToAmountRecord[user] */\n      0xffffffffffffffffffffffffffffffffffffffff\n      and\n      0xffffffffffffffffffffffffffffffffffffffff\n      and\n      dup2\n      mstore\n      0x20\n      add\n      swap1\n      dup2\n      mstore\n      0x20\n      add\n      0x00\n      keccak256\n        /* \"Bluelight-MP/UserDashboard.sol\":5952:5997  addressToAmountRecord[user].tokenAmountEarned */\n      0x03\n      add\n      0x00\n        /* \"Bluelight-MP/UserDashboard.sol\":5952:6018  addressToAmountRecord[user].tokenAmountEarned += tokenAmountEarned */\n      dup3\n      dup3\n      sload\n      tag_174\n      swap2\n      swap1\n      tag_171\n      jump\t// in\n    tag_174:\n      swap3\n      pop\n      pop\n      dup2\n      swap1\n      sstore\n      pop\n        /* \"Bluelight-MP/UserDashboard.sol\":5568:6026  function setAmountRecord(address user, uint curAmountSpent, uint tokenAmountSpent, uint curAmountEarned, uint tokenAmountEarned) external virtual override{\r... */\n      pop\n      pop\n      pop\n      pop\n      pop\n      jump\t// out\n        /* \"Bluelight-MP/UserDashboard.sol\":6032:6442  function userAmountDetail(address user) external virtual override view \r... */\n    tag_78:\n        /* \"Bluelight-MP/UserDashboard.sol\":6121:6140  uint currencyEarned */\n      0x00\n        /* \"Bluelight-MP/UserDashboard.sol\":6142:6158  uint earnedToken */\n      dup1\n        /* \"Bluelight-MP/UserDashboard.sol\":6160:6178  uint currencySpent */\n      0x00\n        /* \"Bluelight-MP/UserDashboard.sol\":6180:6195  uint tokenSpent */\n      dup1\n        /* \"Bluelight-MP/UserDashboard.sol\":6228:6249  addressToAmountRecord */\n      0x05\n        /* \"Bluelight-MP/UserDashboard.sol\":6228:6255  addressToAmountRecord[user] */\n      0x00\n        /* \"Bluelight-MP/UserDashboard.sol\":6250:6254  user */\n      dup7\n        /* \"Bluelight-MP/UserDashboard.sol\":6228:6255  addressToAmountRecord[user] */\n      0xffffffffffffffffffffffffffffffffffffffff\n      and\n      0xffffffffffffffffffffffffffffffffffffffff\n      and\n      dup2\n      mstore\n      0x20\n      add\n      swap1\n      dup2\n      mstore\n      0x20\n      add\n      0x00\n      keccak256\n        /* \"Bluelight-MP/UserDashboard.sol\":6228:6271  addressToAmountRecord[user].curAmountEarned */\n      0x02\n      add\n      sload\n        /* \"Bluelight-MP/UserDashboard.sol\":6273:6294  addressToAmountRecord */\n      0x05\n        /* \"Bluelight-MP/UserDashboard.sol\":6273:6300  addressToAmountRecord[user] */\n      0x00\n        /* \"Bluelight-MP/UserDashboard.sol\":6295:6299  user */\n      dup8\n        /* \"Bluelight-MP/UserDashboard.sol\":6273:6300  addressToAmountRecord[user] */\n      0xffffffffffffffffffffffffffffffffffffffff\n      and\n      0xffffffffffffffffffffffffffffffffffffffff\n      and\n      dup2\n      mstore\n      0x20\n      add\n      swap1\n      dup2\n      mstore\n      0x20\n      add\n      0x00\n      keccak256\n        /* \"Bluelight-MP/UserDashboard.sol\":6273:6318  addressToAmountRecord[user].tokenAmountEarned */\n      0x03\n      add\n      sload\n        /* \"Bluelight-MP/UserDashboard.sol\":6334:6355  addressToAmountRecord */\n      0x05\n        /* \"Bluelight-MP/UserDashboard.sol\":6334:6361  addressToAmountRecord[user] */\n      0x00\n        /* \"Bluelight-MP/UserDashboard.sol\":6356:6360  user */\n      dup9\n        /* \"Bluelight-MP/UserDashboard.sol\":6334:6361  addressToAmountRecord[user] */\n      0xffffffffffffffffffffffffffffffffffffffff\n      and\n      0xffffffffffffffffffffffffffffffffffffffff\n      and\n      dup2\n      mstore\n      0x20\n      add\n      swap1\n      dup2\n      mstore\n      0x20\n      add\n      0x00\n      keccak256\n        /* \"Bluelight-MP/UserDashboard.sol\":6334:6376  addressToAmountRecord[user].curAmountSpent */\n      0x00\n      add\n      sload\n        /* \"Bluelight-MP/UserDashboard.sol\":6379:6400  addressToAmountRecord */\n      0x05\n        /* \"Bluelight-MP/UserDashboard.sol\":6379:6406  addressToAmountRecord[user] */\n      0x00\n        /* \"Bluelight-MP/UserDashboard.sol\":6401:6405  user */\n      dup10\n        /* \"Bluelight-MP/UserDashboard.sol\":6379:6406  addressToAmountRecord[user] */\n      0xffffffffffffffffffffffffffffffffffffffff\n      and\n      0xffffffffffffffffffffffffffffffffffffffff\n      and\n      dup2\n      mstore\n      0x20\n      add\n      swap1\n      dup2\n      mstore\n      0x20\n      add\n      0x00\n      keccak256\n        /* \"Bluelight-MP/UserDashboard.sol\":6379:6423  addressToAmountRecord[user].tokenAmountSpent */\n      0x01\n      add\n      sload\n        /* \"Bluelight-MP/UserDashboard.sol\":6207:6434  return(\r... */\n      swap4\n      pop\n      swap4\n      pop\n      swap4\n      pop\n      swap4\n      pop\n        /* \"Bluelight-MP/UserDashboard.sol\":6032:6442  function userAmountDetail(address user) external virtual override view \r... */\n      swap2\n      swap4\n      pop\n      swap2\n      swap4\n      jump\t// out\n        /* \"Bluelight-MP/UserDashboard.sol\":1988:2297  function setBuyNftData(address owner, address nftContractAddress, uint256 tokenId) external virtual override{\r... */\n    tag_83:\n        /* \"Bluelight-MP/UserDashboard.sol\":2117:2131  bytes32 uniKey */\n      0x00\n        /* \"Bluelight-MP/UserDashboard.sol\":2134:2182  getPrivateUniqueKey(nftContractAddress, tokenId) */\n      tag_177\n        /* \"Bluelight-MP/UserDashboard.sol\":2154:2172  nftContractAddress */\n      dup4\n        /* \"Bluelight-MP/UserDashboard.sol\":2174:2181  tokenId */\n      dup4\n        /* \"Bluelight-MP/UserDashboard.sol\":2134:2153  getPrivateUniqueKey */\n      tag_178\n        /* \"Bluelight-MP/UserDashboard.sol\":2134:2182  getPrivateUniqueKey(nftContractAddress, tokenId) */\n      jump\t// in\n    tag_177:\n        /* \"Bluelight-MP/UserDashboard.sol\":2117:2182  bytes32 uniKey = getPrivateUniqueKey(nftContractAddress, tokenId) */\n      swap1\n      pop\n        /* \"Bluelight-MP/UserDashboard.sol\":2227:2232  owner */\n      dup4\n        /* \"Bluelight-MP/UserDashboard.sol\":2204:2210  myNFTs */\n      0x01\n        /* \"Bluelight-MP/UserDashboard.sol\":2204:2218  myNFTs[uniKey] */\n      0x00\n        /* \"Bluelight-MP/UserDashboard.sol\":2211:2217  uniKey */\n      dup4\n        /* \"Bluelight-MP/UserDashboard.sol\":2204:2218  myNFTs[uniKey] */\n      dup2\n      mstore\n      0x20\n      add\n      swap1\n      dup2\n      mstore\n      0x20\n      add\n      0x00\n      keccak256\n        /* \"Bluelight-MP/UserDashboard.sol\":2204:2224  myNFTs[uniKey].owner */\n      0x02\n      add\n      0x00\n        /* \"Bluelight-MP/UserDashboard.sol\":2204:2232  myNFTs[uniKey].owner = owner */\n      0x0100\n      exp\n      dup2\n      sload\n      dup2\n      0xffffffffffffffffffffffffffffffffffffffff\n      mul\n      not\n      and\n      swap1\n      dup4\n      0xffffffffffffffffffffffffffffffffffffffff\n      and\n      mul\n      or\n      swap1\n      sstore\n      pop\n        /* \"Bluelight-MP/UserDashboard.sol\":2253:2267  uniKeysMapping */\n      0x02\n        /* \"Bluelight-MP/UserDashboard.sol\":2253:2274  uniKeysMapping[owner] */\n      0x00\n        /* \"Bluelight-MP/UserDashboard.sol\":2268:2273  owner */\n      dup6\n        /* \"Bluelight-MP/UserDashboard.sol\":2253:2274  uniKeysMapping[owner] */\n      0xffffffffffffffffffffffffffffffffffffffff\n      and\n      0xffffffffffffffffffffffffffffffffffffffff\n      and\n      dup2\n      mstore\n      0x20\n      add\n      swap1\n      dup2\n      mstore\n      0x20\n      add\n      0x00\n      keccak256\n        /* \"Bluelight-MP/UserDashboard.sol\":2280:2286  uniKey */\n      dup2\n        /* \"Bluelight-MP/UserDashboard.sol\":2253:2287  uniKeysMapping[owner].push(uniKey) */\n      swap1\n      dup1\n      0x01\n      dup2\n      sload\n      add\n      dup1\n      dup3\n      sstore\n      dup1\n      swap2\n      pop\n      pop\n      0x01\n      swap1\n      sub\n      swap1\n      0x00\n      mstore\n      keccak256(0x00, 0x20)\n      add\n      0x00\n      swap1\n      swap2\n      swap1\n      swap2\n      swap1\n      swap2\n      pop\n      sstore\n        /* \"Bluelight-MP/UserDashboard.sol\":1988:2297  function setBuyNftData(address owner, address nftContractAddress, uint256 tokenId) external virtual override{\r... */\n      pop\n      pop\n      pop\n      pop\n      jump\t// out\n        /* \"Bluelight-MP/UserDashboard.sol\":1524:1982  function setNftData(address owner, address nftContractAddress, uint256 tokenId, string memory iPFS) external virtual override{\r... */\n    tag_87:\n        /* \"Bluelight-MP/UserDashboard.sol\":1670:1684  bytes32 uniKey */\n      0x00\n        /* \"Bluelight-MP/UserDashboard.sol\":1687:1735  getPrivateUniqueKey(nftContractAddress, tokenId) */\n      tag_181\n        /* \"Bluelight-MP/UserDashboard.sol\":1707:1725  nftContractAddress */\n      dup5\n        /* \"Bluelight-MP/UserDashboard.sol\":1727:1734  tokenId */\n      dup5\n        /* \"Bluelight-MP/UserDashboard.sol\":1687:1706  getPrivateUniqueKey */\n      tag_178\n        /* \"Bluelight-MP/UserDashboard.sol\":1687:1735  getPrivateUniqueKey(nftContractAddress, tokenId) */\n      jump\t// in\n    tag_181:\n        /* \"Bluelight-MP/UserDashboard.sol\":1670:1735  bytes32 uniKey = getPrivateUniqueKey(nftContractAddress, tokenId) */\n      swap1\n      pop\n        /* \"Bluelight-MP/UserDashboard.sol\":1790:1808  nftContractAddress */\n      dup4\n        /* \"Bluelight-MP/UserDashboard.sol\":1757:1763  myNFTs */\n      0x01\n        /* \"Bluelight-MP/UserDashboard.sol\":1757:1771  myNFTs[uniKey] */\n      0x00\n        /* \"Bluelight-MP/UserDashboard.sol\":1764:1770  uniKey */\n      dup4\n        /* \"Bluelight-MP/UserDashboard.sol\":1757:1771  myNFTs[uniKey] */\n      dup2\n      mstore\n      0x20\n      add\n      swap1\n      dup2\n      mstore\n      0x20\n      add\n      0x00\n      keccak256\n        /* \"Bluelight-MP/UserDashboard.sol\":1757:1787  myNFTs[uniKey].contractAddress */\n      0x00\n      add\n      0x00\n        /* \"Bluelight-MP/UserDashboard.sol\":1757:1808  myNFTs[uniKey].contractAddress = nftContractAddress */\n      0x0100\n      exp\n      dup2\n      sload\n      dup2\n      0xffffffffffffffffffffffffffffffffffffffff\n      mul\n      not\n      and\n      swap1\n      dup4\n      0xffffffffffffffffffffffffffffffffffffffff\n      and\n      mul\n      or\n      swap1\n      sstore\n      pop\n        /* \"Bluelight-MP/UserDashboard.sol\":1844:1851  tokenId */\n      dup3\n        /* \"Bluelight-MP/UserDashboard.sol\":1819:1825  myNFTs */\n      0x01\n        /* \"Bluelight-MP/UserDashboard.sol\":1819:1833  myNFTs[uniKey] */\n      0x00\n        /* \"Bluelight-MP/UserDashboard.sol\":1826:1832  uniKey */\n      dup4\n        /* \"Bluelight-MP/UserDashboard.sol\":1819:1833  myNFTs[uniKey] */\n      dup2\n      mstore\n      0x20\n      add\n      swap1\n      dup2\n      mstore\n      0x20\n      add\n      0x00\n      keccak256\n        /* \"Bluelight-MP/UserDashboard.sol\":1819:1841  myNFTs[uniKey].tokenId */\n      0x01\n      add\n        /* \"Bluelight-MP/UserDashboard.sol\":1819:1851  myNFTs[uniKey].tokenId = tokenId */\n      dup2\n      swap1\n      sstore\n      pop\n        /* \"Bluelight-MP/UserDashboard.sol\":1885:1890  owner */\n      dup5\n        /* \"Bluelight-MP/UserDashboard.sol\":1862:1868  myNFTs */\n      0x01\n        /* \"Bluelight-MP/UserDashboard.sol\":1862:1876  myNFTs[uniKey] */\n      0x00\n        /* \"Bluelight-MP/UserDashboard.sol\":1869:1875  uniKey */\n      dup4\n        /* \"Bluelight-MP/UserDashboard.sol\":1862:1876  myNFTs[uniKey] */\n      dup2\n      mstore\n      0x20\n      add\n      swap1\n      dup2\n      mstore\n      0x20\n      add\n      0x00\n      keccak256\n        /* \"Bluelight-MP/UserDashboard.sol\":1862:1882  myNFTs[uniKey].owner */\n      0x02\n      add\n      0x00\n        /* \"Bluelight-MP/UserDashboard.sol\":1862:1890  myNFTs[uniKey].owner = owner */\n      0x0100\n      exp\n      dup2\n      sload\n      dup2\n      0xffffffffffffffffffffffffffffffffffffffff\n      mul\n      not\n      and\n      swap1\n      dup4\n      0xffffffffffffffffffffffffffffffffffffffff\n      and\n      mul\n      or\n      swap1\n      sstore\n      pop\n        /* \"Bluelight-MP/UserDashboard.sol\":1923:1927  iPFS */\n      dup2\n        /* \"Bluelight-MP/UserDashboard.sol\":1901:1907  myNFTs */\n      0x01\n        /* \"Bluelight-MP/UserDashboard.sol\":1901:1915  myNFTs[uniKey] */\n      0x00\n        /* \"Bluelight-MP/UserDashboard.sol\":1908:1914  uniKey */\n      dup4\n        /* \"Bluelight-MP/UserDashboard.sol\":1901:1915  myNFTs[uniKey] */\n      dup2\n      mstore\n      0x20\n      add\n      swap1\n      dup2\n      mstore\n      0x20\n      add\n      0x00\n      keccak256\n        /* \"Bluelight-MP/UserDashboard.sol\":1901:1920  myNFTs[uniKey].ipfs */\n      0x03\n      add\n        /* \"Bluelight-MP/UserDashboard.sol\":1901:1927  myNFTs[uniKey].ipfs = iPFS */\n      swap1\n      dup1\n      mload\n      swap1\n      0x20\n      add\n      swap1\n      tag_182\n      swap3\n      swap2\n      swap1\n      tag_107\n      jump\t// in\n    tag_182:\n      pop\n        /* \"Bluelight-MP/UserDashboard.sol\":1938:1952  uniKeysMapping */\n      0x02\n        /* \"Bluelight-MP/UserDashboard.sol\":1938:1959  uniKeysMapping[owner] */\n      0x00\n        /* \"Bluelight-MP/UserDashboard.sol\":1953:1958  owner */\n      dup7\n        /* \"Bluelight-MP/UserDashboard.sol\":1938:1959  uniKeysMapping[owner] */\n      0xffffffffffffffffffffffffffffffffffffffff\n      and\n      0xffffffffffffffffffffffffffffffffffffffff\n      and\n      dup2\n      mstore\n      0x20\n      add\n      swap1\n      dup2\n      mstore\n      0x20\n      add\n      0x00\n      keccak256\n        /* \"Bluelight-MP/UserDashboard.sol\":1965:1971  uniKey */\n      dup2\n        /* \"Bluelight-MP/UserDashboard.sol\":1938:1972  uniKeysMapping[owner].push(uniKey) */\n      swap1\n      dup1\n      0x01\n      dup2\n      sload\n      add\n      dup1\n      dup3\n      sstore\n      dup1\n      swap2\n      pop\n      pop\n      0x01\n      swap1\n      sub\n      swap1\n      0x00\n      mstore\n      keccak256(0x00, 0x20)\n      add\n      0x00\n      swap1\n      swap2\n      swap1\n      swap2\n      swap1\n      swap2\n      pop\n      sstore\n        /* \"Bluelight-MP/UserDashboard.sol\":1524:1982  function setNftData(address owner, address nftContractAddress, uint256 tokenId, string memory iPFS) external virtual override{\r... */\n      pop\n      pop\n      pop\n      pop\n      pop\n      jump\t// out\n        /* \"Bluelight-MP/UserDashboard.sol\":3597:4254  function signUp(string memory _userName) external virtual override{\r... */\n    tag_90:\n        /* \"Bluelight-MP/UserDashboard.sol\":3684:3689  users */\n      0x03\n        /* \"Bluelight-MP/UserDashboard.sol\":3684:3701  users[msg.sender] */\n      0x00\n        /* \"Bluelight-MP/UserDashboard.sol\":3690:3700  msg.sender */\n      caller\n        /* \"Bluelight-MP/UserDashboard.sol\":3684:3701  users[msg.sender] */\n      0xffffffffffffffffffffffffffffffffffffffff\n      and\n      0xffffffffffffffffffffffffffffffffffffffff\n      and\n      dup2\n      mstore\n      0x20\n      add\n      swap1\n      dup2\n      mstore\n      0x20\n      add\n      0x00\n      keccak256\n        /* \"Bluelight-MP/UserDashboard.sol\":3684:3713  users[msg.sender].userExisted */\n      0x01\n      add\n      0x00\n      swap1\n      sload\n      swap1\n      0x0100\n      exp\n      swap1\n      div\n      0xff\n      and\n        /* \"Bluelight-MP/UserDashboard.sol\":3683:3713  !users[msg.sender].userExisted */\n      iszero\n        /* \"Bluelight-MP/UserDashboard.sol\":3674:3731  require (!users[msg.sender].userExisted, \"user existed.\") */\n      tag_185\n      jumpi\n      mload(0x40)\n      0x08c379a000000000000000000000000000000000000000000000000000000000\n      dup2\n      mstore\n      0x04\n      add\n      tag_186\n      swap1\n      tag_187\n      jump\t// in\n    tag_186:\n      mload(0x40)\n      dup1\n      swap2\n      sub\n      swap1\n      revert\n    tag_185:\n        /* \"Bluelight-MP/UserDashboard.sol\":3791:3792  0 */\n      0x00\n        /* \"Bluelight-MP/UserDashboard.sol\":3751:3793  userNameToAddress[_userName] == address(0) */\n      0xffffffffffffffffffffffffffffffffffffffff\n      and\n        /* \"Bluelight-MP/UserDashboard.sol\":3751:3768  userNameToAddress */\n      0x04\n        /* \"Bluelight-MP/UserDashboard.sol\":3769:3778  _userName */\n      dup3\n        /* \"Bluelight-MP/UserDashboard.sol\":3751:3779  userNameToAddress[_userName] */\n      mload(0x40)\n      tag_188\n      swap2\n      swap1\n      tag_119\n      jump\t// in\n    tag_188:\n      swap1\n      dup2\n      mstore\n      0x20\n      add\n      mload(0x40)\n      dup1\n      swap2\n      sub\n      swap1\n      keccak256\n      0x00\n      swap1\n      sload\n      swap1\n      0x0100\n      exp\n      swap1\n      div\n      0xffffffffffffffffffffffffffffffffffffffff\n      and\n        /* \"Bluelight-MP/UserDashboard.sol\":3751:3793  userNameToAddress[_userName] == address(0) */\n      0xffffffffffffffffffffffffffffffffffffffff\n      and\n      eq\n        /* \"Bluelight-MP/UserDashboard.sol\":3742:3816  require (userNameToAddress[_userName] == address(0), \"user name existed.\") */\n      tag_189\n      jumpi\n      mload(0x40)\n      0x08c379a000000000000000000000000000000000000000000000000000000000\n      dup2\n      mstore\n      0x04\n      add\n      tag_190\n      swap1\n      tag_135\n      jump\t// in\n    tag_190:\n      mload(0x40)\n      dup1\n      swap2\n      sub\n      swap1\n      revert\n    tag_189:\n        /* \"Bluelight-MP/UserDashboard.sol\":3858:3867  _userName */\n      dup1\n        /* \"Bluelight-MP/UserDashboard.sol\":3829:3834  users */\n      0x03\n        /* \"Bluelight-MP/UserDashboard.sol\":3829:3846  users[msg.sender] */\n      0x00\n        /* \"Bluelight-MP/UserDashboard.sol\":3835:3845  msg.sender */\n      caller\n        /* \"Bluelight-MP/UserDashboard.sol\":3829:3846  users[msg.sender] */\n      0xffffffffffffffffffffffffffffffffffffffff\n      and\n      0xffffffffffffffffffffffffffffffffffffffff\n      and\n      dup2\n      mstore\n      0x20\n      add\n      swap1\n      dup2\n      mstore\n      0x20\n      add\n      0x00\n      keccak256\n        /* \"Bluelight-MP/UserDashboard.sol\":3829:3855  users[msg.sender].userName */\n      0x00\n      add\n        /* \"Bluelight-MP/UserDashboard.sol\":3829:3867  users[msg.sender].userName = _userName */\n      swap1\n      dup1\n      mload\n      swap1\n      0x20\n      add\n      swap1\n      tag_191\n      swap3\n      swap2\n      swap1\n      tag_107\n      jump\t// in\n    tag_191:\n      pop\n        /* \"Bluelight-MP/UserDashboard.sol\":3910:3914  true */\n      0x01\n        /* \"Bluelight-MP/UserDashboard.sol\":3878:3883  users */\n      0x03\n        /* \"Bluelight-MP/UserDashboard.sol\":3878:3895  users[msg.sender] */\n      0x00\n        /* \"Bluelight-MP/UserDashboard.sol\":3884:3894  msg.sender */\n      caller\n        /* \"Bluelight-MP/UserDashboard.sol\":3878:3895  users[msg.sender] */\n      0xffffffffffffffffffffffffffffffffffffffff\n      and\n      0xffffffffffffffffffffffffffffffffffffffff\n      and\n      dup2\n      mstore\n      0x20\n      add\n      swap1\n      dup2\n      mstore\n      0x20\n      add\n      0x00\n      keccak256\n        /* \"Bluelight-MP/UserDashboard.sol\":3878:3907  users[msg.sender].userExisted */\n      0x01\n      add\n      0x00\n        /* \"Bluelight-MP/UserDashboard.sol\":3878:3914  users[msg.sender].userExisted = true */\n      0x0100\n      exp\n      dup2\n      sload\n      dup2\n      0xff\n      mul\n      not\n      and\n      swap1\n      dup4\n      iszero\n      iszero\n      mul\n      or\n      swap1\n      sstore\n      pop\n        /* \"Bluelight-MP/UserDashboard.sol\":3958:3973  block.timestamp */\n      timestamp\n        /* \"Bluelight-MP/UserDashboard.sol\":3925:3930  users */\n      0x03\n        /* \"Bluelight-MP/UserDashboard.sol\":3925:3942  users[msg.sender] */\n      0x00\n        /* \"Bluelight-MP/UserDashboard.sol\":3931:3941  msg.sender */\n      caller\n        /* \"Bluelight-MP/UserDashboard.sol\":3925:3942  users[msg.sender] */\n      0xffffffffffffffffffffffffffffffffffffffff\n      and\n      0xffffffffffffffffffffffffffffffffffffffff\n      and\n      dup2\n      mstore\n      0x20\n      add\n      swap1\n      dup2\n      mstore\n      0x20\n      add\n      0x00\n      keccak256\n        /* \"Bluelight-MP/UserDashboard.sol\":3925:3955  users[msg.sender].creationTime */\n      0x02\n      add\n        /* \"Bluelight-MP/UserDashboard.sol\":3925:3973  users[msg.sender].creationTime = block.timestamp */\n      dup2\n      swap1\n      sstore\n      pop\n        /* \"Bluelight-MP/UserDashboard.sol\":4013:4017  true */\n      0x01\n        /* \"Bluelight-MP/UserDashboard.sol\":3984:3989  users */\n      0x03\n        /* \"Bluelight-MP/UserDashboard.sol\":3984:4001  users[msg.sender] */\n      0x00\n        /* \"Bluelight-MP/UserDashboard.sol\":3990:4000  msg.sender */\n      caller\n        /* \"Bluelight-MP/UserDashboard.sol\":3984:4001  users[msg.sender] */\n      0xffffffffffffffffffffffffffffffffffffffff\n      and\n      0xffffffffffffffffffffffffffffffffffffffff\n      and\n      dup2\n      mstore\n      0x20\n      add\n      swap1\n      dup2\n      mstore\n      0x20\n      add\n      0x00\n      keccak256\n        /* \"Bluelight-MP/UserDashboard.sol\":3984:4010  users[msg.sender].loggedIn */\n      0x03\n      add\n      0x00\n        /* \"Bluelight-MP/UserDashboard.sol\":3984:4017  users[msg.sender].loggedIn = true */\n      0x0100\n      exp\n      dup2\n      sload\n      dup2\n      0xff\n      mul\n      not\n      and\n      swap1\n      dup4\n      iszero\n      iszero\n      mul\n      or\n      swap1\n      sstore\n      pop\n        /* \"Bluelight-MP/UserDashboard.sol\":4059:4069  msg.sender */\n      caller\n        /* \"Bluelight-MP/UserDashboard.sol\":4028:4045  userNameToAddress */\n      0x04\n        /* \"Bluelight-MP/UserDashboard.sol\":4046:4055  _userName */\n      dup3\n        /* \"Bluelight-MP/UserDashboard.sol\":4028:4056  userNameToAddress[_userName] */\n      mload(0x40)\n      tag_192\n      swap2\n      swap1\n      tag_119\n      jump\t// in\n    tag_192:\n      swap1\n      dup2\n      mstore\n      0x20\n      add\n      mload(0x40)\n      dup1\n      swap2\n      sub\n      swap1\n      keccak256\n      0x00\n        /* \"Bluelight-MP/UserDashboard.sol\":4028:4069  userNameToAddress[_userName] = msg.sender */\n      0x0100\n      exp\n      dup2\n      sload\n      dup2\n      0xffffffffffffffffffffffffffffffffffffffff\n      mul\n      not\n      and\n      swap1\n      dup4\n      0xffffffffffffffffffffffffffffffffffffffff\n      and\n      mul\n      or\n      swap1\n      sstore\n      pop\n        /* \"Bluelight-MP/UserDashboard.sol\":4199:4209  msg.sender */\n      caller\n        /* \"Bluelight-MP/UserDashboard.sol\":4191:4238  SignUp (msg.sender, _userName, block.timestamp) */\n      0xffffffffffffffffffffffffffffffffffffffff\n      and\n      0xee20c2c019dcbca8d08ff74c4ce6f465e02d3611905c9aceeb76a0c8e429af2f\n        /* \"Bluelight-MP/UserDashboard.sol\":4211:4220  _userName */\n      dup3\n        /* \"Bluelight-MP/UserDashboard.sol\":4222:4237  block.timestamp */\n      timestamp\n        /* \"Bluelight-MP/UserDashboard.sol\":4191:4238  SignUp (msg.sender, _userName, block.timestamp) */\n      mload(0x40)\n      tag_193\n      swap3\n      swap2\n      swap1\n      tag_194\n      jump\t// in\n    tag_193:\n      mload(0x40)\n      dup1\n      swap2\n      sub\n      swap1\n      log2\n        /* \"Bluelight-MP/UserDashboard.sol\":3597:4254  function signUp(string memory _userName) external virtual override{\r... */\n      pop\n      jump\t// out\n        /* \"Bluelight-MP/UserDashboard.sol\":4591:4813  function checkUser() external virtual override view returns(string memory){\r... */\n    tag_92:\n        /* \"Bluelight-MP/UserDashboard.sol\":4651:4664  string memory */\n      0x60\n        /* \"Bluelight-MP/UserDashboard.sol\":4684:4689  users */\n      0x03\n        /* \"Bluelight-MP/UserDashboard.sol\":4684:4701  users[msg.sender] */\n      0x00\n        /* \"Bluelight-MP/UserDashboard.sol\":4690:4700  msg.sender */\n      caller\n        /* \"Bluelight-MP/UserDashboard.sol\":4684:4701  users[msg.sender] */\n      0xffffffffffffffffffffffffffffffffffffffff\n      and\n      0xffffffffffffffffffffffffffffffffffffffff\n      and\n      dup2\n      mstore\n      0x20\n      add\n      swap1\n      dup2\n      mstore\n      0x20\n      add\n      0x00\n      keccak256\n        /* \"Bluelight-MP/UserDashboard.sol\":4684:4710  users[msg.sender].loggedIn */\n      0x03\n      add\n      0x00\n      swap1\n      sload\n      swap1\n      0x0100\n      exp\n      swap1\n      div\n      0xff\n      and\n        /* \"Bluelight-MP/UserDashboard.sol\":4676:4761  require(users[msg.sender].loggedIn, \"create account first or logIn to your account.\") */\n      tag_196\n      jumpi\n      mload(0x40)\n      0x08c379a000000000000000000000000000000000000000000000000000000000\n      dup2\n      mstore\n      0x04\n      add\n      tag_197\n      swap1\n      tag_198\n      jump\t// in\n    tag_197:\n      mload(0x40)\n      dup1\n      swap2\n      sub\n      swap1\n      revert\n    tag_196:\n        /* \"Bluelight-MP/UserDashboard.sol\":4779:4784  users */\n      0x03\n        /* \"Bluelight-MP/UserDashboard.sol\":4779:4796  users[msg.sender] */\n      0x00\n        /* \"Bluelight-MP/UserDashboard.sol\":4785:4795  msg.sender */\n      caller\n        /* \"Bluelight-MP/UserDashboard.sol\":4779:4796  users[msg.sender] */\n      0xffffffffffffffffffffffffffffffffffffffff\n      and\n      0xffffffffffffffffffffffffffffffffffffffff\n      and\n      dup2\n      mstore\n      0x20\n      add\n      swap1\n      dup2\n      mstore\n      0x20\n      add\n      0x00\n      keccak256\n        /* \"Bluelight-MP/UserDashboard.sol\":4779:4805  users[msg.sender].userName */\n      0x00\n      add\n        /* \"Bluelight-MP/UserDashboard.sol\":4772:4805  return users[msg.sender].userName */\n      dup1\n      sload\n      tag_199\n      swap1\n      tag_113\n      jump\t// in\n    tag_199:\n      dup1\n      0x1f\n      add\n      0x20\n      dup1\n      swap2\n      div\n      mul\n      0x20\n      add\n      mload(0x40)\n      swap1\n      dup2\n      add\n      0x40\n      mstore\n      dup1\n      swap3\n      swap2\n      swap1\n      dup2\n      dup2\n      mstore\n      0x20\n      add\n      dup3\n      dup1\n      sload\n      tag_200\n      swap1\n      tag_113\n      jump\t// in\n    tag_200:\n      dup1\n      iszero\n      tag_201\n      jumpi\n      dup1\n      0x1f\n      lt\n      tag_202\n      jumpi\n      0x0100\n      dup1\n      dup4\n      sload\n      div\n      mul\n      dup4\n      mstore\n      swap2\n      0x20\n      add\n      swap2\n      jump(tag_201)\n    tag_202:\n      dup3\n      add\n      swap2\n      swap1\n      0x00\n      mstore\n      keccak256(0x00, 0x20)\n      swap1\n    tag_203:\n      dup2\n      sload\n      dup2\n      mstore\n      swap1\n      0x01\n      add\n      swap1\n      0x20\n      add\n      dup1\n      dup4\n      gt\n      tag_203\n      jumpi\n      dup3\n      swap1\n      sub\n      0x1f\n      and\n      dup3\n      add\n      swap2\n    tag_201:\n      pop\n      pop\n      pop\n      pop\n      pop\n      swap1\n      pop\n        /* \"Bluelight-MP/UserDashboard.sol\":4591:4813  function checkUser() external virtual override view returns(string memory){\r... */\n      swap1\n      jump\t// out\n        /* \"Bluelight-MP/UserDashboard.sol\":4465:4585  function getProfilePic() external view returns(string memory ipfs){\r... */\n    tag_96:\n        /* \"Bluelight-MP/UserDashboard.sol\":4512:4530  string memory ipfs */\n      0x60\n        /* \"Bluelight-MP/UserDashboard.sol\":4549:4554  users */\n      0x03\n        /* \"Bluelight-MP/UserDashboard.sol\":4549:4566  users[msg.sender] */\n      0x00\n        /* \"Bluelight-MP/UserDashboard.sol\":4555:4565  msg.sender */\n      caller\n        /* \"Bluelight-MP/UserDashboard.sol\":4549:4566  users[msg.sender] */\n      0xffffffffffffffffffffffffffffffffffffffff\n      and\n      0xffffffffffffffffffffffffffffffffffffffff\n      and\n      dup2\n      mstore\n      0x20\n      add\n      swap1\n      dup2\n      mstore\n      0x20\n      add\n      0x00\n      keccak256\n        /* \"Bluelight-MP/UserDashboard.sol\":4549:4577  users[msg.sender].profilePic */\n      0x04\n      add\n        /* \"Bluelight-MP/UserDashboard.sol\":4542:4577  return users[msg.sender].profilePic */\n      dup1\n      sload\n      tag_205\n      swap1\n      tag_113\n      jump\t// in\n    tag_205:\n      dup1\n      0x1f\n      add\n      0x20\n      dup1\n      swap2\n      div\n      mul\n      0x20\n      add\n      mload(0x40)\n      swap1\n      dup2\n      add\n      0x40\n      mstore\n      dup1\n      swap3\n      swap2\n      swap1\n      dup2\n      dup2\n      mstore\n      0x20\n      add\n      dup3\n      dup1\n      sload\n      tag_206\n      swap1\n      tag_113\n      jump\t// in\n    tag_206:\n      dup1\n      iszero\n      tag_207\n      jumpi\n      dup1\n      0x1f\n      lt\n      tag_208\n      jumpi\n      0x0100\n      dup1\n      dup4\n      sload\n      div\n      mul\n      dup4\n      mstore\n      swap2\n      0x20\n      add\n      swap2\n      jump(tag_207)\n    tag_208:\n      dup3\n      add\n      swap2\n      swap1\n      0x00\n      mstore\n      keccak256(0x00, 0x20)\n      swap1\n    tag_209:\n      dup2\n      sload\n      dup2\n      mstore\n      swap1\n      0x01\n      add\n      swap1\n      0x20\n      add\n      dup1\n      dup4\n      gt\n      tag_209\n      jumpi\n      dup3\n      swap1\n      sub\n      0x1f\n      and\n      dup3\n      add\n      swap2\n    tag_207:\n      pop\n      pop\n      pop\n      pop\n      pop\n      swap1\n      pop\n        /* \"Bluelight-MP/UserDashboard.sol\":4465:4585  function getProfilePic() external view returns(string memory ipfs){\r... */\n      swap1\n      jump\t// out\n        /* \"Bluelight-MP/UserDashboard.sol\":3216:3352  function checkLogIn(address _userAddr) external virtual override view returns(bool){  \r... */\n    tag_100:\n        /* \"Bluelight-MP/UserDashboard.sol\":3294:3298  bool */\n      0x00\n        /* \"Bluelight-MP/UserDashboard.sol\":3319:3324  users */\n      0x03\n        /* \"Bluelight-MP/UserDashboard.sol\":3319:3335  users[_userAddr] */\n      0x00\n        /* \"Bluelight-MP/UserDashboard.sol\":3325:3334  _userAddr */\n      dup4\n        /* \"Bluelight-MP/UserDashboard.sol\":3319:3335  users[_userAddr] */\n      0xffffffffffffffffffffffffffffffffffffffff\n      and\n      0xffffffffffffffffffffffffffffffffffffffff\n      and\n      dup2\n      mstore\n      0x20\n      add\n      swap1\n      dup2\n      mstore\n      0x20\n      add\n      0x00\n      keccak256\n        /* \"Bluelight-MP/UserDashboard.sol\":3319:3344  users[_userAddr].loggedIn */\n      0x03\n      add\n      0x00\n      swap1\n      sload\n      swap1\n      0x0100\n      exp\n      swap1\n      div\n      0xff\n      and\n        /* \"Bluelight-MP/UserDashboard.sol\":3312:3344  return users[_userAddr].loggedIn */\n      swap1\n      pop\n        /* \"Bluelight-MP/UserDashboard.sol\":3216:3352  function checkLogIn(address _userAddr) external virtual override view returns(bool){  \r... */\n      swap2\n      swap1\n      pop\n      jump\t// out\n        /* \"Bluelight-MP/UserDashboard.sol\":1321:1518  function getPrivateUniqueKey(address nftContractAddress, uint256 tokenId) internal pure returns (bytes32 NFTUniKey){\r... */\n    tag_178:\n        /* \"Bluelight-MP/UserDashboard.sol\":1418:1435  bytes32 NFTUniKey */\n      0x00\n        /* \"Bluelight-MP/UserDashboard.sol\":1481:1499  nftContractAddress */\n      dup3\n        /* \"Bluelight-MP/UserDashboard.sol\":1501:1508  tokenId */\n      dup3\n        /* \"Bluelight-MP/UserDashboard.sol\":1464:1509  abi.encodePacked(nftContractAddress, tokenId) */\n      add(0x20, mload(0x40))\n      tag_212\n      swap3\n      swap2\n      swap1\n      tag_213\n      jump\t// in\n    tag_212:\n      mload(0x40)\n      0x20\n      dup2\n      dup4\n      sub\n      sub\n      dup2\n      mstore\n      swap1\n      0x40\n      mstore\n        /* \"Bluelight-MP/UserDashboard.sol\":1454:1510  keccak256(abi.encodePacked(nftContractAddress, tokenId)) */\n      dup1\n      mload\n      swap1\n      0x20\n      add\n      keccak256\n        /* \"Bluelight-MP/UserDashboard.sol\":1447:1510  return keccak256(abi.encodePacked(nftContractAddress, tokenId)) */\n      swap1\n      pop\n        /* \"Bluelight-MP/UserDashboard.sol\":1321:1518  function getPrivateUniqueKey(address nftContractAddress, uint256 tokenId) internal pure returns (bytes32 NFTUniKey){\r... */\n      swap3\n      swap2\n      pop\n      pop\n      jump\t// out\n    tag_107:\n      dup3\n      dup1\n      sload\n      tag_214\n      swap1\n      tag_113\n      jump\t// in\n    tag_214:\n      swap1\n      0x00\n      mstore\n      keccak256(0x00, 0x20)\n      swap1\n      0x1f\n      add\n      0x20\n      swap1\n      div\n      dup2\n      add\n      swap3\n      dup3\n      tag_216\n      jumpi\n      0x00\n      dup6\n      sstore\n      jump(tag_215)\n    tag_216:\n      dup3\n      0x1f\n      lt\n      tag_217\n      jumpi\n      dup1\n      mload\n      not(0xff)\n      and\n      dup4\n      dup1\n      add\n      or\n      dup6\n      sstore\n      jump(tag_215)\n    tag_217:\n      dup3\n      dup1\n      add\n      0x01\n      add\n      dup6\n      sstore\n      dup3\n      iszero\n      tag_215\n      jumpi\n      swap2\n      dup3\n      add\n    tag_218:\n      dup3\n      dup2\n      gt\n      iszero\n      tag_219\n      jumpi\n      dup3\n      mload\n      dup3\n      sstore\n      swap2\n      0x20\n      add\n      swap2\n      swap1\n      0x01\n      add\n      swap1\n      jump(tag_218)\n    tag_219:\n    tag_215:\n      pop\n      swap1\n      pop\n      tag_220\n      swap2\n      swap1\n      tag_221\n      jump\t// in\n    tag_220:\n      pop\n      swap1\n      jump\t// out\n    tag_121:\n      pop\n      dup1\n      sload\n      tag_222\n      swap1\n      tag_113\n      jump\t// in\n    tag_222:\n      0x00\n      dup3\n      sstore\n      dup1\n      0x1f\n      lt\n      tag_224\n      jumpi\n      pop\n      jump(tag_223)\n    tag_224:\n      0x1f\n      add\n      0x20\n      swap1\n      div\n      swap1\n      0x00\n      mstore\n      keccak256(0x00, 0x20)\n      swap1\n      dup2\n      add\n      swap1\n      tag_225\n      swap2\n      swap1\n      tag_221\n      jump\t// in\n    tag_225:\n    tag_223:\n      pop\n      jump\t// out\n    tag_221:\n    tag_226:\n      dup1\n      dup3\n      gt\n      iszero\n      tag_227\n      jumpi\n      0x00\n      dup2\n      0x00\n      swap1\n      sstore\n      pop\n      0x01\n      add\n      jump(tag_226)\n    tag_227:\n      pop\n      swap1\n      jump\t// out\n        /* \"#utility.yul\":7:352   */\n    tag_229:\n        /* \"#utility.yul\":85:90   */\n      0x00\n        /* \"#utility.yul\":110:176   */\n      tag_231\n        /* \"#utility.yul\":126:175   */\n      tag_232\n        /* \"#utility.yul\":168:174   */\n      dup5\n        /* \"#utility.yul\":126:175   */\n      tag_233\n      jump\t// in\n    tag_232:\n        /* \"#utility.yul\":110:176   */\n      tag_234\n      jump\t// in\n    tag_231:\n        /* \"#utility.yul\":101:176   */\n      swap1\n      pop\n        /* \"#utility.yul\":199:205   */\n      dup3\n        /* \"#utility.yul\":192:197   */\n      dup2\n        /* \"#utility.yul\":185:206   */\n      mstore\n        /* \"#utility.yul\":237:241   */\n      0x20\n        /* \"#utility.yul\":230:235   */\n      dup2\n        /* \"#utility.yul\":226:242   */\n      add\n        /* \"#utility.yul\":275:278   */\n      dup5\n        /* \"#utility.yul\":266:272   */\n      dup5\n        /* \"#utility.yul\":261:264   */\n      dup5\n        /* \"#utility.yul\":257:273   */\n      add\n        /* \"#utility.yul\":254:279   */\n      gt\n        /* \"#utility.yul\":251:253   */\n      iszero\n      tag_235\n      jumpi\n        /* \"#utility.yul\":292:293   */\n      0x00\n        /* \"#utility.yul\":289:290   */\n      dup1\n        /* \"#utility.yul\":282:294   */\n      revert\n        /* \"#utility.yul\":251:253   */\n    tag_235:\n        /* \"#utility.yul\":305:346   */\n      tag_236\n        /* \"#utility.yul\":339:345   */\n      dup5\n        /* \"#utility.yul\":334:337   */\n      dup3\n        /* \"#utility.yul\":329:332   */\n      dup6\n        /* \"#utility.yul\":305:346   */\n      tag_237\n      jump\t// in\n    tag_236:\n        /* \"#utility.yul\":91:352   */\n      pop\n      swap4\n      swap3\n      pop\n      pop\n      pop\n      jump\t// out\n        /* \"#utility.yul\":358:497   */\n    tag_238:\n        /* \"#utility.yul\":404:409   */\n      0x00\n        /* \"#utility.yul\":442:448   */\n      dup2\n        /* \"#utility.yul\":429:449   */\n      calldataload\n        /* \"#utility.yul\":420:449   */\n      swap1\n      pop\n        /* \"#utility.yul\":458:491   */\n      tag_240\n        /* \"#utility.yul\":485:490   */\n      dup2\n        /* \"#utility.yul\":458:491   */\n      tag_241\n      jump\t// in\n    tag_240:\n        /* \"#utility.yul\":410:497   */\n      swap3\n      swap2\n      pop\n      pop\n      jump\t// out\n        /* \"#utility.yul\":503:642   */\n    tag_242:\n        /* \"#utility.yul\":549:554   */\n      0x00\n        /* \"#utility.yul\":587:593   */\n      dup2\n        /* \"#utility.yul\":574:594   */\n      calldataload\n        /* \"#utility.yul\":565:594   */\n      swap1\n      pop\n        /* \"#utility.yul\":603:636   */\n      tag_244\n        /* \"#utility.yul\":630:635   */\n      dup2\n        /* \"#utility.yul\":603:636   */\n      tag_245\n      jump\t// in\n    tag_244:\n        /* \"#utility.yul\":555:642   */\n      swap3\n      swap2\n      pop\n      pop\n      jump\t// out\n        /* \"#utility.yul\":662:935   */\n    tag_246:\n        /* \"#utility.yul\":718:723   */\n      0x00\n        /* \"#utility.yul\":767:770   */\n      dup3\n        /* \"#utility.yul\":760:764   */\n      0x1f\n        /* \"#utility.yul\":752:758   */\n      dup4\n        /* \"#utility.yul\":748:765   */\n      add\n        /* \"#utility.yul\":744:771   */\n      slt\n        /* \"#utility.yul\":734:736   */\n      tag_248\n      jumpi\n        /* \"#utility.yul\":785:786   */\n      0x00\n        /* \"#utility.yul\":782:783   */\n      dup1\n        /* \"#utility.yul\":775:787   */\n      revert\n        /* \"#utility.yul\":734:736   */\n    tag_248:\n        /* \"#utility.yul\":825:831   */\n      dup2\n        /* \"#utility.yul\":812:832   */\n      calldataload\n        /* \"#utility.yul\":850:929   */\n      tag_249\n        /* \"#utility.yul\":925:928   */\n      dup5\n        /* \"#utility.yul\":917:923   */\n      dup3\n        /* \"#utility.yul\":910:914   */\n      0x20\n        /* \"#utility.yul\":902:908   */\n      dup7\n        /* \"#utility.yul\":898:915   */\n      add\n        /* \"#utility.yul\":850:929   */\n      tag_229\n      jump\t// in\n    tag_249:\n        /* \"#utility.yul\":841:929   */\n      swap2\n      pop\n        /* \"#utility.yul\":724:935   */\n      pop\n      swap3\n      swap2\n      pop\n      pop\n      jump\t// out\n        /* \"#utility.yul\":941:1080   */\n    tag_250:\n        /* \"#utility.yul\":987:992   */\n      0x00\n        /* \"#utility.yul\":1025:1031   */\n      dup2\n        /* \"#utility.yul\":1012:1032   */\n      calldataload\n        /* \"#utility.yul\":1003:1032   */\n      swap1\n      pop\n        /* \"#utility.yul\":1041:1074   */\n      tag_252\n        /* \"#utility.yul\":1068:1073   */\n      dup2\n        /* \"#utility.yul\":1041:1074   */\n      tag_253\n      jump\t// in\n    tag_252:\n        /* \"#utility.yul\":993:1080   */\n      swap3\n      swap2\n      pop\n      pop\n      jump\t// out\n        /* \"#utility.yul\":1086:1348   */\n    tag_58:\n        /* \"#utility.yul\":1145:1151   */\n      0x00\n        /* \"#utility.yul\":1194:1196   */\n      0x20\n        /* \"#utility.yul\":1182:1191   */\n      dup3\n        /* \"#utility.yul\":1173:1180   */\n      dup5\n        /* \"#utility.yul\":1169:1192   */\n      sub\n        /* \"#utility.yul\":1165:1197   */\n      slt\n        /* \"#utility.yul\":1162:1164   */\n      iszero\n      tag_255\n      jumpi\n        /* \"#utility.yul\":1210:1211   */\n      0x00\n        /* \"#utility.yul\":1207:1208   */\n      dup1\n        /* \"#utility.yul\":1200:1212   */\n      revert\n        /* \"#utility.yul\":1162:1164   */\n    tag_255:\n        /* \"#utility.yul\":1253:1254   */\n      0x00\n        /* \"#utility.yul\":1278:1331   */\n      tag_256\n        /* \"#utility.yul\":1323:1330   */\n      dup5\n        /* \"#utility.yul\":1314:1320   */\n      dup3\n        /* \"#utility.yul\":1303:1312   */\n      dup6\n        /* \"#utility.yul\":1299:1321   */\n      add\n        /* \"#utility.yul\":1278:1331   */\n      tag_238\n      jump\t// in\n    tag_256:\n        /* \"#utility.yul\":1268:1331   */\n      swap2\n      pop\n        /* \"#utility.yul\":1224:1341   */\n      pop\n        /* \"#utility.yul\":1152:1348   */\n      swap3\n      swap2\n      pop\n      pop\n      jump\t// out\n        /* \"#utility.yul\":1354:1906   */\n    tag_82:\n        /* \"#utility.yul\":1431:1437   */\n      0x00\n        /* \"#utility.yul\":1439:1445   */\n      dup1\n        /* \"#utility.yul\":1447:1453   */\n      0x00\n        /* \"#utility.yul\":1496:1498   */\n      0x60\n        /* \"#utility.yul\":1484:1493   */\n      dup5\n        /* \"#utility.yul\":1475:1482   */\n      dup7\n        /* \"#utility.yul\":1471:1494   */\n      sub\n        /* \"#utility.yul\":1467:1499   */\n      slt\n        /* \"#utility.yul\":1464:1466   */\n      iszero\n      tag_258\n      jumpi\n        /* \"#utility.yul\":1512:1513   */\n      0x00\n        /* \"#utility.yul\":1509:1510   */\n      dup1\n        /* \"#utility.yul\":1502:1514   */\n      revert\n        /* \"#utility.yul\":1464:1466   */\n    tag_258:\n        /* \"#utility.yul\":1555:1556   */\n      0x00\n        /* \"#utility.yul\":1580:1633   */\n      tag_259\n        /* \"#utility.yul\":1625:1632   */\n      dup7\n        /* \"#utility.yul\":1616:1622   */\n      dup3\n        /* \"#utility.yul\":1605:1614   */\n      dup8\n        /* \"#utility.yul\":1601:1623   */\n      add\n        /* \"#utility.yul\":1580:1633   */\n      tag_238\n      jump\t// in\n    tag_259:\n        /* \"#utility.yul\":1570:1633   */\n      swap4\n      pop\n        /* \"#utility.yul\":1526:1643   */\n      pop\n        /* \"#utility.yul\":1682:1684   */\n      0x20\n        /* \"#utility.yul\":1708:1761   */\n      tag_260\n        /* \"#utility.yul\":1753:1760   */\n      dup7\n        /* \"#utility.yul\":1744:1750   */\n      dup3\n        /* \"#utility.yul\":1733:1742   */\n      dup8\n        /* \"#utility.yul\":1729:1751   */\n      add\n        /* \"#utility.yul\":1708:1761   */\n      tag_238\n      jump\t// in\n    tag_260:\n        /* \"#utility.yul\":1698:1761   */\n      swap3\n      pop\n        /* \"#utility.yul\":1653:1771   */\n      pop\n        /* \"#utility.yul\":1810:1812   */\n      0x40\n        /* \"#utility.yul\":1836:1889   */\n      tag_261\n        /* \"#utility.yul\":1881:1888   */\n      dup7\n        /* \"#utility.yul\":1872:1878   */\n      dup3\n        /* \"#utility.yul\":1861:1870   */\n      dup8\n        /* \"#utility.yul\":1857:1879   */\n      add\n        /* \"#utility.yul\":1836:1889   */\n      tag_250\n      jump\t// in\n    tag_261:\n        /* \"#utility.yul\":1826:1889   */\n      swap2\n      pop\n        /* \"#utility.yul\":1781:1899   */\n      pop\n        /* \"#utility.yul\":1454:1906   */\n      swap3\n      pop\n      swap3\n      pop\n      swap3\n      jump\t// out\n        /* \"#utility.yul\":1912:2723   */\n    tag_86:\n        /* \"#utility.yul\":2008:2014   */\n      0x00\n        /* \"#utility.yul\":2016:2022   */\n      dup1\n        /* \"#utility.yul\":2024:2030   */\n      0x00\n        /* \"#utility.yul\":2032:2038   */\n      dup1\n        /* \"#utility.yul\":2081:2084   */\n      0x80\n        /* \"#utility.yul\":2069:2078   */\n      dup6\n        /* \"#utility.yul\":2060:2067   */\n      dup8\n        /* \"#utility.yul\":2056:2079   */\n      sub\n        /* \"#utility.yul\":2052:2085   */\n      slt\n        /* \"#utility.yul\":2049:2051   */\n      iszero\n      tag_263\n      jumpi\n        /* \"#utility.yul\":2098:2099   */\n      0x00\n        /* \"#utility.yul\":2095:2096   */\n      dup1\n        /* \"#utility.yul\":2088:2100   */\n      revert\n        /* \"#utility.yul\":2049:2051   */\n    tag_263:\n        /* \"#utility.yul\":2141:2142   */\n      0x00\n        /* \"#utility.yul\":2166:2219   */\n      tag_264\n        /* \"#utility.yul\":2211:2218   */\n      dup8\n        /* \"#utility.yul\":2202:2208   */\n      dup3\n        /* \"#utility.yul\":2191:2200   */\n      dup9\n        /* \"#utility.yul\":2187:2209   */\n      add\n        /* \"#utility.yul\":2166:2219   */\n      tag_238\n      jump\t// in\n    tag_264:\n        /* \"#utility.yul\":2156:2219   */\n      swap5\n      pop\n        /* \"#utility.yul\":2112:2229   */\n      pop\n        /* \"#utility.yul\":2268:2270   */\n      0x20\n        /* \"#utility.yul\":2294:2347   */\n      tag_265\n        /* \"#utility.yul\":2339:2346   */\n      dup8\n        /* \"#utility.yul\":2330:2336   */\n      dup3\n        /* \"#utility.yul\":2319:2328   */\n      dup9\n        /* \"#utility.yul\":2315:2337   */\n      add\n        /* \"#utility.yul\":2294:2347   */\n      tag_238\n      jump\t// in\n    tag_265:\n        /* \"#utility.yul\":2284:2347   */\n      swap4\n      pop\n        /* \"#utility.yul\":2239:2357   */\n      pop\n        /* \"#utility.yul\":2396:2398   */\n      0x40\n        /* \"#utility.yul\":2422:2475   */\n      tag_266\n        /* \"#utility.yul\":2467:2474   */\n      dup8\n        /* \"#utility.yul\":2458:2464   */\n      dup3\n        /* \"#utility.yul\":2447:2456   */\n      dup9\n        /* \"#utility.yul\":2443:2465   */\n      add\n        /* \"#utility.yul\":2422:2475   */\n      tag_250\n      jump\t// in\n    tag_266:\n        /* \"#utility.yul\":2412:2475   */\n      swap3\n      pop\n        /* \"#utility.yul\":2367:2485   */\n      pop\n        /* \"#utility.yul\":2552:2554   */\n      0x60\n        /* \"#utility.yul\":2541:2550   */\n      dup6\n        /* \"#utility.yul\":2537:2555   */\n      add\n        /* \"#utility.yul\":2524:2556   */\n      calldataload\n        /* \"#utility.yul\":2583:2601   */\n      0xffffffffffffffff\n        /* \"#utility.yul\":2575:2581   */\n      dup2\n        /* \"#utility.yul\":2572:2602   */\n      gt\n        /* \"#utility.yul\":2569:2571   */\n      iszero\n      tag_267\n      jumpi\n        /* \"#utility.yul\":2615:2616   */\n      0x00\n        /* \"#utility.yul\":2612:2613   */\n      dup1\n        /* \"#utility.yul\":2605:2617   */\n      revert\n        /* \"#utility.yul\":2569:2571   */\n    tag_267:\n        /* \"#utility.yul\":2643:2706   */\n      tag_268\n        /* \"#utility.yul\":2698:2705   */\n      dup8\n        /* \"#utility.yul\":2689:2695   */\n      dup3\n        /* \"#utility.yul\":2678:2687   */\n      dup9\n        /* \"#utility.yul\":2674:2696   */\n      add\n        /* \"#utility.yul\":2643:2706   */\n      tag_246\n      jump\t// in\n    tag_268:\n        /* \"#utility.yul\":2633:2706   */\n      swap2\n      pop\n        /* \"#utility.yul\":2495:2716   */\n      pop\n        /* \"#utility.yul\":2039:2723   */\n      swap3\n      swap6\n      swap2\n      swap5\n      pop\n      swap3\n      pop\n      jump\t// out\n        /* \"#utility.yul\":2729:3136   */\n    tag_44:\n        /* \"#utility.yul\":2797:2803   */\n      0x00\n        /* \"#utility.yul\":2805:2811   */\n      dup1\n        /* \"#utility.yul\":2854:2856   */\n      0x40\n        /* \"#utility.yul\":2842:2851   */\n      dup4\n        /* \"#utility.yul\":2833:2840   */\n      dup6\n        /* \"#utility.yul\":2829:2852   */\n      sub\n        /* \"#utility.yul\":2825:2857   */\n      slt\n        /* \"#utility.yul\":2822:2824   */\n      iszero\n      tag_270\n      jumpi\n        /* \"#utility.yul\":2870:2871   */\n      0x00\n        /* \"#utility.yul\":2867:2868   */\n      dup1\n        /* \"#utility.yul\":2860:2872   */\n      revert\n        /* \"#utility.yul\":2822:2824   */\n    tag_270:\n        /* \"#utility.yul\":2913:2914   */\n      0x00\n        /* \"#utility.yul\":2938:2991   */\n      tag_271\n        /* \"#utility.yul\":2983:2990   */\n      dup6\n        /* \"#utility.yul\":2974:2980   */\n      dup3\n        /* \"#utility.yul\":2963:2972   */\n      dup7\n        /* \"#utility.yul\":2959:2981   */\n      add\n        /* \"#utility.yul\":2938:2991   */\n      tag_238\n      jump\t// in\n    tag_271:\n        /* \"#utility.yul\":2928:2991   */\n      swap3\n      pop\n        /* \"#utility.yul\":2884:3001   */\n      pop\n        /* \"#utility.yul\":3040:3042   */\n      0x20\n        /* \"#utility.yul\":3066:3119   */\n      tag_272\n        /* \"#utility.yul\":3111:3118   */\n      dup6\n        /* \"#utility.yul\":3102:3108   */\n      dup3\n        /* \"#utility.yul\":3091:3100   */\n      dup7\n        /* \"#utility.yul\":3087:3109   */\n      add\n        /* \"#utility.yul\":3066:3119   */\n      tag_250\n      jump\t// in\n    tag_272:\n        /* \"#utility.yul\":3056:3119   */\n      swap2\n      pop\n        /* \"#utility.yul\":3011:3129   */\n      pop\n        /* \"#utility.yul\":2812:3136   */\n      swap3\n      pop\n      swap3\n      swap1\n      pop\n      jump\t// out\n        /* \"#utility.yul\":3142:3986   */\n    tag_74:\n        /* \"#utility.yul\":3237:3243   */\n      0x00\n        /* \"#utility.yul\":3245:3251   */\n      dup1\n        /* \"#utility.yul\":3253:3259   */\n      0x00\n        /* \"#utility.yul\":3261:3267   */\n      dup1\n        /* \"#utility.yul\":3269:3275   */\n      0x00\n        /* \"#utility.yul\":3318:3321   */\n      0xa0\n        /* \"#utility.yul\":3306:3315   */\n      dup7\n        /* \"#utility.yul\":3297:3304   */\n      dup9\n        /* \"#utility.yul\":3293:3316   */\n      sub\n        /* \"#utility.yul\":3289:3322   */\n      slt\n        /* \"#utility.yul\":3286:3288   */\n      iszero\n      tag_274\n      jumpi\n        /* \"#utility.yul\":3335:3336   */\n      0x00\n        /* \"#utility.yul\":3332:3333   */\n      dup1\n        /* \"#utility.yul\":3325:3337   */\n      revert\n        /* \"#utility.yul\":3286:3288   */\n    tag_274:\n        /* \"#utility.yul\":3378:3379   */\n      0x00\n        /* \"#utility.yul\":3403:3456   */\n      tag_275\n        /* \"#utility.yul\":3448:3455   */\n      dup9\n        /* \"#utility.yul\":3439:3445   */\n      dup3\n        /* \"#utility.yul\":3428:3437   */\n      dup10\n        /* \"#utility.yul\":3424:3446   */\n      add\n        /* \"#utility.yul\":3403:3456   */\n      tag_238\n      jump\t// in\n    tag_275:\n        /* \"#utility.yul\":3393:3456   */\n      swap6\n      pop\n        /* \"#utility.yul\":3349:3466   */\n      pop\n        /* \"#utility.yul\":3505:3507   */\n      0x20\n        /* \"#utility.yul\":3531:3584   */\n      tag_276\n        /* \"#utility.yul\":3576:3583   */\n      dup9\n        /* \"#utility.yul\":3567:3573   */\n      dup3\n        /* \"#utility.yul\":3556:3565   */\n      dup10\n        /* \"#utility.yul\":3552:3574   */\n      add\n        /* \"#utility.yul\":3531:3584   */\n      tag_250\n      jump\t// in\n    tag_276:\n        /* \"#utility.yul\":3521:3584   */\n      swap5\n      pop\n        /* \"#utility.yul\":3476:3594   */\n      pop\n        /* \"#utility.yul\":3633:3635   */\n      0x40\n        /* \"#utility.yul\":3659:3712   */\n      tag_277\n        /* \"#utility.yul\":3704:3711   */\n      dup9\n        /* \"#utility.yul\":3695:3701   */\n      dup3\n        /* \"#utility.yul\":3684:3693   */\n      dup10\n        /* \"#utility.yul\":3680:3702   */\n      add\n        /* \"#utility.yul\":3659:3712   */\n      tag_250\n      jump\t// in\n    tag_277:\n        /* \"#utility.yul\":3649:3712   */\n      swap4\n      pop\n        /* \"#utility.yul\":3604:3722   */\n      pop\n        /* \"#utility.yul\":3761:3763   */\n      0x60\n        /* \"#utility.yul\":3787:3840   */\n      tag_278\n        /* \"#utility.yul\":3832:3839   */\n      dup9\n        /* \"#utility.yul\":3823:3829   */\n      dup3\n        /* \"#utility.yul\":3812:3821   */\n      dup10\n        /* \"#utility.yul\":3808:3830   */\n      add\n        /* \"#utility.yul\":3787:3840   */\n      tag_250\n      jump\t// in\n    tag_278:\n        /* \"#utility.yul\":3777:3840   */\n      swap3\n      pop\n        /* \"#utility.yul\":3732:3850   */\n      pop\n        /* \"#utility.yul\":3889:3892   */\n      0x80\n        /* \"#utility.yul\":3916:3969   */\n      tag_279\n        /* \"#utility.yul\":3961:3968   */\n      dup9\n        /* \"#utility.yul\":3952:3958   */\n      dup3\n        /* \"#utility.yul\":3941:3950   */\n      dup10\n        /* \"#utility.yul\":3937:3959   */\n      add\n        /* \"#utility.yul\":3916:3969   */\n      tag_250\n      jump\t// in\n    tag_279:\n        /* \"#utility.yul\":3906:3969   */\n      swap2\n      pop\n        /* \"#utility.yul\":3860:3979   */\n      pop\n        /* \"#utility.yul\":3276:3986   */\n      swap3\n      swap6\n      pop\n      swap3\n      swap6\n      swap1\n      swap4\n      pop\n      jump\t// out\n        /* \"#utility.yul\":3992:4254   */\n    tag_35:\n        /* \"#utility.yul\":4051:4057   */\n      0x00\n        /* \"#utility.yul\":4100:4102   */\n      0x20\n        /* \"#utility.yul\":4088:4097   */\n      dup3\n        /* \"#utility.yul\":4079:4086   */\n      dup5\n        /* \"#utility.yul\":4075:4098   */\n      sub\n        /* \"#utility.yul\":4071:4103   */\n      slt\n        /* \"#utility.yul\":4068:4070   */\n      iszero\n      tag_281\n      jumpi\n        /* \"#utility.yul\":4116:4117   */\n      0x00\n        /* \"#utility.yul\":4113:4114   */\n      dup1\n        /* \"#utility.yul\":4106:4118   */\n      revert\n        /* \"#utility.yul\":4068:4070   */\n    tag_281:\n        /* \"#utility.yul\":4159:4160   */\n      0x00\n        /* \"#utility.yul\":4184:4237   */\n      tag_282\n        /* \"#utility.yul\":4229:4236   */\n      dup5\n        /* \"#utility.yul\":4220:4226   */\n      dup3\n        /* \"#utility.yul\":4209:4218   */\n      dup6\n        /* \"#utility.yul\":4205:4227   */\n      add\n        /* \"#utility.yul\":4184:4237   */\n      tag_242\n      jump\t// in\n    tag_282:\n        /* \"#utility.yul\":4174:4237   */\n      swap2\n      pop\n        /* \"#utility.yul\":4130:4247   */\n      pop\n        /* \"#utility.yul\":4058:4254   */\n      swap3\n      swap2\n      pop\n      pop\n      jump\t// out\n        /* \"#utility.yul\":4260:4635   */\n    tag_27:\n        /* \"#utility.yul\":4329:4335   */\n      0x00\n        /* \"#utility.yul\":4378:4380   */\n      0x20\n        /* \"#utility.yul\":4366:4375   */\n      dup3\n        /* \"#utility.yul\":4357:4364   */\n      dup5\n        /* \"#utility.yul\":4353:4376   */\n      sub\n        /* \"#utility.yul\":4349:4381   */\n      slt\n        /* \"#utility.yul\":4346:4348   */\n      iszero\n      tag_284\n      jumpi\n        /* \"#utility.yul\":4394:4395   */\n      0x00\n        /* \"#utility.yul\":4391:4392   */\n      dup1\n        /* \"#utility.yul\":4384:4396   */\n      revert\n        /* \"#utility.yul\":4346:4348   */\n    tag_284:\n        /* \"#utility.yul\":4465:4466   */\n      0x00\n        /* \"#utility.yul\":4454:4463   */\n      dup3\n        /* \"#utility.yul\":4450:4467   */\n      add\n        /* \"#utility.yul\":4437:4468   */\n      calldataload\n        /* \"#utility.yul\":4495:4513   */\n      0xffffffffffffffff\n        /* \"#utility.yul\":4487:4493   */\n      dup2\n        /* \"#utility.yul\":4484:4514   */\n      gt\n        /* \"#utility.yul\":4481:4483   */\n      iszero\n      tag_285\n      jumpi\n        /* \"#utility.yul\":4527:4528   */\n      0x00\n        /* \"#utility.yul\":4524:4525   */\n      dup1\n        /* \"#utility.yul\":4517:4529   */\n      revert\n        /* \"#utility.yul\":4481:4483   */\n    tag_285:\n        /* \"#utility.yul\":4555:4618   */\n      tag_286\n        /* \"#utility.yul\":4610:4617   */\n      dup5\n        /* \"#utility.yul\":4601:4607   */\n      dup3\n        /* \"#utility.yul\":4590:4599   */\n      dup6\n        /* \"#utility.yul\":4586:4608   */\n      add\n        /* \"#utility.yul\":4555:4618   */\n      tag_246\n      jump\t// in\n    tag_286:\n        /* \"#utility.yul\":4545:4618   */\n      swap2\n      pop\n        /* \"#utility.yul\":4408:4628   */\n      pop\n        /* \"#utility.yul\":4336:4635   */\n      swap3\n      swap2\n      pop\n      pop\n      jump\t// out\n        /* \"#utility.yul\":4641:4820   */\n    tag_287:\n        /* \"#utility.yul\":4710:4720   */\n      0x00\n        /* \"#utility.yul\":4731:4777   */\n      tag_289\n        /* \"#utility.yul\":4773:4776   */\n      dup4\n        /* \"#utility.yul\":4765:4771   */\n      dup4\n        /* \"#utility.yul\":4731:4777   */\n      tag_290\n      jump\t// in\n    tag_289:\n        /* \"#utility.yul\":4809:4813   */\n      0x20\n        /* \"#utility.yul\":4804:4807   */\n      dup4\n        /* \"#utility.yul\":4800:4814   */\n      add\n        /* \"#utility.yul\":4786:4814   */\n      swap1\n      pop\n        /* \"#utility.yul\":4721:4820   */\n      swap3\n      swap2\n      pop\n      pop\n      jump\t// out\n        /* \"#utility.yul\":4826:4944   */\n    tag_291:\n        /* \"#utility.yul\":4913:4937   */\n      tag_293\n        /* \"#utility.yul\":4931:4936   */\n      dup2\n        /* \"#utility.yul\":4913:4937   */\n      tag_294\n      jump\t// in\n    tag_293:\n        /* \"#utility.yul\":4908:4911   */\n      dup3\n        /* \"#utility.yul\":4901:4938   */\n      mstore\n        /* \"#utility.yul\":4891:4944   */\n      pop\n      pop\n      jump\t// out\n        /* \"#utility.yul\":4950:5107   */\n    tag_295:\n        /* \"#utility.yul\":5055:5100   */\n      tag_297\n        /* \"#utility.yul\":5075:5099   */\n      tag_298\n        /* \"#utility.yul\":5093:5098   */\n      dup3\n        /* \"#utility.yul\":5075:5099   */\n      tag_294\n      jump\t// in\n    tag_298:\n        /* \"#utility.yul\":5055:5100   */\n      tag_299\n      jump\t// in\n    tag_297:\n        /* \"#utility.yul\":5050:5053   */\n      dup3\n        /* \"#utility.yul\":5043:5101   */\n      mstore\n        /* \"#utility.yul\":5033:5107   */\n      pop\n      pop\n      jump\t// out\n        /* \"#utility.yul\":5143:5875   */\n    tag_300:\n        /* \"#utility.yul\":5262:5265   */\n      0x00\n        /* \"#utility.yul\":5291:5345   */\n      tag_302\n        /* \"#utility.yul\":5339:5344   */\n      dup3\n        /* \"#utility.yul\":5291:5345   */\n      tag_303\n      jump\t// in\n    tag_302:\n        /* \"#utility.yul\":5361:5447   */\n      tag_304\n        /* \"#utility.yul\":5440:5446   */\n      dup2\n        /* \"#utility.yul\":5435:5438   */\n      dup6\n        /* \"#utility.yul\":5361:5447   */\n      tag_305\n      jump\t// in\n    tag_304:\n        /* \"#utility.yul\":5354:5447   */\n      swap4\n      pop\n        /* \"#utility.yul\":5471:5527   */\n      tag_306\n        /* \"#utility.yul\":5521:5526   */\n      dup4\n        /* \"#utility.yul\":5471:5527   */\n      tag_307\n      jump\t// in\n    tag_306:\n        /* \"#utility.yul\":5550:5557   */\n      dup1\n        /* \"#utility.yul\":5581:5582   */\n      0x00\n        /* \"#utility.yul\":5566:5850   */\n    tag_308:\n        /* \"#utility.yul\":5591:5597   */\n      dup4\n        /* \"#utility.yul\":5588:5589   */\n      dup2\n        /* \"#utility.yul\":5585:5598   */\n      lt\n        /* \"#utility.yul\":5566:5850   */\n      iszero\n      tag_310\n      jumpi\n        /* \"#utility.yul\":5667:5673   */\n      dup2\n        /* \"#utility.yul\":5661:5674   */\n      mload\n        /* \"#utility.yul\":5694:5757   */\n      tag_311\n        /* \"#utility.yul\":5753:5756   */\n      dup9\n        /* \"#utility.yul\":5738:5751   */\n      dup3\n        /* \"#utility.yul\":5694:5757   */\n      tag_287\n      jump\t// in\n    tag_311:\n        /* \"#utility.yul\":5687:5757   */\n      swap8\n      pop\n        /* \"#utility.yul\":5780:5840   */\n      tag_312\n        /* \"#utility.yul\":5833:5839   */\n      dup4\n        /* \"#utility.yul\":5780:5840   */\n      tag_313\n      jump\t// in\n    tag_312:\n        /* \"#utility.yul\":5770:5840   */\n      swap3\n      pop\n        /* \"#utility.yul\":5626:5850   */\n      pop\n        /* \"#utility.yul\":5613:5614   */\n      0x01\n        /* \"#utility.yul\":5610:5611   */\n      dup2\n        /* \"#utility.yul\":5606:5615   */\n      add\n        /* \"#utility.yul\":5601:5615   */\n      swap1\n      pop\n        /* \"#utility.yul\":5566:5850   */\n      jump(tag_308)\n    tag_310:\n        /* \"#utility.yul\":5570:5584   */\n      pop\n        /* \"#utility.yul\":5866:5869   */\n      dup6\n        /* \"#utility.yul\":5859:5869   */\n      swap4\n      pop\n        /* \"#utility.yul\":5267:5875   */\n      pop\n      pop\n      pop\n      swap3\n      swap2\n      pop\n      pop\n      jump\t// out\n        /* \"#utility.yul\":5881:5990   */\n    tag_314:\n        /* \"#utility.yul\":5962:5983   */\n      tag_316\n        /* \"#utility.yul\":5977:5982   */\n      dup2\n        /* \"#utility.yul\":5962:5983   */\n      tag_317\n      jump\t// in\n    tag_316:\n        /* \"#utility.yul\":5957:5960   */\n      dup3\n        /* \"#utility.yul\":5950:5984   */\n      mstore\n        /* \"#utility.yul\":5940:5990   */\n      pop\n      pop\n      jump\t// out\n        /* \"#utility.yul\":5996:6104   */\n    tag_290:\n        /* \"#utility.yul\":6073:6097   */\n      tag_319\n        /* \"#utility.yul\":6091:6096   */\n      dup2\n        /* \"#utility.yul\":6073:6097   */\n      tag_320\n      jump\t// in\n    tag_319:\n        /* \"#utility.yul\":6068:6071   */\n      dup3\n        /* \"#utility.yul\":6061:6098   */\n      mstore\n        /* \"#utility.yul\":6051:6104   */\n      pop\n      pop\n      jump\t// out\n        /* \"#utility.yul\":6110:6228   */\n    tag_321:\n        /* \"#utility.yul\":6197:6221   */\n      tag_323\n        /* \"#utility.yul\":6215:6220   */\n      dup2\n        /* \"#utility.yul\":6197:6221   */\n      tag_320\n      jump\t// in\n    tag_323:\n        /* \"#utility.yul\":6192:6195   */\n      dup3\n        /* \"#utility.yul\":6185:6222   */\n      mstore\n        /* \"#utility.yul\":6175:6228   */\n      pop\n      pop\n      jump\t// out\n        /* \"#utility.yul\":6234:6598   */\n    tag_324:\n        /* \"#utility.yul\":6322:6325   */\n      0x00\n        /* \"#utility.yul\":6350:6389   */\n      tag_326\n        /* \"#utility.yul\":6383:6388   */\n      dup3\n        /* \"#utility.yul\":6350:6389   */\n      tag_327\n      jump\t// in\n    tag_326:\n        /* \"#utility.yul\":6405:6476   */\n      tag_328\n        /* \"#utility.yul\":6469:6475   */\n      dup2\n        /* \"#utility.yul\":6464:6467   */\n      dup6\n        /* \"#utility.yul\":6405:6476   */\n      tag_329\n      jump\t// in\n    tag_328:\n        /* \"#utility.yul\":6398:6476   */\n      swap4\n      pop\n        /* \"#utility.yul\":6485:6537   */\n      tag_330\n        /* \"#utility.yul\":6530:6536   */\n      dup2\n        /* \"#utility.yul\":6525:6528   */\n      dup6\n        /* \"#utility.yul\":6518:6522   */\n      0x20\n        /* \"#utility.yul\":6511:6516   */\n      dup7\n        /* \"#utility.yul\":6507:6523   */\n      add\n        /* \"#utility.yul\":6485:6537   */\n      tag_331\n      jump\t// in\n    tag_330:\n        /* \"#utility.yul\":6562:6591   */\n      tag_332\n        /* \"#utility.yul\":6584:6590   */\n      dup2\n        /* \"#utility.yul\":6562:6591   */\n      tag_333\n      jump\t// in\n    tag_332:\n        /* \"#utility.yul\":6557:6560   */\n      dup5\n        /* \"#utility.yul\":6553:6592   */\n      add\n        /* \"#utility.yul\":6546:6592   */\n      swap2\n      pop\n        /* \"#utility.yul\":6326:6598   */\n      pop\n      swap3\n      swap2\n      pop\n      pop\n      jump\t// out\n        /* \"#utility.yul\":6604:6981   */\n    tag_334:\n        /* \"#utility.yul\":6710:6713   */\n      0x00\n        /* \"#utility.yul\":6738:6777   */\n      tag_336\n        /* \"#utility.yul\":6771:6776   */\n      dup3\n        /* \"#utility.yul\":6738:6777   */\n      tag_327\n      jump\t// in\n    tag_336:\n        /* \"#utility.yul\":6793:6882   */\n      tag_337\n        /* \"#utility.yul\":6875:6881   */\n      dup2\n        /* \"#utility.yul\":6870:6873   */\n      dup6\n        /* \"#utility.yul\":6793:6882   */\n      tag_338\n      jump\t// in\n    tag_337:\n        /* \"#utility.yul\":6786:6882   */\n      swap4\n      pop\n        /* \"#utility.yul\":6891:6943   */\n      tag_339\n        /* \"#utility.yul\":6936:6942   */\n      dup2\n        /* \"#utility.yul\":6931:6934   */\n      dup6\n        /* \"#utility.yul\":6924:6928   */\n      0x20\n        /* \"#utility.yul\":6917:6922   */\n      dup7\n        /* \"#utility.yul\":6913:6929   */\n      add\n        /* \"#utility.yul\":6891:6943   */\n      tag_331\n      jump\t// in\n    tag_339:\n        /* \"#utility.yul\":6968:6974   */\n      dup1\n        /* \"#utility.yul\":6963:6966   */\n      dup5\n        /* \"#utility.yul\":6959:6975   */\n      add\n        /* \"#utility.yul\":6952:6975   */\n      swap2\n      pop\n        /* \"#utility.yul\":6714:6981   */\n      pop\n      swap3\n      swap2\n      pop\n      pop\n      jump\t// out\n        /* \"#utility.yul\":6987:7353   */\n    tag_340:\n        /* \"#utility.yul\":7129:7132   */\n      0x00\n        /* \"#utility.yul\":7150:7217   */\n      tag_342\n        /* \"#utility.yul\":7214:7216   */\n      0x18\n        /* \"#utility.yul\":7209:7212   */\n      dup4\n        /* \"#utility.yul\":7150:7217   */\n      tag_329\n      jump\t// in\n    tag_342:\n        /* \"#utility.yul\":7143:7217   */\n      swap2\n      pop\n        /* \"#utility.yul\":7226:7319   */\n      tag_343\n        /* \"#utility.yul\":7315:7318   */\n      dup3\n        /* \"#utility.yul\":7226:7319   */\n      tag_344\n      jump\t// in\n    tag_343:\n        /* \"#utility.yul\":7344:7346   */\n      0x20\n        /* \"#utility.yul\":7339:7342   */\n      dup3\n        /* \"#utility.yul\":7335:7347   */\n      add\n        /* \"#utility.yul\":7328:7347   */\n      swap1\n      pop\n        /* \"#utility.yul\":7133:7353   */\n      swap2\n      swap1\n      pop\n      jump\t// out\n        /* \"#utility.yul\":7359:7725   */\n    tag_345:\n        /* \"#utility.yul\":7501:7504   */\n      0x00\n        /* \"#utility.yul\":7522:7589   */\n      tag_347\n        /* \"#utility.yul\":7586:7588   */\n      0x2e\n        /* \"#utility.yul\":7581:7584   */\n      dup4\n        /* \"#utility.yul\":7522:7589   */\n      tag_329\n      jump\t// in\n    tag_347:\n        /* \"#utility.yul\":7515:7589   */\n      swap2\n      pop\n        /* \"#utility.yul\":7598:7691   */\n      tag_348\n        /* \"#utility.yul\":7687:7690   */\n      dup3\n        /* \"#utility.yul\":7598:7691   */\n      tag_349\n      jump\t// in\n    tag_348:\n        /* \"#utility.yul\":7716:7718   */\n      0x40\n        /* \"#utility.yul\":7711:7714   */\n      dup3\n        /* \"#utility.yul\":7707:7719   */\n      add\n        /* \"#utility.yul\":7700:7719   */\n      swap1\n      pop\n        /* \"#utility.yul\":7505:7725   */\n      swap2\n      swap1\n      pop\n      jump\t// out\n        /* \"#utility.yul\":7731:8097   */\n    tag_350:\n        /* \"#utility.yul\":7873:7876   */\n      0x00\n        /* \"#utility.yul\":7894:7961   */\n      tag_352\n        /* \"#utility.yul\":7958:7960   */\n      0x17\n        /* \"#utility.yul\":7953:7956   */\n      dup4\n        /* \"#utility.yul\":7894:7961   */\n      tag_329\n      jump\t// in\n    tag_352:\n        /* \"#utility.yul\":7887:7961   */\n      swap2\n      pop\n        /* \"#utility.yul\":7970:8063   */\n      tag_353\n        /* \"#utility.yul\":8059:8062   */\n      dup3\n        /* \"#utility.yul\":7970:8063   */\n      tag_354\n      jump\t// in\n    tag_353:\n        /* \"#utility.yul\":8088:8090   */\n      0x20\n        /* \"#utility.yul\":8083:8086   */\n      dup3\n        /* \"#utility.yul\":8079:8091   */\n      add\n        /* \"#utility.yul\":8072:8091   */\n      swap1\n      pop\n        /* \"#utility.yul\":7877:8097   */\n      swap2\n      swap1\n      pop\n      jump\t// out\n        /* \"#utility.yul\":8103:8469   */\n    tag_355:\n        /* \"#utility.yul\":8245:8248   */\n      0x00\n        /* \"#utility.yul\":8266:8333   */\n      tag_357\n        /* \"#utility.yul\":8330:8332   */\n      0x27\n        /* \"#utility.yul\":8325:8328   */\n      dup4\n        /* \"#utility.yul\":8266:8333   */\n      tag_329\n      jump\t// in\n    tag_357:\n        /* \"#utility.yul\":8259:8333   */\n      swap2\n      pop\n        /* \"#utility.yul\":8342:8435   */\n      tag_358\n        /* \"#utility.yul\":8431:8434   */\n      dup3\n        /* \"#utility.yul\":8342:8435   */\n      tag_359\n      jump\t// in\n    tag_358:\n        /* \"#utility.yul\":8460:8462   */\n      0x40\n        /* \"#utility.yul\":8455:8458   */\n      dup3\n        /* \"#utility.yul\":8451:8463   */\n      add\n        /* \"#utility.yul\":8444:8463   */\n      swap1\n      pop\n        /* \"#utility.yul\":8249:8469   */\n      swap2\n      swap1\n      pop\n      jump\t// out\n        /* \"#utility.yul\":8475:8841   */\n    tag_360:\n        /* \"#utility.yul\":8617:8620   */\n      0x00\n        /* \"#utility.yul\":8638:8705   */\n      tag_362\n        /* \"#utility.yul\":8702:8704   */\n      0x11\n        /* \"#utility.yul\":8697:8700   */\n      dup4\n        /* \"#utility.yul\":8638:8705   */\n      tag_329\n      jump\t// in\n    tag_362:\n        /* \"#utility.yul\":8631:8705   */\n      swap2\n      pop\n        /* \"#utility.yul\":8714:8807   */\n      tag_363\n        /* \"#utility.yul\":8803:8806   */\n      dup3\n        /* \"#utility.yul\":8714:8807   */\n      tag_364\n      jump\t// in\n    tag_363:\n        /* \"#utility.yul\":8832:8834   */\n      0x20\n        /* \"#utility.yul\":8827:8830   */\n      dup3\n        /* \"#utility.yul\":8823:8835   */\n      add\n        /* \"#utility.yul\":8816:8835   */\n      swap1\n      pop\n        /* \"#utility.yul\":8621:8841   */\n      swap2\n      swap1\n      pop\n      jump\t// out\n        /* \"#utility.yul\":8847:9213   */\n    tag_365:\n        /* \"#utility.yul\":8989:8992   */\n      0x00\n        /* \"#utility.yul\":9010:9077   */\n      tag_367\n        /* \"#utility.yul\":9074:9076   */\n      0x14\n        /* \"#utility.yul\":9069:9072   */\n      dup4\n        /* \"#utility.yul\":9010:9077   */\n      tag_329\n      jump\t// in\n    tag_367:\n        /* \"#utility.yul\":9003:9077   */\n      swap2\n      pop\n        /* \"#utility.yul\":9086:9179   */\n      tag_368\n        /* \"#utility.yul\":9175:9178   */\n      dup3\n        /* \"#utility.yul\":9086:9179   */\n      tag_369\n      jump\t// in\n    tag_368:\n        /* \"#utility.yul\":9204:9206   */\n      0x20\n        /* \"#utility.yul\":9199:9202   */\n      dup3\n        /* \"#utility.yul\":9195:9207   */\n      add\n        /* \"#utility.yul\":9188:9207   */\n      swap1\n      pop\n        /* \"#utility.yul\":8993:9213   */\n      swap2\n      swap1\n      pop\n      jump\t// out\n        /* \"#utility.yul\":9219:9585   */\n    tag_370:\n        /* \"#utility.yul\":9361:9364   */\n      0x00\n        /* \"#utility.yul\":9382:9449   */\n      tag_372\n        /* \"#utility.yul\":9446:9448   */\n      0x2a\n        /* \"#utility.yul\":9441:9444   */\n      dup4\n        /* \"#utility.yul\":9382:9449   */\n      tag_329\n      jump\t// in\n    tag_372:\n        /* \"#utility.yul\":9375:9449   */\n      swap2\n      pop\n        /* \"#utility.yul\":9458:9551   */\n      tag_373\n        /* \"#utility.yul\":9547:9550   */\n      dup3\n        /* \"#utility.yul\":9458:9551   */\n      tag_374\n      jump\t// in\n    tag_373:\n        /* \"#utility.yul\":9576:9578   */\n      0x40\n        /* \"#utility.yul\":9571:9574   */\n      dup3\n        /* \"#utility.yul\":9567:9579   */\n      add\n        /* \"#utility.yul\":9560:9579   */\n      swap1\n      pop\n        /* \"#utility.yul\":9365:9585   */\n      swap2\n      swap1\n      pop\n      jump\t// out\n        /* \"#utility.yul\":9591:9957   */\n    tag_375:\n        /* \"#utility.yul\":9733:9736   */\n      0x00\n        /* \"#utility.yul\":9754:9821   */\n      tag_377\n        /* \"#utility.yul\":9818:9820   */\n      0x12\n        /* \"#utility.yul\":9813:9816   */\n      dup4\n        /* \"#utility.yul\":9754:9821   */\n      tag_329\n      jump\t// in\n    tag_377:\n        /* \"#utility.yul\":9747:9821   */\n      swap2\n      pop\n        /* \"#utility.yul\":9830:9923   */\n      tag_378\n        /* \"#utility.yul\":9919:9922   */\n      dup3\n        /* \"#utility.yul\":9830:9923   */\n      tag_379\n      jump\t// in\n    tag_378:\n        /* \"#utility.yul\":9948:9950   */\n      0x20\n        /* \"#utility.yul\":9943:9946   */\n      dup3\n        /* \"#utility.yul\":9939:9951   */\n      add\n        /* \"#utility.yul\":9932:9951   */\n      swap1\n      pop\n        /* \"#utility.yul\":9737:9957   */\n      swap2\n      swap1\n      pop\n      jump\t// out\n        /* \"#utility.yul\":9963:10329   */\n    tag_380:\n        /* \"#utility.yul\":10105:10108   */\n      0x00\n        /* \"#utility.yul\":10126:10193   */\n      tag_382\n        /* \"#utility.yul\":10190:10192   */\n      0x0d\n        /* \"#utility.yul\":10185:10188   */\n      dup4\n        /* \"#utility.yul\":10126:10193   */\n      tag_329\n      jump\t// in\n    tag_382:\n        /* \"#utility.yul\":10119:10193   */\n      swap2\n      pop\n        /* \"#utility.yul\":10202:10295   */\n      tag_383\n        /* \"#utility.yul\":10291:10294   */\n      dup3\n        /* \"#utility.yul\":10202:10295   */\n      tag_384\n      jump\t// in\n    tag_383:\n        /* \"#utility.yul\":10320:10322   */\n      0x20\n        /* \"#utility.yul\":10315:10318   */\n      dup3\n        /* \"#utility.yul\":10311:10323   */\n      add\n        /* \"#utility.yul\":10304:10323   */\n      swap1\n      pop\n        /* \"#utility.yul\":10109:10329   */\n      swap2\n      swap1\n      pop\n      jump\t// out\n        /* \"#utility.yul\":10335:10453   */\n    tag_385:\n        /* \"#utility.yul\":10422:10446   */\n      tag_387\n        /* \"#utility.yul\":10440:10445   */\n      dup2\n        /* \"#utility.yul\":10422:10446   */\n      tag_388\n      jump\t// in\n    tag_387:\n        /* \"#utility.yul\":10417:10420   */\n      dup3\n        /* \"#utility.yul\":10410:10447   */\n      mstore\n        /* \"#utility.yul\":10400:10453   */\n      pop\n      pop\n      jump\t// out\n        /* \"#utility.yul\":10459:10616   */\n    tag_389:\n        /* \"#utility.yul\":10564:10609   */\n      tag_391\n        /* \"#utility.yul\":10584:10608   */\n      tag_392\n        /* \"#utility.yul\":10602:10607   */\n      dup3\n        /* \"#utility.yul\":10584:10608   */\n      tag_388\n      jump\t// in\n    tag_392:\n        /* \"#utility.yul\":10564:10609   */\n      tag_393\n      jump\t// in\n    tag_391:\n        /* \"#utility.yul\":10559:10562   */\n      dup3\n        /* \"#utility.yul\":10552:10610   */\n      mstore\n        /* \"#utility.yul\":10542:10616   */\n      pop\n      pop\n      jump\t// out\n        /* \"#utility.yul\":10622:11019   */\n    tag_213:\n        /* \"#utility.yul\":10762:10765   */\n      0x00\n        /* \"#utility.yul\":10777:10852   */\n      tag_395\n        /* \"#utility.yul\":10848:10851   */\n      dup3\n        /* \"#utility.yul\":10839:10845   */\n      dup6\n        /* \"#utility.yul\":10777:10852   */\n      tag_295\n      jump\t// in\n    tag_395:\n        /* \"#utility.yul\":10877:10879   */\n      0x14\n        /* \"#utility.yul\":10872:10875   */\n      dup3\n        /* \"#utility.yul\":10868:10880   */\n      add\n        /* \"#utility.yul\":10861:10880   */\n      swap2\n      pop\n        /* \"#utility.yul\":10890:10965   */\n      tag_396\n        /* \"#utility.yul\":10961:10964   */\n      dup3\n        /* \"#utility.yul\":10952:10958   */\n      dup5\n        /* \"#utility.yul\":10890:10965   */\n      tag_389\n      jump\t// in\n    tag_396:\n        /* \"#utility.yul\":10990:10992   */\n      0x20\n        /* \"#utility.yul\":10985:10988   */\n      dup3\n        /* \"#utility.yul\":10981:10993   */\n      add\n        /* \"#utility.yul\":10974:10993   */\n      swap2\n      pop\n        /* \"#utility.yul\":11010:11013   */\n      dup2\n        /* \"#utility.yul\":11003:11013   */\n      swap1\n      pop\n        /* \"#utility.yul\":10766:11019   */\n      swap4\n      swap3\n      pop\n      pop\n      pop\n      jump\t// out\n        /* \"#utility.yul\":11025:11300   */\n    tag_119:\n        /* \"#utility.yul\":11157:11160   */\n      0x00\n        /* \"#utility.yul\":11179:11274   */\n      tag_398\n        /* \"#utility.yul\":11270:11273   */\n      dup3\n        /* \"#utility.yul\":11261:11267   */\n      dup5\n        /* \"#utility.yul\":11179:11274   */\n      tag_334\n      jump\t// in\n    tag_398:\n        /* \"#utility.yul\":11172:11274   */\n      swap2\n      pop\n        /* \"#utility.yul\":11291:11294   */\n      dup2\n        /* \"#utility.yul\":11284:11294   */\n      swap1\n      pop\n        /* \"#utility.yul\":11161:11300   */\n      swap3\n      swap2\n      pop\n      pop\n      jump\t// out\n        /* \"#utility.yul\":11306:11528   */\n    tag_66:\n        /* \"#utility.yul\":11399:11403   */\n      0x00\n        /* \"#utility.yul\":11437:11439   */\n      0x20\n        /* \"#utility.yul\":11426:11435   */\n      dup3\n        /* \"#utility.yul\":11422:11440   */\n      add\n        /* \"#utility.yul\":11414:11440   */\n      swap1\n      pop\n        /* \"#utility.yul\":11450:11521   */\n      tag_400\n        /* \"#utility.yul\":11518:11519   */\n      0x00\n        /* \"#utility.yul\":11507:11516   */\n      dup4\n        /* \"#utility.yul\":11503:11520   */\n      add\n        /* \"#utility.yul\":11494:11500   */\n      dup5\n        /* \"#utility.yul\":11450:11521   */\n      tag_291\n      jump\t// in\n    tag_400:\n        /* \"#utility.yul\":11404:11528   */\n      swap3\n      swap2\n      pop\n      pop\n      jump\t// out\n        /* \"#utility.yul\":11534:12178   */\n    tag_38:\n        /* \"#utility.yul\":11731:11735   */\n      0x00\n        /* \"#utility.yul\":11769:11772   */\n      0x80\n        /* \"#utility.yul\":11758:11767   */\n      dup3\n        /* \"#utility.yul\":11754:11773   */\n      add\n        /* \"#utility.yul\":11746:11773   */\n      swap1\n      pop\n        /* \"#utility.yul\":11783:11854   */\n      tag_402\n        /* \"#utility.yul\":11851:11852   */\n      0x00\n        /* \"#utility.yul\":11840:11849   */\n      dup4\n        /* \"#utility.yul\":11836:11853   */\n      add\n        /* \"#utility.yul\":11827:11833   */\n      dup8\n        /* \"#utility.yul\":11783:11854   */\n      tag_291\n      jump\t// in\n    tag_402:\n        /* \"#utility.yul\":11864:11936   */\n      tag_403\n        /* \"#utility.yul\":11932:11934   */\n      0x20\n        /* \"#utility.yul\":11921:11930   */\n      dup4\n        /* \"#utility.yul\":11917:11935   */\n      add\n        /* \"#utility.yul\":11908:11914   */\n      dup7\n        /* \"#utility.yul\":11864:11936   */\n      tag_385\n      jump\t// in\n    tag_403:\n        /* \"#utility.yul\":11946:12018   */\n      tag_404\n        /* \"#utility.yul\":12014:12016   */\n      0x40\n        /* \"#utility.yul\":12003:12012   */\n      dup4\n        /* \"#utility.yul\":11999:12017   */\n      add\n        /* \"#utility.yul\":11990:11996   */\n      dup6\n        /* \"#utility.yul\":11946:12018   */\n      tag_291\n      jump\t// in\n    tag_404:\n        /* \"#utility.yul\":12065:12074   */\n      dup2\n        /* \"#utility.yul\":12059:12063   */\n      dup2\n        /* \"#utility.yul\":12055:12075   */\n      sub\n        /* \"#utility.yul\":12050:12052   */\n      0x60\n        /* \"#utility.yul\":12039:12048   */\n      dup4\n        /* \"#utility.yul\":12035:12053   */\n      add\n        /* \"#utility.yul\":12028:12076   */\n      mstore\n        /* \"#utility.yul\":12093:12171   */\n      tag_405\n        /* \"#utility.yul\":12166:12170   */\n      dup2\n        /* \"#utility.yul\":12157:12163   */\n      dup5\n        /* \"#utility.yul\":12093:12171   */\n      tag_324\n      jump\t// in\n    tag_405:\n        /* \"#utility.yul\":12085:12171   */\n      swap1\n      pop\n        /* \"#utility.yul\":11736:12178   */\n      swap6\n      swap5\n      pop\n      pop\n      pop\n      pop\n      pop\n      jump\t// out\n        /* \"#utility.yul\":12184:12557   */\n    tag_61:\n        /* \"#utility.yul\":12327:12331   */\n      0x00\n        /* \"#utility.yul\":12365:12367   */\n      0x20\n        /* \"#utility.yul\":12354:12363   */\n      dup3\n        /* \"#utility.yul\":12350:12368   */\n      add\n        /* \"#utility.yul\":12342:12368   */\n      swap1\n      pop\n        /* \"#utility.yul\":12414:12423   */\n      dup2\n        /* \"#utility.yul\":12408:12412   */\n      dup2\n        /* \"#utility.yul\":12404:12424   */\n      sub\n        /* \"#utility.yul\":12400:12401   */\n      0x00\n        /* \"#utility.yul\":12389:12398   */\n      dup4\n        /* \"#utility.yul\":12385:12402   */\n      add\n        /* \"#utility.yul\":12378:12425   */\n      mstore\n        /* \"#utility.yul\":12442:12550   */\n      tag_407\n        /* \"#utility.yul\":12545:12549   */\n      dup2\n        /* \"#utility.yul\":12536:12542   */\n      dup5\n        /* \"#utility.yul\":12442:12550   */\n      tag_300\n      jump\t// in\n    tag_407:\n        /* \"#utility.yul\":12434:12550   */\n      swap1\n      pop\n        /* \"#utility.yul\":12332:12557   */\n      swap3\n      swap2\n      pop\n      pop\n      jump\t// out\n        /* \"#utility.yul\":12563:12773   */\n    tag_32:\n        /* \"#utility.yul\":12650:12654   */\n      0x00\n        /* \"#utility.yul\":12688:12690   */\n      0x20\n        /* \"#utility.yul\":12677:12686   */\n      dup3\n        /* \"#utility.yul\":12673:12691   */\n      add\n        /* \"#utility.yul\":12665:12691   */\n      swap1\n      pop\n        /* \"#utility.yul\":12701:12766   */\n      tag_409\n        /* \"#utility.yul\":12763:12764   */\n      0x00\n        /* \"#utility.yul\":12752:12761   */\n      dup4\n        /* \"#utility.yul\":12748:12765   */\n      add\n        /* \"#utility.yul\":12739:12745   */\n      dup5\n        /* \"#utility.yul\":12701:12766   */\n      tag_314\n      jump\t// in\n    tag_409:\n        /* \"#utility.yul\":12655:12773   */\n      swap3\n      swap2\n      pop\n      pop\n      jump\t// out\n        /* \"#utility.yul\":12779:13001   */\n    tag_47:\n        /* \"#utility.yul\":12872:12876   */\n      0x00\n        /* \"#utility.yul\":12910:12912   */\n      0x20\n        /* \"#utility.yul\":12899:12908   */\n      dup3\n        /* \"#utility.yul\":12895:12913   */\n      add\n        /* \"#utility.yul\":12887:12913   */\n      swap1\n      pop\n        /* \"#utility.yul\":12923:12994   */\n      tag_411\n        /* \"#utility.yul\":12991:12992   */\n      0x00\n        /* \"#utility.yul\":12980:12989   */\n      dup4\n        /* \"#utility.yul\":12976:12993   */\n      add\n        /* \"#utility.yul\":12967:12973   */\n      dup5\n        /* \"#utility.yul\":12923:12994   */\n      tag_321\n      jump\t// in\n    tag_411:\n        /* \"#utility.yul\":12877:13001   */\n      swap3\n      swap2\n      pop\n      pop\n      jump\t// out\n        /* \"#utility.yul\":13007:13320   */\n    tag_94:\n        /* \"#utility.yul\":13120:13124   */\n      0x00\n        /* \"#utility.yul\":13158:13160   */\n      0x20\n        /* \"#utility.yul\":13147:13156   */\n      dup3\n        /* \"#utility.yul\":13143:13161   */\n      add\n        /* \"#utility.yul\":13135:13161   */\n      swap1\n      pop\n        /* \"#utility.yul\":13207:13216   */\n      dup2\n        /* \"#utility.yul\":13201:13205   */\n      dup2\n        /* \"#utility.yul\":13197:13217   */\n      sub\n        /* \"#utility.yul\":13193:13194   */\n      0x00\n        /* \"#utility.yul\":13182:13191   */\n      dup4\n        /* \"#utility.yul\":13178:13195   */\n      add\n        /* \"#utility.yul\":13171:13218   */\n      mstore\n        /* \"#utility.yul\":13235:13313   */\n      tag_413\n        /* \"#utility.yul\":13308:13312   */\n      dup2\n        /* \"#utility.yul\":13299:13305   */\n      dup5\n        /* \"#utility.yul\":13235:13313   */\n      tag_324\n      jump\t// in\n    tag_413:\n        /* \"#utility.yul\":13227:13313   */\n      swap1\n      pop\n        /* \"#utility.yul\":13125:13320   */\n      swap3\n      swap2\n      pop\n      pop\n      jump\t// out\n        /* \"#utility.yul\":13326:13749   */\n    tag_194:\n        /* \"#utility.yul\":13467:13471   */\n      0x00\n        /* \"#utility.yul\":13505:13507   */\n      0x40\n        /* \"#utility.yul\":13494:13503   */\n      dup3\n        /* \"#utility.yul\":13490:13508   */\n      add\n        /* \"#utility.yul\":13482:13508   */\n      swap1\n      pop\n        /* \"#utility.yul\":13554:13563   */\n      dup2\n        /* \"#utility.yul\":13548:13552   */\n      dup2\n        /* \"#utility.yul\":13544:13564   */\n      sub\n        /* \"#utility.yul\":13540:13541   */\n      0x00\n        /* \"#utility.yul\":13529:13538   */\n      dup4\n        /* \"#utility.yul\":13525:13542   */\n      add\n        /* \"#utility.yul\":13518:13565   */\n      mstore\n        /* \"#utility.yul\":13582:13660   */\n      tag_415\n        /* \"#utility.yul\":13655:13659   */\n      dup2\n        /* \"#utility.yul\":13646:13652   */\n      dup6\n        /* \"#utility.yul\":13582:13660   */\n      tag_324\n      jump\t// in\n    tag_415:\n        /* \"#utility.yul\":13574:13660   */\n      swap1\n      pop\n        /* \"#utility.yul\":13670:13742   */\n      tag_416\n        /* \"#utility.yul\":13738:13740   */\n      0x20\n        /* \"#utility.yul\":13727:13736   */\n      dup4\n        /* \"#utility.yul\":13723:13741   */\n      add\n        /* \"#utility.yul\":13714:13720   */\n      dup5\n        /* \"#utility.yul\":13670:13742   */\n      tag_385\n      jump\t// in\n    tag_416:\n        /* \"#utility.yul\":13472:13749   */\n      swap4\n      swap3\n      pop\n      pop\n      pop\n      jump\t// out\n        /* \"#utility.yul\":13755:14174   */\n    tag_152:\n        /* \"#utility.yul\":13921:13925   */\n      0x00\n        /* \"#utility.yul\":13959:13961   */\n      0x20\n        /* \"#utility.yul\":13948:13957   */\n      dup3\n        /* \"#utility.yul\":13944:13962   */\n      add\n        /* \"#utility.yul\":13936:13962   */\n      swap1\n      pop\n        /* \"#utility.yul\":14008:14017   */\n      dup2\n        /* \"#utility.yul\":14002:14006   */\n      dup2\n        /* \"#utility.yul\":13998:14018   */\n      sub\n        /* \"#utility.yul\":13994:13995   */\n      0x00\n        /* \"#utility.yul\":13983:13992   */\n      dup4\n        /* \"#utility.yul\":13979:13996   */\n      add\n        /* \"#utility.yul\":13972:14019   */\n      mstore\n        /* \"#utility.yul\":14036:14167   */\n      tag_418\n        /* \"#utility.yul\":14162:14166   */\n      dup2\n        /* \"#utility.yul\":14036:14167   */\n      tag_340\n      jump\t// in\n    tag_418:\n        /* \"#utility.yul\":14028:14167   */\n      swap1\n      pop\n        /* \"#utility.yul\":13926:14174   */\n      swap2\n      swap1\n      pop\n      jump\t// out\n        /* \"#utility.yul\":14180:14599   */\n    tag_198:\n        /* \"#utility.yul\":14346:14350   */\n      0x00\n        /* \"#utility.yul\":14384:14386   */\n      0x20\n        /* \"#utility.yul\":14373:14382   */\n      dup3\n        /* \"#utility.yul\":14369:14387   */\n      add\n        /* \"#utility.yul\":14361:14387   */\n      swap1\n      pop\n        /* \"#utility.yul\":14433:14442   */\n      dup2\n        /* \"#utility.yul\":14427:14431   */\n      dup2\n        /* \"#utility.yul\":14423:14443   */\n      sub\n        /* \"#utility.yul\":14419:14420   */\n      0x00\n        /* \"#utility.yul\":14408:14417   */\n      dup4\n        /* \"#utility.yul\":14404:14421   */\n      add\n        /* \"#utility.yul\":14397:14444   */\n      mstore\n        /* \"#utility.yul\":14461:14592   */\n      tag_420\n        /* \"#utility.yul\":14587:14591   */\n      dup2\n        /* \"#utility.yul\":14461:14592   */\n      tag_345\n      jump\t// in\n    tag_420:\n        /* \"#utility.yul\":14453:14592   */\n      swap1\n      pop\n        /* \"#utility.yul\":14351:14599   */\n      swap2\n      swap1\n      pop\n      jump\t// out\n        /* \"#utility.yul\":14605:15024   */\n    tag_131:\n        /* \"#utility.yul\":14771:14775   */\n      0x00\n        /* \"#utility.yul\":14809:14811   */\n      0x20\n        /* \"#utility.yul\":14798:14807   */\n      dup3\n        /* \"#utility.yul\":14794:14812   */\n      add\n        /* \"#utility.yul\":14786:14812   */\n      swap1\n      pop\n        /* \"#utility.yul\":14858:14867   */\n      dup2\n        /* \"#utility.yul\":14852:14856   */\n      dup2\n        /* \"#utility.yul\":14848:14868   */\n      sub\n        /* \"#utility.yul\":14844:14845   */\n      0x00\n        /* \"#utility.yul\":14833:14842   */\n      dup4\n        /* \"#utility.yul\":14829:14846   */\n      add\n        /* \"#utility.yul\":14822:14869   */\n      mstore\n        /* \"#utility.yul\":14886:15017   */\n      tag_422\n        /* \"#utility.yul\":15012:15016   */\n      dup2\n        /* \"#utility.yul\":14886:15017   */\n      tag_350\n      jump\t// in\n    tag_422:\n        /* \"#utility.yul\":14878:15017   */\n      swap1\n      pop\n        /* \"#utility.yul\":14776:15024   */\n      swap2\n      swap1\n      pop\n      jump\t// out\n        /* \"#utility.yul\":15030:15449   */\n    tag_149:\n        /* \"#utility.yul\":15196:15200   */\n      0x00\n        /* \"#utility.yul\":15234:15236   */\n      0x20\n        /* \"#utility.yul\":15223:15232   */\n      dup3\n        /* \"#utility.yul\":15219:15237   */\n      add\n        /* \"#utility.yul\":15211:15237   */\n      swap1\n      pop\n        /* \"#utility.yul\":15283:15292   */\n      dup2\n        /* \"#utility.yul\":15277:15281   */\n      dup2\n        /* \"#utility.yul\":15273:15293   */\n      sub\n        /* \"#utility.yul\":15269:15270   */\n      0x00\n        /* \"#utility.yul\":15258:15267   */\n      dup4\n        /* \"#utility.yul\":15254:15271   */\n      add\n        /* \"#utility.yul\":15247:15294   */\n      mstore\n        /* \"#utility.yul\":15311:15442   */\n      tag_424\n        /* \"#utility.yul\":15437:15441   */\n      dup2\n        /* \"#utility.yul\":15311:15442   */\n      tag_355\n      jump\t// in\n    tag_424:\n        /* \"#utility.yul\":15303:15442   */\n      swap1\n      pop\n        /* \"#utility.yul\":15201:15449   */\n      swap2\n      swap1\n      pop\n      jump\t// out\n        /* \"#utility.yul\":15455:15874   */\n    tag_111:\n        /* \"#utility.yul\":15621:15625   */\n      0x00\n        /* \"#utility.yul\":15659:15661   */\n      0x20\n        /* \"#utility.yul\":15648:15657   */\n      dup3\n        /* \"#utility.yul\":15644:15662   */\n      add\n        /* \"#utility.yul\":15636:15662   */\n      swap1\n      pop\n        /* \"#utility.yul\":15708:15717   */\n      dup2\n        /* \"#utility.yul\":15702:15706   */\n      dup2\n        /* \"#utility.yul\":15698:15718   */\n      sub\n        /* \"#utility.yul\":15694:15695   */\n      0x00\n        /* \"#utility.yul\":15683:15692   */\n      dup4\n        /* \"#utility.yul\":15679:15696   */\n      add\n        /* \"#utility.yul\":15672:15719   */\n      mstore\n        /* \"#utility.yul\":15736:15867   */\n      tag_426\n        /* \"#utility.yul\":15862:15866   */\n      dup2\n        /* \"#utility.yul\":15736:15867   */\n      tag_360\n      jump\t// in\n    tag_426:\n        /* \"#utility.yul\":15728:15867   */\n      swap1\n      pop\n        /* \"#utility.yul\":15626:15874   */\n      swap2\n      swap1\n      pop\n      jump\t// out\n        /* \"#utility.yul\":15880:16299   */\n    tag_164:\n        /* \"#utility.yul\":16046:16050   */\n      0x00\n        /* \"#utility.yul\":16084:16086   */\n      0x20\n        /* \"#utility.yul\":16073:16082   */\n      dup3\n        /* \"#utility.yul\":16069:16087   */\n      add\n        /* \"#utility.yul\":16061:16087   */\n      swap1\n      pop\n        /* \"#utility.yul\":16133:16142   */\n      dup2\n        /* \"#utility.yul\":16127:16131   */\n      dup2\n        /* \"#utility.yul\":16123:16143   */\n      sub\n        /* \"#utility.yul\":16119:16120   */\n      0x00\n        /* \"#utility.yul\":16108:16117   */\n      dup4\n        /* \"#utility.yul\":16104:16121   */\n      add\n        /* \"#utility.yul\":16097:16144   */\n      mstore\n        /* \"#utility.yul\":16161:16292   */\n      tag_428\n        /* \"#utility.yul\":16287:16291   */\n      dup2\n        /* \"#utility.yul\":16161:16292   */\n      tag_365\n      jump\t// in\n    tag_428:\n        /* \"#utility.yul\":16153:16292   */\n      swap1\n      pop\n        /* \"#utility.yul\":16051:16299   */\n      swap2\n      swap1\n      pop\n      jump\t// out\n        /* \"#utility.yul\":16305:16724   */\n    tag_105:\n        /* \"#utility.yul\":16471:16475   */\n      0x00\n        /* \"#utility.yul\":16509:16511   */\n      0x20\n        /* \"#utility.yul\":16498:16507   */\n      dup3\n        /* \"#utility.yul\":16494:16512   */\n      add\n        /* \"#utility.yul\":16486:16512   */\n      swap1\n      pop\n        /* \"#utility.yul\":16558:16567   */\n      dup2\n        /* \"#utility.yul\":16552:16556   */\n      dup2\n        /* \"#utility.yul\":16548:16568   */\n      sub\n        /* \"#utility.yul\":16544:16545   */\n      0x00\n        /* \"#utility.yul\":16533:16542   */\n      dup4\n        /* \"#utility.yul\":16529:16546   */\n      add\n        /* \"#utility.yul\":16522:16569   */\n      mstore\n        /* \"#utility.yul\":16586:16717   */\n      tag_430\n        /* \"#utility.yul\":16712:16716   */\n      dup2\n        /* \"#utility.yul\":16586:16717   */\n      tag_370\n      jump\t// in\n    tag_430:\n        /* \"#utility.yul\":16578:16717   */\n      swap1\n      pop\n        /* \"#utility.yul\":16476:16724   */\n      swap2\n      swap1\n      pop\n      jump\t// out\n        /* \"#utility.yul\":16730:17149   */\n    tag_135:\n        /* \"#utility.yul\":16896:16900   */\n      0x00\n        /* \"#utility.yul\":16934:16936   */\n      0x20\n        /* \"#utility.yul\":16923:16932   */\n      dup3\n        /* \"#utility.yul\":16919:16937   */\n      add\n        /* \"#utility.yul\":16911:16937   */\n      swap1\n      pop\n        /* \"#utility.yul\":16983:16992   */\n      dup2\n        /* \"#utility.yul\":16977:16981   */\n      dup2\n        /* \"#utility.yul\":16973:16993   */\n      sub\n        /* \"#utility.yul\":16969:16970   */\n      0x00\n        /* \"#utility.yul\":16958:16967   */\n      dup4\n        /* \"#utility.yul\":16954:16971   */\n      add\n        /* \"#utility.yul\":16947:16994   */\n      mstore\n        /* \"#utility.yul\":17011:17142   */\n      tag_432\n        /* \"#utility.yul\":17137:17141   */\n      dup2\n        /* \"#utility.yul\":17011:17142   */\n      tag_375\n      jump\t// in\n    tag_432:\n        /* \"#utility.yul\":17003:17142   */\n      swap1\n      pop\n        /* \"#utility.yul\":16901:17149   */\n      swap2\n      swap1\n      pop\n      jump\t// out\n        /* \"#utility.yul\":17155:17574   */\n    tag_187:\n        /* \"#utility.yul\":17321:17325   */\n      0x00\n        /* \"#utility.yul\":17359:17361   */\n      0x20\n        /* \"#utility.yul\":17348:17357   */\n      dup3\n        /* \"#utility.yul\":17344:17362   */\n      add\n        /* \"#utility.yul\":17336:17362   */\n      swap1\n      pop\n        /* \"#utility.yul\":17408:17417   */\n      dup2\n        /* \"#utility.yul\":17402:17406   */\n      dup2\n        /* \"#utility.yul\":17398:17418   */\n      sub\n        /* \"#utility.yul\":17394:17395   */\n      0x00\n        /* \"#utility.yul\":17383:17392   */\n      dup4\n        /* \"#utility.yul\":17379:17396   */\n      add\n        /* \"#utility.yul\":17372:17419   */\n      mstore\n        /* \"#utility.yul\":17436:17567   */\n      tag_434\n        /* \"#utility.yul\":17562:17566   */\n      dup2\n        /* \"#utility.yul\":17436:17567   */\n      tag_380\n      jump\t// in\n    tag_434:\n        /* \"#utility.yul\":17428:17567   */\n      swap1\n      pop\n        /* \"#utility.yul\":17326:17574   */\n      swap2\n      swap1\n      pop\n      jump\t// out\n        /* \"#utility.yul\":17580:17802   */\n    tag_154:\n        /* \"#utility.yul\":17673:17677   */\n      0x00\n        /* \"#utility.yul\":17711:17713   */\n      0x20\n        /* \"#utility.yul\":17700:17709   */\n      dup3\n        /* \"#utility.yul\":17696:17714   */\n      add\n        /* \"#utility.yul\":17688:17714   */\n      swap1\n      pop\n        /* \"#utility.yul\":17724:17795   */\n      tag_436\n        /* \"#utility.yul\":17792:17793   */\n      0x00\n        /* \"#utility.yul\":17781:17790   */\n      dup4\n        /* \"#utility.yul\":17777:17794   */\n      add\n        /* \"#utility.yul\":17768:17774   */\n      dup5\n        /* \"#utility.yul\":17724:17795   */\n      tag_385\n      jump\t// in\n    tag_436:\n        /* \"#utility.yul\":17678:17802   */\n      swap3\n      swap2\n      pop\n      pop\n      jump\t// out\n        /* \"#utility.yul\":17808:18361   */\n    tag_71:\n        /* \"#utility.yul\":17985:17989   */\n      0x00\n        /* \"#utility.yul\":18023:18026   */\n      0x80\n        /* \"#utility.yul\":18012:18021   */\n      dup3\n        /* \"#utility.yul\":18008:18027   */\n      add\n        /* \"#utility.yul\":18000:18027   */\n      swap1\n      pop\n        /* \"#utility.yul\":18037:18108   */\n      tag_438\n        /* \"#utility.yul\":18105:18106   */\n      0x00\n        /* \"#utility.yul\":18094:18103   */\n      dup4\n        /* \"#utility.yul\":18090:18107   */\n      add\n        /* \"#utility.yul\":18081:18087   */\n      dup8\n        /* \"#utility.yul\":18037:18108   */\n      tag_385\n      jump\t// in\n    tag_438:\n        /* \"#utility.yul\":18118:18190   */\n      tag_439\n        /* \"#utility.yul\":18186:18188   */\n      0x20\n        /* \"#utility.yul\":18175:18184   */\n      dup4\n        /* \"#utility.yul\":18171:18189   */\n      add\n        /* \"#utility.yul\":18162:18168   */\n      dup7\n        /* \"#utility.yul\":18118:18190   */\n      tag_385\n      jump\t// in\n    tag_439:\n        /* \"#utility.yul\":18200:18272   */\n      tag_440\n        /* \"#utility.yul\":18268:18270   */\n      0x40\n        /* \"#utility.yul\":18257:18266   */\n      dup4\n        /* \"#utility.yul\":18253:18271   */\n      add\n        /* \"#utility.yul\":18244:18250   */\n      dup6\n        /* \"#utility.yul\":18200:18272   */\n      tag_385\n      jump\t// in\n    tag_440:\n        /* \"#utility.yul\":18282:18354   */\n      tag_441\n        /* \"#utility.yul\":18350:18352   */\n      0x60\n        /* \"#utility.yul\":18339:18348   */\n      dup4\n        /* \"#utility.yul\":18335:18353   */\n      add\n        /* \"#utility.yul\":18326:18332   */\n      dup5\n        /* \"#utility.yul\":18282:18354   */\n      tag_385\n      jump\t// in\n    tag_441:\n        /* \"#utility.yul\":17990:18361   */\n      swap6\n      swap5\n      pop\n      pop\n      pop\n      pop\n      pop\n      jump\t// out\n        /* \"#utility.yul\":18367:18496   */\n    tag_234:\n        /* \"#utility.yul\":18401:18407   */\n      0x00\n        /* \"#utility.yul\":18428:18448   */\n      tag_443\n      tag_444\n      jump\t// in\n    tag_443:\n        /* \"#utility.yul\":18418:18448   */\n      swap1\n      pop\n        /* \"#utility.yul\":18457:18490   */\n      tag_445\n        /* \"#utility.yul\":18485:18489   */\n      dup3\n        /* \"#utility.yul\":18477:18483   */\n      dup3\n        /* \"#utility.yul\":18457:18490   */\n      tag_446\n      jump\t// in\n    tag_445:\n        /* \"#utility.yul\":18408:18496   */\n      swap2\n      swap1\n      pop\n      jump\t// out\n        /* \"#utility.yul\":18502:18577   */\n    tag_444:\n        /* \"#utility.yul\":18535:18541   */\n      0x00\n        /* \"#utility.yul\":18568:18570   */\n      0x40\n        /* \"#utility.yul\":18562:18571   */\n      mload\n        /* \"#utility.yul\":18552:18571   */\n      swap1\n      pop\n        /* \"#utility.yul\":18542:18577   */\n      swap1\n      jump\t// out\n        /* \"#utility.yul\":18583:18891   */\n    tag_233:\n        /* \"#utility.yul\":18645:18649   */\n      0x00\n        /* \"#utility.yul\":18735:18753   */\n      0xffffffffffffffff\n        /* \"#utility.yul\":18727:18733   */\n      dup3\n        /* \"#utility.yul\":18724:18754   */\n      gt\n        /* \"#utility.yul\":18721:18723   */\n      iszero\n      tag_449\n      jumpi\n        /* \"#utility.yul\":18757:18775   */\n      tag_450\n      tag_451\n      jump\t// in\n    tag_450:\n        /* \"#utility.yul\":18721:18723   */\n    tag_449:\n        /* \"#utility.yul\":18795:18824   */\n      tag_452\n        /* \"#utility.yul\":18817:18823   */\n      dup3\n        /* \"#utility.yul\":18795:18824   */\n      tag_333\n      jump\t// in\n    tag_452:\n        /* \"#utility.yul\":18787:18824   */\n      swap1\n      pop\n        /* \"#utility.yul\":18879:18883   */\n      0x20\n        /* \"#utility.yul\":18873:18877   */\n      dup2\n        /* \"#utility.yul\":18869:18884   */\n      add\n        /* \"#utility.yul\":18861:18884   */\n      swap1\n      pop\n        /* \"#utility.yul\":18650:18891   */\n      swap2\n      swap1\n      pop\n      jump\t// out\n        /* \"#utility.yul\":18897:19029   */\n    tag_307:\n        /* \"#utility.yul\":18964:18968   */\n      0x00\n        /* \"#utility.yul\":18987:18990   */\n      dup2\n        /* \"#utility.yul\":18979:18990   */\n      swap1\n      pop\n        /* \"#utility.yul\":19017:19021   */\n      0x20\n        /* \"#utility.yul\":19012:19015   */\n      dup3\n        /* \"#utility.yul\":19008:19022   */\n      add\n        /* \"#utility.yul\":19000:19022   */\n      swap1\n      pop\n        /* \"#utility.yul\":18969:19029   */\n      swap2\n      swap1\n      pop\n      jump\t// out\n        /* \"#utility.yul\":19035:19149   */\n    tag_303:\n        /* \"#utility.yul\":19102:19108   */\n      0x00\n        /* \"#utility.yul\":19136:19141   */\n      dup2\n        /* \"#utility.yul\":19130:19142   */\n      mload\n        /* \"#utility.yul\":19120:19142   */\n      swap1\n      pop\n        /* \"#utility.yul\":19109:19149   */\n      swap2\n      swap1\n      pop\n      jump\t// out\n        /* \"#utility.yul\":19155:19254   */\n    tag_327:\n        /* \"#utility.yul\":19207:19213   */\n      0x00\n        /* \"#utility.yul\":19241:19246   */\n      dup2\n        /* \"#utility.yul\":19235:19247   */\n      mload\n        /* \"#utility.yul\":19225:19247   */\n      swap1\n      pop\n        /* \"#utility.yul\":19214:19254   */\n      swap2\n      swap1\n      pop\n      jump\t// out\n        /* \"#utility.yul\":19260:19373   */\n    tag_313:\n        /* \"#utility.yul\":19330:19334   */\n      0x00\n        /* \"#utility.yul\":19362:19366   */\n      0x20\n        /* \"#utility.yul\":19357:19360   */\n      dup3\n        /* \"#utility.yul\":19353:19367   */\n      add\n        /* \"#utility.yul\":19345:19367   */\n      swap1\n      pop\n        /* \"#utility.yul\":19335:19373   */\n      swap2\n      swap1\n      pop\n      jump\t// out\n        /* \"#utility.yul\":19379:19563   */\n    tag_305:\n        /* \"#utility.yul\":19478:19489   */\n      0x00\n        /* \"#utility.yul\":19512:19518   */\n      dup3\n        /* \"#utility.yul\":19507:19510   */\n      dup3\n        /* \"#utility.yul\":19500:19519   */\n      mstore\n        /* \"#utility.yul\":19552:19556   */\n      0x20\n        /* \"#utility.yul\":19547:19550   */\n      dup3\n        /* \"#utility.yul\":19543:19557   */\n      add\n        /* \"#utility.yul\":19528:19557   */\n      swap1\n      pop\n        /* \"#utility.yul\":19490:19563   */\n      swap3\n      swap2\n      pop\n      pop\n      jump\t// out\n        /* \"#utility.yul\":19569:19738   */\n    tag_329:\n        /* \"#utility.yul\":19653:19664   */\n      0x00\n        /* \"#utility.yul\":19687:19693   */\n      dup3\n        /* \"#utility.yul\":19682:19685   */\n      dup3\n        /* \"#utility.yul\":19675:19694   */\n      mstore\n        /* \"#utility.yul\":19727:19731   */\n      0x20\n        /* \"#utility.yul\":19722:19725   */\n      dup3\n        /* \"#utility.yul\":19718:19732   */\n      add\n        /* \"#utility.yul\":19703:19732   */\n      swap1\n      pop\n        /* \"#utility.yul\":19665:19738   */\n      swap3\n      swap2\n      pop\n      pop\n      jump\t// out\n        /* \"#utility.yul\":19744:19892   */\n    tag_338:\n        /* \"#utility.yul\":19846:19857   */\n      0x00\n        /* \"#utility.yul\":19883:19886   */\n      dup2\n        /* \"#utility.yul\":19868:19886   */\n      swap1\n      pop\n        /* \"#utility.yul\":19858:19892   */\n      swap3\n      swap2\n      pop\n      pop\n      jump\t// out\n        /* \"#utility.yul\":19898:20203   */\n    tag_171:\n        /* \"#utility.yul\":19938:19941   */\n      0x00\n        /* \"#utility.yul\":19957:19977   */\n      tag_461\n        /* \"#utility.yul\":19975:19976   */\n      dup3\n        /* \"#utility.yul\":19957:19977   */\n      tag_388\n      jump\t// in\n    tag_461:\n        /* \"#utility.yul\":19952:19977   */\n      swap2\n      pop\n        /* \"#utility.yul\":19991:20011   */\n      tag_462\n        /* \"#utility.yul\":20009:20010   */\n      dup4\n        /* \"#utility.yul\":19991:20011   */\n      tag_388\n      jump\t// in\n    tag_462:\n        /* \"#utility.yul\":19986:20011   */\n      swap3\n      pop\n        /* \"#utility.yul\":20145:20146   */\n      dup3\n        /* \"#utility.yul\":20077:20143   */\n      0xffffffffffffffffffffffffffffffffffffffffffffffffffffffffffffffff\n        /* \"#utility.yul\":20073:20147   */\n      sub\n        /* \"#utility.yul\":20070:20071   */\n      dup3\n        /* \"#utility.yul\":20067:20148   */\n      gt\n        /* \"#utility.yul\":20064:20066   */\n      iszero\n      tag_463\n      jumpi\n        /* \"#utility.yul\":20151:20169   */\n      tag_464\n      tag_465\n      jump\t// in\n    tag_464:\n        /* \"#utility.yul\":20064:20066   */\n    tag_463:\n        /* \"#utility.yul\":20195:20196   */\n      dup3\n        /* \"#utility.yul\":20192:20193   */\n      dup3\n        /* \"#utility.yul\":20188:20197   */\n      add\n        /* \"#utility.yul\":20181:20197   */\n      swap1\n      pop\n        /* \"#utility.yul\":19942:20203   */\n      swap3\n      swap2\n      pop\n      pop\n      jump\t// out\n        /* \"#utility.yul\":20209:20305   */\n    tag_294:\n        /* \"#utility.yul\":20246:20253   */\n      0x00\n        /* \"#utility.yul\":20275:20299   */\n      tag_467\n        /* \"#utility.yul\":20293:20298   */\n      dup3\n        /* \"#utility.yul\":20275:20299   */\n      tag_468\n      jump\t// in\n    tag_467:\n        /* \"#utility.yul\":20264:20299   */\n      swap1\n      pop\n        /* \"#utility.yul\":20254:20305   */\n      swap2\n      swap1\n      pop\n      jump\t// out\n        /* \"#utility.yul\":20311:20401   */\n    tag_317:\n        /* \"#utility.yul\":20345:20352   */\n      0x00\n        /* \"#utility.yul\":20388:20393   */\n      dup2\n        /* \"#utility.yul\":20381:20394   */\n      iszero\n        /* \"#utility.yul\":20374:20395   */\n      iszero\n        /* \"#utility.yul\":20363:20395   */\n      swap1\n      pop\n        /* \"#utility.yul\":20353:20401   */\n      swap2\n      swap1\n      pop\n      jump\t// out\n        /* \"#utility.yul\":20407:20484   */\n    tag_320:\n        /* \"#utility.yul\":20444:20451   */\n      0x00\n        /* \"#utility.yul\":20473:20478   */\n      dup2\n        /* \"#utility.yul\":20462:20478   */\n      swap1\n      pop\n        /* \"#utility.yul\":20452:20484   */\n      swap2\n      swap1\n      pop\n      jump\t// out\n        /* \"#utility.yul\":20490:20616   */\n    tag_468:\n        /* \"#utility.yul\":20527:20534   */\n      0x00\n        /* \"#utility.yul\":20567:20609   */\n      0xffffffffffffffffffffffffffffffffffffffff\n        /* \"#utility.yul\":20560:20565   */\n      dup3\n        /* \"#utility.yul\":20556:20610   */\n      and\n        /* \"#utility.yul\":20545:20610   */\n      swap1\n      pop\n        /* \"#utility.yul\":20535:20616   */\n      swap2\n      swap1\n      pop\n      jump\t// out\n        /* \"#utility.yul\":20622:20699   */\n    tag_388:\n        /* \"#utility.yul\":20659:20666   */\n      0x00\n        /* \"#utility.yul\":20688:20693   */\n      dup2\n        /* \"#utility.yul\":20677:20693   */\n      swap1\n      pop\n        /* \"#utility.yul\":20667:20699   */\n      swap2\n      swap1\n      pop\n      jump\t// out\n        /* \"#utility.yul\":20705:20859   */\n    tag_237:\n        /* \"#utility.yul\":20789:20795   */\n      dup3\n        /* \"#utility.yul\":20784:20787   */\n      dup2\n        /* \"#utility.yul\":20779:20782   */\n      dup4\n        /* \"#utility.yul\":20766:20796   */\n      calldatacopy\n        /* \"#utility.yul\":20851:20852   */\n      0x00\n        /* \"#utility.yul\":20842:20848   */\n      dup4\n        /* \"#utility.yul\":20837:20840   */\n      dup4\n        /* \"#utility.yul\":20833:20849   */\n      add\n        /* \"#utility.yul\":20826:20853   */\n      mstore\n        /* \"#utility.yul\":20756:20859   */\n      pop\n      pop\n      pop\n      jump\t// out\n        /* \"#utility.yul\":20865:21172   */\n    tag_331:\n        /* \"#utility.yul\":20933:20934   */\n      0x00\n        /* \"#utility.yul\":20943:21056   */\n    tag_475:\n        /* \"#utility.yul\":20957:20963   */\n      dup4\n        /* \"#utility.yul\":20954:20955   */\n      dup2\n        /* \"#utility.yul\":20951:20964   */\n      lt\n        /* \"#utility.yul\":20943:21056   */\n      iszero\n      tag_477\n      jumpi\n        /* \"#utility.yul\":21042:21043   */\n      dup1\n        /* \"#utility.yul\":21037:21040   */\n      dup3\n        /* \"#utility.yul\":21033:21044   */\n      add\n        /* \"#utility.yul\":21027:21045   */\n      mload\n        /* \"#utility.yul\":21023:21024   */\n      dup2\n        /* \"#utility.yul\":21018:21021   */\n      dup5\n        /* \"#utility.yul\":21014:21025   */\n      add\n        /* \"#utility.yul\":21007:21046   */\n      mstore\n        /* \"#utility.yul\":20979:20981   */\n      0x20\n        /* \"#utility.yul\":20976:20977   */\n      dup2\n        /* \"#utility.yul\":20972:20982   */\n      add\n        /* \"#utility.yul\":20967:20982   */\n      swap1\n      pop\n        /* \"#utility.yul\":20943:21056   */\n      jump(tag_475)\n    tag_477:\n        /* \"#utility.yul\":21074:21080   */\n      dup4\n        /* \"#utility.yul\":21071:21072   */\n      dup2\n        /* \"#utility.yul\":21068:21081   */\n      gt\n        /* \"#utility.yul\":21065:21067   */\n      iszero\n      tag_478\n      jumpi\n        /* \"#utility.yul\":21154:21155   */\n      0x00\n        /* \"#utility.yul\":21145:21151   */\n      dup5\n        /* \"#utility.yul\":21140:21143   */\n      dup5\n        /* \"#utility.yul\":21136:21152   */\n      add\n        /* \"#utility.yul\":21129:21156   */\n      mstore\n        /* \"#utility.yul\":21065:21067   */\n    tag_478:\n        /* \"#utility.yul\":20914:21172   */\n      pop\n      pop\n      pop\n      pop\n      jump\t// out\n        /* \"#utility.yul\":21178:21498   */\n    tag_113:\n        /* \"#utility.yul\":21222:21228   */\n      0x00\n        /* \"#utility.yul\":21259:21260   */\n      0x02\n        /* \"#utility.yul\":21253:21257   */\n      dup3\n        /* \"#utility.yul\":21249:21261   */\n      div\n        /* \"#utility.yul\":21239:21261   */\n      swap1\n      pop\n        /* \"#utility.yul\":21306:21307   */\n      0x01\n        /* \"#utility.yul\":21300:21304   */\n      dup3\n        /* \"#utility.yul\":21296:21308   */\n      and\n        /* \"#utility.yul\":21327:21345   */\n      dup1\n        /* \"#utility.yul\":21317:21319   */\n      tag_480\n      jumpi\n        /* \"#utility.yul\":21383:21387   */\n      0x7f\n        /* \"#utility.yul\":21375:21381   */\n      dup3\n        /* \"#utility.yul\":21371:21388   */\n      and\n        /* \"#utility.yul\":21361:21388   */\n      swap2\n      pop\n        /* \"#utility.yul\":21317:21319   */\n    tag_480:\n        /* \"#utility.yul\":21445:21447   */\n      0x20\n        /* \"#utility.yul\":21437:21443   */\n      dup3\n        /* \"#utility.yul\":21434:21448   */\n      lt\n        /* \"#utility.yul\":21414:21432   */\n      dup2\n        /* \"#utility.yul\":21411:21449   */\n      eq\n        /* \"#utility.yul\":21408:21410   */\n      iszero\n      tag_481\n      jumpi\n        /* \"#utility.yul\":21464:21482   */\n      tag_482\n      tag_483\n      jump\t// in\n    tag_482:\n        /* \"#utility.yul\":21408:21410   */\n    tag_481:\n        /* \"#utility.yul\":21229:21498   */\n      pop\n      swap2\n      swap1\n      pop\n      jump\t// out\n        /* \"#utility.yul\":21504:21785   */\n    tag_446:\n        /* \"#utility.yul\":21587:21614   */\n      tag_485\n        /* \"#utility.yul\":21609:21613   */\n      dup3\n        /* \"#utility.yul\":21587:21614   */\n      tag_333\n      jump\t// in\n    tag_485:\n        /* \"#utility.yul\":21579:21585   */\n      dup2\n        /* \"#utility.yul\":21575:21615   */\n      add\n        /* \"#utility.yul\":21717:21723   */\n      dup2\n        /* \"#utility.yul\":21705:21715   */\n      dup2\n        /* \"#utility.yul\":21702:21724   */\n      lt\n        /* \"#utility.yul\":21681:21699   */\n      0xffffffffffffffff\n        /* \"#utility.yul\":21669:21679   */\n      dup3\n        /* \"#utility.yul\":21666:21700   */\n      gt\n        /* \"#utility.yul\":21663:21725   */\n      or\n        /* \"#utility.yul\":21660:21662   */\n      iszero\n      tag_486\n      jumpi\n        /* \"#utility.yul\":21728:21746   */\n      tag_487\n      tag_451\n      jump\t// in\n    tag_487:\n        /* \"#utility.yul\":21660:21662   */\n    tag_486:\n        /* \"#utility.yul\":21768:21778   */\n      dup1\n        /* \"#utility.yul\":21764:21766   */\n      0x40\n        /* \"#utility.yul\":21757:21779   */\n      mstore\n        /* \"#utility.yul\":21547:21785   */\n      pop\n      pop\n      pop\n      jump\t// out\n        /* \"#utility.yul\":21791:21891   */\n    tag_299:\n        /* \"#utility.yul\":21830:21837   */\n      0x00\n        /* \"#utility.yul\":21859:21885   */\n      tag_489\n        /* \"#utility.yul\":21879:21884   */\n      dup3\n        /* \"#utility.yul\":21859:21885   */\n      tag_490\n      jump\t// in\n    tag_489:\n        /* \"#utility.yul\":21848:21885   */\n      swap1\n      pop\n        /* \"#utility.yul\":21838:21891   */\n      swap2\n      swap1\n      pop\n      jump\t// out\n        /* \"#utility.yul\":21897:21991   */\n    tag_490:\n        /* \"#utility.yul\":21936:21943   */\n      0x00\n        /* \"#utility.yul\":21965:21985   */\n      tag_492\n        /* \"#utility.yul\":21979:21984   */\n      dup3\n        /* \"#utility.yul\":21965:21985   */\n      tag_493\n      jump\t// in\n    tag_492:\n        /* \"#utility.yul\":21954:21985   */\n      swap1\n      pop\n        /* \"#utility.yul\":21944:21991   */\n      swap2\n      swap1\n      pop\n      jump\t// out\n        /* \"#utility.yul\":21997:22076   */\n    tag_393:\n        /* \"#utility.yul\":22036:22043   */\n      0x00\n        /* \"#utility.yul\":22065:22070   */\n      dup2\n        /* \"#utility.yul\":22054:22070   */\n      swap1\n      pop\n        /* \"#utility.yul\":22044:22076   */\n      swap2\n      swap1\n      pop\n      jump\t// out\n        /* \"#utility.yul\":22082:22262   */\n    tag_465:\n        /* \"#utility.yul\":22130:22207   */\n      0x4e487b7100000000000000000000000000000000000000000000000000000000\n        /* \"#utility.yul\":22127:22128   */\n      0x00\n        /* \"#utility.yul\":22120:22208   */\n      mstore\n        /* \"#utility.yul\":22227:22231   */\n      0x11\n        /* \"#utility.yul\":22224:22225   */\n      0x04\n        /* \"#utility.yul\":22217:22232   */\n      mstore\n        /* \"#utility.yul\":22251:22255   */\n      0x24\n        /* \"#utility.yul\":22248:22249   */\n      0x00\n        /* \"#utility.yul\":22241:22256   */\n      revert\n        /* \"#utility.yul\":22268:22448   */\n    tag_483:\n        /* \"#utility.yul\":22316:22393   */\n      0x4e487b7100000000000000000000000000000000000000000000000000000000\n        /* \"#utility.yul\":22313:22314   */\n      0x00\n        /* \"#utility.yul\":22306:22394   */\n      mstore\n        /* \"#utility.yul\":22413:22417   */\n      0x22\n        /* \"#utility.yul\":22410:22411   */\n      0x04\n        /* \"#utility.yul\":22403:22418   */\n      mstore\n        /* \"#utility.yul\":22437:22441   */\n      0x24\n        /* \"#utility.yul\":22434:22435   */\n      0x00\n        /* \"#utility.yul\":22427:22442   */\n      revert\n        /* \"#utility.yul\":22454:22634   */\n    tag_451:\n        /* \"#utility.yul\":22502:22579   */\n      0x4e487b7100000000000000000000000000000000000000000000000000000000\n        /* \"#utility.yul\":22499:22500   */\n      0x00\n        /* \"#utility.yul\":22492:22580   */\n      mstore\n        /* \"#utility.yul\":22599:22603   */\n      0x41\n        /* \"#utility.yul\":22596:22597   */\n      0x04\n        /* \"#utility.yul\":22589:22604   */\n      mstore\n        /* \"#utility.yul\":22623:22627   */\n      0x24\n        /* \"#utility.yul\":22620:22621   */\n      0x00\n        /* \"#utility.yul\":22613:22628   */\n      revert\n        /* \"#utility.yul\":22640:22742   */\n    tag_333:\n        /* \"#utility.yul\":22681:22687   */\n      0x00\n        /* \"#utility.yul\":22732:22734   */\n      0x1f\n        /* \"#utility.yul\":22728:22735   */\n      not\n        /* \"#utility.yul\":22723:22725   */\n      0x1f\n        /* \"#utility.yul\":22716:22721   */\n      dup4\n        /* \"#utility.yul\":22712:22726   */\n      add\n        /* \"#utility.yul\":22708:22736   */\n      and\n        /* \"#utility.yul\":22698:22736   */\n      swap1\n      pop\n        /* \"#utility.yul\":22688:22742   */\n      swap2\n      swap1\n      pop\n      jump\t// out\n        /* \"#utility.yul\":22748:22842   */\n    tag_493:\n        /* \"#utility.yul\":22781:22789   */\n      0x00\n        /* \"#utility.yul\":22829:22834   */\n      dup2\n        /* \"#utility.yul\":22825:22827   */\n      0x60\n        /* \"#utility.yul\":22821:22835   */\n      shl\n        /* \"#utility.yul\":22800:22835   */\n      swap1\n      pop\n        /* \"#utility.yul\":22790:22842   */\n      swap2\n      swap1\n      pop\n      jump\t// out\n        /* \"#utility.yul\":22848:23022   */\n    tag_344:\n        /* \"#utility.yul\":22988:23014   */\n      0x796f7527726520616c7265616479206c6f67676564496e2e0000000000000000\n        /* \"#utility.yul\":22984:22985   */\n      0x00\n        /* \"#utility.yul\":22976:22982   */\n      dup3\n        /* \"#utility.yul\":22972:22986   */\n      add\n        /* \"#utility.yul\":22965:23015   */\n      mstore\n        /* \"#utility.yul\":22954:23022   */\n      pop\n      jump\t// out\n        /* \"#utility.yul\":23028:23261   */\n    tag_349:\n        /* \"#utility.yul\":23168:23202   */\n      0x637265617465206163636f756e74206669727374206f72206c6f67496e20746f\n        /* \"#utility.yul\":23164:23165   */\n      0x00\n        /* \"#utility.yul\":23156:23162   */\n      dup3\n        /* \"#utility.yul\":23152:23166   */\n      add\n        /* \"#utility.yul\":23145:23203   */\n      mstore\n        /* \"#utility.yul\":23237:23253   */\n      0x20796f7572206163636f756e742e000000000000000000000000000000000000\n        /* \"#utility.yul\":23232:23234   */\n      0x20\n        /* \"#utility.yul\":23224:23230   */\n      dup3\n        /* \"#utility.yul\":23220:23235   */\n      add\n        /* \"#utility.yul\":23213:23254   */\n      mstore\n        /* \"#utility.yul\":23134:23261   */\n      pop\n      jump\t// out\n        /* \"#utility.yul\":23267:23440   */\n    tag_354:\n        /* \"#utility.yul\":23407:23432   */\n      0x4c6f6720696e20746f20796f7572206163636f756e742e000000000000000000\n        /* \"#utility.yul\":23403:23404   */\n      0x00\n        /* \"#utility.yul\":23395:23401   */\n      dup3\n        /* \"#utility.yul\":23391:23405   */\n      add\n        /* \"#utility.yul\":23384:23433   */\n      mstore\n        /* \"#utility.yul\":23373:23440   */\n      pop\n      jump\t// out\n        /* \"#utility.yul\":23446:23672   */\n    tag_359:\n        /* \"#utility.yul\":23586:23620   */\n      0x75736572206e6f7420657869737465642c20637265617465206163636f756e74\n        /* \"#utility.yul\":23582:23583   */\n      0x00\n        /* \"#utility.yul\":23574:23580   */\n      dup3\n        /* \"#utility.yul\":23570:23584   */\n      add\n        /* \"#utility.yul\":23563:23621   */\n      mstore\n        /* \"#utility.yul\":23655:23664   */\n      0x2066697273742e00000000000000000000000000000000000000000000000000\n        /* \"#utility.yul\":23650:23652   */\n      0x20\n        /* \"#utility.yul\":23642:23648   */\n      dup3\n        /* \"#utility.yul\":23638:23653   */\n      add\n        /* \"#utility.yul\":23631:23665   */\n      mstore\n        /* \"#utility.yul\":23552:23672   */\n      pop\n      jump\t// out\n        /* \"#utility.yul\":23678:23845   */\n    tag_364:\n        /* \"#utility.yul\":23818:23837   */\n      0x75736572206e6f7420657869737465642e000000000000000000000000000000\n        /* \"#utility.yul\":23814:23815   */\n      0x00\n        /* \"#utility.yul\":23806:23812   */\n      dup3\n        /* \"#utility.yul\":23802:23816   */\n      add\n        /* \"#utility.yul\":23795:23838   */\n      mstore\n        /* \"#utility.yul\":23784:23845   */\n      pop\n      jump\t// out\n        /* \"#utility.yul\":23851:24021   */\n    tag_369:\n        /* \"#utility.yul\":23991:24013   */\n      0x796f75277265206e6f74206c6f67676564496e2e000000000000000000000000\n        /* \"#utility.yul\":23987:23988   */\n      0x00\n        /* \"#utility.yul\":23979:23985   */\n      dup3\n        /* \"#utility.yul\":23975:23989   */\n      add\n        /* \"#utility.yul\":23968:24014   */\n      mstore\n        /* \"#utility.yul\":23957:24021   */\n      pop\n      jump\t// out\n        /* \"#utility.yul\":24027:24256   */\n    tag_374:\n        /* \"#utility.yul\":24167:24201   */\n      0x4c6f67696e20746f20796f7572206163636f756e742c20746f20736574207072\n        /* \"#utility.yul\":24163:24164   */\n      0x00\n        /* \"#utility.yul\":24155:24161   */\n      dup3\n        /* \"#utility.yul\":24151:24165   */\n      add\n        /* \"#utility.yul\":24144:24202   */\n      mstore\n        /* \"#utility.yul\":24236:24248   */\n      0x6f66696c65207069632e00000000000000000000000000000000000000000000\n        /* \"#utility.yul\":24231:24233   */\n      0x20\n        /* \"#utility.yul\":24223:24229   */\n      dup3\n        /* \"#utility.yul\":24219:24234   */\n      add\n        /* \"#utility.yul\":24212:24249   */\n      mstore\n        /* \"#utility.yul\":24133:24256   */\n      pop\n      jump\t// out\n        /* \"#utility.yul\":24262:24430   */\n    tag_379:\n        /* \"#utility.yul\":24402:24422   */\n      0x75736572206e616d6520657869737465642e0000000000000000000000000000\n        /* \"#utility.yul\":24398:24399   */\n      0x00\n        /* \"#utility.yul\":24390:24396   */\n      dup3\n        /* \"#utility.yul\":24386:24400   */\n      add\n        /* \"#utility.yul\":24379:24423   */\n      mstore\n        /* \"#utility.yul\":24368:24430   */\n      pop\n      jump\t// out\n        /* \"#utility.yul\":24436:24599   */\n    tag_384:\n        /* \"#utility.yul\":24576:24591   */\n      0x7573657220657869737465642e00000000000000000000000000000000000000\n        /* \"#utility.yul\":24572:24573   */\n      0x00\n        /* \"#utility.yul\":24564:24570   */\n      dup3\n        /* \"#utility.yul\":24560:24574   */\n      add\n        /* \"#utility.yul\":24553:24592   */\n      mstore\n        /* \"#utility.yul\":24542:24599   */\n      pop\n      jump\t// out\n        /* \"#utility.yul\":24605:24727   */\n    tag_241:\n        /* \"#utility.yul\":24678:24702   */\n      tag_510\n        /* \"#utility.yul\":24696:24701   */\n      dup2\n        /* \"#utility.yul\":24678:24702   */\n      tag_294\n      jump\t// in\n    tag_510:\n        /* \"#utility.yul\":24671:24676   */\n      dup2\n        /* \"#utility.yul\":24668:24703   */\n      eq\n        /* \"#utility.yul\":24658:24660   */\n      tag_511\n      jumpi\n        /* \"#utility.yul\":24717:24718   */\n      0x00\n        /* \"#utility.yul\":24714:24715   */\n      dup1\n        /* \"#utility.yul\":24707:24719   */\n      revert\n        /* \"#utility.yul\":24658:24660   */\n    tag_511:\n        /* \"#utility.yul\":24648:24727   */\n      pop\n      jump\t// out\n        /* \"#utility.yul\":24733:24855   */\n    tag_245:\n        /* \"#utility.yul\":24806:24830   */\n      tag_513\n        /* \"#utility.yul\":24824:24829   */\n      dup2\n        /* \"#utility.yul\":24806:24830   */\n      tag_320\n      jump\t// in\n    tag_513:\n        /* \"#utility.yul\":24799:24804   */\n      dup2\n        /* \"#utility.yul\":24796:24831   */\n      eq\n        /* \"#utility.yul\":24786:24788   */\n      tag_514\n      jumpi\n        /* \"#utility.yul\":24845:24846   */\n      0x00\n        /* \"#utility.yul\":24842:24843   */\n      dup1\n        /* \"#utility.yul\":24835:24847   */\n      revert\n        /* \"#utility.yul\":24786:24788   */\n    tag_514:\n        /* \"#utility.yul\":24776:24855   */\n      pop\n      jump\t// out\n        /* \"#utility.yul\":24861:24983   */\n    tag_253:\n        /* \"#utility.yul\":24934:24958   */\n      tag_516\n        /* \"#utility.yul\":24952:24957   */\n      dup2\n        /* \"#utility.yul\":24934:24958   */\n      tag_388\n      jump\t// in\n    tag_516:\n        /* \"#utility.yul\":24927:24932   */\n      dup2\n        /* \"#utility.yul\":24924:24959   */\n      eq\n        /* \"#utility.yul\":24914:24916   */\n      tag_517\n      jumpi\n        /* \"#utility.yul\":24973:24974   */\n      0x00\n        /* \"#utility.yul\":24970:24971   */\n      dup1\n        /* \"#utility.yul\":24963:24975   */\n      revert\n        /* \"#utility.yul\":24914:24916   */\n    tag_517:\n        /* \"#utility.yul\":24904:24983   */\n      pop\n      jump\t// out\n\n    auxdata: 0xa264697066735822122040bdfbd35c52b175690af4e93907454277c92166c6530ec0757517bfae44724064736f6c63430008040033\n}\n",
				"bytecode": {
					"linkReferences": {},
					"object": "60806040523480156200001157600080fd5b5060405162002a9138038062002a91833981810160405281019062000037919062000095565b806000806101000a81548173ffffffffffffffffffffffffffffffffffffffff021916908373ffffffffffffffffffffffffffffffffffffffff160217905550506200010f565b6000815190506200008f81620000f5565b92915050565b600060208284031215620000a857600080fd5b6000620000b8848285016200007e565b91505092915050565b6000620000ce82620000d5565b9050919050565b600073ffffffffffffffffffffffffffffffffffffffff82169050919050565b6200010081620000c1565b81146200010c57600080fd5b50565b612972806200011f6000396000f3fe608060405234801561001057600080fd5b50600436106101215760003560e01c80636c608709116100ad5780639efa528e116100715780639efa528e14610324578063adcfb4fc14610340578063c15625471461035c578063eb9720081461037a578063f6f2ede01461039857610121565b80636c608709146102565780637111e75014610286578063894fd813146102b95780638a1b9736146102d55780639bf44b7d1461030857610121565b806323e583b4116100f457806323e583b4146101af578063377b47a3146101df57806346064ab9146101e95780634be422ae1461021c5780635cb0122a1461022657610121565b8063011f2cce14610126578063026ff05e1461014257806307edbdc5146101605780630b4f12f614610193575b600080fd5b610140600480360381019061013b9190611e8f565b6103c8565b005b61014a6104b1565b6040516101579190612230565b60405180910390f35b61017a60048036038101906101759190611e66565b6106ec565b60405161018a94939291906121c2565b60405180910390f35b6101ad60048036038101906101a89190611e8f565b6107e4565b005b6101c960048036038101906101c49190611db3565b610ae8565b6040516101d6919061224b565b60405180910390f35b6101e7610b19565b005b61020360048036038101906101fe9190611e66565b610ce3565b60405161021394939291906121c2565b60405180910390f35b610224610e26565b005b610240600480360381019061023b9190611cc0565b610f60565b60405161024d919061220e565b60405180910390f35b610270600480360381019061026b9190611e8f565b610ff7565b60405161027d91906121a7565b60405180910390f35b6102a0600480360381019061029b9190611cc0565b611040565b6040516102b094939291906123f3565b60405180910390f35b6102d360048036038101906102ce9190611def565b611070565b005b6102ef60048036038101906102ea9190611cc0565b6111db565b6040516102ff94939291906123f3565b60405180910390f35b610322600480360381019061031d9190611ce9565b6112fc565b005b61033e60048036038101906103399190611d38565b6113cb565b005b61035a60048036038101906103559190611e8f565b611536565b005b610364611877565b6040516103719190612266565b60405180910390f35b6103826119d8565b60405161038f9190612266565b60405180910390f35b6103b260048036038101906103ad9190611cc0565b611aaa565b6040516103bf9190612230565b60405180910390f35b600360003373ffffffffffffffffffffffffffffffffffffffff1673ffffffffffffffffffffffffffffffffffffffff16815260200190815260200160002060030160009054906101000a900460ff16610457576040517f08c379a000000000000000000000000000000000000000000000000000000000815260040161044e90612378565b60405180910390fd5b80600360003373ffffffffffffffffffffffffffffffffffffffff1673ffffffffffffffffffffffffffffffffffffffff16815260200190815260200160002060040190805190602001906104ad929190611b36565b5050565b6000600360003373ffffffffffffffffffffffffffffffffffffffff1673ffffffffffffffffffffffffffffffffffffffff16815260200190815260200160002060010160009054906101000a900460ff16610542576040517f08c379a000000000000000000000000000000000000000000000000000000000815260040161053990612338565b60405180910390fd5b6000600360003373ffffffffffffffffffffffffffffffffffffffff1673ffffffffffffffffffffffffffffffffffffffff1681526020019081526020016000206000018054610591906125d8565b80601f01602080910402602001604051908101604052809291908181526020018280546105bd906125d8565b801561060a5780601f106105df5761010080835404028352916020019161060a565b820191906000526020600020905b8154815290600101906020018083116105ed57829003601f168201915b505050505090506004816040516106219190612190565b908152602001604051809103902060006101000a81549073ffffffffffffffffffffffffffffffffffffffff0219169055600360003373ffffffffffffffffffffffffffffffffffffffff1673ffffffffffffffffffffffffffffffffffffffff168152602001908152602001600020600080820160006106a29190611bbc565b6001820160006101000a81549060ff021916905560028201600090556003820160006101000a81549060ff02191690556004820160006106e29190611bbc565b5050600191505090565b60016020528060005260406000206000915090508060000160009054906101000a900473ffffffffffffffffffffffffffffffffffffffff16908060010154908060020160009054906101000a900473ffffffffffffffffffffffffffffffffffffffff1690806003018054610761906125d8565b80601f016020809104026020016040519081016040528092919081815260200182805461078d906125d8565b80156107da5780601f106107af576101008083540402835291602001916107da565b820191906000526020600020905b8154815290600101906020018083116107bd57829003601f168201915b5050505050905084565b600360003373ffffffffffffffffffffffffffffffffffffffff1673ffffffffffffffffffffffffffffffffffffffff16815260200190815260200160002060030160009054906101000a900460ff16610873576040517f08c379a000000000000000000000000000000000000000000000000000000000815260040161086a906122f8565b60405180910390fd5b600073ffffffffffffffffffffffffffffffffffffffff1660048260405161089b9190612190565b908152602001604051809103902060009054906101000a900473ffffffffffffffffffffffffffffffffffffffff1673ffffffffffffffffffffffffffffffffffffffff1614610920576040517f08c379a000000000000000000000000000000000000000000000000000000000815260040161091790612398565b60405180910390fd5b6000600360003373ffffffffffffffffffffffffffffffffffffffff1673ffffffffffffffffffffffffffffffffffffffff168152602001908152602001600020600001805461096f906125d8565b80601f016020809104026020016040519081016040528092919081815260200182805461099b906125d8565b80156109e85780601f106109bd576101008083540402835291602001916109e8565b820191906000526020600020905b8154815290600101906020018083116109cb57829003601f168201915b505050505090506004816040516109ff9190612190565b908152602001604051809103902060006101000a81549073ffffffffffffffffffffffffffffffffffffffff021916905533600483604051610a419190612190565b908152602001604051809103902060006101000a81548173ffffffffffffffffffffffffffffffffffffffff021916908373ffffffffffffffffffffffffffffffffffffffff16021790555081600360003373ffffffffffffffffffffffffffffffffffffffff1673ffffffffffffffffffffffffffffffffffffffff1681526020019081526020016000206000019080519060200190610ae3929190611b36565b505050565b60026020528160005260406000208181548110610b0457600080fd5b90600052602060002001600091509150505481565b600360003373ffffffffffffffffffffffffffffffffffffffff1673ffffffffffffffffffffffffffffffffffffffff16815260200190815260200160002060010160009054906101000a900460ff16610ba8576040517f08c379a0000000000000000000000000000000000000000000000000000000008152600401610b9f90612318565b60405180910390fd5b600360003373ffffffffffffffffffffffffffffffffffffffff1673ffffffffffffffffffffffffffffffffffffffff16815260200190815260200160002060030160009054906101000a900460ff1615610c38576040517f08c379a0000000000000000000000000000000000000000000000000000000008152600401610c2f906122b8565b60405180910390fd5b6001600360003373ffffffffffffffffffffffffffffffffffffffff1673ffffffffffffffffffffffffffffffffffffffff16815260200190815260200160002060030160006101000a81548160ff0219169083151502179055503373ffffffffffffffffffffffffffffffffffffffff167f364034de78a61b6190b049e2c5437370b27906bfed607993a5bc2dda23c16cff42604051610cd991906123d8565b60405180910390a2565b6000806000606060008590506001600082815260200190815260200160002060000160009054906101000a900473ffffffffffffffffffffffffffffffffffffffff1660016000838152602001908152602001600020600101546001600084815260200190815260200160002060020160009054906101000a900473ffffffffffffffffffffffffffffffffffffffff1660016000858152602001908152602001600020600301808054610d96906125d8565b80601f0160208091040260200160405190810160405280929190818152602001828054610dc2906125d8565b8015610e0f5780601f10610de457610100808354040283529160200191610e0f565b820191906000526020600020905b815481529060010190602001808311610df257829003601f168201915b505050505090509450945094509450509193509193565b600360003373ffffffffffffffffffffffffffffffffffffffff1673ffffffffffffffffffffffffffffffffffffffff16815260200190815260200160002060030160009054906101000a900460ff16610eb5576040517f08c379a0000000000000000000000000000000000000000000000000000000008152600401610eac90612358565b60405180910390fd5b6000600360003373ffffffffffffffffffffffffffffffffffffffff1673ffffffffffffffffffffffffffffffffffffffff16815260200190815260200160002060030160006101000a81548160ff0219169083151502179055503373ffffffffffffffffffffffffffffffffffffffff167f70d1177aa26c67f6b2fdb43400cfd7ff0c23a8712301abe5aba2ee3d89e28a1042604051610f5691906123d8565b60405180910390a2565b6060600260008373ffffffffffffffffffffffffffffffffffffffff1673ffffffffffffffffffffffffffffffffffffffff168152602001908152602001600020805480602002602001604051908101604052809291908181526020018280548015610feb57602002820191906000526020600020905b815481526020019060010190808311610fd7575b50505050509050919050565b6004818051602081018201805184825260208301602085012081835280955050505050506000915054906101000a900473ffffffffffffffffffffffffffffffffffffffff1681565b60056020528060005260406000206000915090508060000154908060010154908060020154908060030154905084565b83600560008773ffffffffffffffffffffffffffffffffffffffff1673ffffffffffffffffffffffffffffffffffffffff16815260200190815260200160002060000160008282546110c291906124ee565b9250508190555082600560008773ffffffffffffffffffffffffffffffffffffffff1673ffffffffffffffffffffffffffffffffffffffff168152602001908152602001600020600101600082825461111b91906124ee565b9250508190555081600560008773ffffffffffffffffffffffffffffffffffffffff1673ffffffffffffffffffffffffffffffffffffffff168152602001908152602001600020600201600082825461117491906124ee565b9250508190555080600560008773ffffffffffffffffffffffffffffffffffffffff1673ffffffffffffffffffffffffffffffffffffffff16815260200190815260200160002060030160008282546111cd91906124ee565b925050819055505050505050565b600080600080600560008673ffffffffffffffffffffffffffffffffffffffff1673ffffffffffffffffffffffffffffffffffffffff16815260200190815260200160002060020154600560008773ffffffffffffffffffffffffffffffffffffffff1673ffffffffffffffffffffffffffffffffffffffff16815260200190815260200160002060030154600560008873ffffffffffffffffffffffffffffffffffffffff1673ffffffffffffffffffffffffffffffffffffffff16815260200190815260200160002060000154600560008973ffffffffffffffffffffffffffffffffffffffff1673ffffffffffffffffffffffffffffffffffffffff1681526020019081526020016000206001015493509350935093509193509193565b60006113088383611b03565b9050836001600083815260200190815260200160002060020160006101000a81548173ffffffffffffffffffffffffffffffffffffffff021916908373ffffffffffffffffffffffffffffffffffffffff160217905550600260008573ffffffffffffffffffffffffffffffffffffffff1673ffffffffffffffffffffffffffffffffffffffff16815260200190815260200160002081908060018154018082558091505060019003906000526020600020016000909190919091505550505050565b60006113d78484611b03565b9050836001600083815260200190815260200160002060000160006101000a81548173ffffffffffffffffffffffffffffffffffffffff021916908373ffffffffffffffffffffffffffffffffffffffff160217905550826001600083815260200190815260200160002060010181905550846001600083815260200190815260200160002060020160006101000a81548173ffffffffffffffffffffffffffffffffffffffff021916908373ffffffffffffffffffffffffffffffffffffffff160217905550816001600083815260200190815260200160002060030190805190602001906114c8929190611b36565b50600260008673ffffffffffffffffffffffffffffffffffffffff1673ffffffffffffffffffffffffffffffffffffffff1681526020019081526020016000208190806001815401808255809150506001900390600052602060002001600090919091909150555050505050565b600360003373ffffffffffffffffffffffffffffffffffffffff1673ffffffffffffffffffffffffffffffffffffffff16815260200190815260200160002060010160009054906101000a900460ff16156115c6576040517f08c379a00000000000000000000000000000000000000000000000000000000081526004016115bd906123b8565b60405180910390fd5b600073ffffffffffffffffffffffffffffffffffffffff166004826040516115ee9190612190565b908152602001604051809103902060009054906101000a900473ffffffffffffffffffffffffffffffffffffffff1673ffffffffffffffffffffffffffffffffffffffff1614611673576040517f08c379a000000000000000000000000000000000000000000000000000000000815260040161166a90612398565b60405180910390fd5b80600360003373ffffffffffffffffffffffffffffffffffffffff1673ffffffffffffffffffffffffffffffffffffffff16815260200190815260200160002060000190805190602001906116c9929190611b36565b506001600360003373ffffffffffffffffffffffffffffffffffffffff1673ffffffffffffffffffffffffffffffffffffffff16815260200190815260200160002060010160006101000a81548160ff02191690831515021790555042600360003373ffffffffffffffffffffffffffffffffffffffff1673ffffffffffffffffffffffffffffffffffffffff168152602001908152602001600020600201819055506001600360003373ffffffffffffffffffffffffffffffffffffffff1673ffffffffffffffffffffffffffffffffffffffff16815260200190815260200160002060030160006101000a81548160ff021916908315150217905550336004826040516117d89190612190565b908152602001604051809103902060006101000a81548173ffffffffffffffffffffffffffffffffffffffff021916908373ffffffffffffffffffffffffffffffffffffffff1602179055503373ffffffffffffffffffffffffffffffffffffffff167fee20c2c019dcbca8d08ff74c4ce6f465e02d3611905c9aceeb76a0c8e429af2f824260405161186c929190612288565b60405180910390a250565b6060600360003373ffffffffffffffffffffffffffffffffffffffff1673ffffffffffffffffffffffffffffffffffffffff16815260200190815260200160002060030160009054906101000a900460ff16611908576040517f08c379a00000000000000000000000000000000000000000000000000000000081526004016118ff906122d8565b60405180910390fd5b600360003373ffffffffffffffffffffffffffffffffffffffff1673ffffffffffffffffffffffffffffffffffffffff1681526020019081526020016000206000018054611955906125d8565b80601f0160208091040260200160405190810160405280929190818152602001828054611981906125d8565b80156119ce5780601f106119a3576101008083540402835291602001916119ce565b820191906000526020600020905b8154815290600101906020018083116119b157829003601f168201915b5050505050905090565b6060600360003373ffffffffffffffffffffffffffffffffffffffff1673ffffffffffffffffffffffffffffffffffffffff1681526020019081526020016000206004018054611a27906125d8565b80601f0160208091040260200160405190810160405280929190818152602001828054611a53906125d8565b8015611aa05780601f10611a7557610100808354040283529160200191611aa0565b820191906000526020600020905b815481529060010190602001808311611a8357829003601f168201915b5050505050905090565b6000600360008373ffffffffffffffffffffffffffffffffffffffff1673ffffffffffffffffffffffffffffffffffffffff16815260200190815260200160002060030160009054906101000a900460ff169050919050565b60008282604051602001611b18929190612164565b60405160208183030381529060405280519060200120905092915050565b828054611b42906125d8565b90600052602060002090601f016020900481019282611b645760008555611bab565b82601f10611b7d57805160ff1916838001178555611bab565b82800160010185558215611bab579182015b82811115611baa578251825591602001919060010190611b8f565b5b509050611bb89190611bfc565b5090565b508054611bc8906125d8565b6000825580601f10611bda5750611bf9565b601f016020900490600052602060002090810190611bf89190611bfc565b5b50565b5b80821115611c15576000816000905550600101611bfd565b5090565b6000611c2c611c278461245d565b612438565b905082815260208101848484011115611c4457600080fd5b611c4f848285612596565b509392505050565b600081359050611c66816128f7565b92915050565b600081359050611c7b8161290e565b92915050565b600082601f830112611c9257600080fd5b8135611ca2848260208601611c19565b91505092915050565b600081359050611cba81612925565b92915050565b600060208284031215611cd257600080fd5b6000611ce084828501611c57565b91505092915050565b600080600060608486031215611cfe57600080fd5b6000611d0c86828701611c57565b9350506020611d1d86828701611c57565b9250506040611d2e86828701611cab565b9150509250925092565b60008060008060808587031215611d4e57600080fd5b6000611d5c87828801611c57565b9450506020611d6d87828801611c57565b9350506040611d7e87828801611cab565b925050606085013567ffffffffffffffff811115611d9b57600080fd5b611da787828801611c81565b91505092959194509250565b60008060408385031215611dc657600080fd5b6000611dd485828601611c57565b9250506020611de585828601611cab565b9150509250929050565b600080600080600060a08688031215611e0757600080fd5b6000611e1588828901611c57565b9550506020611e2688828901611cab565b9450506040611e3788828901611cab565b9350506060611e4888828901611cab565b9250506080611e5988828901611cab565b9150509295509295909350565b600060208284031215611e7857600080fd5b6000611e8684828501611c6c565b91505092915050565b600060208284031215611ea157600080fd5b600082013567ffffffffffffffff811115611ebb57600080fd5b611ec784828501611c81565b91505092915050565b6000611edc8383611f7b565b60208301905092915050565b611ef181612544565b82525050565b611f08611f0382612544565b61263b565b82525050565b6000611f198261249e565b611f2381856124c1565b9350611f2e8361248e565b8060005b83811015611f5f578151611f468882611ed0565b9750611f51836124b4565b925050600181019050611f32565b5085935050505092915050565b611f7581612556565b82525050565b611f8481612562565b82525050565b611f9381612562565b82525050565b6000611fa4826124a9565b611fae81856124d2565b9350611fbe8185602086016125a5565b611fc7816126f6565b840191505092915050565b6000611fdd826124a9565b611fe781856124e3565b9350611ff78185602086016125a5565b80840191505092915050565b60006120106018836124d2565b915061201b82612714565b602082019050919050565b6000612033602e836124d2565b915061203e8261273d565b604082019050919050565b60006120566017836124d2565b91506120618261278c565b602082019050919050565b60006120796027836124d2565b9150612084826127b5565b604082019050919050565b600061209c6011836124d2565b91506120a782612804565b602082019050919050565b60006120bf6014836124d2565b91506120ca8261282d565b602082019050919050565b60006120e2602a836124d2565b91506120ed82612856565b604082019050919050565b60006121056012836124d2565b9150612110826128a5565b602082019050919050565b6000612128600d836124d2565b9150612133826128ce565b602082019050919050565b6121478161258c565b82525050565b61215e6121598261258c565b61265f565b82525050565b60006121708285611ef7565b601482019150612180828461214d565b6020820191508190509392505050565b600061219c8284611fd2565b915081905092915050565b60006020820190506121bc6000830184611ee8565b92915050565b60006080820190506121d76000830187611ee8565b6121e4602083018661213e565b6121f16040830185611ee8565b81810360608301526122038184611f99565b905095945050505050565b600060208201905081810360008301526122288184611f0e565b905092915050565b60006020820190506122456000830184611f6c565b92915050565b60006020820190506122606000830184611f8a565b92915050565b600060208201905081810360008301526122808184611f99565b905092915050565b600060408201905081810360008301526122a28185611f99565b90506122b1602083018461213e565b9392505050565b600060208201905081810360008301526122d181612003565b9050919050565b600060208201905081810360008301526122f181612026565b9050919050565b6000602082019050818103600083015261231181612049565b9050919050565b600060208201905081810360008301526123318161206c565b9050919050565b600060208201905081810360008301526123518161208f565b9050919050565b60006020820190508181036000830152612371816120b2565b9050919050565b60006020820190508181036000830152612391816120d5565b9050919050565b600060208201905081810360008301526123b1816120f8565b9050919050565b600060208201905081810360008301526123d18161211b565b9050919050565b60006020820190506123ed600083018461213e565b92915050565b6000608082019050612408600083018761213e565b612415602083018661213e565b612422604083018561213e565b61242f606083018461213e565b95945050505050565b6000612442612453565b905061244e828261260a565b919050565b6000604051905090565b600067ffffffffffffffff821115612478576124776126c7565b5b612481826126f6565b9050602081019050919050565b6000819050602082019050919050565b600081519050919050565b600081519050919050565b6000602082019050919050565b600082825260208201905092915050565b600082825260208201905092915050565b600081905092915050565b60006124f98261258c565b91506125048361258c565b9250827fffffffffffffffffffffffffffffffffffffffffffffffffffffffffffffffff0382111561253957612538612669565b5b828201905092915050565b600061254f8261256c565b9050919050565b60008115159050919050565b6000819050919050565b600073ffffffffffffffffffffffffffffffffffffffff82169050919050565b6000819050919050565b82818337600083830152505050565b60005b838110156125c35780820151818401526020810190506125a8565b838111156125d2576000848401525b50505050565b600060028204905060018216806125f057607f821691505b6020821081141561260457612603612698565b5b50919050565b612613826126f6565b810181811067ffffffffffffffff82111715612632576126316126c7565b5b80604052505050565b60006126468261264d565b9050919050565b600061265882612707565b9050919050565b6000819050919050565b7f4e487b7100000000000000000000000000000000000000000000000000000000600052601160045260246000fd5b7f4e487b7100000000000000000000000000000000000000000000000000000000600052602260045260246000fd5b7f4e487b7100000000000000000000000000000000000000000000000000000000600052604160045260246000fd5b6000601f19601f8301169050919050565b60008160601b9050919050565b7f796f7527726520616c7265616479206c6f67676564496e2e0000000000000000600082015250565b7f637265617465206163636f756e74206669727374206f72206c6f67496e20746f60008201527f20796f7572206163636f756e742e000000000000000000000000000000000000602082015250565b7f4c6f6720696e20746f20796f7572206163636f756e742e000000000000000000600082015250565b7f75736572206e6f7420657869737465642c20637265617465206163636f756e7460008201527f2066697273742e00000000000000000000000000000000000000000000000000602082015250565b7f75736572206e6f7420657869737465642e000000000000000000000000000000600082015250565b7f796f75277265206e6f74206c6f67676564496e2e000000000000000000000000600082015250565b7f4c6f67696e20746f20796f7572206163636f756e742c20746f2073657420707260008201527f6f66696c65207069632e00000000000000000000000000000000000000000000602082015250565b7f75736572206e616d6520657869737465642e0000000000000000000000000000600082015250565b7f7573657220657869737465642e00000000000000000000000000000000000000600082015250565b61290081612544565b811461290b57600080fd5b50565b61291781612562565b811461292257600080fd5b50565b61292e8161258c565b811461293957600080fd5b5056fea264697066735822122040bdfbd35c52b175690af4e93907454277c92166c6530ec0757517bfae44724064736f6c63430008040033",
					"opcodes": "PUSH1 0x80 PUSH1 0x40 MSTORE CALLVALUE DUP1 ISZERO PUSH3 0x11 JUMPI PUSH1 0x0 DUP1 REVERT JUMPDEST POP PUSH1 0x40 MLOAD PUSH3 0x2A91 CODESIZE SUB DUP1 PUSH3 0x2A91 DUP4 CODECOPY DUP2 DUP2 ADD PUSH1 0x40 MSTORE DUP2 ADD SWAP1 PUSH3 0x37 SWAP2 SWAP1 PUSH3 0x95 JUMP JUMPDEST DUP1 PUSH1 0x0 DUP1 PUSH2 0x100 EXP DUP2 SLOAD DUP2 PUSH20 0xFFFFFFFFFFFFFFFFFFFFFFFFFFFFFFFFFFFFFFFF MUL NOT AND SWAP1 DUP4 PUSH20 0xFFFFFFFFFFFFFFFFFFFFFFFFFFFFFFFFFFFFFFFF AND MUL OR SWAP1 SSTORE POP POP PUSH3 0x10F JUMP JUMPDEST PUSH1 0x0 DUP2 MLOAD SWAP1 POP PUSH3 0x8F DUP2 PUSH3 0xF5 JUMP JUMPDEST SWAP3 SWAP2 POP POP JUMP JUMPDEST PUSH1 0x0 PUSH1 0x20 DUP3 DUP5 SUB SLT ISZERO PUSH3 0xA8 JUMPI PUSH1 0x0 DUP1 REVERT JUMPDEST PUSH1 0x0 PUSH3 0xB8 DUP5 DUP3 DUP6 ADD PUSH3 0x7E JUMP JUMPDEST SWAP2 POP POP SWAP3 SWAP2 POP POP JUMP JUMPDEST PUSH1 0x0 PUSH3 0xCE DUP3 PUSH3 0xD5 JUMP JUMPDEST SWAP1 POP SWAP2 SWAP1 POP JUMP JUMPDEST PUSH1 0x0 PUSH20 0xFFFFFFFFFFFFFFFFFFFFFFFFFFFFFFFFFFFFFFFF DUP3 AND SWAP1 POP SWAP2 SWAP1 POP JUMP JUMPDEST PUSH3 0x100 DUP2 PUSH3 0xC1 JUMP JUMPDEST DUP2 EQ PUSH3 0x10C JUMPI PUSH1 0x0 DUP1 REVERT JUMPDEST POP JUMP JUMPDEST PUSH2 0x2972 DUP1 PUSH3 0x11F PUSH1 0x0 CODECOPY PUSH1 0x0 RETURN INVALID PUSH1 0x80 PUSH1 0x40 MSTORE CALLVALUE DUP1 ISZERO PUSH2 0x10 JUMPI PUSH1 0x0 DUP1 REVERT JUMPDEST POP PUSH1 0x4 CALLDATASIZE LT PUSH2 0x121 JUMPI PUSH1 0x0 CALLDATALOAD PUSH1 0xE0 SHR DUP1 PUSH4 0x6C608709 GT PUSH2 0xAD JUMPI DUP1 PUSH4 0x9EFA528E GT PUSH2 0x71 JUMPI DUP1 PUSH4 0x9EFA528E EQ PUSH2 0x324 JUMPI DUP1 PUSH4 0xADCFB4FC EQ PUSH2 0x340 JUMPI DUP1 PUSH4 0xC1562547 EQ PUSH2 0x35C JUMPI DUP1 PUSH4 0xEB972008 EQ PUSH2 0x37A JUMPI DUP1 PUSH4 0xF6F2EDE0 EQ PUSH2 0x398 JUMPI PUSH2 0x121 JUMP JUMPDEST DUP1 PUSH4 0x6C608709 EQ PUSH2 0x256 JUMPI DUP1 PUSH4 0x7111E750 EQ PUSH2 0x286 JUMPI DUP1 PUSH4 0x894FD813 EQ PUSH2 0x2B9 JUMPI DUP1 PUSH4 0x8A1B9736 EQ PUSH2 0x2D5 JUMPI DUP1 PUSH4 0x9BF44B7D EQ PUSH2 0x308 JUMPI PUSH2 0x121 JUMP JUMPDEST DUP1 PUSH4 0x23E583B4 GT PUSH2 0xF4 JUMPI DUP1 PUSH4 0x23E583B4 EQ PUSH2 0x1AF JUMPI DUP1 PUSH4 0x377B47A3 EQ PUSH2 0x1DF JUMPI DUP1 PUSH4 0x46064AB9 EQ PUSH2 0x1E9 JUMPI DUP1 PUSH4 0x4BE422AE EQ PUSH2 0x21C JUMPI DUP1 PUSH4 0x5CB0122A EQ PUSH2 0x226 JUMPI PUSH2 0x121 JUMP JUMPDEST DUP1 PUSH4 0x11F2CCE EQ PUSH2 0x126 JUMPI DUP1 PUSH4 0x26FF05E EQ PUSH2 0x142 JUMPI DUP1 PUSH4 0x7EDBDC5 EQ PUSH2 0x160 JUMPI DUP1 PUSH4 0xB4F12F6 EQ PUSH2 0x193 JUMPI JUMPDEST PUSH1 0x0 DUP1 REVERT JUMPDEST PUSH2 0x140 PUSH1 0x4 DUP1 CALLDATASIZE SUB DUP2 ADD SWAP1 PUSH2 0x13B SWAP2 SWAP1 PUSH2 0x1E8F JUMP JUMPDEST PUSH2 0x3C8 JUMP JUMPDEST STOP JUMPDEST PUSH2 0x14A PUSH2 0x4B1 JUMP JUMPDEST PUSH1 0x40 MLOAD PUSH2 0x157 SWAP2 SWAP1 PUSH2 0x2230 JUMP JUMPDEST PUSH1 0x40 MLOAD DUP1 SWAP2 SUB SWAP1 RETURN JUMPDEST PUSH2 0x17A PUSH1 0x4 DUP1 CALLDATASIZE SUB DUP2 ADD SWAP1 PUSH2 0x175 SWAP2 SWAP1 PUSH2 0x1E66 JUMP JUMPDEST PUSH2 0x6EC JUMP JUMPDEST PUSH1 0x40 MLOAD PUSH2 0x18A SWAP5 SWAP4 SWAP3 SWAP2 SWAP1 PUSH2 0x21C2 JUMP JUMPDEST PUSH1 0x40 MLOAD DUP1 SWAP2 SUB SWAP1 RETURN JUMPDEST PUSH2 0x1AD PUSH1 0x4 DUP1 CALLDATASIZE SUB DUP2 ADD SWAP1 PUSH2 0x1A8 SWAP2 SWAP1 PUSH2 0x1E8F JUMP JUMPDEST PUSH2 0x7E4 JUMP JUMPDEST STOP JUMPDEST PUSH2 0x1C9 PUSH1 0x4 DUP1 CALLDATASIZE SUB DUP2 ADD SWAP1 PUSH2 0x1C4 SWAP2 SWAP1 PUSH2 0x1DB3 JUMP JUMPDEST PUSH2 0xAE8 JUMP JUMPDEST PUSH1 0x40 MLOAD PUSH2 0x1D6 SWAP2 SWAP1 PUSH2 0x224B JUMP JUMPDEST PUSH1 0x40 MLOAD DUP1 SWAP2 SUB SWAP1 RETURN JUMPDEST PUSH2 0x1E7 PUSH2 0xB19 JUMP JUMPDEST STOP JUMPDEST PUSH2 0x203 PUSH1 0x4 DUP1 CALLDATASIZE SUB DUP2 ADD SWAP1 PUSH2 0x1FE SWAP2 SWAP1 PUSH2 0x1E66 JUMP JUMPDEST PUSH2 0xCE3 JUMP JUMPDEST PUSH1 0x40 MLOAD PUSH2 0x213 SWAP5 SWAP4 SWAP3 SWAP2 SWAP1 PUSH2 0x21C2 JUMP JUMPDEST PUSH1 0x40 MLOAD DUP1 SWAP2 SUB SWAP1 RETURN JUMPDEST PUSH2 0x224 PUSH2 0xE26 JUMP JUMPDEST STOP JUMPDEST PUSH2 0x240 PUSH1 0x4 DUP1 CALLDATASIZE SUB DUP2 ADD SWAP1 PUSH2 0x23B SWAP2 SWAP1 PUSH2 0x1CC0 JUMP JUMPDEST PUSH2 0xF60 JUMP JUMPDEST PUSH1 0x40 MLOAD PUSH2 0x24D SWAP2 SWAP1 PUSH2 0x220E JUMP JUMPDEST PUSH1 0x40 MLOAD DUP1 SWAP2 SUB SWAP1 RETURN JUMPDEST PUSH2 0x270 PUSH1 0x4 DUP1 CALLDATASIZE SUB DUP2 ADD SWAP1 PUSH2 0x26B SWAP2 SWAP1 PUSH2 0x1E8F JUMP JUMPDEST PUSH2 0xFF7 JUMP JUMPDEST PUSH1 0x40 MLOAD PUSH2 0x27D SWAP2 SWAP1 PUSH2 0x21A7 JUMP JUMPDEST PUSH1 0x40 MLOAD DUP1 SWAP2 SUB SWAP1 RETURN JUMPDEST PUSH2 0x2A0 PUSH1 0x4 DUP1 CALLDATASIZE SUB DUP2 ADD SWAP1 PUSH2 0x29B SWAP2 SWAP1 PUSH2 0x1CC0 JUMP JUMPDEST PUSH2 0x1040 JUMP JUMPDEST PUSH1 0x40 MLOAD PUSH2 0x2B0 SWAP5 SWAP4 SWAP3 SWAP2 SWAP1 PUSH2 0x23F3 JUMP JUMPDEST PUSH1 0x40 MLOAD DUP1 SWAP2 SUB SWAP1 RETURN JUMPDEST PUSH2 0x2D3 PUSH1 0x4 DUP1 CALLDATASIZE SUB DUP2 ADD SWAP1 PUSH2 0x2CE SWAP2 SWAP1 PUSH2 0x1DEF JUMP JUMPDEST PUSH2 0x1070 JUMP JUMPDEST STOP JUMPDEST PUSH2 0x2EF PUSH1 0x4 DUP1 CALLDATASIZE SUB DUP2 ADD SWAP1 PUSH2 0x2EA SWAP2 SWAP1 PUSH2 0x1CC0 JUMP JUMPDEST PUSH2 0x11DB JUMP JUMPDEST PUSH1 0x40 MLOAD PUSH2 0x2FF SWAP5 SWAP4 SWAP3 SWAP2 SWAP1 PUSH2 0x23F3 JUMP JUMPDEST PUSH1 0x40 MLOAD DUP1 SWAP2 SUB SWAP1 RETURN JUMPDEST PUSH2 0x322 PUSH1 0x4 DUP1 CALLDATASIZE SUB DUP2 ADD SWAP1 PUSH2 0x31D SWAP2 SWAP1 PUSH2 0x1CE9 JUMP JUMPDEST PUSH2 0x12FC JUMP JUMPDEST STOP JUMPDEST PUSH2 0x33E PUSH1 0x4 DUP1 CALLDATASIZE SUB DUP2 ADD SWAP1 PUSH2 0x339 SWAP2 SWAP1 PUSH2 0x1D38 JUMP JUMPDEST PUSH2 0x13CB JUMP JUMPDEST STOP JUMPDEST PUSH2 0x35A PUSH1 0x4 DUP1 CALLDATASIZE SUB DUP2 ADD SWAP1 PUSH2 0x355 SWAP2 SWAP1 PUSH2 0x1E8F JUMP JUMPDEST PUSH2 0x1536 JUMP JUMPDEST STOP JUMPDEST PUSH2 0x364 PUSH2 0x1877 JUMP JUMPDEST PUSH1 0x40 MLOAD PUSH2 0x371 SWAP2 SWAP1 PUSH2 0x2266 JUMP JUMPDEST PUSH1 0x40 MLOAD DUP1 SWAP2 SUB SWAP1 RETURN JUMPDEST PUSH2 0x382 PUSH2 0x19D8 JUMP JUMPDEST PUSH1 0x40 MLOAD PUSH2 0x38F SWAP2 SWAP1 PUSH2 0x2266 JUMP JUMPDEST PUSH1 0x40 MLOAD DUP1 SWAP2 SUB SWAP1 RETURN JUMPDEST PUSH2 0x3B2 PUSH1 0x4 DUP1 CALLDATASIZE SUB DUP2 ADD SWAP1 PUSH2 0x3AD SWAP2 SWAP1 PUSH2 0x1CC0 JUMP JUMPDEST PUSH2 0x1AAA JUMP JUMPDEST PUSH1 0x40 MLOAD PUSH2 0x3BF SWAP2 SWAP1 PUSH2 0x2230 JUMP JUMPDEST PUSH1 0x40 MLOAD DUP1 SWAP2 SUB SWAP1 RETURN JUMPDEST PUSH1 0x3 PUSH1 0x0 CALLER PUSH20 0xFFFFFFFFFFFFFFFFFFFFFFFFFFFFFFFFFFFFFFFF AND PUSH20 0xFFFFFFFFFFFFFFFFFFFFFFFFFFFFFFFFFFFFFFFF AND DUP2 MSTORE PUSH1 0x20 ADD SWAP1 DUP2 MSTORE PUSH1 0x20 ADD PUSH1 0x0 KECCAK256 PUSH1 0x3 ADD PUSH1 0x0 SWAP1 SLOAD SWAP1 PUSH2 0x100 EXP SWAP1 DIV PUSH1 0xFF AND PUSH2 0x457 JUMPI PUSH1 0x40 MLOAD PUSH32 0x8C379A000000000000000000000000000000000000000000000000000000000 DUP2 MSTORE PUSH1 0x4 ADD PUSH2 0x44E SWAP1 PUSH2 0x2378 JUMP JUMPDEST PUSH1 0x40 MLOAD DUP1 SWAP2 SUB SWAP1 REVERT JUMPDEST DUP1 PUSH1 0x3 PUSH1 0x0 CALLER PUSH20 0xFFFFFFFFFFFFFFFFFFFFFFFFFFFFFFFFFFFFFFFF AND PUSH20 0xFFFFFFFFFFFFFFFFFFFFFFFFFFFFFFFFFFFFFFFF AND DUP2 MSTORE PUSH1 0x20 ADD SWAP1 DUP2 MSTORE PUSH1 0x20 ADD PUSH1 0x0 KECCAK256 PUSH1 0x4 ADD SWAP1 DUP1 MLOAD SWAP1 PUSH1 0x20 ADD SWAP1 PUSH2 0x4AD SWAP3 SWAP2 SWAP1 PUSH2 0x1B36 JUMP JUMPDEST POP POP JUMP JUMPDEST PUSH1 0x0 PUSH1 0x3 PUSH1 0x0 CALLER PUSH20 0xFFFFFFFFFFFFFFFFFFFFFFFFFFFFFFFFFFFFFFFF AND PUSH20 0xFFFFFFFFFFFFFFFFFFFFFFFFFFFFFFFFFFFFFFFF AND DUP2 MSTORE PUSH1 0x20 ADD SWAP1 DUP2 MSTORE PUSH1 0x20 ADD PUSH1 0x0 KECCAK256 PUSH1 0x1 ADD PUSH1 0x0 SWAP1 SLOAD SWAP1 PUSH2 0x100 EXP SWAP1 DIV PUSH1 0xFF AND PUSH2 0x542 JUMPI PUSH1 0x40 MLOAD PUSH32 0x8C379A000000000000000000000000000000000000000000000000000000000 DUP2 MSTORE PUSH1 0x4 ADD PUSH2 0x539 SWAP1 PUSH2 0x2338 JUMP JUMPDEST PUSH1 0x40 MLOAD DUP1 SWAP2 SUB SWAP1 REVERT JUMPDEST PUSH1 0x0 PUSH1 0x3 PUSH1 0x0 CALLER PUSH20 0xFFFFFFFFFFFFFFFFFFFFFFFFFFFFFFFFFFFFFFFF AND PUSH20 0xFFFFFFFFFFFFFFFFFFFFFFFFFFFFFFFFFFFFFFFF AND DUP2 MSTORE PUSH1 0x20 ADD SWAP1 DUP2 MSTORE PUSH1 0x20 ADD PUSH1 0x0 KECCAK256 PUSH1 0x0 ADD DUP1 SLOAD PUSH2 0x591 SWAP1 PUSH2 0x25D8 JUMP JUMPDEST DUP1 PUSH1 0x1F ADD PUSH1 0x20 DUP1 SWAP2 DIV MUL PUSH1 0x20 ADD PUSH1 0x40 MLOAD SWAP1 DUP2 ADD PUSH1 0x40 MSTORE DUP1 SWAP3 SWAP2 SWAP1 DUP2 DUP2 MSTORE PUSH1 0x20 ADD DUP3 DUP1 SLOAD PUSH2 0x5BD SWAP1 PUSH2 0x25D8 JUMP JUMPDEST DUP1 ISZERO PUSH2 0x60A JUMPI DUP1 PUSH1 0x1F LT PUSH2 0x5DF JUMPI PUSH2 0x100 DUP1 DUP4 SLOAD DIV MUL DUP4 MSTORE SWAP2 PUSH1 0x20 ADD SWAP2 PUSH2 0x60A JUMP JUMPDEST DUP3 ADD SWAP2 SWAP1 PUSH1 0x0 MSTORE PUSH1 0x20 PUSH1 0x0 KECCAK256 SWAP1 JUMPDEST DUP2 SLOAD DUP2 MSTORE SWAP1 PUSH1 0x1 ADD SWAP1 PUSH1 0x20 ADD DUP1 DUP4 GT PUSH2 0x5ED JUMPI DUP3 SWAP1 SUB PUSH1 0x1F AND DUP3 ADD SWAP2 JUMPDEST POP POP POP POP POP SWAP1 POP PUSH1 0x4 DUP2 PUSH1 0x40 MLOAD PUSH2 0x621 SWAP2 SWAP1 PUSH2 0x2190 JUMP JUMPDEST SWAP1 DUP2 MSTORE PUSH1 0x20 ADD PUSH1 0x40 MLOAD DUP1 SWAP2 SUB SWAP1 KECCAK256 PUSH1 0x0 PUSH2 0x100 EXP DUP2 SLOAD SWAP1 PUSH20 0xFFFFFFFFFFFFFFFFFFFFFFFFFFFFFFFFFFFFFFFF MUL NOT AND SWAP1 SSTORE PUSH1 0x3 PUSH1 0x0 CALLER PUSH20 0xFFFFFFFFFFFFFFFFFFFFFFFFFFFFFFFFFFFFFFFF AND PUSH20 0xFFFFFFFFFFFFFFFFFFFFFFFFFFFFFFFFFFFFFFFF AND DUP2 MSTORE PUSH1 0x20 ADD SWAP1 DUP2 MSTORE PUSH1 0x20 ADD PUSH1 0x0 KECCAK256 PUSH1 0x0 DUP1 DUP3 ADD PUSH1 0x0 PUSH2 0x6A2 SWAP2 SWAP1 PUSH2 0x1BBC JUMP JUMPDEST PUSH1 0x1 DUP3 ADD PUSH1 0x0 PUSH2 0x100 EXP DUP2 SLOAD SWAP1 PUSH1 0xFF MUL NOT AND SWAP1 SSTORE PUSH1 0x2 DUP3 ADD PUSH1 0x0 SWAP1 SSTORE PUSH1 0x3 DUP3 ADD PUSH1 0x0 PUSH2 0x100 EXP DUP2 SLOAD SWAP1 PUSH1 0xFF MUL NOT AND SWAP1 SSTORE PUSH1 0x4 DUP3 ADD PUSH1 0x0 PUSH2 0x6E2 SWAP2 SWAP1 PUSH2 0x1BBC JUMP JUMPDEST POP POP PUSH1 0x1 SWAP2 POP POP SWAP1 JUMP JUMPDEST PUSH1 0x1 PUSH1 0x20 MSTORE DUP1 PUSH1 0x0 MSTORE PUSH1 0x40 PUSH1 0x0 KECCAK256 PUSH1 0x0 SWAP2 POP SWAP1 POP DUP1 PUSH1 0x0 ADD PUSH1 0x0 SWAP1 SLOAD SWAP1 PUSH2 0x100 EXP SWAP1 DIV PUSH20 0xFFFFFFFFFFFFFFFFFFFFFFFFFFFFFFFFFFFFFFFF AND SWAP1 DUP1 PUSH1 0x1 ADD SLOAD SWAP1 DUP1 PUSH1 0x2 ADD PUSH1 0x0 SWAP1 SLOAD SWAP1 PUSH2 0x100 EXP SWAP1 DIV PUSH20 0xFFFFFFFFFFFFFFFFFFFFFFFFFFFFFFFFFFFFFFFF AND SWAP1 DUP1 PUSH1 0x3 ADD DUP1 SLOAD PUSH2 0x761 SWAP1 PUSH2 0x25D8 JUMP JUMPDEST DUP1 PUSH1 0x1F ADD PUSH1 0x20 DUP1 SWAP2 DIV MUL PUSH1 0x20 ADD PUSH1 0x40 MLOAD SWAP1 DUP2 ADD PUSH1 0x40 MSTORE DUP1 SWAP3 SWAP2 SWAP1 DUP2 DUP2 MSTORE PUSH1 0x20 ADD DUP3 DUP1 SLOAD PUSH2 0x78D SWAP1 PUSH2 0x25D8 JUMP JUMPDEST DUP1 ISZERO PUSH2 0x7DA JUMPI DUP1 PUSH1 0x1F LT PUSH2 0x7AF JUMPI PUSH2 0x100 DUP1 DUP4 SLOAD DIV MUL DUP4 MSTORE SWAP2 PUSH1 0x20 ADD SWAP2 PUSH2 0x7DA JUMP JUMPDEST DUP3 ADD SWAP2 SWAP1 PUSH1 0x0 MSTORE PUSH1 0x20 PUSH1 0x0 KECCAK256 SWAP1 JUMPDEST DUP2 SLOAD DUP2 MSTORE SWAP1 PUSH1 0x1 ADD SWAP1 PUSH1 0x20 ADD DUP1 DUP4 GT PUSH2 0x7BD JUMPI DUP3 SWAP1 SUB PUSH1 0x1F AND DUP3 ADD SWAP2 JUMPDEST POP POP POP POP POP SWAP1 POP DUP5 JUMP JUMPDEST PUSH1 0x3 PUSH1 0x0 CALLER PUSH20 0xFFFFFFFFFFFFFFFFFFFFFFFFFFFFFFFFFFFFFFFF AND PUSH20 0xFFFFFFFFFFFFFFFFFFFFFFFFFFFFFFFFFFFFFFFF AND DUP2 MSTORE PUSH1 0x20 ADD SWAP1 DUP2 MSTORE PUSH1 0x20 ADD PUSH1 0x0 KECCAK256 PUSH1 0x3 ADD PUSH1 0x0 SWAP1 SLOAD SWAP1 PUSH2 0x100 EXP SWAP1 DIV PUSH1 0xFF AND PUSH2 0x873 JUMPI PUSH1 0x40 MLOAD PUSH32 0x8C379A000000000000000000000000000000000000000000000000000000000 DUP2 MSTORE PUSH1 0x4 ADD PUSH2 0x86A SWAP1 PUSH2 0x22F8 JUMP JUMPDEST PUSH1 0x40 MLOAD DUP1 SWAP2 SUB SWAP1 REVERT JUMPDEST PUSH1 0x0 PUSH20 0xFFFFFFFFFFFFFFFFFFFFFFFFFFFFFFFFFFFFFFFF AND PUSH1 0x4 DUP3 PUSH1 0x40 MLOAD PUSH2 0x89B SWAP2 SWAP1 PUSH2 0x2190 JUMP JUMPDEST SWAP1 DUP2 MSTORE PUSH1 0x20 ADD PUSH1 0x40 MLOAD DUP1 SWAP2 SUB SWAP1 KECCAK256 PUSH1 0x0 SWAP1 SLOAD SWAP1 PUSH2 0x100 EXP SWAP1 DIV PUSH20 0xFFFFFFFFFFFFFFFFFFFFFFFFFFFFFFFFFFFFFFFF AND PUSH20 0xFFFFFFFFFFFFFFFFFFFFFFFFFFFFFFFFFFFFFFFF AND EQ PUSH2 0x920 JUMPI PUSH1 0x40 MLOAD PUSH32 0x8C379A000000000000000000000000000000000000000000000000000000000 DUP2 MSTORE PUSH1 0x4 ADD PUSH2 0x917 SWAP1 PUSH2 0x2398 JUMP JUMPDEST PUSH1 0x40 MLOAD DUP1 SWAP2 SUB SWAP1 REVERT JUMPDEST PUSH1 0x0 PUSH1 0x3 PUSH1 0x0 CALLER PUSH20 0xFFFFFFFFFFFFFFFFFFFFFFFFFFFFFFFFFFFFFFFF AND PUSH20 0xFFFFFFFFFFFFFFFFFFFFFFFFFFFFFFFFFFFFFFFF AND DUP2 MSTORE PUSH1 0x20 ADD SWAP1 DUP2 MSTORE PUSH1 0x20 ADD PUSH1 0x0 KECCAK256 PUSH1 0x0 ADD DUP1 SLOAD PUSH2 0x96F SWAP1 PUSH2 0x25D8 JUMP JUMPDEST DUP1 PUSH1 0x1F ADD PUSH1 0x20 DUP1 SWAP2 DIV MUL PUSH1 0x20 ADD PUSH1 0x40 MLOAD SWAP1 DUP2 ADD PUSH1 0x40 MSTORE DUP1 SWAP3 SWAP2 SWAP1 DUP2 DUP2 MSTORE PUSH1 0x20 ADD DUP3 DUP1 SLOAD PUSH2 0x99B SWAP1 PUSH2 0x25D8 JUMP JUMPDEST DUP1 ISZERO PUSH2 0x9E8 JUMPI DUP1 PUSH1 0x1F LT PUSH2 0x9BD JUMPI PUSH2 0x100 DUP1 DUP4 SLOAD DIV MUL DUP4 MSTORE SWAP2 PUSH1 0x20 ADD SWAP2 PUSH2 0x9E8 JUMP JUMPDEST DUP3 ADD SWAP2 SWAP1 PUSH1 0x0 MSTORE PUSH1 0x20 PUSH1 0x0 KECCAK256 SWAP1 JUMPDEST DUP2 SLOAD DUP2 MSTORE SWAP1 PUSH1 0x1 ADD SWAP1 PUSH1 0x20 ADD DUP1 DUP4 GT PUSH2 0x9CB JUMPI DUP3 SWAP1 SUB PUSH1 0x1F AND DUP3 ADD SWAP2 JUMPDEST POP POP POP POP POP SWAP1 POP PUSH1 0x4 DUP2 PUSH1 0x40 MLOAD PUSH2 0x9FF SWAP2 SWAP1 PUSH2 0x2190 JUMP JUMPDEST SWAP1 DUP2 MSTORE PUSH1 0x20 ADD PUSH1 0x40 MLOAD DUP1 SWAP2 SUB SWAP1 KECCAK256 PUSH1 0x0 PUSH2 0x100 EXP DUP2 SLOAD SWAP1 PUSH20 0xFFFFFFFFFFFFFFFFFFFFFFFFFFFFFFFFFFFFFFFF MUL NOT AND SWAP1 SSTORE CALLER PUSH1 0x4 DUP4 PUSH1 0x40 MLOAD PUSH2 0xA41 SWAP2 SWAP1 PUSH2 0x2190 JUMP JUMPDEST SWAP1 DUP2 MSTORE PUSH1 0x20 ADD PUSH1 0x40 MLOAD DUP1 SWAP2 SUB SWAP1 KECCAK256 PUSH1 0x0 PUSH2 0x100 EXP DUP2 SLOAD DUP2 PUSH20 0xFFFFFFFFFFFFFFFFFFFFFFFFFFFFFFFFFFFFFFFF MUL NOT AND SWAP1 DUP4 PUSH20 0xFFFFFFFFFFFFFFFFFFFFFFFFFFFFFFFFFFFFFFFF AND MUL OR SWAP1 SSTORE POP DUP2 PUSH1 0x3 PUSH1 0x0 CALLER PUSH20 0xFFFFFFFFFFFFFFFFFFFFFFFFFFFFFFFFFFFFFFFF AND PUSH20 0xFFFFFFFFFFFFFFFFFFFFFFFFFFFFFFFFFFFFFFFF AND DUP2 MSTORE PUSH1 0x20 ADD SWAP1 DUP2 MSTORE PUSH1 0x20 ADD PUSH1 0x0 KECCAK256 PUSH1 0x0 ADD SWAP1 DUP1 MLOAD SWAP1 PUSH1 0x20 ADD SWAP1 PUSH2 0xAE3 SWAP3 SWAP2 SWAP1 PUSH2 0x1B36 JUMP JUMPDEST POP POP POP JUMP JUMPDEST PUSH1 0x2 PUSH1 0x20 MSTORE DUP2 PUSH1 0x0 MSTORE PUSH1 0x40 PUSH1 0x0 KECCAK256 DUP2 DUP2 SLOAD DUP2 LT PUSH2 0xB04 JUMPI PUSH1 0x0 DUP1 REVERT JUMPDEST SWAP1 PUSH1 0x0 MSTORE PUSH1 0x20 PUSH1 0x0 KECCAK256 ADD PUSH1 0x0 SWAP2 POP SWAP2 POP POP SLOAD DUP2 JUMP JUMPDEST PUSH1 0x3 PUSH1 0x0 CALLER PUSH20 0xFFFFFFFFFFFFFFFFFFFFFFFFFFFFFFFFFFFFFFFF AND PUSH20 0xFFFFFFFFFFFFFFFFFFFFFFFFFFFFFFFFFFFFFFFF AND DUP2 MSTORE PUSH1 0x20 ADD SWAP1 DUP2 MSTORE PUSH1 0x20 ADD PUSH1 0x0 KECCAK256 PUSH1 0x1 ADD PUSH1 0x0 SWAP1 SLOAD SWAP1 PUSH2 0x100 EXP SWAP1 DIV PUSH1 0xFF AND PUSH2 0xBA8 JUMPI PUSH1 0x40 MLOAD PUSH32 0x8C379A000000000000000000000000000000000000000000000000000000000 DUP2 MSTORE PUSH1 0x4 ADD PUSH2 0xB9F SWAP1 PUSH2 0x2318 JUMP JUMPDEST PUSH1 0x40 MLOAD DUP1 SWAP2 SUB SWAP1 REVERT JUMPDEST PUSH1 0x3 PUSH1 0x0 CALLER PUSH20 0xFFFFFFFFFFFFFFFFFFFFFFFFFFFFFFFFFFFFFFFF AND PUSH20 0xFFFFFFFFFFFFFFFFFFFFFFFFFFFFFFFFFFFFFFFF AND DUP2 MSTORE PUSH1 0x20 ADD SWAP1 DUP2 MSTORE PUSH1 0x20 ADD PUSH1 0x0 KECCAK256 PUSH1 0x3 ADD PUSH1 0x0 SWAP1 SLOAD SWAP1 PUSH2 0x100 EXP SWAP1 DIV PUSH1 0xFF AND ISZERO PUSH2 0xC38 JUMPI PUSH1 0x40 MLOAD PUSH32 0x8C379A000000000000000000000000000000000000000000000000000000000 DUP2 MSTORE PUSH1 0x4 ADD PUSH2 0xC2F SWAP1 PUSH2 0x22B8 JUMP JUMPDEST PUSH1 0x40 MLOAD DUP1 SWAP2 SUB SWAP1 REVERT JUMPDEST PUSH1 0x1 PUSH1 0x3 PUSH1 0x0 CALLER PUSH20 0xFFFFFFFFFFFFFFFFFFFFFFFFFFFFFFFFFFFFFFFF AND PUSH20 0xFFFFFFFFFFFFFFFFFFFFFFFFFFFFFFFFFFFFFFFF AND DUP2 MSTORE PUSH1 0x20 ADD SWAP1 DUP2 MSTORE PUSH1 0x20 ADD PUSH1 0x0 KECCAK256 PUSH1 0x3 ADD PUSH1 0x0 PUSH2 0x100 EXP DUP2 SLOAD DUP2 PUSH1 0xFF MUL NOT AND SWAP1 DUP4 ISZERO ISZERO MUL OR SWAP1 SSTORE POP CALLER PUSH20 0xFFFFFFFFFFFFFFFFFFFFFFFFFFFFFFFFFFFFFFFF AND PUSH32 0x364034DE78A61B6190B049E2C5437370B27906BFED607993A5BC2DDA23C16CFF TIMESTAMP PUSH1 0x40 MLOAD PUSH2 0xCD9 SWAP2 SWAP1 PUSH2 0x23D8 JUMP JUMPDEST PUSH1 0x40 MLOAD DUP1 SWAP2 SUB SWAP1 LOG2 JUMP JUMPDEST PUSH1 0x0 DUP1 PUSH1 0x0 PUSH1 0x60 PUSH1 0x0 DUP6 SWAP1 POP PUSH1 0x1 PUSH1 0x0 DUP3 DUP2 MSTORE PUSH1 0x20 ADD SWAP1 DUP2 MSTORE PUSH1 0x20 ADD PUSH1 0x0 KECCAK256 PUSH1 0x0 ADD PUSH1 0x0 SWAP1 SLOAD SWAP1 PUSH2 0x100 EXP SWAP1 DIV PUSH20 0xFFFFFFFFFFFFFFFFFFFFFFFFFFFFFFFFFFFFFFFF AND PUSH1 0x1 PUSH1 0x0 DUP4 DUP2 MSTORE PUSH1 0x20 ADD SWAP1 DUP2 MSTORE PUSH1 0x20 ADD PUSH1 0x0 KECCAK256 PUSH1 0x1 ADD SLOAD PUSH1 0x1 PUSH1 0x0 DUP5 DUP2 MSTORE PUSH1 0x20 ADD SWAP1 DUP2 MSTORE PUSH1 0x20 ADD PUSH1 0x0 KECCAK256 PUSH1 0x2 ADD PUSH1 0x0 SWAP1 SLOAD SWAP1 PUSH2 0x100 EXP SWAP1 DIV PUSH20 0xFFFFFFFFFFFFFFFFFFFFFFFFFFFFFFFFFFFFFFFF AND PUSH1 0x1 PUSH1 0x0 DUP6 DUP2 MSTORE PUSH1 0x20 ADD SWAP1 DUP2 MSTORE PUSH1 0x20 ADD PUSH1 0x0 KECCAK256 PUSH1 0x3 ADD DUP1 DUP1 SLOAD PUSH2 0xD96 SWAP1 PUSH2 0x25D8 JUMP JUMPDEST DUP1 PUSH1 0x1F ADD PUSH1 0x20 DUP1 SWAP2 DIV MUL PUSH1 0x20 ADD PUSH1 0x40 MLOAD SWAP1 DUP2 ADD PUSH1 0x40 MSTORE DUP1 SWAP3 SWAP2 SWAP1 DUP2 DUP2 MSTORE PUSH1 0x20 ADD DUP3 DUP1 SLOAD PUSH2 0xDC2 SWAP1 PUSH2 0x25D8 JUMP JUMPDEST DUP1 ISZERO PUSH2 0xE0F JUMPI DUP1 PUSH1 0x1F LT PUSH2 0xDE4 JUMPI PUSH2 0x100 DUP1 DUP4 SLOAD DIV MUL DUP4 MSTORE SWAP2 PUSH1 0x20 ADD SWAP2 PUSH2 0xE0F JUMP JUMPDEST DUP3 ADD SWAP2 SWAP1 PUSH1 0x0 MSTORE PUSH1 0x20 PUSH1 0x0 KECCAK256 SWAP1 JUMPDEST DUP2 SLOAD DUP2 MSTORE SWAP1 PUSH1 0x1 ADD SWAP1 PUSH1 0x20 ADD DUP1 DUP4 GT PUSH2 0xDF2 JUMPI DUP3 SWAP1 SUB PUSH1 0x1F AND DUP3 ADD SWAP2 JUMPDEST POP POP POP POP POP SWAP1 POP SWAP5 POP SWAP5 POP SWAP5 POP SWAP5 POP POP SWAP2 SWAP4 POP SWAP2 SWAP4 JUMP JUMPDEST PUSH1 0x3 PUSH1 0x0 CALLER PUSH20 0xFFFFFFFFFFFFFFFFFFFFFFFFFFFFFFFFFFFFFFFF AND PUSH20 0xFFFFFFFFFFFFFFFFFFFFFFFFFFFFFFFFFFFFFFFF AND DUP2 MSTORE PUSH1 0x20 ADD SWAP1 DUP2 MSTORE PUSH1 0x20 ADD PUSH1 0x0 KECCAK256 PUSH1 0x3 ADD PUSH1 0x0 SWAP1 SLOAD SWAP1 PUSH2 0x100 EXP SWAP1 DIV PUSH1 0xFF AND PUSH2 0xEB5 JUMPI PUSH1 0x40 MLOAD PUSH32 0x8C379A000000000000000000000000000000000000000000000000000000000 DUP2 MSTORE PUSH1 0x4 ADD PUSH2 0xEAC SWAP1 PUSH2 0x2358 JUMP JUMPDEST PUSH1 0x40 MLOAD DUP1 SWAP2 SUB SWAP1 REVERT JUMPDEST PUSH1 0x0 PUSH1 0x3 PUSH1 0x0 CALLER PUSH20 0xFFFFFFFFFFFFFFFFFFFFFFFFFFFFFFFFFFFFFFFF AND PUSH20 0xFFFFFFFFFFFFFFFFFFFFFFFFFFFFFFFFFFFFFFFF AND DUP2 MSTORE PUSH1 0x20 ADD SWAP1 DUP2 MSTORE PUSH1 0x20 ADD PUSH1 0x0 KECCAK256 PUSH1 0x3 ADD PUSH1 0x0 PUSH2 0x100 EXP DUP2 SLOAD DUP2 PUSH1 0xFF MUL NOT AND SWAP1 DUP4 ISZERO ISZERO MUL OR SWAP1 SSTORE POP CALLER PUSH20 0xFFFFFFFFFFFFFFFFFFFFFFFFFFFFFFFFFFFFFFFF AND PUSH32 0x70D1177AA26C67F6B2FDB43400CFD7FF0C23A8712301ABE5ABA2EE3D89E28A10 TIMESTAMP PUSH1 0x40 MLOAD PUSH2 0xF56 SWAP2 SWAP1 PUSH2 0x23D8 JUMP JUMPDEST PUSH1 0x40 MLOAD DUP1 SWAP2 SUB SWAP1 LOG2 JUMP JUMPDEST PUSH1 0x60 PUSH1 0x2 PUSH1 0x0 DUP4 PUSH20 0xFFFFFFFFFFFFFFFFFFFFFFFFFFFFFFFFFFFFFFFF AND PUSH20 0xFFFFFFFFFFFFFFFFFFFFFFFFFFFFFFFFFFFFFFFF AND DUP2 MSTORE PUSH1 0x20 ADD SWAP1 DUP2 MSTORE PUSH1 0x20 ADD PUSH1 0x0 KECCAK256 DUP1 SLOAD DUP1 PUSH1 0x20 MUL PUSH1 0x20 ADD PUSH1 0x40 MLOAD SWAP1 DUP2 ADD PUSH1 0x40 MSTORE DUP1 SWAP3 SWAP2 SWAP1 DUP2 DUP2 MSTORE PUSH1 0x20 ADD DUP3 DUP1 SLOAD DUP1 ISZERO PUSH2 0xFEB JUMPI PUSH1 0x20 MUL DUP3 ADD SWAP2 SWAP1 PUSH1 0x0 MSTORE PUSH1 0x20 PUSH1 0x0 KECCAK256 SWAP1 JUMPDEST DUP2 SLOAD DUP2 MSTORE PUSH1 0x20 ADD SWAP1 PUSH1 0x1 ADD SWAP1 DUP1 DUP4 GT PUSH2 0xFD7 JUMPI JUMPDEST POP POP POP POP POP SWAP1 POP SWAP2 SWAP1 POP JUMP JUMPDEST PUSH1 0x4 DUP2 DUP1 MLOAD PUSH1 0x20 DUP2 ADD DUP3 ADD DUP1 MLOAD DUP5 DUP3 MSTORE PUSH1 0x20 DUP4 ADD PUSH1 0x20 DUP6 ADD KECCAK256 DUP2 DUP4 MSTORE DUP1 SWAP6 POP POP POP POP POP POP PUSH1 0x0 SWAP2 POP SLOAD SWAP1 PUSH2 0x100 EXP SWAP1 DIV PUSH20 0xFFFFFFFFFFFFFFFFFFFFFFFFFFFFFFFFFFFFFFFF AND DUP2 JUMP JUMPDEST PUSH1 0x5 PUSH1 0x20 MSTORE DUP1 PUSH1 0x0 MSTORE PUSH1 0x40 PUSH1 0x0 KECCAK256 PUSH1 0x0 SWAP2 POP SWAP1 POP DUP1 PUSH1 0x0 ADD SLOAD SWAP1 DUP1 PUSH1 0x1 ADD SLOAD SWAP1 DUP1 PUSH1 0x2 ADD SLOAD SWAP1 DUP1 PUSH1 0x3 ADD SLOAD SWAP1 POP DUP5 JUMP JUMPDEST DUP4 PUSH1 0x5 PUSH1 0x0 DUP8 PUSH20 0xFFFFFFFFFFFFFFFFFFFFFFFFFFFFFFFFFFFFFFFF AND PUSH20 0xFFFFFFFFFFFFFFFFFFFFFFFFFFFFFFFFFFFFFFFF AND DUP2 MSTORE PUSH1 0x20 ADD SWAP1 DUP2 MSTORE PUSH1 0x20 ADD PUSH1 0x0 KECCAK256 PUSH1 0x0 ADD PUSH1 0x0 DUP3 DUP3 SLOAD PUSH2 0x10C2 SWAP2 SWAP1 PUSH2 0x24EE JUMP JUMPDEST SWAP3 POP POP DUP2 SWAP1 SSTORE POP DUP3 PUSH1 0x5 PUSH1 0x0 DUP8 PUSH20 0xFFFFFFFFFFFFFFFFFFFFFFFFFFFFFFFFFFFFFFFF AND PUSH20 0xFFFFFFFFFFFFFFFFFFFFFFFFFFFFFFFFFFFFFFFF AND DUP2 MSTORE PUSH1 0x20 ADD SWAP1 DUP2 MSTORE PUSH1 0x20 ADD PUSH1 0x0 KECCAK256 PUSH1 0x1 ADD PUSH1 0x0 DUP3 DUP3 SLOAD PUSH2 0x111B SWAP2 SWAP1 PUSH2 0x24EE JUMP JUMPDEST SWAP3 POP POP DUP2 SWAP1 SSTORE POP DUP2 PUSH1 0x5 PUSH1 0x0 DUP8 PUSH20 0xFFFFFFFFFFFFFFFFFFFFFFFFFFFFFFFFFFFFFFFF AND PUSH20 0xFFFFFFFFFFFFFFFFFFFFFFFFFFFFFFFFFFFFFFFF AND DUP2 MSTORE PUSH1 0x20 ADD SWAP1 DUP2 MSTORE PUSH1 0x20 ADD PUSH1 0x0 KECCAK256 PUSH1 0x2 ADD PUSH1 0x0 DUP3 DUP3 SLOAD PUSH2 0x1174 SWAP2 SWAP1 PUSH2 0x24EE JUMP JUMPDEST SWAP3 POP POP DUP2 SWAP1 SSTORE POP DUP1 PUSH1 0x5 PUSH1 0x0 DUP8 PUSH20 0xFFFFFFFFFFFFFFFFFFFFFFFFFFFFFFFFFFFFFFFF AND PUSH20 0xFFFFFFFFFFFFFFFFFFFFFFFFFFFFFFFFFFFFFFFF AND DUP2 MSTORE PUSH1 0x20 ADD SWAP1 DUP2 MSTORE PUSH1 0x20 ADD PUSH1 0x0 KECCAK256 PUSH1 0x3 ADD PUSH1 0x0 DUP3 DUP3 SLOAD PUSH2 0x11CD SWAP2 SWAP1 PUSH2 0x24EE JUMP JUMPDEST SWAP3 POP POP DUP2 SWAP1 SSTORE POP POP POP POP POP POP JUMP JUMPDEST PUSH1 0x0 DUP1 PUSH1 0x0 DUP1 PUSH1 0x5 PUSH1 0x0 DUP7 PUSH20 0xFFFFFFFFFFFFFFFFFFFFFFFFFFFFFFFFFFFFFFFF AND PUSH20 0xFFFFFFFFFFFFFFFFFFFFFFFFFFFFFFFFFFFFFFFF AND DUP2 MSTORE PUSH1 0x20 ADD SWAP1 DUP2 MSTORE PUSH1 0x20 ADD PUSH1 0x0 KECCAK256 PUSH1 0x2 ADD SLOAD PUSH1 0x5 PUSH1 0x0 DUP8 PUSH20 0xFFFFFFFFFFFFFFFFFFFFFFFFFFFFFFFFFFFFFFFF AND PUSH20 0xFFFFFFFFFFFFFFFFFFFFFFFFFFFFFFFFFFFFFFFF AND DUP2 MSTORE PUSH1 0x20 ADD SWAP1 DUP2 MSTORE PUSH1 0x20 ADD PUSH1 0x0 KECCAK256 PUSH1 0x3 ADD SLOAD PUSH1 0x5 PUSH1 0x0 DUP9 PUSH20 0xFFFFFFFFFFFFFFFFFFFFFFFFFFFFFFFFFFFFFFFF AND PUSH20 0xFFFFFFFFFFFFFFFFFFFFFFFFFFFFFFFFFFFFFFFF AND DUP2 MSTORE PUSH1 0x20 ADD SWAP1 DUP2 MSTORE PUSH1 0x20 ADD PUSH1 0x0 KECCAK256 PUSH1 0x0 ADD SLOAD PUSH1 0x5 PUSH1 0x0 DUP10 PUSH20 0xFFFFFFFFFFFFFFFFFFFFFFFFFFFFFFFFFFFFFFFF AND PUSH20 0xFFFFFFFFFFFFFFFFFFFFFFFFFFFFFFFFFFFFFFFF AND DUP2 MSTORE PUSH1 0x20 ADD SWAP1 DUP2 MSTORE PUSH1 0x20 ADD PUSH1 0x0 KECCAK256 PUSH1 0x1 ADD SLOAD SWAP4 POP SWAP4 POP SWAP4 POP SWAP4 POP SWAP2 SWAP4 POP SWAP2 SWAP4 JUMP JUMPDEST PUSH1 0x0 PUSH2 0x1308 DUP4 DUP4 PUSH2 0x1B03 JUMP JUMPDEST SWAP1 POP DUP4 PUSH1 0x1 PUSH1 0x0 DUP4 DUP2 MSTORE PUSH1 0x20 ADD SWAP1 DUP2 MSTORE PUSH1 0x20 ADD PUSH1 0x0 KECCAK256 PUSH1 0x2 ADD PUSH1 0x0 PUSH2 0x100 EXP DUP2 SLOAD DUP2 PUSH20 0xFFFFFFFFFFFFFFFFFFFFFFFFFFFFFFFFFFFFFFFF MUL NOT AND SWAP1 DUP4 PUSH20 0xFFFFFFFFFFFFFFFFFFFFFFFFFFFFFFFFFFFFFFFF AND MUL OR SWAP1 SSTORE POP PUSH1 0x2 PUSH1 0x0 DUP6 PUSH20 0xFFFFFFFFFFFFFFFFFFFFFFFFFFFFFFFFFFFFFFFF AND PUSH20 0xFFFFFFFFFFFFFFFFFFFFFFFFFFFFFFFFFFFFFFFF AND DUP2 MSTORE PUSH1 0x20 ADD SWAP1 DUP2 MSTORE PUSH1 0x20 ADD PUSH1 0x0 KECCAK256 DUP2 SWAP1 DUP1 PUSH1 0x1 DUP2 SLOAD ADD DUP1 DUP3 SSTORE DUP1 SWAP2 POP POP PUSH1 0x1 SWAP1 SUB SWAP1 PUSH1 0x0 MSTORE PUSH1 0x20 PUSH1 0x0 KECCAK256 ADD PUSH1 0x0 SWAP1 SWAP2 SWAP1 SWAP2 SWAP1 SWAP2 POP SSTORE POP POP POP POP JUMP JUMPDEST PUSH1 0x0 PUSH2 0x13D7 DUP5 DUP5 PUSH2 0x1B03 JUMP JUMPDEST SWAP1 POP DUP4 PUSH1 0x1 PUSH1 0x0 DUP4 DUP2 MSTORE PUSH1 0x20 ADD SWAP1 DUP2 MSTORE PUSH1 0x20 ADD PUSH1 0x0 KECCAK256 PUSH1 0x0 ADD PUSH1 0x0 PUSH2 0x100 EXP DUP2 SLOAD DUP2 PUSH20 0xFFFFFFFFFFFFFFFFFFFFFFFFFFFFFFFFFFFFFFFF MUL NOT AND SWAP1 DUP4 PUSH20 0xFFFFFFFFFFFFFFFFFFFFFFFFFFFFFFFFFFFFFFFF AND MUL OR SWAP1 SSTORE POP DUP3 PUSH1 0x1 PUSH1 0x0 DUP4 DUP2 MSTORE PUSH1 0x20 ADD SWAP1 DUP2 MSTORE PUSH1 0x20 ADD PUSH1 0x0 KECCAK256 PUSH1 0x1 ADD DUP2 SWAP1 SSTORE POP DUP5 PUSH1 0x1 PUSH1 0x0 DUP4 DUP2 MSTORE PUSH1 0x20 ADD SWAP1 DUP2 MSTORE PUSH1 0x20 ADD PUSH1 0x0 KECCAK256 PUSH1 0x2 ADD PUSH1 0x0 PUSH2 0x100 EXP DUP2 SLOAD DUP2 PUSH20 0xFFFFFFFFFFFFFFFFFFFFFFFFFFFFFFFFFFFFFFFF MUL NOT AND SWAP1 DUP4 PUSH20 0xFFFFFFFFFFFFFFFFFFFFFFFFFFFFFFFFFFFFFFFF AND MUL OR SWAP1 SSTORE POP DUP2 PUSH1 0x1 PUSH1 0x0 DUP4 DUP2 MSTORE PUSH1 0x20 ADD SWAP1 DUP2 MSTORE PUSH1 0x20 ADD PUSH1 0x0 KECCAK256 PUSH1 0x3 ADD SWAP1 DUP1 MLOAD SWAP1 PUSH1 0x20 ADD SWAP1 PUSH2 0x14C8 SWAP3 SWAP2 SWAP1 PUSH2 0x1B36 JUMP JUMPDEST POP PUSH1 0x2 PUSH1 0x0 DUP7 PUSH20 0xFFFFFFFFFFFFFFFFFFFFFFFFFFFFFFFFFFFFFFFF AND PUSH20 0xFFFFFFFFFFFFFFFFFFFFFFFFFFFFFFFFFFFFFFFF AND DUP2 MSTORE PUSH1 0x20 ADD SWAP1 DUP2 MSTORE PUSH1 0x20 ADD PUSH1 0x0 KECCAK256 DUP2 SWAP1 DUP1 PUSH1 0x1 DUP2 SLOAD ADD DUP1 DUP3 SSTORE DUP1 SWAP2 POP POP PUSH1 0x1 SWAP1 SUB SWAP1 PUSH1 0x0 MSTORE PUSH1 0x20 PUSH1 0x0 KECCAK256 ADD PUSH1 0x0 SWAP1 SWAP2 SWAP1 SWAP2 SWAP1 SWAP2 POP SSTORE POP POP POP POP POP JUMP JUMPDEST PUSH1 0x3 PUSH1 0x0 CALLER PUSH20 0xFFFFFFFFFFFFFFFFFFFFFFFFFFFFFFFFFFFFFFFF AND PUSH20 0xFFFFFFFFFFFFFFFFFFFFFFFFFFFFFFFFFFFFFFFF AND DUP2 MSTORE PUSH1 0x20 ADD SWAP1 DUP2 MSTORE PUSH1 0x20 ADD PUSH1 0x0 KECCAK256 PUSH1 0x1 ADD PUSH1 0x0 SWAP1 SLOAD SWAP1 PUSH2 0x100 EXP SWAP1 DIV PUSH1 0xFF AND ISZERO PUSH2 0x15C6 JUMPI PUSH1 0x40 MLOAD PUSH32 0x8C379A000000000000000000000000000000000000000000000000000000000 DUP2 MSTORE PUSH1 0x4 ADD PUSH2 0x15BD SWAP1 PUSH2 0x23B8 JUMP JUMPDEST PUSH1 0x40 MLOAD DUP1 SWAP2 SUB SWAP1 REVERT JUMPDEST PUSH1 0x0 PUSH20 0xFFFFFFFFFFFFFFFFFFFFFFFFFFFFFFFFFFFFFFFF AND PUSH1 0x4 DUP3 PUSH1 0x40 MLOAD PUSH2 0x15EE SWAP2 SWAP1 PUSH2 0x2190 JUMP JUMPDEST SWAP1 DUP2 MSTORE PUSH1 0x20 ADD PUSH1 0x40 MLOAD DUP1 SWAP2 SUB SWAP1 KECCAK256 PUSH1 0x0 SWAP1 SLOAD SWAP1 PUSH2 0x100 EXP SWAP1 DIV PUSH20 0xFFFFFFFFFFFFFFFFFFFFFFFFFFFFFFFFFFFFFFFF AND PUSH20 0xFFFFFFFFFFFFFFFFFFFFFFFFFFFFFFFFFFFFFFFF AND EQ PUSH2 0x1673 JUMPI PUSH1 0x40 MLOAD PUSH32 0x8C379A000000000000000000000000000000000000000000000000000000000 DUP2 MSTORE PUSH1 0x4 ADD PUSH2 0x166A SWAP1 PUSH2 0x2398 JUMP JUMPDEST PUSH1 0x40 MLOAD DUP1 SWAP2 SUB SWAP1 REVERT JUMPDEST DUP1 PUSH1 0x3 PUSH1 0x0 CALLER PUSH20 0xFFFFFFFFFFFFFFFFFFFFFFFFFFFFFFFFFFFFFFFF AND PUSH20 0xFFFFFFFFFFFFFFFFFFFFFFFFFFFFFFFFFFFFFFFF AND DUP2 MSTORE PUSH1 0x20 ADD SWAP1 DUP2 MSTORE PUSH1 0x20 ADD PUSH1 0x0 KECCAK256 PUSH1 0x0 ADD SWAP1 DUP1 MLOAD SWAP1 PUSH1 0x20 ADD SWAP1 PUSH2 0x16C9 SWAP3 SWAP2 SWAP1 PUSH2 0x1B36 JUMP JUMPDEST POP PUSH1 0x1 PUSH1 0x3 PUSH1 0x0 CALLER PUSH20 0xFFFFFFFFFFFFFFFFFFFFFFFFFFFFFFFFFFFFFFFF AND PUSH20 0xFFFFFFFFFFFFFFFFFFFFFFFFFFFFFFFFFFFFFFFF AND DUP2 MSTORE PUSH1 0x20 ADD SWAP1 DUP2 MSTORE PUSH1 0x20 ADD PUSH1 0x0 KECCAK256 PUSH1 0x1 ADD PUSH1 0x0 PUSH2 0x100 EXP DUP2 SLOAD DUP2 PUSH1 0xFF MUL NOT AND SWAP1 DUP4 ISZERO ISZERO MUL OR SWAP1 SSTORE POP TIMESTAMP PUSH1 0x3 PUSH1 0x0 CALLER PUSH20 0xFFFFFFFFFFFFFFFFFFFFFFFFFFFFFFFFFFFFFFFF AND PUSH20 0xFFFFFFFFFFFFFFFFFFFFFFFFFFFFFFFFFFFFFFFF AND DUP2 MSTORE PUSH1 0x20 ADD SWAP1 DUP2 MSTORE PUSH1 0x20 ADD PUSH1 0x0 KECCAK256 PUSH1 0x2 ADD DUP2 SWAP1 SSTORE POP PUSH1 0x1 PUSH1 0x3 PUSH1 0x0 CALLER PUSH20 0xFFFFFFFFFFFFFFFFFFFFFFFFFFFFFFFFFFFFFFFF AND PUSH20 0xFFFFFFFFFFFFFFFFFFFFFFFFFFFFFFFFFFFFFFFF AND DUP2 MSTORE PUSH1 0x20 ADD SWAP1 DUP2 MSTORE PUSH1 0x20 ADD PUSH1 0x0 KECCAK256 PUSH1 0x3 ADD PUSH1 0x0 PUSH2 0x100 EXP DUP2 SLOAD DUP2 PUSH1 0xFF MUL NOT AND SWAP1 DUP4 ISZERO ISZERO MUL OR SWAP1 SSTORE POP CALLER PUSH1 0x4 DUP3 PUSH1 0x40 MLOAD PUSH2 0x17D8 SWAP2 SWAP1 PUSH2 0x2190 JUMP JUMPDEST SWAP1 DUP2 MSTORE PUSH1 0x20 ADD PUSH1 0x40 MLOAD DUP1 SWAP2 SUB SWAP1 KECCAK256 PUSH1 0x0 PUSH2 0x100 EXP DUP2 SLOAD DUP2 PUSH20 0xFFFFFFFFFFFFFFFFFFFFFFFFFFFFFFFFFFFFFFFF MUL NOT AND SWAP1 DUP4 PUSH20 0xFFFFFFFFFFFFFFFFFFFFFFFFFFFFFFFFFFFFFFFF AND MUL OR SWAP1 SSTORE POP CALLER PUSH20 0xFFFFFFFFFFFFFFFFFFFFFFFFFFFFFFFFFFFFFFFF AND PUSH32 0xEE20C2C019DCBCA8D08FF74C4CE6F465E02D3611905C9ACEEB76A0C8E429AF2F DUP3 TIMESTAMP PUSH1 0x40 MLOAD PUSH2 0x186C SWAP3 SWAP2 SWAP1 PUSH2 0x2288 JUMP JUMPDEST PUSH1 0x40 MLOAD DUP1 SWAP2 SUB SWAP1 LOG2 POP JUMP JUMPDEST PUSH1 0x60 PUSH1 0x3 PUSH1 0x0 CALLER PUSH20 0xFFFFFFFFFFFFFFFFFFFFFFFFFFFFFFFFFFFFFFFF AND PUSH20 0xFFFFFFFFFFFFFFFFFFFFFFFFFFFFFFFFFFFFFFFF AND DUP2 MSTORE PUSH1 0x20 ADD SWAP1 DUP2 MSTORE PUSH1 0x20 ADD PUSH1 0x0 KECCAK256 PUSH1 0x3 ADD PUSH1 0x0 SWAP1 SLOAD SWAP1 PUSH2 0x100 EXP SWAP1 DIV PUSH1 0xFF AND PUSH2 0x1908 JUMPI PUSH1 0x40 MLOAD PUSH32 0x8C379A000000000000000000000000000000000000000000000000000000000 DUP2 MSTORE PUSH1 0x4 ADD PUSH2 0x18FF SWAP1 PUSH2 0x22D8 JUMP JUMPDEST PUSH1 0x40 MLOAD DUP1 SWAP2 SUB SWAP1 REVERT JUMPDEST PUSH1 0x3 PUSH1 0x0 CALLER PUSH20 0xFFFFFFFFFFFFFFFFFFFFFFFFFFFFFFFFFFFFFFFF AND PUSH20 0xFFFFFFFFFFFFFFFFFFFFFFFFFFFFFFFFFFFFFFFF AND DUP2 MSTORE PUSH1 0x20 ADD SWAP1 DUP2 MSTORE PUSH1 0x20 ADD PUSH1 0x0 KECCAK256 PUSH1 0x0 ADD DUP1 SLOAD PUSH2 0x1955 SWAP1 PUSH2 0x25D8 JUMP JUMPDEST DUP1 PUSH1 0x1F ADD PUSH1 0x20 DUP1 SWAP2 DIV MUL PUSH1 0x20 ADD PUSH1 0x40 MLOAD SWAP1 DUP2 ADD PUSH1 0x40 MSTORE DUP1 SWAP3 SWAP2 SWAP1 DUP2 DUP2 MSTORE PUSH1 0x20 ADD DUP3 DUP1 SLOAD PUSH2 0x1981 SWAP1 PUSH2 0x25D8 JUMP JUMPDEST DUP1 ISZERO PUSH2 0x19CE JUMPI DUP1 PUSH1 0x1F LT PUSH2 0x19A3 JUMPI PUSH2 0x100 DUP1 DUP4 SLOAD DIV MUL DUP4 MSTORE SWAP2 PUSH1 0x20 ADD SWAP2 PUSH2 0x19CE JUMP JUMPDEST DUP3 ADD SWAP2 SWAP1 PUSH1 0x0 MSTORE PUSH1 0x20 PUSH1 0x0 KECCAK256 SWAP1 JUMPDEST DUP2 SLOAD DUP2 MSTORE SWAP1 PUSH1 0x1 ADD SWAP1 PUSH1 0x20 ADD DUP1 DUP4 GT PUSH2 0x19B1 JUMPI DUP3 SWAP1 SUB PUSH1 0x1F AND DUP3 ADD SWAP2 JUMPDEST POP POP POP POP POP SWAP1 POP SWAP1 JUMP JUMPDEST PUSH1 0x60 PUSH1 0x3 PUSH1 0x0 CALLER PUSH20 0xFFFFFFFFFFFFFFFFFFFFFFFFFFFFFFFFFFFFFFFF AND PUSH20 0xFFFFFFFFFFFFFFFFFFFFFFFFFFFFFFFFFFFFFFFF AND DUP2 MSTORE PUSH1 0x20 ADD SWAP1 DUP2 MSTORE PUSH1 0x20 ADD PUSH1 0x0 KECCAK256 PUSH1 0x4 ADD DUP1 SLOAD PUSH2 0x1A27 SWAP1 PUSH2 0x25D8 JUMP JUMPDEST DUP1 PUSH1 0x1F ADD PUSH1 0x20 DUP1 SWAP2 DIV MUL PUSH1 0x20 ADD PUSH1 0x40 MLOAD SWAP1 DUP2 ADD PUSH1 0x40 MSTORE DUP1 SWAP3 SWAP2 SWAP1 DUP2 DUP2 MSTORE PUSH1 0x20 ADD DUP3 DUP1 SLOAD PUSH2 0x1A53 SWAP1 PUSH2 0x25D8 JUMP JUMPDEST DUP1 ISZERO PUSH2 0x1AA0 JUMPI DUP1 PUSH1 0x1F LT PUSH2 0x1A75 JUMPI PUSH2 0x100 DUP1 DUP4 SLOAD DIV MUL DUP4 MSTORE SWAP2 PUSH1 0x20 ADD SWAP2 PUSH2 0x1AA0 JUMP JUMPDEST DUP3 ADD SWAP2 SWAP1 PUSH1 0x0 MSTORE PUSH1 0x20 PUSH1 0x0 KECCAK256 SWAP1 JUMPDEST DUP2 SLOAD DUP2 MSTORE SWAP1 PUSH1 0x1 ADD SWAP1 PUSH1 0x20 ADD DUP1 DUP4 GT PUSH2 0x1A83 JUMPI DUP3 SWAP1 SUB PUSH1 0x1F AND DUP3 ADD SWAP2 JUMPDEST POP POP POP POP POP SWAP1 POP SWAP1 JUMP JUMPDEST PUSH1 0x0 PUSH1 0x3 PUSH1 0x0 DUP4 PUSH20 0xFFFFFFFFFFFFFFFFFFFFFFFFFFFFFFFFFFFFFFFF AND PUSH20 0xFFFFFFFFFFFFFFFFFFFFFFFFFFFFFFFFFFFFFFFF AND DUP2 MSTORE PUSH1 0x20 ADD SWAP1 DUP2 MSTORE PUSH1 0x20 ADD PUSH1 0x0 KECCAK256 PUSH1 0x3 ADD PUSH1 0x0 SWAP1 SLOAD SWAP1 PUSH2 0x100 EXP SWAP1 DIV PUSH1 0xFF AND SWAP1 POP SWAP2 SWAP1 POP JUMP JUMPDEST PUSH1 0x0 DUP3 DUP3 PUSH1 0x40 MLOAD PUSH1 0x20 ADD PUSH2 0x1B18 SWAP3 SWAP2 SWAP1 PUSH2 0x2164 JUMP JUMPDEST PUSH1 0x40 MLOAD PUSH1 0x20 DUP2 DUP4 SUB SUB DUP2 MSTORE SWAP1 PUSH1 0x40 MSTORE DUP1 MLOAD SWAP1 PUSH1 0x20 ADD KECCAK256 SWAP1 POP SWAP3 SWAP2 POP POP JUMP JUMPDEST DUP3 DUP1 SLOAD PUSH2 0x1B42 SWAP1 PUSH2 0x25D8 JUMP JUMPDEST SWAP1 PUSH1 0x0 MSTORE PUSH1 0x20 PUSH1 0x0 KECCAK256 SWAP1 PUSH1 0x1F ADD PUSH1 0x20 SWAP1 DIV DUP2 ADD SWAP3 DUP3 PUSH2 0x1B64 JUMPI PUSH1 0x0 DUP6 SSTORE PUSH2 0x1BAB JUMP JUMPDEST DUP3 PUSH1 0x1F LT PUSH2 0x1B7D JUMPI DUP1 MLOAD PUSH1 0xFF NOT AND DUP4 DUP1 ADD OR DUP6 SSTORE PUSH2 0x1BAB JUMP JUMPDEST DUP3 DUP1 ADD PUSH1 0x1 ADD DUP6 SSTORE DUP3 ISZERO PUSH2 0x1BAB JUMPI SWAP2 DUP3 ADD JUMPDEST DUP3 DUP2 GT ISZERO PUSH2 0x1BAA JUMPI DUP3 MLOAD DUP3 SSTORE SWAP2 PUSH1 0x20 ADD SWAP2 SWAP1 PUSH1 0x1 ADD SWAP1 PUSH2 0x1B8F JUMP JUMPDEST JUMPDEST POP SWAP1 POP PUSH2 0x1BB8 SWAP2 SWAP1 PUSH2 0x1BFC JUMP JUMPDEST POP SWAP1 JUMP JUMPDEST POP DUP1 SLOAD PUSH2 0x1BC8 SWAP1 PUSH2 0x25D8 JUMP JUMPDEST PUSH1 0x0 DUP3 SSTORE DUP1 PUSH1 0x1F LT PUSH2 0x1BDA JUMPI POP PUSH2 0x1BF9 JUMP JUMPDEST PUSH1 0x1F ADD PUSH1 0x20 SWAP1 DIV SWAP1 PUSH1 0x0 MSTORE PUSH1 0x20 PUSH1 0x0 KECCAK256 SWAP1 DUP2 ADD SWAP1 PUSH2 0x1BF8 SWAP2 SWAP1 PUSH2 0x1BFC JUMP JUMPDEST JUMPDEST POP JUMP JUMPDEST JUMPDEST DUP1 DUP3 GT ISZERO PUSH2 0x1C15 JUMPI PUSH1 0x0 DUP2 PUSH1 0x0 SWAP1 SSTORE POP PUSH1 0x1 ADD PUSH2 0x1BFD JUMP JUMPDEST POP SWAP1 JUMP JUMPDEST PUSH1 0x0 PUSH2 0x1C2C PUSH2 0x1C27 DUP5 PUSH2 0x245D JUMP JUMPDEST PUSH2 0x2438 JUMP JUMPDEST SWAP1 POP DUP3 DUP2 MSTORE PUSH1 0x20 DUP2 ADD DUP5 DUP5 DUP5 ADD GT ISZERO PUSH2 0x1C44 JUMPI PUSH1 0x0 DUP1 REVERT JUMPDEST PUSH2 0x1C4F DUP5 DUP3 DUP6 PUSH2 0x2596 JUMP JUMPDEST POP SWAP4 SWAP3 POP POP POP JUMP JUMPDEST PUSH1 0x0 DUP2 CALLDATALOAD SWAP1 POP PUSH2 0x1C66 DUP2 PUSH2 0x28F7 JUMP JUMPDEST SWAP3 SWAP2 POP POP JUMP JUMPDEST PUSH1 0x0 DUP2 CALLDATALOAD SWAP1 POP PUSH2 0x1C7B DUP2 PUSH2 0x290E JUMP JUMPDEST SWAP3 SWAP2 POP POP JUMP JUMPDEST PUSH1 0x0 DUP3 PUSH1 0x1F DUP4 ADD SLT PUSH2 0x1C92 JUMPI PUSH1 0x0 DUP1 REVERT JUMPDEST DUP2 CALLDATALOAD PUSH2 0x1CA2 DUP5 DUP3 PUSH1 0x20 DUP7 ADD PUSH2 0x1C19 JUMP JUMPDEST SWAP2 POP POP SWAP3 SWAP2 POP POP JUMP JUMPDEST PUSH1 0x0 DUP2 CALLDATALOAD SWAP1 POP PUSH2 0x1CBA DUP2 PUSH2 0x2925 JUMP JUMPDEST SWAP3 SWAP2 POP POP JUMP JUMPDEST PUSH1 0x0 PUSH1 0x20 DUP3 DUP5 SUB SLT ISZERO PUSH2 0x1CD2 JUMPI PUSH1 0x0 DUP1 REVERT JUMPDEST PUSH1 0x0 PUSH2 0x1CE0 DUP5 DUP3 DUP6 ADD PUSH2 0x1C57 JUMP JUMPDEST SWAP2 POP POP SWAP3 SWAP2 POP POP JUMP JUMPDEST PUSH1 0x0 DUP1 PUSH1 0x0 PUSH1 0x60 DUP5 DUP7 SUB SLT ISZERO PUSH2 0x1CFE JUMPI PUSH1 0x0 DUP1 REVERT JUMPDEST PUSH1 0x0 PUSH2 0x1D0C DUP7 DUP3 DUP8 ADD PUSH2 0x1C57 JUMP JUMPDEST SWAP4 POP POP PUSH1 0x20 PUSH2 0x1D1D DUP7 DUP3 DUP8 ADD PUSH2 0x1C57 JUMP JUMPDEST SWAP3 POP POP PUSH1 0x40 PUSH2 0x1D2E DUP7 DUP3 DUP8 ADD PUSH2 0x1CAB JUMP JUMPDEST SWAP2 POP POP SWAP3 POP SWAP3 POP SWAP3 JUMP JUMPDEST PUSH1 0x0 DUP1 PUSH1 0x0 DUP1 PUSH1 0x80 DUP6 DUP8 SUB SLT ISZERO PUSH2 0x1D4E JUMPI PUSH1 0x0 DUP1 REVERT JUMPDEST PUSH1 0x0 PUSH2 0x1D5C DUP8 DUP3 DUP9 ADD PUSH2 0x1C57 JUMP JUMPDEST SWAP5 POP POP PUSH1 0x20 PUSH2 0x1D6D DUP8 DUP3 DUP9 ADD PUSH2 0x1C57 JUMP JUMPDEST SWAP4 POP POP PUSH1 0x40 PUSH2 0x1D7E DUP8 DUP3 DUP9 ADD PUSH2 0x1CAB JUMP JUMPDEST SWAP3 POP POP PUSH1 0x60 DUP6 ADD CALLDATALOAD PUSH8 0xFFFFFFFFFFFFFFFF DUP2 GT ISZERO PUSH2 0x1D9B JUMPI PUSH1 0x0 DUP1 REVERT JUMPDEST PUSH2 0x1DA7 DUP8 DUP3 DUP9 ADD PUSH2 0x1C81 JUMP JUMPDEST SWAP2 POP POP SWAP3 SWAP6 SWAP2 SWAP5 POP SWAP3 POP JUMP JUMPDEST PUSH1 0x0 DUP1 PUSH1 0x40 DUP4 DUP6 SUB SLT ISZERO PUSH2 0x1DC6 JUMPI PUSH1 0x0 DUP1 REVERT JUMPDEST PUSH1 0x0 PUSH2 0x1DD4 DUP6 DUP3 DUP7 ADD PUSH2 0x1C57 JUMP JUMPDEST SWAP3 POP POP PUSH1 0x20 PUSH2 0x1DE5 DUP6 DUP3 DUP7 ADD PUSH2 0x1CAB JUMP JUMPDEST SWAP2 POP POP SWAP3 POP SWAP3 SWAP1 POP JUMP JUMPDEST PUSH1 0x0 DUP1 PUSH1 0x0 DUP1 PUSH1 0x0 PUSH1 0xA0 DUP7 DUP9 SUB SLT ISZERO PUSH2 0x1E07 JUMPI PUSH1 0x0 DUP1 REVERT JUMPDEST PUSH1 0x0 PUSH2 0x1E15 DUP9 DUP3 DUP10 ADD PUSH2 0x1C57 JUMP JUMPDEST SWAP6 POP POP PUSH1 0x20 PUSH2 0x1E26 DUP9 DUP3 DUP10 ADD PUSH2 0x1CAB JUMP JUMPDEST SWAP5 POP POP PUSH1 0x40 PUSH2 0x1E37 DUP9 DUP3 DUP10 ADD PUSH2 0x1CAB JUMP JUMPDEST SWAP4 POP POP PUSH1 0x60 PUSH2 0x1E48 DUP9 DUP3 DUP10 ADD PUSH2 0x1CAB JUMP JUMPDEST SWAP3 POP POP PUSH1 0x80 PUSH2 0x1E59 DUP9 DUP3 DUP10 ADD PUSH2 0x1CAB JUMP JUMPDEST SWAP2 POP POP SWAP3 SWAP6 POP SWAP3 SWAP6 SWAP1 SWAP4 POP JUMP JUMPDEST PUSH1 0x0 PUSH1 0x20 DUP3 DUP5 SUB SLT ISZERO PUSH2 0x1E78 JUMPI PUSH1 0x0 DUP1 REVERT JUMPDEST PUSH1 0x0 PUSH2 0x1E86 DUP5 DUP3 DUP6 ADD PUSH2 0x1C6C JUMP JUMPDEST SWAP2 POP POP SWAP3 SWAP2 POP POP JUMP JUMPDEST PUSH1 0x0 PUSH1 0x20 DUP3 DUP5 SUB SLT ISZERO PUSH2 0x1EA1 JUMPI PUSH1 0x0 DUP1 REVERT JUMPDEST PUSH1 0x0 DUP3 ADD CALLDATALOAD PUSH8 0xFFFFFFFFFFFFFFFF DUP2 GT ISZERO PUSH2 0x1EBB JUMPI PUSH1 0x0 DUP1 REVERT JUMPDEST PUSH2 0x1EC7 DUP5 DUP3 DUP6 ADD PUSH2 0x1C81 JUMP JUMPDEST SWAP2 POP POP SWAP3 SWAP2 POP POP JUMP JUMPDEST PUSH1 0x0 PUSH2 0x1EDC DUP4 DUP4 PUSH2 0x1F7B JUMP JUMPDEST PUSH1 0x20 DUP4 ADD SWAP1 POP SWAP3 SWAP2 POP POP JUMP JUMPDEST PUSH2 0x1EF1 DUP2 PUSH2 0x2544 JUMP JUMPDEST DUP3 MSTORE POP POP JUMP JUMPDEST PUSH2 0x1F08 PUSH2 0x1F03 DUP3 PUSH2 0x2544 JUMP JUMPDEST PUSH2 0x263B JUMP JUMPDEST DUP3 MSTORE POP POP JUMP JUMPDEST PUSH1 0x0 PUSH2 0x1F19 DUP3 PUSH2 0x249E JUMP JUMPDEST PUSH2 0x1F23 DUP2 DUP6 PUSH2 0x24C1 JUMP JUMPDEST SWAP4 POP PUSH2 0x1F2E DUP4 PUSH2 0x248E JUMP JUMPDEST DUP1 PUSH1 0x0 JUMPDEST DUP4 DUP2 LT ISZERO PUSH2 0x1F5F JUMPI DUP2 MLOAD PUSH2 0x1F46 DUP9 DUP3 PUSH2 0x1ED0 JUMP JUMPDEST SWAP8 POP PUSH2 0x1F51 DUP4 PUSH2 0x24B4 JUMP JUMPDEST SWAP3 POP POP PUSH1 0x1 DUP2 ADD SWAP1 POP PUSH2 0x1F32 JUMP JUMPDEST POP DUP6 SWAP4 POP POP POP POP SWAP3 SWAP2 POP POP JUMP JUMPDEST PUSH2 0x1F75 DUP2 PUSH2 0x2556 JUMP JUMPDEST DUP3 MSTORE POP POP JUMP JUMPDEST PUSH2 0x1F84 DUP2 PUSH2 0x2562 JUMP JUMPDEST DUP3 MSTORE POP POP JUMP JUMPDEST PUSH2 0x1F93 DUP2 PUSH2 0x2562 JUMP JUMPDEST DUP3 MSTORE POP POP JUMP JUMPDEST PUSH1 0x0 PUSH2 0x1FA4 DUP3 PUSH2 0x24A9 JUMP JUMPDEST PUSH2 0x1FAE DUP2 DUP6 PUSH2 0x24D2 JUMP JUMPDEST SWAP4 POP PUSH2 0x1FBE DUP2 DUP6 PUSH1 0x20 DUP7 ADD PUSH2 0x25A5 JUMP JUMPDEST PUSH2 0x1FC7 DUP2 PUSH2 0x26F6 JUMP JUMPDEST DUP5 ADD SWAP2 POP POP SWAP3 SWAP2 POP POP JUMP JUMPDEST PUSH1 0x0 PUSH2 0x1FDD DUP3 PUSH2 0x24A9 JUMP JUMPDEST PUSH2 0x1FE7 DUP2 DUP6 PUSH2 0x24E3 JUMP JUMPDEST SWAP4 POP PUSH2 0x1FF7 DUP2 DUP6 PUSH1 0x20 DUP7 ADD PUSH2 0x25A5 JUMP JUMPDEST DUP1 DUP5 ADD SWAP2 POP POP SWAP3 SWAP2 POP POP JUMP JUMPDEST PUSH1 0x0 PUSH2 0x2010 PUSH1 0x18 DUP4 PUSH2 0x24D2 JUMP JUMPDEST SWAP2 POP PUSH2 0x201B DUP3 PUSH2 0x2714 JUMP JUMPDEST PUSH1 0x20 DUP3 ADD SWAP1 POP SWAP2 SWAP1 POP JUMP JUMPDEST PUSH1 0x0 PUSH2 0x2033 PUSH1 0x2E DUP4 PUSH2 0x24D2 JUMP JUMPDEST SWAP2 POP PUSH2 0x203E DUP3 PUSH2 0x273D JUMP JUMPDEST PUSH1 0x40 DUP3 ADD SWAP1 POP SWAP2 SWAP1 POP JUMP JUMPDEST PUSH1 0x0 PUSH2 0x2056 PUSH1 0x17 DUP4 PUSH2 0x24D2 JUMP JUMPDEST SWAP2 POP PUSH2 0x2061 DUP3 PUSH2 0x278C JUMP JUMPDEST PUSH1 0x20 DUP3 ADD SWAP1 POP SWAP2 SWAP1 POP JUMP JUMPDEST PUSH1 0x0 PUSH2 0x2079 PUSH1 0x27 DUP4 PUSH2 0x24D2 JUMP JUMPDEST SWAP2 POP PUSH2 0x2084 DUP3 PUSH2 0x27B5 JUMP JUMPDEST PUSH1 0x40 DUP3 ADD SWAP1 POP SWAP2 SWAP1 POP JUMP JUMPDEST PUSH1 0x0 PUSH2 0x209C PUSH1 0x11 DUP4 PUSH2 0x24D2 JUMP JUMPDEST SWAP2 POP PUSH2 0x20A7 DUP3 PUSH2 0x2804 JUMP JUMPDEST PUSH1 0x20 DUP3 ADD SWAP1 POP SWAP2 SWAP1 POP JUMP JUMPDEST PUSH1 0x0 PUSH2 0x20BF PUSH1 0x14 DUP4 PUSH2 0x24D2 JUMP JUMPDEST SWAP2 POP PUSH2 0x20CA DUP3 PUSH2 0x282D JUMP JUMPDEST PUSH1 0x20 DUP3 ADD SWAP1 POP SWAP2 SWAP1 POP JUMP JUMPDEST PUSH1 0x0 PUSH2 0x20E2 PUSH1 0x2A DUP4 PUSH2 0x24D2 JUMP JUMPDEST SWAP2 POP PUSH2 0x20ED DUP3 PUSH2 0x2856 JUMP JUMPDEST PUSH1 0x40 DUP3 ADD SWAP1 POP SWAP2 SWAP1 POP JUMP JUMPDEST PUSH1 0x0 PUSH2 0x2105 PUSH1 0x12 DUP4 PUSH2 0x24D2 JUMP JUMPDEST SWAP2 POP PUSH2 0x2110 DUP3 PUSH2 0x28A5 JUMP JUMPDEST PUSH1 0x20 DUP3 ADD SWAP1 POP SWAP2 SWAP1 POP JUMP JUMPDEST PUSH1 0x0 PUSH2 0x2128 PUSH1 0xD DUP4 PUSH2 0x24D2 JUMP JUMPDEST SWAP2 POP PUSH2 0x2133 DUP3 PUSH2 0x28CE JUMP JUMPDEST PUSH1 0x20 DUP3 ADD SWAP1 POP SWAP2 SWAP1 POP JUMP JUMPDEST PUSH2 0x2147 DUP2 PUSH2 0x258C JUMP JUMPDEST DUP3 MSTORE POP POP JUMP JUMPDEST PUSH2 0x215E PUSH2 0x2159 DUP3 PUSH2 0x258C JUMP JUMPDEST PUSH2 0x265F JUMP JUMPDEST DUP3 MSTORE POP POP JUMP JUMPDEST PUSH1 0x0 PUSH2 0x2170 DUP3 DUP6 PUSH2 0x1EF7 JUMP JUMPDEST PUSH1 0x14 DUP3 ADD SWAP2 POP PUSH2 0x2180 DUP3 DUP5 PUSH2 0x214D JUMP JUMPDEST PUSH1 0x20 DUP3 ADD SWAP2 POP DUP2 SWAP1 POP SWAP4 SWAP3 POP POP POP JUMP JUMPDEST PUSH1 0x0 PUSH2 0x219C DUP3 DUP5 PUSH2 0x1FD2 JUMP JUMPDEST SWAP2 POP DUP2 SWAP1 POP SWAP3 SWAP2 POP POP JUMP JUMPDEST PUSH1 0x0 PUSH1 0x20 DUP3 ADD SWAP1 POP PUSH2 0x21BC PUSH1 0x0 DUP4 ADD DUP5 PUSH2 0x1EE8 JUMP JUMPDEST SWAP3 SWAP2 POP POP JUMP JUMPDEST PUSH1 0x0 PUSH1 0x80 DUP3 ADD SWAP1 POP PUSH2 0x21D7 PUSH1 0x0 DUP4 ADD DUP8 PUSH2 0x1EE8 JUMP JUMPDEST PUSH2 0x21E4 PUSH1 0x20 DUP4 ADD DUP7 PUSH2 0x213E JUMP JUMPDEST PUSH2 0x21F1 PUSH1 0x40 DUP4 ADD DUP6 PUSH2 0x1EE8 JUMP JUMPDEST DUP2 DUP2 SUB PUSH1 0x60 DUP4 ADD MSTORE PUSH2 0x2203 DUP2 DUP5 PUSH2 0x1F99 JUMP JUMPDEST SWAP1 POP SWAP6 SWAP5 POP POP POP POP POP JUMP JUMPDEST PUSH1 0x0 PUSH1 0x20 DUP3 ADD SWAP1 POP DUP2 DUP2 SUB PUSH1 0x0 DUP4 ADD MSTORE PUSH2 0x2228 DUP2 DUP5 PUSH2 0x1F0E JUMP JUMPDEST SWAP1 POP SWAP3 SWAP2 POP POP JUMP JUMPDEST PUSH1 0x0 PUSH1 0x20 DUP3 ADD SWAP1 POP PUSH2 0x2245 PUSH1 0x0 DUP4 ADD DUP5 PUSH2 0x1F6C JUMP JUMPDEST SWAP3 SWAP2 POP POP JUMP JUMPDEST PUSH1 0x0 PUSH1 0x20 DUP3 ADD SWAP1 POP PUSH2 0x2260 PUSH1 0x0 DUP4 ADD DUP5 PUSH2 0x1F8A JUMP JUMPDEST SWAP3 SWAP2 POP POP JUMP JUMPDEST PUSH1 0x0 PUSH1 0x20 DUP3 ADD SWAP1 POP DUP2 DUP2 SUB PUSH1 0x0 DUP4 ADD MSTORE PUSH2 0x2280 DUP2 DUP5 PUSH2 0x1F99 JUMP JUMPDEST SWAP1 POP SWAP3 SWAP2 POP POP JUMP JUMPDEST PUSH1 0x0 PUSH1 0x40 DUP3 ADD SWAP1 POP DUP2 DUP2 SUB PUSH1 0x0 DUP4 ADD MSTORE PUSH2 0x22A2 DUP2 DUP6 PUSH2 0x1F99 JUMP JUMPDEST SWAP1 POP PUSH2 0x22B1 PUSH1 0x20 DUP4 ADD DUP5 PUSH2 0x213E JUMP JUMPDEST SWAP4 SWAP3 POP POP POP JUMP JUMPDEST PUSH1 0x0 PUSH1 0x20 DUP3 ADD SWAP1 POP DUP2 DUP2 SUB PUSH1 0x0 DUP4 ADD MSTORE PUSH2 0x22D1 DUP2 PUSH2 0x2003 JUMP JUMPDEST SWAP1 POP SWAP2 SWAP1 POP JUMP JUMPDEST PUSH1 0x0 PUSH1 0x20 DUP3 ADD SWAP1 POP DUP2 DUP2 SUB PUSH1 0x0 DUP4 ADD MSTORE PUSH2 0x22F1 DUP2 PUSH2 0x2026 JUMP JUMPDEST SWAP1 POP SWAP2 SWAP1 POP JUMP JUMPDEST PUSH1 0x0 PUSH1 0x20 DUP3 ADD SWAP1 POP DUP2 DUP2 SUB PUSH1 0x0 DUP4 ADD MSTORE PUSH2 0x2311 DUP2 PUSH2 0x2049 JUMP JUMPDEST SWAP1 POP SWAP2 SWAP1 POP JUMP JUMPDEST PUSH1 0x0 PUSH1 0x20 DUP3 ADD SWAP1 POP DUP2 DUP2 SUB PUSH1 0x0 DUP4 ADD MSTORE PUSH2 0x2331 DUP2 PUSH2 0x206C JUMP JUMPDEST SWAP1 POP SWAP2 SWAP1 POP JUMP JUMPDEST PUSH1 0x0 PUSH1 0x20 DUP3 ADD SWAP1 POP DUP2 DUP2 SUB PUSH1 0x0 DUP4 ADD MSTORE PUSH2 0x2351 DUP2 PUSH2 0x208F JUMP JUMPDEST SWAP1 POP SWAP2 SWAP1 POP JUMP JUMPDEST PUSH1 0x0 PUSH1 0x20 DUP3 ADD SWAP1 POP DUP2 DUP2 SUB PUSH1 0x0 DUP4 ADD MSTORE PUSH2 0x2371 DUP2 PUSH2 0x20B2 JUMP JUMPDEST SWAP1 POP SWAP2 SWAP1 POP JUMP JUMPDEST PUSH1 0x0 PUSH1 0x20 DUP3 ADD SWAP1 POP DUP2 DUP2 SUB PUSH1 0x0 DUP4 ADD MSTORE PUSH2 0x2391 DUP2 PUSH2 0x20D5 JUMP JUMPDEST SWAP1 POP SWAP2 SWAP1 POP JUMP JUMPDEST PUSH1 0x0 PUSH1 0x20 DUP3 ADD SWAP1 POP DUP2 DUP2 SUB PUSH1 0x0 DUP4 ADD MSTORE PUSH2 0x23B1 DUP2 PUSH2 0x20F8 JUMP JUMPDEST SWAP1 POP SWAP2 SWAP1 POP JUMP JUMPDEST PUSH1 0x0 PUSH1 0x20 DUP3 ADD SWAP1 POP DUP2 DUP2 SUB PUSH1 0x0 DUP4 ADD MSTORE PUSH2 0x23D1 DUP2 PUSH2 0x211B JUMP JUMPDEST SWAP1 POP SWAP2 SWAP1 POP JUMP JUMPDEST PUSH1 0x0 PUSH1 0x20 DUP3 ADD SWAP1 POP PUSH2 0x23ED PUSH1 0x0 DUP4 ADD DUP5 PUSH2 0x213E JUMP JUMPDEST SWAP3 SWAP2 POP POP JUMP JUMPDEST PUSH1 0x0 PUSH1 0x80 DUP3 ADD SWAP1 POP PUSH2 0x2408 PUSH1 0x0 DUP4 ADD DUP8 PUSH2 0x213E JUMP JUMPDEST PUSH2 0x2415 PUSH1 0x20 DUP4 ADD DUP7 PUSH2 0x213E JUMP JUMPDEST PUSH2 0x2422 PUSH1 0x40 DUP4 ADD DUP6 PUSH2 0x213E JUMP JUMPDEST PUSH2 0x242F PUSH1 0x60 DUP4 ADD DUP5 PUSH2 0x213E JUMP JUMPDEST SWAP6 SWAP5 POP POP POP POP POP JUMP JUMPDEST PUSH1 0x0 PUSH2 0x2442 PUSH2 0x2453 JUMP JUMPDEST SWAP1 POP PUSH2 0x244E DUP3 DUP3 PUSH2 0x260A JUMP JUMPDEST SWAP2 SWAP1 POP JUMP JUMPDEST PUSH1 0x0 PUSH1 0x40 MLOAD SWAP1 POP SWAP1 JUMP JUMPDEST PUSH1 0x0 PUSH8 0xFFFFFFFFFFFFFFFF DUP3 GT ISZERO PUSH2 0x2478 JUMPI PUSH2 0x2477 PUSH2 0x26C7 JUMP JUMPDEST JUMPDEST PUSH2 0x2481 DUP3 PUSH2 0x26F6 JUMP JUMPDEST SWAP1 POP PUSH1 0x20 DUP2 ADD SWAP1 POP SWAP2 SWAP1 POP JUMP JUMPDEST PUSH1 0x0 DUP2 SWAP1 POP PUSH1 0x20 DUP3 ADD SWAP1 POP SWAP2 SWAP1 POP JUMP JUMPDEST PUSH1 0x0 DUP2 MLOAD SWAP1 POP SWAP2 SWAP1 POP JUMP JUMPDEST PUSH1 0x0 DUP2 MLOAD SWAP1 POP SWAP2 SWAP1 POP JUMP JUMPDEST PUSH1 0x0 PUSH1 0x20 DUP3 ADD SWAP1 POP SWAP2 SWAP1 POP JUMP JUMPDEST PUSH1 0x0 DUP3 DUP3 MSTORE PUSH1 0x20 DUP3 ADD SWAP1 POP SWAP3 SWAP2 POP POP JUMP JUMPDEST PUSH1 0x0 DUP3 DUP3 MSTORE PUSH1 0x20 DUP3 ADD SWAP1 POP SWAP3 SWAP2 POP POP JUMP JUMPDEST PUSH1 0x0 DUP2 SWAP1 POP SWAP3 SWAP2 POP POP JUMP JUMPDEST PUSH1 0x0 PUSH2 0x24F9 DUP3 PUSH2 0x258C JUMP JUMPDEST SWAP2 POP PUSH2 0x2504 DUP4 PUSH2 0x258C JUMP JUMPDEST SWAP3 POP DUP3 PUSH32 0xFFFFFFFFFFFFFFFFFFFFFFFFFFFFFFFFFFFFFFFFFFFFFFFFFFFFFFFFFFFFFFFF SUB DUP3 GT ISZERO PUSH2 0x2539 JUMPI PUSH2 0x2538 PUSH2 0x2669 JUMP JUMPDEST JUMPDEST DUP3 DUP3 ADD SWAP1 POP SWAP3 SWAP2 POP POP JUMP JUMPDEST PUSH1 0x0 PUSH2 0x254F DUP3 PUSH2 0x256C JUMP JUMPDEST SWAP1 POP SWAP2 SWAP1 POP JUMP JUMPDEST PUSH1 0x0 DUP2 ISZERO ISZERO SWAP1 POP SWAP2 SWAP1 POP JUMP JUMPDEST PUSH1 0x0 DUP2 SWAP1 POP SWAP2 SWAP1 POP JUMP JUMPDEST PUSH1 0x0 PUSH20 0xFFFFFFFFFFFFFFFFFFFFFFFFFFFFFFFFFFFFFFFF DUP3 AND SWAP1 POP SWAP2 SWAP1 POP JUMP JUMPDEST PUSH1 0x0 DUP2 SWAP1 POP SWAP2 SWAP1 POP JUMP JUMPDEST DUP3 DUP2 DUP4 CALLDATACOPY PUSH1 0x0 DUP4 DUP4 ADD MSTORE POP POP POP JUMP JUMPDEST PUSH1 0x0 JUMPDEST DUP4 DUP2 LT ISZERO PUSH2 0x25C3 JUMPI DUP1 DUP3 ADD MLOAD DUP2 DUP5 ADD MSTORE PUSH1 0x20 DUP2 ADD SWAP1 POP PUSH2 0x25A8 JUMP JUMPDEST DUP4 DUP2 GT ISZERO PUSH2 0x25D2 JUMPI PUSH1 0x0 DUP5 DUP5 ADD MSTORE JUMPDEST POP POP POP POP JUMP JUMPDEST PUSH1 0x0 PUSH1 0x2 DUP3 DIV SWAP1 POP PUSH1 0x1 DUP3 AND DUP1 PUSH2 0x25F0 JUMPI PUSH1 0x7F DUP3 AND SWAP2 POP JUMPDEST PUSH1 0x20 DUP3 LT DUP2 EQ ISZERO PUSH2 0x2604 JUMPI PUSH2 0x2603 PUSH2 0x2698 JUMP JUMPDEST JUMPDEST POP SWAP2 SWAP1 POP JUMP JUMPDEST PUSH2 0x2613 DUP3 PUSH2 0x26F6 JUMP JUMPDEST DUP2 ADD DUP2 DUP2 LT PUSH8 0xFFFFFFFFFFFFFFFF DUP3 GT OR ISZERO PUSH2 0x2632 JUMPI PUSH2 0x2631 PUSH2 0x26C7 JUMP JUMPDEST JUMPDEST DUP1 PUSH1 0x40 MSTORE POP POP POP JUMP JUMPDEST PUSH1 0x0 PUSH2 0x2646 DUP3 PUSH2 0x264D JUMP JUMPDEST SWAP1 POP SWAP2 SWAP1 POP JUMP JUMPDEST PUSH1 0x0 PUSH2 0x2658 DUP3 PUSH2 0x2707 JUMP JUMPDEST SWAP1 POP SWAP2 SWAP1 POP JUMP JUMPDEST PUSH1 0x0 DUP2 SWAP1 POP SWAP2 SWAP1 POP JUMP JUMPDEST PUSH32 0x4E487B7100000000000000000000000000000000000000000000000000000000 PUSH1 0x0 MSTORE PUSH1 0x11 PUSH1 0x4 MSTORE PUSH1 0x24 PUSH1 0x0 REVERT JUMPDEST PUSH32 0x4E487B7100000000000000000000000000000000000000000000000000000000 PUSH1 0x0 MSTORE PUSH1 0x22 PUSH1 0x4 MSTORE PUSH1 0x24 PUSH1 0x0 REVERT JUMPDEST PUSH32 0x4E487B7100000000000000000000000000000000000000000000000000000000 PUSH1 0x0 MSTORE PUSH1 0x41 PUSH1 0x4 MSTORE PUSH1 0x24 PUSH1 0x0 REVERT JUMPDEST PUSH1 0x0 PUSH1 0x1F NOT PUSH1 0x1F DUP4 ADD AND SWAP1 POP SWAP2 SWAP1 POP JUMP JUMPDEST PUSH1 0x0 DUP2 PUSH1 0x60 SHL SWAP1 POP SWAP2 SWAP1 POP JUMP JUMPDEST PUSH32 0x796F7527726520616C7265616479206C6F67676564496E2E0000000000000000 PUSH1 0x0 DUP3 ADD MSTORE POP JUMP JUMPDEST PUSH32 0x637265617465206163636F756E74206669727374206F72206C6F67496E20746F PUSH1 0x0 DUP3 ADD MSTORE PUSH32 0x20796F7572206163636F756E742E000000000000000000000000000000000000 PUSH1 0x20 DUP3 ADD MSTORE POP JUMP JUMPDEST PUSH32 0x4C6F6720696E20746F20796F7572206163636F756E742E000000000000000000 PUSH1 0x0 DUP3 ADD MSTORE POP JUMP JUMPDEST PUSH32 0x75736572206E6F7420657869737465642C20637265617465206163636F756E74 PUSH1 0x0 DUP3 ADD MSTORE PUSH32 0x2066697273742E00000000000000000000000000000000000000000000000000 PUSH1 0x20 DUP3 ADD MSTORE POP JUMP JUMPDEST PUSH32 0x75736572206E6F7420657869737465642E000000000000000000000000000000 PUSH1 0x0 DUP3 ADD MSTORE POP JUMP JUMPDEST PUSH32 0x796F75277265206E6F74206C6F67676564496E2E000000000000000000000000 PUSH1 0x0 DUP3 ADD MSTORE POP JUMP JUMPDEST PUSH32 0x4C6F67696E20746F20796F7572206163636F756E742C20746F20736574207072 PUSH1 0x0 DUP3 ADD MSTORE PUSH32 0x6F66696C65207069632E00000000000000000000000000000000000000000000 PUSH1 0x20 DUP3 ADD MSTORE POP JUMP JUMPDEST PUSH32 0x75736572206E616D6520657869737465642E0000000000000000000000000000 PUSH1 0x0 DUP3 ADD MSTORE POP JUMP JUMPDEST PUSH32 0x7573657220657869737465642E00000000000000000000000000000000000000 PUSH1 0x0 DUP3 ADD MSTORE POP JUMP JUMPDEST PUSH2 0x2900 DUP2 PUSH2 0x2544 JUMP JUMPDEST DUP2 EQ PUSH2 0x290B JUMPI PUSH1 0x0 DUP1 REVERT JUMPDEST POP JUMP JUMPDEST PUSH2 0x2917 DUP2 PUSH2 0x2562 JUMP JUMPDEST DUP2 EQ PUSH2 0x2922 JUMPI PUSH1 0x0 DUP1 REVERT JUMPDEST POP JUMP JUMPDEST PUSH2 0x292E DUP2 PUSH2 0x258C JUMP JUMPDEST DUP2 EQ PUSH2 0x2939 JUMPI PUSH1 0x0 DUP1 REVERT JUMPDEST POP JUMP INVALID LOG2 PUSH5 0x6970667358 0x22 SLT KECCAK256 BLOCKHASH 0xBD 0xFB 0xD3 0x5C MSTORE 0xB1 PUSH22 0x690AF4E93907454277C92166C6530EC0757517BFAE44 PUSH19 0x4064736F6C6343000804003300000000000000 "
				},
				"gasEstimates": {
					"creation": {
						"codeDepositCost": "2122000",
						"executionCost": "infinite",
						"totalCost": "infinite"
					},
					"external": {
						"addressToAmountRecord(address)": "infinite",
						"checkLogIn(address)": "1699",
						"checkUser()": "infinite",
						"deleteUser()": "infinite",
						"getNftdata(bytes32)": "infinite",
						"getProfilePic()": "infinite",
						"getUniKeysMapping(address)": "infinite",
						"logIn()": "24623",
						"logOut()": "23716",
						"myNFTs(bytes32)": "infinite",
						"setAmountRecord(address,uint256,uint256,uint256,uint256)": "infinite",
						"setBuyNftData(address,address,uint256)": "infinite",
						"setNftData(address,address,uint256,string)": "infinite",
						"setProfilePic(string)": "infinite",
						"signUp(string)": "infinite",
						"uniKeysMapping(address,uint256)": "2590",
						"updateUser(string)": "infinite",
						"userAmountDetail(address)": "infinite",
						"userNameToAddress(string)": "infinite"
					},
					"internal": {
						"getPrivateUniqueKey(address,uint256)": "infinite"
					}
				},
				"methodIdentifiers": {
					"addressToAmountRecord(address)": "7111e750",
					"checkLogIn(address)": "f6f2ede0",
					"checkUser()": "c1562547",
					"deleteUser()": "026ff05e",
					"getNftdata(bytes32)": "46064ab9",
					"getProfilePic()": "eb972008",
					"getUniKeysMapping(address)": "5cb0122a",
					"logIn()": "377b47a3",
					"logOut()": "4be422ae",
					"myNFTs(bytes32)": "07edbdc5",
					"setAmountRecord(address,uint256,uint256,uint256,uint256)": "894fd813",
					"setBuyNftData(address,address,uint256)": "9bf44b7d",
					"setNftData(address,address,uint256,string)": "9efa528e",
					"setProfilePic(string)": "011f2cce",
					"signUp(string)": "adcfb4fc",
					"uniKeysMapping(address,uint256)": "23e583b4",
					"updateUser(string)": "0b4f12f6",
					"userAmountDetail(address)": "8a1b9736",
					"userNameToAddress(string)": "6c608709"
				}
			},
			"storageLayout": {
				"storage": [
					{
						"astId": 378,
						"contract": "Bluelight-MP/UserDashboard.sol:UserDashboard",
						"label": "waterMelonAddr",
						"offset": 0,
						"slot": "0",
						"type": "t_contract(IWaterMelon)319"
					},
					{
						"astId": 383,
						"contract": "Bluelight-MP/UserDashboard.sol:UserDashboard",
						"label": "myNFTs",
						"offset": 0,
						"slot": "1",
						"type": "t_mapping(t_bytes32,t_struct(MyNFT)355_storage)"
					},
					{
						"astId": 388,
						"contract": "Bluelight-MP/UserDashboard.sol:UserDashboard",
						"label": "uniKeysMapping",
						"offset": 0,
						"slot": "2",
						"type": "t_mapping(t_address,t_array(t_bytes32)dyn_storage)"
					},
					{
						"astId": 393,
						"contract": "Bluelight-MP/UserDashboard.sol:UserDashboard",
						"label": "users",
						"offset": 0,
						"slot": "3",
						"type": "t_mapping(t_address,t_struct(User)366_storage)"
					},
					{
						"astId": 397,
						"contract": "Bluelight-MP/UserDashboard.sol:UserDashboard",
						"label": "userNameToAddress",
						"offset": 0,
						"slot": "4",
						"type": "t_mapping(t_string_memory_ptr,t_address)"
					},
					{
						"astId": 402,
						"contract": "Bluelight-MP/UserDashboard.sol:UserDashboard",
						"label": "addressToAmountRecord",
						"offset": 0,
						"slot": "5",
						"type": "t_mapping(t_address,t_struct(AmountRecord)375_storage)"
					}
				],
				"types": {
					"t_address": {
						"encoding": "inplace",
						"label": "address",
						"numberOfBytes": "20"
					},
					"t_array(t_bytes32)dyn_storage": {
						"base": "t_bytes32",
						"encoding": "dynamic_array",
						"label": "bytes32[]",
						"numberOfBytes": "32"
					},
					"t_bool": {
						"encoding": "inplace",
						"label": "bool",
						"numberOfBytes": "1"
					},
					"t_bytes32": {
						"encoding": "inplace",
						"label": "bytes32",
						"numberOfBytes": "32"
					},
					"t_contract(IWaterMelon)319": {
						"encoding": "inplace",
						"label": "contract IWaterMelon",
						"numberOfBytes": "20"
					},
					"t_mapping(t_address,t_array(t_bytes32)dyn_storage)": {
						"encoding": "mapping",
						"key": "t_address",
						"label": "mapping(address => bytes32[])",
						"numberOfBytes": "32",
						"value": "t_array(t_bytes32)dyn_storage"
					},
					"t_mapping(t_address,t_struct(AmountRecord)375_storage)": {
						"encoding": "mapping",
						"key": "t_address",
						"label": "mapping(address => struct UserDashboard.AmountRecord)",
						"numberOfBytes": "32",
						"value": "t_struct(AmountRecord)375_storage"
					},
					"t_mapping(t_address,t_struct(User)366_storage)": {
						"encoding": "mapping",
						"key": "t_address",
						"label": "mapping(address => struct UserDashboard.User)",
						"numberOfBytes": "32",
						"value": "t_struct(User)366_storage"
					},
					"t_mapping(t_bytes32,t_struct(MyNFT)355_storage)": {
						"encoding": "mapping",
						"key": "t_bytes32",
						"label": "mapping(bytes32 => struct UserDashboard.MyNFT)",
						"numberOfBytes": "32",
						"value": "t_struct(MyNFT)355_storage"
					},
					"t_mapping(t_string_memory_ptr,t_address)": {
						"encoding": "mapping",
						"key": "t_string_memory_ptr",
						"label": "mapping(string => address)",
						"numberOfBytes": "32",
						"value": "t_address"
					},
					"t_string_memory_ptr": {
						"encoding": "bytes",
						"label": "string",
						"numberOfBytes": "32"
					},
					"t_string_storage": {
						"encoding": "bytes",
						"label": "string",
						"numberOfBytes": "32"
					},
					"t_struct(AmountRecord)375_storage": {
						"encoding": "inplace",
						"label": "struct UserDashboard.AmountRecord",
						"members": [
							{
								"astId": 368,
								"contract": "Bluelight-MP/UserDashboard.sol:UserDashboard",
								"label": "curAmountSpent",
								"offset": 0,
								"slot": "0",
								"type": "t_uint256"
							},
							{
								"astId": 370,
								"contract": "Bluelight-MP/UserDashboard.sol:UserDashboard",
								"label": "tokenAmountSpent",
								"offset": 0,
								"slot": "1",
								"type": "t_uint256"
							},
							{
								"astId": 372,
								"contract": "Bluelight-MP/UserDashboard.sol:UserDashboard",
								"label": "curAmountEarned",
								"offset": 0,
								"slot": "2",
								"type": "t_uint256"
							},
							{
								"astId": 374,
								"contract": "Bluelight-MP/UserDashboard.sol:UserDashboard",
								"label": "tokenAmountEarned",
								"offset": 0,
								"slot": "3",
								"type": "t_uint256"
							}
						],
						"numberOfBytes": "128"
					},
					"t_struct(MyNFT)355_storage": {
						"encoding": "inplace",
						"label": "struct UserDashboard.MyNFT",
						"members": [
							{
								"astId": 348,
								"contract": "Bluelight-MP/UserDashboard.sol:UserDashboard",
								"label": "contractAddress",
								"offset": 0,
								"slot": "0",
								"type": "t_address"
							},
							{
								"astId": 350,
								"contract": "Bluelight-MP/UserDashboard.sol:UserDashboard",
								"label": "tokenId",
								"offset": 0,
								"slot": "1",
								"type": "t_uint256"
							},
							{
								"astId": 352,
								"contract": "Bluelight-MP/UserDashboard.sol:UserDashboard",
								"label": "owner",
								"offset": 0,
								"slot": "2",
								"type": "t_address"
							},
							{
								"astId": 354,
								"contract": "Bluelight-MP/UserDashboard.sol:UserDashboard",
								"label": "ipfs",
								"offset": 0,
								"slot": "3",
								"type": "t_string_storage"
							}
						],
						"numberOfBytes": "128"
					},
					"t_struct(User)366_storage": {
						"encoding": "inplace",
						"label": "struct UserDashboard.User",
						"members": [
							{
								"astId": 357,
								"contract": "Bluelight-MP/UserDashboard.sol:UserDashboard",
								"label": "userName",
								"offset": 0,
								"slot": "0",
								"type": "t_string_storage"
							},
							{
								"astId": 359,
								"contract": "Bluelight-MP/UserDashboard.sol:UserDashboard",
								"label": "userExisted",
								"offset": 0,
								"slot": "1",
								"type": "t_bool"
							},
							{
								"astId": 361,
								"contract": "Bluelight-MP/UserDashboard.sol:UserDashboard",
								"label": "creationTime",
								"offset": 0,
								"slot": "2",
								"type": "t_uint256"
							},
							{
								"astId": 363,
								"contract": "Bluelight-MP/UserDashboard.sol:UserDashboard",
								"label": "loggedIn",
								"offset": 0,
								"slot": "3",
								"type": "t_bool"
							},
							{
								"astId": 365,
								"contract": "Bluelight-MP/UserDashboard.sol:UserDashboard",
								"label": "profilePic",
								"offset": 0,
								"slot": "4",
								"type": "t_string_storage"
							}
						],
						"numberOfBytes": "160"
					},
					"t_uint256": {
						"encoding": "inplace",
						"label": "uint256",
						"numberOfBytes": "32"
					}
				}
			},
			"userdoc": {
				"kind": "user",
				"methods": {},
				"version": 1
			}
		}
	}
}